000L2020082200000PAYPORT CONSULTING PTY LTD3   000114806432                                                                                                                                           
010LC637000000110                                                                                                                                                                                     
011LC63763200500000040945448840120200822                                                                                                                                                              
013L1020200821000001632005000000405859973200000001500PAYPORT              cisintest02682502000001                DEAN STEENKAMP                                                                       
014L0000000000000000010000000040585997320000000000000000000000001500                                                                                                                                  
019L0000000000000000010000000040585997320000000000000000000000001500                                                                                                                                  
999L000000007                                                                                                                                                                                         
