000L2021012000000PAYPORT CONSULTING PTY LTD    000059407303                                                                                                                                           
900L000 TRANSMISSION 07303-0000049 ACCEPTED                                                                                                                                                           
900L001 ACB USER SET D237-0000053-000426 ACCEPTED                                                                                                                                                     
903L001L5063200504094544892D23700000105100100088948951100000008500210121350   CRESCENT1 CUS0033468          B ISAACS                      00000000000000000000                21                      
903L001L5063200504094544892D23700000225065562435885366100000008500210121350   CRESCENT1 CUS0057715          L JATTIEM                     00000000000000000000                21                      
903L001L5063200504094544892D23700000319876502341098444200000008500210121350   CRESCENT1 CUS0033502          A ABDUL LATIEF                00000000000000000000                21                      
903L001L5063200504094544892D23700000447001001420429165200000008500210121350   CRESCENT1 CUS0057829          E CLOETE                      00000000000000000000                21                      
903L001L5063200504094544892D23700000525065562356776074100000016000210121350   CRESCENT1 CUS0033625          A VEE ISMAIL                  00000000000000000000                21                      
903L001L5063200504094544892D23700000647001001420431909200000008500210121350   CRESCENT1 CUS0057921          D SEDULLA                     00000000000000000000                21                      
903L001L5063200504094544892D23700000763200504088203200100000008500210121350   CRESCENT1 CUS0033961          Z CASSIM                      00000000000000000000                21                      
903L001L5063200504094544892D23700000825065562819432923100000008500210121350   CRESCENT1 CUS0057935          F VAN WITT                    00000000000000000000                21                      
903L001L5063200504094544892D23700000963200501581072678100000008500210121350   CRESCENT1 CUS0033962          M CASSIM                      00000000000000000000                21                      
903L001L5063200504094544892D23700001047001001449579122200000008500210121350   CRESCENT1 CUS0057942          B WHITEBOY                    00000000000000000000                21                      
903L001L5063200504094544892D23700001119876502202011420200000016000210121350   CRESCENT1 CUS0034059          M VANKER                      00000000000000000000                21                      
903L001L5063200504094544892D23700001247001001117423679200000008500210121350   CRESCENT1 CUS0058009          S JACOBS                      00000000000000000000                21                      
903L001L5063200504094544892D23700001325065562058023145100000008500210121350   CRESCENT1 CUS0034124          M LAWS                        00000000000000000000                21                      
903L001L5063200504094544892D23700001447001001145773131200000008500210121350   CRESCENT1 CUS0058031          S BOWERS                      00000000000000000000                21                      
903L001L5063200504094544892D23700001519876502145023003200000016000210121350   CRESCENT1 CUS0034220          S SHAIK ALI                   00000000000000000000                21                      
903L001L5063200504094544892D23700001647001001467998999200000008500210121350   CRESCENT1 CUS0058036          I BASARIEN                    00000000000000000000                21                      
903L001L5063200504094544892D23700001725065562155222591100000007500210121350   CRESCENT1 CUS0034587          S BAKAWALA                    00000000000000000000                21                      
903L001L5063200504094544892D23700001819876501058058193100000008500210121350   CRESCENT1 CUS0058194          F HENDRICKS                   00000000000000000000                21                      
903L001L5063200504094544892D23700001905100100009235086100000016000210121350   CRESCENT1 CUS0035418          N DURRELL                     00000000000000000000                21                      
903L001L5063200504094544892D23700002047001001329759948200000008500210121350   CRESCENT1 CUS0058316          K HASSIM                      00000000000000000000                21                      
903L001L5063200504094544892D23700002105100100008201374100000008500210121350   CRESCENT1 CUS0035573          SWART                         00000000000000000000                21                      
903L001L5063200504094544892D23700002225065562830289337100000016000210121350   CRESCENT1 CUS0058350          K WILLIAMS                    00000000000000000000                21                      
903L001L5063200504094544892D23700002363200509100407143100000007500210121350   CRESCENT1 CUS0035897          M ADAMS                       00000000000000000000                21                      
903L001L5063200504094544892D23700002447001001544585892200000016000210121350   CRESCENT1 CUS0058410          A SMITH                       00000000000000000000                21                      
903L001L5063200504094544892D23700002525065562825600952100000016000210121350   CRESCENT1 CUS0036030          A VAN DER MERWE               00000000000000000000                21                      
903L001L5063200504094544892D23700002625065562421702996100000006900210121350   CRESCENT1 CUS0058612          M HARTLEY                     00000000000000000000                21                      
903L001L5063200504094544892D23700002705100100402284011100000023500210121350   CRESCENT1 CUS0036379          A GAFOOR                      00000000000000000000                21                      
903L001L5063200504094544892D23700002805100100022016023100000006900210121350   CRESCENT1 CUS0058613          F HASSIM                      00000000000000000000                21                      
903L001L5063200504094544892D23700002963200509132320557100000016000210121350   CRESCENT1 CUS0036509          A LIVINGSTONE                 00000000000000000000                21                      
903L001L5063200504094544892D23700003019876501162504757100000006900210121350   CRESCENT1 CUS0058615          F ISMAIL                      00000000000000000000                21                      
903L001L5063200504094544892D23700003147001001307979368200000016000210121350   CRESCENT1 CUS0036620          K KIVIDO                      00000000000000000000                21                      
903L001L5063200504094544892D23700003225065562599183325100000008500210121350   CRESCENT1 CUS0058620          K WILLIAMS GUDAAR             00000000000000000000                21                      
903L001L5063200504094544892D23700003305100100058960406100000008500210121350   CRESCENT1 CUS0036913          M RAZAK                       00000000000000000000                21                      
903L001L5063200504094544892D23700003463200509356004406100000008500210121350   CRESCENT1 CUS0058625          G SIMONS                      00000000000000000000                21                      
903L001L5063200504094544892D23700003505100100009246061100000023500210121350   CRESCENT1 CUS0036967          M JONES                       00000000000000000000                21                      
903L001L5063200504094544892D23700003605100100272859508100000008500210121350   CRESCENT1 CUS0058660          I PETERSE                     00000000000000000000                21                      
903L001L5063200504094544892D23700003705100100009007539100000007500210121350   CRESCENT1 CUS0037112          R FAKIR                       00000000000000000000                21                      
903L001L5063200504094544892D23700003805100100202722996100000008500210121350   CRESCENT1 CUS0058666          A CHARLES                     00000000000000000000                21                      
903L001L5063200504094544892D23700003963200504044614243100000023500210121350   CRESCENT1 CUS0037173          F HAYNES                      00000000000000000000                21                      
903L001L5063200504094544892D23700004019876501108449263100000008500210121350   CRESCENT1 CUS0058683          S SNAYERS                     00000000000000000000                21                      
903L001L5063200504094544892D23700004125065562007188320100000008500210121350   CRESCENT1 CUS0037184          F MATTHEWS                    00000000000000000000                21                      
903L001L5063200504094544892D23700004247001001586815510200000007500210121350   CRESCENT1 CUS0058685          F GABIER                      00000000000000000000                21                      
903L001L5063200504094544892D23700004319876501169042686100000008500210121350   CRESCENT1 CUS0037314          S LOONAT                      00000000000000000000                21                      
903L001L5063200504094544892D23700004447001001505990848200000008500210121350   CRESCENT1 CUS0058689          I AMLAY                       00000000000000000000                21                      
903L001L5063200504094544892D23700004519876501077898959100000016000210121350   CRESCENT1 CUS0037424          F SCHROEDER                   00000000000000000000                21                      
903L001L5063200504094544892D23700004625065562664071520100000008500210121350   CRESCENT1 CUS0058756          A JASSAT                      00000000000000000000                21                      
903L001L5063200504094544892D23700004725065562009638779100000008500210121350   CRESCENT1 CUS0037460          Z PAHAD                       00000000000000000000                21                      
903L001L5063200504094544892D23700004825065562772112274100000008500210121350   CRESCENT1 CUS0058762          C MILANZI                     00000000000000000000                21                      
903L001L5063200504094544892D23700004919876501305887158100000008500210121350   CRESCENT1 CUS0037668          S VANKER                      00000000000000000000                21                      
903L001L5063200504094544892D23700005047001001647256397200000008500210121350   CRESCENT1 CUS0058779          R ISAACS                      00000000000000000000                21                      
903L001L5063200504094544892D23700005125065562211035359100000008500210121350   CRESCENT1 CUS0037715          H RASS                        00000000000000000000                21                      
903L001L5063200504094544892D23700005205100100080796680100000006900210121350   CRESCENT1 CUS0058800          G LILLAH                      00000000000000000000                21                      
903L001L5063200504094544892D23700005319876501184964289100000016000210121350   CRESCENT1 CUS0037761          E PETERS                      00000000000000000000                21                      
903L001L5063200504094544892D23700005419876501183152043100000016000210121350   CRESCENT1 CUS0058852          S BROWN                       00000000000000000000                21                      
903L001L5063200504094544892D23700005563200504079617127100000008500210121350   CRESCENT1 CUS0037876          A NORDIEN                     00000000000000000000                21                      
903L001L5063200504094544892D23700005605100110063510616100000008500210121350   CRESCENT1 CUS0058858          Z BHAM                        00000000000000000000                21                      
903L001L5063200504094544892D23700005705100110007112362100000008500210121350   CRESCENT1 CUS0037996          F ABRAHAMS                    00000000000000000000                21                      
903L001L5063200504094544892D23700005825065562242950237100000008500210121350   CRESCENT1 CUS0058893          F CADER                       00000000000000000000                21                      
903L001L5063200504094544892D23700005905100100009224858100000008500210121350   CRESCENT1 CUS0038145          L RASS                        00000000000000000000                21                      
903L001L5063200504094544892D23700006005100100243388691100000006900210121350   CRESCENT1 CUS0058899          A RAJAP                       00000000000000000000                21                      
903L001L5063200504094544892D23700006147001001691398258200000016000210121350   CRESCENT1 CUS0038281          A PETER                       00000000000000000000                21                      
903L001L5063200504094544892D23700006205100100079071279100000008500210121350   CRESCENT1 CUS0058903          N FAKEIR                      00000000000000000000                21                      
903L001L5063200504094544892D23700006305100110092502383100000016000210121350   CRESCENT1 CUS0038381          T HENDRICKS                   00000000000000000000                21                      
903L001L5063200504094544892D23700006463200509302588769100000006900210121350   CRESCENT1 CUS0058915          S KRIEL                       00000000000000000000                21                      
903L001L5063200504094544892D23700006525065562279654977100000008500210121350   CRESCENT1 CUS0038709          Y BHAYAT                      00000000000000000000                21                      
903L001L5063200504094544892D23700006625065562051291096100000008500210121350   CRESCENT1 CUS0058916          S HOOSEN                      00000000000000000000                21                      
903L001L5063200504094544892D23700006719876501933076690100000008500210121350   CRESCENT1 CUS0038879          S CASOO                       00000000000000000000                21                      
903L001L5063200504094544892D23700006825065562341897348100000008500210121350   CRESCENT1 CUS0058922          H MOREIRA                     00000000000000000000                21                      
903L001L5063200504094544892D23700006925065562482385749100000008500210121350   CRESCENT1 CUS0038915          N TIKLY                       00000000000000000000                21                      
903L001L5063200504094544892D23700007047001001437342343200000008500210121350   CRESCENT1 CUS0058955          T LOSPER                      00000000000000000000                21                      
903L001L5063200504094544892D23700007105100100243111789100000008500210121350   CRESCENT1 CUS0038943          I EBRAHIM                     00000000000000000000                21                      
903L001L5063200504094544892D23700007247001001735655846200000008500210121350   CRESCENT1 CUS0058990          I JOHNSON                     00000000000000000000                21                      
903L001L5063200504094544892D23700007325065562384055987100000008500210121350   CRESCENT1 CUS0039088          E JACOBS                      00000000000000000000                21                      
903L001L5063200504094544892D23700007419876501101932546100000008500210121350   CRESCENT1 CUS0059012          S ESSA                        00000000000000000000                21                      
903L001L5063200504094544892D23700007563200509131269005100000008500210121350   CRESCENT1 CUS0039120          K BALLIM                      00000000000000000000                21                      
903L001L5063200504094544892D23700007647001001499900897200000006900210121350   CRESCENT1 CUS0059076          M HARTLEY                     00000000000000000000                21                      
903L001L5063200504094544892D23700007725065562441475945100000008500210121350   CRESCENT1 CUS0039204          A ADAM                        00000000000000000000                21                      
903L001L5063200504094544892D23700007825065562349976912100000008500210121350   CRESCENT1 CUS0059150          I CASSIM                      00000000000000000000                21                      
903L001L5063200504094544892D23700007905100100009253122100000023500210121350   CRESCENT1 CUS0039432          A MOOSA                       00000000000000000000                21                      
903L001L5063200504094544892D23700008063200505048871338100000008500210121350   CRESCENT1 CUS0059172          W ABDURAHMAN                  00000000000000000000                21                      
903L001L5063200504094544892D23700008105100100302341684100000008500210121350   CRESCENT1 CUS0039587          K SIMON                       00000000000000000000                21                      
903L001L5063200504094544892D23700008225065562624976687100000008500210121350   CRESCENT1 CUS0059200          G HARRIS                      00000000000000000000                21                      
903L001L5063200504094544892D23700008325065562002430677100000008500210121350   CRESCENT1 CUS0040236          A AUGUST                      00000000000000000000                21                      
903L001L5063200504094544892D23700008463200509296960178100000008500210121350   CRESCENT1 CUS0059221          Y HALIM                       00000000000000000000                21                      
903L001L5063200504094544892D23700008525065562155496188100000008500210121350   CRESCENT1 CUS0040373          M SUJEE                       00000000000000000000                21                      
903L001L5063200504094544892D23700008619876501128493802100000008500210121350   CRESCENT1 CUS0059248          R KHAN                        00000000000000000000                21                      
903L001L5063200504094544892D23700008763200509259477598100000016000210121350   CRESCENT1 CUS0040407          L DANIELS                     00000000000000000000                21                      
903L001L5063200504094544892D23700008847001001506963879200000008500210121350   CRESCENT1 CUS0059310          N THWALA                      00000000000000000000                21                      
903L001L5063200504094544892D23700008947001001318198346200000006900210121350   CRESCENT1 CUS0040437          G SAMUELS                     00000000000000000000                21                      
903L001L5063200504094544892D23700009025065562482639683100000008500210121350   CRESCENT1 CUS0059312          S ABDUL                       00000000000000000000                21                      
903L001L5063200504094544892D23700009119876501381338097100000008500210121350   CRESCENT1 CUS0040827          M ABDUL                       00000000000000000000                21                      
903L001L5063200504094544892D23700009225065560528284487100000008500210121350   CRESCENT1 CUS0059320          Z VALLY                       00000000000000000000                21                      
903L001L5063200504094544892D23700009347001001209955855200000016000210121350   CRESCENT1 CUS0040945          F SULEMAN                     00000000000000000000                21                      
903L001L5063200504094544892D23700009419876501083341294100000008500210121350   CRESCENT1 CUS0059349          Y ANTHONY                     00000000000000000000                21                      
903L001L5063200504094544892D23700009505100100040805484100000016000210121350   CRESCENT1 CUS0040958          M SEEDAT                      00000000000000000000                21                      
903L001L5063200504094544892D23700009647001001603686582200000008500210121350   CRESCENT1 CUS0059477          A SAFODIEN                    00000000000000000000                21                      
903L001L5063200504094544892D23700009719876501103334794100000016000210121350   CRESCENT1 CUS0041131          J BROWN                       00000000000000000000                21                      
903L001L5063200504094544892D23700009805100100071716513100000016000210121350   CRESCENT1 CUS0059496          E MOHEDEEN                    00000000000000000000                21                      
903L001L5063200504094544892D23700009905100100008944199100000008500210121350   CRESCENT1 CUS0041303          J WAJA                        00000000000000000000                21                      
903L001L5063200504094544892D23700010025065562059866536100000008500210121350   CRESCENT1 CUS0041361          S ISMAIL                      00000000000000000000                21                      
903L001L5063200504094544892D23700010147001000133940465200000008500210121350   CRESCENT1 CUS0041362          I BEUKMAN                     00000000000000000000                21                      
903L001L5063200504094544892D23700010205100100008982112100000038500210121350   CRESCENT1 CUS0041369          A CRADDOCK                    00000000000000000000                21                      
903L001L5063200504094544892D23700010325065554471151306100000008500210121350   CRESCENT1 CUS0041477          M MAYET                       00000000000000000000                21                      
903L001L5063200504094544892D23700010425065562636870918100000008500210121350   CRESCENT1 CUS0041483          Z NAJAM                       00000000000000000000                21                      
903L001L5063200504094544892D23700010563200504093551676100000008500210121350   CRESCENT1 CUS0041563          M KALANE                      00000000000000000000                21                      
903L001L5063200504094544892D23700010625065562014323464100000008500210121350   CRESCENT1 CUS0041687          M JOOMA                       00000000000000000000                21                      
903L001L5063200504094544892D23700010719876501025716604100000008500210121350   CRESCENT1 CUS0041762          A SALEH                       00000000000000000000                21                      
903L001L5063200504094544892D23700010805100100302476016100000008500210121350   CRESCENT1 CUS0041765          N ABRAHAM                     00000000000000000000                21                      
903L001L5063200504094544892D23700010919876501340264706100000008500210121350   CRESCENT1 CUS0041808          S ALLI                        00000000000000000000                21                      
903L001L5063200504094544892D23700011063200509270650957100000016000210121350   CRESCENT1 CUS0041824          F SHAIK                       00000000000000000000                21                      
903L001L5063200504094544892D23700011163200509195080815100000008500210121350   CRESCENT1 CUS0041892          R DAWOOD                      00000000000000000000                21                      
903L001L5063200504094544892D23700011225065562096747286100000008500210121350   CRESCENT1 CUS0041903          H MUMUNI                      00000000000000000000                21                      
903L001L5063200504094544892D23700011363200509237097360100000008500210121350   CRESCENT1 CUS0041957          W JEFTHA                      00000000000000000000                21                      
903L001L5063200504094544892D23700011425065562011513373100000008500210121350   CRESCENT1 CUS0041960          A MAHOMED                     00000000000000000000                21                      
903L001L5063200504094544892D23700011505100100309164206100000008500210121350   CRESCENT1 CUS0042230          L JOHNSON                     00000000000000000000                21                      
903L001L5063200504094544892D23700011625065562333334689100000008500210121350   CRESCENT1 CUS0042261          I LAWRENCE                    00000000000000000000                21                      
903L001L5063200504094544892D23700011719876501051929199100000008500210121350   CRESCENT1 CUS0042367          A LILLAH                      00000000000000000000                21                      
903L001L5063200504094544892D23700011825065562011238103100000008500210121350   CRESCENT1 CUS0042523          G ABRAHAMS                    00000000000000000000                21                      
903L001L5063200504094544892D23700011905100100309161827100000008500210121350   CRESCENT1 CUS0042537          S ABDOOL MAGID                00000000000000000000                21                      
903L001L5063200504094544892D23700012019876501062562690100000008500210121350   CRESCENT1 CUS0042642          I KAROLIA                     00000000000000000000                21                      
903L001L5063200504094544892D23700012125065560060316706100000007500210121350   CRESCENT1 CUS0042990          R ISAACS                      00000000000000000000                21                      
903L001L5063200504094544892D23700012263200504079127976100000008500210121350   CRESCENT1 CUS0043027          N AHMED                       00000000000000000000                21                      
903L001L5063200504094544892D23700012325065562451339488100000008500210121350   CRESCENT1 CUS0043141          F MAHOMED                     00000000000000000000                21                      
903L001L5063200504094544892D23700012425065501062707516100000008500210121350   CRESCENT1 CUS0043342          M NADAT                       00000000000000000000                21                      
903L001L5063200504094544892D23700012525065562659435939100000008500210121350   CRESCENT1 CUS0043559          Z ADAMS                       00000000000000000000                21                      
903L001L5063200504094544892D23700012605100100070792224100000016000210121350   CRESCENT1 CUS0043585          I HANSLO                      00000000000000000000                21                      
903L001L5063200504094544892D23700012780000078600104052200000007500210121350   CRESCENT1 CUS0043690          R DESAI                       00000000000000000000                21                      
903L001L5063200504094544892D23700012819876501219002585100000008500210121350   CRESCENT1 CUS0043692          Y EBRAHIM                     00000000000000000000                21                      
903L001L5063200504094544892D23700012905100100309176425100000008500210121350   CRESCENT1 CUS0043699          N BANJIES                     00000000000000000000                21                      
903L001L5063200504094544892D23700013025065562322801334100000007500210121350   CRESCENT1 CUS0043766          A GABIER                      00000000000000000000                21                      
903L001L5063200504094544892D23700013105100100073776874100000008500210121350   CRESCENT1 CUS0043773          A DALWAI                      00000000000000000000                21                      
903L001L5063200504094544892D23700013247001001250166525200000008500210121350   CRESCENT1 CUS0043847          B ISAAC                       00000000000000000000                21                      
903L001L5063200504094544892D23700013305100100309177243100000008500210121350   CRESCENT1 CUS0043853          M AHMED                       00000000000000000000                21                      
903L001L5063200504094544892D23700013425065562473976911100000016000210121350   CRESCENT1 CUS0043865          F JACOBS                      00000000000000000000                21                      
903L001L5063200504094544892D23700013505100100042577888100000008500210121350   CRESCENT1 CUS0043977          A ESSA                        00000000000000000000                21                      
903L001L5063200504094544892D23700013625065562024415417100000008500210121350   CRESCENT1 CUS0044003          M HENDRICKS                   00000000000000000000                21                      
903L001L5063200504094544892D23700013705100100000399094100000008500210121350   CRESCENT1 CUS0044111          Z FARJOO                      00000000000000000000                21                      
903L001L5063200504094544892D23700013805100100029152917100000016000210121350   CRESCENT1 CUS0044130          R SWARTZ                      00000000000000000000                21                      
903L001L5063200504094544892D23700013925065550269010910100000006900210121350   CRESCENT1 CUS0044137          A KARRIEM                     00000000000000000000                21                      
903L001L5063200504094544892D23700014025065562110334547100000008500210121350   CRESCENT1 CUS0044348          E SULIMAN                     00000000000000000000                21                      
903L001L5063200504094544892D23700014125065560034246707100000008500210121350   CRESCENT1 CUS0044502          H UNWARSA                     00000000000000000000                21                      
903L001L5063200504094544892D23700014263200504071694450100000008500210121350   CRESCENT1 CUS0044507          R ABRAHAMS                    00000000000000000000                21                      
903L001L5063200504094544892D23700014363200504083895191100000008500210121350   CRESCENT1 CUS0044509          N EUSUPH                      00000000000000000000                21                      
903L001L5063200504094544892D23700014447001001532133624200000008500210121350   CRESCENT1 CUS0044629          S WAHEED KHAN                 00000000000000000000                21                      
903L001L5063200504094544892D23700014519876501084293129100000008500210121350   CRESCENT1 CUS0044793          S HAMMOMD                     00000000000000000000                21                      
903L001L5063200504094544892D23700014625065562485716496100000008500210121350   CRESCENT1 CUS0044815          S CARRIM                      00000000000000000000                21                      
903L001L5063200504094544892D23700014705100100335018270100000008500210121350   CRESCENT1 CUS0044835          J MAHOMED                     00000000000000000000                21                      
903L001L5063200504094544892D23700014805100100009349367100000008500210121350   CRESCENT1 CUS0044862          M MAJID                       00000000000000000000                21                      
903L001L5063200504094544892D23700014925065562468827674100000016000210121350   CRESCENT1 CUS0044869          A AZIZ                        00000000000000000000                21                      
903L001L5063200504094544892D23700015005100110137551043100000008500210121350   CRESCENT1 CUS0044888          Z SALLIE                      00000000000000000000                21                      
903L001L5063200504094544892D23700015163200509268475705100000016000210121350   CRESCENT1 CUS0044909          R HAJEE                       00000000000000000000                21                      
903L001L5063200504094544892D23700015225065562494895116100000008500210121350   CRESCENT1 CUS0044962          S KALULE                      00000000000000000000                21                      
903L001L5063200504094544892D23700015325065562388038385100000016000210121350   CRESCENT1 CUS0045006          J HENDRICKS                   00000000000000000000                21                      
903L001L5063200504094544892D23700015425065562021800190100000008500210121350   CRESCENT1 CUS0045184          A MOOSA                       00000000000000000000                21                      
903L001L5063200504094544892D23700015505100100033138362100000008500210121350   CRESCENT1 CUS0045189          N PANDOR                      00000000000000000000                21                      
903L001L5063200504094544892D23700015663200504084178938100000008500210121350   CRESCENT1 CUS0045308          T KHAN                        00000000000000000000                21                      
903L001L5063200504094544892D23700015705100100200173162100000008500210121350   CRESCENT1 CUS0045533          M RAJU                        00000000000000000000                21                      
903L001L5063200504094544892D23700015805100100371624827100000008500210121350   CRESCENT1 CUS0045592          Q KHAN                        00000000000000000000                21                      
903L001L5063200504094544892D23700015905100100002497204100000008500210121350   CRESCENT1 CUS0045601          L KHAN                        00000000000000000000                21                      
903L001L5063200504094544892D23700016005100100302493360100000016000210121350   CRESCENT1 CUS0045650          A NABEE                       00000000000000000000                21                      
903L001L5063200504094544892D23700016163200509214130664100000008500210121350   CRESCENT1 CUS0045757          M MOHAMED                     00000000000000000000                21                      
903L001L5063200504094544892D23700016205100100270550259100000008500210121350   CRESCENT1 CUS0045916          A JONES                       00000000000000000000                21                      
903L001L5063200504094544892D23700016363200504082152536100000008500210121350   CRESCENT1 CUS0046054          Z DREYER                      00000000000000000000                21                      
903L001L5063200504094544892D23700016463200509096338749100000008500210121350   CRESCENT1 CUS0046093          F KHAN                        00000000000000000000                21                      
903L001L5063200504094544892D23700016563200504074916839100000008500210121350   CRESCENT1 CUS0046098          A MEYER                       00000000000000000000                21                      
903L001L5063200504094544892D23700016605100100008941475100000007500210121350   CRESCENT1 CUS0046214          A KARA                        00000000000000000000                21                      
903L001L5063200504094544892D23700016725065562452745064100000008500210121350   CRESCENT1 CUS0046215          L MBHELE                      00000000000000000000                21                      
903L001L5063200504094544892D23700016825065562340366427100000007500210121350   CRESCENT1 CUS0046412          Y RASHID                      00000000000000000000                21                      
903L001L5063200504094544892D23700016963200504090290754100000008500210121350   CRESCENT1 CUS0046458          R REEP                        00000000000000000000                21                      
903L001L5063200504094544892D23700017063200500123788028100000008500210121350   CRESCENT1 CUS0046656          G HOOSEN                      00000000000000000000                21                      
903L001L5063200504094544892D23700017125065562279569788100000008500210121350   CRESCENT1 CUS0047122          M SHEIKH                      00000000000000000000                21                      
903L001L5063200504094544892D23700017225065555130009878100000008500210121350   CRESCENT1 CUS0047479          A DAWOOD                      00000000000000000000                21                      
903L001L5063200504094544892D23700017363200509169877474100000008500210121350   CRESCENT1 CUS0047580          T BROWNLEY                    00000000000000000000                21                      
903L001L5063200504094544892D23700017425065562365710998100000008500210121350   CRESCENT1 CUS0047676          M SARANG                      00000000000000000000                21                      
903L001L5063200504094544892D23700017563200504071644382100000008500210121350   CRESCENT1 CUS0047678          C WILLIAMS                    00000000000000000000                21                      
903L001L5063200504094544892D23700017605100100001720112100000016000210121350   CRESCENT1 CUS0047679          E MOOSA                       00000000000000000000                21                      
903L001L5063200504094544892D23700017725065562026741951100000008500210121350   CRESCENT1 CUS0047762          C REEVES                      00000000000000000000                21                      
903L001L5063200504094544892D23700017825065550079019970100000008500210121350   CRESCENT1 CUS0047941          A RAYNED                      00000000000000000000                21                      
903L001L5063200504094544892D23700017919876501006716009100000008500210121350   CRESCENT1 CUS0047942          R DENNIS                      00000000000000000000                21                      
903L001L5063200504094544892D23700018063200504074726163100000016000210121350   CRESCENT1 CUS0048054          G CORNELIUS                   00000000000000000000                21                      
903L001L5063200504094544892D23700018125065562546818876100000008500210121350   CRESCENT1 CUS0048061          A NAIDOO                      00000000000000000000                21                      
903L001L5063200504094544892D23700018225065562374492537100000008500210121350   CRESCENT1 CUS0048132          A JACOBS                      00000000000000000000                21                      
903L001L5063200504094544892D23700018305100100401876314100000008500210121350   CRESCENT1 CUS0048366          Z MAYNER                      00000000000000000000                21                      
903L001L5063200504094544892D23700018463200504083536012100000008500210121350   CRESCENT1 CUS0048372          W SALIE                       00000000000000000000                21                      
903L001L5063200504094544892D23700018525065562349527905100000016000210121350   CRESCENT1 CUS0048501          F EBRAHIM                     00000000000000000000                21                      
903L001L5063200504094544892D23700018619876502950602339200000008500210121350   CRESCENT1 CUS0000767          S HENDRICKS                   00000000000000000000                21                      
903L001L5063200504094544892D23700018725065562574764877100000008500210121350   CRESCENT1 CUS0048673          S GANIEF                      00000000000000000000                21                      
903L001L5063200504094544892D23700018825065550979019343100000008500210121350   CRESCENT1 CUS0000870          M BENN                        00000000000000000000                21                      
903L001L5063200504094544892D23700018963200504049224015100000008500210121350   CRESCENT1 CUS0048676          N SALIE                       00000000000000000000                21                      
903L001L5063200504094544892D23700019025065562022754453100000008500210121350   CRESCENT1 CUS0001092          S GOOLAM                      00000000000000000000                21                      
903L001L5063200504094544892D23700019125065562311294342100000008500210121350   CRESCENT1 CUS0048728          Q RYKLIEF                     00000000000000000000                21                      
903L001L5063200504094544892D23700019225065559259005874100000016000210121350   CRESCENT1 CUS0001302          F ADAMS                       00000000000000000000                21                      
903L001L5063200504094544892D23700019305100100073316229100000008500210121350   CRESCENT1 CUS0048761          R SAGE                        00000000000000000000                21                      
903L001L5063200504094544892D23700019419876501970722037100000016000210121350   CRESCENT1 CUS0001455          M ABDULLA                     00000000000000000000                21                      
903L001L5063200504094544892D23700019563200504081138137100000008500210121350   CRESCENT1 CUS0048828          Z SAMUELS                     00000000000000000000                21                      
903L001L5063200504094544892D23700019619876501001812174100000016000210121350   CRESCENT1 CUS0001540          A BODIAT                      00000000000000000000                21                      
903L001L5063200504094544892D23700019725065555020020546100000008500210121350   CRESCENT1 CUS0048930          I GANCHI                      00000000000000000000                21                      
903L001L5063200504094544892D23700019863200509077049145100000008500210121350   CRESCENT1 CUS0001617          F OSMAN                       00000000000000000000                21                      
903L001L5063200504094544892D23700019905100100330704826100000006900210121350   CRESCENT1 CUS0048940          S MAHOMED                     00000000000000000000                21                      
903L001L5063200504094544892D23700020025065562697916305100000008500210121350   CRESCENT1 CUS0001714          F JOOMA                       00000000000000000000                21                      
903L001L5063200504094544892D23700020125065562180701966100000008500210121350   CRESCENT1 CUS0049008          S ESSACK                      00000000000000000000                21                      
903L001L5063200504094544892D23700020225065562185832948100000008500210121350   CRESCENT1 CUS0002494          A HARTMANN                    00000000000000000000                21                      
903L001L5063200504094544892D23700020305100100240850793100000008500210121350   CRESCENT1 CUS0049024          S AHMED GOSS                  00000000000000000000                21                      
903L001L5063200504094544892D23700020405100100009041435100000008500210121350   CRESCENT1 CUS0002526          Z AHMED                       00000000000000000000                21                      
903L001L5063200504094544892D23700020505100100209007567100000008500210121350   CRESCENT1 CUS0049062          H WADVALLA                    00000000000000000000                21                      
903L001L5063200504094544892D23700020619876501001297032100000008500210121350   CRESCENT1 CUS0002688          S KHAN                        00000000000000000000                21                      
903L001L5063200504094544892D23700020705100100372631193100000008500210121350   CRESCENT1 CUS0049104          N MANJAR                      00000000000000000000                21                      
903L001L5063200504094544892D23700020825065562059542813100000008500210121350   CRESCENT1 CUS0003334          A AJAM                        00000000000000000000                21                      
903L001L5063200504094544892D23700020963200509249576790100000008500210121350   CRESCENT1 CUS0049172          A PATEL                       00000000000000000000                21                      
903L001L5063200504094544892D23700021025065562108361677100000008500210121350   CRESCENT1 CUS0003380          M MOOSA                       00000000000000000000                21                      
903L001L5063200504094544892D23700021125065562052666404100000008500210121350   CRESCENT1 CUS0049336          Z PAULSEN                     00000000000000000000                21                      
903L001L5063200504094544892D23700021225065562832619566100000016000210121350   CRESCENT1 CUS0003421          E MILLER                      00000000000000000000                21                      
903L001L5063200504094544892D23700021305100100242228585100000008500210121350   CRESCENT1 CUS0049346          A KHAN                        00000000000000000000                21                      
903L001L5063200504094544892D23700021419876501191478521100000008500210121350   CRESCENT1 CUS0003873          N AMOD                        00000000000000000000                21                      
903L001L5063200504094544892D23700021525065562109989593100000008500210121350   CRESCENT1 CUS0049378          R KLAASTE                     00000000000000000000                21                      
903L001L5063200504094544892D23700021605100100401413403100000008500210121350   CRESCENT1 CUS0004033          R SUBJEE                      00000000000000000000                21                      
903L001L5063200504094544892D23700021747001001377328269200000008500210121350   CRESCENT1 CUS0049394          A MORRIS                      00000000000000000000                21                      
903L001L5063200504094544892D23700021825065562293208635100000008500210121350   CRESCENT1 CUS0004148          R HARTLEY                     00000000000000000000                21                      
903L001L5063200504094544892D23700021925065562030670112100000016000210121350   CRESCENT1 CUS0049395          M ARENDSE                     00000000000000000000                21                      
903L001L5063200504094544892D23700022019876501153143984100000008500210121350   CRESCENT1 CUS0004301          H HASSEN                      00000000000000000000                21                      
903L001L5063200504094544892D23700022125065562006997334100000008500210121350   CRESCENT1 CUS0049405          F ALLY                        00000000000000000000                21                      
903L001L5063200504094544892D23700022219876501645027791100000008500210121350   CRESCENT1 CUS0004559          M HANIF                       00000000000000000000                21                      
903L001L5063200504094544892D23700022347001001364233124200000008500210121350   CRESCENT1 CUS0049514          N FARRED                      00000000000000000000                21                      
903L001L5063200504094544892D23700022463200509116331342100000008500210121350   CRESCENT1 CUS0004781          L MARKGRAAFF                  00000000000000000000                21                      
903L001L5063200504094544892D23700022525065562367543743100000008500210121350   CRESCENT1 CUS0049568          S PETERSEN                    00000000000000000000                21                      
903L001L5063200504094544892D23700022619876501953443710100000007500210121350   CRESCENT1 CUS0004864          Y DESAI                       00000000000000000000                21                      
903L001L5063200504094544892D23700022763200504081224467100000008500210121350   CRESCENT1 CUS0049777          N ERASMUS                     00000000000000000000                21                      
903L001L5063200504094544892D23700022819876502895077088200000008500210121350   CRESCENT1 CUS0004888          K SHERIFF                     00000000000000000000                21                      
903L001L5063200504094544892D23700022905100100302282580100000016000210121350   CRESCENT1 CUS0049898          M GOOLAM                      00000000000000000000                21                      
903L001L5063200504094544892D23700023005100100072979232100000006900210121350   CRESCENT1 CUS0005138          R HALIM                       00000000000000000000                21                      
903L001L5063200504094544892D23700023105100100274046644100000008500210121350   CRESCENT1 CUS0049928          H SONDAY                      00000000000000000000                21                      
903L001L5063200504094544892D23700023263200509090583912100000016000210121350   CRESCENT1 CUS0005157          A AHMED                       00000000000000000000                21                      
903L001L5063200504094544892D23700023363200509299689573100000008500210121350   CRESCENT1 CUS0050035          R MOHAMED                     00000000000000000000                21                      
903L001L5063200504094544892D23700023405100100009149848100000016000210121350   CRESCENT1 CUS0006244          J MOHAMMED                    00000000000000000000                21                      
903L001L5063200504094544892D23700023547001001376526792200000008500210121350   CRESCENT1 CUS0050079          T HENDRICKS                   00000000000000000000                21                      
903L001L5063200504094544892D23700023619876502586119231200000008500210121350   CRESCENT1 CUS0006364          N BICO                        00000000000000000000                21                      
903L001L5063200504094544892D23700023705100100008978026100000008500210121350   CRESCENT1 CUS0050223          J WAJA                        00000000000000000000                21                      
903L001L5063200504094544892D23700023825065562306422297100000008500210121350   CRESCENT1 CUS0006499          Z GOUDA                       00000000000000000000                21                      
903L001L5063200504094544892D23700023919876501034276425100000008500210121350   CRESCENT1 CUS0050244          E VAN TURA                    00000000000000000000                21                      
903L001L5063200504094544892D23700024005100100309156432100000016000210121350   CRESCENT1 CUS0006763          F KHAN                        00000000000000000000                21                      
903L001L5063200504094544892D23700024147001001371947803200000008500210121350   CRESCENT1 CUS0050363          S ABRAHAMS                    00000000000000000000                21                      
903L001L5063200504094544892D23700024205100100009012117100000031000210121350   CRESCENT1 CUS0006778          A MOHAMED                     00000000000000000000                21                      
903L001L5063200504094544892D23700024305100100079103928100000008500210121350   CRESCENT1 CUS0050384          A ABRAHAMS                    00000000000000000000                21                      
903L001L5063200504094544892D23700024419876501185236627100000008500210121350   CRESCENT1 CUS0006892          A MOHAMED                     00000000000000000000                21                      
903L001L5063200504094544892D23700024525065550549011422100000008500210121350   CRESCENT1 CUS0050455          S ALLIE                       00000000000000000000                21                      
903L001L5063200504094544892D23700024605100100018955592100000008500210121350   CRESCENT1 CUS0007320          N CHANDLEY                    00000000000000000000                21                      
903L001L5063200504094544892D23700024780000078600086374200000008500210121350   CRESCENT1 CUS0050541          M ADAMS                       00000000000000000000                21                      
903L001L5063200504094544892D23700024805100100029059550100000015000210121350   CRESCENT1 CUS0007371          I MOOKADAM                    00000000000000000000                21                      
903L001L5063200504094544892D23700024925065562084295776100000007500210121350   CRESCENT1 CUS0050618          K ABDOOL                      00000000000000000000                21                      
903L001L5063200504094544892D23700025063200509229078738100000016000210121350   CRESCENT1 CUS0007387          A MIA                         00000000000000000000                21                      
903L001L5063200504094544892D23700025163200501006036151100000008500210121350   CRESCENT1 CUS0050626          M MARTIN                      00000000000000000000                21                      
903L001L5063200504094544892D23700025263200504058172398100000008500210121350   CRESCENT1 CUS0007800          F GANGAT                      00000000000000000000                21                      
903L001L5063200504094544892D23700025319876501055039813100000008500210121350   CRESCENT1 CUS0050637          Z MARCUS                      00000000000000000000                21                      
903L001L5063200504094544892D23700025425065552440026914100000008500210121350   CRESCENT1 CUS0008075          R HOOSEN                      00000000000000000000                21                      
903L001L5063200504094544892D23700025505100100282641688100000008500210121350   CRESCENT1 CUS0050666          I MOOSA                       00000000000000000000                21                      
903L001L5063200504094544892D23700025625065562363976211100000016000210121350   CRESCENT1 CUS0008327          C DE-ERUIN                    00000000000000000000                21                      
903L001L5063200504094544892D23700025725065554339008029100000008500210121350   CRESCENT1 CUS0050792          G AHMED                       00000000000000000000                21                      
903L001L5063200504094544892D23700025805100100033004382100000016000210121350   CRESCENT1 CUS0008810          I PILODIA                     00000000000000000000                21                      
903L001L5063200504094544892D23700025905100100011400137100000008500210121350   CRESCENT1 CUS0050821          F AYOB                        00000000000000000000                21                      
903L001L5063200504094544892D23700026019876502646399839200000016000210121350   CRESCENT1 CUS0008854          I KARAN                       00000000000000000000                21                      
903L001L5063200504094544892D23700026125065562615760487100000008500210121350   CRESCENT1 CUS0050979          S MARKS                       00000000000000000000                21                      
903L001L5063200504094544892D23700026205100100252077938100000008500210121350   CRESCENT1 CUS0009367          M SAYED                       00000000000000000000                21                      
903L001L5063200504094544892D23700026347001001380796731200000016000210121350   CRESCENT1 CUS0051036          N DAVIDS                      00000000000000000000                21                      
903L001L5063200504094544892D23700026419876502864006677200000008500210121350   CRESCENT1 CUS0009506          R HARTLEY                     00000000000000000000                21                      
903L001L5063200504094544892D23700026525065550310069288100000008500210121350   CRESCENT1 CUS0051315          I LAHER                       00000000000000000000                21                      
903L001L5063200504094544892D23700026663200504090533085100000023500210121350   CRESCENT1 CUS0009720          R DAVIDS                      00000000000000000000                21                      
903L001L5063200504094544892D23700026705100100072801433100000008500210121350   CRESCENT1 CUS0051512          M ZUMA                        00000000000000000000                21                      
903L001L5063200504094544892D23700026863200509163022590100000008500210121350   CRESCENT1 CUS0010294          A MATHESON                    00000000000000000000                21                      
903L001L5063200504094544892D23700026925065562379410758100000008500210121350   CRESCENT1 CUS0051542          S MAYET                       00000000000000000000                21                      
903L001L5063200504094544892D23700027005100100009138919100000016000210121350   CRESCENT1 CUS0010642          A BAMATH                      00000000000000000000                21                      
903L001L5063200504094544892D23700027163200504059203948100000008500210121350   CRESCENT1 CUS0051663          E ROSE                        00000000000000000000                21                      
903L001L5063200504094544892D23700027205100100062101455100000016000210121350   CRESCENT1 CUS0011087          M HAJEE                       00000000000000000000                21                      
903L001L5063200504094544892D23700027325065562375351914100000008500210121350   CRESCENT1 CUS0051795          W BROWN                       00000000000000000000                21                      
903L001L5063200504094544892D23700027419876501066104581100000008500210121350   CRESCENT1 CUS0011145          U NASSUIRIO                   00000000000000000000                21                      
903L001L5063200504094544892D23700027547001001500945461200000008500210121350   CRESCENT1 CUS0051799          N LOONAT                      00000000000000000000                21                      
903L001L5063200504094544892D23700027625065562299237133100000008500210121350   CRESCENT1 CUS0011194          S GANGAT                      00000000000000000000                21                      
903L001L5063200504094544892D23700027763200509087837762100000008500210121350   CRESCENT1 CUS0051989          W HENDRICKS                   00000000000000000000                21                      
903L001L5063200504094544892D23700027863200504076863543100000008500210121350   CRESCENT1 CUS0011208          R LALLA                       00000000000000000000                21                      
903L001L5063200504094544892D23700027963200504082659499100000008500210121350   CRESCENT1 CUS0051997          M ARMIEN                      00000000000000000000                21                      
903L001L5063200504094544892D23700028005100100009232737100000008500210121350   CRESCENT1 CUS0011558          Z SALIE                       00000000000000000000                21                      
903L001L5063200504094544892D23700028105100100421142936100000008500210121350   CRESCENT1 CUS0052000          Z STEMMET                     00000000000000000000                21                      
903L001L5063200504094544892D23700028205100100240498933100000008500210121350   CRESCENT1 CUS0011701          R MAHOMED                     00000000000000000000                21                      
903L001L5063200504094544892D23700028325065554930043606100000008500210121350   CRESCENT1 CUS0052002          N WELLCOME                    00000000000000000000                21                      
903L001L5063200504094544892D23700028405100100009139982100000008500210121350   CRESCENT1 CUS0011937          H KHAN                        00000000000000000000                21                      
903L001L5063200504094544892D23700028563200509183826732100000008500210121350   CRESCENT1 CUS0052047          Y AJOUHAAR                    00000000000000000000                21                      
903L001L5063200504094544892D23700028605100100038930161100000008500210121350   CRESCENT1 CUS0012081          R ACHMAT                      00000000000000000000                21                      
903L001L5063200504094544892D23700028747001001556321013200000008500210121350   CRESCENT1 CUS0052098          S WILLIAMS                    00000000000000000000                21                      
903L001L5063200504094544892D23700028825065562521699647100000008500210121350   CRESCENT1 CUS0013155          O ABDULLAH                    00000000000000000000                21                      
903L001L5063200504094544892D23700028925065555021952186100000007500210121350   CRESCENT1 CUS0052138          N FREDERICKS                  00000000000000000000                21                      
903L001L5063200504094544892D23700029005100100008941475100000008500210121350   CRESCENT1 CUS0013251          S KARA                        00000000000000000000                21                      
903L001L5063200504094544892D23700029125065562383499037100000008500210121350   CRESCENT1 CUS0052295          F LAHER                       00000000000000000000                21                      
903L001L5063200504094544892D23700029263200504081979377100000016000210121350   CRESCENT1 CUS0013908          F PANDOR                      00000000000000000000                21                      
903L001L5063200504094544892D23700029305100100070103925100000016000210121350   CRESCENT1 CUS0052779          G EBRAHIM                     00000000000000000000                21                      
903L001L5063200504094544892D23700029405100100001686569100000008500210121350   CRESCENT1 CUS0013955          O SAHIB                       00000000000000000000                21                      
903L001L5063200504094544892D23700029563200509318403466100000008500210121350   CRESCENT1 CUS0052803          R SCHOLTZ                     00000000000000000000                21                      
903L001L5063200504094544892D23700029663200504080469276100000008500210121350   CRESCENT1 CUS0014657          F KHAN                        00000000000000000000                21                      
903L001L5063200504094544892D23700029763200504058274172100000007500210121350   CRESCENT1 CUS0053021          M SYLVESTER                   00000000000000000000                21                      
903L001L5063200504094544892D23700029825065562100905803100000008500210121350   CRESCENT1 CUS0014658          R HABIB                       00000000000000000000                21                      
903L001L5063200504094544892D23700029905100100079038123100000008500210121350   CRESCENT1 CUS0053037          Z HENDRICKS                   00000000000000000000                21                      
903L001L5063200504094544892D23700030019876501955133948100000008500210121350   CRESCENT1 CUS0015184          M HOOSEN                      00000000000000000000                21                      
903L001L5063200504094544892D23700030119876502955022098200000008500210121350   CRESCENT1 CUS0053145          R NOORDIEN                    00000000000000000000                21                      
903L001L5063200504094544892D23700030205100100031242812100000008500210121350   CRESCENT1 CUS0015929          S THOMPSON                    00000000000000000000                21                      
903L001L5063200504094544892D23700030363200509167728099100000007500210121350   CRESCENT1 CUS0053489          Z FRADEN                      00000000000000000000                21                      
903L001L5063200504094544892D23700030425065562084295776100000008500210121350   CRESCENT1 CUS0016299          M ABDOOL                      00000000000000000000                21                      
903L001L5063200504094544892D23700030525065550069008967100000008500210121350   CRESCENT1 CUS0053529          S MARTIN                      00000000000000000000                21                      
903L001L5063200504094544892D23700030619876501981067337100000016000210121350   CRESCENT1 CUS0016307          G ABABER                      00000000000000000000                21                      
903L001L5063200504094544892D23700030763200504055785835100000008500210121350   CRESCENT1 CUS0053550          W GALVAAN                     00000000000000000000                21                      
903L001L5063200504094544892D23700030819876501020802871100000008500210121350   CRESCENT1 CUS0016542          H KARIM                       00000000000000000000                21                      
903L001L5063200504094544892D23700030905100100078989353100000016000210121350   CRESCENT1 CUS0053602          M SAMAAI                      00000000000000000000                21                      
903L001L5063200504094544892D23700031025065562655213355100000008500210121350   CRESCENT1 CUS0016818          S MOHAMED ALLY                00000000000000000000                21                      
903L001L5063200504094544892D23700031105100100082988838100000008500210121350   CRESCENT1 CUS0053607          R ADAM                        00000000000000000000                21                      
903L001L5063200504094544892D23700031205100100008981914100000023500210121350   CRESCENT1 CUS0017140          A CHRISTIAN                   00000000000000000000                21                      
903L001L5063200504094544892D23700031325065562349622937100000008500210121350   CRESCENT1 CUS0053738          F EBRAHIM                     00000000000000000000                21                      
903L001L5063200504094544892D23700031405100100302484132100000008500210121350   CRESCENT1 CUS0017174          T SICKLES                     00000000000000000000                21                      
903L001L5063200504094544892D23700031505100100077797868100000008500210121350   CRESCENT1 CUS0053754          N ESSACK                      00000000000000000000                21                      
903L001L5063200504094544892D23700031663200509331879177100000008500210121350   CRESCENT1 CUS0017367          M AROYEWUN                    00000000000000000000                21                      
903L001L5063200504094544892D23700031719876501334019509100000008500210121350   CRESCENT1 CUS0053780          M PETERSEN                    00000000000000000000                21                      
903L001L5063200504094544892D23700031805100100009168567100000008500210121350   CRESCENT1 CUS0017521          A BOWERS                      00000000000000000000                21                      
903L001L5063200504094544892D23700031925065562164594139100000008500210121350   CRESCENT1 CUS0054259          A ANTHONY                     00000000000000000000                21                      
903L001L5063200504094544892D23700032005100100202557626100000008500210121350   CRESCENT1 CUS0017534          S HASSEN                      00000000000000000000                21                      
903L001L5063200504094544892D23700032105100100302454489100000008500210121350   CRESCENT1 CUS0054310          G VAN BERG                    00000000000000000000                21                      
903L001L5063200504094544892D23700032219876501940011442100000008500210121350   CRESCENT1 CUS0017925          Z WAJA                        00000000000000000000                21                      
903L001L5063200504094544892D23700032347001001563064845200000008500210121350   CRESCENT1 CUS0054401          S HOOSAIN                     00000000000000000000                21                      
903L001L5063200504094544892D23700032405100100009341447100000008500210121350   CRESCENT1 CUS0017980          S KHAN                        00000000000000000000                21                      
903L001L5063200504094544892D23700032563200504086284630100000008500210121350   CRESCENT1 CUS0054464          L SIMMERS                     00000000000000000000                21                      
903L001L5063200504094544892D23700032625065562047711090100000008500210121350   CRESCENT1 CUS0018067          T MOHAMED                     00000000000000000000                21                      
903L001L5063200504094544892D23700032705100100009386963100000008500210121350   CRESCENT1 CUS0054490          Z HARMEN                      00000000000000000000                21                      
903L001L5063200504094544892D23700032805100100040094839100000024500210121350   CRESCENT1 CUS0018821          F KHAN                        00000000000000000000                21                      
903L001L5063200504094544892D23700032963200504062237861100000008500210121350   CRESCENT1 CUS0054492          F RASDIEN                     00000000000000000000                21                      
903L001L5063200504094544892D23700033025065562293703693100000008500210121350   CRESCENT1 CUS0018837          L CHEN                        00000000000000000000                21                      
903L001L5063200504094544892D23700033105100100404291139100000008500210121350   CRESCENT1 CUS0054497          R HARRIS                      00000000000000000000                21                      
903L001L5063200504094544892D23700033263200504082056180100000023500210121350   CRESCENT1 CUS0018845          A KARA                        00000000000000000000                21                      
903L001L5063200504094544892D23700033363200509278283394100000008500210121350   CRESCENT1 CUS0054498          C ADONIS                      00000000000000000000                21                      
903L001L5063200504094544892D23700033425065562569973136100000016000210121350   CRESCENT1 CUS0019560          A AHMED                       00000000000000000000                21                      
903L001L5063200504094544892D23700033519876501979409730100000008500210121350   CRESCENT1 CUS0054524          M DANGOR                      00000000000000000000                21                      
903L001L5063200504094544892D23700033619876501093917660100000008500210121350   CRESCENT1 CUS0019583          S PADAYACHEE ISMAIL           00000000000000000000                21                      
903L001L5063200504094544892D23700033763200509287770691100000008500210121350   CRESCENT1 CUS0054569          M BOOMGAARD                   00000000000000000000                21                      
903L001L5063200504094544892D23700033805100100009346260100000008500210121350   CRESCENT1 CUS0019643          R MOOIDEEN                    00000000000000000000                21                      
903L001L5063200504094544892D23700033905100100000395609100000008500210121350   CRESCENT1 CUS0054609          M LESLIE                      00000000000000000000                21                      
903L001L5063200504094544892D23700034047001001323699781200000008500210121350   CRESCENT1 CUS0019894          I ALLIE                       00000000000000000000                21                      
903L001L5063200504094544892D23700034125065562250621523100000008500210121350   CRESCENT1 CUS0054660          N ABRAHAMS                    00000000000000000000                21                      
903L001L5063200504094544892D23700034263200500058245178100000007500210121350   CRESCENT1 CUS0019985          G SULEMAN                     00000000000000000000                21                      
903L001L5063200504094544892D23700034305100100300959125100000008500210121350   CRESCENT1 CUS0054740          A PANDOR                      00000000000000000000                21                      
903L001L5063200504094544892D23700034463200504057425516100000024500210121350   CRESCENT1 CUS0020212          A PANKER                      00000000000000000000                21                      
903L001L5063200504094544892D23700034525065562007076492100000008500210121350   CRESCENT1 CUS0054815          S SALLIE                      00000000000000000000                21                      
903L001L5063200504094544892D23700034605100100209075368100000016000210121350   CRESCENT1 CUS0020469          A HOOSEN                      00000000000000000000                21                      
903L001L5063200504094544892D23700034725065562250623941100000008500210121350   CRESCENT1 CUS0054822          N ABRAHAMS                    00000000000000000000                21                      
903L001L5063200504094544892D23700034825065562528262851100000008500210121350   CRESCENT1 CUS0020471          A ASMAL                       00000000000000000000                21                      
903L001L5063200504094544892D23700034925065562670042979100000008500210121350   CRESCENT1 CUS0054885          A ABRAHAMS                    00000000000000000000                21                      
903L001L5063200504094544892D23700035047001001217346471200000008500210121350   CRESCENT1 CUS0020514          B ASMAL                       00000000000000000000                21                      
903L001L5063200504094544892D23700035125065562102321114100000008500210121350   CRESCENT1 CUS0055003          Z ABOO                        00000000000000000000                21                      
903L001L5063200504094544892D23700035205100100048930784100000008500210121350   CRESCENT1 CUS0020784          Y WOOKEY                      00000000000000000000                21                      
903L001L5063200504094544892D23700035363200504073584009100000008500210121350   CRESCENT1 CUS0055006          F GAMSU                       00000000000000000000                21                      
903L001L5063200504094544892D23700035425065562792958434100000008500210121350   CRESCENT1 CUS0021255          N SOLO                        00000000000000000000                21                      
903L001L5063200504094544892D23700035563200504093284229100000008500210121350   CRESCENT1 CUS0055094          J TOFFIE                      00000000000000000000                21                      
903L001L5063200504094544892D23700035605100100009086234100000016000210121350   CRESCENT1 CUS0021469          A ISAACS                      00000000000000000000                21                      
903L001L5063200504094544892D23700035705100100241857988100000008500210121350   CRESCENT1 CUS0055100          J FREDERICKS                  00000000000000000000                21                      
903L001L5063200504094544892D23700035805100100056802811100000008500210121350   CRESCENT1 CUS0021774          M ALLEBHAI                    00000000000000000000                21                      
903L001L5063200504094544892D23700035963200509385989640100000008500210121350   CRESCENT1 CUS0055116          S KHAN                        00000000000000000000                21                      
903L001L5063200504094544892D23700036025065562134483031100000008500210121350   CRESCENT1 CUS0021882          A GAMIELDIEN                  00000000000000000000                21                      
903L001L5063200504094544892D23700036125065562654933798100000008500210121350   CRESCENT1 CUS0055259          F WADVALLA                    00000000000000000000                21                      
903L001L5063200504094544892D23700036219876501970722037100000015000210121350   CRESCENT1 CUS0023063          A ABDULLAH                    00000000000000000000                21                      
903L001L5063200504094544892D23700036319876501009648977100000008500210121350   CRESCENT1 CUS0055315          S PAULSE                      00000000000000000000                21                      
903L001L5063200504094544892D23700036419876501534037128100000016000210121350   CRESCENT1 CUS0023146          A KEILLER                     00000000000000000000                21                      
903L001L5063200504094544892D23700036505100100421126175100000008500210121350   CRESCENT1 CUS0055319          I WILLIAMS                    00000000000000000000                21                      
903L001L5063200504094544892D23700036619876501955124108100000031000210121350   CRESCENT1 CUS0023218          A SAMSODIEN                   00000000000000000000                21                      
903L001L5063200504094544892D23700036725065562450569044100000016000210121350   CRESCENT1 CUS0055565          M DANIELS                     00000000000000000000                21                      
903L001L5063200504094544892D23700036825065562249761653100000008500210121350   CRESCENT1 CUS0023260          Z SHEIK                       00000000000000000000                21                      
903L001L5063200504094544892D23700036947001001505430354200000016000210121350   CRESCENT1 CUS0055630          Q AJOUHAAR                    00000000000000000000                21                      
903L001L5063200504094544892D23700037063200501147980309100000007500210121350   CRESCENT1 CUS0023620          J BHAYAT                      00000000000000000000                21                      
903L001L5063200504094544892D23700037125065562098411483100000008500210121350   CRESCENT1 CUS0055735          J MORTLOCK                    00000000000000000000                21                      
903L001L5063200504094544892D23700037225065556281159083100000008500210121350   CRESCENT1 CUS0024517          E ABDULLAH                    00000000000000000000                21                      
903L001L5063200504094544892D23700037305100100061619868100000008500210121350   CRESCENT1 CUS0055736          M BRENNER                     00000000000000000000                21                      
903L001L5063200504094544892D23700037405100100009347127100000008500210121350   CRESCENT1 CUS0024937          S COURIE                      00000000000000000000                21                      
903L001L5063200504094544892D23700037519876501051924502100000016000210121350   CRESCENT1 CUS0055740          L ISAACS                      00000000000000000000                21                      
903L001L5063200504094544892D23700037619876501729020356100000007500210121350   CRESCENT1 CUS0025349          A KARODIA                     00000000000000000000                21                      
903L001L5063200504094544892D23700037705100110032714112100000008500210121350   CRESCENT1 CUS0055812          M ALLIE                       00000000000000000000                21                      
903L001L5063200504094544892D23700037825065562119834564100000016000210121350   CRESCENT1 CUS0025966          N UNWARSA                     00000000000000000000                21                      
903L001L5063200504094544892D23700037905100100000383864100000008500210121350   CRESCENT1 CUS0055951          S KARODIA                     00000000000000000000                21                      
903L001L5063200504094544892D23700038005100100009329250100000016000210121350   CRESCENT1 CUS0026037          B FARRED                      00000000000000000000                21                      
903L001L5063200504094544892D23700038125065562003417260100000008500210121350   CRESCENT1 CUS0056010          M ABRAHAMS                    00000000000000000000                21                      
903L001L5063200504094544892D23700038247001001364143079200000016000210121350   CRESCENT1 CUS0026713          D KARIEM                      00000000000000000000                21                      
903L001L5063200504094544892D23700038325065562071008702100000008500210121350   CRESCENT1 CUS0056121          S SHABODIEN PHILANDER         00000000000000000000                21                      
903L001L5063200504094544892D23700038425065562065276555100000008500210121350   CRESCENT1 CUS0026879          A KAJEE                       00000000000000000000                21                      
903L001L5063200504094544892D23700038525065554820016177100000008500210121350   CRESCENT1 CUS0056141          F ADAMS                       00000000000000000000                21                      
903L001L5063200504094544892D23700038605100100202034194100000008500210121350   CRESCENT1 CUS0027105          F MOTTAIR                     00000000000000000000                21                      
903L001L5063200504094544892D23700038705100100070786909100000008500210121350   CRESCENT1 CUS0056148          F RYLANDS                     00000000000000000000                21                      
903L001L5063200504094544892D23700038825065550319012957100000008500210121350   CRESCENT1 CUS0027784          R DE-GEE                      00000000000000000000                21                      
903L001L5063200504094544892D23700038947001001582827867200000008500210121350   CRESCENT1 CUS0056222          A ALLIE                       00000000000000000000                21                      
903L001L5063200504094544892D23700039063200509306791603100000007500210121350   CRESCENT1 CUS0028019          Z ABDURAHMAAN                 00000000000000000000                21                      
903L001L5063200504094544892D23700039105100110094225654100000008500210121350   CRESCENT1 CUS0056235          F VAN ZYLE                    00000000000000000000                21                      
903L001L5063200504094544892D23700039219876501078273693100000016000210121350   CRESCENT1 CUS0028244          M RAGIEM                      00000000000000000000                21                      
903L001L5063200504094544892D23700039325065562543145264100000008500210121350   CRESCENT1 CUS0056243          A ADAM                        00000000000000000000                21                      
903L001L5063200504094544892D23700039425065550979019343100000007500210121350   CRESCENT1 CUS0028256          F BENN                        00000000000000000000                21                      
903L001L5063200504094544892D23700039525065562814690203100000006900210121350   CRESCENT1 CUS0056302          S GANGAT                      00000000000000000000                21                      
903L001L5063200504094544892D23700039625065562799242434100000007500210121350   CRESCENT1 CUS0028811          I ALLY                        00000000000000000000                21                      
903L001L5063200504094544892D23700039725065562755159558100000008500210121350   CRESCENT1 CUS0056471          G JACOBS                      00000000000000000000                21                      
903L001L5063200504094544892D23700039819876501107642108100000016000210121350   CRESCENT1 CUS0029044          A RAZAK                       00000000000000000000                21                      
903L001L5063200504094544892D23700039919876502425012818200000008500210121350   CRESCENT1 CUS0056562          F VALLY                       00000000000000000000                21                      
903L001L5063200504094544892D23700040005100100309195810100000008500210121350   CRESCENT1 CUS0030298          D JAWAHEER                    00000000000000000000                21                      
903L001L5063200504094544892D23700040125065562626206983100000008500210121350   CRESCENT1 CUS0056667          M VARDALIA                    00000000000000000000                21                      
903L001L5063200504094544892D23700040225065562370650832100000008500210121350   CRESCENT1 CUS0030408          C DOMINGO                     00000000000000000000                21                      
903L001L5063200504094544892D23700040363200504076997093100000008500210121350   CRESCENT1 CUS0056908          Z WALBURG                     00000000000000000000                21                      
903L001L5063200504094544892D23700040405100100033117624100000008500210121350   CRESCENT1 CUS0030632          M ALLIBHAI                    00000000000000000000                21                      
903L001L5063200504094544892D23700040563200509280280540100000008500210121350   CRESCENT1 CUS0057033          A GEORGE                      00000000000000000000                21                      
903L001L5063200504094544892D23700040663200504041517466100000008500210121350   CRESCENT1 CUS0030636          Y UMALI                       00000000000000000000                21                      
903L001L5063200504094544892D23700040747001001437925519200000008500210121350   CRESCENT1 CUS0057067          Y MUSTAPHA                    00000000000000000000                21                      
903L001L5063200504094544892D23700040825065562241000223100000016000210121350   CRESCENT1 CUS0030863          A MANJOO                      00000000000000000000                21                      
903L001L5063200504094544892D23700040947001001640186407200000008500210121350   CRESCENT1 CUS0057079          B MUKADAM                     00000000000000000000                21                      
903L001L5063200504094544892D23700041063200509139870800100000008500210121350   CRESCENT1 CUS0030975          R RUITERS                     00000000000000000000                21                      
903L001L5063200504094544892D23700041147001001415294931200000008500210121350   CRESCENT1 CUS0057100          M SAMUELS                     00000000000000000000                21                      
903L001L5063200504094544892D23700041219876502031350005200000016000210121350   CRESCENT1 CUS0031015          A PARKER                      00000000000000000000                21                      
903L001L5063200504094544892D23700041305100100009079866100000008500210121350   CRESCENT1 CUS0057102          S PILLAY                      00000000000000000000                21                      
903L001L5063200504094544892D23700041419876502944083392200000008500210121350   CRESCENT1 CUS0031353          N KOTWAL                      00000000000000000000                21                      
903L001L5063200504094544892D23700041563200504083587966100000008500210121350   CRESCENT1 CUS0057158          F JARDINE                     00000000000000000000                21                      
903L001L5063200504094544892D23700041605100100000841617100000008500210121350   CRESCENT1 CUS0031695          I MIA                         00000000000000000000                21                      
903L001L5063200504094544892D23700041747001001335073459200000016000210121350   CRESCENT1 CUS0057177          F SWANSON                     00000000000000000000                21                      
903L001L5063200504094544892D23700041825065562593449103100000008500210121350   CRESCENT1 CUS0033082          A LUTCHKA                     00000000000000000000                21                      
903L001L5063200504094544892D23700041947001001124543765200000008500210121350   CRESCENT1 CUS0057263          K KALAM                       00000000000000000000                21                      
903L001L5063200504094544892D23700042019876501779047428100000008500210121350   CRESCENT1 CUS0033349          S SULTAN                      00000000000000000000                21                      
903L001L5063200504094544892D23700042147001001453359425200000008500210121350   CRESCENT1 CUS0057291          R ABRAHAMS FRIDIE             00000000000000000000                21                      
903L001L5063200504094544892D23700042219876501972102222100000008500210121350   CRESCENT1 CUS0033433          K OMAR                        00000000000000000000                21                      
903L001L5063200504094544892D23700042347001001308796240200000007500210121350   CRESCENT1 CUS0057376          M LAKAY                       00000000000000000000                21                      
903L001L5063200504094544892D23700042419876501127282611100000008500210121350   CRESCENT1 CUS0033435          W ABRAHAMS                    00000000000000000000                21                      
903L001L5063200504094544892D23700042547001001573139066200000016000210121350   CRESCENT1 CUS0057501          F WELSH                       00000000000000000000                21                      
903L001L5263200504094544892D23700042663200504094544892100004292300210121100000CRESCENT1 CONTRAYRUOIZLXQYXHEO                                                                                          
901L001 D237/0000053/000024 00034-*** WARNING ONLY *** HOMING ACCOUNT INVALID ***                                                                                                                     
901L001 D237/0000053/000057 00035-*** WARNING ONLY *** ACCOUNT TYPE INVALID ***                                                                                                                       
901L001 D237/0000053/000101 00034-*** WARNING ONLY *** HOMING ACCOUNT INVALID ***                                                                                                                     
901L001 D237/0000053/000111 00034-*** WARNING ONLY *** HOMING ACCOUNT INVALID ***                                                                                                                     
901L001 D237/0000053/000124 00035-*** WARNING ONLY *** ACCOUNT TYPE INVALID ***                                                                                                                       
999L000000435                                                                                                                                                                                         
