000T2020090400000PAYPORT CONSULTING PTY LTD    000005003686                                                                                                                                           
030T0000001ABSAIN                                                                                                                                                                                     
031T000000100000000160801155012345685     CHEMULLER                                                      888888881599208027WTE7DZABBSGM7V9371FH198765210002LD036868888888888000                       
032T0000001+27000000000NONE                                                                                                8888                                                                       
031T000000200000000406859773212345686     DEASTEENKAMP                                                   019999991599208027K5K1UYUVRN2UM8T6SWA5632005210016LD036869999999999000                       
032T0000002+27000000000NONE                                                                                                9999                                                                       
031T000000300000000405859773212345687     CHESTEENKAMP                                                   019999991599208027WU9GYRK9UN2E7R2ICQSY632005210016LD036869999999999000                       
032T0000003+27000000000NONE                                                                                                9999                                                                       
999T000000009                                                                                                                                                                                         
