000L2021011600000PAYPORT CONSULTING PTY LTD EFT000058807303                                                                                                                                           
010LD237000007901                                                                                                                                                                                     
011LD23763200500000040945448920120201219                                                                                                                                                              
013L5020201218000489470010000000164256111600000008500CRESCENT1 CUS0059452          03400000000000                M JAMAL                                                                              
013L5020201218001460470010000000141009037800000007500CRESCENT1 CUS0058839          03000000000000                I NASSER                                                                             
014L0000000020000000000000000030526514940000000001600000000000000000                                                                                                                                  
011LD23763200500000040945448920120210116                                                                                                                                                              
013L5020210115000420632005000000408482726800000008500CRESCENT1 CUS0058994          02683002000420                R REDCLIFFE                                                                          
013L5020210115000522632005000000408004439100000008500CRESCENT1 CUS0039235          02682502000522                Y MOTARA                                                                             
013L5020210115000150250655000000624475541300000008500CRESCENT1 CUS0058256          02682502000150                F SHIEK                                                                              
013L5020210115000020051001000000000724555100000008500CRESCENT1 CUS0057943          02682502000020                S BENJAMIN                                                                           
013L5020210115000958250655000006216647202500000008500CRESCENT1 CUS0042928          02682502000958                S AMOD                                                                               
013L5020210115000752800000000000100725262100000007500CRESCENT1 CUS0055687          02682502000752                A WILLIAMS                                                                           
013L5020210115001198470010000000105654067200000008500CRESCENT1 CUS0044801          02682502001198                M DENNIS GREEN                                                                       
013L5020210115000737198765000000108762174100000007500CRESCENT1 CUS0020198          02682502000737                S OMAR                                                                               
013L5020210115000953051001000000025213334100000008500CRESCENT1 CUS0042787          02682502000953                N KHAN                                                                               
013L5020210115001012632005000000408758670600000007500CRESCENT1 CUS0026240          02683002001012                F ISMAIL                                                                             
013L5020210115000575250655000623939000000000000008500CRESCENT1 CUS0006459          02682502000575                I MAHOMED                                                                            
013L5020210115001032250655000000623446672600000008500CRESCENT1 CUS0026487          02682502001032                A NGWABENI                                                                           
013L5020210115000796051001000000333060495300000008500CRESCENT1 CUS0000157          02682502000796                G BAGDADI                                                                            
013L5020210115000437632005000000432557004100000008500CRESCENT1 CUS0038710          02683002000437                R MOHAMMED                                                                           
014L0000000140000000000000063373551214490000000011600000000000000000                                                                                                                                  
019L0000000160000000000000063404077729430000000013200000000000000000                                                                                                                                  
999L000000024                                                                                                                                                                                         
