000L2020050700000PAYPORT CONSULTING PTY LTD EFT000029707303                                                                                                                                           
010LD237000001701                                                                                                                                                                                     
011LD23763200500000040945448920120200505                                                                                                                                                              
013L5020200503000003470010000000112608063000000000500PAYPORT   1588510711O1053     01200000000000                CHEREEN MULLER                                                                       
014L0000000010000000000000000011260806300000000000050000000000000000                                                                                                                                  
019L0000000010000000000000000011260806300000000000050000000000000000                                                                                                                                  
999L000000007                                                                                                                                                                                         
