000L2020041800000PAYPORT CONSULTING PTY LTD EFT000027407303                                                                                                                                           
010LD237000000401                                                                                                                                                                                     
011LD23763200500000040945448920120200415                                                                                                                                                              
013L5020200414000004250555000006237617809400000001000PAYPORT   SAMEHOMELOAN1       01200000000000                PAYPORT CONSULTING                                                                   
013L5020200414000007250555000006237617809400000000500PAYPORT   SAME HOME LOAN      01200000000000                PAYPORT CONSULTING                                                                   
014L0000000020000000000000001247523561880000000000150000000000000000                                                                                                                                  
011LD23763200500000040945448920120200416                                                                                                                                                              
013L5020200414000011470010000000112608063000000000100PAYPORT   SAMEHOMELOAN        01200000000000                CHEREEN MULLER                                                                       
013L5020200414000014470010000000112608063000000000200PAYPORT   SAME HOME LOAN      01200000000000                CHEREEN STEENKAMP                                                                    
014L0000000020000000000000000022521612600000000000030000000000000000                                                                                                                                  
019L0000000040000000000000001270045174480000000000180000000000000000                                                                                                                                  
999L000000012                                                                                                                                                                                         
