000L2020042200000PAYPORT CONSULTING PTY LTD EFT000028007303                                                                                                                                           
010LD237000000601                                                                                                                                                                                     
011LD23763200500000040945448920120200423                                                                                                                                                              
013L5020200421000016004701000000112608063000000000200PAYPORT   O20200421150139-32  89982504000016                CHEREEN STEENKAMP                                                                    
013L5020200421000015632005000000415859773200000000300PAYPORT   O20200421150139-31  02682502000015                PAYPORT                                                                              
014L0000000020000000000000000052846783620000000000050000000000000000                                                                                                                                  
019L0000000020000000000000000052846783620000000000050000000000000000                                                                                                                                  
010LD237000000703                                                                                                                                                                                     
011LD23763200500000040945448920120200424                                                                                                                                                              
013L5020200421000023632005000000415859773200000000300PAYPORT   O20200421150139-38  02682502000023                PAYPORT                                                                              
013L5020200421000024004701000000112608063000000000200PAYPORT   O20200421150139-39  89982504000024                CHEREEN STEENKAMP                                                                    
014L0000000020000000000000000052846783620000000000050000000000000000                                                                                                                                  
019L0000000020000000000000000052846783620000000000050000000000000000                                                                                                                                  
010LD237000000808                                                                                                                                                                                     
011LD23763200500000040945448920120200422                                                                                                                                                              
013L5020200421000007632005000000415859773200000000300PAYPORT   O20200421150139-24  02682502000007                PAYPORT                                                                              
013L5020200421000008004701000000112608063000000000200PAYPORT   O20200421150139-25  89982504000008                CHEREEN STEENKAMP                                                                    
014L0000000020000000000000000052846783620000000000050000000000000000                                                                                                                                  
019L0000000020000000000000000052846783620000000000050000000000000000                                                                                                                                  
999L000000020                                                                                                                                                                                         
