000L2021011500000PAYPORT CONSULTING PTY LTD EFT000058607303                                                                                                                                           
010LD237000007801                                                                                                                                                                                     
011LD23763200500000040945448920120201215                                                                                                                                                              
013L5020201214000078198765000000123009289700000008500CRESCENT1 CUS0047624          03200000000000                K DAWOOD                                                                             
014L0000000010000000000000000012300928970000000000850000000000000000                                                                                                                                  
019L0000000010000000000000000012300928970000000000850000000000000000                                                                                                                                  
999L000000007                                                                                                                                                                                         
