000L2020042600000PAYPORT CONSULTING PTY LTD EFT000028407303                                                                                                                                           
010LD237000001301                                                                                                                                                                                     
011LD23763200500000040945448920120200423                                                                                                                                                              
013L5020200421000017250555000006237617809400000000100PAYPORT   O20200421150139-33  01200000000000                PAYPORT CONSULTING                                                                   
013L5020200421000014250555000006237617809400000000400PAYPORT   O20200421150139-30  01200000000000                PAYPORT CONSULTING                                                                   
014L0000000020000000000000001247523561880000000000050000000000000000                                                                                                                                  
019L0000000020000000000000001247523561880000000000050000000000000000                                                                                                                                  
999L000000008                                                                                                                                                                                         
