000L2020043000000PAYPORT CONSULTING PTY LTD EFT000028807303                                                                                                                                           
010LD237000001501                                                                                                                                                                                     
011LD23763200500000040945448920120200415                                                                                                                                                              
013L5020200414000002198765000000160801155000000000800PAYPORT   SAMEHOME LOAN       03000000000000                CHEREEN STEENKAMP                                                                    
014L0000000010000000000000000016080115500000000000080000000000000000                                                                                                                                  
011LD23763200500000040945448920120200423                                                                                                                                                              
013L5020200421000012198765000000160801155000000000600PAYPORT   O20200421150139-28  03000000000000                CHEREEN STEENKAMP                                                                    
014L0000000010000000000000000016080115500000000000060000000000000000                                                                                                                                  
019L0000000020000000000000000032160231000000000000140000000000000000                                                                                                                                  
999L000000010                                                                                                                                                                                         
