000L2020041407303PAYPORT CONSULTING PTY LTD    000000500000                                                                                                                                            
001L04D2372004142004162004152004150000010006SAMEDAY   YY                                                                                                                                               
001L5063200504094544892D23700000163200504058597732100000000500200415410   PAYPORT   SOME LOAN           PAYPORTSA                     00000000000000000000                21                           
001L5063200504094544892D23700000219876501608011550100000000800200415410   PAYPORT   SAMEHOME LOAN       CHEREEN STEENKAMP             00000000000000000000                21                           
001L5063200504094544892D23700000347001001126080630200000000100200415410   PAYPORT   SAMEHOMELOAN        CHEREEN MULLER                00000000000000000000                21                           
001L5063200504094544892D23700000425065562376178094100000001000200415410   PAYPORT   SAMEHOMELOAN1       PAYPORT CONSULTING            00000000000000000000                21                           
001L5063200504094544892D23700000563200504158597732200000001200200415410   PAYPORT   SAME HOME LOAN      PAYPORT                       00000000000000000000                21                           
001L5063200504094544892D23700000647001001126080630100000000200200415410   PAYPORT   SAME HOME LOAN      CHEREEN STEENKAMP             00000000000000000000                21                           
001L5063200504094544892D23700000725065562376178094200000000500200415410   PAYPORT   SAME HOME LOAN      PAYPORT CONSULTING            00000000000000000000                21                           
001L5263200504094544892D23700000863200504094544892100000004300200415100000PAYPORT   CONTRARYM8ZJ5OHRIA96                                                                                               
001L92D237000001000008200415200415000007000001000001000000004300000000004300140924269354                                                                                                               
001L04D2372004142004172004162004160000090007SAMEDAY   YY                                                                                                                                               
001L5063200504094544892D23700000963200504058597732100000000500200416410   PAYPORT   SOME LOAN           PAYPORTSA                     00000000000000000000                21                           
001L5063200504094544892D23700001019876501608011550100000000800200416410   PAYPORT   SAMEHOME LOAN       CHEREEN STEENKAMP             00000000000000000000                21                           
001L5063200504094544892D23700001147001001126080630200000000100200416410   PAYPORT   SAMEHOMELOAN        CHEREEN MULLER                00000000000000000000                21                           
001L5063200504094544892D23700001225065562376178094100000001000200416410   PAYPORT   SAMEHOMELOAN1       PAYPORT CONSULTING            00000000000000000000                21                           
001L5063200504094544892D23700001363200504158597732200000001200200416410   PAYPORT   SAME HOME LOAN      PAYPORT                       00000000000000000000                21                           
001L5063200504094544892D23700001447001001126080630100000000200200416410   PAYPORT   SAME HOME LOAN      CHEREEN STEENKAMP             00000000000000000000                21                           
001L5063200504094544892D23700001525065562376178094200000000500200416410   PAYPORT   SAME HOME LOAN      PAYPORT CONSULTING            00000000000000000000                21                           
001L5263200504094544892D23700001663200504094544892100000004300200416100000PAYPORT   CONTRAVGC0YZ1QRC1UOP                                                                                               
001L92D237000009000016200416200416000007000001000001000000004300000000004300140924269354                                                                                                               
999L000000022                                                                                                                                                                                          