000L2020082200000PAYPORT CONSULTING PTY LTD2   000116006431                                                                                                                                           
010LC635000000509                                                                                                                                                                                     
011LC63563200500000040945448840120200821                                                                                                                                                              
013L1020200821000001632005000000405859973200000001000PAYPORT              cisintest02682502000001                DEAN STEENKAMP                                                                       
014L0000000000000000010000000040585997320000000000000000000000001000                                                                                                                                  
019L0000000000000000010000000040585997320000000000000000000000001000                                                                                                                                  
999L000000007                                                                                                                                                                                         
