000L2020041500000PAYPORT CONSULTING PTY LTD EFT000027007303                                                                                                                                           
010LD237000000201                                                                                                                                                                                     
011LD23763200500000040945448920120200415                                                                                                                                                              
013L5020200414000005632005000000415859773200000001200PAYPORT   SAME HOME LOAN      02682502000005                PAYPORT                                                                              
014L0000000010000000000000000041585977320000000000120000000000000000                                                                                                                                  
011LD23763200500000040945448920120200416                                                                                                                                                              
013L5020200414000013632005000000415859773200000001200PAYPORT   SAME HOME LOAN      02682502000013                PAYPORT                                                                              
014L0000000010000000000000000041585977320000000000120000000000000000                                                                                                                                  
019L0000000020000000000000000083171954640000000000240000000000000000                                                                                                                                  
999L000000010                                                                                                                                                                                         
