000L2020113000000PAYPORT CONSULTING PTY LTD    000052607303                                                                                                                                           
900L000 TRANSMISSION 07303-0000032 ACCEPTED                                                                                                                                                           
900L001 ACB USER SET D237-0000036-000019 ACCEPTED                                                                                                                                                     
903L001L5063200504094544892D23700000158010500000000000200000000500201201410   PAYPORT   1606397418R0011     ALICE WONDERLAND              00000000346568756355                21                      
903L001L5063200504094544892D23700000225065562858113170100000028600201201410   PAYPORT   1606570201ROPECTOR  OPECTOR LTD                   00000000000000000000                21                      
903L001L5063200504094544892D23700000363200504583475082100000010000201201410   PAYPORT   1606570201RARM01    JAIME SAULS                   00000000000000000000                21                      
903L001L5263200504094544892D23700000463200504094544892100000039100201201100000PAYPORT   CONTRAP9B6WQFIYSYRDB                                                                                          
903L001L5063200504094544892D23700000505100100202410749100000018900201201350   ARCTICA   1606397411RARCTICA01PHARMAMARK                    00000000000000000000                21                      
903L001L5063200504094544892D23700000619876501684011264100000007500201201350   ARCTICA   1606570201RARCTICA00KARIN BROWN                   00000000000000000000                21                      
903L001L5063200504094544892D23700000705100100200480502100000028900201201350   ARCTICA   1606570201RARCTICA00SIP PROJECT MANAGERS          00000000000000000000                21                      
903L001L5063200504094544892D23700000863200504097620326100000007500201201350   ARCTICA   1606570201RARCTICA00UNI CARGO CC                  00000000000000000000                21                      
903L001L5063200504094544892D23700000905100100332017052100000018900201201350   ARCTICA   1606570201RARCTICA00PADDOCK WOODS                 00000000000000000000                21                      
903L001L5063200504094544892D23700001005100100202481131100000022500201201350   ARCTICA   1606570201RARCTICA00CHRIST CHURCH MIDRAND         00000000000000000000                21                      
903L001L5063200504094544892D23700001119876501506004946100000007500201201350   ARCTICA   1606570201RARCTICA00BELEAF LANDSCAPE DESIGN       00000000000000000000                21                      
903L001L5063200504094544892D23700001205100100082877831100000007500201201350   ARCTICA   1606570201RARCTICA00EAGLE UNIQUE                  00000000000000000000                21                      
903L001L5063200504094544892D23700001325065562347807010100000018900201201350   ARCTICA   1606570201RARCTICA01THE NOT SO STARVING ARTIST    00000000000000000000                21                      
903L001L5063200504094544892D23700001419876501469057808100000018900201201350   ARCTICA   1606570201RARCTICA01WAVELENGHTS 11 PTY LTD        00000000000000000000                21                      
903L001L5063200504094544892D23700001563200504052176388100000018900201201350   ARCTICA   1606570201RARCTICA01ACPM                          00000000000000000000                21                      
903L001L5263200504094544892D23700001663200504094544892100000175900201201100000ARCTICA   CONTRATMCRXRISQBXR2L                                                                                          
903L001L5063200504094544892D23700001725065562747289462100000014900201201350   OPECTORWEB1606397414RJOYSPRINGMARGAUX OVERBEEK              00000000000000000000                21                      
903L001L5063200504094544892D23700001867900011184307253100000000500201201350   OPECTORWEB1606570201RJACODISCOJOACHIM PRINSLOO              00000000000000000000                21                      
903L001L5263200504094544892D23700001963200504094544892100000015400201201100000OPECTORWEBCONTRAOSH1WSMBAHJMSI                                                                                          
901L001 D237/0000036/000001 00035-*** WARNING ONLY *** ACCOUNT TYPE INVALID ***                                                                                                                       
999L000000024                                                                                                                                                                                         
