000L2021022300000PAYPORT CONSULTING PTY LTD EFT000064207303                                                                                                                                           
010LD237000012901                                                                                                                                                                                     
011LD23763200500000040945448920120210116                                                                                                                                                              
013L5020210115000654470010000000148440280200000016000CRESCENT1 CUS0055032          03000000000000                C DE VILLIERS                                                                        
014L0000000010000000000000000014844028020000000001600000000000000000                                                                                                                                  
011LD23763200500000040945448920120210216                                                                                                                                                              
013L5020210215000991250241000006207575718100000016000CRESCENT1 CUS0003267          03000000000000                A KHAN                                                                               
013L5020210215000741470010000000148440280200000016000CRESCENT1 CUS0055032          03000000000000                C DE VILLIERS                                                                        
014L0000000020000000000000000635601599830000000003200000000000000000                                                                                                                                  
011LD23763200500000040945448920120210220                                                                                                                                                              
013L5020210219000064470010000000164725639700000008500CRESCENT1 CUS0058779          00200000000000                R ISAACS                                                                             
013L5020210219000366632005000000409328422900000008500CRESCENT1 CUS0055094          03292801000366                J TOFFIE                                                                             
013L5020210219000262800000000007860008637400000008500CRESCENT1 CUS0050541          00200000000000                M ADAMS                                                                              
013L5020210219000014470010000000130879624000000007500CRESCENT1 CUS0057376          00200000000000                M LAKAY                                                                              
013L5020210219000086470010000000173565584600000008500CRESCENT1 CUS0058990          00200000000000                I JOHNSON                                                                            
013L5020210219000380470010000000150543035400000016000CRESCENT1 CUS0055630          00200000000000                Q AJOUHAAR                                                                           
013L5020210219000278470010000000138079673100000016000CRESCENT1 CUS0051036          00200000000000                N DAVIDS                                                                             
013L5020210219000317051001000000003124281200000008500CRESCENT1 CUS0015929          00200000000000                S THOMPSON                                                                           
013L5020210219000108470010000000160368658200000008500CRESCENT1 CUS0059477          00400000000000                A SAFODIEN                                                                           
013L5020210219000277051001000000025207793800000008500CRESCENT1 CUS0009367          00200000000000                M SAYED                                                                              
013L5020210219000399051001000000000932925000000007500CRESCENT1 CUS0026045          01200000000000                I FARRED                                                                             
013L5020210219000058470010000000150599084800000008500CRESCENT1 CUS0058689          00200000000000                I AMLAY                                                                              
013L5020210219000338470010000000156306484500000008500CRESCENT1 CUS0054401          00200000000000                S HOOSAIN                                                                            
013L5020210219000418470010000000143792551900000008500CRESCENT1 CUS0057067          00600000000000                Y MUSTAPHA                                                                           
013L5020210219000026470010000000111742367900000008500CRESCENT1 CUS0058009          00200000000000                S JACOBS                                                                             
013L5020210219000111470010000000120995585500000016000CRESCENT1 CUS0040945          00200000000000                F SULEMAN                                                                            
013L5020210219000397051001000000000932925000000008500CRESCENT1 CUS0026037          01200000000000                B FARRED                                                                             
013L5020210219000333051001000000000916856700000008500CRESCENT1 CUS0017521          00400000000000                A BOWERS                                                                             
013L5020210219000012470010000000145335942500000008500CRESCENT1 CUS0057291          00200000000000                R ABRAHAMS FRIDIE                                                                    
013L5020210219000020470010000000142042916500000008500CRESCENT1 CUS0057829          00200000000000                E CLOETE                                                                             
013L5020210219000420470010000000164018640700000008500CRESCENT1 CUS0057079          00200000000000                B MUKADAM                                                                            
013L5020210219000212632005000000408113813700000008500CRESCENT1 CUS0048828          00292803000212                Z SAMUELS                                                                            
013L5020210219000051470010000000130797936800000016000CRESCENT1 CUS0036620          00600000000000                K KIVIDO                                                                             
013L5020210219000030679000000001987280611500000008500CRESCENT1 CUS0058032          00200000000000                I ABRAHAMS                                                                           
014L0000000240000000000000001287963999330000000023200000000000000000                                                                                                                                  
019L0000000270000000000000001938409627180000000028000000000000000000                                                                                                                                  
010LD237000013008                                                                                                                                                                                     
011LD23763200500000040945448920120210127                                                                                                                                                              
013L5020210127002332051001000000030135430800000008500CRESCENT1 CUS0051924          03400000000000                R WILLIAMS                                                                           
014L0000000010000000000000000003013543080000000000850000000000000000                                                                                                                                  
019L0000000010000000000000000003013543080000000000850000000000000000                                                                                                                                  
999L000000042                                                                                                                                                                                         
