000L2021040500000PAYPORT CONSULTING PTY LTD    000070307303                                                                                                                                           
900L000 TRANSMISSION 07303-0000083 ACCEPTED                                                                                                                                                           
900L001 ACB USER SET D237-0000089-000010 ACCEPTED                                                                                                                                                     
903L001L5063200504094544892D23700000125065562660973126200000018900210407350   ARCTICA   1617543016RARCTICA00MOPANI ENGINEERING CC         00000000000000000000                21                      
903L001L5063200504094544892D23700000263200538131732055100000023900210407350   ARCTICA   1617543016RARCTICA01QUENTIN HORN                  00000000000000000000                21                      
903L001L5263200504094544892D23700000363200504094544892100000042800210407100000ARCTICA   CONTRAASDVHGODRKWVUI                                                                                          
903L001L5063200504094544892D23700000419876501074155491100000044275210407350   SERAPHIM  1617543022R571024   MC PIKE                       00000000000000000000                21                      
903L001L5263200504094544892D23700000563200504094544892100000044275210407100000SERAPHIM  CONTRA3H08ZIVBY5DOO9                                                                                          
903L001L5063200504094544892D23700000647001001433349734200000045000210407350   JAMFOX    1617283806RJFDANIELLMRS HJJ UYS                   00000000000000000000                21                      
903L001L5063200504094544892D23700000758010510010994087100000113000210407350   JAMFOX    1617370202RJFLEANE7 JORETHA VAN ROOY              00000000000000000000                21                      
903L001L5263200504094544892D23700000863200504094544892100000158000210407100000JAMFOX    CONTRAGEQQTV52GI5TYF                                                                                          
903L001L5063200504094544892D23700000963200504087491096100000069900210407350   NEWYOU    1617543019R24       M BEYERS                      00000000000000000000                21                      
903L001L5263200504094544892D23700001063200504094544892100000069900210407100000NEWYOU    CONTRAE23QM2QK3VTEVC                                                                                          
999L000000014                                                                                                                                                                                         
