000L2021042100000PAYPORT CONSULTING PTY LTD EFT000072707303                                                                                                                                           
010LD237000019001                                                                                                                                                                                     
011LD23763200500000040945448920120210331                                                                                                                                                              
013L5020210330000878470010000000154231591100000008500CRESCENT1 CUS0044442          03600000000000                N KHAN                                                                               
014L0000000010000000000000000015423159110000000000850000000000000000                                                                                                                                  
011LD23763200500000040945448920120210416                                                                                                                                                              
013L5020210415000525198765000000113071397000000008500CRESCENT1 CUS0059260          00200000000000                W DAVIDS                                                                             
013L5020210415001056198765000000116985264500000008500CRESCENT1 CUS0056863          00200000000000                S WALTERS                                                                            
013L5020210415000111198765000000110836186200000008500CRESCENT1 CUS0006698          00600000000000                N MIA                                                                                
013L5020210415000608198765000000123009289700000008500CRESCENT1 CUS0047624          00600000000000                K DAWOOD                                                                             
013L5020210415000230198765000000119584241400000008500CRESCENT1 CUS0058398          00600000000000                M JACOBS                                                                             
013L5020210415000614198765000000113457096100000008500CRESCENT1 CUS0053630          00200000000000                S MARCUS                                                                             
014L0000000060000000000000000069694347490000000005100000000000000000                                                                                                                                  
011LD23763200500000040945448920120210421                                                                                                                                                              
013L5020210420000077632005000000919508081500000008500CRESCENT1 CUS0041892          02682502000077                R DAWOOD                                                                             
013L5020210420000068470010000000013394046500000008500CRESCENT1 CUS0041362          02682502000068                I BEUKMAN                                                                            
013L5020210420000303632005000000938598964000000008500CRESCENT1 CUS0055116          02683002000303                S KHAN                                                                               
013L5020210420000091250655000000106270751600000008500CRESCENT1 CUS0043342          02682502000091                M NADAT                                                                              
013L5020210420000043051001000001000711236200000008500CRESCENT1 CUS0037996          02682502000043                F ABRAHAMS                                                                           
013L5020210420000377470010000000154458589200000016000CRESCENT1 CUS0058410          02682502000377                A SMITH                                                                              
013L5020210420000394632005000000158107267800000008500CRESCENT1 CUS0033962          02683002000394                M CASSIM                                                                             
013L5020210420000022632005000000504887133800000008500CRESCENT1 CUS0059172          02683002000022                W ABDURAHMAN                                                                         
014L0000000080000000000000000379593607060000000007550000000000000000                                                                                                                                  
019L0000000150000000000000000464711113660000000013500000000000000000                                                                                                                                  
999L000000025                                                                                                                                                                                         
