000L2020091600000PAYPORT CONSULTING PTY LTD EFT000043607303                                                                                                                                           
010LD237000002001                                                                                                                                                                                     
011LD23763200500000040945448920120200916                                                                                                                                                              
013L5020200915000001632005000000406859773200000001000PAYPORT   1600003809RWK002    02683002000001                DEAN STEENKAMP                                                                       
014L0000000010000000000000000040685977320000000000100000000000000000                                                                                                                                  
019L0000000010000000000000000040685977320000000000100000000000000000                                                                                                                                  
999L000000007                                                                                                                                                                                         
