000L2021042400000PAYPORT CONSULTING PTY LTD EFT000073207303                                                                                                                                           
010LD237000019301                                                                                                                                                                                     
011LD23763200500000040945448920120210421                                                                                                                                                              
013L5020210420000375250655000006283028933700000016000CRESCENT1 CUS0058350          01200000000000                K WILLIAMS                                                                           
013L5020210420000297200410000006267004297900000008500CRESCENT1 CUS0054885          01200000000000                A ABRAHAMS                                                                           
013L5020210420000225203209000006237535191400000008500CRESCENT1 CUS0051795          00600000000000                W BROWN                                                                              
013L5020210420000195250805000005054901142200000008500CRESCENT1 CUS0050455          00400000000000                S ALLIE                                                                              
013L5020210420000152255355000006257476487700000008500CRESCENT1 CUS0048673          01200000000000                S GANIEF                                                                             
013L5020210420000107252805000006003424670700000008500CRESCENT1 CUS0044502          00200000000000                H UNWARSA                                                                            
013L5020210420000393231433000006266407152000000008500CRESCENT1 CUS0058756          00400000000000                A JASSAT                                                                             
013L5020210420000391198765000000110844926300000008500CRESCENT1 CUS0058683          00400000000000                S SNAYERS                                                                            
013L5020210420000243254205000006238349903700000008500CRESCENT1 CUS0052295          00200000000000                F LAHER                                                                              
013L5020210420000339250655000006275515955800000008500CRESCENT1 CUS0056471          00200000000000                G JACOBS                                                                             
013L5020210420000133270724000006245274506400000008500CRESCENT1 CUS0046215          00200000000000                L MBHELE                                                                             
013L5020210420000351051001000000000907986600000008500CRESCENT1 CUS0057102          03400000000000                S PILLAY                                                                             
013L5020210420000018239934000006209420488200000008500CRESCENT1 CUS0059072          00200000000000                H THEKISO                                                                            
013L5020210420000190255355000006229320863500000008500CRESCENT1 CUS0004148          01200000000000                R HARTLEY                                                                            
013L5020210420000398200607000006205802314500000008500CRESCENT1 CUS0034124          00200000000000                M LAWS                                                                               
013L5020210420000343210612000006262620698300000008500CRESCENT1 CUS0056667          00200000000000                M VARDALIA                                                                           
013L5020210420000338211617000005628115908300000008500CRESCENT1 CUS0024517          00200000000000                E ABDULLAH                                                                           
013L5020210420000174250056000006218583294800000008500CRESCENT1 CUS0002494          01200000000000                A HARTMANN                                                                           
013L5020210420000250256505000006229923713300000008500CRESCENT1 CUS0011194          00200000000000                S GANGAT                                                                             
013L5020210420000082250805000006233333468900000008500CRESCENT1 CUS0042261          01200000000000                I LAWRENCE                                                                           
013L5020210420000084250837000006239409592300000008500CRESCENT1 CUS0042430          00600000000000                F KHAN                                                                               
013L5020210420000301270151000006210232111400000008500CRESCENT1 CUS0055003          00200000000000                Z ABOO                                                                               
013L5020210420000395250655000006277211227400000008500CRESCENT1 CUS0058762          01200000000000                C MILANZI                                                                            
014L0000000230000000000000012918464483530000000020300000000000000000                                                                                                                                  
011LD23763200500000040945448920120210424                                                                                                                                                              
013L5020210423000105250655000006255230306800000008500CRESCENT1 CUS0049625          02682502000105                A HLOPHE                                                                             
013L5020210423000696470010000000141471615100000008500CRESCENT1 CUS0046211          02682502000696                R BRIJH                                                                              
013L5020210423000057470010000000134706807900000008500CRESCENT1 CUS0057848          02682502000057                A APPOLLIS                                                                           
013L5020210423000758198765000000110724931100000008500CRESCENT1 CUS0029084          02682502000758                Y LEGOETE                                                                            
013L5020210423000752470010000000110359731500000007500CRESCENT1 CUS0028955          02682502000752                L NIEZER                                                                             
013L5020210423000464051001000006253010233400000008500CRESCENT1 CUS0042905          02682502000464                S SHAHID                                                                             
013L5020210423000300250655000006265163476900000023500CRESCENT1 CUS0041396          02682502000300                K ABASS                                                                              
013L5020210423000600250655000000408208943800000008500CRESCENT1 CUS0044678          02682502000600                F HARMEN                                                                             
013L5020210423000644250655000000625478712800000007500CRESCENT1 CUS0021253          02682502000644                R KHAN                                                                               
013L5020210423000674250655000000001147884500000007500CRESCENT1 CUS0023047          02682502000674                I KOCKNEY                                                                            
013L5020210423000412632005000000928054747200000008500CRESCENT1 CUS0042486          02683002000412                S FRANKS                                                                             
014L0000000110000000000000002123355739100000000010550000000000000000                                                                                                                                  
019L0000000340000000000000015041820222630000000030850000000000000000                                                                                                                                  
999L000000042                                                                                                                                                                                         
