000L2021032200000PAYPORT CONSULTING PTY LTD EFT000068107303                                                                                                                                           
010LD237000016401                                                                                                                                                                                     
011LD23763200500000040945448920120210216                                                                                                                                                              
013L5020210215000598632005000000908060754200000008500CRESCENT1 CUS0048121          03092801000598                F ALLY                                                                               
014L0000000010000000000000000090806075420000000000850000000000000000                                                                                                                                  
011LD23763200500000040945448920120210320                                                                                                                                                              
013L5020210319000189632005000000409328422900000008500CRESCENT1 CUS0055094          03492801000189                J TOFFIE                                                                             
013L5020210319000162632005000000933187917700000008500CRESCENT1 CUS0017367          00292803000162                M AROYEWUN                                                                           
013L5020210319000346632005000000922002647300000008500CRESCENT1 CUS0040962          00292803000346                S ENGAR                                                                              
013L5020210319000320632005000000407961712700000008500CRESCENT1 CUS0037876          00292803000320                A NORDIEN                                                                            
014L0000000040000000000000000267248070060000000003400000000000000000                                                                                                                                  
019L0000000050000000000000000358054145480000000004250000000000000000                                                                                                                                  
999L000000013                                                                                                                                                                                         
