000L2021010100000PAYPORT CONSULTING PTY LTD EFT000056707303                                                                                                                                           
010LD237000006501                                                                                                                                                                                     
011LD23763200500000040945448920120201219                                                                                                                                                              
013L5020201218000069470010000000125861400400000008500CRESCENT1 CUS0057866          03000000000000                S MORRIS                                                                             
014L0000000010000000000000000012586140040000000000850000000000000000                                                                                                                                  
019L0000000010000000000000000012586140040000000000850000000000000000                                                                                                                                  
010LD237000006608                                                                                                                                                                                     
011LD23763200500000040945448920120201231                                                                                                                                                              
013L5020201231000045470010000000118558345900000025000ABSOLIT   1609163107RPW001    02682502000045                PRICILLA WARREN                                                                      
013L5020201231000010198765000000116794021900000075000ABSOLIT   1609163107OTS001    02682502000010                TAHIRA SMITH                                                                         
013L5020201231000072198765000000116794021900000075000ABSOLIT   1609163108OTS0003   02682502000072                TAHIRA SMITH                                                                         
013L5020201231000048250655000006274744961600000025000ABSOLIT   1609163107RSH0001   02682502000048                SAAJIDAH HUSSAIN                                                                     
013L5020201231000071198765000000116794021900000075000ABSOLIT   1609163108OTS0002   02682502000071                TAHIRA SMITH                                                                         
013L5020201231000070198765000000116794021900000075000ABSOLIT   1609163108OTS0001   02682502000070                TAHIRA SMITH                                                                         
013L5020201231000011250655000006274744961600000025000ABSOLIT   1609163107RSH001    02682502000011                SAAJIDAH HUSSAIN                                                                     
014L0000000070000000000000001313522435670000000037500000000000000000                                                                                                                                  
019L0000000070000000000000001313522435670000000037500000000000000000                                                                                                                                  
999L000000018                                                                                                                                                                                         
