000L2020111800000PAYPORT CONSULTING PTY LTD EFT000050807303                                                                                                                                           
010LD237000003701                                                                                                                                                                                     
011LD23763200500000040945448920120201021                                                                                                                                                              
013L5020201020000002470010000000142043190900000008500CRESCENT1 1603195658OCUS00579203400000000000                D SEDULLA                                                                            
014L0000000010000000000000000014204319090000000000850000000000000000                                                                                                                                  
019L0000000010000000000000000014204319090000000000850000000000000000                                                                                                                                  
999L000000007                                                                                                                                                                                         
