000L2021051200000PAYPORT CONSULTING PTY LTD EFT000076007303                                                                                                                                           
010LD237000021001                                                                                                                                                                                     
011LD23763200500000040945448920120210424                                                                                                                                                              
013L5020210423000484051001000001006216407200000016000CRESCENT1 CUS0053570          03000000000000                N MOHAMED                                                                            
014L0000000010000000000000000100621640720000000001600000000000000000                                                                                                                                  
011LD23763200500000040945448920120210426                                                                                                                                                              
013L5020210424001156051001000001009415002600000016000CRESCENT1 CUS0043879          03200000000000                M ISAACS                                                                             
013L5020210424000473051001000000030135430800000008500CRESCENT1 CUS0051924          03000000000000                R WILLIAMS                                                                           
013L5020210424000098051001000000004297116000000008500CRESCENT1 CUS0058462          03400000000000                D NAICKER                                                                            
014L0000000030000000000000000104384754940000000003300000000000000000                                                                                                                                  
011LD23763200500000040945448920120210430                                                                                                                                                              
013L5020210429000043470010000000133194344000000025000ABSOLIT   1619530230RDP001    03400000000000                DANIELLE PETERSEN                                                                    
013L5020210429000055470010000000152636429600000025000ABSOLIT   1619530230RRR001    03600000000000                RAYLENE RYAN                                                                         
014L0000000020000000000000000028583077360000000005000000000000000000                                                                                                                                  
019L0000000060000000000000000233589473020000000009900000000000000000                                                                                                                                  
999L000000016                                                                                                                                                                                         
