000L2021052100000PAYPORT CONSULTING PTY LTD EFT000077307303                                                                                                                                           
010LD237000021801                                                                                                                                                                                     
011LD23763200500000040945448920120210426                                                                                                                                                              
013L5020210424001562200912000006237741679000000008500CRESCENT1 CUS0044226          03400000000000                N ELAND                                                                              
014L0000000010000000000000000623774167900000000000850000000000000000                                                                                                                                  
011LD23763200500000040945448920120210521                                                                                                                                                              
013L5020210520000107632005000000919508081500000008500CRESCENT1 CUS0041892          02682502000107                R DAWOOD                                                                             
013L5020210520000021632005000000158107267800000008500CRESCENT1 CUS0033962          02683002000021                M CASSIM                                                                             
013L5020210520000006470010000000154458589200000016000CRESCENT1 CUS0058410          02682502000006                A SMITH                                                                              
013L5020210520000123250655000000106270751600000008500CRESCENT1 CUS0043342          02682502000123                M NADAT                                                                              
013L5020210520000098470010000000013394046500000008500CRESCENT1 CUS0041362          02682502000098                I BEUKMAN                                                                            
013L5020210520000065051001000001000711236200000008500CRESCENT1 CUS0037996          02682502000065                F ABRAHAMS                                                                           
013L5020210520000338632005000000938598964000000008500CRESCENT1 CUS0055116          02683002000338                S KHAN                                                                               
014L0000000070000000000000000329104893680000000006700000000000000000                                                                                                                                  
019L0000000080000000000000000952879061580000000007550000000000000000                                                                                                                                  
999L000000016                                                                                                                                                                                         
