000L2021031200000PAYPORT CONSULTING PTY LTD EFT000066807303                                                                                                                                           
010LD237000015501                                                                                                                                                                                     
011LD23763200500000040945448920120210227                                                                                                                                                              
013L5020210226004401462005000000264653600100000008500CRESCENT1 CUS0054814          03000000000000                M BAKER                                                                              
013L5020210226003628470010000000135015506100000008500CRESCENT1 CUS0058265          03000000000000                W SYDOW                                                                              
014L0000000020000000000000000039966910620000000001700000000000000000                                                                                                                                  
019L0000000020000000000000000039966910620000000001700000000000000000                                                                                                                                  
999L000000008                                                                                                                                                                                         
