000L2021043000000PAYPORT CONSULTING PTY LTD EFT000074207303                                                                                                                                           
010LD237000019901                                                                                                                                                                                     
011LD23763200500000040945448920120210320                                                                                                                                                              
013L5020210319000292051001000000040228401100000023500CRESCENT1 CUS0036379          03400000000000                A GAFOOR                                                                             
013L5020210319000081198765000000103427642500000008500CRESCENT1 CUS0050244          03000000000000                E VAN TURA                                                                           
014L0000000020000000000000000014365604360000000003200000000000000000                                                                                                                                  
011LD23763200500000040945448920120210325                                                                                                                                                              
013L5020210324000375051001000000037486748800000008500CRESCENT1 CUS0055601          03400000000000                S ABRAHAMS                                                                           
014L0000000010000000000000000003748674880000000000850000000000000000                                                                                                                                  
011LD23763200500000040945448920120210326                                                                                                                                                              
013L5020210325003421051001000001008679916700000008500CRESCENT1 CUS0057524          03400000000000                M FELIX                                                                              
013L5020210325002527051001000000002911675900000016000CRESCENT1 CUS0006394          03400000000000                I OMAR                                                                               
013L5020210325003662250655000006284172116200000016000CRESCENT1 CUS0059393          03400000000000                K JEFTHA                                                                             
014L0000000030000000000000000729576370880000000004050000000000000000                                                                                                                                  
011LD23763200500000040945448920120210421                                                                                                                                                              
013L5020210420000011051001000000040228401100000023500CRESCENT1 CUS0036379          03400000000000                A GAFOOR                                                                             
014L0000000010000000000000000004022840110000000002350000000000000000                                                                                                                                  
011LD23763200500000040945448920120210424                                                                                                                                                              
013L5020210423000373198765000000101770294200000008500CRESCENT1 CUS0052302          00200000000000                N JACOBS                                                                             
013L5020210423000661051001000000037486748800000008500CRESCENT1 CUS0055601          03400000000000                S ABRAHAMS                                                                           
013L5020210423000753198765000000112709662100000008500CRESCENT1 CUS0047036          03000000000000                M BHAMJEE                                                                            
013L5020210423000857198765000000114701886300000016000CRESCENT1 CUS0033895          00200000000000                J HILL                                                                               
013L5020210423000578252805000006221629995000000016000CRESCENT1 CUS0017885          03400000000000                A SAHABADIEN                                                                         
013L5020210423000811198765000000118386748400000008500CRESCENT1 CUS0057080          00200000000000                B SYCE                                                                               
014L0000000060000000000000000670668533480000000006600000000000000000                                                                                                                                  
011LD23763200500000040945448920120210426                                                                                                                                                              
013L5020210424003477250655000006274995042500000016000CRESCENT1 CUS0056503          01200000000000                S DA SILVER                                                                          
013L5020210424003548250655000006273896909900000008500CRESCENT1 CUS0058286          00200000000000                I DOLLIE                                                                             
013L5020210424003083250655000006268148632200000008500CRESCENT1 CUS0058127          00600000000000                T ACHMAT                                                                             
013L5020210424002842250655000006276003764000000008500CRESCENT1 CUS0056036          00200000000000                A KHAN                                                                               
013L5020210424003252255355000006259230026500000008500CRESCENT1 CUS0053546          01200000000000                H JACOBS                                                                             
013L5020210424002063250655000006274093185400000016000CRESCENT1 CUS0057596          01200000000000                A NAHAS                                                                              
013L5020210424002288210046000006262217009100000016000CRESCENT1 CUS0057729          00400000000000                A DANIELS                                                                            
013L5020210424002908250056000006204420461800000016000CRESCENT1 CUS0029274          00400000000000                H LAMBAT                                                                             
013L5020210424000124250141000006210045984200000008500CRESCENT1 CUS0054189          00200000000000                A KHAN                                                                               
013L5020210424003239221926000006226201801500000008500CRESCENT1 CUS0056234          01200000000000                M MOOSA                                                                              
013L5020210424003067198765000000112867325800000008500CRESCENT1 CUS0056179          00200000000000                D HARE                                                                               
013L5020210424002852270152000006227411877000000008500CRESCENT1 CUS0042091          00400000000000                K SWARTS                                                                             
013L5020210424001304270344000005218144900300000008500CRESCENT1 CUS0022952          00400000000000                A DANKA                                                                              
013L5020210424001549254205000006207808001800000007500CRESCENT1 CUS0047435          01200000000000                Z BUX                                                                                
013L5020210424000918250805000006266232453300000023500CRESCENT1 CUS0043621          00200000000000                G HENDRICKS                                                                          
013L5020210424000705251042000006233678827100000016000CRESCENT1 CUS0033827          00400000000000                F PATEL                                                                              
013L5020210424002526255355000006250489736700000008500CRESCENT1 CUS0053103          00200000000000                N ROSENBERG                                                                          
013L5020210424000291250114000006207854776100000008500CRESCENT1 CUS0051845          00200000000000                S ABBAS                                                                              
013L5020210424001258250141000006252338241400000008500CRESCENT1 CUS0055113          00400000000000                A REEVE                                                                              
013L5020210424002558200810000005022011163200000016000CRESCENT1 CUS0057802          00200000000000                A MOSAVAL                                                                            
013L5020210424000616255355000006237749097600000008500CRESCENT1 CUS0058804          00200000000000                A ARIEFDIEN                                                                          
013L5020210424000894254005000006005116163100000008500CRESCENT1 CUS0054895          01800000000000                N ABRAHAMS                                                                           
013L5020210424000714250655000006282794423300000008500CRESCENT1 CUS0058882          01200000000000                E GASANT                                                                             
013L5020210424000677250205000006201886553700000008500CRESCENT1 CUS0033813          00400000000000                R KALKE                                                                              
013L5020210424000557250141000006245815733800000008500CRESCENT1 CUS0051965          00200000000000                N BEJJ                                                                               
013L5020210424000363222019000006260019996400000008500CRESCENT1 CUS0056771          00200000000000                H DEABRUYN                                                                           
013L5020210424000945210316000006228789536500000008500CRESCENT1 CUS0040674          00200000000000                Z EVANS                                                                              
013L5020210424001151201109000006206155356900000016000CRESCENT1 CUS0026618          00200000000000                M BARDIEN                                                                            
013L5020210424003212201409000006260536854800000016000CRESCENT1 CUS0058203          01200000000000                H MCCABE                                                                             
013L5020210424001593201909000005013115148800000008500CRESCENT1 CUS0052558          01800000000000                G NASH                                                                               
013L5020210424002985250737000006224669738000000008500CRESCENT1 CUS0035829          01200000000000                A KHAN                                                                               
013L5020210424002408470010000000164364962900000008500CRESCENT1 CUS0057767          03400000000000                N CASSIEM                                                                            
013L5020210424001427198765000000115631073300000008500CRESCENT1 CUS0057246          01200000000000                R YAGHYA                                                                             
013L5020210424002427250455000006225279913800000016000CRESCENT1 CUS0024099          00200000000000                L JARDINE                                                                            
013L5020210424002198198765000000116461731100000016000CRESCENT1 CUS0057663          00200000000000                N PIETERS                                                                            
013L5020210424001732198765000000203132228100000008500CRESCENT1 CUS0050567          02600000000000                S LAMARA                                                                             
013L5020210424002362200311000006249917021600000008500CRESCENT1 CUS0055858          01200000000000                Y ABRAHAMS                                                                           
013L5020210424001767250655000005050052217900000007500CRESCENT1 CUS0023502          02600000000000                A MATTHEWS                                                                           
013L5020210424000326220328000006210539809500000008500CRESCENT1 CUS0030627          00400000000000                M RAHIMAN                                                                            
013L5020210424000934250805000006226309882600000008500CRESCENT1 CUS0049831          00400000000000                Z BOBAT                                                                              
013L5020210424000398253305000005037110829900000016000CRESCENT1 CUS0036682          00400000000000                J SAKILDIEN                                                                          
013L5020210424000545250655000006272197464100000008500CRESCENT1 CUS0056858          00400000000000                A MARINUS                                                                            
013L5020210424001899250655000006285074657300000016000CRESCENT1 CUS0059387          00400000000000                D SWANEPOEL                                                                          
013L5020210424002229250655000006276930157500000008500CRESCENT1 CUS0059454          00200000000000                A HENDRICKS                                                                          
013L5020210424000007254205000006209968936000000008500CRESCENT1 CUS0039387          00200000000000                A KHAN                                                                               
013L5020210424002349198765000000114827333600000016000CRESCENT1 CUS0059501          00200000000000                K CHIIKTA                                                                            
013L5020210424000207198765000000115131213400000008500CRESCENT1 CUS0051809          00200000000000                I SOLOMONS                                                                           
013L5020210424003191211517000006232827536900000008500CRESCENT1 CUS0039000          00400000000000                K LINGHAN                                                                            
013L5020210424001929250655000006284172116200000016000CRESCENT1 CUS0059393          00200000000000                K JEFTHA                                                                             
013L5020210424000447250655000006272829696500000008500CRESCENT1 CUS0056798          00600000000000                Z WILLIAMS                                                                           
013L5020210424002994250655000006288139826000000008500CRESCENT1 CUS0059776          00200000000000                A MOOIDHEEN                                                                          
013L5020210424002020250737000006229674648400000008500CRESCENT1 CUS0018933          00400000000000                N KAROLIA                                                                            
013L5020210424003630210651000006220593740400000016000CRESCENT1 CUS0053934          00400000000000                M JACOBS                                                                             
013L5020210424001762250056000006246014319300000008500CRESCENT1 CUS0055549          00200000000000                B ISMAIL                                                                             
013L5020210424000334198765000000159504193100000008500CRESCENT1 CUS0054486          00200000000000                S JUMAT                                                                              
013L5020210424002527201109000006246980383900000008500CRESCENT1 CUS0055908          01200000000000                M ABRAHAMS                                                                           
013L5020210424003167203209000006255568659500000008500CRESCENT1 CUS0051377          00200000000000                J KELLERMAN                                                                          
013L5020210424003268250555000006240400573900000008500CRESCENT1 CUS0058208          00200000000000                A NORDIEN                                                                            
013L5020210424003335210521000006219757113800000008500CRESCENT1 CUS0051514          00600000000000                F NOOR                                                                               
013L5020210424002763256505000006036086615400000008500CRESCENT1 CUS0045138          00200000000000                F ALLIBHAI DUDHIA                                                                    
013L5020210424002995254605000006224141676900000016000CRESCENT1 CUS0019403          01800000000000                I YUSUF                                                                              
013L5020210424002613251742000006244613664100000016000CRESCENT1 CUS0044997          01200000000000                K RAZAK                                                                              
013L5020210424001573210651000005145002990000000008500CRESCENT1 CUS0034791          00400000000000                A OSMAN                                                                              
013L5020210424000028198765000000115788060600000008500CRESCENT1 CUS0058411          00400000000000                M ABDOL                                                                              
013L5020210424003138204209000006256948645200000016000CRESCENT1 CUS0048733          00200000000000                M AGOWUN                                                                             
013L5020210424003073252605000006223082820600000031000CRESCENT1 CUS0029481          00400000000000                A BIBI LAAL                                                                          
013L5020210424003603250655000006276994032300000008500CRESCENT1 CUS0056584          00200000000000                M HOOSAIN                                                                            
013L5020210424000140250655000006279548032700000008500CRESCENT1 CUS0058467          00200000000000                N FORTUNE                                                                            
013L5020210424003244250655000006228305639100000008500CRESCENT1 CUS0030076          02600000000000                D MAKHUBO                                                                            
013L5020210424001366252605000006239360039300000008500CRESCENT1 CUS0044085          00200000000000                Y KHAN                                                                               
013L5020210424002945250737000006256353582500000008500CRESCENT1 CUS0051270          00200000000000                S VALLY                                                                              
013L5020210424000624198765000000288727584400000008500CRESCENT1 CUS0043394          02600000000000                A SALLIE                                                                             
013L5020210424001517220325000006022035968700000008500CRESCENT1 CUS0034698          00200000000000                M SEER                                                                               
013L5020210424000670250114000006229231163700000008500CRESCENT1 CUS0054689          00200000000000                G BHAWOODIEN                                                                         
013L5020210424001396250054000005244001251700000008500CRESCENT1 CUS0050291          00400000000000                A ASTRIE                                                                             
013L5020210424002413251742000006227388561900000023500CRESCENT1 CUS0028451          00200000000000                A MAGAGULA                                                                           
013L5020210424000355251905000006013625366800000016000CRESCENT1 CUS0033368          01200000000000                C DAMINGO                                                                            
013L5020210424002304250655000006284494986000000016000CRESCENT1 CUS0059479          00200000000000                S WILLIAMS                                                                           
013L5020210424001694250655000006283463976000000008500CRESCENT1 CUS0059346          00200000000000                T ALLISON                                                                            
013L5020210424001721198765000000119099244200000016000CRESCENT1 CUS0057437          01200000000000                M BOOYSEN                                                                            
013L5020210424001902201909000005008001756700000008500CRESCENT1 CUS0023669          00400000000000                R JATTIEM                                                                            
013L5020210424000858250056000006230699430300000016000CRESCENT1 CUS0031131          00200000000000                I MAYET                                                                              
013L5020210424001933211617000006212943847100000008500CRESCENT1 CUS0027723          00400000000000                T WILLIAMS                                                                           
013L5020210424000041250655000006275531888100000008500CRESCENT1 CUS0056633          00200000000000                A DOLLIE                                                                             
013L5020210424002626250655000006270700255700000007500CRESCENT1 CUS0038474          00400000000000                Y VANIA                                                                              
013L5020210424002640255355000006247816915700000008500CRESCENT1 CUS0035572          00400000000000                F ESSOP                                                                              
013L5020210424002122260546000006264401849300000016000CRESCENT1 CUS0055706          01200000000000                M KHAN                                                                               
013L5020210424001154220129000006201865138200000023500CRESCENT1 CUS0037185          03600000000000                A HOOSEN                                                                             
013L5020210424002074200810000005135119954700000008500CRESCENT1 CUS0048022          00400000000000                I DUTOIT                                                                             
013L5020210424000144198765000000117494909000000008500CRESCENT1 CUS0030531          00400000000000                N MOOLLA                                                                             
013L5020210424001330250655000006273054492200000008500CRESCENT1 CUS0059229          00200000000000                E BENJAMIN                                                                           
013L5020210424003560254405000006209556614000000008500CRESCENT1 CUS0053860          01200000000000                D HARTNEY                                                                            
013L5020210424001748204209000006208595765600000008500CRESCENT1 CUS0055546          00400000000000                M ADAMS                                                                              
013L5020210424001973210528000006235532928800000008500CRESCENT1 CUS0057555          00200000000000                S BOTHA                                                                              
013L5020210424001639203209000006261323385800000008500CRESCENT1 CUS0020521          01200000000000                A GALLANT                                                                            
013L5020210424000871250655000006226886713500000008500CRESCENT1 CUS0026370          02600000000000                F GALIEL                                                                             
013L5020210424001524250655000006276073614300000008500CRESCENT1 CUS0055348          01200000000000                R WILLIAMS                                                                           
013L5020210424000700250655000006282941585200000008500CRESCENT1 CUS0058872          01200000000000                A JOOMA                                                                              
013L5020210424000490270543000006214322586200000008500CRESCENT1 CUS0058709          00200000000000                M VAWDA                                                                              
013L5020210424000976203209000006048815851600000016000CRESCENT1 CUS0049861          00200000000000                F ABDOL                                                                              
013L5020210424001273198765000000117649942400000008500CRESCENT1 CUS0057196          00200000000000                I WILLIAMS                                                                           
013L5020210424000010210517000006259396758500000016000CRESCENT1 CUS0049198          03600000000000                K HARRISON                                                                           
013L5020210424001398201009000006260512028700000008500CRESCENT1 CUS0055203          00200000000000                M GAMIET                                                                             
013L5020210424002270250655000006279585787300000008500CRESCENT1 CUS0050892          00200000000000                Z BEG                                                                                
013L5020210424002326632005000000921727508500000038500CRESCENT1 CUS0038231          03092801002326                N GOWRIE                                                                             
013L5020210424001488250655000005400001251500000008500CRESCENT1 CUS0031610          02600000000000                M PEER-MOHAMMED                                                                      
013L5020210424002902255355000006257476487700000008500CRESCENT1 CUS0056074          01200000000000                F GANIEF                                                                             
013L5020210424001505252805000006205406679300000006900CRESCENT1 CUS0041088          00200000000000                M BABAMIA                                                                            
013L5020210424003623210121000006220464864800000008500CRESCENT1 CUS0032956          00200000000000                R FRANC                                                                              
013L5020210424002523250537000006245635951400000008500CRESCENT1 CUS0044963          01200000000000                A KAABI                                                                              
013L5020210424002109201109000006253803679100000008500CRESCENT1 CUS0059420          00200000000000                A THEBUS                                                                             
013L5020210424001315198765000000101561434500000008500CRESCENT1 CUS0057206          00400000000000                S HENDRICKS                                                                          
013L5020210424000696198765000000107348109300000016000CRESCENT1 CUS0049637          03000000000000                F NOMDOE                                                                             
013L5020210424000847198765000000110761903300000008500CRESCENT1 CUS0040472          00200000000000                M ISAACS                                                                             
013L5020210424002796198765000000112360792300000008500CRESCENT1 CUS0053232          00600000000000                Y KAREEM                                                                             
013L5020210424000962198765000000110671709000000008500CRESCENT1 CUS0049859          03000000000000                J REYNECKE                                                                           
013L5020210424003617198765000000106698444100000008500CRESCENT1 CUS0056585          00200000000000                S HASSEN                                                                             
013L5020210424003131051001000000005162495800000016000CRESCENT1 CUS0024748          00400000000000                I JOOSAB                                                                             
013L5020210424002539198765000000100116306000000006900CRESCENT1 CUS0048345          00200000000000                A OMARSHAR                                                                           
013L5020210424002659198765000000108183114600000008500CRESCENT1 CUS0048444          00200000000000                M ISAACS                                                                             
013L5020210424003240198765000000101761228500000008500CRESCENT1 CUS0058206          00200000000000                F SAMSODIEN                                                                          
013L5020210424001758198765000000104578772800000008500CRESCENT1 CUS0044439          00200000000000                Z ALLIE HENDRICKS                                                                    
013L5020210424003162198765000000102923758100000008500CRESCENT1 CUS0035932          00200000000000                R BLIGENHOUDT                                                                        
013L5020210424003660198765000000110470199500000008500CRESCENT1 CUS0058383          00200000000000                R DAVIN                                                                              
013L5020210424000980198765000000109869583600000006900CRESCENT1 CUS0059041          02600000000000                A SALIE                                                                              
013L5020210424001868051001000001008679916700000008500CRESCENT1 CUS0057524          03400000000000                M FELIX                                                                              
014L0000001260000000000000059872691305460000000136320000000000000000                                                                                                                                  
011LD23763200500000040945448920120210430                                                                                                                                                              
013L5020210429002039051001000000011497065400000008500CRESCENT1 CUS0041856          02682502002039                R JEEWA                                                                              
013L5020210429002185051001000000020207834600000008500CRESCENT1 CUS0013923          02682502002185                S KAJEE                                                                              
013L5020210429000943198765000000100846582500000008500CRESCENT1 CUS0045015          02682502000943                F ADAMS                                                                              
013L5020210429001373051001000000042225031000000008500CRESCENT1 CUS0045826          02682502001373                S RENFURM                                                                            
013L5020210429001398198765000000108195326300000008500CRESCENT1 CUS0009097          02682502001398                F OMAR                                                                               
013L5020210429000992051001000000100308217100000016000CRESCENT1 CUS0039651          02682502000992                B MITCHELLE                                                                          
013L5020210429002509198765000000101014142800000016000CRESCENT1 CUS0043083          02682502002509                N MOOI                                                                               
013L5020210429001630051001000000065428087300000008500CRESCENT1 CUS0029287          02682502001630                N MATAMBO                                                                            
013L5020210429001290250655000006263142907200000008500CRESCENT1 CUS0027934          02682502001290                N MOGOTSI                                                                            
013L5020210429001803470010000001561145095000000008500CRESCENT1 CUS0056711          02682502001803                S FICKS                                                                              
013L5020210429001433198765000000302389495300000008500CRESCENT1 CUS0046018          02682502001433                T BALLIM                                                                             
013L5020210429002193223626000000210952152000000008500CRESCENT1 CUS0059074          02682502002193                L SAULS                                                                              
013L5020210429000352470010000000127138661700000007500CRESCENT1 CUS0038250          02682502000352                A MOHAMED                                                                            
013L5020210429000542470010000000014199597900000008500CRESCENT1 CUS0038829          02682502000542                Y GAMA                                                                               
013L5020210429001260632005000000910279301900000023500CRESCENT1 CUS0027853          02682502001260                E MONKHE                                                                             
013L5020210429000200632005000000918304077000000008500CRESCENT1 CUS0025404          02683002000200                R ABRAHAMS                                                                           
013L5020210429002164250655000006252677740100000008500CRESCENT1 CUS0001274          02682502002164                K MOHAMED                                                                            
013L5020210429002210250655000006225062438500000016000CRESCENT1 CUS0047690          02682502002210                I ASCHENDORF                                                                         
013L5020210429001844632005000000449941970700000008500CRESCENT1 CUS0035813          02683002001844                F BHARDU                                                                             
013L5020210429002357632005000000905134146800000008500CRESCENT1 CUS0031526          02683002002357                M ADAM                                                                               
013L5020210429002031470010000000119234193900000016000CRESCENT1 CUS0052282          02682502002031                A SMITH                                                                              
013L5020210429001013250655000000127327521500000007500CRESCENT1 CUS0045110          02682502001013                B MOHAMMED                                                                           
013L5020210429000351632005000000927559419100000016000CRESCENT1 CUS0032909          02683002000351                J SEETHAL                                                                            
013L5020210429000091632005000000912784212400000007500CRESCENT1 CUS0032164          02682502000091                M PRINCE                                                                             
013L5020210429000400250655000006225455928900000008500CRESCENT1 CUS0025930          02682502000400                Y SEEDAT                                                                             
013L5020210429002176250655000006233358449100000008500CRESCENT1 CUS0024351          02682502002176                N MOOSAJEE                                                                           
013L5020210429000811632005000000092686866300000008500CRESCENT1 CUS0033712          02682502000811                L BODIBA                                                                             
013L5020210429002078198765000006257428456000000007500CRESCENT1 CUS0036230          02682502002078                S MUHAMMAD                                                                           
013L5020210429000560250655000006213593727000000008500CRESCENT1 CUS0026277          02682502000560                N JALIEL                                                                             
013L5020210429001582632005000000918861781600000008500CRESCENT1 CUS0041004          02682502001582                J ABDUL                                                                              
013L5020210429001321430000000001221323412300000008500CRESCENT1 CUS0034409          02682502001321                M TEST                                                                               
013L5020210429002165632005000000919043848700000008500CRESCENT1 CUS0013839          02682502002165                H FRANKS                                                                             
013L5020210429001643250655000006208972578200000008500CRESCENT1 CUS0046450          02682502001643                N KHAN                                                                               
013L5020210429002318250655000000508710892200000008500CRESCENT1 CUS0036735          02682502002318                S MORAT                                                                              
014L0000000340000000000000006157643115830000000033750000000000000000                                                                                                                                  
019L0000001730000000000000067452716445000000000187120000000000000000                                                                                                                                  
999L000000191                                                                                                                                                                                         
