000L2021012100000PAYPORT CONSULTING PTY LTD EFT000059507303                                                                                                                                           
010LD237000008401                                                                                                                                                                                     
011LD23763200500000040945448920120210116                                                                                                                                                              
013L5020210115000450198765000000114710852800000008500CRESCENT1 CUS0059073          00200000000000                M NORRIS                                                                             
013L5020210115000448198765000000123009289700000008500CRESCENT1 CUS0047624          00600000000000                K DAWOOD                                                                             
013L5020210115000085198765000000118082657400000008500CRESCENT1 CUS0058141          00200000000000                L HENDRICKS                                                                          
013L5020210115000655198765000000116495846100000008500CRESCENT1 CUS0057739          00200000000000                R SAMSODIEN                                                                          
013L5020210115000692198765000000104651716300000008500CRESCENT1 CUS0055294          00200000000000                F MAHOMED                                                                            
013L5020210115001040198765000000116985264500000008500CRESCENT1 CUS0056863          00200000000000                S WALTERS                                                                            
013L5020210115000510198765000000109261997600000008500CRESCENT1 CUS0059227          00200000000000                Z TOYER                                                                              
013L5020210115000845198765000000112373488700000008500CRESCENT1 CUS0055918          00200000000000                M COLBY                                                                              
013L5020210115000610198765000000290520782500000008500CRESCENT1 CUS0036862          00200000000000                A ISAACS                                                                             
014L0000000090000000000000000120609189560000000007650000000000000000                                                                                                                                  
011LD23763200500000040945448920120210121                                                                                                                                                              
013L5020210120000009632005000000158107267800000008500CRESCENT1 CUS0033962          02683002000009                M CASSIM                                                                             
013L5020210120000359632005000000938598964000000008500CRESCENT1 CUS0055116          02683002000359                S KHAN                                                                               
013L5020210120000024470010000000154458589200000016000CRESCENT1 CUS0058410          02682502000024                A SMITH                                                                              
013L5020210120000057051001000001000711236200000008500CRESCENT1 CUS0037996          02682502000057                F ABRAHAMS                                                                           
013L5020210120000101470010000000013394046500000008500CRESCENT1 CUS0041362          02682502000101                I BEUKMAN                                                                            
013L5020210120000111632005000000919508081500000008500CRESCENT1 CUS0041892          02682502000111                R DAWOOD                                                                             
013L5020210120000124250655000000106270751600000008500CRESCENT1 CUS0043342          02682502000124                M NADAT                                                                              
013L5020210120000080632005000000504887133800000008500CRESCENT1 CUS0059172          02683002000080                W ABDURAHMAN                                                                         
014L0000000080000000000000000379593607060000000007550000000000000000                                                                                                                                  
019L0000000170000000000000000500202796620000000015200000000000000000                                                                                                                                  
999L000000025                                                                                                                                                                                         
