000L2021010800000PAYPORT CONSULTING PTY LTD EFT000057807303                                                                                                                                           
010LD237000007301                                                                                                                                                                                     
011LD23763200500000040945448920120201219                                                                                                                                                              
013L5020201218001223051001000000000210828300000008500CRESCENT1 CUS0040908          03400000000000                N AMIN                                                                               
014L0000000010000000000000000000021082830000000000850000000000000000                                                                                                                                  
019L0000000010000000000000000000021082830000000000850000000000000000                                                                                                                                  
010LD237000007408                                                                                                                                                                                     
011LD23763200500000040945448920120201231                                                                                                                                                              
013L5020201231000066051001000000042099222700000090000ABSOLIT   1609163108ODB0001   03000000000000                DARRYL BLAAUW                                                                        
013L5020201231000067051001000000042099222700000090000ABSOLIT   1609163108ODB002    03000000000000                DARRYL BLAAUW                                                                        
013L5020201231000009051001000000042099222700000090000ABSOLIT   1609163107ODB001    03000000000000                DARRYL BLAAUW                                                                        
014L0000000030000000000000000012629766810000000027000000000000000000                                                                                                                                  
019L0000000030000000000000000012629766810000000027000000000000000000                                                                                                                                  
999L000000014                                                                                                                                                                                         
