000L2020112700000PAYPORT CONSULTING PTY LTD EFT000052107303                                                                                                                                           
010LD237000004301                                                                                                                                                                                     
011LD23763200500000040945448920120201125                                                                                                                                                              
013L5020201124000233470010000000164446272700000006900CRESCENT1 CUS0053551          00200000000000                N TALIEP JOSEPH                                                                      
013L5020201124000313632005000000408286467400000016000CRESCENT1 CUS0045645          03092801000313                E DADA                                                                               
013L5020201124000642051001000000027031257900000008500CRESCENT1 CUS0037321          00400000000000                A ALLIE                                                                              
013L5020201124000675470010000000111966586600000008500CRESCENT1 CUS0049532          00200000000000                W MAJIET                                                                             
013L5020201124000885051001000000000161796600000008500CRESCENT1 CUS0010495          01200000000000                N JABAAR                                                                             
013L5020201124000708470010000000155894516200000007500CRESCENT1 CUS0057380          00200000000000                F JOSEPH                                                                             
013L5020201124000688470010000000130879624000000016000CRESCENT1 CUS0057332          00200000000000                M ARIEFOLIEN                                                                         
013L5020201124000281470010000000138780773900000008500CRESCENT1 CUS0054241          00200000000000                B SICKLES                                                                            
013L5020201124000843470010000000139905438200000016000CRESCENT1 CUS0051106          00200000000000                A THORNE                                                                             
013L5020201124000836470010000000147916340400000008500CRESCENT1 CUS0058066          00200000000000                A FISHER                                                                             
013L5020201124000173051001000000005220943100000008500CRESCENT1 CUS0016551          00200000000000                Z KHAN                                                                               
013L5020201124000685051001000000020777768300000008500CRESCENT1 CUS0003476          00200000000000                R NAKKOODA                                                                           
013L5020201124000623470010000000141108292100000008500CRESCENT1 CUS0049165          00200000000000                M JAFTHA                                                                             
013L5020201124000776470010000000141173068000000016000CRESCENT1 CUS0057756          00200000000000                A CROUCH                                                                             
013L5020201124000896470010000000150783061900000008500CRESCENT1 CUS0058378          00200000000000                L CLOETE                                                                             
013L5020201124000584470010000000154002092200000008500CRESCENT1 CUS0056849          00200000000000                A MOSES                                                                              
013L5020201124000518470010000000160050798900000008500CRESCENT1 CUS0056252          00200000000000                M MOGODISENG                                                                         
013L5020201124000784051001000001006059869500000008500CRESCENT1 CUS0057776          00200000000000                R PHIRI                                                                              
013L5020201124000488470010000000119368327900000008500CRESCENT1 CUS0056039          00200000000000                A HENDRICKS                                                                          
013L5020201124000892470010000000125757295200000008500CRESCENT1 CUS0058375          00200000000000                M ESAU                                                                               
013L5020201124000612470010000000161465686800000008500CRESCENT1 CUS0056966          00200000000000                K JAFIELDIEN                                                                         
013L5020201124000716470010000000140980096000000008500CRESCENT1 CUS0057412          00200000000000                S SAMUELS                                                                            
013L5020201124000458470010000000139958181100000008500CRESCENT1 CUS0055825          00200000000000                R CASSIM                                                                             
013L5020201124000596470010000000135874440600000008500CRESCENT1 CUS0056935          00200000000000                A LAMONT                                                                             
013L5020201124000261470010000000152076018100000007500CRESCENT1 CUS0020196          00200000000000                M OMAR                                                                               
013L5020201124000563470010000000146279122900000008500CRESCENT1 CUS0056752          00200000000000                S SELDON                                                                             
013L5020201124000330051001000000020105119200000016000CRESCENT1 CUS0024615          00200000000000                A MILLER                                                                             
013L5020201124000425051001000000037486748800000008500CRESCENT1 CUS0055601          00400000000000                S ABRAHAMS                                                                           
013L5020201124000168470010000000124522016900000008500CRESCENT1 CUS0059194          00200000000000                A ARENDSE                                                                            
013L5020201124000392051001000000007250590700000008500CRESCENT1 CUS0055351          00400000000000                F BARDIEN                                                                            
013L5020201124000583051001000000007282674600000008500CRESCENT1 CUS0048807          00200000000000                A HOWELL                                                                             
013L5020201124000020051001000001007611908200000008500CRESCENT1 CUS0058452          00200000000000                N ALIE                                                                               
013L5020201124000187470010000000111529795100000008500CRESCENT1 CUS0053167          00200000000000                K ISMAIL                                                                             
013L5020201124000007051001000000003318324400000007500CRESCENT1 CUS0051465          00400000000000                S AHMOD                                                                              
013L5020201124000004470010000000162737823300000008500CRESCENT1 CUS0058400          00200000000000                B SAMUELS                                                                            
013L5020201124000752470010000000161507799300000008500CRESCENT1 CUS0057591          00200000000000                K DANIELS                                                                            
013L5020201124000183632005000000409185597500000008500CRESCENT1 CUS0053139          00292803000183                F RADEMEYER                                                                          
013L5020201124000808470010000000144957912200000008500CRESCENT1 CUS0057942          00200000000000                B WHITEBOY                                                                           
013L5020201124000700470010000000137474821600000007500CRESCENT1 CUS0057357          00200000000000                F ISMAIL                                                                             
013L5020201124000148470010000000136651380900000008500CRESCENT1 CUS0059163          00200000000000                S TOYER                                                                              
013L5020201124000263470010000000143342036600000008500CRESCENT1 CUS0053870          00200000000000                K MOHAMED                                                                            
013L5020201124000766051001000000027640044500000016000CRESCENT1 CUS0039801          00200000000000                F OLIVIER                                                                            
013L5020201124000396051001000000005220943100000022500CRESCENT1 CUS0028294          00200000000000                A KHAN                                                                               
013L5020201124000604051001000000007893545800000008500CRESCENT1 CUS0056953          00300000000000                S WITBWOI                                                                            
013L5020201124000748470010000000150819396500000008500CRESCENT1 CUS0057556          00200000000000                N MOHAMED                                                                            
013L5020201124000628470010000000152480677100000016000CRESCENT1 CUS0057096          00200000000000                S CROEP                                                                              
013L5020201124000880470010000000148694910800000008500CRESCENT1 CUS0058308          00200000000000                F RORICK                                                                             
013L5020201124000008470010000000134006074200000016000CRESCENT1 CUS0058402          00200000000000                A TOPLEY                                                                             
013L5020201124000569051001000000040204263800000008500CRESCENT1 CUS0056772          00400000000000                S ABRAHAMS                                                                           
013L5020201124000256051001000000007168659200000008500CRESCENT1 CUS0044747          01800000000000                M EMANDIEN                                                                           
013L5020201124000200470010000000113721278900000008500CRESCENT1 CUS0059363          00200000000000                F DAVIDS                                                                             
013L5020201124000770470010000000126214139500000008500CRESCENT1 CUS0039962          00200000000000                I PATEL                                                                              
013L5020201124000464470010000000140391941900000016000CRESCENT1 CUS0055832          00200000000000                S LEITJIES                                                                           
013L5020201124000804470010000000163164392200000008500CRESCENT1 CUS0057940          00200000000000                R SOLOMONS                                                                           
013L5020201124000690051001000000000015866600000031000CRESCENT1 CUS0038387          00200000000000                A DAVIES                                                                             
013L5020201124000434470010000000158621406100000008500CRESCENT1 CUS0055673          00200000000000                R MENIERS                                                                            
013L5020201124000163470010000000135720796200000008500CRESCENT1 CUS0052988          00200000000000                A WILLIAMS                                                                           
013L5020201124000305470010000000133057269400000008500CRESCENT1 CUS0054434          00200000000000                K JINA                                                                               
013L5020201124000767470010000000144978612800000008500CRESCENT1 CUS0050343          00200000000000                S ABRAHAMS                                                                           
013L5020201124000338470010000000128996735900000008500CRESCENT1 CUS0054777          00200000000000                T STUURMAN                                                                           
013L5020201124000072051001000001009380497900000008500CRESCENT1 CUS0058676          01200000000000                I HENDRICKS                                                                          
013L5020201124000176470010000000140586348800000008500CRESCENT1 CUS0059240          00200000000000                A PARI                                                                               
013L5020201124000636470010000000160927284400000008500CRESCENT1 CUS0057174          00200000000000                O NOLAN                                                                              
013L5020201124000374051001000000000905896600000008500CRESCENT1 CUS0055033          00400000000000                A GOOLAM                                                                             
013L5020201124000755470010000000115236149800000008500CRESCENT1 CUS0050234          01200000000000                N LENNOX                                                                             
013L5020201124000587470010000000116883099900000016000CRESCENT1 CUS0048831          00200000000000                K MANEVELD                                                                           
013L5020201124000194051001000000027055025900000016000CRESCENT1 CUS0043917          00400000000000                N JONES                                                                              
013L5020201124000578470010000000134173250700000008500CRESCENT1 CUS0056792          00200000000000                A SALLIE                                                                             
013L5020201124000362470010000000137726598400000008500CRESCENT1 CUS0054865          00200000000000                M DE JONGH                                                                           
013L5020201124000820470010000000133476414800000008500CRESCENT1 CUS0058050          00200000000000                F HAMBURG                                                                            
013L5020201124000648470010000000143345500300000008500CRESCENT1 CUS0057203          00200000000000                Y ABRAHAMS                                                                           
013L5020201124000461470010000000152404000000000008500CRESCENT1 CUS0055829          00200000000000                A TITUS                                                                              
013L5020201124000116632005000000931435577600000008500CRESCENT1 CUS0059025          00292803000116                M DAVIDS                                                                             
013L5020201124000856470010000000158145598200000008500CRESCENT1 CUS0058188          00200000000000                C SOLOMONS                                                                           
013L5020201124000257470010000000147742283600000008500CRESCENT1 CUS0053821          01200000000000                F NHLAPO                                                                             
013L5020201124000579470010000000119191901100000023500CRESCENT1 CUS0036095          00200000000000                I OGLE                                                                               
013L5020201124000341470010000000121796331400000008500CRESCENT1 CUS0054779          03000000000000                P DUPLOOY                                                                            
013L5020201124000831051001000000027354112900000006900CRESCENT1 CUS0051028          00200000000000                N DAMONS                                                                             
013L5020201124000162051001000000000252347700000008500CRESCENT1 CUS0043668          00200000000000                Y RASUL                                                                              
013L5020201124000875051001000001006676710300000016000CRESCENT1 CUS0051285          00200000000000                A SASMAN                                                                             
013L5020201124000732470010000000129817029800000008500CRESCENT1 CUS0057530          00200000000000                L RAJIE DARRES                                                                       
013L5020201124000812470010000000158066164300000008500CRESCENT1 CUS0057954          00200000000000                M LUBBE                                                                              
013L5020201124000404632005000000408906242900000016000CRESCENT1 CUS0055379          00292803000404                N DAVIDS                                                                             
013L5020201124000844470010000000156785207400000008500CRESCENT1 CUS0058092          00600000000000                Z ABRAHAMS                                                                           
013L5020201124000430470010000000140342189500000008500CRESCENT1 CUS0047114          00200000000000                R SATAR                                                                              
013L5020201124000215470010000000148511349900000008500CRESCENT1 CUS0053402          00200000000000                M ORRIE-ROB                                                                          
013L5020201124000036051001000000027776533100000008500CRESCENT1 CUS0058527          00200000000000                M WALKER                                                                             
014L0000000870000000000000001481507928750000000088130000000000000000                                                                                                                                  
019L0000000870000000000000001481507928750000000088130000000000000000                                                                                                                                  
999L000000093                                                                                                                                                                                         
