000L2021030200000PAYPORT CONSULTING PTY LTD EFT000065307303                                                                                                                                           
010LD237000014101                                                                                                                                                                                     
011LD23763200500000040945448920120210130                                                                                                                                                              
013L5020210129002113470010000000134597356800000008500CRESCENT1 CUS0051856          03000000000000                Y GALANT                                                                             
013L5020210129000329470010000000153203573800000008500CRESCENT1 CUS0057643          03000000000000                J ABDURAGHMAN                                                                        
014L0000000020000000000000000028780093060000000001700000000000000000                                                                                                                                  
011LD23763200500000040945448920120210216                                                                                                                                                              
013L5020210215000529470010000000146044636200000008500CRESCENT1 CUS0053449          03000000000000                N BOTHA                                                                              
014L0000000010000000000000000014604463620000000000850000000000000000                                                                                                                                  
011LD23763200500000040945448920120210225                                                                                                                                                              
013L5020210224000165198765000000207903214300000006900CRESCENT1 CUS0057520          00200000000000                G MOLISIE                                                                            
013L5020210224000386198765000000113494973100000023500CRESCENT1 CUS0007917          03000000000000                K SHAIK HOOSEN                                                                       
013L5020210224000088198765000000114701886300000016000CRESCENT1 CUS0033895          00200000000000                J HILL                                                                               
013L5020210224000437470010000000131370171600000006900CRESCENT1 CUS0059078          03400000000000                F HARDING                                                                            
013L5020210224000766632005000000408286467400000016000CRESCENT1 CUS0045645          03092801000766                E DADA                                                                               
014L0000000050000000000000000097575671270000000006930000000000000000                                                                                                                                  
011LD23763200500000040945448920120210227                                                                                                                                                              
013L5020210226003158470010000000164644465300000008500CRESCENT1 CUS0036508          00200000000000                S MAHOMED                                                                            
013L5020210226003325470010000000132720684400000008500CRESCENT1 CUS0051910          00200000000000                T ADAMS                                                                              
013L5020210226003386470010000000134597356800000008500CRESCENT1 CUS0051856          03000000000000                Y GALANT                                                                             
013L5020210226002753470010000000134185353300000008500CRESCENT1 CUS0058071          00200000000000                M DANIELS                                                                            
013L5020210226000063470010000000129686784400000008500CRESCENT1 CUS0055623          00200000000000                Z HASKINS                                                                            
013L5020210226001418051001000000007272827200000016000CRESCENT1 CUS0030791          00600000000000                F SALIE                                                                              
013L5020210226002701470010000000137340030500000008500CRESCENT1 CUS0053857          00200000000000                R JONES                                                                              
013L5020210226003081470010000000153571243900000017000CRESCENT1 CUS0024434          00200000000000                J DAVIDS                                                                             
013L5020210226000690470010000000157266449300000008500CRESCENT1 CUS0059356          00200000000000                R GEORGE                                                                             
013L5020210226001404470010000000159049694700000008500CRESCENT1 CUS0059413          00200000000000                N CHOUGLAY                                                                           
013L5020210226001202470010000000160363856100000007500CRESCENT1 CUS0057653          00200000000000                B GALANT                                                                             
013L5020210226001679470010000000161271138100000008500CRESCENT1 CUS0059466          00200000000000                F GAFFOOR                                                                            
013L5020210226000487470010000000155894745900000016000CRESCENT1 CUS0053045          00200000000000                A BADR                                                                               
013L5020210226005612470010000000149283336100000008500CRESCENT1 CUS0057745          00200000000000                Z THESEN                                                                             
013L5020210226001105470010000000140456947000000016000CRESCENT1 CUS0045507          00200000000000                R LEEMAN                                                                             
013L5020210226005001470010000000147169201700000008500CRESCENT1 CUS0055056          00200000000000                C ROSENBURG                                                                          
013L5020210226005728410506000005110993325100000016000CRESCENT1 CUS0059037          00300000000000                C MILAMBE                                                                            
013L5020210226005628470010000000122812751200000008500CRESCENT1 CUS0059026          00200000000000                A HASSEN ALLY                                                                        
013L5020210226002294470010000000125318300500000008500CRESCENT1 CUS0034016          00200000000000                A VISAGIE                                                                            
013L5020210226000412470010000000135720796200000008500CRESCENT1 CUS0052988          00200000000000                A WILLIAMS                                                                           
013L5020210226002427470010000000131891015100000008500CRESCENT1 CUS0056246          00200000000000                A FEBRUARY                                                                           
013L5020210226003038470010000000132262898800000008500CRESCENT1 CUS0058753          00400000000000                A ACHMAT                                                                             
013L5020210226000448470010000000131027229600000008500CRESCENT1 CUS0054793          00200000000000                A MOOSA                                                                              
013L5020210226006337470010000000116728145200000008500CRESCENT1 CUS0057992          00200000000000                A DAVIDS                                                                             
013L5020210226006148470010000000142701715600000016000CRESCENT1 CUS0048278          00200000000000                W JARDIEN                                                                            
013L5020210226004553470010000000156745819800000008500CRESCENT1 CUS0058635          00200000000000                A LILLAH                                                                             
013L5020210226002553470010000000154892614900000016000CRESCENT1 CUS0058042          00200000000000                I KAMAAR                                                                             
013L5020210226003954470010000000156280190000000008500CRESCENT1 CUS0002978          00200000000000                S MOHAMMED                                                                           
013L5020210226002853470010000000155638954800000008500CRESCENT1 CUS0058112          00200000000000                F SWARTS                                                                             
013L5020210226003078470010000000160960933400000008500CRESCENT1 CUS0058193          00200000000000                S MOHAMED                                                                            
013L5020210226004635470010000000147463867600000016000CRESCENT1 CUS0048178          00200000000000                M ISAACS                                                                             
013L5020210226002935470010000000141606829300000008500CRESCENT1 CUS0046981          00200000000000                S RAHMAN                                                                             
013L5020210226006338470010000000146221343800000008500CRESCENT1 CUS0059397          00200000000000                M SIMON                                                                              
013L5020210226003799470010000000113822794100000008500CRESCENT1 CUS0049786          00400000000000                S JACOBS                                                                             
013L5020210226004301470010000000122625556400000008500CRESCENT1 CUS0054778          00200000000000                L XULU                                                                               
013L5020210226003103470010000000132199769600000016000CRESCENT1 CUS0058196          03000000000000                S DAVIDS                                                                             
013L5020210226001186470010000000131798787800000008500CRESCENT1 CUS0058298          00200000000000                M SHADE                                                                              
013L5020210226001708470010000000135372208000000008500CRESCENT1 CUS0035265          00200000000000                F AHMAD                                                                              
013L5020210226002513470010000000123767163700000008500CRESCENT1 CUS0058650          01200000000000                S PHILANDER                                                                          
013L5020210226000901470010000000123285149100000008500CRESCENT1 CUS0059535          00200000000000                S ABRAHAMS                                                                           
013L5020210226006397470010000000131092391200000008500CRESCENT1 CUS0045150          00400000000000                R HENDRICKS                                                                          
013L5020210226001838470010000000121258394700000008500CRESCENT1 CUS0058394          00200000000000                S CECILS                                                                             
013L5020210226003937462005000001042788630100000016000CRESCENT1 CUS0057103          00200000000000                A KHAN                                                                               
013L5020210226004952470010000000144711277400000008500CRESCENT1 CUS0057036          00200000000000                G FROUDE                                                                             
013L5020210226003825470010000000141009037800000016000CRESCENT1 CUS0052025          03000000000000                S DOLLEY                                                                             
013L5020210226000615470010000000147211077100000008500CRESCENT1 CUS0059352          00200000000000                Z DAVIDS                                                                             
013L5020210226006261470010000000155097651400000008500CRESCENT1 CUS0054472          00200000000000                S BEN                                                                                
013L5020210226002388470010000000157075361800000008500CRESCENT1 CUS0058623          00200000000000                R GAFFOOR                                                                            
013L5020210226002375470010000000148953545200000008500CRESCENT1 CUS0051692          00200000000000                K ABDULLAH                                                                           
013L5020210226002138470010000000137508528800000006900CRESCENT1 CUS0058483          01200000000000                M TOFA                                                                               
013L5020210226002561051001000000007292992800000008500CRESCENT1 CUS0050528          00400000000000                F AUGUST                                                                             
013L5020210226003976470010000000132635995700000016000CRESCENT1 CUS0054621          03400000000000                M ABRAHAM                                                                            
013L5020210226005023470010000000124563556300000006900CRESCENT1 CUS0047651          00400000000000                M ETALA                                                                              
013L5020210226001603470010000000164833982200000008500CRESCENT1 CUS0057763          00600000000000                M ABRAHAMS                                                                           
013L5020210226001670632005000000405157079500000008500CRESCENT1 CUS0036606          00292803001670                A KARIM                                                                              
013L5020210226005962470010000000125861400400000008500CRESCENT1 CUS0057866          00200000000000                S MORRIS                                                                             
013L5020210226002450470010000000127643447000000008500CRESCENT1 CUS0051702          03000000000000                M KEMP                                                                               
013L5020210226005201470010000000132815563100000008500CRESCENT1 CUS0055097          00200000000000                R REGAL                                                                              
013L5020210226004728462005000000595500930300000008500CRESCENT1 CUS0058657          00200000000000                R TAGODIEN                                                                           
013L5020210226003977470010000000139539213500000008500CRESCENT1 CUS0056763          00200000000000                N ABRAHAMS                                                                           
013L5020210226005636470010000000141023947900000007500CRESCENT1 CUS0053735          00400000000000                M MOHAMED                                                                            
013L5020210226003476470010000000149830776900000008500CRESCENT1 CUS0054397          00200000000000                S THULSIE                                                                            
013L5020210226002102470010000000150973379300000016000CRESCENT1 CUS0056184          00200000000000                F SOLOMON                                                                            
013L5020210226004538470010000000157425419500000008500CRESCENT1 CUS0059155          00200000000000                M HENDRICKS                                                                          
013L5020210226004133470010000000142122942900000008500CRESCENT1 CUS0037171          00200000000000                M MAHOMED                                                                            
013L5020210226002328470010000000163164392200000008500CRESCENT1 CUS0057940          00200000000000                R SOLOMONS                                                                           
013L5020210226001274470010000000114698870000000016000CRESCENT1 CUS0048843          00200000000000                A CORNELLIESON                                                                       
013L5020210226005063470010000000136888479000000008500CRESCENT1 CUS0059209          00200000000000                W WILKONSON                                                                          
013L5020210226002457051001000000008139807700000008500CRESCENT1 CUS0030582          00400000000000                W BHIKOO-RAWOOT                                                                      
013L5020210226005703410506000005112911606200000008500CRESCENT1 CUS0059034          00300000000000                J STEVEN                                                                             
013L5020210226002237470010000000133529621000000008500CRESCENT1 CUS0056247          03400000000000                N SWARTS                                                                             
013L5020210226002738470010000000135867418100000008500CRESCENT1 CUS0058674          00200000000000                F JEFTA                                                                              
013L5020210226003611470010000000134150674400000016000CRESCENT1 CUS0052256          00200000000000                I XABA                                                                               
013L5020210226004286470010000000138365921200000008500CRESCENT1 CUS0052820          00200000000000                T BOOYSEN                                                                            
013L5020210226001082470010000000140695686200000008500CRESCENT1 CUS0058274          00600000000000                N LIWIN                                                                              
013L5020210226004312470010000000158681551000000008500CRESCENT1 CUS0057264          00200000000000                S LEPERE GABIER                                                                      
013L5020210226002004470010000000161786706100000008500CRESCENT1 CUS0059527          00200000000000                I SAMUELS                                                                            
013L5020210226005928470010000000159030660900000008500CRESCENT1 CUS0059161          03400000000000                R AUGUST                                                                             
013L5020210226000140470010000000169510719300000008500CRESCENT1 CUS0059267          00200000000000                Z NOLAN                                                                              
013L5020210226001863470010000000160400819700000008500CRESCENT1 CUS0058395          03000000000000                A DAMONS                                                                             
013L5020210226000715470010000000160143172200000008500CRESCENT1 CUS0059359          00200000000000                G HANSEN                                                                             
013L5020210226005737470010000000157445687100000016000CRESCENT1 CUS0057766          00200000000000                F ABRAHAMS                                                                           
013L5020210226006103470010000000147854729200000008500CRESCENT1 CUS0059180          00200000000000                N SAUL                                                                               
013L5020210226005713470010000000145473146800000008500CRESCENT1 CUS0059311          00200000000000                M SOLOMONS                                                                           
013L5020210226005662470010000000134596338400000016000CRESCENT1 CUS0057761          00200000000000                M ROOS                                                                               
013L5020210226002262470010000000132901899900000008500CRESCENT1 CUS0056292          00600000000000                A HAYWOOD                                                                            
013L5020210226005229470010000000123938567400000008500CRESCENT1 CUS0005019          00200000000000                B OTTO                                                                               
013L5020210226001969470010000000121615740300000016000CRESCENT1 CUS0033765          00200000000000                S JARDIEN                                                                            
013L5020210226003524470010000000119502749200000008500CRESCENT1 CUS0049664          00400000000000                L KAGEE                                                                              
013L5020210226001041470010000000134460076800000016000CRESCENT1 CUS0045646          00200000000000                S KHAN                                                                               
013L5020210226002503470010000000144404897800000008500CRESCENT1 CUS0058016          00200000000000                N HODSON                                                                             
013L5020210226003512470010000000159258334000000008500CRESCENT1 CUS0056871          00200000000000                K GROENEWALD                                                                         
013L5020210226004459470010000000162531784900000008500CRESCENT1 CUS0043070          00200000000000                M MARCUS                                                                             
013L5020210226002551470010000000139408401100000016000CRESCENT1 CUS0053745          00400000000000                N PERREIRA                                                                           
013L5020210226000689470010000000136188742500000008500CRESCENT1 CUS0057527          00200000000000                T CLAASEN                                                                            
013L5020210226002779470010000000173671774800000008500CRESCENT1 CUS0000900          00200000000000                R CHIBOO                                                                             
013L5020210226003151632005000000179017048900000008500CRESCENT1 CUS0054136          00292803003151                F SOLOMON                                                                            
013L5020210226003983470010000000165119092300000008500CRESCENT1 CUS0036977          00400000000000                Y SAITH                                                                              
013L5020210226000543470010000000121353539300000008500CRESCENT1 CUS0027766          00200000000000                M MOSES                                                                              
013L5020210226003792250655000007709415510900000023500CRESCENT1 CUS0027763          02600000000000                A MYET                                                                               
013L5020210226002602051001000000007337362100000016000CRESCENT1 CUS0056294          00600000000000                E JACOBS                                                                             
013L5020210226005253470010000000139498759300000008500CRESCENT1 CUS0058870          00200000000000                Q PROUTS                                                                             
013L5020210226000722470010000000140226232700000008500CRESCENT1 CUS0049498          00400000000000                R FRANCIS                                                                            
013L5020210226000050470010000000137705706000000008500CRESCENT1 CUS0059415          00200000000000                R SEDICK                                                                             
013L5020210226004777470010000000144860326700000008500CRESCENT1 CUS0056985          00200000000000                F ABDURAHMAN                                                                         
013L5020210226003926470010000000141102732700000008500CRESCENT1 CUS0054610          00200000000000                F SICKLES                                                                            
013L5020210226001574470010000000147505132600000008500CRESCENT1 CUS0048958          00200000000000                Z HASSEN                                                                             
013L5020210226004317470010000000154106534200000007500CRESCENT1 CUS0028292          03200000000000                W FELTMAN                                                                            
013L5020210226006258470010000000153072422600000008500CRESCENT1 CUS0039028          00200000000000                S DOLLIE                                                                             
013L5020210226005548462005000000806028230100000008500CRESCENT1 CUS0047950          00200000000000                M SLAMANG                                                                            
013L5020210226003403470010000000123804727900000008500CRESCENT1 CUS0058221          00200000000000                L LAKAY                                                                              
013L5020210226004487470010000000130879624000000008500CRESCENT1 CUS0057332          00200000000000                M ARIEFOLIEN                                                                         
013L5020210226002578470010000000128880214300000008500CRESCENT1 CUS0058044          00200000000000                F ALEXANDER                                                                          
013L5020210226002276470010000000126413089700000008500CRESCENT1 CUS0053650          00400000000000                S ANDREWS                                                                            
013L5020210226002787462005000000732375130100000008500CRESCENT1 CUS0056622          00200000000000                Y ABDULLAH                                                                           
013L5020210226004982470010000000118290162800000008500CRESCENT1 CUS0032996          03400000000000                A LOUW                                                                               
013L5020210226004935051001000000007258803900000016000CRESCENT1 CUS0048311          00600000000000                F ASOUHAAR EBRAHIM                                                                   
013L5020210226002762051001000000007263230500000008500CRESCENT1 CUS0056609          00400000000000                N BAATJES                                                                            
013L5020210226004063470010000000150810562400000008500CRESCENT1 CUS0059032          00200000000000                R GOLIATH                                                                            
013L5020210226003823470010000000141024465000000008500CRESCENT1 CUS0047177          00200000000000                Z RHODE                                                                              
013L5020210226004251470010000000143203663500000006900CRESCENT1 CUS0054721          00200000000000                G STEGMANN                                                                           
013L5020210226001974470010000000136891450900000008500CRESCENT1 CUS0049152          00400000000000                M VALLIE                                                                             
013L5020210226004248470010000000136940322200000008500CRESCENT1 CUS0047300          00400000000000                S OMEDALF                                                                            
013L5020210226002351470010000000163519736600000008500CRESCENT1 CUS0053665          00200000000000                F ALLIE                                                                              
013L5020210226001503470010000000163728874100000008500CRESCENT1 CUS0057752          03600000000000                F JAMIE                                                                              
013L5020210226001325470010000000163764926400000008500CRESCENT1 CUS0051343          00400000000000                F DAWOOD                                                                             
013L5020210226001678470010000000164481386400000016000CRESCENT1 CUS0057770          00200000000000                M MOOS                                                                               
013L5020210226005895470010000000137088847100000008500CRESCENT1 CUS0038583          00200000000000                S ABAS                                                                               
013L5020210226002135470010000000137194009400000008500CRESCENT1 CUS0046339          00400000000000                M MINNIE                                                                             
013L5020210226004451470010000000153319426000000008500CRESCENT1 CUS0054825          00200000000000                S HOLLAND                                                                            
013L5020210226005786470010000000155341367700000016000CRESCENT1 CUS0053922          00200000000000                I NORTON                                                                             
013L5020210226000799051001000000007267986700000008500CRESCENT1 CUS0058205          00400000000000                T MKIWANE                                                                            
013L5020210226000238051001000000007270459400000008500CRESCENT1 CUS0055649          00200000000000                L VALLEY                                                                             
013L5020210226005963470010000000129404947800000008500CRESCENT1 CUS0059357          00200000000000                S KUMARDATTA                                                                         
013L5020210226005875470010000000131380323300000008500CRESCENT1 CUS0052616          00200000000000                A VALENTINE                                                                          
013L5020210226002224470010000000126130726500000008500CRESCENT1 CUS0049225          00200000000000                A KAMALDIEN                                                                          
013L5020210226000112051001000000007346009500000008500CRESCENT1 CUS0052912          00200000000000                S BECKETT                                                                            
013L5020210226003060250655000007456488551300000008500CRESCENT1 CUS0047042          02600000000000                F COMROODIEN                                                                         
013L5020210226004313470010000000115601701500000008500CRESCENT1 CUS0059071          00200000000000                A MOHLOLO                                                                            
013L5020210226003803470010000000155300556000000008500CRESCENT1 CUS0058296          00200000000000                F MATTHEWS                                                                           
013L5020210226003887470010000000150594123500000008500CRESCENT1 CUS0057081          00200000000000                M JUMAT                                                                              
013L5020210226003226470010000000137724793500000008500CRESCENT1 CUS0054225          00200000000000                S KHAN                                                                               
013L5020210226002308470010000000140188162700000008500CRESCENT1 CUS0035809          00200000000000                M CHUPTY                                                                             
013L5020210226005474470010000000142302945100000008500CRESCENT1 CUS0050619          00200000000000                M FREDERICKS                                                                         
013L5020210226003263470010000000166890462200000008500CRESCENT1 CUS0058798          00200000000000                M ADAMS                                                                              
013L5020210226002399632005000000408962685500000008500CRESCENT1 CUS0049307          03492801002399                H TIMOL                                                                              
013L5020210226001651470010000000148434679100000008500CRESCENT1 CUS0053437          00200000000000                Z BROWN                                                                              
013L5020210226002848470010000000124027084200000008500CRESCENT1 CUS0046718          03200000000000                A MADATT                                                                             
013L5020210226003503470010000000128592686000000008500CRESCENT1 CUS0058258          00200000000000                Y BERA                                                                               
013L5020210226004836470010000000128273599100000008500CRESCENT1 CUS0053226          00200000000000                A NORTON                                                                             
013L5020210226002627470010000000134898039500000016000CRESCENT1 CUS0056300          00200000000000                S ABRAHAMS                                                                           
013L5020210226005138462005000000756448130100000008500CRESCENT1 CUS0059216          01200000000000                W DAVIDS                                                                             
013L5020210226002452470010000000152340656700000008500CRESCENT1 CUS0056249          00200000000000                E MONAGENG                                                                           
013L5020210226006152470010000000151845309900000008500CRESCENT1 CUS0057243          00200000000000                M TALIEP                                                                             
013L5020210226004712470010000000160797738700000008500CRESCENT1 CUS0057404          00200000000000                I JACOBS                                                                             
013L5020210226005252470010000000141043717300000016000CRESCENT1 CUS0057083          03600000000000                M ARENDSE                                                                            
013L5020210226005985470010000000138368639200000008500CRESCENT1 CUS0048832          00400000000000                I MARTIN                                                                             
013L5020210226001901470010000000153868248400000008500CRESCENT1 CUS0053500          00600000000000                R CUPIDO                                                                             
013L5020210226004872051001000000008147360500000015000CRESCENT1 CUS0044656          01200000000000                G MANUEL                                                                             
013L5020210226001587470010000000130524592800000016000CRESCENT1 CUS0055712          00200000000000                A SEPTEMBER                                                                          
013L5020210226003457470010000000169689805400000008500CRESCENT1 CUS0031522          00200000000000                L MAKHANYA                                                                           
013L5020210226005663470010000000172545856800000008500CRESCENT1 CUS0059302          00200000000000                I ISMAIL                                                                             
013L5020210226006292470010000000124511794500000008500CRESCENT1 CUS0030157          01200000000000                L MUTABARUKA                                                                         
013L5020210226003517051001000000000913294500000007500CRESCENT1 CUS0027502          01200000000000                S HASSAN                                                                             
013L5020210226004187470010000000148703170800000008500CRESCENT1 CUS0057233          00400000000000                A MATTHYS                                                                            
013L5020210226001687470010000000138694103200000008500CRESCENT1 CUS0055765          00200000000000                T HAMIED                                                                             
013L5020210226005075470010000000151506431800000016000CRESCENT1 CUS0052500          00200000000000                N HOOSEN                                                                             
013L5020210226003900470010000000160931017700000008500CRESCENT1 CUS0052040          03400000000000                S MOHAMED                                                                            
013L5020210226000612470010000000127761337900000016000CRESCENT1 CUS0053073          03000000000000                A PIETERSEN                                                                          
013L5020210226001925470010000000129012123900000016000CRESCENT1 CUS0051546          01200000000000                S BESTER                                                                             
013L5020210226004110470010000000135302334400000008500CRESCENT1 CUS0047888          00200000000000                K SOLOMONS                                                                           
013L5020210226004727470010000000133959234500000016000CRESCENT1 CUS0056979          03200000000000                F ARENDS                                                                             
013L5020210226006362470010000000133460882000000008500CRESCENT1 CUS0058018          00200000000000                R AMOD                                                                               
013L5020210226002850470010000000127706199600000008500CRESCENT1 CUS0051814          00200000000000                Y CASSIM                                                                             
013L5020210226005113470010000000126155256100000008500CRESCENT1 CUS0059212          00200000000000                R PLATO                                                                              
013L5020210226002290470010000000111681523900000016000CRESCENT1 CUS0020362          03000000000000                M THEBUS                                                                             
013L5020210226000924470010000000119315619800000016000CRESCENT1 CUS0049621          03000000000000                N LENNOX                                                                             
013L5020210226001727470010000000119368327900000008500CRESCENT1 CUS0056039          00200000000000                A HENDRICKS                                                                          
013L5020210226003712470010000000159026075700000008500CRESCENT1 CUS0056955          00200000000000                Z KARRIEM                                                                            
013L5020210226001409470010000000158437703600000016000CRESCENT1 CUS0040617          00200000000000                M PARTON                                                                             
013L5020210226000749470010000000151244854900000016000CRESCENT1 CUS0058159          00200000000000                D JULIUS                                                                             
013L5020210226005688470010000000150696387900000008500CRESCENT1 CUS0059310          00200000000000                N THWALA                                                                             
013L5020210226004351470010000000141308822600000008500CRESCENT1 CUS0054802          00200000000000                N JACOBS                                                                             
013L5020210226005902470010000000143345500300000008500CRESCENT1 CUS0057203          03400000000000                Y ABRAHAMS                                                                           
013L5020210226004678470010000000144397510700000008500CRESCENT1 CUS0058641          00200000000000                R LE ROUX                                                                            
013L5020210226001238470010000000138466559300000008500CRESCENT1 CUS0058300          00200000000000                M SALIE                                                                              
013L5020210226001249470010000000139955294300000008500CRESCENT1 CUS0048816          00200000000000                Y ABRAHAMS                                                                           
013L5020210226001363470010000000140159907700000008500CRESCENT1 CUS0058319          00400000000000                M ISAACS                                                                             
013L5020210226005411470010000000140897513900000008500CRESCENT1 CUS0053591          00200000000000                N ABRAHAMS                                                                           
013L5020210226005053470010000000153706643700000008500CRESCENT1 CUS0058786          00400000000000                N SOLOMON                                                                            
013L5020210226000765470010000000161858920000000008500CRESCENT1 CUS0059370          00200000000000                I SALASA                                                                             
013L5020210226005744051001000000008147970000000008500CRESCENT1 CUS0035621          00600000000000                S OMAR                                                                               
013L5020210226001467250655000007425296283900000008500CRESCENT1 CUS0026304          02600000000000                S KAMAL XAVIER                                                                       
013L5020210226006396250655000007438698667200000008500CRESCENT1 CUS0042113          02600000000000                A BUKUPU                                                                             
013L5020210226001643460005000000002418475800000008500CRESCENT1 CUS0030954          00600000000000                A MASINGA                                                                            
013L5020210226001211470010000000130320430200000008500CRESCENT1 CUS0055561          00200000000000                R RATTIM                                                                             
013L5020210226005387470010000000136114514300000008500CRESCENT1 CUS0057670          00600000000000                S ADAMS                                                                              
013L5020210226003063470010000000170027716000000008500CRESCENT1 CUS0058754          00400000000000                D PILLAY                                                                             
013L5020210226000061632005000000408649024300000008500CRESCENT1 CUS0050946          03092801000061                M HASSIM                                                                             
013L5020210226005801470010000000133316858400000007500CRESCENT1 CUS0055358          00200000000000                S AMOD                                                                               
013L5020210226002751470010000000121891467800000008500CRESCENT1 CUS0053878          00200000000000                J BENJAMIN                                                                           
013L5020210226001021462005000000008240600400000008500CRESCENT1 CUS0059386          00200000000000                C SWANEPOEL                                                                          
013L5020210226001124470010000000114683674900000016000CRESCENT1 CUS0057630          00200000000000                M VERMEULEN                                                                          
013L5020210226000688470010000000158111041100000008500CRESCENT1 CUS0055783          00200000000000                A ADAMS                                                                              
013L5020210226000849470010000000146097904200000008500CRESCENT1 CUS0058227          00200000000000                M ROBERTS                                                                            
013L5020210226000613470010000000141135471900000008500CRESCENT1 CUS0055772          00200000000000                F EBRAHIM                                                                            
013L5020210226000686470010000000141928195800000007500CRESCENT1 CUS0051181          00200000000000                M MALICK                                                                             
013L5020210226003910470010000000141805967400000023500CRESCENT1 CUS0047753          00400000000000                N DAVIDS                                                                             
013L5020210226004260470010000000145622843700000008500CRESCENT1 CUS0047989          00400000000000                R VAN NIEKERK                                                                        
013L5020210226003488470010000000139928533300000016000CRESCENT1 CUS0058875          00200000000000                F SHAIK                                                                              
013L5020210226003501470010000000137705605600000008500CRESCENT1 CUS0054444          03400000000000                M KHAN-GORDON                                                                        
013L5020210226003678470010000000114579164400000008500CRESCENT1 CUS0058267          00200000000000                A ABRAHAMS                                                                           
013L5020210226005538470010000000121684884800000008500CRESCENT1 CUS0059269          00200000000000                M JACOBS                                                                             
013L5020210226001773250655000006444777999100000008500CRESCENT1 CUS0046047          02600000000000                M KHAN                                                                               
013L5020210226005359051001000000007304133500000008500CRESCENT1 CUS0043812          00200000000000                I HENDRICKS                                                                          
013L5020210226004914632005000000406229973000000008500CRESCENT1 CUS0019438          00292803004914                N ALLIE                                                                              
013L5020210226004988470010000000165092031600000008500CRESCENT1 CUS0059203          00200000000000                N HAMDULAY                                                                           
013L5020210226000989470010000000119334113000000008500CRESCENT1 CUS0045637          00200000000000                A CALVERT                                                                            
013L5020210226003827470010000000143576330900000008500CRESCENT1 CUS0056738          03600000000000                S SAKIELDIEN                                                                         
013L5020210226001537470010000000144787602200000008500CRESCENT1 CUS0055703          00200000000000                A BEUKUS                                                                             
013L5020210226005048470010000000143171440000000016000CRESCENT1 CUS0047654          00200000000000                M DUNBAR                                                                             
013L5020210226005828470010000000137958009700000006900CRESCENT1 CUS0059052          00200000000000                C ZIMBA                                                                              
013L5020210226002827470010000000153696381800000008500CRESCENT1 CUS0056498          00200000000000                B HENDRICKS                                                                          
013L5020210226003378470010000000150269657400000006900CRESCENT1 CUS0058217          00200000000000                M KAMALDIEN                                                                          
013L5020210226005378470010000000121300443600000008500CRESCENT1 CUS0058907          00200000000000                N PARELSE                                                                            
013L5020210226001903470010000000117202858100000008500CRESCENT1 CUS0057801          01200000000000                L SALIE                                                                              
013L5020210226004176051001000000007779811200000007500CRESCENT1 CUS0054665          00200000000000                A ISAACS                                                                             
013L5020210226003237470010000000129902147400000007500CRESCENT1 CUS0056814          00200000000000                I DE KLERK                                                                           
013L5020210226000899470010000000125999853100000016000CRESCENT1 CUS0055252          00200000000000                A CAMROODIEN                                                                         
013L5020210226003313470010000000168073891500000008500CRESCENT1 CUS0058824          00200000000000                A BASARDIEN                                                                          
013L5020210226001538470010000000166993131300000008500CRESCENT1 CUS0058338          00200000000000                E ANDREWS                                                                            
013L5020210226006377470010000000129348677700000016000CRESCENT1 CUS0057301          00200000000000                B STEER                                                                              
013L5020210226006205470010000000135103989800000008500CRESCENT1 CUS0018643          00200000000000                M KADER                                                                              
013L5020210226003922051001000000007480039600000008500CRESCENT1 CUS0044121          00200000000000                I CASSIEM                                                                            
013L5020210226005878470010000000136492871800000008500CRESCENT1 CUS0059065          00200000000000                A LEONARD                                                                            
013L5020210226004077470010000000136766212300000008500CRESCENT1 CUS0056782          00200000000000                M LEGRANGE                                                                           
013L5020210226005361470010000000112171591300000015000CRESCENT1 CUS0053585          00200000000000                G BELL                                                                               
013L5020210226002803470010000000122589260900000006900CRESCENT1 CUS0058104          00200000000000                I MIA                                                                                
013L5020210226005362470010000000153203573800000008500CRESCENT1 CUS0057643          03000000000000                J ABDURAGHMAN                                                                        
013L5020210226004478470010000000160875484500000008500CRESCENT1 CUS0058557          00600000000000                S SAIB                                                                               
013L5020210226004574470010000000137770520800000016000CRESCENT1 CUS0050177          00600000000000                I MEYER                                                                              
013L5020210226001588470010000000162698158000000008500CRESCENT1 CUS0058342          00200000000000                J DELPORT                                                                            
013L5020210226003220470010000000163076237500000008500CRESCENT1 CUS0037214          03000000000000                N ADAMS                                                                              
013L5020210226006178470010000000141429656600000016000CRESCENT1 CUS0059189          03200000000000                I BADARON                                                                            
013L5020210226003036470010000000146210106000000008500CRESCENT1 CUS0051417          00200000000000                J JACOBS                                                                             
013L5020210226003902470010000000146279122900000008500CRESCENT1 CUS0056752          00200000000000                S SELDON                                                                             
013L5020210226004688470010000000138131509500000008500CRESCENT1 CUS0059175          00600000000000                A TAQODIEN                                                                           
013L5020210226004001470010000000138326604000000008500CRESCENT1 CUS0054633          00200000000000                R MEYER                                                                              
013L5020210226005437470010000000158833593100000008500CRESCENT1 CUS0057695          00200000000000                S ABRAHAMS                                                                           
013L5020210226005187470010000000152409062800000008500CRESCENT1 CUS0057504          03000000000000                N BASSIER                                                                            
013L5020210226005131470010000000122636958600000008500CRESCENT1 CUS0026216          00200000000000                M RAMALHO                                                                            
013L5020210226004801470010000000121874744500000008500CRESCENT1 CUS0054956          00400000000000                H LEWIS                                                                              
013L5020210226002645051001000000007799853700000008500CRESCENT1 CUS0037006          00200000000000                F KHAN                                                                               
013L5020210226004868051001000000008068738500000008500CRESCENT1 CUS0032037          00600000000000                R MOODALEY                                                                           
013L5020210226000723470010000000133943056600000008500CRESCENT1 CUS0054978          00200000000000                M SAVAHL                                                                             
013L5020210226004637470010000000128873333800000016000CRESCENT1 CUS0057354          00200000000000                G SEPTEMBER                                                                          
013L5020210226001779470010000000169413274700000008500CRESCENT1 CUS0059476          00200000000000                T KHAN                                                                               
013L5020210226000015470010000000169435580000000008500CRESCENT1 CUS0059232          00200000000000                A ALEXANDER                                                                          
013L5020210226003513470010000000170152915500000008500CRESCENT1 CUS0058878          00200000000000                F BRENNER                                                                            
013L5020210226005986470010000000128569178200000008500CRESCENT1 CUS0054220          00200000000000                M GAFIELDIEN                                                                         
013L5020210226000790470010000000126766867700000008500CRESCENT1 CUS0059373          00200000000000                T UYS                                                                                
013L5020210226000062470010000000123481251500000008500CRESCENT1 CUS0052906          00200000000000                G ABRAHAMS                                                                           
013L5020210226004427470010000000133486747800000008500CRESCENT1 CUS0056913          00200000000000                L JOHNSON                                                                            
013L5020210226002492051001000000008348559700000008500CRESCENT1 CUS0026793          02600000000000                R KAJEE                                                                              
013L5020210226005238470010000000116236995500000008500CRESCENT1 CUS0059233          00200000000000                M SOLOMONS                                                                           
013L5020210226001765470010000000152076018100000007500CRESCENT1 CUS0020196          00200000000000                M OMAR                                                                               
013L5020210226005543470010000000150897122400000008500CRESCENT1 CUS0032343          00400000000000                W KRIEL                                                                              
013L5020210226006078470010000000147341585100000006900CRESCENT1 CUS0059173          00200000000000                F KAMALDIEN                                                                          
013L5020210226003528470010000000158559433200000017000CRESCENT1 CUS0058259          00200000000000                E MARTIN                                                                             
013L5020210226000314470010000000138515809100000016000CRESCENT1 CUS0057403          00400000000000                N ABRAHAMS                                                                           
013L5020210226001287470010000000142658134100000008500CRESCENT1 CUS0055608          00200000000000                A CRIGHCON                                                                           
013L5020210226004551470010000000143162697800000016000CRESCENT1 CUS0054854          00600000000000                A SAMIE                                                                              
013L5020210226006201470010000000154310630500000008500CRESCENT1 CUS0055545          03000000000000                K SMITH                                                                              
013L5020210226005227470010000000116866380400000008500CRESCENT1 CUS0057070          00200000000000                R FELIX                                                                              
013L5020210226005277470010000000130921888700000008500CRESCENT1 CUS0057085          00200000000000                A MATHEWS                                                                            
013L5020210226004311051001000001003690558300000008500CRESCENT1 CUS0052837          00200000000000                S DANIELS                                                                            
013L5020210226001997051001000001004991471300000016000CRESCENT1 CUS0043217          00200000000000                S PEERBHAI                                                                           
013L5020210226002484051001000001004815380800000008500CRESCENT1 CUS0041279          00200000000000                I LATIEF                                                                             
013L5020210226006285051001000001004698420600000008500CRESCENT1 CUS0048982          01200000000000                I HOFFAH                                                                             
013L5020210226000337051001000001003460578700000008500CRESCENT1 CUS0052966          00200000000000                N OSMAN                                                                              
013L5020210226002437051001000001003962260400000008500CRESCENT1 CUS0056510          00200000000000                N MAHABEER                                                                           
013L5020210226000228051001000000020481150300000016000CRESCENT1 CUS0025312          00400000000000                A HENDRICKS                                                                          
013L5020210226005019051001000000000243297800000008500CRESCENT1 CUS0035392          00200000000000                Z VAN GREUNING                                                                       
013L5020210226002615051001000000027215207200000008500CRESCENT1 CUS0020451          00300000000000                M SALIE                                                                              
013L5020210226005855051001000000003586970400000006900CRESCENT1 CUS0018273          00200000000000                H CHOONARA                                                                           
013L5020210226005511051001000000062509961300000008500CRESCENT1 CUS0053653          00200000000000                N BALOYI                                                                             
013L5020210226002736051001000000006301327400000008500CRESCENT1 CUS0050906          00200000000000                I JANUARY                                                                            
013L5020210226004570051001000000006073432900000008500CRESCENT1 CUS0037874          00200000000000                M TOEFY                                                                              
013L5020210226003261051001000000042099234000000008500CRESCENT1 CUS0051603          00400000000000                O VUCKUS                                                                             
013L5020210226000523051001000001008959525200000008500CRESCENT1 CUS0054810          00200000000000                H SIRKHOTH                                                                           
013L5020210226001589051001000000025263212500000008500CRESCENT1 CUS0018553          00200000000000                S ESOP                                                                               
013L5020210226002353051001000000027696766600000008500CRESCENT1 CUS0057955          00200000000000                N GABIER                                                                             
013L5020210226005652051001000000030277184000000016000CRESCENT1 CUS0057146          00200000000000                S JOOMA                                                                              
013L5020210226003779051001000000020379001400000031000CRESCENT1 CUS0002844          00200000000000                J UNWARSA                                                                            
013L5020210226000467051001000000002121712200000016000CRESCENT1 CUS0020213          00200000000000                R MALLY                                                                              
013L5020210226005773051001000000025062464800000007500CRESCENT1 CUS0048129          01200000000000                S KHAN                                                                               
013L5020210226004027051001000000040204263800000008500CRESCENT1 CUS0056772          00200000000000                S ABRAHAMS                                                                           
013L5020210226005560051001000000007001013700000016000CRESCENT1 CUS0048629          00600000000000                M COZYN                                                                              
013L5020210226003502051001000001009299753600000008500CRESCENT1 CUS0056685          00600000000000                M JOSEPH                                                                             
013L5020210226003802051001000000007129731600000008500CRESCENT1 CUS0056735          00200000000000                M ETALA                                                                              
013L5020210226002198051001000000007119710900000008500CRESCENT1 CUS0046424          00200000000000                S EDWARDS                                                                            
013L5020210226005460051001000001007577797300000008500CRESCENT1 CUS0048575          00400000000000                R DANIELS                                                                            
013L5020210226000451051001000000007119207700000008500CRESCENT1 CUS0019834          00400000000000                F BOWAS                                                                              
013L5020210226001296051001000000025319012600000016000CRESCENT1 CUS0039494          00200000000000                H RAZACK                                                                             
013L5020210226002376051001000000028122472200000008500CRESCENT1 CUS0053666          00600000000000                F MANAN                                                                              
013L5020210226000568051001000000003000897200000031000CRESCENT1 CUS0027778          00200000000000                H NKOSI                                                                              
013L5020210226004675051001000000020765051900000008500CRESCENT1 CUS0052289          00200000000000                M KADER                                                                              
013L5020210226004544051001000000020087686400000016000CRESCENT1 CUS0035202          00400000000000                G SALASA                                                                             
013L5020210226000167051001000000020418233600000008500CRESCENT1 CUS0019675          00400000000000                N OSMAN                                                                              
013L5020210226003959051001000001012917853300000008500CRESCENT1 CUS0042631          00200000000000                A SONDAY                                                                             
013L5020210226004701051001000001008565753900000008500CRESCENT1 CUS0054927          00200000000000                Z RAJIE                                                                              
013L5020210226001844051001000000062823643300000008500CRESCENT1 CUS0033697          00200000000000                T ABRAHAMS                                                                           
013L5020210226003391051001000000005121964600000008500CRESCENT1 CUS0023691          01200000000000                Z RANDEREE                                                                           
013L5020210226003861051001000001010318161800000008500CRESCENT1 CUS0052510          00200000000000                W SIMONS                                                                             
013L5020210226001121051001000000001145236600000016000CRESCENT1 CUS0051274          00400000000000                D CASSIM                                                                             
013L5020210226005265051001000000000304228600000008500CRESCENT1 CUS0021327          00200000000000                A KHAN                                                                               
013L5020210226006280051001000000033059508300000016000CRESCENT1 CUS0018878          01200000000000                S VANIA                                                                              
013L5020210226004350051001000000028004748700000008500CRESCENT1 CUS0052209          00400000000000                S BALENI                                                                             
013L5020210226002756051001000000000250966000000016000CRESCENT1 CUS0024071          00600000000000                N SALIE                                                                              
013L5020210226003496051001000000020054746100000008500CRESCENT1 CUS0040909          00600000000000                N KARIM                                                                              
013L5020210226000652051001000000020772486500000007500CRESCENT1 CUS0022255          00400000000000                S ISMAIL                                                                             
013L5020210226002974051001000001007670952100000008500CRESCENT1 CUS0049485          00200000000000                W SALIE                                                                              
013L5020210226000639051001000001008679916700000008500CRESCENT1 CUS0057524          00200000000000                M FELIX                                                                              
013L5020210226000897051001000000022023298900000008500CRESCENT1 CUS0045256          00400000000000                S DUNN                                                                               
013L5020210226001855051001000000020772486500000008500CRESCENT1 CUS0011101          00400000000000                T ISMAIL                                                                             
013L5020210226005336051001000001010741466800000008500CRESCENT1 CUS0053565          01200000000000                M DAVIS                                                                              
013L5020210226004156051001000000025182447000000016000CRESCENT1 CUS0025220          01200000000000                A HASSAN                                                                             
013L5020210226003782051001000000024201843200000007500CRESCENT1 CUS0031777          00400000000000                N MOTALA                                                                             
013L5020210226002501051001000000027776124700000006900CRESCENT1 CUS0053733          00200000000000                A MOSES                                                                              
013L5020210226005767051001000000003096746500000008500CRESCENT1 CUS0029993          00300000000000                Y CASSIM                                                                             
013L5020210226003609051001000000007187052000000016000CRESCENT1 CUS0042209          00200000000000                T AJOUHAAR                                                                           
013L5020210226001530051001000000006002895500000008500CRESCENT1 CUS0010354          00200000000000                B ABDOOL                                                                             
013L5020210226002107051001000000042087832700000008500CRESCENT1 CUS0030369          00200000000000                B OMARJEE                                                                            
013L5020210226000604051001000000023364370200000008500CRESCENT1 CUS0030470          00200000000000                N NBEWE                                                                              
013L5020210226001307051001000000002324403800000008500CRESCENT1 CUS0028861          00200000000000                N EBRAHIM                                                                            
013L5020210226000005051001000000022041160300000031000CRESCENT1 CUS0032650          00200000000000                A PARKER                                                                             
013L5020210226002084051001000000027215207200000007500CRESCENT1 CUS0041007          00300000000000                T SALIE                                                                              
013L5020210226005450051001000000005433947200000008500CRESCENT1 CUS0052555          00400000000000                F SOOKDER                                                                            
013L5020210226005686051001000001008244735500000008500CRESCENT1 CUS0053791          00200000000000                M PARKER                                                                             
013L5020210226004864051001000000005179076900000016000CRESCENT1 CUS0019428          00400000000000                F SHEIK                                                                              
013L5020210226001310051001000000041083215400000008500CRESCENT1 CUS0045603          00400000000000                H MBALATI                                                                            
013L5020210226003010051001000000003655424300000008500CRESCENT1 CUS0046997          00200000000000                M JEENA                                                                              
013L5020210226001457051001000000000348075500000038500CRESCENT1 CUS0029097          00400000000000                A ALLIE                                                                              
013L5020210226005827051001000000031091707700000008500CRESCENT1 CUS0057194          00200000000000                Y GEORGE                                                                             
013L5020210226001313051001000001011304890200000008500CRESCENT1 CUS0058315          00200000000000                A BLAAUW                                                                             
013L5020210226005479051001000000020775475600000016000CRESCENT1 CUS0005438          00400000000000                M SAIYAD                                                                             
013L5020210226001153051001000000006018977000000008500CRESCENT1 CUS0021112          00200000000000                N ASMAL                                                                              
013L5020210226000713051001000001005153088900000008500CRESCENT1 CUS0055786          00200000000000                S ROSSOUW                                                                            
013L5020210226003853051001000001008386095700000008500CRESCENT1 CUS0058321          00200000000000                S DOLLIE                                                                             
013L5020210226003577051001000001009792886900000008500CRESCENT1 CUS0056701          00600000000000                S DAVIDS                                                                             
013L5020210226004479051001000000062513055300000016000CRESCENT1 CUS0003976          00200000000000                R GANGAT                                                                             
013L5020210226001346051001000000007010524300000008500CRESCENT1 CUS0039540          00400000000000                Y ABDULLAH                                                                           
013L5020210226003276051001000000022120651500000008500CRESCENT1 CUS0054262          00400000000000                R EDWARDS                                                                            
013L5020210226004218051001000000020379784100000016000CRESCENT1 CUS0031935          00200000000000                M ALLI                                                                               
013L5020210226002038051001000001011722140400000008500CRESCENT1 CUS0058474          00200000000000                A PETERSEN                                                                           
013L5020210226000682051001000000003029993400000008500CRESCENT1 CUS0039227          00200000000000                K KHAN                                                                               
013L5020210226003621051001000000005299301900000008500CRESCENT1 CUS0040952          00300000000000                F SAHIN                                                                              
013L5020210226001861051001000000000487063800000008500CRESCENT1 CUS0050013          00200000000000                Z ABDOOL                                                                             
013L5020210226005795051001000000006238356600000008500CRESCENT1 CUS0038519          00200000000000                M GAFOOR                                                                             
013L5020210226001328051001000001007193874300000008500CRESCENT1 CUS0057722          00400000000000                S RAKIEP                                                                             
013L5020210226000037051001000000027399334800000008500CRESCENT1 CUS0052902          00200000000000                Z RAINERS                                                                            
013L5020210226004703051001000000027176610700000008500CRESCENT1 CUS0058642          00200000000000                R ABRAHAMS                                                                           
013L5020210226003411051001000000001310223000000008500CRESCENT1 CUS0051891          00400000000000                H MUHAMMAD                                                                           
013L5020210226000775051001000001013656569500000008500CRESCENT1 CUS0059486          00200000000000                Z KHAN                                                                               
013L5020210226001959051001000000000210828300000008500CRESCENT1 CUS0040908          00400000000000                N AMIN                                                                               
013L5020210226001912051001000001010516230000000007500CRESCENT1 CUS0056002          00200000000000                J JUMA                                                                               
013L5020210226002062051001000000027032580800000008500CRESCENT1 CUS0056165          00600000000000                A WAGGIE                                                                             
013L5020210226004325051001000000028317597400000008500CRESCENT1 CUS0052207          00200000000000                S KHALEK                                                                             
013L5020210226001741051001000000006100368900000008500CRESCENT1 CUS0022723          00200000000000                G RAHMAN                                                                             
013L5020210226003217051001000000007109328100000008500CRESCENT1 CUS0027249          01200000000000                F ELY                                                                                
013L5020210226002923051001000000007062017200000008500CRESCENT1 CUS0046756          00200000000000                M SAFI                                                                               
013L5020210226005190051001000000007017004500000008500CRESCENT1 CUS0021285          00400000000000                M DE ROOS                                                                            
013L5020210226006416051001000000000495612500000025000ABSOLIT   1614173407RLN001    00200000000000                LEVINIA NAGEL                                                                        
013L5020210226004302051001000001011536215900000008500CRESCENT1 CUS0056820          00400000000000                C JABAAR                                                                             
013L5020210226004454051001000000002084958300000016000CRESCENT1 CUS0003965          00600000000000                A SAYED                                                                              
013L5020210226006389051001000000002243808400000007500CRESCENT1 CUS0019751          01200000000000                Y BHAM                                                                               
013L5020210226004208051001000000035435887100000008500CRESCENT1 CUS0037236          00400000000000                F BUCCAS                                                                             
013L5020210226005776051001000000007250590700000008500CRESCENT1 CUS0055351          00400000000000                F BARDIEN                                                                            
013L5020210226003607051001000000003898828300000008500CRESCENT1 CUS0031663          00600000000000                N ALLY                                                                               
013L5020210226005551051001000000002117781300000008500CRESCENT1 CUS0055228          00200000000000                C EYBERS                                                                             
013L5020210226001279051001000001012629681000000008500CRESCENT1 CUS0059407          00200000000000                Z BULBULIA                                                                           
013L5020210226004677051001000000025072587800000008500CRESCENT1 CUS0056969          00200000000000                J SULEMAN                                                                            
013L5020210226005977051001000000007089780800000008500CRESCENT1 CUS0057208          00600000000000                A ABRAHAMS                                                                           
013L5020210226003302051001000001006446299200000008500CRESCENT1 CUS0056630          00400000000000                N SAIT                                                                               
013L5020210226004361051001000001008086841800000008500CRESCENT1 CUS0052878          00200000000000                S PILLAY                                                                             
013L5020210226004062051001000000027212345500000008500CRESCENT1 CUS0057190          00200000000000                L ABDULLAH                                                                           
013L5020210226001437051001000000028207184900000008500CRESCENT1 CUS0055675          00400000000000                R VEERASAMY                                                                          
013L5020210226001850051001000000027710253700000008500CRESCENT1 CUS0051524          00400000000000                M JABAAR                                                                             
013L5020210226005864051001000000003106984300000016000CRESCENT1 CUS0019638          00600000000000                H MOOLA                                                                              
013L5020210226000116051001000000003228499300000008500CRESCENT1 CUS0007149          00200000000000                Z FAREED                                                                             
013L5020210226002675051001000001010126374900000008500CRESCENT1 CUS0051756          00200000000000                F HENDRICKS                                                                          
013L5020210226000867051001000000007036156800000008500CRESCENT1 CUS0020626          00400000000000                E GANIEF                                                                             
013L5020210226004277051001000000027394934900000008500CRESCENT1 CUS0056818          00200000000000                E ABRAHAMS                                                                           
013L5020210226003322051001000000002288184000000008500CRESCENT1 CUS0043781          00200000000000                R GOVENDER                                                                           
013L5020210226003306051001000000020593737300000008500CRESCENT1 CUS0024664          00200000000000                N BOWERS                                                                             
014L0000003950000000000000011707694049820000000396710000000000000000                                                                                                                                  
019L0000004030000000000000011848654277770000000406190000000000000000                                                                                                                                  
010LD237000014208                                                                                                                                                                                     
011LD23763200500000040945448920120210127                                                                                                                                                              
013L5020210127002477470010000000137705605600000008500CRESCENT1 CUS0054444          03400000000000                M KHAN-GORDON                                                                        
013L5020210127004059470010000000143345500300000008500CRESCENT1 CUS0057203          03000000000000                Y ABRAHAMS                                                                           
014L0000000020000000000000000028105110590000000001700000000000000000                                                                                                                                  
019L0000000020000000000000000028105110590000000001700000000000000000                                                                                                                                  
999L000000421                                                                                                                                                                                         
