000L2021060100000PAYPORT CONSULTING PTY LTD EFT000079207303                                                                                                                                           
010LD237000022901                                                                                                                                                                                     
011LD23763200500000040945448920120210426                                                                                                                                                              
013L5020210424000460051001000000008244033600000008500CRESCENT1 CUS0054578          03400000000000                M DU TOIT                                                                            
013L5020210424000531470010000000157283249300000008500CRESCENT1 CUS0056833          03000000000000                D MARTIN                                                                             
014L0000000020000000000000000016552728290000000001700000000000000000                                                                                                                                  
011LD23763200500000040945448920120210430                                                                                                                                                              
013L5020210429001365470010000000153683675100000007500CRESCENT1 CUS0055966          03000000000000                A CHRISTIANS                                                                         
014L0000000010000000000000000015368367510000000000750000000000000000                                                                                                                                  
011LD23763200500000040945448920120210514                                                                                                                                                              
013L5020210513000601470010000000112323397500000023500CRESCENT1 CUS0016631          03200000000000                H SHEIK                                                                              
014L0000000010000000000000000011232339750000000002350000000000000000                                                                                                                                  
011LD23763200500000040945448920120210525                                                                                                                                                              
013L5020210524000615252805000006221629995000000016000CRESCENT1 CUS0017885          03400000000000                A SAHABADIEN                                                                         
014L0000000010000000000000000622162999500000000001600000000000000000                                                                                                                                  
011LD23763200500000040945448920120210527                                                                                                                                                              
013L5020210526001087198765000000200628289100000008500CRESCENT1 CUS0047265          00200000000000                F AHMED                                                                              
013L5020210526001380200912000006237741679000000008500CRESCENT1 CUS0044226          03400000000000                N ELAND                                                                              
013L5020210526001216198765000000115344922600000008500CRESCENT1 CUS0055463          00200000000000                S JARDINE                                                                            
013L5020210526000626198765000000107355408200000008500CRESCENT1 CUS0049791          00200000000000                Y MAMOOJEE                                                                           
013L5020210526002662250068000006208030766600000008500CRESCENT1 CUS0032437          03000000000000                O JOOSAB                                                                             
013L5020210526001784198765000000164433548400000008500CRESCENT1 CUS0037865          00200000000000                M VICTOR FELAAR                                                                      
013L5020210526000908198765000000114209797800000008500CRESCENT1 CUS0055157          00200000000000                E ZEBRA                                                                              
013L5020210526001074198765000000104330080500000008500CRESCENT1 CUS0050261          00200000000000                A SIMONS                                                                             
013L5020210526002269470010000000134577357700000006900CRESCENT1 CUS0059897          03200000000000                R ESSOP                                                                              
013L5020210526003101470010000000135839924500000008500CRESCENT1 CUS0048946          03000000000000                R WALLACE                                                                            
013L5020210526003608470010000000157283249300000008500CRESCENT1 CUS0056833          03000000000000                D MARTIN                                                                             
013L5020210526000363198765000000115225229100000008500CRESCENT1 CUS0057061          00200000000000                R MACK                                                                               
013L5020210526002128470010000000121558979200000008500CRESCENT1 CUS0044834          03000000000000                V HARRY                                                                              
013L5020210526000082051001000000008244033600000008500CRESCENT1 CUS0054578          03400000000000                M DU TOIT                                                                            
014L0000000140000000000000001392480326560000000011740000000000000000                                                                                                                                  
011LD23763200500000040945448920120210531                                                                                                                                                              
013L5020210529001960632005000000406737835300000008500CRESCENT1 CUS0047067          00300000001960                S JADWAT                                                                             
013L5020210529001418632005000000908816156800000008500CRESCENT1 CUS0055737          00200016001418                T TOFIE                                                                              
013L5020210529002469632005000000408305943000000008500CRESCENT1 CUS0048042          90300000002469                R WILLIAMS                                                                           
013L5020210529002422632005000000929980862400000008500CRESCENT1 CUS0059027          00300040002422                H HEBERT                                                                             
013L5020210529000828632005000000936193146600000008500CRESCENT1 CUS0054697          00200016000828                E GAMIET                                                                             
013L5020210529000983632005000000405828551100000007500CRESCENT1 CUS0027039          01200000000983                Z BHAROOCHI                                                                          
013L5020210529001009632005000000920897821800000008500CRESCENT1 CUS0058116          00200016001009                Z EDRIES                                                                             
013L5020210529002571632005000000934716316000000008500CRESCENT1 CUS0057240          00200016002571                S HERBERT                                                                            
013L5020210529001118632005000000931333980400000008500CRESCENT1 CUS0055159          00300000001118                F BAATJIES                                                                           
013L5020210529002577632005000000912979530100000008500CRESCENT1 CUS0037369          00200016002577                A DAVIDS                                                                             
013L5020210529001012632005000000906500270100000008500CRESCENT1 CUS0019515          00200016001012                M ISAACS                                                                             
013L5020210529001815632005000000905194550300000008500CRESCENT1 CUS0035812          01800004001815                R KHAN                                                                               
013L5020210529000839632005000000926498713800000008500CRESCENT1 CUS0058039          00200016000839                F JACOBS                                                                             
013L5020210529002610632005000000930252399900000008500CRESCENT1 CUS0053144          00300000002610                A AFZAL                                                                              
013L5020210529000624632005000000405273960300000008500CRESCENT1 CUS0033490          90300000000624                Z CHRISTIAN                                                                          
013L5020210529001926632005000000928510454300000008500CRESCENT1 CUS0041677          00200016001926                S PETERSON                                                                           
013L5020210529001000632005000000911948102500000008500CRESCENT1 CUS0059449          00200016001000                G GANIEF                                                                             
013L5020210529000190632005000000409784700100000008500CRESCENT1 CUS0059202          00300000000190                A BUSCH                                                                              
013L5020210529002171632005000005301456356400000008500CRESCENT1 CUS0056847          00200016002171                R VANDERSART                                                                         
013L5020210529002311632005000000924539399400000008500CRESCENT1 CUS0042569          00200016002311                I SALEH                                                                              
013L5020210529001063632005000000920601414300000016000CRESCENT1 CUS0027300          00300000001063                R THEYS                                                                              
013L5020210529000083632005000000929767930800000008500CRESCENT1 CUS0025266          00200016000083                B GOONDIE                                                                            
013L5020210529000603632005000000407817669900000016000CRESCENT1 CUS0026481          90300000000603                N VADI                                                                               
013L5020210529001460632005000000928213823400000008500CRESCENT1 CUS0059641          00200016001460                R JACOBS                                                                             
013L5020210529001160632005000000920031503400000006900CRESCENT1 CUS0059534          00300040001160                I SONDAY                                                                             
013L5020210529001240632005000000933203208900000008500CRESCENT1 CUS0059561          00200016001240                R DAVIS                                                                              
013L5020210529000568632005000000408034279700000008500CRESCENT1 CUS0054224          00300000000568                O SOLOMONS                                                                           
013L5020210529001301632005000000407352949100000008500CRESCENT1 CUS0009056          01200000001301                S KHAN                                                                               
013L5020210529000268632005000000911926373400000008500CRESCENT1 CUS0053558          00200016000268                T DE VILLIERS                                                                        
013L5020210529002204632005000000917778045300000006900CRESCENT1 CUS0056865          00200016002204                A SALIE                                                                              
013L5020210529000699632005000000409902677000000008500CRESCENT1 CUS0057911          01200000000699                A RYLANDS                                                                            
013L5020210529000028632005000000408788313200000008500CRESCENT1 CUS0053188          01200000000028                A MOOSA                                                                              
014L0000000320000000000000002874916723900000000028280000000000000000                                                                                                                                  
011LD23763200500000040945448920120210601                                                                                                                                                              
013L5020210531000199470010000001001091496600000066000ARM       1622295026R22       02682502000199                MATTHEW BLUMBERG                                                                     
013L5020210531000252632005000006282517483200000028750BAHSO     1622295031RBASELINE 02682502000252                BASELINE CIVIL CONTRACTORS                                                           
013L5020210531000051250655000000628547756500000025000ABSOLIT   1622122218RFD059    02682502000051                LI MATIJANE                                                                          
013L5020210531000043051001000000100011633500000040825SERAPHIM  1622295026R660818   02682502000043                MARTINO FAMILY TRUST                                                                 
014L0000000040000000000000000801216836980000000016057500000000000000                                                                                                                                  
019L0000000550000000000000005733930322490000000062477500000000000000                                                                                                                                  
999L000000073                                                                                                                                                                                         
