000L2021050200000PAYPORT CONSULTING PTY LTD    000074507303                                                                                                                                           
900L000 TRANSMISSION 07303-0000098 ACCEPTED                                                                                                                                                           
900L001 ACB USER SET D237-0000104-000167 ACCEPTED                                                                                                                                                     
903L001L5063200504094544892D23700000163200504063093668100000028635210504410   PAYPORT   1619616620RARCTICA  ANDREW VESTER                 00000000000000000000                21                      
903L001L5063200504094544892D23700000225065562858113170100000028635210504410   PAYPORT   1619616620ROPECTOR  OPECTOR LTD                   00000000000000000000                21                      
903L001L5063200504094544892D23700000305100100301749752100000028635210504410   PAYPORT   1619616623RWINTERNETWINTERNET                     00000000000000000000                21                      
903L001L5063200504094544892D23700000425065562809225156100000028635210504410   PAYPORT   1619616623RSERAPHIM0SERAPHIM SECURITY INTERNATIONA00000000000000000000                21                      
903L001L5063200504094544892D23700000525065562184298597100000028635210504410   PAYPORT   1619616626RJAMFOX06 JAMFOX                        00000000000000000000                21                      
903L001L5063200504094544892D23700000625065562876496582100000028635210504410   PAYPORT   1619616629RNEWYOU07 NEWYOU                        00000000000000000000                21                      
903L001L5063200504094544892D23700000725065562847287366100000028635210504410   PAYPORT   1619616632RPMDOPS08 PMD OPERATIONS                00000000000000000000                21                      
903L001L5063200504094544892D23700000805100110131182437100000028635210504410   PAYPORT   1619616636RMANIA01  MANIA NET WIRELESS            00000000000000000000                21                      
903L001L5063200504094544892D23700000963200504075754488100000028635210504410   PAYPORT   1619616642RARMOUR10 ARMOURY BOXING CLUB           00000000000000000000                21                      
903L001L5063200504094544892D23700001019876501194597971100000024900210504410   PAYPORT   1619616643OTSSM     TRIDON SPORTSMANAGEMENT AND MA00000000000000000000                21                      
903L001L5263200504094544892D23700001163200504094544892100000282615210504100000PAYPORT   CONTRALKPUS19FJARUQX                                                                                          
903L001L5063200504094544892D23700001219876501684011264100000017500210504350   ARCTICA   1619616617RARCTICA00KARIN BROWN                   00000000000000000000                21                      
903L001L5063200504094544892D23700001305100100200480502100000028900210504350   ARCTICA   1619616617RARCTICA00SIP PROJECT MANAGERS          00000000000000000000                21                      
903L001L5063200504094544892D23700001463200504097620326100000007500210504350   ARCTICA   1619616617RARCTICA00UNI CARGO CC                  00000000000000000000                21                      
903L001L5063200504094544892D23700001505100100332017052100000018900210504350   ARCTICA   1619616617RARCTICA00PADDOCK WOODS                 00000000000000000000                21                      
903L001L5063200504094544892D23700001605100100202481131100000022500210504350   ARCTICA   1619616617RARCTICA00CHRIST CHURCH MIDRAND         00000000000000000000                21                      
903L001L5063200504094544892D23700001719876501506004946100000007500210504350   ARCTICA   1619616617RARCTICA00BELEAF LANDSCAPE DESIGN       00000000000000000000                21                      
903L001L5063200504094544892D23700001805100100082877831100000019500210504350   ARCTICA   1619616617RARCTICA00EAGLE UNIQUE                  00000000000000000000                21                      
903L001L5063200504094544892D23700001925065558861131556100000093900210504350   ARCTICA   1619616617RARCTICA01CLOROX AFRICA                 00000000000000000000                21                      
903L001L5063200504094544892D23700002019876501469057808100000018900210504350   ARCTICA   1619616617RARCTICA01WAVELENGHTS 11 PTY LTD        00000000000000000000                21                      
903L001L5263200504094544892D23700002163200504094544892100000235100210504100000ARCTICA   CONTRAQPT5NRZBSLBLWW                                                                                          
903L001L5063200504094544892D23700002247001001662935704100000014900210504350   OPECTORWEB1619616623RCROCKLADYWARDA KHAN                    00000000000000000000                21                      
903L001L5263200504094544892D23700002363200504094544892100000014900210504100000OPECTORWEBCONTRA8FV48KIRFVYX61                                                                                          
903L001L5063200504094544892D23700002419876501186411899100000044275210504350   SERAPHIM  1619616626R3013     AJ SMIT                       00000000000000000000                21                      
903L001L5063200504094544892D23700002525065562093250886100000044275210504350   SERAPHIM  1619616626R720814   NEEL SAAYMAN                  00000000000000000000                21                      
903L001L5063200504094544892D23700002663200504050895063100000044275210504350   SERAPHIM  1619616626R671109   DEBORAH FOUCHE                00000000000000000000                21                      
903L001L5063200504094544892D23700002763200500070801450100000044275210504350   SERAPHIM  1619616626R380611   F J STRYDOM                   00000000000000000000                21                      
903L001L5063200504094544892D23700002863200504086583868100000044275210504350   SERAPHIM  1619616626R680402   LOURINA WILSON                00000000000000000000                21                      
903L001L5063200504094544892D23700002963200504099103338100000044275210504350   SERAPHIM  1619616626R6804020  EL GM BASELY                  00000000000000000000                21                      
903L001L5063200504094544892D23700003047001001453815587100000044275210504350   SERAPHIM  1619616632R490319   ONRUS BUTCHERY                00000000000000000000                21                      
903L001L5063200504094544892D23700003147001001413214973200000044275210504350   SERAPHIM  1619616632R560420   HT POTGIETER                  00000000000000000000                21                      
903L001L5063200504094544892D23700003247001001317519440200000044275210504350   SERAPHIM  1619616636R460811   TAE FOUCHE                    00000000000000000000                21                      
903L001L5063200504094544892D23700003347001001317523588200000044275210504350   SERAPHIM  1619616636R670620   L MARAIS                      00000000000000000000                21                      
903L001L5063200504094544892D23700003405100100082245940100000044275210504350   SERAPHIM  1619616636R540426   KANIVEST 3009 CC              00000000000000000000                21                      
903L001L5063200504094544892D23700003563200504058933047100000044275210504350   SERAPHIM  1619616636R2003     CAPRIVI LUXURY SAFARI GEAR PTY00000000000000000000                21                      
903L001L5063200504094544892D23700003619876501060861801100000044275210504350   SERAPHIM  1619616636R720514   ELSKALOR                      00000000000000000000                21                      
903L001L5063200504094544892D23700003720041262893876642100000044275210504350   SERAPHIM  1619616642R690306   AIM AND FIRE                  00000000000000000000                21                      
903L001L5263200504094544892D23700003863200504094544892100000619850210504100000SERAPHIM  CONTRAWPTUA7CYVXR4SQ                                                                                          
903L001L5063200504094544892D23700003925065562426342599100000072000210504350   JAMFOX    1619616632RJFCAPRICEANGELIQUE STEYN               00000000000000000000                21                      
903L001L5063200504094544892D23700004047001001624623717200000035000210504350   JAMFOX    1619616633RJFLUCAS6 CHARLE BESTER                 00000000000000000000                21                      
903L001L5063200504094544892D23700004125065562103092368100000082000210504350   JAMFOX    1619616633RJFARNOLIEMICHAEL ARNOLDUS BOTHA        00000000000000000000                21                      
903L001L5063200504094544892D23700004219876502602223018200000045000210504350   JAMFOX    1619616633RJFASH15  SHELLEY SWANEPOEL             00000000000000000000                21                      
903L001L5063200504094544892D23700004325065562435262324100000048000210504350   JAMFOX    1619616633RJFCAYLA13CARLA VAN ZWEEL               00000000000000000000                21                      
903L001L5063200504094544892D23700004425065562067549827100000096000210504350   JAMFOX    1619616633RJFZOE11ELHELEN HOMAN                   00000000000000000000                21                      
903L001L5063200504094544892D23700004505100100012767662100000069000210504350   JAMFOX    1619616633RJFDANIKA1SONJA SENEKAL                 00000000000000000000                21                      
903L001L5063200504094544892D23700004625065562244060638100000129000210504350   JAMFOX    1619616633RJFLISA6SUMA WEBER                      00000000000000000000                21                      
903L001L5063200504094544892D23700004747001001470378998100000031000210504350   JAMFOX    1619616633RJFGERDA37GERDA VENTER                  00000000000000000000                21                      
903L001L5063200504094544892D23700004863200504067646837100000040000210504350   JAMFOX    1619616633RJFMARISSAMELISSA VAN ASWEGEN           00000000000000000000                21                      
903L001L5063200504094544892D23700004905100100411285475100000093000210504350   JAMFOX    1619616633RJFCHARNE1T L SCHUTTE                   00000000000000000000                21                      
903L001L5063200504094544892D23700005025065562560918305100000048000210504350   JAMFOX    1619616636RJFVIVIA14ELZETTE VAN DEVENTER          00000000000000000000                21                      
903L001L5063200504094544892D23700005125065562425323889200000082000210504350   JAMFOX    1619703002RJFBIANCA2BIANCA JANSEN VAN RENSBURG    00000000000000000000                21                      
903L001L5063200504094544892D23700005225065562664881937100000041000210504350   JAMFOX    1619616643RJFANNABELKRYSTLE JONCK                 00000000000000000000                21                      
903L001L5263200504094544892D23700005363200504094544892100000911000210504100000JAMFOX    CONTRAKJ1KL2PBIFCZHA                                                                                          
903L001L5063200504094544892D23700005447001001329622241100000047920210504350   NEWYOU    1619616629R1        A MULLER                      00000000000000000000                21                      
903L001L5063200504094544892D23700005525065562278933463100000047920210504350   NEWYOU    1619616629R2        A BOSHOFF                     00000000000000000000                21                      
903L001L5063200504094544892D23700005625065562024499370100000063920210504350   NEWYOU    1619616629R3        CHRISTEL BORCHERDS            00000000000000000000                21                      
903L001L5063200504094544892D23700005719876501203092946100000059900210504350   NEWYOU    1619616629R5        G GREEN                       00000000000000000000                21                      
903L001L5063200504094544892D23700005819876501029029121100000047920210504350   NEWYOU    1619616629R6        ILZE LAUBSCHER                00000000000000000000                21                      
903L001L5063200504094544892D23700005925065562365290263100000047920210504350   NEWYOU    1619616629R7        KARIN BARTMAN                 00000000000000000000                21                      
903L001L5063200504094544892D23700006025065562013388708100000059900210504350   NEWYOU    1619616629R8        LECIA SWANEPOEL               00000000000000000000                21                      
903L001L5063200504094544892D23700006163200500430142100100000047920210504350   NEWYOU    1619616629R9        L MAREE                       00000000000000000000                21                      
903L001L5063200504094544892D23700006225065562214206840100000055920210504350   NEWYOU    1619616629R10       M BOUCHER                     00000000000000000000                21                      
903L001L5063200504094544892D23700006319876501950451623100000047920210504350   NEWYOU    1619616629R11       MARIETTE STEENKAMP            00000000000000000000                21                      
903L001L5063200504094544892D23700006419876501162411953100000059900210504350   NEWYOU    1619616629R12       NICA MYNHARDY                 00000000000000000000                21                      
903L001L5063200504094544892D23700006563200500438040110100000055900210504350   NEWYOU    1619616629R13       R VISSER                      00000000000000000000                21                      
903L001L5063200504094544892D23700006625065562263010862100000059900210504350   NEWYOU    1619616629R14       SANET VAN ROOYEN              00000000000000000000                21                      
903L001L5063200504094544892D23700006747001001293445590100000071920210504350   NEWYOU    1619616629R15       SUZANNE DIXON                 00000000000000000000                21                      
903L001L5063200504094544892D23700006863200504057486049100000047900210504350   NEWYOU    1619616629R16       T JOHNSTON                    00000000000000000000                21                      
903L001L5063200504094544892D23700006963200504065600463100000047920210504350   NEWYOU    1619616629R17       T VAN DER MERWE               00000000000000000000                21                      
903L001L5063200504094544892D23700007047001001376663099100000063920210504350   NEWYOU    1619616629R18       YOLANDI BASSON                00000000000000000000                21                      
903L001L5063200504094544892D23700007163200500000000000100000071910210504350   NEWYOU    1619616629R19       SUZANNE GREEN                 00000006903220041080                21                      
903L001L5063200504094544892D23700007247001001305692584200000071920210504350   NEWYOU    1619616632R20       CATHERINE CHRISTINA STANDER   00000000000000000000                21                      
903L001L5063200504094544892D23700007325065562323116625100000089900210504350   NEWYOU    1619616632R21       CHARMAINE LE ROUX             00000000000000000000                21                      
903L001L5063200504094544892D23700007425065562030615374100000069900210504350   NEWYOU    1619616632R22       ELANIE KUHN                   00000000000000000000                21                      
903L001L5063200504094544892D23700007563200509094148819200000069900210504350   NEWYOU    1619616632R23       LEONIE VAN WYK                00000000000000000000                21                      
903L001L5063200504094544892D23700007605100110094873656100000075000210504350   NEWYOU    1619616632R25       MARYKE PRETORIUS              00000000000000000000                21                      
903L001L5063200504094544892D23700007763200504068050582100000063920210504350   NEWYOU    1619616632R26       MELANIE LOFTUS                00000000000000000000                21                      
903L001L5063200504094544892D23700007863200509231588951100000055900210504350   NEWYOU    1619616632R27       SUZANNE GREEN                 00000000000000000000                21                      
903L001L5063200504094544892D23700007925065562348391864100000089900210504350   NEWYOU    1619616632R29       ZANRE JOUBERT                 00000000000000000000                21                      
903L001L5063200504094544892D23700008063200504049465813100000089900210504350   NEWYOU    1619616632R30       S CONRADIE                    00000000000000000000                21                      
903L001L5063200504094544892D23700008147001001247506450200000089900210504350   NEWYOU    1619616633R31       LOUISE ANN TRUTER             00000000000000000000                21                      
903L001L5063200504094544892D23700008247001001618611710200000059900210504350   NEWYOU    1619616636R32       M FRANKEN                     00000000000000000000                21                      
903L001L5063200504094544892D23700008363200504088710289100000059900210504350   NEWYOU    1619616636R33       NOLINE GUNTER                 00000000000000000000                21                      
903L001L5063200504094544892D23700008425065562828040676100000069900210504350   NEWYOU    1619616636R35       NJ WOLFAARDT                  00000000000000000000                21                      
903L001L5063200504094544892D23700008547001001530423390200000059900210504350   NEWYOU    1619616636R34       T BUCKLE                      00000000000000000000                21                      
903L001L5063200504094544892D23700008663200504079625966100000059900210504350   NEWYOU    1619616636R37       CISKA MARAIS                  00000000000000000000                21                      
903L001L5063200504094544892D23700008725065562014515251100000089900210504350   NEWYOU    1619616636R36       ADRIANNA LABUSCHAGNE          00000000000000000000                21                      
903L001L5063200504094544892D23700008863200504078163711100000075000210504350   NEWYOU    1619616636R38       MARDI SCHEEPERS               00000000000000000000                21                      
903L001L5063200504094544892D23700008947001001405027469200000069900210504350   NEWYOU    1619616636R39       EMKE HUGO                     00000000000000000000                21                      
903L001L5063200504094544892D23700009063200504083227611100000055000210504350   NEWYOU    1619616636R41       ZANELE CALITZ                 00000000000000000000                21                      
903L001L5063200504094544892D23700009147001001405033434200000069900210504350   NEWYOU    1619616636R42       AMIKA HUGO                    00000000000000000000                21                      
903L001L5063200504094544892D23700009263200504087163522100000055000210504350   NEWYOU    1619616636R45       PIETER CALITZ                 00000000000000000000                21                      
903L001L5063200504094544892D23700009325065562280156673100000069900210504350   NEWYOU    1619616636R46       DEIDRE WOLMARANS              00000000000000000000                21                      
903L001L5063200504094544892D23700009463200500627975163100000089900210504350   NEWYOU    1619616642R49       A SPIES                       00000000000000000000                21                      
903L001L5063200504094544892D23700009558900005425174001200000089900210504350   NEWYOU    1619616642R50       BIANCA WALLACE                00000000000000000000                21                      
903L001L5063200504094544892D23700009647001001358989956100000069900210504350   NEWYOU    1619616642R51       ELANA HATTINGH                00000000000000000000                21                      
903L001L5063200504094544892D23700009763200501038490105100000069900210504350   NEWYOU    1619616642R52       MARTHA PRETORIUS              00000000000000000000                21                      
903L001L5063200504094544892D23700009863200504079774496100000069900210504350   NEWYOU    1619616643R48       MARI MARAIS                   00000000000000000000                21                      
903L001L5263200504094544892D23700009963200504094544892100002956170210504100000NEWYOU    CONTRALBXFPZQEJ6LZKG                                                                                          
903L001L5063200504094544892D23700010005100100020598807100000010000210504350   PMDOPS    1619616636R111S0014 DARICK INTERNATIONAL          00000000000000000000                21                      
903L001L5063200504094544892D23700010125065562440511659100000300000210504350   PMDOPS    1619616636RWKIV2012 KAONNE INVESTMENTS            00000000000000000000                21                      
903L001L5063200504094544892D23700010225065562440511659100000300000210504350   PMDOPS    1619703002RWKIV201  KAONNE INVESTMENTS            00000000000000000000                21                      
903L001L5063200504094544892D23700010363200504050368151100000003495210504350   PMDOPS    1619616643R111N0005 NLN ENGINEERING CC            00000000000000000000                21                      
903L001L5063200504094544892D23700010425065562210012465100000000990210504350   PMDOPS    1619616643R111O0004 S OTTO                        00000000000000000000                21                      
903L001L5063200504094544892D23700010525065562388074892100000004000210504350   PMDOPS    1619616643RWRMH002  ROZAQ MOHAMMED                00000000000000000000                21                      
903L001L5063200504094544892D23700010625065562440511659100000121494210504350   PMDOPS    1619616643OWKIV214  KAONNE INVESTMENTS            00000000000000000000                21                      
903L001L5263200504094544892D23700010763200504094544892100000739979210504100000PMDOPS    CONTRAR2PIRNEON6W7AE                                                                                          
903L001L5063200504094544892D23700010805100100072172916100000050000210504350   MANIANET  1619616642R68       ANDRIES SWARTS                00000000000000000000                21                      
903L001L5263200504094544892D23700010963200504094544892100000050000210504100000MANIANET  CONTRAXZG2RO6U9WUVPK                                                                                          
903L001L5063200504094544892D23700011025065562694716683100000066000210504350   ARM       1619616639R9601     XANDER VAN NOORD              00000000000000000000                21                      
903L001L5063200504094544892D23700011105100100302035915100000066000210504350   ARM       1619616642R01       HAMISH MC CREADY              00000000000000000000                21                      
903L001L5063200504094544892D23700011225065562357234764100000066000210504350   ARM       1619616642R02       MARK KOEKEMOER                00000000000000000000                21                      
903L001L5063200504094544892D23700011305100100270714170100000066000210504350   ARM       1619616642R03       TYRONE CHALLIS                00000000000000000000                21                      
903L001L5063200504094544892D23700011425065560617432323100000150000210504350   ARM       1619616642R04       FEDERICO LORENZI              00000000000000000000                21                      
903L001L5063200504094544892D23700011558010510012620619100000150000210504350   ARM       1619616642R05       FERDI SCHMDIT                 00000000000000000000                21                      
903L001L5063200504094544892D23700011625065562861274012100000066000210504350   ARM       1619616642R06       SAMUEL LEEUW                  00000000000000000000                21                      
903L001L5063200504094544892D23700011758010510012266478100000066000210504350   ARM       1619616642R07       THEA RICHTER                  00000000000000000000                21                      
903L001L5063200504094544892D23700011825065562457639494100000066000210504350   ARM       1619616642R08       JOSH PAUL                     00000000000000000000                21                      
903L001L5063200504094544892D23700011925065562822290764100000066000210504350   ARM       1619616642R09       REBECCA                       00000000000000000000                21                      
903L001L5063200504094544892D23700012025065562482610899100000066000210504350   ARM       1619616642R11       MICHAEL LEIGHTON              00000000000000000000                21                      
903L001L5063200504094544892D23700012119876501126799874100000066000210504350   ARM       1619616642R12       JULIA JOY MENEZES             00000000000000000000                21                      
903L001L5063200504094544892D23700012225065562589050477100000066000210504350   ARM       1619616642R13       ROXANNE PIPINOS               00000000000000000000                21                      
903L001L5063200504094544892D23700012363200504040866143100000066000210504350   ARM       1619616642R14       MONWABISI CHULUMANCO RATSIBE  00000000000000000000                21                      
903L001L5063200504094544892D23700012425065562053437284100000066000210504350   ARM       1619616642R15       THANDISWA MAGIBISELA          00000000000000000000                21                      
903L001L5063200504094544892D23700012525065562401260766100000066000210504350   ARM       1619616642R17       JACO LANDMAN                  00000000000000000000                21                      
903L001L5063200504094544892D23700012625065562768682744100000066000210504350   ARM       1619616642R18       ARISTIDE LUNARDINI            00000000000000000000                21                      
903L001L5063200504094544892D23700012758010510011481779100000066000210504350   ARM       1619616642R20       JAWAD                         00000000000000000000                21                      
903L001L5063200504094544892D23700012825065562323095035100000066000210504350   ARM       1619616642R21       JASON BEWSEY                  00000000000000000000                21                      
903L001L5063200504094544892D23700012947001010010914966100000066000210504350   ARM       1619616642R22       MATTHEW BLUMBERG              00000000000000000000                21                      
903L001L5063200504094544892D23700013025065562035887671100000066000210504350   ARM       1619616642R23       HELEN BLAINE                  00000000000000000000                21                      
903L001L5063200504094544892D23700013163200504089398381100000066000210504350   ARM       1619616642R26       JESSE BETTENCOURT             00000000000000000000                21                      
903L001L5063200504094544892D23700013247001001356200522200000066000210504350   ARM       1619616643R27       LEIGH BRUINDERS               00000000000000000000                21                      
903L001L5063200504094544892D23700013347001001345539930200000066000210504350   ARM       1619616643R28       BRAD DU PLESSIS               00000000000000000000                21                      
903L001L5063200504094544892D23700013447001001437080497200000066000210504350   ARM       1619616643R29       ROHIN DICK                    00000000000000000000                21                      
903L001L5063200504094544892D23700013525065562248108640100000066000210504350   ARM       1619616643R30       FABIAN JOSIAS                 00000000000000000000                21                      
903L001L5063200504094544892D23700013625065562546169774100000650000210504350   ARM       1619616643R625461   CHOMUNORWA GONORENDA          00000000000000000000                21                      
903L001L5063200504094544892D23700013725065562382874610100000066000210504350   ARM       1619616643R623828   NELSON DE GOUVEIA             00000000000000000000                21                      
903L001L5063200504094544892D23700013825065562826194342100000066000210504350   ARM       1619616643R628261   MELISSA CAWTHRA               00000000000000000000                21                      
903L001L5063200504094544892D23700013925065560132362786100000066000210504350   ARM       1619616643R601323   NICK FORDYCE                  00000000000000000000                21                      
903L001L5063200504094544892D23700014005100100071419098100000066000210504350   ARM       1619616643R071419   DREW HOOK                     00000000000000000000                21                      
903L001L5063200504094544892D23700014105100100072600969200000066000210504350   ARM       1619616643R072600   JOSHUA HEWITSON               00000000000000000000                21                      
903L001L5063200504094544892D23700014205100100072940719100000066000210504350   ARM       1619616643R7294071  PETER JURITZ                  00000000000000000000                21                      
903L001L5063200504094544892D23700014325065562035322768100000066000210504350   ARM       1619616643R620353   ADRIAN OOSTHUIZEN             00000000000000000000                21                      
903L001L5063200504094544892D23700014405100100073033200100000066000210504350   ARM       1619616643R730332   RENE POOLE                    00000000000000000000                21                      
903L001L5063200504094544892D23700014525065562864205820100000066000210504350   ARM       1619616643R628642   CLAIRE MURPHY                 00000000000000000000                21                      
903L001L5063200504094544892D23700014663200504072812116100000066000210504350   ARM       1619616643R407281   MARTIN LAUBSCHER              00000000000000000000                21                      
903L001L5063200504094544892D23700014763200509143203881100000066000210504350   ARM       1619616643R063650   MATTHEW PREHN                 00000000000000000000                21                      
903L001L5063200504094544892D23700014819876501018502882100000066000210504350   ARM       1619616643R101850   NICOL PIROW                   00000000000000000000                21                      
903L001L5063200504094544892D23700014958010510010599062100000061000210504350   ARM       1619616643R100105   PAUL OSBOURNE                 00000000000000000000                21                      
903L001L5063200504094544892D23700015019876501103769936100000066000210504350   ARM       1619616643R110376   HILDE RABE                    00000000000000000000                21                      
903L001L5063200504094544892D23700015125065562396414072100000040000210504350   ARM       1619616643R084594   MARIA ROSS                    00000000000000000000                21                      
903L001L5063200504094544892D23700015225065562852287814100000127500210504350   ARM       1619616643R628522   CHRISTIAN SCHIESS             00000000000000000000                21                      
903L001L5063200504094544892D23700015319876501075785960100000066000210504350   ARM       1619616643R31       JOSHUA VAN TUBBERG            00000000000000000000                21                      
903L001L5063200504094544892D23700015425065562661313602100000066000210504350   ARM       1619616643R32       TENDANI TSHAVHUNGWA           00000000000000000000                21                      
903L001L5063200504094544892D23700015563200504076386165100000066000210504350   ARM       1619616643R34       JOSHUA TICKTIN                00000000000000000000                21                      
903L001L5063200504094544892D23700015619876501140313274100000066000210504350   ARM       1619616643R35       LISA TANG                     00000000000000000000                21                      
903L001L5063200504094544892D23700015747001001212316698200000066000210504350   ARM       1619616643R36       JANCA STEENKAMP               00000000000000000000                21                      
903L001L5063200504094544892D23700015819876501263090435100000066000210504350   ARM       1619616643R37       THOMAS WAIT                   00000000000000000000                21                      
903L001L5063200504094544892D23700015963200504071208548100000066000210504350   ARM       1619616643R38       RUAN VAN DER LINDE            00000000000000000000                21                      
903L001L5063200504094544892D23700016025065562709180947100000066000210504350   ARM       1619616643R39       CHARL VILJOEN                 00000000000000000000                21                      
903L001L5063200504094544892D23700016105100100070086567100000066000210504350   ARM       1619616643R40       EBEN VAN DEN BERG             00000000000000000000                21                      
903L001L5063200504094544892D23700016225065562392039709100000066000210504350   ARM       1619616643R41       EMMA KIRSTEN                  00000000000000000000                21                      
903L001L5063200504094544892D23700016305100100083910999100000066000210504350   ARM       1619616643R42       R ODDY                        00000000000000000000                21                      
903L001L5063200504094544892D23700016425065562816881272100000066000210504350   ARM       1619616643R44       JUSTIN DUPLESSIS              00000000000000000000                21                      
903L001L5063200504094544892D23700016505100100053158164100000066000210504350   ARM       1619616643R45       DAVE HENDERSON                00000000000000000000                21                      
903L001L5063200504094544892D23700016663200504085614505100000066000210504350   ARM       1619616643R46       JC WANCKEL                    00000000000000000000                21                      
903L001L5263200504094544892D23700016763200504094544892100004544500210504100000ARM       CONTRAIRHMIXWP8S8LR1                                                                                          
901L001 D237/0000104/000042 00080-*** WARNING ONLY - ACCOUNT TYPE CHANGE - 1 TO 2 ***                                                                                                                 
901L001 D237/0000104/000112 00035-*** WARNING ONLY *** ACCOUNT TYPE INVALID ***                                                                                                                       
901L001 D237/0000104/000114 00035-*** WARNING ONLY *** ACCOUNT TYPE INVALID ***                                                                                                                       
901L001 D237/0000104/000116 00035-*** WARNING ONLY *** ACCOUNT TYPE INVALID ***                                                                                                                       
901L001 D237/0000104/000117 00080-*** WARNING ONLY - ACCOUNT TYPE CHANGE - 2 TO 1 ***                                                                                                                 
901L001 D237/0000104/000129 00034-*** WARNING ONLY *** HOMING ACCOUNT INVALID ***                                                                                                                     
999L000000177                                                                                                                                                                                         
