000L2021052400000PAYPORT CONSULTING PTY LTD    000077907303                                                                                                                                           
900L000 TRANSMISSION 07303-0000110 ACCEPTED                                                                                                                                                           
900L001 ACB USER SET D237-0000116-000861 ACCEPTED                                                                                                                                                     
903L001L5063200504094544892D23700000163200504088561943100000008500210525350   CRESCENT1 CUS0033172          A KHOTA                       00000000000000000000                21                      
903L001L5063200504094544892D23700000247001001376571151200000008500210525350   CRESCENT1 CUS0047909          M GEORGE                      00000000000000000000                21                      
903L001L5063200504094544892D23700000305100100072107294100000008500210525350   CRESCENT1 CUS0057261          Z WATSON                      00000000000000000000                21                      
903L001L5063200504094544892D23700000419876501045979724100000024500210525350   CRESCENT1 CUS0033288          A ABRAHAMS                    00000000000000000000                21                      
903L001L5063200504094544892D23700000563200504074726163100000016000210525350   CRESCENT1 CUS0048054          G CORNELIUS                   00000000000000000000                21                      
903L001L5063200504094544892D23700000625065562437859947100000008500210525350   CRESCENT1 CUS0057275          A BAYAT                       00000000000000000000                21                      
903L001L5063200504094544892D23700000705100100335139914100000016000210525350   CRESCENT1 CUS0033347          A HOOSEN                      00000000000000000000                21                      
903L001L5063200504094544892D23700000805100100628177283100000008500210525350   CRESCENT1 CUS0048167          A DHANSAY                     00000000000000000000                21                      
903L001L5063200504094544892D23700000947001001497172096200000016000210525350   CRESCENT1 CUS0057338          M WHISGANY                    00000000000000000000                21                      
903L001L5063200504094544892D23700001025065562256960298100000006900210525350   CRESCENT1 CUS0033444          Y BADAT                       00000000000000000000                21                      
903L001L5063200504094544892D23700001119876501025776070100000008500210525350   CRESCENT1 CUS0048171          R MOHAMMED                    00000000000000000000                21                      
903L001L5063200504094544892D23700001247001001374748216200000007500210525350   CRESCENT1 CUS0057357          F ISMAIL                      00000000000000000000                21                      
903L001L5063200504094544892D23700001305100100070602743100000016000210525350   CRESCENT1 CUS0033465          N SALIE                       00000000000000000000                21                      
903L001L5063200504094544892D23700001425065562413568116100000008500210525350   CRESCENT1 CUS0048246          N BENJAMIN                    00000000000000000000                21                      
903L001L5063200504094544892D23700001547001001558945162200000007500210525350   CRESCENT1 CUS0057380          F JOSEPH                      00000000000000000000                21                      
903L001L5063200504094544892D23700001625065553140056847100000016000210525350   CRESCENT1 CUS0033643          C PATEL                       00000000000000000000                21                      
903L001L5063200504094544892D23700001719876501046511149100000008500210525350   CRESCENT1 CUS0048254          S ABRAHAMS                    00000000000000000000                21                      
903L001L5063200504094544892D23700001805100100011909102100000016000210525350   CRESCENT1 CUS0057411          S PETERSEN                    00000000000000000000                21                      
903L001L5063200504094544892D23700001919876501048946320100000016000210525350   CRESCENT1 CUS0033754          S MOHAMED                     00000000000000000000                21                      
903L001L5063200504094544892D23700002063200504042875215100000016000210525350   CRESCENT1 CUS0048277          F ABDULLA                     00000000000000000000                21                      
903L001L5063200504094544892D23700002147001001409800960200000008500210525350   CRESCENT1 CUS0057412          S SAMUELS                     00000000000000000000                21                      
903L001L5063200504094544892D23700002219876501940110831100000008500210525350   CRESCENT1 CUS0033791          N ESSOP                       00000000000000000000                21                      
903L001L5063200504094544892D23700002305100100031163289100000008500210525350   CRESCENT1 CUS0048289          I JACOBUS                     00000000000000000000                21                      
903L001L5063200504094544892D23700002425065562574828673100000016000210525350   CRESCENT1 CUS0057434          A LATIEF                      00000000000000000000                21                      
903L001L5063200504094544892D23700002525065562199622020100000008500210525350   CRESCENT1 CUS0033825          M AHMED MAHLANGU              00000000000000000000                21                      
903L001L5063200504094544892D23700002619876501073250709100000008500210525350   CRESCENT1 CUS0048322          A SAID                        00000000000000000000                21                      
903L001L5063200504094544892D23700002705100110042269707100000016000210525350   CRESCENT1 CUS0057490          A JORDAAN                     00000000000000000000                21                      
903L001L5063200504094544892D23700002819876501431015814100000008500210525350   CRESCENT1 CUS0033835          E FRAFER                      00000000000000000000                21                      
903L001L5063200504094544892D23700002905100100061472646100000008500210525350   CRESCENT1 CUS0048330          A ABOO                        00000000000000000000                21                      
903L001L5063200504094544892D23700003025065562136688241100000015400210525350   CRESCENT1 CUS0057515          N HASSIEM                     00000000000000000000                21                      
903L001L5063200504094544892D23700003119876501147018863100000016000210525350   CRESCENT1 CUS0033895          J HILL                        00000000000000000000                21                      
903L001L5063200504094544892D23700003225065562320979745100000008500210525350   CRESCENT1 CUS0048370          F FAKIR                       00000000000000000000                21                      
903L001L5063200504094544892D23700003319876502079032143200000006900210525350   CRESCENT1 CUS0057520          G MOLISIE                     00000000000000000000                21                      
903L001L5063200504094544892D23700003405100100224198289100000008500210525350   CRESCENT1 CUS0034046          A AMOD                        00000000000000000000                21                      
903L001L5063200504094544892D23700003525065562357941543100000008500210525350   CRESCENT1 CUS0048495          L BEDDERSON                   00000000000000000000                21                      
903L001L5063200504094544892D23700003647001001298170298200000008500210525350   CRESCENT1 CUS0057530          L RAJIE DARRES                00000000000000000000                21                      
903L001L5063200504094544892D23700003705100100005126428100000008500210525350   CRESCENT1 CUS0034201          N LAGARDIEN                   00000000000000000000                21                      
903L001L5063200504094544892D23700003825065562566080314100000008500210525350   CRESCENT1 CUS0048531          K AFGHAN                      00000000000000000000                21                      
903L001L5063200504094544892D23700003905100100310915813100000008500210525350   CRESCENT1 CUS0057535          M EKSTEEN                     00000000000000000000                21                      
903L001L5063200504094544892D23700004067891051027055766200000007500210525350   CRESCENT1 CUS0034249          I MOHAMED                     00000000000000000000                21                      
903L001L5063200504094544892D23700004119876501057751928100000008500210525350   CRESCENT1 CUS0048572          M KHAN                        00000000000000000000                21                      
903L001L5063200504094544892D23700004247001001421100256200000008500210525350   CRESCENT1 CUS0057546          N MOOSA                       00000000000000000000                21                      
903L001L5063200504094544892D23700004305100100203792939100000016000210525350   CRESCENT1 CUS0034360          K SALIM                       00000000000000000000                21                      
903L001L5063200504094544892D23700004405100100071347801100000008500210525350   CRESCENT1 CUS0048616          L BUTLAND                     00000000000000000000                21                      
903L001L5063200504094544892D23700004547001001508193965200000008500210525350   CRESCENT1 CUS0057556          N MOHAMED                     00000000000000000000                21                      
903L001L5063200504094544892D23700004625065562285215101100000008500210525350   CRESCENT1 CUS0034649          K ABOOBAKER                   00000000000000000000                21                      
903L001L5063200504094544892D23700004719876501110861869100000008500210525350   CRESCENT1 CUS0048631          M MAJIET                      00000000000000000000                21                      
903L001L5063200504094544892D23700004825065562541075546100000008500210525350   CRESCENT1 CUS0057560          R ISAACS                      00000000000000000000                21                      
903L001L5063200504094544892D23700004946000500051085750200000015000210525350   CRESCENT1 CUS0034957          J MOTHA                       00000000000000000000                21                      
903L001L5063200504094544892D23700005019876501956046135100000008500210525350   CRESCENT1 CUS0048647          G HASTLE                      00000000000000000000                21                      
903L001L5063200504094544892D23700005147001001615077993200000008500210525350   CRESCENT1 CUS0057591          K DANIELS                     00000000000000000000                21                      
903L001L5063200504094544892D23700005219876501076093000100000016000210525350   CRESCENT1 CUS0034966          A WHITE                       00000000000000000000                21                      
903L001L5063200504094544892D23700005305100100070269777100000016000210525350   CRESCENT1 CUS0048649          I MOWLANA                     00000000000000000000                21                      
903L001L5063200504094544892D23700005425065560008265361100000006900210525350   CRESCENT1 CUS0057634          F DULVIE                      00000000000000000000                21                      
903L001L5063200504094544892D23700005525065562749194560100000008500210525350   CRESCENT1 CUS0034994          R HOOSEN                      00000000000000000000                21                      
903L001L5063200504094544892D23700005647001001151735467200000008500210525350   CRESCENT1 CUS0048670          Z FAKIR                       00000000000000000000                21                      
903L001L5063200504094544892D23700005725065562072934104100000008500210525350   CRESCENT1 CUS0057638          Y KAFAAR                      00000000000000000000                21                      
903L001L5063200504094544892D23700005847001001466865448200000016000210525350   CRESCENT1 CUS0035124          S MORRIS                      00000000000000000000                21                      
903L001L5063200504094544892D23700005947001001439928590200000016000210525350   CRESCENT1 CUS0048675          S JURIES                      00000000000000000000                21                      
903L001L5063200504094544892D23700006047001001204261405200000008500210525350   CRESCENT1 CUS0057639          F MOHAMED                     00000000000000000000                21                      
903L001L5063200504094544892D23700006167891051024954162200000008500210525350   CRESCENT1 CUS0035165          S GALSOOLKER                  00000000000000000000                21                      
903L001L5063200504094544892D23700006225065562177284868100000008500210525350   CRESCENT1 CUS0048704          Q HASSIM                      00000000000000000000                21                      
903L001L5063200504094544892D23700006325065562193224591100000008500210525350   CRESCENT1 CUS0057666          W NOOR                        00000000000000000000                21                      
903L001L5063200504094544892D23700006425065562631729805100000016000210525350   CRESCENT1 CUS0035216          C EBRAHIM                     00000000000000000000                21                      
903L001L5063200504094544892D23700006525065562351969963100000008500210525350   CRESCENT1 CUS0048708          L SALLIE                      00000000000000000000                21                      
903L001L5063200504094544892D23700006605100110060598695100000008500210525350   CRESCENT1 CUS0057776          R PHIRI                       00000000000000000000                21                      
903L001L5063200504094544892D23700006747001001215079603200000008500210525350   CRESCENT1 CUS0035240          R JOHNSON                     00000000000000000000                21                      
903L001L5063200504094544892D23700006825065562311294342100000008500210525350   CRESCENT1 CUS0048728          Q RYKLIEF                     00000000000000000000                21                      
903L001L5063200504094544892D23700006947001001440874628200000008500210525350   CRESCENT1 CUS0057782          Z JARDIEN                     00000000000000000000                21                      
903L001L5063200504094544892D23700007019876501011930072100000008500210525350   CRESCENT1 CUS0035274          J CADER                       00000000000000000000                21                      
903L001L5063200504094544892D23700007147001001168830999200000016000210525350   CRESCENT1 CUS0048831          K MANEVELD                    00000000000000000000                21                      
903L001L5063200504094544892D23700007219876501171992610100000016000210525350   CRESCENT1 CUS0057798          I CAROWS                      00000000000000000000                21                      
903L001L5063200504094544892D23700007305100100009235086100000016000210525350   CRESCENT1 CUS0035418          N DURRELL                     00000000000000000000                21                      
903L001L5063200504094544892D23700007405100100009349731100000008500210525350   CRESCENT1 CUS0048862          I RASSOOL                     00000000000000000000                21                      
903L001L5063200504094544892D23700007525065562199135528100000008500210525350   CRESCENT1 CUS0057808          T BADENHORST                  00000000000000000000                21                      
903L001L5063200504094544892D23700007647001001331074418200000008500210525350   CRESCENT1 CUS0035458          M BHAYAT                      00000000000000000000                21                      
903L001L5063200504094544892D23700007747001001276994530200000016000210525350   CRESCENT1 CUS0048910          M SHAND                       00000000000000000000                21                      
903L001L5063200504094544892D23700007847001001347068079200000008500210525350   CRESCENT1 CUS0057848          A APPOLLIS                    00000000000000000000                21                      
903L001L5063200504094544892D23700007925065562466142454100000008500210525350   CRESCENT1 CUS0035485          Y DESAI                       00000000000000000000                21                      
903L001L5063200504094544892D23700008025065562458851948100000008500210525350   CRESCENT1 CUS0049065          R GEENA                       00000000000000000000                21                      
903L001L5063200504094544892D23700008147001001449579122200000008500210525350   CRESCENT1 CUS0057942          B WHITEBOY                    00000000000000000000                21                      
903L001L5063200504094544892D23700008225065562811724930100000016000210525350   CRESCENT1 CUS0035539          I HALIM                       00000000000000000000                21                      
903L001L5063200504094544892D23700008347001001410337160200000008500210525350   CRESCENT1 CUS0049082          N ADAMS                       00000000000000000000                21                      
903L001L5063200504094544892D23700008447001001580661643200000008500210525350   CRESCENT1 CUS0057954          M LUBBE                       00000000000000000000                21                      
903L001L5063200504094544892D23700008525065562439164980100000008500210525350   CRESCENT1 CUS0035585          T AZIZ                        00000000000000000000                21                      
903L001L5063200504094544892D23700008605100100013029193100000016000210525350   CRESCENT1 CUS0049157          A ABOO BAKER                  00000000000000000000                21                      
903L001L5063200504094544892D23700008747001001204575841200000008500210525350   CRESCENT1 CUS0057975          M BEDFORD                     00000000000000000000                21                      
903L001L5063200504094544892D23700008825065562838099001100000007500210525350   CRESCENT1 CUS0035676          F LINX                        00000000000000000000                21                      
903L001L5063200504094544892D23700008925065562366340835100000008500210525350   CRESCENT1 CUS0049204          Q VARIND                      00000000000000000000                21                      
903L001L5063200504094544892D23700009047001001334764148200000008500210525350   CRESCENT1 CUS0058050          F HAMBURG                     00000000000000000000                21                      
903L001L5063200504094544892D23700009105100110147072261100000016000210525350   CRESCENT1 CUS0035786          N MOOLA                       00000000000000000000                21                      
903L001L5063200504094544892D23700009247001001261307265200000008500210525350   CRESCENT1 CUS0049225          A KAMALDIEN                   00000000000000000000                21                      
903L001L5063200504094544892D23700009325065562114552731100000008500210525350   CRESCENT1 CUS0058051          K RICHARDS                    00000000000000000000                21                      
903L001L5063200504094544892D23700009425065562376311769100000008500210525350   CRESCENT1 CUS0035794          Y CASSIEM                     00000000000000000000                21                      
903L001L5063200504094544892D23700009525065562575274239100000008500210525350   CRESCENT1 CUS0049247          E RASOOL MOHAMMED             00000000000000000000                21                      
903L001L5063200504094544892D23700009625065562595578281100000008500210525350   CRESCENT1 CUS0058059          K RASOOL                      00000000000000000000                21                      
903L001L5063200504094544892D23700009719876501048200809100000008500210525350   CRESCENT1 CUS0035797          M GREAVER                     00000000000000000000                21                      
903L001L5063200504094544892D23700009825065562625619898100000008500210525350   CRESCENT1 CUS0049259          W ABRAHAMS                    00000000000000000000                21                      
903L001L5063200504094544892D23700009963200504083527235100000008500210525350   CRESCENT1 CUS0058074          W PETERS                      00000000000000000000                21                      
903L001L5063200504094544892D23700010025065562106030612100000016000210525350   CRESCENT1 CUS0035911          R KHAN                        00000000000000000000                21                      
903L001L5063200504094544892D23700010147001001325184908200000008500210525350   CRESCENT1 CUS0049278          W PLAYTON                     00000000000000000000                21                      
903L001L5063200504094544892D23700010247001001643873391200000008500210525350   CRESCENT1 CUS0058078          F ISMAIL                      00000000000000000000                21                      
903L001L5063200504094544892D23700010319876501134947275100000008500210525350   CRESCENT1 CUS0035944          M RAHIM                       00000000000000000000                21                      
903L001L5063200504094544892D23700010405100110095967840100000008500210525350   CRESCENT1 CUS0049310          Z KHAN                        00000000000000000000                21                      
903L001L5063200504094544892D23700010547001001567852074200000008500210525350   CRESCENT1 CUS0058092          Z ABRAHAMS                    00000000000000000000                21                      
903L001L5063200504094544892D23700010605100110029024100100000008500210525350   CRESCENT1 CUS0035982          J ASSIM                       00000000000000000000                21                      
903L001L5063200504094544892D23700010763200509203163175100000008500210525350   CRESCENT1 CUS0049342          N SOLOMON                     00000000000000000000                21                      
903L001L5063200504094544892D23700010819876501068920319100000008500210525350   CRESCENT1 CUS0058151          M JAFTHA                      00000000000000000000                21                      
903L001L5063200504094544892D23700010925065562257334111100000016000210525350   CRESCENT1 CUS0036019          M NORDIEN                     00000000000000000000                21                      
903L001L5063200504094544892D23700011019876501140513230100000016000210525350   CRESCENT1 CUS0049410          M AMIEN                       00000000000000000000                21                      
903L001L5063200504094544892D23700011119876501926002113100000008500210525350   CRESCENT1 CUS0058160          F ISAACS                      00000000000000000000                21                      
903L001L5063200504094544892D23700011263200509119254460100000008500210525350   CRESCENT1 CUS0036051          R LEVERZENCIA                 00000000000000000000                21                      
903L001L5063200504094544892D23700011347001001387335098200000008500210525350   CRESCENT1 CUS0049425          A DANIELS                     00000000000000000000                21                      
903L001L5063200504094544892D23700011447001001501587224200000008500210525350   CRESCENT1 CUS0058218          Z JANODIEN                    00000000000000000000                21                      
903L001L5063200504094544892D23700011547001001191919011200000023500210525350   CRESCENT1 CUS0036095          I OGLE                        00000000000000000000                21                      
903L001L5063200504094544892D23700011605100100330630709100000008500210525350   CRESCENT1 CUS0049452          O ISMAIL                      00000000000000000000                21                      
903L001L5063200504094544892D23700011719876501138750913100000008500210525350   CRESCENT1 CUS0058225          K SOLOMON                     00000000000000000000                21                      
903L001L5063200504094544892D23700011825065562409236454100000008500210525350   CRESCENT1 CUS0036152          R ALAWIE                      00000000000000000000                21                      
903L001L5063200504094544892D23700011947001001349561868200000016000210525350   CRESCENT1 CUS0049535          F GALIEM                      00000000000000000000                21                      
903L001L5063200504094544892D23700012005100100136583199100000008500210525350   CRESCENT1 CUS0058248          R JEEWA                       00000000000000000000                21                      
903L001L5063200504094544892D23700012125065562078332732100000031000210525350   CRESCENT1 CUS0036166          A BHAYAT                      00000000000000000000                21                      
903L001L5063200504094544892D23700012225065562194538636100000008500210525350   CRESCENT1 CUS0049572          F COLLINS                     00000000000000000000                21                      
903L001L5063200504094544892D23700012347001001387894682200000008500210525350   CRESCENT1 CUS0058257          N REENEN                      00000000000000000000                21                      
903L001L5063200504094544892D23700012447001001700664091200000008500210525350   CRESCENT1 CUS0036575          F SHAH                        00000000000000000000                21                      
903L001L5063200504094544892D23700012505100100002801175100000008500210525350   CRESCENT1 CUS0049588          Y AHMEDMALL                   00000000000000000000                21                      
903L001L5063200504094544892D23700012663200509353179430100000008500210525350   CRESCENT1 CUS0058276          J JACKSON                     00000000000000000000                21                      
903L001L5063200504094544892D23700012705100100272456136100000008500210525350   CRESCENT1 CUS0036588          F SHAIKH                      00000000000000000000                21                      
903L001L5063200504094544892D23700012825065562750601728100000008500210525350   CRESCENT1 CUS0049608          T JATTIEM                     00000000000000000000                21                      
903L001L5063200504094544892D23700012925065562759918447100000008500210525350   CRESCENT1 CUS0058309          S ADAMS                       00000000000000000000                21                      
903L001L5063200504094544892D23700013005100100282686533100000008500210525350   CRESCENT1 CUS0000632          Y SALEJEE                     00000000000000000000                21                      
903L001L5063200504094544892D23700013163200500713801070100000008500210525350   CRESCENT1 CUS0036627          S ABDUL                       00000000000000000000                21                      
903L001L5063200504094544892D23700013263200509015006786100000008500210525350   CRESCENT1 CUS0049621          N LENNOX                      00000000000000000000                21                      
903L001L5063200504094544892D23700013347001001206160797200000008500210525350   CRESCENT1 CUS0058336          Z BUFFAINS                    00000000000000000000                21                      
903L001L5063200504094544892D23700013425065550519067538100000007500210525350   CRESCENT1 CUS0000790          A ADAMS                       00000000000000000000                21                      
903L001L5063200504094544892D23700013563200504086246371100000016000210525350   CRESCENT1 CUS0036832          A SAYED                       00000000000000000000                21                      
903L001L5063200504094544892D23700013625065562552303068100000008500210525350   CRESCENT1 CUS0049625          A HLOPHE                      00000000000000000000                21                      
903L001L5063200504094544892D23700013747001001651758318200000008500210525350   CRESCENT1 CUS0058348          M BOORANOODIEN                00000000000000000000                21                      
903L001L5063200504094544892D23700013819876501103111914100000008500210525350   CRESCENT1 CUS0000828          F HENDRICKS                   00000000000000000000                21                      
903L001L5063200504094544892D23700013919876501160955735100000008500210525350   CRESCENT1 CUS0036914          A UKAYE                       00000000000000000000                21                      
903L001L5063200504094544892D23700014063200509215355160100000008500210525350   CRESCENT1 CUS0049642          A PATEL                       00000000000000000000                21                      
903L001L5063200504094544892D23700014147001001627378233200000008500210525350   CRESCENT1 CUS0058400          B SAMUELS                     00000000000000000000                21                      
903L001L5063200504094544892D23700014225065550979019343100000016000210525350   CRESCENT1 CUS0000870          F BENN                        00000000000000000000                21                      
903L001L5063200504094544892D23700014305100100031007902100000008500210525350   CRESCENT1 CUS0037009          R MOHAMED                     00000000000000000000                21                      
903L001L5063200504094544892D23700014447001001140364160200000008500210525350   CRESCENT1 CUS0049657          F SOLOMON                     00000000000000000000                21                      
903L001L5063200504094544892D23700014547001001340060742200000016000210525350   CRESCENT1 CUS0058402          A TOPLEY                      00000000000000000000                21                      
903L001L5063200504094544892D23700014625065562538665277100000023500210525350   CRESCENT1 CUS0000902          N DAWOOD                      00000000000000000000                21                      
903L001L5063200504094544892D23700014725065562546696454100000008500210525350   CRESCENT1 CUS0037049          L EBRAHIM                     00000000000000000000                21                      
903L001L5063200504094544892D23700014819876501123470065100000008500210525350   CRESCENT1 CUS0049669          R MAHOMED                     00000000000000000000                21                      
903L001L5063200504094544892D23700014925065562365064981100000008500210525350   CRESCENT1 CUS0058405          R STRYDOM                     00000000000000000000                21                      
903L001L5063200504094544892D23700015025065562546118169100000008500210525350   CRESCENT1 CUS0001120          A GAFFOOR                     00000000000000000000                21                      
903L001L5063200504094544892D23700015105100100029094208100000008500210525350   CRESCENT1 CUS0037122          F MAHOMED                     00000000000000000000                21                      
903L001L5063200504094544892D23700015263200509187738462100000008500210525350   CRESCENT1 CUS0049779          R HAMMAN                      00000000000000000000                21                      
903L001L5063200504094544892D23700015347001001593167634200000008500210525350   CRESCENT1 CUS0058412          M ABRAHAMS                    00000000000000000000                21                      
903L001L5063200504094544892D23700015447001001472863079200000008500210525350   CRESCENT1 CUS0001217          R WOKSAM                      00000000000000000000                21                      
903L001L5063200504094544892D23700015563200504082726842100000008500210525350   CRESCENT1 CUS0037215          M BAYAT                       00000000000000000000                21                      
903L001L5063200504094544892D23700015663200504064620735100000008500210525350   CRESCENT1 CUS0049826          I SEEDAT                      00000000000000000000                21                      
903L001L5063200504094544892D23700015747001001181673761200000008500210525350   CRESCENT1 CUS0058416          A GEDULD                      00000000000000000000                21                      
903L001L5063200504094544892D23700015825065562010688838100000008500210525350   CRESCENT1 CUS0001323          S DICKINSON                   00000000000000000000                21                      
903L001L5063200504094544892D23700015905100100000161578100000007500210525350   CRESCENT1 CUS0037216          D ALLI                        00000000000000000000                21                      
903L001L5063200504094544892D23700016063200504086967979100000008500210525350   CRESCENT1 CUS0049837          S ETALLA                      00000000000000000000                21                      
903L001L5063200504094544892D23700016125065562591283818100000008500210525350   CRESCENT1 CUS0058453          R MALANDER                    00000000000000000000                21                      
903L001L5063200504094544892D23700016205100100011478845100000007500210525350   CRESCENT1 CUS0001369          O OMAR                        00000000000000000000                21                      
903L001L5063200504094544892D23700016325065562288363725100000008500210525350   CRESCENT1 CUS0037231          H WARYANA                     00000000000000000000                21                      
903L001L5063200504094544892D23700016425065562572880485100000008500210525350   CRESCENT1 CUS0049846          S JASSAT                      00000000000000000000                21                      
903L001L5063200504094544892D23700016525065562738176058100000008500210525350   CRESCENT1 CUS0058490          F SASMAN                      00000000000000000000                21                      
903L001L5063200504094544892D23700016619876501534006311100000008500210525350   CRESCENT1 CUS0001471          F DAWOOD                      00000000000000000000                21                      
903L001L5063200504094544892D23700016725065562332788887100000008500210525350   CRESCENT1 CUS0037634          M OSMAN                       00000000000000000000                21                      
903L001L5063200504094544892D23700016825065562567921484100000016000210525350   CRESCENT1 CUS0049892          A CHOTHIA                     00000000000000000000                21                      
903L001L5063200504094544892D23700016905100100277765331100000008500210525350   CRESCENT1 CUS0058527          M WALKER                      00000000000000000000                21                      
903L001L5063200504094544892D23700017025065562233986936100000016000210525350   CRESCENT1 CUS0001599          R SAINT                       00000000000000000000                21                      
903L001L5063200504094544892D23700017163200509066731385100000016000210525350   CRESCENT1 CUS0037772          F RYKLIEF                     00000000000000000000                21                      
903L001L5063200504094544892D23700017225065560026845947100000008500210525350   CRESCENT1 CUS0049976          S MOHAMMED                    00000000000000000000                21                      
903L001L5063200504094544892D23700017347001001547477766200000008500210525350   CRESCENT1 CUS0058532          A ADAMS                       00000000000000000000                21                      
903L001L5063200504094544892D23700017470150511333414779200000008500210525350   CRESCENT1 CUS0001648          Z MOHAMMED                    00000000000000000000                21                      
903L001L5063200504094544892D23700017525065562128892363100000015400210525350   CRESCENT1 CUS0037820          M DADAMIA                     00000000000000000000                21                      
903L001L5063200504094544892D23700017625065562441576058100000008500210525350   CRESCENT1 CUS0050000          S SAMSON                      00000000000000000000                21                      
903L001L5063200504094544892D23700017725065562061192200100000008500210525350   CRESCENT1 CUS0058537          D HUNTER                      00000000000000000000                21                      
903L001L5063200504094544892D23700017825065562683191565100000015400210525350   CRESCENT1 CUS0001676          Y EBRAHIM                     00000000000000000000                21                      
903L001L5063200504094544892D23700017925065562358224568100000008500210525350   CRESCENT1 CUS0038114          A KADER                       00000000000000000000                21                      
903L001L5063200504094544892D23700018019876501142892794100000008500210525350   CRESCENT1 CUS0050018          Z BASSA                       00000000000000000000                21                      
903L001L5063200504094544892D23700018119876501151160172100000006900210525350   CRESCENT1 CUS0058549          M KARANIE                     00000000000000000000                21                      
903L001L5063200504094544892D23700018225065562358952127100000008500210525350   CRESCENT1 CUS0001737          M CASSIM                      00000000000000000000                21                      
903L001L5063200504094544892D23700018305100110096261380100000016000210525350   CRESCENT1 CUS0038123          A GOOLAM                      00000000000000000000                21                      
903L001L5063200504094544892D23700018425065562883938113100000008500210525350   CRESCENT1 CUS0050161          A ADAMS                       00000000000000000000                21                      
903L001L5063200504094544892D23700018525065562397810360100000008500210525350   CRESCENT1 CUS0058632          F HARDING                     00000000000000000000                21                      
903L001L5063200504094544892D23700018605100100002517892100000008500210525350   CRESCENT1 CUS0001798          M AMOD                        00000000000000000000                21                      
903L001L5063200504094544892D23700018725065550931168063100000008500210525350   CRESCENT1 CUS0038169          F AHMED                       00000000000000000000                21                      
903L001L5063200504094544892D23700018825065562462520422100000008500210525350   CRESCENT1 CUS0050204          G PRETORIUS                   00000000000000000000                21                      
903L001L5063200504094544892D23700018925065562301436269100000008500210525350   CRESCENT1 CUS0058644          N WILLIAMS                    00000000000000000000                21                      
903L001L5063200504094544892D23700019025065562687462160100000016000210525350   CRESCENT1 CUS0002202          N DHAJEE                      00000000000000000000                21                      
903L001L5063200504094544892D23700019119876502255241765200000016000210525350   CRESCENT1 CUS0038242          M MAJIET                      00000000000000000000                21                      
903L001L5063200504094544892D23700019225065550811117437100000008500210525350   CRESCENT1 CUS0050226          M SOOMAR                      00000000000000000000                21                      
903L001L5063200504094544892D23700019325065562540987271100000008500210525350   CRESCENT1 CUS0058645          Z GALLIE                      00000000000000000000                21                      
903L001L5063200504094544892D23700019463200504083902237100000031000210525350   CRESCENT1 CUS0002629          A RAHIM                       00000000000000000000                21                      
903L001L5063200504094544892D23700019547001001747782015200000008500210525350   CRESCENT1 CUS0038266          S ZUMA                        00000000000000000000                21                      
903L001L5063200504094544892D23700019647001001152361498200000008500210525350   CRESCENT1 CUS0050234          N LENNOX                      00000000000000000000                21                      
903L001L5063200504094544892D23700019719876501129827070100000008500210525350   CRESCENT1 CUS0058668          R PILLAY                      00000000000000000000                21                      
903L001L5063200504094544892D23700019825065562412721202100000008500210525350   CRESCENT1 CUS0002816          W KHAN                        00000000000000000000                21                      
903L001L5063200504094544892D23700019919876502908870835200000008500210525350   CRESCENT1 CUS0038271          M WILLIAMS                    00000000000000000000                21                      
903L001L5063200504094544892D23700020025065562135605288100000008500210525350   CRESCENT1 CUS0050240          A SAMSODIEN                   00000000000000000000                21                      
903L001L5063200504094544892D23700020105100110093804979100000008500210525350   CRESCENT1 CUS0058676          I HENDRICKS                   00000000000000000000                21                      
903L001L5063200504094544892D23700020205100100001634305100000008500210525350   CRESCENT1 CUS0003110          F MAHOMED                     00000000000000000000                21                      
903L001L5063200504094544892D23700020347001001221104770200000016000210525350   CRESCENT1 CUS0038341          S SAMUEL                      00000000000000000000                21                      
903L001L5063200504094544892D23700020419876501076400736100000008500210525350   CRESCENT1 CUS0050262          M ARIEFDIEN                   00000000000000000000                21                      
903L001L5063200504094544892D23700020547001001643181732200000008500210525350   CRESCENT1 CUS0058678          S DAVIDS                      00000000000000000000                21                      
903L001L5063200504094544892D23700020625065562318794121100000016000210525350   CRESCENT1 CUS0003230          E BHANA                       00000000000000000000                21                      
903L001L5063200504094544892D23700020725065562352064100100000016000210525350   CRESCENT1 CUS0038365          N SMITH                       00000000000000000000                21                      
903L001L5063200504094544892D23700020847001001449786128200000008500210525350   CRESCENT1 CUS0050343          S ABRAHAMS                    00000000000000000000                21                      
903L001L5063200504094544892D23700020919876501108449263100000008500210525350   CRESCENT1 CUS0058683          S SNAYERS                     00000000000000000000                21                      
903L001L5063200504094544892D23700021057010500041007178100000008500210525350   CRESCENT1 CUS0003234          A DOCKRAT                     00000000000000000000                21                      
903L001L5063200504094544892D23700021119876501204995419100000030400210525350   CRESCENT1 CUS0038387          A DAVIES                      00000000000000000000                21                      
903L001L5063200504094544892D23700021225065562111020111100000008500210525350   CRESCENT1 CUS0050429          Z JAKOET                      00000000000000000000                21                      
903L001L5063200504094544892D23700021347001001505990848200000008500210525350   CRESCENT1 CUS0058689          I AMLAY                       00000000000000000000                21                      
903L001L5063200504094544892D23700021425065562029315597100000008500210525350   CRESCENT1 CUS0003261          Z AKOODI                      00000000000000000000                21                      
903L001L5063200504094544892D23700021525065562283411488100000008500210525350   CRESCENT1 CUS0038398          S BELIM                       00000000000000000000                21                      
903L001L5063200504094544892D23700021625065562519177085100000008500210525350   CRESCENT1 CUS0050538          M ADAMS                       00000000000000000000                21                      
903L001L5063200504094544892D23700021705100110088772223100000008500210525350   CRESCENT1 CUS0058692          M DAVIDS                      00000000000000000000                21                      
903L001L5063200504094544892D23700021805100100242584063100000008500210525350   CRESCENT1 CUS0003294          S DOMINGO                     00000000000000000000                21                      
903L001L5063200504094544892D23700021947001001308844318200000008500210525350   CRESCENT1 CUS0038529          A FUNDI                       00000000000000000000                21                      
903L001L5063200504094544892D23700022063200509123703453100000008500210525350   CRESCENT1 CUS0050546          S BROWN                       00000000000000000000                21                      
903L001L5063200504094544892D23700022105100110055886904100000008500210525350   CRESCENT1 CUS0058721          H MAHOMED                     00000000000000000000                21                      
903L001L5063200504094544892D23700022225065562425247550100000008500210525350   CRESCENT1 CUS0003339          M JHETAM                      00000000000000000000                21                      
903L001L5063200504094544892D23700022363200509091153453100000016000210525350   CRESCENT1 CUS0038562          Z BHAYAT                      00000000000000000000                21                      
903L001L5063200504094544892D23700022447001001467183693200000008500210525350   CRESCENT1 CUS0050562          Z DREYDEN                     00000000000000000000                21                      
903L001L5063200504094544892D23700022547001001251697257200000008500210525350   CRESCENT1 CUS0058777          I JUDAAR                      00000000000000000000                21                      
903L001L5063200504094544892D23700022605100110135320664100000008500210525350   CRESCENT1 CUS0003347          N LIEBENBERG                  00000000000000000000                21                      
903L001L5063200504094544892D23700022725065562771926569100000008500210525350   CRESCENT1 CUS0038708          S LAWRENCE                    00000000000000000000                21                      
903L001L5063200504094544892D23700022863200504089965247100000008500210525350   CRESCENT1 CUS0050776          R KUMANDAN                    00000000000000000000                21                      
903L001L5063200504094544892D23700022947001001647256397200000008500210525350   CRESCENT1 CUS0058779          R ISAACS                      00000000000000000000                21                      
903L001L5063200504094544892D23700023005100100207777683100000008500210525350   CRESCENT1 CUS0003476          R NAKKOODA                    00000000000000000000                21                      
903L001L5063200504094544892D23700023105100100388081147100000008500210525350   CRESCENT1 CUS0038715          M MAYET                       00000000000000000000                21                      
903L001L5063200504094544892D23700023225065562611324964100000008500210525350   CRESCENT1 CUS0050780          J BAKHARIA                    00000000000000000000                21                      
903L001L5063200504094544892D23700023325065562191565583100000008500210525350   CRESCENT1 CUS0058788          G ABDUL                       00000000000000000000                21                      
903L001L5063200504094544892D23700023425065562166306102100000016000210525350   CRESCENT1 CUS0003634          K KLINCK                      00000000000000000000                21                      
903L001L5063200504094544892D23700023519876501077914105100000008500210525350   CRESCENT1 CUS0038739          A GANGAT                      00000000000000000000                21                      
903L001L5063200504094544892D23700023605100100079111203100000008500210525350   CRESCENT1 CUS0050872          S TITUS                       00000000000000000000                21                      
903L001L5063200504094544892D23700023719876501725006677100000008500210525350   CRESCENT1 CUS0058794          M ADAMS                       00000000000000000000                21                      
903L001L5063200504094544892D23700023863200509292689241100000016000210525350   CRESCENT1 CUS0003774          S FAKIR                       00000000000000000000                21                      
903L001L5063200504094544892D23700023947001001274951591200000023500210525350   CRESCENT1 CUS0038758          C HASSEN                      00000000000000000000                21                      
903L001L5063200504094544892D23700024019876501009483196100000008500210525350   CRESCENT1 CUS0050890          F WILLENBERG                  00000000000000000000                21                      
903L001L5063200504094544892D23700024125065562396123285100000008500210525350   CRESCENT1 CUS0058833          S BHAYLA                      00000000000000000000                21                      
903L001L5063200504094544892D23700024219876502234073510200000038500210525350   CRESCENT1 CUS0004344          A ISMAIL                      00000000000000000000                21                      
903L001L5063200504094544892D23700024305100110075604475100000008500210525350   CRESCENT1 CUS0038760          Z JOGEE                       00000000000000000000                21                      
903L001L5063200504094544892D23700024419876501045598178100000008500210525350   CRESCENT1 CUS0050898          M VRACHEN                     00000000000000000000                21                      
903L001L5063200504094544892D23700024547001001491913515200000006900210525350   CRESCENT1 CUS0058886          S DAVIDS                      00000000000000000000                21                      
903L001L5063200504094544892D23700024625065562164274369100000008500210525350   CRESCENT1 CUS0004347          Z ALLI                        00000000000000000000                21                      
903L001L5063200504094544892D23700024719876502591386854200000008500210525350   CRESCENT1 CUS0039065          M YUSUF KAMBONE               00000000000000000000                21                      
903L001L5063200504094544892D23700024805100100001687824100000008500210525350   CRESCENT1 CUS0050917          M HAYA                        00000000000000000000                21                      
903L001L5063200504094544892D23700024963200509302588769100000006900210525350   CRESCENT1 CUS0058915          S KRIEL                       00000000000000000000                21                      
903L001L5063200504094544892D23700025047001001256882168200000016000210525350   CRESCENT1 CUS0004481          N HOOSEN                      00000000000000000000                21                      
903L001L5063200504094544892D23700025125065551070221415100000008500210525350   CRESCENT1 CUS0039312          R DOCRAT                      00000000000000000000                21                      
903L001L5063200504094544892D23700025205100100039127834100000008500210525350   CRESCENT1 CUS0050942          Z OMAR                        00000000000000000000                21                      
903L001L5063200504094544892D23700025325065562632009975100000006900210525350   CRESCENT1 CUS0058930          T MUHAMMAD                    00000000000000000000                21                      
903L001L5063200504094544892D23700025425065562337750914100000008500210525350   CRESCENT1 CUS0004495          A HANSA                       00000000000000000000                21                      
903L001L5063200504094544892D23700025525065562543287818100000008500210525350   CRESCENT1 CUS0039368          R MEERA                       00000000000000000000                21                      
903L001L5063200504094544892D23700025663200509253878342100000008500210525350   CRESCENT1 CUS0050945          S HARRISON                    00000000000000000000                21                      
903L001L5063200504094544892D23700025747001001379943831200000008500210525350   CRESCENT1 CUS0058977          S CHAUDHARY                   00000000000000000000                21                      
903L001L5063200504094544892D23700025805100100020900910100000008500210525350   CRESCENT1 CUS0004684          I ASNAL                       00000000000000000000                21                      
903L001L5063200504094544892D23700025905100100051443880100000008500210525350   CRESCENT1 CUS0039390          F DAWOOD                      00000000000000000000                21                      
903L001L5063200504094544892D23700026005100100242912001100000008500210525350   CRESCENT1 CUS0050948          N DALWAI                      00000000000000000000                21                      
903L001L5063200504094544892D23700026147001001735655846200000008500210525350   CRESCENT1 CUS0058990          I JOHNSON                     00000000000000000000                21                      
903L001L5063200504094544892D23700026263200509285092122100000007500210525350   CRESCENT1 CUS0005029          R BULBULIA                    00000000000000000000                21                      
903L001L5063200504094544892D23700026305100100272131466100000008500210525350   CRESCENT1 CUS0039402          M ROOS                        00000000000000000000                21                      
903L001L5063200504094544892D23700026405100100200268546100000008500210525350   CRESCENT1 CUS0051006          Z ABRAHAMS                    00000000000000000000                21                      
903L001L5063200504094544892D23700026547001001681931212200000008500210525350   CRESCENT1 CUS0058999          Z LARNEY                      00000000000000000000                21                      
903L001L5063200504094544892D23700026605100100201487640100000008500210525350   CRESCENT1 CUS0005057          Z ABRAHAMS                    00000000000000000000                21                      
903L001L5063200504094544892D23700026747001001253520974200000008500210525350   CRESCENT1 CUS0039403          M BAZIER                      00000000000000000000                21                      
903L001L5063200504094544892D23700026819876502970658151200000007500210525350   CRESCENT1 CUS0051052          M SMITH                       00000000000000000000                21                      
903L001L5063200504094544892D23700026925065562697954967100000008500210525350   CRESCENT1 CUS0059033          Y HOWELL                      00000000000000000000                21                      
903L001L5063200504094544892D23700027005100110113614428100000008500210525350   CRESCENT1 CUS0005181          K JOB                         00000000000000000000                21                      
903L001L5063200504094544892D23700027119876501188070290100000008500210525350   CRESCENT1 CUS0039569          G WILLIAMS                    00000000000000000000                21                      
903L001L5063200504094544892D23700027219876501076773478100000008500210525350   CRESCENT1 CUS0051087          W LILLAH                      00000000000000000000                21                      
903L001L5063200504094544892D23700027347001001499454307200000008500210525350   CRESCENT1 CUS0059082          A MOSES                       00000000000000000000                21                      
903L001L5063200504094544892D23700027419876501033454702100000008500210525350   CRESCENT1 CUS0005314          F LONGTONG                    00000000000000000000                21                      
903L001L5063200504094544892D23700027563200509066680772100000008500210525350   CRESCENT1 CUS0039748          A PYLMAN                      00000000000000000000                21                      
903L001L5063200504094544892D23700027647001001399054382200000016000210525350   CRESCENT1 CUS0051106          A THORNE                      00000000000000000000                21                      
903L001L5063200504094544892D23700027719876501956822283100000016000210525350   CRESCENT1 CUS0059086          E ISAACS                      00000000000000000000                21                      
903L001L5063200504094544892D23700027825065562716488285100000016000210525350   CRESCENT1 CUS0005598          D SINGH                       00000000000000000000                21                      
903L001L5063200504094544892D23700027905100100276400445100000016000210525350   CRESCENT1 CUS0039801          F OLIVIER                     00000000000000000000                21                      
903L001L5063200504094544892D23700028005100100032682492100000008500210525350   CRESCENT1 CUS0051113          J BARNS                       00000000000000000000                21                      
903L001L5063200504094544892D23700028125065562028757964100000006900210525350   CRESCENT1 CUS0059138          A SABLAY                      00000000000000000000                21                      
903L001L5063200504094544892D23700028219876501003165575100000008500210525350   CRESCENT1 CUS0005702          S SALLIE                      00000000000000000000                21                      
903L001L5063200504094544892D23700028363200509156525276100000008500210525350   CRESCENT1 CUS0039939          F JOHNSON                     00000000000000000000                21                      
903L001L5063200504094544892D23700028463200504054461715100000008500210525350   CRESCENT1 CUS0051127          M CARELSE                     00000000000000000000                21                      
903L001L5063200504094544892D23700028525065562655689704100000008500210525350   CRESCENT1 CUS0059141          Z MATTHEWS                    00000000000000000000                21                      
903L001L5063200504094544892D23700028663200509065303436100000008500210525350   CRESCENT1 CUS0005712          T RAYMAN                      00000000000000000000                21                      
903L001L5063200504094544892D23700028747001001262141395200000008500210525350   CRESCENT1 CUS0039962          I PATEL                       00000000000000000000                21                      
903L001L5063200504094544892D23700028825065562485253696100000008500210525350   CRESCENT1 CUS0051129          Z BEGG                        00000000000000000000                21                      
903L001L5063200504094544892D23700028947001001338690289200000007500210525350   CRESCENT1 CUS0059154          K KIMMIE                      00000000000000000000                21                      
903L001L5063200504094544892D23700029047001001655331572200000008500210525350   CRESCENT1 CUS0005749          R GABIER                      00000000000000000000                21                      
903L001L5063200504094544892D23700029105100100272916366100000008500210525350   CRESCENT1 CUS0039997          G HAFFEJEE                    00000000000000000000                21                      
903L001L5063200504094544892D23700029225065562696940503100000008500210525350   CRESCENT1 CUS0051136          R ABED                        00000000000000000000                21                      
903L001L5063200504094544892D23700029325065562747842385100000008500210525350   CRESCENT1 CUS0059156          R ALLISON                     00000000000000000000                21                      
903L001L5063200504094544892D23700029425065562080231683100000008500210525350   CRESCENT1 CUS0005938          S CASSIM                      00000000000000000000                21                      
903L001L5063200504094544892D23700029525065562437920095100000008500210525350   CRESCENT1 CUS0040366          M RAWOO                       00000000000000000000                21                      
903L001L5063200504094544892D23700029625065562797611285100000008500210525350   CRESCENT1 CUS0051153          F DESAI                       00000000000000000000                21                      
903L001L5063200504094544892D23700029747001001248367578200000008500210525350   CRESCENT1 CUS0059159          R SAMSODIEN                   00000000000000000000                21                      
903L001L5063200504094544892D23700029825065562254794582100000016000210525350   CRESCENT1 CUS0005984          A MOOLA                       00000000000000000000                21                      
903L001L5063200504094544892D23700029905100100005342430100000023500210525350   CRESCENT1 CUS0040368          A FAKROODEEN                  00000000000000000000                21                      
903L001L5063200504094544892D23700030047001001543833924200000008500210525350   CRESCENT1 CUS0051176          Z COOK                        00000000000000000000                21                      
903L001L5063200504094544892D23700030147001001366513809200000008500210525350   CRESCENT1 CUS0059163          S TOYER                       00000000000000000000                21                      
903L001L5063200504094544892D23700030225065551250556898100000008500210525350   CRESCENT1 CUS0006132          M MIA                         00000000000000000000                21                      
903L001L5063200504094544892D23700030347001001227620037200000008500210525350   CRESCENT1 CUS0040369          M CROTZ                       00000000000000000000                21                      
903L001L5063200504094544892D23700030463200509142744529100000008500210525350   CRESCENT1 CUS0051264          Y MIA                         00000000000000000000                21                      
903L001L5063200504094544892D23700030525065562000816712100000008500210525350   CRESCENT1 CUS0059167          S COETZEE                     00000000000000000000                21                      
903L001L5063200504094544892D23700030605100100033256519100000008500210525350   CRESCENT1 CUS0006373          A JEEWA                       00000000000000000000                21                      
903L001L5063200504094544892D23700030719876501778019501100000008500210525350   CRESCENT1 CUS0040507          R EBRAHIM                     00000000000000000000                21                      
903L001L5063200504094544892D23700030805100100406158053100000008500210525350   CRESCENT1 CUS0051276          F MAHAMOOD                    00000000000000000000                21                      
903L001L5063200504094544892D23700030905100100277627222100000008500210525350   CRESCENT1 CUS0059176          I SAFTER                      00000000000000000000                21                      
903L001L5063200504094544892D23700031025065550461107135100000008500210525350   CRESCENT1 CUS0006412          A FIEDERICKS                  00000000000000000000                21                      
903L001L5063200504094544892D23700031105100100009239871100000008500210525350   CRESCENT1 CUS0040939          I ESSOP                       00000000000000000000                21                      
903L001L5063200504094544892D23700031205100110066767103100000016000210525350   CRESCENT1 CUS0051285          A SASMAN                      00000000000000000000                21                      
903L001L5063200504094544892D23700031347001001478547292200000008500210525350   CRESCENT1 CUS0059180          N SAUL                        00000000000000000000                21                      
903L001L5063200504094544892D23700031447001001421827334200000008500210525350   CRESCENT1 CUS0006514          F ADRIAANSE                   00000000000000000000                21                      
903L001L5063200504094544892D23700031525065562199660137100000016000210525350   CRESCENT1 CUS0040949          M KHAN                        00000000000000000000                21                      
903L001L5063200504094544892D23700031647001001140547273200000008500210525350   CRESCENT1 CUS0051318          S MOHAMED                     00000000000000000000                21                      
903L001L5063200504094544892D23700031719876501160515212100000008500210525350   CRESCENT1 CUS0059187          Y JUDAAR                      00000000000000000000                21                      
903L001L5063200504094544892D23700031863200509086468831100000008500210525350   CRESCENT1 CUS0006654          M MAHOMED                     00000000000000000000                21                      
903L001L5063200504094544892D23700031925065562352465506100000008500210525350   CRESCENT1 CUS0040982          S MAJID                       00000000000000000000                21                      
903L001L5063200504094544892D23700032047001001227262254200000008500210525350   CRESCENT1 CUS0051334          M APHIRI                      00000000000000000000                21                      
903L001L5063200504094544892D23700032125065562446732499100000008500210525350   CRESCENT1 CUS0059191          M SEPTEMBER                   00000000000000000000                21                      
903L001L5063200504094544892D23700032263200504080522169100000008500210525350   CRESCENT1 CUS0006696          S MOHAMMED                    00000000000000000000                21                      
903L001L5063200504094544892D23700032380000078600096214200000023500210525350   CRESCENT1 CUS0041153          A SHEIK                       00000000000000000000                21                      
903L001L5063200504094544892D23700032447001001378471901200000008500210525350   CRESCENT1 CUS0051335          M KAREEM                      00000000000000000000                21                      
903L001L5063200504094544892D23700032547001001245220169200000008500210525350   CRESCENT1 CUS0059194          A ARENDSE                     00000000000000000000                21                      
903L001L5063200504094544892D23700032625065562402335930100000016000210525350   CRESCENT1 CUS0006697          B SIRKHOTH                    00000000000000000000                21                      
903L001L5063200504094544892D23700032763200509362023387100000008500210525350   CRESCENT1 CUS0041172          S CASSIM                      00000000000000000000                21                      
903L001L5063200504094544892D23700032847001001637649264200000008500210525350   CRESCENT1 CUS0051343          F DAWOOD                      00000000000000000000                21                      
903L001L5063200504094544892D23700032963200509192461822100000008500210525350   CRESCENT1 CUS0059224          N HENDRICKS                   00000000000000000000                21                      
903L001L5063200504094544892D23700033005100100017619262100000023500210525350   CRESCENT1 CUS0006811          N CARRIM                      00000000000000000000                21                      
903L001L5063200504094544892D23700033125065562129881943100000016000210525350   CRESCENT1 CUS0041220          G JACOBS                      00000000000000000000                21                      
903L001L5063200504094544892D23700033225065562109449282100000008500210525350   CRESCENT1 CUS0051348          M AREND                       00000000000000000000                21                      
903L001L5063200504094544892D23700033319876501092619976100000008500210525350   CRESCENT1 CUS0059227          Z TOYER                       00000000000000000000                21                      
903L001L5063200504094544892D23700033425065562270186929100000016000210525350   CRESCENT1 CUS0007131          M WAJA                        00000000000000000000                21                      
903L001L5063200504094544892D23700033563200509162925642100000008500210525350   CRESCENT1 CUS0041231          F ADAM                        00000000000000000000                21                      
903L001L5063200504094544892D23700033605100100021598223100000008500210525350   CRESCENT1 CUS0051371          S ESSOP                       00000000000000000000                21                      
903L001L5063200504094544892D23700033746200510284031301200000008500210525350   CRESCENT1 CUS0059230          R DE VRIES                    00000000000000000000                21                      
903L001L5063200504094544892D23700033819876501001126696100000031000210525350   CRESCENT1 CUS0007185          A PANDOR                      00000000000000000000                21                      
903L001L5063200504094544892D23700033925065562651634769100000023500210525350   CRESCENT1 CUS0041396          K ABASS                       00000000000000000000                21                      
903L001L5063200504094544892D23700034047001001192999299200000008500210525350   CRESCENT1 CUS0051402          F MOOSA                       00000000000000000000                21                      
903L001L5063200504094544892D23700034163200504096454057100000008500210525350   CRESCENT1 CUS0059266          M JACOBS                      00000000000000000000                21                      
903L001L5063200504094544892D23700034263200509050107734100000006900210525350   CRESCENT1 CUS0007373          M HASSIM                      00000000000000000000                21                      
903L001L5063200504094544892D23700034319876501050417100100000008500210525350   CRESCENT1 CUS0041413          E PARKER                      00000000000000000000                21                      
903L001L5063200504094544892D23700034405100100073384313100000008500210525350   CRESCENT1 CUS0051436          M GALLIE                      00000000000000000000                21                      
903L001L5063200504094544892D23700034525065562553505846100000008500210525350   CRESCENT1 CUS0059274          M KARRIEM                     00000000000000000000                21                      
903L001L5063200504094544892D23700034619876501042727368100000023500210525350   CRESCENT1 CUS0007603          I JAKOET                      00000000000000000000                21                      
903L001L5063200504094544892D23700034763200504091334224100000016000210525350   CRESCENT1 CUS0041455          M ABRAHAMS                    00000000000000000000                21                      
903L001L5063200504094544892D23700034805100100009237550100000008500210525350   CRESCENT1 CUS0051501          T MOOSA                       00000000000000000000                21                      
903L001L5063200504094544892D23700034919876501128183838100000008500210525350   CRESCENT1 CUS0059300          N DE VILLIERS                 00000000000000000000                21                      
903L001L5063200504094544892D23700035057010511901206899200000008500210525350   CRESCENT1 CUS0007605          Y KAROLIA                     00000000000000000000                21                      
903L001L5063200504094544892D23700035163200504067770311100000008500210525350   CRESCENT1 CUS0041537          M CHARFARY                    00000000000000000000                21                      
903L001L5063200504094544892D23700035205100100070763755100000016000210525350   CRESCENT1 CUS0051522          M SADIE                       00000000000000000000                21                      
903L001L5063200504094544892D23700035347001001506963879200000008500210525350   CRESCENT1 CUS0059310          N THWALA                      00000000000000000000                21                      
903L001L5063200504094544892D23700035425065560529160785100000016000210525350   CRESCENT1 CUS0007704          I JAFFER                      00000000000000000000                21                      
903L001L5063200504094544892D23700035525065562011444205100000008500210525350   CRESCENT1 CUS0041576          S NAVSA                       00000000000000000000                21                      
903L001L5063200504094544892D23700035625065562686105282100000008500210525350   CRESCENT1 CUS0051653          M ROSENBERG                   00000000000000000000                21                      
903L001L5063200504094544892D23700035747001001579670472200000008500210525350   CRESCENT1 CUS0059345          T SALIE                       00000000000000000000                21                      
903L001L5063200504094544892D23700035825065560502089358100000007500210525350   CRESCENT1 CUS0007865          A ESSOP RAVAT                 00000000000000000000                21                      
903L001L5063200504094544892D23700035905100100073076597100000008500210525350   CRESCENT1 CUS0041597          I ISMAIL                      00000000000000000000                21                      
903L001L5063200504094544892D23700036005100100240415051100000008500210525350   CRESCENT1 CUS0051674          S SALLIE                      00000000000000000000                21                      
903L001L5063200504094544892D23700036105100110140385493100000008500210525350   CRESCENT1 CUS0059363          F DAVIDS                      00000000000000000000                21                      
903L001L5063200504094544892D23700036205100100130724777100000008500210525350   CRESCENT1 CUS0008068          K RAGIE                       00000000000000000000                21                      
903L001L5063200504094544892D23700036305100100060030615100000008500210525350   CRESCENT1 CUS0041616          M BAYAT                       00000000000000000000                21                      
903L001L5063200504094544892D23700036419876501087306299100000008500210525350   CRESCENT1 CUS0051817          F MAXINIVA                    00000000000000000000                21                      
903L001L5063200504094544892D23700036525065551330807319100000008500210525350   CRESCENT1 CUS0059383          R FIRFIREY                    00000000000000000000                21                      
903L001L5063200504094544892D23700036625065562728031006100000008500210525350   CRESCENT1 CUS0008070          R HENDRICKS                   00000000000000000000                21                      
903L001L5063200504094544892D23700036763200504080763098100000008500210525350   CRESCENT1 CUS0041626          Z RILEY                       00000000000000000000                21                      
903L001L5063200504094544892D23700036805100100300632584100000008500210525350   CRESCENT1 CUS0051833          F DEMPERS                     00000000000000000000                21                      
903L001L5063200504094544892D23700036947001001496644369200000008500210525350   CRESCENT1 CUS0059392          I DAWOOD                      00000000000000000000                21                      
903L001L5063200504094544892D23700037063200509248581629100000016000210525350   CRESCENT1 CUS0008223          A TIMMS                       00000000000000000000                21                      
903L001L5063200504094544892D23700037163200500710297665100000008500210525350   CRESCENT1 CUS0041645          M JOULEY                      00000000000000000000                21                      
903L001L5063200504094544892D23700037219876501053240554100000007500210525350   CRESCENT1 CUS0051875          F ROSKIN                      00000000000000000000                21                      
903L001L5063200504094544892D23700037347001001516846700200000008500210525350   CRESCENT1 CUS0059418          T KARIEM                      00000000000000000000                21                      
903L001L5063200504094544892D23700037463200504055544972100000016000210525350   CRESCENT1 CUS0008268          A SURTEE                      00000000000000000000                21                      
903L001L5063200504094544892D23700037563200509042171262100000008500210525350   CRESCENT1 CUS0041658          E SIMON                       00000000000000000000                21                      
903L001L5063200504094544892D23700037619876501051656508100000008500210525350   CRESCENT1 CUS0051960          R MIA                         00000000000000000000                21                      
903L001L5063200504094544892D23700037747001001241379791200000008500210525350   CRESCENT1 CUS0059434          S MAHOMED                     00000000000000000000                21                      
903L001L5063200504094544892D23700037805100110091443685100000008500210525350   CRESCENT1 CUS0008376          S ALLAWOODEEN                 00000000000000000000                21                      
903L001L5063200504094544892D23700037905100100071091297100000008500210525350   CRESCENT1 CUS0041691          L PATEL                       00000000000000000000                21                      
903L001L5063200504094544892D23700038025065562182432478100000008500210525350   CRESCENT1 CUS0051974          A ISMAIL                      00000000000000000000                21                      
903L001L5063200504094544892D23700038119876501169924697100000006900210525350   CRESCENT1 CUS0059448          R ABRAHAMS                    00000000000000000000                21                      
903L001L5063200504094544892D23700038219876501104769662100000016000210525350   CRESCENT1 CUS0008459          M SHAIK                       00000000000000000000                21                      
903L001L5063200504094544892D23700038325065562536138127100000008500210525350   CRESCENT1 CUS0041704          S ADAMS                       00000000000000000000                21                      
903L001L5063200504094544892D23700038425065554240012656100000008500210525350   CRESCENT1 CUS0052020          G CHICKTAY                    00000000000000000000                21                      
903L001L5063200504094544892D23700038547001001307305626200000008500210525350   CRESCENT1 CUS0059459          L EKSTEEN                     00000000000000000000                21                      
903L001L5063200504094544892D23700038619876501925074595100000008500210525350   CRESCENT1 CUS0008496          F BOOMGAARD                   00000000000000000000                21                      
903L001L5063200504094544892D23700038705100100401413403100000008500210525350   CRESCENT1 CUS0041757          M SUBJEE                      00000000000000000000                21                      
903L001L5063200504094544892D23700038847001001387103081200000016000210525350   CRESCENT1 CUS0052045          A SEDAN                       00000000000000000000                21                      
903L001L5063200504094544892D23700038947001001476977044200000008500210525350   CRESCENT1 CUS0059461          N HALIEM                      00000000000000000000                21                      
903L001L5063200504094544892D23700039025065562084049256100000008500210525350   CRESCENT1 CUS0008684          Z DESAI                       00000000000000000000                21                      
903L001L5063200504094544892D23700039125065560528466663100000008500210525350   CRESCENT1 CUS0041774          R ADAMS                       00000000000000000000                21                      
903L001L5063200504094544892D23700039219876501050620771100000016000210525350   CRESCENT1 CUS0052051          J SCHIPPERS                   00000000000000000000                21                      
903L001L5063200504094544892D23700039347001001343035846200000008500210525350   CRESCENT1 CUS0059482          Z MANUEL                      00000000000000000000                21                      
903L001L5063200504094544892D23700039447001001619704089200000016000210525350   CRESCENT1 CUS0008722          A MOOLA                       00000000000000000000                21                      
903L001L5063200504094544892D23700039505100100071989145100000008500210525350   CRESCENT1 CUS0041871          A HALDAY                      00000000000000000000                21                      
903L001L5063200504094544892D23700039647001001158799495200000008500210525350   CRESCENT1 CUS0052057          R SONDAY                      00000000000000000000                21                      
903L001L5063200504094544892D23700039725065562858156112100000008500210525350   CRESCENT1 CUS0059497          R BROWN                       00000000000000000000                21                      
903L001L5063200504094544892D23700039825065562025561508100000016000210525350   CRESCENT1 CUS0008789          F MOOLLA                      00000000000000000000                21                      
903L001L5063200504094544892D23700039925065554939007968100000007500210525350   CRESCENT1 CUS0041896          F ZARDAD                      00000000000000000000                21                      
903L001L5063200504094544892D23700040005100100081472625100000008500210525350   CRESCENT1 CUS0052060          F AMARDIEN                    00000000000000000000                21                      
903L001L5063200504094544892D23700040125065562698099077100000008500210525350   CRESCENT1 CUS0059539          N TITUS                       00000000000000000000                21                      
903L001L5063200504094544892D23700040205100100332685020100000014400210525350   CRESCENT1 CUS0009066          E FAKIR                       00000000000000000000                21                      
903L001L5063200504094544892D23700040305100100021707731100000016000210525350   CRESCENT1 CUS0041936          E KHAMISSA                    00000000000000000000                21                      
903L001L5063200504094544892D23700040447001001449462195200000008500210525350   CRESCENT1 CUS0052258          A ADAMS                       00000000000000000000                21                      
903L001L5063200504094544892D23700040563200504056669816100000007500210525350   CRESCENT1 CUS0059541          N GALIEM                      00000000000000000000                21                      
903L001L5063200504094544892D23700040625065562799172483100000008500210525350   CRESCENT1 CUS0009090          R DAVIDS                      00000000000000000000                21                      
903L001L5063200504094544892D23700040705100100273238795100000008500210525350   CRESCENT1 CUS0041959          E MOTARA                      00000000000000000000                21                      
903L001L5063200504094544892D23700040805100100270749519100000008500210525350   CRESCENT1 CUS0052314          L KHAN                        00000000000000000000                21                      
903L001L5063200504094544892D23700040947001001460571248200000008500210525350   CRESCENT1 CUS0059570          Y MODACK                      00000000000000000000                21                      
903L001L5063200504094544892D23700041025065562110703354100000016000210525350   CRESCENT1 CUS0009550          G ABRAHAMS                    00000000000000000000                21                      
903L001L5063200504094544892D23700041105100100052820092100000006900210525350   CRESCENT1 CUS0041961          M SHA                         00000000000000000000                21                      
903L001L5063200504094544892D23700041263200504091989920100000008500210525350   CRESCENT1 CUS0052319          R GEORGE                      00000000000000000000                21                      
903L001L5063200504094544892D23700041325065562822231057100000008500210525350   CRESCENT1 CUS0059577          L SALIE                       00000000000000000000                21                      
903L001L5063200504094544892D23700041419876501066035482100000008500210525350   CRESCENT1 CUS0009791          J FARRED                      00000000000000000000                21                      
903L001L5063200504094544892D23700041505100100072801867100000008500210525350   CRESCENT1 CUS0042106          S BUZIEK                      00000000000000000000                21                      
903L001L5063200504094544892D23700041625065562513386856100000008500210525350   CRESCENT1 CUS0052478          W OMAR                        00000000000000000000                21                      
903L001L5063200504094544892D23700041719876501178405354100000008500210525350   CRESCENT1 CUS0059586          L DAVIS                       00000000000000000000                21                      
903L001L5063200504094544892D23700041825065550499168604100000023500210525350   CRESCENT1 CUS0010380          H PAULSE                      00000000000000000000                21                      
903L001L5063200504094544892D23700041925065550429304351100000008500210525350   CRESCENT1 CUS0042211          N BAGUS                       00000000000000000000                21                      
903L001L5063200504094544892D23700042005100110091807768100000008500210525350   CRESCENT1 CUS0052542          A TALIEP                      00000000000000000000                21                      
903L001L5063200504094544892D23700042147001001408921624200000008500210525350   CRESCENT1 CUS0059588          N ISAACS                      00000000000000000000                21                      
903L001L5063200504094544892D23700042205100100060020563100000016000210525350   CRESCENT1 CUS0010385          M AMODJEE                     00000000000000000000                21                      
903L001L5063200504094544892D23700042319876502984363078200000008500210525350   CRESCENT1 CUS0042256          D ROBERTS                     00000000000000000000                21                      
903L001L5063200504094544892D23700042405100100070204071100000008500210525350   CRESCENT1 CUS0052544          B LEWIS                       00000000000000000000                21                      
903L001L5063200504094544892D23700042547001001350294304200000008500210525350   CRESCENT1 CUS0059605          L BENJAMIN                    00000000000000000000                21                      
903L001L5063200504094544892D23700042605100100001617966100000008500210525350   CRESCENT1 CUS0010495          N JABAAR                      00000000000000000000                21                      
903L001L5063200504094544892D23700042705100100420293388100000008500210525350   CRESCENT1 CUS0042291          S MOHAMMED                    00000000000000000000                21                      
903L001L5063200504094544892D23700042847001001310579065200000008500210525350   CRESCENT1 CUS0052562          T BRAMDER                     00000000000000000000                21                      
903L001L5063200504094544892D23700042925065562441951630100000008500210525350   CRESCENT1 CUS0059650          G DAVIDS                      00000000000000000000                21                      
903L001L5063200504094544892D23700043063200504076927898100000008500210525350   CRESCENT1 CUS0010575          M LAHER                       00000000000000000000                21                      
903L001L5063200504094544892D23700043125065562408142834100000016000210525350   CRESCENT1 CUS0042301          S LOONAT                      00000000000000000000                21                      
903L001L5063200504094544892D23700043225065562871655852100000023500210525350   CRESCENT1 CUS0052580          F KARRIEM                     00000000000000000000                21                      
903L001L5063200504094544892D23700043363200509288466631100000008500210525350   CRESCENT1 CUS0059681          R KENNEDY                     00000000000000000000                21                      
903L001L5063200504094544892D23700043425065562185791483100000016000210525350   CRESCENT1 CUS0010807          M OSMAN                       00000000000000000000                21                      
903L001L5063200504094544892D23700043525065562418864395100000008500210525350   CRESCENT1 CUS0042426          Y HAJEE                       00000000000000000000                21                      
903L001L5063200504094544892D23700043663200504093715559100000008500210525350   CRESCENT1 CUS0052602          A WATSON                      00000000000000000000                21                      
903L001L5063200504094544892D23700043763200509356292861100000008500210525350   CRESCENT1 CUS0059682          F DAVIDS                      00000000000000000000                21                      
903L001L5063200504094544892D23700043825065562374549817100000016000210525350   CRESCENT1 CUS0010943          M DANIELS                     00000000000000000000                21                      
903L001L5063200504094544892D23700043963200504059070989100000008500210525350   CRESCENT1 CUS0042445          Y ARENDSE                     00000000000000000000                21                      
903L001L5063200504094544892D23700044025065562531223957100000008500210525350   CRESCENT1 CUS0052606          A KRIEL                       00000000000000000000                21                      
903L001L5063200504094544892D23700044147001001276078712200000008500210525350   CRESCENT1 CUS0059683          F WILLIAMS                    00000000000000000000                21                      
903L001L5063200504094544892D23700044205100110132575920100000038500210525350   CRESCENT1 CUS0010948          A ARENDZE                     00000000000000000000                21                      
903L001L5063200504094544892D23700044319876501136061347100000008500210525350   CRESCENT1 CUS0042485          G YUSUF                       00000000000000000000                21                      
903L001L5063200504094544892D23700044447001001160797488200000008500210525350   CRESCENT1 CUS0052610          N CORNELIUS                   00000000000000000000                21                      
903L001L5063200504094544892D23700044525065562561756845100000016000210525350   CRESCENT1 CUS0059707          T JUMA                        00000000000000000000                21                      
903L001L5063200504094544892D23700044605100100001626345100000008500210525350   CRESCENT1 CUS0011035          F VALLY                       00000000000000000000                21                      
903L001L5063200504094544892D23700044763200509280547472100000008500210525350   CRESCENT1 CUS0042486          S FRANKS                      00000000000000000000                21                      
903L001L5063200504094544892D23700044863200504085238905100000008500210525350   CRESCENT1 CUS0052814          F DASS                        00000000000000000000                21                      
903L001L5063200504094544892D23700044963200504078344113100000016000210525350   CRESCENT1 CUS0059715          R DU TOIT                     00000000000000000000                21                      
903L001L5063200504094544892D23700045025065560244231960100000008500210525350   CRESCENT1 CUS0011043          I SULIMAN                     00000000000000000000                21                      
903L001L5063200504094544892D23700045163200504053214797100000008500210525350   CRESCENT1 CUS0042488          A ESSOP                       00000000000000000000                21                      
903L001L5063200504094544892D23700045205100110035893425100000008500210525350   CRESCENT1 CUS0052826          Y JAMIE                       00000000000000000000                21                      
903L001L5063200504094544892D23700045347001001492559200200000008500210525350   CRESCENT1 CUS0059760          F ISMAIL                      00000000000000000000                21                      
903L001L5063200504094544892D23700045447001001376433239200000008500210525350   CRESCENT1 CUS0011122          N MOOSA                       00000000000000000000                21                      
903L001L5063200504094544892D23700045563200504056103147100000008500210525350   CRESCENT1 CUS0042554          S TOTA                        00000000000000000000                21                      
903L001L5063200504094544892D23700045619876501088196128100000008500210525350   CRESCENT1 CUS0052882          Z JAPPIE                      00000000000000000000                21                      
903L001L5063200504094544892D23700045747001001127672663200000008500210525350   CRESCENT1 CUS0059780          S TITUS                       00000000000000000000                21                      
903L001L5063200504094544892D23700045825065562646690348100000031000210525350   CRESCENT1 CUS0011239          M AKHALWAYA                   00000000000000000000                21                      
903L001L5063200504094544892D23700045925065551130030574100000008500210525350   CRESCENT1 CUS0042570          G KHAN                        00000000000000000000                21                      
903L001L5063200504094544892D23700046025065562145887743100000008500210525350   CRESCENT1 CUS0052952          M DAWOOD                      00000000000000000000                21                      
903L001L5063200504094544892D23700046125065562789816041100000016000210525350   CRESCENT1 CUS0059784          M ACKERDIEN                   00000000000000000000                21                      
903L001L5063200504094544892D23700046225065562074187834100000008500210525350   CRESCENT1 CUS0011529          N HAMILTON                    00000000000000000000                21                      
903L001L5063200504094544892D23700046319876501352047497100000008500210525350   CRESCENT1 CUS0042584          M KHAN                        00000000000000000000                21                      
903L001L5063200504094544892D23700046425065562342147205100000008500210525350   CRESCENT1 CUS0053061          I BULBULIA                    00000000000000000000                21                      
903L001L5063200504094544892D23700046547001001602891042200000008500210525350   CRESCENT1 CUS0059808          A PLAATJIES                   00000000000000000000                21                      
903L001L5063200504094544892D23700046663200504069589023100000008500210525350   CRESCENT1 CUS0011590          S RAZAK                       00000000000000000000                21                      
903L001L5063200504094544892D23700046705100100060456558100000008500210525350   CRESCENT1 CUS0042636          A EBRAHIM                     00000000000000000000                21                      
903L001L5063200504094544892D23700046805100100276271238100000016000210525350   CRESCENT1 CUS0053105          E AMARDIEN                    00000000000000000000                21                      
903L001L5063200504094544892D23700046947001001177553242200000008500210525350   CRESCENT1 CUS0059820          S ORRIE                       00000000000000000000                21                      
903L001L5063200504094544892D23700047025065562233037119100000016000210525350   CRESCENT1 CUS0011642          Y ISMAIL                      00000000000000000000                21                      
903L001L5063200504094544892D23700047163200504044332592100000008500210525350   CRESCENT1 CUS0042673          M ABRAHAMS                    00000000000000000000                21                      
903L001L5063200504094544892D23700047219876501201362377100000008500210525350   CRESCENT1 CUS0053137          N ABRAHAMS                    00000000000000000000                21                      
903L001L5063200504094544892D23700047325065560920321192100000008500210525350   CRESCENT1 CUS0059825          G PRETORIUS                   00000000000000000000                21                      
903L001L5063200504094544892D23700047405100100242507077100000008500210525350   CRESCENT1 CUS0011881          N PARAZE                      00000000000000000000                21                      
903L001L5063200504094544892D23700047563200504071263130100000008500210525350   CRESCENT1 CUS0042760          M FORBES                      00000000000000000000                21                      
903L001L5063200504094544892D23700047663200504091855975100000008500210525350   CRESCENT1 CUS0053139          F RADEMEYER                   00000000000000000000                21                      
903L001L5063200504094544892D23700047747001001321029037200000008500210525350   CRESCENT1 CUS0059828          F NOORDIEN                    00000000000000000000                21                      
903L001L5063200504094544892D23700047805100100002224615100000008500210525350   CRESCENT1 CUS0012017          A PATEL                       00000000000000000000                21                      
903L001L5063200504094544892D23700047925065562020128478100000008500210525350   CRESCENT1 CUS0042784          M JOOMA                       00000000000000000000                21                      
903L001L5063200504094544892D23700048005100100633620637100000014400210525350   CRESCENT1 CUS0053222          A ISMAIL                      00000000000000000000                21                      
903L001L5063200504094544892D23700048125065562832233085100000008500210525350   CRESCENT1 CUS0059869          F DAMON                       00000000000000000000                21                      
903L001L5063200504094544892D23700048225065562653828742100000008500210525350   CRESCENT1 CUS0012094          M SALEY                       00000000000000000000                21                      
903L001L5063200504094544892D23700048347001001257384226200000008500210525350   CRESCENT1 CUS0042789          S PANDAY                      00000000000000000000                21                      
903L001L5063200504094544892D23700048419876501108389627100000016000210525350   CRESCENT1 CUS0053270          F SALIE                       00000000000000000000                21                      
903L001L5063200504094544892D23700048563200504095175476100000006900210525350   CRESCENT1 CUS0059883          F HENDRICKS                   00000000000000000000                21                      
903L001L5063200504094544892D23700048625065562533090156100000008500210525350   CRESCENT1 CUS0012122          S ADAMJEE                     00000000000000000000                21                      
903L001L5063200504094544892D23700048725065562439757321100000008500210525350   CRESCENT1 CUS0042794          R SALLIE                      00000000000000000000                21                      
903L001L5063200504094544892D23700048847001001169122947200000008500210525350   CRESCENT1 CUS0053308          A BOWERS                      00000000000000000000                21                      
903L001L5063200504094544892D23700048925065562698086149100000008500210525350   CRESCENT1 CUS0059907          N NEL                         00000000000000000000                21                      
903L001L5063200504094544892D23700049063200538160120093100000016000210525350   CRESCENT1 CUS0012281          A BORMAN                      00000000000000000000                21                      
903L001L5063200504094544892D23700049105100100206002335100000015000210525350   CRESCENT1 CUS0042892          R MOTALA                      00000000000000000000                21                      
903L001L5063200504094544892D23700049247001001270204694200000008500210525350   CRESCENT1 CUS0053353          Z BLOEMBERG                   00000000000000000000                21                      
903L001L5063200504094544892D23700049347001001525525229200000008500210525350   CRESCENT1 CUS0059946          W ISAACS                      00000000000000000000                21                      
903L001L5063200504094544892D23700049425065562416207068100000008500210525350   CRESCENT1 CUS0012926          S SULIMAN                     00000000000000000000                21                      
903L001L5063200504094544892D23700049505100162530102334100000008500210525350   CRESCENT1 CUS0042905          S SHAHID                      00000000000000000000                21                      
903L001L5063200504094544892D23700049619876501053164483100000008500210525350   CRESCENT1 CUS0053368          B ABRAHAMS                    00000000000000000000                21                      
903L001L5063200504094544892D23700049747001001200466851200000008500210525350   CRESCENT1 CUS0059956          R CASSIM                      00000000000000000000                21                      
903L001L5063200504094544892D23700049863200504052510316100000016000210525350   CRESCENT1 CUS0013071          A ALLY                        00000000000000000000                21                      
903L001L5063200504094544892D23700049925065562430195447100000008500210525350   CRESCENT1 CUS0042910          F KHAN                        00000000000000000000                21                      
