000L2021030400000PAYPORT CONSULTING PTY LTD EFT000065707303                                                                                                                                           
010LD237000014401                                                                                                                                                                                     
011LD23763200500000040945448920120210130                                                                                                                                                              
013L5020210129000389470010000000135022657000000008500CRESCENT1 CUS0057735          03400000000000                Z ABRAHAMS                                                                           
014L0000000010000000000000000013502265700000000000850000000000000000                                                                                                                                  
011LD23763200500000040945448920120210227                                                                                                                                                              
013L5020210226001128570105000001133469310000000008500CRESCENT1 CUS0028382          02600000000000                N SATHOLE                                                                            
013L5020210226003387198765000000117686007000000008500CRESCENT1 CUS0056856          00200000000000                R JANUARY                                                                            
013L5020210226004488198765000000115953655400000008500CRESCENT1 CUS0059143          00200000000000                N MILAZI                                                                             
013L5020210226003310198765000000106882243000000008500CRESCENT1 CUS0047307          00200000000000                N PATEL                                                                              
013L5020210226002186198765000000109073304600000008500CRESCENT1 CUS0050196          00200000000000                I BHAM                                                                               
013L5020210226004643051001000001008149947500000016000CRESCENT1 CUS0031999          03200000000000                M DOLLEY                                                                             
013L5020210226000096051001000001009985189800000006900CRESCENT1 CUS0044744          03400000000000                I EBRAHIM                                                                            
013L5020210226000946198765000000195649275500000008500CRESCENT1 CUS0028107          00200000000000                A CARRIM                                                                             
013L5020210226006161250655000006280886641400000006900CRESCENT1 CUS0054409          03600000000000                S SCHROEDER                                                                          
013L5020210226005127198765000000115225229100000008500CRESCENT1 CUS0057061          00200000000000                R MACK                                                                               
013L5020210226005694258605000006227829266100000016000CRESCENT1 CUS0035612          00200000000000                A ALLY                                                                               
013L5020210226002887198765000000113915650000000008500CRESCENT1 CUS0056709          00200000000000                Z ABRAHAMS                                                                           
013L5020210226001335051001000001005057553600000008500CRESCENT1 CUS0045611          03400000000000                R HARDIEN                                                                            
013L5020210226003742211617000006212943847100000008500CRESCENT1 CUS0027723          03000000000000                T WILLIAMS                                                                           
013L5020210226001262198765000000195341553900000016000CRESCENT1 CUS0055577          00200000000000                D HARDIEN                                                                            
013L5020210226002031198765000000108461472300000008500CRESCENT1 CUS0022826          00200000000000                S ESSOP                                                                              
013L5020210226001688198765000000118755093000000008500CRESCENT1 CUS0058371          00200000000000                B YON                                                                                
013L5020210226004148198765000000200628289100000008500CRESCENT1 CUS0047265          00200000000000                F AHMED                                                                              
013L5020210226005537470010000000135022657000000008500CRESCENT1 CUS0057735          03400000000000                Z ABRAHAMS                                                                           
013L5020210226002204198765000000109844415900000008500CRESCENT1 CUS0059568          00200000000000                S ISRAEL                                                                             
013L5020210226004562198765000000104666545600000016000CRESCENT1 CUS0057335          00200000000000                A EDERIES                                                                            
013L5020210226004837198765000000119008792800000008500CRESCENT1 CUS0057431          00600000000000                I DAVIDS                                                                             
013L5020210226003162198765000000105827467800000008500CRESCENT1 CUS0056799          00200000000000                A STEMMET                                                                            
013L5020210226001929198765000000119885749800000008500CRESCENT1 CUS0059512          00200000000000                S KHAN                                                                               
013L5020210226003554198765000000123401434300000031000CRESCENT1 CUS0002362          03000000000000                B AKOOJEE                                                                            
013L5020210226001132210651000006219529488100000016000CRESCENT1 CUS0049729          03400000000000                N PEPLOUW                                                                            
013L5020210226002825198765000000115131213400000008500CRESCENT1 CUS0051809          00200000000000                I SOLOMONS                                                                           
013L5020210226001104470010000000135367157500000008500CRESCENT1 CUS0040200          03600000000000                M MPANZA                                                                             
013L5020210226004649198765000000104330080500000008500CRESCENT1 CUS0050261          00200000000000                A SIMONS                                                                             
013L5020210226002786470010000000147582654900000008500CRESCENT1 CUS0050925          03000000000000                R NAIDOO                                                                             
013L5020210226000488250655000006277422879800000016000CRESCENT1 CUS0055722          03600000000000                L PATEL                                                                              
013L5020210226001691198765000000121704266000000016000CRESCENT1 CUS0022670          00200000000000                A KHAN                                                                               
014L0000000320000000000000003831461833180000000034380000000000000000                                                                                                                                  
011LD23763200500000040945448920120210301                                                                                                                                                              
013L5020210227000058251905000006203644118700000025000ABSOLIT   1614259817RMS002    00200000000000                MARY SAMSON                                                                          
013L5020210227000040200607000005925900587400000012500ABSOLIT   1614259817RFA001    03400000000000                FAGMEEDA ADAMS                                                                       
013L5020210227000080258624000006219160370500000050000ABSOLIT   1614259825RKB001    00200000000000                KAYLEEN BOAS                                                                         
013L5020210227000047250141000006249490079100000025000ABSOLIT   1614259817RJT001    01200000000000                JUDE THOMAS                                                                          
013L5020210227000037250141000006216416419800000025000ABSOLIT   1614259817RSH001    00200000000000                SAAJIDAH HUSSAIN                                                                     
013L5020210227000066258624000006219160370500000025000ABSOLIT   1614259818RRAEESK00100200000000000                RAEES KAMAAR                                                                         
013L5020210227000019258605000006234780701000000018900ARCTICA   1614259821RARCTICA0100400000000000                THE NOT SO STARVING ARTIST                                                           
013L5020210227000054252805000006234127259000000025000ABSOLIT   1614259817RLP001    00200000000000                LLEWELLYN PALMER                                                                     
014L0000000080000000000000004950267990600000000020640000000000000000                                                                                                                                  
019L0000000410000000000000008795232089480000000055870000000000000000                                                                                                                                  
010LD237000014508                                                                                                                                                                                     
011LD23763200500000040945448920120210127                                                                                                                                                              
013L5020210127002592051001000001008149947500000016000CRESCENT1 CUS0031999          03200000000000                M DOLLEY                                                                             
014L0000000010000000000000000100814994750000000001600000000000000000                                                                                                                                  
011LD23763200500000040945448920120210302                                                                                                                                                              
013L5020210302000001051001000001008049343000000025000ABSOLIT   1614334506RAJ001    00200000000000                ASHTON JACOBS                                                                        
014L0000000010000000000000000100804934300000000002500000000000000000                                                                                                                                  
019L0000000020000000000000000201619929050000000004100000000000000000                                                                                                                                  
999L000000059                                                                                                                                                                                         
