000L2021022200000PAYPORT CONSULTING PTY LTD EFT000064107303                                                                                                                                           
010LD237000012801                                                                                                                                                                                     
011LD23763200500000040945448920120210220                                                                                                                                                              
013L5020210219000075632005000000407961712700000008500CRESCENT1 CUS0037876          00292803000075                A NORDIEN                                                                            
014L0000000010000000000000000040796171270000000000850000000000000000                                                                                                                                  
019L0000000010000000000000000040796171270000000000850000000000000000                                                                                                                                  
999L000000007                                                                                                                                                                                         
