000L2020112800000PAYPORT CONSULTING PTY LTD EFT000052307303                                                                                                                                           
010LD237000004401                                                                                                                                                                                     
011LD23763200500000040945448920120201125                                                                                                                                                              
013L5020201124000276255355000006236167842100000008500CRESCENT1 CUS0020772          00200000000000                S SALIE                                                                              
013L5020201124000395255355000006251842305900000008500CRESCENT1 CUS0055357          03200000000000                M MOHAMED                                                                            
013L5020201124000360250737000006052824417600000008500CRESCENT1 CUS0026252          00400000000000                M BABOO                                                                              
013L5020201124000278250141000006210045984200000007500CRESCENT1 CUS0054217          00200000000000                A KHAN                                                                               
013L5020201124000463250409000006247312254800000008500CRESCENT1 CUS0047355          01200000000000                C HASSIM                                                                             
013L5020201124000828198765000000112820968300000008500CRESCENT1 CUS0058055          00200000000000                A DAVEY                                                                              
013L5020201124000516198765000000114701886300000016000CRESCENT1 CUS0033895          00200000000000                J HILL                                                                               
013L5020201124000065250141000006252169964700000008500CRESCENT1 CUS0013155          00200000000000                O ABDULLAH                                                                           
013L5020201124000269250141000006252659132700000008500CRESCENT1 CUS0053898          00200000000000                R MOHAMMED                                                                           
013L5020201124000884250655000006275991844700000008500CRESCENT1 CUS0058309          01200000000000                S ADAMS                                                                              
013L5020201124000419198765000000117868472500000008500CRESCENT1 CUS0055555          03000000000000                N TALIEP                                                                             
013L5020201124000744198765000000103284245800000008500CRESCENT1 CUS0057546          01200000000000                N MOOSA                                                                              
013L5020201124000511198765000000102577607000000008500CRESCENT1 CUS0048171          00200000000000                R MOHAMMED                                                                           
013L5020201124000581051001000001011536215900000008500CRESCENT1 CUS0056820          03000000000000                C JABAAR                                                                             
013L5020201124000682254605000006235206410000000016000CRESCENT1 CUS0038365          00200000000000                N SMITH                                                                              
013L5020201124000019250655000006268610528200000008500CRESCENT1 CUS0051653          00600000000000                M ROSENBERG                                                                          
013L5020201124000182250040000006092011505800000016000CRESCENT1 CUS0043833          00200000000000                S HENDRICKS                                                                          
013L5020201124000872198765000000119504339200000008500CRESCENT1 CUS0058250          03000000000000                J BUX MOHAMMED                                                                       
013L5020201124000556198765000000111086186900000008500CRESCENT1 CUS0048631          00200000000000                M MAJIET                                                                             
013L5020201124000043198765000000105165650800000008500CRESCENT1 CUS0051960          00600000000000                R MIA                                                                                
013L5020201124000736470010000000133403572300000008500CRESCENT1 CUS0057533          03000000000000                Z FOLLENTINE                                                                         
013L5020201124000486251242000006258051073500000008500CRESCENT1 CUS0033113          00200000000000                S ABDOOLA                                                                            
013L5020201124000274251742000006244613664100000016000CRESCENT1 CUS0044997          00200000000000                K RAZAK                                                                              
013L5020201124000539203209000006248932195200000008500CRESCENT1 CUS0056623          01200000000000                S ABRAHAMS                                                                           
013L5020201124000542198765000000103248980400000008500CRESCENT1 CUS0056626          00200000000000                L HILL                                                                               
013L5020201124000541200109000006235794154300000008500CRESCENT1 CUS0048495          01200000000000                L BEDDERSON                                                                          
013L5020201124000527200607000006229308771600000008500CRESCENT1 CUS0056518          00600000000000                F AZIZ                                                                               
013L5020201124000720200612000006257482867300000016000CRESCENT1 CUS0057434          01200000000000                A LATIEF                                                                             
013L5020201124000555201511000006228600702800000008500CRESCENT1 CUS0035692          00200000000000                K KADER                                                                              
013L5020201124000289256505000006248967535900000008500CRESCENT1 CUS0045250          00200000000000                F ISMAIL                                                                             
013L5020201124000016470010000000118167376100000008500CRESCENT1 CUS0058416          03200000000000                A GEDULD                                                                             
013L5020201124000666198765000000225524176500000016000CRESCENT1 CUS0038242          00200000000000                M MAJIET                                                                             
013L5020201124000904198765000000116504981300000008500CRESCENT1 CUS0058386          00200000000000                J JAFTHA                                                                             
013L5020201124000706250655000006277192656900000008500CRESCENT1 CUS0038708          01200000000000                S LAWRENCE                                                                           
013L5020201124000585252605000006201688259100000008500CRESCENT1 CUS0000053          00200000000000                H GANCHI                                                                             
013L5020201124000497198765000000115687883700000008500CRESCENT1 CUS0056065          01200000000000                S DAVIDS                                                                             
013L5020201124000758198765000000118807029000000008500CRESCENT1 CUS0039569          00600000000000                G WILLIAMS                                                                           
013L5020201124000540198765000000101193007200000008500CRESCENT1 CUS0035274          00200000000000                J CADER                                                                              
013L5020201124000452462005000000461351130100000008500CRESCENT1 CUS0055780          03600000000000                L ISMAIL                                                                             
013L5020201124000046250645000005104002031800000008500CRESCENT1 CUS0042666          00200000000000                R SULIMAN                                                                            
013L5020201124000465252245000006209152273200000008500CRESCENT1 CUS0032376          00200000000000                S ADAM                                                                               
013L5020201124000822198765000000105041710000000008500CRESCENT1 CUS0041413          00200000000000                E PARKER                                                                             
013L5020201124000039198765000000105324055400000007500CRESCENT1 CUS0051875          01200000000000                F ROSKIN                                                                             
013L5020201124000347198765000000104319532700000008500CRESCENT1 CUS0054841          00200000000000                R ACHMAT                                                                             
013L5020201124000303198765000000101625000200000008500CRESCENT1 CUS0021674          00600000000000                S AUGUST                                                                             
013L5020201124000083198765000000101770294200000008500CRESCENT1 CUS0052302          00200000000000                N JACOBS                                                                             
013L5020201124000663198765000000113548443000000008500CRESCENT1 CUS0049483          00200000000000                T LATIEF                                                                             
013L5020201124000603250205000006223794006100000008500CRESCENT1 CUS0048937          01200000000000                H LUQMAN                                                                             
013L5020201124000195198765000000112360792300000008500CRESCENT1 CUS0053232          00200000000000                Y KAREEM                                                                             
013L5020201124000639250555000006262561989800000008500CRESCENT1 CUS0049259          01200000000000                W ABRAHAMS                                                                           
013L5020201124000576211617000006225733411100000016000CRESCENT1 CUS0036019          00200000000000                M NORDIEN                                                                            
013L5020201124000672632005000000409055852800000008500CRESCENT1 CUS0057271          00292803000672                S CHARLES                                                                            
013L5020201124000554198765000000109039705400000008500CRESCENT1 CUS0056700          00200000000000                F BETHANE                                                                            
013L5020201124000739200410000006244157605800000008500CRESCENT1 CUS0050000          00200000000000                S SAMSON                                                                             
013L5020201124000001198765000000103935393200000008500CRESCENT1 CUS0011024          01200000000000                D LITTLER                                                                            
013L5020201124000538198765000000108183114600000008500CRESCENT1 CUS0048444          00200000000000                M ISAACS                                                                             
013L5020201124000684470010000000132253362600000016000CRESCENT1 CUS0057331          03000000000000                N MENEER                                                                             
013L5020201124000018198765000000113606134700000008500CRESCENT1 CUS0042485          02600000000000                G YUSUF                                                                              
013L5020201124000329250655000006269266795300000008500CRESCENT1 CUS0054663          01200000000000                K ABRAHAMS                                                                           
014L0000000590000000000000017845663928490000000055950000000000000000                                                                                                                                  
019L0000000590000000000000017845663928490000000055950000000000000000                                                                                                                                  
999L000000065                                                                                                                                                                                         
