000L2021052800000PAYPORT CONSULTING PTY LTD EFT000078507303                                                                                                                                           
010LD237000022501                                                                                                                                                                                     
011LD23763200500000040945448920120210426                                                                                                                                                              
013L5020210424000321470010000000146279122900000008500CRESCENT1 CUS0056752          03600000000000                S SELDON                                                                             
014L0000000010000000000000000014627912290000000000850000000000000000                                                                                                                                  
011LD23763200500000040945448920120210525                                                                                                                                                              
013L5020210524000232254905000006261132496400000008500CRESCENT1 CUS0050780          01200000000000                J BAKHARIA                                                                           
013L5020210524000699198765000000101625000200000008500CRESCENT1 CUS0021674          01200000000000                S AUGUST                                                                             
013L5020210524000778198765000000112709662100000008500CRESCENT1 CUS0047036          00400000000000                M BHAMJEE                                                                            
013L5020210524000191198765000000225524176500000016000CRESCENT1 CUS0038242          01200000000000                M MAJIET                                                                             
013L5020210524000557250141000006210045984200000007500CRESCENT1 CUS0054217          00200000000000                A KHAN                                                                               
013L5020210524000047198765000000111086186900000008500CRESCENT1 CUS0048631          00200000000000                M MAJIET                                                                             
013L5020210524000669255355000006236167842100000008500CRESCENT1 CUS0020772          01200000000000                S SALIE                                                                              
013L5020210524000626255805000006230031837700000008500CRESCENT1 CUS0054880          00200000000000                A ABRAHAMS                                                                           
013L5020210524000790250655000006286742851000000008500CRESCENT1 CUS0047157          00200000000000                S ISKRA                                                                              
013L5020210524000011198765000000102577607000000008500CRESCENT1 CUS0048171          00400000000000                R MOHAMMED                                                                           
013L5020210524000782203209000006248932195200000008500CRESCENT1 CUS0056623          01200000000000                S ABRAHAMS                                                                           
013L5020210524000376198765000000105165650800000008500CRESCENT1 CUS0051960          00600000000000                R MIA                                                                                
013L5020210524000481250655000006283223308500000008500CRESCENT1 CUS0059869          00200000000000                F DAMON                                                                              
013L5020210524000605250655000006269266795300000008500CRESCENT1 CUS0054663          01200000000000                K ABRAHAMS                                                                           
013L5020210524000443198765000000113606134700000008500CRESCENT1 CUS0042485          02600000000000                G YUSUF                                                                              
013L5020210524000548250141000006252659132700000008500CRESCENT1 CUS0053898          00600000000000                R MOHAMMED                                                                           
013L5020210524000207254605000006235206410000000016000CRESCENT1 CUS0038365          00200000000000                N SMITH                                                                              
013L5020210524000227250655000006277192656900000008500CRESCENT1 CUS0038708          01200000000000                S LAWRENCE                                                                           
013L5020210524000836198765000000118386748400000008500CRESCENT1 CUS0057080          00200000000000                B SYCE                                                                               
013L5020210524000423198765000000298436307800000008500CRESCENT1 CUS0042256          00400000000000                D ROBERTS                                                                            
013L5020210524000030221626000006213668824100000015400CRESCENT1 CUS0057515          00200000000000                N HASSIEM                                                                            
013L5020210524000397250655000006285815611200000008500CRESCENT1 CUS0059497          00200000000000                R BROWN                                                                              
013L5020210524000785198765000000103248980400000008500CRESCENT1 CUS0056626          00200000000000                L HILL                                                                               
013L5020210524000372198765000000105324055400000007500CRESCENT1 CUS0051875          02600000000000                F ROSKIN                                                                             
013L5020210524000820250409000006247312254800000008500CRESCENT1 CUS0047355          01200000000000                C HASSIM                                                                             
013L5020210524000527250655000006280635468500000008500CRESCENT1 CUS0053731          01200000000000                M LAKAY                                                                              
013L5020210524000098250555000006262561989800000008500CRESCENT1 CUS0049259          01200000000000                W ABRAHAMS                                                                           
013L5020210524000794258605000006218611984000000008500CRESCENT1 CUS0056690          00400000000000                I DADABHAI                                                                           
013L5020210524000828198765000000126804396600000008500CRESCENT1 CUS0031244          00200000000000                M AH-SHENE                                                                           
013L5020210524000749198765000000115687883700000008500CRESCENT1 CUS0056065          02600000000000                S DAVIDS                                                                             
013L5020210524000129250655000006275991844700000008500CRESCENT1 CUS0058309          01200000000000                S ADAMS                                                                              
013L5020210524000356250655000006268610528200000008500CRESCENT1 CUS0051653          00600000000000                M ROSENBERG                                                                          
013L5020210524000579250205000006218822445700000023500CRESCENT1 CUS0016692          00400000000000                A MATAKA                                                                             
013L5020210524000024200612000006257482867300000016000CRESCENT1 CUS0057434          01200000000000                A LATIEF                                                                             
013L5020210524000616250537000006251549195000000008500CRESCENT1 CUS0044643          00200000000000                E NDAMASE                                                                            
013L5020210524000662198765000000108129059500000008500CRESCENT1 CUS0055365          01200000000000                F  ABRAHAMS                                                                          
013L5020210524000685252242000006223662815500000008500CRESCENT1 CUS0045618          03400000000000                N SHAND                                                                              
013L5020210524000648250805000006256997313600000016000CRESCENT1 CUS0019560          00400000000000                A AHMED                                                                              
013L5020210524000499259605000006243019544700000008500CRESCENT1 CUS0042910          01200000000000                F KHAN                                                                               
013L5020210524000484198765000000110838962700000016000CRESCENT1 CUS0053270          01200000000000                F SALIE                                                                              
013L5020210524000773200607000006229308771600000008500CRESCENT1 CUS0056518          00600000000000                F AZIZ                                                                               
013L5020210524000271198765000000118807029000000008500CRESCENT1 CUS0039569          00600000000000                G WILLIAMS                                                                           
013L5020210524000073051001000000000923508600000016000CRESCENT1 CUS0035418          03200000000000                N DURRELL                                                                            
013L5020210524000142250805000005097901934300000016000CRESCENT1 CUS0000870          00400000000000                F BENN                                                                               
013L5020210524000343198765000000105041710000000008500CRESCENT1 CUS0041413          00200000000000                E PARKER                                                                             
013L5020210524000109211617000006225733411100000016000CRESCENT1 CUS0036019          00200000000000                M NORDIEN                                                                            
013L5020210524000035200109000006235794154300000008500CRESCENT1 CUS0048495          01200000000000                L BEDDERSON                                                                          
013L5020210524000176200410000006244157605800000008500CRESCENT1 CUS0050000          01200000000000                S SAMSON                                                                             
013L5020210524000539051001000000030300308100000008500CRESCENT1 CUS0053863          03000000000000                D SWANLOW                                                                            
013L5020210524000288203209000006248525369600000008500CRESCENT1 CUS0051129          00200000000000                Z BEGG                                                                               
013L5020210524000620250455000006258912118700000008500CRESCENT1 CUS0054863          00200000000000                S ABRAHAMS                                                                           
014L0000000510000000000000020104990093090000000051340000000000000000                                                                                                                                  
011LD23763200500000040945448920120210527                                                                                                                                                              
013L5020210526002627632005000000404968110200000008500CRESCENT1 CUS0053463          00492802002627                B DE COSTA                                                                           
013L5020210526001246632005000000934396649500000008500CRESCENT1 CUS0059408          03092801001246                S CHIPLUNKAR                                                                         
013L5020210526000601632005000000928071924200000008500CRESCENT1 CUS0057134          00200016000601                S JEPPIE                                                                             
013L5020210526001070632005000000926142011900000008500CRESCENT1 CUS0037279          00200016001070                A FALTEIN                                                                            
013L5020210526001772632005000000407597318100000008500CRESCENT1 CUS0044665          00492802001772                M FELIX                                                                              
013L5020210526002826632005000000405393943800000008500CRESCENT1 CUS0019366          00492802002826                A SAYED                                                                              
013L5020210526003533632005000000002242416900000008500CRESCENT1 CUS0043001          00200016003533                D EDWARDS                                                                            
013L5020210526002525632005000000922071176700000008500CRESCENT1 CUS0041999          00200016002525                S PETERSEN                                                                           
013L5020210526001523632005000000928171873400000017000CRESCENT1 CUS0052713          00492802001523                M JEFFIRIES                                                                          
013L5020210526003481632005000000910418434100000008500CRESCENT1 CUS0054371          00200016003481                M SLAMDIN                                                                            
013L5020210526001385632005000000931478060000000008500CRESCENT1 CUS0057566          00300000001385                Z DAVIDS                                                                             
013L5020210526000049632005000000409501695100000008500CRESCENT1 CUS0039658          00300000000049                M ISMAIL                                                                             
013L5020210526003307580105000001001139148300000008500CRESCENT1 CUS0036178          01200000000000                M MOOSA                                                                              
013L5020210526002671632005000000928836584500000008500CRESCENT1 CUS0058243          00492802002671                I SCHOUR                                                                             
013L5020210526002609632005000000907302593900000008500CRESCENT1 CUS0042074          00200016002609                S ALLIE                                                                              
013L5020210526000572632005000000409402472300000008500CRESCENT1 CUS0054952          90300000000572                Y HASSEN                                                                             
013L5020210526000677632005000000919376444500000008500CRESCENT1 CUS0033991          00200016000677                S ABRAHAMS                                                                           
013L5020210526000269632005000000929866627700000008500CRESCENT1 CUS0025850          00200016000269                R DEPAUW                                                                             
013L5020210526001658632005000000407129800800000016000CRESCENT1 CUS0037720          00200016001658                M BAKSH                                                                              
013L5020210526002739632005000000404302704700000008500CRESCENT1 CUS0053527          00200016002739                A SAMODIEN                                                                           
013L5020210526002906632005000000922148602200000008500CRESCENT1 CUS0051509          01200000002906                G SCHROEDER                                                                          
013L5020210526002808632005000000918860375500000008500CRESCENT1 CUS0051437          00200016002808                E HAYWOOD                                                                            
013L5020210526000744580105000001001150253100000008500CRESCENT1 CUS0022593          01200000000000                S HOOSEN                                                                             
013L5020210526002122632005000000913026334100000008500CRESCENT1 CUS0023998          00200016002122                M SEEDAT                                                                             
013L5020210526000527632005000000055815092000000008500CRESCENT1 CUS0046829          00492802000527                Z MANUEL                                                                             
013L5020210526003167632005000000920186299300000008500CRESCENT1 CUS0036061          00200016003167                E MAHOMED                                                                            
013L5020210526002412632005000000922982066800000008500CRESCENT1 CUS0041944          00200016002412                I KADER                                                                              
013L5020210526003074632005000000906660672400000008500CRESCENT1 CUS0051604          00200016003074                D PATTON                                                                             
013L5020210526003357632005000000932212792500000008500CRESCENT1 CUS0058673          00200016003357                M JACOBS                                                                             
013L5020210526002843632005000000911047057200000008500CRESCENT1 CUS0029452          00200016002843                P TSOTETSI                                                                           
013L5020210526000100632005000000406603640900000008500CRESCENT1 CUS0022032          90300000000100                S VARIYAWA                                                                           
013L5020210526001077632005000000915329245800000008500CRESCENT1 CUS0057389          90300000001077                M BULL                                                                               
013L5020210526000913632005000000922273823800000008500CRESCENT1 CUS0026504          00200016000913                Z NOORSHID                                                                           
013L5020210526003228632005000000408812143000000008500CRESCENT1 CUS0051691          00492802003228                J FRANCIS                                                                            
013L5020210526002320580105000001001133592200000016000CRESCENT1 CUS0035471          00600000000000                A ESSA                                                                               
013L5020210526001826632005000000002302362200000016000CRESCENT1 CUS0037918          00200016001826                A RHODA                                                                              
013L5020210526003551632005000000408357553900000008500CRESCENT1 CUS0054465          00492802003551                C PHILLIPS                                                                           
014L0000000370000000000000002648671189750000000034550000000000000000                                                                                                                                  
019L0000000890000000000000022768289195130000000086740000000000000000                                                                                                                                  
999L000000099                                                                                                                                                                                         
