000L2021012200000PAYPORT CONSULTING PTY LTD EFT000059707303                                                                                                                                           
010LD237000008501                                                                                                                                                                                     
011LD23763200500000040945448920120201215                                                                                                                                                              
013L5020201214000080250655000006281485359600000016000CRESCENT1 CUS0058841          03600000000000                R JOUBYAR                                                                            
014L0000000010000000000000000628148535960000000001600000000000000000                                                                                                                                  
011LD23763200500000040945448920120210116                                                                                                                                                              
013L5020210115000526258605000006207346724500000016000CRESCENT1 CUS0017470          00600000000000                A KHAN                                                                               
013L5020210115000991198765000000195675305200000016000CRESCENT1 CUS0003687          03000000000000                R MANGERA                                                                            
013L5020210115000650470010000000156711557600000008500CRESCENT1 CUS0057162          03600000000000                N HERBERT                                                                            
014L0000000030000000000000000655973358730000000004050000000000000000                                                                                                                                  
011LD23763200500000040945448920120210121                                                                                                                                                              
013L5020210120000405632005000000928028054000000008500CRESCENT1 CUS0057033          00200016000405                A GEORGE                                                                             
013L5020210120000344632005000000405742551600000024500CRESCENT1 CUS0020212          03492801000344                A PANKER                                                                             
013L5020210120000353632005000000407358400900000008500CRESCENT1 CUS0055006          03492801000353                F GAMSU                                                                              
013L5020210120000034632005000000935600440600000008500CRESCENT1 CUS0058625          00200016000034                G SIMONS                                                                             
013L5020210120000332632005000000408205618000000023500CRESCENT1 CUS0018845          00300000000332                A KARA                                                                               
013L5020210120000029632005000000913232055700000016000CRESCENT1 CUS0036509          00200016000029                A LIVINGSTONE                                                                        
014L0000000060000000000000000399816712080000000008950000000000000000                                                                                                                                  
019L0000000100000000000000001683938606770000000014600000000000000000                                                                                                                                  
999L000000020                                                                                                                                                                                         
