000L2021011000000PAYPORT CONSULTING PTY LTD EFT000058007303                                                                                                                                           
010LD237000007501                                                                                                                                                                                     
011LD23763200500000040945448920120201219                                                                                                                                                              
013L5020201218002243198765000000103091358700000016000CRESCENT1 CUS0037481          03000000000000                S DARSOT                                                                             
014L0000000010000000000000000010309135870000000001600000000000000000                                                                                                                                  
019L0000000010000000000000000010309135870000000001600000000000000000                                                                                                                                  
999L000000007                                                                                                                                                                                         
