000L2021050500000PAYPORT CONSULTING PTY LTD    000075007303                                                                                                                                           
900L000 TRANSMISSION 07303-0000100 ACCEPTED                                                                                                                                                           
900L001 ACB USER SET D237-0000106-000008 ACCEPTED                                                                                                                                                     
903L001L5063200504094544892D23700000147001001433349734200000045000210506350   JAMFOX    1620048613RJFDANIELLMRS HJJ UYS                   00000000000000000000                21                      
903L001L5263200504094544892D23700000263200504094544892100000045000210506100000JAMFOX    CONTRAX37CVFJSCEQV3Y                                                                                          
903L001L5063200504094544892D23700000347001001379039159200000084000210506350   TSMM      1620048619OTS0000000HW BEZUIDENHOUT               00000000000000000000                21                      
903L001L5063200504094544892D23700000447001001444709060200000049000210506350   TSMM      1620048619OTS0000001S BOLTON                      00000000000000000000                21                      
903L001L5063200504094544892D23700000525065562719955934100000035000210506350   TSMM      1620048620OTS0000000CORNEL KORFF                  00000000000000000000                21                      
903L001L5063200504094544892D23700000625065562120149390100000049000210506350   TSMM      1620048620OTS0000000ETHAN WENTZEL                 00000000000000000000                21                      
903L001L5063200504094544892D23700000725065562749822624200000025000210506350   TSMM      1620048620OTS0000000GERSWIN MOUTON                00000000000000000000                21                      
903L001L5263200504094544892D23700000863200504094544892100000242000210506100000TSMM      CONTRAY7T8ISSSIFRIXI                                                                                          
999L000000012                                                                                                                                                                                         
