000L2021050800000PAYPORT CONSULTING PTY LTD EFT000075507303                                                                                                                                           
010LD237000020701                                                                                                                                                                                     
011LD23763200500000040945448920120210424                                                                                                                                                              
013L5020210423000230632005000000930258876900000006900CRESCENT1 CUS0058915          03092801000230                S KRIEL                                                                              
014L0000000010000000000000000093025887690000000000690000000000000000                                                                                                                                  
011LD23763200500000040945448920120210426                                                                                                                                                              
013L5020210424000526198765000000103202242600000008500CRESCENT1 CUS0043338          03000000000000                A MOHAMED                                                                            
014L0000000010000000000000000010320224260000000000850000000000000000                                                                                                                                  
011LD23763200500000040945448920120210430                                                                                                                                                              
013L5020210429001992470010000000126032983400000008500CRESCENT1 CUS0056866          03000000000000                I JACOBS                                                                             
014L0000000010000000000000000012603298340000000000850000000000000000                                                                                                                                  
011LD23763200500000040945448920120210504                                                                                                                                                              
013L5020210502000064198765000000116241195300000059900NEWYOU    1619616629R12       00200000000000                NICA MYNHARDY                                                                        
014L0000000010000000000000000011624119530000000005990000000000000000                                                                                                                                  
019L0000000040000000000000000127573529820000000008380000000000000000                                                                                                                                  
999L000000016                                                                                                                                                                                         
