000L2021050700000PAYPORT CONSULTING PTY LTD EFT000075307303                                                                                                                                           
010LD237000020601                                                                                                                                                                                     
011LD23763200500000040945448920120210426                                                                                                                                                              
013L5020210424003390470010000000135839924500000008500CRESCENT1 CUS0048946          03000000000000                R WALLACE                                                                            
014L0000000010000000000000000013583992450000000000850000000000000000                                                                                                                                  
011LD23763200500000040945448920120210430                                                                                                                                                              
013L5020210429000495470010000000128569178200000008500CRESCENT1 CUS0054220          03200000000000                M GAFIELDIEN                                                                         
014L0000000010000000000000000012856917820000000000850000000000000000                                                                                                                                  
011LD23763200500000040945448920120210504                                                                                                                                                              
013L5020210502000105260349000006238807489200000004000PMDOPS    1619616643RWRMH002  01200000000000                ROZAQ MOHAMMED                                                                       
013L5020210502000136201909000006254616977400000650000ARM       1619616643R625461   00200000000000                CHOMUNORWA GONORENDA                                                                 
014L0000000020000000000000001249342446660000000065400000000000000000                                                                                                                                  
019L0000000040000000000000001275783356930000000067100000000000000000                                                                                                                                  
999L000000014                                                                                                                                                                                         
