000L2021012700000PAYPORT CONSULTING PTY LTD EFT000060407303                                                                                                                                           
010LD237000008901                                                                                                                                                                                     
011LD23763200500000040945448920120210125                                                                                                                                                              
013L5020210123000228051001000001007670952100000008500CRESCENT1 CUS0049485          00200000000000                W SALIE                                                                              
013L5020210123000429051001000000027776533100000008500CRESCENT1 CUS0058527          00200000000000                M WALKER                                                                             
013L5020210123000609470010000000113721278900000008500CRESCENT1 CUS0059363          00200000000000                F DAVIDS                                                                             
013L5020210123000353470010000000156785207400000008500CRESCENT1 CUS0058092          00200000000000                Z ABRAHAMS                                                                           
013L5020210123000156051001000000007282674600000008500CRESCENT1 CUS0048807          00200000000000                A HOWELL                                                                             
013L5020210123000773470010000000128996735900000008500CRESCENT1 CUS0054777          00200000000000                T STUURMAN                                                                           
013L5020210123000428051001000001006676710300000016000CRESCENT1 CUS0051285          00200000000000                A SASMAN                                                                             
013L5020210123000229051001000001004226970700000016000CRESCENT1 CUS0057490          01200000000000                A JORDAAN                                                                            
013L5020210123000568470010000000131057906500000008500CRESCENT1 CUS0052562          00200000000000                T BRAMDER                                                                            
013L5020210123000512470010000000141009037800000008500CRESCENT1 CUS0052025          00200000000000                S DOLLEY                                                                             
013L5020210123000659470010000000148511349900000008500CRESCENT1 CUS0053402          00200000000000                M ORRIE-ROB                                                                          
013L5020210123000093470010000000146279122900000008500CRESCENT1 CUS0056752          00200000000000                S SELDON                                                                             
013L5020210123000385470010000000148694910800000008500CRESCENT1 CUS0058308          00200000000000                F RORICK                                                                             
013L5020210123000209470010000000155894516200000007500CRESCENT1 CUS0057380          00200000000000                F JOSEPH                                                                             
013L5020210123000132470010000000161465686800000008500CRESCENT1 CUS0056966          00200000000000                K JAFIELDIEN                                                                         
013L5020210123000560051001000001009180776800000008500CRESCENT1 CUS0052542          00200000000000                A TALIEP                                                                             
013L5020210123000634051001000000005220943100000008500CRESCENT1 CUS0016551          00200000000000                Z KHAN                                                                               
013L5020210123000707470010000000143342036600000008500CRESCENT1 CUS0053870          00200000000000                K MOHAMED                                                                            
013L5020210123000645470010000000137453407000000008500CRESCENT1 CUS0059500          00200000000000                K DAVIDS                                                                             
013L5020210123000150470010000000160927284400000008500CRESCENT1 CUS0057174          00200000000000                O NOLAN                                                                              
013L5020210123000051470010000000160050798900000008500CRESCENT1 CUS0056252          00200000000000                M MOGODISENG                                                                         
013L5020210123000312470010000000115236149800000008500CRESCENT1 CUS0050234          01200000000000                N LENNOX                                                                             
013L5020210123000251051001000000000033147300000008500CRESCENT1 CUS0038375          00400000000000                N OMAR                                                                               
013L5020210123000111051001000001011536215900000008500CRESCENT1 CUS0056820          00400000000000                C JABAAR                                                                             
013L5020210123000668470010000000111045066200000008500CRESCENT1 CUS0053479          00200000000000                Z ZWANE                                                                              
013L5020210123000281470010000000158833593100000008500CRESCENT1 CUS0057695          00200000000000                S ABRAHAMS                                                                           
013L5020210123000340470010000000146718369300000008500CRESCENT1 CUS0050562          00200000000000                Z DREYDEN                                                                            
013L5020210123000169470010000000132111260000000008500CRESCENT1 CUS0057219          00200000000000                R KEMP                                                                               
013L5020210123000153470010000000143398049300000008500CRESCENT1 CUS0057178          00400000000000                R KHAN                                                                               
013L5020210123000605470010000000143251721800000008500CRESCENT1 CUS0059354          00200000000000                M FRANCIS                                                                            
013L5020210123000136051001000000040457179400000016000CRESCENT1 CUS0035895          00200000000000                F PALMER                                                                             
013L5020210123000855051001000000005220943100000022500CRESCENT1 CUS0028294          00200000000000                A KHAN                                                                               
013L5020210123000792470010000000127157739700000008500CRESCENT1 CUS0025063          00400000000000                J HAY                                                                                
013L5020210123000160470010000000116883099900000016000CRESCENT1 CUS0048831          00200000000000                K MANEVELD                                                                           
013L5020210123000513632005000000931435577600000008500CRESCENT1 CUS0059025          00292803000513                M DAVIDS                                                                             
013L5020210123000637470010000000156629632100000008500CRESCENT1 CUS0059464          03200000000000                R SAFODIEN                                                                           
013L5020210123000830051001000000007250590700000008500CRESCENT1 CUS0055351          00400000000000                F BARDIEN                                                                            
013L5020210123000528470010000000133553516900000007500CRESCENT1 CUS0052058          00200000000000                F SINGH                                                                              
013L5020210123000409470010000000134006074200000016000CRESCENT1 CUS0058402          00200000000000                A TOPLEY                                                                             
013L5020210123000786051001000000020105119200000016000CRESCENT1 CUS0024615          00200000000000                A MILLER                                                                             
013L5020210123000664051001000000027055025900000016000CRESCENT1 CUS0043917          00400000000000                N JONES                                                                              
013L5020210123000465051001000001009380497900000008500CRESCENT1 CUS0058676          01200000000000                I HENDRICKS                                                                          
013L5020210123000633470010000000147697704400000008500CRESCENT1 CUS0059461          00200000000000                N HALIEM                                                                             
013L5020210123000028470010000000150897122400000008500CRESCENT1 CUS0032343          00400000000000                W KRIEL                                                                              
013L5020210123000600051001000000027539809900000008500CRESCENT1 CUS0052897          00400000000000                H GELDERBLOEM                                                                        
013L5020210123000285470010000000141173068000000016000CRESCENT1 CUS0057756          00200000000000                A CROUCH                                                                             
013L5020210123000217470010000000140980096000000008500CRESCENT1 CUS0057412          00200000000000                S SAMUELS                                                                            
013L5020210123000273470010000000134150827500000008500CRESCENT1 CUS0057650          00200000000000                S CUMMINGS                                                                           
013L5020210123000791470010000000137726598400000008500CRESCENT1 CUS0054865          00200000000000                M DE JONGH                                                                           
013L5020210123000396470010000000139905438200000016000CRESCENT1 CUS0051106          00200000000000                A THORNE                                                                             
013L5020210123000381470010000000138789468200000008500CRESCENT1 CUS0058257          00200000000000                N REENEN                                                                             
013L5020210123000126051001000000007893545800000008500CRESCENT1 CUS0056953          00300000000000                S WITBWOI                                                                            
013L5020210123000639051001000000000252347700000008500CRESCENT1 CUS0043668          03400000000000                Y RASUL                                                                              
013L5020210123000293051001000001006059869500000008500CRESCENT1 CUS0057776          00200000000000                R PHIRI                                                                              
013L5020210123000717470010000000152076018100000007500CRESCENT1 CUS0020196          00200000000000                M OMAR                                                                               
013L5020210123000869470010000000158621406100000008500CRESCENT1 CUS0055673          00200000000000                R MENIERS                                                                            
013L5020210123000343051001000000005824696700000008500CRESCENT1 CUS0040029          00200000000000                F MOOSA                                                                              
013L5020210123000099051001000000040204263800000008500CRESCENT1 CUS0056772          00400000000000                S ABRAHAMS                                                                           
013L5020210123000206051001000001010974816400000031000CRESCENT1 CUS0002096          00200000000000                F AMOD                                                                               
013L5020210123000542632005000000404370027100000008500CRESCENT1 CUS0013984          00292803000542                A EBRAHIM                                                                            
013L5020210123000089632005000000408769507800000008500CRESCENT1 CUS0048187          00292803000089                F DAVIDS                                                                             
013L5020210123000324470010000000144978612800000008500CRESCENT1 CUS0050343          00200000000000                S ABRAHAMS                                                                           
013L5020210123000003470010000000152404000000000008500CRESCENT1 CUS0055829          00200000000000                A TITUS                                                                              
013L5020210123000255051001000000000015866600000031000CRESCENT1 CUS0038387          01200000000000                A DAVIES                                                                             
013L5020210123000335470010000000126214139500000008500CRESCENT1 CUS0039962          00200000000000                I PATEL                                                                              
013L5020210123000331051001000000027640044500000016000CRESCENT1 CUS0039801          00200000000000                F OLIVIER                                                                            
013L5020210123000617470010000000149664436900000008500CRESCENT1 CUS0059392          00200000000000                I DAWOOD                                                                             
013L5020210123000345470010000000147916340400000008500CRESCENT1 CUS0058066          00200000000000                A FISHER                                                                             
013L5020210123000781632005000000406069332400000008500CRESCENT1 CUS0045634          00292803000781                E MAYET                                                                              
013L5020210123000019632005000000924866636600000016000CRESCENT1 CUS0031939          03092801000019                H SALEH                                                                              
013L5020210123000784632005000000408286467400000016000CRESCENT1 CUS0045645          03092801000784                E DADA                                                                               
013L5020210123000701470010000000147742283600000008500CRESCENT1 CUS0053821          01200000000000                F NHLAPO                                                                             
013L5020210123000106678910000005102495416200000008500CRESCENT1 CUS0035165          00200000000000                S GALSOOLKER                                                                         
013L5020210123000075051001000001006446299200000008500CRESCENT1 CUS0056630          00400000000000                N SAIT                                                                               
013L5020210123000521470010000000131370171600000006900CRESCENT1 CUS0059078          03400000000000                F HARDING                                                                            
013L5020210123000450051001000000000161796600000008500CRESCENT1 CUS0010495          01200000000000                N JABAAR                                                                             
013L5020210123000809051001000000013124405100000008500CRESCENT1 CUS0055067          00200000000000                F HENDRICKS                                                                          
013L5020210123000628470010000000111529795100000008500CRESCENT1 CUS0053167          03400000000000                K ISMAIL                                                                             
013L5020210123000893470010000000139958181100000008500CRESCENT1 CUS0055825          00200000000000                R CASSIM                                                                             
013L5020210123000201470010000000137474821600000007500CRESCENT1 CUS0057357          00200000000000                F ISMAIL                                                                             
013L5020210123000612470010000000137706193900000008500CRESCENT1 CUS0053063          00200000000000                F MALLIE                                                                             
013L5020210123000397470010000000150783061900000008500CRESCENT1 CUS0058378          00200000000000                L CLOETE                                                                             
013L5020210123000147470010000000152480677100000016000CRESCENT1 CUS0057096          00200000000000                S CROEP                                                                              
013L5020210123000405470010000000162737823300000008500CRESCENT1 CUS0058400          00200000000000                B SAMUELS                                                                            
013L5020210123000365470010000000153759724600000008500CRESCENT1 CUS0058211          00200000000000                R JOOSTER                                                                            
013L5020210123000321470010000000163164392200000008500CRESCENT1 CUS0057940          00200000000000                R SOLOMONS                                                                           
013L5020210123000581470010000000140586348800000008500CRESCENT1 CUS0059240          00200000000000                A PARI                                                                               
013L5020210123000006470010000000140391941900000016000CRESCENT1 CUS0055832          00200000000000                S LEITJIES                                                                           
013L5020210123000379632005000000407622818300000008500CRESCENT1 CUS0041172          00292803000379                S CASSIM                                                                             
013L5020210123000536470010000000144946219500000008500CRESCENT1 CUS0052258          00200000000000                A ADAMS                                                                              
014L0000000900000000000000002615996829070000000092340000000000000000                                                                                                                                  
019L0000000900000000000000002615996829070000000092340000000000000000                                                                                                                                  
999L000000096                                                                                                                                                                                         
