000L2021052600000PAYPORT CONSULTING PTY LTD EFT000078107303                                                                                                                                           
010LD237000022301                                                                                                                                                                                     
011LD23763200500000040945448920120210426                                                                                                                                                              
013L5020210424003133051001000000022534647800000023500CRESCENT1 CUS0032558          03000000000000                A EBRAHIM                                                                            
014L0000000010000000000000000002253464780000000002350000000000000000                                                                                                                                  
011LD23763200500000040945448920120210430                                                                                                                                                              
013L5020210429000812198765000000198463824600000008500CRESCENT1 CUS0039228          03000000000000                T JOGI                                                                               
013L5020210429000270220329000005389003886400000016000CRESCENT1 CUS0025591          03400000000000                H BASHEER                                                                            
013L5020210429001466051001000000007568343100000016000CRESCENT1 CUS0058545          03400000000000                M ALLIE                                                                              
014L0000000030000000000000000559503605410000000004050000000000000000                                                                                                                                  
011LD23763200500000040945448920120210521                                                                                                                                                              
013L5020210520000115198765000000295247840600000016000CRESCENT1 CUS0042474          00200000000000                F MOHAMED                                                                            
013L5020210520000278198765000000260718895400000008500CRESCENT1 CUS0052750          00200000000000                B HAFFEJEE                                                                           
013L5020210520000387198765000000107827369300000016000CRESCENT1 CUS0028244          00200000000000                M RAGIEM                                                                             
013L5020210520000352198765000000105192450200000016000CRESCENT1 CUS0055740          00200000000000                L ISAACS                                                                             
014L0000000040000000000000000076898655550000000005650000000000000000                                                                                                                                  
011LD23763200500000040945448920120210525                                                                                                                                                              
013L5020210524000132632005000000901500678600000008500CRESCENT1 CUS0049621          00200016000132                N LENNOX                                                                             
013L5020210524000140632005000000921535516000000008500CRESCENT1 CUS0049642          00200016000140                A PATEL                                                                              
013L5020210524000533632005000000931512951600000008500CRESCENT1 CUS0053795          00200016000533                H TITUS                                                                              
013L5020210524000249632005000000930258876900000006900CRESCENT1 CUS0058915          01200000000249                S KRIEL                                                                              
013L5020210524000833632005000000928028054000000008500CRESCENT1 CUS0057033          00200016000833                A GEORGE                                                                             
013L5020210524000283632005000000915652527600000008500CRESCENT1 CUS0039939          00200016000283                F JOHNSON                                                                            
013L5020210524000223632005000000909115345300000016000CRESCENT1 CUS0038562          00200016000223                Z BHAYAT                                                                             
013L5020210524000256632005000000925387834200000008500CRESCENT1 CUS0050945          01200012000256                S HARRISON                                                                           
013L5020210524000126632005000000935317943000000008500CRESCENT1 CUS0058276          00200016000126                J JACKSON                                                                            
013L5020210524000752632005000000404237414600000008500CRESCENT1 CUS0056085          01200000000752                A SAMAAI                                                                             
013L5020210524000573632005000000926846021500000008500CRESCENT1 CUS0016365          00200016000573                H BAKER                                                                              
013L5020210524000005632005000000407472616300000016000CRESCENT1 CUS0048054          00492802000005                G CORNELIUS                                                                          
013L5020210524000706632005000000408825940500000008500CRESCENT1 CUS0045898          00300000000706                N OMAR                                                                               
013L5020210524000304632005000000914274452900000008500CRESCENT1 CUS0051264          00200016000304                Y MIA                                                                                
013L5020210524000171632005000000906673138500000016000CRESCENT1 CUS0037772          00200016000171                F RYKLIEF                                                                            
013L5020210524000476632005000000409185597500000008500CRESCENT1 CUS0053139          00300000000476                F RADEMEYER                                                                          
014L0000000160000000000000001267582490900000000015690000000000000000                                                                                                                                  
019L0000000240000000000000001906238216640000000027740000000000000000                                                                                                                                  
999L000000036                                                                                                                                                                                         
