000L2021032900000PAYPORT CONSULTING PTY LTD EFT000069307303                                                                                                                                           
010LD237000017001                                                                                                                                                                                     
011LD23763200500000040945448920120210316                                                                                                                                                              
013L5020210315000731632005000000409171335100000008500CRESCENT1 CUS0057344          03492801000731                L ATTWELL                                                                            
014L0000000010000000000000000040917133510000000000850000000000000000                                                                                                                                  
011LD23763200500000040945448920120210326                                                                                                                                                              
013L5020210325000815632005000000910007297600000016000CRESCENT1 CUS0002917          03492801000815                E ESSOP                                                                              
014L0000000010000000000000000091000729760000000001600000000000000000                                                                                                                                  
019L0000000020000000000000000131917863270000000002450000000000000000                                                                                                                                  
999L000000010                                                                                                                                                                                         
