000L2021013000000PAYPORT CONSULTING PTY LTD EFT000060907303                                                                                                                                           
010LD237000009401                                                                                                                                                                                     
011LD23763200500000040945448920120210116                                                                                                                                                              
013L5020210115000534051001000001003602574500000007500CRESCENT1 CUS0053734          03400000000000                A MOHAMED                                                                            
014L0000000010000000000000000100360257450000000000750000000000000000                                                                                                                                  
011LD23763200500000040945448920120210130                                                                                                                                                              
013L5020210129000964632005000000092686866300000008500CRESCENT1 CUS0033712          02682502000964                L BODIBA                                                                             
013L5020210129002221051001000000011497065400000008500CRESCENT1 CUS0041856          02682502002221                R JEEWA                                                                              
013L5020210129000734632005000004098710636500000016000CRESCENT1 CUS0033305          02682502000734                A AMOD                                                                               
013L5020210129002200198765000006257428456000000007500CRESCENT1 CUS0036230          02682502002200                S MUHAMMAD                                                                           
013L5020210129001594198765000000302389495300000008500CRESCENT1 CUS0046018          02682502001594                T BALLIM                                                                             
013L5020210129001757632005000000404755286900000007500CRESCENT1 CUS0050254          02682502001757                I SYDOW                                                                              
013L5020210129000254632005000000912784212400000007500CRESCENT1 CUS0032164          02682502000254                M PRINCE                                                                             
013L5020210129001782632005000000918861781600000008500CRESCENT1 CUS0041004          02682502001782                J ABDUL                                                                              
013L5020210129001128470010000000101612805000000008500CRESCENT1 CUS0054910          02682502001128                S SOLOMON                                                                            
013L5020210129002203470010000000119234193900000016000CRESCENT1 CUS0052282          02682502002203                A SMITH                                                                              
013L5020210129000333632005000000918304077000000008500CRESCENT1 CUS0025404          02683002000333                R ABRAHAMS                                                                           
013L5020210129001920470010000001561145095000000008500CRESCENT1 CUS0056711          02682502001920                S FICKS                                                                              
013L5020210129002237632005000000919043848700000008500CRESCENT1 CUS0013839          02682502002237                H FRANKS                                                                             
013L5020210129001156198765000000100846582500000008500CRESCENT1 CUS0045015          02682502001156                F ADAMS                                                                              
013L5020210129001438250655000006263142907200000008500CRESCENT1 CUS0027934          02682502001438                N MOGOTSI                                                                            
013L5020210129002382250655000006225062438500000016000CRESCENT1 CUS0047690          02682502002382                I ASCHENDORF                                                                         
013L5020210129001792250655000006208972578200000008500CRESCENT1 CUS0046450          02682502001792                N KHAN                                                                               
013L5020210129001216250655000000127327521500000007500CRESCENT1 CUS0045110          02682502001216                B MOHAMMED                                                                           
013L5020210129002136051001000000072577889800000008500CRESCENT1 CUS0000602          02682502002136                N FISHER                                                                             
013L5020210129002238250655000006233358449100000008500CRESCENT1 CUS0024351          02682502002238                N MOOSAJEE                                                                           
013L5020210129000524632005000000927559419100000016000CRESCENT1 CUS0032909          02683002000524                J SEETHAL                                                                            
013L5020210129000785470010000000014199597900000008500CRESCENT1 CUS0038829          02682502000785                Y GAMA                                                                               
013L5020210129002236250655000006252677740100000008500CRESCENT1 CUS0001274          02682502002236                K MOHAMED                                                                            
013L5020210129000565470010000000127138661700000007500CRESCENT1 CUS0038250          02682502000565                A MOHAMED                                                                            
013L5020210129001744051001000000065428087300000008500CRESCENT1 CUS0029287          02682502001744                N MATAMBO                                                                            
013L5020210129001540051001000000042225031000000008500CRESCENT1 CUS0045826          02682502001540                S RENFURM                                                                            
013L5020210129001235051001000000100308217100000016000CRESCENT1 CUS0039651          02682502001235                B MITCHELLE                                                                          
013L5020210129001602632005000000917463260500000031000CRESCENT1 CUS0040673          02682502001602                A EVANS                                                                              
013L5020210129002257051001000000020207834600000008500CRESCENT1 CUS0013923          02682502002257                S KAJEE                                                                              
013L5020210129000196198765000000101014142800000016000CRESCENT1 CUS0043083          02682502000196                N MOOI                                                                               
013L5020210129002440250655000000508710892200000008500CRESCENT1 CUS0036735          02682502002440                S MORAT                                                                              
013L5020210129001411632005000000910279301900000023500CRESCENT1 CUS0027853          02682502001411                E MONKHE                                                                             
013L5020210129000533250655000006225455928900000008500CRESCENT1 CUS0025930          02682502000533                Y SEEDAT                                                                             
013L5020210129000703250655000006213593727000000008500CRESCENT1 CUS0026277          02682502000703                N JALIEL                                                                             
013L5020210129001490198765000000108195326300000008500CRESCENT1 CUS0009097          02682502001490                F OMAR                                                                               
014L0000000350000000000000006438419935520000000037500000000000000000                                                                                                                                  
019L0000000360000000000000006538780192970000000038250000000000000000                                                                                                                                  
010LD237000009508                                                                                                                                                                                     
011LD23763200500000040945448920120210127                                                                                                                                                              
013L5020210127000923200110000006222594961100000008500CRESCENT1 CUS0048868          01200000000000                N CHRISTIANS                                                                         
013L5020210127003093201109000006234671413300000008500CRESCENT1 CUS0041564          00200000000000                F KHAN                                                                               
013L5020210127003641201909000005013115148800000008500CRESCENT1 CUS0052558          01800000000000                G NASH                                                                               
013L5020210127003148250655000006278322136100000008500CRESCENT1 CUS0058477          00200000000000                W JACOBS                                                                             
013L5020210127003804250655000006282794423300000016000CRESCENT1 CUS0058882          01200000000000                E GASANT                                                                             
013L5020210127001997254405000006209556614000000008500CRESCENT1 CUS0053860          01200000000000                D HARTNEY                                                                            
013L5020210127002791256205000006208897725500000008500CRESCENT1 CUS0044300          00600000000000                Z MAHOMED                                                                            
013L5020210127003927200109000006250639225800000008500CRESCENT1 CUS0048233          01200000000000                M VAN DEMAN                                                                          
013L5020210127002924198765000000116504981300000016000CRESCENT1 CUS0058386          00200000000000                J JAFTHA                                                                             
013L5020210127000091198765000000100116306000000006900CRESCENT1 CUS0048345          00200000000000                A OMARSHAR                                                                           
013L5020210127003346051001000000007262242300000016000CRESCENT1 CUS0032487          03600000000000                M NOORDIEN                                                                           
013L5020210127001036051001000000067493989100000008500CRESCENT1 CUS0051355          00200000000000                F ABOOBAKER                                                                          
013L5020210127001651201909000005008001756700000008500CRESCENT1 CUS0023669          00200000000000                R JATTIEM                                                                            
013L5020210127003398256055000006233539932600000008500CRESCENT1 CUS0044781          00600000000000                A SIBEKO                                                                             
013L5020210127003163255355000006265908484300000008500CRESCENT1 CUS0056954          00200000000000                M THEBUS                                                                             
013L5020210127003210254005000006005116163100000008500CRESCENT1 CUS0054895          01800000000000                N ABRAHAMS                                                                           
013L5020210127000935253305000005037110829900000016000CRESCENT1 CUS0036682          03600000000000                J SAKILDIEN                                                                          
013L5020210127001390250655000006276003764000000008500CRESCENT1 CUS0056036          00200000000000                A KHAN                                                                               
013L5020210127000127250655000006279238587700000008500CRESCENT1 CUS0057237          00200000000000                M KHAN                                                                               
013L5020210127000894200311000006249917021600000008500CRESCENT1 CUS0055858          00600000000000                Y ABRAHAMS                                                                           
013L5020210127000159198765000000115631073300000008500CRESCENT1 CUS0057246          00200000000000                R YAGHYA                                                                             
013L5020210127001744198765000000114827333600000008500CRESCENT1 CUS0059501          00200000000000                K CHIIKTA                                                                            
013L5020210127000403250337000006223272212500000008500CRESCENT1 CUS0022662          02600000000000                S CHOONARA                                                                           
013L5020210127000193252245000006223028363200000008500CRESCENT1 CUS0018658          00200000000000                N GAFOOR                                                                             
013L5020210127004025632005000000928171873400000017000CRESCENT1 CUS0052713          03492801004025                M JEFFIRIES                                                                          
013L5020210127001913250805000006266232453300000023500CRESCENT1 CUS0043621          00200000000000                G HENDRICKS                                                                          
013L5020210127002419252505000006224854679100000008500CRESCENT1 CUS0024147          01200000000000                Y MBLELE                                                                             
013L5020210127000802203209000006261323385800000008500CRESCENT1 CUS0020521          00200000000000                A GALLANT                                                                            
013L5020210127001377223126000006207332575800000008500CRESCENT1 CUS0019104          00600000000000                F DESAI                                                                              
013L5020210127001070201109000006246980383900000008500CRESCENT1 CUS0055908          01200000000000                M ABRAHAMS                                                                           
013L5020210127000048198765000000109869583600000006900CRESCENT1 CUS0059041          02600000000000                A SALIE                                                                              
013L5020210127001853250655000006280635468500000008500CRESCENT1 CUS0053731          00200000000000                M LAKAY                                                                              
013L5020210127000590260546000006264401849300000016000CRESCENT1 CUS0055706          01200000000000                M KHAN                                                                               
013L5020210127003734250737000006245145229800000008500CRESCENT1 CUS0044899          00200000000000                S DAWOOD                                                                             
013L5020210127001586254205000006200341834100000016000CRESCENT1 CUS0020832          00200000000000                N CHRISTASMY                                                                         
013L5020210127003670203209000006209959137500000008500CRESCENT1 CUS0044883          00600000000000                A FAKIR                                                                              
013L5020210127001791210046000006262218181600000008500CRESCENT1 CUS0057898          03600000000000                S ADAMS                                                                              
013L5020210127001965200510000006229427954400000008500CRESCENT1 CUS0053839          01200000000000                E RAS                                                                                
013L5020210127001173198765000000126804396600000008500CRESCENT1 CUS0031244          00200000000000                M AH-SHENE                                                                           
013L5020210127003035198765000000207900299600000008500CRESCENT1 CUS0056857          03000000000000                M EDWARDS                                                                            
013L5020210127003678252505000005031001640300000008500CRESCENT1 CUS0019941          01200000000000                A TIMOL                                                                              
013L5020210127000028250655000006279585787300000008500CRESCENT1 CUS0050892          00200000000000                Z BEG                                                                                
013L5020210127002175250655000006268998089700000008500CRESCENT1 CUS0058109          03600000000000                L VAN REENEN                                                                         
013L5020210127002737250655000006273896909900000008500CRESCENT1 CUS0058286          00200000000000                I DOLLIE                                                                             
013L5020210127000018250205000006209707080000000016000CRESCENT1 CUS0020167          00200000000000                R FOOLAT                                                                             
013L5020210127002563256205000006234384506400000016000CRESCENT1 CUS0035184          00600000000000                M VANWYK                                                                             
013L5020210127003683198765000000138508184800000008500CRESCENT1 CUS0035813          01200000000000                F BHARDU                                                                             
013L5020210127001292210521000006219757113800000008500CRESCENT1 CUS0051514          00200000000000                F NOOR                                                                               
013L5020210127000026211417000006218892298600000008500CRESCENT1 CUS0045181          00200000000000                M SATAAR                                                                             
013L5020210127003252198765000000101587217400000008500CRESCENT1 CUS0038266          00200000000000                S ZUMA                                                                               
013L5020210127001751051001000000000165613900000008500CRESCENT1 CUS0037157          03400000000000                F SAYED                                                                              
013L5020210127000623250040000006234877887200000008500CRESCENT1 CUS0057489          03600000000000                S GRIFFITHE                                                                          
013L5020210127002033254605000006224141676900000016000CRESCENT1 CUS0019403          00200000000000                I YUSUF                                                                              
013L5020210127002307250455000006225279913800000016000CRESCENT1 CUS0024099          00200000000000                L JARDINE                                                                            
013L5020210127000622250655000006277422879800000016000CRESCENT1 CUS0055722          00200000000000                L PATEL                                                                              
013L5020210127002232211517000006234879409200000016000CRESCENT1 CUS0040932          00200000000000                S WASSIN                                                                             
013L5020210127003786201009000006260512028700000008500CRESCENT1 CUS0055203          03000000000000                M GAMIET                                                                             
013L5020210127003620203109000006262608405800000008500CRESCENT1 CUS0038640          00200000000000                A DAMON                                                                              
013L5020210127001958220325000006022035968700000008500CRESCENT1 CUS0034698          00200000000000                M SEER                                                                               
013L5020210127001551198765000000116927077800000006900CRESCENT1 CUS0057787          00200000000000                J DAVIDS                                                                             
013L5020210127003047198765000000108477359700000007500CRESCENT1 CUS0047491          01200000000000                T EBRAHIM                                                                            
013L5020210127001678198765000000112867325800000008500CRESCENT1 CUS0056179          00200000000000                D HARE                                                                               
013L5020210127002478250655000006275531888100000008500CRESCENT1 CUS0056633          00200000000000                A DOLLIE                                                                             
013L5020210127003015252505000006209146452000000008500CRESCENT1 CUS0047462          00200000000000                Z FREDERICKS                                                                         
013L5020210127000421260349000006200764335800000015000CRESCENT1 CUS0030680          00200000000000                M MOOSA                                                                              
013L5020210127002644470010000000160931017700000008500CRESCENT1 CUS0052040          03200000000000                S MOHAMED                                                                            
013L5020210127001883259605000006262038365400000008500CRESCENT1 CUS0049453          01200000000000                K GANI                                                                               
013L5020210127000653255355000006250489736700000008500CRESCENT1 CUS0053103          00200000000000                N ROSENBERG                                                                          
013L5020210127001470255355000006257476487700000008500CRESCENT1 CUS0056074          01200000000000                F GANIEF                                                                             
013L5020210127003764198765000000104466234400000008500CRESCENT1 CUS0038690          00600000000000                Z KHAN                                                                               
013L5020210127000343198765000000196331344500000008500CRESCENT1 CUS0036263          00600000000000                A MUSTAPHA                                                                           
013L5020210127001524051001000000025048978300000016000CRESCENT1 CUS0027079          03400000000000                F HASSIM                                                                             
013L5020210127001340051001000000027710253700000008500CRESCENT1 CUS0051524          03000000000000                M JABAAR                                                                             
013L5020210127003314198765000000118567671600000024500CRESCENT1 CUS0032460          00200000000000                M HOOSEN                                                                             
013L5020210127002383201409000006260536854800000016000CRESCENT1 CUS0058203          01200000000000                H MCCABE                                                                             
013L5020210127001288201109000006231560532100000008500CRESCENT1 CUS0040145          01200000000000                M DAVIDS                                                                             
013L5020210127000518220226000006007109810300000008500CRESCENT1 CUS0033297          00600000000000                F HANIFF                                                                             
013L5020210127000863210528000006235532928800000008500CRESCENT1 CUS0057555          00200000000000                S BOTHA                                                                              
013L5020210127002239250655000006268148632200000008500CRESCENT1 CUS0058127          00600000000000                T ACHMAT                                                                             
013L5020210127001007250655000006274093185400000016000CRESCENT1 CUS0057596          01200000000000                A NAHAS                                                                              
013L5020210127000712255355000006240605043500000008500CRESCENT1 CUS0039520          00200000000000                I SAYED                                                                              
013L5020210127002908250655000006280124261100000008500CRESCENT1 CUS0058385          00200000000000                F THERON                                                                             
013L5020210127002333051001000000022120651500000008500CRESCENT1 CUS0054262          03400000000000                R EDWARDS                                                                            
013L5020210127002983254205000006207808001800000007500CRESCENT1 CUS0047435          00200000000000                Z BUX                                                                                
013L5020210127003919250056000006250186792500000016000CRESCENT1 CUS0022394          01200000000000                H MOOLA                                                                              
013L5020210127001647201709000006211023601600000008500CRESCENT1 CUS0057832          00200000000000                F SAKIELDIEN                                                                         
013L5020210127000862198765000000112242767000000008500CRESCENT1 CUS0055799          03000000000000                K JONES                                                                              
013L5020210127003989198765000000113557383200000008500CRESCENT1 CUS0042087          00200000000000                T MAKHANYA                                                                           
013L5020210127000482470010000000111681523900000016000CRESCENT1 CUS0020362          03400000000000                M THEBUS                                                                             
013L5020210127000122632005000003804556081100000008500CRESCENT1 CUS0045232          03292801000122                M MPITI                                                                              
013L5020210127002525198765000000159504193100000008500CRESCENT1 CUS0054486          00200000000000                S JUMAT                                                                              
013L5020210127000981250056000006230699430300000016000CRESCENT1 CUS0031131          00200000000000                I MAYET                                                                              
013L5020210127002463250555000006240400573900000008500CRESCENT1 CUS0058208          00200000000000                A NORDIEN                                                                            
013L5020210127003717198765000000144002475800000008500CRESCENT1 CUS0041939          01200000000000                H CASSIM                                                                             
013L5020210127000474210221000005213003439200000008500CRESCENT1 CUS0045466          00600000000000                M DAVIDS                                                                             
013L5020210127002302250655000006276994032300000008500CRESCENT1 CUS0056584          00200000000000                M HOOSAIN                                                                            
013L5020210127002625255355000006255577989500000008500CRESCENT1 CUS0041228          01200000000000                M OBARAY                                                                             
013L5020210127000109051001000000027030922500000007500CRESCENT1 CUS0052847          03600000000000                M DAVIDS                                                                             
013L5020210127002428250141000006245815733800000008500CRESCENT1 CUS0051965          00200000000000                N BEJJ                                                                               
013L5020210127002797198765000000164201048000000008500CRESCENT1 CUS0058301          00200000000000                M SALIE                                                                              
013L5020210127003838198765000000295349475800000016000CRESCENT1 CUS0020000          01200000000000                F SHAIKHNAG                                                                          
013L5020210127002918198765000000104578772800000008500CRESCENT1 CUS0044439          00200000000000                Z ALLIE HENDRICKS                                                                    
013L5020210127002740260202000006238146985000000023500CRESCENT1 CUS0024482          01200000000000                F PATEL                                                                              
013L5020210127001747260225000006207159227600000008500CRESCENT1 CUS0023731          01800000000000                Z KHAN                                                                               
013L5020210127003469260349000006200764335800000016000CRESCENT1 CUS0018403          00200000000000                Y MOOSA                                                                              
013L5020210127002105260950000006211719860700000008500CRESCENT1 CUS0043764          00600000000000                F CHOTHIA                                                                            
013L5020210127002318198765000000106698444100000008500CRESCENT1 CUS0056585          00200000000000                S HASSEN                                                                             
013L5020210127003834198765000000106852225900000008500CRESCENT1 CUS0055235          03000000000000                F SUTCH                                                                              
013L5020210127004067198765000000110133747800000016000CRESCENT1 CUS0036008          00200000000000                J THERON                                                                             
013L5020210127002269250141000006210045984200000008500CRESCENT1 CUS0054189          00200000000000                A KHAN                                                                               
013L5020210127002899250068000006202665968300000008500CRESCENT1 CUS0035376          00200000000000                S JACOB                                                                              
013L5020210127002398250114000006251666126300000008500CRESCENT1 CUS0056608          00200000000000                M STAGGIE                                                                            
013L5020210127000074250141000006249098928600000008500CRESCENT1 CUS0045209          00600000000000                N AMOD                                                                               
013L5020210127001061250345000006209245024700000016000CRESCENT1 CUS0031212          00200000000000                A MATSHIDI                                                                           
013L5020210127003116250655000006279548032700000008500CRESCENT1 CUS0058467          00200000000000                N FORTUNE                                                                            
013L5020210127000870251705000006207891584300000007500CRESCENT1 CUS0033709          05600000000000                M BAMATH                                                                             
013L5020210127002649220126000005083001233700000008500CRESCENT1 CUS0021447          00200000000000                A MAHMOOD                                                                            
013L5020210127002843222019000006260019996400000008500CRESCENT1 CUS0056771          00200000000000                H DEABRUYN                                                                           
013L5020210127003891250737000006234750557300000016000CRESCENT1 CUS0035917          00200000000000                F BATA                                                                               
013L5020210127001469255355000006259230026500000008500CRESCENT1 CUS0053546          01200000000000                H JACOBS                                                                             
013L5020210127003442051001000000004252183100000016000CRESCENT1 CUS0032510          03400000000000                F VAN WYK                                                                            
013L5020210127002431198765000000101761228500000008500CRESCENT1 CUS0058206          00200000000000                F SAMSODIEN                                                                          
013L5020210127003619256505000006234275310100000008500CRESCENT1 CUS0035760          00200000000000                A PARUK                                                                              
013L5020210127002364250655000006285881460300000008500CRESCENT1 CUS0051936          01200000000000                N HENDRICKS                                                                          
013L5020210127003715250737000006224669738000000008500CRESCENT1 CUS0035829          00200000000000                A KHAN                                                                               
013L5020210127001680250655000006284494986000000016000CRESCENT1 CUS0059479          00200000000000                S WILLIAMS                                                                           
013L5020210127003669250655000006273338602400000008500CRESCENT1 CUS0041929          00200000000000                S RAHMAN                                                                             
013L5020210127000638250555000006232537611000000008500CRESCENT1 CUS0055738          00600000000000                R SALIE                                                                              
013L5020210127002038198765000000265638458300000008500CRESCENT1 CUS0034805          01200000000000                H KHAN                                                                               
013L5020210127002538198765000000110671709000000008500CRESCENT1 CUS0049859          03000000000000                J REYNECKE                                                                           
013L5020210127002777250409000006245518082900000008500CRESCENT1 CUS0047308          01200000000000                M HASSIM                                                                             
013L5020210127003676250655000006277840011000000008500CRESCENT1 CUS0058797          00600000000000                S DELAIR                                                                             
013L5020210127000582251905000006013625366800000016000CRESCENT1 CUS0033368          00200000000000                C DAMINGO                                                                            
013L5020210127003692255355000006237749097600000008500CRESCENT1 CUS0058804          00200000000000                A ARIEFDIEN                                                                          
013L5020210127001827270251000005289313705300000007500CRESCENT1 CUS0023844          01800000000000                M OMARJEE                                                                            
013L5020210127001805051001000000020262557500000008500CRESCENT1 CUS0053678          03400000000000                M ROWJEE                                                                             
013L5020210127001916198765000000104409125800000008500CRESCENT1 CUS0051767          00200000000000                S JAFFER                                                                             
013L5020210127003504632005000000406214021800000016000CRESCENT1 CUS0025078          03492801003504                F HAJAT WAKEFORD                                                                     
013L5020210127000665258605000006242739372300000008500CRESCENT1 CUS0042674          01200000000000                B SHARIEF                                                                            
013L5020210127003946250655000006276073614300000008500CRESCENT1 CUS0055348          01200000000000                R WILLIAMS                                                                           
013L5020210127002174250655000006274995042500000016000CRESCENT1 CUS0056503          01200000000000                S DA SILVER                                                                          
013L5020210127000537250537000006201929576700000008500CRESCENT1 CUS0042540          00200000000000                S MOOSA                                                                              
013L5020210127003374198765000000114803777200000008500CRESCENT1 CUS0019846          03000000000000                F SAMAAI                                                                             
013L5020210127004027198765000000117649942400000008500CRESCENT1 CUS0057196          00200000000000                I WILLIAMS                                                                           
013L5020210127002745201909000006224186049500000016000CRESCENT1 CUS0041292          00200000000000                F SISSOKO                                                                            
013L5020210127001152203109000006265931574300000008500CRESCENT1 CUS0059385          00200000000000                A ABRAHAMS                                                                           
013L5020210127001886221926000006226201801500000008500CRESCENT1 CUS0056234          00600000000000                M MOOSA                                                                              
013L5020210127001824200109000006207738063300000008500CRESCENT1 CUS0059528          00200000000000                Z MOHAMED                                                                            
013L5020210127002923250655000006272829696500000008500CRESCENT1 CUS0056798          00600000000000                Z WILLIAMS                                                                           
013L5020210127001577198765000000288727584400000008500CRESCENT1 CUS0043394          02600000000000                A SALLIE                                                                             
013L5020210127003496198765000000203132228100000016000CRESCENT1 CUS0050567          02600000000000                N DIEDERICKS                                                                         
013L5020210127000991198765000000119050343300000008500CRESCENT1 CUS0057593          00600000000000                K DANSTER                                                                            
013L5020210127001167198765000000116461731100000016000CRESCENT1 CUS0057663          00200000000000                N PIETERS                                                                            
013L5020210127003368231433000006259022529100000008500CRESCENT1 CUS0050486          03600000000000                S NGOBESE                                                                            
013L5020210127000258201409000005026012431400000008500CRESCENT1 CUS0020241          00200000000000                M ABRAHAMS                                                                           
014L0000001550000000000000066210680415780000000160120000000000000000                                                                                                                                  
019L0000001550000000000000066210680415780000000160120000000000000000                                                                                                                                  
999L000000203                                                                                                                                                                                         
