000L2020120100000PAYPORT CONSULTING PTY LTD EFT000052707303                                                                                                                                           
010LD237000004601                                                                                                                                                                                     
011LD23763200500000040945448920120201125                                                                                                                                                              
013L5020201124000055470010000000141009037800000008500CRESCENT1 CUS0052025          03000000000000                S DOLLEY                                                                             
014L0000000010000000000000000014100903780000000000850000000000000000                                                                                                                                  
011LD23763200500000040945448920120201201                                                                                                                                                              
013L5020201130000003632005000000458347508200000010000PAYPORT   1606570201RARM01    02683002000003                JAIME SAULS                                                                          
013L5020201130000001580105000034656875635500000000500PAYPORT   1606397418R0011     89982510000001                ALICE WONDERLAND                                                                     
014L0000000020000000000000003511522314370000000001050000000000000000                                                                                                                                  
019L0000000030000000000000003525623218150000000001900000000000000000                                                                                                                                  
999L000000011                                                                                                                                                                                         
