000L2021021500000PAYPORT CONSULTING PTY LTD    000063307303                                                                                                                                           
900L000 TRANSMISSION 07303-0000062 ACCEPTED                                                                                                                                                           
900L001 ACB USER SET D237-0000067-001261 ACCEPTED                                                                                                                                                     
903L001L5063200504094544892D23700000125065562062132651100000016000210216350   CRESCENT1 CUS0007202          N THOKAN                      00000000000000000000                21                      
903L001L5063200504094544892D23700000219876501349080756100000008500210216350   CRESCENT1 CUS0031243          S MANACK                      00000000000000000000                21                      
903L001L5063200504094544892D23700000325065562089032230100000007500210216350   CRESCENT1 CUS0044784          A RAJAH                       00000000000000000000                21                      
903L001L5063200504094544892D23700000405100110074401007100000008500210216350   CRESCENT1 CUS0051123          F HASSIM                      00000000000000000000                21                      
903L001L5063200504094544892D23700000519876501033820695100000008500210216350   CRESCENT1 CUS0057345          M ISAACS                      00000000000000000000                21                      
903L001L5063200504094544892D23700000625065562461806609100000016000210216350   CRESCENT1 CUS0007230          N KAROLIA                     00000000000000000000                21                      
903L001L5063200504094544892D23700000725065562721377457100000016000210216350   CRESCENT1 CUS0031332          E SAYED                       00000000000000000000                21                      
903L001L5063200504094544892D23700000825065562086354033100000016000210216350   CRESCENT1 CUS0044792          L COETZEE                     00000000000000000000                21                      
903L001L5063200504094544892D23700000905100110084570901100000008500210216350   CRESCENT1 CUS0051128          S GEORGE                      00000000000000000000                21                      
903L001L5063200504094544892D23700001019876501045244236100000008500210216350   CRESCENT1 CUS0057373          R PATEL                       00000000000000000000                21                      
903L001L5063200504094544892D23700001163200509621195125100000006900210216350   CRESCENT1 CUS0007269          N SUBAYA                      00000000000000000000                21                      
903L001L5063200504094544892D23700001225065562266316407100000016000210216350   CRESCENT1 CUS0031346          M MULLAJI                     00000000000000000000                21                      
903L001L5063200504094544892D23700001319876501081241136100000008500210216350   CRESCENT1 CUS0044794          A ABED                        00000000000000000000                21                      
903L001L5063200504094544892D23700001457010500031006743200000008500210216350   CRESCENT1 CUS0051149          B NASARKA                     00000000000000000000                21                      
903L001L5063200504094544892D23700001547001001541950176200000008500210216350   CRESCENT1 CUS0057399          M HERCULES                    00000000000000000000                21                      
903L001L5063200504094544892D23700001625065562266894130100000008500210216350   CRESCENT1 CUS0007275          A KHAN                        00000000000000000000                21                      
903L001L5063200504094544892D23700001725065562808762266100000008500210216350   CRESCENT1 CUS0031471          Y SAYED                       00000000000000000000                21                      
903L001L5063200504094544892D23700001825065562220289559100000031000210216350   CRESCENT1 CUS0044799          B HATTIA                      00000000000000000000                21                      
903L001L5063200504094544892D23700001905100110061473470100000008500210216350   CRESCENT1 CUS0051170          G AJERAAN                     00000000000000000000                21                      
903L001L5063200504094544892D23700002025065562767190417100000008500210216350   CRESCENT1 CUS0057409          C NOMDOE                      00000000000000000000                21                      
903L001L5063200504094544892D23700002180000078600035844200000016000210216350   CRESCENT1 CUS0007378          F LAMBAT                      00000000000000000000                21                      
903L001L5063200504094544892D23700002225065562227849562100000016000210216350   CRESCENT1 CUS0031557          R REHEMAN                     00000000000000000000                21                      
903L001L5063200504094544892D23700002325065562117082909100000016000210216350   CRESCENT1 CUS0044800          F RAVAT                       00000000000000000000                21                      
903L001L5063200504094544892D23700002405100100278152619100000015000210216350   CRESCENT1 CUS0051237          A GARNIE                      00000000000000000000                21                      
903L001L5063200504094544892D23700002519876501190505932100000008500210216350   CRESCENT1 CUS0057430          A DAVIDS                      00000000000000000000                21                      
903L001L5063200504094544892D23700002663200500022291118100000006900210216350   CRESCENT1 CUS0007458          F TAJBHAI                     00000000000000000000                21                      
903L001L5063200504094544892D23700002725065560086338685100000008500210216350   CRESCENT1 CUS0031698          F EBRAHIM                     00000000000000000000                21                      
903L001L5063200504094544892D23700002847001001056540672200000008500210216350   CRESCENT1 CUS0044801          M DENNIS GREEN                00000000000000000000                21                      
903L001L5063200504094544892D23700002947001001290765233200000008500210216350   CRESCENT1 CUS0051242          G DEJONGH                     00000000000000000000                21                      
903L001L5063200504094544892D23700003063200504055965299100000008500210216350   CRESCENT1 CUS0057436          R AHMED                       00000000000000000000                21                      
903L001L5063200504094544892D23700003163200509180266357100000016000210216350   CRESCENT1 CUS0007475          M JACOBS                      00000000000000000000                21                      
903L001L5063200504094544892D23700003225065562427874575100000008500210216350   CRESCENT1 CUS0031712          S MOOSA                       00000000000000000000                21                      
903L001L5063200504094544892D23700003305100100204244641100000008500210216350   CRESCENT1 CUS0044817          F GREEFF                      00000000000000000000                21                      
903L001L5063200504094544892D23700003425065562541991106100000008500210216350   CRESCENT1 CUS0051252          A EDWARDS                     00000000000000000000                21                      
903L001L5063200504094544892D23700003547001001222703155200000008500210216350   CRESCENT1 CUS0057467          M MOHAMMED                    00000000000000000000                21                      
903L001L5063200504094544892D23700003663200504068817457100000008500210216350   CRESCENT1 CUS0007481          M RAJAN                       00000000000000000000                21                      
903L001L5063200504094544892D23700003763200509230667277100000008500210216350   CRESCENT1 CUS0031748          A SHEIK                       00000000000000000000                21                      
903L001L5063200504094544892D23700003825065562113044010100000008500210216350   CRESCENT1 CUS0044818          M NASSON                      00000000000000000000                21                      
903L001L5063200504094544892D23700003925065562605277393100000008500210216350   CRESCENT1 CUS0051260          Y KIKIA                       00000000000000000000                21                      
903L001L5063200504094544892D23700004047001001379514043200000008500210216350   CRESCENT1 CUS0057486          L ROSSIER                     00000000000000000000                21                      
903L001L5063200504094544892D23700004125065562178253135100000016000210216350   CRESCENT1 CUS0007763          N LUTCHKA                     00000000000000000000                21                      
903L001L5063200504094544892D23700004225065562139741450100000008500210216350   CRESCENT1 CUS0031793          A HAJEE ABOO                  00000000000000000000                21                      
903L001L5063200504094544892D23700004325065562143557851100000008500210216350   CRESCENT1 CUS0044833          D MARNEWICK                   00000000000000000000                21                      
903L001L5063200504094544892D23700004447001001348830962200000008500210216350   CRESCENT1 CUS0051269          Y BRAAF                       00000000000000000000                21                      
903L001L5063200504094544892D23700004547001001369775456200000008500210216350   CRESCENT1 CUS0057507          A DE VRIES                    00000000000000000000                21                      
903L001L5063200504094544892D23700004625065562390019620100000008500210216350   CRESCENT1 CUS0007798          A SHAIK                       00000000000000000000                21                      
903L001L5063200504094544892D23700004705100100031720609100000008500210216350   CRESCENT1 CUS0031963          M PATEL                       00000000000000000000                21                      
903L001L5063200504094544892D23700004825065555020008972100000008500210216350   CRESCENT1 CUS0044844          S EBRAHIM                     00000000000000000000                21                      
903L001L5063200504094544892D23700004925065562310722732100000008500210216350   CRESCENT1 CUS0051290          A LATIEF                      00000000000000000000                21                      
903L001L5063200504094544892D23700005047001001407830455200000008500210216350   CRESCENT1 CUS0057534          A FELIX                       00000000000000000000                21                      
903L001L5063200504094544892D23700005163200509004532326100000015000210216350   CRESCENT1 CUS0007898          R BHAYAT                      00000000000000000000                21                      
903L001L5063200504094544892D23700005225065562445721708100000008500210216350   CRESCENT1 CUS0032117          N HUSSAIN ELLAHI FAZEL        00000000000000000000                21                      
903L001L5063200504094544892D23700005305100110012749441100000008500210216350   CRESCENT1 CUS0044872          N MOHAMMED RAIMAN             00000000000000000000                21                      
903L001L5063200504094544892D23700005405100100270747435100000008500210216350   CRESCENT1 CUS0051314          Z ABRAHAMS                    00000000000000000000                21                      
903L001L5063200504094544892D23700005547001001543412198200000006900210216350   CRESCENT1 CUS0057539          Y CASSIEM                     00000000000000000000                21                      
903L001L5063200504094544892D23700005625065562393925270100000015000210216350   CRESCENT1 CUS0008031          A MAHOMED                     00000000000000000000                21                      
903L001L5063200504094544892D23700005725065560528278779100000008500210216350   CRESCENT1 CUS0032306          F VALI                        00000000000000000000                21                      
903L001L5063200504094544892D23700005819876501757019103100000008500210216350   CRESCENT1 CUS0044877          S ABDUL GAFAAR                00000000000000000000                21                      
903L001L5063200504094544892D23700005925065562280414716100000008500210216350   CRESCENT1 CUS0051350          Z DAVIDS                      00000000000000000000                21                      
903L001L5063200504094544892D23700006005100100073229334100000008500210216350   CRESCENT1 CUS0057562          M MENTOOR                     00000000000000000000                21                      
903L001L5063200504094544892D23700006119876501131094271100000008500210216350   CRESCENT1 CUS0008155          K ISAACS                      00000000000000000000                21                      
903L001L5063200504094544892D23700006205100110102916339100000007500210216350   CRESCENT1 CUS0032364          A MAHOMED                     00000000000000000000                21                      
903L001L5063200504094544892D23700006325065562456359514100000008500210216350   CRESCENT1 CUS0044963          A KAABI                       00000000000000000000                21                      
903L001L5063200504094544892D23700006405100100051243652100000007500210216350   CRESCENT1 CUS0051366          F ASMAL                       00000000000000000000                21                      
903L001L5063200504094544892D23700006505100100270341404100000008500210216350   CRESCENT1 CUS0057563          I ANTHONY                     00000000000000000000                21                      
903L001L5063200504094544892D23700006605100100060818867100000008500210216350   CRESCENT1 CUS0008257          Z DADA                        00000000000000000000                21                      
903L001L5063200504094544892D23700006763200501149121389100000008500210216350   CRESCENT1 CUS0032481          M SALIE                       00000000000000000000                21                      
903L001L5063200504094544892D23700006805100100031055184100000008500210216350   CRESCENT1 CUS0044999          S BHYAT                       00000000000000000000                21                      
903L001L5063200504094544892D23700006925065562118201756100000008500210216350   CRESCENT1 CUS0051466          D BARNES                      00000000000000000000                21                      
903L001L5063200504094544892D23700007063200504056996538100000016000210216350   CRESCENT1 CUS0057608          S ABRAHAMS                    00000000000000000000                21                      
903L001L5063200504094544892D23700007105100100010620842100000008500210216350   CRESCENT1 CUS0008346          H CASSIM                      00000000000000000000                21                      
903L001L5063200504094544892D23700007205100100200374133100000008500210216350   CRESCENT1 CUS0032484          S SALIE                       00000000000000000000                21                      
903L001L5063200504094544892D23700007363200504052629250100000008500210216350   CRESCENT1 CUS0045009          M GAMEELDIEN                  00000000000000000000                21                      
903L001L5063200504094544892D23700007425065562045709899100000008500210216350   CRESCENT1 CUS0051493          A ADAMJEE                     00000000000000000000                21                      
903L001L5063200504094544892D23700007547001001164995861200000008500210216350   CRESCENT1 CUS0057647          M ISAACS                      00000000000000000000                21                      
903L001L5063200504094544892D23700007605100100243269870100000008500210216350   CRESCENT1 CUS0008495          T LAHER                       00000000000000000000                21                      
903L001L5063200504094544892D23700007725065560085534599100000008500210216350   CRESCENT1 CUS0032764          F MOHAMED                     00000000000000000000                21                      
903L001L5063200504094544892D23700007805100100022478388100000008500210216350   CRESCENT1 CUS0045016          S HOOSEN                      00000000000000000000                21                      
903L001L5063200504094544892D23700007963200500016497673100000007500210216350   CRESCENT1 CUS0051500          Z MCLAREN                     00000000000000000000                21                      
903L001L5063200504094544892D23700008025065562284254944100000008500210216350   CRESCENT1 CUS0057710          M PETERSEN                    00000000000000000000                21                      
903L001L5063200504094544892D23700008105100100030289491100000008500210216350   CRESCENT1 CUS0008847          G SHAAH                       00000000000000000000                21                      
903L001L5063200504094544892D23700008225065562165324220100000008500210216350   CRESCENT1 CUS0032765          R WALLJEE                     00000000000000000000                21                      
903L001L5063200504094544892D23700008325065560027267405100000008500210216350   CRESCENT1 CUS0045040          F HANSLO                      00000000000000000000                21                      
903L001L5063200504094544892D23700008463200538126940014100000008500210216350   CRESCENT1 CUS0051527          A SAGE                        00000000000000000000                21                      
903L001L5063200504094544892D23700008525065562677313092100000008500210216350   CRESCENT1 CUS0057714          M MARLEY                      00000000000000000000                21                      
903L001L5063200504094544892D23700008663200504040850380100000008500210216350   CRESCENT1 CUS0008914          A THOMAS                      00000000000000000000                21                      
903L001L5063200504094544892D23700008705100100272878618100000008500210216350   CRESCENT1 CUS0032772          M MANUEL                      00000000000000000000                21                      
903L001L5063200504094544892D23700008825065550010007158100000006900210216350   CRESCENT1 CUS0045059          A DANIELS                     00000000000000000000                21                      
903L001L5063200504094544892D23700008980000078600116766200000008500210216350   CRESCENT1 CUS0051605          R ERAHIM                      00000000000000000000                21                      
903L001L5063200504094544892D23700009019876501164958461100000008500210216350   CRESCENT1 CUS0057739          R SAMSODIEN                   00000000000000000000                21                      
903L001L5063200504094544892D23700009163200509057948599100000008500210216350   CRESCENT1 CUS0008921          J HUSSEIN                     00000000000000000000                21                      
903L001L5063200504094544892D23700009205100100001296108100000008500210216350   CRESCENT1 CUS0032895          I CANTHITOO                   00000000000000000000                21                      
903L001L5063200504094544892D23700009325065550151708649100000008500210216350   CRESCENT1 CUS0045067          F SAYED                       00000000000000000000                21                      
903L001L5063200504094544892D23700009425065562532439206100000008500210216350   CRESCENT1 CUS0051618          D COERECIUS                   00000000000000000000                21                      
903L001L5063200504094544892D23700009547001001281384281200000006900210216350   CRESCENT1 CUS0057751          M KERBELKER                   00000000000000000000                21                      
903L001L5063200504094544892D23700009625065562044314243100000008500210216350   CRESCENT1 CUS0008927          A ADAMJEE                     00000000000000000000                21                      
903L001L5063200504094544892D23700009725065562746910167100000007500210216350   CRESCENT1 CUS0033203          S OBARAY                      00000000000000000000                21                      
903L001L5063200504094544892D23700009805100100005427614100000008500210216350   CRESCENT1 CUS0045071          F ASVAT                       00000000000000000000                21                      
903L001L5063200504094544892D23700009963200504066461202100000008500210216350   CRESCENT1 CUS0051641          R SOOSIE                      00000000000000000000                21                      
903L001L5063200504094544892D23700010063200509258263512100000008500210216350   CRESCENT1 CUS0057791          E ISAACS                      00000000000000000000                21                      
903L001L5063200504094544892D23700010105100100225347296100000008500210216350   CRESCENT1 CUS0008928          K STEELE                      00000000000000000000                21                      
903L001L5063200504094544892D23700010205100100310914728100000008500210216350   CRESCENT1 CUS0033257          F HENDRICKS                   00000000000000000000                21                      
903L001L5063200504094544892D23700010305100110013179002100000008500210216350   CRESCENT1 CUS0045078          M DEVAJEE                     00000000000000000000                21                      
903L001L5063200504094544892D23700010425065562646024729100000008500210216350   CRESCENT1 CUS0051660          G DAVIDS                      00000000000000000000                21                      
903L001L5063200504094544892D23700010505100100243147007100000016000210216350   CRESCENT1 CUS0057807          J KNYNOCH                     00000000000000000000                21                      
903L001L5063200504094544892D23700010625065562407586877100000008500210216350   CRESCENT1 CUS0009023          M IBRAHIM                     00000000000000000000                21                      
903L001L5063200504094544892D23700010725065562118294529100000008500210216350   CRESCENT1 CUS0033261          I VALLEE                      00000000000000000000                21                      
903L001L5063200504094544892D23700010819876501963260147100000008500210216350   CRESCENT1 CUS0045137          M HOLLARD                     00000000000000000000                21                      
903L001L5063200504094544892D23700010905100100073160903100000008500210216350   CRESCENT1 CUS0051668          G NOLAN                       00000000000000000000                21                      
903L001L5063200504094544892D23700011047001001420429165200000007500210216350   CRESCENT1 CUS0057836          M CHRISTIANS                  00000000000000000000                21                      
903L001L5063200504094544892D23700011163200504066848696100000008500210216350   CRESCENT1 CUS0009054          Z AYOB                        00000000000000000000                21                      
903L001L5063200504094544892D23700011247001001715042458200000008500210216350   CRESCENT1 CUS0033411          S MAPHUMULO                   00000000000000000000                21                      
903L001L5063200504094544892D23700011305100100135865034100000008500210216350   CRESCENT1 CUS0045145          Y SULIEMAN                    00000000000000000000                21                      
903L001L5063200504094544892D23700011405100100081468695100000008500210216350   CRESCENT1 CUS0051672          G ISMAIL                      00000000000000000000                21                      
903L001L5063200504094544892D23700011563200509244343956100000008500210216350   CRESCENT1 CUS0057875          A SAMUELS                     00000000000000000000                21                      
903L001L5063200504094544892D23700011663200509189952727100000008500210216350   CRESCENT1 CUS0009221          R BALA                        00000000000000000000                21                      
903L001L5063200504094544892D23700011725065562030343488100000008500210216350   CRESCENT1 CUS0033467          A HAMIDU                      00000000000000000000                21                      
903L001L5063200504094544892D23700011805100100636402142100000008500210216350   CRESCENT1 CUS0045202          R KHADER                      00000000000000000000                21                      
903L001L5063200504094544892D23700011963200504088648315100000008500210216350   CRESCENT1 CUS0051697          R ROSE                        00000000000000000000                21                      
903L001L5063200504094544892D23700012047001001165854765200000006900210216350   CRESCENT1 CUS0057902          J SCHROEDER                   00000000000000000000                21                      
903L001L5063200504094544892D23700012163200509093394790100000008500210216350   CRESCENT1 CUS0009249          M RAJAH                       00000000000000000000                21                      
903L001L5063200504094544892D23700012205100100310714354100000008500210216350   CRESCENT1 CUS0033484          Y KHAN                        00000000000000000000                21                      
903L001L5063200504094544892D23700012363200509102165276100000008500210216350   CRESCENT1 CUS0045212          S JOOMA                       00000000000000000000                21                      
903L001L5063200504094544892D23700012447001001450214604200000008500210216350   CRESCENT1 CUS0051711          R SAMUELS                     00000000000000000000                21                      
903L001L5063200504094544892D23700012525065562553992829100000008500210216350   CRESCENT1 CUS0057934          S MAMOTH                      00000000000000000000                21                      
903L001L5063200504094544892D23700012625065562010070465100000008500210216350   CRESCENT1 CUS0009301          A ALI                         00000000000000000000                21                      
903L001L5063200504094544892D23700012725065562237877553100000008500210216350   CRESCENT1 CUS0033553          M ESSAY                       00000000000000000000                21                      
903L001L5063200504094544892D23700012819876502668175348200000008500210216350   CRESCENT1 CUS0045289          Z ISMAIL                      00000000000000000000                21                      
903L001L5063200504094544892D23700012905100100032238657100000008500210216350   CRESCENT1 CUS0051726          S WAHAB                       00000000000000000000                21                      
903L001L5063200504094544892D23700013005100100007245551100000008500210216350   CRESCENT1 CUS0057943          S BENJAMIN                    00000000000000000000                21                      
903L001L5063200504094544892D23700013163200509136748715100000008500210216350   CRESCENT1 CUS0009745          T MOOSA                       00000000000000000000                21                      
903L001L5063200504094544892D23700013225065562088525484100000008500210216350   CRESCENT1 CUS0033736          K MOOLA                       00000000000000000000                21                      
903L001L5063200504094544892D23700013305100100634530348100000008500210216350   CRESCENT1 CUS0045292          S BHAM                        00000000000000000000                21                      
903L001L5063200504094544892D23700013425065562508671965100000008500210216350   CRESCENT1 CUS0051729          A SOLOMON                     00000000000000000000                21                      
903L001L5063200504094544892D23700013505100100271941030100000008500210216350   CRESCENT1 CUS0057956          M KARAN                       00000000000000000000                21                      
903L001L5063200504094544892D23700013625065562036282276100000016000210216350   CRESCENT1 CUS0009796          F DHOOMAH                     00000000000000000000                21                      
903L001L5063200504094544892D23700013719876501066288593100000031000210216350   CRESCENT1 CUS0033745          A REDDY                       00000000000000000000                21                      
903L001L5063200504094544892D23700013863200509298077020100000016000210216350   CRESCENT1 CUS0045325          M MIRZA                       00000000000000000000                21                      
903L001L5063200504094544892D23700013947001001548705711200000008500210216350   CRESCENT1 CUS0051744          B BIRCH                       00000000000000000000                21                      
903L001L5063200504094544892D23700014047001001239718916200000008500210216350   CRESCENT1 CUS0057960          Y MOSES                       00000000000000000000                21                      
903L001L5063200504094544892D23700014125065562049613400100000023500210216350   CRESCENT1 CUS0009922          N JONES                       00000000000000000000                21                      
903L001L5063200504094544892D23700014219876501048946320100000016000210216350   CRESCENT1 CUS0033754          S MOHAMED                     00000000000000000000                21                      
903L001L5063200504094544892D23700014319876501789008360100000008500210216350   CRESCENT1 CUS0045326          A KHAN                        00000000000000000000                21                      
903L001L5063200504094544892D23700014425065562048355508100000008500210216350   CRESCENT1 CUS0051772          A SARLIE ENUS                 00000000000000000000                21                      
903L001L5063200504094544892D23700014525065562558654630100000008500210216350   CRESCENT1 CUS0058019          A BHAM                        00000000000000000000                21                      
903L001L5063200504094544892D23700014663200509664039687100000014400210216350   CRESCENT1 CUS0010035          A NOOR MOHAMED                00000000000000000000                21                      
903L001L5063200504094544892D23700014725065560008136124100000006900210216350   CRESCENT1 CUS0033913          A JAPPIE                      00000000000000000000                21                      
903L001L5063200504094544892D23700014825065562463070244100000016000210216350   CRESCENT1 CUS0045347          F BHAIZI                      00000000000000000000                21                      
903L001L5063200504094544892D23700014963200509187874315100000008500210216350   CRESCENT1 CUS0051788          M KARIEM                      00000000000000000000                21                      
903L001L5063200504094544892D23700015047001001187206588200000006900210216350   CRESCENT1 CUS0058030          A ADAMS                       00000000000000000000                21                      
903L001L5063200504094544892D23700015125065562032632433100000008500210216350   CRESCENT1 CUS0010180          A TELADIA                     00000000000000000000                21                      
903L001L5063200504094544892D23700015247001001364667140200000008500210216350   CRESCENT1 CUS0033918          S HUNTER                      00000000000000000000                21                      
903L001L5063200504094544892D23700015363200504057037199100000008500210216350   CRESCENT1 CUS0045364          Y AMLA                        00000000000000000000                21                      
903L001L5063200504094544892D23700015405100100072916303100000008500210216350   CRESCENT1 CUS0051793          F GALVAAN                     00000000000000000000                21                      
903L001L5063200504094544892D23700015547001001146646192200000008500210216350   CRESCENT1 CUS0058048          F TOEFEY                      00000000000000000000                21                      
903L001L5063200504094544892D23700015619876501080912010100000016000210216350   CRESCENT1 CUS0010224          N AMERICA                     00000000000000000000                21                      
903L001L5063200504094544892D23700015725065562014628062100000008500210216350   CRESCENT1 CUS0034127          A ROSENBERG                   00000000000000000000                21                      
903L001L5063200504094544892D23700015863200509222614503100000008500210216350   CRESCENT1 CUS0045384          M HASSIM                      00000000000000000000                21                      
903L001L5063200504094544892D23700015925065555281473980100000007500210216350   CRESCENT1 CUS0051797          A ISMAIL                      00000000000000000000                21                      
903L001L5063200504094544892D23700016047001001237871512200000008500210216350   CRESCENT1 CUS0058080          M WILLIAMS                    00000000000000000000                21                      
903L001L5063200504094544892D23700016125065562055051694100000008500210216350   CRESCENT1 CUS0010451          I SEEDAT                      00000000000000000000                21                      
903L001L5063200504094544892D23700016205100100062081195100000008500210216350   CRESCENT1 CUS0034290          Z LINX                        00000000000000000000                21                      
903L001L5063200504094544892D23700016325065562726643754100000007500210216350   CRESCENT1 CUS0045408          N PIRIA                       00000000000000000000                21                      
903L001L5063200504094544892D23700016405100110077751548100000007500210216350   CRESCENT1 CUS0051798          F HASSIM                      00000000000000000000                21                      
903L001L5063200504094544892D23700016547001001258107811200000008500210216350   CRESCENT1 CUS0058087          N HENDRICKS                   00000000000000000000                21                      
903L001L5063200504094544892D23700016663200509045409200100000007500210216350   CRESCENT1 CUS0010506          K ABDULLA                     00000000000000000000                21                      
903L001L5063200504094544892D23700016719876501956160868100000008500210216350   CRESCENT1 CUS0034748          G GOOL                        00000000000000000000                21                      
903L001L5063200504094544892D23700016825065562243000172100000008500210216350   CRESCENT1 CUS0045439          N OSMAN                       00000000000000000000                21                      
903L001L5063200504094544892D23700016947001001287835358200000008500210216350   CRESCENT1 CUS0051827          S ISMAIL                      00000000000000000000                21                      
903L001L5063200504094544892D23700017025065562486474241100000008500210216350   CRESCENT1 CUS0058103          R JOSEPH                      00000000000000000000                21                      
903L001L5063200504094544892D23700017163200509288814292100000008500210216350   CRESCENT1 CUS0010520          F CASSIM                      00000000000000000000                21                      
903L001L5063200504094544892D23700017205100100052823482100000008500210216350   CRESCENT1 CUS0034797          I MOTALA                      00000000000000000000                21                      
903L001L5063200504094544892D23700017319876501014351707100000008500210216350   CRESCENT1 CUS0045440          A AKHALWAYA                   00000000000000000000                21                      
903L001L5063200504094544892D23700017447001001555432997200000008500210216350   CRESCENT1 CUS0051829          F GABIER                      00000000000000000000                21                      
903L001L5063200504094544892D23700017525065562674991396100000008500210216350   CRESCENT1 CUS0058110          M ABDEROUF                    00000000000000000000                21                      
903L001L5063200504094544892D23700017625065562125334160100000008500210216350   CRESCENT1 CUS0010525          Y CARRIM                      00000000000000000000                21                      
903L001L5063200504094544892D23700017746000500051085750200000023500210216350   CRESCENT1 CUS0034951          J MOTHA                       00000000000000000000                21                      
903L001L5063200504094544892D23700017819876501025867777100000008500210216350   CRESCENT1 CUS0045441          Z ABADER                      00000000000000000000                21                      
903L001L5063200504094544892D23700017919876501003980295100000008500210216350   CRESCENT1 CUS0051835          A SAMAAI                      00000000000000000000                21                      
903L001L5063200504094544892D23700018047001001694512779200000006900210216350   CRESCENT1 CUS0058121          A LAKAY                       00000000000000000000                21                      
903L001L5063200504094544892D23700018125065562090314461100000015000210216350   CRESCENT1 CUS0010568          A MOHAMED                     00000000000000000000                21                      
903L001L5063200504094544892D23700018219876501205779353100000008500210216350   CRESCENT1 CUS0034974          H LEDIGA                      00000000000000000000                21                      
903L001L5063200504094544892D23700018319876501953471226100000008500210216350   CRESCENT1 CUS0045472          A HANSA                       00000000000000000000                21                      
903L001L5063200504094544892D23700018480000078600113784200000008500210216350   CRESCENT1 CUS0051866          A RAHMAN                      00000000000000000000                21                      
903L001L5063200504094544892D23700018563200509300481373100000006900210216350   CRESCENT1 CUS0058138          F HOCEME                      00000000000000000000                21                      
903L001L5063200504094544892D23700018625065562259425950100000017000210216350   CRESCENT1 CUS0010647          F DOCKRAT                     00000000000000000000                21                      
903L001L5063200504094544892D23700018725065550070010539100000008500210216350   CRESCENT1 CUS0035077          S ABRAHAMS                    00000000000000000000                21                      
903L001L5063200504094544892D23700018863200509074811450100000008500210216350   CRESCENT1 CUS0045482          R BULBULIA                    00000000000000000000                21                      
903L001L5063200504094544892D23700018905100100052205363100000008500210216350   CRESCENT1 CUS0051874          N KHAN                        00000000000000000000                21                      
903L001L5063200504094544892D23700019005100110061659280100000008500210216350   CRESCENT1 CUS0058176          T ISMAIL                      00000000000000000000                21                      
903L001L5063200504094544892D23700019125065562094608688100000016000210216350   CRESCENT1 CUS0010701          M LATIB                       00000000000000000000                21                      
903L001L5063200504094544892D23700019205100100080670954100000006900210216350   CRESCENT1 CUS0035135          C AGHERDIEN                   00000000000000000000                21                      
903L001L5063200504094544892D23700019325065562520425887100000006900210216350   CRESCENT1 CUS0045488          R MOHAMED                     00000000000000000000                21                      
903L001L5063200504094544892D23700019419876502282017625200000008500210216350   CRESCENT1 CUS0051885          N FREDRICKS                   00000000000000000000                21                      
903L001L5063200504094544892D23700019547001001567920266200000008500210216350   CRESCENT1 CUS0058180          D FISHER                      00000000000000000000                21                      
903L001L5063200504094544892D23700019663200504059831777100000016000210216350   CRESCENT1 CUS0010752          M AMEER                       00000000000000000000                21                      
903L001L5063200504094544892D23700019725065562358782300100000008500210216350   CRESCENT1 CUS0035163          I HOOSAIN                     00000000000000000000                21                      
903L001L5063200504094544892D23700019847001001541794271200000008500210216350   CRESCENT1 CUS0045511          N ADAM                        00000000000000000000                21                      
903L001L5063200504094544892D23700019925065562675218880100000008500210216350   CRESCENT1 CUS0051888          A DOMINGO                     00000000000000000000                21                      
903L001L5063200504094544892D23700020047001001226704024200000008500210216350   CRESCENT1 CUS0058182          S JACOBS                      00000000000000000000                21                      
903L001L5063200504094544892D23700020163200509133279898100000016000210216350   CRESCENT1 CUS0010951          F ACHHAVA                     00000000000000000000                21                      
903L001L5063200504094544892D23700020205100100277752310100000008500210216350   CRESCENT1 CUS0035260          R MAKHUBELA                   00000000000000000000                21                      
903L001L5063200504094544892D23700020325065562481548629100000008500210216350   CRESCENT1 CUS0045557          F JADA                        00000000000000000000                21                      
903L001L5063200504094544892D23700020447001001337181038200000008500210216350   CRESCENT1 CUS0051927          M EDWARDS                     00000000000000000000                21                      
903L001L5063200504094544892D23700020505100110073959519100000006900210216350   CRESCENT1 CUS0058187          A SAMPSON                     00000000000000000000                21                      
903L001L5063200504094544892D23700020625065553080030943100000016000210216350   CRESCENT1 CUS0010953          E HOOSEN                      00000000000000000000                21                      
903L001L5063200504094544892D23700020705100100002526409100000008500210216350   CRESCENT1 CUS0035300          S MANGERA                     00000000000000000000                21                      
903L001L5063200504094544892D23700020825065562285394062100000008500210216350   CRESCENT1 CUS0045559          N VORAJEE                     00000000000000000000                21                      
903L001L5063200504094544892D23700020925065562427854197100000008500210216350   CRESCENT1 CUS0051962          F AHMED                       00000000000000000000                21                      
903L001L5063200504094544892D23700021047001001449102210200000008500210216350   CRESCENT1 CUS0058214          M JAFTHA                      00000000000000000000                21                      
903L001L5063200504094544892D23700021105100100001704419100000008500210216350   CRESCENT1 CUS0011279          I HAFFEJEE                    00000000000000000000                21                      
903L001L5063200504094544892D23700021225065562350055763100000016000210216350   CRESCENT1 CUS0035316          J EBRAHIM                     00000000000000000000                21                      
903L001L5063200504094544892D23700021325065562307561333100000008500210216350   CRESCENT1 CUS0045589          M TIKLY                       00000000000000000000                21                      
903L001L5063200504094544892D23700021425065562421691769100000008500210216350   CRESCENT1 CUS0052099          R ABDUL LATIFF                00000000000000000000                21                      
903L001L5063200504094544892D23700021547001001423530878200000008500210216350   CRESCENT1 CUS0058238          R ADAMS                       00000000000000000000                21                      
903L001L5063200504094544892D23700021605100100013710613100000008500210216350   CRESCENT1 CUS0011381          Z HASSEN                      00000000000000000000                21                      
903L001L5063200504094544892D23700021725065560529190914100000016000210216350   CRESCENT1 CUS0035586          A KLOLVADIA                   00000000000000000000                21                      
903L001L5063200504094544892D23700021863200509184854641100000008500210216350   CRESCENT1 CUS0045651          U BODIAT                      00000000000000000000                21                      
903L001L5063200504094544892D23700021925065562343016441100000016000210216350   CRESCENT1 CUS0052113          R PETERSEN                    00000000000000000000                21                      
903L001L5063200504094544892D23700022025065562806861672100000008500210216350   CRESCENT1 CUS0058246          M PADIA                       00000000000000000000                21                      
903L001L5063200504094544892D23700022163200509288564110100000008500210216350   CRESCENT1 CUS0011404          A MOOSTAFA                    00000000000000000000                21                      
903L001L5063200504094544892D23700022247001001210068239100000008500210216350   CRESCENT1 CUS0035591          M JOOMA                       00000000000000000000                21                      
903L001L5063200504094544892D23700022325065550450216442100000008500210216350   CRESCENT1 CUS0045673          S EBRAHIM                     00000000000000000000                21                      
903L001L5063200504094544892D23700022419876502080007807200000016000210216350   CRESCENT1 CUS0052126          M BADEROEN                    00000000000000000000                21                      
903L001L5063200504094544892D23700022525065562772647338100000008500210216350   CRESCENT1 CUS0058247          R BASSIER                     00000000000000000000                21                      
903L001L5063200504094544892D23700022605100100052750612100000016000210216350   CRESCENT1 CUS0011471          A BISSESSUR                   00000000000000000000                21                      
903L001L5063200504094544892D23700022763200504077784463100000008500210216350   CRESCENT1 CUS0035647          F SAYED                       00000000000000000000                21                      
903L001L5063200504094544892D23700022863200504055003152100000008500210216350   CRESCENT1 CUS0045698          R MAHDI                       00000000000000000000                21                      
903L001L5063200504094544892D23700022905100110094269627100000008500210216350   CRESCENT1 CUS0052134          F ISAACS                      00000000000000000000                21                      
903L001L5063200504094544892D23700023019876501075461944100000008500210216350   CRESCENT1 CUS0058249          A SCHUTT                      00000000000000000000                21                      
903L001L5063200504094544892D23700023158010510011274317100000016000210216350   CRESCENT1 CUS0011476          A ALLIE                       00000000000000000000                21                      
903L001L5063200504094544892D23700023205100100331082861100000008500210216350   CRESCENT1 CUS0035698          K HUSSAIN SUILAMAN            00000000000000000000                21                      
903L001L5063200504094544892D23700023347001001380451777200000016000210216350   CRESCENT1 CUS0045774          R BOSMAN                      00000000000000000000                21                      
903L001L5063200504094544892D23700023447001001299344672200000008500210216350   CRESCENT1 CUS0052137          S MARIMUTHU                   00000000000000000000                21                      
903L001L5063200504094544892D23700023547001001501865186200000008500210216350   CRESCENT1 CUS0058251          S BEDAWALA                    00000000000000000000                21                      
903L001L5063200504094544892D23700023625065562062196392100000016000210216350   CRESCENT1 CUS0011580          F AMRA                        00000000000000000000                21                      
903L001L5063200504094544892D23700023725065562756888015100000008500210216350   CRESCENT1 CUS0035718          W EDWARDS                     00000000000000000000                21                      
903L001L5063200504094544892D23700023825065562317399542100000008500210216350   CRESCENT1 CUS0045775          M MAZIBUKO                    00000000000000000000                21                      
903L001L5063200504094544892D23700023919876502081049619200000008500210216350   CRESCENT1 CUS0052139          F FAKIER                      00000000000000000000                21                      
903L001L5063200504094544892D23700024063200504082579998100000008500210216350   CRESCENT1 CUS0058254          Z SEEDAT                      00000000000000000000                21                      
903L001L5063200504094544892D23700024105100100201119153100000008500210216350   CRESCENT1 CUS0011624          A HANSROD                     00000000000000000000                21                      
903L001L5063200504094544892D23700024219876501411214102100000007500210216350   CRESCENT1 CUS0035721          G KAKA                        00000000000000000000                21                      
903L001L5063200504094544892D23700024305100100071200037100000008500210216350   CRESCENT1 CUS0045872          S HOOSAIN                     00000000000000000000                21                      
903L001L5063200504094544892D23700024463200504082995053100000008500210216350   CRESCENT1 CUS0052143          T AMON                        00000000000000000000                21                      
903L001L5063200504094544892D23700024525065506244755413100000008500210216350   CRESCENT1 CUS0058256          F SHIEK                       00000000000000000000                21                      
903L001L5063200504094544892D23700024625065562373090100100000016000210216350   CRESCENT1 CUS0011657          I MAHOMED                     00000000000000000000                21                      
903L001L5063200504094544892D23700024725065562487358064100000008500210216350   CRESCENT1 CUS0035828          M KHAN                        00000000000000000000                21                      
903L001L5063200504094544892D23700024825065551240017660100000006900210216350   CRESCENT1 CUS0045889          A WADEE                       00000000000000000000                21                      
903L001L5063200504094544892D23700024905100110075137389100000008500210216350   CRESCENT1 CUS0052227          A RAVAT                       00000000000000000000                21                      
903L001L5063200504094544892D23700025005100100071195327100000008500210216350   CRESCENT1 CUS0058264          M DOLLIE                      00000000000000000000                21                      
903L001L5063200504094544892D23700025105100100402178602100000008500210216350   CRESCENT1 CUS0011704          T ENNASSIRI                   00000000000000000000                21                      
903L001L5063200504094544892D23700025247001001147301288200000008500210216350   CRESCENT1 CUS0035884          M GEORGE                      00000000000000000000                21                      
903L001L5063200504094544892D23700025325065550250043657100000008500210216350   CRESCENT1 CUS0045897          W DALWAI                      00000000000000000000                21                      
903L001L5063200504094544892D23700025425065562392215557100000008500210216350   CRESCENT1 CUS0052239          M TOOTLA                      00000000000000000000                21                      
903L001L5063200504094544892D23700025505100110127711633100000008500210216350   CRESCENT1 CUS0058268          S DAVIDS                      00000000000000000000                21                      
903L001L5063200504094544892D23700025625065562047846889100000023500210216350   CRESCENT1 CUS0011777          A MIA                         00000000000000000000                21                      
903L001L5063200504094544892D23700025719876501128028832100000008500210216350   CRESCENT1 CUS0035969          A OSMAN                       00000000000000000000                21                      
903L001L5063200504094544892D23700025805100100201374455100000008500210216350   CRESCENT1 CUS0045902          N SHAIKJEE                    00000000000000000000                21                      
903L001L5063200504094544892D23700025925065562658687028100000008500210216350   CRESCENT1 CUS0052247          S JACOB                       00000000000000000000                21                      
903L001L5063200504094544892D23700026063200509353179430100000008500210216350   CRESCENT1 CUS0058276          J JACKSON                     00000000000000000000                21                      
903L001L5063200504094544892D23700026105100100052691624100000008500210216350   CRESCENT1 CUS0011784          A PEER                        00000000000000000000                21                      
903L001L5063200504094544892D23700026225065560093721287100000008500210216350   CRESCENT1 CUS0036000          F PREGNOLATO                  00000000000000000000                21                      
903L001L5063200504094544892D23700026319876501970759143100000008500210216350   CRESCENT1 CUS0045904          B DANGOR                      00000000000000000000                21                      
903L001L5063200504094544892D23700026463200504079173189100000008500210216350   CRESCENT1 CUS0052292          F FLOWERS                     00000000000000000000                21                      
903L001L5063200504094544892D23700026547001001576327017200000006900210216350   CRESCENT1 CUS0058314          S EBRAHIM                     00000000000000000000                21                      
903L001L5063200504094544892D23700026625065562752038375100000008500210216350   CRESCENT1 CUS0011814          S LIMBADA                     00000000000000000000                21                      
903L001L5063200504094544892D23700026719876501953429114100000008500210216350   CRESCENT1 CUS0036108          A BULBULIA                    00000000000000000000                21                      
903L001L5063200504094544892D23700026863200504059881358100000016000210216350   CRESCENT1 CUS0045976          A HENDRICKS                   00000000000000000000                21                      
903L001L5063200504094544892D23700026947001001535662490200000016000210216350   CRESCENT1 CUS0052294          M PHILLIPS                    00000000000000000000                21                      
903L001L5063200504094544892D23700027019876501165112817100000008500210216350   CRESCENT1 CUS0058320          D AFRICA                      00000000000000000000                21                      
903L001L5063200504094544892D23700027105100100026162970100000008500210216350   CRESCENT1 CUS0011839          M RAZAK                       00000000000000000000                21                      
903L001L5063200504094544892D23700027225065562528667134100000023500210216350   CRESCENT1 CUS0036111          B MOOLA                       00000000000000000000                21                      
903L001L5063200504094544892D23700027363200504088993081100000016000210216350   CRESCENT1 CUS0045981          A SMITH                       00000000000000000000                21                      
903L001L5063200504094544892D23700027425065562682736726100000008500210216350   CRESCENT1 CUS0052318          U ASMAL                       00000000000000000000                21                      
903L001L5063200504094544892D23700027547001001488120860200000008500210216350   CRESCENT1 CUS0058325          M FRANCIS                     00000000000000000000                21                      
903L001L5063200504094544892D23700027605100100016876202100000008500210216350   CRESCENT1 CUS0011930          S GAFOOR                      00000000000000000000                21                      
903L001L5063200504094544892D23700027763200509097460361100000008500210216350   CRESCENT1 CUS0036125          A BHAYAT                      00000000000000000000                21                      
903L001L5063200504094544892D23700027805100100004909186100000008500210216350   CRESCENT1 CUS0045990          M AZIZ                        00000000000000000000                21                      
903L001L5063200504094544892D23700027963200509317183421100000008500210216350   CRESCENT1 CUS0052330          N HARKER                      00000000000000000000                21                      
903L001L5063200504094544892D23700028005100100203079833100000008500210216350   CRESCENT1 CUS0058331          R HERCULES                    00000000000000000000                21                      
903L001L5063200504094544892D23700028163200504049030777100000008500210216350   CRESCENT1 CUS0011949          M GHASITHA                    00000000000000000000                21                      
903L001L5063200504094544892D23700028247001001213988223200000016000210216350   CRESCENT1 CUS0036127          E AJAM                        00000000000000000000                21                      
903L001L5063200504094544892D23700028363200509020219831100000008500210216350   CRESCENT1 CUS0046071          G LAKAY                       00000000000000000000                21                      
903L001L5063200504094544892D23700028425065562065487417100000008500210216350   CRESCENT1 CUS0052410          U MCKAY                       00000000000000000000                21                      
903L001L5063200504094544892D23700028547001001206160797200000008500210216350   CRESCENT1 CUS0058336          Z BUFFAINS                    00000000000000000000                21                      
903L001L5063200504094544892D23700028619876501018853057100000016000210216350   CRESCENT1 CUS0011992          F YUSSUF                      00000000000000000000                21                      
903L001L5063200504094544892D23700028747001001422032645200000008500210216350   CRESCENT1 CUS0036139          F ASMAN                       00000000000000000000                21                      
903L001L5063200504094544892D23700028863200509257710607100000008500210216350   CRESCENT1 CUS0046110          R HUSPATEL                    00000000000000000000                21                      
903L001L5063200504094544892D23700028963200509276840792100000008500210216350   CRESCENT1 CUS0052436          S BUCKS                       00000000000000000000                21                      
903L001L5063200504094544892D23700029047001001137418085200000008500210216350   CRESCENT1 CUS0058339          Y DALVIE                      00000000000000000000                21                      
903L001L5063200504094544892D23700029119876501107652715100000008500210216350   CRESCENT1 CUS0012177          M BHORAT                      00000000000000000000                21                      
903L001L5063200504094544892D23700029219876501301374539100000008500210216350   CRESCENT1 CUS0036148          K USSUPH                      00000000000000000000                21                      
903L001L5063200504094544892D23700029363200509081452633100000008500210216350   CRESCENT1 CUS0046125          F CASSIEM                     00000000000000000000                21                      
903L001L5063200504094544892D23700029425065562610905377100000008500210216350   CRESCENT1 CUS0052451          M LATIFF                      00000000000000000000                21                      
903L001L5063200504094544892D23700029519876501051410274100000008500210216350   CRESCENT1 CUS0058347          S ISAACS                      00000000000000000000                21                      
903L001L5063200504094544892D23700029605100100001685236100000008500210216350   CRESCENT1 CUS0012561          N MOHAMED                     00000000000000000000                21                      
903L001L5063200504094544892D23700029719876501729396291100000008500210216350   CRESCENT1 CUS0036189          R CHARLES                     00000000000000000000                21                      
903L001L5063200504094544892D23700029825065550230038389100000008500210216350   CRESCENT1 CUS0046160          M KADER                       00000000000000000000                21                      
903L001L5063200504094544892D23700029947001001114295947200000008500210216350   CRESCENT1 CUS0052457          N FICK                        00000000000000000000                21                      
903L001L5063200504094544892D23700030047001001620530013200000008500210216350   CRESCENT1 CUS0058369          M DAVIDS                      00000000000000000000                21                      
903L001L5063200504094544892D23700030105100100021138567100000008500210216350   CRESCENT1 CUS0012576          Y SEEDAT                      00000000000000000000                21                      
903L001L5063200504094544892D23700030205100100073316237100000016000210216350   CRESCENT1 CUS0036271          S KOOTBODIEN                  00000000000000000000                21                      
903L001L5063200504094544892D23700030325065550220091074100000016000210216350   CRESCENT1 CUS0046161          R DAWOOD - PARKER             00000000000000000000                21                      
903L001L5063200504094544892D23700030463200509101024893100000008500210216350   CRESCENT1 CUS0052481          S KHAN                        00000000000000000000                21                      
903L001L5063200504094544892D23700030505100110112068845100000008500210216350   CRESCENT1 CUS0058384          F HASWARAY                    00000000000000000000                21                      
903L001L5063200504094544892D23700030625065562022446448100000008500210216350   CRESCENT1 CUS0012618          A ISMAIL                      00000000000000000000                21                      
903L001L5063200504094544892D23700030705100100168277409100000016000210216350   CRESCENT1 CUS0036314          F AKOONJEE                    00000000000000000000                21                      
903L001L5063200504094544892D23700030863200504090765763100000008500210216350   CRESCENT1 CUS0046178          M MOOLA                       00000000000000000000                21                      
903L001L5063200504094544892D23700030905100100271440546100000008500210216350   CRESCENT1 CUS0052485          G SAMUELS                     00000000000000000000                21                      
903L001L5063200504094544892D23700031019876501195842414100000008500210216350   CRESCENT1 CUS0058398          M JACOBS                      00000000000000000000                21                      
903L001L5063200504094544892D23700031105100110044546759100000006900210216350   CRESCENT1 CUS0012645          C TIMOL                       00000000000000000000                21                      
903L001L5063200504094544892D23700031205100100251329232100000008500210216350   CRESCENT1 CUS0036364          F FYZOO                       00000000000000000000                21                      
903L001L5063200504094544892D23700031363200504076920692100000008500210216350   CRESCENT1 CUS0046307          A PARKER                      00000000000000000000                21                      
903L001L5063200504094544892D23700031425065562121819421100000008500210216350   CRESCENT1 CUS0052495          M BAARTMAN                    00000000000000000000                21                      
903L001L5063200504094544892D23700031525065562365064981100000008500210216350   CRESCENT1 CUS0058405          R STRYDOM                     00000000000000000000                21                      
903L001L5063200504094544892D23700031605100100011360879100000008500210216350   CRESCENT1 CUS0012697          S AMOD                        00000000000000000000                21                      
903L001L5063200504094544892D23700031763200509267547929100000008500210216350   CRESCENT1 CUS0036372          A TARR                        00000000000000000000                21                      
903L001L5063200504094544892D23700031805100100012336459100000015400210216350   CRESCENT1 CUS0046312          F HOOSEN                      00000000000000000000                21                      
903L001L5063200504094544892D23700031919876501063966949100000008500210216350   CRESCENT1 CUS0052496          F LATIFF                      00000000000000000000                21                      
903L001L5063200504094544892D23700032025065560029276371100000008500210216350   CRESCENT1 CUS0058409          F DP PELT                     00000000000000000000                21                      
903L001L5063200504094544892D23700032119876501411391276100000016000210216350   CRESCENT1 CUS0012843          S KAJEE                       00000000000000000000                21                      
903L001L5063200504094544892D23700032225065562427849776100000008500210216350   CRESCENT1 CUS0036378          F KARA                        00000000000000000000                21                      
903L001L5063200504094544892D23700032325065562107892392100000008500210216350   CRESCENT1 CUS0046323          O CANNELL                     00000000000000000000                21                      
903L001L5063200504094544892D23700032405100110042572051100000008500210216350   CRESCENT1 CUS0052502          F BEKKO                       00000000000000000000                21                      
903L001L5063200504094544892D23700032547001001254585433200000008500210216350   CRESCENT1 CUS0058447          P MANUEL                      00000000000000000000                21                      
903L001L5063200504094544892D23700032605100100002554216100000008500210216350   CRESCENT1 CUS0013042          D LAHER                       00000000000000000000                21                      
903L001L5063200504094544892D23700032725065562155838439100000016000210216350   CRESCENT1 CUS0036446          I RANDEREE                    00000000000000000000                21                      
903L001L5063200504094544892D23700032825065562526538501100000008500210216350   CRESCENT1 CUS0046387          Y HASSEN                      00000000000000000000                21                      
903L001L5063200504094544892D23700032947001001356811351200000008500210216350   CRESCENT1 CUS0052578          F RAHMAN                      00000000000000000000                21                      
903L001L5063200504094544892D23700033047001001293256666200000008500210216350   CRESCENT1 CUS0058534          A ADAMS                       00000000000000000000                21                      
903L001L5063200504094544892D23700033119876502940168083200000008500210216350   CRESCENT1 CUS0013134          S NABEE                       00000000000000000000                21                      
903L001L5063200504094544892D23700033225065562456852138100000008500210216350   CRESCENT1 CUS0036531          N SINGH                       00000000000000000000                21                      
903L001L5063200504094544892D23700033305100100332680401100000008500210216350   CRESCENT1 CUS0046391          M PAREKH                      00000000000000000000                21                      
903L001L5063200504094544892D23700033447001001164551386200000008500210216350   CRESCENT1 CUS0052592          S ROSENBERG                   00000000000000000000                21                      
903L001L5063200504094544892D23700033563200504085089017100000008500210216350   CRESCENT1 CUS0058548          R REDDY                       00000000000000000000                21                      
903L001L5063200504094544892D23700033619876502940168083200000007500210216350   CRESCENT1 CUS0013136          H NABEE                       00000000000000000000                21                      
903L001L5063200504094544892D23700033725065562082941561100000008500210216350   CRESCENT1 CUS0036597          T AMLA                        00000000000000000000                21                      
903L001L5063200504094544892D23700033847001001377843120200000008500210216350   CRESCENT1 CUS0046403          Y MOOSA                       00000000000000000000                21                      
903L001L5063200504094544892D23700033905100100225891794100000008500210216350   CRESCENT1 CUS0052709          A KARANI                      00000000000000000000                21                      
903L001L5063200504094544892D23700034047001001317803890200000008500210216350   CRESCENT1 CUS0058554          S JOGEE ABDULLAH              00000000000000000000                21                      
903L001L5063200504094544892D23700034163200509186984181100000008500210216350   CRESCENT1 CUS0013242          F KARANI                      00000000000000000000                21                      
903L001L5063200504094544892D23700034205100100050303198100000008500210216350   CRESCENT1 CUS0036617          R BENJAMIN                    00000000000000000000                21                      
903L001L5063200504094544892D23700034305100100241331064100000008500210216350   CRESCENT1 CUS0046442          M HASSIM                      00000000000000000000                21                      
903L001L5063200504094544892D23700034425065560529159093100000006900210216350   CRESCENT1 CUS0052747          N NAGDEE                      00000000000000000000                21                      
903L001L5063200504094544892D23700034547001001272153116200000008500210216350   CRESCENT1 CUS0058593          R SALIE                       00000000000000000000                21                      
903L001L5063200504094544892D23700034605100100003448266100000008500210216350   CRESCENT1 CUS0013755          I CASSIM                      00000000000000000000                21                      
903L001L5063200504094544892D23700034705100100181519437100000008500210216350   CRESCENT1 CUS0036652          M ALLY                        00000000000000000000                21                      
903L001L5063200504094544892D23700034825065562505679748100000008500210216350   CRESCENT1 CUS0046517          M JHETAM                      00000000000000000000                21                      
903L001L5063200504094544892D23700034919876502607188954200000008500210216350   CRESCENT1 CUS0052750          B HAFFEJEE                    00000000000000000000                21                      
903L001L5063200504094544892D23700035047001001418218195200000008500210216350   CRESCENT1 CUS0058614          F BENJAMIN                    00000000000000000000                21                      
903L001L5063200504094544892D23700035163200504063621900100000008500210216350   CRESCENT1 CUS0013886          S SEEDAT                      00000000000000000000                21                      
903L001L5063200504094544892D23700035247001001239561936200000008500210216350   CRESCENT1 CUS0036674          S JHATAM                      00000000000000000000                21                      
903L001L5063200504094544892D23700035347001001207070597200000008500210216350   CRESCENT1 CUS0046628          Z OSMAN                       00000000000000000000                21                      
903L001L5063200504094544892D23700035419876501349138002100000008500210216350   CRESCENT1 CUS0052765          S YUSUF                       00000000000000000000                21                      
903L001L5063200504094544892D23700035525065562075103053100000008500210216350   CRESCENT1 CUS0058616          M FILLIES                     00000000000000000000                21                      
903L001L5063200504094544892D23700035663200500650144562100000008500210216350   CRESCENT1 CUS0014506          A ISMAIL                      00000000000000000000                21                      
903L001L5063200504094544892D23700035719876502905207825200000008500210216350   CRESCENT1 CUS0036862          A ISAACS                      00000000000000000000                21                      
903L001L5063200504094544892D23700035825065562189010558100000008500210216350   CRESCENT1 CUS0046676          S MANSOOR                     00000000000000000000                21                      
903L001L5063200504094544892D23700035963200504075700340100000008500210216350   CRESCENT1 CUS0052766          A MOTLEKAR                    00000000000000000000                21                      
903L001L5063200504094544892D23700036047001001545282054200000008500210216350   CRESCENT1 CUS0058617          M FISHER                      00000000000000000000                21                      
903L001L5063200504094544892D23700036125065562015370711100000007500210216350   CRESCENT1 CUS0014560          R MAYET                       00000000000000000000                21                      
903L001L5063200504094544892D23700036225065562316632670100000008500210216350   CRESCENT1 CUS0036964          A MLAZI                       00000000000000000000                21                      
903L001L5063200504094544892D23700036305100100032003900100000008500210216350   CRESCENT1 CUS0046723          M SHEKH                       00000000000000000000                21                      
903L001L5063200504094544892D23700036425065562580987645100000008500210216350   CRESCENT1 CUS0052767          E WISE                        00000000000000000000                21                      
903L001L5063200504094544892D23700036519876501151587389100000006900210216350   CRESCENT1 CUS0058618          S ISMAIL                      00000000000000000000                21                      
903L001L5063200504094544892D23700036625065562186591999100000008500210216350   CRESCENT1 CUS0014567          F ESSAY                       00000000000000000000                21                      
903L001L5063200504094544892D23700036725065562085126441100000006900210216350   CRESCENT1 CUS0037027          F RAJAAL                      00000000000000000000                21                      
903L001L5063200504094544892D23700036805100100272094935100000008500210216350   CRESCENT1 CUS0046741          A PARKER                      00000000000000000000                21                      
903L001L5063200504094544892D23700036919876501004744846100000008500210216350   CRESCENT1 CUS0052770          S WILLIAMS                    00000000000000000000                21                      
903L001L5063200504094544892D23700037063200509290194632100000008500210216350   CRESCENT1 CUS0058663          E GANIEF                      00000000000000000000                21                      
903L001L5063200504094544892D23700037125065552840025483100000008500210216350   CRESCENT1 CUS0014577          S ISAT                        00000000000000000000                21                      
903L001L5063200504094544892D23700037225065562046274453100000008500210216350   CRESCENT1 CUS0037115          M DEMAINE                     00000000000000000000                21                      
903L001L5063200504094544892D23700037319876502546005804200000015000210216350   CRESCENT1 CUS0046743          J ALLIE                       00000000000000000000                21                      
903L001L5063200504094544892D23700037463200506201590628100000008500210216350   CRESCENT1 CUS0052773          R HAMID                       00000000000000000000                21                      
903L001L5063200504094544892D23700037505100100070222762100000008500210216350   CRESCENT1 CUS0058669          S ABRAHAMS                    00000000000000000000                21                      
903L001L5063200504094544892D23700037605100100010161422100000016000210216350   CRESCENT1 CUS0014702          F VAHED                       00000000000000000000                21                      
903L001L5063200504094544892D23700037763200509099459209100000008500210216350   CRESCENT1 CUS0037124          F EBRAHIM                     00000000000000000000                21                      
903L001L5063200504094544892D23700037805100100427278813100000008500210216350   CRESCENT1 CUS0046749          F MAHOMED                     00000000000000000000                21                      
903L001L5063200504094544892D23700037925065562115970461100000008500210216350   CRESCENT1 CUS0052775          M ABRAHIEM                    00000000000000000000                21                      
903L001L5063200504094544892D23700038005100100277523001100000008500210216350   CRESCENT1 CUS0058682          F NAZ                         00000000000000000000                21                      
903L001L5063200504094544892D23700038125065562107977962100000016000210216350   CRESCENT1 CUS0014841          N LANGEVELDT                  00000000000000000000                21                      
903L001L5063200504094544892D23700038225065562025953432100000023500210216350   CRESCENT1 CUS0037152          G KADIR                       00000000000000000000                21                      
903L001L5063200504094544892D23700038347001001390400377200000008500210216350   CRESCENT1 CUS0046788          N ALLIE                       00000000000000000000                21                      
903L001L5063200504094544892D23700038463200509018254388100000016000210216350   CRESCENT1 CUS0052804          A HENDRICKS                   00000000000000000000                21                      
903L001L5063200504094544892D23700038547001001340022565200000006900210216350   CRESCENT1 CUS0058688          M EDWARDS                     00000000000000000000                21                      
903L001L5063200504094544892D23700038605100100077984897100000007500210216350   CRESCENT1 CUS0014848          F ALLY                        00000000000000000000                21                      
903L001L5063200504094544892D23700038725065562047458410100000023500210216350   CRESCENT1 CUS0037167          S KHAN                        00000000000000000000                21                      
903L001L5063200504094544892D23700038825065562544866520100000008500210216350   CRESCENT1 CUS0046790          A PAULSEN                     00000000000000000000                21                      
903L001L5063200504094544892D23700038925065562023671010100000008500210216350   CRESCENT1 CUS0052806          A MOOSA                       00000000000000000000                21                      
903L001L5063200504094544892D23700039019876501139710273100000008500210216350   CRESCENT1 CUS0058690          A AMLAY                       00000000000000000000                21                      
903L001L5063200504094544892D23700039105100100053353641100000008500210216350   CRESCENT1 CUS0014868          F WADIA                       00000000000000000000                21                      
903L001L5063200504094544892D23700039247001001183445200200000008500210216350   CRESCENT1 CUS0037276          N RAHIM                       00000000000000000000                21                      
903L001L5063200504094544892D23700039363200509204862784100000008500210216350   CRESCENT1 CUS0046817          S AKOOJEE                     00000000000000000000                21                      
903L001L5063200504094544892D23700039447001001364332033200000008500210216350   CRESCENT1 CUS0052851          T SMITH                       00000000000000000000                21                      
903L001L5063200504094544892D23700039547001001174426452200000008500210216350   CRESCENT1 CUS0058695          R DESAI                       00000000000000000000                21                      
903L001L5063200504094544892D23700039625065562796543009100000008500210216350   CRESCENT1 CUS0014878          K DEWAN                       00000000000000000000                21                      
903L001L5063200504094544892D23700039763200504054242355100000008500210216350   CRESCENT1 CUS0037312          M RASHID                      00000000000000000000                21                      
903L001L5063200504094544892D23700039863200509084990644100000008500210216350   CRESCENT1 CUS0046818          R ANTHONY                     00000000000000000000                21                      
903L001L5063200504094544892D23700039925065562498986341100000008500210216350   CRESCENT1 CUS0052875          C ANDREWS                     00000000000000000000                21                      
903L001L5063200504094544892D23700040047001001669371172100000008500210216350   CRESCENT1 CUS0058715          Y TAGODIEN                    00000000000000000000                21                      
903L001L5063200504094544892D23700040105100100030171024100000016000210216350   CRESCENT1 CUS0014972          N ESSA                        00000000000000000000                21                      
903L001L5063200504094544892D23700040219876501214006280100000008500210216350   CRESCENT1 CUS0037386          E HENDRICKS                   00000000000000000000                21                      
903L001L5063200504094544892D23700040347001001426524399200000008500210216350   CRESCENT1 CUS0046901          A ISMAIL                      00000000000000000000                21                      
903L001L5063200504094544892D23700040419876501108694209100000008500210216350   CRESCENT1 CUS0052901          G ABRAHAMS                    00000000000000000000                21                      
903L001L5063200504094544892D23700040563200504040872867100000008500210216350   CRESCENT1 CUS0058731          N EBRAHIM                     00000000000000000000                21                      
903L001L5063200504094544892D23700040663200504074703834100000008500210216350   CRESCENT1 CUS0014999          N HOOSAIN                     00000000000000000000                21                      
903L001L5063200504094544892D23700040763200509286121940100000008500210216350   CRESCENT1 CUS0037508          D DOUMAN                      00000000000000000000                21                      
903L001L5063200504094544892D23700040805100100301522375100000008500210216350   CRESCENT1 CUS0046912          N BISMILLA                    00000000000000000000                21                      
903L001L5063200504094544892D23700040947001001543912875200000008500210216350   CRESCENT1 CUS0052910          Z HOWARD                      00000000000000000000                21                      
903L001L5063200504094544892D23700041046200509331352301200000008500210216350   CRESCENT1 CUS0058773          A POOLE                       00000000000000000000                21                      
903L001L5063200504094544892D23700041119876501917020406100000008500210216350   CRESCENT1 CUS0015034          M HARTLEY                     00000000000000000000                21                      
903L001L5063200504094544892D23700041247001001674909649200000008500210216350   CRESCENT1 CUS0037672          M ALLY                        00000000000000000000                21                      
903L001L5063200504094544892D23700041319876501001871936100000008500210216350   CRESCENT1 CUS0046977          A HASSIM                      00000000000000000000                21                      
903L001L5063200504094544892D23700041447001001254816605200000008500210216350   CRESCENT1 CUS0052927          M TIFFLIN                     00000000000000000000                21                      
903L001L5063200504094544892D23700041563200504083979010100000006900210216350   CRESCENT1 CUS0058776          F ARNOLD                      00000000000000000000                21                      
903L001L5063200504094544892D23700041663200509051539417100000008500210216350   CRESCENT1 CUS0015064          F KARIM                       00000000000000000000                21                      
903L001L5063200504094544892D23700041763200500560153236100000008500210216350   CRESCENT1 CUS0037722          B EBRAHIM                     00000000000000000000                21                      
903L001L5063200504094544892D23700041825065559200026382100000016000210216350   CRESCENT1 CUS0047062          I ABRAHAMS                    00000000000000000000                21                      
903L001L5063200504094544892D23700041925065562547360074100000013800210216350   CRESCENT1 CUS0052960          A HOOSEN                      00000000000000000000                21                      
903L001L5063200504094544892D23700042025065562799958693100000006900210216350   CRESCENT1 CUS0058802          W ADAMS                       00000000000000000000                21                      
903L001L5063200504094544892D23700042125065551250351157100000008500210216350   CRESCENT1 CUS0015071          F HENDRICKS                   00000000000000000000                21                      
903L001L5063200504094544892D23700042263200509208984681100000008500210216350   CRESCENT1 CUS0037744          M DAVIDS                      00000000000000000000                21                      
903L001L5063200504094544892D23700042347001001217946274200000008500210216350   CRESCENT1 CUS0047082          M BAKER                       00000000000000000000                21                      
903L001L5063200504094544892D23700042463200509087895459100000008500210216350   CRESCENT1 CUS0052965          W DOUTIE                      00000000000000000000                21                      
903L001L5063200504094544892D23700042525065562772036523100000008500210216350   CRESCENT1 CUS0058808          I ARIEFDIEN                   00000000000000000000                21                      
903L001L5063200504094544892D23700042647001001424255382200000016000210216350   CRESCENT1 CUS0015178          C NAKOODA                     00000000000000000000                21                      
903L001L5063200504094544892D23700042725065562314304346100000008500210216350   CRESCENT1 CUS0037745          S PARAK                       00000000000000000000                21                      
903L001L5063200504094544892D23700042847001001170977918200000016000210216350   CRESCENT1 CUS0047115          J JOHNSON                     00000000000000000000                21                      
903L001L5063200504094544892D23700042963200509042770543100000016000210216350   CRESCENT1 CUS0052989          I MEYER                       00000000000000000000                21                      
903L001L5063200504094544892D23700043047001001155661956200000006900210216350   CRESCENT1 CUS0058835          Z ISAACS                      00000000000000000000                21                      
903L001L5063200504094544892D23700043163200509063438354100000016000210216350   CRESCENT1 CUS0015228          A MOHAMED                     00000000000000000000                21                      
903L001L5063200504094544892D23700043246000500092475345200000006900210216350   CRESCENT1 CUS0037771          A JACOBS                      00000000000000000000                21                      
903L001L5063200504094544892D23700043319876501169930069100000006900210216350   CRESCENT1 CUS0047142          M KHAN                        00000000000000000000                21                      
903L001L5063200504094544892D23700043419876501926008952100000006900210216350   CRESCENT1 CUS0052990          Q TITIS                       00000000000000000000                21                      
903L001L5063200504094544892D23700043525065562107492580100000016000210216350   CRESCENT1 CUS0058837          A ERASMUS                     00000000000000000000                21                      
903L001L5063200504094544892D23700043605100100060051086100000016000210216350   CRESCENT1 CUS0015441          H KHAN                        00000000000000000000                21                      
903L001L5063200504094544892D23700043763200509083131548100000008500210216350   CRESCENT1 CUS0037812          F NANA                        00000000000000000000                21                      
903L001L5063200504094544892D23700043825065562231794331100000008500210216350   CRESCENT1 CUS0047228          A SUJEE                       00000000000000000000                21                      
903L001L5063200504094544892D23700043905100100077286235100000007500210216350   CRESCENT1 CUS0052992          M FANIE                       00000000000000000000                21                      
903L001L5063200504094544892D23700044025065562814853596100000016000210216350   CRESCENT1 CUS0058841          R JOUBYAR                     00000000000000000000                21                      
903L001L5063200504094544892D23700044125065562600310015100000016000210216350   CRESCENT1 CUS0015453          H ASMAL                       00000000000000000000                21                      
903L001L5063200504094544892D23700044225065550220083683100000006900210216350   CRESCENT1 CUS0037813          A ALLIE                       00000000000000000000                21                      
903L001L5063200504094544892D23700044319876501098007441100000008500210216350   CRESCENT1 CUS0047242          M ADAMS                       00000000000000000000                21                      
903L001L5063200504094544892D23700044425065562104552163100000008500210216350   CRESCENT1 CUS0052993          L ADAM                        00000000000000000000                21                      
903L001L5063200504094544892D23700044547001001427457628200000008500210216350   CRESCENT1 CUS0058844          R FINCK                       00000000000000000000                21                      
903L001L5063200504094544892D23700044680000078600122351100000008500210216350   CRESCENT1 CUS0015479          K RAVAT                       00000000000000000000                21                      
903L001L5063200504094544892D23700044725065562656739722100000016000210216350   CRESCENT1 CUS0037885          F KHAN                        00000000000000000000                21                      
903L001L5063200504094544892D23700044819876501339409380100000008500210216350   CRESCENT1 CUS0047288          Z MANJARA                     00000000000000000000                21                      
903L001L5063200504094544892D23700044963200504048810514100000008500210216350   CRESCENT1 CUS0052994          M FAGMI SABAN                 00000000000000000000                21                      
903L001L5063200504094544892D23700045025065562785353609100000008500210216350   CRESCENT1 CUS0058854          Z NOORSHID                    00000000000000000000                21                      
903L001L5063200504094544892D23700045163200509107322429100000016000210216350   CRESCENT1 CUS0015537          I OMAR                        00000000000000000000                21                      
903L001L5063200504094544892D23700045263200504098569923100000023500210216350   CRESCENT1 CUS0038006          A DAVIDS                      00000000000000000000                21                      
903L001L5063200504094544892D23700045325065560482238918100000007500210216350   CRESCENT1 CUS0047294          S KHAN                        00000000000000000000                21                      
903L001L5063200504094544892D23700045425065550910042981100000008500210216350   CRESCENT1 CUS0053004          R DASIGADU                    00000000000000000000                21                      
903L001L5063200504094544892D23700045525065562809422075100000008500210216350   CRESCENT1 CUS0058860          Z KASSIM                      00000000000000000000                21                      
903L001L5063200504094544892D23700045625065562630639229100000023500210216350   CRESCENT1 CUS0015583          A CAJEE                       00000000000000000000                21                      
903L001L5063200504094544892D23700045725065562181714009100000008500210216350   CRESCENT1 CUS0038124          R JOOSUB                      00000000000000000000                21                      
903L001L5063200504094544892D23700045847001001418287723200000008500210216350   CRESCENT1 CUS0047366          I AMEER                       00000000000000000000                21                      
903L001L5063200504094544892D23700045925065562049663893100000008500210216350   CRESCENT1 CUS0053017          E ABRAHAMS                    00000000000000000000                21                      
903L001L5063200504094544892D23700046047001001628917103200000008500210216350   CRESCENT1 CUS0058863          M QANGULE                     00000000000000000000                21                      
903L001L5063200504094544892D23700046163200506201303277100000016000210216350   CRESCENT1 CUS0015589          J PEARCE                      00000000000000000000                21                      
903L001L5063200504094544892D23700046205100100071191526100000008500210216350   CRESCENT1 CUS0038226          R JACOBS                      00000000000000000000                21                      
903L001L5063200504094544892D23700046325065562294134095100000008500210216350   CRESCENT1 CUS0047394          W BUX                         00000000000000000000                21                      
903L001L5063200504094544892D23700046419876501107049628100000008500210216350   CRESCENT1 CUS0053026          A EBRAHIM                     00000000000000000000                21                      
903L001L5063200504094544892D23700046567891051006224664100000008500210216350   CRESCENT1 CUS0058877          N BHOOLA                      00000000000000000000                21                      
903L001L5063200504094544892D23700046625065562234951061100000008500210216350   CRESCENT1 CUS0015594          M HASSIM                      00000000000000000000                21                      
903L001L5063200504094544892D23700046747001001574161898200000008500210216350   CRESCENT1 CUS0038322          M MAKDA                       00000000000000000000                21                      
903L001L5063200504094544892D23700046819876501982229594100000008500210216350   CRESCENT1 CUS0047404          B MAKDA                       00000000000000000000                21                      
903L001L5063200504094544892D23700046947001001535347803200000008500210216350   CRESCENT1 CUS0053077          K BRINK                       00000000000000000000                21                      
903L001L5063200504094544892D23700047047001001605725097200000008500210216350   CRESCENT1 CUS0058880          S AGHERDIEN                   00000000000000000000                21                      
903L001L5063200504094544892D23700047125065562386077012100000008500210216350   CRESCENT1 CUS0015912          R GUMAN                       00000000000000000000                21                      
903L001L5063200504094544892D23700047247001001674902989200000006900210216350   CRESCENT1 CUS0038327          Z BEUKES                      00000000000000000000                21                      
903L001L5063200504094544892D23700047325065562505350877100000016000210216350   CRESCENT1 CUS0047439          A JAMALOODIEN                 00000000000000000000                21                      
903L001L5063200504094544892D23700047463200509114236704100000006900210216350   CRESCENT1 CUS0053087          Y JATTIEM                     00000000000000000000                21                      
903L001L5063200504094544892D23700047547001001608531633200000008500210216350   CRESCENT1 CUS0058887          D JARDIEN                     00000000000000000000                21                      
903L001L5063200504094544892D23700047663200509090053557100000008500210216350   CRESCENT1 CUS0015974          N PETERSEN                    00000000000000000000                21                      
903L001L5063200504094544892D23700047747001001183200232200000008500210216350   CRESCENT1 CUS0038426          S MAHOMED                     00000000000000000000                21                      
903L001L5063200504094544892D23700047825065562015050925100000008500210216350   CRESCENT1 CUS0047455          I SAMODIEN                    00000000000000000000                21                      
903L001L5063200504094544892D23700047963200509274416032100000008500210216350   CRESCENT1 CUS0053102          A ISAACS                      00000000000000000000                21                      
903L001L5063200504094544892D23700048063200509262122807100000008500210216350   CRESCENT1 CUS0058888          N LINNEVELDT                  00000000000000000000                21                      
903L001L5063200504094544892D23700048105100100003752925100000008500210216350   CRESCENT1 CUS0015993          M MIAM                        00000000000000000000                21                      
903L001L5063200504094544892D23700048247001001144401192200000008500210216350   CRESCENT1 CUS0038525          S RAJA                        00000000000000000000                21                      
903L001L5063200504094544892D23700048325065562068773764100000008500210216350   CRESCENT1 CUS0047485          M ISMAIL                      00000000000000000000                21                      
903L001L5063200504094544892D23700048463200509229311695100000008500210216350   CRESCENT1 CUS0053143          F OSMAN                       00000000000000000000                21                      
903L001L5063200504094544892D23700048525065562500414298100000008500210216350   CRESCENT1 CUS0058892          A DAWOOD                      00000000000000000000                21                      
903L001L5063200504094544892D23700048625065562549022838100000008500210216350   CRESCENT1 CUS0016066          I TAYOB                       00000000000000000000                21                      
903L001L5063200504094544892D23700048763200509091153453100000016000210216350   CRESCENT1 CUS0038562          Z BHAYAT                      00000000000000000000                21                      
903L001L5063200504094544892D23700048825065562059652125100000008500210216350   CRESCENT1 CUS0047504          N ISMAIL                      00000000000000000000                21                      
903L001L5063200504094544892D23700048947001001554512741200000006900210216350   CRESCENT1 CUS0053187          A MIA                         00000000000000000000                21                      
903L001L5063200504094544892D23700049063200509197095296100000006900210216350   CRESCENT1 CUS0058897          A PANGARAER                   00000000000000000000                21                      
903L001L5063200504094544892D23700049163200509149164253100000008500210216350   CRESCENT1 CUS0016098          M OSMAN                       00000000000000000000                21                      
903L001L5063200504094544892D23700049247001001114825377200000008500210216350   CRESCENT1 CUS0038650          E SALLIE                      00000000000000000000                21                      
903L001L5063200504094544892D23700049325065562017443897100000008500210216350   CRESCENT1 CUS0047525          H WILLIAM                     00000000000000000000                21                      
903L001L5063200504094544892D23700049447001001442524632200000008500210216350   CRESCENT1 CUS0053236          S FOKOTHO                     00000000000000000000                21                      
903L001L5063200504094544892D23700049525065562562947237100000006900210216350   CRESCENT1 CUS0058914          A MUKADAM                     00000000000000000000                21                      
903L001L5063200504094544892D23700049619876501902112326100000031000210216350   CRESCENT1 CUS0016113          H HAFFEJEE                    00000000000000000000                21                      
903L001L5063200504094544892D23700049725065562662487258100000016000210216350   CRESCENT1 CUS0038658          E MANUAL                      00000000000000000000                21                      
903L001L5063200504094544892D23700049825065562528875737100000008500210216350   CRESCENT1 CUS0047529          W CONRADIE                    00000000000000000000                21                      
903L001L5063200504094544892D23700049947001001694030723200000008500210216350   CRESCENT1 CUS0053237          M DANIELS                     00000000000000000000                21                      
