000L2021020400000PAYPORT CONSULTING PTY LTD EFT000061607303                                                                                                                                           
010LD237000010401                                                                                                                                                                                     
011LD23763200500000040945448920120210130                                                                                                                                                              
013L5020210129000069198765000000105354702100000008500CRESCENT1 CUS0057388          00200000000000                S SMITSDORSS                                                                         
013L5020210129001902198765000000113915650000000008500CRESCENT1 CUS0056709          00200000000000                Z ABRAHAMS                                                                           
013L5020210129001102198765000000265139567600000016000CRESCENT1 CUS0019065          00200000000000                A ISMAIL                                                                             
013L5020210129001519198765000000195649275500000008500CRESCENT1 CUS0028107          00200000000000                A CARRIM                                                                             
013L5020210129001090198765000000116298069900000008500CRESCENT1 CUS0059524          00200000000000                L ABRAHAMS                                                                           
013L5020210129001878198765000000108461472300000008500CRESCENT1 CUS0022826          00200000000000                S ESSOP                                                                              
013L5020210129000019198765000000104666545600000016000CRESCENT1 CUS0057335          00200000000000                A EDERIES                                                                            
013L5020210129000778470010000000138443853800000008500CRESCENT1 CUS0054405          03000000000000                A DULAZE                                                                             
013L5020210129000749470010000000134087691200000008500CRESCENT1 CUS0058052          03200000000000                I ELY                                                                                
013L5020210129000535198765000000191030345300000008500CRESCENT1 CUS0038198          00200000000000                R HOOSEN                                                                             
013L5020210129002223198765000000106762509700000008500CRESCENT1 CUS0052286          00200000000000                M SEBOA                                                                              
013L5020210129001484198765000000135509008300000007500CRESCENT1 CUS0034598          00200000000000                M ESSOP                                                                              
013L5020210129002094198765000000117686007000000008500CRESCENT1 CUS0056856          00200000000000                R JANUARY                                                                            
013L5020210129002405198765000000115953655400000008500CRESCENT1 CUS0059143          00200000000000                N MILAZI                                                                             
013L5020210129002004198765000000105827467800000008500CRESCENT1 CUS0056799          00200000000000                A STEMMET                                                                            
013L5020210129001362198765000000195341553900000016000CRESCENT1 CUS0055577          00200000000000                D HARDIEN                                                                            
014L0000000160000000000000000225012737540000000015750000000000000000                                                                                                                                  
011LD23763200500000040945448920120210201                                                                                                                                                              
013L5020210130000073258624000006219160370500000050000ABSOLIT   1611840617RKB001    00200000000000                KAYLEEN BOAS                                                                         
013L5020210130000047198765000000120669337100000050000ABSOLIT   1611921237RUP001    03000000000000                URIEL PETERSEN                                                                       
013L5020210130000060252805000006263430536300000050000ABSOLIT   1611991806RRD001    00200000000000                REAGAN DIMPHANA                                                                      
013L5020210130000043252805000006234127259000000050000ABSOLIT   1611921237RLP001    00200000000000                LLEWELLYN PALMER                                                                     
013L5020210130000038251705000006231037121600000025000ABSOLIT   1611921237RBM001    00200000000000                BRENT MORDAUNT                                                                       
014L0000000050000000000000002506842462450000000022500000000000000000                                                                                                                                  
011LD23763200500000040945448920120210202                                                                                                                                                              
013L5020210201000004051001000000000495612500000025000ABSOLIT   1612013425RLN001    00200000000000                LEVINIA NAGEL                                                                        
014L0000000010000000000000000000049561250000000002500000000000000000                                                                                                                                  
019L0000000220000000000000002731904761240000000040750000000000000000                                                                                                                                  
010LD237000010508                                                                                                                                                                                     
011LD23763200500000040945448920120210127                                                                                                                                                              
013L5020210127004070470010000000131092391200000008500CRESCENT1 CUS0045150          03000000000000                R HENDRICKS                                                                          
013L5020210127001184250655000006285074657300000016000CRESCENT1 CUS0059387          03600000000000                D SWANEPOEL                                                                          
013L5020210127003447198765000000106993703700000008500CRESCENT1 CUS0047806          03000000000000                S MABUSE                                                                             
013L5020210127003098462005000000264653600100000008500CRESCENT1 CUS0054814          03000000000000                M BAKER                                                                              
014L0000000040000000000000000678781435230000000004150000000000000000                                                                                                                                  
019L0000000040000000000000000678781435230000000004150000000000000000                                                                                                                                  
999L000000040                                                                                                                                                                                         
