000L2021030700000PAYPORT CONSULTING PTY LTD EFT000066207303                                                                                                                                           
010LD237000015001                                                                                                                                                                                     
011LD23763200500000040945448920120210130                                                                                                                                                              
013L5020210129000878051001000000007090672600000008500CRESCENT1 CUS0054585          03400000000000                S FAYKER                                                                             
014L0000000010000000000000000000709067260000000000850000000000000000                                                                                                                                  
011LD23763200500000040945448920120210227                                                                                                                                                              
013L5020210226006386051001000000007090672600000008500CRESCENT1 CUS0054585          03400000000000                S FAYKER                                                                             
013L5020210226006268051001000000062587933300000016000CRESCENT1 CUS0032587          03400000000000                A MDHULI                                                                             
013L5020210226006145198765000000104466234400000008500CRESCENT1 CUS0038690          03000000000000                Z KHAN                                                                               
013L5020210226004125051001000000002905234300000007500CRESCENT1 CUS0052106          03400000000000                B FARRED                                                                             
013L5020210226001092250017000006242098984200000016000CRESCENT1 CUS0042725          03600000000000                S MASENENE                                                                           
013L5020210226004527470010000000136736735000000008500CRESCENT1 CUS0056945          03000000000000                F SOLOMONS                                                                           
014L0000000060000000000000000655588579380000000006500000000000000000                                                                                                                                  
019L0000000070000000000000000656297646640000000007350000000000000000                                                                                                                                  
999L000000015                                                                                                                                                                                         
