000L2021012900000PAYPORT CONSULTING PTY LTD EFT000060707303                                                                                                                                           
010LD237000009201                                                                                                                                                                                     
011LD23763200500000040945448920120201219                                                                                                                                                              
013L5020201218001352470010000000132262898800000008500CRESCENT1 CUS0058753          03000000000000                A ACHMAT                                                                             
014L0000000010000000000000000013226289880000000000850000000000000000                                                                                                                                  
011LD23763200500000040945448920120210121                                                                                                                                                              
013L5020210120000054198765000000118315204300000016000CRESCENT1 CUS0058852          03000000000000                S BROWN                                                                              
014L0000000010000000000000000011831520430000000001600000000000000000                                                                                                                                  
011LD23763200500000040945448920120210125                                                                                                                                                              
013L5020210123000475198765000000298436307800000008500CRESCENT1 CUS0042256          00200000000000                D ROBERTS                                                                            
013L5020210123000116198765000000108183114600000008500CRESCENT1 CUS0048444          03600000000000                M ISAACS                                                                             
013L5020210123000469470010000000164318173200000008500CRESCENT1 CUS0058678          03600000000000                S DAVIDS                                                                             
013L5020210123000120470010000000135874440600000008500CRESCENT1 CUS0056935          03400000000000                A LAMONT                                                                             
013L5020210123000138198765000000118386748400000008500CRESCENT1 CUS0057080          00200000000000                B SYCE                                                                               
013L5020210123000776198765000000104319532700000008500CRESCENT1 CUS0054841          00200000000000                R ACHMAT                                                                             
013L5020210123000224198765000000113548443000000008500CRESCENT1 CUS0049483          00200000000000                T LATIEF                                                                             
013L5020210123000084198765000000109039705400000008500CRESCENT1 CUS0056700          00200000000000                F BETHANE                                                                            
013L5020210123000772051001000000041029242700000016000CRESCENT1 CUS0045426          03400000000000                A RASSOOL                                                                            
014L0000000090000000000000000119313570840000000008400000000000000000                                                                                                                                  
019L0000000110000000000000000144371381150000000010850000000000000000                                                                                                                                  
010LD237000009308                                                                                                                                                                                     
011LD23763200500000040945448920120210127                                                                                                                                                              
013L5020210127001381632005000000408339747800000008500CRESCENT1 CUS0031368          00292803001381                F ABRAHAMS                                                                           
013L5020210127001095051001000000025063356600000016000CRESCENT1 CUS0036821          00400000000000                F MOHAMED                                                                            
013L5020210127003621051001000000030097047100000016000CRESCENT1 CUS0041905          00200000000000                A KHOTOO                                                                             
013L5020210127003329051001000000003096746500000008500CRESCENT1 CUS0029993          00300000000000                Y CASSIM                                                                             
013L5020210127000451051001000000006100368900000008500CRESCENT1 CUS0022723          00200000000000                G RAHMAN                                                                             
013L5020210127003545470010000000126548263000000008500CRESCENT1 CUS0052545          00200000000000                F VAN OORDT                                                                          
013L5020210127000959470010000000139345462100000008500CRESCENT1 CUS0057578          00200000000000                M FREDERICKS                                                                         
013L5020210127003991470010000000142701715600000016000CRESCENT1 CUS0048278          00200000000000                W JARDIEN                                                                            
013L5020210127003271470010000000143171440000000016000CRESCENT1 CUS0047654          00200000000000                M DUNBAR                                                                             
013L5020210127003291470010000000144860326700000008500CRESCENT1 CUS0056985          00200000000000                F ABDURAHMAN                                                                         
013L5020210127003869580105000001001134825500000023500CRESCENT1 CUS0018517          01200000000000                A KARA                                                                               
013L5020210127002542470010000000123804727900000008500CRESCENT1 CUS0058221          00200000000000                L LAKAY                                                                              
013L5020210127002828051001000001008386095700000008500CRESCENT1 CUS0058321          00200000000000                S DOLLIE                                                                             
013L5020210127003478470010000000131869700800000008500CRESCENT1 CUS0044809          00200000000000                B SUBRATHEE                                                                          
013L5020210127004060470010000000132728703800000008500CRESCENT1 CUS0059029          00200000000000                N JOHANNES                                                                           
013L5020210127001024470010000000126766867700000008500CRESCENT1 CUS0059373          00200000000000                T UYS                                                                                
013L5020210127000176470010000000128863720700000016000CRESCENT1 CUS0059139          00200000000000                M KIPPIE                                                                             
013L5020210127002968470010000000137770520800000016000CRESCENT1 CUS0050177          00600000000000                I MEYER                                                                              
013L5020210127001471470010000000164481386400000016000CRESCENT1 CUS0057770          00200000000000                M MOOS                                                                               
013L5020210127003318051001000001009985189800000008500CRESCENT1 CUS0044744          00400000000000                I EBRAHIM                                                                            
013L5020210127000130051001000000002121712200000016000CRESCENT1 CUS0020213          00200000000000                R MALLY                                                                              
013L5020210127001422470010000000119368327900000008500CRESCENT1 CUS0056039          00200000000000                A HENDRICKS                                                                          
013L5020210127000140632005000000408649024300000008500CRESCENT1 CUS0050946          03492801000140                M HASSIM                                                                             
013L5020210127000872632005000000409501695100000008500CRESCENT1 CUS0039658          00292803000872                M ISMAIL                                                                             
013L5020210127002052250655000007709415510900000023500CRESCENT1 CUS0027763          02600000000000                A MYET                                                                               
013L5020210127002204051001000001008167592300000008500CRESCENT1 CUS0051863          00200000000000                S MAYET                                                                              
013L5020210127002384470010000000156682787400000004500CRESCENT1 CUS0059571          00200000000000                I JOHNSON                                                                            
013L5020210127003564470010000000131822591200000008500CRESCENT1 CUS0058759          00200000000000                S BREDA                                                                              
013L5020210127003259470010000000133959234500000016000CRESCENT1 CUS0056979          03000000000000                F ARENDS                                                                             
013L5020210127002876470010000000142664211100000008500CRESCENT1 CUS0058376          00200000000000                R REGTER                                                                             
013L5020210127001918470010000000152340656700000008500CRESCENT1 CUS0056249          00200000000000                E MONAGENG                                                                           
013L5020210127001328051001000001012629681000000008500CRESCENT1 CUS0059407          00200000000000                Z BULBULIA                                                                           
013L5020210127002905051001000000028317597400000008500CRESCENT1 CUS0052207          00200000000000                S KHALEK                                                                             
013L5020210127002014051001000000007337362100000016000CRESCENT1 CUS0056294          00600000000000                E JACOBS                                                                             
013L5020210127002065051001000000005179076900000016000CRESCENT1 CUS0019428          00400000000000                F SHEIK                                                                              
013L5020210127002251470010000000114036416000000008500CRESCENT1 CUS0049657          00200000000000                F SOLOMON                                                                            
013L5020210127001921051001000000024201601400000008500CRESCENT1 CUS0019358          00400000000000                U ABBAS                                                                              
013L5020210127001983470010000000144404897800000008500CRESCENT1 CUS0058016          00200000000000                N HODSON                                                                             
013L5020210127003244470010000000160875484500000008500CRESCENT1 CUS0058557          00600000000000                S SAIB                                                                               
013L5020210127000975470010000000138598683000000008500CRESCENT1 CUS0057589          00200000000000                A KLEINSMITH                                                                         
013L5020210127000541470010000000127761337900000016000CRESCENT1 CUS0053073          03000000000000                A PIETERSEN                                                                          
013L5020210127000175632005000000408985494500000008500CRESCENT1 CUS0057248          00292803000175                M JAMIE                                                                              
013L5020210127000960470010000000157266449300000008500CRESCENT1 CUS0059356          00200000000000                R GEORGE                                                                             
013L5020210127000512470010000000150146935300000008500CRESCENT1 CUS0059234          00200000000000                Q ABDURAGMAN                                                                         
013L5020210127000016410506000005112911606200000008500CRESCENT1 CUS0059034          00300000000000                J STEVEN                                                                             
013L5020210127000169051001000000007187052000000016000CRESCENT1 CUS0042209          00200000000000                T AJOUHAAR                                                                           
013L5020210127002414051001000000007263230500000008500CRESCENT1 CUS0056609          00400000000000                N BAATJES                                                                            
013L5020210127004069250655000007438698667200000008500CRESCENT1 CUS0042113          02600000000000                A BUKUPU                                                                             
013L5020210127003323051001000001010808446700000008500CRESCENT1 CUS0056988          00400000000000                A EBRAHIM                                                                            
013L5020210127002527470010000000150269657400000006900CRESCENT1 CUS0058217          00200000000000                M KAMALDIEN                                                                          
013L5020210127001712470010000000156016903400000008500CRESCENT1 CUS0059492          00200000000000                M KABLEY                                                                             
013L5020210127003083470010000000133486747800000008500CRESCENT1 CUS0056913          00200000000000                L JOHNSON                                                                            
013L5020210127003675470010000000136168541500000008500CRESCENT1 CUS0057086          03000000000000                R ROMAN                                                                              
013L5020210127002335470010000000160960933400000008500CRESCENT1 CUS0058193          00200000000000                S MOHAMED                                                                            
013L5020210127002184051001000000020054746100000008500CRESCENT1 CUS0040909          00200000000000                N KARIM                                                                              
013L5020210127004074470010000000114451984300000014400CRESCENT1 CUS0055442          00200000000000                G ANDERSON                                                                           
013L5020210127000607470010000000124999404500000008500CRESCENT1 CUS0057487          00200000000000                S BAILEY                                                                             
013L5020210127002264051001000000005299301900000008500CRESCENT1 CUS0040952          00300000000000                F SAHIN                                                                              
013L5020210127002723051001000000003106984300000016000CRESCENT1 CUS0019638          00600000000000                H MOOLA                                                                              
013L5020210127000696051001000000025319012600000016000CRESCENT1 CUS0039494          00200000000000                H RAZACK                                                                             
013L5020210127003988051001000000000110338500000008500CRESCENT1 CUS0038859          00600000000000                J DOCRAT                                                                             
013L5020210127000637051001000001005433210700000008500CRESCENT1 CUS0053100          00400000000000                Y ABDURAHMAN                                                                         
013L5020210127001343051001000001005820933400000016000CRESCENT1 CUS0057733          00200000000000                L LOSPER                                                                             
013L5020210127001445580105000001001155373700000016000CRESCENT1 CUS0031397          01200000000000                I LIMALIA                                                                            
013L5020210127003435470010000000144711277400000008500CRESCENT1 CUS0057036          00200000000000                G FROUDE                                                                             
013L5020210127002970470010000000143203663500000006900CRESCENT1 CUS0054721          00200000000000                G STEGMANN                                                                           
013L5020210127002827470010000000139539213500000008500CRESCENT1 CUS0056763          00200000000000                N ABRAHAMS                                                                           
013L5020210127000698470010000000134460076800000016000CRESCENT1 CUS0045646          00200000000000                S KHAN                                                                               
013L5020210127001437470010000000129846059800000008500CRESCENT1 CUS0053543          00200000000000                R ABRAHAMS                                                                           
013L5020210127003659470010000000130921888700000008500CRESCENT1 CUS0057085          00200000000000                A MATHEWS                                                                            
013L5020210127001456678910000005102362230300000008500CRESCENT1 CUS0059421          00200000000000                B LAUGHTON                                                                           
013L5020210127000813800000000007860000610400000015000CRESCENT1 CUS0053169          00200000000000                R LATIEF                                                                             
013L5020210127002030470010000000134898039500000016000CRESCENT1 CUS0056300          00200000000000                S ABRAHAMS                                                                           
013L5020210127000336470010000000141429656600000016000CRESCENT1 CUS0059189          00200000000000                I BADARON                                                                            
013L5020210127002420470010000000154106534200000007500CRESCENT1 CUS0028292          00200000000000                W FELTMAN                                                                            
013L5020210127002617470010000000158559433200000017000CRESCENT1 CUS0058259          00200000000000                E MARTIN                                                                             
013L5020210127000844051001000000001145236600000016000CRESCENT1 CUS0051274          00400000000000                D CASSIM                                                                             
013L5020210127001869051001000000027776124700000006900CRESCENT1 CUS0053733          00200000000000                A MOSES                                                                              
013L5020210127003110051001000000008147360500000015000CRESCENT1 CUS0044656          01200000000000                G MANUEL                                                                             
013L5020210127001695462005000000392438630100000008500CRESCENT1 CUS0057886          00200000000000                A CASSIEM                                                                            
013L5020210127002707470010000000114579164400000008500CRESCENT1 CUS0058267          00200000000000                A ABRAHAMS                                                                           
013L5020210127001536470010000000124137979100000008500CRESCENT1 CUS0059434          00200000000000                S MAHOMED                                                                            
013L5020210127001467470010000000122536312600000016000CRESCENT1 CUS0049205          03000000000000                A KAMALDIEN                                                                          
013L5020210127002466051001000000007017004500000008500CRESCENT1 CUS0021285          00400000000000                M DE ROOS                                                                            
013L5020210127003981051001000000025263212500000008500CRESCENT1 CUS0018553          00200000000000                S ESOP                                                                               
013L5020210127000281051001000000027654506000000031000CRESCENT1 CUS0042313          00200000000000                M ABRAHAMS                                                                           
013L5020210127001808470010000000161786706100000008500CRESCENT1 CUS0059527          00200000000000                I SAMUELS                                                                            
013L5020210127000243580105000001001150253100000008500CRESCENT1 CUS0022593          01200000000000                S HOOSEN                                                                             
013L5020210127002352470010000000171828368500000002900CRESCENT1 CUS0059569          00200000000000                G MULLINS                                                                            
013L5020210127000272470010000000147341585100000008500CRESCENT1 CUS0059173          00200000000000                F KAMALDIEN                                                                          
013L5020210127003788470010000000139498759300000008500CRESCENT1 CUS0058870          00200000000000                Q PROUTS                                                                             
013L5020210127002490470010000000141024465000000008500CRESCENT1 CUS0047177          00200000000000                Z RHODE                                                                              
013L5020210127003084470010000000131484442100000008500CRESCENT1 CUS0058464          00200000000000                N FORTUNE                                                                            
013L5020210127001740470010000000127643447000000008500CRESCENT1 CUS0051702          00200000000000                M KEMP                                                                               
013L5020210127002464470010000000146584244400000004500CRESCENT1 CUS0059581          00200000000000                R ARENDSE                                                                            
013L5020210127001229470010000000148434679100000008500CRESCENT1 CUS0053437          00200000000000                Z BROWN                                                                              
013L5020210127003836470010000000172365426200000008500CRESCENT1 CUS0058898          00200000000000                M BULL                                                                               
013L5020210127000976470010000000160143172200000008500CRESCENT1 CUS0059359          00200000000000                G HANSEN                                                                             
013L5020210127001247051001000001007193874300000008500CRESCENT1 CUS0057722          00400000000000                S RAKIEP                                                                             
013L5020210127002220051001000000006265001700000008500CRESCENT1 CUS0051867          00200000000000                R AKHALWANG                                                                          
013L5020210127000015051001000000007089780800000008500CRESCENT1 CUS0057208          00600000000000                A ABRAHAMS                                                                           
013L5020210127003002470010000000122625556400000008500CRESCENT1 CUS0054778          00200000000000                L XULU                                                                               
013L5020210127001168462005000000008240600400000008500CRESCENT1 CUS0059386          00200000000000                C SWANEPOEL                                                                          
013L5020210127000733632005000000408968130800000008500CRESCENT1 CUS0053131          03492801000733                N GAMIELDIEN                                                                         
013L5020210127001821462005000000579012300200000014400CRESCENT1 CUS0053684          00200000000000                M AWALDIEN                                                                           
013L5020210127000229051001000000008139807700000008500CRESCENT1 CUS0030582          00400000000000                W BHIKOO-RAWOOT                                                                      
013L5020210127001408470010000000159049694700000008500CRESCENT1 CUS0059413          00200000000000                N CHOUGLAY                                                                           
013L5020210127001405470010000000153868248400000008500CRESCENT1 CUS0053500          00600000000000                R CUPIDO                                                                             
013L5020210127001879470010000000163076237500000008500CRESCENT1 CUS0037214          03600000000000                N ADAMS                                                                              
013L5020210127000496470010000000169435580000000008500CRESCENT1 CUS0059232          00200000000000                A ALEXANDER                                                                          
013L5020210127002602470010000000128592686000000008500CRESCENT1 CUS0058258          00200000000000                Y BERA                                                                               
013L5020210127003881470010000000131380323300000008500CRESCENT1 CUS0052616          00200000000000                A VALENTINE                                                                          
013L5020210127002351470010000000132199769600000016000CRESCENT1 CUS0058196          03000000000000                S DAVIDS                                                                             
013L5020210127001183470010000000140085432400000008500CRESCENT1 CUS0057667          03600000000000                A EDRIES                                                                             
013L5020210127001998470010000000136798718900000008500CRESCENT1 CUS0056293          00200000000000                T MOKATE                                                                             
013L5020210127002090470010000000137277377900000008500CRESCENT1 CUS0046946          00200000000000                Z FAGODIEN                                                                           
013L5020210127001087470010000000114683674900000016000CRESCENT1 CUS0057630          00200000000000                M VERMEULEN                                                                          
013L5020210127000934470010000000121615740300000016000CRESCENT1 CUS0033765          00200000000000                S JARDIEN                                                                            
013L5020210127000924051001000001006817590400000008500CRESCENT1 CUS0051296          00400000000000                S KHAN                                                                               
013L5020210127003082051001000001008959525200000016000CRESCENT1 CUS0054810          00200000000000                H SIRKHOTH                                                                           
013L5020210127003388051001000000027176610700000008500CRESCENT1 CUS0058642          00200000000000                R ABRAHAMS                                                                           
013L5020210127003824051001000000020481150300000016000CRESCENT1 CUS0025312          00400000000000                A HENDRICKS                                                                          
013L5020210127003759051001000000020772486500000007500CRESCENT1 CUS0022255          00400000000000                S ISMAIL                                                                             
013L5020210127000255632005000000409055852800000008500CRESCENT1 CUS0057271          00292803000255                S CHARLES                                                                            
013L5020210127002346632005000000924866636600000007500CRESCENT1 CUS0047102          03092801002346                Y SAYED                                                                              
013L5020210127000328051001000000003029993400000008500CRESCENT1 CUS0039227          00200000000000                K KHAN                                                                               
013L5020210127002700051001000001004815380800000008500CRESCENT1 CUS0041279          00200000000000                I LATIEF                                                                             
013L5020210127000564250655000007425296283900000008500CRESCENT1 CUS0026304          02600000000000                S KAMAL XAVIER                                                                       
013L5020210127001495051001000000007799853700000008500CRESCENT1 CUS0037006          00200000000000                F KHAN                                                                               
013L5020210127004011051001000000031091707700000008500CRESCENT1 CUS0057194          00200000000000                Y GEORGE                                                                             
013L5020210127003178470010000000143162697800000016000CRESCENT1 CUS0054854          00600000000000                A SAMIE                                                                              
013L5020210127002920470010000000129017151100000008500CRESCENT1 CUS0050149          00200000000000                N TOFFIE                                                                             
013L5020210127000493470010000000155894745900000016000CRESCENT1 CUS0053045          00200000000000                A BADR                                                                               
013L5020210127003114470010000000153319426000000008500CRESCENT1 CUS0054825          00200000000000                S HOLLAND                                                                            
013L5020210127001373470010000000143410954000000016000CRESCENT1 CUS0053490          03400000000000                F PRODEHL                                                                            
013L5020210127001692470010000000148953545200000008500CRESCENT1 CUS0051692          00200000000000                K ABDULLAH                                                                           
013L5020210127001936470010000000149681996700000017500CRESCENT1 CUS0052412          00400000000000                M ABRAHAMS                                                                           
013L5020210127003627470010000000150594123500000008500CRESCENT1 CUS0057081          00200000000000                M JUMAT                                                                              
013L5020210127003612470010000000125169725700000008500CRESCENT1 CUS0058777          00200000000000                I JUDAAR                                                                             
013L5020210127003050470010000000141308822600000008500CRESCENT1 CUS0054802          00200000000000                N JACOBS                                                                             
013L5020210127001700051001000000007109328100000008500CRESCENT1 CUS0027249          01200000000000                F ELY                                                                                
013L5020210127002736051001000000007129731600000008500CRESCENT1 CUS0056735          00200000000000                M ETALA                                                                              
013L5020210127002415051001000000007267986700000008500CRESCENT1 CUS0058205          00400000000000                T MKIWANE                                                                            
013L5020210127001887051001000000027696766600000008500CRESCENT1 CUS0057955          00200000000000                N GABIER                                                                             
013L5020210127003809632005000000127014751400000008500CRESCENT1 CUS0030260          03492801003809                F DELJION                                                                            
013L5020210127001812632005000000404449431600000008500CRESCENT1 CUS0027420          00292803001812                A MAHOMED JAN                                                                        
013L5020210127000510051001000000028207184900000008500CRESCENT1 CUS0055675          00400000000000                R VEERASAMY                                                                          
013L5020210127002126470010000000142556342000000008500CRESCENT1 CUS0056468          00200000000000                S PAYNE                                                                              
013L5020210127001158470010000000125318300500000008500CRESCENT1 CUS0034016          00200000000000                A VISAGIE                                                                            
013L5020210127001645470010000000129347777800000008500CRESCENT1 CUS0053626          00200000000000                U SAMUELS                                                                            
013L5020210127000461470010000000136874404200000007500CRESCENT1 CUS0053019          00200000000000                G CUPIDO                                                                             
013L5020210127003147470010000000136736735000000008500CRESCENT1 CUS0056945          00200000000000                F SOLOMONS                                                                           
013L5020210127001051470010000000147505132600000008500CRESCENT1 CUS0048958          00200000000000                Z HASSEN                                                                             
013L5020210127000384470010000000171828074000000008500CRESCENT1 CUS0059206          00200000000000                N SYDOW                                                                              
013L5020210127001882051001000000002075561900000008500CRESCENT1 CUS0046752          00400000000000                T SAFER                                                                              
013L5020210127001196051001000000020276894500000008500CRESCENT1 CUS0051450          00400000000000                A COULIBALY                                                                          
013L5020210127000570051001000001005057553600000008500CRESCENT1 CUS0045611          00400000000000                R HARDIEN                                                                            
013L5020210127000300051001000000007048005200000016000CRESCENT1 CUS0051034          00200000000000                M BOUMAN                                                                             
013L5020210127002873470010000000122396900000000016000CRESCENT1 CUS0052202          00200000000000                F JACOBS                                                                             
013L5020210127003687678910000005100063887000000016000CRESCENT1 CUS0048051          00200000000000                A KEOWN                                                                              
013L5020210127001142051001000000002106421000000008500CRESCENT1 CUS0034007          00400000000000                S QAZI                                                                               
013L5020210127003227051001000000025072587800000008500CRESCENT1 CUS0056969          00200000000000                J SULEMAN                                                                            
013L5020210127001981470010000000137340030500000008500CRESCENT1 CUS0053857          00200000000000                R JONES                                                                              
013L5020210127001901470010000000139408401100000016000CRESCENT1 CUS0053745          03000000000000                N PERREIRA                                                                           
013L5020210127001359470010000000163728874100000008500CRESCENT1 CUS0057752          03600000000000                F JAMIE                                                                              
013L5020210127003611470010000000116866380400000008500CRESCENT1 CUS0057070          00200000000000                R FELIX                                                                              
013L5020210127001534470010000000119494225100000016000CRESCENT1 CUS0056149          00200000000000                F MACKENZIE                                                                          
013L5020210127000221470010000000123481251500000008500CRESCENT1 CUS0052906          00200000000000                G ABRAHAMS                                                                           
013L5020210127001914051001000000007062017200000008500CRESCENT1 CUS0046756          00200000000000                M SAFI                                                                               
013L5020210127002177051001000000006016692400000008500CRESCENT1 CUS0019450          00400000000000                F KHAN                                                                               
013L5020210127002169051001000000007304133500000008500CRESCENT1 CUS0043812          00200000000000                I HENDRICKS                                                                          
013L5020210127003342051001000000007119207700000008500CRESCENT1 CUS0019834          00400000000000                F BOWAS                                                                              
013L5020210127003274051001000001008565753900000008500CRESCENT1 CUS0054927          00200000000000                Z RAJIE                                                                              
013L5020210127002095470010000000164561577200000008500CRESCENT1 CUS0058060          00200000000000                J HENDRICKS                                                                          
013L5020210127003139580105000001001133592200000016000CRESCENT1 CUS0035471          00600000000000                A ESSA                                                                               
013L5020210127002412470010000000147763069200000008500CRESCENT1 CUS0051964          00200000000000                Z MAHOMED                                                                            
013L5020210127000574470010000000144787602200000008500CRESCENT1 CUS0055703          00200000000000                A BEUKUS                                                                             
013L5020210127000143470010000000151845309900000008500CRESCENT1 CUS0057243          00200000000000                M TALIEP                                                                             
013L5020210127001120470010000000149322638800000008500CRESCENT1 CUS0059380          00200000000000                H HOOSEN                                                                             
013L5020210127001693470010000000126413089700000008500CRESCENT1 CUS0053650          03400000000000                S ANDREWS                                                                            
013L5020210127001902470010000000131891015100000008500CRESCENT1 CUS0056246          00200000000000                A FEBRUARY                                                                           
013L5020210127002529632005000000406364292800000016000CRESCENT1 CUS0021331          00292803002529                J RICHARDS                                                                           
013L5020210127002416470010000000137880886800000004500CRESCENT1 CUS0059576          00200000000000                T HENDRICKS                                                                          
013L5020210127000624470010000000169510719300000008500CRESCENT1 CUS0059267          00200000000000                Z NOLAN                                                                              
013L5020210127001632470010000000164080189600000008500CRESCENT1 CUS0059474          00200000000000                F JOHNSON                                                                            
013L5020210127000223470010000000158681551000000008500CRESCENT1 CUS0057264          00200000000000                S LEPERE GABIER                                                                      
013L5020210127001151470010000000160363856100000007500CRESCENT1 CUS0057653          00200000000000                B GALANT                                                                             
013L5020210127003654051001000000022010232500000008500CRESCENT1 CUS0044879          00400000000000                S SAMSOOK                                                                            
013L5020210127003018470010000000121796331400000008500CRESCENT1 CUS0054779          03000000000000                P DUPLOOY                                                                            
013L5020210127001599470010000000117202858100000008500CRESCENT1 CUS0057801          01200000000000                L SALIE                                                                              
013L5020210127000192462005000000482286230100000008500CRESCENT1 CUS0059164          00200000000000                A BRINK                                                                              
013L5020210127001389470010000000113141379000000008500CRESCENT1 CUS0053496          00200000000000                M ISAACKS                                                                            
013L5020210127003396470010000000115070286700000008500CRESCENT1 CUS0038415          00200000000000                N ISAAS RAISS                                                                        
013L5020210127003355470010000000116513618800000008500CRESCENT1 CUS0057001          03600000000000                Z MAJIET                                                                             
013L5020210127003707470010000000119642458400000008500CRESCENT1 CUS0057093          03000000000000                M RAS                                                                                
013L5020210127002586051001000001009299753600000008500CRESCENT1 CUS0056685          00600000000000                M JOSEPH                                                                             
013L5020210127001884051001000001010126374900000008500CRESCENT1 CUS0051756          00200000000000                F HENDRICKS                                                                          
013L5020210127001741470010000000163519736600000008500CRESCENT1 CUS0053665          00200000000000                F ALLIE                                                                              
013L5020210127001248470010000000163641175200000008500CRESCENT1 CUS0059396          00200000000000                M OMAR                                                                               
013L5020210127001759470010000000165347431700000008500CRESCENT1 CUS0057894          00200000000000                G BUTTON                                                                             
013L5020210127002765470010000000132635995700000016000CRESCENT1 CUS0054621          00200000000000                M ABRAHAM                                                                            
013L5020210127003962470010000000133316858400000007500CRESCENT1 CUS0055358          00200000000000                S AMOD                                                                               
013L5020210127003385470010000000151506431800000016000CRESCENT1 CUS0052500          00200000000000                N HOOSEN                                                                             
013L5020210127001694470010000000150973379300000016000CRESCENT1 CUS0056184          00200000000000                F SOLOMON                                                                            
013L5020210127003466470010000000147169201700000008500CRESCENT1 CUS0055056          00200000000000                C ROSENBURG                                                                          
013L5020210127003432051001000000007292992800000008500CRESCENT1 CUS0050528          00400000000000                F AUGUST                                                                             
013L5020210127000549051001000000007272827200000016000CRESCENT1 CUS0030791          00600000000000                F SALIE                                                                              
013L5020210127000760051001000000007010524300000008500CRESCENT1 CUS0039540          00400000000000                Y ABDULLAH                                                                           
013L5020210127000678051001000000007337324900000008500CRESCENT1 CUS0033423          00600000000000                F HENDRICKS                                                                          
013L5020210127002284051001000000001310223000000008500CRESCENT1 CUS0051891          00400000000000                H MUHAMMAD                                                                           
013L5020210127000077051001000001003589342500000008500CRESCENT1 CUS0052826          00200000000000                Y JAMIE                                                                              
013L5020210127002623051001000000020087686400000016000CRESCENT1 CUS0035202          00400000000000                G SALASA                                                                             
013L5020210127000288470010000000151971414700000016000CRESCENT1 CUS0059174          00200000000000                M WAGGIE                                                                             
013L5020210127001368470010000000135367157500000008500CRESCENT1 CUS0040200          00200000000000                M MPANZA                                                                             
013L5020210127001388470010000000129012123900000016000CRESCENT1 CUS0051546          01200000000000                S BESTER                                                                             
013L5020210127000783470010000000136188742500000008500CRESCENT1 CUS0057527          00200000000000                T CLAASEN                                                                            
013L5020210127003140632005000000921727508500000038500CRESCENT1 CUS0038231          00292803003140                N GOWRIE                                                                             
013L5020210127000096470010000000137958009700000006900CRESCENT1 CUS0059052          00200000000000                C ZIMBA                                                                              
013L5020210127001195470010000000138290885500000008500CRESCENT1 CUS0049074          00200000000000                T MAKHEH                                                                             
013L5020210127003402470010000000138872770400000008500CRESCENT1 CUS0054991          00200000000000                R BASSON                                                                             
013L5020210127002782470010000000155300556000000008500CRESCENT1 CUS0058296          03200000000000                F MATTHEWS                                                                           
013L5020210127000524470010000000145658738000000008500CRESCENT1 CUS0051165          00200000000000                C THEMBA                                                                             
013L5020210127003714051001000000022041160300000031000CRESCENT1 CUS0032650          00200000000000                A PARKER                                                                             
013L5020210127000005051001000000023364370200000008500CRESCENT1 CUS0030470          00200000000000                N NBEWE                                                                              
013L5020210127003751051001000000025062464800000007500CRESCENT1 CUS0048129          01200000000000                S KHAN                                                                               
013L5020210127001146250655000006444777999100000008500CRESCENT1 CUS0046047          02600000000000                M KHAN                                                                               
013L5020210127003618051001000000062587933300000016000CRESCENT1 CUS0032587          00400000000000                A MDHULI                                                                             
013L5020210127002299470010000000119502749200000008500CRESCENT1 CUS0049664          03400000000000                L KAGEE                                                                              
013L5020210127000608462005000002041738230100000008500CRESCENT1 CUS0059261          00200000000000                M MAJIET                                                                             
013L5020210127000032410506000005110993325100000016000CRESCENT1 CUS0059037          00300000000000                C MILAMBE                                                                            
013L5020210127000205051001000000027399334800000008500CRESCENT1 CUS0052902          00200000000000                Z RAINERS                                                                            
013L5020210127000798051001000001005153088900000008500CRESCENT1 CUS0055786          00200000000000                S ROSSOUW                                                                            
013L5020210127000246051001000000001210500700000008500CRESCENT1 CUS0033160          00400000000000                F ABRAHAMS                                                                           
013L5020210127001423470010000000164833982200000008500CRESCENT1 CUS0057763          00600000000000                M ABRAHAMS                                                                           
013L5020210127000782470010000000158111041100000008500CRESCENT1 CUS0055783          00200000000000                A ADAMS                                                                              
013L5020210127003292470010000000156745819800000008500CRESCENT1 CUS0058635          00200000000000                A LILLAH                                                                             
013L5020210127001738470010000000140942446200000008500CRESCENT1 CUS0046624          03000000000000                A SALLIE                                                                             
013L5020210127000335470010000000129348677700000016000CRESCENT1 CUS0057301          00200000000000                B STEER                                                                              
013L5020210127002677470010000000135015506100000008500CRESCENT1 CUS0058265          03400000000000                W SYDOW                                                                              
013L5020210127000879678910000005100248339900000008500CRESCENT1 CUS0057557          00200000000000                Y MABOTE                                                                             
013L5020210127000723470010000000140102780400000008500CRESCENT1 CUS0022885          00200000000000                I TLADI                                                                              
013L5020210127003765470010000000141946759800000008500CRESCENT1 CUS0041949          00200000000000                W CANTHITOO                                                                          
013L5020210127003372470010000000144397510700000008500CRESCENT1 CUS0058641          00200000000000                R LE ROUX                                                                            
013L5020210127000690051001000000027215207200000008500CRESCENT1 CUS0020451          00200000000000                M SALIE                                                                              
013L5020210127001757051001000000028122472200000008500CRESCENT1 CUS0053666          00200000000000                F MANAN                                                                              
013L5020210127001667051001000000005121964600000008500CRESCENT1 CUS0023691          01200000000000                Z RANDEREE                                                                           
013L5020210127001484051001000000042099234000000008500CRESCENT1 CUS0051603          00400000000000                O VUCKUS                                                                             
013L5020210127003395051001000000008147970000000008500CRESCENT1 CUS0035621          00600000000000                S OMAR                                                                               
013L5020210127001211051001000000027124751700000008500CRESCENT1 CUS0049081          00200000000000                C NDLAZI                                                                             
013L5020210127001658051001000000000234780600000008500CRESCENT1 CUS0046592          00400000000000                A NANABHAY                                                                           
013L5020210127000397051001000001003460578700000008500CRESCENT1 CUS0052966          00200000000000                N OSMAN                                                                              
013L5020210127003468470010000000144049287300000008500CRESCENT1 CUS0058681          00200000000000                F DANGOR                                                                             
013L5020210127002015470010000000154892614900000016000CRESCENT1 CUS0058042          00200000000000                I KAMAAR                                                                             
013L5020210127000843470010000000139955294300000008500CRESCENT1 CUS0048816          00200000000000                Y ABRAHAMS                                                                           
013L5020210127002780470010000000138326604000000008500CRESCENT1 CUS0054633          00200000000000                R MEYER                                                                              
013L5020210127002031470010000000128880214300000008500CRESCENT1 CUS0058044          00200000000000                F ALEXANDER                                                                          
013L5020210127000958632005000000409653870600000016000CRESCENT1 CUS0055867          00292803000958                M MAGMOED                                                                            
013L5020210127000445470010000000135720796200000008500CRESCENT1 CUS0052988          00200000000000                A WILLIAMS                                                                           
013L5020210127002875470010000000136766212300000008500CRESCENT1 CUS0056782          00200000000000                M LEGRANGE                                                                           
013L5020210127002158470010000000153696381800000008500CRESCENT1 CUS0056498          00200000000000                B HENDRICKS                                                                          
013L5020210127000279580105000001001139148300000008500CRESCENT1 CUS0036178          01200000000000                M MOOSA                                                                              
013L5020210127001880051001000000001372832600000016000CRESCENT1 CUS0040704          00200000000000                A AHMED                                                                              
013L5020210127002325051001000000020379784100000016000CRESCENT1 CUS0031935          00200000000000                M ALLI                                                                               
013L5020210127002727051001000000008068738500000008500CRESCENT1 CUS0032037          00600000000000                R MOODALEY                                                                           
013L5020210127001850470010000000124027084200000008500CRESCENT1 CUS0046718          00200000000000                A MADATT                                                                             
014L0000002650000000000000011639692272970000000275130000000000000000                                                                                                                                  
019L0000002650000000000000011639692272970000000275130000000000000000                                                                                                                                  
999L000000290                                                                                                                                                                                         
