000L2020120200000PAYPORT CONSULTING PTY LTD EFT000052807303                                                                                                                                           
010LD237000004701                                                                                                                                                                                     
011LD23763200500000040945448920120201125                                                                                                                                                              
013L5020201124000445051001000000006895769600000008500CRESCENT1 CUS0047240          03000000000000                W BUX                                                                                
013L5020201124000301051001000000041029242700000016000CRESCENT1 CUS0045426          03400000000000                A RASSOOL                                                                            
014L0000000020000000000000000004792501230000000002450000000000000000                                                                                                                                  
019L0000000020000000000000000004792501230000000002450000000000000000                                                                                                                                  
999L000000008                                                                                                                                                                                         
