000L2021031100000PAYPORT CONSULTING PTY LTD EFT000066707303                                                                                                                                           
010LD237000015401                                                                                                                                                                                     
011LD23763200500000040945448920120210216                                                                                                                                                              
013L5020210215000396250655000006279654300900000008500CRESCENT1 CUS0014878          03400000000000                K DEWAN                                                                              
014L0000000010000000000000000627965430090000000000850000000000000000                                                                                                                                  
019L0000000010000000000000000627965430090000000000850000000000000000                                                                                                                                  
999L000000007                                                                                                                                                                                         
