000L2020121500000PAYPORT CONSULTING PTY LTD EFT000054507303                                                                                                                                           
010LD237000005201                                                                                                                                                                                     
011LD23763200500000040945448920120201125                                                                                                                                                              
013L5020201124000080051001000001005588690400000008500CRESCENT1 CUS0058721          03000000000000                H MAHOMED                                                                            
014L0000000010000000000000000100558869040000000000850000000000000000                                                                                                                                  
011LD23763200500000040945448920120201215                                                                                                                                                              
013L5020201214000879198765000000113109427100000000000CRESCENT1 CUS0008155          89981059000879                K ISAACS                                                                             
013L5020201214000582051001000000025213334100000008500CRESCENT1 CUS0042787          02682502000582                N KHAN                                                                               
013L5020201214000256250655000006223341656100000000000CRESCENT1 CUS0019521          89981059000256                F ISAACS JOHNSON                                                                     
013L5020201214000626632005000000408758670600000007500CRESCENT1 CUS0026240          02683002000626                F ISMAIL                                                                             
013L5020201214000558250655000006271528315700000000000CRESCENT1 CUS0049789          89981059000558                N ANDERSON                                                                           
013L5020201214001061250655000006242169176900000000000CRESCENT1 CUS0052099          89981059001061                R ABDUL LATIFF                                                                       
013L5020201214001147250655000000624475541300000008500CRESCENT1 CUS0058256          02682502001147                F SHIEK                                                                              
013L5020201214000831470010000000105654067200000008500CRESCENT1 CUS0044801          02682502000831                M DENNIS GREEN                                                                       
013L5020201214000926051001000001008683940100000000000CRESCENT1 CUS0051607          89981059000926                O DALVIE                                                                             
013L5020201214000343198765000000108762174100000007500CRESCENT1 CUS0020198          02682502000343                S OMAR                                                                               
013L5020201214000390051001000000333060495300000008500CRESCENT1 CUS0000157          02682502000390                G BAGDADI                                                                            
013L5020201214000137632005000000408004439100000008500CRESCENT1 CUS0039235          02682502000137                Y MOTARA                                                                             
013L5020201214000464800000000000100725262100000007500CRESCENT1 CUS0055687          02682502000464                A WILLIAMS                                                                           
013L5020201214000942250655000006277596098500000000000CRESCENT1 CUS0057577          89981059000942                W DAMON                                                                              
013L5020201214000646250655000000623446672600000008500CRESCENT1 CUS0026487          02682502000646                A NGWABENI                                                                           
013L5020201214000052632005000000432557004100000008500CRESCENT1 CUS0038710          02683002000052                R MOHAMMED                                                                           
013L5020201214000346470010000000133645700500000000000CRESCENT1 CUS0055043          89981059000346                K MACKAY                                                                             
013L5020201214000587250655000006216647202500000008500CRESCENT1 CUS0042928          02682502000587                S AMOD                                                                               
013L5020201214000175632005000000408482726800000008500CRESCENT1 CUS0058994          02683002000175                R REDCLIFFE                                                                          
013L5020201214001012051001000000000724555100000008500CRESCENT1 CUS0057943          02682502001012                S BENJAMIN                                                                           
014L0000000200000000000000003606658645980000000010750000000000000000                                                                                                                                  
019L0000000210000000000000003707217515020000000011600000000000000000                                                                                                                                  
999L000000029                                                                                                                                                                                         
