000L2020122200000PAYPORT CONSULTING PTY LTD EFT000055307303                                                                                                                                           
010LD237000005801                                                                                                                                                                                     
011LD23763200500000040945448920120201215                                                                                                                                                              
013L5020201214000054470010000000153534780300000008500CRESCENT1 CUS0053077          03000000000000                K BRINK                                                                              
013L5020201214000525632005000000910839144100000008500CRESCENT1 CUS0002240          03492801000525                M EBRAHIM                                                                            
014L0000000020000000000000000106437392440000000001700000000000000000                                                                                                                                  
011LD23763200500000040945448920120201219                                                                                                                                                              
013L5020201218000288470010000000141212885200000008500CRESCENT1 CUS0054584          00200000000000                D EBRAHIM                                                                            
013L5020201218001267051001000000027215207200000007500CRESCENT1 CUS0041007          00200000000000                T SALIE                                                                              
013L5020201218000641470010000000125999853100000016000CRESCENT1 CUS0055252          00200000000000                A CAMROODIEN                                                                         
013L5020201218000705470010000000131798787800000008500CRESCENT1 CUS0058298          00200000000000                M SHADE                                                                              
013L5020201218001387470010000000139539213500000008500CRESCENT1 CUS0056763          00200000000000                N ABRAHAMS                                                                           
013L5020201218002257051001000001006854964200000008500CRESCENT1 CUS0057564          00200000000000                W WILLIAMS                                                                           
013L5020201218002309051001000000002084958300000016000CRESCENT1 CUS0003965          00600000000000                A SAYED                                                                              
013L5020201218000262051001000000002230449500000008500CRESCENT1 CUS0017615          00200000000000                F FAKIR                                                                              
013L5020201218001756051001000001010318161800000008500CRESCENT1 CUS0052510          00200000000000                W SIMONS                                                                             
013L5020201218002375470010000000140088125900000008500CRESCENT1 CUS0048488          00200000000000                T HEYNS                                                                              
013L5020201218001768470010000000134019853100000008500CRESCENT1 CUS0059036          00200000000000                N SABLES                                                                             
013L5020201218001135470010000000129017151100000008500CRESCENT1 CUS0050149          00200000000000                N TOFFIE                                                                             
013L5020201218000848462005000001649973030100000008500CRESCENT1 CUS0055696          00200000000000                R HENDRICKS                                                                          
013L5020201218002288470010000000160645012100000008500CRESCENT1 CUS0059239          03400000000000                Z PETERSEN                                                                           
013L5020201218000162470010000000160976219100000008500CRESCENT1 CUS0017189          00200000000000                A KARRIM                                                                             
013L5020201218001918470010000000143272716600000008500CRESCENT1 CUS0059137          00200000000000                N DAMON                                                                              
013L5020201218000439470010000000144449809400000008500CRESCENT1 CUS0059441          00200000000000                I CASPER                                                                             
013L5020201218001986470010000000152817325000000007500CRESCENT1 CUS0052890          00200000000000                S AJOUHAAR                                                                           
013L5020201218000030462005000001851822830100000008500CRESCENT1 CUS0059347          00200000000000                T SAFTER                                                                             
013L5020201218000299051001000000027291633100000008500CRESCENT1 CUS0058076          00200000000000                R MAJIET                                                                             
013L5020201218000846051001000000027333814500000008500CRESCENT1 CUS0045495          00400000000000                F HOOSEN                                                                             
013L5020201218001013051001000000006018977000000008500CRESCENT1 CUS0021112          00200000000000                N ASMAL                                                                              
013L5020201218001556470010000000134597356800000008500CRESCENT1 CUS0051856          00200000000000                Y GALANT                                                                             
013L5020201218001767470010000000140216370100000008500CRESCENT1 CUS0057166          00200000000000                Q TAPE                                                                               
013L5020201218001746470010000000140361718800000008500CRESCENT1 CUS0052508          00200000000000                T MEYERS                                                                             
013L5020201218002275051001000000001238600600000007500CRESCENT1 CUS0048315          00200000000000                M MOHAMED                                                                            
013L5020201218002052051001000000024201843200000007500CRESCENT1 CUS0031777          00400000000000                N MOTALA                                                                             
013L5020201218002191051001000000025182447000000016000CRESCENT1 CUS0025220          00400000000000                A HASSAN                                                                             
013L5020201218001567051001000000002335617000000008500CRESCENT1 CUS0056868          00400000000000                F SEEDAT                                                                             
013L5020201218001308051001000000001238600600000008500CRESCENT1 CUS0011106          00200000000000                B MOHAMED                                                                            
013L5020201218000768470010000000140159907700000008500CRESCENT1 CUS0058319          03400000000000                M ISAACS                                                                             
013L5020201218000551470010000000135103989800000008500CRESCENT1 CUS0018643          00200000000000                M KADER                                                                              
013L5020201218002378470010000000121684884800000008500CRESCENT1 CUS0059269          00200000000000                M JACOBS                                                                             
013L5020201218000477470010000000131027229600000008500CRESCENT1 CUS0054793          00200000000000                A MOOSA                                                                              
013L5020201218000721470010000000119315619800000016000CRESCENT1 CUS0049621          00200000000000                N LENNOX                                                                             
013L5020201218000317051001000001004698420600000008500CRESCENT1 CUS0048982          01200000000000                I HOFFAH                                                                             
013L5020201218000990051001000001001317900200000007500CRESCENT1 CUS0045745          00200000000000                K DEVAJEE                                                                            
013L5020201218001002051001000000062423697800000008500CRESCENT1 CUS0058471          00200000000000                N DUTOIT                                                                             
013L5020201218000984470010000000129676000400000008500CRESCENT1 CUS0058401          00200000000000                F ISAACS                                                                             
013L5020201218001866470010000000124282933200000008500CRESCENT1 CUS0052604          00200000000000                S SEBOA                                                                              
013L5020201218000993470010000000153280595900000008500CRESCENT1 CUS0058465          00200000000000                F JONES                                                                              
013L5020201218000248470010000000155097651400000008500CRESCENT1 CUS0054472          00200000000000                S BEN                                                                                
013L5020201218002025470010000000145622843700000008500CRESCENT1 CUS0047989          00200000000000                R VAN NIEKERK                                                                        
013L5020201218001386470010000000147582654900000008500CRESCENT1 CUS0050925          00200000000000                R NAIDOO                                                                             
013L5020201218000649470010000000140226232700000008500CRESCENT1 CUS0049498          00200000000000                R FRANCIS                                                                            
013L5020201218001141051001000000007030836500000016000CRESCENT1 CUS0035166          00200000000000                R SAMAAI                                                                             
013L5020201218000913051001000000003028949100000008500CRESCENT1 CUS0008847          00200000000000                G SHAAH                                                                              
013L5020201218001480051001000000040141810300000016000CRESCENT1 CUS0012051          00200000000000                S DICKINSON                                                                          
013L5020201218001621051001000000000250966000000016000CRESCENT1 CUS0024071          00600000000000                N SALIE                                                                              
013L5020201218001982051001000000003898828300000008500CRESCENT1 CUS0031663          00600000000000                N ALLY                                                                               
013L5020201218002439051001000000063456605900000016000CRESCENT1 CUS0004285          00200000000000                L KARA                                                                               
013L5020201218001655470010000000126830893300000016000CRESCENT1 CUS0047292          00200000000000                G JANSEN                                                                             
013L5020201218001128470010000000128029374600000008500CRESCENT1 CUS0058646          00200000000000                L WIESE                                                                              
013L5020201218000108470010000000147468714600000008500CRESCENT1 CUS0053962          00200000000000                I AMEERODIEN                                                                         
013L5020201218000319470010000000154558816100000008500CRESCENT1 CUS0058079          00200000000000                L ADAMS                                                                              
013L5020201218000410470010000000160347584000000008500CRESCENT1 CUS0059436          00200000000000                S MADATT                                                                             
013L5020201218001667470010000000159026075700000008500CRESCENT1 CUS0056955          00200000000000                Z KARRIEM                                                                            
013L5020201218002228470010000000170553341600000008500CRESCENT1 CUS0059219          00200000000000                F EBRAHIEM                                                                           
013L5020201218001688470010000000163967427400000008500CRESCENT1 CUS0058996          00200000000000                K MAIN                                                                               
013L5020201218002186470010000000134038203000000008500CRESCENT1 CUS0053240          00200000000000                J JACOBS                                                                             
013L5020201218001707470010000000116513618800000007500CRESCENT1 CUS0057005          00200000000000                Y MAJIET                                                                             
013L5020201218001415462005000000933135230100000008500CRESCENT1 CUS0058773          00200000000000                A POOLE                                                                              
013L5020201218000840051001000000007782882800000008500CRESCENT1 CUS0058340          00200000000000                N STANFIELD                                                                          
013L5020201218001926051001000000007159837500000008500CRESCENT1 CUS0052723          00200000000000                O KHAN                                                                               
013L5020201218002346051001000001010741466800000008500CRESCENT1 CUS0053565          01200000000000                M DAVIS                                                                              
013L5020201218002106051001000000007136144800000007500CRESCENT1 CUS0053185          00200000000000                F ABDEROEF                                                                           
013L5020201218001001051001000000007425741200000016000CRESCENT1 CUS0056014          00200000000000                L CORNELIUS                                                                          
013L5020201218002260051001000000040224874000000016000CRESCENT1 CUS0015862          00400000000000                C MOERAT                                                                             
013L5020201218001349051001000000027737504500000008500CRESCENT1 CUS0046606          00200000000000                B HENDRICKS                                                                          
013L5020201218002147470010000000158476727600000008500CRESCENT1 CUS0057480          00200000000000                K RHODA                                                                              
013L5020201218000080470010000000160143172200000008500CRESCENT1 CUS0059359          00200000000000                G HANSEN                                                                             
013L5020201218000962470010000000147831348800000007500CRESCENT1 CUS0040252          00200000000000                S CRAIG                                                                              
013L5020201218002322470010000000144465467300000008500CRESCENT1 CUS0032308          00200000000000                B MAHOMED                                                                            
013L5020201218000068470010000000155341367700000016000CRESCENT1 CUS0053922          00200000000000                I NORTON                                                                             
013L5020201218001359051001000000006301327400000008500CRESCENT1 CUS0050906          00200000000000                I JANUARY                                                                            
013L5020201218000933051001000000000070516000000031000CRESCENT1 CUS0027974          00200000000000                H JUMA                                                                               
013L5020201218000338470010000000116770902900000008500CRESCENT1 CUS0054640          00200000000000                K ABRAHAMS                                                                           
013L5020201218001946470010000000138365921200000008500CRESCENT1 CUS0052820          00200000000000                T BOOYSEN                                                                            
013L5020201218000060470010000000129404947800000008500CRESCENT1 CUS0059357          00200000000000                S KUMARDATTA                                                                         
013L5020201218001997470010000000128873333800000016000CRESCENT1 CUS0057354          03000000000000                G SEPTEMBER                                                                          
013L5020201218001019632005000000408405406700000006900CRESCENT1 CUS0056046          00292803001019                F OTTO                                                                               
013L5020201218002049051001000000020379001400000008500CRESCENT1 CUS0002844          00200000000000                J UNWARSA                                                                            
013L5020201218001020051001000001011722140400000008500CRESCENT1 CUS0058474          00200000000000                A PETERSEN                                                                           
013L5020201218000744051001000000014400273600000006900CRESCENT1 CUS0027272          00200000000000                D ALEXANDER                                                                          
013L5020201218001977470010000000161339970500000008500CRESCENT1 CUS0057336          00200000000000                T ADAMS                                                                              
013L5020201218001449470010000000146210106000000008500CRESCENT1 CUS0051417          00200000000000                J JACOBS                                                                             
013L5020201218000390470010000000124137979100000008500CRESCENT1 CUS0059434          00200000000000                S MAHOMED                                                                            
013L5020201218001450470010000000134092509300000008500CRESCENT1 CUS0056807          00200000000000                I ABADER                                                                             
013L5020201218001248470010000000135372208000000008500CRESCENT1 CUS0035265          00200000000000                F AHMAD                                                                              
013L5020201218001210462005000002049580400100000016000CRESCENT1 CUS0010430          00200000000000                S MAHOMED                                                                            
013L5020201218000711051001000000035517983000000015000CRESCENT1 CUS0045143          00200000000000                A KOLIA                                                                              
013L5020201218000507051001000000006188199600000016000CRESCENT1 CUS0054818          00400000000000                I BENNETT                                                                            
013L5020201218000603462005000000860346430100000008500CRESCENT1 CUS0044939          00200000000000                S YOUNGER                                                                            
013L5020201218001243470010000000138042135500000008500CRESCENT1 CUS0056559          03000000000000                A AHMED                                                                              
013L5020201218000146470010000000119508375900000008500CRESCENT1 CUS0043962          00200000000000                N JONES                                                                              
013L5020201218002277470010000000153203573800000008500CRESCENT1 CUS0057643          00200000000000                J ABDURAGHMAN                                                                        
013L5020201218001628470010000000163427172400000016000CRESCENT1 CUS0058928          00200000000000                M ISAACS                                                                             
013L5020201218002140051001000000020258071700000016000CRESCENT1 CUS0015416          00400000000000                S EVANS                                                                              
013L5020201218001422051001000001008457090100000008500CRESCENT1 CUS0051128          00200000000000                S GEORGE                                                                             
013L5020201218002148470010000000165092031600000008500CRESCENT1 CUS0059203          00200000000000                N HAMDULAY                                                                           
013L5020201218000831470010000000166993131300000008500CRESCENT1 CUS0058338          00200000000000                E ANDREWS                                                                            
013L5020201218002165470010000000147463867600000016000CRESCENT1 CUS0048178          00200000000000                M ISAACS                                                                             
013L5020201218001285470010000000145247771800000008500CRESCENT1 CUS0041026          00200000000000                G OSMAN                                                                              
013L5020201218000812470010000000133933559800000008500CRESCENT1 CUS0055652          00200000000000                R KASSIEM                                                                            
013L5020201218002356470010000000112171591300000015000CRESCENT1 CUS0053585          00200000000000                G BELL                                                                               
013L5020201218002047470010000000113014848100000007500CRESCENT1 CUS0057415          00200000000000                R SALIE                                                                              
013L5020201218000388051001000000037385419600000008500CRESCENT1 CUS0054695          00200000000000                F CAIRNCROSS                                                                         
013L5020201218000373051001000000002900934000000008500CRESCENT1 CUS0026605          00200000000000                N KHUMALO                                                                            
013L5020201218000074470010000000118290162800000008500CRESCENT1 CUS0032996          00200000000000                A LOUW                                                                               
013L5020201218001297462005000000732375130100000008500CRESCENT1 CUS0056622          00200000000000                Y ABDULLAH                                                                           
013L5020201218001353470010000000134000238600000017000CRESCENT1 CUS0011265          00200000000000                M MOOSA                                                                              
013L5020201218000239470010000000133460882000000008500CRESCENT1 CUS0058018          00200000000000                R AMOD                                                                               
013L5020201218001687470010000000162049810100000008500CRESCENT1 CUS0056964          00200000000000                M RHODE                                                                              
013L5020201218000729051001000001010113671200000008500CRESCENT1 CUS0045199          00200000000000                N MASIBUKO                                                                           
013L5020201218000776051001000001008093039300000007500CRESCENT1 CUS0055589          00200000000000                D ADAMS                                                                              
013L5020201218001514051001000000020110268400000008500CRESCENT1 CUS0041497          00200000000000                Z MEYERS                                                                             
013L5020201218002059051001000000020379001400000022500CRESCENT1 CUS0002845          00200000000000                A JOSEPH                                                                             
013L5020201218001361470010000000170027716000000008500CRESCENT1 CUS0058754          00200000000000                D PILLAY                                                                             
013L5020201218001047470010000000137508528800000006900CRESCENT1 CUS0058483          01200000000000                M TOFA                                                                               
013L5020201218000723470010000000138466559300000008500CRESCENT1 CUS0058300          00200000000000                M SALIE                                                                              
013L5020201218002268470010000000116236995500000008500CRESCENT1 CUS0059233          00200000000000                M SOLOMONS                                                                           
013L5020201218000088470010000000118969076200000008500CRESCENT1 CUS0053930          00200000000000                I RAYEPEN-ESS                                                                        
013L5020201218001342470010000000116621497200000008500CRESCENT1 CUS0056710          00200000000000                M MENTOR                                                                             
013L5020201218002265051001000000007258803900000016000CRESCENT1 CUS0048311          00600000000000                F ASOUHAAR EBRAHIM                                                                   
013L5020201218002319051001000000062513055300000016000CRESCENT1 CUS0003976          00200000000000                R GANGAT                                                                             
013L5020201218000448470010000000130846348900000008500CRESCENT1 CUS0058123          00200000000000                S JACOBS                                                                             
013L5020201218001625470010000000126898482300000007500CRESCENT1 CUS0047255          00200000000000                Z HARDIEN                                                                            
013L5020201218001828470010000000171201236100000008500CRESCENT1 CUS0059050          00200000000000                J MOSES                                                                              
013L5020201218001988470010000000159030660900000008500CRESCENT1 CUS0059161          00200000000000                R AUGUST                                                                             
013L5020201218002458470010000000153356471800000008500CRESCENT1 CUS0059330          00200000000000                K BARTHUS                                                                            
013L5020201218001190051001000001003962260400000008500CRESCENT1 CUS0056510          00200000000000                N MAHABEER                                                                           
013L5020201218002311051001000000002170884300000016000CRESCENT1 CUS0025513          00200000000000                A MOHAMED                                                                            
013L5020201218002032051001000000016757558900000008500CRESCENT1 CUS0031719          00200000000000                H SHERIFF                                                                            
013L5020201218001488470010000000162891710300000008500CRESCENT1 CUS0058863          00200000000000                M QANGULE                                                                            
013L5020201218001697632005000000928077357900000008500CRESCENT1 CUS0056989          00292803001697                I WILLIAMS                                                                           
013L5020201218001538470010000000139928533300000016000CRESCENT1 CUS0058875          00200000000000                F SHAIK                                                                              
013L5020201218001876470010000000136572015000000008500CRESCENT1 CUS0052619          00200000000000                R CHARLES                                                                            
013L5020201218002218462005000000756448130100000008500CRESCENT1 CUS0059216          01200000000000                W DAVIDS                                                                             
013L5020201218002272470010000000118630422500000008500CRESCENT1 CUS0032236          03400000000000                S MOOLA                                                                              
013L5020201218002238051001000000007121054700000008500CRESCENT1 CUS0059220          00200000000000                R ADAMS                                                                              
013L5020201218001496051001000000004169717000000008500CRESCENT1 CUS0051573          00200000000000                E OLIPHANT                                                                           
013L5020201218000280470010000000137705706000000008500CRESCENT1 CUS0059415          00200000000000                R SEDICK                                                                             
013L5020201218000354470010000000122672039900000013800CRESCENT1 CUS0033460          00200000000000                A ISMAIL                                                                             
013L5020201218001827470010000000156508818000000008500CRESCENT1 CUS0057227          00200000000000                A ABRAHAMS                                                                           
013L5020201218001065470010000000149913312800000008500CRESCENT1 CUS0058492          00200000000000                F DE JAGER                                                                           
013L5020201218001179051001000000020173922400000008500CRESCENT1 CUS0046212          00200000000000                W DOMINGO                                                                            
013L5020201218002252051001000000018416464800000016000CRESCENT1 CUS0032224          00200000000000                J KHAN                                                                               
013L5020201218000467051001000000027210533300000008500CRESCENT1 CUS0054792          00400000000000                M ADHKARIE                                                                           
013L5020201218001976051001000001008086841800000008500CRESCENT1 CUS0052878          00200000000000                S PILLAY                                                                             
013L5020201218000260051001000001008616458700000016000CRESCENT1 CUS0059410          00200000000000                M SATTAR                                                                             
013L5020201218001637470010000000151116023100000008500CRESCENT1 CUS0056938          00200000000000                L SAMPSON                                                                            
013L5020201218000618470010000000119827773200000008500CRESCENT1 CUS0027003          00200000000000                S JARODIEN                                                                           
013L5020201218001118470010000000132901899900000008500CRESCENT1 CUS0056292          00600000000000                A HAYWOOD                                                                            
013L5020201218000587470010000000133943056600000008500CRESCENT1 CUS0054978          03000000000000                M SAVAHL                                                                             
013L5020201218002185470010000000136615702600000016000CRESCENT1 CUS0048185          00200000000000                K JACOBS                                                                             
013L5020201218002456470010000000141023947900000007500CRESCENT1 CUS0053735          03600000000000                M MOHAMED                                                                            
013L5020201218001400051001000000042087832700000008500CRESCENT1 CUS0030369          00200000000000                B OMARJEE                                                                            
013L5020201218001158051001000000040681928900000015000CRESCENT1 CUS0029068          00200000000000                A KOMANE                                                                             
013L5020201218000669470010000000140695686200000008500CRESCENT1 CUS0058274          00600000000000                N LIWIN                                                                              
013L5020201218000966470010000000140441318700000008500CRESCENT1 CUS0058397          00200000000000                E ESTERHUIZEN                                                                        
013L5020201218001253470010000000135867418100000008500CRESCENT1 CUS0058674          00200000000000                F JEFTA                                                                              
013L5020201218000429470010000000134413326400000008500CRESCENT1 CUS0058117          00200000000000                F ADAMS                                                                              
013L5020201218000722470010000000134562561600000008500CRESCENT1 CUS0055476          00200000000000                T JOHNSON                                                                            
013L5020201218002366470010000000133742118700000008500CRESCENT1 CUS0053587          00200000000000                S ABRAHAMS                                                                           
013L5020201218000939470010000000121258394700000008500CRESCENT1 CUS0058394          00200000000000                S CECILS                                                                             
013L5020201218002216470010000000148564733700000008500CRESCENT1 CUS0053264          00200000000000                K ABRAHAMS                                                                           
013L5020201218001010051001000001008378742700000008500CRESCENT1 CUS0056024          00200000000000                F DAVIDS                                                                             
013L5020201218001955051001000000027117887600000008500CRESCENT1 CUS0047828          00200000000000                S ARIEFDIEN                                                                          
013L5020201218002012051001000000025546595500000008500CRESCENT1 CUS0031676          00200000000000                H DADA                                                                               
013L5020201218000188051001000000000151561600000008500CRESCENT1 CUS0054379          00200000000000                C LEDIC                                                                              
013L5020201218000642051001000001012771163300000008500CRESCENT1 CUS0058268          00200000000000                S DAVIDS                                                                             
013L5020201218001944051001000001012917853300000008500CRESCENT1 CUS0042631          00200000000000                A SONDAY                                                                             
013L5020201218002418470010000000145473146800000008500CRESCENT1 CUS0059311          00200000000000                M SOLOMONS                                                                           
013L5020201218000904051001000000030063503600000016000CRESCENT1 CUS0008762          00200000000000                M GASANT                                                                             
013L5020201218001662051001000000005206100000000008500CRESCENT1 CUS0030994          00200000000000                M HASSEN                                                                             
013L5020201218000549470010000000113132492500000008500CRESCENT1 CUS0059460          00200000000000                S MOLTIE                                                                             
013L5020201218001528470010000000133733886700000007500CRESCENT1 CUS0058873          00200000000000                M DAVIDS                                                                             
013L5020201218002287470010000000136114514300000008500CRESCENT1 CUS0057670          00600000000000                S ADAMS                                                                              
013L5020201218002018470010000000138131509500000008500CRESCENT1 CUS0059175          00600000000000                A TAQODIEN                                                                           
013L5020201218002227470010000000152409062800000008500CRESCENT1 CUS0057504          00200000000000                N BASSIER                                                                            
013L5020201218001868470010000000169270667300000008500CRESCENT1 CUS0059067          00200000000000                W JACOBS                                                                             
013L5020201218002104051001000000016395093800000008500CRESCENT1 CUS0043041          00200000000000                S KIKIA                                                                              
013L5020201218000813051001000000020307983300000008500CRESCENT1 CUS0058331          00400000000000                R HERCULES                                                                           
013L5020201218000018051001000001008244735500000008500CRESCENT1 CUS0053791          00200000000000                M PARKER                                                                             
013L5020201218002435051001000001007577797300000008500CRESCENT1 CUS0048575          00200000000000                R DANIELS                                                                            
013L5020201218001922470010000000169689805400000008500CRESCENT1 CUS0031522          00200000000000                L MAKHANYA                                                                           
013L5020201218000139470010000000163178035000000008500CRESCENT1 CUS0057924          00200000000000                S HENDRICKS                                                                          
013L5020201218000948470010000000160400819700000008500CRESCENT1 CUS0058395          00200000000000                A DAMONS                                                                             
013L5020201218000741470010000000142024362200000008500CRESCENT1 CUS0058312          00200000000000                Z PARKER                                                                             
013L5020201218001738470010000000132728703800000008500CRESCENT1 CUS0059029          00200000000000                N JOHANNES                                                                           
013L5020201218002098470010000000126606138800000008500CRESCENT1 CUS0059192          00200000000000                M SEDICK                                                                             
013L5020201218002348470010000000113436565700000008500CRESCENT1 CUS0059254          00200000000000                B WILKINSON                                                                          
013L5020201218001716462005000000817241230100000008500CRESCENT1 CUS0052428          00200000000000                F APPELS                                                                             
013L5020201218001555250655000007456488551300000008500CRESCENT1 CUS0047042          02600000000000                F COMROODIEN                                                                         
013L5020201218001037051001000000027290510000000014400CRESCENT1 CUS0056125          00200000000000                N KROTZ                                                                              
013L5020201218000348051001000000007278954900000008500CRESCENT1 CUS0054643          00200000000000                E SLAMDIEN                                                                           
013L5020201218000229470010000000116728145200000008500CRESCENT1 CUS0057992          00200000000000                A DAVIDS                                                                             
013L5020201218001164470010000000123767163700000008500CRESCENT1 CUS0058650          01200000000000                S PHILANDER                                                                          
013L5020201218001577470010000000159258334000000008500CRESCENT1 CUS0056871          00200000000000                K GROENEWALD                                                                         
013L5020201218000206470010000000172982225600000008500CRESCENT1 CUS0044053          00200000000000                R WILLIAMS                                                                           
013L5020201218001860470010000000141272098000000016000CRESCENT1 CUS0014612          00200000000000                B MOHAMMED                                                                           
013L5020201218000026470010000000152270973600000006900CRESCENT1 CUS0043785          00200000000000                S BOWES                                                                              
013L5020201218000852470010000000121353539300000008500CRESCENT1 CUS0027766          00200000000000                M MOSES                                                                              
013L5020201218002178470010000000125410485000000008500CRESCENT1 CUS0059208          00200000000000                Z WAGGIE                                                                             
013L5020201218000706470010000000139672365800000016000CRESCENT1 CUS0007425          00200000000000                F FAKIER                                                                             
013L5020201218001737051001000000027216185300000008500CRESCENT1 CUS0057053          00200000000000                M CARELSE                                                                            
013L5020201218001054051001000000000487063800000008500CRESCENT1 CUS0050013          00400000000000                Z ABDOOL                                                                             
013L5020201218000118051001000000002118174800000008500CRESCENT1 CUS0054131          00400000000000                N KATER                                                                              
013L5020201218000581051001000000033059508300000016000CRESCENT1 CUS0018878          00300000000000                S VANIA                                                                              
013L5020201218001727470010000000145995863000000016000CRESCENT1 CUS0057051          00200000000000                F DARRIES                                                                            
013L5020201218002347470010000000141821807100000008500CRESCENT1 CUS0057737          00200000000000                M RAILOUN                                                                            
013L5020201218001052470010000000158437703600000016000CRESCENT1 CUS0040617          00200000000000                M PARTON                                                                             
013L5020201218000870051001000000027275582600000008500CRESCENT1 CUS0027823          00400000000000                M ABBAS                                                                              
013L5020201218000819051001000000007125737300000008500CRESCENT1 CUS0045355          00200000000000                M VALLIE                                                                             
013L5020201218000158470010000000138780773900000008500CRESCENT1 CUS0054241          00200000000000                B SICKLES                                                                            
013L5020201218000855470010000000140456947000000016000CRESCENT1 CUS0045507          00200000000000                R LEEMAN                                                                             
013L5020201218001008470010000000126262988600000008500CRESCENT1 CUS0045823          00200000000000                S OMAR                                                                               
013L5020201218001468470010000000129902147400000007500CRESCENT1 CUS0056814          00200000000000                I DE KLERK                                                                           
013L5020201218001841051001000000020593737300000008500CRESCENT1 CUS0024664          00200000000000                N BOWERS                                                                             
013L5020201218001046051001000000027032580800000008500CRESCENT1 CUS0056165          00200000000000                A WAGGIE                                                                             
013L5020201218001956051001000001003690558300000008500CRESCENT1 CUS0052837          00200000000000                S DANIELS                                                                            
013L5020201218000750051001000001011304890200000008500CRESCENT1 CUS0058315          00200000000000                A BLAAUW                                                                             
013L5020201218000259470010000000134087691200000008500CRESCENT1 CUS0058052          03400000000000                I ELY                                                                                
013L5020201218001106051001000000007283396300000008500CRESCENT1 CUS0040709          00200000000000                R DARRIES                                                                            
013L5020201218000168051001000000028228738800000008500CRESCENT1 CUS0054284          00200000000000                Z BRINKHUIS                                                                          
013L5020201218000017051001000000007001013700000016000CRESCENT1 CUS0048629          00600000000000                M COZYN                                                                              
013L5020201218000169470010000000159578704400000008500CRESCENT1 CUS0057941          00200000000000                C VAN DALEN                                                                          
013L5020201218000578470010000000144910221000000008500CRESCENT1 CUS0058214          00200000000000                M JAFTHA                                                                             
013L5020201218000355470010000000154752393800000016000CRESCENT1 CUS0038921          00200000000000                A KALEB                                                                              
013L5020201218001433470010000000166890462200000008500CRESCENT1 CUS0058798          00200000000000                M ADAMS                                                                              
013L5020201218000835470010000000112709081800000008500CRESCENT1 CUS0034121          00200000000000                J STRAUSS                                                                            
013L5020201218000397051001000000007057272000000008500CRESCENT1 CUS0049085          00200000000000                M SMITH ABRAHAMS                                                                     
013L5020201218000902470010000000138694103200000008500CRESCENT1 CUS0055765          00200000000000                T HAMIED                                                                             
013L5020201218001668470010000000155681820100000008500CRESCENT1 CUS0058968          00200000000000                S SALLIE                                                                             
013L5020201218000689051001000000020418233600000008500CRESCENT1 CUS0019675          00400000000000                N OSMAN                                                                              
014L0000002350000000000000005810964082330000000230780000000000000000                                                                                                                                  
019L0000002370000000000000005917401474770000000232480000000000000000                                                                                                                                  
999L000000245                                                                                                                                                                                         
