000L2021013100000PAYPORT CONSULTING PTY LTD EFT000061107303                                                                                                                                           
010LD237000009601                                                                                                                                                                                     
011LD23763200500000040945448920120210116                                                                                                                                                              
013L5020210115001230470010000000116499586100000008500CRESCENT1 CUS0057647          03000000000000                M ISAACS                                                                             
014L0000000010000000000000000011649958610000000000850000000000000000                                                                                                                                  
011LD23763200500000040945448920120210121                                                                                                                                                              
013L5020210120000398198765000000110764210800000016000CRESCENT1 CUS0029044          03000000000000                A RAZAK                                                                              
014L0000000010000000000000000011076421080000000001600000000000000000                                                                                                                                  
011LD23763200500000040945448920120210125                                                                                                                                                              
013L5020210123000082198765000000114701886300000016000CRESCENT1 CUS0033895          03000000000000                J HILL                                                                               
014L0000000010000000000000000011470188630000000001600000000000000000                                                                                                                                  
011LD23763200500000040945448920120210130                                                                                                                                                              
013L5020210129001486580105000001001163485900000008500CRESCENT1 CUS0045674          01200000000000                N ADAM                                                                               
013L5020210129000235632005000000912979530100000008500CRESCENT1 CUS0037369          00200016000235                A DAVIDS                                                                             
013L5020210129001470632005000000908816156800000008500CRESCENT1 CUS0055737          00200016001470                T TOFIE                                                                              
013L5020210129000097632005000000408305943000000008500CRESCENT1 CUS0048042          90300000000097                R WILLIAMS                                                                           
013L5020210129000130632005000000409784700100000008500CRESCENT1 CUS0059202          00300000000130                A BUSCH                                                                              
013L5020210129002414632005000000934716316000000008500CRESCENT1 CUS0057240          00200016002414                S HERBERT                                                                            
013L5020210129002439632005000000905134146800000008500CRESCENT1 CUS0031526          01200012002439                M ADAM                                                                               
013L5020210129000418632005000000911926373400000008500CRESCENT1 CUS0053558          00200016000418                T DE VILLIERS                                                                        
013L5020210129002451632005000000924539399400000008500CRESCENT1 CUS0042569          00200016002451                I SALEH                                                                              
013L5020210129002235632005000000929980862400000008500CRESCENT1 CUS0059027          00300040002235                H HEBERT                                                                             
013L5020210129000909632005000000920897821800000008500CRESCENT1 CUS0058116          00200016000909                Z EDRIES                                                                             
013L5020210129000645632005000000921062929700000008500CRESCENT1 CUS0038424          00492802000645                U YUNUS                                                                              
013L5020210129001208632005000000931333980400000008500CRESCENT1 CUS0055159          00300000001208                F BAATJIES                                                                           
013L5020210129000728632005000000408034279700000008500CRESCENT1 CUS0054224          00300000000728                O SOLOMONS                                                                           
013L5020210129000588632005000000408009510000000008500CRESCENT1 CUS0053809          01800000000588                R KHAN                                                                               
013L5020210129002447632005000000407113269600000016000CRESCENT1 CUS0014924          01800000002447                A PANDOR                                                                             
013L5020210129000283632005000000929767930800000008500CRESCENT1 CUS0025266          00200016000283                B GOONDIE                                                                            
013L5020210129002092632005000000406737835300000008500CRESCENT1 CUS0047067          00300000002092                S JADWAT                                                                             
013L5020210129000506632005000000406137037500000008500CRESCENT1 CUS0043615          01800000000506                M DOLLEY                                                                             
013L5020210129000257632005000000904507000500000007500CRESCENT1 CUS0048221          01800000000257                A BOOMGAARD                                                                          
013L5020210129001183632005000000405828551100000007500CRESCENT1 CUS0027039          01200000001183                Z BHAROOCHI                                                                          
013L5020210129000396632005000000931493424700000016000CRESCENT1 CUS0043475          00200016000396                N DAVIDS                                                                             
013L5020210129001907632005000000917181463000000008500CRESCENT1 CUS0035710          00200016001907                Q DHARSEY                                                                            
013L5020210129001120632005000000920031503400000008500CRESCENT1 CUS0059534          00300040001120                I SONDAY                                                                             
013L5020210129000930632005000000911948102500000008500CRESCENT1 CUS0059449          00200016000930                G GANIEF                                                                             
013L5020210129000664632005000000920979646300000016000CRESCENT1 CUS0033149          00200016000664                A ABRAMS                                                                             
013L5020210129001273632005000000920601414300000016000CRESCENT1 CUS0027300          00300000001273                R THEYS                                                                              
013L5020210129002084632005000005301456356400000008500CRESCENT1 CUS0056847          00200016002084                R VANDERSART                                                                         
013L5020210129001338632005000000905065444800000016000CRESCENT1 CUS0020308          00200016001338                H LILLAH                                                                             
013L5020210129001481632005000000407352949100000008500CRESCENT1 CUS0009056          01200000001481                S KHAN                                                                               
013L5020210129000304632005000000907364177100000008500CRESCENT1 CUS0032228          01800004000304                I ABDOOL                                                                             
013L5020210129000188632005000000408788313200000008500CRESCENT1 CUS0053188          01200000000188                A MOOSA                                                                              
013L5020210129000844632005000000405273960300000008500CRESCENT1 CUS0033490          90300000000844                Z CHRISTIAN                                                                          
013L5020210129000158632005000000930252399900000008500CRESCENT1 CUS0053144          00300000000158                A AFZAL                                                                              
014L0000000340000000000000003008456621530000000032450000000000000000                                                                                                                                  
011LD23763200500000040945448920120210201                                                                                                                                                              
013L5020210130000046470010000000118558345900000025000ABSOLIT   1611921237RPW001    02682502000046                PRICILLA WARREN                                                                      
014L0000000010000000000000000011855834590000000002500000000000000000                                                                                                                                  
019L0000000380000000000000003054509024440000000039000000000000000000                                                                                                                                  
010LD237000009708                                                                                                                                                                                     
011LD23763200500000040945448920120210127                                                                                                                                                              
013L5020210127001472198765000000112937704000000008500CRESCENT1 CUS0059423          00200000000000                M LEEMAN                                                                             
013L5020210127002054198765000000145718537700000008500CRESCENT1 CUS0034823          00200000000000                R ABDULLAH                                                                           
013L5020210127001992198765000000191612926900000008500CRESCENT1 CUS0040773          00200000000000                C SMITH                                                                              
013L5020210127000575198765000000119099244200000016000CRESCENT1 CUS0057437          00200000000000                M BOOYSEN                                                                            
013L5020210127003401210046000006250689558300000008500CRESCENT1 CUS0052509          00200000000000                L BASSON                                                                             
013L5020210127004031250056000005886900651100000008500CRESCENT1 CUS0022496          03000000000000                C CHERRY MOHAMMED                                                                    
013L5020210127004037198765000000198107163600000008500CRESCENT1 CUS0042098          00200000000000                R JOHNSON                                                                            
013L5020210127002687198765000000200628289100000008500CRESCENT1 CUS0047265          00200000000000                F AHMED                                                                              
013L5020210127003902632005000000923270505100000008500CRESCENT1 CUS0020035          03492801003902                M VAN DER SCHYFF                                                                     
013L5020210127000744250737000006234683919700000008500CRESCENT1 CUS0039539          03400000000000                A HASSEN                                                                             
013L5020210127001831220129000006201865138200000023500CRESCENT1 CUS0037185          03600000000000                A HOOSEN                                                                             
013L5020210127003961198765000000109329556200000008500CRESCENT1 CUS0052647          00200000000000                G SMITH                                                                              
013L5020210127002111198765000000119216281100000008500CRESCENT1 CUS0058063          00200000000000                A ISAACS                                                                             
013L5020210127002892198765000000110470199500000008500CRESCENT1 CUS0058383          00200000000000                R DAVIN                                                                              
013L5020210127001776198765000000119885749800000008500CRESCENT1 CUS0059512          00200000000000                S KHAN                                                                               
013L5020210127000528198765000000125643997500000008500CRESCENT1 CUS0059241          00200000000000                W NASEER                                                                             
013L5020210127003547198765000000115225229100000008500CRESCENT1 CUS0057061          00200000000000                R MACK                                                                               
013L5020210127000340051001000000028091247100000023500CRESCENT1 CUS0026073          03000000000000                F MAMATT                                                                             
013L5020210127003016198765000000104330080500000008500CRESCENT1 CUS0050261          00200000000000                A SIMONS                                                                             
013L5020210127002921051001000000028004748700000008500CRESCENT1 CUS0052209          03400000000000                S BALENI                                                                             
014L0000000200000000000000002732571072740000000020750000000000000000                                                                                                                                  
019L0000000200000000000000002732571072740000000020750000000000000000                                                                                                                                  
999L000000076                                                                                                                                                                                         
