000L2021031000000PAYPORT CONSULTING PTY LTD EFT000066607303                                                                                                                                           
010LD237000015301                                                                                                                                                                                     
011LD23763200500000040945448920120210220                                                                                                                                                              
013L5020210219000257051001000000000901211700000031000CRESCENT1 CUS0006778          03000000000000                A MOHAMED                                                                            
014L0000000010000000000000000000090121170000000003100000000000000000                                                                                                                                  
011LD23763200500000040945448920120210225                                                                                                                                                              
013L5020210224000317470010000000118167376100000008500CRESCENT1 CUS0058416          03000000000000                A GEDULD                                                                             
014L0000000010000000000000000011816737610000000000850000000000000000                                                                                                                                  
011LD23763200500000040945448920120210227                                                                                                                                                              
013L5020210226004587470010000000161339970500000008500CRESCENT1 CUS0057336          03200000000000                T ADAMS                                                                              
013L5020210226004828470010000000144049287300000008500CRESCENT1 CUS0058681          03200000000000                F DANGOR                                                                             
013L5020210226005323198765000000106993703700000008500CRESCENT1 CUS0047806          03000000000000                S MABUSE                                                                             
014L0000000030000000000000000041238296150000000002550000000000000000                                                                                                                                  
019L0000000050000000000000000053145154930000000006500000000000000000                                                                                                                                  
999L000000015                                                                                                                                                                                         
