000L2021031300000PAYPORT CONSULTING PTY LTD EFT000067007303                                                                                                                                           
010LD237000015601                                                                                                                                                                                     
011LD23763200500000040945448920120210227                                                                                                                                                              
013L5020210226004178051001000000004297116000000008500CRESCENT1 CUS0058462          03000000000000                D NAICKER                                                                            
013L5020210226004926470010000000150218702500000008500CRESCENT1 CUS0055026          03200000000000                Y WILLIAMS                                                                           
014L0000000020000000000000000015451581850000000001700000000000000000                                                                                                                                  
019L0000000020000000000000000015451581850000000001700000000000000000                                                                                                                                  
999L000000008                                                                                                                                                                                         
