000L2021060300000PAYPORT CONSULTING PTY LTD EFT000079607303                                                                                                                                           
010LD237000023101                                                                                                                                                                                     
011LD23763200500000040945448920120210424                                                                                                                                                              
013L5020210423000692198765000000116412650400000008500CRESCENT1 CUS0025175          03000000000000                JOHANSEN SODOMS                                                                      
013L5020210423000806632005000000934053302300000008500CRESCENT1 CUS0032077          03492801000806                R BENNET                                                                             
014L0000000020000000000000000105046595270000000001700000000000000000                                                                                                                                  
011LD23763200500000040945448920120210430                                                                                                                                                              
013L5020210429000404198765000000113029555900000008500CRESCENT1 CUS0048732          03000000000000                B KETI                                                                               
013L5020210429002300051001000000027117887600000008500CRESCENT1 CUS0047828          03000000000000                S ARIEFDIEN                                                                          
013L5020210429000787679000000001431942942100000016000CRESCENT1 CUS0059540          03600000000000                H KADER                                                                              
013L5020210429002238051001000000008042331000000016000CRESCENT1 CUS0036591          03400000000000                M LIBERTY                                                                            
014L0000000040000000000000000158013271660000000004900000000000000000                                                                                                                                  
011LD23763200500000040945448920120210514                                                                                                                                                              
013L5020210513000514051001000000005839540700000008500CRESCENT1 CUS0053273          03000000000000                S ESSOP                                                                              
013L5020210513000962470010000000132459546700000008500CRESCENT1 CUS0056352          03400000000000                M BASADIEN                                                                           
014L0000000020000000000000000013829908740000000001700000000000000000                                                                                                                                  
011LD23763200500000040945448920120210525                                                                                                                                                              
013L5020210524000837632005000000934053302300000008500CRESCENT1 CUS0032077          03492801000837                R BENNET                                                                             
014L0000000010000000000000000093405330230000000000850000000000000000                                                                                                                                  
011LD23763200500000040945448920120210527                                                                                                                                                              
013L5020210526002928051001000000022534647800000023500CRESCENT1 CUS0032558          03200000000000                A EBRAHIM                                                                            
013L5020210526000109051001000000030135430800000008500CRESCENT1 CUS0051924          03400000000000                R WILLIAMS                                                                           
013L5020210526002161632005000000408674762800000008500CRESCENT1 CUS0053155          03292801002161                F HENDRICKS                                                                          
014L0000000030000000000000000046134484140000000004050000000000000000                                                                                                                                  
011LD23763200500000040945448920120210531                                                                                                                                                              
013L5020210529001859250737000006234750557300000016000CRESCENT1 CUS0035917          00200000000000                F BATA                                                                               
013L5020210529000219198765000000119008792800000008500CRESCENT1 CUS0057431          00600000000000                I DAVIDS                                                                             
013L5020210529002027198765000000114796153000000008500CRESCENT1 CUS0051908          01200000000000                W ABDULLAH                                                                           
013L5020210529002219252245000005529002960900000008500CRESCENT1 CUS0014502          00200000000000                R SUJEE                                                                              
013L5020210529001706256955000006234155019400000008500CRESCENT1 CUS0046612          00400000000000                Y CAJEE                                                                              
013L5020210529001966255355000006234916722200000008500CRESCENT1 CUS0012708          00200000000000                S ALLI                                                                               
013L5020210529001044252245000005529231198900000006900CRESCENT1 CUS0034034          00200000000000                M MAJAM                                                                              
013L5020210529001647251042000006228011309500000008500CRESCENT1 CUS0050484          00200000000000                K POCHEE                                                                             
013L5020210529001078701505000001166100274000000006900CRESCENT1 CUS0055064          03600000000000                S MOSELEY                                                                            
013L5020210529001698198765000000243701238900000008500CRESCENT1 CUS0056353          02600000000000                S MILLS                                                                              
013L5020210529002298221926000006209333902800000006900CRESCENT1 CUS0031405          01200000000000                A NGUBANE                                                                            
013L5020210529001556250655000006210387577200000008500CRESCENT1 CUS0046377          02600000000000                G NAIDOO                                                                             
013L5020210529001343198765000000126683844900000008500CRESCENT1 CUS0028118          00200000000000                K SALIE                                                                              
013L5020210529002124198765000000113557383200000008500CRESCENT1 CUS0042087          00600000000000                T MAKHANYA                                                                           
013L5020210529001751250545000006204994841900000016000CRESCENT1 CUS0011622          00200000000000                R PATEL                                                                              
013L5020210529001280250655000006276264412000000008500CRESCENT1 CUS0059566          00200000000000                S ADAMS                                                                              
013L5020210529002270201909000006229784217400000008500CRESCENT1 CUS0056916          00400000000000                M ADAMS                                                                              
013L5020210529001123250056000006205106645700000008500CRESCENT1 CUS0027481          00400000000000                Z HARPER-VALENTINE                                                                   
013L5020210529001649250655000006277308776500000008500CRESCENT1 CUS0058480          00200000000000                S WITBOOI                                                                            
013L5020210529000106632005000000931493424700000016000CRESCENT1 CUS0043475          03492801000106                N DAVIDS                                                                             
013L5020210529000694250805000006241612972500000007500CRESCENT1 CUS0033564          02600000000000                A HOOSEIN                                                                            
013L5020210529001947255355000006235618434200000016000CRESCENT1 CUS0036094          00400000000000                F CROMBIE                                                                            
013L5020210529001709198765000000118083489500000008500CRESCENT1 CUS0058530          00200000000000                M PARKER                                                                             
013L5020210529001559198765000000115788060600000008500CRESCENT1 CUS0058411          00400000000000                M ABDOL                                                                              
013L5020210529001840203209000006231072273200000008500CRESCENT1 CUS0051290          00600000000000                A LATIEF                                                                             
013L5020210529000089210121000006267009185100000016000CRESCENT1 CUS0057340          00200000000000                T DAWJEE                                                                             
013L5020210529001265258623000006220423008100000023500CRESCENT1 CUS0040519          00200000000000                A MANUEL                                                                             
013L5020210529000215261050000006240684644600000008500CRESCENT1 CUS0038000          00200000000000                A DEMAINE                                                                            
013L5020210529002181198765000000101770294200000008500CRESCENT1 CUS0052302          00200000000000                N JACOBS                                                                             
013L5020210529002160198765000000103290930700000008500CRESCENT1 CUS0056845          00600000000000                M SAYED                                                                              
013L5020210529001621250841000006217903359400000038500CRESCENT1 CUS0010979          00200000000000                I ASVAT                                                                              
013L5020210529002487210502000006208512644100000006900CRESCENT1 CUS0037027          00200000000000                F RAJAAL                                                                             
013L5020210529001499250114000006238834974000000008500CRESCENT1 CUS0058389          00200000000000                M ISMAIL                                                                             
013L5020210529001494252505000006223742706900000008500CRESCENT1 CUS0035186          00200000000000                F SHAIK                                                                              
013L5020210529001190679000000001431942942100000016000CRESCENT1 CUS0059540          03600000000000                H KADER                                                                              
013L5020210529000879198765000000119216281100000008500CRESCENT1 CUS0058063          00200000000000                A ISAACS                                                                             
013L5020210529000844250205000006201886553700000008500CRESCENT1 CUS0033813          00400000000000                R KALKE                                                                              
013L5020210529002214250655000006281254352900000008500CRESCENT1 CUS0052421          01200000000000                E KATHIE                                                                             
013L5020210529000468250655000006282548107100000016000CRESCENT1 CUS0053894          01200000000000                M GALLOW                                                                             
013L5020210529001875250337000006251009870100000008500CRESCENT1 CUS0058696          00200000000000                Y BISMILLA                                                                           
013L5020210529001906250355000006255657010100000008500CRESCENT1 CUS0051468          00200000000000                Z HAFFEJEE                                                                           
013L5020210529000905198765000000203405925500000008500CRESCENT1 CUS0039534          02600000000000                A BASSA                                                                              
013L5020210529001882201109000006234671413300000008500CRESCENT1 CUS0041564          00200000000000                F KHAN                                                                               
013L5020210529001770261050000006261190126700000008500CRESCENT1 CUS0059769          00200000000000                G METUNE                                                                             
013L5020210529001713258055000006214454270200000008500CRESCENT1 CUS0030093          01200000000000                F RAHMAN                                                                             
013L5020210529000523253605000006211033693100000016000CRESCENT1 CUS0026365          00600000000000                F ABDUL HABIB                                                                        
013L5020210529000388255355000006267332390400000008500CRESCENT1 CUS0053708          00200000000000                I JACK                                                                               
013L5020210529002184250655000006288139826000000007500CRESCENT1 CUS0059936          00200000000000                R MAHOMED                                                                            
013L5020210529001675198765000000101299701400000008500CRESCENT1 CUS0041265          00200000000000                F SAMUELS                                                                            
013L5020210529000069198765000000104666545600000016000CRESCENT1 CUS0057335          00200000000000                A EDERIES                                                                            
013L5020210529000830051001000001013242598800000008500CRESCENT1 CUS0059417          03400000000000                S BENJAMIN                                                                           
013L5020210529000732051001000000003586970400000006900CRESCENT1 CUS0018273          03600000000000                H CHOONARA                                                                           
013L5020210529002328256755000006232682097600000016000CRESCENT1 CUS0002208          00200000000000                J MOOSA                                                                              
013L5020210529002530250141000006251464655600000008500CRESCENT1 CUS0052995          01200000000000                A NAIDOO                                                                             
013L5020210529001854250655000006285106726700000006900CRESCENT1 CUS0059785          00300000000000                R ISAACS                                                                             
013L5020210529000264250237000006246187981200000016000CRESCENT1 CUS0032811          00200000000000                H BHANA                                                                              
013L5020210529002541200612000006262347288400000008500CRESCENT1 CUS0057230          00200000000000                G WEST                                                                               
013L5020210529002439201909000006260015034600000008500CRESCENT1 CUS0047984          01200000000000                A CARRIEM                                                                            
013L5020210529000840203209000006048825790400000008500CRESCENT1 CUS0059419          00200000000000                Z LUCKAN                                                                             
013L5020210529000203220329000005389003886400000016000CRESCENT1 CUS0025591          00400000000000                H BASHEER                                                                            
013L5020210529002336255355000006265908484300000008500CRESCENT1 CUS0056954          00200000000000                M THEBUS                                                                             
013L5020210529001214250945000006243804187400000022500CRESCENT1 CUS0034286          00200000000000                F ISMAIL                                                                             
013L5020210529002356051001000000027117887600000008500CRESCENT1 CUS0047828          03000000000000                S ARIEFDIEN                                                                          
013L5020210529001211198765000000288721560400000008500CRESCENT1 CUS0008705          00200000000000                S KARA                                                                               
013L5020210529000618250655000006280886641400000006900CRESCENT1 CUS0054409          00400000000000                S SCHROEDER                                                                          
013L5020210529001679250655000006277209357300000008500CRESCENT1 CUS0058493          00400000000000                M ISAACS                                                                             
013L5020210529001002250655000006282871410600000006900CRESCENT1 CUS0019460          00200000000000                A SEEDAT                                                                             
013L5020210529001149200409000006221500610800000008500CRESCENT1 CUS0058161          00200000000000                F HOOSAIN                                                                            
013L5020210529000427200510000006052621178900000016000CRESCENT1 CUS0048766          00200000000000                F MIA                                                                                
013L5020210529001217250805000006226309882600000008500CRESCENT1 CUS0049831          00400000000000                Z BOBAT                                                                              
013L5020210529001872255355000006244498977900000016000CRESCENT1 CUS0046966          01200000000000                A SADER                                                                              
013L5020210529000488255355000006250187062100000008500CRESCENT1 CUS0053926          01200000000000                G EBRAHIEM                                                                           
013L5020210529002010051001000000025023665600000008500CRESCENT1 CUS0012946          03000000000000                F KHAN                                                                               
013L5020210529000472051001000000025000627800000016000CRESCENT1 CUS0017151          03400000000000                T EBRAHIM                                                                            
013L5020210529001323198765000000195649275500000006900CRESCENT1 CUS0028107          00200000000000                A CARRIM                                                                             
013L5020210529000869051001000001012578538900000016000CRESCENT1 CUS0058055          03000000000000                A DAVEY                                                                              
013L5020210529001481198765000000190354876400000007500CRESCENT1 CUS0010242          00200000000000                O GANCHI                                                                             
013L5020210529000779252805000006208747862600000007500CRESCENT1 CUS0057949          00600000000000                N BAYNES                                                                             
013L5020210529002112253442000006227946913600000023500CRESCENT1 CUS0036416          00200000000000                A LEBELOANE                                                                          
013L5020210529000752580105000001001140826400000008500CRESCENT1 CUS0018278          00400000000000                E MOOSA                                                                              
013L5020210529001572230102000006220624369400000008500CRESCENT1 CUS0021998          01200000000000                S NAWAZ                                                                              
013L5020210529001108250655000006282883833600000008500CRESCENT1 CUS0055137          00400000000000                N JACOBS                                                                             
013L5020210529000435211617000006224988986900000008500CRESCENT1 CUS0038742          00400000000000                Z SMITH                                                                              
013L5020210529000338198765000000111999381400000008500CRESCENT1 CUS0053621          00200000000000                F FRANSMAN                                                                           
013L5020210529002074198765000000111028696100000008500CRESCENT1 CUS0059809          00400000000000                A FREDERICKS                                                                         
013L5020210529000259198765000000117124531900000008500CRESCENT1 CUS0057461          00400000000000                L SOLOMONS                                                                           
013L5020210529001539250114000006248540613800000008500CRESCENT1 CUS0058399          03600000000000                T KHAN                                                                               
013L5020210529001842250655000006271089752300000008500CRESCENT1 CUS0058670          01200000000000                F ABRAHAMS                                                                           
013L5020210529002323250114000006235749261100000008500CRESCENT1 CUS0047786          00400000000000                J PATTERSEN                                                                          
013L5020210529001952250805000006204731431500000008500CRESCENT1 CUS0058744          00200000000000                K FRANKS                                                                             
013L5020210529000959255355000006252787034000000006900CRESCENT1 CUS0058094          00200000000000                S FAKIE                                                                              
013L5020210529000782260225000006238756639500000008500CRESCENT1 CUS0018371          00600000000000                I KALIL                                                                              
013L5020210529001134200607000006205802314500000008500CRESCENT1 CUS0034124          00200000000000                M LAWS                                                                               
013L5020210529001874198765000000118032625300000008500CRESCENT1 CUS0056587          00600000000000                Z BAREDOEN                                                                           
013L5020210529001507198765000000102535339000000008500CRESCENT1 CUS0050130          02600000000000                N JAFFER                                                                             
013L5020210529001432198765000000114678027300000008500CRESCENT1 CUS0021330          00200000000000                M RICHARDS                                                                           
013L5020210529000255198765000000191030345300000008500CRESCENT1 CUS0038198          00600000000000                R HOOSEN                                                                             
013L5020210529001653230102000006213334734500000016000CRESCENT1 CUS0029990          00200000000000                M JACOBS                                                                             
013L5020210529000070250655000006271476686500000008500CRESCENT1 CUS0059162          00200000000000                Z LAGARDIEN                                                                          
013L5020210529000330470010000000140586348800000008500CRESCENT1 CUS0059240          03400000000000                A PARI                                                                               
013L5020210529000216250805000006266232453300000023500CRESCENT1 CUS0043621          00200000000000                G HENDRICKS                                                                          
013L5020210529002388250117000005529003286800000031000CRESCENT1 CUS0042746          00200000000000                M OMAR                                                                               
013L5020210529002051203109000006259103032600000008500CRESCENT1 CUS0058770          00200000000000                A VALLIE                                                                             
013L5020210529000177203109000006235989041700000016000CRESCENT1 CUS0048423          00200000000000                F SILWARY                                                                            
013L5020210529001189198765000000119440891500000008500CRESCENT1 CUS0058231          00200000000000                N MOYCE                                                                              
013L5020210529002255051001000000008042331000000016000CRESCENT1 CUS0036591          03400000000000                M LIBERTY                                                                            
013L5020210529002006198765000000107424653500000007500CRESCENT1 CUS0056743          00200000000000                M ABRAHAMS                                                                           
013L5020210529001887201909000006234892441700000008500CRESCENT1 CUS0059788          00400000000000                A ELLIS                                                                              
013L5020210529002283250655000006283119523600000008500CRESCENT1 CUS0059950          00200000000000                B SEHULLER                                                                           
013L5020210529000980250655000006281891670400000008500CRESCENT1 CUS0059443          00200000000000                N CASSIM                                                                             
013L5020210529002163252505000006210165762700000008500CRESCENT1 CUS0001468          00200000000000                A BULBULIA                                                                           
013L5020210529002000261550000005291007040900000007500CRESCENT1 CUS0023605          00200000000000                A SHAIKHNAG                                                                          
013L5020210529000643257705000005028003661400000008500CRESCENT1 CUS0026559          01200000000000                R AHMED                                                                              
013L5020210529002318257705000006240912242100000008500CRESCENT1 CUS0014623          00200000000000                S BUTLER                                                                             
013L5020210529002357252505000006243022367800000007500CRESCENT1 CUS0052597          01200000000000                S KHAN                                                                               
013L5020210529001676252605000006229266025800000008500CRESCENT1 CUS0046582          00400000000000                A HOOSEN                                                                             
013L5020210529001964250655000006283529999300000008500CRESCENT1 CUS0059795          00200000000000                S BUCKLEY                                                                            
013L5020210529001122250056000006244778520700000016000CRESCENT1 CUS0020183          01200000000000                A ASVAT                                                                              
013L5020210529001544252245000006218618814200000008500CRESCENT1 CUS0035232          00200000000000                S RANDEREE                                                                           
013L5020210529001381251141000006230721441100000006900CRESCENT1 CUS0009651          00200000000000                F KIMMIE                                                                             
013L5020210529001761470010000000138873792000000016000CRESCENT1 CUS0011648          03200000000000                F HARTLEY                                                                            
013L5020210529002314198765000000114116886300000008500CRESCENT1 CUS0056946          00200000000000                A GASNOLA                                                                            
013L5020210529002511198765000000115202694100000008500CRESCENT1 CUS0057207          00200000000000                Y WATERLOO                                                                           
013L5020210529002463198765000000196916033000000016000CRESCENT1 CUS0002884          00200000000000                A LUDICK                                                                             
013L5020210529001792252505000006239686280900000008500CRESCENT1 CUS0023029          00200000000000                Y PILLAR                                                                             
013L5020210529002373250655000006279654300900000008500CRESCENT1 CUS0014878          00400000000000                K DEWAN                                                                              
013L5020210529002561250655000006279238587700000008500CRESCENT1 CUS0057237          01200000000000                M KHAN                                                                               
013L5020210529002520250655000006276789630400000008500CRESCENT1 CUS0052969          00200000000000                A KROTZ                                                                              
013L5020210529001674250655000006269900729300000016000CRESCENT1 CUS0035487          01200000000000                M MADAREE                                                                            
013L5020210529000804211517000006203586535400000016000CRESCENT1 CUS0033757          00600000000000                R DOLLEY                                                                             
013L5020210529001249198765000000116037901700000008500CRESCENT1 CUS0058273          00200000000000                N ASGHAN                                                                             
013L5020210529000300210651000006243619376800000008500CRESCENT1 CUS0059228          00200000000000                F PANDY                                                                              
013L5020210529002428250205000006204525255900000008500CRESCENT1 CUS0042839          00200000000000                N SEFU                                                                               
013L5020210529000780250655000006276649460400000015400CRESCENT1 CUS0059405          00400000000000                N TALIEP                                                                             
013L5020210529001742250068000006203307434500000008500CRESCENT1 CUS0022810          01200000000000                M YUNUS                                                                              
013L5020210529001076250805000006204719543400000008500CRESCENT1 CUS0045328          00200000000000                M DANKA                                                                              
013L5020210529002456270324000006216988218300000008500CRESCENT1 CUS0031694          00600000000000                F NAICKER                                                                            
013L5020210529000334470010000000118290162800000008500CRESCENT1 CUS0032996          03000000000000                A LOUW                                                                               
013L5020210529000587201809000006210714294500000008500CRESCENT1 CUS0048955          00200000000000                S ABRAHAMS                                                                           
013L5020210529001459198765000000118755093000000008500CRESCENT1 CUS0058371          00200000000000                B YON                                                                                
013L5020210529001279198765000000110614878900000008500CRESCENT1 CUS0058290          00200000000000                I DAVIDS                                                                             
013L5020210529001235198765000000110761903300000008500CRESCENT1 CUS0040472          03000000000000                M ISAACS                                                                             
013L5020210529000850201109000006253803679100000008500CRESCENT1 CUS0059420          00200000000000                A THEBUS                                                                             
013L5020210529000864222826000005499732621900000008500CRESCENT1 CUS0033822          00400000000000                M ABOO BAKER                                                                         
013L5020210529000010250655000006272287691100000016000CRESCENT1 CUS0059126          00200000000000                A MAJIET                                                                             
013L5020210529000549250655000006276028273200000008500CRESCENT1 CUS0057746          00200000000000                R FATAAR                                                                             
013L5020210529001509204709000006202607511000000008500CRESCENT1 CUS0058392          00400000000000                I MULDER                                                                             
013L5020210529002617250805000006244308045300000070000GEOFIN    GEOFIN              00200000000000                GOITSEONA G MADUBE                                                                   
014L0000001480000000000000064185385106770000000160080000000000000000                                                                                                                                  
011LD23763200500000040945448920120210601                                                                                                                                                              
013L5020210531000084470010000000149720215700000025000ABSOLIT   1622122218RFD101    00200000000000                B SHIBAMBO                                                                           
013L5020210531000048470010000000135609776400000025000ABSOLIT   1622122218RFD066    00200000000000                M HLONGWANE                                                                          
013L5020210531000067051001000000000126741800000025000ABSOLIT   1622122218RFD043    00200000000000                N MANTHOKO                                                                           
013L5020210531000178470010000000163241135900000060000MANIANET  1622122218R77       00200000000000                MISS SS DAVIDS                                                                       
013L5020210531000076470010000000133732286300000025000ABSOLIT   1622122215RGS001    00200000000000                GLEN SOLOMON                                                                         
013L5020210531000161051001000001012614068300000059900NEWYOU    1622295031R67       00200000000000                ANCHEN RABIE                                                                         
013L5020210531000064470010000000122753805500000025000ABSOLIT   1622122218RFD094    00200000000000                D MOFOKENG                                                                           
013L5020210531000052632005000000409716194200000025000ABSOLIT   1622122218RFD087    00292803000052                N NDLOVU                                                                             
013L5020210531000079051001000001008049343000000025000ABSOLIT   1622122215RAJ001    00200000000000                ASHTON JACOBS                                                                        
013L5020210531000130470010000000161861171000000059900NEWYOU    1622295022R32       00200000000000                M FRANKEN                                                                            
013L5020210531000085470010000000164465603300000025000ABSOLIT   1622122218RFD031    03400000000000                K MAHLABA                                                                            
014L0000000110000000000000000346189034140000000037980000000000000000                                                                                                                                  
019L0000001710000000000000064948003730950000000211260000000000000000                                                                                                                                  
999L000000189                                                                                                                                                                                         
