000L2020041700000PAYPORT CONSULTING PTY LTD EFT000027307303                                                                                                                                           
010LD237000000301                                                                                                                                                                                     
011LD23763200500000040945448920120200415                                                                                                                                                              
013L5020200414000006470010000000112608063000000000200PAYPORT   SAME HOME LOAN      01200000000000                CHEREEN STEENKAMP                                                                    
013L5020200414000003470010000000112608063000000000100PAYPORT   SAMEHOMELOAN        01200000000000                CHEREEN MULLER                                                                       
014L0000000020000000000000000022521612600000000000030000000000000000                                                                                                                                  
019L0000000020000000000000000022521612600000000000030000000000000000                                                                                                                                  
999L000000008                                                                                                                                                                                         
