000L2021031800000PAYPORT CONSULTING PTY LTD EFT000067607303                                                                                                                                           
010LD237000016001                                                                                                                                                                                     
011LD23763200500000040945448920120210225                                                                                                                                                              
013L5020210224000217470010000000123619151800000008500CRESCENT1 CUS0057790          03400000000000                M GAMIET                                                                             
014L0000000010000000000000000012361915180000000000850000000000000000                                                                                                                                  
011LD23763200500000040945448920120210227                                                                                                                                                              
013L5020210226006218051001000000022534647800000023500CRESCENT1 CUS0032558          03000000000000                A EBRAHIM                                                                            
014L0000000010000000000000000002253464780000000002350000000000000000                                                                                                                                  
011LD23763200500000040945448920120210316                                                                                                                                                              
013L5020210315000097051001000000007121054700000008500CRESCENT1 CUS0059220          00200000000000                R ADAMS                                                                              
013L5020210315000259470010000000113338357000000007500CRESCENT1 CUS0055144          00200000000000                S BARENDSE                                                                           
013L5020210315001090470010000000135681135100000008500CRESCENT1 CUS0052578          00400000000000                F RAHMAN                                                                             
013L5020210315000077470010000000147341585100000006900CRESCENT1 CUS0059173          00200000000000                F KAMALDIEN                                                                          
013L5020210315000206470010000000155520996100000008500CRESCENT1 CUS0054582          00200000000000                M VAN RHEEDE                                                                         
013L5020210315001206470010000000160572509700000008500CRESCENT1 CUS0058880          00200000000000                S AGHERDIEN                                                                          
013L5020210315000851470010000000142042916500000008500CRESCENT1 CUS0057829          00200000000000                E CLOETE                                                                             
013L5020210315001066470010000000125458543300000008500CRESCENT1 CUS0058447          00400000000000                P MANUEL                                                                             
013L5020210315001175470010000000125481660500000008500CRESCENT1 CUS0052927          00200000000000                M TIFFLIN                                                                            
013L5020210315000012470010000000130717228600000016000CRESCENT1 CUS0058986          00200000000000                G SAMPSON                                                                            
013L5020210315000298470010000000125351064200000008500CRESCENT1 CUS0048898          00200000000000                F HASSIEM                                                                            
013L5020210315000746470010000000154195017600000008500CRESCENT1 CUS0057399          00200000000000                M HERCULES                                                                           
013L5020210315000506051001000001011891639200000008500CRESCENT1 CUS0056124          00200000000000                S HASSANGY                                                                           
013L5020210315000428470010000000123818162500000008500CRESCENT1 CUS0022845          01200000000000                T MFIHLO MAHOMMED                                                                    
013L5020210315000137470010000000122479139600000008500CRESCENT1 CUS0059360          00200000000000                Y MOHAMMED                                                                           
013L5020210315000671470010000000152539829400000008500CRESCENT1 CUS0057044          00200000000000                F DAVIDS                                                                             
013L5020210315000549470010000000141773165400000006900CRESCENT1 CUS0042721          00200000000000                J HLATYWAYO                                                                          
013L5020210315001015051001000001007513738900000008500CRESCENT1 CUS0052227          00200000000000                A RAVAT                                                                              
013L5020210315000632632005000000406692653500000008500CRESCENT1 CUS0004602          00292803000632                N AMBARAM                                                                            
013L5020210315000442632005000000409242484200000008500CRESCENT1 CUS0001404          00292803000442                F ROCKER                                                                             
013L5020210315000261470010000000158437703600000016000CRESCENT1 CUS0040617          00200000000000                M PARTON                                                                             
013L5020210315001026051001000000020307983300000008500CRESCENT1 CUS0058331          00400000000000                R HERCULES                                                                           
013L5020210315000303470010000000137748526700000008500CRESCENT1 CUS0055529          03400000000000                R GALIE                                                                              
013L5020210315000145470010000000112862280500000008500CRESCENT1 CUS0048180          00200000000000                D FRANCIS                                                                            
013L5020210315001199470010000000117097791800000016000CRESCENT1 CUS0047115          00200000000000                J JOHNSON                                                                            
013L5020210315000965470010000000133718103800000008500CRESCENT1 CUS0051927          00200000000000                M EDWARDS                                                                            
013L5020210315000597051001000000040616139900000008500CRESCENT1 CUS0004126          00400000000000                N MOOSA                                                                              
013L5020210315000992632005000000405983177700000016000CRESCENT1 CUS0010752          00292803000992                M AMEER                                                                              
013L5020210315000836470010000000167626896900000008500CRESCENT1 CUS0057742          00200000000000                R CHICHVADIA                                                                         
013L5020210315000941470010000000156792026600000008500CRESCENT1 CUS0058180          00200000000000                D FISHER                                                                             
013L5020210315001155470010000000136433203300000008500CRESCENT1 CUS0052851          00200000000000                T SMITH                                                                              
013L5020210315000711470010000000147777254300000008500CRESCENT1 CUS0057209          00200000000000                F CROY                                                                               
013L5020210315001081470010000000131780389000000008500CRESCENT1 CUS0058554          00200000000000                S JOGEE ABDULLAH                                                                     
013L5020210315000323051001000000005171371300000007500CRESCENT1 CUS0055645          00200000000000                Y WALLJEE                                                                            
013L5020210315000269051001000000001372832600000016000CRESCENT1 CUS0040704          00200000000000                A AHMED                                                                              
013L5020210315000142470010000000157440691200000008500CRESCENT1 CUS0059364          00200000000000                L CLOETE                                                                             
013L5020210315000754470010000000161651496300000008500CRESCENT1 CUS0044503          00200000000000                P RAMOTHAR                                                                           
013L5020210315000187470010000000157049014500000008500CRESCENT1 CUS0059504          00200000000000                Z DAVIDS                                                                             
013L5020210315000224632005000000407981687400000016000CRESCENT1 CUS0019292          00292803000224                S LAHER                                                                              
013L5020210315000546470010000000132459546700000008500CRESCENT1 CUS0056352          00200000000000                M BASADIEN                                                                           
013L5020210315000716470010000000134631291300000006900CRESCENT1 CUS0057274          00400000000000                M SAMAAI                                                                             
013L5020210315000704250655000007449207609400000008500CRESCENT1 CUS0044029          02600000000000                K SULEMAN                                                                            
013L5020210315000586051001000000037357529700000008500CRESCENT1 CUS0056619          00200000000000                G TOYER                                                                              
013L5020210315000116470010000000156219053700000008500CRESCENT1 CUS0053662          00200000000000                M OSMAN                                                                              
013L5020210315001014470010000000138045177700000016000CRESCENT1 CUS0045774          00200000000000                R BOSMAN                                                                             
013L5020210315000726470010000000145335942500000008500CRESCENT1 CUS0057291          00200000000000                R ABRAHAMS FRIDIE                                                                    
013L5020210315000147470010000000126766867700000008500CRESCENT1 CUS0059373          00200000000000                T UYS                                                                                
013L5020210315000654470010000000124163331000000008500CRESCENT1 CUS0043818          00200000000000                M ZAMA                                                                               
013L5020210315000695051001000000042004571600000008500CRESCENT1 CUS0050895          00200000000000                B VARDALIA                                                                           
013L5020210315001104051001000000033268040100000008500CRESCENT1 CUS0046391          01200000000000                M PAREKH                                                                             
013L5020210315000751470010000000160797738700000008500CRESCENT1 CUS0057404          00200000000000                I JACOBS                                                                             
013L5020210315000287470010000000159157292200000008500CRESCENT1 CUS0055327          00200000000000                F WILLIAMS DAVIDS                                                                    
013L5020210315000981470010000000150186518600000008500CRESCENT1 CUS0058251          00200000000000                S BEDAWALA                                                                           
013L5020210315001241470010000000135968228500000008500CRESCENT1 CUS0058953          00200000000000                R PRINCE                                                                             
013L5020210315000776470010000000137951404300000008500CRESCENT1 CUS0057486          00200000000000                L ROSSIER                                                                            
013L5020210315000816470010000000116499586100000008500CRESCENT1 CUS0057647          00200000000000                M ISAACS                                                                             
013L5020210315000060470010000000114391285100000008500CRESCENT1 CUS0047707          00200000000000                S ISMAIL                                                                             
013L5020210315000605051001000000025330857700000007500CRESCENT1 CUS0050522          01200000000000                S MASON                                                                              
013L5020210315000638051001000000001240673200000008500CRESCENT1 CUS0026612          00200000000000                H CONSALVES                                                                          
013L5020210315001123051001000000018151943700000008500CRESCENT1 CUS0036652          00200000000000                M ALLY                                                                               
013L5020210315001231470010000000167392258700000008500CRESCENT1 CUS0058921          00200000000000                B MNISI                                                                              
013L5020210315000553051001000000037064583900000008500CRESCENT1 CUS0025105          00200000000000                S JACOBS                                                                             
013L5020210315000271470010000000133870031400000008500CRESCENT1 CUS0055248          00200000000000                R KHOROMBI                                                                           
013L5020210315001071470010000000129325666600000008500CRESCENT1 CUS0058534          00200000000000                A ADAMS                                                                              
013L5020210315000276051001000000005278272700000023500CRESCENT1 CUS0019889          00400000000000                A MAHOMED                                                                            
013L5020210315000471632005000000408405406700000006900CRESCENT1 CUS0056046          00292803000471                F OTTO                                                                               
013L5020210315000375800000000007860015483700000008500CRESCENT1 CUS0049352          00200000000000                E DHOOMA                                                                             
013L5020210315000146051001000001003602574500000007500CRESCENT1 CUS0053734          00400000000000                A MOHAMED                                                                            
013L5020210315000214470010000000111283907900000008500CRESCENT1 CUS0048518          00200000000000                S DE VRIES                                                                           
013L5020210315000956470010000000144910221000000008500CRESCENT1 CUS0058214          00200000000000                M JAFTHA                                                                             
013L5020210315000800470010000000134883096200000008500CRESCENT1 CUS0051269          00200000000000                Y BRAAF                                                                              
013L5020210315000251470010000000113611532100000008500CRESCENT1 CUS0055074          00400000000000                R FISHER                                                                             
013L5020210315000480051001000001007845535700000008500CRESCENT1 CUS0049806          00200000000000                J DOLLIE                                                                             
013L5020210315001085051001000001004257205100000008500CRESCENT1 CUS0052502          00200000000000                F BEKKO                                                                              
013L5020210315000381470010000000153732417700000008500CRESCENT1 CUS0055800          00200000000000                T PALM                                                                               
013L5020210315000006470010000000155451274100000006900CRESCENT1 CUS0053187          00200000000000                A MIA                                                                                
013L5020210315000961470010000000166625189300000008500CRESCENT1 CUS0058223          00200000000000                M LUNAT                                                                              
013L5020210315001219470010000000126898482300000007500CRESCENT1 CUS0047255          00200000000000                Z HARDIEN                                                                            
013L5020210315000127051001000001010803503200000008500CRESCENT1 CUS0059308          00200000000000                G RAYNERS                                                                            
013L5020210315000358051001000000004211247800000008500CRESCENT1 CUS0020935          00200000000000                M HANSA                                                                              
013L5020210315000790470010000000129076523300000008500CRESCENT1 CUS0051242          00400000000000                G DEJONGH                                                                            
013L5020210315000666470010000000135500057000000008500CRESCENT1 CUS0057027          00200000000000                F ABRAHAMS                                                                           
013L5020210315000117470010000000140679953800000008500CRESCENT1 CUS0059265          00200000000000                M USMANI                                                                             
013L5020210315001246470010000000153571078900000006900CRESCENT1 CUS0058954          00200000000000                K COZYN                                                                              
013L5020210315000225470010000000147831348800000007500CRESCENT1 CUS0040252          00200000000000                S CRAIG                                                                              
013L5020210315000896470010000000114577313100000008500CRESCENT1 CUS0058031          00200000000000                S BOWERS                                                                             
013L5020210315001060470010000000111429594700000008500CRESCENT1 CUS0052457          00200000000000                N FICK                                                                               
013L5020210315000406470010000000154140651400000008500CRESCENT1 CUS0055870          00200000000000                S SINGH                                                                              
013L5020210315001196470010000000162891710300000008500CRESCENT1 CUS0058863          00200000000000                M QANGULE                                                                            
013L5020210315000926470010000000169451277900000006900CRESCENT1 CUS0058121          00600000000000                A LAKAY                                                                              
013L5020210315000681051001000000007107363900000008500CRESCENT1 CUS0057118          00200000000000                A DANIELS                                                                            
013L5020210315000426051001000000027179355400000008500CRESCENT1 CUS0055901          00400000000000                N PAULSEN                                                                            
013L5020210315000418051001000000020132677900000008500CRESCENT1 CUS0022725          00200000000000                B MANSOOR                                                                            
013L5020210315001092051001000000000168523600000008500CRESCENT1 CUS0012561          00600000000000                N MOHAMED                                                                            
013L5020210315000192470010000000134882737600000008500CRESCENT1 CUS0059525          00200000000000                S BERHARDIEN                                                                         
013L5020210315000243470010000000138872770400000008500CRESCENT1 CUS0054991          00200000000000                R BASSON                                                                             
013L5020210315000051470010000000119522657600000008500CRESCENT1 CUS0053460          00200000000000                S ABRAHAMS                                                                           
013L5020210315001124470010000000120707059700000008500CRESCENT1 CUS0046628          00200000000000                Z OSMAN                                                                              
013L5020210315000649632005000000131004029700000008500CRESCENT1 CUS0043800          00292803000649                F RAGIE                                                                              
013L5020210315000016470010000000169403072300000008500CRESCENT1 CUS0053237          00200000000000                M DANIELS                                                                            
013L5020210315001091470010000000141821819500000008500CRESCENT1 CUS0058614          00200000000000                F BENJAMIN                                                                           
013L5020210315001187051001000000003017102400000016000CRESCENT1 CUS0014972          00600000000000                N ESSA                                                                               
013L5020210315000633051001000000033201480000000016000CRESCENT1 CUS0026591          00200000000000                I MOHAMED                                                                            
013L5020210315000037470010000000171201236100000008500CRESCENT1 CUS0059050          00200000000000                J MOSES                                                                              
013L5020210315000476470010000000159241630400000008500CRESCENT1 CUS0056070          00200000000000                Y ABRAHAMS                                                                           
013L5020210315000945800000000007860011378400000008500CRESCENT1 CUS0051866          00200000000000                A RAHMAN                                                                             
013L5020210315000130632005000000908060754200000008500CRESCENT1 CUS0048121          03092801000130                F ALLY                                                                               
013L5020210315000356470010000000154865967100000008500CRESCENT1 CUS0055721          00200000000000                M MOHAMED                                                                            
013L5020210315000011470010000000144252463200000008500CRESCENT1 CUS0053236          00200000000000                S FOKOTHO                                                                            
013L5020210315000157470010000000144449809400000008500CRESCENT1 CUS0059441          00200000000000                I CASPER                                                                             
013L5020210315001021470010000000148812086000000008500CRESCENT1 CUS0058325          00200000000000                M FRANCIS                                                                            
013L5020210315000661470010000000121361312200000008500CRESCENT1 CUS0057023          00200000000000                M DARRIES                                                                            
013L5020210315000247470010000000148440280200000016000CRESCENT1 CUS0055032          03000000000000                C DE VILLIERS                                                                        
013L5020210315000680051001000000007057069800000008500CRESCENT1 CUS0050844          00400000000000                A DE VRIES                                                                           
013L5020210315000413632005000000406377007400000008500CRESCENT1 CUS0022721          00292803000413                R MOHAMMED                                                                           
013L5020210315000312632005000000405269611400000008500CRESCENT1 CUS0020155          00292803000312                F SAYED HASSAN                                                                       
013L5020210315000691470010000000156711557600000008500CRESCENT1 CUS0057162          00200000000000                N HERBERT                                                                            
013L5020210315000307470010000000151293720500000008500CRESCENT1 CUS0055532          00400000000000                L RAFFETY                                                                            
013L5020210315000190051001000000007310216400000008500CRESCENT1 CUS0048294          00400000000000                A DAVIDS                                                                             
013L5020210315001171470010000000115566195600000006900CRESCENT1 CUS0058835          00200000000000                Z ISAACS                                                                             
013L5020210315000159051001000000002262383300000008500CRESCENT1 CUS0039615          01800000000000                I CAJEE                                                                              
013L5020210315000820051001000000020276894500000008500CRESCENT1 CUS0051450          00400000000000                A COULIBALY                                                                          
013L5020210315000260632005000000910026056900000008500CRESCENT1 CUS0019771          00292803000260                O ISMAIL SEEDAT                                                                      
013L5020210315000167470010000000164256111600000008500CRESCENT1 CUS0059452          00400000000000                M JAMAL                                                                              
013L5020210315001146470010000000166937117200000008500CRESCENT1 CUS0058715          00200000000000                Y TAGODIEN                                                                           
013L5020210315001172051001000000007798489700000007500CRESCENT1 CUS0014848          00200000000000                F ALLY                                                                               
013L5020210315001024051001000000007120003700000008500CRESCENT1 CUS0045872          00200000000000                S HOOSAIN                                                                            
013L5020210315000062470010000000124575531300000008500CRESCENT1 CUS0059102          00200000000000                Z MOHAMMID                                                                           
014L0000001280000000000000004615492887520000000115820000000000000000                                                                                                                                  
019L0000001300000000000000004630108267480000000119020000000000000000                                                                                                                                  
999L000000140                                                                                                                                                                                         
