000L2021030300000PAYPORT CONSULTING PTY LTD EFT000065507303                                                                                                                                           
010LD237000014301                                                                                                                                                                                     
011LD23763200500000040945448920120210125                                                                                                                                                              
013L5020210123000305198765000000117199261000000016000CRESCENT1 CUS0057798          03000000000000                I CAROWS                                                                             
014L0000000010000000000000000011719926100000000001600000000000000000                                                                                                                                  
011LD23763200500000040945448920120210130                                                                                                                                                              
013L5020210129001299250655000006283300683700000008500CRESCENT1 CUS0058328          03600000000000                M BENJAMIN                                                                           
013L5020210129000627198765000000113029555900000008500CRESCENT1 CUS0048732          03000000000000                B KETI                                                                               
013L5020210129000600250655000006274231454500000008500CRESCENT1 CUS0059367          03400000000000                Z MOSES                                                                              
013L5020210129002148198765000000101640068300000016000CRESCENT1 CUS0023930          03000000000000                M BALLIM                                                                             
014L0000000040000000000000001277220176240000000004150000000000000000                                                                                                                                  
011LD23763200500000040945448920120210216                                                                                                                                                              
013L5020210215000871051001000000000307558300000008500CRESCENT1 CUS0000788          03400000000000                N KHAN                                                                               
014L0000000010000000000000000000030755830000000000850000000000000000                                                                                                                                  
011LD23763200500000040945448920120210220                                                                                                                                                              
013L5020210219000047051001000000040228401100000023500CRESCENT1 CUS0036379          03400000000000                A GAFOOR                                                                             
014L0000000010000000000000000004022840110000000002350000000000000000                                                                                                                                  
011LD23763200500000040945448920120210225                                                                                                                                                              
013L5020210224000117470010000000132111260000000008500CRESCENT1 CUS0057219          03200000000000                R KEMP                                                                               
013L5020210224000631051001000000000252347700000008500CRESCENT1 CUS0043668          03400000000000                Y RASUL                                                                              
014L0000000020000000000000000013236360770000000001700000000000000000                                                                                                                                  
011LD23763200500000040945448920120210227                                                                                                                                                              
013L5020210226001023198765000000105060451200000008500CRESCENT1 CUS0020836          00200000000000                A PANDOR                                                                             
013L5020210226003077198765000000106698444100000008500CRESCENT1 CUS0056585          00200000000000                S HASSEN                                                                             
013L5020210226005921251705000006205416397900000008500CRESCENT1 CUS0041947          00200000000000                C DUPLESIS                                                                           
013L5020210226005667252605000006223082820600000031000CRESCENT1 CUS0029481          03000000000000                A BIBI LAAL                                                                          
013L5020210226003737260214000006227184430200000008500CRESCENT1 CUS0056961          00400000000000                M SMITH                                                                              
013L5020210226005955260225000006238756639500000008500CRESCENT1 CUS0018371          00600000000000                I KALIL                                                                              
013L5020210226004466200913000005085123748500000008500CRESCENT1 CUS0024203          00200000000000                M SHAHZADA                                                                           
013L5020210226004371201909000006224186049500000016000CRESCENT1 CUS0041292          00200000000000                F SISSOKO                                                                            
013L5020210226000417250056000006244778520700000016000CRESCENT1 CUS0020183          01200000000000                A ASVAT                                                                              
013L5020210226006251250056000006246014319300000008500CRESCENT1 CUS0055549          00200000000000                B ISMAIL                                                                             
013L5020210226006132211517000006203586535400000016000CRESCENT1 CUS0033757          00200000000000                R DOLLEY                                                                             
013L5020210226003494220325000006022035968700000008500CRESCENT1 CUS0034698          00200000000000                M SEER                                                                               
013L5020210226003336204209000006226178163900000008500CRESCENT1 CUS0051703          00400000000000                M PARKER                                                                             
013L5020210226002447198765000000288727584400000008500CRESCENT1 CUS0043394          02600000000000                A SALLIE                                                                             
013L5020210226003936200110000006243191934100000007500CRESCENT1 CUS0052531          00400000000000                I MATTHEWS                                                                           
013L5020210226005811255355000006250187062100000008500CRESCENT1 CUS0053926          01200000000000                G EBRAHIEM                                                                           
013L5020210226004552255355000006265908484300000008500CRESCENT1 CUS0056954          00200000000000                M THEBUS                                                                             
013L5020210226004601254005000006005116163100000008500CRESCENT1 CUS0054895          01800000000000                N ABRAHAMS                                                                           
013L5020210226005748250705000006237253737700000016000CRESCENT1 CUS0048126          00200000000000                R MABUSE                                                                             
013L5020210226005180051001000000025000627800000016000CRESCENT1 CUS0017151          03400000000000                T EBRAHIM                                                                            
013L5020210226005993051001000000004252183100000016000CRESCENT1 CUS0032510          03000000000000                F VAN WYK                                                                            
013L5020210226003337198765000000103290930700000008500CRESCENT1 CUS0056845          00600000000000                M SAYED                                                                              
013L5020210226005761250655000006282548107100000016000CRESCENT1 CUS0053894          01200000000000                M GALLOW                                                                             
013L5020210226006328250655000006271930836500000008500CRESCENT1 CUS0059217          00200000000000                A BRINKHUIS                                                                          
013L5020210226002639250655000006210142118900000008500CRESCENT1 CUS0018834          02600000000000                M KHESUDE                                                                            
013L5020210226005922250537000006245635951400000008500CRESCENT1 CUS0044963          00200000000000                A KAABI                                                                              
013L5020210226001869251705000006207891584300000007500CRESCENT1 CUS0033709          05600000000000                M BAMATH                                                                             
013L5020210226002849259605000006262038365400000008500CRESCENT1 CUS0049453          01200000000000                K GANI                                                                               
013L5020210226000420198765000000203405925500000008500CRESCENT1 CUS0039534          02600000000000                A BASSA                                                                              
013L5020210226002077198765000000112867325800000008500CRESCENT1 CUS0056179          00200000000000                D HARE                                                                               
013L5020210226006177198765000000115631073300000008500CRESCENT1 CUS0057246          00200000000000                R YAGHYA                                                                             
013L5020210226005501201009000006260512028700000008500CRESCENT1 CUS0055203          00200000000000                M GAMIET                                                                             
013L5020210226001008250056000005886900651100000008500CRESCENT1 CUS0022496          03000000000000                C CHERRY MOHAMMED                                                                    
013L5020210226005163470010000000170553341600000008500CRESCENT1 CUS0059219          03400000000000                F EBRAHIEM                                                                           
013L5020210226002128678910000005101795310400000006900CRESCENT1 CUS0057893          00200000000000                A BAYNES                                                                             
013L5020210226001479678910000005102362230300000008500CRESCENT1 CUS0059421          00200000000000                B LAUGHTON                                                                           
013L5020210226005933250056000006249619394800000008500CRESCENT1 CUS0038929          00400000000000                R PATEL                                                                              
013L5020210226001896220126000006227916554400000008500CRESCENT1 CUS0040000          00200000000000                K MOIDEEN                                                                            
013L5020210226000232211517000006232827536900000008500CRESCENT1 CUS0039000          00400000000000                K LINGHAN                                                                            
013L5020210226001879198765000000114827333600000008500CRESCENT1 CUS0059501          00200000000000                K CHIIKTA                                                                            
013L5020210226005952198765000000115202694100000008500CRESCENT1 CUS0057207          00200000000000                Y WATERLOO                                                                           
013L5020210226000406260546000006202434336100000016000CRESCENT1 CUS0036027          00200000000000                M ALLIBHAI DUDHAI                                                                    
013L5020210226002001255355000006259230026500000008500CRESCENT1 CUS0053546          01200000000000                H JACOBS                                                                             
013L5020210226000787255355000006250489736700000008500CRESCENT1 CUS0053103          00200000000000                N ROSENBERG                                                                          
013L5020210226003343250655000005400001251500000008500CRESCENT1 CUS0031610          02600000000000                M PEER-MOHAMMED                                                                      
013L5020210226004904250655000006205235492600000008500CRESCENT1 CUS0004420          02600000000000                Y JAPPIE                                                                             
013L5020210226005576198765000000106852225900000008500CRESCENT1 CUS0055235          00400000000000                F SUTCH                                                                              
013L5020210226000143051001000000025048978300000007500CRESCENT1 CUS0027080          03000000000000                F HASSIM                                                                             
013L5020210226005037250555000006237120658500000008500CRESCENT1 CUS0057482          01800000000000                T DAMON                                                                              
013L5020210226004807250237000006246187981200000016000CRESCENT1 CUS0032811          00200000000000                H BHANA                                                                              
013L5020210226003160198765000000114654044200000008500CRESCENT1 CUS0047157          00200000000000                S ISKRA                                                                              
013L5020210226001052198765000000111530238800000008500CRESCENT1 CUS0040167          03000000000000                R WILLIAMS                                                                           
013L5020210226006312678910000005100714983600000006900CRESCENT1 CUS0057974          00200000000000                S JOHNSON ENGELBRECHT                                                                
013L5020210226005302470010000000136168541500000008500CRESCENT1 CUS0057086          03000000000000                R ROMAN                                                                              
013L5020210226004083198765000000111090790700000008500CRESCENT1 CUS0037063          00400000000000                S LAHER                                                                              
013L5020210226004038198765000000115668556700000008500CRESCENT1 CUS0059030          00400000000000                R ISMAIL                                                                             
013L5020210226002288198765000000118083489500000008500CRESCENT1 CUS0058530          00200000000000                M PARKER                                                                             
013L5020210226003619198765000000265638458300000008500CRESCENT1 CUS0034805          01200000000000                H KHAN                                                                               
013L5020210226005697203209000006209959137500000008500CRESCENT1 CUS0044883          00600000000000                A FAKIR                                                                              
013L5020210226000709210221000005213003439200000008500CRESCENT1 CUS0045466          00600000000000                M DAVIDS                                                                             
013L5020210226005496250205000006212421071700000016000CRESCENT1 CUS0041858          00200000000000                M SALOOJEE                                                                           
013L5020210226001717250655000006226886713500000008500CRESCENT1 CUS0026370          02600000000000                F GALIEL                                                                             
013L5020210226000994250655000006274093185400000016000CRESCENT1 CUS0057596          01200000000000                A NAHAS                                                                              
013L5020210226003438250655000006282941585200000008500CRESCENT1 CUS0058872          00200000000000                A JOOMA                                                                              
013L5020210226003058253442000006227946913600000023500CRESCENT1 CUS0036416          00200000000000                A LEBELOANE                                                                          
013L5020210226002726254405000006209556614000000008500CRESCENT1 CUS0053860          01200000000000                D HARTNEY                                                                            
013L5020210226000762051001000001005433210700000008500CRESCENT1 CUS0053100          03000000000000                Y ABDURAHMAN                                                                         
013L5020210226003761250655000006281254352900000008500CRESCENT1 CUS0052421          01200000000000                E KATHIE                                                                             
013L5020210226000856198765000000196331344500000008500CRESCENT1 CUS0036263          00600000000000                A MUSTAPHA                                                                           
013L5020210226005360201509000006233162460200000008500CRESCENT1 CUS0048525          00200000000000                E GANIEF                                                                             
013L5020210226001140220328000006210539809500000008500CRESCENT1 CUS0030627          00400000000000                M RAHIMAN                                                                            
013L5020210226000820252505000005031005784500000008500CRESCENT1 CUS0039969          00200000000000                S MOTAN                                                                              
013L5020210226005297256055000006233539932600000008500CRESCENT1 CUS0044781          00600000000000                A SIBEKO                                                                             
013L5020210226003582051001000000005053833000000008500CRESCENT1 CUS0031656          03000000000000                V DAWOOD                                                                             
013L5020210226004060051001000000027117887600000008500CRESCENT1 CUS0047828          03600000000000                S ARIEFDIEN                                                                          
013L5020210226005345198765000000101587217400000008500CRESCENT1 CUS0038266          00200000000000                S ZUMA                                                                               
013L5020210226005687198765000000110311760200000008500CRESCENT1 CUS0057764          00200000000000                I DRAMAT                                                                             
013L5020210226004196255355000006255577989500000008500CRESCENT1 CUS0041228          00600000000000                M OBARAY                                                                             
013L5020210226005656257705000005028003661400000008500CRESCENT1 CUS0026559          01200000000000                R AHMED                                                                              
013L5020210226005193470010000000118630422500000008500CRESCENT1 CUS0032236          03400000000000                S MOOLA                                                                              
013L5020210226005742250645000006206097647300000008500CRESCENT1 CUS0029989          00200000000000                T MASEMOLA                                                                           
013L5020210226005633211617000006224988986900000008500CRESCENT1 CUS0038742          00400000000000                Z SMITH                                                                              
013L5020210226003864223126000006207332575800000008500CRESCENT1 CUS0019104          00600000000000                F DESAI                                                                              
013L5020210226000109250141000006249098928600000008500CRESCENT1 CUS0045209          00600000000000                N AMOD                                                                               
013L5020210226004513198765000000114719804700000016000CRESCENT1 CUS0059152          00400000000000                S BARKATE                                                                            
013L5020210226003138678910000005101660157700000008500CRESCENT1 CUS0058761          00200000000000                G LOUW                                                                               
013L5020210226004937198765000000117124531900000008500CRESCENT1 CUS0057461          00400000000000                L SOLOMONS                                                                           
013L5020210226002178198765000000116539986500000016000CRESCENT1 CUS0057900          00200000000000                A FISHER                                                                             
013L5020210226000329198765000000157402263600000008500CRESCENT1 CUS0030338          03000000000000                Y KOZA                                                                               
013L5020210226005058198765000000191030345300000008500CRESCENT1 CUS0038198          00200000000000                R HOOSEN                                                                             
013L5020210226005913198765000000120554543300000015400CRESCENT1 CUS0059351          00400000000000                Z JACKSON                                                                            
013L5020210226000995203109000006265931574300000008500CRESCENT1 CUS0059385          00200000000000                A ABRAHAMS                                                                           
013L5020210226002713250655000006271089752300000008500CRESCENT1 CUS0058670          01200000000000                F ABRAHAMS                                                                           
013L5020210226001933250655000006269900729300000016000CRESCENT1 CUS0035487          01200000000000                M MADAREE                                                                            
013L5020210226004212250655000006279238587700000008500CRESCENT1 CUS0057237          00200000000000                M KHAN                                                                               
013L5020210226002476250655000006280635468500000008500CRESCENT1 CUS0053731          00200000000000                M LAKAY                                                                              
013L5020210226005751250655000006276073614300000008500CRESCENT1 CUS0055348          01200000000000                R WILLIAMS                                                                           
013L5020210226004772253442000006227547332100000008500CRESCENT1 CUS0044585          00200000000000                B MOOSA                                                                              
013L5020210226004826252355000006243769037500000006900CRESCENT1 CUS0054965          00200000000000                E CASSIM                                                                             
013L5020210226002972250805000006266232453300000023500CRESCENT1 CUS0043621          00200000000000                G HENDRICKS                                                                          
013L5020210226000823250655000006282883833600000008500CRESCENT1 CUS0055137          00200000000000                N JACOBS                                                                             
013L5020210226001047250655000006285074657300000016000CRESCENT1 CUS0059387          00200000000000                D SWANEPOEL                                                                          
013L5020210226005711201409000006257534482600000008500CRESCENT1 CUS0053818          00200000000000                L DAVIDS                                                                             
013L5020210226004137200612000006262347288400000008500CRESCENT1 CUS0057230          00200000000000                G WEST                                                                               
013L5020210226002312198765000000243701238900000008500CRESCENT1 CUS0056353          02600000000000                S MILLS                                                                              
013L5020210226006048200109000006250639225800000008500CRESCENT1 CUS0048233          01200000000000                M VAN DEMAN                                                                          
013L5020210226002687198765000000118032625300000008500CRESCENT1 CUS0056587          00200000000000                Z BAREDOEN                                                                           
013L5020210226001978201709000006211023601600000008500CRESCENT1 CUS0057832          00200000000000                F SAKIELDIEN                                                                         
013L5020210226003728250655000006273896909900000008500CRESCENT1 CUS0058286          00200000000000                I DOLLIE                                                                             
013L5020210226001483252505000006223742706900000008500CRESCENT1 CUS0035186          00200000000000                F SHAIK                                                                              
013L5020210226000292270224000006208330887700000008500CRESCENT1 CUS0019905          00200000000000                M ISMAIL                                                                             
013L5020210226004463250655000006272287691100000016000CRESCENT1 CUS0059126          00200000000000                A MAJIET                                                                             
013L5020210226004679250737000006201929838100000023500CRESCENT1 CUS0004228          00600000000000                A MANACK                                                                             
013L5020210226003327250655000006275531888100000008500CRESCENT1 CUS0056633          00200000000000                A DOLLIE                                                                             
013L5020210226000525250655000006276930157500000008500CRESCENT1 CUS0059454          00200000000000                A HENDRICKS                                                                          
013L5020210226004698198765000000108477359700000007500CRESCENT1 CUS0047491          02600000000000                T EBRAHIM                                                                            
013L5020210226000822250114000006260868385200000016000CRESCENT1 CUS0049545          01200000000000                D FORTUNE                                                                            
013L5020210226005852198765000000117649942400000008500CRESCENT1 CUS0057196          00200000000000                I WILLIAMS                                                                           
013L5020210226000863200311000006249917021600000008500CRESCENT1 CUS0055858          01200000000000                Y ABRAHAMS                                                                           
013L5020210226002703198765000000119216281100000008500CRESCENT1 CUS0058063          00200000000000                A ISAACS                                                                             
013L5020210226002418198765000000126804396600000008500CRESCENT1 CUS0031244          00200000000000                M AH-SHENE                                                                           
013L5020210226004352198765000000207900299600000008500CRESCENT1 CUS0056857          00400000000000                M EDWARDS                                                                            
013L5020210226004699250054000005244001251700000008500CRESCENT1 CUS0050291          00400000000000                A ASTRIE                                                                             
013L5020210226004108211617000006237372604400000036900CRESCENT1 CUS0037085          00600000000000                J LEON                                                                               
013L5020210226005500201909000005013115148800000008500CRESCENT1 CUS0052558          01800000000000                G NASH                                                                               
013L5020210226002508198765000000102923758100000031000CRESCENT1 CUS0035932          00200000000000                I MANTOOR                                                                            
013L5020210226005278250655000006282794423300000016000CRESCENT1 CUS0058882          01200000000000                E GASANT                                                                             
013L5020210226001359258623000006220423008100000023500CRESCENT1 CUS0040519          00200000000000                A MANUEL                                                                             
013L5020210226001802255355000006257476487700000008500CRESCENT1 CUS0056074          01200000000000                F GANIEF                                                                             
013L5020210226004086252505000006243022367800000007500CRESCENT1 CUS0052597          01200000000000                S KHAN                                                                               
013L5020210226002910255355000006244498977900000016000CRESCENT1 CUS0046966          01200000000000                A SADER                                                                              
013L5020210226006299250655000006279585787300000008500CRESCENT1 CUS0050892          00200000000000                Z BEG                                                                                
013L5020210226002044250205000006201886553700000008500CRESCENT1 CUS0033813          00400000000000                R KALKE                                                                              
013L5020210226004005051001000000020258071700000016000CRESCENT1 CUS0015416          03000000000000                S EVANS                                                                              
013L5020210226005078210651000006219156558300000008500CRESCENT1 CUS0058788          00200000000000                G ABDUL                                                                              
013L5020210226003576198765000000159504193100000008500CRESCENT1 CUS0054486          00200000000000                S JUMAT                                                                              
013L5020210226003924198765000000110671709000000008500CRESCENT1 CUS0049859          00400000000000                J REYNECKE                                                                           
013L5020210226006412470010000000134087691200000008500CRESCENT1 CUS0058052          03000000000000                I ELY                                                                                
013L5020210226000375470010000000160347584000000008500CRESCENT1 CUS0059436          03600000000000                S MADATT                                                                             
013L5020210226000024198765000000112820968300000008500CRESCENT1 CUS0058055          00200000000000                A DAVEY                                                                              
013L5020210226006276198765000000117868472500000008500CRESCENT1 CUS0055555          03000000000000                N TALIEP                                                                             
013L5020210226000874198765000000119440891500000008500CRESCENT1 CUS0058231          00200000000000                N MOYCE                                                                              
013L5020210226000675200409000006209663813800000008500CRESCENT1 CUS0059465          00200000000000                M HANSLO                                                                             
013L5020210226006334200410000006250954711500000008500CRESCENT1 CUS0044650          00200000000000                A HARTLEY                                                                            
013L5020210226005835200510000006052621178900000016000CRESCENT1 CUS0048766          00200000000000                F MIA                                                                                
013L5020210226003594210651000005145002990000000008500CRESCENT1 CUS0034791          00400000000000                A OSMAN                                                                              
013L5020210226005085210651000006213304832300000008500CRESCENT1 CUS0048396          00200000000000                Z KAMALDIEN                                                                          
013L5020210226006235201809000006210714294500000008500CRESCENT1 CUS0048955          00200000000000                S ABRAHAMS                                                                           
013L5020210226002171201109000006231560532100000008500CRESCENT1 CUS0040145          01200000000000                M DAVIDS                                                                             
013L5020210226003175051001000001008167592300000008500CRESCENT1 CUS0051863          03000000000000                S MAYET                                                                              
013L5020210226004266250455000006225279913800000016000CRESCENT1 CUS0024099          00200000000000                L JARDINE                                                                            
013L5020210226004152250655000006272829696500000008500CRESCENT1 CUS0056798          00600000000000                Z WILLIAMS                                                                           
013L5020210226001677250655000006276003764000000008500CRESCENT1 CUS0056036          00200000000000                A KHAN                                                                               
013L5020210226006169250737000006224669738000000008500CRESCENT1 CUS0035829          01200000000000                A KHAN                                                                               
013L5020210226003164250737000006229674648400000008500CRESCENT1 CUS0018933          00400000000000                N KAROLIA                                                                            
013L5020210226001001250805000006204719543400000008500CRESCENT1 CUS0045328          00200000000000                M DANKA                                                                              
013L5020210226005128255355000006237749097600000008500CRESCENT1 CUS0058804          00200000000000                A ARIEFDIEN                                                                          
013L5020210226000395255355000006240605043500000008500CRESCENT1 CUS0039520          00200000000000                I SAYED                                                                              
013L5020210226002106252505000006239686280900000008500CRESCENT1 CUS0023029          00200000000000                Y PILLAR                                                                             
013L5020210226001206251742000006227388561900000023500CRESCENT1 CUS0028451          00200000000000                A MAGAGULA                                                                           
013L5020210226004444256205000006234384506400000016000CRESCENT1 CUS0035184          01200000000000                M VANWYK                                                                             
013L5020210226001957258055000006214454270200000008500CRESCENT1 CUS0030093          01200000000000                F RAHMAN                                                                             
013L5020210226005124250655000006282918129700000008500CRESCENT1 CUS0050470          00200000000000                S ETALLA                                                                             
013L5020210226005251250141000006252338241400000008500CRESCENT1 CUS0055113          00400000000000                A REEVE                                                                              
013L5020210226006159198765000000101019079200000008500CRESCENT1 CUS0044544          00200000000000                U MOHAMED                                                                            
013L5020210226003203198765000000101761228500000008500CRESCENT1 CUS0058206          00200000000000                F SAMSODIEN                                                                          
013L5020210226002402221926000006226201801500000008500CRESCENT1 CUS0056234          01200000000000                M MOOSA                                                                              
013L5020210226001606230102000006220624369400000008500CRESCENT1 CUS0021998          01200000000000                S NAWAZ                                                                              
013L5020210226006330198765000000265139567600000016000CRESCENT1 CUS0019065          03000000000000                A ISMAIL                                                                             
013L5020210226001134198765000000110614878900000008500CRESCENT1 CUS0058290          00200000000000                I DAVIDS                                                                             
013L5020210226001885250135000006241155282200000008500CRESCENT1 CUS0046104          00200000000000                E ADAM                                                                               
013L5020210226000827250056000006250186792500000016000CRESCENT1 CUS0022394          01200000000000                H MOOLA                                                                              
013L5020210226003688201909000006234189734800000008500CRESCENT1 CUS0058922          00200000000000                H MOREIRA                                                                            
013L5020210226003399198765000000107348109300000016000CRESCENT1 CUS0049637          03000000000000                F NOMDOE                                                                             
013L5020210226005753198765000000109869583600000006900CRESCENT1 CUS0059041          02600000000000                A SALIE                                                                              
013L5020210226006359270350000006237724441400000016000CRESCENT1 CUS0044685          00200000000000                M MOMLA                                                                              
013L5020210226000438260546000006264401849300000016000CRESCENT1 CUS0055706          01200000000000                M KHAN                                                                               
013L5020210226006212252805000006208747862600000007500CRESCENT1 CUS0057949          00600000000000                N BAYNES                                                                             
013L5020210226003808259745000006232692284700000008500CRESCENT1 CUS0036864          00400000000000                K TAYOB                                                                              
013L5020210226003134250555000006222793248200000008500CRESCENT1 CUS0041768          00200000000000                M MARTIN                                                                             
013L5020210226003400250655000006285881460300000008500CRESCENT1 CUS0051936          01200000000000                N HENDRICKS                                                                          
013L5020210226002725198765000000104409125800000008500CRESCENT1 CUS0051767          00200000000000                S JAFFER                                                                             
013L5020210226005367250056000006204420461800000016000CRESCENT1 CUS0029274          00400000000000                H LAMBAT                                                                             
013L5020210226001374200110000006222594961100000008500CRESCENT1 CUS0048868          01200000000000                N CHRISTIANS                                                                         
013L5020210226003695632005000000920108922000000016000CRESCENT1 CUS0037392          03492801003695                A KASU                                                                               
013L5020210226000968198765000000119050343300000008500CRESCENT1 CUS0057593          00600000000000                K DANSTER                                                                            
013L5020210226003176250141000006210045984200000008500CRESCENT1 CUS0054189          00200000000000                A KHAN                                                                               
013L5020210226003953198765000000110470199500000008500CRESCENT1 CUS0058383          00200000000000                R DAVIN                                                                              
013L5020210226000754198765000000117494909000000008500CRESCENT1 CUS0030531          00400000000000                N MOOLLA                                                                             
013L5020210226004016220126000006246205016400000016000CRESCENT1 CUS0024011          00200000000000                L MUSTAFFA                                                                           
013L5020210226004235201909000006260015034600000008500CRESCENT1 CUS0047984          01200000000000                A CARRIEM                                                                            
013L5020210226003188203109000006259103032600000008500CRESCENT1 CUS0058770          00200000000000                A VALLIE                                                                             
013L5020210226002810051001000000042112876300000008500CRESCENT1 CUS0046787          03400000000000                K MANUEL                                                                             
013L5020210226000436198765000000110278109600000008500CRESCENT1 CUS0051072          00400000000000                A BENJAMIN                                                                           
013L5020210226002852250655000006274995042500000016000CRESCENT1 CUS0056503          01200000000000                S DA SILVER                                                                          
013L5020210226004511250141000006251464655600000008500CRESCENT1 CUS0052995          01200000000000                A NAIDOO                                                                             
013L5020210226004377250655000006272197464100000008500CRESCENT1 CUS0056858          00200000000000                A MARINUS                                                                            
013L5020210226002588255355000006265517993700000008500CRESCENT1 CUS0058656          03400000000000                J PHILANDER                                                                          
013L5020210226001076252805000006214879845000000008500CRESCENT1 CUS0028375          00200000000000                M COLLINS                                                                            
013L5020210226001820253305000005037110829900000016000CRESCENT1 CUS0036682          03600000000000                J SAKILDIEN                                                                          
013L5020210226002708250841000006225311230500000008500CRESCENT1 CUS0036104          00200000000000                Z MORALO                                                                             
013L5020210226004372256205000006208897725500000008500CRESCENT1 CUS0044300          00600000000000                Z MAHOMED                                                                            
013L5020210226004582051001000000007262242300000016000CRESCENT1 CUS0032487          03400000000000                M NOORDIEN                                                                           
013L5020210226000839200810000006254107554600000008500CRESCENT1 CUS0057560          00200000000000                R ISAACS                                                                             
013L5020210226003282221926000006209333902800000006900CRESCENT1 CUS0031405          01200000000000                A NGUBANE                                                                            
013L5020210226002934201109000006234671413300000008500CRESCENT1 CUS0041564          00200000000000                F KHAN                                                                               
013L5020210226001403210046000006262217009100000016000CRESCENT1 CUS0057729          00400000000000                A DANIELS                                                                            
013L5020210226001775210521000006219757113800000008500CRESCENT1 CUS0051514          00600000000000                F NOOR                                                                               
013L5020210226000814210528000006235532928800000008500CRESCENT1 CUS0057555          00200000000000                S BOTHA                                                                              
013L5020210226002676200510000006229427954400000008500CRESCENT1 CUS0053839          01200000000000                E RAS                                                                                
013L5020210226004336051001000001004850697200000016000CRESCENT1 CUS0052873          03000000000000                M POVIE                                                                              
013L5020210226002961051001000001006817590400000008500CRESCENT1 CUS0051296          03000000000000                S KHAN                                                                               
013L5020210226000635051001000001007187067700000008500CRESCENT1 CUS0048558          03400000000000                F DOLLIE                                                                             
013L5020210226006072251742000006244613664100000016000CRESCENT1 CUS0044997          01200000000000                K RAZAK                                                                              
013L5020210226004623254205000006207808001800000007500CRESCENT1 CUS0047435          00200000000000                Z BUX                                                                                
013L5020210226004814254605000006224141676900000016000CRESCENT1 CUS0019403          00600000000000                I YUSUF                                                                              
013L5020210226000797255355000006236923854000000016000CRESCENT1 CUS0049541          00200000000000                M CARRIEM                                                                            
013L5020210226003874250805000006226309882600000008500CRESCENT1 CUS0049831          00400000000000                Z BOBAT                                                                              
013L5020210226003052250655000006276994032300000008500CRESCENT1 CUS0056584          00200000000000                M HOOSAIN                                                                            
013L5020210226000513250555000006232537611000000008500CRESCENT1 CUS0055738          00600000000000                R SALIE                                                                              
013L5020210226003566270251000005289313705300000007500CRESCENT1 CUS0023844          01800000000000                M OMARJEE                                                                            
013L5020210226004411198765000000109308169400000008500CRESCENT1 CUS0052905          00400000000000                F SCOTT                                                                              
013L5020210226002383198765000000138508184800000008500CRESCENT1 CUS0035813          02600000000000                F BHARDU                                                                             
013L5020210226006271198765000000113557383200000008500CRESCENT1 CUS0042087          00200000000000                T MAKHANYA                                                                           
013L5020210226004084250117000005529003286800000031000CRESCENT1 CUS0042746          00200000000000                M OMAR                                                                               
013L5020210226005287678910000005100248339900000008500CRESCENT1 CUS0057557          00200000000000                Y MABOTE                                                                             
013L5020210226004002222019000006260019996400000008500CRESCENT1 CUS0056771          00200000000000                H DEABRUYN                                                                           
013L5020210226003061201409000006247393103000000008500CRESCENT1 CUS0051435          00400000000000                T DIEDERICKS                                                                         
013L5020210226003829198765000000196916033000000016000CRESCENT1 CUS0002884          00200000000000                A LUDICK                                                                             
013L5020210226005927198765000000101561434500000008500CRESCENT1 CUS0057206          00400000000000                S HENDRICKS                                                                          
013L5020210226003479256755000006232682097600000016000CRESCENT1 CUS0002208          00200000000000                J MOOSA                                                                              
013L5020210226000344252245000005529231198900000008500CRESCENT1 CUS0034034          00200000000000                M MAJAM                                                                              
013L5020210226006363250655000006282077762300000008500CRESCENT1 CUS0059404          00200000000000                T ARENDS                                                                             
013L5020210226001904250655000006282077762300000007500CRESCENT1 CUS0059510          00200000000000                T ARENDS                                                                             
013L5020210226002737250555000006242623225300000016000CRESCENT1 CUS0056603          00200000000000                M KHAN                                                                               
013L5020210226002285255355000006253287129200000008500CRESCENT1 CUS0046420          00400000000000                A HOOSEN                                                                             
013L5020210226005374198765000000203132228100000016000CRESCENT1 CUS0050567          02600000000000                N DIEDERICKS                                                                         
013L5020210226001281198765000000114678027300000008500CRESCENT1 CUS0021330          00200000000000                M RICHARDS                                                                           
013L5020210226003571211517000006234879409200000016000CRESCENT1 CUS0040932          00200000000000                S WASSIN                                                                             
013L5020210226000424678910000005100922806700000008500CRESCENT1 CUS0058118          00200000000000                W LYONS                                                                              
013L5020210226004362203209000006222149614500000016000CRESCENT1 CUS0057279          03400000000000                M SALIE                                                                              
013L5020210226000813198765000000112242767000000008500CRESCENT1 CUS0055799          03000000000000                K JONES                                                                              
013L5020210226000998198765000000126683844900000008500CRESCENT1 CUS0028118          00200000000000                K SALIE                                                                              
013L5020210226005331253605000006211033693100000016000CRESCENT1 CUS0026365          00600000000000                F ABDUL HABIB                                                                        
013L5020210226004298250409000006245518082900000008500CRESCENT1 CUS0047308          01200000000000                M HASSIM                                                                             
013L5020210226002154250655000006276264412000000008500CRESCENT1 CUS0059566          00200000000000                S ADAMS                                                                              
013L5020210226003978250655000006280124261100000008500CRESCENT1 CUS0058385          00200000000000                F THERON                                                                             
013L5020210226005383250655000006270700255700000007500CRESCENT1 CUS0038474          00200000000000                Y VANIA                                                                              
013L5020210226006067250655000006228305639100000008500CRESCENT1 CUS0030076          02600000000000                D MAKHUBO                                                                            
013L5020210226002928250655000006268148632200000008500CRESCENT1 CUS0058127          00600000000000                T ACHMAT                                                                             
013L5020210226000818252605000006202432059100000008500CRESCENT1 CUS0028000          00400000000000                M FAKIE                                                                              
013L5020210226002710252355000006255494328500000008500CRESCENT1 CUS0046763          00200000000000                A MOOSA                                                                              
013L5020210226004808198765000000164433548400000008500CRESCENT1 CUS0037865          00400000000000                M VICTOR FELAAR                                                                      
013L5020210226000299198765000000118305275800000008500CRESCENT1 CUS0058107          00200000000000                A BAKER                                                                              
013L5020210226001828198765000000116927077800000006900CRESCENT1 CUS0057787          00200000000000                J DAVIDS                                                                             
013L5020210226001056198765000000116037901700000008500CRESCENT1 CUS0058273          00200000000000                N ASGHAN                                                                             
013L5020210226001228198765000000116461731100000016000CRESCENT1 CUS0057663          00200000000000                N PIETERS                                                                            
013L5020210226003458201909000006209470569000000008500CRESCENT1 CUS0036622          00200000000000                M SIVES                                                                              
013L5020210226003153201409000006260536854800000016000CRESCENT1 CUS0058203          01200000000000                H MCCABE                                                                             
013L5020210226002876210651000006220593740400000016000CRESCENT1 CUS0053934          00400000000000                M JACOBS                                                                             
013L5020210226002006250068000006203307434500000008500CRESCENT1 CUS0022810          00200000000000                M YUNUS                                                                              
013L5020210226000439250040000006234877887200000008500CRESCENT1 CUS0057489          03600000000000                S GRIFFITHE                                                                          
013L5020210226005594255355000006247816915700000008500CRESCENT1 CUS0035572          00400000000000                F ESSOP                                                                              
013L5020210226003272260950000006211719860700000008500CRESCENT1 CUS0043764          00600000000000                F CHOTHIA                                                                            
013L5020210226001014258605000006242739372300000008500CRESCENT1 CUS0042674          01200000000000                B SHARIEF                                                                            
013L5020210226000341051001000000022008344400000008500CRESCENT1 CUS0007850          03000000000000                F PATEL                                                                              
013L5020210226002987198765000000107424653500000007500CRESCENT1 CUS0056743          00200000000000                M ABRAHAMS                                                                           
013L5020210226002086198765000000102535339000000008500CRESCENT1 CUS0050130          01200000000000                N JAFFER                                                                             
013L5020210226001444251905000006013625366800000016000CRESCENT1 CUS0033368          00200000000000                C DAMINGO                                                                            
013L5020210226004416252505000006224854679100000008500CRESCENT1 CUS0024147          01200000000000                Y MBLELE                                                                             
013L5020210226000981252505000005031001640300000008500CRESCENT1 CUS0019941          01200000000000                A TIMOL                                                                              
013L5020210226002094251042000006233678827100000016000CRESCENT1 CUS0033827          00400000000000                F PATEL                                                                              
013L5020210226001666250337000006223272212500000008500CRESCENT1 CUS0022662          02600000000000                S CHOONARA                                                                           
013L5020210226001149201109000006246980383900000008500CRESCENT1 CUS0055908          01200000000000                M ABRAHAMS                                                                           
013L5020210226004109201809000006001451042900000008500CRESCENT1 CUS0042769          00200000000000                S JAPPIE                                                                             
013L5020210226001953201509000006207102768700000008500CRESCENT1 CUS0057803          00200000000000                B PARKER                                                                             
013L5020210226001703200909000006234245815700000008500CRESCENT1 CUS0057771          00400000000000                A JACOBS                                                                             
013L5020210226005461198765000000111999381400000008500CRESCENT1 CUS0053621          00200000000000                F FRANSMAN                                                                           
013L5020210226001734198765000000191612926900000008500CRESCENT1 CUS0040773          00400000000000                C SMITH                                                                              
013L5020210226001240198765000000295349475800000016000CRESCENT1 CUS0020000          01200000000000                F SHAIKHNAG                                                                          
013L5020210226005324201909000006251917708500000008500CRESCENT1 CUS0050538          00200000000000                M ADAMS                                                                              
013L5020210226001807230102000006213334734500000016000CRESCENT1 CUS0029990          00200000000000                M JACOBS                                                                             
013L5020210226002118250056000006230699430300000016000CRESCENT1 CUS0031131          00200000000000                I MAYET                                                                              
013L5020210226003202250114000006251666126300000008500CRESCENT1 CUS0056608          00200000000000                M STAGGIE                                                                            
013L5020210226001004250655000006280686167200000008500CRESCENT1 CUS0058246          00200000000000                M PADIA                                                                              
013L5020210226001804250655000006284494986000000016000CRESCENT1 CUS0059479          00200000000000                S WILLIAMS                                                                           
013L5020210226006041252805000006213165539400000008500CRESCENT1 CUS0025039          00200000000000                F MOOS CAR                                                                           
013L5020210226003330257705000006240912242100000008500CRESCENT1 CUS0014623          00200000000000                S BUTLER                                                                             
013L5020210226004941260202000006238146985000000023500CRESCENT1 CUS0024482          01200000000000                F PATEL                                                                              
013L5020210226006296270152000006227411877000000008500CRESCENT1 CUS0042091          00400000000000                K SWARTS                                                                             
013L5020210226004572198765000000104578772800000008500CRESCENT1 CUS0044439          00200000000000                Z ALLIE HENDRICKS                                                                    
013L5020210226003405198765000000107717815800000016000CRESCENT1 CUS0014768          03000000000000                I MPHAGI                                                                             
013L5020210226001805250841000006217903359400000038500CRESCENT1 CUS0010979          00200000000000                I ASVAT                                                                              
013L5020210226005013250655000006283797587200000008500CRESCENT1 CUS0059205          00200000000000                Y MOHAMAD                                                                            
013L5020210226002063250655000006278322136100000008500CRESCENT1 CUS0058477          00200000000000                W JACOBS                                                                             
013L5020210226005598200810000005135119954700000008500CRESCENT1 CUS0048022          00400000000000                I DUTOIT                                                                             
013L5020210226001152198765000000290362155100000016000CRESCENT1 CUS0009496          01200000000000                R ISSA                                                                               
013L5020210226005871198765000000144002475800000008500CRESCENT1 CUS0041939          02600000000000                H CASSIM                                                                             
014L0000002980000000000000127942644409550000000316270000000000000000                                                                                                                                  
011LD23763200500000040945448920120210301                                                                                                                                                              
013L5020210227000083470010000000136082521300000025000ABSOLIT   1614259825RJF001    00200000000000                JUSTIN FLORENCE                                                                      
013L5020210227000055051001000001013120291800000025000ABSOLIT   1614259817RSD001    00400000000000                SHIRLEY DUNN                                                                         
013L5020210227000082470010000000117918331000000025000ABSOLIT   1614259825RFVN001   00200000000000                FAROUK VAN NIEKERK                                                                   
013L5020210227000045470010000000120636597600000025000ABSOLIT   1614259817RNM001    00200000000000                NATHANIEL MORAIS                                                                     
013L5020210227000077470010000000153098023000000025000ABSOLIT   1614259818RMAL001   00200000000000                ARASHAAT LAWRENCE                                                                    
013L5020210227000049470010000000138598924400000025000ABSOLIT   1614259817RMS001    00200000000000                MELANIE SCHEEPERS                                                                    
014L0000000060000000000000000167945468910000000015000000000000000000                                                                                                                                  
019L0000003130000000000000129416819937510000000341920000000000000000                                                                                                                                  
999L000000331                                                                                                                                                                                         
