000L2021052800000PAYPORT CONSULTING PTY LTD    000078607303                                                                                                                                           
900L000 TRANSMISSION 07303-0000113 ACCEPTED                                                                                                                                                           
900L001 ACB USER SET D237-0000119-000011 ACCEPTED                                                                                                                                                     
903L001L5063200504094544892D23700000163200504075311448100000435000210529350   TSMM      1622035821RTS0000000SISANDA MAGALA                00000000000000000000                21                      
903L001L5063200504094544892D23700000225065562339982888100000330000210529350   TSMM      1622035821RTS0000000DARYN DUPAVILLON              00000000000000000000                21                      
903L001L5063200504094544892D23700000325065562393629525100000255000210529350   TSMM      1622035821RTS0000000CORBIN BOSCH                  00000000000000000000                21                      
903L001L5063200504094544892D23700000447001001379039159200000084000210529350   TSMM      1622035821RTS0000000HW BEZUIDENHOUT               00000000000000000000                21                      
903L001L5063200504094544892D23700000547001001444709060200000049000210529350   TSMM      1622035821RTS0000001S BOLTON                      00000000000000000000                21                      
903L001L5063200504094544892D23700000625065562719955934100000035000210529350   TSMM      1622035821RTS0000000CORNEL KORFF                  00000000000000000000                21                      
903L001L5063200504094544892D23700000725065562120149390100000049000210529350   TSMM      1622035821RTS0000000ETHAN WENTZEL                 00000000000000000000                21                      
903L001L5063200504094544892D23700000825065562749822624200000025000210529350   TSMM      1622035821RTS0000000GERSWIN MOUTON                00000000000000000000                21                      
903L001L5063200504094544892D23700000919876501079082859100000145000210529350   TSMM      1622035821RTS0000000SH JAMISON                    00000000000000000000                21                      
903L001L5063200504094544892D23700001005100110133899142100000128000210529350   TSMM      1622035821RTS0000000S WHITEHEAD                   00000000000000000000                21                      
903L001L5263200504094544892D23700001163200504094544892100001535000210529100000TSMM      CONTRAUC2DB5P5BK2XZA                                                                                          
999L000000015                                                                                                                                                                                         
