000L2021040900000PAYPORT CONSULTING PTY LTD EFT000071007303                                                                                                                                           
010LD237000018001                                                                                                                                                                                     
011LD23763200500000040945448920120210227                                                                                                                                                              
013L5020210226004778051001000000007429085100000008500CRESCENT1 CUS0058677          03600000000000                M ARENDSE                                                                            
014L0000000010000000000000000000742908510000000000850000000000000000                                                                                                                                  
011LD23763200500000040945448920120210326                                                                                                                                                              
013L5020210325001982051001000000007429085100000008500CRESCENT1 CUS0058677          03600000000000                M ARENDSE                                                                            
013L5020210325002572051001000000000175034800000008500CRESCENT1 CUS0006406          03000000000000                M AHMED                                                                              
014L0000000020000000000000000000760411990000000001700000000000000000                                                                                                                                  
019L0000000030000000000000000001503320500000000002550000000000000000                                                                                                                                  
999L000000011                                                                                                                                                                                         
