000L2021031600000PAYPORT CONSULTING PTY LTD EFT000067407303                                                                                                                                           
010LD237000015801                                                                                                                                                                                     
011LD23763200500000040945448920120210220                                                                                                                                                              
013L5020210219000078632005000000930258876900000006900CRESCENT1 CUS0058915          03092801000078                S KRIEL                                                                              
014L0000000010000000000000000093025887690000000000690000000000000000                                                                                                                                  
011LD23763200500000040945448920120210227                                                                                                                                                              
013L5020210226002671198765000000110761903300000008500CRESCENT1 CUS0040472          03000000000000                M ISAACS                                                                             
013L5020210226002155470010000000138873792000000016000CRESCENT1 CUS0011648          03200000000000                F HARTLEY                                                                            
013L5020210226005449051001000000007169170700000007500CRESCENT1 CUS0050615          03400000000000                S HOWELL                                                                             
014L0000000030000000000000000025680486600000000003200000000000000000                                                                                                                                  
011LD23763200500000040945448920120210316                                                                                                                                                              
013L5020210315000814470010000000105654067200000008500CRESCENT1 CUS0044801          02682502000814                M DENNIS GREEN                                                                       
013L5020210315000991250655000000624475541300000008500CRESCENT1 CUS0058256          02682502000991                F SHIEK                                                                              
013L5020210315000608632005000000408758670600000007500CRESCENT1 CUS0026240          02683002000608                F ISMAIL                                                                             
013L5020210315000139632005000000408004439100000008500CRESCENT1 CUS0039235          02682502000139                Y MOTARA                                                                             
013L5020210315000335800000000000100725262100000007500CRESCENT1 CUS0055687          02682502000335                A WILLIAMS                                                                           
013L5020210315000628250655000000623446672600000008500CRESCENT1 CUS0026487          02682502000628                A NGWABENI                                                                           
013L5020210315000569250655000006216647202500000008500CRESCENT1 CUS0042928          02682502000569                S AMOD                                                                               
013L5020210315000806250655000006277596098500000000000CRESCENT1 CUS0057577          89981059000806                W DAMON                                                                              
013L5020210315000320198765000000108762174100000007500CRESCENT1 CUS0020198          02682502000320                S OMAR                                                                               
013L5020210315000054632005000000432557004100000008500CRESCENT1 CUS0038710          02683002000054                R MOHAMMED                                                                           
014L0000000100000000000000001530662713210000000007350000000000000000                                                                                                                                  
019L0000000140000000000000001649369087500000000011240000000000000000                                                                                                                                  
999L000000024                                                                                                                                                                                         
