000L2021020100000PAYPORT CONSULTING PTY LTD EFT000061207303                                                                                                                                           
010LD237000009801                                                                                                                                                                                     
011LD23763200500000040945448920120210130                                                                                                                                                              
013L5020210129001330632005000000404449431600000007500CRESCENT1 CUS0027537          00292803001330                I MOHAMED                                                                            
013L5020210129000244632005000000406494029000000008500CRESCENT1 CUS0032135          00292803000244                T PATEL                                                                              
013L5020210129000813632005000000407817669900000016000CRESCENT1 CUS0026481          00292803000813                N VADI                                                                               
013L5020210129002266632005000000408489753400000016000CRESCENT1 CUS0001394          00292803002266                M DEAN                                                                               
013L5020210129000512632005000000408569038500000008500CRESCENT1 CUS0016718          00292803000512                L MAGNEY                                                                             
013L5020210129001764632005000000408661292800000008500CRESCENT1 CUS0040963          00292803001764                I MOOSA                                                                              
013L5020210129001278632005000000408906242900000016000CRESCENT1 CUS0055379          00292803001278                N DAVIDS                                                                             
013L5020210129000599632005000000409902677000000008500CRESCENT1 CUS0057911          00292803000599                A RYLANDS                                                                            
013L5020210129000798632005000000916000109000000008500CRESCENT1 CUS0054419          00292803000798                F CAJEE                                                                              
013L5020210129001551632005000000927114369400000008500CRESCENT1 CUS0055971          00292803001551                F PARKER                                                                             
013L5020210129000280632005000000933415514200000016000CRESCENT1 CUS0059243          00292803000280                F LEVY                                                                               
013L5020210129001723632005000000935291226500000008500CRESCENT1 CUS0058658          03092801001723                G GASNODIEN                                                                          
014L0000000120000000000000000697511135420000000013100000000000000000                                                                                                                                  
019L0000000120000000000000000697511135420000000013100000000000000000                                                                                                                                  
010LD237000009908                                                                                                                                                                                     
011LD23763200500000040945448920120210127                                                                                                                                                              
013L5020210127003218632005000000018014499400000008500CRESCENT1 CUS0032424          03492801003218                S KARLIE                                                                             
013L5020210127000925632005000000408918479600000008500CRESCENT1 CUS0053225          03292801000925                S SAMUELS                                                                            
014L0000000020000000000000000042693297900000000001700000000000000000                                                                                                                                  
019L0000000020000000000000000042693297900000000001700000000000000000                                                                                                                                  
999L000000024                                                                                                                                                                                         
