000L2021052300000PAYPORT CONSULTING PTY LTD EFT000077607303                                                                                                                                           
010LD237000022001                                                                                                                                                                                     
011LD23763200500000040945448920120210416                                                                                                                                                              
013L5020210415000445051001000000041052822600000008500CRESCENT1 CUS0059024          03600000000000                R NAZIER                                                                             
014L0000000010000000000000000004105282260000000000850000000000000000                                                                                                                                  
011LD23763200500000040945448920120210430                                                                                                                                                              
013L5020210429000937470010000000158199298800000008500CRESCENT1 CUS0059584          03400000000000                R ALEXANDRA                                                                          
014L0000000010000000000000000015819929880000000000850000000000000000                                                                                                                                  
011LD23763200500000040945448920120210514                                                                                                                                                              
013L5020210513000405051001000000041052822600000008500CRESCENT1 CUS0059024          03600000000000                R NAZIER                                                                             
014L0000000010000000000000000004105282260000000000850000000000000000                                                                                                                                  
011LD23763200500000040945448920120210521                                                                                                                                                              
013L5020210520000037470010000000130797936800000016000CRESCENT1 CUS0036620          00600000000000                K KIVIDO                                                                             
013L5020210520000356051001000001003271411200000008500CRESCENT1 CUS0055812          00200000000000                M ALLIE                                                                              
013L5020210520000312470010000000156306484500000008500CRESCENT1 CUS0054401          00600000000000                S HOOSAIN                                                                            
013L5020210520000069470010000000169139825800000016000CRESCENT1 CUS0038281          00200000000000                A PETER                                                                              
013L5020210520000058051001000001008642687500000008500CRESCENT1 CUS0059262          00200000000000                F LIMBADA                                                                            
013L5020210520000143470010000000129784285300000008500CRESCENT1 CUS0044726          00200000000000                M EBRAHIM                                                                            
013L5020210520000026470010000000166890462200000008500CRESCENT1 CUS0058798          00200000000000                M ADAMS                                                                              
013L5020210520000358051001000000000038386400000008500CRESCENT1 CUS0055951          00200000000000                S KARODIA                                                                            
013L5020210520000368051001000001009422565400000008500CRESCENT1 CUS0056235          00200000000000                F VAN ZYLE                                                                           
013L5020210520000060051001000001013633186400000008500CRESCENT1 CUS0059309          00200000000000                M MOHAMED                                                                            
013L5020210520000074470010000000157262803900000008500CRESCENT1 CUS0059636          00200000000000                I GENEVA                                                                             
013L5020210520000346470010000000150543035400000016000CRESCENT1 CUS0055630          00200000000000                Q AJOUHAAR                                                                           
013L5020210520000378470010000000143792551900000008500CRESCENT1 CUS0057067          00600000000000                Y MUSTAPHA                                                                           
013L5020210520000310051001000000040353837800000008500CRESCENT1 CUS0054335          00200000000000                W MEYER                                                                              
013L5020210520000244470010000000138079673100000016000CRESCENT1 CUS0051036          00200000000000                N DAVIDS                                                                             
013L5020210520000392470010000000145335942500000008500CRESCENT1 CUS0057291          00200000000000                R ABRAHAMS FRIDIE                                                                    
013L5020210520000386470010000000156711557600000008500CRESCENT1 CUS0057162          00200000000000                N HERBERT                                                                            
013L5020210520000070470010000000137453407000000008500CRESCENT1 CUS0059500          00200000000000                K DAVIDS                                                                             
013L5020210520000298051001000000008298883800000008500CRESCENT1 CUS0053607          00200000000000                R ADAM                                                                               
013L5020210520000311051001000000000898191400000023500CRESCENT1 CUS0017140          00400000000000                A CHRISTIAN                                                                          
013L5020210520000130470010000000125016652500000008500CRESCENT1 CUS0043847          00200000000000                B ISAAC                                                                              
013L5020210520000090470010000000131819834600000006900CRESCENT1 CUS0040437          00200000000000                G SAMUELS                                                                            
014L0000000220000000000000000612349360300000000023040000000000000000                                                                                                                                  
019L0000000250000000000000000636379854700000000025590000000000000000                                                                                                                                  
999L000000037                                                                                                                                                                                         
