000L2021051800000PAYPORT CONSULTING PTY LTD EFT000076907303                                                                                                                                           
010LD237000021501                                                                                                                                                                                     
011LD23763200500000040945448920120210514                                                                                                                                                              
013L5020210513000145198765000000107546194400000008500CRESCENT1 CUS0058249          01200000000000                A SCHUTT                                                                             
013L5020210513000719198765000000113319081200000008500CRESCENT1 CUS0048273          01200000000000                K BENJAMIN                                                                           
013L5020210513000487198765000000121400628000000008500CRESCENT1 CUS0037386          01200000000000                E HENDRICKS                                                                          
013L5020210513000202220229000006203034348800000008500CRESCENT1 CUS0033467          01200000000000                A HAMIDU                                                                             
013L5020210513000309250942000006206548741700000008500CRESCENT1 CUS0052410          00600000000000                U MCKAY                                                                              
013L5020210513000696256505000006209503515300000008500CRESCENT1 CUS0017810          00200000000000                A QADER                                                                              
013L5020210513000932200510000006221856502800000007500CRESCENT1 CUS0056135          00200000000000                S HARIPARSAD                                                                         
013L5020210513000736198765000000105896260400000008500CRESCENT1 CUS0055165          00200000000000                K DE BRUIN                                                                           
013L5020210513001176221926000006242192609100000016000CRESCENT1 CUS0050791          01200000000000                D SAFLA                                                                              
013L5020210513001148270443000006219752274300000008500CRESCENT1 CUS0004066          00400000000000                M MOOSA                                                                              
013L5020210513000558220229000006206877376400000008500CRESCENT1 CUS0047485          00400000000000                M ISMAIL                                                                             
013L5020210513000445203109000006249320787500000008500CRESCENT1 CUS0059135          00200000000000                C MOOSA                                                                              
013L5020210513000094250141000006211820175600000008500CRESCENT1 CUS0051466          00200000000000                D BARNES                                                                             
013L5020210513001226250555000006258347842700000016000CRESCENT1 CUS0050913          00200000000000                N JANUARY                                                                            
013L5020210513000248198765000000102586777700000008500CRESCENT1 CUS0045441          00200000000000                Z ABADER                                                                             
013L5020210513001172198765000000119050593200000008500CRESCENT1 CUS0057430          00200000000000                A DAVIDS                                                                             
013L5020210513000170198765000000116511281700000008500CRESCENT1 CUS0058320          02600000000000                D AFRICA                                                                             
013L5020210513000113230202000006211304401000000008500CRESCENT1 CUS0044818          00200000000000                M NASSON                                                                             
013L5020210513000774231833000006206388589500000008500CRESCENT1 CUS0040348          01200000000000                Y BAYAT                                                                              
013L5020210513000275198765000000113971027300000008500CRESCENT1 CUS0058690          00200000000000                A AMLAY                                                                              
013L5020210513000997198765000000110738095200000008500CRESCENT1 CUS0056593          00200000000000                S TIMMS                                                                              
013L5020210513001086198765000000102823591700000007500CRESCENT1 CUS0050346          01800000000000                F ISAACS                                                                             
013L5020210513000101252245000006052901625100000008500CRESCENT1 CUS0006898          00400000000000                S AHMED                                                                              
013L5020210513000786252242000006252330131500000008500CRESCENT1 CUS0040487          00400000000000                M PANDOR                                                                             
013L5020210513000124250737000006253243920600000008500CRESCENT1 CUS0051618          00600000000000                D COERECIUS                                                                          
013L5020210513000873256955000006210507147700000008500CRESCENT1 CUS0020379          01200000000000                F KADIR                                                                              
013L5020210513000388254205000006210789239200000008500CRESCENT1 CUS0046323          00200000000000                O CANNELL                                                                            
013L5020210513000389198765000000100474484600000008500CRESCENT1 CUS0052770          02600000000000                S WILLIAMS                                                                           
013L5020210513001081203109000006248762232800000016000CRESCENT1 CUS0050336          00200000000000                F SEABORNE                                                                           
013L5020210513000471240139000005284002548300000008500CRESCENT1 CUS0014577          00200000000000                S ISAT                                                                               
013L5020210513001069222826000006255848932600000016000CRESCENT1 CUS0024885          00600000000000                M JOOSAB                                                                             
013L5020210513000532210224000006265673972200000016000CRESCENT1 CUS0037885          00600000000000                F KHAN                                                                               
013L5020210513001122198765000000115202694100000008500CRESCENT1 CUS0057207          00200000000000                Y WATERLOO                                                                           
013L5020210513000688200109000006209671820300000008500CRESCENT1 CUS0048197          00200000000000                F AMIEN                                                                              
013L5020210513000022240438000006248030796900000008500CRESCENT1 CUS0028939          01200000000000                Y MOWANDI                                                                            
013L5020210513000573250409000006252887573700000008500CRESCENT1 CUS0047529          00200000000000                W CONRADIE                                                                           
013L5020210513000781201909000006223341656100000008500CRESCENT1 CUS0019521          01200000000000                F ISAACS JOHNSON                                                                     
013L5020210513000875221426000006217428290600000008500CRESCENT1 CUS0049107          00200000000000                A ABDUL KARIM                                                                        
013L5020210513001003198765000000197072203700000031000CRESCENT1 CUS0001455          00200000000000                A ABDULLAH                                                                           
013L5020210513000249255355000006242169176900000008500CRESCENT1 CUS0052099          00400000000000                R ABDUL LATIFF                                                                       
013L5020210513001053632005000000911269044300000016000CRESCENT1 CUS0002449          00292803001053                R ALLI                                                                               
013L5020210513000767252505000006254117942100000008500CRESCENT1 CUS0048564          00200000000000                H MOTALA                                                                             
013L5020210513000861198765000000113861049600000016000CRESCENT1 CUS0020286          00200000000000                S SYLVESTER                                                                          
013L5020210513000286240139000006212533416000000008500CRESCENT1 CUS0010525          00400000000000                Y CARRIM                                                                             
013L5020210513000071250205000006215476251400000008500CRESCENT1 CUS0006551          00400000000000                O TIMMS                                                                              
013L5020210513001167250655000006276719041700000008500CRESCENT1 CUS0057409          00200000000000                C NOMDOE                                                                             
013L5020210513000713250141000006219857769800000008500CRESCENT1 CUS0018084          00200000000000                M ISAACS                                                                             
013L5020210513000625250655000006282938275400000006900CRESCENT1 CUS0059772          00200000000000                N MADATT                                                                             
013L5020210513000848201409000005026112727600000007500CRESCENT1 CUS0055835          00600000000000                F DAVIDS                                                                             
013L5020210513000020201509000006207102768700000008500CRESCENT1 CUS0057803          00200000000000                B PARKER                                                                             
013L5020210513000009201909000006206443702500000008500CRESCENT1 CUS0050924          00400000000000                Q RASDIEN                                                                            
013L5020210513000026250737000006208886794300000016000CRESCENT1 CUS0005477          00200000000000                A MAYET                                                                              
013L5020210513000859250114000006207510668500000006900CRESCENT1 CUS0048999          01200000000000                H MOOS                                                                               
013L5020210513000694221326000005389003109000000008500CRESCENT1 CUS0054795          00200000000000                A KHAN                                                                               
013L5020210513001218252505000006243022367800000023500CRESCENT1 CUS0004940          01200000000000                A KHAN                                                                               
013L5020210513001032261750000006234581966100000008500CRESCENT1 CUS0056892          00400000000000                S STANLEY                                                                            
013L5020210513000048270350000006237724441400000016000CRESCENT1 CUS0044685          00200000000000                M MOMLA                                                                              
013L5020210513000773250655000006280645390800000008500CRESCENT1 CUS0019387          00200000000000                R PANDOR                                                                             
013L5020210513000629198765000000106973420900000008500CRESCENT1 CUS0053767          02600000000000                S BENJAMIN                                                                           
013L5020210513000239200909000006242785419700000008500CRESCENT1 CUS0051962          00200000000000                F AHMED                                                                              
013L5020210513001074252245000006218802231400000008500CRESCENT1 CUS0025002          00200000000000                R MOHAMED                                                                            
013L5020210513000863250856000006215461506000000016000CRESCENT1 CUS0049027          00600000000000                N DEDZA                                                                              
013L5020210513000315250655000006281485359600000016000CRESCENT1 CUS0058841          01200000000000                R JOUBYAR                                                                            
013L5020210513000083210502000006208635403300000016000CRESCENT1 CUS0044792          00400000000000                L COETZEE                                                                            
013L5020210513000449198765000000192600895200000006900CRESCENT1 CUS0052990          01200000000000                Q TITIS                                                                              
013L5020210513000635250655000006285106726700000006900CRESCENT1 CUS0059785          00300000000000                R ISAACS                                                                             
013L5020210513000683250114000006258382926600000008500CRESCENT1 CUS0048157          00200000000000                R DAVIDS                                                                             
013L5020210513000342260546000006202434336100000016000CRESCENT1 CUS0036027          00200000000000                M ALLIBHAI DUDHAI                                                                    
013L5020210513000845250737000006212865996100000016000CRESCENT1 CUS0020135          01200000000000                A SULIMAN                                                                            
013L5020210513000424198765000000110869420900000008500CRESCENT1 CUS0052901          00200000000000                G ABRAHAMS                                                                           
013L5020210513000455250655000006285908833000000016000CRESCENT1 CUS0059178          01200000000000                S BASSIER                                                                            
013L5020210513000234260202000006267521888000000008500CRESCENT1 CUS0051888          00200000000000                A DOMINGO                                                                            
013L5020210513000313250737000006231739954200000008500CRESCENT1 CUS0045775          01800000000000                M MAZIBUKO                                                                           
013L5020210513000639250655000006280886641400000006900CRESCENT1 CUS0054409          00400000000000                S SCHROEDER                                                                          
013L5020210513000174198765000000104409125800000008500CRESCENT1 CUS0051767          00200000000000                S JAFFER                                                                             
013L5020210513001219252605000006202432059100000008500CRESCENT1 CUS0028000          00400000000000                M FAKIE                                                                              
014L0000000760000000000000035523823801340000000078500000000000000000                                                                                                                                  
019L0000000760000000000000035523823801340000000078500000000000000000                                                                                                                                  
999L000000082                                                                                                                                                                                         
