000L2021042000000PAYPORT CONSULTING PTY LTD EFT000072507303                                                                                                                                           
010LD237000018901                                                                                                                                                                                     
011LD23763200500000040945448920120210320                                                                                                                                                              
013L5020210319000009051001000000027055025900000008500CRESCENT1 CUS0045916          03400000000000                A JONES                                                                              
014L0000000010000000000000000002705502590000000000850000000000000000                                                                                                                                  
011LD23763200500000040945448920120210326                                                                                                                                                              
013L5020210325000600470010000000134404150500000008500CRESCENT1 CUS0059631          03000000000000                M ADAMS                                                                              
014L0000000010000000000000000013440415050000000000850000000000000000                                                                                                                                  
011LD23763200500000040945448920120210331                                                                                                                                                              
013L5020210330000035250655000006282682958500000025000ABSOLIT   1616938219RSD001    03600000000000                SHIRLEY DUNN                                                                         
014L0000000010000000000000000628268295850000000002500000000000000000                                                                                                                                  
011LD23763200500000040945448920120210416                                                                                                                                                              
013L5020210415000014201909000006206443702500000008500CRESCENT1 CUS0050924          00400000000000                Q RASDIEN                                                                            
013L5020210415000041261050000005060016673600000008500CRESCENT1 CUS0005085          00200000000000                I WILLIAMS                                                                           
013L5020210415001098252245000006218802231400000008500CRESCENT1 CUS0025002          00200000000000                R MOHAMED                                                                            
013L5020210415000547210224000006265673972200000016000CRESCENT1 CUS0037885          00600000000000                F KHAN                                                                               
013L5020210415000709221326000005389003109000000008500CRESCENT1 CUS0054795          00200000000000                A KHAN                                                                               
013L5020210415000511240139000005284002548300000008500CRESCENT1 CUS0014577          00200000000000                S ISAT                                                                               
013L5020210415000464198765000000192600895200000006900CRESCENT1 CUS0052990          01200000000000                Q TITIS                                                                              
013L5020210415000047240438000006248030796900000008500CRESCENT1 CUS0028939          01200000000000                Y MOWANDI                                                                            
013L5020210415000568220229000006206877376400000008500CRESCENT1 CUS0047485          00400000000000                M ISMAIL                                                                             
013L5020210415000171251542000006246180660900000016000CRESCENT1 CUS0007230          00200000000000                N KAROLIA                                                                            
013L5020210415000906256955000006210507147700000008500CRESCENT1 CUS0020379          01200000000000                F KADIR                                                                              
013L5020210415000605200109000006207738063300000008500CRESCENT1 CUS0059528          00200000000000                Z MOHAMED                                                                            
013L5020210415000200198765000000116511281700000008500CRESCENT1 CUS0058320          01200000000000                D AFRICA                                                                             
013L5020210415000864250856000006215461506000000016000CRESCENT1 CUS0049027          00600000000000                N DEDZA                                                                              
013L5020210415000521252445000006210797796200000016000CRESCENT1 CUS0014841          00200000000000                N LANGEVELDT                                                                         
013L5020210415000326240139000006212533416000000008500CRESCENT1 CUS0010525          00400000000000                Y CARRIM                                                                             
013L5020210415001212250342000006206529040600000008500CRESCENT1 CUS0004735          00200000000000                S KHAN                                                                               
013L5020210415000262252245000005529231198900000006900CRESCENT1 CUS0034034          00200000000000                M MAJAM                                                                              
013L5020210415000724198765000000113319081200000008500CRESCENT1 CUS0048273          01200000000000                K BENJAMIN                                                                           
013L5020210415000779231833000006206388589500000008500CRESCENT1 CUS0040348          01200000000000                Y BAYAT                                                                              
013L5020210415000536250655000006279654300900000008500CRESCENT1 CUS0014878          00400000000000                K DEWAN                                                                              
013L5020210415001170221926000006242192609100000016000CRESCENT1 CUS0050791          01200000000000                D SAFLA                                                                              
013L5020210415000967251705000006200913361200000008500CRESCENT1 CUS0000420          00200000000000                M PIENAAR                                                                            
013L5020210415000869250705000006235275996700000008500CRESCENT1 CUS0055852          00200000000000                R VAHIB                                                                              
013L5020210415000139250737000006253243920600000008500CRESCENT1 CUS0051618          00600000000000                D COERECIUS                                                                          
013L5020210415000753198765000000105896260400000008500CRESCENT1 CUS0055165          00200000000000                K DE BRUIN                                                                           
013L5020210415000654198765000000106973420900000008500CRESCENT1 CUS0053767          02600000000000                S BENJAMIN                                                                           
013L5020210415000131252245000006052901625100000008500CRESCENT1 CUS0006898          00400000000000                S AHMED                                                                              
013L5020210415000264255355000006242169176900000008500CRESCENT1 CUS0052099          00400000000000                R ABDUL LATIFF                                                                       
013L5020210415000532460005000000009247534500000006900CRESCENT1 CUS0037771          00200000000000                A JACOBS                                                                             
013L5020210415001167270443000006219752274300000008500CRESCENT1 CUS0004066          00400000000000                M MOOSA                                                                              
013L5020210415000101250205000006215476251400000008500CRESCENT1 CUS0006551          00400000000000                O TIMMS                                                                              
013L5020210415000128230202000006211304401000000008500CRESCENT1 CUS0044818          00200000000000                M NASSON                                                                             
013L5020210415000395201509000006256294723700000006900CRESCENT1 CUS0058914          00400000000000                A MUKADAM                                                                            
013L5020210415000675250655000006285106726700000006900CRESCENT1 CUS0059785          00300000000000                R ISAACS                                                                             
013L5020210415000132200510000006226631640700000016000CRESCENT1 CUS0031346          00200000000000                M MULLAJI                                                                            
013L5020210415000098210502000006208635403300000016000CRESCENT1 CUS0044792          00400000000000                L COETZEE                                                                            
013L5020210415000012231002000006210816120900000006900CRESCENT1 CUS0027512          00200000000000                E HASSAN                                                                             
013L5020210415001191250655000006276719041700000008500CRESCENT1 CUS0057409          00200000000000                C NOMDOE                                                                             
013L5020210415000640250655000006280807760700000008500CRESCENT1 CUS0059694          00200000000000                N GYER                                                                               
013L5020210415000594202309000005021001232900000016000CRESCENT1 CUS0053603          00200000000000                F MOSES                                                                              
013L5020210415000878250737000006212865996100000016000CRESCENT1 CUS0020135          00200000000000                A SULIMAN                                                                            
013L5020210415000026252505000006243022367800000023500CRESCENT1 CUS0004940          01200000000000                A KHAN                                                                               
013L5020210415000882632005000000405269611400000008500CRESCENT1 CUS0020155          00292803000882                F SAYED HASSAN                                                                       
013L5020210415001103250655000006284419962100000008500CRESCENT1 CUS0025018          00200000000000                F FREDERICKS                                                                         
013L5020210415000912200410000006266262747400000008500CRESCENT1 CUS0049399          00200000000000                S ABRAHAMS                                                                           
013L5020210415001131051001000000007107363900000008500CRESCENT1 CUS0057118          00200000000000                A DANIELS                                                                            
013L5020210415000210470010000000113741808500000008500CRESCENT1 CUS0058339          03000000000000                Y DALVIE                                                                             
013L5020210415001066261750000006234581966100000008500CRESCENT1 CUS0056892          00400000000000                S STANLEY                                                                            
013L5020210415000403254205000006210789239200000008500CRESCENT1 CUS0046323          00200000000000                O CANNELL                                                                            
013L5020210415001093222826000006255848932600000016000CRESCENT1 CUS0024885          00600000000000                M JOOSAB                                                                             
013L5020210415000746250141000006219857769800000008500CRESCENT1 CUS0018084          00200000000000                M ISAACS                                                                             
013L5020210415000702258605000006207346724500000016000CRESCENT1 CUS0017470          01200000000000                A KHAN                                                                               
013L5020210415000737470010000000148440280200000016000CRESCENT1 CUS0055032          03000000000000                C DE VILLIERS                                                                        
013L5020210415000439198765000000110869420900000008500CRESCENT1 CUS0052901          00200000000000                G ABRAHAMS                                                                           
013L5020210415001032198765000000197072203700000031000CRESCENT1 CUS0001455          00200000000000                A ABDULLAH                                                                           
013L5020210415000331254605000006209031446100000015000CRESCENT1 CUS0010568          00200000000000                A MOHAMED                                                                            
013L5020210415001128251042000006221206080000000008500CRESCENT1 CUS0025446          00200000000000                F ROCKER                                                                             
013L5020210415000505250655000006271930836500000008500CRESCENT1 CUS0059217          00200000000000                A BRINKHUIS                                                                          
013L5020210415000434210528000006249898634100000008500CRESCENT1 CUS0052875          00200000000000                C ANDREWS                                                                            
013L5020210415000865201409000005026112727600000007500CRESCENT1 CUS0055835          00600000000000                F DAVIDS                                                                             
013L5020210415000814201909000006223341656100000008500CRESCENT1 CUS0019521          01200000000000                F ISAACS JOHNSON                                                                     
013L5020210415001151198765000000115202694100000008500CRESCENT1 CUS0057207          00200000000000                Y WATERLOO                                                                           
013L5020210415000367260546000006202434336100000016000CRESCENT1 CUS0036027          00200000000000                M ALLIBHAI DUDHAI                                                                    
013L5020210415000222220229000006203034348800000008500CRESCENT1 CUS0033467          01200000000000                A HAMIDU                                                                             
013L5020210415000004250555000006258347842700000016000CRESCENT1 CUS0050913          00200000000000                N JANUARY                                                                            
013L5020210415000860250114000006207510668500000006900CRESCENT1 CUS0048999          01200000000000                H MOOS                                                                               
013L5020210415000502198765000000121400628000000008500CRESCENT1 CUS0037386          01200000000000                E HENDRICKS                                                                          
013L5020210415000389198765000000260718895400000008500CRESCENT1 CUS0052750          00400000000000                B HAFFEJEE                                                                           
013L5020210415000404198765000000100474484600000008500CRESCENT1 CUS0052770          02600000000000                S WILLIAMS                                                                           
013L5020210415001080198765000000102823591700000007500CRESCENT1 CUS0050346          03200000000000                F ISAACS                                                                             
013L5020210415001196198765000000119050593200000008500CRESCENT1 CUS0057430          00200000000000                A DAVIDS                                                                             
013L5020210415000345250655000006281485359600000016000CRESCENT1 CUS0058841          00400000000000                R JOUBYAR                                                                            
013L5020210415000324250942000006206548741700000008500CRESCENT1 CUS0052410          00600000000000                U MCKAY                                                                              
013L5020210415000170198765000000107546194400000008500CRESCENT1 CUS0058249          01200000000000                A SCHUTT                                                                             
013L5020210415001031198765000000110738095200000008500CRESCENT1 CUS0056593          00200000000000                S TIMMS                                                                              
013L5020210415001138210054000006230954179700000008500CRESCENT1 CUS0025718          00200000000000                M KARRIM                                                                             
014L0000000770000000000000035163495129940000000079780000000000000000                                                                                                                                  
019L0000000800000000000000035807909343430000000083980000000000000000                                                                                                                                  
999L000000092                                                                                                                                                                                         
