000L2020111900000PAYPORT CONSULTING PTY LTD    000051107303                                                                                                                                           
900L000 TRANSMISSION 07303-0000028 ACCEPTED                                                                                                                                                           
900L001 ACB USER SET D237-0000032-000012 ACCEPTED                                                                                                                                                     
903L001L5063200504094544892D23700000163200504058597732100000000100201120410   PAYPORT                       DEAN STEENKAMP                00000000000000000000                21                      
903L001L5063200504094544892D23700000263200504058597732100000000100201120410   PAYPORT                       DEAN STEENKAMP                00000000000000000000                21                      
903L001L5063200504094544892D23700000363200504058597732100000000100201120410   PAYPORT                       DEAN STEENKAMP                00000000000000000000                21                      
903L001L5063200504094544892D23700000463200504058597732100000000100201120410   PAYPORT                       DEAN STEENKAMP                00000000000000000000                21                      
903L001L5063200504094544892D23700000563200504058597732100000000100201120410   PAYPORT                       DEAN STEENKAMP                00000000000000000000                21                      
903L001L5063200504094544892D23700000663200504058597732100000000100201120410   PAYPORT                       DEAN STEENKAMP                00000000000000000000                21                      
903L001L5063200504094544892D23700000763200504058597732100000000100201120410   PAYPORT                       DEAN STEENKAMP                00000000000000000000                21                      
903L001L5063200504094544892D23700000863200504058597732100000000100201120410   PAYPORT                       DEAN STEENKAMP                00000000000000000000                21                      
903L001L5063200504094544892D23700000963200504058597732100000000100201120410   PAYPORT                       DEAN STEENKAMP                00000000000000000000                21                      
903L001L5063200504094544892D23700001063200504058597732100000000100201120410   PAYPORT                       DEAN STEENKAMP                00000000000000000000                21                      
903L001L5063200504094544892D23700001125065562347517974100000000100201120410   PAYPORT                       WARDA KHAN                    00000000000000000000                21                      
903L001L5263200504094544892D23700001263200504094544892100000001100201120100000PAYPORT   CONTRADY8VLM0T8CXW49                                                                                          
999L000000016                                                                                                                                                                                         
