000L2021011500000PAYPORT CONSULTING PTY LTD    000058707303                                                                                                                                           
900L000 TRANSMISSION 07303-0000047 ACCEPTED                                                                                                                                                           
900L001 ACB USER SET D237-0000051-001256 ACCEPTED                                                                                                                                                     
903L001L5063200504094544892D23700000163200504068817457100000008500210116350   CRESCENT1 CUS0007481          M RAJAN                       00000000000000000000                21                      
903L001L5063200504094544892D23700000205100100200374133100000008500210116350   CRESCENT1 CUS0032484          S SALIE                       00000000000000000000                21                      
903L001L5063200504094544892D23700000325065560027267405100000008500210116350   CRESCENT1 CUS0045040          F HANSLO                      00000000000000000000                21                      
903L001L5063200504094544892D23700000463200504066461202100000008500210116350   CRESCENT1 CUS0051641          R SOOSIE                      00000000000000000000                21                      
903L001L5063200504094544892D23700000563200509244343956100000008500210116350   CRESCENT1 CUS0057875          A SAMUELS                     00000000000000000000                21                      
903L001L5063200504094544892D23700000625065562178253135100000016000210116350   CRESCENT1 CUS0007763          N LUTCHKA                     00000000000000000000                21                      
903L001L5063200504094544892D23700000725065560085534599100000008500210116350   CRESCENT1 CUS0032764          F MOHAMED                     00000000000000000000                21                      
903L001L5063200504094544892D23700000825065550010007158100000006900210116350   CRESCENT1 CUS0045059          A DANIELS                     00000000000000000000                21                      
903L001L5063200504094544892D23700000925065562646024729100000008500210116350   CRESCENT1 CUS0051660          G DAVIDS                      00000000000000000000                21                      
903L001L5063200504094544892D23700001047001001165854765200000006900210116350   CRESCENT1 CUS0057902          J SCHROEDER                   00000000000000000000                21                      
903L001L5063200504094544892D23700001125065562390019620100000008500210116350   CRESCENT1 CUS0007798          A SHAIK                       00000000000000000000                21                      
903L001L5063200504094544892D23700001225065562165324220100000008500210116350   CRESCENT1 CUS0032765          R WALLJEE                     00000000000000000000                21                      
903L001L5063200504094544892D23700001325065550151708649100000008500210116350   CRESCENT1 CUS0045067          F SAYED                       00000000000000000000                21                      
903L001L5063200504094544892D23700001405100100073160903100000008500210116350   CRESCENT1 CUS0051668          G NOLAN                       00000000000000000000                21                      
903L001L5063200504094544892D23700001525065562553992829100000008500210116350   CRESCENT1 CUS0057934          S MAMOTH                      00000000000000000000                21                      
903L001L5063200504094544892D23700001663200509004532326100000015000210116350   CRESCENT1 CUS0007898          R BHAYAT                      00000000000000000000                21                      
903L001L5063200504094544892D23700001705100100272878618100000008500210116350   CRESCENT1 CUS0032772          M MANUEL                      00000000000000000000                21                      
903L001L5063200504094544892D23700001805100100005427614100000008500210116350   CRESCENT1 CUS0045071          F ASVAT                       00000000000000000000                21                      
903L001L5063200504094544892D23700001905100100081468695100000008500210116350   CRESCENT1 CUS0051672          G ISMAIL                      00000000000000000000                21                      
903L001L5063200504094544892D23700002005100100007245551100000008500210116350   CRESCENT1 CUS0057943          S BENJAMIN                    00000000000000000000                21                      
903L001L5063200504094544892D23700002125065562393925270100000015000210116350   CRESCENT1 CUS0008031          A MAHOMED                     00000000000000000000                21                      
903L001L5063200504094544892D23700002205100100001296108100000008500210116350   CRESCENT1 CUS0032895          I CANTHITOO                   00000000000000000000                21                      
903L001L5063200504094544892D23700002319876501963260147100000008500210116350   CRESCENT1 CUS0045137          M HOLLARD                     00000000000000000000                21                      
903L001L5063200504094544892D23700002463200504088648315100000008500210116350   CRESCENT1 CUS0051697          R ROSE                        00000000000000000000                21                      
903L001L5063200504094544892D23700002505100100271941030100000008500210116350   CRESCENT1 CUS0057956          M KARAN                       00000000000000000000                21                      
903L001L5063200504094544892D23700002605100100060818867100000008500210116350   CRESCENT1 CUS0008257          Z DADA                        00000000000000000000                21                      
903L001L5063200504094544892D23700002725065562746910167100000007500210116350   CRESCENT1 CUS0033203          S OBARAY                      00000000000000000000                21                      
903L001L5063200504094544892D23700002805100100135865034100000008500210116350   CRESCENT1 CUS0045145          Y SULIEMAN                    00000000000000000000                21                      
903L001L5063200504094544892D23700002947001001450214604200000008500210116350   CRESCENT1 CUS0051711          R SAMUELS                     00000000000000000000                21                      
903L001L5063200504094544892D23700003047001001239718916200000008500210116350   CRESCENT1 CUS0057960          Y MOSES                       00000000000000000000                21                      
903L001L5063200504094544892D23700003105100100010620842100000008500210116350   CRESCENT1 CUS0008346          H CASSIM                      00000000000000000000                21                      
903L001L5063200504094544892D23700003205100100310914728100000008500210116350   CRESCENT1 CUS0033257          F HENDRICKS                   00000000000000000000                21                      
903L001L5063200504094544892D23700003305100100636402142100000008500210116350   CRESCENT1 CUS0045202          R KHADER                      00000000000000000000                21                      
903L001L5063200504094544892D23700003405100100032238657100000008500210116350   CRESCENT1 CUS0051726          S WAHAB                       00000000000000000000                21                      
903L001L5063200504094544892D23700003525065562558654630100000008500210116350   CRESCENT1 CUS0058019          A BHAM                        00000000000000000000                21                      
903L001L5063200504094544892D23700003605100100243269870100000008500210116350   CRESCENT1 CUS0008495          T LAHER                       00000000000000000000                21                      
903L001L5063200504094544892D23700003725065562118294529100000008500210116350   CRESCENT1 CUS0033261          I VALLEE                      00000000000000000000                21                      
903L001L5063200504094544892D23700003863200509102165276100000008500210116350   CRESCENT1 CUS0045212          S JOOMA                       00000000000000000000                21                      
903L001L5063200504094544892D23700003925065562508671965100000008500210116350   CRESCENT1 CUS0051729          A SOLOMON                     00000000000000000000                21                      
903L001L5063200504094544892D23700004047001001187206588200000006900210116350   CRESCENT1 CUS0058030          A ADAMS                       00000000000000000000                21                      
903L001L5063200504094544892D23700004105100100030289491100000008500210116350   CRESCENT1 CUS0008847          G SHAAH                       00000000000000000000                21                      
903L001L5063200504094544892D23700004247001001715042458200000008500210116350   CRESCENT1 CUS0033411          S MAPHUMULO                   00000000000000000000                21                      
903L001L5063200504094544892D23700004319876502668175348200000008500210116350   CRESCENT1 CUS0045289          Z ISMAIL                      00000000000000000000                21                      
903L001L5063200504094544892D23700004447001001548705711200000008500210116350   CRESCENT1 CUS0051744          B BIRCH                       00000000000000000000                21                      
903L001L5063200504094544892D23700004547001001146646192200000008500210116350   CRESCENT1 CUS0058048          F TOEFEY                      00000000000000000000                21                      
903L001L5063200504094544892D23700004663200504040850380100000008500210116350   CRESCENT1 CUS0008914          A THOMAS                      00000000000000000000                21                      
903L001L5063200504094544892D23700004725065562030343488100000008500210116350   CRESCENT1 CUS0033467          A HAMIDU                      00000000000000000000                21                      
903L001L5063200504094544892D23700004805100100634530348100000008500210116350   CRESCENT1 CUS0045292          S BHAM                        00000000000000000000                21                      
903L001L5063200504094544892D23700004925065562048355508100000008500210116350   CRESCENT1 CUS0051772          A SARLIE ENUS                 00000000000000000000                21                      
903L001L5063200504094544892D23700005047001001237871512200000008500210116350   CRESCENT1 CUS0058080          M WILLIAMS                    00000000000000000000                21                      
903L001L5063200504094544892D23700005163200509057948599100000008500210116350   CRESCENT1 CUS0008921          J HUSSEIN                     00000000000000000000                21                      
903L001L5063200504094544892D23700005205100100310714354100000008500210116350   CRESCENT1 CUS0033484          Y KHAN                        00000000000000000000                21                      
903L001L5063200504094544892D23700005363200509298077020100000016000210116350   CRESCENT1 CUS0045325          M MIRZA                       00000000000000000000                21                      
903L001L5063200504094544892D23700005463200509187874315100000008500210116350   CRESCENT1 CUS0051788          M KARIEM                      00000000000000000000                21                      
903L001L5063200504094544892D23700005525065562533430089100000008500210116350   CRESCENT1 CUS0058082          C GUSHA                       00000000000000000000                21                      
903L001L5063200504094544892D23700005625065562044314243100000008500210116350   CRESCENT1 CUS0008927          A ADAMJEE                     00000000000000000000                21                      
903L001L5063200504094544892D23700005725065562237877553100000008500210116350   CRESCENT1 CUS0033553          M ESSAY                       00000000000000000000                21                      
903L001L5063200504094544892D23700005819876501789008360100000008500210116350   CRESCENT1 CUS0045326          A KHAN                        00000000000000000000                21                      
903L001L5063200504094544892D23700005905100100072916303100000008500210116350   CRESCENT1 CUS0051793          F GALVAAN                     00000000000000000000                21                      
903L001L5063200504094544892D23700006047001001258107811200000008500210116350   CRESCENT1 CUS0058087          N HENDRICKS                   00000000000000000000                21                      
903L001L5063200504094544892D23700006105100100225347296100000008500210116350   CRESCENT1 CUS0008928          K STEELE                      00000000000000000000                21                      
903L001L5063200504094544892D23700006225065562088525484100000008500210116350   CRESCENT1 CUS0033736          K MOOLA                       00000000000000000000                21                      
903L001L5063200504094544892D23700006325065562463070244100000016000210116350   CRESCENT1 CUS0045347          F BHAIZI                      00000000000000000000                21                      
903L001L5063200504094544892D23700006425065555281473980100000007500210116350   CRESCENT1 CUS0051797          A ISMAIL                      00000000000000000000                21                      
903L001L5063200504094544892D23700006525065562486474241100000008500210116350   CRESCENT1 CUS0058103          R JOSEPH                      00000000000000000000                21                      
903L001L5063200504094544892D23700006625065562407586877100000008500210116350   CRESCENT1 CUS0009023          M IBRAHIM                     00000000000000000000                21                      
903L001L5063200504094544892D23700006719876501066288593100000031000210116350   CRESCENT1 CUS0033745          A REDDY                       00000000000000000000                21                      
903L001L5063200504094544892D23700006863200504057037199100000008500210116350   CRESCENT1 CUS0045364          Y AMLA                        00000000000000000000                21                      
903L001L5063200504094544892D23700006905100110077751548100000007500210116350   CRESCENT1 CUS0051798          F HASSIM                      00000000000000000000                21                      
903L001L5063200504094544892D23700007025065562674991396100000008500210116350   CRESCENT1 CUS0058110          M ABDEROUF                    00000000000000000000                21                      
903L001L5063200504094544892D23700007163200504066848696100000008500210116350   CRESCENT1 CUS0009054          Z AYOB                        00000000000000000000                21                      
903L001L5063200504094544892D23700007219876501048946320100000016000210116350   CRESCENT1 CUS0033754          S MOHAMED                     00000000000000000000                21                      
903L001L5063200504094544892D23700007325065562726643754100000007500210116350   CRESCENT1 CUS0045408          N PIRIA                       00000000000000000000                21                      
903L001L5063200504094544892D23700007447001001287835358200000008500210116350   CRESCENT1 CUS0051827          S ISMAIL                      00000000000000000000                21                      
903L001L5063200504094544892D23700007547001001694512779200000006900210116350   CRESCENT1 CUS0058121          A LAKAY                       00000000000000000000                21                      
903L001L5063200504094544892D23700007663200509189952727100000008500210116350   CRESCENT1 CUS0009221          R BALA                        00000000000000000000                21                      
903L001L5063200504094544892D23700007725065560008136124100000006900210116350   CRESCENT1 CUS0033913          A JAPPIE                      00000000000000000000                21                      
903L001L5063200504094544892D23700007825065562243000172100000008500210116350   CRESCENT1 CUS0045439          N OSMAN                       00000000000000000000                21                      
903L001L5063200504094544892D23700007947001001555432997200000008500210116350   CRESCENT1 CUS0051829          F GABIER                      00000000000000000000                21                      
903L001L5063200504094544892D23700008063200509300481373100000006900210116350   CRESCENT1 CUS0058138          F HOCEME                      00000000000000000000                21                      
903L001L5063200504094544892D23700008163200509093394790100000008500210116350   CRESCENT1 CUS0009249          M RAJAH                       00000000000000000000                21                      
903L001L5063200504094544892D23700008247001001364667140200000008500210116350   CRESCENT1 CUS0033918          S HUNTER                      00000000000000000000                21                      
903L001L5063200504094544892D23700008319876501014351707100000008500210116350   CRESCENT1 CUS0045440          A AKHALWAYA                   00000000000000000000                21                      
903L001L5063200504094544892D23700008419876501003980295100000008500210116350   CRESCENT1 CUS0051835          A SAMAAI                      00000000000000000000                21                      
903L001L5063200504094544892D23700008519876501180826574100000008500210116350   CRESCENT1 CUS0058141          L HENDRICKS                   00000000000000000000                21                      
903L001L5063200504094544892D23700008625065562010070465100000008500210116350   CRESCENT1 CUS0009301          A ALI                         00000000000000000000                21                      
903L001L5063200504094544892D23700008725065562014628062100000008500210116350   CRESCENT1 CUS0034127          A ROSENBERG                   00000000000000000000                21                      
903L001L5063200504094544892D23700008819876501025867777100000008500210116350   CRESCENT1 CUS0045441          Z ABADER                      00000000000000000000                21                      
903L001L5063200504094544892D23700008980000078600113784200000008500210116350   CRESCENT1 CUS0051866          A RAHMAN                      00000000000000000000                21                      
903L001L5063200504094544892D23700009047001001512448549200000008500210116350   CRESCENT1 CUS0058159          D JULIUS                      00000000000000000000                21                      
903L001L5063200504094544892D23700009163200509136748715100000008500210116350   CRESCENT1 CUS0009745          T MOOSA                       00000000000000000000                21                      
903L001L5063200504094544892D23700009205100100062081195100000008500210116350   CRESCENT1 CUS0034290          Z LINX                        00000000000000000000                21                      
903L001L5063200504094544892D23700009319876501953471226100000008500210116350   CRESCENT1 CUS0045472          A HANSA                       00000000000000000000                21                      
903L001L5063200504094544892D23700009405100100052205363100000008500210116350   CRESCENT1 CUS0051874          N KHAN                        00000000000000000000                21                      
903L001L5063200504094544892D23700009505100110061659280100000008500210116350   CRESCENT1 CUS0058176          T ISMAIL                      00000000000000000000                21                      
903L001L5063200504094544892D23700009625065562036282276100000016000210116350   CRESCENT1 CUS0009796          F DHOOMAH                     00000000000000000000                21                      
903L001L5063200504094544892D23700009719876501956160868100000008500210116350   CRESCENT1 CUS0034748          G GOOL                        00000000000000000000                21                      
903L001L5063200504094544892D23700009863200509074811450100000008500210116350   CRESCENT1 CUS0045482          R BULBULIA                    00000000000000000000                21                      
903L001L5063200504094544892D23700009919876502282017625200000008500210116350   CRESCENT1 CUS0051885          N FREDRICKS                   00000000000000000000                21                      
903L001L5063200504094544892D23700010047001001567920266200000008500210116350   CRESCENT1 CUS0058180          D FISHER                      00000000000000000000                21                      
903L001L5063200504094544892D23700010125065562328109667100000008500210116350   CRESCENT1 CUS0009877          F TAYOB                       00000000000000000000                21                      
903L001L5063200504094544892D23700010205100100052823482100000008500210116350   CRESCENT1 CUS0034797          I MOTALA                      00000000000000000000                21                      
903L001L5063200504094544892D23700010325065562520425887100000006900210116350   CRESCENT1 CUS0045488          R MOHAMED                     00000000000000000000                21                      
903L001L5063200504094544892D23700010425065562675218880100000008500210116350   CRESCENT1 CUS0051888          A DOMINGO                     00000000000000000000                21                      
903L001L5063200504094544892D23700010547001001226704024200000008500210116350   CRESCENT1 CUS0058182          S JACOBS                      00000000000000000000                21                      
903L001L5063200504094544892D23700010625065562049613400100000023500210116350   CRESCENT1 CUS0009922          N JONES                       00000000000000000000                21                      
903L001L5063200504094544892D23700010719876502656384583200000008500210116350   CRESCENT1 CUS0034805          H KHAN                        00000000000000000000                21                      
903L001L5063200504094544892D23700010847001001541794271200000008500210116350   CRESCENT1 CUS0045511          N ADAM                        00000000000000000000                21                      
903L001L5063200504094544892D23700010947001001337181038200000008500210116350   CRESCENT1 CUS0051927          M EDWARDS                     00000000000000000000                21                      
903L001L5063200504094544892D23700011005100110073959519100000006900210116350   CRESCENT1 CUS0058187          A SAMPSON                     00000000000000000000                21                      
903L001L5063200504094544892D23700011163200509664039687100000014400210116350   CRESCENT1 CUS0010035          A NOOR MOHAMED                00000000000000000000                21                      
903L001L5063200504094544892D23700011225065562110306934100000008500210116350   CRESCENT1 CUS0034836          F KHAN                        00000000000000000000                21                      
903L001L5063200504094544892D23700011325065562481548629100000008500210116350   CRESCENT1 CUS0045557          F JADA                        00000000000000000000                21                      
903L001L5063200504094544892D23700011425065562427854197100000008500210116350   CRESCENT1 CUS0051962          F AHMED                       00000000000000000000                21                      
903L001L5063200504094544892D23700011547001001460979042200000008500210116350   CRESCENT1 CUS0058227          M ROBERTS                     00000000000000000000                21                      
903L001L5063200504094544892D23700011625065562032632433100000008500210116350   CRESCENT1 CUS0010180          A TELADIA                     00000000000000000000                21                      
903L001L5063200504094544892D23700011719876501205779353100000008500210116350   CRESCENT1 CUS0034974          H LEDIGA                      00000000000000000000                21                      
903L001L5063200504094544892D23700011825065562285394062100000008500210116350   CRESCENT1 CUS0045559          N VORAJEE                     00000000000000000000                21                      
903L001L5063200504094544892D23700011925065562343016441100000016000210116350   CRESCENT1 CUS0052113          R PETERSEN                    00000000000000000000                21                      
903L001L5063200504094544892D23700012047001001423530878200000008500210116350   CRESCENT1 CUS0058238          R ADAMS                       00000000000000000000                21                      
903L001L5063200504094544892D23700012119876501080912010100000016000210116350   CRESCENT1 CUS0010224          N AMERICA                     00000000000000000000                21                      
903L001L5063200504094544892D23700012225065550070010539100000008500210116350   CRESCENT1 CUS0035077          S ABRAHAMS                    00000000000000000000                21                      
903L001L5063200504094544892D23700012325065562307561333100000008500210116350   CRESCENT1 CUS0045589          M TIKLY                       00000000000000000000                21                      
903L001L5063200504094544892D23700012419876502080007807200000016000210116350   CRESCENT1 CUS0052126          M BADEROEN                    00000000000000000000                21                      
903L001L5063200504094544892D23700012525065562806861672100000008500210116350   CRESCENT1 CUS0058246          M PADIA                       00000000000000000000                21                      
903L001L5063200504094544892D23700012625065562055051694100000008500210116350   CRESCENT1 CUS0010451          I SEEDAT                      00000000000000000000                21                      
903L001L5063200504094544892D23700012705100100080670954100000006900210116350   CRESCENT1 CUS0035135          C AGHERDIEN                   00000000000000000000                21                      
903L001L5063200504094544892D23700012863200509184854641100000008500210116350   CRESCENT1 CUS0045651          U BODIAT                      00000000000000000000                21                      
903L001L5063200504094544892D23700012905100110094269627100000008500210116350   CRESCENT1 CUS0052134          F ISAACS                      00000000000000000000                21                      
903L001L5063200504094544892D23700013025065562772647338100000008500210116350   CRESCENT1 CUS0058247          R BASSIER                     00000000000000000000                21                      
903L001L5063200504094544892D23700013163200509045409200100000007500210116350   CRESCENT1 CUS0010506          K ABDULLA                     00000000000000000000                21                      
903L001L5063200504094544892D23700013225065562358782300100000008500210116350   CRESCENT1 CUS0035163          I HOOSAIN                     00000000000000000000                21                      
903L001L5063200504094544892D23700013325065550450216442100000008500210116350   CRESCENT1 CUS0045673          S EBRAHIM                     00000000000000000000                21                      
903L001L5063200504094544892D23700013447001001299344672200000008500210116350   CRESCENT1 CUS0052137          S MARIMUTHU                   00000000000000000000                21                      
903L001L5063200504094544892D23700013519876501075461944100000008500210116350   CRESCENT1 CUS0058249          A SCHUTT                      00000000000000000000                21                      
903L001L5063200504094544892D23700013663200509288814292100000008500210116350   CRESCENT1 CUS0010520          F CASSIM                      00000000000000000000                21                      
903L001L5063200504094544892D23700013705100100277752310100000008500210116350   CRESCENT1 CUS0035260          R MAKHUBELA                   00000000000000000000                21                      
903L001L5063200504094544892D23700013863200504055003152100000008500210116350   CRESCENT1 CUS0045698          R MAHDI                       00000000000000000000                21                      
903L001L5063200504094544892D23700013919876502081049619200000008500210116350   CRESCENT1 CUS0052139          F FAKIER                      00000000000000000000                21                      
903L001L5063200504094544892D23700014047001001501865186200000008500210116350   CRESCENT1 CUS0058251          S BEDAWALA                    00000000000000000000                21                      
903L001L5063200504094544892D23700014125065562125334160100000008500210116350   CRESCENT1 CUS0010525          Y CARRIM                      00000000000000000000                21                      
903L001L5063200504094544892D23700014205100100002526409100000008500210116350   CRESCENT1 CUS0035300          S MANGERA                     00000000000000000000                21                      
903L001L5063200504094544892D23700014347001001380451777200000016000210116350   CRESCENT1 CUS0045774          R BOSMAN                      00000000000000000000                21                      
903L001L5063200504094544892D23700014463200504082995053100000008500210116350   CRESCENT1 CUS0052143          T AMON                        00000000000000000000                21                      
903L001L5063200504094544892D23700014563200504082579998100000008500210116350   CRESCENT1 CUS0058254          Z SEEDAT                      00000000000000000000                21                      
903L001L5063200504094544892D23700014625065562090314461100000015000210116350   CRESCENT1 CUS0010568          A MOHAMED                     00000000000000000000                21                      
903L001L5063200504094544892D23700014725065562350055763100000016000210116350   CRESCENT1 CUS0035316          J EBRAHIM                     00000000000000000000                21                      
903L001L5063200504094544892D23700014825065562317399542100000008500210116350   CRESCENT1 CUS0045775          M MAZIBUKO                    00000000000000000000                21                      
903L001L5063200504094544892D23700014905100110075137389100000008500210116350   CRESCENT1 CUS0052227          A RAVAT                       00000000000000000000                21                      
903L001L5063200504094544892D23700015025065506244755413100000008500210116350   CRESCENT1 CUS0058256          F SHIEK                       00000000000000000000                21                      
903L001L5063200504094544892D23700015125065562259425950100000017000210116350   CRESCENT1 CUS0010647          F DOCKRAT                     00000000000000000000                21                      
903L001L5063200504094544892D23700015225065560529190914100000016000210116350   CRESCENT1 CUS0035586          A KLOLVADIA                   00000000000000000000                21                      
903L001L5063200504094544892D23700015305100100071200037100000008500210116350   CRESCENT1 CUS0045872          S HOOSAIN                     00000000000000000000                21                      
903L001L5063200504094544892D23700015425065562658687028100000008500210116350   CRESCENT1 CUS0052247          S JACOB                       00000000000000000000                21                      
903L001L5063200504094544892D23700015505100100071195327100000008500210116350   CRESCENT1 CUS0058264          M DOLLIE                      00000000000000000000                21                      
903L001L5063200504094544892D23700015625065562094608688100000016000210116350   CRESCENT1 CUS0010701          M LATIB                       00000000000000000000                21                      
903L001L5063200504094544892D23700015747001001210068239100000008500210116350   CRESCENT1 CUS0035591          M JOOMA                       00000000000000000000                21                      
903L001L5063200504094544892D23700015825065551240017660100000006900210116350   CRESCENT1 CUS0045889          A WADEE                       00000000000000000000                21                      
903L001L5063200504094544892D23700015963200504079173189100000008500210116350   CRESCENT1 CUS0052292          F FLOWERS                     00000000000000000000                21                      
903L001L5063200504094544892D23700016063200509353179430100000008500210116350   CRESCENT1 CUS0058276          J JACKSON                     00000000000000000000                21                      
903L001L5063200504094544892D23700016163200504059831777100000016000210116350   CRESCENT1 CUS0010752          M AMEER                       00000000000000000000                21                      
903L001L5063200504094544892D23700016263200504077784463100000008500210116350   CRESCENT1 CUS0035647          F SAYED                       00000000000000000000                21                      
903L001L5063200504094544892D23700016325065550250043657100000008500210116350   CRESCENT1 CUS0045897          W DALWAI                      00000000000000000000                21                      
903L001L5063200504094544892D23700016447001001535662490200000016000210116350   CRESCENT1 CUS0052294          M PHILLIPS                    00000000000000000000                21                      
903L001L5063200504094544892D23700016547001001576327017200000006900210116350   CRESCENT1 CUS0058314          S EBRAHIM                     00000000000000000000                21                      
903L001L5063200504094544892D23700016663200509133279898100000016000210116350   CRESCENT1 CUS0010951          F ACHHAVA                     00000000000000000000                21                      
903L001L5063200504094544892D23700016705100100331082861100000008500210116350   CRESCENT1 CUS0035698          K HUSSAIN SUILAMAN            00000000000000000000                21                      
903L001L5063200504094544892D23700016805100100201374455100000008500210116350   CRESCENT1 CUS0045902          N SHAIKJEE                    00000000000000000000                21                      
903L001L5063200504094544892D23700016925065562682736726100000008500210116350   CRESCENT1 CUS0052318          U ASMAL                       00000000000000000000                21                      
903L001L5063200504094544892D23700017019876501165112817100000008500210116350   CRESCENT1 CUS0058320          D AFRICA                      00000000000000000000                21                      
903L001L5063200504094544892D23700017125065553080030943100000016000210116350   CRESCENT1 CUS0010953          E HOOSEN                      00000000000000000000                21                      
903L001L5063200504094544892D23700017225065562756888015100000008500210116350   CRESCENT1 CUS0035718          W EDWARDS                     00000000000000000000                21                      
903L001L5063200504094544892D23700017363200509112293516100000008500210116350   CRESCENT1 CUS0045903          F ADAM AHMED                  00000000000000000000                21                      
903L001L5063200504094544892D23700017463200509317183421100000008500210116350   CRESCENT1 CUS0052330          N HARKER                      00000000000000000000                21                      
903L001L5063200504094544892D23700017547001001488120860200000008500210116350   CRESCENT1 CUS0058325          M FRANCIS                     00000000000000000000                21                      
903L001L5063200504094544892D23700017605100100001704419100000008500210116350   CRESCENT1 CUS0011279          I HAFFEJEE                    00000000000000000000                21                      
903L001L5063200504094544892D23700017719876501411214102100000007500210116350   CRESCENT1 CUS0035721          G KAKA                        00000000000000000000                21                      
903L001L5063200504094544892D23700017819876501970759143100000008500210116350   CRESCENT1 CUS0045904          B DANGOR                      00000000000000000000                21                      
903L001L5063200504094544892D23700017925065562065487417100000008500210116350   CRESCENT1 CUS0052410          U MCKAY                       00000000000000000000                21                      
903L001L5063200504094544892D23700018047001001206160797200000008500210116350   CRESCENT1 CUS0058336          Z BUFFAINS                    00000000000000000000                21                      
903L001L5063200504094544892D23700018105100100013710613100000008500210116350   CRESCENT1 CUS0011381          Z HASSEN                      00000000000000000000                21                      
903L001L5063200504094544892D23700018225065562487358064100000008500210116350   CRESCENT1 CUS0035828          M KHAN                        00000000000000000000                21                      
903L001L5063200504094544892D23700018363200504059881358100000016000210116350   CRESCENT1 CUS0045976          A HENDRICKS                   00000000000000000000                21                      
903L001L5063200504094544892D23700018463200509276840792100000008500210116350   CRESCENT1 CUS0052436          S BUCKS                       00000000000000000000                21                      
903L001L5063200504094544892D23700018547001001137418085200000008500210116350   CRESCENT1 CUS0058339          Y DALVIE                      00000000000000000000                21                      
903L001L5063200504094544892D23700018663200509288564110100000008500210116350   CRESCENT1 CUS0011404          A MOOSTAFA                    00000000000000000000                21                      
903L001L5063200504094544892D23700018747001001147301288200000008500210116350   CRESCENT1 CUS0035884          M GEORGE                      00000000000000000000                21                      
903L001L5063200504094544892D23700018863200504088993081100000016000210116350   CRESCENT1 CUS0045981          A SMITH                       00000000000000000000                21                      
903L001L5063200504094544892D23700018925065562610905377100000008500210116350   CRESCENT1 CUS0052451          M LATIFF                      00000000000000000000                21                      
903L001L5063200504094544892D23700019019876501051410274100000008500210116350   CRESCENT1 CUS0058347          S ISAACS                      00000000000000000000                21                      
903L001L5063200504094544892D23700019105100100052750612100000016000210116350   CRESCENT1 CUS0011471          A BISSESSUR                   00000000000000000000                21                      
903L001L5063200504094544892D23700019219876501128028832100000008500210116350   CRESCENT1 CUS0035969          A OSMAN                       00000000000000000000                21                      
903L001L5063200504094544892D23700019305100100004909186100000008500210116350   CRESCENT1 CUS0045990          M AZIZ                        00000000000000000000                21                      
903L001L5063200504094544892D23700019447001001114295947200000008500210116350   CRESCENT1 CUS0052457          N FICK                        00000000000000000000                21                      
903L001L5063200504094544892D23700019547001001620530013200000008500210116350   CRESCENT1 CUS0058369          M DAVIDS                      00000000000000000000                21                      
903L001L5063200504094544892D23700019658010510011274317100000016000210116350   CRESCENT1 CUS0011476          A ALLIE                       00000000000000000000                21                      
903L001L5063200504094544892D23700019725065560093721287100000008500210116350   CRESCENT1 CUS0036000          F PREGNOLATO                  00000000000000000000                21                      
903L001L5063200504094544892D23700019863200509020219831100000008500210116350   CRESCENT1 CUS0046071          G LAKAY                       00000000000000000000                21                      
903L001L5063200504094544892D23700019963200509101024893100000008500210116350   CRESCENT1 CUS0052481          S KHAN                        00000000000000000000                21                      
903L001L5063200504094544892D23700020005100110112068845100000008500210116350   CRESCENT1 CUS0058384          F HASWARAY                    00000000000000000000                21                      
903L001L5063200504094544892D23700020125065562062196392100000016000210116350   CRESCENT1 CUS0011580          F AMRA                        00000000000000000000                21                      
903L001L5063200504094544892D23700020219876501953429114100000008500210116350   CRESCENT1 CUS0036108          A BULBULIA                    00000000000000000000                21                      
903L001L5063200504094544892D23700020363200509257710607100000008500210116350   CRESCENT1 CUS0046110          R HUSPATEL                    00000000000000000000                21                      
903L001L5063200504094544892D23700020405100100271440546100000008500210116350   CRESCENT1 CUS0052485          G SAMUELS                     00000000000000000000                21                      
903L001L5063200504094544892D23700020519876501195842414100000008500210116350   CRESCENT1 CUS0058398          M JACOBS                      00000000000000000000                21                      
903L001L5063200504094544892D23700020605100100201119153100000008500210116350   CRESCENT1 CUS0011624          A HANSROD                     00000000000000000000                21                      
903L001L5063200504094544892D23700020725065562528667134100000023500210116350   CRESCENT1 CUS0036111          B MOOLA                       00000000000000000000                21                      
903L001L5063200504094544892D23700020863200509081452633100000008500210116350   CRESCENT1 CUS0046125          F CASSIEM                     00000000000000000000                21                      
903L001L5063200504094544892D23700020925065562121819421100000008500210116350   CRESCENT1 CUS0052495          M BAARTMAN                    00000000000000000000                21                      
903L001L5063200504094544892D23700021025065562365064981100000008500210116350   CRESCENT1 CUS0058405          R STRYDOM                     00000000000000000000                21                      
903L001L5063200504094544892D23700021125065562373090100100000016000210116350   CRESCENT1 CUS0011657          I MAHOMED                     00000000000000000000                21                      
903L001L5063200504094544892D23700021263200509097460361100000008500210116350   CRESCENT1 CUS0036125          A BHAYAT                      00000000000000000000                21                      
903L001L5063200504094544892D23700021325065550230038389100000008500210116350   CRESCENT1 CUS0046160          M KADER                       00000000000000000000                21                      
903L001L5063200504094544892D23700021419876501063966949100000008500210116350   CRESCENT1 CUS0052496          F LATIFF                      00000000000000000000                21                      
903L001L5063200504094544892D23700021525065560029276371100000008500210116350   CRESCENT1 CUS0058409          F DP PELT                     00000000000000000000                21                      
903L001L5063200504094544892D23700021605100100402178602100000008500210116350   CRESCENT1 CUS0011704          T ENNASSIRI                   00000000000000000000                21                      
903L001L5063200504094544892D23700021747001001213988223200000016000210116350   CRESCENT1 CUS0036127          E AJAM                        00000000000000000000                21                      
903L001L5063200504094544892D23700021825065550220091074100000016000210116350   CRESCENT1 CUS0046161          R DAWOOD - PARKER             00000000000000000000                21                      
903L001L5063200504094544892D23700021905100110042572051100000008500210116350   CRESCENT1 CUS0052502          F BEKKO                       00000000000000000000                21                      
903L001L5063200504094544892D23700022047001001254585433200000008500210116350   CRESCENT1 CUS0058447          P MANUEL                      00000000000000000000                21                      
903L001L5063200504094544892D23700022125065562047846889100000023500210116350   CRESCENT1 CUS0011777          A MIA                         00000000000000000000                21                      
903L001L5063200504094544892D23700022247001001422032645200000008500210116350   CRESCENT1 CUS0036139          F ASMAN                       00000000000000000000                21                      
903L001L5063200504094544892D23700022363200504090765763100000008500210116350   CRESCENT1 CUS0046178          M MOOLA                       00000000000000000000                21                      
903L001L5063200504094544892D23700022447001001356811351200000008500210116350   CRESCENT1 CUS0052578          F RAHMAN                      00000000000000000000                21                      
903L001L5063200504094544892D23700022547001001293256666200000008500210116350   CRESCENT1 CUS0058534          A ADAMS                       00000000000000000000                21                      
903L001L5063200504094544892D23700022605100100052691624100000008500210116350   CRESCENT1 CUS0011784          A PEER                        00000000000000000000                21                      
903L001L5063200504094544892D23700022719876501301374539100000008500210116350   CRESCENT1 CUS0036148          K USSUPH                      00000000000000000000                21                      
903L001L5063200504094544892D23700022863200504076920692100000008500210116350   CRESCENT1 CUS0046307          A PARKER                      00000000000000000000                21                      
903L001L5063200504094544892D23700022947001001164551386200000008500210116350   CRESCENT1 CUS0052592          S ROSENBERG                   00000000000000000000                21                      
903L001L5063200504094544892D23700023063200504085089017100000008500210116350   CRESCENT1 CUS0058548          R REDDY                       00000000000000000000                21                      
903L001L5063200504094544892D23700023125065562752038375100000008500210116350   CRESCENT1 CUS0011814          S LIMBADA                     00000000000000000000                21                      
903L001L5063200504094544892D23700023205100100073316237100000016000210116350   CRESCENT1 CUS0036271          S KOOTBODIEN                  00000000000000000000                21                      
903L001L5063200504094544892D23700023305100100012336459100000015400210116350   CRESCENT1 CUS0046312          F HOOSEN                      00000000000000000000                21                      
903L001L5063200504094544892D23700023405100100225891794100000008500210116350   CRESCENT1 CUS0052709          A KARANI                      00000000000000000000                21                      
903L001L5063200504094544892D23700023547001001317803890200000008500210116350   CRESCENT1 CUS0058554          S JOGEE ABDULLAH              00000000000000000000                21                      
903L001L5063200504094544892D23700023605100100026162970100000008500210116350   CRESCENT1 CUS0011839          M RAZAK                       00000000000000000000                21                      
903L001L5063200504094544892D23700023705100100168277409100000016000210116350   CRESCENT1 CUS0036314          F AKOONJEE                    00000000000000000000                21                      
903L001L5063200504094544892D23700023825065562107892392100000008500210116350   CRESCENT1 CUS0046323          O CANNELL                     00000000000000000000                21                      
903L001L5063200504094544892D23700023925065560529159093100000006900210116350   CRESCENT1 CUS0052747          N NAGDEE                      00000000000000000000                21                      
903L001L5063200504094544892D23700024047001001272153116200000008500210116350   CRESCENT1 CUS0058593          R SALIE                       00000000000000000000                21                      
903L001L5063200504094544892D23700024105100100016876202100000008500210116350   CRESCENT1 CUS0011930          S GAFOOR                      00000000000000000000                21                      
903L001L5063200504094544892D23700024205100100251329232100000008500210116350   CRESCENT1 CUS0036364          F FYZOO                       00000000000000000000                21                      
903L001L5063200504094544892D23700024325065562526538501100000008500210116350   CRESCENT1 CUS0046387          Y HASSEN                      00000000000000000000                21                      
903L001L5063200504094544892D23700024419876502607188954200000008500210116350   CRESCENT1 CUS0052750          B HAFFEJEE                    00000000000000000000                21                      
903L001L5063200504094544892D23700024547001001418218195200000008500210116350   CRESCENT1 CUS0058614          F BENJAMIN                    00000000000000000000                21                      
903L001L5063200504094544892D23700024663200504049030777100000008500210116350   CRESCENT1 CUS0011949          M GHASITHA                    00000000000000000000                21                      
903L001L5063200504094544892D23700024763200509267547929100000008500210116350   CRESCENT1 CUS0036372          A TARR                        00000000000000000000                21                      
903L001L5063200504094544892D23700024805100100332680401100000008500210116350   CRESCENT1 CUS0046391          M PAREKH                      00000000000000000000                21                      
903L001L5063200504094544892D23700024919876501349138002100000008500210116350   CRESCENT1 CUS0052765          S YUSUF                       00000000000000000000                21                      
903L001L5063200504094544892D23700025025065562075103053100000008500210116350   CRESCENT1 CUS0058616          M FILLIES                     00000000000000000000                21                      
903L001L5063200504094544892D23700025119876501018853057100000016000210116350   CRESCENT1 CUS0011992          F YUSSUF                      00000000000000000000                21                      
903L001L5063200504094544892D23700025225065562427849776100000008500210116350   CRESCENT1 CUS0036378          F KARA                        00000000000000000000                21                      
903L001L5063200504094544892D23700025347001001377843120200000008500210116350   CRESCENT1 CUS0046403          Y MOOSA                       00000000000000000000                21                      
903L001L5063200504094544892D23700025463200504075700340100000008500210116350   CRESCENT1 CUS0052766          A MOTLEKAR                    00000000000000000000                21                      
903L001L5063200504094544892D23700025547001001545282054200000008500210116350   CRESCENT1 CUS0058617          M FISHER                      00000000000000000000                21                      
903L001L5063200504094544892D23700025619876501107652715100000008500210116350   CRESCENT1 CUS0012177          M BHORAT                      00000000000000000000                21                      
903L001L5063200504094544892D23700025725065562155838439100000016000210116350   CRESCENT1 CUS0036446          I RANDEREE                    00000000000000000000                21                      
903L001L5063200504094544892D23700025805100100241331064100000008500210116350   CRESCENT1 CUS0046442          M HASSIM                      00000000000000000000                21                      
903L001L5063200504094544892D23700025925065562580987645100000008500210116350   CRESCENT1 CUS0052767          E WISE                        00000000000000000000                21                      
903L001L5063200504094544892D23700026019876501151587389100000006900210116350   CRESCENT1 CUS0058618          S ISMAIL                      00000000000000000000                21                      
903L001L5063200504094544892D23700026105100100001685236100000008500210116350   CRESCENT1 CUS0012561          N MOHAMED                     00000000000000000000                21                      
903L001L5063200504094544892D23700026225065562456852138100000008500210116350   CRESCENT1 CUS0036531          N SINGH                       00000000000000000000                21                      
903L001L5063200504094544892D23700026325065562505679748100000008500210116350   CRESCENT1 CUS0046517          M JHETAM                      00000000000000000000                21                      
903L001L5063200504094544892D23700026419876501004744846100000008500210116350   CRESCENT1 CUS0052770          S WILLIAMS                    00000000000000000000                21                      
903L001L5063200504094544892D23700026505100100070222762100000008500210116350   CRESCENT1 CUS0058669          S ABRAHAMS                    00000000000000000000                21                      
903L001L5063200504094544892D23700026605100100021138567100000008500210116350   CRESCENT1 CUS0012576          Y SEEDAT                      00000000000000000000                21                      
903L001L5063200504094544892D23700026725065562082941561100000008500210116350   CRESCENT1 CUS0036597          T AMLA                        00000000000000000000                21                      
903L001L5063200504094544892D23700026847001001207070597200000008500210116350   CRESCENT1 CUS0046628          Z OSMAN                       00000000000000000000                21                      
903L001L5063200504094544892D23700026963200506201590628100000008500210116350   CRESCENT1 CUS0052773          R HAMID                       00000000000000000000                21                      
903L001L5063200504094544892D23700027067891051007201166100000008500210116350   CRESCENT1 CUS0058671          Y LEE                         00000000000000000000                21                      
903L001L5063200504094544892D23700027125065562022446448100000008500210116350   CRESCENT1 CUS0012618          A ISMAIL                      00000000000000000000                21                      
903L001L5063200504094544892D23700027205100100050303198100000008500210116350   CRESCENT1 CUS0036617          R BENJAMIN                    00000000000000000000                21                      
903L001L5063200504094544892D23700027325065562189010558100000008500210116350   CRESCENT1 CUS0046676          S MANSOOR                     00000000000000000000                21                      
903L001L5063200504094544892D23700027425065562115970461100000008500210116350   CRESCENT1 CUS0052775          M ABRAHIEM                    00000000000000000000                21                      
903L001L5063200504094544892D23700027505100100277523001100000008500210116350   CRESCENT1 CUS0058682          F NAZ                         00000000000000000000                21                      
903L001L5063200504094544892D23700027605100110044546759100000006900210116350   CRESCENT1 CUS0012645          C TIMOL                       00000000000000000000                21                      
903L001L5063200504094544892D23700027705100100181519437100000008500210116350   CRESCENT1 CUS0036652          M ALLY                        00000000000000000000                21                      
903L001L5063200504094544892D23700027805100100032003900100000008500210116350   CRESCENT1 CUS0046723          M SHEKH                       00000000000000000000                21                      
903L001L5063200504094544892D23700027963200509018254388100000016000210116350   CRESCENT1 CUS0052804          A HENDRICKS                   00000000000000000000                21                      
903L001L5063200504094544892D23700028047001001340022565200000006900210116350   CRESCENT1 CUS0058688          M EDWARDS                     00000000000000000000                21                      
903L001L5063200504094544892D23700028105100100011360879100000008500210116350   CRESCENT1 CUS0012697          S AMOD                        00000000000000000000                21                      
903L001L5063200504094544892D23700028247001001239561936200000008500210116350   CRESCENT1 CUS0036674          S JHATAM                      00000000000000000000                21                      
903L001L5063200504094544892D23700028305100100272094935100000008500210116350   CRESCENT1 CUS0046741          A PARKER                      00000000000000000000                21                      
903L001L5063200504094544892D23700028425065562023671010100000008500210116350   CRESCENT1 CUS0052806          A MOOSA                       00000000000000000000                21                      
903L001L5063200504094544892D23700028519876501139710273100000008500210116350   CRESCENT1 CUS0058690          A AMLAY                       00000000000000000000                21                      
903L001L5063200504094544892D23700028619876501411391276100000016000210116350   CRESCENT1 CUS0012843          S KAJEE                       00000000000000000000                21                      
903L001L5063200504094544892D23700028705100100002530120100000016000210116350   CRESCENT1 CUS0036960          F KAFAAR                      00000000000000000000                21                      
903L001L5063200504094544892D23700028819876502546005804200000015000210116350   CRESCENT1 CUS0046743          J ALLIE                       00000000000000000000                21                      
903L001L5063200504094544892D23700028947001001364332033200000008500210116350   CRESCENT1 CUS0052851          T SMITH                       00000000000000000000                21                      
903L001L5063200504094544892D23700029047001001174426452200000008500210116350   CRESCENT1 CUS0058695          R DESAI                       00000000000000000000                21                      
903L001L5063200504094544892D23700029105100100002554216100000008500210116350   CRESCENT1 CUS0013042          D LAHER                       00000000000000000000                21                      
903L001L5063200504094544892D23700029225065562316632670100000008500210116350   CRESCENT1 CUS0036964          A MLAZI                       00000000000000000000                21                      
903L001L5063200504094544892D23700029305100100427278813100000008500210116350   CRESCENT1 CUS0046749          F MAHOMED                     00000000000000000000                21                      
903L001L5063200504094544892D23700029425065562498986341100000008500210116350   CRESCENT1 CUS0052875          C ANDREWS                     00000000000000000000                21                      
903L001L5063200504094544892D23700029547001001669371172100000008500210116350   CRESCENT1 CUS0058715          Y TAGODIEN                    00000000000000000000                21                      
903L001L5063200504094544892D23700029619876502940168083200000008500210116350   CRESCENT1 CUS0013134          S NABEE                       00000000000000000000                21                      
903L001L5063200504094544892D23700029725065562046274453100000008500210116350   CRESCENT1 CUS0037115          M DEMAINE                     00000000000000000000                21                      
903L001L5063200504094544892D23700029847001001390400377200000008500210116350   CRESCENT1 CUS0046788          N ALLIE                       00000000000000000000                21                      
903L001L5063200504094544892D23700029919876501108694209100000008500210116350   CRESCENT1 CUS0052901          G ABRAHAMS                    00000000000000000000                21                      
903L001L5063200504094544892D23700030063200504040872867100000008500210116350   CRESCENT1 CUS0058731          N EBRAHIM                     00000000000000000000                21                      
903L001L5063200504094544892D23700030119876502940168083200000007500210116350   CRESCENT1 CUS0013136          H NABEE                       00000000000000000000                21                      
903L001L5063200504094544892D23700030263200509099459209100000008500210116350   CRESCENT1 CUS0037124          F EBRAHIM                     00000000000000000000                21                      
903L001L5063200504094544892D23700030325065562544866520100000008500210116350   CRESCENT1 CUS0046790          A PAULSEN                     00000000000000000000                21                      
903L001L5063200504094544892D23700030447001001543912875200000008500210116350   CRESCENT1 CUS0052910          Z HOWARD                      00000000000000000000                21                      
903L001L5063200504094544892D23700030563200504083979010100000006900210116350   CRESCENT1 CUS0058776          F ARNOLD                      00000000000000000000                21                      
903L001L5063200504094544892D23700030663200509186984181100000008500210116350   CRESCENT1 CUS0013242          F KARANI                      00000000000000000000                21                      
903L001L5063200504094544892D23700030725065562025953432100000023500210116350   CRESCENT1 CUS0037152          G KADIR                       00000000000000000000                21                      
903L001L5063200504094544892D23700030863200509204862784100000008500210116350   CRESCENT1 CUS0046817          S AKOOJEE                     00000000000000000000                21                      
903L001L5063200504094544892D23700030947001001254816605200000008500210116350   CRESCENT1 CUS0052927          M TIFFLIN                     00000000000000000000                21                      
903L001L5063200504094544892D23700031025065562799958693100000006900210116350   CRESCENT1 CUS0058802          W ADAMS                       00000000000000000000                21                      
903L001L5063200504094544892D23700031105100100003448266100000008500210116350   CRESCENT1 CUS0013755          I CASSIM                      00000000000000000000                21                      
903L001L5063200504094544892D23700031225065562047458410100000023500210116350   CRESCENT1 CUS0037167          S KHAN                        00000000000000000000                21                      
903L001L5063200504094544892D23700031363200509084990644100000008500210116350   CRESCENT1 CUS0046818          R ANTHONY                     00000000000000000000                21                      
903L001L5063200504094544892D23700031425065562547360074100000013800210116350   CRESCENT1 CUS0052960          A HOOSEN                      00000000000000000000                21                      
903L001L5063200504094544892D23700031525065562772036523100000008500210116350   CRESCENT1 CUS0058808          I ARIEFDIEN                   00000000000000000000                21                      
903L001L5063200504094544892D23700031663200504063621900100000008500210116350   CRESCENT1 CUS0013886          S SEEDAT                      00000000000000000000                21                      
903L001L5063200504094544892D23700031747001001183445200200000008500210116350   CRESCENT1 CUS0037276          N RAHIM                       00000000000000000000                21                      
903L001L5063200504094544892D23700031847001001426524399200000008500210116350   CRESCENT1 CUS0046901          A ISMAIL                      00000000000000000000                21                      
903L001L5063200504094544892D23700031963200509087895459100000008500210116350   CRESCENT1 CUS0052965          W DOUTIE                      00000000000000000000                21                      
903L001L5063200504094544892D23700032025065562107492580100000016000210116350   CRESCENT1 CUS0058837          A ERASMUS                     00000000000000000000                21                      
903L001L5063200504094544892D23700032163200500650144562100000008500210116350   CRESCENT1 CUS0014506          A ISMAIL                      00000000000000000000                21                      
903L001L5063200504094544892D23700032263200504054242355100000008500210116350   CRESCENT1 CUS0037312          M RASHID                      00000000000000000000                21                      
903L001L5063200504094544892D23700032305100100301522375100000008500210116350   CRESCENT1 CUS0046912          N BISMILLA                    00000000000000000000                21                      
903L001L5063200504094544892D23700032463200509042770543100000016000210116350   CRESCENT1 CUS0052989          I MEYER                       00000000000000000000                21                      
903L001L5063200504094544892D23700032525065562814853596100000016000210116350   CRESCENT1 CUS0058841          R JOUBYAR                     00000000000000000000                21                      
903L001L5063200504094544892D23700032625065562015370711100000007500210116350   CRESCENT1 CUS0014560          R MAYET                       00000000000000000000                21                      
903L001L5063200504094544892D23700032719876501214006280100000008500210116350   CRESCENT1 CUS0037386          E HENDRICKS                   00000000000000000000                21                      
903L001L5063200504094544892D23700032819876501001871936100000008500210116350   CRESCENT1 CUS0046977          A HASSIM                      00000000000000000000                21                      
903L001L5063200504094544892D23700032919876501926008952100000006900210116350   CRESCENT1 CUS0052990          Q TITIS                       00000000000000000000                21                      
903L001L5063200504094544892D23700033047001001427457628200000008500210116350   CRESCENT1 CUS0058844          R FINCK                       00000000000000000000                21                      
903L001L5063200504094544892D23700033125065562186591999100000008500210116350   CRESCENT1 CUS0014567          F ESSAY                       00000000000000000000                21                      
903L001L5063200504094544892D23700033263200509286121940100000008500210116350   CRESCENT1 CUS0037508          D DOUMAN                      00000000000000000000                21                      
903L001L5063200504094544892D23700033319876501028235917100000016000210116350   CRESCENT1 CUS0046988          F ISAACS                      00000000000000000000                21                      
903L001L5063200504094544892D23700033405100100077286235100000007500210116350   CRESCENT1 CUS0052992          M FANIE                       00000000000000000000                21                      
903L001L5063200504094544892D23700033525065562785353609100000008500210116350   CRESCENT1 CUS0058854          Z NOORSHID                    00000000000000000000                21                      
903L001L5063200504094544892D23700033625065552840025483100000008500210116350   CRESCENT1 CUS0014577          S ISAT                        00000000000000000000                21                      
903L001L5063200504094544892D23700033747001001674909649200000008500210116350   CRESCENT1 CUS0037672          M ALLY                        00000000000000000000                21                      
903L001L5063200504094544892D23700033825065559200026382100000016000210116350   CRESCENT1 CUS0047062          I ABRAHAMS                    00000000000000000000                21                      
903L001L5063200504094544892D23700033925065562104552163100000008500210116350   CRESCENT1 CUS0052993          L ADAM                        00000000000000000000                21                      
903L001L5063200504094544892D23700034067891051006224664100000008500210116350   CRESCENT1 CUS0058877          N BHOOLA                      00000000000000000000                21                      
903L001L5063200504094544892D23700034105100100010161422100000016000210116350   CRESCENT1 CUS0014702          F VAHED                       00000000000000000000                21                      
903L001L5063200504094544892D23700034263200500560153236100000008500210116350   CRESCENT1 CUS0037722          B EBRAHIM                     00000000000000000000                21                      
903L001L5063200504094544892D23700034347001001217946274200000008500210116350   CRESCENT1 CUS0047082          M BAKER                       00000000000000000000                21                      
903L001L5063200504094544892D23700034463200504048810514100000008500210116350   CRESCENT1 CUS0052994          M FAGMI SABAN                 00000000000000000000                21                      
903L001L5063200504094544892D23700034547001001605725097200000008500210116350   CRESCENT1 CUS0058880          S AGHERDIEN                   00000000000000000000                21                      
903L001L5063200504094544892D23700034625065562107977962100000016000210116350   CRESCENT1 CUS0014841          N LANGEVELDT                  00000000000000000000                21                      
903L001L5063200504094544892D23700034763200509208984681100000008500210116350   CRESCENT1 CUS0037744          M DAVIDS                      00000000000000000000                21                      
903L001L5063200504094544892D23700034847001001170977918200000016000210116350   CRESCENT1 CUS0047115          J JOHNSON                     00000000000000000000                21                      
903L001L5063200504094544892D23700034925065550910042981100000008500210116350   CRESCENT1 CUS0053004          R DASIGADU                    00000000000000000000                21                      
903L001L5063200504094544892D23700035047001001608531633200000008500210116350   CRESCENT1 CUS0058887          D JARDIEN                     00000000000000000000                21                      
903L001L5063200504094544892D23700035105100100077984897100000007500210116350   CRESCENT1 CUS0014848          F ALLY                        00000000000000000000                21                      
903L001L5063200504094544892D23700035225065562314304346100000008500210116350   CRESCENT1 CUS0037745          S PARAK                       00000000000000000000                21                      
903L001L5063200504094544892D23700035319876501169930069100000006900210116350   CRESCENT1 CUS0047142          M KHAN                        00000000000000000000                21                      
903L001L5063200504094544892D23700035425065562049663893100000008500210116350   CRESCENT1 CUS0053017          E ABRAHAMS                    00000000000000000000                21                      
903L001L5063200504094544892D23700035563200509262122807100000008500210116350   CRESCENT1 CUS0058888          N LINNEVELDT                  00000000000000000000                21                      
903L001L5063200504094544892D23700035605100100053353641100000008500210116350   CRESCENT1 CUS0014868          F WADIA                       00000000000000000000                21                      
903L001L5063200504094544892D23700035746000500092475345200000006900210116350   CRESCENT1 CUS0037771          A JACOBS                      00000000000000000000                21                      
903L001L5063200504094544892D23700035825065562231794331100000008500210116350   CRESCENT1 CUS0047228          A SUJEE                       00000000000000000000                21                      
903L001L5063200504094544892D23700035919876501107049628100000008500210116350   CRESCENT1 CUS0053026          A EBRAHIM                     00000000000000000000                21                      
903L001L5063200504094544892D23700036025065562500414298100000008500210116350   CRESCENT1 CUS0058892          A DAWOOD                      00000000000000000000                21                      
903L001L5063200504094544892D23700036105100100030171024100000016000210116350   CRESCENT1 CUS0014972          N ESSA                        00000000000000000000                21                      
903L001L5063200504094544892D23700036263200509083131548100000008500210116350   CRESCENT1 CUS0037812          F NANA                        00000000000000000000                21                      
903L001L5063200504094544892D23700036319876501098007441100000008500210116350   CRESCENT1 CUS0047242          M ADAMS                       00000000000000000000                21                      
903L001L5063200504094544892D23700036447001001288004913200000008500210116350   CRESCENT1 CUS0053071          F KHAN                        00000000000000000000                21                      
903L001L5063200504094544892D23700036563200509197095296100000006900210116350   CRESCENT1 CUS0058897          A PANGARAER                   00000000000000000000                21                      
903L001L5063200504094544892D23700036663200504074703834100000008500210116350   CRESCENT1 CUS0014999          N HOOSAIN                     00000000000000000000                21                      
903L001L5063200504094544892D23700036725065550220083683100000006900210116350   CRESCENT1 CUS0037813          A ALLIE                       00000000000000000000                21                      
903L001L5063200504094544892D23700036819876501339409380100000008500210116350   CRESCENT1 CUS0047288          Z MANJARA                     00000000000000000000                21                      
903L001L5063200504094544892D23700036947001001535347803200000008500210116350   CRESCENT1 CUS0053077          K BRINK                       00000000000000000000                21                      
903L001L5063200504094544892D23700037025065562562947237100000006900210116350   CRESCENT1 CUS0058914          A MUKADAM                     00000000000000000000                21                      
903L001L5063200504094544892D23700037119876501917020406100000008500210116350   CRESCENT1 CUS0015034          M HARTLEY                     00000000000000000000                21                      
903L001L5063200504094544892D23700037225065562656739722100000016000210116350   CRESCENT1 CUS0037885          F KHAN                        00000000000000000000                21                      
903L001L5063200504094544892D23700037325065560482238918100000007500210116350   CRESCENT1 CUS0047294          S KHAN                        00000000000000000000                21                      
903L001L5063200504094544892D23700037463200509114236704100000006900210116350   CRESCENT1 CUS0053087          Y JATTIEM                     00000000000000000000                21                      
903L001L5063200504094544892D23700037547001001673922587200000008500210116350   CRESCENT1 CUS0058921          B MNISI                       00000000000000000000                21                      
903L001L5063200504094544892D23700037663200509051539417100000008500210116350   CRESCENT1 CUS0015064          F KARIM                       00000000000000000000                21                      
903L001L5063200504094544892D23700037763200504098569923100000023500210116350   CRESCENT1 CUS0038006          A DAVIDS                      00000000000000000000                21                      
903L001L5063200504094544892D23700037847001001418287723200000008500210116350   CRESCENT1 CUS0047366          I AMEER                       00000000000000000000                21                      
903L001L5063200504094544892D23700037963200509274416032100000008500210116350   CRESCENT1 CUS0053102          A ISAACS                      00000000000000000000                21                      
903L001L5063200504094544892D23700038025065562080220355100000008500210116350   CRESCENT1 CUS0058943          F CASSIEM                     00000000000000000000                21                      
903L001L5063200504094544892D23700038125065551250351157100000008500210116350   CRESCENT1 CUS0015071          F HENDRICKS                   00000000000000000000                21                      
903L001L5063200504094544892D23700038225065562181714009100000008500210116350   CRESCENT1 CUS0038124          R JOOSUB                      00000000000000000000                21                      
903L001L5063200504094544892D23700038325065562294134095100000008500210116350   CRESCENT1 CUS0047394          W BUX                         00000000000000000000                21                      
903L001L5063200504094544892D23700038463200509229311695100000008500210116350   CRESCENT1 CUS0053143          F OSMAN                       00000000000000000000                21                      
903L001L5063200504094544892D23700038547001001359682285200000008500210116350   CRESCENT1 CUS0058953          R PRINCE                      00000000000000000000                21                      
903L001L5063200504094544892D23700038663200509181323415100000016000210116350   CRESCENT1 CUS0015079          A QASIN                       00000000000000000000                21                      
903L001L5063200504094544892D23700038705100100071191526100000008500210116350   CRESCENT1 CUS0038226          R JACOBS                      00000000000000000000                21                      
903L001L5063200504094544892D23700038819876501982229594100000008500210116350   CRESCENT1 CUS0047404          B MAKDA                       00000000000000000000                21                      
903L001L5063200504094544892D23700038947001001554512741200000006900210116350   CRESCENT1 CUS0053187          A MIA                         00000000000000000000                21                      
903L001L5063200504094544892D23700039047001001535710789200000006900210116350   CRESCENT1 CUS0058954          K COZYN                       00000000000000000000                21                      
903L001L5063200504094544892D23700039147001001424255382200000016000210116350   CRESCENT1 CUS0015178          C NAKOODA                     00000000000000000000                21                      
903L001L5063200504094544892D23700039247001001674902989200000006900210116350   CRESCENT1 CUS0038327          Z BEUKES                      00000000000000000000                21                      
903L001L5063200504094544892D23700039325065562505350877100000016000210116350   CRESCENT1 CUS0047439          A JAMALOODIEN                 00000000000000000000                21                      
903L001L5063200504094544892D23700039447001001442524632200000008500210116350   CRESCENT1 CUS0053236          S FOKOTHO                     00000000000000000000                21                      
903L001L5063200504094544892D23700039547001001307172286200000016000210116350   CRESCENT1 CUS0058986          G SAMPSON                     00000000000000000000                21                      
903L001L5063200504094544892D23700039663200509063438354100000016000210116350   CRESCENT1 CUS0015228          A MOHAMED                     00000000000000000000                21                      
903L001L5063200504094544892D23700039747001001183200232200000008500210116350   CRESCENT1 CUS0038426          S MAHOMED                     00000000000000000000                21                      
903L001L5063200504094544892D23700039825065562015050925100000008500210116350   CRESCENT1 CUS0047455          I SAMODIEN                    00000000000000000000                21                      
903L001L5063200504094544892D23700039947001001694030723200000008500210116350   CRESCENT1 CUS0053237          M DANIELS                     00000000000000000000                21                      
903L001L5063200504094544892D23700040047001001330207813200000008500210116350   CRESCENT1 CUS0058989          S ARNOLDS                     00000000000000000000                21                      
903L001L5063200504094544892D23700040105100100060051086100000016000210116350   CRESCENT1 CUS0015441          H KHAN                        00000000000000000000                21                      
903L001L5063200504094544892D23700040247001001144401192200000008500210116350   CRESCENT1 CUS0038525          S RAJA                        00000000000000000000                21                      
903L001L5063200504094544892D23700040325065562068773764100000008500210116350   CRESCENT1 CUS0047485          M ISMAIL                      00000000000000000000                21                      
903L001L5063200504094544892D23700040405100100201468220100000008500210116350   CRESCENT1 CUS0053265          Z ADAMS                       00000000000000000000                21                      
903L001L5063200504094544892D23700040525065562256098669100000008500210116350   CRESCENT1 CUS0058991          A BRENNER                     00000000000000000000                21                      
903L001L5063200504094544892D23700040625065562600310015100000016000210116350   CRESCENT1 CUS0015453          H ASMAL                       00000000000000000000                21                      
903L001L5063200504094544892D23700040763200509091153453100000016000210116350   CRESCENT1 CUS0038562          Z BHAYAT                      00000000000000000000                21                      
903L001L5063200504094544892D23700040825065562059652125100000008500210116350   CRESCENT1 CUS0047504          N ISMAIL                      00000000000000000000                21                      
903L001L5063200504094544892D23700040947001001261220925200000008500210116350   CRESCENT1 CUS0053269          Y CAMFIELD                    00000000000000000000                21                      
903L001L5063200504094544892D23700041019876501030403708100000008500210116350   CRESCENT1 CUS0058992          S LEE                         00000000000000000000                21                      
903L001L5063200504094544892D23700041180000078600122351100000008500210116350   CRESCENT1 CUS0015479          K RAVAT                       00000000000000000000                21                      
903L001L5063200504094544892D23700041247001001114825377200000008500210116350   CRESCENT1 CUS0038650          E SALLIE                      00000000000000000000                21                      
903L001L5063200504094544892D23700041325065562017443897100000008500210116350   CRESCENT1 CUS0047525          H WILLIAM                     00000000000000000000                21                      
903L001L5063200504094544892D23700041405100100058395407100000008500210116350   CRESCENT1 CUS0053273          S ESSOP                       00000000000000000000                21                      
903L001L5063200504094544892D23700041547001001458064598200000008500210116350   CRESCENT1 CUS0058993          M MANGANYI                    00000000000000000000                21                      
903L001L5063200504094544892D23700041663200509107322429100000016000210116350   CRESCENT1 CUS0015537          I OMAR                        00000000000000000000                21                      
903L001L5063200504094544892D23700041725065562662487258100000016000210116350   CRESCENT1 CUS0038658          E MANUAL                      00000000000000000000                21                      
903L001L5063200504094544892D23700041825065562528875737100000008500210116350   CRESCENT1 CUS0047529          W CONRADIE                    00000000000000000000                21                      
903L001L5063200504094544892D23700041905100100030889928100000007500210116350   CRESCENT1 CUS0053283          A MAHOMED                     00000000000000000000                21                      
903L001L5063200504094544892D23700042063200504084827268100000008500210116350   CRESCENT1 CUS0058994          R REDCLIFFE                   00000000000000000000                21                      
903L001L5063200504094544892D23700042125065562630639229100000023500210116350   CRESCENT1 CUS0015583          A CAJEE                       00000000000000000000                21                      
903L001L5063200504094544892D23700042225065562053980291100000008500210116350   CRESCENT1 CUS0038663          M KADER                       00000000000000000000                21                      
903L001L5063200504094544892D23700042305100100032100043100000016000210116350   CRESCENT1 CUS0047532          A BHAYAT                      00000000000000000000                21                      
903L001L5063200504094544892D23700042405100100073156671100000008500210116350   CRESCENT1 CUS0053380          S ESSACK                      00000000000000000000                21                      
903L001L5063200504094544892D23700042505100110008264609100000016000210116350   CRESCENT1 CUS0059013          A DAVIDS                      00000000000000000000                21                      
903L001L5063200504094544892D23700042663200506201303277100000016000210116350   CRESCENT1 CUS0015589          J PEARCE                      00000000000000000000                21                      
903L001L5063200504094544892D23700042725065562374465401100000008500210116350   CRESCENT1 CUS0038669          R SALOOJEE                    00000000000000000000                21                      
903L001L5063200504094544892D23700042863200504068424218100000016000210116350   CRESCENT1 CUS0047556          D ARBI                        00000000000000000000                21                      
903L001L5063200504094544892D23700042947001001460446362200000008500210116350   CRESCENT1 CUS0053449          N BOTHA                       00000000000000000000                21                      
903L001L5063200504094544892D23700043005100100410528226100000008500210116350   CRESCENT1 CUS0059024          R NAZIER                      00000000000000000000                21                      
903L001L5063200504094544892D23700043125065562234951061100000008500210116350   CRESCENT1 CUS0015594          M HASSIM                      00000000000000000000                21                      
903L001L5063200504094544892D23700043205100100302281436100000008500210116350   CRESCENT1 CUS0038670          T MAHAMOOD                    00000000000000000000                21                      
903L001L5063200504094544892D23700043363200504078213815100000016000210116350   CRESCENT1 CUS0047559          A KHAN                        00000000000000000000                21                      
903L001L5063200504094544892D23700043447001001195226576200000008500210116350   CRESCENT1 CUS0053460          S ABRAHAMS                    00000000000000000000                21                      
903L001L5063200504094544892D23700043547001001382367366200000008500210116350   CRESCENT1 CUS0059039          Z SOEKER                      00000000000000000000                21                      
903L001L5063200504094544892D23700043625065562386077012100000008500210116350   CRESCENT1 CUS0015912          R GUMAN                       00000000000000000000                21                      
903L001L5063200504094544892D23700043763200504325570041100000008500210116350   CRESCENT1 CUS0038710          R MOHAMMED                    00000000000000000000                21                      
903L001L5063200504094544892D23700043819876501011139030100000008500210116350   CRESCENT1 CUS0047575          S PARKER                      00000000000000000000                21                      
903L001L5063200504094544892D23700043947001001510291790200000008500210116350   CRESCENT1 CUS0053493          F ABRAHAMS                    00000000000000000000                21                      
903L001L5063200504094544892D23700044047001001156017015200000008500210116350   CRESCENT1 CUS0059071          A MOHLOLO                     00000000000000000000                21                      
903L001L5063200504094544892D23700044163200509090053557100000008500210116350   CRESCENT1 CUS0015974          N PETERSEN                    00000000000000000000                21                      
903L001L5063200504094544892D23700044225065562082823933100000008500210116350   CRESCENT1 CUS0038712          A PARKER                      00000000000000000000                21                      
903L001L5063200504094544892D23700044305100100200874691100000007500210116350   CRESCENT1 CUS0047576          F KHAN                        00000000000000000000                21                      
903L001L5063200504094544892D23700044425065550091142999100000008500210116350   CRESCENT1 CUS0053497          S HOFFMAN                     00000000000000000000                21                      
903L001L5063200504094544892D23700044525065562094204882100000008500210116350   CRESCENT1 CUS0059072          H THEKISO                     00000000000000000000                21                      
903L001L5063200504094544892D23700044605100100003752925100000008500210116350   CRESCENT1 CUS0015993          M MIAM                        00000000000000000000                21                      
903L001L5063200504094544892D23700044705100100280901372100000016000210116350   CRESCENT1 CUS0038764          I LEE                         00000000000000000000                21                      
903L001L5063200504094544892D23700044819876501230092897100000008500210116350   CRESCENT1 CUS0047624          K DAWOOD                      00000000000000000000                21                      
903L001L5063200504094544892D23700044905100100302675833100000008500210116350   CRESCENT1 CUS0053514          F HATTAS                      00000000000000000000                21                      
903L001L5063200504094544892D23700045019876501147108528100000008500210116350   CRESCENT1 CUS0059073          M NORRIS                      00000000000000000000                21                      
903L001L5063200504094544892D23700045163200509149164253100000008500210116350   CRESCENT1 CUS0016098          M OSMAN                       00000000000000000000                21                      
903L001L5063200504094544892D23700045225065554360023799100000016000210116350   CRESCENT1 CUS0038850          A ALEXANDER                   00000000000000000000                21                      
903L001L5063200504094544892D23700045347001001143912851200000008500210116350   CRESCENT1 CUS0047707          S ISMAIL                      00000000000000000000                21                      
903L001L5063200504094544892D23700045425065550131160489100000008500210116350   CRESCENT1 CUS0053516          I AKOOJEE                     00000000000000000000                21                      
903L001L5063200504094544892D23700045547001001739299564100000008500210116350   CRESCENT1 CUS0059075          Y ARDUM                       00000000000000000000                21                      
903L001L5063200504094544892D23700045619876501902112326100000031000210116350   CRESCENT1 CUS0016113          H HAFFEJEE                    00000000000000000000                21                      
903L001L5063200504094544892D23700045763200500012269390100000008500210116350   CRESCENT1 CUS0038865          D VAN NIERKERK                00000000000000000000                21                      
903L001L5063200504094544892D23700045805100100072921277100000008500210116350   CRESCENT1 CUS0047823          M BENJAMIN                    00000000000000000000                21                      
903L001L5063200504094544892D23700045963200509055360195100000007500210116350   CRESCENT1 CUS0053523          R SYDOW                       00000000000000000000                21                      
903L001L5063200504094544892D23700046047001001245755313200000008500210116350   CRESCENT1 CUS0059102          Z MOHAMMID                    00000000000000000000                21                      
903L001L5063200504094544892D23700046125065562241481225100000008500210116350   CRESCENT1 CUS0016271          D ESSOP                       00000000000000000000                21                      
903L001L5063200504094544892D23700046263200504087726805100000008500210116350   CRESCENT1 CUS0038942          R GANI                        00000000000000000000                21                      
903L001L5063200504094544892D23700046305100110099742282100000008500210116350   CRESCENT1 CUS0047844          Z SALEY                       00000000000000000000                21                      
903L001L5063200504094544892D23700046447001001644462727200000006900210116350   CRESCENT1 CUS0053551          N TALIEP JOSEPH               00000000000000000000                21                      
903L001L5063200504094544892D23700046505100110131385656100000006900210116350   CRESCENT1 CUS0059125          A SCELLO                      00000000000000000000                21                      
903L001L5063200504094544892D23700046647001001424163186200000016000210116350   CRESCENT1 CUS0016339          R BECK                        00000000000000000000                21                      
903L001L5063200504094544892D23700046747001001646989021200000016000210116350   CRESCENT1 CUS0038947          F GALLIE                      00000000000000000000                21                      
903L001L5063200504094544892D23700046825065562475927912100000008500210116350   CRESCENT1 CUS0047853          M BUTLER                      00000000000000000000                21                      
903L001L5063200504094544892D23700046925065562116910200100000008500210116350   CRESCENT1 CUS0053573          M AHMED                       00000000000000000000                21                      
903L001L5063200504094544892D23700047025065562493207875100000008500210116350   CRESCENT1 CUS0059135          C MOOSA                       00000000000000000000                21                      
903L001L5063200504094544892D23700047147001001123233975200000023500210116350   CRESCENT1 CUS0016631          H SHEIK                       00000000000000000000                21                      
903L001L5063200504094544892D23700047219876501237096367100000008500210116350   CRESCENT1 CUS0038954          R MAHRI                       00000000000000000000                21                      
903L001L5063200504094544892D23700047325065562497916472100000008500210116350   CRESCENT1 CUS0047857          S ABDUL                       00000000000000000000                21                      
903L001L5063200504094544892D23700047425065562831133848100000008500210116350   CRESCENT1 CUS0053595          S PETERSEN                    00000000000000000000                21                      
903L001L5063200504094544892D23700047547001001574254195200000008500210116350   CRESCENT1 CUS0059155          M HENDRICKS                   00000000000000000000                21                      
903L001L5063200504094544892D23700047625065562229541273100000008500210116350   CRESCENT1 CUS0016633          R EBRAHIM                     00000000000000000000                21                      
903L001L5063200504094544892D23700047705100100073321729100000031000210116350   CRESCENT1 CUS0038967          A ISMAIL                      00000000000000000000                21                      
903L001L5063200504094544892D23700047863200504083413595100000008500210116350   CRESCENT1 CUS0047957          A CARRIEM                     00000000000000000000                21                      
903L001L5063200504094544892D23700047925065550210012329100000016000210116350   CRESCENT1 CUS0053603          F MOSES                       00000000000000000000                21                      
903L001L5063200504094544892D23700048025065562485618577100000008500210116350   CRESCENT1 CUS0059193          T ADAMS                       00000000000000000000                21                      
903L001L5063200504094544892D23700048163200504072469385100000008500210116350   CRESCENT1 CUS0016681          R TAYOB                       00000000000000000000                21                      
903L001L5063200504094544892D23700048263200504085070303100000008500210116350   CRESCENT1 CUS0038969          M PRICE                       00000000000000000000                21                      
903L001L5063200504094544892D23700048325065551200507932100000008500210116350   CRESCENT1 CUS0048010          F DAWOOD                      00000000000000000000                21                      
903L001L5063200504094544892D23700048447001001146340689200000008500210116350   CRESCENT1 CUS0053605          F SHEIK                       00000000000000000000                21                      
903L001L5063200504094544892D23700048505100100073301388100000008500210116350   CRESCENT1 CUS0059204          S BENJAMAN                    00000000000000000000                21                      
903L001L5063200504094544892D23700048663200509095872011100000008500210116350   CRESCENT1 CUS0016711          G KHAN                        00000000000000000000                21                      
903L001L5063200504094544892D23700048725065562329546347100000008500210116350   CRESCENT1 CUS0039013          A MOOLA                       00000000000000000000                21                      
903L001L5063200504094544892D23700048819876501127454668100000023500210116350   CRESCENT1 CUS0048074          M AJONSI                      00000000000000000000                21                      
903L001L5063200504094544892D23700048925065562085636515100000016000210116350   CRESCENT1 CUS0053606          A ABDOL                       00000000000000000000                21                      
903L001L5063200504094544892D23700049047001001546762343200000008500210116350   CRESCENT1 CUS0059210          A ABRAHAMS                    00000000000000000000                21                      
903L001L5063200504094544892D23700049125065562426176302100000016000210116350   CRESCENT1 CUS0016750          B SARANG                      00000000000000000000                21                      
903L001L5063200504094544892D23700049205100100250066068100000008500210116350   CRESCENT1 CUS0039037          A SAID                        00000000000000000000                21                      
903L001L5063200504094544892D23700049305100100168276380100000008500210116350   CRESCENT1 CUS0048076          A ESSOP                       00000000000000000000                21                      
903L001L5063200504094544892D23700049447001001496916962200000008500210116350   CRESCENT1 CUS0053628          M YUNOOS                      00000000000000000000                21                      
903L001L5063200504094544892D23700049519876501136530355100000016000210116350   CRESCENT1 CUS0059218          S KAHAAR                      00000000000000000000                21                      
903L001L5063200504094544892D23700049625065560626017029100000008500210116350   CRESCENT1 CUS0016755          F ABRAHAMS                    00000000000000000000                21                      
903L001L5063200504094544892D23700049705100100654088438100000008500210116350   CRESCENT1 CUS0039040          A HAKIM                       00000000000000000000                21                      
903L001L5063200504094544892D23700049825065562398717458100000008500210116350   CRESCENT1 CUS0048083          Z AWALDIEN                    00000000000000000000                21                      
903L001L5063200504094544892D23700049919876501134570961100000008500210116350   CRESCENT1 CUS0053630          S MARCUS                      00000000000000000000                21                      
