000L2020111000000PAYPORT CONSULTING PTY LTD EFT000049707303                                                                                                                                           
010LD237000003301                                                                                                                                                                                     
011LD23763200500000040945448920120201021                                                                                                                                                              
013L5020201020000236632005000000916302259000000008500CRESCENT1 1603195657OCUS00102903092801000236                A MATHESON                                                                           
014L0000000010000000000000000091630225900000000000850000000000000000                                                                                                                                  
019L0000000010000000000000000091630225900000000000850000000000000000                                                                                                                                  
999L000000007                                                                                                                                                                                         
