000L2021042200000PAYPORT CONSULTING PTY LTD EFT000072807303                                                                                                                                           
010LD237000019101                                                                                                                                                                                     
011LD23763200500000040945448920120210326                                                                                                                                                              
013L5020210325001591470010000000146279122900000008500CRESCENT1 CUS0056752          03400000000000                S SELDON                                                                             
014L0000000010000000000000000014627912290000000000850000000000000000                                                                                                                                  
011LD23763200500000040945448920120210331                                                                                                                                                              
013L5020210330001785632005000000911047057200000008500CRESCENT1 CUS0029452          03092801001785                P TSOTETSI                                                                           
014L0000000010000000000000000091104705720000000000850000000000000000                                                                                                                                  
011LD23763200500000040945448920120210416                                                                                                                                                              
013L5020210415000388198765000000116981933800000008500CRESCENT1 CUS0046259          03000000000000                F DESAI                                                                              
013L5020210415000726261251000006223144679200000008500CRESCENT1 CUS0017787          00600000000000                N BAKER                                                                              
014L0000000020000000000000000634012661300000000001700000000000000000                                                                                                                                  
011LD23763200500000040945448920120210421                                                                                                                                                              
013L5020210420000013632005000000913232055700000016000CRESCENT1 CUS0036509          00200016000013                A LIVINGSTONE                                                                        
013L5020210420000089632005000000407912797600000008500CRESCENT1 CUS0043027          90300000000089                N AHMED                                                                              
013L5020210420000147632005000000407472616300000016000CRESCENT1 CUS0048054          00492802000147                G CORNELIUS                                                                          
013L5020210420000302632005000000408205618000000023500CRESCENT1 CUS0018845          00300000000302                A KARA                                                                               
013L5020210420000382632005000000920979646300000016000CRESCENT1 CUS0033149          00200016000382                A ABRAMS                                                                             
014L0000000050000000000000000305780273390000000008000000000000000000                                                                                                                                  
019L0000000090000000000000001045525552700000000011400000000000000000                                                                                                                                  
999L000000021                                                                                                                                                                                         
