000L2021060800000PAYPORT CONSULTING PTY LTD EFT000080607303                                                                                                                                           
010LD237000023601                                                                                                                                                                                     
011LD23763200500000040945448920120210527                                                                                                                                                              
013L5020210526000642470010000000150218702500000008500CRESCENT1 CUS0055026          03000000000000                Y WILLIAMS                                                                           
014L0000000010000000000000000015021870250000000000850000000000000000                                                                                                                                  
011LD23763200500000040945448920120210531                                                                                                                                                              
013L5020210529002442198765000000115668556700000008500CRESCENT1 CUS0059030          03000000000000                R ISMAIL                                                                             
014L0000000010000000000000000011566855670000000000850000000000000000                                                                                                                                  
019L0000000020000000000000000026588725920000000001700000000000000000                                                                                                                                  
999L000000010                                                                                                                                                                                         
