000L2021060200000PAYPORT CONSULTING PTY LTD    000079507303                                                                                                                                           
900L000 TRANSMISSION 07303-0000117 ACCEPTED                                                                                                                                                           
900L001 ACB USER SET D237-0000123-000011 ACCEPTED                                                                                                                                                     
903L001L5063200504094544892D23700000147001001415051648200000025000210603350   ABSOLIT   1622467823RSP001    S.PILLAY                      00000000000000000000                21                      
903L001L5263200504094544892D23700000263200504094544892100000025000210603100000ABSOLIT   CONTRAYNGTFYYRLC5LEO                                                                                          
903L001L5063200504094544892D23700000325065562664881937100000041000210603350   JAMFOX    1622467815RJFANNABELKRYSTLE JONCK                 00000000000000000000                21                      
903L001L5263200504094544892D23700000463200504094544892100000041000210603100000JAMFOX    CONTRAFO4ZSONMHMUWNT                                                                                          
903L001L5063200504094544892D23700000563200504050368151100000003495210603350   PMDOPS    1622467819R111N0005 NLN ENGINEERING CC            00000000000000000000                21                      
903L001L5063200504094544892D23700000625065562210012465100000000990210603350   PMDOPS    1622467819R111O0004 S OTTO                        00000000000000000000                21                      
903L001L5063200504094544892D23700000725065562388074892100000004000210603350   PMDOPS    1622467819RWRMH002  ROZAQ MOHAMMED                00000000000000000000                21                      
903L001L5063200504094544892D23700000819876501006743413100000017000210603350   PMDOPS    1622467823OWMBSG201 MASTER BUSINESS SOLUTIONS GROU00000000000000000000                21                      
903L001L5063200504094544892D23700000919876501006743413100000010495210603350   PMDOPS    1622467823RWMBSG201 MASTER BUSINESS SOLUTIONS GROU00000000000000000000                21                      
903L001L5063200504094544892D23700001019876501010260235100000005000210603350   PMDOPS    1622467823RWMMT201  MASTER MILLIONAIRE TRAVEL     00000000000000000000                21                      
903L001L5263200504094544892D23700001163200504094544892100000040980210603100000PMDOPS    CONTRADIO8B7ORAVGLG2                                                                                          
999L000000015                                                                                                                                                                                         
