000L2021050600000PAYPORT CONSULTING PTY LTD    000075207303                                                                                                                                           
900L000 TRANSMISSION 07303-0000101 ACCEPTED                                                                                                                                                           
900L001 ACB USER SET D237-0000107-000008 ACCEPTED                                                                                                                                                     
903L001L5063200504094544892D23700000125065562660973126200000018900210507350   ARCTICA   1620135016RARCTICA00MOPANI ENGINEERING CC         00000000000000000000                21                      
903L001L5063200504094544892D23700000263200538131732055100000005000210507350   ARCTICA   1620135016RARCTICA01QUENTIN HORN                  00000000000000000000                21                      
903L001L5263200504094544892D23700000363200504094544892100000023900210507100000ARCTICA   CONTRAYYQPIHB1MUHNUS                                                                                          
903L001L5063200504094544892D23700000419876501074155491100000044275210507350   SERAPHIM  1620135023R571024   MC PIKE                       00000000000000000000                21                      
903L001L5263200504094544892D23700000563200504094544892100000044275210507100000SERAPHIM  CONTRA5Z6JD47ZI8ZGSD                                                                                          
903L001L5063200504094544892D23700000663200504087491096100000069900210507350   NEWYOU    1620135019R24       M BEYERS                      00000000000000000000                21                      
903L001L5063200504094544892D23700000763200504059013921100000069900210507350   NEWYOU    1620135023O57       HNS BASSON                    00000000000000000000                21                      
903L001L5263200504094544892D23700000863200504094544892100000139800210507100000NEWYOU    CONTRAYWM2IVVGWXT6VA                                                                                          
999L000000012                                                                                                                                                                                         
