000L2020112600000PAYPORT CONSULTING PTY LTD EFT000052007303                                                                                                                                           
010LD237000004201                                                                                                                                                                                     
011LD23763200500000040945448920120201125                                                                                                                                                              
013L5020201124000337632005000000408825940500000008500CRESCENT1 CUS0045898          00300000000337                N OMAR                                                                               
013L5020201124000638632005000000409213419000000016000CRESCENT1 CUS0037315          00300000000638                M MAHARAJ                                                                            
013L5020201124000815632005000000925387834200000008500CRESCENT1 CUS0050945          01200012000815                S HARRISON                                                                           
013L5020201124000650632005000000906673138500000016000CRESCENT1 CUS0037772          00200016000650                F RYKLIEF                                                                            
013L5020201124000334632005000000409199228000000008500CRESCENT1 CUS0045816          90300000000334                M ESSOP                                                                              
013L5020201124000833632005000000407745462000000008500CRESCENT1 CUS0008345          01200000000833                A GATTA                                                                              
013L5020201124000227632005000000404302704700000008500CRESCENT1 CUS0053527          03292801000227                A SAMODIEN                                                                           
013L5020201124000027632005000000925822558800000008500CRESCENT1 CUS0051731          00200016000027                M JANTJIES                                                                           
013L5020201124000089632005000000926468032600000016000CRESCENT1 CUS0014208          00200016000089                Y SULIMAN                                                                            
013L5020201124000068632005000000932212792500000008500CRESCENT1 CUS0058673          00200016000068                M JACOBS                                                                             
013L5020201124000652632005000000922153263500000008500CRESCENT1 CUS0057212          03092801000652                A HENDRICKS                                                                          
013L5020201124000165632005000000926846021500000008500CRESCENT1 CUS0016365          00200016000165                H BAKER                                                                              
013L5020201124000406632005000000926518091100000008500CRESCENT1 CUS0046719          00200016000406                R MIA                                                                                
014L0000000130000000000000000943136848690000000013300000000000000000                                                                                                                                  
019L0000000130000000000000000943136848690000000013300000000000000000                                                                                                                                  
999L000000019                                                                                                                                                                                         
