000L2020121700000PAYPORT CONSULTING PTY LTD EFT000054707303                                                                                                                                           
010LD237000005401                                                                                                                                                                                     
011LD23763200500000040945448920120201215                                                                                                                                                              
013L5020201214001080632005000000408899308100000016000CRESCENT1 CUS0045981          03492801001080                A SMITH                                                                              
013L5020201214000869632005000000900453232600000015000CRESCENT1 CUS0007898          03492801000869                R BHAYAT                                                                             
013L5020201214000565632005000000912332373600000008500CRESCENT1 CUS0003381          03492801000565                Z GORA                                                                               
014L0000000030000000000000000222168491430000000003950000000000000000                                                                                                                                  
019L0000000030000000000000000222168491430000000003950000000000000000                                                                                                                                  
999L000000009                                                                                                                                                                                         
