000L2021021700000PAYPORT CONSULTING PTY LTD EFT000063507303                                                                                                                                           
010LD237000012001                                                                                                                                                                                     
011LD23763200500000040945448920120210116                                                                                                                                                              
013L5020210115000835051001000000027179355400000008500CRESCENT1 CUS0055901          03400000000000                N PAULSEN                                                                            
014L0000000010000000000000000002717935540000000000850000000000000000                                                                                                                                  
011LD23763200500000040945448920120210130                                                                                                                                                              
013L5020210129000806470010000000154231591100000008500CRESCENT1 CUS0044442          03600000000000                N KHAN                                                                               
014L0000000010000000000000000015423159110000000000850000000000000000                                                                                                                                  
011LD23763200500000040945448920120210216                                                                                                                                                              
013L5020210215000067632005000000114912138900000008500CRESCENT1 CUS0032481          00300000000067                M SALIE                                                                              
013L5020210215000100632005000000925826351200000008500CRESCENT1 CUS0057791          00300000000100                E ISAACS                                                                             
013L5020210215001001632005000000912332373600000008500CRESCENT1 CUS0003381          00492802001001                Z GORA                                                                               
013L5020210215000712632005000000934885380300000008500CRESCENT1 CUS0040405          00200016000712                N MOYA                                                                               
013L5020210215000474632005000000911423670400000006900CRESCENT1 CUS0053087          00200016000474                Y JATTIEM                                                                            
013L5020210215000970632005000000915821471000000008500CRESCENT1 CUS0056009          00200016000970                F MANUEL                                                                             
013L5020210215000260632005000000935317943000000008500CRESCENT1 CUS0058276          00200016000260                J JACKSON                                                                            
013L5020210215001235632005000000407000838100000008500CRESCENT1 CUS0057197          00300000001235                I KHAN                                                                               
013L5020210215000956632005000000910839144100000008500CRESCENT1 CUS0002240          00492802000956                M EBRAHIM                                                                            
013L5020210215000815632005000000920783945500000008500CRESCENT1 CUS0055541          00200016000815                F ABRAHAMS                                                                           
013L5020210215000680632005000000934078813700000008500CRESCENT1 CUS0059453          00200016000680                N GALIEM                                                                             
013L5020210215000231580105000001001127431700000016000CRESCENT1 CUS0011476          00600000000000                A ALLIE                                                                              
013L5020210215000185632005000000930048137300000006900CRESCENT1 CUS0058138          00200016000185                F HOCEME                                                                             
013L5020210215000422632005000000920898468100000008500CRESCENT1 CUS0037744          00300000000422                M DAVIDS                                                                             
013L5020210215000131632005000000913674871500000008500CRESCENT1 CUS0009745          00300040000131                T MOOSA                                                                              
013L5020210215001257632005000000933444154900000006900CRESCENT1 CUS0030980          00200016001257                R DEAN                                                                               
014L0000000160000000000000001352241513330000000013870000000000000000                                                                                                                                  
019L0000000180000000000000001370382607980000000015570000000000000000                                                                                                                                  
010LD237000012108                                                                                                                                                                                     
011LD23763200500000040945448920120210127                                                                                                                                                              
013L5020210127003546051001000000040127869700000008500CRESCENT1 CUS0055087          03000000000000                S MURPHU                                                                             
014L0000000010000000000000000004012786970000000000850000000000000000                                                                                                                                  
019L0000000010000000000000000004012786970000000000850000000000000000                                                                                                                                  
999L000000033                                                                                                                                                                                         
