000L2020102200000PAYPORT CONSULTING PTY LTD EFT000047407303                                                                                                                                           
010LD237000002201                                                                                                                                                                                     
011LD23763200500000040945448920120201021                                                                                                                                                              
013L5020201020000218632005000000922907873800000016000CRESCENT1 1603195657OCUS00073800200016000218                A MIA                                                                                
013L5020201020000275632005000000931840346600000008500CRESCENT1 1603195658OCUS00528000200016000275                R SCHOLTZ                                                                            
013L5020201020000407632005000000928028054000000008500CRESCENT1 1603195658OCUS00570300200016000407                A GEORGE                                                                             
013L5020201020000352632005000000934136782900000008500CRESCENT1 1603195657OCUS00270600200016000352                T WILKINSON                                                                          
013L5020201020000022632005000000935317943000000008500CRESCENT1 1603195658OCUS00582700200016000022                J JACKSON                                                                            
014L0000000050000000000000000465223100030000000005000000000000000000                                                                                                                                  
019L0000000050000000000000000465223100030000000005000000000000000000                                                                                                                                  
999L000000011                                                                                                                                                                                         
