000L2021042600000PAYPORT CONSULTING PTY LTD EFT000073507303                                                                                                                                           
010LD237000019501                                                                                                                                                                                     
011LD23763200500000040945448920120210424                                                                                                                                                              
013L5020210423000454632005000000408240404200000008500CRESCENT1 CUS0059777          00292803000454                M WENTZEL                                                                            
014L0000000010000000000000000040824040420000000000850000000000000000                                                                                                                                  
011LD23763200500000040945448920120210426                                                                                                                                                              
013L5020210424001926632005000000928171873400000017000CRESCENT1 CUS0052713          00492802001926                M JEFFIRIES                                                                          
013L5020210424003111632005000000404968110200000008500CRESCENT1 CUS0053463          00492802003111                B DE COSTA                                                                           
013L5020210424001938632005000000407597318100000008500CRESCENT1 CUS0044665          00492802001938                M FELIX                                                                              
014L0000000030000000000000000174073730170000000003400000000000000000                                                                                                                                  
019L0000000040000000000000000214897770590000000004250000000000000000                                                                                                                                  
999L000000012                                                                                                                                                                                         
