000L2021022700000PAYPORT CONSULTING PTY LTD    000065007303                                                                                                                                           
900L000 TRANSMISSION 07303-0000067 ACCEPTED                                                                                                                                                           
900L001 ACB USER SET D237-0000072-000123 ACCEPTED                                                                                                                                                     
903L001L5063200504094544892D23700000125065562876496582100000028635210301410   PAYPORT   1614259832RNEWYOU07 NEWYOU                        00000000000000000000                21                      
903L001L5063200504094544892D23700000225065562847287366100000028635210301410   PAYPORT   1614259832RPMDOPS08 PMD OPERATIONS                00000000000000000000                21                      
903L001L5063200504094544892D23700000363200504063093668100000028635210301410   PAYPORT   1614259825RARCTICA  ANDREW VESTER                 00000000000000000000                21                      
903L001L5063200504094544892D23700000425065562858113170100000028635210301410   PAYPORT   1614259825ROPECTOR  OPECTOR LTD                   00000000000000000000                21                      
903L001L5063200504094544892D23700000505100100301749752100000028635210301410   PAYPORT   1614259825RWINTERNETWINTERNET                     00000000000000000000                21                      
903L001L5063200504094544892D23700000625065562809225156100000028635210301410   PAYPORT   1614259825RSERAPHIM0SERAPHIM SECURITY INTERNATIONA00000000000000000000                21                      
903L001L5063200504094544892D23700000725065562184298597100000028635210301410   PAYPORT   1614259829RJAMFOX06 JAMFOX                        00000000000000000000                21                      
903L001L5263200504094544892D23700000863200504094544892100000200445210301100000PAYPORT   CONTRACS6IUFY16AEUWT                                                                                          
903L001L5063200504094544892D23700000905100100023391006100000018900210301350   ARCTICA   1614259810RARCTICA01ROSEBANK DENTAL CERAMICS      00000000000000000000                21                      
903L001L5063200504094544892D23700001005100100202410749100000018900210301350   ARCTICA   1614259810RARCTICA01PHARMAMARK                    00000000000000000000                21                      
903L001L5063200504094544892D23700001119876501684011264100000007500210301350   ARCTICA   1614259821RARCTICA00KARIN BROWN                   00000000000000000000                21                      
903L001L5063200504094544892D23700001205100100200480502100000028900210301350   ARCTICA   1614259821RARCTICA00SIP PROJECT MANAGERS          00000000000000000000                21                      
903L001L5063200504094544892D23700001363200504097620326100000007500210301350   ARCTICA   1614259821RARCTICA00UNI CARGO CC                  00000000000000000000                21                      
903L001L5063200504094544892D23700001405100100332017052100000018900210301350   ARCTICA   1614259821RARCTICA00PADDOCK WOODS                 00000000000000000000                21                      
903L001L5063200504094544892D23700001505100100202481131100000022500210301350   ARCTICA   1614259821RARCTICA00CHRIST CHURCH MIDRAND         00000000000000000000                21                      
903L001L5063200504094544892D23700001619876501506004946100000007500210301350   ARCTICA   1614259821RARCTICA00BELEAF LANDSCAPE DESIGN       00000000000000000000                21                      
903L001L5063200504094544892D23700001705100100082877831100000007500210301350   ARCTICA   1614259821RARCTICA00EAGLE UNIQUE                  00000000000000000000                21                      
903L001L5063200504094544892D23700001825065558861131556100000103400210301350   ARCTICA   1614259821RARCTICA01CLOROX AFRICA                 00000000000000000000                21                      
903L001L5063200504094544892D23700001925065562347807010100000018900210301350   ARCTICA   1614259821RARCTICA01THE NOT SO STARVING ARTIST    00000000000000000000                21                      
903L001L5063200504094544892D23700002019876501469057808100000018900210301350   ARCTICA   1614259821RARCTICA01WAVELENGHTS 11 PTY LTD        00000000000000000000                21                      
903L001L5063200504094544892D23700002163200504052176388100000018900210301350   ARCTICA   1614259821RARCTICA01ACPM                          00000000000000000000                21                      
903L001L5263200504094544892D23700002263200504094544892100000298200210301100000ARCTICA   CONTRACJZCUVJUNMZDGB                                                                                          
903L001L5063200504094544892D23700002325065562747289462100000014900210301350   OPECTORWEB1614259814RJOYSPRINGMARGAUX OVERBEEK              00000000000000000000                21                      
903L001L5063200504094544892D23700002447001001662935704100000014900210301350   OPECTORWEB1614259825RCROCKLADYWARDA KHAN                    00000000000000000000                21                      
903L001L5263200504094544892D23700002563200504094544892100000029800210301100000OPECTORWEBCONTRACQMTLFRHHWAF5C                                                                                          
903L001L5063200504094544892D23700002647001001453815587100000044275210301350   SERAPHIM  1614259832R490319   ONRUS BUTCHERY                00000000000000000000                21                      
903L001L5063200504094544892D23700002747001001413214973200000044275210301350   SERAPHIM  1614259832R560420   HT POTGIETER                  00000000000000000000                21                      
903L001L5063200504094544892D23700002819876501186411899100000044275210301350   SERAPHIM  1614259828R3013     AJ SMIT                       00000000000000000000                21                      
903L001L5063200504094544892D23700002925065562093250886100000044275210301350   SERAPHIM  1614259828R720814   NEEL SAAYMAN                  00000000000000000000                21                      
903L001L5063200504094544892D23700003063200504050895063100000044275210301350   SERAPHIM  1614259828R671109   DEBORAH FOUCHE                00000000000000000000                21                      
903L001L5063200504094544892D23700003163200500070801450100000044275210301350   SERAPHIM  1614259828R380611   F J STRYDOM                   00000000000000000000                21                      
903L001L5063200504094544892D23700003263200504086583868100000044275210301350   SERAPHIM  1614259828R680402   LOURINA WILSON                00000000000000000000                21                      
903L001L5063200504094544892D23700003363200504099103338100000044275210301350   SERAPHIM  1614259828R6804020  EL GM BASELY                  00000000000000000000                21                      
903L001L5263200504094544892D23700003463200504094544892100000354200210301100000SERAPHIM  CONTRARFBI8ESNTVQICW                                                                                          
903L001L5063200504094544892D23700003563200504085962017200000025000210301350   ABSOLIT   1614259817RSVD001   STANTON VAN DER MERWE         00000000000000000000                21                      
903L001L5063200504094544892D23700003647001001371723395200000025000210301350   ABSOLIT   1614259817RDC001    DAVID CROSS                   00000000000000000000                21                      
903L001L5063200504094544892D23700003725065562164164198100000025000210301350   ABSOLIT   1614259817RSH001    SAAJIDAH HUSSAIN              00000000000000000000                21                      
903L001L5063200504094544892D23700003847001001663025035200000025000210301350   ABSOLIT   1614259817RRK001    RIYAD KARRIEM                 00000000000000000000                21                      
903L001L5063200504094544892D23700003963200504080737742100000025000210301350   ABSOLIT   1614259817RSS001    SIRAAJ SAPTOE                 00000000000000000000                21                      
903L001L5063200504094544892D23700004025065559259005874100000012500210301350   ABSOLIT   1614259817RFA001    FAGMEEDA ADAMS                00000000000000000000                21                      
903L001L5063200504094544892D23700004147001001440463342200000025000210301350   ABSOLIT   1614259817REW001    ELIZABETH WOLHUTER            00000000000000000000                21                      
903L001L5063200504094544892D23700004247001001389093962200000025000210301350   ABSOLIT   1614259817RLS001    LIANNE STAINBANK              00000000000000000000                21                      
903L001L5063200504094544892D23700004325065562234236645100000025000210301350   ABSOLIT   1614259817RPM001    PENELOPE MASONTE              00000000000000000000                21                      
903L001L5063200504094544892D23700004425065550461102193200000025000210301350   ABSOLIT   1614259817RSG001    SHAREL GAMSU                  00000000000000000000                21                      
903L001L5063200504094544892D23700004547001001206365976200000025000210301350   ABSOLIT   1614259817RNM001    NATHANIEL MORAIS              00000000000000000000                21                      
903L001L5063200504094544892D23700004625065562060557562200000025000210301350   ABSOLIT   1614259817RJD001    JENIVIEF DAVIS                00000000000000000000                21                      
903L001L5063200504094544892D23700004725065562494900791200000025000210301350   ABSOLIT   1614259817RJT001    JUDE THOMAS                   00000000000000000000                21                      
903L001L5063200504094544892D23700004825065562310371216200000025000210301350   ABSOLIT   1614259817RBM001    BRENT MORDAUNT                00000000000000000000                21                      
903L001L5063200504094544892D23700004947001001385989244200000025000210301350   ABSOLIT   1614259817RMS001    MELANIE SCHEEPERS             00000000000000000000                21                      
903L001L5063200504094544892D23700005025065562014416970100000025000210301350   ABSOLIT   1614259817RMM001    MARY MAXES                    00000000000000000000                21                      
903L001L5063200504094544892D23700005147001001527256500200000025000210301350   ABSOLIT   1614259817RHP001    HELENE PETERS                 00000000000000000000                21                      
903L001L5063200504094544892D23700005225065562504261504200000025000210301350   ABSOLIT   1614259817RBJ001    BERENICE JOHANNESSEN          00000000000000000000                21                      
903L001L5063200504094544892D23700005325065562217080085100000025000210301350   ABSOLIT   1614259817RCS001    CLAYTON SCHOLTZ               00000000000000000000                21                      
903L001L5063200504094544892D23700005425065562341272590200000025000210301350   ABSOLIT   1614259817RLP001    LLEWELLYN PALMER              00000000000000000000                21                      
903L001L5063200504094544892D23700005505100110131202918100000025000210301350   ABSOLIT   1614259817RSD001    SHIRLEY DUNN                  00000000000000000000                21                      
903L001L5063200504094544892D23700005605100100411433377100000025000210301350   ABSOLIT   1614259817RET001    EULANDE THOMPSON              00000000000000000000                21                      
903L001L5063200504094544892D23700005719876501185583459100000025000210301350   ABSOLIT   1614259817RPW001    PRICILLA WARREN               00000000000000000000                21                      
903L001L5063200504094544892D23700005825065562036441187200000025000210301350   ABSOLIT   1614259817RMS002    MARY SAMSON                   00000000000000000000                21                      
903L001L5063200504094544892D23700005925065562768338933200000025000210301350   ABSOLIT   1614259817RRLA001   ROSCOE ALEXANDER              00000000000000000000                21                      
903L001L5063200504094544892D23700006025065562053155159100000025000210301350   ABSOLIT   1614259817RCD001    CARMEN DAVIS                  00000000000000000000                21                      
903L001L5063200504094544892D23700006119876501191824918100000025000210301350   ABSOLIT   1614259817RPL001    PETER LOBAY                   00000000000000000000                21                      
903L001L5063200504094544892D23700006225065550329011585100000025000210301350   ABSOLIT   1614259817RVG001    VICTOR GOODALL                00000000000000000000                21                      
903L001L5063200504094544892D23700006319876501205026703100000025000210301350   ABSOLIT   1614259817RBVW001   BLAINE VAN WYK                00000000000000000000                21                      
903L001L5063200504094544892D23700006447001001545855178200000025000210301350   ABSOLIT   1614259818RSS0001   SHAHEED SHAMAAR               00000000000000000000                21                      
903L001L5063200504094544892D23700006563200504091239785200000025000210301350   ABSOLIT   1614259818RMAM001   MARTHA MILLER                 00000000000000000000                21                      
903L001L5063200504094544892D23700006625065562191603705200000025000210301350   ABSOLIT   1614259818RRAEESK001RAEES KAMAAR                  00000000000000000000                21                      
903L001L5063200504094544892D23700006725065562348758618100000025000210301350   ABSOLIT   1614259818RPS001    PRASHANT SINGH                00000000000000000000                21                      
903L001L5063200504094544892D23700006825065550460076034100000025000210301350   ABSOLIT   1614259818RMR001    MARK ROUSSEAU                 00000000000000000000                21                      
903L001L5063200504094544892D23700006925065562523827345100000025000210301350   ABSOLIT   1614259818RAP001    ADAM PAULSEN                  00000000000000000000                21                      
903L001L5063200504094544892D23700007025065562071653771200000025000210301350   ABSOLIT   1614259818RMD0001   MORGAN DAVIS                  00000000000000000000                21                      
903L001L5063200504094544892D23700007125065555610018729200000025000210301350   ABSOLIT   1614259818RLP0001   LANCE PINTO                   00000000000000000000                21                      
903L001L5063200504094544892D23700007225065562306654816200000025000210301350   ABSOLIT   1614259818RDC0001   DANE COOKE                    00000000000000000000                21                      
903L001L5063200504094544892D23700007305100100002558874200000025000210301350   ABSOLIT   1614259818RAS001    ADRIAAN STARKEY               00000000000000000000                21                      
903L001L5063200504094544892D23700007405100100005061849200000025000210301350   ABSOLIT   1614259818RJB001    JAYNUB BROWN                  00000000000000000000                21                      
903L001L5063200504094544892D23700007505100100009117393100000025000210301350   ABSOLIT   1614259818RZL001    ZUNAIDE LOONAT                00000000000000000000                21                      
903L001L5063200504094544892D23700007647001001222410697200000025000210301350   ABSOLIT   1614259818RTB001    TERLECHIA BEEBY               00000000000000000000                21                      
903L001L5063200504094544892D23700007747001001530980230200000025000210301350   ABSOLIT   1614259818RMAL001   ARASHAAT LAWRENCE             00000000000000000000                21                      
903L001L5063200504094544892D23700007805100110038389515200000025000210301350   ABSOLIT   1614259825RKK001    KERWIN KISTAN                 00000000000000000000                21                      
903L001L5063200504094544892D23700007947001001378198504200000025000210301350   ABSOLIT   1614259825RFS001    FARHANA SNYMAN                00000000000000000000                21                      
903L001L5063200504094544892D23700008025065562191603705100000050000210301350   ABSOLIT   1614259825RKB001    KAYLEEN BOAS                  00000000000000000000                21                      
903L001L5063200504094544892D23700008147001001331943440200000025000210301350   ABSOLIT   1614259825RDP001    DANIELLE PETERSEN             00000000000000000000                21                      
903L001L5063200504094544892D23700008247001001179183310200000025000210301350   ABSOLIT   1614259825RFVN001   FAROUK VAN NIEKERK            00000000000000000000                21                      
903L001L5063200504094544892D23700008347001001360825213200000025000210301350   ABSOLIT   1614259825RJF001    JUSTIN FLORENCE               00000000000000000000                21                      
903L001L5063200504094544892D23700008425065562345404727200000025000210301350   ABSOLIT   1614259825RRG001    REGINALD GLADE                00000000000000000000                21                      
903L001L5063200504094544892D23700008525065562036767880200000025000210301350   ABSOLIT   1614259825RJS001    JANINE SOLOMON                00000000000000000000                21                      
903L001L5063200504094544892D23700008625065562448960212200000025000210301350   ABSOLIT   1614259825RCG001    CANDICE GRAHAM                00000000000000000000                21                      
903L001L5063200504094544892D23700008719876501011494736100000025000210301350   ABSOLIT   1614259825RPB001    PETUNIA BOTHA                 00000000000000000000                21                      
903L001L5063200504094544892D23700008847001001301557763200000025000210301350   ABSOLIT   1614259825RINGERR001INGER ROSKIN                  00000000000000000000                21                      
903L001L5063200504094544892D23700008905100100202722910200000025000210301350   ABSOLIT   1614259825RMYS001   YAYAH SNYMAN                  00000000000000000000                21                      
903L001L5263200504094544892D23700009063200504094544892100001387500210301100000ABSOLIT   CONTRAY1KQNXBRZDKKRI                                                                                          
903L001L5063200504094544892D23700009125065562426342599100000072000210301350   JAMFOX    1614259832RJFCAPRICEANGELIQUE STEYN               00000000000000000000                21                      
903L001L5063200504094544892D23700009247001001624623717200000082500210301350   JAMFOX    1614259833OJFLUCAS6 CHARLE BESTER                 00000000000000000000                21                      
903L001L5063200504094544892D23700009325065562103092368100000082000210301350   JAMFOX    1614259833RJFARNOLIEMICHAEL ARNOLDUS BOTHA        00000000000000000000                21                      
903L001L5063200504094544892D23700009419876502602223018200000045000210301350   JAMFOX    1614259833RJFASH15  SHELLEY SWANEPOEL             00000000000000000000                21                      
903L001L5063200504094544892D23700009525065562067549827100000096000210301350   JAMFOX    1614259833RJFZOE11ELHELEN HOMAN                   00000000000000000000                21                      
903L001L5063200504094544892D23700009605100100012767662100000069000210301350   JAMFOX    1614259833RJFDANIKA1SONJA SENEKAL                 00000000000000000000                21                      
903L001L5063200504094544892D23700009725065562244060638100000129000210301350   JAMFOX    1614259833RJFLISA6SUMA WEBER                      00000000000000000000                21                      
903L001L5063200504094544892D23700009847001001470378998100000031000210301350   JAMFOX    1614259833RJFGERDA37GERDA VENTER                  00000000000000000000                21                      
903L001L5063200504094544892D23700009963200504067646837100000040000210301350   JAMFOX    1614259833RJFMARISSAMELISSA VAN ASWEGEN           00000000000000000000                21                      
903L001L5063200504094544892D23700010005100100411285475100000093000210301350   JAMFOX    1614259833RJFCHARNE1T L SCHUTTE                   00000000000000000000                21                      
903L001L5063200504094544892D23700010125065562435262324100000048000210301350   JAMFOX    1614259821RJFCAYLA13CARLA VAN ZWEEL               00000000000000000000                21                      
903L001L5263200504094544892D23700010263200504094544892100000787500210301100000JAMFOX    CONTRAJL6IEYW3KGKLTC                                                                                          
903L001L5063200504094544892D23700010319876501950451623100000047920210301350   NEWYOU    1614259832R11       MARIETTE STEENKAMP            00000000000000000000                21                      
903L001L5063200504094544892D23700010419876501162411953100000059900210301350   NEWYOU    1614259832R12       NICA MYNHARDY                 00000000000000000000                21                      
903L001L5063200504094544892D23700010563200500438040110100000055900210301350   NEWYOU    1614259832R13       R VISSER                      00000000000000000000                21                      
903L001L5063200504094544892D23700010625065562263010862100000059900210301350   NEWYOU    1614259832R14       SANET VAN ROOYEN              00000000000000000000                21                      
903L001L5063200504094544892D23700010747001001293445590100000071920210301350   NEWYOU    1614259832R15       SUZANNE DIXON                 00000000000000000000                21                      
903L001L5063200504094544892D23700010863200504057486049100000047900210301350   NEWYOU    1614259832R16       T JOHNSTON                    00000000000000000000                21                      
903L001L5063200504094544892D23700010963200504065600463100000047920210301350   NEWYOU    1614259832R17       T VAN DER MERWE               00000000000000000000                21                      
903L001L5063200504094544892D23700011063200500000000000100000071910210301350   NEWYOU    1614259832R19       SUZANNE GREEN                 00000006903220041080                21                      
903L001L5063200504094544892D23700011147001001305692584200000047900210301350   NEWYOU    1614259832R20       CATHERINE CHRISTINA STANDER   00000000000000000000                21                      
903L001L5063200504094544892D23700011247001001329622241100000047920210301350   NEWYOU    1614259832R1        A MULLER                      00000000000000000000                21                      
903L001L5063200504094544892D23700011325065562278933463100000047920210301350   NEWYOU    1614259832R2        A BOSHOFF                     00000000000000000000                21                      
903L001L5063200504094544892D23700011425065562024499370100000063920210301350   NEWYOU    1614259832R3        CHRISTEL BORCHERDS            00000000000000000000                21                      
903L001L5063200504094544892D23700011563200500430149652100000055900210301350   NEWYOU    1614259832R4        GL VISSER                     00000000000000000000                21                      
903L001L5063200504094544892D23700011619876501203092946100000059900210301350   NEWYOU    1614259832R5        G GREEN                       00000000000000000000                21                      
903L001L5063200504094544892D23700011719876501029029121100000047920210301350   NEWYOU    1614259832R6        ILZE LAUBSCHER                00000000000000000000                21                      
903L001L5063200504094544892D23700011825065562365290263100000047920210301350   NEWYOU    1614259832R7        KARIN BARTMAN                 00000000000000000000                21                      
903L001L5063200504094544892D23700011925065562013388708100000059900210301350   NEWYOU    1614259832R8        LECIA SWANEPOEL               00000000000000000000                21                      
903L001L5063200504094544892D23700012025065562214206840100000055920210301350   NEWYOU    1614259832R10       M BOUCHER                     00000000000000000000                21                      
903L001L5263200504094544892D23700012163200504094544892100000998390210301100000NEWYOU    CONTRAXCWR7SEREQGOSX                                                                                          
903L001L5063200504094544892D23700012205100100020598807100000010000210301350   PMDOPS    1614259836R111S0014 DARICK INTERNATIONAL          00000000000000000000                21                      
903L001L5263200504094544892D23700012363200504094544892100000010000210301100000PMDOPS    CONTRA68686AMPOMU8ZS                                                                                          
901L001 D237/0000072/000057 00080-*** WARNING ONLY - ACCOUNT TYPE CHANGE - 2 TO 1 ***                                                                                                                 
901L001 D237/0000072/000087 00080-*** WARNING ONLY - ACCOUNT TYPE CHANGE - 2 TO 1 ***                                                                                                                 
901L001 D237/0000072/000094 00080-*** WARNING ONLY - ACCOUNT TYPE CHANGE - 1 TO 2 ***                                                                                                                 
999L000000130                                                                                                                                                                                         
