000L2021030500000PAYPORT CONSULTING PTY LTD EFT000065907303                                                                                                                                           
010LD237000014601                                                                                                                                                                                     
011LD23763200500000040945448920120210216                                                                                                                                                              
013L5020210215000329470010000000135681135100000008500CRESCENT1 CUS0052578          03600000000000                F RAHMAN                                                                             
014L0000000010000000000000000013568113510000000000850000000000000000                                                                                                                                  
011LD23763200500000040945448920120210227                                                                                                                                                              
013L5020210226006257222826000005499732621900000008500CRESCENT1 CUS0033822          03000000000000                M ABOO BAKER                                                                         
013L5020210226004197200912000006237741679000000008500CRESCENT1 CUS0044226          03400000000000                N ELAND                                                                              
013L5020210226005288470010000000160645012100000008500CRESCENT1 CUS0059239          03400000000000                Z PETERSEN                                                                           
013L5020210226002828250655000006268998089700000008500CRESCENT1 CUS0058109          03600000000000                L VAN REENEN                                                                         
013L5020210226000661470010000000154383392400000008500CRESCENT1 CUS0051176          03400000000000                Z COOK                                                                               
014L0000000050000000000000001832150079510000000004250000000000000000                                                                                                                                  
011LD23763200500000040945448920120210301                                                                                                                                                              
013L5020210227000057198765000000118558345900000025000ABSOLIT   1614259817RPW001    00200000000000                PRICILLA WARREN                                                                      
014L0000000010000000000000000011855834590000000002500000000000000000                                                                                                                                  
019L0000000070000000000000001857574027610000000007600000000000000000                                                                                                                                  
010LD237000014708                                                                                                                                                                                     
011LD23763200500000040945448920120210127                                                                                                                                                              
013L5020210127002686200912000006237741679000000008500CRESCENT1 CUS0044226          03400000000000                N ELAND                                                                              
014L0000000010000000000000000623774167900000000000850000000000000000                                                                                                                                  
019L0000000010000000000000000623774167900000000000850000000000000000                                                                                                                                  
999L000000022                                                                                                                                                                                         
