000L2021022400000PAYPORT CONSULTING PTY LTD EFT000064407303                                                                                                                                           
010LD237000013101                                                                                                                                                                                     
011LD23763200500000040945448920120210121                                                                                                                                                              
013L5020210120000413051001000000000907986600000008500CRESCENT1 CUS0057102          03000000000000                S PILLAY                                                                             
013L5020210120000040198765000000110844926300000008500CRESCENT1 CUS0058683          03000000000000                S SNAYERS                                                                            
013L5020210120000338051001000000000934626000000008500CRESCENT1 CUS0019643          03600000000000                R MOOIDEEN                                                                           
013L5020210120000019051001000000000923508600000016000CRESCENT1 CUS0035418          03000000000000                N DURRELL                                                                            
013L5020210120000392198765000000107827369300000016000CRESCENT1 CUS0028244          03000000000000                M RAGIEM                                                                             
014L0000000050000000000000000022143841680000000005750000000000000000                                                                                                                                  
011LD23763200500000040945448920120210125                                                                                                                                                              
013L5020210123000580203209000006253122395700000008500CRESCENT1 CUS0052606          03200000000000                A KRIEL                                                                              
014L0000000010000000000000000625312239570000000000850000000000000000                                                                                                                                  
011LD23763200500000040945448920120210130                                                                                                                                                              
013L5020210129001971051001000000007026795200000016000CRESCENT1 CUS0041327          03600000000000                M ADAMS                                                                              
014L0000000010000000000000000000702679520000000001600000000000000000                                                                                                                                  
011LD23763200500000040945448920120210220                                                                                                                                                              
013L5020210219000039051001000000000923508600000016000CRESCENT1 CUS0035418          03000000000000                N DURRELL                                                                            
013L5020210219000408250655000006275515955800000008500CRESCENT1 CUS0056471          00200000000000                G JACOBS                                                                             
013L5020210219000368051001000000024185798800000008500CRESCENT1 CUS0055100          03400000000000                J FREDERICKS                                                                         
013L5020210219000415198765000000110764210800000016000CRESCENT1 CUS0029044          03000000000000                A RAZAK                                                                              
013L5020210219000353051001000000000934626000000008500CRESCENT1 CUS0019643          03600000000000                R MOOIDEEN                                                                           
013L5020210219000021198765000000112728261100000008500CRESCENT1 CUS0033435          00400000000000                W ABRAHAMS                                                                           
013L5020210219000283256205000006232810966700000008500CRESCENT1 CUS0009877          00400000000000                F TAYOB                                                                              
013L5020210219000062250655000006277211227400000008500CRESCENT1 CUS0058762          01200000000000                C MILANZI                                                                            
013L5020210219000412210612000006262620698300000008500CRESCENT1 CUS0056667          00200000000000                M VARDALIA                                                                           
013L5020210219000394204709000006207100870200000008500CRESCENT1 CUS0056121          00200000000000                S SHABODIEN PHILANDER                                                                
013L5020210219000211198765000000197072203700000016000CRESCENT1 CUS0001455          00200000000000                M ABDULLA                                                                            
013L5020210219000208254205000006231129434200000008500CRESCENT1 CUS0048728          00200000000000                Q RYKLIEF                                                                            
013L5020210219000293256505000006229923713300000008500CRESCENT1 CUS0011194          00200000000000                S GANGAT                                                                             
013L5020210219000200051001000000040187631400000008500CRESCENT1 CUS0048366          03400000000000                Z MAYNER                                                                             
013L5020210219000219250056000006218583294800000008500CRESCENT1 CUS0002494          01200000000000                A HARTMANN                                                                           
013L5020210219000362200410000006267004297900000008500CRESCENT1 CUS0054885          01200000000000                A ABRAHAMS                                                                           
013L5020210219000184270724000006245274506400000008500CRESCENT1 CUS0046215          00200000000000                L MBHELE                                                                             
013L5020210219000205250805000005097901934300000008500CRESCENT1 CUS0000870          00400000000000                M BENN                                                                               
013L5020210219000404255355000006254314526400000008500CRESCENT1 CUS0056243          00400000000000                A ADAM                                                                               
013L5020210219000233255355000006229320863500000008500CRESCENT1 CUS0004148          01200000000000                R HARTLEY                                                                            
013L5020210219000024250655000006281943292300000008500CRESCENT1 CUS0057935          00200000000000                F VAN WITT                                                                           
013L5020210219000060231433000006266407152000000008500CRESCENT1 CUS0058756          00400000000000                A JASSAT                                                                             
013L5020210219000288203209000006237535191400000008500CRESCENT1 CUS0051795          00200000000000                W BROWN                                                                              
013L5020210219000004051001000000000907986600000008500CRESCENT1 CUS0057102          03000000000000                S PILLAY                                                                             
013L5020210219000204255355000006257476487700000008500CRESCENT1 CUS0048673          01200000000000                S GANIEF                                                                             
013L5020210219000411250805000005097901934300000007500CRESCENT1 CUS0028256          00400000000000                F BENN                                                                               
013L5020210219000379198765000000197072203700000015000CRESCENT1 CUS0023063          00200000000000                A ABDULLAH                                                                           
013L5020210219000260250805000005054901142200000008500CRESCENT1 CUS0050455          00400000000000                S ALLIE                                                                              
013L5020210219000242250040000006236754374300000008500CRESCENT1 CUS0049568          00200000000000                S PETERSEN                                                                           
013L5020210219000133250837000006239409592300000008500CRESCENT1 CUS0042430          00600000000000                F KHAN                                                                               
013L5020210219000346051001000000040429113900000008500CRESCENT1 CUS0054497          03400000000000                R HARRIS                                                                             
013L5020210219000038250655000006283028933700000016000CRESCENT1 CUS0058350          01200000000000                K WILLIAMS                                                                           
013L5020210219000131250805000006233333468900000008500CRESCENT1 CUS0042261          01200000000000                I LAWRENCE                                                                           
013L5020210219000082201909000006234189734800000008500CRESCENT1 CUS0058922          00200000000000                H MOREIRA                                                                            
014L0000000340000000000000014717679913770000000032450000000000000000                                                                                                                                  
019L0000000410000000000000015365838674540000000040650000000000000000                                                                                                                                  
010LD237000013208                                                                                                                                                                                     
011LD23763200500000040945448920120210127                                                                                                                                                              
013L5020210127003336470010000000139362877800000008500CRESCENT1 CUS0050482          03400000000000                M MATLAKALA                                                                          
013L5020210127001624198765000000110761903300000008500CRESCENT1 CUS0040472          03000000000000                M ISAACS                                                                             
014L0000000020000000000000000025012478110000000001700000000000000000                                                                                                                                  
019L0000000020000000000000000025012478110000000001700000000000000000                                                                                                                                  
999L000000059                                                                                                                                                                                         
