000L2021022100000PAYPORT CONSULTING PTY LTD EFT000064007303                                                                                                                                           
010LD237000012601                                                                                                                                                                                     
011LD23763200500000040945448920120210130                                                                                                                                                              
013L5020210129001241051001000000022008344400000008500CRESCENT1 CUS0007850          03000000000000                F PATEL                                                                              
014L0000000010000000000000000002200834440000000000850000000000000000                                                                                                                                  
011LD23763200500000040945448920120210216                                                                                                                                                              
013L5020210215000566258605000006207346724500000016000CRESCENT1 CUS0017470          00600000000000                A KHAN                                                                               
013L5020210215001058632005000000062408289300000008500CRESCENT1 CUS0043190          03092801001058                G VALIATHAM                                                                          
014L0000000020000000000000000626975501380000000002450000000000000000                                                                                                                                  
011LD23763200500000040945448920120210220                                                                                                                                                              
013L5020210219000347632005000000408205618000000023500CRESCENT1 CUS0018845          00300000000347                A KARA                                                                               
013L5020210219000361632005000000405742551600000024500CRESCENT1 CUS0020212          03492801000361                A PANKER                                                                             
013L5020210219000348632005000000927828339400000008500CRESCENT1 CUS0054498          03092801000348                C ADONIS                                                                             
013L5020210219000265632005000000922907873800000016000CRESCENT1 CUS0007387          00200016000265                A MIA                                                                                
013L5020210219000049632005000000913232055700000016000CRESCENT1 CUS0036509          00200016000049                A LIVINGSTONE                                                                        
013L5020210219000416632005000000928028054000000008500CRESCENT1 CUS0057033          00200016000416                A GEORGE                                                                             
013L5020210219000050632005000000935600440600000008500CRESCENT1 CUS0058625          00200016000050                G SIMONS                                                                             
014L0000000070000000000000000544154493310000000010550000000000000000                                                                                                                                  
019L0000000100000000000000001173330829130000000013850000000000000000                                                                                                                                  
010LD237000012708                                                                                                                                                                                     
011LD23763200500000040945448920120210127                                                                                                                                                              
013L5020210127004005270152000006227411877000000008500CRESCENT1 CUS0042091          03000000000000                K SWARTS                                                                             
014L0000000010000000000000000622741187700000000000850000000000000000                                                                                                                                  
019L0000000010000000000000000622741187700000000000850000000000000000                                                                                                                                  
999L000000025                                                                                                                                                                                         
