000L2021060600000PAYPORT CONSULTING PTY LTD EFT000080107303                                                                                                                                           
010LD237000023401                                                                                                                                                                                     
011LD23763200500000040945448920120210525                                                                                                                                                              
013L5020210524000512051001000001006216407200000016000CRESCENT1 CUS0053570          03000000000000                N MOHAMED                                                                            
014L0000000010000000000000000100621640720000000001600000000000000000                                                                                                                                  
011LD23763200500000040945448920120210531                                                                                                                                                              
013L5020210529001757470010000000147582654900000008500CRESCENT1 CUS0050925          03000000000000                R NAIDOO                                                                             
014L0000000010000000000000000014758265490000000000850000000000000000                                                                                                                                  
011LD23763200500000040945448920120210601                                                                                                                                                              
013L5020210531000226198765000000114031327400000066000ARM       1622295026R35       03000000000000                LISA TANG                                                                            
014L0000000010000000000000000011403132740000000006600000000000000000                                                                                                                                  
011LD23763200500000040945448920120210603                                                                                                                                                              
013L5020210602000007260349000006238807489200000004000PMDOPS    1622467819RWRMH002  01200000000000                ROZAQ MOHAMMED                                                                       
014L0000000010000000000000000623880748920000000000400000000000000000                                                                                                                                  
019L0000000040000000000000000750663787870000000009450000000000000000                                                                                                                                  
999L000000016                                                                                                                                                                                         
