000L2020111700000PAYPORT CONSULTING PTY LTD EFT000050707303                                                                                                                                           
010LD237000003601                                                                                                                                                                                     
011LD23763200500000040945448920120201117                                                                                                                                                              
013L5020201116000003632005000004081293331100000010000PAYPORT   1605360602O8888     02683002000003                JOHN DOW                                                                             
013L5020201116000002632005000000408129222100000010000PAYPORT   1605360602O9999     02683002000002                JANE DOW                                                                             
014L0000000020000000000000000448942255320000000002000000000000000000                                                                                                                                  
019L0000000020000000000000000448942255320000000002000000000000000000                                                                                                                                  
999L000000008                                                                                                                                                                                         
