000L2020041900000PAYPORT CONSULTING PTY LTD EFT000027507303                                                                                                                                           
010LD237000000501                                                                                                                                                                                     
011LD23763200500000040945448920120200416                                                                                                                                                              
013L5020200414000015250555000006237617809400000000500PAYPORT   SAME HOME LOAN      01200000000000                PAYPORT CONSULTING                                                                   
013L5020200414000012250555000006237617809400000001000PAYPORT   SAMEHOMELOAN1       01200000000000                PAYPORT CONSULTING                                                                   
014L0000000020000000000000001247523561880000000000150000000000000000                                                                                                                                  
019L0000000020000000000000001247523561880000000000150000000000000000                                                                                                                                  
999L000000008                                                                                                                                                                                         
