000L2021060400000PAYPORT CONSULTING PTY LTD EFT000079807303                                                                                                                                           
010LD237000023201                                                                                                                                                                                     
011LD23763200500000040945448920120210426                                                                                                                                                              
013L5020210424002769051001000000027176900900000006900CRESCENT1 CUS0059659          03000000000000                T RAJIE                                                                              
014L0000000010000000000000000002717690090000000000690000000000000000                                                                                                                                  
011LD23763200500000040945448920120210430                                                                                                                                                              
013L5020210429001115198765000000115397806700000008500CRESCENT1 CUS0055492          03000000000000                M SMITH                                                                              
014L0000000010000000000000000011539780670000000000850000000000000000                                                                                                                                  
011LD23763200500000040945448920120210514                                                                                                                                                              
013L5020210513000936051001000000002243716900000016000CRESCENT1 CUS0049542          03200000000000                S LOONAT                                                                             
014L0000000010000000000000000000224371690000000001600000000000000000                                                                                                                                  
011LD23763200500000040945448920120210525                                                                                                                                                              
013L5020210524000735198765000000116412650400000008500CRESCENT1 CUS0025175          03000000000000                JOHANSEN SODOMS                                                                      
014L0000000010000000000000000011641265040000000000850000000000000000                                                                                                                                  
011LD23763200500000040945448920120210527                                                                                                                                                              
013L5020210526000348462005000000264653600100000008500CRESCENT1 CUS0054814          03000000000000                M BAKER                                                                              
014L0000000010000000000000000026465360010000000000850000000000000000                                                                                                                                  
011LD23763200500000040945448920120210531                                                                                                                                                              
013L5020210529001752198765000000108461472300000008500CRESCENT1 CUS0022826          00200000000000                S ESSOP                                                                              
013L5020210529001933252245000006219303976800000008500CRESCENT1 CUS0012538          03000000000000                N MAHOMED                                                                            
013L5020210529000680198765000000120104208900000008500CRESCENT1 CUS0059368          00200000000000                E SARLIE                                                                             
013L5020210529000509198765000000116495846100000008500CRESCENT1 CUS0057739          00200000000000                R SAMSODIEN                                                                          
013L5020210529001048470010000000133943056600000008500CRESCENT1 CUS0054978          03000000000000                M SAVAHL                                                                             
013L5020210529001188198765000000102128306100000008500CRESCENT1 CUS0055371          00200000000000                S BURTON                                                                             
013L5020210529002113051001000000004898692500000016000CRESCENT1 CUS0042078          03400000000000                B KAHN                                                                               
013L5020210529001962198765000000109039705400000008500CRESCENT1 CUS0056700          00200000000000                F BETHANE                                                                            
013L5020210529002360198765000000110175221100000008500CRESCENT1 CUS0059978          00200000000000                S MBATHA                                                                             
013L5020210529000020198765000000115953655400000008500CRESCENT1 CUS0059143          00200000000000                N MILAZI                                                                             
013L5020210529000498470010000000118969076200000008500CRESCENT1 CUS0053930          03000000000000                I RAYEPEN-ESS                                                                        
013L5020210529001298198765000000195341553900000016000CRESCENT1 CUS0055577          00200000000000                D HARDIEN                                                                            
013L5020210529000922198765000000265139567600000016000CRESCENT1 CUS0019065          00200000000000                A ISMAIL                                                                             
014L0000000130000000000000000771995433890000000013300000000000000000                                                                                                                                  
011LD23763200500000040945448920120210601                                                                                                                                                              
013L5020210531000194201509000006205343728400000066000ARM       1622295026R15       00200000000000                THANDISWA MAGIBISELA                                                                 
013L5020210531000053254005000006205502751200000025000ABSOLIT   1622122218RFD003    00200000000000                B KUDUNTWANE                                                                         
013L5020210531000103198765000000120309294600000059900NEWYOU    1622295015R5        03000000000000                G GREEN                                                                              
013L5020210531000058250655000006284632422600000025000ABSOLIT   1622122218RFD014    00200000000000                S DHLAMINI                                                                           
013L5020210531000158200710000006266802578900000069900NEWYOU    1622295031R64       00200000000000                BERNICE MALAN                                                                        
013L5020210531000242250655000006277314356700000132000ARM       1622295031R69       00300000000000                CHARLTON B GOVENDER                                                                  
013L5020210531000206201909000006254616977400000650000ARM       1622295026R625461   00200000000000                CHOMUNORWA GONORENDA                                                                 
014L0000000070000000000000003761452210980000000102780000000000000000                                                                                                                                  
019L0000000250000000000000004586036112370000000120920000000000000000                                                                                                                                  
999L000000043                                                                                                                                                                                         
