000L2020102100000PAYPORT CONSULTING PTY LTD EFT000047307303                                                                                                                                           
010LD237000002101                                                                                                                                                                                     
011LD23763200500000040945448920120201021                                                                                                                                                              
013L5020201020000398632005000000158107267800000008500CRESCENT1 1603195657OCUS00339602683002000398                M CASSIM                                                                             
013L5020201020000032470010000000154458589200000016000CRESCENT1 1603195658OCUS00584102682502000032                A SMITH                                                                              
013L5020201020000017051001000001000711236200000008500CRESCENT1 1603195657OCUS00379902682502000017                F ABRAHAMS                                                                           
013L5020201020000076632005000000919508081500000008500CRESCENT1 1603195657OCUS00418902682502000076                R DAWOOD                                                                             
013L5020201020000349632005000000938598964000000008500CRESCENT1 1603195658OCUS00551102683002000349                S KHAN                                                                               
013L5020201020000232250655000000025230779800000008500CRESCENT1 1603195657OCUS00093602682502000232                M SAYED                                                                              
013L5020201020000063470010000000013394046500000008500CRESCENT1 1603195657OCUS00413602682502000063                I BEUKMAN                                                                            
013L5020201020000013198765000000118496429800000008500CRESCENT1 1603195657OCUS00377602682502000013                R PETERS                                                                             
013L5020201020000092250655000000106270751600000008500CRESCENT1 1603195657OCUS00433402682502000092                M NADAT                                                                              
013L5020201020000160632005000000480489753400000016000CRESCENT1 1603195656OCUS00013902682502000160                M DEAN                                                                               
014L0000000100000000000000000391526589980000000010000000000000000000                                                                                                                                  
019L0000000100000000000000000391526589980000000010000000000000000000                                                                                                                                  
999L000000016                                                                                                                                                                                         
