000L2021040800000PAYPORT CONSULTING PTY LTD EFT000070807303                                                                                                                                           
010LD237000017901                                                                                                                                                                                     
011LD23763200500000040945448920120210227                                                                                                                                                              
013L5020210226002609051001000000007026795200000016000CRESCENT1 CUS0041327          03400000000000                M ADAMS                                                                              
013L5020210226001159198765000000115397806700000008500CRESCENT1 CUS0055492          03000000000000                M SMITH                                                                              
013L5020210226005785198765000000113029555900000008500CRESCENT1 CUS0048732          03000000000000                B KETI                                                                               
014L0000000030000000000000000023545415780000000003300000000000000000                                                                                                                                  
011LD23763200500000040945448920120210320                                                                                                                                                              
013L5020210319000090051001000000000901211700000031000CRESCENT1 CUS0006778          03000000000000                A MOHAMED                                                                            
014L0000000010000000000000000000090121170000000003100000000000000000                                                                                                                                  
011LD23763200500000040945448920120210325                                                                                                                                                              
013L5020210324000764470010000000118167376100000008500CRESCENT1 CUS0058416          03200000000000                A GEDULD                                                                             
014L0000000010000000000000000011816737610000000000850000000000000000                                                                                                                                  
011LD23763200500000040945448920120210331                                                                                                                                                              
013L5020210330002092051001000000007026795200000016000CRESCENT1 CUS0041327          03400000000000                M ADAMS                                                                              
013L5020210330000089051001000000027117887600000008500CRESCENT1 CUS0047828          03400000000000                S ARIEFDIEN                                                                          
013L5020210330001525570105000001133469310000000008500CRESCENT1 CUS0028382          02600000000000                N SATHOLE                                                                            
013L5020210330002507198765000000123401434300000031000CRESCENT1 CUS0002362          03000000000000                B AKOOJEE                                                                            
014L0000000040000000000000000129101542710000000006400000000000000000                                                                                                                                  
019L0000000090000000000000000164553817270000000013650000000000000000                                                                                                                                  
999L000000021                                                                                                                                                                                         
