000L2021012000000PAYPORT CONSULTING PTY LTD EFT000059307303                                                                                                                                           
010LD237000008301                                                                                                                                                                                     
011LD23763200500000040945448920120210116                                                                                                                                                              
013L5020210115000372210224000006265673972200000016000CRESCENT1 CUS0037885          00600000000000                F KHAN                                                                               
013L5020210115001116261050000005060016673600000008500CRESCENT1 CUS0005085          00200000000000                I WILLIAMS                                                                           
013L5020210115001180198765000000119050593200000008500CRESCENT1 CUS0057430          00400000000000                A DAVIDS                                                                             
013L5020210115000578198765000000113319081200000008500CRESCENT1 CUS0048273          01200000000000                K BENJAMIN                                                                           
013L5020210115000660250655000006280942207500000008500CRESCENT1 CUS0058860          00200000000000                Z KASSIM                                                                             
013L5020210115000987210054000006230954179700000008500CRESCENT1 CUS0025718          00200000000000                M KARRIM                                                                             
013L5020210115000674198765000000105896260400000008500CRESCENT1 CUS0055165          00200000000000                K DE BRUIN                                                                           
013L5020210115000210200910000006236506498100000008500CRESCENT1 CUS0058405          00200000000000                R STRYDOM                                                                            
013L5020210115001254250737000006253243920600000008500CRESCENT1 CUS0051618          00600000000000                D COERECIUS                                                                          
013L5020210115000581250141000006219857769800000008500CRESCENT1 CUS0018084          00200000000000                M ISAACS                                                                             
013L5020210115000270678910000005100720116600000008500CRESCENT1 CUS0058671          00200000000000                Y LEE                                                                                
013L5020210115000937252245000006227448404800000008500CRESCENT1 CUS0024806          01200000000000                Z DANIEL KHAN                                                                        
013L5020210115001175250655000006276719041700000008500CRESCENT1 CUS0057409          00200000000000                C NOMDOE                                                                             
013L5020210115001082222826000006242969024200000008500CRESCENT1 CUS0027798          00400000000000                S KHAN                                                                               
013L5020210115000725250737000006212865996100000016000CRESCENT1 CUS0020135          00200000000000                A SULIMAN                                                                            
013L5020210115000561256505000006209503515300000008500CRESCENT1 CUS0017810          00200000000000                A QADER                                                                              
013L5020210115000262260225000006245685213800000008500CRESCENT1 CUS0036531          00200000000000                N SINGH                                                                              
013L5020210115000267220425000006208294156100000008500CRESCENT1 CUS0036597          00400000000000                T AMLA                                                                               
013L5020210115000112220225000006211030693400000008500CRESCENT1 CUS0034836          00200000000000                F KHAN                                                                               
013L5020210115001176198765000000110836186200000008500CRESCENT1 CUS0006698          00200000000000                N MIA                                                                                
013L5020210115000751250856000006215461506000000016000CRESCENT1 CUS0049027          00600000000000                N DEDZA                                                                              
013L5020210115000299198765000000110869420900000008500CRESCENT1 CUS0052901          00200000000000                G ABRAHAMS                                                                           
013L5020210115000047220229000006203034348800000008500CRESCENT1 CUS0033467          01200000000000                A HAMIDU                                                                             
013L5020210115000125250655000006280686167200000008500CRESCENT1 CUS0058246          00200000000000                M PADIA                                                                              
013L5020210115000609221326000005389003109000000008500CRESCENT1 CUS0054795          00200000000000                A KHAN                                                                               
013L5020210115000445239934000006209420488200000008500CRESCENT1 CUS0059072          00200000000000                H THEKISO                                                                            
013L5020210115000285198765000000113971027300000008500CRESCENT1 CUS0058690          00400000000000                A AMLAY                                                                              
013L5020210115000663201109000006222940760700000006900CRESCENT1 CUS0048628          01200000000000                F SOLOMONS                                                                           
013L5020210115000107198765000000265638458300000008500CRESCENT1 CUS0034805          01200000000000                H KHAN                                                                               
013L5020210115001135198765000000115202694100000008500CRESCENT1 CUS0057207          00200000000000                Y WATERLOO                                                                           
013L5020210115000929198765000000102622222200000008500CRESCENT1 CUS0049943          00200000000000                S KAMAAR                                                                             
013L5020210115000762201909000005008060088300000008500CRESCENT1 CUS0041625          00200000000000                M MOHAMED                                                                            
013L5020210115000615210502000006208512644100000006900CRESCENT1 CUS0037027          00200000000000                F RAJAAL                                                                             
013L5020210115000349220229000005091004298100000008500CRESCENT1 CUS0053004          00200000000000                R DASIGADU                                                                           
013L5020210115000570250805000006208023168300000008500CRESCENT1 CUS0005938          00200000000000                S CASSIM                                                                             
013L5020210115000749256955000006210507147700000008500CRESCENT1 CUS0020379          01200000000000                F KADIR                                                                              
013L5020210115001069221926000006242192609100000016000CRESCENT1 CUS0050791          01200000000000                D SAFLA                                                                              
013L5020210115000747250114000006207510668500000008500CRESCENT1 CUS0048999          01200000000000                H MOOS                                                                               
013L5020210115000055250555000006253343008900000008500CRESCENT1 CUS0058082          01200000000000                C GUSHA                                                                              
013L5020210115000070203109000006267499139600000008500CRESCENT1 CUS0058110          00200000000000                M ABDEROUF                                                                           
013L5020210115000873255355000006239477720800000008500CRESCENT1 CUS0042386          00200000000000                M OSMAN                                                                              
013L5020210115000480210046000006248561857700000008500CRESCENT1 CUS0059193          00200000000000                T ADAMS                                                                              
013L5020210115000544198765000000106973420900000008500CRESCENT1 CUS0053767          01200000000000                S BENJAMIN                                                                           
013L5020210115001005198765000000110738095200000008500CRESCENT1 CUS0056593          00200000000000                S TIMMS                                                                              
013L5020210115001112240438000006248030796900000008500CRESCENT1 CUS0028939          01200000000000                Y MOWANDI                                                                            
013L5020210115000893250837000006239409592300000008500CRESCENT1 CUS0042430          00200000000000                F KHAN                                                                               
013L5020210115000325250655000006281485359600000016000CRESCENT1 CUS0058841          00200000000000                R JOUBYAR                                                                            
013L5020210115001204203209000006231072273200000008500CRESCENT1 CUS0051290          00200000000000                A LATIEF                                                                             
013L5020210115000037252245000006211829452900000008500CRESCENT1 CUS0033261          00200000000000                I VALLEE                                                                             
013L5020210115000947252245000006218802231400000008500CRESCENT1 CUS0025002          00200000000000                R MOHAMED                                                                            
013L5020210115000942222826000006255848932600000016000CRESCENT1 CUS0024885          00600000000000                M JOOSAB                                                                             
013L5020210115001224201409000006247393103000000008500CRESCENT1 CUS0051435          00400000000000                T DIEDERICKS                                                                         
013L5020210115000179250942000006206548741700000008500CRESCENT1 CUS0052410          00200000000000                U MCKAY                                                                              
013L5020210115000805201409000005026112727600000007500CRESCENT1 CUS0055835          00600000000000                F DAVIDS                                                                             
013L5020210115000170198765000000116511281700000008500CRESCENT1 CUS0058320          01200000000000                D AFRICA                                                                             
013L5020210115001238250537000006245635951400000008500CRESCENT1 CUS0044963          00200000000000                A KAABI                                                                              
013L5020210115000101256205000006232810966700000008500CRESCENT1 CUS0009877          00400000000000                F TAYOB                                                                              
013L5020210115000963632005000000062408289300000008500CRESCENT1 CUS0043190          03092801000963                G VALIATHAM                                                                          
013L5020210115000205198765000000119584241400000008500CRESCENT1 CUS0058398          00600000000000                M JACOBS                                                                             
013L5020210115000855250655000006273848015200000008500CRESCENT1 CUS0055952          00200000000000                S MAMDOO                                                                             
013L5020210115000264198765000000100474484600000008500CRESCENT1 CUS0052770          01200000000000                S WILLIAMS                                                                           
013L5020210115000243255355000006252653850100000008500CRESCENT1 CUS0046387          00400000000000                Y HASSEN                                                                             
013L5020210115001101252505000006243022367800000023500CRESCENT1 CUS0004940          01200000000000                A KHAN                                                                               
013L5020210115000637260149000006213203027200000015000CRESCENT1 CUS0040443          00400000000000                N OSMAN                                                                              
013L5020210115000846051001000000000307558300000008500CRESCENT1 CUS0000788          03400000000000                N KHAN                                                                               
013L5020210115000114200909000006242785419700000008500CRESCENT1 CUS0051962          00200000000000                F AHMED                                                                              
013L5020210115000027250655000006274691016700000007500CRESCENT1 CUS0033203          03000000000000                S OBARAY                                                                             
013L5020210115000966250241000006207575718100000016000CRESCENT1 CUS0003267          03000000000000                A KHAN                                                                               
014L0000000680000000000000031931483297380000000064680000000000000000                                                                                                                                  
019L0000000680000000000000031931483297380000000064680000000000000000                                                                                                                                  
999L000000074                                                                                                                                                                                         
