000L2021031700000PAYPORT CONSULTING PTY LTD EFT000067507303                                                                                                                                           
010LD237000015901                                                                                                                                                                                     
011LD23763200500000040945448920120210216                                                                                                                                                              
013L5020210215000460470010000000162891710300000008500CRESCENT1 CUS0058863          03200000000000                M QANGULE                                                                            
014L0000000010000000000000000016289171030000000000850000000000000000                                                                                                                                  
011LD23763200500000040945448920120210220                                                                                                                                                              
013L5020210219000113632005000000922002647300000008500CRESCENT1 CUS0040962          03092801000113                S ENGAR                                                                              
014L0000000010000000000000000092200264730000000000850000000000000000                                                                                                                                  
011LD23763200500000040945448920120210227                                                                                                                                                              
013L5020210226000064051001000001010435055300000008500CRESCENT1 CUS0057346          03000000000000                F PATEL                                                                              
013L5020210226005174470010000000139362877800000008500CRESCENT1 CUS0050482          03400000000000                M MATLAKALA                                                                          
013L5020210226000579051001000000005131062700000006900CRESCENT1 CUS0030465          03000000000000                H KAJEE                                                                              
013L5020210226003285470010000000126830893300000016000CRESCENT1 CUS0047292          03000000000000                G JANSEN                                                                             
014L0000000040000000000000000128175988910000000003990000000000000000                                                                                                                                  
011LD23763200500000040945448920120210316                                                                                                                                                              
013L5020210315000841632005000000925826351200000008500CRESCENT1 CUS0057791          00300000000841                E ISAACS                                                                             
013L5020210315000297632005000000904866522700000008500CRESCENT1 CUS0040912          01800004000297                A SATTAR                                                                             
013L5020210315000237632005000000934885380300000008500CRESCENT1 CUS0040405          00200016000237                N MOYA                                                                               
013L5020210315000492632005000000910839144100000008500CRESCENT1 CUS0002240          00492802000492                M EBRAHIM                                                                            
013L5020210315001027580105000001001127431700000016000CRESCENT1 CUS0011476          00600000000000                A ALLIE                                                                              
013L5020210315000927632005000000913674871500000008500CRESCENT1 CUS0009745          00300040000927                T MOOSA                                                                              
013L5020210315001054632005000000408899308100000016000CRESCENT1 CUS0045981          03492801001054                A SMITH                                                                              
013L5020210315001169632005000000908499064400000008500CRESCENT1 CUS0046818          00200016001169                R ANTHONY                                                                            
013L5020210315000783632005000000933444154900000006900CRESCENT1 CUS0030980          00200016000783                R DEAN                                                                               
013L5020210315001198632005000000920898468100000008500CRESCENT1 CUS0037744          00300000001198                M DAVIDS                                                                             
013L5020210315000466632005000000915821471000000008500CRESCENT1 CUS0056009          00200016000466                F MANUEL                                                                             
013L5020210315000542632005000000912332373600000008500CRESCENT1 CUS0003381          00492802000542                Z GORA                                                                               
013L5020210315001001632005000000935317943000000008500CRESCENT1 CUS0058276          00200016001001                J JACKSON                                                                            
013L5020210315001245632005000000922931169500000008500CRESCENT1 CUS0053143          00200016001245                F OSMAN                                                                              
013L5020210315000332632005000000905065444800000014400CRESCENT1 CUS0020308          00200016000332                H LILLAH                                                                             
013L5020210315000227632005000000927932145200000008500CRESCENT1 CUS0054911          00200016000227                M JACOBS                                                                             
013L5020210315000465632005000000906500270100000007500CRESCENT1 CUS0049688          00200016000465                M ISAACS                                                                             
013L5020210315001116632005000000929019463200000008500CRESCENT1 CUS0058663          00200016001116                E GANIEF                                                                             
013L5020210315000172632005000000934078813700000008500CRESCENT1 CUS0059453          00200016000172                N GALIEM                                                                             
013L5020210315000759632005000000001372853400000008500CRESCENT1 CUS0044526          01800004000759                R ZOUTENBERG                                                                         
013L5020210315000701632005000000407000838100000008500CRESCENT1 CUS0057197          00300000000701                I KHAN                                                                               
013L5020210315000847632005000000900453232600000015000CRESCENT1 CUS0007898          00492802000847                R BHAYAT                                                                             
013L5020210315000315632005000000920783945500000008500CRESCENT1 CUS0055541          00200016000315                F ABRAHAMS                                                                           
014L0000000230000000000000001928157066070000000022030000000000000000                                                                                                                                  
019L0000000290000000000000002164822490740000000027720000000000000000                                                                                                                                  
999L000000041                                                                                                                                                                                         
