000L2021052700000PAYPORT CONSULTING PTY LTD EFT000078307303                                                                                                                                           
010LD237000022401                                                                                                                                                                                     
011LD23763200500000040945448920120210426                                                                                                                                                              
013L5020210424001374051001000000040144589500000008500CRESCENT1 CUS0022987          03400000000000                S KHAN                                                                               
013L5020210424001605470010000000136219884400000016000CRESCENT1 CUS0047518          03400000000000                S SHAIK                                                                              
014L0000000020000000000000000017636447390000000002450000000000000000                                                                                                                                  
011LD23763200500000040945448920120210525                                                                                                                                                              
013L5020210524000012470010000000137474821600000007500CRESCENT1 CUS0057357          00200000000000                F ISMAIL                                                                             
013L5020210524000225470010000000125169725700000008500CRESCENT1 CUS0058777          00200000000000                I JUDAAR                                                                             
013L5020210524000555051001000000003124281200000008500CRESCENT1 CUS0015929          00200000000000                S THOMPSON                                                                           
013L5020210524000845470010000000152480677100000016000CRESCENT1 CUS0057096          00400000000000                S CROEP                                                                              
013L5020210524000261470010000000173565584600000008500CRESCENT1 CUS0058990          03400000000000                I JOHNSON                                                                            
013L5020210524000716470010000000152404000000000008500CRESCENT1 CUS0055829          00200000000000                A TITUS                                                                              
013L5020210524000726051001000000020105119200000016000CRESCENT1 CUS0024615          00200000000000                A MILLER                                                                             
013L5020210524000104051001000001009596784000000008500CRESCENT1 CUS0049310          00400000000000                Z KHAN                                                                               
013L5020210524000279051001000000027640044500000016000CRESCENT1 CUS0039801          00200000000000                F OLIVIER                                                                            
013L5020210524000258051001000000002090091000000008500CRESCENT1 CUS0004684          00400000000000                I ASNAL                                                                              
013L5020210524000425470010000000135029430400000008500CRESCENT1 CUS0059605          00400000000000                L BENJAMIN                                                                           
013L5020210524000389470010000000147697704400000008500CRESCENT1 CUS0059461          01200000000000                N HALIEM                                                                             
013L5020210524000353470010000000150696387900000008500CRESCENT1 CUS0059310          00200000000000                N THWALA                                                                             
013L5020210524000713470010000000139958181100000008500CRESCENT1 CUS0055825          00200000000000                R CASSIM                                                                             
013L5020210524000337462005000001028403130100000008500CRESCENT1 CUS0059230          00200000000000                R DE VRIES                                                                           
013L5020210524000101470010000000132518490800000008500CRESCENT1 CUS0049278          00400000000000                W PLAYTON                                                                            
013L5020210524000542470010000000143342036600000008500CRESCENT1 CUS0053870          00400000000000                K MOHAMED                                                                            
013L5020210524000145470010000000134006074200000016000CRESCENT1 CUS0058402          00200000000000                A TOPLEY                                                                             
013L5020210524000683051001000000037486748800000008500CRESCENT1 CUS0055601          00400000000000                S ABRAHAMS                                                                           
013L5020210524000273470010000000149945430700000008500CRESCENT1 CUS0059082          00200000000000                A MOSES                                                                              
013L5020210524000084470010000000158066164300000008500CRESCENT1 CUS0057954          00200000000000                M LUBBE                                                                              
013L5020210524000205470010000000164318173200000008500CRESCENT1 CUS0058678          00200000000000                S DAVIDS                                                                             
013L5020210524000428470010000000131057906500000008500CRESCENT1 CUS0052562          00200000000000                T BRAMDER                                                                            
013L5020210524000815470010000000134173250700000008500CRESCENT1 CUS0056792          00200000000000                A SALLIE                                                                             
013L5020210524000536470010000000147742283600000008500CRESCENT1 CUS0053821          01200000000000                F NHLAPO                                                                             
013L5020210524000213470010000000150599084800000008500CRESCENT1 CUS0058689          00200000000000                I AMLAY                                                                              
013L5020210524000377470010000000124137979100000008500CRESCENT1 CUS0059434          00200000000000                S MAHOMED                                                                            
013L5020210524000325470010000000124522016900000008500CRESCENT1 CUS0059194          00200000000000                A ARENDSE                                                                            
013L5020210524000672051001000000002107350300000016000CRESCENT1 CUS0020957          00400000000000                F MILLS                                                                              
013L5020210524000452051001000001003589342500000008500CRESCENT1 CUS0052826          01200000000000                Y JAMIE                                                                              
013L5020210524000426051001000000000161796600000008500CRESCENT1 CUS0010495          01200000000000                N JABAAR                                                                             
013L5020210524000637051001000000007325417700000008500CRESCENT1 CUS0044865          00200000000000                M FAKIER                                                                             
013L5020210524000764470010000000160050798900000008500CRESCENT1 CUS0056252          00200000000000                M MOGODISENG                                                                         
013L5020210524000059470010000000143992859000000016000CRESCENT1 CUS0048675          00200000000000                S JURIES                                                                             
013L5020210524000021470010000000140980096000000008500CRESCENT1 CUS0057412          00200000000000                S SAMUELS                                                                            
013L5020210524000623470010000000137726598400000008500CRESCENT1 CUS0054865          00200000000000                M DE JONGH                                                                           
013L5020210524000336051001000000002159822300000008500CRESCENT1 CUS0051371          00400000000000                S ESSOP                                                                              
013L5020210524000196470010000000115236149800000008500CRESCENT1 CUS0050234          01200000000000                N LENNOX                                                                             
013L5020210524000614470010000000128996735900000008500CRESCENT1 CUS0054777          00200000000000                T STUURMAN                                                                           
013L5020210524000144470010000000114036416000000008500CRESCENT1 CUS0049657          00200000000000                F SOLOMON                                                                            
013L5020210524000714470010000000140102780400000008500CRESCENT1 CUS0022885          00200000000000                I TLADI                                                                              
013L5020210524000066051001000001006059869500000008500CRESCENT1 CUS0057776          00200000000000                R PHIRI                                                                              
013L5020210524000133470010000000120616079700000008500CRESCENT1 CUS0058336          00200000000000                Z BUFFAINS                                                                           
013L5020210524000802470010000000130337923400000008500CRESCENT1 CUS0047226          00400000000000                M KHAN                                                                               
013L5020210524000009470010000000149717209600000016000CRESCENT1 CUS0057338          00200000000000                M WHISGANY                                                                           
013L5020210524000287470010000000126214139500000008500CRESCENT1 CUS0039962          00200000000000                I PATEL                                                                              
013L5020210524000049460005000000005108575000000015000CRESCENT1 CUS0034957          00200000000000                J MOTHA                                                                              
013L5020210524000027051001000001004226970700000016000CRESCENT1 CUS0057490          01200000000000                A JORDAAN                                                                            
013L5020210524000061678910000005102495416200000008500CRESCENT1 CUS0035165          00200000000000                S GALSOOLKER                                                                         
013L5020210524000229470010000000164725639700000008500CRESCENT1 CUS0058779          00200000000000                R ISAACS                                                                             
013L5020210524000201051001000001009380497900000008500CRESCENT1 CUS0058676          01200000000000                I HENDRICKS                                                                          
013L5020210524000727470010000000116530342400000008500CRESCENT1 CUS0046276          00200000000000                L MAKAU                                                                              
013L5020210524000710470010000000146770884200000008500CRESCENT1 CUS0055802          00400000000000                J LIEDEMAN                                                                           
013L5020210524000677470010000000142432656500000016000CRESCENT1 CUS0055542          00200000000000                A ABRAHAMS                                                                           
013L5020210524000393470010000000134303584600000008500CRESCENT1 CUS0059482          00200000000000                Z MANUEL                                                                             
013L5020210524000015470010000000155894516200000007500CRESCENT1 CUS0057380          00200000000000                F JOSEPH                                                                             
013L5020210524000493470010000000152552522900000008500CRESCENT1 CUS0059946          00200000000000                W ISAACS                                                                             
013L5020210524000208470010000000144978612800000008500CRESCENT1 CUS0050343          00200000000000                S ABRAHAMS                                                                           
013L5020210524000105470010000000156785207400000008500CRESCENT1 CUS0058092          00200000000000                Z ABRAHAMS                                                                           
013L5020210524000328470010000000163764926400000008500CRESCENT1 CUS0051343          00400000000000                F DAWOOD                                                                             
013L5020210524000071470010000000116883099900000016000CRESCENT1 CUS0048831          03000000000000                K MANEVELD                                                                           
013L5020210524000312051001000001006676710300000016000CRESCENT1 CUS0051285          00200000000000                A SASMAN                                                                             
013L5020210524000719470010000000140391941900000016000CRESCENT1 CUS0055832          00200000000000                S LEITJIES                                                                           
013L5020210524000404470010000000144946219500000008500CRESCENT1 CUS0052258          00200000000000                A ADAMS                                                                              
013L5020210524000361051001000001014038549300000008500CRESCENT1 CUS0059363          00200000000000                F DAVIDS                                                                             
013L5020210524000575470010000000154364425000000008500CRESCENT1 CUS0054375          00200000000000                F STONE                                                                              
013L5020210524000441470010000000127607871200000008500CRESCENT1 CUS0059683          00200000000000                F WILLIAMS                                                                           
013L5020210524000704051001000000000928192400000008500CRESCENT1 CUS0055776          00400000000000                A ALLIE                                                                              
013L5020210524000045470010000000150819396500000008500CRESCENT1 CUS0057556          00200000000000                N MOHAMED                                                                            
013L5020210524000141470010000000162737823300000008500CRESCENT1 CUS0058400          00200000000000                B SAMUELS                                                                            
013L5020210524000169051001000000027776533100000008500CRESCENT1 CUS0058527          00200000000000                M WALKER                                                                             
014L0000000710000000000000002041388410380000000069800000000000000000                                                                                                                                  
011LD23763200500000040945448920120210527                                                                                                                                                              
013L5020210526001837051001000000020677990100000023500CRESCENT1 CUS0027785          02682502001837                A HAJAT                                                                              
013L5020210526001926250655000000040829068900000008500CRESCENT1 CUS0044742          02682502001926                Y LOKHAT                                                                             
013L5020210526003191250655000005181204194900000015000CRESCENT1 CUS0021581          02682502003191                R MAHOMED                                                                            
013L5020210526002773051001000000082074037900000008500CRESCENT1 CUS0029365          02682502002773                S FAKROODEEN                                                                         
013L5020210526000733051001000000008912748800000008500CRESCENT1 CUS0034085          02682502000733                H DUNKALO                                                                            
013L5020210526002376051001000000119903324100000008500CRESCENT1 CUS0020908          02682502002376                S SALIE                                                                              
013L5020210526001165051001000000000291532100000008500CRESCENT1 CUS0026779          02682502001165                F MATTHEWS                                                                           
013L5020210526001504051001000000235369257700000008500CRESCENT1 CUS0037561          02682502001504                F MILANZI                                                                            
013L5020210526003126051001000000002036564600000008500CRESCENT1 CUS0039156          02682502003126                S MATTHEWS                                                                           
013L5020210526002512198765000001009993813600000008500CRESCENT1 CUS0045083          02682502002512                R HANSEN                                                                             
013L5020210526001840198765000000195825667300000008500CRESCENT1 CUS0037935          02682502001840                N ROSKIN                                                                             
013L5020210526002582250655000000914075635200000008500CRESCENT1 CUS0045167          02682502002582                A MOSES                                                                              
013L5020210526003081250655000006278028183300000008500CRESCENT1 CUS0030104          02682502003081                S YOUSUF                                                                             
013L5020210526000855800000000000786000412800000008500CRESCENT1 CUS0020126          02682502000855                S ABDUL RAHMAN                                                                       
013L5020210526002982198765000000295254572700000008500CRESCENT1 CUS0024755          02682502002982                M NANABHAY                                                                           
013L5020210526000395051001000000000137840100000008500CRESCENT1 CUS0026014          02682502000395                S BARTHIS                                                                            
013L5020210526001841051001000000560030827100000008500CRESCENT1 CUS0041574          02682502001841                M EBRAHIM                                                                            
013L5020210526001478470010000000127839131400000008500CRESCENT1 CUS0044360          02682502001478                N KINANA                                                                             
013L5020210526002715632005000009006943650700000016000CRESCENT1 CUS0021096          02682502002715                S ARENDE                                                                             
013L5020210526002726632005000000409685489000000008500CRESCENT1 CUS0056254          02682502002726                Z DANTU                                                                              
013L5020210526001739198765000000117913293700000008500CRESCENT1 CUS0027696          02682502001739                A DAVIES                                                                             
013L5020210526003162632005000000407948108600000008500CRESCENT1 CUS0019545          02682502003162                Z OMAR                                                                               
013L5020210526002602632005000000904701403500000016000CRESCENT1 CUS0019243          02683002002602                M KAMAAR                                                                             
013L5020210526000313198765000000195053059800000008500CRESCENT1 CUS0033437          02682502000313                S WILLIAMS                                                                           
013L5020210526001503198765000000928424681700000016000CRESCENT1 CUS0034878          02682502001503                L NDLOVU                                                                             
013L5020210526000337250655000000620072120200000008500CRESCENT1 CUS0019844          02682502000337                S MAITLAND                                                                           
013L5020210526000227051001000000062274618800000008500CRESCENT1 CUS0025772          02682502000227                A SHAIK                                                                              
013L5020210526001935051001000000620845881000000008500CRESCENT1 CUS0028046          02682502001935                F AMEER                                                                              
013L5020210526001136250655000006229534434900000008500CRESCENT1 CUS0022898          02682502001136                S KHAN                                                                               
013L5020210526002323470010000000136909306800000008500CRESCENT1 CUS0044943          02682502002323                N EBRAHIM                                                                            
013L5020210526000386632005000004082558684600000008500CRESCENT1 CUS0043353          02682502000386                A DAWOOD                                                                             
013L5020210526000002632005000000917624116600000016000CRESCENT1 CUS0021957          02682502000002                M TALIEP                                                                             
013L5020210526001333250655000006207647872400000008500CRESCENT1 CUS0026931          02682502001333                S KEMP                                                                               
013L5020210526001531198765000000900315520000000008500CRESCENT1 CUS0034892          02682502001531                M REAANE                                                                             
013L5020210526001753051001000000117913293700000015000CRESCENT1 CUS0027697          02682502001753                N DAVIES                                                                             
013L5020210526000481051001000000221020512800000016000CRESCENT1 CUS0033740          02682502000481                A JARDIEN                                                                            
013L5020210526002858051001000000235996054300000008500CRESCENT1 CUS0032530          02682502002858                S SUKWEANA                                                                           
013L5020210526001934051001000000025421162900000008500CRESCENT1 CUS0023891          02682502001934                R KARSANDAS                                                                          
013L5020210526003127051001000000086012310700000016000CRESCENT1 CUS0042516          02682502003127                K DEVRIES                                                                            
013L5020210526002183198765000002000758225000000008500CRESCENT1 CUS0028387          02682502002183                M HADJEE                                                                             
013L5020210526000746198765000000213504362700000008500CRESCENT1 CUS0031168          02682502000746                A GORA                                                                               
013L5020210526001636051001000000010083611800000008500CRESCENT1 CUS0055711          02682502001636                D MARNEY                                                                             
013L5020210526003137632005000000913363721600000007500CRESCENT1 CUS0030132          02683002003137                M PETERSEN                                                                           
013L5020210526002293470010000006260070712100000008500CRESCENT1 CUS0044923          02682502002293                K ROSS                                                                               
013L5020210526000051800000000000133245441900000008500CRESCENT1 CUS0046383          02682502000051                S SEEDAT                                                                             
013L5020210526001517051001000000000150920300000008500CRESCENT1 CUS0034890          02682502001517                C MCYAK                                                                              
013L5020210526001086250655000000922528275100000008500CRESCENT1 CUS0043996          02682502001086                N HASSEN                                                                             
013L5020210526003151250655000000622722445200000008500CRESCENT1 CUS0030139          02682502003151                D MKHOMZA                                                                            
013L5020210526001514198765000000290520760200000008500CRESCENT1 CUS0023208          02682502001514                Z CART                                                                               
013L5020210526003390250655000006227069331600000008500CRESCENT1 CUS0032941          02682502003390                W RANA                                                                               
013L5020210526002834250655000006201762571300000016000CRESCENT1 CUS0045339          02682502002834                M CHOTHIA                                                                            
013L5020210526003445250655000006210554216400000008500CRESCENT1 CUS0030357          02682502003445                B RAVAT                                                                              
013L5020210526002377250655000006238836644500000008500CRESCENT1 CUS0024129          02682502002377                J JOOSUB DADA                                                                        
013L5020210526002363051001000000738024586100000016000CRESCENT1 CUS0028633          02682502002363                C MKHOTYWA                                                                           
013L5020210526001204632005000000921974734600000007500CRESCENT1 CUS0059401          02683002001204                H PATHER                                                                             
013L5020210526001909632005000000918096884400000008500CRESCENT1 CUS0035197          02682502001909                M NADEEM                                                                             
013L5020210526001710051001000000265432540500000007500CRESCENT1 CUS0023556          02682502001710                A SHERIFF                                                                            
013L5020210526000189051001000000027232097300000008500CRESCENT1 CUS0039947          02682502000189                A ADAM                                                                               
013L5020210526002248051001000000100614548600000008500CRESCENT1 CUS0044894          02682502002248                Z DAVIDS                                                                             
013L5020210526001864198765000000196464497500000008500CRESCENT1 CUS0023819          02682502001864                A KOTWAL                                                                             
013L5020210526001126051001000000077209905300000008500CRESCENT1 CUS0037306          02682502001126                A NACKERDIEN                                                                         
013L5020210526002098470010000000137227254600000008500CRESCENT1 CUS0044826          02682502002098                A ISMAIL                                                                             
013L5020210526000557410142000000000123456700000008500CRESCENT1 CUS0052165          02682502000557                W MOLOBELA                                                                           
013L5020210526002305250655000006218868216300000008500CRESCENT1 CUS0035452          02682502002305                M BASHIR                                                                             
014L0000000640000000000000009413974034090000000062900000000000000000                                                                                                                                  
019L0000001370000000000000011472998891860000000135150000000000000000                                                                                                                                  
999L000000147                                                                                                                                                                                         
