000L2021011800000PAYPORT CONSULTING PTY LTD EFT000059107303                                                                                                                                           
010LD237000008101                                                                                                                                                                                     
011LD23763200500000040945448920120210116                                                                                                                                                              
013L5020210115000016632005000000900453232600000015000CRESCENT1 CUS0007898          03492801000016                R BHAYAT                                                                             
014L0000000010000000000000000090045323260000000001500000000000000000                                                                                                                                  
019L0000000010000000000000000090045323260000000001500000000000000000                                                                                                                                  
999L000000007                                                                                                                                                                                         
