000L2021042700000PAYPORT CONSULTING PTY LTD EFT000073707303                                                                                                                                           
010LD237000019601                                                                                                                                                                                     
011LD23763200500000040945448920120210325                                                                                                                                                              
013L5020210324000422632005000000408663720900000008500CRESCENT1 CUS0046753          03492801000422                R MAHOMED                                                                            
013L5020210324000671470010000000114036416000000008500CRESCENT1 CUS0049657          03000000000000                F SOLOMON                                                                            
014L0000000020000000000000000052270013690000000001700000000000000000                                                                                                                                  
011LD23763200500000040945448920120210326                                                                                                                                                              
013L5020210325003782632005000000934396649500000008500CRESCENT1 CUS0059408          03092801003782                S CHIPLUNKAR                                                                         
014L0000000010000000000000000093439664950000000000850000000000000000                                                                                                                                  
011LD23763200500000040945448920120210331                                                                                                                                                              
013L5020210330000990470010000000128569178200000008500CRESCENT1 CUS0054220          03000000000000                M GAFIELDIEN                                                                         
014L0000000010000000000000000012856917820000000000850000000000000000                                                                                                                                  
011LD23763200500000040945448920120210424                                                                                                                                                              
013L5020210423000592470010000000128996735900000008500CRESCENT1 CUS0054777          00200000000000                T STUURMAN                                                                           
013L5020210423000236051001000000027640044500000016000CRESCENT1 CUS0039801          00200000000000                F OLIVIER                                                                            
013L5020210423000697470010000000140391941900000016000CRESCENT1 CUS0055832          00200000000000                S LEITJIES                                                                           
013L5020210423000354470010000000149664436900000008500CRESCENT1 CUS0059392          00200000000000                I DAWOOD                                                                             
013L5020210423000082470010000000156785207400000008500CRESCENT1 CUS0058092          00200000000000                Z ABRAHAMS                                                                           
013L5020210423000835051001000000027143432500000008500CRESCENT1 CUS0057221          00200000000000                F ABRAHAMS - FORTUNE                                                                 
013L5020210423000722051001000000033201480000000016000CRESCENT1 CUS0026591          00200000000000                I MOHAMED                                                                            
013L5020210423000206470010000000125169725700000008500CRESCENT1 CUS0058777          00200000000000                I JUDAAR                                                                             
013L5020210423000314462005000001028403130100000008500CRESCENT1 CUS0059230          00200000000000                R DE VRIES                                                                           
013L5020210423000370470010000000164256111600000008500CRESCENT1 CUS0059452          00400000000000                M JAMAL                                                                              
013L5020210423000550470010000000148477236700000008500CRESCENT1 CUS0054362          00200000000000                G HANSLO                                                                             
013L5020210423000004460005000000005108575000000023500CRESCENT1 CUS0034951          00200000000000                J MOTHA                                                                              
013L5020210423000169470010000000115236149800000008500CRESCENT1 CUS0050234          01200000000000                N LENNOX                                                                             
013L5020210423000249470010000000139905438200000016000CRESCENT1 CUS0051106          00200000000000                A THORNE                                                                             
013L5020210423000210470010000000164725639700000008500CRESCENT1 CUS0058779          00200000000000                R ISAACS                                                                             
013L5020210423000742470010000000160050798900000008500CRESCENT1 CUS0056252          00200000000000                M MOGODISENG                                                                         
013L5020210423000126470010000000162737823300000008500CRESCENT1 CUS0058400          00200000000000                B SAMUELS                                                                            
013L5020210423000868051001000000027454838000000008500CRESCENT1 CUS0057477          00200000000000                G ISAACS                                                                             
013L5020210423000113470010000000114036416000000008500CRESCENT1 CUS0049657          00200000000000                F SOLOMON                                                                            
013L5020210423000242470010000000173565584600000008500CRESCENT1 CUS0058990          00200000000000                I JOHNSON                                                                            
013L5020210423000466470010000000160289104200000008500CRESCENT1 CUS0059808          00200000000000                A PLAATJIES                                                                          
013L5020210423000820470010000000152480677100000016000CRESCENT1 CUS0057096          00400000000000                S CROEP                                                                              
013L5020210423000847470010000000130879624000000016000CRESCENT1 CUS0057332          00200000000000                M ARIEFOLIEN                                                                         
013L5020210423000862470010000000140980096000000008500CRESCENT1 CUS0057412          00200000000000                S SAMUELS                                                                            
013L5020210423000553470010000000154364425000000008500CRESCENT1 CUS0054375          00200000000000                F STONE                                                                              
013L5020210423000194470010000000150599084800000008500CRESCENT1 CUS0058689          00200000000000                I AMLAY                                                                              
013L5020210423000823462005000001042788630100000016000CRESCENT1 CUS0057103          00200000000000                A KHAN                                                                               
013L5020210423000654051001000000041083215400000008500CRESCENT1 CUS0045603          00400000000000                H MBALATI                                                                            
013L5020210423000346470010000000161858920000000008500CRESCENT1 CUS0059370          00200000000000                I SALASA                                                                             
013L5020210423000520470010000000143342036600000008500CRESCENT1 CUS0053870          00400000000000                K MOHAMED                                                                            
013L5020210423000624800000000007860014231900000008500CRESCENT1 CUS0045117          00200000000000                F OSMAN                                                                              
013L5020210423000850470010000000149717209600000016000CRESCENT1 CUS0057338          00200000000000                M WHISGANY                                                                           
013L5020210423000487470010000000129347777800000008500CRESCENT1 CUS0053626          00200000000000                U SAMUELS                                                                            
013L5020210423000604470010000000137726598400000008500CRESCENT1 CUS0054865          03000000000000                M DE JONGH                                                                           
013L5020210423000517051001000000030300308100000008500CRESCENT1 CUS0053863          00200000000000                D SWANLOW                                                                            
013L5020210423000301051001000000002159822300000008500CRESCENT1 CUS0051371          00400000000000                S ESSOP                                                                              
013L5020210423000853470010000000137474821600000007500CRESCENT1 CUS0057357          00200000000000                F ISMAIL                                                                             
013L5020210423000012470010000000129817029800000008500CRESCENT1 CUS0057530          00200000000000                L RAJIE DARRES                                                                       
013L5020210423000759470010000000140342189500000008500CRESCENT1 CUS0047114          00200000000000                R SATAR                                                                              
013L5020210423000418470010000000157262803900000008500CRESCENT1 CUS0059636          00200000000000                I GENEVA                                                                             
013L5020210423000803800000000007860014819500000008500CRESCENT1 CUS0031867          00200000000000                M SHAIK KADER                                                                        
013L5020210423000338470010000000157266449300000008500CRESCENT1 CUS0059356          00200000000000                R GEORGE                                                                             
013L5020210423000694470010000000152404000000000008500CRESCENT1 CUS0055829          00200000000000                A TITUS                                                                              
013L5020210423000278470010000000136651380900000008500CRESCENT1 CUS0059163          00200000000000                S TOYER                                                                              
013L5020210423000362470010000000124137979100000008500CRESCENT1 CUS0059434          00200000000000                S MAHOMED                                                                            
013L5020210423000514470010000000147742283600000008500CRESCENT1 CUS0053821          01200000000000                F NHLAPO                                                                             
013L5020210423000691470010000000139958181100000008500CRESCENT1 CUS0055825          00200000000000                R CASSIM                                                                             
013L5020210423000334470010000000143251721800000008500CRESCENT1 CUS0059354          00200000000000                M FRANCIS                                                                            
013L5020210423000790470010000000134173250700000008500CRESCENT1 CUS0056792          00200000000000                A SALLIE                                                                             
013L5020210423000682051001000000000928192400000008500CRESCENT1 CUS0055776          00400000000000                A ALLIE                                                                              
013L5020210423000130470010000000134006074200000016000CRESCENT1 CUS0058402          00200000000000                A TOPLEY                                                                             
013L5020210423000181470010000000144978612800000008500CRESCENT1 CUS0050343          00200000000000                S ABRAHAMS                                                                           
013L5020210423000190470010000000164318173200000008500CRESCENT1 CUS0058678          00200000000000                S DAVIDS                                                                             
013L5020210423000154051001000000027776533100000008500CRESCENT1 CUS0058527          00200000000000                M WALKER                                                                             
013L5020210423000038470010000000116883099900000016000CRESCENT1 CUS0048831          03000000000000                K MANEVELD                                                                           
013L5020210423000688470010000000146770884200000008500CRESCENT1 CUS0055802          03600000000000                J LIEDEMAN                                                                           
013L5020210423000378470010000000147697704400000008500CRESCENT1 CUS0059461          01200000000000                N HALIEM                                                                             
013L5020210423000094470010000000150158722400000008500CRESCENT1 CUS0058218          00200000000000                Z JANODIEN                                                                           
013L5020210423000244470010000000126214139500000008500CRESCENT1 CUS0039962          00200000000000                I PATEL                                                                              
013L5020210423000068470010000000132518490800000008500CRESCENT1 CUS0049278          00400000000000                W PLAYTON                                                                            
013L5020210423000738632005000000408663720900000008500CRESCENT1 CUS0046753          03492801000738                R MAHOMED                                                                            
013L5020210423000281051001000001006676710300000016000CRESCENT1 CUS0051285          00200000000000                A SASMAN                                                                             
013L5020210423000635051001000000002107350300000016000CRESCENT1 CUS0020957          00400000000000                F MILLS                                                                              
013L5020210423000003051001000001004226970700000016000CRESCENT1 CUS0057490          01200000000000                A JORDAAN                                                                            
013L5020210423000071051001000001009596784000000008500CRESCENT1 CUS0049310          00400000000000                Z KHAN                                                                               
013L5020210423000379051001000000000161796600000008500CRESCENT1 CUS0010495          01200000000000                N JABAAR                                                                             
013L5020210423000211051001000000002090091000000008500CRESCENT1 CUS0004684          00400000000000                I ASNAL                                                                              
013L5020210423000683051001000000020105119200000016000CRESCENT1 CUS0024615          00200000000000                A MILLER                                                                             
013L5020210423000598051001000001006338969800000008500CRESCENT1 CUS0054858          00200000000000                Z FELTON                                                                             
013L5020210423000172051001000000000015866600000031000CRESCENT1 CUS0038387          01200000000000                A DAVIES                                                                             
013L5020210423000186051001000001009380497900000008500CRESCENT1 CUS0058676          01200000000000                I HENDRICKS                                                                          
013L5020210423000042051001000001006059869500000008500CRESCENT1 CUS0057776          00200000000000                R PHIRI                                                                              
013L5020210423000417051001000001003589342500000008500CRESCENT1 CUS0052826          01200000000000                Y JAMIE                                                                              
014L0000000730000000000000003211264313500000000076200000000000000000                                                                                                                                  
011LD23763200500000040945448920120210426                                                                                                                                                              
013L5020210424001866632005000000927494801700000008500CRESCENT1 CUS0052622          00200016001866                Z STEENBERG                                                                          
013L5020210424001224632005000000926142011900000008500CRESCENT1 CUS0037279          00200016001224                A FALTEIN                                                                            
013L5020210424001665632005000000915329245800000008500CRESCENT1 CUS0057389          90300000001665                M BULL                                                                               
013L5020210424001221632005000000918534902100000015000CRESCENT1 CUS0026716          00200016001221                A RAHIM                                                                              
013L5020210424000405632005000000921390764600000008500CRESCENT1 CUS0056781          00200016000405                A VAN DYCK                                                                           
013L5020210424002490580105000001001133592200000016000CRESCENT1 CUS0035471          00600000000000                A ESSA                                                                               
013L5020210424000986632005000000931447519800000006900CRESCENT1 CUS0037085          00300040000986                N LEON                                                                               
013L5020210424002034632005000000934396649500000008500CRESCENT1 CUS0059408          03092801002034                S CHIPLUNKAR                                                                         
013L5020210424001988632005000000931478060000000008500CRESCENT1 CUS0057566          00300000001988                Z DAVIDS                                                                             
013L5020210424002627632005000000922982066800000008500CRESCENT1 CUS0041944          00200016002627                I KADER                                                                              
013L5020210424001996632005000000002302362200000016000CRESCENT1 CUS0037918          00200016001996                A RHODA                                                                              
013L5020210424001166632005000000408339747800000008500CRESCENT1 CUS0031368          00300000001166                F ABRAHAMS                                                                           
013L5020210424000817632005000000919376444500000008500CRESCENT1 CUS0033991          00200016000817                S ABRAHAMS                                                                           
013L5020210424000420632005000000932212792500000008500CRESCENT1 CUS0058673          00200016000420                M JACOBS                                                                             
013L5020210424000684632005000000936193146600000008500CRESCENT1 CUS0054697          00200016000684                E GAMIET                                                                             
013L5020210424000392632005000000929019463200000008500CRESCENT1 CUS0058663          00200016000392                E GANIEF                                                                             
013L5020210424001147632005000000928071924200000008500CRESCENT1 CUS0057134          00200016001147                S JEPPIE                                                                             
013L5020210424002888632005000000926498713800000008500CRESCENT1 CUS0058039          00200016002888                F JACOBS                                                                             
013L5020210424003209632005000000918860375500000008500CRESCENT1 CUS0051437          00200016003209                E HAYWOOD                                                                            
013L5020210424003307632005000000922148602200000008500CRESCENT1 CUS0051509          01200000003307                G SCHROEDER                                                                          
013L5020210424001006632005000000409402472300000008500CRESCENT1 CUS0054952          90300000001006                Y HASSEN                                                                             
013L5020210424002247632005000000913026334100000008500CRESCENT1 CUS0023998          00200016002247                M SEEDAT                                                                             
013L5020210424000828580105000001001150253100000008500CRESCENT1 CUS0022593          01200000000000                S HOOSEN                                                                             
013L5020210424002747632005000000922071176700000008500CRESCENT1 CUS0041999          00200016002747                S PETERSEN                                                                           
013L5020210424003526580105000001001139148300000008500CRESCENT1 CUS0036178          01200000000000                M MOOSA                                                                              
014L0000000250000000000000002140014257140000000023240000000000000000                                                                                                                                  
019L0000001020000000000000005509845167100000000102840000000000000000                                                                                                                                  
999L000000116                                                                                                                                                                                         
