000L2021040600000PAYPORT CONSULTING PTY LTD    000070507303                                                                                                                                           
900L000 TRANSMISSION 07303-0000084 ACCEPTED                                                                                                                                                           
900L001 ACB USER SET D237-0000090-000010 ACCEPTED                                                                                                                                                     
903L001L5063200504094544892D23700000125065562425323889200000082000210406440   JAMFOX    1617111031RJFBIANCA2BIANCA JANSEN VAN RENSBURG    00000000000000000000                21                      
903L001L5063200504094544892D23700000225065562664881937100000051000210406440   JAMFOX    1617111037RJFANNABELKRYSTLE JONCK                 00000000000000000000                21                      
903L001L5063200504094544892D23700000319876501605102504100000069000210406440   JAMFOX    1617111037RJFEMERI13ANALDA FERREIRA               00000000000000000000                21                      
903L001L5263200504094544892D23700000463200504094544892100000202000210406100000JAMFOX    CONTRA4YXWNC75EJMBPI                                                                                          
903L001L5063200504094544892D23700000563200504079774496100000069900210406440   NEWYOU    1617111037R48       MARI MARAIS                   00000000000000000000                21                      
903L001L5263200504094544892D23700000663200504094544892100000069900210406100000NEWYOU    CONTRAXFCJAK4WDIE1G7                                                                                          
903L001L5063200504094544892D23700000725065562440511659100000300000210406440   PMDOPS    1617111034RWKIV201  KAONNE INVESTMENTS            00000000000000000000                21                      
903L001L5063200504094544892D23700000863200504050368151100000003495210406440   PMDOPS    1617111037R111N0005 NLN ENGINEERING CC            00000000000000000000                21                      
903L001L5063200504094544892D23700000925065562210012465100000000990210406440   PMDOPS    1617111037R111O0004 S OTTO                        00000000000000000000                21                      
903L001L5263200504094544892D23700001063200504094544892100000304485210406100000PMDOPS    CONTRANO4W38NVGQLGHW                                                                                          
999L000000014                                                                                                                                                                                         
