000L2021050400000PAYPORT CONSULTING PTY LTD EFT000074707303                                                                                                                                           
010LD237000020301                                                                                                                                                                                     
011LD23763200500000040945448920120210326                                                                                                                                                              
013L5020210325001306470010000000151177074900000008500CRESCENT1 CUS0056675          03000000000000                R ALLY                                                                               
013L5020210325001138632005000000408702072400000008500CRESCENT1 CUS0015853          03492801001138                F SEEDAT                                                                             
014L0000000020000000000000000055987914730000000001700000000000000000                                                                                                                                  
011LD23763200500000040945448920120210421                                                                                                                                                              
013L5020210420000345632005000000407699709300000008500CRESCENT1 CUS0056908          03492801000345                Z WALBURG                                                                            
014L0000000010000000000000000040769970930000000000850000000000000000                                                                                                                                  
011LD23763200500000040945448920120210424                                                                                                                                                              
013L5020210423000142470010000000118167376100000008500CRESCENT1 CUS0058416          03000000000000                A GEDULD                                                                             
013L5020210423000832470010000000132111260000000008500CRESCENT1 CUS0057219          03000000000000                R KEMP                                                                               
013L5020210423000382470010000000134303584600000008500CRESCENT1 CUS0059482          03000000000000                Z MANUEL                                                                             
014L0000000030000000000000000038458222070000000002550000000000000000                                                                                                                                  
011LD23763200500000040945448920120210426                                                                                                                                                              
013L5020210424000083470010000000151177074900000008500CRESCENT1 CUS0056675          03000000000000                R ALLY                                                                               
013L5020210424003408470010000000128592686000000008500CRESCENT1 CUS0058258          03400000000000                Y BERA                                                                               
014L0000000020000000000000000027976976090000000001700000000000000000                                                                                                                                  
011LD23763200500000040945448920120210430                                                                                                                                                              
013L5020210429001902470010000000129902147400000007500CRESCENT1 CUS0056814          00200000000000                I DE KLERK                                                                           
013L5020210429001407470010000000128026952700000008500CRESCENT1 CUS0059778          00200000000000                S PETLO                                                                              
013L5020210429002551470010000000128273599100000008500CRESCENT1 CUS0053226          00200000000000                A NORTON                                                                             
013L5020210429000815470010000000131027229600000008500CRESCENT1 CUS0054793          00200000000000                A MOOSA                                                                              
013L5020210429000754470010000000136891450900000008500CRESCENT1 CUS0049152          00400000000000                M VALLIE                                                                             
013L5020210429000665470010000000138326604000000008500CRESCENT1 CUS0054633          00200000000000                R MEYER                                                                              
013L5020210429002096051001000000000250966000000016000CRESCENT1 CUS0024071          01200000000000                N SALIE                                                                              
013L5020210429000206470010000000153203573800000008500CRESCENT1 CUS0057643          00400000000000                J ABDURAGHMAN                                                                        
013L5020210429002351470010000000152817325000000007500CRESCENT1 CUS0052890          00200000000000                S AJOUHAAR                                                                           
013L5020210429001913470010000000154443170600000008500CRESCENT1 CUS0058918          00200000000000                F ABDROFF                                                                            
013L5020210429001496470010000000157075361800000008500CRESCENT1 CUS0058623          00200000000000                R GAFFOOR                                                                            
013L5020210429002253470010000000157425419500000008500CRESCENT1 CUS0059155          00200000000000                M HENDRICKS                                                                          
013L5020210429002132051001000000025072587800000006900CRESCENT1 CUS0056969          00200000000000                J SULEMAN                                                                            
013L5020210429001612470010000000145247771800000008500CRESCENT1 CUS0041026          00400000000000                G OSMAN                                                                              
013L5020210429001592051001000000027215207200000007500CRESCENT1 CUS0041007          00300000000000                T SALIE                                                                              
013L5020210429000345051001000000027776124700000006900CRESCENT1 CUS0053733          00200000000000                A MOSES                                                                              
013L5020210429001230051001000000003000897200000031000CRESCENT1 CUS0027778          00200000000000                H NKOSI                                                                              
013L5020210429000736470010000000122589260900000006900CRESCENT1 CUS0058104          00200000000000                I MIA                                                                                
013L5020210429000346470010000000134596338400000016000CRESCENT1 CUS0057761          00200000000000                M ROOS                                                                               
013L5020210429001265470010000000130524592800000016000CRESCENT1 CUS0055712          00200000000000                A SEPTEMBER                                                                          
013L5020210429001769470010000000134000238600000015400CRESCENT1 CUS0011265          00200000000000                M MOOSA                                                                              
013L5020210429001356051001000001011722140400000008500CRESCENT1 CUS0058474          00200000000000                A PETERSEN                                                                           
013L5020210429001015470010000000125999853100000016000CRESCENT1 CUS0055252          00200000000000                A CAMROODIEN                                                                         
013L5020210429000026470010000000122241069700000025000ABSOLIT   1619530230RTB001    00200000000000                TERLECHIA BEEBY                                                                      
013L5020210429001588051001000000006002895500000008500CRESCENT1 CUS0010354          00200000000000                B ABDOOL                                                                             
013L5020210429000120051001000000025182447000000016000CRESCENT1 CUS0025220          01200000000000                A HASSAN                                                                             
013L5020210429000703051001000000022413483300000006900CRESCENT1 CUS0044647          00400000000000                J WADVALLA                                                                           
013L5020210429001336470010000000153280595900000008500CRESCENT1 CUS0058465          00200000000000                F JONES                                                                              
013L5020210429002192470010000000150594123500000008500CRESCENT1 CUS0057081          00200000000000                M JUMAT                                                                              
013L5020210429000506470010000000163178035000000008500CRESCENT1 CUS0057924          00200000000000                S HENDRICKS                                                                          
013L5020210429000194470010000000171906581900000008500CRESCENT1 CUS0048452          00200000000000                A ABDURAMAN                                                                          
013L5020210429000236470010000000158833593100000008500CRESCENT1 CUS0057695          00200000000000                S ABRAHAMS                                                                           
013L5020210429000959051001000000033268971900000016000CRESCENT1 CUS0018878          00200000000000                S VANIA                                                                              
013L5020210429002092051001000000007418107600000008500CRESCENT1 CUS0056953          00200000000000                S WITBOOI                                                                            
013L5020210429001316470010000000129676000400000008500CRESCENT1 CUS0058401          00200000000000                F ISAACS                                                                             
013L5020210429000625470010000000141212885200000008500CRESCENT1 CUS0054584          03000000000000                D EBRAHIM                                                                            
013L5020210429001605051001000001003962260400000008500CRESCENT1 CUS0056510          00200000000000                N MAHABEER                                                                           
013L5020210429000104051001000000007258803900000016000CRESCENT1 CUS0048311          01800000000000                F ASOUHAAR EBRAHIM                                                                   
013L5020210429000998470010000000115528204100000008500CRESCENT1 CUS0006938          00200000000000                N MDLULI                                                                             
013L5020210429001714470010000000170027716000000008500CRESCENT1 CUS0058754          00400000000000                D PILLAY                                                                             
013L5020210429002520632005000000620121146200000008500CRESCENT1 CUS0048181          03092801002520                F ABRAHAMS                                                                           
013L5020210429002483470010000000170553341600000008500CRESCENT1 CUS0059219          00400000000000                F EBRAHIEM                                                                           
013L5020210429001097470010000000161355139600000008500CRESCENT1 CUS0059645          00200000000000                Z ERASMUS                                                                            
013L5020210429000267470010000000160143172200000008500CRESCENT1 CUS0059359          00200000000000                G HANSEN                                                                             
013L5020210429000577470010000000160347584000000008500CRESCENT1 CUS0059436          00400000000000                S MADATT                                                                             
013L5020210429002531051001000000007332350000000007500CRESCENT1 CUS0053199          00400000000000                M GARBRIELS                                                                          
013L5020210429001816051001000000042087832700000008500CRESCENT1 CUS0030369          00600000000000                B OMARJEE                                                                            
013L5020210429000789051001000000003586970400000006900CRESCENT1 CUS0018273          00200000000000                H CHOONARA                                                                           
013L5020210429001910051001000000003655424300000008500CRESCENT1 CUS0046997          00200000000000                M JEENA                                                                              
013L5020210429001695470010000000126939933900000008500CRESCENT1 CUS0056577          00200000000000                E HASKIN                                                                             
013L5020210429001066470010000000131798787800000008500CRESCENT1 CUS0058298          00200000000000                M SHADE                                                                              
013L5020210429002240470010000000141805967400000023500CRESCENT1 CUS0047753          00400000000000                N DAVIDS                                                                             
013L5020210429000238051001000000062513055300000016000CRESCENT1 CUS0003976          00200000000000                R GANGAT                                                                             
013L5020210429002479051001000000000674859700000016000CRESCENT1 CUS0043052          00200000000000                F BEGG                                                                               
013L5020210429001801051001000000007062017200000008500CRESCENT1 CUS0046756          00200000000000                M SAFI                                                                               
013L5020210429001746051001000001004815380800000008500CRESCENT1 CUS0041279          00200000000000                I LATIEF                                                                             
013L5020210429001186470010000000166993131300000008500CRESCENT1 CUS0058338          00200000000000                E ANDREWS                                                                            
013L5020210429001804470010000000168073891500000008500CRESCENT1 CUS0058824          00200000000000                A BASARDIEN                                                                          
013L5020210429001057470010000000169233689200000017000CRESCENT1 CUS0059640          00200000000000                G ALEXANDER                                                                          
013L5020210429000065470010000000148564733700000008500CRESCENT1 CUS0053264          00200000000000                K ABRAHAMS                                                                           
013L5020210429000375051001000001008244735500000008500CRESCENT1 CUS0053791          00200000000000                M PARKER                                                                             
013L5020210429000228051001000000002084958300000016000CRESCENT1 CUS0003965          01200000000000                A SAYED                                                                              
013L5020210429000064470010000000142701715600000016000CRESCENT1 CUS0048278          00200000000000                W JARDIEN                                                                            
013L5020210429001086470010000000138466559300000008500CRESCENT1 CUS0058300          00200000000000                M SALIE                                                                              
013L5020210429001165470010000000142658134100000006900CRESCENT1 CUS0055608          00200000000000                A CRIGHCON                                                                           
013L5020210429000247470010000000129404947800000008500CRESCENT1 CUS0059357          00200000000000                S KUMARDATTA                                                                         
013L5020210429002242051001000000027212345500000008500CRESCENT1 CUS0057190          01200000000000                L ABDULLAH                                                                           
013L5020210429002131051001000001006613295700000008500CRESCENT1 CUS0052501          00400000000000                M ABRAHAMS                                                                           
013L5020210429000593470010000000154231591100000008500CRESCENT1 CUS0044442          00200000000000                N KHAN                                                                               
013L5020210429000547678910000005101367836600000008500CRESCENT1 CUS0059432          00200000000000                R BRAND ALLY                                                                         
013L5020210429001585632005000000409080396900000008500CRESCENT1 CUS0056477          00292803001585                R HATTAS                                                                             
013L5020210429001500051001000000002324403800000008500CRESCENT1 CUS0028861          00200000000000                N EBRAHIM                                                                            
013L5020210429001879051001000000023364370200000008500CRESCENT1 CUS0030470          00200000000000                N NBEWE                                                                              
013L5020210429000903462005000000860346430100000008500CRESCENT1 CUS0044939          00200000000000                S YOUNGER                                                                            
013L5020210429000202470010000000125196939700000016000CRESCENT1 CUS0037836          00200000000000                A CHICTAY                                                                            
013L5020210429000165470010000000133821616100000008500CRESCENT1 CUS0053495          00200000000000                S FRIDAY                                                                             
013L5020210429000255470010000000140897513900000008500CRESCENT1 CUS0053591          00200000000000                N ABRAHAMS                                                                           
013L5020210429000044470010000000117918331000000025000ABSOLIT   1619530230RFVN001   00200000000000                FAROUK VAN NIEKERK                                                                   
013L5020210429000727051001000001013656569500000008500CRESCENT1 CUS0059486          00200000000000                Z KHAN                                                                               
013L5020210429000993051001000001001317900200000015000CRESCENT1 CUS0045089          00200000000000                G DEWAJEE                                                                            
013L5020210429000786678910000005100922806700000008500CRESCENT1 CUS0058118          00200000000000                W LYONS                                                                              
013L5020210429000917470010000000146584244400000008500CRESCENT1 CUS0059581          00600000000000                R ARENDSE                                                                            
013L5020210429002562470010000000149235933300000006900CRESCENT1 CUS0057442          00200000000000                S KAJEE                                                                              
013L5020210429001209051001000000002121712200000016000CRESCENT1 CUS0020213          00200000000000                R MALLY                                                                              
013L5020210429002473462005000000756448130100000008500CRESCENT1 CUS0059216          01200000000000                W DAVIDS                                                                             
013L5020210429001867470010000000139928533300000016000CRESCENT1 CUS0058875          00200000000000                F SHAIK                                                                              
013L5020210429001026470010000000140695686200000008500CRESCENT1 CUS0058274          00600000000000                N LIWIN                                                                              
013L5020210429001025470010000000134435304300000008500CRESCENT1 CUS0055271          00200000000000                M FOUCHE                                                                             
013L5020210429000975470010000000136801098700000008500CRESCENT1 CUS0055107          00200000000000                K MOHAMED                                                                            
013L5020210429001794470010000000116621497200000008500CRESCENT1 CUS0056710          00200000000000                M MENTOR                                                                             
013L5020210429000097470010000000121684884800000008500CRESCENT1 CUS0059269          00200000000000                M JACOBS                                                                             
013L5020210429000767470010000000123285149100000008500CRESCENT1 CUS0059535          00200000000000                S ABRAHAMS                                                                           
013L5020210429000519051001000000025000627800000016000CRESCENT1 CUS0017151          00200000000000                T EBRAHIM                                                                            
013L5020210429001740470010000000151496021200000008500CRESCENT1 CUS0056628          03000000000000                Z MEYER                                                                              
013L5020210429000176678910000005100248339900000008500CRESCENT1 CUS0057557          00200000000000                Y MABOTE                                                                             
013L5020210429001047470010000000156104080900000008500CRESCENT1 CUS0059637          00600000000000                N WILLIAMS                                                                           
013L5020210429002321051001000000027544652200000008500CRESCENT1 CUS0052822          00400000000000                F MOSES                                                                              
013L5020210429001445051001000000027032580800000008500CRESCENT1 CUS0056165          00600000000000                A WAGGIE                                                                             
013L5020210429001596470010000000135867418100000008500CRESCENT1 CUS0058674          03000000000000                F JEFTA                                                                              
013L5020210429002313470010000000138131509500000008500CRESCENT1 CUS0059175          03200000000000                A TAQODIEN                                                                           
013L5020210429001970470010000000141024465000000008500CRESCENT1 CUS0047177          00200000000000                Z RHODE                                                                              
013L5020210429001822470010000000133888601900000006900CRESCENT1 CUS0058845          00400000000000                K SIBDA                                                                              
013L5020210429001277051001000001001386768500000008500CRESCENT1 CUS0059756          00200000000000                S MADATT                                                                             
013L5020210429000305470010000000153404332000000008500CRESCENT1 CUS0053690          03400000000000                R ISMAIL                                                                             
013L5020210429002072470010000000151116023100000008500CRESCENT1 CUS0056938          00200000000000                L SAMPSON                                                                            
013L5020210429000529470010000000160976219100000008500CRESCENT1 CUS0017189          00200000000000                A KARRIM                                                                             
013L5020210429001106051001000001011304890200000008500CRESCENT1 CUS0058315          00200000000000                A BLAAUW                                                                             
013L5020210429002241470010000000131380323300000008500CRESCENT1 CUS0052616          00200000000000                A VALENTINE                                                                          
013L5020210429001577470010000000128409996000000008500CRESCENT1 CUS0059801          00200000000000                F PARKER                                                                             
013L5020210429001008470010000000137332051400000008500CRESCENT1 CUS0006982          00200000000000                T SULIMAN                                                                            
013L5020210429000569051001000000002302479800000008500CRESCENT1 CUS0017322          00200000000000                F GANGAT                                                                             
013L5020210429000485470010000000144923462100000008500CRESCENT1 CUS0054177          00200000000000                S ROBERTS                                                                            
013L5020210429000775470010000000122625556400000008500CRESCENT1 CUS0054778          00200000000000                L XULU                                                                               
013L5020210429000905470010000000121874744500000008500CRESCENT1 CUS0054956          00400000000000                H LEWIS                                                                              
013L5020210429001345051001000000040788374600000008500CRESCENT1 CUS0055913          00200000000000                Y HENDRICKS                                                                          
013L5020210429000324051001000000007001013700000016000CRESCENT1 CUS0048629          01200000000000                M COZYN                                                                              
013L5020210429001598051001000000030085101400000016000CRESCENT1 CUS0010372          03400000000000                A AHMED                                                                              
013L5020210429002508470010000000142122942900000008500CRESCENT1 CUS0037171          00200000000000                M MAHOMED                                                                            
013L5020210429001296470010000000128955459300000008500CRESCENT1 CUS0058396          00200000000000                A LIPPERT                                                                            
013L5020210429002021470010000000134150674400000016000CRESCENT1 CUS0052256          00400000000000                I XABA                                                                               
013L5020210429001830051001000001006417225000000008500CRESCENT1 CUS0056755          00200000000000                R PETERSEN                                                                           
013L5020210429001117470010000000168496397200000007500CRESCENT1 CUS0059653          00200000000000                N MOSES                                                                              
013L5020210429000777470010000000158413347100000008500CRESCENT1 CUS0059537          00200000000000                M HANSLO                                                                             
013L5020210429000135470010000000148434679100000008500CRESCENT1 CUS0053437          00200000000000                Z BROWN                                                                              
013L5020210429000157470010000000172545856800000008500CRESCENT1 CUS0059302          00200000000000                I ISMAIL                                                                             
013L5020210429000038678910000005102378862200000025000ABSOLIT   1619530230RMC001    00200000000000                MEYRICK CLAASSENS                                                                    
013L5020210429002574051001000000020420364300000008500CRESCENT1 CUS0003040          00200000000000                S SALLIE                                                                             
013L5020210429000227462005000001851822830100000008500CRESCENT1 CUS0059347          00200000000000                T SAFTER                                                                             
013L5020210429001560470010000000120579811900000008500CRESCENT1 CUS0029165          00200000000000                C MOAEKWA                                                                            
013L5020210429000518470010000000123938567400000008500CRESCENT1 CUS0005019          00200000000000                B OTTO                                                                               
013L5020210429002397051001000000003898828300000008500CRESCENT1 CUS0031663          01200000000000                N ALLY                                                                               
013L5020210429001406470010000000137508528800000006900CRESCENT1 CUS0058483          01200000000000                M TOFA                                                                               
013L5020210429002502470010000000160797738700000008500CRESCENT1 CUS0057404          00200000000000                I JACOBS                                                                             
013L5020210429002012470010000000159258334000000008500CRESCENT1 CUS0056871          03000000000000                K GROENEWALD                                                                         
013L5020210429002142470010000000144860326700000008500CRESCENT1 CUS0056985          00200000000000                F ABDURAHMAN                                                                         
013L5020210429001515470010000000133529621000000008500CRESCENT1 CUS0056247          03200000000000                N SWARTS                                                                             
013L5020210429001135470010000000130320430200000008500CRESCENT1 CUS0055561          00200000000000                R RATTIM                                                                             
013L5020210429002463470010000000126155256100000008500CRESCENT1 CUS0059212          00200000000000                R PLATO                                                                              
013L5020210429001003051001000000033275302600000008500CRESCENT1 CUS0045104          00200000000000                J TAM WING YNB                                                                       
013L5020210429000225051001000001010741466800000008500CRESCENT1 CUS0053565          01200000000000                M DAVIS                                                                              
013L5020210429001497051001000001014239223300000016000CRESCENT1 CUS0059790          00200000000000                A CASSIEM                                                                            
013L5020210429001731462005000000732375130100000008500CRESCENT1 CUS0056622          00200000000000                Y ABDULLAH                                                                           
013L5020210429001098470010000000139672365800000016000CRESCENT1 CUS0007425          00200000000000                F FAKIER                                                                             
013L5020210429002510470010000000147463867600000016000CRESCENT1 CUS0048178          00200000000000                M ISAACS                                                                             
013L5020210429001362470010000000158437703600000016000CRESCENT1 CUS0040617          00200000000000                M PARTON                                                                             
013L5020210429001305470010000000138694103200000008500CRESCENT1 CUS0055765          00200000000000                T HAMIED                                                                             
013L5020210429000606470010000000133460882000000008500CRESCENT1 CUS0058018          00200000000000                R AMOD                                                                               
013L5020210429001048051001000000003228499300000008500CRESCENT1 CUS0007149          00200000000000                Z FAREED                                                                             
013L5020210429000216470010000000136114514300000008500CRESCENT1 CUS0057670          00600000000000                S ADAMS                                                                              
013L5020210429001315470010000000141135471900000008500CRESCENT1 CUS0055772          00200000000000                F EBRAHIM                                                                            
013L5020210429002331051001000001003690558300000008500CRESCENT1 CUS0052837          00200000000000                S DANIELS                                                                            
013L5020210429001263051001000001005057553600000008500CRESCENT1 CUS0045611          00400000000000                R HARDIEN                                                                            
013L5020210429002230470010000000142075013300000008500CRESCENT1 CUS0047741          00200000000000                M ISMAIL                                                                             
013L5020210429000514470010000000123974025300000016000CRESCENT1 CUS0048873          00400000000000                A WALKER                                                                             
013L5020210429001506470010000000128029374600000008500CRESCENT1 CUS0058646          00200000000000                L WIESE                                                                              
013L5020210429000539051001000000037167443300000008500CRESCENT1 CUS0017217          01200000000000                F DOMINGO                                                                            
013L5020210429002547051001000000020379784100000016000CRESCENT1 CUS0031935          00200000000000                M ALLI                                                                               
013L5020210429000295051001000000062509961300000008500CRESCENT1 CUS0053653          00200000000000                N BALOYI                                                                             
013L5020210429001286470010000000160400819700000008500CRESCENT1 CUS0058395          03000000000000                A DAMONS                                                                             
013L5020210429001077470010000000148227538200000008500CRESCENT1 CUS0059643          00200000000000                S JANSEN                                                                             
013L5020210429002013470010000000163967427400000008500CRESCENT1 CUS0058996          00200000000000                K MAIN                                                                               
013L5020210429001528470010000000146520966000000008500CRESCENT1 CUS0010054          00400000000000                S MIA                                                                                
013L5020210429002462470010000000128873333800000016000CRESCENT1 CUS0057354          00400000000000                G SEPTEMBER                                                                          
013L5020210429000046470010000000133732286300000025000ABSOLIT   1619530230RGS001    00200000000000                GLEN SOLOMON                                                                         
013L5020210429000437470010000000137705706000000008500CRESCENT1 CUS0059415          00200000000000                R SEDICK                                                                             
013L5020210429002319051001000001012917853300000008500CRESCENT1 CUS0042631          00200000000000                A SONDAY                                                                             
013L5020210429002251470010000000136572015000000008500CRESCENT1 CUS0052619          00200000000000                R CHARLES                                                                            
013L5020210429002543470010000000140586348800000008500CRESCENT1 CUS0059240          00200000000000                A PARI                                                                               
013L5020210429000776470010000000134413326400000008500CRESCENT1 CUS0058117          00200000000000                F ADAMS                                                                              
013L5020210429001863051001000000020110268400000008500CRESCENT1 CUS0041497          00200000000000                Z MEYERS                                                                             
013L5020210429001220470010000000121353539300000008500CRESCENT1 CUS0027766          00200000000000                M MOSES                                                                              
013L5020210429002430678910000005300004949800000016000CRESCENT1 CUS0048051          00200000000000                A KEOWN                                                                              
013L5020210429000455470010000000147468714600000008500CRESCENT1 CUS0053962          00200000000000                I AMEERODIEN                                                                         
013L5020210429001327678910000005100737364000000008500CRESCENT1 CUS0059763          00200000000000                Y PETERS                                                                             
013L5020210429001885470010000000172365426200000008500CRESCENT1 CUS0058898          00200000000000                M BULL                                                                               
013L5020210429000596470010000000116728145200000008500CRESCENT1 CUS0057992          00200000000000                A DAVIDS                                                                             
013L5020210429001930250655000007456488551300000008500CRESCENT1 CUS0047042          02600000000000                F COMROODIEN                                                                         
013L5020210429001832470010000000138873792000000016000CRESCENT1 CUS0011648          03200000000000                F HARTLEY                                                                            
013L5020210429002311470010000000138365921200000008500CRESCENT1 CUS0052820          00200000000000                T BOOYSEN                                                                            
013L5020210429001525470010000000132901899900000008500CRESCENT1 CUS0056292          00600000000000                A HAYWOOD                                                                            
013L5020210429001204051001000000041058870900000008500CRESCENT1 CUS0049851          00200000000000                Y DAVIDS                                                                             
013L5020210429002340462005000000806028230100000008500CRESCENT1 CUS0047950          00200000000000                M SLAMANG                                                                            
013L5020210429002361051001000000027399334800000008500CRESCENT1 CUS0052902          00200000000000                Z RAINERS                                                                            
013L5020210429002432470010000000161339970500000008500CRESCENT1 CUS0057336          03000000000000                T ADAMS                                                                              
013L5020210429002525632005000000408702072400000008500CRESCENT1 CUS0015327          03492801002525                F SEEDAT                                                                             
013L5020210429000585470010000000155097651400000008500CRESCENT1 CUS0054472          00200000000000                S BEN                                                                                
013L5020210429001621470010000000135372208000000008500CRESCENT1 CUS0035265          00200000000000                F AHMAD                                                                              
013L5020210429002295470010000000141272098000000016000CRESCENT1 CUS0014612          00200000000000                B MOHAMMED                                                                           
013L5020210429000604051001000001004698420600000008500CRESCENT1 CUS0048982          01200000000000                I HOFFAH                                                                             
013L5020210429002141051001000001010318161800000008500CRESCENT1 CUS0052510          00200000000000                W SIMONS                                                                             
013L5020210429001177470010000000143627832300000008500CRESCENT1 CUS0059668          00200000000000                T JULIES                                                                             
014L0000001910000000000000007953693757050000000193950000000000000000                                                                                                                                  
019L0000001990000000000000008116886840870000000200750000000000000000                                                                                                                                  
999L000000213                                                                                                                                                                                         
