000L2020112900000PAYPORT CONSULTING PTY LTD EFT000052407303                                                                                                                                           
010LD237000004501                                                                                                                                                                                     
011LD23763200500000040945448920120201125                                                                                                                                                              
013L5020201124000823198765000000115190579800000008500CRESCENT1 CUS0050962          03000000000000                I PETERSEN                                                                           
013L5020201124000864198765000000113875091300000008500CRESCENT1 CUS0058225          03000000000000                K SOLOMON                                                                            
013L5020201124000902198765000000298436307800000008500CRESCENT1 CUS0042256          03200000000000                D ROBERTS                                                                            
013L5020201124000414198765000000110724951100000007500CRESCENT1 CUS0029085          00200000000000                L IHSAAMULLAH                                                                        
014L0000000040000000000000000063822693000000000003300000000000000000                                                                                                                                  
019L0000000040000000000000000063822693000000000003300000000000000000                                                                                                                                  
999L000000010                                                                                                                                                                                         
