000L2021012600000PAYPORT CONSULTING PTY LTD EFT000060307303                                                                                                                                           
010LD237000008801                                                                                                                                                                                     
011LD23763200500000040945448920120201219                                                                                                                                                              
013L5020201218000905632005000000912046758700000016000CRESCENT1 CUS0020543          03492801000905                I NAGDEE                                                                             
013L5020201218002166470010000000128273599100000008500CRESCENT1 CUS0053226          03400000000000                A NORTON                                                                             
013L5020201218001410051001000000025554578900000008500CRESCENT1 CUS0035724          03000000000000                N ISMAIL                                                                             
014L0000000030000000000000000106587493670000000003300000000000000000                                                                                                                                  
011LD23763200500000040945448920120210116                                                                                                                                                              
013L5020210115000429470010000000146044636200000008500CRESCENT1 CUS0053449          03000000000000                N BOTHA                                                                              
014L0000000010000000000000000014604463620000000000850000000000000000                                                                                                                                  
011LD23763200500000040945448920120210125                                                                                                                                                              
013L5020210123000698632005000000931512951600000008500CRESCENT1 CUS0053795          00200016000698                H TITUS                                                                              
013L5020210123000461632005000000932212792500000008500CRESCENT1 CUS0058673          00200016000461                M JACOBS                                                                             
013L5020210123000624632005000000409185597500000008500CRESCENT1 CUS0053139          00300000000624                F RADEMEYER                                                                          
013L5020210123000626632005000000926846021500000008500CRESCENT1 CUS0016365          00200016000626                H BAKER                                                                              
013L5020210123000484632005000000925822558800000008500CRESCENT1 CUS0051731          00200016000484                M JANTJIES                                                                           
013L5020210123000299632005000000926992730500000014400CRESCENT1 CUS0039234          00200016000299                G JACOBS                                                                             
013L5020210123000219632005000000906673138500000016000CRESCENT1 CUS0037772          00200016000219                F RYKLIEF                                                                            
013L5020210123000671632005000000404302704700000008500CRESCENT1 CUS0053527          00200016000671                A SAMODIEN                                                                           
013L5020210123000161632005000000922153263500000008500CRESCENT1 CUS0057212          03492801000161                A HENDRICKS                                                                          
013L5020210123000211632005000000409213419000000016000CRESCENT1 CUS0037315          00300000000211                M MAHARAJ                                                                            
013L5020210123000372632005000000925387834200000008500CRESCENT1 CUS0050945          01200012000372                S HARRISON                                                                           
013L5020210123000398632005000000407745462000000008500CRESCENT1 CUS0008345          01200000000398                A GATTA                                                                              
013L5020210123000802632005000000408825940500000008500CRESCENT1 CUS0045898          00300000000802                N OMAR                                                                               
014L0000000130000000000000000943687441480000000013140000000000000000                                                                                                                                  
019L0000000170000000000000001064879398770000000017290000000000000000                                                                                                                                  
999L000000027                                                                                                                                                                                         
