000L2020121900000PAYPORT CONSULTING PTY LTD EFT000055007303                                                                                                                                           
010LD237000005601                                                                                                                                                                                     
011LD23763200500000040945448920120201215                                                                                                                                                              
013L5020201214000551252245000006227448404800000008500CRESCENT1 CUS0024806          01200000000000                Z DANIEL KHAN                                                                        
013L5020201214000403250856000006215461506000000016000CRESCENT1 CUS0049027          00600000000000                N DEDZA                                                                              
013L5020201214001131250942000006206548741700000008500CRESCENT1 CUS0052410          00200000000000                U MCKAY                                                                              
013L5020201214001047250555000006253343008900000008500CRESCENT1 CUS0058082          01200000000000                C GUSHA                                                                              
013L5020201214001251198765000000110869420900000008500CRESCENT1 CUS0052901          00200000000000                G ABRAHAMS                                                                           
013L5020201214000025198765000000113971027300000008500CRESCENT1 CUS0058690          00200000000000                A AMLAY                                                                              
013L5020201214000308201109000006222940760700000006900CRESCENT1 CUS0048628          01200000000000                F SOLOMONS                                                                           
013L5020201214000683220926000006227320069300000008500CRESCENT1 CUS0050513          00200000000000                H ESSOP                                                                              
013L5020201214000556222826000006255848932600000016000CRESCENT1 CUS0024885          00600000000000                M JOOSAB                                                                             
013L5020201214000893250655000006276719041700000008500CRESCENT1 CUS0057409          00200000000000                C NOMDOE                                                                             
013L5020201214001140051001000000033268040100000008500CRESCENT1 CUS0046391          03400000000000                M PAREKH                                                                             
013L5020201214000362198765000000105896260400000008500CRESCENT1 CUS0055165          00200000000000                K DE BRUIN                                                                           
013L5020201214000895051001000000000129610800000008500CRESCENT1 CUS0032895          03000000000000                I CANTHITOO                                                                          
013L5020201214000737198765000000130576019000000008500CRESCENT1 CUS0044323          00200000000000                Z KHAN                                                                               
013L5020201214000189250114000006204484073500000008500CRESCENT1 CUS0053635          00200000000000                R SAMSODIEN                                                                          
013L5020201214000230210046000006248561857700000008500CRESCENT1 CUS0059193          00200000000000                T ADAMS                                                                              
013L5020201214000726240438000006248030796900000008500CRESCENT1 CUS0028939          01200000000000                Y MOWANDI                                                                            
013L5020201214000243252245000006244092929000000016000CRESCENT1 CUS0048365          00200000000000                M HASSIM                                                                             
013L5020201214001167198765000000116511281700000008500CRESCENT1 CUS0058320          01200000000000                D AFRICA                                                                             
013L5020201214000048250409000006252887573700000008500CRESCENT1 CUS0047529          00200000000000                W CONRADIE                                                                           
013L5020201214001062203109000006267499139600000008500CRESCENT1 CUS0058110          00200000000000                M ABDEROUF                                                                           
013L5020201214000981198765000000104409125800000008500CRESCENT1 CUS0051767          00200000000000                S JAFFER                                                                             
013L5020201214000774198765000000110836186200000008500CRESCENT1 CUS0006698          00200000000000                N MIA                                                                                
013L5020201214001122250655000006280686167200000008500CRESCENT1 CUS0058246          00200000000000                M PADIA                                                                              
013L5020201214000331250737000006212865996100000016000CRESCENT1 CUS0020135          00600000000000                A SULIMAN                                                                            
013L5020201214000736198765000000195635523500000008500CRESCENT1 CUS0029446          00200000000000                I MOTALA                                                                             
013L5020201214000716051001000000006322912900000031000CRESCENT1 CUS0028732          03200000000000                I DUBE                                                                               
013L5020201214000234198765000000106973420900000008500CRESCENT1 CUS0053767          01200000000000                S BENJAMIN                                                                           
013L5020201214000184198765000000113457096100000008500CRESCENT1 CUS0053630          00200000000000                S MARCUS                                                                             
013L5020201214000524201409000005026112727600000007500CRESCENT1 CUS0055835          00200000000000                F DAVIDS                                                                             
013L5020201214000453250205000005065133710400000016000CRESCENT1 CUS0049302          00200000000000                V LUNGU                                                                              
013L5020201214000200239934000006209420488200000008500CRESCENT1 CUS0059072          00200000000000                H THEKISO                                                                            
013L5020201214000695252505000006243022367800000023500CRESCENT1 CUS0004940          01200000000000                A KHAN                                                                               
013L5020201214000998254605000006209031446100000015000CRESCENT1 CUS0010568          00200000000000                A MOHAMED                                                                            
013L5020201214000034220229000005091004298100000008500CRESCENT1 CUS0053004          03400000000000                R DASIGADU                                                                           
013L5020201214000749198765000000116985264500000008500CRESCENT1 CUS0056863          00200000000000                S WALTERS                                                                            
013L5020201214001202198765000000119584241400000008500CRESCENT1 CUS0058398          00600000000000                M JACOBS                                                                             
013L5020201214000218198765000000113319081200000008500CRESCENT1 CUS0048273          01200000000000                K BENJAMIN                                                                           
013L5020201214000919220229000006203034348800000008500CRESCENT1 CUS0033467          01200000000000                A HAMIDU                                                                             
013L5020201214001249210224000006265673972200000016000CRESCENT1 CUS0037885          00600000000000                F KHAN                                                                               
013L5020201214000743221926000006242192609100000016000CRESCENT1 CUS0050791          01200000000000                D SAFLA                                                                              
013L5020201214000979198765000000265638458300000008500CRESCENT1 CUS0034805          01200000000000                H KHAN                                                                               
013L5020201214001155220325000006250567974800000008500CRESCENT1 CUS0046517          00200000000000                M JHETAM                                                                             
013L5020201214000232259605000006215549618800000016000CRESCENT1 CUS0040373          00200000000000                M SUJEE                                                                              
013L5020201214000105470010000000160853163300000008500CRESCENT1 CUS0058887          03600000000000                D JARDIEN                                                                            
013L5020201214000560250241000006207575718100000016000CRESCENT1 CUS0003267          03000000000000                A KHAN                                                                               
013L5020201214001144220425000006208294156100000008500CRESCENT1 CUS0036597          03600000000000                T AMLA                                                                               
013L5020201214000719198765000000110738095200000008500CRESCENT1 CUS0056593          00200000000000                S TIMMS                                                                              
013L5020201214000260462005000001028403130100000008500CRESCENT1 CUS0059230          00200000000000                R DE VRIES                                                                           
013L5020201214000574250655000006273848015200000008500CRESCENT1 CUS0055952          00200000000000                S MAMDOO                                                                             
013L5020201214000379198765000000104651716300000008500CRESCENT1 CUS0055294          00200000000000                F MAHOMED                                                                            
013L5020201214000824251542000006246180660900000016000CRESCENT1 CUS0007230          03600000000000                N KAROLIA                                                                            
013L5020201214000910252245000006211829452900000008500CRESCENT1 CUS0033261          00200000000000                I VALLEE                                                                             
013L5020201214000108462005000000806028230100000008500CRESCENT1 CUS0047950          00200000000000                M SLAMANG                                                                            
013L5020201214000398250114000006207510668500000008500CRESCENT1 CUS0048999          01200000000000                H MOOS                                                                               
013L5020201214000871250537000006245635951400000008500CRESCENT1 CUS0044963          00200000000000                A KAABI                                                                              
013L5020201214000522250837000006239409592300000008500CRESCENT1 CUS0042430          00200000000000                F KHAN                                                                               
013L5020201214000205198765000000114710852800000008500CRESCENT1 CUS0059073          00200000000000                M NORRIS                                                                             
013L5020201214000843198765000000115202694100000008500CRESCENT1 CUS0057207          00200000000000                Y WATERLOO                                                                           
013L5020201214000114470010000000146044636200000008500CRESCENT1 CUS0053449          03400000000000                N BOTHA                                                                              
013L5020201214000931250737000006253243920600000008500CRESCENT1 CUS0051618          00600000000000                D COERECIUS                                                                          
013L5020201214000900250655000006274691016700000007500CRESCENT1 CUS0033203          03000000000000                S OBARAY                                                                             
013L5020201214000355256955000006210507147700000008500CRESCENT1 CUS0020379          01200000000000                F KADIR                                                                              
013L5020201214001216198765000000100474484600000008500CRESCENT1 CUS0052770          01200000000000                S WILLIAMS                                                                           
014L0000000640000000000000023799569883540000000065940000000000000000                                                                                                                                  
011LD23763200500000040945448920120201219                                                                                                                                                              
013L5020201218000398250655000006265086005200000000000CRESCENT1 CUS0054703          89981059000398                F DELAREY                                                                            
013L5020201218001017051001000000042225031000000008500CRESCENT1 CUS0045826          02682502001017                S RENFURM                                                                            
013L5020201218000275470010000000014199597900000008500CRESCENT1 CUS0038829          02682502000275                Y GAMA                                                                               
013L5020201218001865250655000006225062438500000016000CRESCENT1 CUS0047690          02682502001865                I ASCHENDORF                                                                         
013L5020201218001258632005000000918861781600000008500CRESCENT1 CUS0041004          02682502001258                J ABDUL                                                                              
013L5020201218000339470010000000133724955400000000000CRESCENT1 CUS0058085          89981059000339                K KOMALDIEN                                                                          
013L5020201218002374051001000000014376188900000000000CRESCENT1 CUS0043500          89981059002374                J MOHAMMED                                                                           
013L5020201218001943250655000000508710892200000008500CRESCENT1 CUS0036735          02682502001943                S MORAT                                                                              
013L5020201218001401250655000006220883362500000000000CRESCENT1 CUS0035720          89981059001401                D ISMAIL                                                                             
013L5020201218002154198765000000101014142800000016000CRESCENT1 CUS0043083          02682502002154                N MOOI                                                                               
013L5020201218001277250655000006208972578200000008500CRESCENT1 CUS0046450          02682502001277                N KHAN                                                                               
013L5020201218000994198765000000108195326300000008500CRESCENT1 CUS0009097          02682502000994                F OMAR                                                                               
013L5020201218001713198765000006257428456000000007500CRESCENT1 CUS0036230          02682502001713                S MUHAMMAD                                                                           
013L5020201218000482250655000006222143532500000000000CRESCENT1 CUS0026830          89981059000482                H BHAYAT                                                                             
013L5020201218000065470010000000127138661700000007500CRESCENT1 CUS0038250          02682502000065                A MOHAMED                                                                            
013L5020201218001691250655000006233358449100000008500CRESCENT1 CUS0024351          02682502001691                N MOOSAJEE                                                                           
013L5020201218001740632005000000919043848700000008500CRESCENT1 CUS0013839          02682502001740                H FRANKS                                                                             
013L5020201218001927051001000001008244637500000000000CRESCENT1 CUS0057325          89981059001927                T HENDRICK                                                                           
013L5020201218001639051001000000072577889800000008500CRESCENT1 CUS0000602          02682502001639                N FISHER                                                                             
013L5020201218000183250655000006213593727000000008500CRESCENT1 CUS0026277          02682502000183                N JALIEL                                                                             
013L5020201218001327250655000006203307434500000000000CRESCENT1 CUS0022810          89981059001327                M YUNUS                                                                              
013L5020201218000915250655000006263142907200000008500CRESCENT1 CUS0027934          02682502000915                N MOGOTSI                                                                            
013L5020201218001216632005000000404755286900000007500CRESCENT1 CUS0050254          02682502001216                I SYDOW                                                                              
013L5020201218001219051001000000000913339900000000000CRESCENT1 CUS0010476          89981059001219                Z DAVIDS                                                                             
013L5020201218000639198765000000100846582500000008500CRESCENT1 CUS0045015          02682502000639                F ADAMS                                                                              
013L5020201218000013250655000006225455928900000008500CRESCENT1 CUS0025930          02682502000013                Y SEEDAT                                                                             
013L5020201218000024632005000000927559419100000016000CRESCENT1 CUS0032909          02683002000024                J SEETHAL                                                                            
013L5020201218001088632005000000917463260500000031000CRESCENT1 CUS0040673          02682502001088                A EVANS                                                                              
013L5020201218001351470010000001561145095000000008500CRESCENT1 CUS0056711          02682502001351                S FICKS                                                                              
013L5020201218001068051001000000028208706000000000000CRESCENT1 CUS0028434          89981059001068                N EBRAHIM                                                                            
013L5020201218000710051001000000100308217100000016000CRESCENT1 CUS0039651          02682502000710                B MITCHELLE                                                                          
013L5020201218001656470010000000119234193900000016000CRESCENT1 CUS0052282          02682502001656                A SMITH                                                                              
013L5020201218000254632005000004098710636500000016000CRESCENT1 CUS0033305          02682502000254                A AMOD                                                                               
013L5020201218000493632005000000092686866300000008500CRESCENT1 CUS0033712          02682502000493                L BODIBA                                                                             
013L5020201218002397470010000000137688005700000000000CRESCENT1 CUS0057748          89981059002397                S JACOBS                                                                             
013L5020201218001684051001000000011497065400000008500CRESCENT1 CUS0041856          02682502001684                R JEEWA                                                                              
013L5020201218001261051001000000030050956100000000000CRESCENT1 CUS0056564          89981059001261                A PARKER                                                                             
013L5020201218000547470010000000101612805000000008500CRESCENT1 CUS0054910          02682502000547                S SOLOMON                                                                            
013L5020201218000693250655000000127327521500000007500CRESCENT1 CUS0045110          02682502000693                B MOHAMMED                                                                           
013L5020201218001729250655000006252677740100000008500CRESCENT1 CUS0001274          02682502001729                K MOHAMED                                                                            
013L5020201218001760051001000000020207834600000008500CRESCENT1 CUS0013923          02682502001760                S KAJEE                                                                              
013L5020201218001238051001000000065428087300000008500CRESCENT1 CUS0029287          02682502001238                N MATAMBO                                                                            
013L5020201218001071198765000000302389495300000008500CRESCENT1 CUS0046018          02682502001071                T BALLIM                                                                             
013L5020201218002222632005000000912784212400000007500CRESCENT1 CUS0032164          02682502002222                M PRINCE                                                                             
013L5020201218001878223626000000210952152000000008500CRESCENT1 CUS0059074          02682502001878                L SAULS                                                                              
013L5020201218001021250655000006212457734900000000000CRESCENT1 CUS0009238          89981059001021                T VALLY                                                                              
013L5020201218000888632005000000910279301900000023500CRESCENT1 CUS0027853          02682502000888                E MONKHE                                                                             
013L5020201218002271632005000000918304077000000008500CRESCENT1 CUS0025404          02683002002271                R ABRAHAMS                                                                           
014L0000000480000000000000009707223636630000000038350000000000000000                                                                                                                                  
019L0000001120000000000000033506793520170000000104290000000000000000                                                                                                                                  
999L000000120                                                                                                                                                                                         
