000L2021050900000PAYPORT CONSULTING PTY LTD EFT000075607303                                                                                                                                           
010LD237000020801                                                                                                                                                                                     
011LD23763200500000040945448920120210430                                                                                                                                                              
013L5020210429001637198765000000111028696100000008500CRESCENT1 CUS0059809          03000000000000                A FREDERICKS                                                                         
014L0000000010000000000000000011102869610000000000850000000000000000                                                                                                                                  
011LD23763200500000040945448920120210506                                                                                                                                                              
013L5020210505000006261550000006212014939000000049000TSMM      1620048620OTS000000003000000000000                ETHAN WENTZEL                                                                        
014L0000000010000000000000000621201493900000000004900000000000000000                                                                                                                                  
019L0000000020000000000000000632304363510000000005750000000000000000                                                                                                                                  
999L000000010                                                                                                                                                                                         
