000L2021060200000PAYPORT CONSULTING PTY LTD EFT000079407303                                                                                                                                           
010LD237000023001                                                                                                                                                                                     
011LD23763200500000040945448920120210426                                                                                                                                                              
013L5020210424002664198765000000116498864600000008500CRESCENT1 CUS0059635          03000000000000                K DAVIDS                                                                             
014L0000000010000000000000000011649886460000000000850000000000000000                                                                                                                                  
011LD23763200500000040945448920120210527                                                                                                                                                              
013L5020210526003077051001000000004297116000000008500CRESCENT1 CUS0058462          03600000000000                D NAICKER                                                                            
013L5020210526001777470010000000164364962900000008500CRESCENT1 CUS0057767          03400000000000                N CASSIEM                                                                            
013L5020210526001468470010000000121693382900000016000CRESCENT1 CUS0055643          03200000000000                A HARTZENBERG NETT                                                                   
014L0000000030000000000000000029035546180000000003300000000000000000                                                                                                                                  
011LD23763200500000040945448920120210531                                                                                                                                                              
013L5020210529001479470010000000125757295200000008500CRESCENT1 CUS0058375          00200000000000                M ESAU                                                                               
013L5020210529002387470010000000130026062700000008500CRESCENT1 CUS0036785          00200000000000                A FAKIER                                                                             
013L5020210529001579470010000000131484442100000008500CRESCENT1 CUS0058464          00200000000000                N FORTUNE                                                                            
013L5020210529001299470010000000131798787800000008500CRESCENT1 CUS0058298          03600000000000                M SHADE                                                                              
013L5020210529002296470010000000141272098000000016000CRESCENT1 CUS0014612          00200000000000                B MOHAMMED                                                                           
013L5020210529000490470010000000172545856800000008500CRESCENT1 CUS0059302          00200000000000                I ISMAIL                                                                             
013L5020210529001029678910000005100922806700000008500CRESCENT1 CUS0058118          00200000000000                W LYONS                                                                              
013L5020210529001816051001000000020110268400000008500CRESCENT1 CUS0041497          00200000000000                Z MEYERS                                                                             
013L5020210529002050051001000001014206022200000008500CRESCENT1 CUS0056781          00300000000000                A VAN DYCK                                                                           
013L5020210529000159470010000000138515809100000016000CRESCENT1 CUS0057403          00400000000000                N ABRAHAMS                                                                           
013L5020210529000057470010000000142701715600000016000CRESCENT1 CUS0048278          00200000000000                W JARDIEN                                                                            
013L5020210529000497470010000000114698870000000016000CRESCENT1 CUS0048843          00200000000000                A CORNELLIESON                                                                       
013L5020210529000399470010000000145552803800000008500CRESCENT1 CUS0057607          00200000000000                Y BASSON                                                                             
013L5020210529001678051001000000063531965900000007500CRESCENT1 CUS0056297          00200000000000                E JACOBS                                                                             
013L5020210529002498051001000000000674859700000016000CRESCENT1 CUS0043052          00200000000000                F BEGG                                                                               
013L5020210529002305470010000000160726036900000008500CRESCENT1 CUS0059952          00200000000000                S KRAMER                                                                             
013L5020210529000129470010000000155933047100000008500CRESCENT1 CUS0057368          03400000000000                N BENJAMIN                                                                           
013L5020210529001440470010000000156104080900000008500CRESCENT1 CUS0059637          00600000000000                N WILLIAMS                                                                           
013L5020210529002369051001000000025072587800000006900CRESCENT1 CUS0056969          00200000000000                J SULEMAN                                                                            
013L5020210529002480051001000000027399334800000008500CRESCENT1 CUS0052902          00200000000000                Z RAINERS                                                                            
013L5020210529002402051001000001000826460900000016000CRESCENT1 CUS0059013          00200000000000                A DAVIDS                                                                             
013L5020210529000340632005000000933415514200000016000CRESCENT1 CUS0059243          00292803000340                F LEVY                                                                               
013L5020210529001549470010000000129676000400000008500CRESCENT1 CUS0058401          00200000000000                F ISAACS                                                                             
013L5020210529001266470010000000134460076800000016000CRESCENT1 CUS0045646          00200000000000                S KHAN                                                                               
013L5020210529001148470010000000134435304300000008500CRESCENT1 CUS0055271          00200000000000                M FOUCHE                                                                             
013L5020210529001145470010000000135367157500000008500CRESCENT1 CUS0040200          00200000000000                M MPANZA                                                                             
013L5020210529002380470010000000144860326700000008500CRESCENT1 CUS0056985          00200000000000                F ABDURAHMAN                                                                         
013L5020210529000230470010000000136888479000000008500CRESCENT1 CUS0059209          00200000000000                W WILKONSON                                                                          
013L5020210529000458470010000000137340030500000008500CRESCENT1 CUS0053857          00200000000000                R JONES                                                                              
013L5020210529001441470010000000146520966000000008500CRESCENT1 CUS0010054          00400000000000                S MIA                                                                                
013L5020210529001206051001000001005057553600000008500CRESCENT1 CUS0045611          00400000000000                R HARDIEN                                                                            
013L5020210529002501051001000000027212345500000008500CRESCENT1 CUS0057190          01200000000000                L ABDULLAH                                                                           
013L5020210529000438051001000001008244735500000008500CRESCENT1 CUS0053791          00200000000000                M PARKER                                                                             
013L5020210529002587051001000001009537044500000008500CRESCENT1 CUS0037371          00200000000000                B HAET                                                                               
013L5020210529002450051001000000027544652200000008500CRESCENT1 CUS0052822          00200000000000                F MOSES                                                                              
013L5020210529002460051001000001008086841800000008500CRESCENT1 CUS0052878          00200000000000                S PILLAY                                                                             
013L5020210529002017051001000001006417225000000008500CRESCENT1 CUS0056755          00200000000000                R PETERSEN                                                                           
013L5020210529000607051001000001004698420600000008500CRESCENT1 CUS0048982          01200000000000                I HOFFAH                                                                             
013L5020210529002390470010000000136572015000000008500CRESCENT1 CUS0052619          00200000000000                R CHARLES                                                                            
013L5020210529000429470010000000136114514300000008500CRESCENT1 CUS0057670          00600000000000                S ADAMS                                                                              
013L5020210529000927470010000000134898559100000008500CRESCENT1 CUS0049431          00200000000000                S JOFIAH                                                                             
013L5020210529001178470010000000133316858400000007500CRESCENT1 CUS0055358          00200000000000                S AMOD                                                                               
013L5020210529000559470010000000134596338400000016000CRESCENT1 CUS0057761          00200000000000                M ROOS                                                                               
013L5020210529001769470010000000128029374600000008500CRESCENT1 CUS0058646          00200000000000                L WIESE                                                                              
013L5020210529001501051001000000006002895500000008500CRESCENT1 CUS0010354          00200000000000                B ABDOOL                                                                             
013L5020210529001809462005000000595500930300000008500CRESCENT1 CUS0058657          00200000000000                R TAGODIEN                                                                           
013L5020210529002592632005000000409043438000000008500CRESCENT1 CUS0059089          00292803002592                S NCUBE                                                                              
013L5020210529001285470010000000158437703600000016000CRESCENT1 CUS0040617          00200000000000                M PARTON                                                                             
013L5020210529002095470010000000153706643700000008500CRESCENT1 CUS0058786          00400000000000                N SOLOMON                                                                            
013L5020210529001670051001000001001386768500000008500CRESCENT1 CUS0059756          00200000000000                S MADATT                                                                             
013L5020210529000589470010000000157445687100000016000CRESCENT1 CUS0057766          00200000000000                F ABRAHAMS                                                                           
013L5020210529000270470010000000170553341600000008500CRESCENT1 CUS0059219          00400000000000                F EBRAHIEM                                                                           
013L5020210529001416250655000006444777999100000008500CRESCENT1 CUS0046047          02600000000000                M KHAN                                                                               
013L5020210529002084470010000000124934273000000008500CRESCENT1 CUS0058784          00200000000000                R JEKELS                                                                             
013L5020210529000097051001000000007258803900000006900CRESCENT1 CUS0048311          01800000000000                F ASOUHAAR EBRAHIM                                                                   
013L5020210529001430470010000000133422586700000008500CRESCENT1 CUS0059634          00200000000000                N KARJIEKER                                                                          
013L5020210529001069470010000000142047583300000008500CRESCENT1 CUS0058135          00200000000000                M KOOPMAN                                                                            
013L5020210529001259470010000000140695686200000008500CRESCENT1 CUS0058274          00600000000000                N LIWIN                                                                              
013L5020210529001759470010000000157075361800000008500CRESCENT1 CUS0058623          00200000000000                R GAFFOOR                                                                            
013L5020210529001036051001000000022023298900000006900CRESCENT1 CUS0045256          00400000000000                S DUNN                                                                               
013L5020210529001728051001000000013840885800000008500CRESCENT1 CUS0056475          00200000000000                I SCHOLTZ                                                                            
013L5020210529000325470010000000157416189800000008500CRESCENT1 CUS0038322          00200000000000                M MAKDA                                                                              
013L5020210529002228470010000000156372911100000008500CRESCENT1 CUS0059941          00200000000000                S ADAMS                                                                              
013L5020210529002261470010000000169508087200000016000CRESCENT1 CUS0059945          00200000000000                M SALIE                                                                              
013L5020210529002581632005000000408985494500000008500CRESCENT1 CUS0057248          00292803002581                M JAMIE                                                                              
013L5020210529001729051001000000007568343100000016000CRESCENT1 CUS0058545          03600000000000                M ALLIE                                                                              
013L5020210529001140051001000000007029971400000008500CRESCENT1 CUS0059526          00200000000000                M VAN DER FORT                                                                       
013L5020210529000517470010000000123974025300000016000CRESCENT1 CUS0048873          00400000000000                A WALKER                                                                             
013L5020210529001800470010000000128026952700000008500CRESCENT1 CUS0059778          00200000000000                S PETLO                                                                              
013L5020210529000728470010000000125594644800000008500CRESCENT1 CUS0054604          00400000000000                R CASAMARIE BALL                                                                     
013L5020210529001513470010000000120579811900000008500CRESCENT1 CUS0029165          00200000000000                C MOAEKWA                                                                            
013L5020210529001853470010000000135867418100000008500CRESCENT1 CUS0058674          00400000000000                F JEFTA                                                                              
013L5020210529000928470010000000131027229600000008500CRESCENT1 CUS0054793          00200000000000                A MOOSA                                                                              
013L5020210529002227470010000000172365426200000008500CRESCENT1 CUS0058898          00200000000000                M BULL                                                                               
013L5020210529000368470010000000163519736600000008500CRESCENT1 CUS0053665          00200000000000                F ALLIE                                                                              
013L5020210529002526800000000007860014819500000008500CRESCENT1 CUS0031867          00200000000000                M SHAIK KADER                                                                        
013L5020210529001600051001000001006033862600000008500CRESCENT1 CUS0059699          00200000000000                N AGHERDIEN                                                                          
013L5020210529001588051001000000027032580800000008500CRESCENT1 CUS0056165          00600000000000                A WAGGIE                                                                             
013L5020210529001110051001000001013656569500000008500CRESCENT1 CUS0059486          00200000000000                Z KHAN                                                                               
013L5020210529002431051001000000027216185300000008500CRESCENT1 CUS0057053          00200000000000                M CARELSE                                                                            
013L5020210529001087470010000000162044907000000008500CRESCENT1 CUS0049699          00200000000000                Y ARRIES                                                                             
013L5020210529001450470010000000169233689200000017000CRESCENT1 CUS0059640          00200000000000                G ALEXANDER                                                                          
013L5020210529001388470010000000144787602200000008500CRESCENT1 CUS0055703          00400000000000                A BEUKUS                                                                             
013L5020210529001319470010000000138466559300000008500CRESCENT1 CUS0058300          00200000000000                M SALIE                                                                              
013L5020210529002616470010000000119483280400000055000GEOFIN    GEOFIN              00200000000000                JABULANI CELE                                                                        
013L5020210529000421470010000000123938567400000008500CRESCENT1 CUS0005019          00200000000000                B OTTO                                                                               
013L5020210529000500470010000000145473146800000008500CRESCENT1 CUS0059311          00200000000000                M SOLOMONS                                                                           
013L5020210529002416051001000000003898828300000008500CRESCENT1 CUS0031663          01200000000000                N ALLY                                                                               
013L5020210529000139470010000000122858810200000008500CRESCENT1 CUS0057370          00200000000000                J HORSBAN                                                                            
013L5020210529000078470010000000128273599100000008500CRESCENT1 CUS0053226          00200000000000                A NORTON                                                                             
013L5020210529000610470010000000129404947800000008500CRESCENT1 CUS0059357          00200000000000                S KUMARDATTA                                                                         
013L5020210529000489470010000000135022657000000008500CRESCENT1 CUS0057735          03000000000000                Z ABRAHAMS                                                                           
013L5020210529001510470010000000168496397200000007500CRESCENT1 CUS0059653          00200000000000                N MOSES                                                                              
013L5020210529002303470010000000151116023100000008500CRESCENT1 CUS0056938          00200000000000                L SAMPSON                                                                            
013L5020210529001738632005000000409080396900000008500CRESCENT1 CUS0056477          00292803001738                R HATTAS                                                                             
013L5020210529001685051001000001004815380800000008500CRESCENT1 CUS0041279          00200000000000                I LATIEF                                                                             
013L5020210529002499678910000005300004949800000016000CRESCENT1 CUS0048051          00200000000000                A KEOWN                                                                              
013L5020210529000930678910000005101367836600000008500CRESCENT1 CUS0059432          00200000000000                R BRAND ALLY                                                                         
013L5020210529002128470010000000168073891500000008500CRESCENT1 CUS0058824          00200000000000                A BASARDIEN                                                                          
013L5020210529000630470010000000160143172200000008500CRESCENT1 CUS0059359          00200000000000                G HANSEN                                                                             
013L5020210529001408470010000000130524592800000016000CRESCENT1 CUS0055712          00200000000000                A SEPTEMBER                                                                          
013L5020210529001278470010000000130320430200000008500CRESCENT1 CUS0055561          00200000000000                R RATTIM                                                                             
013L5020210529000443470010000000122636958600000008500CRESCENT1 CUS0026216          00200000000000                M RAMALHO                                                                            
013L5020210529000260462005000000756448130100000008500CRESCENT1 CUS0059216          00200000000000                W DAVIDS                                                                             
013L5020210529001916051001000000003655424300000008500CRESCENT1 CUS0046997          00200000000000                M JEENA                                                                              
013L5020210529002150470010000000133888601900000006900CRESCENT1 CUS0058845          00400000000000                K SIBDA                                                                              
013L5020210529002472470010000000134019853100000008500CRESCENT1 CUS0059036          00200000000000                N SABLES                                                                             
013L5020210529000090470010000000138131509500000008500CRESCENT1 CUS0059175          00200000000000                A TAQODIEN                                                                           
013L5020210529000378470010000000153404332000000008500CRESCENT1 CUS0053690          00400000000000                R ISMAIL                                                                             
013L5020210529000800470010000000150816784000000008500CRESCENT1 CUS0059414          00200000000000                N CHADWICK                                                                           
013L5020210529001609051001000001011722140400000008500CRESCENT1 CUS0058474          00200000000000                A PETERSEN                                                                           
013L5020210529000111051001000000002084958300000016000CRESCENT1 CUS0003965          01200000000000                A SAYED                                                                              
013L5020210529001918470010000000151496021200000008500CRESCENT1 CUS0056628          03000000000000                Z MEYER                                                                              
013L5020210529001719470010000000141794126800000016000CRESCENT1 CUS0058543          00200000000000                M FISHER                                                                             
013L5020210529000411051001000000040472951700000015400CRESCENT1 CUS0004961          00200000000000                M OSMAN                                                                              
013L5020210529001938250655000007456488551300000008500CRESCENT1 CUS0047042          02600000000000                F COMROODIEN                                                                         
013L5020210529001982470010000000141024465000000008500CRESCENT1 CUS0047177          00200000000000                Z RHODE                                                                              
013L5020210529002279470010000000142075013300000008500CRESCENT1 CUS0047741          00200000000000                M ISMAIL                                                                             
013L5020210529001180470010000000158413347100000008500CRESCENT1 CUS0059537          00200000000000                M HANSLO                                                                             
013L5020210529001053051001000000014400273600000006900CRESCENT1 CUS0027272          00200000000000                D ALEXANDER                                                                          
013L5020210529000646051001000000022413483300000006900CRESCENT1 CUS0044647          00400000000000                J WADVALLA                                                                           
013L5020210529002066051001000000000250966000000016000CRESCENT1 CUS0024071          01200000000000                N SALIE                                                                              
013L5020210529001130470010000000157049014500000008500CRESCENT1 CUS0059504          00200000000000                Z DAVIDS                                                                             
013L5020210529001519470010000000160400819700000008500CRESCENT1 CUS0058395          00400000000000                A DAMONS                                                                             
013L5020210529000590470010000000143251721800000008500CRESCENT1 CUS0059354          00200000000000                M FRANCIS                                                                            
013L5020210529001464051001000000007030836500000016000CRESCENT1 CUS0035166          00400000000000                R SAMAAI                                                                             
013L5020210529000826462005000000860346430100000008500CRESCENT1 CUS0044939          00200000000000                S YOUNGER                                                                            
013L5020210529000911470010000000115528204100000008500CRESCENT1 CUS0006938          00200000000000                N MDLULI                                                                             
013L5020210529001196051001000000041083215400000008500CRESCENT1 CUS0045603          00400000000000                H MBALATI                                                                            
013L5020210529001511051001000000030085101400000016000CRESCENT1 CUS0010372          00400000000000                A AHMED                                                                              
013L5020210529001659470010000000137508528800000006900CRESCENT1 CUS0058483          01200000000000                M TOFA                                                                               
013L5020210529002481470010000000160927284400000008500CRESCENT1 CUS0057174          00400000000000                O NOLAN                                                                              
013L5020210529000419470010000000153203573800000008500CRESCENT1 CUS0057643          00400000000000                J ABDURAGHMAN                                                                        
013L5020210529000518470010000000147468714600000008500CRESCENT1 CUS0053962          00200000000000                I AMEERODIEN                                                                         
013L5020210529002250051001000001009685577900000008500CRESCENT1 CUS0059943          00200000000000                A MOHGAMED                                                                           
013L5020210529001258051001000001009487515200000016000CRESCENT1 CUS0055497          00200000000000                G BOOLEY                                                                             
013L5020210529000288051001000001010741466800000008500CRESCENT1 CUS0053565          01200000000000                M DAVIS                                                                              
013L5020210529000200470010000000165092031600000008500CRESCENT1 CUS0059203          00200000000000                N HAMDULAY                                                                           
013L5020210529000349470010000000136977545600000008500CRESCENT1 CUS0057507          00200000000000                A DE VRIES                                                                           
013L5020210529000810470010000000137705706000000008500CRESCENT1 CUS0059415          00200000000000                R SEDICK                                                                             
013L5020210529001668470010000000132901899900000008500CRESCENT1 CUS0056292          00600000000000                A HAYWOOD                                                                            
013L5020210529001173470010000000121353539300000008500CRESCENT1 CUS0027766          00200000000000                M MOSES                                                                              
013L5020210529001667470010000000124339918800000008500CRESCENT1 CUS0050504          00200000000000                Z PRICE                                                                              
013L5020210529000058051001000000007332350000000007500CRESCENT1 CUS0053199          00400000000000                M GARBRIELS                                                                          
013L5020210529002560470010000000128800491300000008500CRESCENT1 CUS0053071          00200000000000                F KHAN                                                                               
013L5020210529001985470010000000170027716000000008500CRESCENT1 CUS0058754          00400000000000                D PILLAY                                                                             
013L5020210529000600470010000000157266449300000008500CRESCENT1 CUS0059356          00200000000000                R GEORGE                                                                             
013L5020210529000660470010000000157440691200000008500CRESCENT1 CUS0059364          00200000000000                L CLOETE                                                                             
013L5020210529000977632005000000409642259300000008500CRESCENT1 CUS0049537          00292803000977                M HENDRICKS                                                                          
013L5020210529002470470010000000152817325000000007500CRESCENT1 CUS0052890          00200000000000                S AJOUHAAR                                                                           
013L5020210529001198632005000000408906242900000016000CRESCENT1 CUS0055379          00292803001198                N DAVIDS                                                                             
013L5020210529002609632005000000408769507800000008500CRESCENT1 CUS0048187          00292803002609                F DAVIDS                                                                             
013L5020210529001715632005000000408860675100000008500CRESCENT1 CUS0041310          00292803001715                S BEGG                                                                               
013L5020210529002338470010000000134806001600000008500CRESCENT1 CUS0059969          00200000000000                L MOSES                                                                              
013L5020210529002290470010000000141805967400000023500CRESCENT1 CUS0047753          00400000000000                N DAVIDS                                                                             
013L5020210529001257051001000000041058870900000008500CRESCENT1 CUS0049851          00200000000000                Y DAVIDS                                                                             
013L5020210529001852470010000000126939933900000008500CRESCENT1 CUS0056577          00200000000000                E HASKIN                                                                             
013L5020210529002215470010000000126032983400000008500CRESCENT1 CUS0056866          03400000000000                I JACOBS                                                                             
013L5020210529000250470010000000126155256100000008500CRESCENT1 CUS0059212          00200000000000                R PLATO                                                                              
013L5020210529001142051001000000002121712200000016000CRESCENT1 CUS0020213          00200000000000                R MALLY                                                                              
013L5020210529001758051001000001003962260400000008500CRESCENT1 CUS0056510          00200000000000                N MAHABEER                                                                           
013L5020210529000431051001000000000171717000000008500CRESCENT1 CUS0005061          00400000000000                M EBRAHIM                                                                            
013L5020210529002269051001000001010318161800000008500CRESCENT1 CUS0052510          00200000000000                W SIMONS                                                                             
013L5020210529000430470010000000121684884800000008500CRESCENT1 CUS0059269          00200000000000                M JACOBS                                                                             
013L5020210529002399462005000000806028230100000008500CRESCENT1 CUS0047950          00200000000000                M SLAMANG                                                                            
013L5020210529000382051001000000002909732000000016000CRESCENT1 CUS0016931          00400000000000                M SALLIE                                                                             
013L5020210529000327051001000000007001013700000016000CRESCENT1 CUS0048629          01200000000000                M COZYN                                                                              
013L5020210529000698470010000000141212885200000008500CRESCENT1 CUS0054584          03000000000000                D EBRAHIM                                                                            
013L5020210529000638470010000000137705605600000008500CRESCENT1 CUS0054444          00400000000000                M KHAN-GORDON                                                                        
013L5020210529000098470010000000134038203000000008500CRESCENT1 CUS0053240          00200000000000                J JACOBS                                                                             
013L5020210529002272470010000000165963484700000016000CRESCENT1 CUS0059948          00200000000000                D PANDI                                                                              
013L5020210529000960470010000000160347584000000008500CRESCENT1 CUS0059436          00400000000000                S MADATT                                                                             
013L5020210529002579470010000000147463867600000016000CRESCENT1 CUS0048178          03000000000000                M ISAACS                                                                             
013L5020210529001187470010000000156203663500000006900CRESCENT1 CUS0049806          00200000000000                J DOLLIE                                                                             
013L5020210529002237470010000000159258334000000008500CRESCENT1 CUS0056871          03200000000000                K GROENEWALD                                                                         
013L5020210529000079470010000000161339970500000008500CRESCENT1 CUS0057336          00200000000000                T ADAMS                                                                              
013L5020210529000446470010000000172982225600000008500CRESCENT1 CUS0044053          00200000000000                R WILLIAMS                                                                           
013L5020210529002140632005000000409862907000000016000CRESCENT1 CUS0059831          00292803002140                E EMERAAN                                                                            
013L5020210529000109470010000000128873333800000016000CRESCENT1 CUS0057354          00400000000000                G SEPTEMBER                                                                          
013L5020210529001209470010000000131479526900000008500CRESCENT1 CUS0058236          00200000000000                F DAVIDS                                                                             
013L5020210529001907462005000000732375130100000008500CRESCENT1 CUS0056622          00200000000000                Y ABDULLAH                                                                           
013L5020210529000310470010000000116236995500000008500CRESCENT1 CUS0059233          00200000000000                M SOLOMONS                                                                           
013L5020210529001138470010000000125999853100000016000CRESCENT1 CUS0055252          00200000000000                A CAMROODIEN                                                                         
013L5020210529000888470010000000122625556400000008500CRESCENT1 CUS0054778          00200000000000                L XULU                                                                               
013L5020210529000902051001000000033268971900000016000CRESCENT1 CUS0018878          00200000000000                S VANIA                                                                              
013L5020210529002532470010000000137958009700000006900CRESCENT1 CUS0059052          00200000000000                C ZIMBA                                                                              
013L5020210529002440470010000000138365921200000008500CRESCENT1 CUS0052820          00200000000000                T BOOYSEN                                                                            
013L5020210529002195470010000000167839957200000008500CRESCENT1 CUS0059937          00200000000000                M MOHAMED                                                                            
013L5020210529002452470010000000150810562400000008500CRESCENT1 CUS0059032          00200000000000                R GOLIATH                                                                            
013L5020210529001339051001000001011304890200000008500CRESCENT1 CUS0058315          00200000000000                A BLAAUW                                                                             
013L5020210529002333051001000001012917853300000008500CRESCENT1 CUS0042631          00200000000000                A SONDAY                                                                             
013L5020210529000713051001000001011739156300000006900CRESCENT1 CUS0026726          00200000000000                A SALEH EBRAHIM                                                                      
013L5020210529001320470010000000146584244400000008500CRESCENT1 CUS0059581          00200000000000                R ARENDSE                                                                            
013L5020210529001589470010000000153280595900000008500CRESCENT1 CUS0058465          00200000000000                F JONES                                                                              
013L5020210529002096470010000000167383524200000008500CRESCENT1 CUS0059814          00200000000000                A ABRAHAMS                                                                           
013L5020210529000628632005000000916000109000000008500CRESCENT1 CUS0054419          00292803000628                F CAJEE                                                                              
013L5020210529000748470010000000138326604000000008500CRESCENT1 CUS0054633          00200000000000                R MEYER                                                                              
013L5020210529001529470010000000128955459300000008500CRESCENT1 CUS0058396          00200000000000                A LIPPERT                                                                            
013L5020210529000228470010000000133821616100000008500CRESCENT1 CUS0053495          00200000000000                S FRIDAY                                                                             
013L5020210529000418051001000000027776124700000006900CRESCENT1 CUS0053733          00200000000000                A MOSES                                                                              
013L5020210529001773051001000000042087832700000008500CRESCENT1 CUS0030369          00600000000000                B OMARJEE                                                                            
013L5020210529000979470010000000122589260900000006900CRESCENT1 CUS0058104          00200000000000                I MIA                                                                                
013L5020210529000819470010000000116728145200000008500CRESCENT1 CUS0057992          00200000000000                A DAVIDS                                                                             
013L5020210529001490470010000000161355139600000008500CRESCENT1 CUS0059645          00200000000000                Z ERASMUS                                                                            
013L5020210529000729470010000000163178035000000008500CRESCENT1 CUS0057924          00200000000000                S HENDRICKS                                                                          
013L5020210529001897470010000000169034479000000008500CRESCENT1 CUS0058715          00200000000000                Y TAGODIEN                                                                           
013L5020210529000187470010000000171906581900000008500CRESCENT1 CUS0048452          00200000000000                A ABDURAMAN                                                                          
013L5020210529000658470010000000155097651400000008500CRESCENT1 CUS0054472          00200000000000                S BEN                                                                                
013L5020210529002550470010000000155894745900000008500CRESCENT1 CUS0053045          00200000000000                A BADR                                                                               
013L5020210529001047470010000000119502749200000008500CRESCENT1 CUS0049664          00400000000000                L KAGEE                                                                              
013L5020210529001590470010000000121076955500000008500CRESCENT1 CUS0059687          00200000000000                K ARENDSE                                                                            
013L5020210529001170470010000000123285149100000008500CRESCENT1 CUS0059535          00200000000000                S ABRAHAMS                                                                           
013L5020210529001931470010000000125417613400000008500CRESCENT1 CUS0059792          00200000000000                G SLAMMAT                                                                            
013L5020210529000358051001000000062509961300000008500CRESCENT1 CUS0053653          00200000000000                N BALOYI                                                                             
013L5020210529002220051001000000006292643800000008500CRESCENT1 CUS0024426          00200000000000                N THOMSON                                                                            
013L5020210529002052470010000000139274405700000016000CRESCENT1 CUS0059806          00200000000000                H HALLIDAY                                                                           
013L5020210529002205470010000000139928533300000016000CRESCENT1 CUS0058875          00200000000000                F SHAIK                                                                              
013L5020210529001909051001000001014239223300000016000CRESCENT1 CUS0059790          00200000000000                A CASSIEM                                                                            
013L5020210529002090051001000000001371150400000008500CRESCENT1 CUS0036279          00200000000000                M IDROOS                                                                             
013L5020210529002126470010000000134150674400000016000CRESCENT1 CUS0052256          00400000000000                I XABA                                                                               
013L5020210529002379470010000000131380323300000008500CRESCENT1 CUS0052616          00200000000000                A VALENTINE                                                                          
013L5020210529001382051001000000006018977000000008500CRESCENT1 CUS0021112          00200000000000                N ASMAL                                                                              
013L5020210529002089051001000000005206100000000008500CRESCENT1 CUS0030994          00200000000000                M HASSEN                                                                             
013L5020210529000546470010000000154231591100000008500CRESCENT1 CUS0044442          00200000000000                N KHAN                                                                               
013L5020210529001508470010000000153683675100000007500CRESCENT1 CUS0055966          00400000000000                A CHRISTIANS                                                                         
013L5020210529001385800000000007860016429800000016000CRESCENT1 CUS0040748          00200000000000                S ISMAIL                                                                             
013L5020210529001720678910000005100737364000000008500CRESCENT1 CUS0059763          00200000000000                Y PETERS                                                                             
013L5020210529002441470010000000150594123500000008500CRESCENT1 CUS0057081          00200000000000                M JUMAT                                                                              
013L5020210529000478470010000000155341367700000016000CRESCENT1 CUS0053922          00200000000000                I NORTON                                                                             
013L5020210529001292051001000000003208498600000008500CRESCENT1 CUS0020765          00200000000000                L AZAM                                                                               
013L5020210529000121051001000000062513055300000016000CRESCENT1 CUS0003976          00200000000000                R GANGAT                                                                             
013L5020210529002116470010000000129902147400000007500CRESCENT1 CUS0056814          00200000000000                I DE KLERK                                                                           
013L5020210529001570470010000000143627832300000008500CRESCENT1 CUS0059668          00200000000000                T JULIES                                                                             
013L5020210529000053051001000000025182447000000016000CRESCENT1 CUS0025220          01200000000000                A HASSAN                                                                             
013L5020210529001515051001000000027215207200000007500CRESCENT1 CUS0041007          00300000000000                T SALIE                                                                              
013L5020210529001847051001000000023364370200000008500CRESCENT1 CUS0030470          00200000000000                N NBEWE                                                                              
013L5020210529002258051001000001006613295700000008500CRESCENT1 CUS0052501          00400000000000                M ABRAHAMS                                                                           
013L5020210529001535470010000000145247771800000008500CRESCENT1 CUS0041026          00400000000000                G OSMAN                                                                              
013L5020210529002517470010000000142122942900000008500CRESCENT1 CUS0037171          00200000000000                M MAHOMED                                                                            
013L5020210529000428470010000000136264278700000008500CRESCENT1 CUS0053763          00200000000000                A MONYAKI                                                                            
013L5020210529001419470010000000166993131300000008500CRESCENT1 CUS0058338          00200000000000                E ANDREWS                                                                            
014L0000002410000000000000010471328091720000000239820000000000000000                                                                                                                                  
011LD23763200500000040945448920120210601                                                                                                                                                              
013L5020210531000080632005000000927588532900000025000ABSOLIT   1622122218RFD032    00200016000080                K NYAMANE                                                                            
014L0000000010000000000000000092758853290000000002500000000000000000                                                                                                                                  
019L0000002460000000000000010604772377650000000246470000000000000000                                                                                                                                  
999L000000258                                                                                                                                                                                         
