000L2021061100000PAYPORT CONSULTING PTY LTD EFT000081007303                                                                                                                                           
010LD237000023901                                                                                                                                                                                     
011LD23763200500000040945448920120210531                                                                                                                                                              
013L5020210529001389250655000006283300683700000008500CRESCENT1 CUS0058328          03600000000000                M BENJAMIN                                                                           
014L0000000010000000000000000628330068370000000000850000000000000000                                                                                                                                  
019L0000000010000000000000000628330068370000000000850000000000000000                                                                                                                                  
999L000000007                                                                                                                                                                                         
