000L2021021300000PAYPORT CONSULTING PTY LTD EFT000062907303                                                                                                                                           
010LD237000011708                                                                                                                                                                                     
011LD23763200500000040945448920120210127                                                                                                                                                              
013L5020210127003905198765000000157402263600000008500CRESCENT1 CUS0030338          03000000000000                Y KOZA                                                                               
014L0000000010000000000000000015740226360000000000850000000000000000                                                                                                                                  
019L0000000010000000000000000015740226360000000000850000000000000000                                                                                                                                  
999L000000007                                                                                                                                                                                         
