000L2021021200000PAYPORT CONSULTING PTY LTD EFT000062807303                                                                                                                                           
010LD237000011601                                                                                                                                                                                     
011LD23763200500000040945448920120210116                                                                                                                                                              
013L5020210115001184470010000000129076523300000008500CRESCENT1 CUS0051242          03000000000000                G DEJONGH                                                                            
014L0000000010000000000000000012907652330000000000850000000000000000                                                                                                                                  
019L0000000010000000000000000012907652330000000000850000000000000000                                                                                                                                  
999L000000007                                                                                                                                                                                         
