000L2021011200000PAYPORT CONSULTING PTY LTD EFT000058307303                                                                                                                                           
010LD237000007601                                                                                                                                                                                     
011LD23763200500000040945448920120201219                                                                                                                                                              
013L5020201218001416470010000000138873792000000016000CRESCENT1 CUS0011648          03200000000000                F HARTLEY                                                                            
014L0000000010000000000000000013887379200000000001600000000000000000                                                                                                                                  
019L0000000010000000000000000013887379200000000001600000000000000000                                                                                                                                  
999L000000007                                                                                                                                                                                         
