000L2021010300000PAYPORT CONSULTING PTY LTD EFT000056907303                                                                                                                                           
010LD237000006701                                                                                                                                                                                     
011LD23763200500000040945448920120201125                                                                                                                                                              
013L5020201124000139198765000000109329556200000008500CRESCENT1 CUS0052647          03000000000000                G SMITH                                                                              
013L5020201124000845198765000000192507459500000008500CRESCENT1 CUS0008496          03000000000000                F BOOMGAARD                                                                          
014L0000000020000000000000000030183701570000000001700000000000000000                                                                                                                                  
011LD23763200500000040945448920120201219                                                                                                                                                              
013L5020201218000208470010000000138443853800000008500CRESCENT1 CUS0054405          03000000000000                A DULAZE                                                                             
013L5020201218001857470010000000148703170800000008500CRESCENT1 CUS0057233          03000000000000                A MATTHYS                                                                            
014L0000000020000000000000000028714702460000000001700000000000000000                                                                                                                                  
019L0000000040000000000000000058898404030000000003400000000000000000                                                                                                                                  
010LD237000006808                                                                                                                                                                                     
011LD23763200500000040945448920120201231                                                                                                                                                              
013L5020201231000026470010000000117918331000000025000ABSOLIT   1609163107RFVN001   00200000000000                FAROUK VAN NIEKERK                                                                   
013L5020201231000024470010000000120636597600000025000ABSOLIT   1609163107RNM001    00200000000000                NATHANIEL MORAIS                                                                     
014L0000000020000000000000000023855492860000000005000000000000000000                                                                                                                                  
019L0000000020000000000000000023855492860000000005000000000000000000                                                                                                                                  
999L000000018                                                                                                                                                                                         
