000L2021042900000PAYPORT CONSULTING PTY LTD EFT000074007303                                                                                                                                           
010LD237000019801                                                                                                                                                                                     
011LD23763200500000040945448920120210325                                                                                                                                                              
013L5020210324000437198765000000112709662100000008500CRESCENT1 CUS0047036          03000000000000                M BHAMJEE                                                                            
013L5020210324000664198765000000117199261000000016000CRESCENT1 CUS0057798          03000000000000                I CAROWS                                                                             
014L0000000020000000000000000022990892310000000002450000000000000000                                                                                                                                  
011LD23763200500000040945448920120210331                                                                                                                                                              
013L5020210330001150051001000000007090672600000008500CRESCENT1 CUS0054585          03400000000000                S FAYKER                                                                             
013L5020210330002500051001000000005053833000000008500CRESCENT1 CUS0031656          03000000000000                V DAWOOD                                                                             
014L0000000020000000000000000001214450560000000001700000000000000000                                                                                                                                  
011LD23763200500000040945448920120210421                                                                                                                                                              
013L5020210420000337250655000006281469020300000006900CRESCENT1 CUS0056302          03400000000000                S GANGAT                                                                             
014L0000000010000000000000000628146902030000000000690000000000000000                                                                                                                                  
011LD23763200500000040945448920120210424                                                                                                                                                              
013L5020210423000865200612000006257482867300000016000CRESCENT1 CUS0057434          01200000000000                A LATIEF                                                                             
013L5020210423000794198765000000126804396600000008500CRESCENT1 CUS0031244          00200000000000                M AH-SHENE                                                                           
013L5020210423000152198765000000225524176500000016000CRESCENT1 CUS0038242          01200000000000                M MAJIET                                                                             
013L5020210423000659198765000000101625000200000008500CRESCENT1 CUS0021674          01200000000000                S AUGUST                                                                             
013L5020210423000583250655000006269266795300000008500CRESCENT1 CUS0054663          01200000000000                K ABRAHAMS                                                                           
013L5020210423000554250737000005528005001000000007500CRESCENT1 CUS0017307          00200000000000                R VANIA                                                                              
013L5020210423000150250655000006273817605800000008500CRESCENT1 CUS0058490          00200000000000                F SASMAN                                                                             
013L5020210423000064211617000006225733411100000016000CRESCENT1 CUS0036019          00200000000000                M NORDIEN                                                                            
013L5020210423000607255805000006230031837700000008500CRESCENT1 CUS0054880          00200000000000                A ABRAHAMS                                                                           
013L5020210423000438250655000006280807760700000008500CRESCENT1 CUS0059694          00200000000000                N GYER                                                                               
013L5020210423000205254905000006261132496400000008500CRESCENT1 CUS0050780          01200000000000                J BAKHARIA                                                                           
013L5020210423000408198765000000113606134700000008500CRESCENT1 CUS0042485          02600000000000                G YUSUF                                                                              
013L5020210423000014198765000000111086186900000008500CRESCENT1 CUS0048631          00200000000000                M MAJIET                                                                             
013L5020210423000065250555000006262561989800000008500CRESCENT1 CUS0049259          01200000000000                W ABRAHAMS                                                                           
013L5020210423000611250805000006256997313600000016000CRESCENT1 CUS0019560          00400000000000                A AHMED                                                                              
013L5020210423000538198765000000121039776500000008500CRESCENT1 CUS0054243          00400000000000                A NAINA                                                                              
013L5020210423000792250409000006247312254800000008500CRESCENT1 CUS0047355          01200000000000                C HASSIM                                                                             
013L5020210423000725250805000006229584642500000008500CRESCENT1 CUS0026599          00200000000000                Z SUJEE                                                                              
013L5020210423000087250805000005097901934300000016000CRESCENT1 CUS0000870          00400000000000                F BENN                                                                               
013L5020210423000640198765000000108129059500000008500CRESCENT1 CUS0055365          01200000000000                F  ABRAHAMS                                                                          
013L5020210423000727198765000000115687883700000008500CRESCENT1 CUS0056065          02600000000000                S DAVIDS                                                                             
013L5020210423000769258605000006218611984000000008500CRESCENT1 CUS0056690          00400000000000                I DADABHAI                                                                           
013L5020210423000321250655000006268610528200000008500CRESCENT1 CUS0051653          00600000000000                M ROSENBERG                                                                          
013L5020210423000121200810000005135003831600000008500CRESCENT1 CUS0049720          00200000000000                A DAMOND                                                                             
013L5020210423000261203209000006248525369600000008500CRESCENT1 CUS0051129          00200000000000                Z BEGG                                                                               
013L5020210423000588250537000006251549195000000008500CRESCENT1 CUS0044643          00200000000000                E NDAMASE                                                                            
013L5020210423000337198765000000105324055400000007500CRESCENT1 CUS0051875          02600000000000                F ROSKIN                                                                             
013L5020210423000341198765000000105165650800000008500CRESCENT1 CUS0051960          00600000000000                R MIA                                                                                
013L5020210423000632255355000006236167842100000008500CRESCENT1 CUS0020772          01200000000000                S SALIE                                                                              
013L5020210423000449198765000000110838962700000016000CRESCENT1 CUS0053270          01200000000000                F SALIE                                                                              
013L5020210423000168254605000006235206410000000016000CRESCENT1 CUS0038365          00200000000000                N SMITH                                                                              
013L5020210423000502250655000006280635468500000008500CRESCENT1 CUS0053731          00200000000000                M LAKAY                                                                              
013L5020210423000386250655000006285815611200000008500CRESCENT1 CUS0059497          00200000000000                R BROWN                                                                              
013L5020210423000114250655000006275991844700000008500CRESCENT1 CUS0058309          01200000000000                S ADAMS                                                                              
013L5020210423000139270350000005182105403100000008500CRESCENT1 CUS0002533          00200000000000                I KAJEE                                                                              
013L5020210423000228198765000000118807029000000008500CRESCENT1 CUS0039569          00600000000000                G WILLIAMS                                                                           
013L5020210423000535250141000006210045984200000007500CRESCENT1 CUS0054217          00200000000000                A KHAN                                                                               
013L5020210423000526250141000006252659132700000008500CRESCENT1 CUS0053898          00600000000000                R MOHAMMED                                                                           
013L5020210423000825260209000006243194659200000008500CRESCENT1 CUS0047639          00200000000000                Z KAFAAR                                                                             
013L5020210423000713250737000006052824417600000008500CRESCENT1 CUS0026252          00400000000000                M BABOO                                                                              
013L5020210423000755252005000006209906702900000008500CRESCENT1 CUS0028962          00200000000000                Y NTALO                                                                              
013L5020210423000047250205000006223794006100000008500CRESCENT1 CUS0048937          01200000000000                H LUQMAN                                                                             
013L5020210423000002200109000006235794154300000008500CRESCENT1 CUS0048495          01200000000000                L BEDDERSON                                                                          
013L5020210423000760203209000006248932195200000008500CRESCENT1 CUS0056623          01200000000000                S ABRAHAMS                                                                           
013L5020210423000304198765000000105041710000000008500CRESCENT1 CUS0041413          00200000000000                E PARKER                                                                             
013L5020210423000436250645000005104002031800000008500CRESCENT1 CUS0042666          00200000000000                R SULIMAN                                                                            
013L5020210423000763198765000000103248980400000008500CRESCENT1 CUS0056626          00200000000000                L HILL                                                                               
013L5020210423000149200410000006244157605800000008500CRESCENT1 CUS0050000          01200000000000                S SAMSON                                                                             
013L5020210423000096198765000000290520782500000008500CRESCENT1 CUS0036862          00600000000000                A ISAACS                                                                             
013L5020210423000184250655000006277192656900000008500CRESCENT1 CUS0038708          01200000000000                S LAWRENCE                                                                           
013L5020210423000388198765000000298436307800000008500CRESCENT1 CUS0042256          00400000000000                D ROBERTS                                                                            
013L5020210423000751200607000006229308771600000008500CRESCENT1 CUS0056518          00600000000000                F AZIZ                                                                               
013L5020210423000846198765000000102577607000000008500CRESCENT1 CUS0048171          00400000000000                R MOHAMMED                                                                           
013L5020210423000521220525000006215717723100000008500CRESCENT1 CUS0016117          00200000000000                S BADAT                                                                              
013L5020210423000270250655000006274784238500000008500CRESCENT1 CUS0059156          00400000000000                R ALLISON                                                                            
013L5020210423000505250655000006270282895800000008500CRESCENT1 CUS0053769          00200000000000                L BEIS                                                                               
013L5020210423000827251242000006258051073500000008500CRESCENT1 CUS0033113          00200000000000                S ABDOOLA                                                                            
013L5020210423000468259605000006243019544700000008500CRESCENT1 CUS0042910          01200000000000                F KHAN                                                                               
014L0000000580000000000000025319599089240000000054250000000000000000                                                                                                                                  
011LD23763200500000040945448920120210426                                                                                                                                                              
013L5020210424003506470010000000114579164400000008500CRESCENT1 CUS0058267          00200000000000                A ABRAHAMS                                                                           
013L5020210424001539470010000000129348677700000016000CRESCENT1 CUS0057301          00200000000000                B STEER                                                                              
013L5020210424003464470010000000165093016800000008500CRESCENT1 CUS0058262          00200000000000                S HULL                                                                               
013L5020210424000517051001000000027394934900000008500CRESCENT1 CUS0056818          00200000000000                E ABRAHAMS                                                                           
013L5020210424001555051001000000027215207200000008500CRESCENT1 CUS0020451          00300000000000                M SALIE                                                                              
013L5020210424002719470010000000144494479500000008500CRESCENT1 CUS0048461          00200000000000                Z KENNY                                                                              
013L5020210424001106470010000000128863720700000016000CRESCENT1 CUS0059139          00200000000000                M KIPPIE                                                                             
013L5020210424002999051001000000004252183100000016000CRESCENT1 CUS0032510          00400000000000                F VAN WYK                                                                            
013L5020210424003443051001000000003029993400000008500CRESCENT1 CUS0039227          00400000000000                K KHAN                                                                               
013L5020210424003071051001000000007017004500000008500CRESCENT1 CUS0021285          00400000000000                M DE ROOS                                                                            
013L5020210424002138470010000000114683674900000016000CRESCENT1 CUS0057630          00200000000000                M VERMEULEN                                                                          
013L5020210424001018470010000000143244313300000008500CRESCENT1 CUS0049879          00200000000000                Z ONTONG                                                                             
013L5020210424003150470010000000131327215700000008500CRESCENT1 CUS0042298          00200000000000                Z DAVIDS                                                                             
013L5020210424001538470010000000133316858400000007500CRESCENT1 CUS0055358          00200000000000                S AMOD                                                                               
013L5020210424002153470010000000136531617100000008500CRESCENT1 CUS0057637          00200000000000                A MARKS                                                                              
013L5020210424000602470010000000166890462200000008500CRESCENT1 CUS0058798          00200000000000                M ADAMS                                                                              
013L5020210424003008470010000000164387339100000008500CRESCENT1 CUS0058078          00200000000000                F ISMAIL                                                                             
013L5020210424002544470010000000137880886800000008500CRESCENT1 CUS0059576          00200000000000                T HENDRICKS                                                                          
013L5020210424001882470010000000129686784400000008500CRESCENT1 CUS0055623          00200000000000                Z HASKINS                                                                            
013L5020210424000167051001000001009792886900000008500CRESCENT1 CUS0056701          00600000000000                S DAVIDS                                                                             
013L5020210424000141051001000000002243808400000007500CRESCENT1 CUS0019751          01200000000000                Y BHAM                                                                               
013L5020210424001884462005000000008240600400000008500CRESCENT1 CUS0059386          00200000000000                C SWANEPOEL                                                                          
013L5020210424002119470010000000123204080900000008500CRESCENT1 CUS0048035          00200000000000                S BAILEY                                                                             
013L5020210424000362470010000000126494135600000008500CRESCENT1 CUS0054536          00200000000000                T MANAKA                                                                             
013L5020210424002166051001000000007346009500000008500CRESCENT1 CUS0052912          00200000000000                S BECKETT                                                                            
013L5020210424003178051001000000027654506000000031000CRESCENT1 CUS0042313          00200000000000                M ABRAHAMS                                                                           
013L5020210424002783051001000000027696766600000008500CRESCENT1 CUS0057955          00200000000000                N GABIER                                                                             
013L5020210424002136470010000000123481251500000008500CRESCENT1 CUS0052906          00200000000000                G ABRAHAMS                                                                           
013L5020210424001190051001000001012313572700000008500CRESCENT1 CUS0059185          00200000000000                U KAMALDIEN                                                                          
013L5020210424002255470010000000130340528600000023500CRESCENT1 CUS0050891          00400000000000                I SCHOLTZ                                                                            
013L5020210424002048470010000000139345462100000008500CRESCENT1 CUS0057578          00200000000000                M FREDERICKS                                                                         
013L5020210424001301470010000000143345500300000008500CRESCENT1 CUS0057203          03600000000000                Y ABRAHAMS                                                                           
013L5020210424000067470010000000150364483700000008500CRESCENT1 CUS0051721          00200000000000                R BURTON                                                                             
013L5020210424003038470010000000155638954800000008500CRESCENT1 CUS0058112          00200000000000                F SWARTS                                                                             
013L5020210424000938470010000000150810562400000008500CRESCENT1 CUS0059032          00200000000000                R GOLIATH                                                                            
013L5020210424002393470010000000164833982200000008500CRESCENT1 CUS0057763          00600000000000                M ABRAHAMS                                                                           
013L5020210424000754470010000000141308822600000008500CRESCENT1 CUS0054802          00200000000000                N JACOBS                                                                             
013L5020210424001385470010000000145677788000000008500CRESCENT1 CUS0057220          00200000000000                K PARKER                                                                             
013L5020210424001353470010000000136940322200000008500CRESCENT1 CUS0047300          00400000000000                S OMEDALF                                                                            
013L5020210424001103470010000000136141989800000008500CRESCENT1 CUS0052254          00400000000000                Z BIHL                                                                               
013L5020210424001373470010000000111681523900000016000CRESCENT1 CUS0020362          03400000000000                M THEBUS                                                                             
013L5020210424002701051001000000006238356600000008500CRESCENT1 CUS0038519          00200000000000                M GAFOOR                                                                             
013L5020210424000586470010000000122632909600000008500CRESCENT1 CUS0054637          00200000000000                F SALIE                                                                              
013L5020210424000755470010000000124566823200000008500CRESCENT1 CUS0056993          00200000000000                R KARRIEM                                                                            
013L5020210424002934470010000000160674684500000008500CRESCENT1 CUS0059754          00200000000000                C PRETORIUS                                                                          
013L5020210424000125051001000001009299753600000008500CRESCENT1 CUS0056685          00600000000000                M JOSEPH                                                                             
013L5020210424001146051001000000013124405100000008500CRESCENT1 CUS0055067          00200000000000                F HENDRICKS                                                                          
013L5020210424003253470010000000152340656700000008500CRESCENT1 CUS0056249          00200000000000                E MONAGENG                                                                           
013L5020210424000808470010000000162044907000000008500CRESCENT1 CUS0049699          00200000000000                Y ARRIES                                                                             
013L5020210424000314632005000000405157079500000008500CRESCENT1 CUS0036606          00292803000314                A KARIM                                                                              
013L5020210424000152470010000000137724793500000008500CRESCENT1 CUS0054225          00200000000000                S KHAN                                                                               
013L5020210424000966410142000005110993325100000016000CRESCENT1 CUS0059037          00300000000000                C MILAMBE                                                                            
013L5020210424000766470010000000119502749200000008500CRESCENT1 CUS0049664          00400000000000                L KAGEE                                                                              
013L5020210424003337051001000000007337362100000016000CRESCENT1 CUS0056294          00600000000000                E JACOBS                                                                             
013L5020210424002424051001000000007029971400000008500CRESCENT1 CUS0059526          00200000000000                M VAN DER FORT                                                                       
013L5020210424002537051001000000030097047100000016000CRESCENT1 CUS0041905          00200000000000                A KHOTOO                                                                             
013L5020210424003352470010000000123804727900000008500CRESCENT1 CUS0058221          00200000000000                L LAKAY                                                                              
013L5020210424002964470010000000136891951900000016000CRESCENT1 CUS0059758          00200000000000                A BRINK                                                                              
013L5020210424000993470010000000130921888700000008500CRESCENT1 CUS0057085          00200000000000                A MATHEWS                                                                            
013L5020210424001232470010000000141429656600000016000CRESCENT1 CUS0059189          00400000000000                I BADARON                                                                            
013L5020210424000739470010000000141009037800000016000CRESCENT1 CUS0052025          00200000000000                I NASSER                                                                             
013L5020210424003039470010000000160036957800000008500CRESCENT1 CUS0059803          00200000000000                M SAMUELS                                                                            
013L5020210424002019051001000001012629681000000008500CRESCENT1 CUS0059407          00200000000000                Z BULBULIA                                                                           
013L5020210424003084470010000000152769482600000008500CRESCENT1 CUS0059815          00200000000000                A BLANKENBERG                                                                        
013L5020210424000278470010000000149830776900000008500CRESCENT1 CUS0054397          00200000000000                S THULSIE                                                                            
013L5020210424000294470010000000156745819800000008500CRESCENT1 CUS0058635          00200000000000                A LILLAH                                                                             
013L5020210424000866470010000000143162697800000016000CRESCENT1 CUS0054854          00600000000000                A SAMIE                                                                              
013L5020210424001244470010000000132815563100000008500CRESCENT1 CUS0055097          00400000000000                R REGAL                                                                              
013L5020210424002949051001000001013472278500000016000CRESCENT1 CUS0059755          00200000000000                A PEACOCK                                                                            
013L5020210424003370470010000000124511794500000008500CRESCENT1 CUS0030157          01200000000000                L MUTABARUKA                                                                         
013L5020210424000377051001000000040204263800000008500CRESCENT1 CUS0056772          00200000000000                S ABRAHAMS                                                                           
013L5020210424001092470010000000148778626100000008500CRESCENT1 CUS0059127          00200000000000                U GEORGE                                                                             
013L5020210424001636470010000000156023241000000008500CRESCENT1 CUS0055443          00200000000000                G SAYED                                                                              
013L5020210424001623470010000000155933047100000008500CRESCENT1 CUS0057368          00200000000000                N BENJAMIN                                                                           
013L5020210424002124678910000005102362230300000008500CRESCENT1 CUS0059421          00200000000000                B LAUGHTON                                                                           
013L5020210424000573470010000000133486747800000008500CRESCENT1 CUS0056913          00200000000000                L JOHNSON                                                                            
013L5020210424000416051001000001007670952100000008500CRESCENT1 CUS0049485          00200000000000                W SALIE                                                                              
013L5020210424000417470010000000122217174900000008500CRESCENT1 CUS0051876          03000000000000                M THAGAN                                                                             
013L5020210424001963250655000007709415510900000023500CRESCENT1 CUS0027763          02600000000000                A MYET                                                                               
013L5020210424002918470010000000128880214300000008500CRESCENT1 CUS0058044          00200000000000                F ALEXANDER                                                                          
013L5020210424001951051001000000006073432900000008500CRESCENT1 CUS0037874          00200000000000                M TOEFY                                                                              
013L5020210424003379051001000000027248755400000008500CRESCENT1 CUS0056358          00200000000000                W DAVIDS                                                                             
013L5020210424000699470010000000134774711500000008500CRESCENT1 CUS0056968          00400000000000                M FELES                                                                              
013L5020210424003590470010000000155300556000000008500CRESCENT1 CUS0058296          00200000000000                F MATTHEWS                                                                           
013L5020210424002782470010000000163140000000000008500CRESCENT1 CUS0055988          01200000000000                F EVERTS                                                                             
013L5020210424000546470010000000131822591200000008500CRESCENT1 CUS0058759          00200000000000                S BREDA                                                                              
013L5020210424002293051001000000033559947800000008500CRESCENT1 CUS0028314          00200000000000                K MALELE                                                                             
013L5020210424000952410142000005112911606200000008500CRESCENT1 CUS0059034          00300000000000                J STEVEN                                                                             
013L5020210424002551470010000000115070286700000008500CRESCENT1 CUS0038415          00200000000000                N ISAAS RAISS                                                                        
013L5020210424001202051001000000040127869700000008500CRESCENT1 CUS0055087          00200000000000                S MURPHU                                                                             
013L5020210424000544470010000000132635995700000016000CRESCENT1 CUS0054621          03400000000000                M ABRAHAM                                                                            
013L5020210424001178470010000000140102780400000008500CRESCENT1 CUS0022885          00200000000000                I TLADI                                                                              
013L5020210424002574470010000000168496397200000008500CRESCENT1 CUS0059582          00200000000000                R MOSES                                                                              
013L5020210424001203470010000000160927284400000008500CRESCENT1 CUS0057174          00400000000000                O NOLAN                                                                              
013L5020210424003338470010000000150269657400000006900CRESCENT1 CUS0058217          00200000000000                M KAMALDIEN                                                                          
013L5020210424000069470010000000141878438700000008500CRESCENT1 CUS0056662          00200000000000                G BENJAMIN                                                                           
013L5020210424002793470010000000131092391200000008500CRESCENT1 CUS0045150          00400000000000                R HENDRICKS                                                                          
013L5020210424002331470010000000135720796200000008500CRESCENT1 CUS0052988          00200000000000                A WILLIAMS                                                                           
013L5020210424001175051001000000030277184000000016000CRESCENT1 CUS0057146          00200000000000                F HATIA                                                                              
013L5020210424000796051001000000006188199600000016000CRESCENT1 CUS0054818          00200000000000                I BENNETT                                                                            
013L5020210424001775051001000000007169170700000007500CRESCENT1 CUS0050615          00400000000000                S HOWELL                                                                             
013L5020210424003257051001000000007251076500000008500CRESCENT1 CUS0024853          00200000000000                M KAMALIE                                                                            
013L5020210424000592460005000000002418475800000008500CRESCENT1 CUS0030954          00600000000000                A MASINGA                                                                            
013L5020210424002795470010000000125737580400000015400CRESCENT1 CUS0051217          00200000000000                M NAROTH                                                                             
013L5020210424002694470010000000127633628200000008500CRESCENT1 CUS0059639          00300000000000                J VON DOORZE                                                                         
013L5020210424000821470010000000137277377900000008500CRESCENT1 CUS0046946          00200000000000                Z FAGODIEN                                                                           
013L5020210424000292470010000000137705605600000008500CRESCENT1 CUS0054444          00400000000000                M KHAN-GORDON                                                                        
013L5020210424000825470010000000144711277400000008500CRESCENT1 CUS0057036          00200000000000                G FROUDE                                                                             
013L5020210424001484470010000000145473146800000008500CRESCENT1 CUS0059311          00200000000000                M SOLOMONS                                                                           
013L5020210424002768470010000000163164392200000008500CRESCENT1 CUS0057940          00200000000000                R SOLOMONS                                                                           
013L5020210424001426051001000000002117781300000008500CRESCENT1 CUS0055228          00200000000000                C EYBERS                                                                             
013L5020210424001310051001000000002482638300000008500CRESCENT1 CUS0044044          00200000000000                V RAGOO                                                                              
013L5020210424000105051001000000025319012600000016000CRESCENT1 CUS0039494          00200000000000                H RAZACK                                                                             
013L5020210424001358470010000000169435580000000008500CRESCENT1 CUS0059232          00200000000000                A ALEXANDER                                                                          
013L5020210424003196470010000000153868248400000008500CRESCENT1 CUS0053500          00600000000000                R CUPIDO                                                                             
013L5020210424002183470010000000160363856100000007500CRESCENT1 CUS0057653          00200000000000                B GALANT                                                                             
013L5020210424003643470010000000148953545200000008500CRESCENT1 CUS0051692          00200000000000                K ABDULLAH                                                                           
013L5020210424002213470010000000140085432400000008500CRESCENT1 CUS0057667          00200000000000                A EDRIES                                                                             
013L5020210424003250470010000000139955294300000008500CRESCENT1 CUS0048816          00200000000000                Y ABRAHAMS                                                                           
013L5020210424000011470010000000127643447000000008500CRESCENT1 CUS0051702          03000000000000                M KEMP                                                                               
013L5020210424000306470010000000117112745400000008500CRESCENT1 CUS0054448          00200000000000                N GANIEF                                                                             
013L5020210424000731250655000007425296283900000008500CRESCENT1 CUS0026304          02600000000000                S KAMAL XAVIER                                                                       
013L5020210424002406470010000000140221902200000008500CRESCENT1 CUS0053057          03000000000000                A BUCKS                                                                              
013L5020210424002094470010000000159049694700000008500CRESCENT1 CUS0059413          00200000000000                N CHOUGLAY                                                                           
013L5020210424001079470010000000152076018100000007500CRESCENT1 CUS0020196          00600000000000                M OMAR                                                                               
013L5020210424000810470010000000153319426000000008500CRESCENT1 CUS0054825          00200000000000                S HOLLAND                                                                            
013L5020210424001383470010000000151506431800000016000CRESCENT1 CUS0052500          03200000000000                N HOOSEN                                                                             
013L5020210424002439470010000000161786706100000008500CRESCENT1 CUS0059527          00200000000000                I SAMUELS                                                                            
013L5020210424002829470010000000143120534400000008500CRESCENT1 CUS0059679          00200000000000                R RAWAT                                                                              
013L5020210424002314470010000000146976423500000008500CRESCENT1 CUS0048210          00200000000000                K SYDOW                                                                              
013L5020210424000145051001000000027007343400000008500CRESCENT1 CUS0033220          00400000000000                R GARDER                                                                             
013L5020210424001295051001000000020054746100000008500CRESCENT1 CUS0040909          00600000000000                N KARIM                                                                              
013L5020210424001174470010000000128624574300000008500CRESCENT1 CUS0055079          00200000000000                F MALL                                                                               
013L5020210424000831470010000000125318300500000008500CRESCENT1 CUS0034016          00200000000000                A VISAGIE                                                                            
013L5020210424000168470010000000122306426100000008500CRESCENT1 CUS0058472          00200000000000                S ISMAIL                                                                             
013L5020210424000065250655000006444777999100000008500CRESCENT1 CUS0046047          02600000000000                M KHAN                                                                               
013L5020210424000964051001000001008565753900000008500CRESCENT1 CUS0054927          00200000000000                Z RAJIE                                                                              
013L5020210424001118470010000000147169201700000008500CRESCENT1 CUS0055056          00200000000000                C ROSENBURG                                                                          
013L5020210424000685470010000000161465686800000008500CRESCENT1 CUS0056966          00200000000000                K JAFIELDIEN                                                                         
013L5020210424002376470010000000155894745900000008500CRESCENT1 CUS0053045          00200000000000                A BADR                                                                               
013L5020210424002272470010000000158111041100000008500CRESCENT1 CUS0055783          00200000000000                A ADAMS                                                                              
013L5020210424000574470010000000153706643700000008500CRESCENT1 CUS0058786          00400000000000                N SOLOMON                                                                            
013L5020210424002322801000000001500532010100000008500CRESCENT1 CUS0024049          01200000000000                Z CASSIM                                                                             
013L5020210424000812470010000000173802726900000008500CRESCENT1 CUS0058994          00200000000000                R REDCLIFFE                                                                          
013L5020210424001693470010000000138515809100000016000CRESCENT1 CUS0057403          00400000000000                N ABRAHAMS                                                                           
013L5020210424003351470010000000134898039500000016000CRESCENT1 CUS0056300          00200000000000                S ABRAHAMS                                                                           
013L5020210424001635470010000000131057906500000008500CRESCENT1 CUS0052562          00200000000000                T BRAMDER                                                                            
013L5020210424000126470010000000131484442100000008500CRESCENT1 CUS0058464          00200000000000                N FORTUNE                                                                            
013L5020210424002543470010000000117202858100000008500CRESCENT1 CUS0057801          01200000000000                L SALIE                                                                              
013L5020210424000860051001000000007799853700000008500CRESCENT1 CUS0037006          00200000000000                F KHAN                                                                               
013L5020210424000982051001000000006100368900000008500CRESCENT1 CUS0022723          00600000000000                G RAHMAN                                                                             
013L5020210424002950051001000000030097300400000008500CRESCENT1 CUS0019368          00200000000000                R HYATH                                                                              
013L5020210424000359051001000000030330711000000008500CRESCENT1 CUS0046483          00200000000000                H GUTTA                                                                              
013L5020210424000434051001000000007429085100000008500CRESCENT1 CUS0058677          00400000000000                M ARENDSE                                                                            
013L5020210424002196470010000000118967357400000008500CRESCENT1 CUS0052925          00200000000000                S MANUEL                                                                             
013L5020210424002618462005000000392438630100000008500CRESCENT1 CUS0057886          00200000000000                A CASSIEM                                                                            
013L5020210424000780470010000000138005993100000008500CRESCENT1 CUS0049694          00200000000000                S KLEINSMITH                                                                         
013L5020210424000023632005000000404120396800000008500CRESCENT1 CUS0046023          03492801000023                R CASSIEM                                                                            
013L5020210424003095470010000000163764926400000008500CRESCENT1 CUS0051343          00400000000000                F DAWOOD                                                                             
013L5020210424001119470010000000139148562700000008500CRESCENT1 CUS0057131          00200000000000                M BAILEY                                                                             
013L5020210424003021470010000000148511349900000008500CRESCENT1 CUS0053402          00200000000000                M ORRIE-ROB                                                                          
013L5020210424000462470010000000144049287300000008500CRESCENT1 CUS0058681          03000000000000                F DANGOR                                                                             
013L5020210424003117051001000000082703300100000016000CRESCENT1 CUS0024744          02600000000000                K MOHAMMED                                                                           
013L5020210424000516470010000000125594644800000008500CRESCENT1 CUS0054604          00400000000000                R CASAMARIE BALL                                                                     
013L5020210424002912250655000007438698667200000008500CRESCENT1 CUS0042113          02600000000000                A BUKUPU                                                                             
013L5020210424002093470010000000145552803800000008500CRESCENT1 CUS0057607          00200000000000                Y BASSON                                                                             
013L5020210424002941470010000000139889422000000008500CRESCENT1 CUS0038719          00200000000000                Z HAMID                                                                              
013L5020210424002903470010000000154892614900000016000CRESCENT1 CUS0058042          00200000000000                I KAMAAR                                                                             
013L5020210424001064470010000000149945430700000008500CRESCENT1 CUS0059082          00200000000000                A MOSES                                                                              
013L5020210424002085051001000000020087686400000016000CRESCENT1 CUS0035202          00200000000000                G SALASA                                                                             
013L5020210424000378051001000000027176610700000008500CRESCENT1 CUS0058642          00200000000000                R ABRAHAMS                                                                           
013L5020210424003520051001000001012771163300000008500CRESCENT1 CUS0058268          00200000000000                S DAVIDS                                                                             
013L5020210424002438470010000000164481386400000016000CRESCENT1 CUS0057770          00200000000000                M MOOS                                                                               
013L5020210424000349470010000000139539213500000008500CRESCENT1 CUS0056763          00200000000000                N ABRAHAMS                                                                           
013L5020210424000364470010000000144397510700000008500CRESCENT1 CUS0058641          00200000000000                R LE ROUX                                                                            
013L5020210424000279470010000000143576330900000008500CRESCENT1 CUS0056738          00400000000000                S SAKIELDIEN                                                                         
013L5020210424002436470010000000128800491300000008500CRESCENT1 CUS0053071          00200000000000                F KHAN                                                                               
013L5020210424000639470010000000124027084200000008500CRESCENT1 CUS0046718          00400000000000                A MADATT                                                                             
013L5020210424002676470010000000111529795100000008500CRESCENT1 CUS0053167          00200000000000                K ISMAIL                                                                             
013L5020210424003161051001000000062587933300000016000CRESCENT1 CUS0032587          00400000000000                A MDHULI                                                                             
013L5020210424001036470010000000136492871800000008500CRESCENT1 CUS0059065          00200000000000                A LEONARD                                                                            
013L5020210424001413470010000000151845309900000008500CRESCENT1 CUS0057243          00200000000000                M TALIEP                                                                             
013L5020210424003130632005000000406364292800000016000CRESCENT1 CUS0021331          00292803003130                J RICHARDS                                                                           
013L5020210424002649470010000000134404150500000008500CRESCENT1 CUS0059631          00400000000000                M ADAMS                                                                              
013L5020210424001819470010000000130716777000000008500CRESCENT1 CUS0047724          00200000000000                S MOODLEY                                                                            
013L5020210424000052470010000000143811711400000008500CRESCENT1 CUS0049226          00200000000000                S CHALKLEN                                                                           
013L5020210424002873470010000000144404897800000008500CRESCENT1 CUS0058016          00200000000000                N HODSON                                                                             
013L5020210424000686470010000000139498759300000008500CRESCENT1 CUS0058870          00200000000000                Q PROUTS                                                                             
013L5020210424003646470010000000142664211100000008500CRESCENT1 CUS0058376          00200000000000                R REGTER                                                                             
013L5020210424003292051001000001003783386100000008500CRESCENT1 CUS0048861          00200000000000                Z CARRIM                                                                             
013L5020210424000469051001000000005824696700000008500CRESCENT1 CUS0040029          00200000000000                F MOOSA                                                                              
013L5020210424000991051001000000028317597400000008500CRESCENT1 CUS0052207          03000000000000                S KHALEK                                                                             
013L5020210424002584470010000000121647085300000008500CRESCENT1 CUS0048388          00400000000000                B VOLKER                                                                             
013L5020210424002752470010000000146767245700000008500CRESCENT1 CUS0055983          00200000000000                T PARKER                                                                             
013L5020210424003082470010000000150973379300000016000CRESCENT1 CUS0056184          00200000000000                F SOLOMON                                                                            
013L5020210424001470470010000000150696387900000008500CRESCENT1 CUS0059310          00200000000000                N THWALA                                                                             
013L5020210424002364470010000000157049014500000008500CRESCENT1 CUS0059504          00200000000000                Z DAVIDS                                                                             
013L5020210424003184470010000000160960933400000008500CRESCENT1 CUS0058193          00200000000000                S MOHAMED                                                                            
014L0000001980000000000000007659849071090000000193830000000000000000                                                                                                                                  
019L0000002610000000000000033631800405230000000252920000000000000000                                                                                                                                  
999L000000275                                                                                                                                                                                         
