000L2021032400000PAYPORT CONSULTING PTY LTD EFT000068407303                                                                                                                                           
010LD237000016501                                                                                                                                                                                     
011LD23763200500000040945448920120210225                                                                                                                                                              
013L5020210224000475198765000000298436307800000008500CRESCENT1 CUS0042256          03000000000000                D ROBERTS                                                                            
014L0000000010000000000000000029843630780000000000850000000000000000                                                                                                                                  
011LD23763200500000040945448920120210227                                                                                                                                                              
013L5020210226002116470010000000140102780400000008500CRESCENT1 CUS0022885          03200000000000                I TLADI                                                                              
014L0000000010000000000000000014010278040000000000850000000000000000                                                                                                                                  
011LD23763200500000040945448920120210316                                                                                                                                                              
013L5020210315000046470010000000146044636200000008500CRESCENT1 CUS0053449          03000000000000                N BOTHA                                                                              
013L5020210315000584632005000000062408289300000008500CRESCENT1 CUS0043190          03092801000584                G VALIATHAM                                                                          
013L5020210315001031470010000000113741808500000008500CRESCENT1 CUS0058339          03200000000000                Y DALVIE                                                                             
014L0000000030000000000000000032219473400000000002550000000000000000                                                                                                                                  
011LD23763200500000040945448920120210320                                                                                                                                                              
013L5020210319000333470010000000137453407000000008500CRESCENT1 CUS0059500          00200000000000                K DAVIDS                                                                             
013L5020210319000101470010000000138079673100000016000CRESCENT1 CUS0051036          00200000000000                N DAVIDS                                                                             
013L5020210319000371632005000000407912797600000008500CRESCENT1 CUS0043027          00292803000371                N AHMED                                                                              
013L5020210319000329470010000000160368658200000008500CRESCENT1 CUS0059477          00400000000000                A SAFODIEN                                                                           
013L5020210319000151051001000000008298883800000008500CRESCENT1 CUS0053607          00200000000000                R ADAM                                                                               
013L5020210319000251470010000000157313906600000016000CRESCENT1 CUS0057501          00200000000000                F WELSH                                                                              
013L5020210319000324470010000000169139825800000016000CRESCENT1 CUS0038281          00200000000000                A PETER                                                                              
013L5020210319000158051001000000000898191400000023500CRESCENT1 CUS0017140          00400000000000                A CHRISTIAN                                                                          
013L5020210319000164051001000000000916856700000008500CRESCENT1 CUS0017521          00400000000000                A BOWERS                                                                             
013L5020210319000239470010000000164018640700000008500CRESCENT1 CUS0057079          00200000000000                B MUKADAM                                                                            
013L5020210319000201800000000007860018506600000007500CRESCENT1 CUS0055687          00200000000000                A WILLIAMS                                                                           
013L5020210319000295470010000000160853163300000008500CRESCENT1 CUS0058887          00400000000000                D JARDIEN                                                                            
013L5020210319000257470010000000111742367900000008500CRESCENT1 CUS0058009          00200000000000                S JACOBS                                                                             
013L5020210319000199470010000000150543035400000016000CRESCENT1 CUS0055630          00200000000000                Q AJOUHAAR                                                                           
013L5020210319000237470010000000143792551900000008500CRESCENT1 CUS0057067          00600000000000                Y MUSTAPHA                                                                           
013L5020210319000309470010000000138236736600000008500CRESCENT1 CUS0059039          00400000000000                Z SOEKER                                                                             
013L5020210319000294470010000000130797936800000016000CRESCENT1 CUS0036620          00600000000000                K KIVIDO                                                                             
013L5020210319000023632005000000407164438200000008500CRESCENT1 CUS0047678          03492801000023                C WILLIAMS                                                                           
013L5020210319000128051001000000000923273700000008500CRESCENT1 CUS0011558          00200000000000                Z SALIE                                                                              
013L5020210319000163470010000000156306484500000008500CRESCENT1 CUS0054401          00200000000000                S HOOSAIN                                                                            
014L0000000200000000000000001060477933580000000022150000000000000000                                                                                                                                  
019L0000000250000000000000001136551315800000000026400000000000000000                                                                                                                                  
999L000000037                                                                                                                                                                                         
