000L2020122000000PAYPORT CONSULTING PTY LTD EFT000055107303                                                                                                                                           
010LD237000005701                                                                                                                                                                                     
011LD23763200500000040945448920120201215                                                                                                                                                              
013L5020201214001071198765000000208000780700000016000CRESCENT1 CUS0052126          03000000000000                M BADEROEN                                                                           
013L5020201214000989198765000000120577935300000008500CRESCENT1 CUS0034974          00200000000000                H LEDIGA                                                                             
014L0000000020000000000000000032857871600000000002450000000000000000                                                                                                                                  
011LD23763200500000040945448920120201219                                                                                                                                                              
013L5020201218001575632005000000406737835300000008500CRESCENT1 CUS0047067          00300000001575                S JADWAT                                                                             
013L5020201218000985632005000000407352949100000008500CRESCENT1 CUS0009056          01200000000985                S KHAN                                                                               
013L5020201218000862632005000000920142852500000008500CRESCENT1 CUS0034153          00200016000862                S ADAM                                                                               
013L5020201218000753632005000000920601414300000016000CRESCENT1 CUS0027300          00300000000753                R THEYS                                                                              
013L5020201218002008632005000000926124830500000008500CRESCENT1 CUS0059166          00200016002008                G ISMAIL                                                                             
013L5020201218001733632005000000918257371600000016000CRESCENT1 CUS0036401          00200016001733                F MKHIZE                                                                             
013L5020201218001651632005000000910664177500000008500CRESCENT1 CUS0024216          00200016001651                Z HASSAN                                                                             
013L5020201218001728632005000000929980862400000008500CRESCENT1 CUS0059027          00300040001728                H HEBERT                                                                             
013L5020201218001797632005000000407000838100000008500CRESCENT1 CUS0057197          00292803001797                I KHAN                                                                               
013L5020201218000686632005000000408906242900000016000CRESCENT1 CUS0055379          00292803000686                N DAVIDS                                                                             
013L5020201218001823632005000000911901263200000008500CRESCENT1 CUS0036536          00200016001823                R AHMED                                                                              
013L5020201218001209632005000000935291226500000008500CRESCENT1 CUS0058658          03092801001209                G GASNODIEN                                                                          
013L5020201218001764632005000000907302593900000008500CRESCENT1 CUS0042074          00200016001764                S ALLIE                                                                              
013L5020201218002212632005000000406494029000000008500CRESCENT1 CUS0032135          00292803002212                T PATEL                                                                              
013L5020201218000364632005000000405273960300000008500CRESCENT1 CUS0033490          90300000000364                Z CHRISTIAN                                                                          
013L5020201218002138632005000000409784700100000008500CRESCENT1 CUS0059202          00292803002138                A BUSCH                                                                              
013L5020201218002055632005000000408305943000000008500CRESCENT1 CUS0048042          90300000002055                R WILLIAMS                                                                           
013L5020201218000145632005000000921062929700000008500CRESCENT1 CUS0038424          03492801000145                U YUNUS                                                                              
013L5020201218000567632005000000930484382000000008500CRESCENT1 CUS0054954          00200016000567                H WILLIAMS                                                                           
013L5020201218000623632005000000931333980400000008500CRESCENT1 CUS0055159          00300000000623                F BAATJIES                                                                           
013L5020201218002298632005000000933415514200000016000CRESCENT1 CUS0059243          00292803002298                F LEVY                                                                               
013L5020201218000884632005000000908816156800000008500CRESCENT1 CUS0055737          00200016000884                T TOFIE                                                                              
013L5020201218001999632005000000911269044300000016000CRESCENT1 CUS0002449          00292803001999                R ALLI                                                                               
013L5020201218001867632005000000934716316000000008500CRESCENT1 CUS0057240          00200016001867                S HERBERT                                                                            
013L5020201218002262632005000000907364177100000008500CRESCENT1 CUS0032228          01800004002262                I ABDOOL                                                                             
013L5020201218001240632005000000408661292800000008500CRESCENT1 CUS0040963          00292803001240                I MOOSA                                                                              
013L5020201218000963580105000001001163485900000008500CRESCENT1 CUS0045674          01200000000000                N ADAM                                                                               
013L5020201218002326632005000000911926373400000008500CRESCENT1 CUS0053558          00200016002326                T DE VILLIERS                                                                        
013L5020201218002344632005000000931493424700000016000CRESCENT1 CUS0043475          00200016002344                N DAVIDS                                                                             
013L5020201218001022632005000000923365465100000016000CRESCENT1 CUS0021190          00292803001022                A MOHAMED                                                                            
013L5020201218001412632005000000408092192500000008500CRESCENT1 CUS0046746          00292803001412                E CASSIM                                                                             
013L5020201218001517632005000005301456356400000008500CRESCENT1 CUS0056847          00200016001517                R VANDERSART                                                                         
013L5020201218000383632005000000903267454400000008500CRESCENT1 CUS0026671          00292803000383                S SALO                                                                               
013L5020201218000293632005000000407817669900000016000CRESCENT1 CUS0026481          00292803000293                N VADI                                                                               
013L5020201218001463632005000000922235832500000008500CRESCENT1 CUS0030450          00200016001463                A SHAIK                                                                              
013L5020201218000025632005000000405906181900000008500CRESCENT1 CUS0038078          00292803000025                N HERMAN                                                                             
013L5020201218001924632005000000924539399400000008500CRESCENT1 CUS0042569          00200016001924                I SALEH                                                                              
013L5020201218000409632005000000932461143100000016000CRESCENT1 CUS0058115          00200016000409                A SERAIJOODIEN                                                                       
013L5020201218002086632005000000930252399900000008500CRESCENT1 CUS0053144          00300000002086                A AFZAL                                                                              
013L5020201218002203632005000000912979530100000008500CRESCENT1 CUS0037369          00200016002203                A DAVIDS                                                                             
013L5020201218001704632005000000917726466300000016000CRESCENT1 CUS0041895          00200016001704                F SALEE                                                                              
013L5020201218002206632005000000928510048400000008500CRESCENT1 CUS0053243          00292803002206                M BASARDIEN                                                                          
013L5020201218000539632005000000908364603800000008500CRESCENT1 CUS0059458          00200016000539                R SAMODIEN                                                                           
013L5020201218002116632005000000408788313200000008500CRESCENT1 CUS0053188          01200000002116                A MOOSA                                                                              
013L5020201218002454632005000000406137037500000008500CRESCENT1 CUS0043615          01800000002454                M DOLLEY                                                                             
013L5020201218001814632005000003801927168100000008500CRESCENT1 CUS0042166          00200016001814                I HAJEE                                                                              
013L5020201218000148632005000000408034279700000008500CRESCENT1 CUS0054224          00300000000148                O SOLOMONS                                                                           
013L5020201218000663632005000000405828551100000007500CRESCENT1 CUS0027039          01200000000663                Z BHAROOCHI                                                                          
013L5020201218000468632005000000930354862900000006900CRESCENT1 CUS0058130          00200016000468                F SALIE                                                                              
013L5020201218001274632005000000918761263800000008500CRESCENT1 CUS0029379          00200016001274                M SAYED                                                                              
013L5020201218000967632005000000405422480600000015000CRESCENT1 CUS0009035          00292803000967                R ASMAL                                                                              
013L5020201218001940632005000000407113269600000016000CRESCENT1 CUS0014924          01800000001940                A PANDOR                                                                             
013L5020201218000806632005000000905065444800000016000CRESCENT1 CUS0020308          00200016000806                H LILLAH                                                                             
013L5020201218001932632005000000905134146800000008500CRESCENT1 CUS0031526          01200012001932                M ADAM                                                                               
013L5020201218002221632005000000929767930800000008500CRESCENT1 CUS0025266          00200016002221                B GOONDIE                                                                            
014L0000000550000000000000004873113966010000000056140000000000000000                                                                                                                                  
019L0000000570000000000000004905971837610000000058590000000000000000                                                                                                                                  
999L000000065                                                                                                                                                                                         
