000L2021021900000PAYPORT CONSULTING PTY LTD EFT000063707303                                                                                                                                           
010LD237000012401                                                                                                                                                                                     
011LD23763200500000040945448920120210116                                                                                                                                                              
013L5020210115000250200910000006207510305300000008500CRESCENT1 CUS0058616          03400000000000                M FILLIES                                                                            
013L5020210115000135198765000000107546194400000008500CRESCENT1 CUS0058249          03200000000000                A SCHUTT                                                                             
014L0000000020000000000000000631505649970000000001700000000000000000                                                                                                                                  
011LD23763200500000040945448920120210125                                                                                                                                                              
013L5020210123000097198765000000107609300000000016000CRESCENT1 CUS0034966          03000000000000                A WHITE                                                                              
013L5020210123000806051001000000000905896600000008500CRESCENT1 CUS0055033          03000000000000                A GOOLAM                                                                             
014L0000000020000000000000000010851519660000000002450000000000000000                                                                                                                                  
011LD23763200500000040945448920120210216                                                                                                                                                              
013L5020210215000371240139000005284002548300000008500CRESCENT1 CUS0014577          00200000000000                S ISAT                                                                               
013L5020210215000175203109000006267499139600000008500CRESCENT1 CUS0058110          00200000000000                M ABDEROUF                                                                           
013L5020210215001164221926000006242192609100000016000CRESCENT1 CUS0050791          01200000000000                D SAFLA                                                                              
013L5020210215000230198765000000107546194400000008500CRESCENT1 CUS0058249          00200000000000                A SCHUTT                                                                             
013L5020210215000757198765000000105896260400000008500CRESCENT1 CUS0055165          00200000000000                K DE BRUIN                                                                           
013L5020210215000220250655000006280686167200000008500CRESCENT1 CUS0058246          00200000000000                M PADIA                                                                              
013L5020210215000455250655000006280942207500000008500CRESCENT1 CUS0058860          00200000000000                Z KASSIM                                                                             
013L5020210215000997252245000006227448404800000008500CRESCENT1 CUS0024806          01200000000000                Z DANIEL KHAN                                                                        
013L5020210215000900201409000005026112727600000007500CRESCENT1 CUS0055835          00600000000000                F DAVIDS                                                                             
013L5020210215000814250114000006207510668500000008500CRESCENT1 CUS0048999          01200000000000                H MOOS                                                                               
013L5020210215001141261050000005060016673600000008500CRESCENT1 CUS0005085          00200000000000                I WILLIAMS                                                                           
013L5020210215000328255355000006252653850100000008500CRESCENT1 CUS0046387          00400000000000                Y HASSEN                                                                             
013L5020210215000117220229000006203034348800000008500CRESCENT1 CUS0033467          01200000000000                A HAMIDU                                                                             
013L5020210215001100198765000000110738095200000008500CRESCENT1 CUS0056593          00200000000000                S TIMMS                                                                              
013L5020210215001014198765000000102622222200000008500CRESCENT1 CUS0049943          00200000000000                S KAMAAR                                                                             
013L5020210215000199260202000006267521888000000008500CRESCENT1 CUS0051888          00200000000000                A DOMINGO                                                                            
013L5020210215000323254205000006210789239200000008500CRESCENT1 CUS0046323          00200000000000                O CANNELL                                                                            
013L5020210215000006251542000006246180660900000016000CRESCENT1 CUS0007230          00200000000000                N KAROLIA                                                                            
013L5020210215000094250737000006253243920600000008500CRESCENT1 CUS0051618          00600000000000                D COERECIUS                                                                          
013L5020210215000034250555000006254199110600000008500CRESCENT1 CUS0051252          00200000000000                A EDWARDS                                                                            
013L5020210215000737198765000000196646646300000008500CRESCENT1 CUS0054979          00200000000000                O ABRAHAMS                                                                           
013L5020210215000523198765000000123009289700000008500CRESCENT1 CUS0047624          00600000000000                K DAWOOD                                                                             
013L5020210215000355200910000006207510305300000008500CRESCENT1 CUS0058616          03400000000000                M FILLIES                                                                            
013L5020210215000454220229000005091004298100000008500CRESCENT1 CUS0053004          00400000000000                R DASIGADU                                                                           
013L5020210215000440250655000006281485359600000016000CRESCENT1 CUS0058841          00400000000000                R JOUBYAR                                                                            
013L5020210215000181254605000006209031446100000015000CRESCENT1 CUS0010568          00200000000000                A MOHAMED                                                                            
013L5020210215000639198765000000106973420900000008500CRESCENT1 CUS0053767          01200000000000                S BENJAMIN                                                                           
013L5020210215000560239934000006209420488200000008500CRESCENT1 CUS0059072          00200000000000                H THEKISO                                                                            
013L5020210215000097250655000006274691016700000007500CRESCENT1 CUS0033203          03000000000000                S OBARAY                                                                             
013L5020210215000516270224000006222954127300000008500CRESCENT1 CUS0016633          00200000000000                R EBRAHIM                                                                            
013L5020210215000075470010000000116499586100000008500CRESCENT1 CUS0057647          03000000000000                M ISAACS                                                                             
013L5020210215000841251705000006200913361200000008500CRESCENT1 CUS0000420          00200000000000                M PIENAAR                                                                            
013L5020210215000284250942000006206548741700000008500CRESCENT1 CUS0052410          00200000000000                U MCKAY                                                                              
013L5020210215000337220425000006208294156100000008500CRESCENT1 CUS0036597          00400000000000                T AMLA                                                                               
013L5020210215001216198765000000110836186200000008500CRESCENT1 CUS0006698          00200000000000                N MIA                                                                                
013L5020210215000722260149000006213203027200000015000CRESCENT1 CUS0040443          00400000000000                N OSMAN                                                                              
013L5020210215000798256955000006210507147700000008500CRESCENT1 CUS0020379          01200000000000                F KADIR                                                                              
013L5020210215000621250141000006219857769800000008500CRESCENT1 CUS0018084          00200000000000                M ISAACS                                                                             
013L5020210215000774250737000006212865996100000016000CRESCENT1 CUS0020135          00200000000000                A SULIMAN                                                                            
013L5020210215000038230202000006211304401000000008500CRESCENT1 CUS0044818          00200000000000                M NASSON                                                                             
013L5020210215000653198765000000113319081200000008500CRESCENT1 CUS0048273          01200000000000                K BENJAMIN                                                                           
013L5020210215000012200510000006226631640700000016000CRESCENT1 CUS0031346          00200000000000                M MULLAJI                                                                            
013L5020210215001219250555000006258347842700000016000CRESCENT1 CUS0050913          00200000000000                N JANUARY                                                                            
013L5020210215000819250856000006215461506000000016000CRESCENT1 CUS0049027          00600000000000                N DEDZA                                                                              
013L5020210215000270198765000000116511281700000008500CRESCENT1 CUS0058320          01200000000000                D AFRICA                                                                             
013L5020210215000025198765000000119050593200000008500CRESCENT1 CUS0057430          00400000000000                A DAVIDS                                                                             
013L5020210215001037251042000006221206080000000008500CRESCENT1 CUS0025446          00200000000000                F ROCKER                                                                             
013L5020210215000209200909000006242785419700000008500CRESCENT1 CUS0051962          00200000000000                F AHMED                                                                              
013L5020210215001002222826000006255848932600000016000CRESCENT1 CUS0024885          00600000000000                M JOOSAB                                                                             
013L5020210215000447210224000006265673972200000016000CRESCENT1 CUS0037885          00600000000000                F KHAN                                                                               
013L5020210215001182240438000006248030796900000008500CRESCENT1 CUS0028939          01200000000000                Y MOWANDI                                                                            
013L5020210215000063250537000006245635951400000008500CRESCENT1 CUS0044963          00200000000000                A KAABI                                                                              
013L5020210215000254254205000006239221555700000008500CRESCENT1 CUS0052239          00200000000000                M TOOTLA                                                                             
013L5020210215000702256055000006235777303700000006900CRESCENT1 CUS0040255          00200000000000                S DOLLEY                                                                             
013L5020210215001096250342000006206529040600000008500CRESCENT1 CUS0004735          00200000000000                S KHAN                                                                               
013L5020210215001206250205000006215476251400000008500CRESCENT1 CUS0006551          00400000000000                O TIMMS                                                                              
013L5020210215000315200910000006236506498100000008500CRESCENT1 CUS0058405          00200000000000                R STRYDOM                                                                            
013L5020210215000310198765000000119584241400000008500CRESCENT1 CUS0058398          00600000000000                M JACOBS                                                                             
013L5020210215000434198765000000192600895200000006900CRESCENT1 CUS0052990          01200000000000                Q TITIS                                                                              
013L5020210215001152222826000006242969024200000008500CRESCENT1 CUS0027798          00400000000000                S KHAN                                                                               
013L5020210215000020250655000006276719041700000008500CRESCENT1 CUS0057409          00200000000000                C NOMDOE                                                                             
013L5020210215000107252245000006211829452900000008500CRESCENT1 CUS0033261          00200000000000                I VALLEE                                                                             
013L5020210215000404198765000000110869420900000008500CRESCENT1 CUS0052901          00200000000000                G ABRAHAMS                                                                           
013L5020210215000369198765000000100474484600000008500CRESCENT1 CUS0052770          01200000000000                S WILLIAMS                                                                           
013L5020210215000561250655000006268619780900000007500CRESCENT1 CUS0017366          00200000000000                A AROYEWUN                                                                           
013L5020210215000176240139000006212533416000000008500CRESCENT1 CUS0010525          00400000000000                Y CARRIM                                                                             
013L5020210215000049203209000006231072273200000008500CRESCENT1 CUS0051290          00200000000000                A LATIEF                                                                             
013L5020210215000950250655000006273848015200000008500CRESCENT1 CUS0055952          00200000000000                S MAMDOO                                                                             
013L5020210215000601256505000006209503515300000008500CRESCENT1 CUS0017810          00200000000000                A QADER                                                                              
013L5020210215001187221325000006218582382200000008500CRESCENT1 CUS0029194          00200000000000                A SULIMAN                                                                            
013L5020210215001240198765000000115202694100000008500CRESCENT1 CUS0057207          00200000000000                Y WATERLOO                                                                           
013L5020210215000706201909000006223341656100000008500CRESCENT1 CUS0019521          01200000000000                F ISAACS JOHNSON                                                                     
013L5020210215000390198765000000113971027300000008500CRESCENT1 CUS0058690          00400000000000                A AMLAY                                                                              
013L5020210215000178198765000000102586777700000008500CRESCENT1 CUS0045441          00400000000000                Z ABADER                                                                             
013L5020210215001126252505000006243022367800000023500CRESCENT1 CUS0004940          01200000000000                A KHAN                                                                               
014L0000000750000000000000034695373792240000000072680000000000000000                                                                                                                                  
019L0000000790000000000000035337730961870000000076830000000000000000                                                                                                                                  
999L000000089                                                                                                                                                                                         
