000L2020103100000PAYPORT CONSULTING PTY LTD EFT000048307303                                                                                                                                           
010LD237000002801                                                                                                                                                                                     
011LD23763200500000040945448920120201021                                                                                                                                                              
013L5020201020000055632005000000932897363500000016000CRESCENT1 1603195657OCUS00409803092801000055                M ISMAIL                                                                             
014L0000000010000000000000000093289736350000000001600000000000000000                                                                                                                                  
019L0000000010000000000000000093289736350000000001600000000000000000                                                                                                                                  
999L000000007                                                                                                                                                                                         
