000L2021032800000PAYPORT CONSULTING PTY LTD EFT000069107303                                                                                                                                           
010LD237000016901                                                                                                                                                                                     
011LD23763200500000040945448920120210225                                                                                                                                                              
013L5020210224000221198765000000117199261000000016000CRESCENT1 CUS0057798          03000000000000                I CAROWS                                                                             
014L0000000010000000000000000011719926100000000001600000000000000000                                                                                                                                  
011LD23763200500000040945448920120210325                                                                                                                                                              
013L5020210324000351255355000006251842305900000008500CRESCENT1 CUS0055357          00400000000000                M MOHAMED                                                                            
013L5020210324000240250141000006210045984200000007500CRESCENT1 CUS0054217          00200000000000                A KHAN                                                                               
013L5020210324000476250409000006247312254800000008500CRESCENT1 CUS0047355          01200000000000                C HASSIM                                                                             
013L5020210324000677250205000005049005247600000008500CRESCENT1 CUS0002728          00200000000000                R MAYET                                                                              
013L5020210324000357256755000006221611824100000008500CRESCENT1 CUS0055366          00200000000000                Z PETRUS                                                                             
013L5020210324000291250655000006269266795300000008500CRESCENT1 CUS0054663          01200000000000                K ABRAHAMS                                                                           
013L5020210324000754198765000000118807029000000008500CRESCENT1 CUS0039569          00600000000000                G WILLIAMS                                                                           
013L5020210324000212250040000006092011505800000016000CRESCENT1 CUS0043833          00200000000000                S HENDRICKS                                                                          
013L5020210324000425203209000006237980478700000016000CRESCENT1 CUS0046761          00200000000000                F LEVY                                                                               
013L5020210324000707200410000006244157605800000008500CRESCENT1 CUS0050000          01200000000000                S SAMSON                                                                             
013L5020210324000015250655000006268610528200000008500CRESCENT1 CUS0051653          00600000000000                M ROSENBERG                                                                          
013L5020210324000619250555000006262561989800000008500CRESCENT1 CUS0049259          01200000000000                W ABRAHAMS                                                                           
013L5020210324000710250655000006277192656900000008500CRESCENT1 CUS0038708          01200000000000                S LAWRENCE                                                                           
013L5020210324000594200612000006257482867300000016000CRESCENT1 CUS0057434          01200000000000                A LATIEF                                                                             
013L5020210324000159198765000000110838962700000016000CRESCENT1 CUS0053270          01200000000000                F SALIE                                                                              
013L5020210324000833198765000000113494973100000023500CRESCENT1 CUS0007917          03000000000000                K SHAIK HOOSEN                                                                       
013L5020210324000142250141000006220525366000000008500CRESCENT1 CUS0043098          00200000000000                R BIJOUX                                                                             
013L5020210324000736250655000006275991844700000008500CRESCENT1 CUS0058309          01200000000000                S ADAMS                                                                              
013L5020210324000686254605000006235206410000000016000CRESCENT1 CUS0038365          00200000000000                N SMITH                                                                              
013L5020210324000021256205000006232810966700000008500CRESCENT1 CUS0009877          00400000000000                F TAYOB                                                                              
013L5020210324000155198765000000112360792300000008500CRESCENT1 CUS0053232          00200000000000                Y KAREEM                                                                             
013L5020210324000354198765000000108129059500000008500CRESCENT1 CUS0055365          01200000000000                F  ABRAHAMS                                                                          
013L5020210324000322198765000000101625000200000008500CRESCENT1 CUS0021674          00600000000000                S AUGUST                                                                             
013L5020210324000220250737000005528005001000000007500CRESCENT1 CUS0017307          00200000000000                R VANIA                                                                              
013L5020210324000851203209000006248048520200000008500CRESCENT1 CUS0051323          00200000000000                K ABRAHAMS                                                                           
013L5020210324000474203209000006248932195200000008500CRESCENT1 CUS0056623          01200000000000                S ABRAHAMS                                                                           
013L5020210324000554200109000006235794154300000008500CRESCENT1 CUS0048495          01200000000000                L BEDDERSON                                                                          
013L5020210324000260250537000006251549195000000008500CRESCENT1 CUS0044643          00200000000000                E NDAMASE                                                                            
013L5020210324000589211617000006225733411100000016000CRESCENT1 CUS0036019          00200000000000                M NORDIEN                                                                            
013L5020210324000493251242000006258051073500000008500CRESCENT1 CUS0033113          00200000000000                S ABDOOLA                                                                            
013L5020210324000031198765000000105324055400000007500CRESCENT1 CUS0051875          02600000000000                F ROSKIN                                                                             
013L5020210324000400198765000000113135231900000008500CRESCENT1 CUS0027187          00200000000000                H TAMBULI                                                                            
013L5020210324000530198765000000102577607000000008500CRESCENT1 CUS0048171          00200000000000                R MOHAMMED                                                                           
013L5020210324000035198765000000105165650800000008500CRESCENT1 CUS0051960          00600000000000                R MIA                                                                                
013L5020210324000703203109000006002684594700000008500CRESCENT1 CUS0049976          00200000000000                S MOHAMMED                                                                           
013L5020210324000309250455000006258912118700000008500CRESCENT1 CUS0054863          00200000000000                S ABRAHAMS                                                                           
013L5020210324000599250205000006223794006100000008500CRESCENT1 CUS0048937          01200000000000                H LUQMAN                                                                             
013L5020210324000231250141000006252659132700000008500CRESCENT1 CUS0053898          00200000000000                R MOHAMMED                                                                           
013L5020210324000823203209000006248525369600000008500CRESCENT1 CUS0051129          00200000000000                Z BEGG                                                                               
013L5020210324000058198765000000113606134700000008500CRESCENT1 CUS0042485          02600000000000                G YUSUF                                                                              
013L5020210324000441198765000000115687883700000008500CRESCENT1 CUS0056065          01200000000000                S DAVIDS                                                                             
013L5020210324000315255805000006230031837700000008500CRESCENT1 CUS0054880          00200000000000                A ABRAHAMS                                                                           
013L5020210324000407252605000006229266025800000008500CRESCENT1 CUS0046582          00400000000000                A HOOSEN                                                                             
013L5020210324000830198765000000105041710000000008500CRESCENT1 CUS0041413          00200000000000                E PARKER                                                                             
013L5020210324000767254905000006261132496400000008500CRESCENT1 CUS0050780          01200000000000                J BAKHARIA                                                                           
013L5020210324000465200607000006229308771600000008500CRESCENT1 CUS0056518          00600000000000                F AZIZ                                                                               
013L5020210324000566198765000000111086186900000008500CRESCENT1 CUS0048631          00200000000000                M MAJIET                                                                             
013L5020210324000477198765000000103248980400000008500CRESCENT1 CUS0056626          00200000000000                L HILL                                                                               
013L5020210324000670198765000000225524176500000016000CRESCENT1 CUS0038242          01200000000000                M MAJIET                                                                             
013L5020210324000379250737000006052824417600000008500CRESCENT1 CUS0026252          00400000000000                M BABOO                                                                              
013L5020210324000295255355000006236167842100000008500CRESCENT1 CUS0020772          01200000000000                S SALIE                                                                              
014L0000000510000000000000021794069022920000000049800000000000000000                                                                                                                                  
011LD23763200500000040945448920120210326                                                                                                                                                              
013L5020210325001666051001000000040204263800000008500CRESCENT1 CUS0056772          00200000000000                S ABRAHAMS                                                                           
013L5020210325003285051001000000007270459400000008500CRESCENT1 CUS0055649          00200000000000                L VALLEY                                                                             
013L5020210325000842470010000000155638954800000008500CRESCENT1 CUS0058112          00200000000000                F SWARTS                                                                             
013L5020210325002100470010000000143162697800000016000CRESCENT1 CUS0054854          00600000000000                A SAMIE                                                                              
013L5020210325002340470010000000147169201700000008500CRESCENT1 CUS0055056          00200000000000                C ROSENBURG                                                                          
013L5020210325002702470010000000148778626100000008500CRESCENT1 CUS0059127          00200000000000                U GEORGE                                                                             
013L5020210325000885470010000000163519736600000008500CRESCENT1 CUS0053665          00200000000000                F ALLIE                                                                              
013L5020210325003434051001000000007346009500000008500CRESCENT1 CUS0052912          00200000000000                S BECKETT                                                                            
013L5020210325002087051001000000031003279200000008500CRESCENT1 CUS0058749          00200000000000                A MIA                                                                                
013L5020210325002177470010000000166890462200000008500CRESCENT1 CUS0058798          00200000000000                M ADAMS                                                                              
013L5020210325001677470010000000141272098000000016000CRESCENT1 CUS0014612          00200000000000                B MOHAMMED                                                                           
013L5020210325000134470010000000164833982200000008500CRESCENT1 CUS0057763          00600000000000                M ABRAHAMS                                                                           
013L5020210325001231051001000001006446299200000008500CRESCENT1 CUS0056630          00400000000000                N SAIT                                                                               
013L5020210325000420051001000001009058729200000008500CRESCENT1 CUS0059564          00200000000000                N RICHARDS                                                                           
013L5020210325003404470010000000123481251500000008500CRESCENT1 CUS0052906          00200000000000                G ABRAHAMS                                                                           
013L5020210325001740470010000000125594644800000008500CRESCENT1 CUS0054604          00400000000000                R CASAMARIE BALL                                                                     
013L5020210325001682470010000000122306426100000008500CRESCENT1 CUS0058472          00200000000000                S ISMAIL                                                                             
013L5020210325000569051001000000027696766600000008500CRESCENT1 CUS0057955          00200000000000                N GABIER                                                                             
013L5020210325003555051001000001005153088900000008500CRESCENT1 CUS0055786          00200000000000                S ROSSOUW                                                                            
013L5020210325003226470010000000138515809100000016000CRESCENT1 CUS0057403          00400000000000                N ABRAHAMS                                                                           
013L5020210325003766470010000000140085432400000008500CRESCENT1 CUS0057667          03600000000000                A EDRIES                                                                             
013L5020210325002475470010000000136801098700000008500CRESCENT1 CUS0055107          00200000000000                K MOHAMED                                                                            
013L5020210325000221632005000000405418398700000016000CRESCENT1 CUS0017255          03492801000221                N HEND                                                                               
013L5020210325003644470010000000155894745900000016000CRESCENT1 CUS0053045          00200000000000                A BADR                                                                               
013L5020210325000554470010000000163164392200000008500CRESCENT1 CUS0057940          00200000000000                R SOLOMONS                                                                           
013L5020210325000497051001000001010823718200000008500CRESCENT1 CUS0002815          00200000000000                R NOOR-MUHAMED                                                                       
013L5020210325001598051001000000003050104000000023500CRESCENT1 CUS0007517          00400000000000                E GANI                                                                               
013L5020210325000040051001000000027112080000000016000CRESCENT1 CUS0015366          00400000000000                F SUJEE                                                                              
013L5020210325000630470010000000127633628200000008500CRESCENT1 CUS0059639          00300000000000                J VON DOORZE                                                                         
013L5020210325000612470010000000113141379000000008500CRESCENT1 CUS0053496          00200000000000                M ISAACKS                                                                            
013L5020210325000856051001000000027248755400000008500CRESCENT1 CUS0056358          00200000000000                W DAVIDS                                                                             
013L5020210325002392051001000000000225380100000008500CRESCENT1 CUS0006341          00400000000000                M AKHALWAYA                                                                          
013L5020210325000230051001000000006091092500000008500CRESCENT1 CUS0006947          00200000000000                M SAIB                                                                               
013L5020210325000992470010000000160960933400000008500CRESCENT1 CUS0058193          00200000000000                S MOHAMED                                                                            
013L5020210325001500470010000000137705605600000008500CRESCENT1 CUS0054444          00400000000000                M KHAN-GORDON                                                                        
013L5020210325001770470010000000132635995700000016000CRESCENT1 CUS0054621          00200000000000                M ABRAHAM                                                                            
013L5020210325002012470010000000144049287300000008500CRESCENT1 CUS0058681          00200000000000                F DANGOR                                                                             
013L5020210325000313470010000000131653094700000008500CRESCENT1 CUS0056048          00200000000000                R CURNOW                                                                             
013L5020210325003540470010000000158111041100000008500CRESCENT1 CUS0055783          00200000000000                A ADAMS                                                                              
013L5020210325003122470010000000172545856800000008500CRESCENT1 CUS0059302          00200000000000                I ISMAIL                                                                             
013L5020210325001516632005000000931657249500000015400CRESCENT1 CUS0056731          00292803001516                I FELIX                                                                              
013L5020210325002717678910000005101158807000000008500CRESCENT1 CUS0059147          00200000000000                H ALLIE                                                                              
013L5020210325000485051001000000022531367700000006900CRESCENT1 CUS0007033          00200000000000                C ISMAIL                                                                             
013L5020210325001226250655000007714462994700000016000CRESCENT1 CUS0012024          02600000000000                B NOOR                                                                               
013L5020210325000064250655000007711551434100000016000CRESCENT1 CUS0005442          02600000000000                E CASSIM                                                                             
013L5020210325000010250655000006705162149100000008500CRESCENT1 CUS0015359          02600000000000                A NAGDEE                                                                             
013L5020210325003016470010000000129348677700000016000CRESCENT1 CUS0057301          00200000000000                B STEER                                                                              
013L5020210325000332051001000000003305435500000008500CRESCENT1 CUS0002781          00300000000000                F TAYOB                                                                              
013L5020210325001209051001000000004174641400000008500CRESCENT1 CUS0008862          00400000000000                S BENJAMIN                                                                           
013L5020210325002133051001000000005313041300000008500CRESCENT1 CUS0000611          01200000000000                I OLGAR                                                                              
013L5020210325001244632005000000904456508500000008500CRESCENT1 CUS0017789          00292803001244                F RAJAN                                                                              
013L5020210325001965470010000000141308822600000008500CRESCENT1 CUS0054802          00200000000000                N JACOBS                                                                             
013L5020210325001920470010000000143203663500000006900CRESCENT1 CUS0054721          00200000000000                G STEGMANN                                                                           
013L5020210325002746470010000000143345500300000008500CRESCENT1 CUS0057203          03000000000000                Y ABRAHAMS                                                                           
013L5020210325003066051001000000000015204800000008500CRESCENT1 CUS0005098          00400000000000                I ESSOP                                                                              
013L5020210325000059051001000001005820933400000016000CRESCENT1 CUS0057733          00200000000000                L LOSPER                                                                             
013L5020210325000718470010000000152340656700000008500CRESCENT1 CUS0056249          00200000000000                E MONAGENG                                                                           
013L5020210325000689470010000000154892614900000016000CRESCENT1 CUS0058042          00200000000000                I KAMAAR                                                                             
013L5020210325002386470010000000141043717300000016000CRESCENT1 CUS0057083          00400000000000                M ARENDSE                                                                            
013L5020210325002416470010000000136168541500000008500CRESCENT1 CUS0057086          03000000000000                R ROMAN                                                                              
013L5020210325001060632005000000620010785200000031000CRESCENT1 CUS0010464          03492801001060                F DAVIDS                                                                             
013L5020210325003002470010000000169435580000000008500CRESCENT1 CUS0059232          00200000000000                A ALEXANDER                                                                          
013L5020210325003736470010000000160363856100000007500CRESCENT1 CUS0057653          00200000000000                B GALANT                                                                             
013L5020210325000695051001000000000030769600000008500CRESCENT1 CUS0007098          01200000000000                T BEGG                                                                               
013L5020210325001942051001000000000255084900000008500CRESCENT1 CUS0006171          00300000000000                E CAJEE                                                                              
013L5020210325003151470010000000122858810200000008500CRESCENT1 CUS0057370          00200000000000                J HORSBAN                                                                            
013L5020210325001759051001000000020422536100000008500CRESCENT1 CUS0002005          00200000000000                Z ALLY                                                                               
013L5020210325000074470010000000163728874100000008500CRESCENT1 CUS0057752          03600000000000                F JAMIE                                                                              
013L5020210325002507470010000000130611728100000008500CRESCENT1 CUS0059028          03400000000000                S HOOSAIN                                                                            
013L5020210325001936470010000000136736735000000008500CRESCENT1 CUS0056945          03600000000000                F SOLOMONS                                                                           
013L5020210325002570632005000000406344120300000008500CRESCENT1 CUS0003529          03492801002570                F CASSIEM                                                                            
013L5020210325001282051001000000001027833800000016000CRESCENT1 CUS0005892          00200000000000                K ABDUL RAHMAN                                                                       
013L5020210325002135051001000000000170459100000008500CRESCENT1 CUS0003363          00200000000000                A MUNSHI                                                                             
013L5020210325000704470010000000128880214300000008500CRESCENT1 CUS0058044          00200000000000                F ALEXANDER                                                                          
013L5020210325003452470010000000129404947800000008500CRESCENT1 CUS0059357          00200000000000                S KUMARDATTA                                                                         
013L5020210325002309051001000000027091499400000016000CRESCENT1 CUS0018204          00200000000000                F ABBASS                                                                             
013L5020210325000314470010000000117202858100000008500CRESCENT1 CUS0057801          01200000000000                L SALIE                                                                              
013L5020210325003602462005000000008240600400000008500CRESCENT1 CUS0059386          00200000000000                C SWANEPOEL                                                                          
013L5020210325002287051001000000033152949100000023500CRESCENT1 CUS0006300          01200000000000                H MOTI                                                                               
013L5020210325000811051001000000007337362100000016000CRESCENT1 CUS0056294          00600000000000                E JACOBS                                                                             
013L5020210325002882470010000000141429656600000016000CRESCENT1 CUS0059189          03000000000000                I BADARON                                                                            
013L5020210325002837470010000000147854729200000008500CRESCENT1 CUS0059180          00200000000000                N SAUL                                                                               
013L5020210325002147470010000000153706643700000008500CRESCENT1 CUS0058786          00400000000000                N SOLOMON                                                                            
013L5020210325001448470010000000152277517800000008500CRESCENT1 CUS0007445          00200000000000                F ABOO BAKER                                                                         
013L5020210325000960470010000000139408401100000016000CRESCENT1 CUS0053745          00400000000000                N PERREIRA                                                                           
013L5020210325003767051001000001012629681000000008500CRESCENT1 CUS0059407          00200000000000                Z BULBULIA                                                                           
013L5020210325002868051001000000028171784200000016000CRESCENT1 CUS0000893          01200000000000                F JADA                                                                               
013L5020210325001247470010000000128592686000000008500CRESCENT1 CUS0058258          00200000000000                Y BERA                                                                               
013L5020210325001172470010000000150269657400000006900CRESCENT1 CUS0058217          00200000000000                M KAMALDIEN                                                                          
013L5020210325000180470010000000161271138100000008500CRESCENT1 CUS0059466          00200000000000                F GAFFOOR                                                                            
013L5020210325000345470010000000161786706100000008500CRESCENT1 CUS0059527          00200000000000                I SAMUELS                                                                            
013L5020210325001847470010000000156745819800000008500CRESCENT1 CUS0058635          00200000000000                A LILLAH                                                                             
013L5020210325000045678910000005102362230300000008500CRESCENT1 CUS0059421          00200000000000                B LAUGHTON                                                                           
013L5020210325000510470010000000168496397200000008500CRESCENT1 CUS0059582          00200000000000                R MOSES                                                                              
013L5020210325001472470010000000142664211100000008500CRESCENT1 CUS0058376          00200000000000                R REGTER                                                                             
013L5020210325003451470010000000136188742500000008500CRESCENT1 CUS0057527          00200000000000                T CLAASEN                                                                            
013L5020210325002008470010000000130229830300000008500CRESCENT1 CUS0016247          00200000000000                T VAN OORDT                                                                          
013L5020210325001411051001000001009792886900000008500CRESCENT1 CUS0056701          00600000000000                S DAVIDS                                                                             
013L5020210325001621470010000000127355719900000008500CRESCENT1 CUS0056761          00200000000000                B MILLER                                                                             
013L5020210325000475051001000000025579918700000008500CRESCENT1 CUS0015551          00400000000000                F SHAH                                                                               
013L5020210325000877051001000000020242380800000008500CRESCENT1 CUS0005747          00400000000000                E BAYAT                                                                              
013L5020210325001076051001000000040127413600000008500CRESCENT1 CUS0011957          01200000000000                R HAJEE                                                                              
013L5020210325002170051001000000063447876100000008500CRESCENT1 CUS0010858          02600000000000                S SEEDAT                                                                             
013L5020210325000659470010000000144404897800000008500CRESCENT1 CUS0058016          00200000000000                N HODSON                                                                             
013L5020210325002881470010000000151845309900000008500CRESCENT1 CUS0057243          00200000000000                M TALIEP                                                                             
013L5020210325000627470010000000153868248400000008500CRESCENT1 CUS0053500          00600000000000                R CUPIDO                                                                             
013L5020210325000223470010000000163140000000000008500CRESCENT1 CUS0055988          01200000000000                F EVERTS                                                                             
013L5020210325002580470010000000150809047300000008500CRESCENT1 CUS0055143          00200000000000                Z JOSEPH                                                                             
013L5020210325003646470010000000145552803800000008500CRESCENT1 CUS0057607          00200000000000                Y BASSON                                                                             
013L5020210325002776051001000000007089780800000008500CRESCENT1 CUS0057208          00600000000000                A ABRAHAMS                                                                           
013L5020210325002654051001000000003586970400000006900CRESCENT1 CUS0018273          00200000000000                H CHOONARA                                                                           
013L5020210325003409051001000000000813716100000008500CRESCENT1 CUS0002570          01200000000000                Z SADULLA                                                                            
013L5020210325001123051001000000000913294500000008500CRESCENT1 CUS0015849          01200000000000                S HASSEN                                                                             
013L5020210325001453051001000000002280288600000008500CRESCENT1 CUS0016011          00200000000000                M SCHROEDER                                                                          
013L5020210325002611051001000000030277184000000016000CRESCENT1 CUS0057146          00200000000000                F HATIA                                                                              
013L5020210325001337470010000000114579164400000008500CRESCENT1 CUS0058267          00200000000000                A ABRAHAMS                                                                           
013L5020210325000404462005000000392438630100000008500CRESCENT1 CUS0057886          00200000000000                A CASSIEM                                                                            
013L5020210325001697470010000000142300287100000008500CRESCENT1 CUS0058475          00200000000000                W GAMBA                                                                              
013L5020210325001485470010000000149830776900000008500CRESCENT1 CUS0054397          00200000000000                S THULSIE                                                                            
013L5020210325002687470010000000149945430700000008500CRESCENT1 CUS0059082          00200000000000                A MOSES                                                                              
013L5020210325001201470010000000151496021200000008500CRESCENT1 CUS0056628          00200000000000                Z MEYER                                                                              
013L5020210325002460470010000000132815563100000008500CRESCENT1 CUS0055097          03000000000000                R REGAL                                                                              
013L5020210325001636470010000000139539213500000008500CRESCENT1 CUS0056763          00200000000000                N ABRAHAMS                                                                           
013L5020210325002641470010000000160927284400000008500CRESCENT1 CUS0057174          00400000000000                O NOLAN                                                                              
013L5020210325000645470010000000167205965600000008500CRESCENT1 CUS0059642          00200000000000                A AMOS                                                                               
013L5020210325001292470010000000165093016800000008500CRESCENT1 CUS0058262          00200000000000                S HULL                                                                               
013L5020210325000179470010000000164481386400000016000CRESCENT1 CUS0057770          00200000000000                M MOOS                                                                               
013L5020210325002468470010000000137233263200000008500CRESCENT1 CUS0007885          00200000000000                Y MOHAMED                                                                            
013L5020210325002627470010000000137958009700000006900CRESCENT1 CUS0059052          00200000000000                C ZIMBA                                                                              
013L5020210325001637470010000000131484442100000008500CRESCENT1 CUS0058464          00200000000000                N FORTUNE                                                                            
013L5020210325003691470010000000114683674900000016000CRESCENT1 CUS0057630          00200000000000                M VERMEULEN                                                                          
013L5020210325001937051001000000027176610700000008500CRESCENT1 CUS0058642          00200000000000                R ABRAHAMS                                                                           
013L5020210325000643051001000000027490250800000008500CRESCENT1 CUS0056225          00200000000000                S DEVIRES                                                                            
013L5020210325001365051001000000022120651500000008500CRESCENT1 CUS0054262          00400000000000                R EDWARDS                                                                            
013L5020210325003294051001000000022101234600000008500CRESCENT1 CUS0009705          00200000000000                L JOSEPH                                                                             
013L5020210325002401470010000000130921888700000008500CRESCENT1 CUS0057085          00200000000000                A MATHEWS                                                                            
013L5020210325001996470010000000161465686800000008500CRESCENT1 CUS0056966          00200000000000                K JAFIELDIEN                                                                         
013L5020210325001412470010000000155300556000000008500CRESCENT1 CUS0058296          00200000000000                F MATTHEWS                                                                           
013L5020210325001110470010000000155341367700000016000CRESCENT1 CUS0053922          00200000000000                I NORTON                                                                             
013L5020210325001351051001000001009299753600000008500CRESCENT1 CUS0056685          00600000000000                M JOSEPH                                                                             
013L5020210325002132470010000000126617070500000015400CRESCENT1 CUS0058774          00200000000000                A ABDURAHMAN                                                                         
013L5020210325000105470010000000124137979100000008500CRESCENT1 CUS0059434          00200000000000                S MAHOMED                                                                            
013L5020210325001499051001000000000181679900000008500CRESCENT1 CUS0017906          00200000000000                I HOOSEN                                                                             
013L5020210325002190051001000001008565753900000008500CRESCENT1 CUS0054927          00200000000000                Z RAJIE                                                                              
013L5020210325000657470010000000129846059800000008500CRESCENT1 CUS0053543          00200000000000                R ABRAHAMS                                                                           
013L5020210325000523470010000000150973379300000016000CRESCENT1 CUS0056184          00200000000000                F SOLOMON                                                                            
013L5020210325001546470010000000143576330900000008500CRESCENT1 CUS0056738          00400000000000                S SAKIELDIEN                                                                         
013L5020210325003437470010000000143251721800000008500CRESCENT1 CUS0059354          00200000000000                M FRANCIS                                                                            
013L5020210325000826470010000000134898039500000016000CRESCENT1 CUS0056300          00200000000000                S ABRAHAMS                                                                           
013L5020210325000555470010000000135029430400000008500CRESCENT1 CUS0059605          00400000000000                L BENJAMIN                                                                           
013L5020210325000176051001000000025015223100000008500CRESCENT1 CUS0017228          00200000000000                S OMAR                                                                               
013L5020210325002891051001000000025023665600000008500CRESCENT1 CUS0012946          00400000000000                F KHAN                                                                               
013L5020210325002560051001000000000542793200000008500CRESCENT1 CUS0010972          01200000000000                E DAYA                                                                               
013L5020210325002200051001000000004296841000000008500CRESCENT1 CUS0010864          00200000000000                R ARIEFDIEN                                                                          
013L5020210325002051051001000000030219979900000016000CRESCENT1 CUS0012445          00400000000000                S AMOD                                                                               
013L5020210325003719470010000000127761337900000016000CRESCENT1 CUS0053073          03000000000000                A PIETERSEN                                                                          
013L5020210325002267470010000000139498759300000008500CRESCENT1 CUS0058870          00200000000000                Q PROUTS                                                                             
013L5020210325001816051001000001011536215900000008500CRESCENT1 CUS0056820          00400000000000                C JABAAR                                                                             
013L5020210325003647470010000000149664436900000008500CRESCENT1 CUS0059392          00200000000000                I DAWOOD                                                                             
013L5020210325003842470010000000159049694700000008500CRESCENT1 CUS0059413          00200000000000                N CHOUGLAY                                                                           
013L5020210325002477632005000000931435577600000008500CRESCENT1 CUS0059025          00292803002477                M DAVIDS                                                                             
013L5020210325001024250655000007416186783100000023500CRESCENT1 CUS0001749          02600000000000                K KADER                                                                              
013L5020210325000461051001000000008059956700000006900CRESCENT1 CUS0017343          01200000000000                S HENDRICKS                                                                          
013L5020210325000636051001000000006239174700000008500CRESCENT1 CUS0008640          00400000000000                Z KHAN                                                                               
013L5020210325002026051001000000025072587800000008500CRESCENT1 CUS0056969          00200000000000                J SULEMAN                                                                            
013L5020210325001922470010000000144397510700000008500CRESCENT1 CUS0058641          00200000000000                R LE ROUX                                                                            
013L5020210325003599470010000000135720796200000008500CRESCENT1 CUS0052988          00200000000000                A WILLIAMS                                                                           
013L5020210325002011470010000000134774711500000008500CRESCENT1 CUS0056968          00400000000000                M FELES                                                                              
013L5020210325003145470010000000130294377200000008500CRESCENT1 CUS0011185          00200000000000                A BELATE                                                                             
013L5020210325001335470010000000137724793500000008500CRESCENT1 CUS0054225          00200000000000                S KHAN                                                                               
013L5020210325001652470010000000153280595900000008500CRESCENT1 CUS0058465          00200000000000                F JONES                                                                              
013L5020210325003811051001000001007193874300000008500CRESCENT1 CUS0057722          00400000000000                S RAKIEP                                                                             
013L5020210325001467051001000000000249833200000008500CRESCENT1 CUS0014532          01200000000000                S CHOONARA                                                                           
013L5020210325003024051001000000020256399500000008500CRESCENT1 CUS0009605          00600000000000                Z VALLEE                                                                             
013L5020210325001801051001000000027394934900000008500CRESCENT1 CUS0056818          00200000000000                E ABRAHAMS                                                                           
013L5020210325001187470010000000123804727900000008500CRESCENT1 CUS0058221          00200000000000                L LAKAY                                                                              
013L5020210325003020051001000000024013102900000008500CRESCENT1 CUS0003698          00200000000000                A EBRAHIM                                                                            
013L5020210325002537470010000000150810562400000008500CRESCENT1 CUS0059032          00200000000000                R GOLIATH                                                                            
013L5020210325001876470010000000133486747800000008500CRESCENT1 CUS0056913          00200000000000                L JOHNSON                                                                            
013L5020210325002086470010000000144860326700000008500CRESCENT1 CUS0056985          00200000000000                F ABDURAHMAN                                                                         
013L5020210325000465470010000000156682787400000008500CRESCENT1 CUS0059571          00200000000000                I JOHNSON                                                                            
013L5020210325001739800000000007860017269900000008500CRESCENT1 CUS0017977          01200000000000                M PATEL                                                                              
013L5020210325001512051001000000063454223000000008500CRESCENT1 CUS0014551          01200000000000                A KHADER                                                                             
013L5020210325002552410142000005112911606200000008500CRESCENT1 CUS0059034          00300000000000                J STEVEN                                                                             
013L5020210325001629051001000000007159954100000008500CRESCENT1 CUS0009039          00400000000000                Z FERNANDEZ                                                                          
013L5020210325000193470010000000146767245700000008500CRESCENT1 CUS0055983          00200000000000                T PARKER                                                                             
013L5020210325003809051001000001005433210700000008500CRESCENT1 CUS0053100          00400000000000                Y ABDURAHMAN                                                                         
013L5020210325002567410142000005110993325100000016000CRESCENT1 CUS0059037          00300000000000                C MILAMBE                                                                            
013L5020210325002492470010000000122812751200000008500CRESCENT1 CUS0059026          00200000000000                A HASSEN ALLY                                                                        
014L0000001890000000000000009079388421270000000188720000000000000000                                                                                                                                  
019L0000002410000000000000030885177370290000000240120000000000000000                                                                                                                                  
999L000000251                                                                                                                                                                                         
