000L2021021400000PAYPORT CONSULTING PTY LTD EFT000063007303                                                                                                                                           
010LD237000011808                                                                                                                                                                                     
011LD23763200500000040945448920120210127                                                                                                                                                              
013L5020210127003744198765000000104706433200000016000CRESCENT1 CUS0025242          03000000000000                I KHATIB                                                                             
014L0000000010000000000000000010470643320000000001600000000000000000                                                                                                                                  
019L0000000010000000000000000010470643320000000001600000000000000000                                                                                                                                  
999L000000007                                                                                                                                                                                         
