000L2021020600000PAYPORT CONSULTING PTY LTD EFT000062007303                                                                                                                                           
010LD237000010801                                                                                                                                                                                     
011LD23763200500000040945448920120210130                                                                                                                                                              
013L5020210129000860632005000000409641236200000008500CRESCENT1 CUS0059435          03492801000860                Y JANSON                                                                             
013L5020210129002373051001000000005433947200000008500CRESCENT1 CUS0052555          03000000000000                F SOOKDER                                                                            
014L0000000020000000000000000041507518340000000001700000000000000000                                                                                                                                  
019L0000000020000000000000000041507518340000000001700000000000000000                                                                                                                                  
010LD237000010908                                                                                                                                                                                     
011LD23763200500000040945448920120210127                                                                                                                                                              
013L5020210127000973198765000000109828942000000016000CRESCENT1 CUS0053254          03600000000000                C KAPEKELE                                                                           
013L5020210127002249051001000001009415002600000016000CRESCENT1 CUS0043879          03000000000000                M ISAACS                                                                             
013L5020210127003558470010000000121558979200000008500CRESCENT1 CUS0044834          03000000000000                V HARRY                                                                              
014L0000000030000000000000000124080292380000000004050000000000000000                                                                                                                                  
019L0000000030000000000000000124080292380000000004050000000000000000                                                                                                                                  
999L000000015                                                                                                                                                                                         
