000L2021010400000PAYPORT CONSULTING PTY LTD    000057107303                                                                                                                                           
900L000 TRANSMISSION 07303-0000042 ACCEPTED                                                                                                                                                           
900L001 ACB USER SET D237-0000046-000009 ACCEPTED                                                                                                                                                     
903L001L5063200504094544892D23700000163200504063093668100000028600210104440   PAYPORT   1609248911RARCTICA  ANDREW VESTER                 00000000000000000000                21                      
903L001L5063200504094544892D23700000225065562858113170100000028600210104440   PAYPORT   1609416606ROPECTOR  OPECTOR LTD                   00000000000000000000                21                      
903L001L5263200504094544892D23700000363200504094544892100000057200210104100000PAYPORT   CONTRAQTFPGL6QSBLKYQ                                                                                          
903L001L5063200504094544892D23700000447001001662935704100000029800210104440   OPECTORWEB1609248907OCROCKLADYWARDA KHAN                    00000000000000000000                21                      
903L001L5063200504094544892D23700000567900011184307253100000000500210104440   OPECTORWEB1609416872RJACODISCOJOACHIM PRINSLOO              00000000000000000000                21                      
903L001L5263200504094544892D23700000663200504094544892100000030300210104100000OPECTORWEBCONTRAHKMLGUYMBESBIA                                                                                          
903L001L5063200504094544892D23700000747001001222410697200000025000210104440   ABSOLIT   1609248915RTB001    TERLECHIA BEEBY               00000000000000000000                21                      
903L001L5063200504094544892D23700000847001001530980230200000025000210104440   ABSOLIT   1609248915RMAL001   ARASHAAT LAWRENCE             00000000000000000000                21                      
903L001L5263200504094544892D23700000963200504094544892100000050000210104100000ABSOLIT   CONTRA1PILMPRH1I58AH                                                                                          
999L000000013                                                                                                                                                                                         
