000L2021051600000PAYPORT CONSULTING PTY LTD EFT000076607303                                                                                                                                           
010LD237000021401                                                                                                                                                                                     
011LD23763200500000040945448920120210430                                                                                                                                                              
013L5020210429002377051001000000014455123300000016000CRESCENT1 CUS0031568          03000000000000                G MOHAMED                                                                            
013L5020210429001170250056000006205106645700000008500CRESCENT1 CUS0027481          03000000000000                Z HARPER-VALENTINE                                                                   
014L0000000020000000000000000621956176900000000002450000000000000000                                                                                                                                  
011LD23763200500000040945448920120210514                                                                                                                                                              
013L5020210513000406051001000000000168523600000008500CRESCENT1 CUS0012561          00600000000000                N MOHAMED                                                                            
013L5020210513000175470010000000148812086000000008500CRESCENT1 CUS0058325          00200000000000                M FRANCIS                                                                            
013L5020210513000605470010000000156104080900000007500CRESCENT1 CUS0059728          00600000000000                A WILLIAMS                                                                           
013L5020210513000765632005000000407981687400000016000CRESCENT1 CUS0019292          00292803000765                S LAHER                                                                              
013L5020210513000900470010000000159241630400000008500CRESCENT1 CUS0056070          00200000000000                Y ABRAHAMS                                                                           
013L5020210513000840470010000000153732417700000008500CRESCENT1 CUS0055800          00200000000000                T PALM                                                                               
013L5020210513000079470010000000134883096200000008500CRESCENT1 CUS0051269          00200000000000                Y BRAAF                                                                              
013L5020210513000710051001000000002262383300000008500CRESCENT1 CUS0039615          01800000000000                I CAJEE                                                                              
013L5020210513000615051001000000027087999400000006900CRESCENT1 CUS0059734          00200000000000                F ISMAIL                                                                             
013L5020210513000513470010000000126898482300000007500CRESCENT1 CUS0047255          00200000000000                Z HARDIEN                                                                            
013L5020210513000197051001000000031091472800000008500CRESCENT1 CUS0033257          00200000000000                F HENDRICKS                                                                          
013L5020210513000490470010000000113436565700000008500CRESCENT1 CUS0059254          00200000000000                B WILKINSON                                                                          
013L5020210513001142470010000000145335942500000008500CRESCENT1 CUS0057291          00200000000000                R ABRAHAMS FRIDIE                                                                    
013L5020210513000235470010000000141821819500000008500CRESCENT1 CUS0058614          00200000000000                F BENJAMIN                                                                           
013L5020210513000360470010000000167392258700000008500CRESCENT1 CUS0058921          00200000000000                B MNISI                                                                              
013L5020210513000219800000000007860011378400000008500CRESCENT1 CUS0051866          00200000000000                A RAHMAN                                                                             
013L5020210513000856470010000000154140651400000008500CRESCENT1 CUS0055870          00200000000000                S SINGH                                                                              
013L5020210513000494470010000000144252463200000008500CRESCENT1 CUS0053236          00200000000000                S FOKOTHO                                                                            
013L5020210513001107470010000000149371369600000016000CRESCENT1 CUS0057160          00200000000000                S PETERSEN                                                                           
013L5020210513001077470010000000135500057000000008500CRESCENT1 CUS0057027          00200000000000                F ABRAHAMS                                                                           
013L5020210513000603470010000000114391285100000008500CRESCENT1 CUS0047707          00200000000000                S ISMAIL                                                                             
013L5020210513001078051001000000020379001400000006900CRESCENT1 CUS0002844          00200000000000                A JOSEPH                                                                             
013L5020210513000413470010000000120707059700000008500CRESCENT1 CUS0046628          00200000000000                Z OSMAN                                                                              
013L5020210513001164051001000000033201480000000008500CRESCENT1 CUS0026591          00200000000000                I MOHAMED                                                                            
013L5020210513001127470010000000147777254300000008500CRESCENT1 CUS0057209          00200000000000                F CROY                                                                               
013L5020210513000105470010000000169451277900000006900CRESCENT1 CUS0058121          00600000000000                A LAKAY                                                                              
013L5020210513000680632005000000930719341800000006900CRESCENT1 CUS0059850          03492801000680                I JEFFERIES                                                                          
013L5020210513000435470010000000124575531300000008500CRESCENT1 CUS0059102          00200000000000                Z MOHAMMID                                                                           
013L5020210513000429470010000000154391287500000008500CRESCENT1 CUS0052910          00200000000000                Z HOWARD                                                                             
013L5020210513001232470010000000137688005700000008500CRESCENT1 CUS0057748          00200000000000                S JACOBS                                                                             
013L5020210513000496051001000000003017102400000016000CRESCENT1 CUS0014972          00600000000000                N ESSA                                                                               
013L5020210513000349051001000001004257205100000008500CRESCENT1 CUS0052502          00200000000000                F BEKKO                                                                              
013L5020210513000180470010000000113741808500000008500CRESCENT1 CUS0058339          00400000000000                Y DALVIE                                                                             
013L5020210513001101470010000000128744015900000008500CRESCENT1 CUS0050412          00200000000000                N DIEDERICKS                                                                         
013L5020210513000450470010000000147341585100000006900CRESCENT1 CUS0059173          00200000000000                F KAMALDIEN                                                                          
013L5020210513000720470010000000148440280200000016000CRESCENT1 CUS0055032          00400000000000                C DE VILLIERS                                                                        
013L5020210513000007470010000000149372145100000008500CRESCENT1 CUS0028464          00200000000000                F SHARZAD                                                                            
013L5020210513000030470010000000142042916500000008500CRESCENT1 CUS0057829          00200000000000                E CLOETE                                                                             
013L5020210513000780470010000000137748526700000008500CRESCENT1 CUS0055529          00200000000000                R GALIE                                                                              
013L5020210513001039470010000000153571243900000015400CRESCENT1 CUS0024434          00200000000000                J DAVIDS                                                                             
013L5020210513001179470010000000136414307900000016000CRESCENT1 CUS0026713          00200000000000                D KARIEM                                                                             
013L5020210513000354470010000000135681135100000008500CRESCENT1 CUS0052578          00400000000000                F RAHMAN                                                                             
013L5020210513001197470010000000140783045500000008500CRESCENT1 CUS0057534          00200000000000                A FELIX                                                                              
013L5020210513000155051001000000007119532700000008500CRESCENT1 CUS0058264          00400000000000                M DOLLIE                                                                             
013L5020210513000393051001000000033268040100000008500CRESCENT1 CUS0046391          01200000000000                M PAREKH                                                                             
013L5020210513000747470010000000111283907900000008500CRESCENT1 CUS0048518          00200000000000                S DE VRIES                                                                           
013L5020210513000215470010000000129325666600000008500CRESCENT1 CUS0058534          00200000000000                A ADAMS                                                                              
013L5020210513001162470010000000154195017600000008500CRESCENT1 CUS0057399          00200000000000                M HERCULES                                                                           
013L5020210513000410470010000000171201236100000008500CRESCENT1 CUS0059050          00200000000000                J MOSES                                                                              
013L5020210513000575470010000000167205965600000008500CRESCENT1 CUS0059642          00200000000000                A AMOS                                                                               
013L5020210513000620470010000000136891951900000016000CRESCENT1 CUS0059758          00200000000000                A BRINK                                                                              
013L5020210513000954470010000000123818162500000008500CRESCENT1 CUS0022845          01200000000000                T MFIHLO MAHOMMED                                                                    
013L5020210513000010470010000000128138428100000006900CRESCENT1 CUS0057751          00200000000000                M KERBELKER                                                                          
013L5020210513000685470010000000167195955600000006900CRESCENT1 CUS0059851          00200000000000                F DARIES                                                                             
013L5020210513000209470010000000155543299700000008500CRESCENT1 CUS0051829          00200000000000                F GABIER                                                                             
013L5020210513000510470010000000157440691200000008500CRESCENT1 CUS0059364          00200000000000                L CLOETE                                                                             
013L5020210513000744470010000000133870031400000008500CRESCENT1 CUS0055248          00200000000000                R KHOROMBI                                                                           
013L5020210513001072470010000000121361312200000008500CRESCENT1 CUS0057023          00200000000000                M DARRIES                                                                            
013L5020210513000868051001000000027179355400000008500CRESCENT1 CUS0055901          00400000000000                N PAULSEN                                                                            
013L5020210513001095051001000000016395093800000008500CRESCENT1 CUS0043041          00200000000000                S KIKIA                                                                              
013L5020210513000125051001000001007395951900000006900CRESCENT1 CUS0058187          00200000000000                A SAMPSON                                                                            
013L5020210513001169051001000000001240673200000008500CRESCENT1 CUS0026612          00200000000000                H CONSALVES                                                                          
013L5020210513000069470010000000129076523300000008500CRESCENT1 CUS0051242          00400000000000                G DEJONGH                                                                            
013L5020210513001088470010000000133436009800000008500CRESCENT1 CUS0002977          00200000000000                C MOOLA                                                                              
013L5020210513000130470010000000144910221000000008500CRESCENT1 CUS0058214          00200000000000                M JAFTHA                                                                             
013L5020210513000913051001000000020420963300000016000CRESCENT1 CUS0000052          00200000000000                Y SALOOJEE                                                                           
013L5020210513000505051001000001010803503200000008500CRESCENT1 CUS0059308          00200000000000                G RAYNERS                                                                            
013L5020210513000515470010000000126766867700000008500CRESCENT1 CUS0059373          00200000000000                T UYS                                                                                
013L5020210513001200051001000000007097881600000008500CRESCENT1 CUS0044022          00200000000000                I SOOPEE                                                                             
013L5020210513000584470010000000149691696200000008500CRESCENT1 CUS0053628          00200000000000                M YUNOOS                                                                             
013L5020210513000210470010000000149913312800000008500CRESCENT1 CUS0058492          00200000000000                F DE JAGER                                                                           
013L5020210513000560470010000000162839124100000008500CRESCENT1 CUS0059558          00200000000000                Z SAMUELS                                                                            
013L5020210513000044051001000001008457090100000008500CRESCENT1 CUS0051128          00200000000000                S GEORGE                                                                             
013L5020210513000036051001000000020052906400000016000CRESCENT1 CUS0005807          00200000000000                A DESAI                                                                              
013L5020210513000415470010000000115601701500000008500CRESCENT1 CUS0059071          00200000000000                A MOHLOLO                                                                            
013L5020210513000565470010000000157061571100000006900CRESCENT1 CUS0059587          00200000000000                F GENEVA                                                                             
013L5020210513000953470010000000137385299000000008500CRESCENT1 CUS0000602          00200000000000                N FISHER                                                                             
013L5020210513000059470010000000141928195800000006900CRESCENT1 CUS0051181          00200000000000                M MALICK                                                                             
013L5020210513000899800000000007860015483700000008500CRESCENT1 CUS0049352          00200000000000                E DHOOMA                                                                             
013L5020210513000667051001000000065408843800000008500CRESCENT1 CUS0039040          00200000000000                A HAKIM                                                                              
013L5020210513000700678910000005100318542700000008500CRESCENT1 CUS0059938          00200000000000                L DE VILLIERS                                                                        
013L5020210513000330678910000005100622466400000008500CRESCENT1 CUS0058877          00200000000000                N BHOOLA                                                                             
013L5020210513000760470010000000159157292200000008500CRESCENT1 CUS0055327          00200000000000                F WILLIAMS DAVIDS                                                                    
013L5020210513000480470010000000136129605200000008500CRESCENT1 CUS0059226          00200000000000                S BRAAF                                                                              
013L5020210513001215250655000007449207609400000008500CRESCENT1 CUS0044029          02600000000000                K SULEMAN                                                                            
013L5020210513001007470010000000119833001300000016000CRESCENT1 CUS0056646          00200000000000                S GANIEF                                                                             
013L5020210513001121051001000000025330857700000007500CRESCENT1 CUS0050522          01200000000000                S MASON                                                                              
013L5020210513000500470010000000139116835400000008500CRESCENT1 CUS0059297          00200000000000                M COETZEE                                                                            
013L5020210513000335470010000000160572509700000008500CRESCENT1 CUS0058880          00400000000000                S AGHERDIEN                                                                          
013L5020210513000684470010000000155520996100000008500CRESCENT1 CUS0054582          00200000000000                M VAN RHEEDE                                                                         
013L5020210513000520470010000000144449809400000008500CRESCENT1 CUS0059441          00200000000000                I CASPER                                                                             
013L5020210513000531051001000000006005108600000016000CRESCENT1 CUS0015441          00400000000000                H KHAN                                                                               
013L5020210513000724470010000000113611532100000008500CRESCENT1 CUS0055074          00400000000000                R FISHER                                                                             
013L5020210513001192470010000000136977545600000008500CRESCENT1 CUS0057507          00200000000000                A DE VRIES                                                                           
013L5020210513000555470010000000134882737600000008500CRESCENT1 CUS0059525          00200000000000                S BERHARDIEN                                                                         
013L5020210513001070470010000000141773165400000006900CRESCENT1 CUS0042721          00200000000000                J HLATYWAYO                                                                          
013L5020210513000675470010000000159699953300000006900CRESCENT1 CUS0059849          00200000000000                F SALIE                                                                              
013L5020210513000488470010000000117097791800000016000CRESCENT1 CUS0047115          00200000000000                J JOHNSON                                                                            
013L5020210513000640470010000000125417613400000008500CRESCENT1 CUS0059792          00200000000000                G SLAMMAT                                                                            
013L5020210513000380470010000000130717228600000016000CRESCENT1 CUS0058986          00200000000000                G SAMPSON                                                                            
013L5020210513000414470010000000136433203300000008500CRESCENT1 CUS0052851          00200000000000                T SMITH                                                                              
013L5020210513000085470010000000114664619200000008500CRESCENT1 CUS0058048          00400000000000                F TOEFEY                                                                             
013L5020210513000400051001000001012709813300000008500CRESCENT1 CUS0059007          00200000000000                A ROURKE                                                                             
014L0000001030000000000000005036515051420000000095020000000000000000                                                                                                                                  
019L0000001050000000000000005658471228320000000097470000000000000000                                                                                                                                  
999L000000113                                                                                                                                                                                         
