000L2021032100000PAYPORT CONSULTING PTY LTD EFT000068007303                                                                                                                                           
010LD237000016301                                                                                                                                                                                     
011LD23763200500000040945448920120210216                                                                                                                                                              
013L5020210215001074198765000000102823591700000007500CRESCENT1 CUS0050346          03200000000000                F ISAACS                                                                             
014L0000000010000000000000000010282359170000000000750000000000000000                                                                                                                                  
011LD23763200500000040945448920120210227                                                                                                                                                              
013L5020210226006034470010000000154231591100000008500CRESCENT1 CUS0044442          03400000000000                N KHAN                                                                               
014L0000000010000000000000000015423159110000000000850000000000000000                                                                                                                                  
011LD23763200500000040945448920120210316                                                                                                                                                              
013L5020210315000793250655000006272137745700000016000CRESCENT1 CUS0031332          00200000000000                E SAYED                                                                              
013L5020210315000108258605000006207346724500000016000CRESCENT1 CUS0017470          00600000000000                A KHAN                                                                               
013L5020210315000138261251000006223144679200000008500CRESCENT1 CUS0017787          00600000000000                N BAKER                                                                              
013L5020210315000570198765000000102823591700000007500CRESCENT1 CUS0050346          03200000000000                F ISAACS                                                                             
014L0000000040000000000000001880545274110000000004800000000000000000                                                                                                                                  
011LD23763200500000040945448920120210320                                                                                                                                                              
013L5020210319000192632005000000405742551600000024500CRESCENT1 CUS0020212          03492801000192                A PANKER                                                                             
013L5020210319000028632005000000407472616300000016000CRESCENT1 CUS0048054          00492802000028                G CORNELIUS                                                                          
013L5020210319000178632005000000408205618000000023500CRESCENT1 CUS0018845          00300000000178                A KARA                                                                               
013L5020210319000143632005000000916772809900000007500CRESCENT1 CUS0053489          00200016000143                Z FRADEN                                                                             
013L5020210319000171632005000000927828339400000008500CRESCENT1 CUS0054498          03092801000171                C ADONIS                                                                             
014L0000000050000000000000000306602193520000000008000000000000000000                                                                                                                                  
019L0000000110000000000000002212852985910000000014400000000000000000                                                                                                                                  
999L000000023                                                                                                                                                                                         
