000L2020110100000PAYPORT CONSULTING PTY LTD EFT000048407303                                                                                                                                           
010LD237000002901                                                                                                                                                                                     
011LD23763200500000040945448920120201021                                                                                                                                                              
013L5020201020000426210502000006208512644100000014400CRESCENT1 1603195657OCUS00370203000000000000                B RAJAAL                                                                             
014L0000000010000000000000000620851264410000000001440000000000000000                                                                                                                                  
019L0000000010000000000000000620851264410000000001440000000000000000                                                                                                                                  
999L000000007                                                                                                                                                                                         
