000L2020052000000PAYPORT CONSULTING PTY LTD EFT000031207303                                                                                                                                           
010LD237000001901                                                                                                                                                                                     
011LD23763200500000040945448920120200520                                                                                                                                                              
013L5020200519000001430000000000405859773200000000500PAYPORT   1589895002ODEANTEST002682502000001                DEAN                                                                                 
014L0000000010000000000000000040585977320000000000050000000000000000                                                                                                                                  
019L0000000010000000000000000040585977320000000000050000000000000000                                                                                                                                  
999L000000007                                                                                                                                                                                         
