000L2021030200000PAYPORT CONSULTING PTY LTD    000065407303                                                                                                                                           
900L000 TRANSMISSION 07303-0000068 ACCEPTED                                                                                                                                                           
900L001 ACB USER SET D237-0000073-000009 ACCEPTED                                                                                                                                                     
903L001L5063200504094544892D23700000105100110080493430200000025000210302440   ABSOLIT   1614334506RAJ001    ASHTON JACOBS                 00000000000000000000                21                      
903L001L5063200504094544892D23700000225065562239728150200000025000210302440   ABSOLIT   1614335401RDF001    DARRYL FRANCKE                00000000000000000000                21                      
903L001L5063200504094544892D23700000347001001526364296200000025000210302440   ABSOLIT   1614432632RRR001    RAYLENE RYAN                  00000000000000000000                21                      
903L001L5263200504094544892D23700000463200504094544892100000075000210302100000ABSOLIT   CONTRAQ0APKCUM69TYJI                                                                                          
903L001L5063200504094544892D23700000525065562425323889200000082000210302440   JAMFOX    1614432636RJFBIANCA2BIANCA JANSEN VAN RENSBURG    00000000000000000000                21                      
903L001L5063200504094544892D23700000663200504086755310100000048000210302440   JAMFOX    1614432636OJFLIENKA1DIANA VILJOEN                 00000000000000000000                21                      
903L001L5263200504094544892D23700000763200504094544892100000130000210302100000JAMFOX    CONTRA4EZSI8D7I9N2NZ                                                                                          
903L001L5063200504094544892D23700000825065562440511659100000300000210302440   PMDOPS    1614432639RWKIV201  KAONNE INVESTMENTS            00000000000000000000                21                      
903L001L5263200504094544892D23700000963200504094544892100000300000210302100000PMDOPS    CONTRAJFPQDJLJUFHGJH                                                                                          
900L001 ACB USER SET D237-0000074-000015 ACCEPTED                                                                                                                                                     
903L001L5063200504094544892D23700001025065562664881937100000041000210303350   JAMFOX    1614519021RJFANNABELKRYSTLE JONCK                 00000000000000000000                21                      
903L001L5063200504094544892D23700001119876501605102504100000069000210303350   JAMFOX    1614519021RJFEMERI13ANALDA FERREIRA               00000000000000000000                21                      
903L001L5263200504094544892D23700001263200504094544892100000110000210303100000JAMFOX    CONTRAT8PZKFPYVNPMIB                                                                                          
903L001L5063200504094544892D23700001363200504050368151100000003495210303350   PMDOPS    1614519024R111N0005 NLN ENGINEERING CC            00000000000000000000                21                      
903L001L5063200504094544892D23700001425065562210012465100000000990210303350   PMDOPS    1614519024R111O0004 S OTTO                        00000000000000000000                21                      
903L001L5263200504094544892D23700001563200504094544892100000004485210303100000PMDOPS    CONTRAY8DHBCKEAN2XLT                                                                                          
999L000000020                                                                                                                                                                                         
