000L2021050600000PAYPORT CONSULTING PTY LTD EFT000075107303                                                                                                                                           
010LD237000020501                                                                                                                                                                                     
011LD23763200500000040945448920120210331                                                                                                                                                              
013L5020210330000769198765000000113029555900000008500CRESCENT1 CUS0048732          03000000000000                B KETI                                                                               
014L0000000010000000000000000011302955590000000000850000000000000000                                                                                                                                  
011LD23763200500000040945448920120210426                                                                                                                                                              
013L5020210424000525051001000000002122070000000015400CRESCENT1 CUS0040094          03000000000000                L HANSIA                                                                             
014L0000000010000000000000000000212207000000000001540000000000000000                                                                                                                                  
011LD23763200500000040945448920120210430                                                                                                                                                              
013L5020210429002422198765000000104666545600000016000CRESCENT1 CUS0057335          00200000000000                A EDERIES                                                                            
013L5020210429001587198765000000115623118300000008500CRESCENT1 CUS0059802          00200000000000                A AHMED                                                                              
013L5020210429001785198765000000113915650000000008500CRESCENT1 CUS0056709          00200000000000                Z ABRAHAMS                                                                           
013L5020210429001806198765000000108461472300000008500CRESCENT1 CUS0022826          00200000000000                S ESSOP                                                                              
013L5020210429001440570105000001133469310000000008500CRESCENT1 CUS0028382          02600000000000                N SATHOLE                                                                            
013L5020210429000814210655000006237170238500000008500CRESCENT1 CUS0049288          03400000000000                N DREYER                                                                             
013L5020210429001737198765000000101299701400000008500CRESCENT1 CUS0041265          00200000000000                F SAMUELS                                                                            
013L5020210429002243198765000000115953655400000008500CRESCENT1 CUS0059143          00200000000000                N MILAZI                                                                             
013L5020210429000296198765000000116495846100000008500CRESCENT1 CUS0057739          00200000000000                R SAMSODIEN                                                                          
013L5020210429001155198765000000195341553900000016000CRESCENT1 CUS0055577          00200000000000                D HARDIEN                                                                            
013L5020210429000008198765000000118558345900000025000ABSOLIT   1619530230RPW001    00200000000000                PRICILLA WARREN                                                                      
013L5020210429000317198765000000120104208900000008500CRESCENT1 CUS0059368          00200000000000                E SARLIE                                                                             
013L5020210429000163632005000000931493424700000016000CRESCENT1 CUS0043475          03292801000163                N DAVIDS                                                                             
013L5020210429001776198765000000109039705400000008500CRESCENT1 CUS0056700          00200000000000                F BETHANE                                                                            
013L5020210429001380198765000000195649275500000006900CRESCENT1 CUS0028107          00200000000000                A CARRIM                                                                             
014L0000000150000000000000000981724205190000000016490000000000000000                                                                                                                                  
019L0000000170000000000000000993239367780000000018880000000000000000                                                                                                                                  
999L000000027                                                                                                                                                                                         
