000L2020050400000PAYPORT CONSULTING PTY LTD EFT000029407303                                                                                                                                           
010LD237000001601                                                                                                                                                                                     
011LD23763200500000040945448920120200505                                                                                                                                                              
013L5020200503000006004701000000112608063000000000200PAYPORT   1588510711O1056     89982504000006                CHEREEN STEENKAMP                                                                    
013L5020200503000005632005000000415859773200000000300PAYPORT   1588510711O1055     02682502000005                PAYPORT                                                                              
014L0000000020000000000000000052846783620000000000050000000000000000                                                                                                                                  
019L0000000020000000000000000052846783620000000000050000000000000000                                                                                                                                  
999L000000008                                                                                                                                                                                         
