000L2021042400000PAYPORT CONSULTING PTY LTD    000073307303                                                                                                                                           
900L000 TRANSMISSION 07303-0000094 ACCEPTED                                                                                                                                                           
900L001 ACB USER SET D237-0000100-003675 ACCEPTED                                                                                                                                                     
903L001L5063200504094544892D23700000105100100062917498100000008500210426350   CRESCENT1 CUS0019683          M RAIMAN                      00000000000000000000                21                      
903L001L5063200504094544892D23700000205100100070080216100000008500210426350   CRESCENT1 CUS0021897          S ADONIS                      00000000000000000000                21                      
903L001L5063200504094544892D23700000363200509359607386100000008500210426350   CRESCENT1 CUS0025218          F DOLLIE                      00000000000000000000                21                      
903L001L5063200504094544892D23700000425065562340700823100000008500210426350   CRESCENT1 CUS0030380          Z SEEDAT                      00000000000000000000                21                      
903L001L5063200504094544892D23700000505100100202580172100000008500210426350   CRESCENT1 CUS0033012          Z DOCRAT                      00000000000000000000                21                      
903L001L5063200504094544892D23700000625065562062514304100000008500210426350   CRESCENT1 CUS0036334          R MAHOMED                     00000000000000000000                21                      
903L001L5063200504094544892D23700000725065562099689360100000008500210426350   CRESCENT1 CUS0039387          A KHAN                        00000000000000000000                21                      
903L001L5063200504094544892D23700000825065562124635270100000008500210426350   CRESCENT1 CUS0042923          A AKOO                        00000000000000000000                21                      
903L001L5063200504094544892D23700000919876501090833164100000008500210426350   CRESCENT1 CUS0046019          M BAKER                       00000000000000000000                21                      
903L001L5063200504094544892D23700001025065562593967585100000016000210426350   CRESCENT1 CUS0049198          K HARRISON                    00000000000000000000                21                      
903L001L5063200504094544892D23700001147001001276434470200000008500210426350   CRESCENT1 CUS0051702          M KEMP                        00000000000000000000                21                      
903L001L5063200504094544892D23700001225065560014211043100000008500210426350   CRESCENT1 CUS0053994          M GARDER                      00000000000000000000                21                      
903L001L5063200504094544892D23700001347001001431985552200000008500210426350   CRESCENT1 CUS0056620          M OLIVER                      00000000000000000000                21                      
903L001L5063200504094544892D23700001447001001508054604200000008500210426350   CRESCENT1 CUS0058407          S BASSARDIEN                  00000000000000000000                21                      
903L001L5063200504094544892D23700001563200504044942513100000008500210426350   CRESCENT1 CUS0019700          F BARMANIA                    00000000000000000000                21                      
903L001L5063200504094544892D23700001625065560017430591100000008500210426350   CRESCENT1 CUS0021906          F FAKIER                      00000000000000000000                21                      
903L001L5063200504094544892D23700001719876501047064332100000016000210426350   CRESCENT1 CUS0025242          I KHATIB                      00000000000000000000                21                      
903L001L5063200504094544892D23700001805100100001520628100000008500210426350   CRESCENT1 CUS0030425          A DUKANDA                     00000000000000000000                21                      
903L001L5063200504094544892D23700001925065562250489707100000008500210426350   CRESCENT1 CUS0033021          N AHMED                       00000000000000000000                21                      
903L001L5063200504094544892D23700002005100100009085319100000008500210426350   CRESCENT1 CUS0036346          S WELMERS                     00000000000000000000                21                      
903L001L5063200504094544892D23700002105100100242991076100000016000210426350   CRESCENT1 CUS0039419          R STEYN                       00000000000000000000                21                      
903L001L5063200504094544892D23700002225065553910010635100000008500210426350   CRESCENT1 CUS0042934          C HASSIM                      00000000000000000000                21                      
903L001L5063200504094544892D23700002363200504041203968100000008500210426350   CRESCENT1 CUS0046023          R CASSIEM                     00000000000000000000                21                      
903L001L5063200504094544892D23700002463200504084304644100000008500210426350   CRESCENT1 CUS0049199          S GIERDIEN                    00000000000000000000                21                      
903L001L5063200504094544892D23700002505100100253301386100000008500210426350   CRESCENT1 CUS0051706          W NAIDOO                      00000000000000000000                21                      
903L001L5063200504094544892D23700002625065562053837020100000008500210426350   CRESCENT1 CUS0054006          N SOLOMON                     00000000000000000000                21                      
903L001L5063200504094544892D23700002719876501145443087100000008500210426350   CRESCENT1 CUS0056629          F JAMODIEN                    00000000000000000000                21                      
903L001L5063200504094544892D23700002819876501157880606100000008500210426350   CRESCENT1 CUS0058411          M ABDOL                       00000000000000000000                21                      
903L001L5063200504094544892D23700002925065553750050213100000008500210426350   CRESCENT1 CUS0019711          I BEHARDIEN                   00000000000000000000                21                      
903L001L5063200504094544892D23700003063200504065154585100000008500210426350   CRESCENT1 CUS0021928          N KHAN                        00000000000000000000                21                      
903L001L5063200504094544892D23700003125065562293354727100000016000210426350   CRESCENT1 CUS0025244          S PATEL                       00000000000000000000                21                      
903L001L5063200504094544892D23700003263200504078513829100000008500210426350   CRESCENT1 CUS0030430          N POTSANE                     00000000000000000000                21                      
903L001L5063200504094544892D23700003325065550310487711100000008500210426350   CRESCENT1 CUS0033045          E DELAIR                      00000000000000000000                21                      
903L001L5063200504094544892D23700003425065562190776967100000008500210426350   CRESCENT1 CUS0036355          S ABOOBAKER AKOONJEE          00000000000000000000                21                      
903L001L5063200504094544892D23700003519876501009758209100000008500210426350   CRESCENT1 CUS0039445          M DOLLIE                      00000000000000000000                21                      
903L001L5063200504094544892D23700003625065562371815732100000008500210426350   CRESCENT1 CUS0042938          M TAI BHAI                    00000000000000000000                21                      
903L001L5063200504094544892D23700003763200500015326654100000008500210426350   CRESCENT1 CUS0046026          F ALLY                        00000000000000000000                21                      
903L001L5063200504094544892D23700003805100100081393237100000008500210426350   CRESCENT1 CUS0049219          M ESSA                        00000000000000000000                21                      
903L001L5063200504094544892D23700003925065562517674356100000008500210426350   CRESCENT1 CUS0051707          T CORNELIUS                   00000000000000000000                21                      
903L001L5063200504094544892D23700004025065562766349560100000008500210426350   CRESCENT1 CUS0054010          S DAVIDS                      00000000000000000000                21                      
903L001L5063200504094544892D23700004125065562755318881100000008500210426350   CRESCENT1 CUS0056633          A DOLLIE                      00000000000000000000                21                      
903L001L5063200504094544892D23700004247001001488972646200000008500210426350   CRESCENT1 CUS0058413          M STEMMET                     00000000000000000000                21                      
903L001L5063200504094544892D23700004319876501330079744100000016000210426350   CRESCENT1 CUS0019715          A DESAI                       00000000000000000000                21                      
903L001L5063200504094544892D23700004425065562033565683100000007500210426350   CRESCENT1 CUS0021929          S PILLAY                      00000000000000000000                21                      
903L001L5063200504094544892D23700004505100100062657704100000023500210426350   CRESCENT1 CUS0025270          R ALLIE                       00000000000000000000                21                      
903L001L5063200504094544892D23700004663200509306914091100000008500210426350   CRESCENT1 CUS0030441          S JOUBERT                     00000000000000000000                21                      
903L001L5063200504094544892D23700004719876502975047649200000008500210426350   CRESCENT1 CUS0033048          Z MAHOMED                     00000000000000000000                21                      
903L001L5063200504094544892D23700004819876501035325381100000008500210426350   CRESCENT1 CUS0036365          Z CADER                       00000000000000000000                21                      
903L001L5063200504094544892D23700004925065560253182740100000008500210426350   CRESCENT1 CUS0039450          M AZIZ                        00000000000000000000                21                      
903L001L5063200504094544892D23700005025065560060316706100000008500210426350   CRESCENT1 CUS0042967          N ISAACS                      00000000000000000000                21                      
903L001L5063200504094544892D23700005119876501075018420100000007500210426350   CRESCENT1 CUS0046034          A SALIE                       00000000000000000000                21                      
903L001L5063200504094544892D23700005247001001438117114200000008500210426350   CRESCENT1 CUS0049226          S CHALKLEN                    00000000000000000000                21                      
903L001L5063200504094544892D23700005347001001471361258200000008500210426350   CRESCENT1 CUS0051708          Z KEMP                        00000000000000000000                21                      
903L001L5063200504094544892D23700005405100100021142009100000008500210426350   CRESCENT1 CUS0054018          M ABED                        00000000000000000000                21                      
903L001L5063200504094544892D23700005505100100073272639100000015000210426350   CRESCENT1 CUS0056637          A NOORDIEN                    00000000000000000000                21                      
903L001L5063200504094544892D23700005625065562180326649100000008500210426350   CRESCENT1 CUS0058455          A AMOS                        00000000000000000000                21                      
903L001L5063200504094544892D23700005763200504061224429100000008500210426350   CRESCENT1 CUS0019726          H ABBAS BADROODIEN            00000000000000000000                21                      
903L001L5063200504094544892D23700005825065562047902160100000008500210426350   CRESCENT1 CUS0021930          S DAYA                        00000000000000000000                21                      
903L001L5063200504094544892D23700005963200504076978043100000008500210426350   CRESCENT1 CUS0025281          N KHAN                        00000000000000000000                21                      
903L001L5063200504094544892D23700006019876501907464719100000016000210426350   CRESCENT1 CUS0030454          F KARA                        00000000000000000000                21                      
903L001L5063200504094544892D23700006163200504083774935100000008500210426350   CRESCENT1 CUS0033157          M SHABANGU                    00000000000000000000                21                      
903L001L5063200504094544892D23700006205100100023063718100000008500210426350   CRESCENT1 CUS0036369          M PETKER                      00000000000000000000                21                      
903L001L5063200504094544892D23700006305100100078042232100000008500210426350   CRESCENT1 CUS0039465          S AHMED                       00000000000000000000                21                      
903L001L5063200504094544892D23700006463200504058934255100000008500210426350   CRESCENT1 CUS0042984          S DAVIDS                      00000000000000000000                21                      
903L001L5063200504094544892D23700006525065564447779991100000008500210426350   CRESCENT1 CUS0046047          M KHAN                        00000000000000000000                21                      
903L001L5063200504094544892D23700006625065562364709562100000008500210426350   CRESCENT1 CUS0049229          N BEGG                        00000000000000000000                21                      
903L001L5063200504094544892D23700006747001001503644837200000008500210426350   CRESCENT1 CUS0051721          R BURTON                      00000000000000000000                21                      
903L001L5063200504094544892D23700006847001001537619258200000008500210426350   CRESCENT1 CUS0054043          S ISAACS                      00000000000000000000                21                      
903L001L5063200504094544892D23700006947001001418784387200000008500210426350   CRESCENT1 CUS0056662          G BENJAMIN                    00000000000000000000                21                      
903L001L5063200504094544892D23700007005100110089080988100000008500210426350   CRESCENT1 CUS0058458          N GEORGE                      00000000000000000000                21                      
903L001L5063200504094544892D23700007125065562634837746100000023500210426350   CRESCENT1 CUS0019728          A MOOLA                       00000000000000000000                21                      
903L001L5063200504094544892D23700007225065562874862363100000007500210426350   CRESCENT1 CUS0021945          Z CASSIM                      00000000000000000000                21                      
903L001L5063200504094544892D23700007325065562120798965100000008500210426350   CRESCENT1 CUS0025307          M ISMAIL                      00000000000000000000                21                      
903L001L5063200504094544892D23700007405100100051310627100000006900210426350   CRESCENT1 CUS0030465          H KAJEE                       00000000000000000000                21                      
903L001L5063200504094544892D23700007558010510011394117100000008500210426350   CRESCENT1 CUS0033161          W TAYOB                       00000000000000000000                21                      
903L001L5063200504094544892D23700007663200509175179727100000008500210426350   CRESCENT1 CUS0036410          S BROOD                       00000000000000000000                21                      
903L001L5063200504094544892D23700007705100100040045986100000016000210426350   CRESCENT1 CUS0039470          J BARTLETT                    00000000000000000000                21                      
903L001L5063200504094544892D23700007819876501956608397100000008500210426350   CRESCENT1 CUS0042998          R MOTALA                      00000000000000000000                21                      
903L001L5063200504094544892D23700007925065562297530216100000008500210426350   CRESCENT1 CUS0046060          R KARANIE                     00000000000000000000                21                      
903L001L5063200504094544892D23700008063200509072870670100000008500210426350   CRESCENT1 CUS0049233          Y MOHAMED                     00000000000000000000                21                      
903L001L5063200504094544892D23700008147001001202991589200000008500210426350   CRESCENT1 CUS0051732          N EBRAHIEM                    00000000000000000000                21                      
903L001L5063200504094544892D23700008219876501956121706100000008500210426350   CRESCENT1 CUS0054048          Z MCCULLUM                    00000000000000000000                21                      
903L001L5063200504094544892D23700008347001001511770749200000008500210426350   CRESCENT1 CUS0056675          R ALLY                        00000000000000000000                21                      
903L001L5063200504094544892D23700008447001001355702389200000006900210426350   CRESCENT1 CUS0058459          M CASSIM                      00000000000000000000                21                      
903L001L5063200504094544892D23700008563200504062023632100000008500210426350   CRESCENT1 CUS0019732          M ISMAIL SEEDAT               00000000000000000000                21                      
903L001L5063200504094544892D23700008619876501966340826100000008500210426350   CRESCENT1 CUS0021953          R EBRAHIM                     00000000000000000000                21                      
903L001L5063200504094544892D23700008719876501035388707100000008500210426350   CRESCENT1 CUS0025352          T MAHOMED                     00000000000000000000                21                      
903L001L5063200504094544892D23700008825065562384256709100000008500210426350   CRESCENT1 CUS0030492          R BHANA SEPTEMBER             00000000000000000000                21                      
903L001L5063200504094544892D23700008919876501008452122100000016000210426350   CRESCENT1 CUS0033182          J BAIG                        00000000000000000000                21                      
903L001L5063200504094544892D23700009005100100060130695100000008500210426350   CRESCENT1 CUS0036430          D GANGAT                      00000000000000000000                21                      
903L001L5063200504094544892D23700009125065562261432266100000008500210426350   CRESCENT1 CUS0039474          N GORA                        00000000000000000000                21                      
903L001L5063200504094544892D23700009263200500022424169100000008500210426350   CRESCENT1 CUS0043001          D EDWARDS                     00000000000000000000                21                      
903L001L5063200504094544892D23700009347001001177524757200000008500210426350   CRESCENT1 CUS0046067          A KHAN                        00000000000000000000                21                      
903L001L5063200504094544892D23700009425065562046720935100000008500210426350   CRESCENT1 CUS0049243          H MANSOOR                     00000000000000000000                21                      
903L001L5063200504094544892D23700009505100100070832897100000008500210426350   CRESCENT1 CUS0051735          N PATTERSON                   00000000000000000000                21                      
903L001L5063200504094544892D23700009663200500029123288100000008500210426350   CRESCENT1 CUS0054067          G OMAR                        00000000000000000000                21                      
903L001L5063200504094544892D23700009725065562569023014100000008500210426350   CRESCENT1 CUS0056677          S SMITH                       00000000000000000000                21                      
903L001L5063200504094544892D23700009805100100042971160100000008500210426350   CRESCENT1 CUS0058462          D NAICKER                     00000000000000000000                21                      
903L001L5063200504094544892D23700009963200504048993380100000008500210426350   CRESCENT1 CUS0019735          S AHMED GANY                  00000000000000000000                21                      
903L001L5063200504094544892D23700010063200509176241166100000016000210426350   CRESCENT1 CUS0021957          M TALIEP                      00000000000000000000                21                      
903L001L5063200504094544892D23700010105100100240067029100000007500210426350   CRESCENT1 CUS0025370          H JARODIEN                    00000000000000000000                21                      
903L001L5063200504094544892D23700010225065562259499351100000008500210426350   CRESCENT1 CUS0030497          F MOTARA                      00000000000000000000                21                      
903L001L5063200504094544892D23700010305100100250877910100000008500210426350   CRESCENT1 CUS0033197          N MAHOMED                     00000000000000000000                21                      
903L001L5063200504094544892D23700010425065562213155048100000008500210426350   CRESCENT1 CUS0036433          S BOWERS                      00000000000000000000                21                      
903L001L5063200504094544892D23700010505100100253190126100000016000210426350   CRESCENT1 CUS0039494          H RAZACK                      00000000000000000000                21                      
903L001L5063200504094544892D23700010625065562194181980100000008500210426350   CRESCENT1 CUS0043008          W MAHMED                      00000000000000000000                21                      
903L001L5063200504094544892D23700010725065560284171449100000008500210426350   CRESCENT1 CUS0046103          Y AMEEN                       00000000000000000000                21                      
903L001L5063200504094544892D23700010819876501956173870100000008500210426350   CRESCENT1 CUS0049244          A PAULSEN                     00000000000000000000                21                      
903L001L5063200504094544892D23700010905100100030140668100000008500210426350   CRESCENT1 CUS0051738          W FAKIR                       00000000000000000000                21                      
903L001L5063200504094544892D23700011063200501790170489100000008500210426350   CRESCENT1 CUS0054136          F SOLOMON                     00000000000000000000                21                      
903L001L5063200504094544892D23700011147001001551465432200000008500210426350   CRESCENT1 CUS0056679          N DAVID                       00000000000000000000                21                      
903L001L5063200504094544892D23700011205100100071248714100000008500210426350   CRESCENT1 CUS0058463          T HORNE                       00000000000000000000                21                      
903L001L5063200504094544892D23700011363200504092736314100000008500210426350   CRESCENT1 CUS0019744          M ANDERSON                    00000000000000000000                21                      
903L001L5063200504094544892D23700011405100100332812553100000016000210426350   CRESCENT1 CUS0021960          A RAJAP                       00000000000000000000                21                      
903L001L5063200504094544892D23700011505100100002547198100000016000210426350   CRESCENT1 CUS0025375          M TAYOB                       00000000000000000000                21                      
903L001L5063200504094544892D23700011625065560131294584100000008500210426350   CRESCENT1 CUS0030527          F KXOZA                       00000000000000000000                21                      
903L001L5063200504094544892D23700011725065562319426905100000008500210426350   CRESCENT1 CUS0033198          L ISMAIL                      00000000000000000000                21                      
903L001L5063200504094544892D23700011805100100401272133100000008500210426350   CRESCENT1 CUS0036439          S THOKAN                      00000000000000000000                21                      
903L001L5063200504094544892D23700011925065560561015518100000008500210426350   CRESCENT1 CUS0039530          Y SATAAR                      00000000000000000000                21                      
903L001L5063200504094544892D23700012005100100250478927100000008500210426350   CRESCENT1 CUS0043032          M LATIFF                      00000000000000000000                21                      
903L001L5063200504094544892D23700012105100100029168252100000008500210426350   CRESCENT1 CUS0046111          M PEER                        00000000000000000000                21                      
903L001L5063200504094544892D23700012225065562517344545100000008500210426350   CRESCENT1 CUS0049263          T MUKADAM                     00000000000000000000                21                      
903L001L5063200504094544892D23700012347001001512728118200000007500210426350   CRESCENT1 CUS0051749          A CHRISTIANS                  00000000000000000000                21                      
903L001L5063200504094544892D23700012425065562100459842100000008500210426350   CRESCENT1 CUS0054189          A KHAN                        00000000000000000000                21                      
903L001L5063200504094544892D23700012505100110092997536100000008500210426350   CRESCENT1 CUS0056685          M JOSEPH                      00000000000000000000                21                      
903L001L5063200504094544892D23700012647001001314844421200000008500210426350   CRESCENT1 CUS0058464          N FORTUNE                     00000000000000000000                21                      
903L001L5063200504094544892D23700012763200509186783694100000008500210426350   CRESCENT1 CUS0019747          T SOLOMAN                     00000000000000000000                21                      
903L001L5063200504094544892D23700012805100100300478100100000016000210426350   CRESCENT1 CUS0021989          A SAHABODIEN                  00000000000000000000                21                      
903L001L5063200504094544892D23700012905100100032989814100000008500210426350   CRESCENT1 CUS0025382          F ABOOBAKER                   00000000000000000000                21                      
903L001L5063200504094544892D23700013025065562016634041100000008500210426350   CRESCENT1 CUS0030530          F BHABHA                      00000000000000000000                21                      
903L001L5063200504094544892D23700013105100100005322766100000008500210426350   CRESCENT1 CUS0033219          A ALI                         00000000000000000000                21                      
903L001L5063200504094544892D23700013263200538181481380100000008500210426350   CRESCENT1 CUS0036442          C ISMAIL                      00000000000000000000                21                      
903L001L5063200504094544892D23700013325065562027429499100000008500210426350   CRESCENT1 CUS0039563          N DEEDAT                      00000000000000000000                21                      
903L001L5063200504094544892D23700013419876501076869351100000008500210426350   CRESCENT1 CUS0043033          S RYKLIEF                     00000000000000000000                21                      
903L001L5063200504094544892D23700013563200506202409674100000008500210426350   CRESCENT1 CUS0046131          S LEWIS                       00000000000000000000                21                      
903L001L5063200504094544892D23700013625065562346136098100000016000210426350   CRESCENT1 CUS0049314          N KAJEE                       00000000000000000000                21                      
903L001L5063200504094544892D23700013725065562840188579100000008500210426350   CRESCENT1 CUS0051756          F HENDRICKS                   00000000000000000000                21                      
903L001L5063200504094544892D23700013847001001494559488200000008500210426350   CRESCENT1 CUS0054221          T EFFENDI                     00000000000000000000                21                      
903L001L5063200504094544892D23700013947001001357690256200000008500210426350   CRESCENT1 CUS0056693          A SWARTZ                      00000000000000000000                21                      
903L001L5063200504094544892D23700014025065562795480327100000008500210426350   CRESCENT1 CUS0058467          N FORTUNE                     00000000000000000000                21                      
903L001L5063200504094544892D23700014105100100022438084100000007500210426350   CRESCENT1 CUS0019751          Y BHAM                        00000000000000000000                21                      
903L001L5063200504094544892D23700014263200504047881497100000008500210426350   CRESCENT1 CUS0022003          J KHAN                        00000000000000000000                21                      
903L001L5063200504094544892D23700014325065551080023877100000016000210426350   CRESCENT1 CUS0025388          A CASSIM                      00000000000000000000                21                      
903L001L5063200504094544892D23700014419876501174949090100000008500210426350   CRESCENT1 CUS0030531          N MOOLLA                      00000000000000000000                21                      
903L001L5063200504094544892D23700014505100100270073434100000008500210426350   CRESCENT1 CUS0033220          R GARDER                      00000000000000000000                21                      
903L001L5063200504094544892D23700014625065562289914444100000016000210426350   CRESCENT1 CUS0036473          A FYZOO                       00000000000000000000                21                      
903L001L5063200504094544892D23700014705100100008949174100000008500210426350   CRESCENT1 CUS0039572          F MIA                         00000000000000000000                21                      
903L001L5063200504094544892D23700014819876501080811591100000008500210426350   CRESCENT1 CUS0043064          H LACHMAN                     00000000000000000000                21                      
903L001L5063200504094544892D23700014925065562481544841100000008500210426350   CRESCENT1 CUS0046162          R HOOSEIN                     00000000000000000000                21                      
903L001L5063200504094544892D23700015047001001330251332200000008500210426350   CRESCENT1 CUS0049326          M EVANS                       00000000000000000000                21                      
903L001L5063200504094544892D23700015105100110140855414100000008500210426350   CRESCENT1 CUS0051758          H ABRAHAMS                    00000000000000000000                21                      
903L001L5063200504094544892D23700015247001001377247935200000008500210426350   CRESCENT1 CUS0054225          S KHAN                        00000000000000000000                21                      
903L001L5063200504094544892D23700015305100100202399508100000008500210426350   CRESCENT1 CUS0056696          A DAVIS                       00000000000000000000                21                      
903L001L5063200504094544892D23700015405100100624236978100000008500210426350   CRESCENT1 CUS0058471          N DUTOIT                      00000000000000000000                21                      
903L001L5063200504094544892D23700015525065562084148511100000008500210426350   CRESCENT1 CUS0019752          A PATEL                       00000000000000000000                21                      
903L001L5063200504094544892D23700015619876501077215622100000016000210426350   CRESCENT1 CUS0022017          S SNYDERS                     00000000000000000000                21                      
903L001L5063200504094544892D23700015719876501955100683100000008500210426350   CRESCENT1 CUS0025405          M RICHARDS                    00000000000000000000                21                      
903L001L5063200504094544892D23700015863200504088949024100000008500210426350   CRESCENT1 CUS0030532          R HOSAIN                      00000000000000000000                21                      
903L001L5063200504094544892D23700015963200509219483870100000008500210426350   CRESCENT1 CUS0033224          H AHMED                       00000000000000000000                21                      
903L001L5063200504094544892D23700016019876502486051147200000016000210426350   CRESCENT1 CUS0036475          H MOHAMED                     00000000000000000000                21                      
903L001L5063200504094544892D23700016163200504085621500100000008500210426350   CRESCENT1 CUS0039576          M JOGEE                       00000000000000000000                21                      
903L001L5063200504094544892D23700016205100100004404955100000008500210426350   CRESCENT1 CUS0043069          F FARRED                      00000000000000000000                21                      
903L001L5063200504094544892D23700016325065550449011473100000008500210426350   CRESCENT1 CUS0046173          Z DELATE                      00000000000000000000                21                      
903L001L5063200504094544892D23700016425065562365437378100000008500210426350   CRESCENT1 CUS0049333          D RHODA                       00000000000000000000                21                      
903L001L5063200504094544892D23700016505100100073278823100000008500210426350   CRESCENT1 CUS0051774          A MEIRING                     00000000000000000000                21                      
903L001L5063200504094544892D23700016605100100070918902100000008500210426350   CRESCENT1 CUS0054226          S CHOTIA                      00000000000000000000                21                      
903L001L5063200504094544892D23700016705100110097928869100000008500210426350   CRESCENT1 CUS0056701          S DAVIDS                      00000000000000000000                21                      
903L001L5063200504094544892D23700016847001001223064261200000008500210426350   CRESCENT1 CUS0058472          S ISMAIL                      00000000000000000000                21                      
903L001L5063200504094544892D23700016905100100079015956100000016000210426350   CRESCENT1 CUS0019761          A SULAIMAN                    00000000000000000000                21                      
903L001L5063200504094544892D23700017005100100137910797100000008500210426350   CRESCENT1 CUS0022019          M MANSOOR                     00000000000000000000                21                      
903L001L5063200504094544892D23700017158010510011231095100000008500210426350   CRESCENT1 CUS0025442          K FAZEL                       00000000000000000000                21                      
903L001L5063200504094544892D23700017205100100331318075100000008500210426350   CRESCENT1 CUS0030536          C EBRAHIM                     00000000000000000000                21                      
903L001L5063200504094544892D23700017319876501037422252100000008500210426350   CRESCENT1 CUS0033245          T TAVARES                     00000000000000000000                21                      
903L001L5063200504094544892D23700017419876501924295849100000008500210426350   CRESCENT1 CUS0036482          M KARANI                      00000000000000000000                21                      
903L001L5063200504094544892D23700017525065562057253545100000008500210426350   CRESCENT1 CUS0039584          K GANI                        00000000000000000000                21                      
903L001L5063200504094544892D23700017605100100220267863100000008500210426350   CRESCENT1 CUS0043075          A BISMIILA                    00000000000000000000                21                      
903L001L5063200504094544892D23700017705100100001710613100000008500210426350   CRESCENT1 CUS0046243          R SEEDAT                      00000000000000000000                21                      
903L001L5063200504094544892D23700017863200504054739794100000008500210426350   CRESCENT1 CUS0049339          C DE WIT                      00000000000000000000                21                      
903L001L5063200504094544892D23700017947001001289431017200000016000210426350   CRESCENT1 CUS0051778          A ISHMIL                      00000000000000000000                21                      
903L001L5063200504094544892D23700018025065562241329243100000008500210426350   CRESCENT1 CUS0054266          F EMJEDI                      00000000000000000000                21                      
903L001L5063200504094544892D23700018119876501053602901100000008500210426350   CRESCENT1 CUS0056704          G MONTIERE                    00000000000000000000                21                      
903L001L5063200504094544892D23700018247001001154343225200000008500210426350   CRESCENT1 CUS0058526          F ISAACS                      00000000000000000000                21                      
903L001L5063200504094544892D23700018319876501009551019100000008500210426350   CRESCENT1 CUS0019762          W MARTIN                      00000000000000000000                21                      
903L001L5063200504094544892D23700018425065562322878789100000008500210426350   CRESCENT1 CUS0022029          S SHAIKH                      00000000000000000000                21                      
903L001L5063200504094544892D23700018563200504071464059100000008500210426350   CRESCENT1 CUS0025445          H LALOO-JANOO                 00000000000000000000                21                      
903L001L5063200504094544892D23700018647001001243021053200000008500210426350   CRESCENT1 CUS0030540          D WALLJEE                     00000000000000000000                21                      
903L001L5063200504094544892D23700018725065562057284467100000008500210426350   CRESCENT1 CUS0033246          S HENDRICKS                   00000000000000000000                21                      
903L001L5063200504094544892D23700018825065562067503865100000008500210426350   CRESCENT1 CUS0036483          A BANIEN                      00000000000000000000                21                      
903L001L5063200504094544892D23700018905100100021993769100000008500210426350   CRESCENT1 CUS0039614          R SULUMAN                     00000000000000000000                21                      
903L001L5063200504094544892D23700019005100100030105528100000008500210426350   CRESCENT1 CUS0043084          N ANVER                       00000000000000000000                21                      
903L001L5063200504094544892D23700019180000078600009788200000008500210426350   CRESCENT1 CUS0046257          Z ABDULLAH                    00000000000000000000                21                      
903L001L5063200504094544892D23700019205100110099361416100000008500210426350   CRESCENT1 CUS0049340          Z JAPPIE                      00000000000000000000                21                      
903L001L5063200504094544892D23700019325065562244721884100000008500210426350   CRESCENT1 CUS0051786          N DAWOOD                      00000000000000000000                21                      
903L001L5063200504094544892D23700019425065562395129367100000016000210426350   CRESCENT1 CUS0054270          H FINCH                       00000000000000000000                21                      
903L001L5063200504094544892D23700019519876501063972272100000008500210426350   CRESCENT1 CUS0056705          N HASSAB                      00000000000000000000                21                      
903L001L5063200504094544892D23700019619876501026484480100000016000210426350   CRESCENT1 CUS0058528          S NOORDIEN                    00000000000000000000                21                      
903L001L5063200504094544892D23700019705100100072907207100000008500210426350   CRESCENT1 CUS0019765          G MAJIED                      00000000000000000000                21                      
903L001L5063200504094544892D23700019863200504066036409100000008500210426350   CRESCENT1 CUS0022032          S VARIYAWA                    00000000000000000000                21                      
903L001L5063200504094544892D23700019905100100003443485100000008500210426350   CRESCENT1 CUS0025447          S HUSSEIN                     00000000000000000000                21                      
903L001L5063200504094544892D23700020063200504056440422100000008500210426350   CRESCENT1 CUS0030551          H KARREEM                     00000000000000000000                21                      
903L001L5063200504094544892D23700020147001001378293868200000022900210426350   CRESCENT1 CUS0033252          G SAFFODIEN                   00000000000000000000                21                      
903L001L5063200504094544892D23700020205100100002530813100000008500210426350   CRESCENT1 CUS0036500          M AHMED                       00000000000000000000                21                      
903L001L5063200504094544892D23700020305100100012706965100000016000210426350   CRESCENT1 CUS0039620          A ABDOOL AZIZ                 00000000000000000000                21                      
903L001L5063200504094544892D23700020425065551669005535100000007500210426350   CRESCENT1 CUS0043111          A ASMAL                       00000000000000000000                21                      
903L001L5063200504094544892D23700020525065562397908868100000015000210426350   CRESCENT1 CUS0046298          I MEYER                       00000000000000000000                21                      
903L001L5063200504094544892D23700020663200504087272482100000008500210426350   CRESCENT1 CUS0049348          H COYLIN                      00000000000000000000                21                      
903L001L5063200504094544892D23700020719876501151312134100000008500210426350   CRESCENT1 CUS0051809          I SOLOMONS                    00000000000000000000                21                      
903L001L5063200504094544892D23700020847001001436679425200000008500210426350   CRESCENT1 CUS0054278          R VAN DIEMAN                  00000000000000000000                21                      
903L001L5063200504094544892D23700020925065562772318822100000008500210426350   CRESCENT1 CUS0056706          T NHLAPO                      00000000000000000000                21                      
903L001L5063200504094544892D23700021025065562429174262100000008500210426350   CRESCENT1 CUS0058531          F MOOLA                       00000000000000000000                21                      
903L001L5063200504094544892D23700021119876501372110690100000008500210426350   CRESCENT1 CUS0019767          J ESSA                        00000000000000000000                21                      
903L001L5063200504094544892D23700021263200504071172313100000008500210426350   CRESCENT1 CUS0022034          F KHARWA                      00000000000000000000                21                      
903L001L5063200504094544892D23700021319876501955136254100000008500210426350   CRESCENT1 CUS0025452          S JARDINE                     00000000000000000000                21                      
903L001L5063200504094544892D23700021405100100080460720100000016000210426350   CRESCENT1 CUS0030554          E VAN VUGHT                   00000000000000000000                21                      
903L001L5063200504094544892D23700021525065562118294529100000008500210426350   CRESCENT1 CUS0033261          I VALLEE                      00000000000000000000                21                      
903L001L5063200504094544892D23700021605100100000892092100000008500210426350   CRESCENT1 CUS0036529          S PATEL                       00000000000000000000                21                      
903L001L5063200504094544892D23700021763200504095016951100000008500210426350   CRESCENT1 CUS0039658          M ISMAIL                      00000000000000000000                21                      
903L001L5063200504094544892D23700021825065562192596305100000008500210426350   CRESCENT1 CUS0043127          J ALLAWOODEEN                 00000000000000000000                21                      
903L001L5063200504094544892D23700021925065562484694403100000016000210426350   CRESCENT1 CUS0046300          M BHYAT                       00000000000000000000                21                      
903L001L5063200504094544892D23700022005100100658167456100000016000210426350   CRESCENT1 CUS0049351          I LESLIE                      00000000000000000000                21                      
903L001L5063200504094544892D23700022147001001277061996200000008500210426350   CRESCENT1 CUS0051814          Y CASSIM                      00000000000000000000                21                      
903L001L5063200504094544892D23700022225065562194253292100000016000210426350   CRESCENT1 CUS0054293          S WILSON                      00000000000000000000                21                      
903L001L5063200504094544892D23700022305100100020603266100000008500210426350   CRESCENT1 CUS0056707          S ARABIE                      00000000000000000000                21                      
903L001L5063200504094544892D23700022447001001560981030200000008500210426350   CRESCENT1 CUS0058538          S KANNEMEYER                  00000000000000000000                21                      
903L001L5063200504094544892D23700022525065562031079842100000008500210426350   CRESCENT1 CUS0019773          S HOOSAIN                     00000000000000000000                21                      
903L001L5063200504094544892D23700022625065562112059367100000007500210426350   CRESCENT1 CUS0022042          S CASSIM                      00000000000000000000                21                      
903L001L5063200504094544892D23700022725065554939017454100000008500210426350   CRESCENT1 CUS0025485          S PATEL                       00000000000000000000                21                      
903L001L5063200504094544892D23700022825065562292525618100000008500210426350   CRESCENT1 CUS0030562          O AHMED BAKER                 00000000000000000000                21                      
903L001L5063200504094544892D23700022919876501337151270100000016000210426350   CRESCENT1 CUS0033270          A SHERIFF                     00000000000000000000                21                      
903L001L5063200504094544892D23700023019876501968350098100000016000210426350   CRESCENT1 CUS0036535          S MATHER                      00000000000000000000                21                      
903L001L5063200504094544892D23700023119876501010071270100000016000210426350   CRESCENT1 CUS0039705          F JACOBS                      00000000000000000000                21                      
903L001L5063200504094544892D23700023205100100062026836100000016000210426350   CRESCENT1 CUS0043149          M BADROODEEN                  00000000000000000000                21                      
903L001L5063200504094544892D23700023347001001157191566200000008500210426350   CRESCENT1 CUS0046348          J DAVIDS                      00000000000000000000                21                      
903L001L5063200504094544892D23700023463200509303950525100000016000210426350   CRESCENT1 CUS0049361          F ABADER                      00000000000000000000                21                      
903L001L5063200504094544892D23700023563200509224555080100000008500210426350   CRESCENT1 CUS0051816          Y DEVINE                      00000000000000000000                21                      
903L001L5063200504094544892D23700023619876501110996942100000008500210426350   CRESCENT1 CUS0054366          S ALEXANDER                   00000000000000000000                21                      
903L001L5063200504094544892D23700023719876501106881702100000008500210426350   CRESCENT1 CUS0056722          F BAILEY                      00000000000000000000                21                      
903L001L5063200504094544892D23700023805100100070767262100000008500210426350   CRESCENT1 CUS0058550          M MILLER                      00000000000000000000                21                      
903L001L5063200504094544892D23700023905100100011444053100000008500210426350   CRESCENT1 CUS0019777          M GANI                        00000000000000000000                21                      
903L001L5063200504094544892D23700024063200509090707039100000008500210426350   CRESCENT1 CUS0022061          F DARSOT                      00000000000000000000                21                      
903L001L5063200504094544892D23700024163200500711325859100000008500210426350   CRESCENT1 CUS0025496          A VAN NIEKERK                 00000000000000000000                21                      
903L001L5063200504094544892D23700024219876501012079104100000008500210426350   CRESCENT1 CUS0030575          S MUHAMMAD-SALIM              00000000000000000000                21                      
903L001L5063200504094544892D23700024363200509226902558100000007500210426350   CRESCENT1 CUS0033271          M VARACHIA                    00000000000000000000                21                      
903L001L5063200504094544892D23700024463200504068808882100000008500210426350   CRESCENT1 CUS0036538          S ABOOBAKER                   00000000000000000000                21                      
903L001L5063200504094544892D23700024519876502828009580200000008500210426350   CRESCENT1 CUS0039756          N MOOSA                       00000000000000000000                21                      
903L001L5063200504094544892D23700024625065551270023877100000008500210426350   CRESCENT1 CUS0043170          M SHAIK                       00000000000000000000                21                      
903L001L5063200504094544892D23700024725065562071767100100000016000210426350   CRESCENT1 CUS0046349          F FREDERICKS                  00000000000000000000                21                      
903L001L5063200504094544892D23700024825065562200278506100000008500210426350   CRESCENT1 CUS0049367          S JURGENS                     00000000000000000000                21                      
903L001L5063200504094544892D23700024905100100072483482100000008500210426350   CRESCENT1 CUS0051818          R NAZIER                      00000000000000000000                21                      
903L001L5063200504094544892D23700025063200509104184341100000008500210426350   CRESCENT1 CUS0054371          M SLAMDIN                     00000000000000000000                21                      
903L001L5063200504094544892D23700025125065562694733116100000008500210426350   CRESCENT1 CUS0056723          A DAVIDS                      00000000000000000000                21                      
903L001L5063200504094544892D23700025247001001608754845200000008500210426350   CRESCENT1 CUS0058557          S SAIB                        00000000000000000000                21                      
903L001L5063200504094544892D23700025325065562012861888100000016000210426350   CRESCENT1 CUS0019788          A MAYAT                       00000000000000000000                21                      
903L001L5063200504094544892D23700025405100100009042792100000008500210426350   CRESCENT1 CUS0022080          A MAYER                       00000000000000000000                21                      
903L001L5063200504094544892D23700025525065562059954539100000016000210426350   CRESCENT1 CUS0025596          M SALIM MOHAMED               00000000000000000000                21                      
903L001L5063200504094544892D23700025625065562107891089100000008500210426350   CRESCENT1 CUS0030590          N RAWAT                       00000000000000000000                21                      
903L001L5063200504094544892D23700025719876501979249520100000016000210426350   CRESCENT1 CUS0033274          M DANGAR                      00000000000000000000                21                      
903L001L5063200504094544892D23700025805100100401041603100000015000210426350   CRESCENT1 CUS0036550          M KHAN                        00000000000000000000                21                      
903L001L5063200504094544892D23700025925065562164282354100000023500210426350   CRESCENT1 CUS0039769          L FAKI                        00000000000000000000                21                      
903L001L5063200504094544892D23700026025065562320446695100000016000210426350   CRESCENT1 CUS0043171          S KOKATAY                     00000000000000000000                21                      
903L001L5063200504094544892D23700026180000001332454419200000008500210426350   CRESCENT1 CUS0046383          S SEEDAT                      00000000000000000000                21                      
903L001L5063200504094544892D23700026263200504056669816100000008500210426350   CRESCENT1 CUS0049371          S GALLIEM                     00000000000000000000                21                      
903L001L5063200504094544892D23700026305100110115464164100000008500210426350   CRESCENT1 CUS0051826          I MARTIN                      00000000000000000000                21                      
903L001L5063200504094544892D23700026425065560060499502100000008500210426350   CRESCENT1 CUS0054386          Y MEHTOR                      00000000000000000000                21                      
903L001L5063200504094544892D23700026563200504052779176100000008500210426350   CRESCENT1 CUS0056733          M WELMERS                     00000000000000000000                21                      
903L001L5063200504094544892D23700026663200509050705904100000008500210426350   CRESCENT1 CUS0058626          M ISAACS                      00000000000000000000                21                      
903L001L5063200504094544892D23700026725065562116658355100000008500210426350   CRESCENT1 CUS0019796          F CASSIM                      00000000000000000000                21                      
903L001L5063200504094544892D23700026825065553359007863100000008500210426350   CRESCENT1 CUS0022082          B MANOOR MOHAMED              00000000000000000000                21                      
903L001L5063200504094544892D23700026905100100001547267100000008500210426350   CRESCENT1 CUS0025611          Y PATEL                       00000000000000000000                21                      
903L001L5063200504094544892D23700027005100100052601277100000008500210426350   CRESCENT1 CUS0030591          A KHAN                        00000000000000000000                21                      
903L001L5063200504094544892D23700027105100100070432945100000008500210426350   CRESCENT1 CUS0033284          S PARKER                      00000000000000000000                21                      
903L001L5063200504094544892D23700027205100100200692216100000007500210426350   CRESCENT1 CUS0036562          B IBRAHIM                     00000000000000000000                21                      
903L001L5063200504094544892D23700027325065562338296826100000008500210426350   CRESCENT1 CUS0039775          Y  KHAN                       00000000000000000000                21                      
903L001L5063200504094544892D23700027425065562013719664100000008500210426350   CRESCENT1 CUS0043176          N CARELSE                     00000000000000000000                21                      
903L001L5063200504094544892D23700027525065562325908145100000008500210426350   CRESCENT1 CUS0046409          S KHAN                        00000000000000000000                21                      
903L001L5063200504094544892D23700027605100110064513198100000008500210426350   CRESCENT1 CUS0049391          A DAVIDS                      00000000000000000000                21                      
903L001L5063200504094544892D23700027705100100422282995100000008500210426350   CRESCENT1 CUS0051840          R PHILLIPS                    00000000000000000000                21                      
903L001L5063200504094544892D23700027847001001498307769200000008500210426350   CRESCENT1 CUS0054397          S THULSIE                     00000000000000000000                21                      
903L001L5063200504094544892D23700027947001001435763309200000008500210426350   CRESCENT1 CUS0056738          S SAKIELDIEN                  00000000000000000000                21                      
903L001L5063200504094544892D23700028063200504062985981100000008500210426350   CRESCENT1 CUS0058634          T DAVIDS                      00000000000000000000                21                      
903L001L5063200504094544892D23700028125065562449617094100000008500210426350   CRESCENT1 CUS0019800          F OMAR                        00000000000000000000                21                      
903L001L5063200504094544892D23700028219876501002278953100000008500210426350   CRESCENT1 CUS0022119          A HUSSEIN-EL-KOUT             00000000000000000000                21                      
903L001L5063200504094544892D23700028363200509091079974100000008500210426350   CRESCENT1 CUS0025624          E ADAMS                       00000000000000000000                21                      
903L001L5063200504094544892D23700028405100100020646186100000008500210426350   CRESCENT1 CUS0030592          M SULTAN BEG                  00000000000000000000                21                      
903L001L5063200504094544892D23700028505100110036536316100000008500210426350   CRESCENT1 CUS0033293          A VAWDA                       00000000000000000000                21                      
903L001L5063200504094544892D23700028619876501953434886100000008500210426350   CRESCENT1 CUS0036567          A TIMOL                       00000000000000000000                21                      
903L001L5063200504094544892D23700028705100100060152109100000008500210426350   CRESCENT1 CUS0039781          Z PARAK                       00000000000000000000                21                      
903L001L5063200504094544892D23700028805100100002553821100000008500210426350   CRESCENT1 CUS0043177          M KAROLIA                     00000000000000000000                21                      
903L001L5063200504094544892D23700028925065555021137192100000008500210426350   CRESCENT1 CUS0046431          A SAYED                       00000000000000000000                21                      
903L001L5063200504094544892D23700029005100100302628460100000008500210426350   CRESCENT1 CUS0049403          Y MAHOMED                     00000000000000000000                21                      
903L001L5063200504094544892D23700029125065562078547761100000008500210426350   CRESCENT1 CUS0051845          S ABBAS                       00000000000000000000                21                      
903L001L5063200504094544892D23700029247001001377056056200000008500210426350   CRESCENT1 CUS0054444          M KHAN-GORDON                 00000000000000000000                21                      
903L001L5063200504094544892D23700029347001001599680147200000008500210426350   CRESCENT1 CUS0056748          A KAKA                        00000000000000000000                21                      
903L001L5063200504094544892D23700029447001001567458198200000008500210426350   CRESCENT1 CUS0058635          A LILLAH                      00000000000000000000                21                      
903L001L5063200504094544892D23700029563200500129725397100000008500210426350   CRESCENT1 CUS0019801          F LAWRENCE                    00000000000000000000                21                      
903L001L5063200504094544892D23700029625065562080310619100000008500210426350   CRESCENT1 CUS0022121          C MANSOOR                     00000000000000000000                21                      
903L001L5063200504094544892D23700029725065562119506866100000008500210426350   CRESCENT1 CUS0025646          O POONJANI                    00000000000000000000                21                      
903L001L5063200504094544892D23700029805100100063343789100000008500210426350   CRESCENT1 CUS0030604          T HOOSEN                      00000000000000000000                21                      
903L001L5063200504094544892D23700029919876501956741348100000008500210426350   CRESCENT1 CUS0033296          Z LOKHAT                      00000000000000000000                21                      
903L001L5063200504094544892D23700030025065562391850809100000008500210426350   CRESCENT1 CUS0036579          A AWALDIEN                    00000000000000000000                21                      
903L001L5063200504094544892D23700030105100110094437791100000008500210426350   CRESCENT1 CUS0039854          A JOOSUB                      00000000000000000000                21                      
903L001L5063200504094544892D23700030205100100310933927100000008500210426350   CRESCENT1 CUS0043182          F EDWARDS                     00000000000000000000                21                      
903L001L5063200504094544892D23700030347001001395316773200000008500210426350   CRESCENT1 CUS0046440          M LIMALIA                     00000000000000000000                21                      
903L001L5063200504094544892D23700030463200509045973768100000008500210426350   CRESCENT1 CUS0049406          S BENJAMIN                    00000000000000000000                21                      
903L001L5063200504094544892D23700030563200504078283549100000008500210426350   CRESCENT1 CUS0051848          N MAJIET                      00000000000000000000                21                      
903L001L5063200504094544892D23700030647001001171127454200000008500210426350   CRESCENT1 CUS0054448          N GANIEF                      00000000000000000000                21                      
903L001L5063200504094544892D23700030705100100070322023100000008500210426350   CRESCENT1 CUS0056751          T WAGGIE                      00000000000000000000                21                      
903L001L5063200504094544892D23700030847001001234552386200000008500210426350   CRESCENT1 CUS0058636          L PARKER                      00000000000000000000                21                      
903L001L5063200504094544892D23700030905100100401272087100000008500210426350   CRESCENT1 CUS0019804          H MOOSA RANGILA               00000000000000000000                21                      
903L001L5063200504094544892D23700031019876501138921408100000016000210426350   CRESCENT1 CUS0022122          J MOSES                       00000000000000000000                21                      
903L001L5063200504094544892D23700031105100100302300082100000008500210426350   CRESCENT1 CUS0025672          K HOOSAIN                     00000000000000000000                21                      
903L001L5063200504094544892D23700031247001001542316918200000016000210426350   CRESCENT1 CUS0030612          R VAHED                       00000000000000000000                21                      
903L001L5063200504094544892D23700031319876501047031973100000008500210426350   CRESCENT1 CUS0033298          R EBRAHIM                     00000000000000000000                21                      
903L001L5063200504094544892D23700031463200504051570795100000008500210426350   CRESCENT1 CUS0036606          A KARIM                       00000000000000000000                21                      
903L001L5063200504094544892D23700031519876501008624985100000008500210426350   CRESCENT1 CUS0039894          E MAHAMED                     00000000000000000000                21                      
903L001L5063200504094544892D23700031680000078600047540200000008500210426350   CRESCENT1 CUS0043194          H ABOO                        00000000000000000000                21                      
903L001L5063200504094544892D23700031719876502253020109200000008500210426350   CRESCENT1 CUS0046447          M FARRATH                     00000000000000000000                21                      
903L001L5063200504094544892D23700031825065562601922546100000008500210426350   CRESCENT1 CUS0049420          B MAKER                       00000000000000000000                21                      
903L001L5063200504094544892D23700031963200538054211896100000008500210426350   CRESCENT1 CUS0051849          L ABRAHAMS                    00000000000000000000                21                      
903L001L5063200504094544892D23700032005100100020587058100000008500210426350   CRESCENT1 CUS0054450          P CALISTO                     00000000000000000000                21                      
903L001L5063200504094544892D23700032147001001462791229200000008500210426350   CRESCENT1 CUS0056752          S SELDON                      00000000000000000000                21                      
903L001L5063200504094544892D23700032247001001506317306200000008500210426350   CRESCENT1 CUS0058637          N ABDULLAH                    00000000000000000000                21                      
903L001L5063200504094544892D23700032319876501651349347100000016000210426350   CRESCENT1 CUS0019810          N MOOSA                       00000000000000000000                21                      
903L001L5063200504094544892D23700032419876501089456867100000016000210426350   CRESCENT1 CUS0022124          C MOSES                       00000000000000000000                21                      
903L001L5063200504094544892D23700032563200501060821891100000007500210426350   CRESCENT1 CUS0025674          M KAMALDIEN                   00000000000000000000                21                      
903L001L5063200504094544892D23700032625065562105398095100000008500210426350   CRESCENT1 CUS0030627          M RAHIMAN                     00000000000000000000                21                      
903L001L5063200504094544892D23700032725065562048341292100000008500210426350   CRESCENT1 CUS0033319          A BHAMJEE                     00000000000000000000                21                      
903L001L5063200504094544892D23700032825065562087994292100000008500210426350   CRESCENT1 CUS0036625          I LIMBADA                     00000000000000000000                21                      
903L001L5063200504094544892D23700032925065562288925301100000016000210426350   CRESCENT1 CUS0039940          B SALOOJEE                    00000000000000000000                21                      
903L001L5063200504094544892D23700033047001001375749054200000008500210426350   CRESCENT1 CUS0043203          S GANIEF                      00000000000000000000                21                      
903L001L5063200504094544892D23700033125065562097178795100000008500210426350   CRESCENT1 CUS0046471          R VAWDA                       00000000000000000000                21                      
903L001L5063200504094544892D23700033205100100002752395100000008500210426350   CRESCENT1 CUS0049423          B MAHOMED                     00000000000000000000                21                      
903L001L5063200504094544892D23700033305100100073050350100000008500210426350   CRESCENT1 CUS0051852          Z GOVIND                      00000000000000000000                21                      
903L001L5063200504094544892D23700033419876501595041931100000008500210426350   CRESCENT1 CUS0054486          S JUMAT                       00000000000000000000                21                      
903L001L5063200504094544892D23700033525065562797611285100000008500210426350   CRESCENT1 CUS0056756          A DESAI                       00000000000000000000                21                      
903L001L5063200504094544892D23700033663200504079850406100000008500210426350   CRESCENT1 CUS0058639          S BENNETT                     00000000000000000000                21                      
903L001L5063200504094544892D23700033725065562008520828100000008500210426350   CRESCENT1 CUS0019811          F KATKODIA                    00000000000000000000                21                      
903L001L5063200504094544892D23700033825065560130492709100000016000210426350   CRESCENT1 CUS0022131          F SALEY                       00000000000000000000                21                      
903L001L5063200504094544892D23700033905100100622746188100000008500210426350   CRESCENT1 CUS0025772          A SHAIK                       00000000000000000000                21                      
903L001L5063200504094544892D23700034025065562763153823100000023500210426350   CRESCENT1 CUS0030663          C DAWJEE                      00000000000000000000                21                      
903L001L5063200504094544892D23700034125065562149035439100000008500210426350   CRESCENT1 CUS0033321          J JEEWA                       00000000000000000000                21                      
903L001L5063200504094544892D23700034219876501075306124100000008500210426350   CRESCENT1 CUS0036631          T HAFFEJEE                    00000000000000000000                21                      
903L001L5063200504094544892D23700034319876501137461748100000008500210426350   CRESCENT1 CUS0039944          F MOHAMMED                    00000000000000000000                21                      
903L001L5063200504094544892D23700034463200509155635848100000008500210426350   CRESCENT1 CUS0043204          K HOOSEN                      00000000000000000000                21                      
903L001L5063200504094544892D23700034525065551330120381100000016000210426350   CRESCENT1 CUS0046473          N GANIEF                      00000000000000000000                21                      
903L001L5063200504094544892D23700034625065562360895969100000008500210426350   CRESCENT1 CUS0049424          S SULEMAN                     00000000000000000000                21                      
903L001L5063200504094544892D23700034725065562599850982100000008500210426350   CRESCENT1 CUS0051858          D FISHER                      00000000000000000000                21                      
903L001L5063200504094544892D23700034819876501267814330100000008500210426350   CRESCENT1 CUS0054534          S SAVAHL                      00000000000000000000                21                      
903L001L5063200504094544892D23700034947001001395392135200000008500210426350   CRESCENT1 CUS0056763          N ABRAHAMS                    00000000000000000000                21                      
903L001L5063200504094544892D23700035047001001148659917200000008500210426350   CRESCENT1 CUS0058640          E ISMAIL                      00000000000000000000                21                      
903L001L5063200504094544892D23700035125065555290391701100000008500210426350   CRESCENT1 CUS0019816          S CARRIM                      00000000000000000000                21                      
903L001L5063200504094544892D23700035205100100019013000100000008500210426350   CRESCENT1 CUS0022135          N RAHIM                       00000000000000000000                21                      
903L001L5063200504094544892D23700035325065562630733295100000008500210426350   CRESCENT1 CUS0025777          Z MOOLA                       00000000000000000000                21                      
903L001L5063200504094544892D23700035463200504073757785100000008500210426350   CRESCENT1 CUS0030668          G RAILOUN                     00000000000000000000                21                      
903L001L5063200504094544892D23700035525065560136253668100000016000210426350   CRESCENT1 CUS0033368          C DAMINGO                     00000000000000000000                21                      
903L001L5063200504094544892D23700035625065551011403551100000008500210426350   CRESCENT1 CUS0036656          A AMOD                        00000000000000000000                21                      
903L001L5063200504094544892D23700035705100100272320973100000008500210426350   CRESCENT1 CUS0039947          A ADAM                        00000000000000000000                21                      
903L001L5063200504094544892D23700035870150513311406477200000016000210426350   CRESCENT1 CUS0043213          F CASSIM                      00000000000000000000                21                      
903L001L5063200504094544892D23700035905100100303307110100000008500210426350   CRESCENT1 CUS0046483          H GUTTA                       00000000000000000000                21                      
903L001L5063200504094544892D23700036025065554930029606100000008500210426350   CRESCENT1 CUS0049454          G AMLAY                       00000000000000000000                21                      
903L001L5063200504094544892D23700036119876501733014985100000008500210426350   CRESCENT1 CUS0051860          M SCHROEDER                   00000000000000000000                21                      
903L001L5063200504094544892D23700036247001001264941356200000008500210426350   CRESCENT1 CUS0054536          T MANAKA                      00000000000000000000                21                      
903L001L5063200504094544892D23700036325065562600199964100000008500210426350   CRESCENT1 CUS0056771          H DEABRUYN                    00000000000000000000                21                      
903L001L5063200504094544892D23700036447001001443975107200000008500210426350   CRESCENT1 CUS0058641          R LE ROUX                     00000000000000000000                21                      
903L001L5063200504094544892D23700036563200504069657139100000008500210426350   CRESCENT1 CUS0019827          L RAMJAIN                     00000000000000000000                21                      
903L001L5063200504094544892D23700036663200504059898515100000008500210426350   CRESCENT1 CUS0022152          S OSMAN                       00000000000000000000                21                      
903L001L5063200504094544892D23700036719876501953459145100000008500210426350   CRESCENT1 CUS0025828          F PECK                        00000000000000000000                21                      
903L001L5063200504094544892D23700036825065560042313803100000008500210426350   CRESCENT1 CUS0030673          M ANVER                       00000000000000000000                21                      
903L001L5063200504094544892D23700036925065562230844830100000008500210426350   CRESCENT1 CUS0033369          M ISMAIL                      00000000000000000000                21                      
903L001L5063200504094544892D23700037063200509191443916100000008500210426350   CRESCENT1 CUS0036678          Z ADAM BODA                   00000000000000000000                21                      
903L001L5063200504094544892D23700037163200504080292554100000008500210426350   CRESCENT1 CUS0039985          S ESSOP                       00000000000000000000                21                      
903L001L5063200504094544892D23700037205100110049914713100000008500210426350   CRESCENT1 CUS0043217          S PEERBHAI                    00000000000000000000                21                      
903L001L5063200504094544892D23700037325065562074157895100000008500210426350   CRESCENT1 CUS0046486          F VAWDA                       00000000000000000000                21                      
903L001L5063200504094544892D23700037463200509289935695100000008500210426350   CRESCENT1 CUS0049460          R PHILLIPS                    00000000000000000000                21                      
903L001L5063200504094544892D23700037519876501061003949100000008500210426350   CRESCENT1 CUS0051861          S KAPERY                      00000000000000000000                21                      
903L001L5063200504094544892D23700037625065562568249520100000008500210426350   CRESCENT1 CUS0054539          S LATIFF                      00000000000000000000                21                      
903L001L5063200504094544892D23700037705100100402042638100000008500210426350   CRESCENT1 CUS0056772          S ABRAHAMS                    00000000000000000000                21                      
903L001L5063200504094544892D23700037805100100271766107100000008500210426350   CRESCENT1 CUS0058642          R ABRAHAMS                    00000000000000000000                21                      
903L001L5063200504094544892D23700037919876501019304278100000008500210426350   CRESCENT1 CUS0019831          N NACKERDIEN                  00000000000000000000                21                      
903L001L5063200504094544892D23700038063200509199681683100000006900210426350   CRESCENT1 CUS0022160          Y DADABHAY                    00000000000000000000                21                      
903L001L5063200504094544892D23700038105100100255262752100000008500210426350   CRESCENT1 CUS0025873          R PARUK                       00000000000000000000                21                      
903L001L5063200504094544892D23700038263200504046291340100000016000210426350   CRESCENT1 CUS0030709          M SHAIK                       00000000000000000000                21                      
903L001L5063200504094544892D23700038325065562391980812100000008500210426350   CRESCENT1 CUS0033395          F BARNES                      00000000000000000000                21                      
903L001L5063200504094544892D23700038463200504067400665100000008500210426350   CRESCENT1 CUS0036679          M DANIELS                     00000000000000000000                21                      
903L001L5063200504094544892D23700038525065560026998895100000007500210426350   CRESCENT1 CUS0039989          S SAMUELS                     00000000000000000000                21                      
903L001L5063200504094544892D23700038647001001582749548200000016000210426350   CRESCENT1 CUS0043225          M HENDRICKS                   00000000000000000000                21                      
903L001L5063200504094544892D23700038725065562293463916100000008500210426350   CRESCENT1 CUS0046493          A BAKERH                      00000000000000000000                21                      
903L001L5063200504094544892D23700038847001001391819525200000008500210426350   CRESCENT1 CUS0049478          S ABSALON WILLIAMS            00000000000000000000                21                      
903L001L5063200504094544892D23700038905100100062650017100000008500210426350   CRESCENT1 CUS0051867          R AKHALWANG                   00000000000000000000                21                      
903L001L5063200504094544892D23700039063200509230229017100000008500210426350   CRESCENT1 CUS0054543          T DAWOOD                      00000000000000000000                21                      
903L001L5063200504094544892D23700039125065562111836394100000016000210426350   CRESCENT1 CUS0056775          A JOHNSON                     00000000000000000000                21                      
903L001L5063200504094544892D23700039263200509290194632100000008500210426350   CRESCENT1 CUS0058663          E GANIEF                      00000000000000000000                21                      
903L001L5063200504094544892D23700039363200504055328659100000008500210426350   CRESCENT1 CUS0019832          M CASSIM                      00000000000000000000                21                      
903L001L5063200504094544892D23700039405100100062897292100000008500210426350   CRESCENT1 CUS0022172          J SHAIK                       00000000000000000000                21                      
903L001L5063200504094544892D23700039563200538105761926100000008500210426350   CRESCENT1 CUS0025889          S BAGUS                       00000000000000000000                21                      
903L001L5063200504094544892D23700039663200504076787428100000016000210426350   CRESCENT1 CUS0030711          H WALLJEE                     00000000000000000000                21                      
903L001L5063200504094544892D23700039705100100001712616100000008500210426350   CRESCENT1 CUS0033396          H MOTAN                       00000000000000000000                21                      
903L001L5063200504094544892D23700039825065550371108299100000016000210426350   CRESCENT1 CUS0036682          J SAKILDIEN                   00000000000000000000                21                      
903L001L5063200504094544892D23700039947001001336293452100000008500210426350   CRESCENT1 CUS0039999          F RASOOL                      00000000000000000000                21                      
903L001L5063200504094544892D23700040019876501219008729100000008500210426350   CRESCENT1 CUS0043232          F ESSACK                      00000000000000000000                21                      
903L001L5063200504094544892D23700040163200504075131377100000008500210426350   CRESCENT1 CUS0046503          F ADAMS                       00000000000000000000                21                      
903L001L5063200504094544892D23700040219876501135484430100000008500210426350   CRESCENT1 CUS0049483          T LATIEF                      00000000000000000000                21                      
903L001L5063200504094544892D23700040325065562368742336100000008500210426350   CRESCENT1 CUS0051868          F NAVSA                       00000000000000000000                21                      
903L001L5063200504094544892D23700040405100100240422694100000008500210426350   CRESCENT1 CUS0054547          I ISAACS                      00000000000000000000                21                      
903L001L5063200504094544892D23700040563200509213907646100000008500210426350   CRESCENT1 CUS0056781          A VAN DYCK                    00000000000000000000                21                      
903L001L5063200504094544892D23700040605100100270651640100000008500210426350   CRESCENT1 CUS0058665          L WILLIAMS                    00000000000000000000                21                      
903L001L5063200504094544892D23700040719876501953491502100000008500210426350   CRESCENT1 CUS0019839          N EBRIAM                      00000000000000000000                21                      
903L001L5063200504094544892D23700040825065562264375504100000008500210426350   CRESCENT1 CUS0022173          A PATEL                       00000000000000000000                21                      
903L001L5063200504094544892D23700040919876501908717432100000008500210426350   CRESCENT1 CUS0025890          F WALLY                       00000000000000000000                21                      
903L001L5063200504094544892D23700041025065560629014270100000008500210426350   CRESCENT1 CUS0030742          R SAFEDIEN                    00000000000000000000                21                      
903L001L5063200504094544892D23700041105100100012980951100000016000210426350   CRESCENT1 CUS0033410          F PATEL                       00000000000000000000                21                      
903L001L5063200504094544892D23700041225065562019780990100000008500210426350   CRESCENT1 CUS0036686          F ALLY                        00000000000000000000                21                      
903L001L5063200504094544892D23700041325065562279165544100000008500210426350   CRESCENT1 CUS0040000          K MOIDEEN                     00000000000000000000                21                      
903L001L5063200504094544892D23700041463200504076243977100000008500210426350   CRESCENT1 CUS0043250          I GOOLAM                      00000000000000000000                21                      
903L001L5063200504094544892D23700041563200509042171262100000007500210426350   CRESCENT1 CUS0046530          G SIMON                       00000000000000000000                21                      
903L001L5063200504094544892D23700041605100110076709521100000008500210426350   CRESCENT1 CUS0049485          W SALIE                       00000000000000000000                21                      
903L001L5063200504094544892D23700041747001001222171749200000008500210426350   CRESCENT1 CUS0051876          M THAGAN                      00000000000000000000                21                      
903L001L5063200504094544892D23700041863200509255440022100000008500210426350   CRESCENT1 CUS0054556          F OSMAN                       00000000000000000000                21                      
903L001L5063200504094544892D23700041947001001299781371200000008500210426350   CRESCENT1 CUS0056785          M MATTHEWS                    00000000000000000000                21                      
903L001L5063200504094544892D23700042063200509322127925100000008500210426350   CRESCENT1 CUS0058673          M JACOBS                      00000000000000000000                21                      
903L001L5063200504094544892D23700042125065506200721202100000008500210426350   CRESCENT1 CUS0019844          S MAITLAND                    00000000000000000000                21                      
903L001L5063200504094544892D23700042205100100003360350100000008500210426350   CRESCENT1 CUS0022217          R MOULA                       00000000000000000000                21                      
903L001L5063200504094544892D23700042305100100071145095100000008500210426350   CRESCENT1 CUS0025929          N ISAACS                      00000000000000000000                21                      
903L001L5063200504094544892D23700042405100100272097179100000008500210426350   CRESCENT1 CUS0030764          S FISCHER                     00000000000000000000                21                      
903L001L5063200504094544892D23700042563200504050271338100000008500210426350   CRESCENT1 CUS0033421          Y ESSAY                       00000000000000000000                21                      
903L001L5063200504094544892D23700042605100100003431452100000008500210426350   CRESCENT1 CUS0036688          S JHATAM                      00000000000000000000                21                      
903L001L5063200504094544892D23700042725065562246697413100000008500210426350   CRESCENT1 CUS0040001          M KHOTA                       00000000000000000000                21                      
903L001L5063200504094544892D23700042819876501939054834100000008500210426350   CRESCENT1 CUS0043263          J SULIMAN                     00000000000000000000                21                      
903L001L5063200504094544892D23700042905100100009349367100000007500210426350   CRESCENT1 CUS0046531          H MAJID                       00000000000000000000                21                      
903L001L5063200504094544892D23700043025065550010015234100000008500210426350   CRESCENT1 CUS0049491          G AMANSURE                    00000000000000000000                21                      
903L001L5063200504094544892D23700043163200509113671062100000008500210426350   CRESCENT1 CUS0051890          W MAHONEY                     00000000000000000000                21                      
903L001L5063200504094544892D23700043205100100200294784100000008500210426350   CRESCENT1 CUS0054557          Z POCHEE                      00000000000000000000                21                      
903L001L5063200504094544892D23700043358010510011013467100000008500210426350   CRESCENT1 CUS0056787          W HARRISON                    00000000000000000000                21                      
903L001L5063200504094544892D23700043405100100074290851100000008500210426350   CRESCENT1 CUS0058677          M ARENDSE                     00000000000000000000                21                      
903L001L5063200504094544892D23700043505100100241114543100000008500210426350   CRESCENT1 CUS0019853          N BAYAT                       00000000000000000000                21                      
903L001L5063200504094544892D23700043605100100002517752100000008500210426350   CRESCENT1 CUS0022276          F KHAN                        00000000000000000000                21                      
903L001L5063200504094544892D23700043719876501956343768100000008500210426350   CRESCENT1 CUS0025936          N CORNELIUS                   00000000000000000000                21                      
903L001L5063200504094544892D23700043819876502984455517200000008500210426350   CRESCENT1 CUS0030768          T MONARENG                    00000000000000000000                21                      
903L001L5063200504094544892D23700043919876501950530598100000008500210426350   CRESCENT1 CUS0033437          S WILLIAMS                    00000000000000000000                21                      
903L001L5063200504094544892D23700044025065562229724233100000008500210426350   CRESCENT1 CUS0036706          M MANSOOR                     00000000000000000000                21                      
903L001L5063200504094544892D23700044125065562378386372100000008500210426350   CRESCENT1 CUS0040026          Z DILJAN                      00000000000000000000                21                      
903L001L5063200504094544892D23700044225065562599907527100000008500210426350   CRESCENT1 CUS0043272          N JACOBS                      00000000000000000000                21                      
903L001L5063200504094544892D23700044363200504053214797100000007500210426350   CRESCENT1 CUS0046536          S KAROLIA                     00000000000000000000                21                      
903L001L5063200504094544892D23700044405100100071658408100000016000210426350   CRESCENT1 CUS0049496          R HASHIM                      00000000000000000000                21                      
903L001L5063200504094544892D23700044563200504087835676100000016000210426350   CRESCENT1 CUS0051898          F ALEXANDER                   00000000000000000000                21                      
903L001L5063200504094544892D23700044625065562052157023100000008500210426350   CRESCENT1 CUS0054561          M PHILLIPS                    00000000000000000000                21                      
903L001L5063200504094544892D23700044725065562728296965100000008500210426350   CRESCENT1 CUS0056798          Z WILLIAMS                    00000000000000000000                21                      
903L001L5063200504094544892D23700044825065562502169560100000008500210426350   CRESCENT1 CUS0058680          M LEVY                        00000000000000000000                21                      
903L001L5063200504094544892D23700044905100100071810633100000008500210426350   CRESCENT1 CUS0019863          N DU TOIT                     00000000000000000000                21                      
903L001L5063200504094544892D23700045005100100052597393100000008500210426350   CRESCENT1 CUS0022286          M SHEIK                       00000000000000000000                21                      
903L001L5063200504094544892D23700045105100100204234859100000007500210426350   CRESCENT1 CUS0025964          A COOVADIA                    00000000000000000000                21                      
903L001L5063200504094544892D23700045263200504078261981100000016000210426350   CRESCENT1 CUS0030778          H BABOO                       00000000000000000000                21                      
903L001L5063200504094544892D23700045305100100402104730100000008500210426350   CRESCENT1 CUS0033446          E AHMED                       00000000000000000000                21                      
903L001L5063200504094544892D23700045463200504051375377100000008500210426350   CRESCENT1 CUS0036721          J DE VILLIERS                 00000000000000000000                21                      
903L001L5063200504094544892D23700045525065562050507593100000008500210426350   CRESCENT1 CUS0040027          R KARRIM                      00000000000000000000                21                      
903L001L5063200504094544892D23700045625065562178081974100000008500210426350   CRESCENT1 CUS0043274          T CASSIM                      00000000000000000000                21                      
903L001L5063200504094544892D23700045725065555280094977100000007500210426350   CRESCENT1 CUS0046537          A JASSAT                      00000000000000000000                21                      
903L001L5063200504094544892D23700045819876501127601970100000008500210426350   CRESCENT1 CUS0049502          W JOUBERT                     00000000000000000000                21                      
903L001L5063200504094544892D23700045947001001327206844200000008500210426350   CRESCENT1 CUS0051910          T ADAMS                       00000000000000000000                21                      
903L001L5063200504094544892D23700046005100100082440336100000008500210426350   CRESCENT1 CUS0054578          M DU TOIT                     00000000000000000000                21                      
903L001L5063200504094544892D23700046147001001187045975200000008500210426350   CRESCENT1 CUS0056801          N HANS                        00000000000000000000                21                      
903L001L5063200504094544892D23700046247001001440492873200000008500210426350   CRESCENT1 CUS0058681          F DANGOR                      00000000000000000000                21                      
903L001L5063200504094544892D23700046325065562167540634100000008500210426350   CRESCENT1 CUS0019864          I AMOD                        00000000000000000000                21                      
903L001L5063200504094544892D23700046425065562025520588100000007500210426350   CRESCENT1 CUS0022293          K BADRUDIN                    00000000000000000000                21                      
903L001L5063200504094544892D23700046525065562211003926100000008500210426350   CRESCENT1 CUS0025995          Z TAJBHAI                     00000000000000000000                21                      
903L001L5063200504094544892D23700046625065550551115337100000008500210426350   CRESCENT1 CUS0030781          M HAJEE                       00000000000000000000                21                      
903L001L5063200504094544892D23700046705100100005106346100000008500210426350   CRESCENT1 CUS0033454          R ALEXANDER                   00000000000000000000                21                      
903L001L5063200504094544892D23700046805100100022447016100000008500210426350   CRESCENT1 CUS0036779          G KAROLIA                     00000000000000000000                21                      
903L001L5063200504094544892D23700046905100100058246967100000008500210426350   CRESCENT1 CUS0040029          F MOOSA                       00000000000000000000                21                      
903L001L5063200504094544892D23700047025065562109492877100000008500210426350   CRESCENT1 CUS0043285          F HENDRICKS                   00000000000000000000                21                      
903L001L5063200504094544892D23700047125065562218553148100000016000210426350   CRESCENT1 CUS0046559          M ABRAHAMS                    00000000000000000000                21                      
903L001L5063200504094544892D23700047263200509248943091100000008500210426350   CRESCENT1 CUS0049518          S PHANBHAYA                   00000000000000000000                21                      
903L001L5063200504094544892D23700047305100100301354308100000008500210426350   CRESCENT1 CUS0051924          R WILLIAMS                    00000000000000000000                21                      
903L001L5063200504094544892D23700047425065562541809622100000016000210426350   CRESCENT1 CUS0054587          A TAMBAY                      00000000000000000000                21                      
903L001L5063200504094544892D23700047563200504056600343200000008500210426350   CRESCENT1 CUS0056805          R HERCULES                    00000000000000000000                21                      
903L001L5063200504094544892D23700047647001001371811685200000008500210426350   CRESCENT1 CUS0058684          S JACOBS                      00000000000000000000                21                      
903L001L5063200504094544892D23700047725065562000566515100000008500210426350   CRESCENT1 CUS0019867          I SEEDAT                      00000000000000000000                21                      
903L001L5063200504094544892D23700047819876501035246147100000016000210426350   CRESCENT1 CUS0022323          G HENDERSON                   00000000000000000000                21                      
903L001L5063200504094544892D23700047905100100410559903100000008500210426350   CRESCENT1 CUS0026006          Z HUSSAIN                     00000000000000000000                21                      
903L001L5063200504094544892D23700048063200504044742373100000008500210426350   CRESCENT1 CUS0030801          A HAJEE                       00000000000000000000                21                      
903L001L5063200504094544892D23700048105100100309156270100000008500210426350   CRESCENT1 CUS0033488          R RAYMOND                     00000000000000000000                21                      
903L001L5063200504094544892D23700048225065562824144745100000008500210426350   CRESCENT1 CUS0036797          M MOHMED                      00000000000000000000                21                      
903L001L5063200504094544892D23700048319876502009562119200000008500210426350   CRESCENT1 CUS0040031          W ABRAHAMS                    00000000000000000000                21                      
903L001L5063200504094544892D23700048425065562029943596100000008500210426350   CRESCENT1 CUS0043324          M HENDRIKS                    00000000000000000000                21                      
903L001L5063200504094544892D23700048563200504088626529100000008500210426350   CRESCENT1 CUS0046575          F GANI                        00000000000000000000                21                      
903L001L5063200504094544892D23700048619876501457712911100000008500210426350   CRESCENT1 CUS0049522          S JAMAL                       00000000000000000000                21                      
903L001L5063200504094544892D23700048725065562323201038100000008500210426350   CRESCENT1 CUS0051928          S JACOBS                      00000000000000000000                21                      
903L001L5063200504094544892D23700048805100100202710505100000008500210426350   CRESCENT1 CUS0054590          J JANTJIES                    00000000000000000000                21                      
903L001L5063200504094544892D23700048905100100271782250100000008500210426350   CRESCENT1 CUS0056806          F SCHARSSENORTH               00000000000000000000                21                      
903L001L5063200504094544892D23700049025065562143225862100000008500210426350   CRESCENT1 CUS0058709          M VAWDA                       00000000000000000000                21                      
903L001L5063200504094544892D23700049105100100062255479100000016000210426350   CRESCENT1 CUS0019872          A EBRAHIM                     00000000000000000000                21                      
903L001L5063200504094544892D23700049205100100221215034100000008500210426350   CRESCENT1 CUS0022341          F WILLIAMS                    00000000000000000000                21                      
903L001L5063200504094544892D23700049305100100001378401100000008500210426350   CRESCENT1 CUS0026014          S BARTHIS                     00000000000000000000                21                      
903L001L5063200504094544892D23700049419876501698014147100000008500210426350   CRESCENT1 CUS0030806          M LANGRY                      00000000000000000000                21                      
903L001L5063200504094544892D23700049570150511551009656200000006900210426350   CRESCENT1 CUS0033507          R AHMED                       00000000000000000000                21                      
903L001L5063200504094544892D23700049647001001366424342200000008500210426350   CRESCENT1 CUS0036805          Z AMEER                       00000000000000000000                21                      
903L001L5063200504094544892D23700049705100100053078470100000008500210426350   CRESCENT1 CUS0040044          S GOOLAMNABI                  00000000000000000000                21                      
903L001L5063200504094544892D23700049805100100021140529100000008500210426350   CRESCENT1 CUS0043331          A DOLLEY                      00000000000000000000                21                      
903L001L5063200504094544892D23700049925065562478687985100000008500210426350   CRESCENT1 CUS0046593          M SAYED                       00000000000000000000                21                      
