000L2020111900000PAYPORT CONSULTING PTY LTD EFT000051007303                                                                                                                                           
010LD237000003801                                                                                                                                                                                     
011LD23763200500000040945448920120201119                                                                                                                                                              
013L5020201118000010000000000000405859773200000000100PAYPORT                       89981046000010                DEAN STEENKAMP                                                                       
013L5020201118000006000000000000405859773200000000100PAYPORT                       89981046000006                DEAN STEENKAMP                                                                       
013L5020201118000007000000000000405859773200000000100PAYPORT                       89981046000007                DEAN STEENKAMP                                                                       
013L5020201118000011000000000000405859773200000000100PAYPORT                       89981046000011                DEAN STEENKAMP                                                                       
013L5020201118000004000000000000405859773200000000100PAYPORT                       89981046000004                DEAN STEENKAMP                                                                       
013L5020201118000008000000000000405859773200000000100PAYPORT                       89981046000008                DEAN STEENKAMP                                                                       
013L5020201118000002000000000000405859773200000000100PAYPORT                       89981046000002                DEAN STEENKAMP                                                                       
013L5020201118000003000000000000405859773200000000100PAYPORT                       89981046000003                DEAN STEENKAMP                                                                       
013L5020201118000009000000000000405859773200000000100PAYPORT                       89981046000009                DEAN STEENKAMP                                                                       
013L5020201118000012000000000006234751797400000000100PAYPORT                       89981046000012                WARDA KHAN                                                                           
013L5020201118000005000000000000405859773200000000100PAYPORT                       89981046000005                DEAN STEENKAMP                                                                       
014L0000000110000000000000001029334952940000000000110000000000000000                                                                                                                                  
019L0000000110000000000000001029334952940000000000110000000000000000                                                                                                                                  
999L000000017                                                                                                                                                                                         
