000L2021041000000PAYPORT CONSULTING PTY LTD EFT000071107303                                                                                                                                           
010LD237000018101                                                                                                                                                                                     
011LD23763200500000040945448920120210301                                                                                                                                                              
013L5020210227000064470010000000154585517800000025000ABSOLIT   1614259818RSS0001   03000000000000                SHAHEED SHAMAAR                                                                      
014L0000000010000000000000000015458551780000000002500000000000000000                                                                                                                                  
011LD23763200500000040945448920120210326                                                                                                                                                              
013L5020210325002856051001000000020046304700000008500CRESCENT1 CUS0005035          03000000000000                Y BROOKS LIMBADA                                                                     
013L5020210325001007470010000000132199769600000016000CRESCENT1 CUS0058196          03000000000000                S DAVIDS                                                                             
014L0000000020000000000000000015224607430000000002450000000000000000                                                                                                                                  
019L0000000030000000000000000030683159210000000004950000000000000000                                                                                                                                  
999L000000011                                                                                                                                                                                         
