000L2021052200000PAYPORT CONSULTING PTY LTD EFT000077507303                                                                                                                                           
010LD237000021901                                                                                                                                                                                     
011LD23763200500000040945448920120210426                                                                                                                                                              
013L5020210424003516470010000000138290885500000008500CRESCENT1 CUS0049074          03600000000000                T MAKHEH                                                                             
014L0000000010000000000000000013829088550000000000850000000000000000                                                                                                                                  
011LD23763200500000040945448920120210430                                                                                                                                                              
013L5020210429001156250655000006283300683700000008500CRESCENT1 CUS0058328          03400000000000                M BENJAMIN                                                                           
014L0000000010000000000000000628330068370000000000850000000000000000                                                                                                                                  
011LD23763200500000040945448920120210521                                                                                                                                                              
013L5020210520000249632005000000922907873800000016000CRESCENT1 CUS0007387          00200016000249                A MIA                                                                                
013L5020210520000063632005000000407961712700000008500CRESCENT1 CUS0037876          00300000000063                A NORDIEN                                                                            
013L5020210520000120632005000000407912797600000008500CRESCENT1 CUS0043027          90300000000120                N AHMED                                                                              
013L5020210520000329632005000000408205618000000023500CRESCENT1 CUS0018845          00300000000329                A KARA                                                                               
014L0000000040000000000000000214698800210000000005650000000000000000                                                                                                                                  
019L0000000060000000000000000856857957130000000007350000000000000000                                                                                                                                  
999L000000016                                                                                                                                                                                         
