000L2020112100000PAYPORT CONSULTING PTY LTD    000051407303                                                                                                                                           
900L000 TRANSMISSION 07303-0000029 ACCEPTED                                                                                                                                                           
900L001 ACB USER SET D237-0000033-000010 ACCEPTED                                                                                                                                                     
903L001L5063200504094544892D23700000163200504058597732100000000100201123410   PAYPORT                       DEAN STEENKAMP                00000000000000000000                21                      
903L001L5063200504094544892D23700000263200504058597732100000000100201123410   PAYPORT                       DEAN STEENKAMP                00000000000000000000                21                      
903L001L5063200504094544892D23700000363200504058597732100000000000201123410   PAYPORT                       DEAN STEENKAMP                00000000000000000000                21                      
903L001L5063200504094544892D23700000463200504058597732100000000100201123410   PAYPORT                       DEAN STEENKAMP                00000000000000000000                21                      
903L001L5063200504094544892D23700000563200504058597732100000000100201123410   PAYPORT                       DEAN STEENKAMP                00000000000000000000                21                      
903L001L5063200504094544892D23700000663200504058597732100000000100201123410   PAYPORT                       DEAN STEENKAMP                00000000000000000000                21                      
903L001L5063200504094544892D23700000763200504058597732100000000100201123410   PAYPORT                       DEAN STEENKAMP                00000000000000000000                21                      
903L001L5063200504094544892D23700000863200504058597732100000000100201123410   PAYPORT                       DEAN STEENKAMP                00000000000000000000                21                      
903L001L5063200504094544892D23700000925065562347517974100000000100201123410   PAYPORT                       WARDA KHAN                    00000000000000000000                21                      
903L001L5263200504094544892D23700001063200504094544892100000000800201123100000PAYPORT   CONTRASYV62PY3MV0IQ8                                                                                          
901L001 D237/0000033/000003 00064-*** WARNING : TRANSACTION AMOUNT = ZERO, TRANSACTION WILL UNPAY. ***                                                                                                
999L000000015                                                                                                                                                                                         
