000L2021022700000PAYPORT CONSULTING PTY LTD EFT000064907303                                                                                                                                           
010LD237000013601                                                                                                                                                                                     
011LD23763200500000040945448920120210125                                                                                                                                                              
013L5020210123000592051001000000027544652200000008500CRESCENT1 CUS0052822          03400000000000                F MOSES                                                                              
014L0000000010000000000000000002754465220000000000850000000000000000                                                                                                                                  
011LD23763200500000040945448920120210130                                                                                                                                                              
013L5020210129001065198765000000198463824600000008500CRESCENT1 CUS0039228          03000000000000                T JOGI                                                                               
014L0000000010000000000000000019846382460000000000850000000000000000                                                                                                                                  
011LD23763200500000040945448920120210220                                                                                                                                                              
013L5020210219000197632005000000407472616300000016000CRESCENT1 CUS0048054          03492801000197                G CORNELIUS                                                                          
014L0000000010000000000000000040747261630000000001600000000000000000                                                                                                                                  
011LD23763200500000040945448920120210225                                                                                                                                                              
013L5020210224000293470010000000148694910800000008500CRESCENT1 CUS0058308          00200000000000                F RORICK                                                                             
013L5020210224000695470010000000154364425000000008500CRESCENT1 CUS0054375          00200000000000                F STONE                                                                              
013L5020210224000554632005000000404370027100000008500CRESCENT1 CUS0013984          00292803000554                A EBRAHIM                                                                            
013L5020210224000143051001000000007282674600000008500CRESCENT1 CUS0048807          00200000000000                A HOWELL                                                                             
013L5020210224000255051001000000000015866600000031000CRESCENT1 CUS0038387          01200000000000                A DAVIES                                                                             
013L5020210224000389470010000000125169725700000008500CRESCENT1 CUS0058777          00200000000000                I JUDAAR                                                                             
013L5020210224000400051001000001006676710300000016000CRESCENT1 CUS0051285          00200000000000                A SASMAN                                                                             
013L5020210224000265470010000000156785207400000008500CRESCENT1 CUS0058092          00200000000000                Z ABRAHAMS                                                                           
013L5020210224000296470010000000144978612800000008500CRESCENT1 CUS0050343          00200000000000                S ABRAHAMS                                                                           
013L5020210224000150470010000000140980096000000008500CRESCENT1 CUS0057412          00200000000000                S SAMUELS                                                                            
013L5020210224000659470010000000147742283600000008500CRESCENT1 CUS0053821          01200000000000                F NHLAPO                                                                             
013L5020210224000185470010000000161507799300000008500CRESCENT1 CUS0057591          00200000000000                K DANIELS                                                                            
013L5020210224000028632005000000934053302300000008500CRESCENT1 CUS0032077          00292803000028                R BENNET                                                                             
013L5020210224000209051001000001006059869500000008500CRESCENT1 CUS0057776          00200000000000                R PHIRI                                                                              
013L5020210224000642051001000001008648737800000008500CRESCENT1 CUS0016894          00200000000000                S BHAM                                                                               
013L5020210224000633051001000000005220943100000031000CRESCENT1 CUS0016551          00200000000000                Z KHAN                                                                               
013L5020210224000621051001000000005222911400000031000CRESCENT1 CUS0016205          00200000000000                A BHAMJEE                                                                            
013L5020210224000553470010000000156629632100000008500CRESCENT1 CUS0059464          00400000000000                R SAFODIEN                                                                           
013L5020210224000845470010000000139958181100000008500CRESCENT1 CUS0055825          00200000000000                R CASSIM                                                                             
013L5020210224000138470010000000137474821600000007500CRESCENT1 CUS0057357          00200000000000                F ISMAIL                                                                             
013L5020210224000528470010000000131057906500000008500CRESCENT1 CUS0052562          00200000000000                T BRAMDER                                                                            
013L5020210224000257470010000000147916340400000008500CRESCENT1 CUS0058066          00200000000000                A FISHER                                                                             
013L5020210224000665470010000000143342036600000008500CRESCENT1 CUS0053870          00200000000000                K MOHAMED                                                                            
013L5020210224000251051001000000000033147300000008500CRESCENT1 CUS0038375          00400000000000                N OMAR                                                                               
013L5020210224000520051001000001009180776800000008500CRESCENT1 CUS0052542          00200000000000                A TALIEP                                                                             
013L5020210224000743051001000001006338969800000008500CRESCENT1 CUS0054858          00200000000000                Z FELTON                                                                             
013L5020210224000556051001000000027544652200000008500CRESCENT1 CUS0052822          00400000000000                F MOSES                                                                              
013L5020210224000561470010000000134303584600000008500CRESCENT1 CUS0059482          00200000000000                Z MANUEL                                                                             
013L5020210224000589470010000000157061571100000008500CRESCENT1 CUS0059587          00200000000000                F GENEVA                                                                             
013L5020210224000021470010000000160050798900000008500CRESCENT1 CUS0056252          00200000000000                M MOGODISENG                                                                         
013L5020210224000339051001000000005824696700000008500CRESCENT1 CUS0040029          00200000000000                F MOOSA                                                                              
013L5020210224000783051001000000020105119200000016000CRESCENT1 CUS0024615          00200000000000                A MILLER                                                                             
013L5020210224000305470010000000162737823300000008500CRESCENT1 CUS0058400          00200000000000                B SAMUELS                                                                            
013L5020210224000734470010000000128996735900000008500CRESCENT1 CUS0054777          00200000000000                T STUURMAN                                                                           
013L5020210224000377470010000000150599084800000008500CRESCENT1 CUS0058689          00200000000000                I AMLAY                                                                              
013L5020210224000105470010000000143398049300000008500CRESCENT1 CUS0057178          00400000000000                R KHAN                                                                               
013L5020210224000564051001000000027539809900000008500CRESCENT1 CUS0052897          00400000000000                H GELDERBLOEM                                                                        
013L5020210224000516051001000001006613295700000008500CRESCENT1 CUS0052501          00400000000000                M ABRAHAMS                                                                           
013L5020210224000081051001000000007893545800000008500CRESCENT1 CUS0056953          00300000000000                S WITBWOI                                                                            
013L5020210224000787051001000000000811548600000008500CRESCENT1 CUS0045928          00200000000000                W CARRIM                                                                             
013L5020210224000505051001000001008642687500000008500CRESCENT1 CUS0059262          00200000000000                F LIMBADA                                                                            
013L5020210224000549470010000000147697704400000008500CRESCENT1 CUS0059461          00200000000000                N HALIEM                                                                             
013L5020210224000662051001000000030300308100000008500CRESCENT1 CUS0053863          00200000000000                D SWANLOW                                                                            
013L5020210224000497462005000001028403130100000008500CRESCENT1 CUS0059230          00200000000000                R DE VRIES                                                                           
013L5020210224000284470010000000115236149800000008500CRESCENT1 CUS0050234          01200000000000                N LENNOX                                                                             
013L5020210224000075470010000000135874440600000008500CRESCENT1 CUS0056935          00400000000000                A LAMONT                                                                             
013L5020210224000169470010000000129817029800000008500CRESCENT1 CUS0057530          00200000000000                L RAJIE DARRES                                                                       
013L5020210224000327051001000000027640044500000016000CRESCENT1 CUS0039801          00200000000000                F OLIVIER                                                                            
013L5020210224000462051001000000000161796600000008500CRESCENT1 CUS0010495          01200000000000                N JABAAR                                                                             
013L5020210224000851470010000000140391941900000016000CRESCENT1 CUS0055832          00200000000000                S LEITJIES                                                                           
013L5020210224000581470010000000146584244400000008500CRESCENT1 CUS0059581          00200000000000                R ARENDSE                                                                            
013L5020210224000393470010000000164725639700000008500CRESCENT1 CUS0058779          00200000000000                R ISAACS                                                                             
013L5020210224000144470010000000155894516200000007500CRESCENT1 CUS0057380          00200000000000                F JOSEPH                                                                             
013L5020210224000413632005000000930258876900000006900CRESCENT1 CUS0058915          00292803000413                S KRIEL                                                                              
013L5020210224000073051001000000008894895100000008500CRESCENT1 CUS0033468          00400000000000                B ISAACS                                                                             
013L5020210224000309470010000000134006074200000016000CRESCENT1 CUS0058402          00200000000000                A TOPLEY                                                                             
013L5020210224000449470010000000128863720700000016000CRESCENT1 CUS0059139          00200000000000                M KIPPIE                                                                             
013L5020210224000874470010000000140342189500000008500CRESCENT1 CUS0047114          00200000000000                R SATAR                                                                              
013L5020210224000272470010000000138141593600000008500CRESCENT1 CUS0050161          00200000000000                A GAMIET                                                                             
013L5020210224000821470010000000158621406100000008500CRESCENT1 CUS0055673          00200000000000                R MENIERS                                                                            
013L5020210224000501470010000000140586348800000008500CRESCENT1 CUS0059240          00200000000000                A PARI                                                                               
013L5020210224000848470010000000152404000000000008500CRESCENT1 CUS0055829          00200000000000                A TITUS                                                                              
013L5020210224000329051001000000027776533100000008500CRESCENT1 CUS0058527          00200000000000                M WALKER                                                                             
013L5020210224000159051001000001004226970700000016000CRESCENT1 CUS0057490          01200000000000                A JORDAAN                                                                            
013L5020210224000652051001000000027055025900000016000CRESCENT1 CUS0043917          00400000000000                N JONES                                                                              
013L5020210224000588470010000000111529795100000008500CRESCENT1 CUS0053167          03000000000000                K ISMAIL                                                                             
013L5020210224000102470010000000152480677100000016000CRESCENT1 CUS0057096          00200000000000                S CROEP                                                                              
013L5020210224000425470010000000173565584600000008500CRESCENT1 CUS0058990          00200000000000                I JOHNSON                                                                            
013L5020210224000181470010000000150819396500000008500CRESCENT1 CUS0057556          00200000000000                N MOHAMED                                                                            
013L5020210224000066470010000000134173250700000008500CRESCENT1 CUS0056792          00200000000000                A SALLIE                                                                             
013L5020210224000614470010000000148511349900000008500CRESCENT1 CUS0053402          00200000000000                M ORRIE-ROB                                                                          
013L5020210224000146470010000000116883099900000016000CRESCENT1 CUS0048831          03000000000000                K MANEVELD                                                                           
013L5020210224000492051001000000008147262500000008500CRESCENT1 CUS0052060          00200000000000                F AMARDIEN                                                                           
013L5020210224000369051001000001009380497900000008500CRESCENT1 CUS0058676          01200000000000                I HENDRICKS                                                                          
014L0000000740000000000000001879122441390000000076790000000000000000                                                                                                                                  
011LD23763200500000040945448920120210227                                                                                                                                                              
013L5020210226002979250655000006252677740100000008500CRESCENT1 CUS0001274          02682502002979                K MOHAMED                                                                            
013L5020210226003642198765000000117913293700000008500CRESCENT1 CUS0027696          02682502003642                A DAVIES                                                                             
013L5020210226005772051001000000100614548600000008500CRESCENT1 CUS0044894          02682502005772                Z DAVIDS                                                                             
013L5020210226005708470010000000014199597900000008500CRESCENT1 CUS0038829          02682502005708                Y GAMA                                                                               
013L5020210226005310632005000004098710636500000007500CRESCENT1 CUS0048514          02682502005310                A AMOD                                                                               
013L5020210226003284051001000000011497065400000008500CRESCENT1 CUS0041856          02682502003284                R JEEWA                                                                              
013L5020210226001610051001000000042225031000000008500CRESCENT1 CUS0045826          02682502001610                S RENFURM                                                                            
013L5020210226002792250655000006207647872400000008500CRESCENT1 CUS0026931          02682502002792                S KEMP                                                                               
013L5020210226005172250655000000040829068900000008500CRESCENT1 CUS0044742          02682502005172                Y LOKHAT                                                                             
013L5020210226005690250655000005181204194900000015000CRESCENT1 CUS0021581          02682502005690                R MAHOMED                                                                            
013L5020210226001648462005000000054149620000000008500CRESCENT1 CUS0046017          02682502001648                M HARTLEY                                                                            
013L5020210226002143198765000000213504362700000008500CRESCENT1 CUS0031168          02682502002143                A GORA                                                                               
013L5020210226003672250655000000922528275100000008500CRESCENT1 CUS0043996          02682502003672                N HASSEN                                                                             
013L5020210226000052632005000000917624116600000016000CRESCENT1 CUS0021957          02682502000052                M TALIEP                                                                             
013L5020210226001509632005000000917463260500000031000CRESCENT1 CUS0040673          02682502001509                A EVANS                                                                              
013L5020210226001632051001000000065428087300000008500CRESCENT1 CUS0029287          02682502001632                N MATAMBO                                                                            
013L5020210226000532051001000000002036564600000008500CRESCENT1 CUS0039156          02682502000532                S MATTHEWS                                                                           
013L5020210226006093051001000000235996054300000008500CRESCENT1 CUS0032530          02682502006093                S SUKWEANA                                                                           
013L5020210226002369051001000000008912748800000008500CRESCENT1 CUS0034085          02682502002369                H DUNKALO                                                                            
013L5020210226002983198765000006257428456000000007500CRESCENT1 CUS0036230          02682502002983                S MUHAMMAD                                                                           
013L5020210226005256250655000006213593727000000008500CRESCENT1 CUS0026277          02682502005256                N JALIEL                                                                             
013L5020210226005553051001000000005026840000000006900CRESCENT1 CUS0059021          02682502005553                R RAMNATH                                                                            
013L5020210226005432632005000004098710636500000008500CRESCENT1 CUS0033305          02682502005432                A AMOD                                                                               
013L5020210226004765632005000009006943650700000016000CRESCENT1 CUS0021096          02682502004765                S ARENDE                                                                             
013L5020210226004314632005000000904701403500000016000CRESCENT1 CUS0019243          02683002004314                M KAMAAR                                                                             
013L5020210226003055051001000000020207834600000008500CRESCENT1 CUS0013923          02682502003055                S KAJEE                                                                              
013L5020210226003819198765000000900315520000000008500CRESCENT1 CUS0034892          02682502003819                M REAANE                                                                             
013L5020210226005466051001000000082073300100000016000CRESCENT1 CUS0024744          02682502005466                K NANA                                                                               
013L5020210226001229632005000000921974734600000007500CRESCENT1 CUS0059401          02683002001229                H PATHER                                                                             
013L5020210226005453632005000000408482726800000008500CRESCENT1 CUS0058994          02683002005453                R REDCLIFFE                                                                          
013L5020210226000009250655000000914075635200000008500CRESCENT1 CUS0045167          02682502000009                A MOSES                                                                              
013L5020210226002336632005000000404755286900000007500CRESCENT1 CUS0050254          02682502002336                I SYDOW                                                                              
013L5020210226000643632005000000910279301900000023500CRESCENT1 CUS0027853          02682502000643                E MONKHE                                                                             
013L5020210226002148800000000000133245441900000008500CRESCENT1 CUS0046383          02682502002148                S SEEDAT                                                                             
013L5020210226000521198765000000100846582500000008500CRESCENT1 CUS0045015          02682502000521                F ADAMS                                                                              
013L5020210226004338223626000000210952152000000008500CRESCENT1 CUS0059074          02682502004338                L SAULS                                                                              
013L5020210226004442198765000002000758225000000008500CRESCENT1 CUS0028387          02682502004442                M HADJEE                                                                             
013L5020210226003817051001000000020677990100000023500CRESCENT1 CUS0027785          02682502003817                A HAJAT                                                                              
013L5020210226004070051001000000235369257700000008500CRESCENT1 CUS0037561          02682502004070                F MILANZI                                                                            
013L5020210226003641051001000000025421162900000008500CRESCENT1 CUS0023891          02682502003641                R KARSANDAS                                                                          
013L5020210226002937470010000001561145095000000008500CRESCENT1 CUS0056711          02682502002937                S FICKS                                                                              
013L5020210226006007632005000000092686866300000008500CRESCENT1 CUS0033712          02682502006007                L BODIBA                                                                             
013L5020210226005467051001000000082074037900000008500CRESCENT1 CUS0029365          02682502005467                S FAKROODEEN                                                                         
013L5020210226003147250655000006256158044300000008500CRESCENT1 CUS0043697          02682502003147                Y HAZAREE                                                                            
013L5020210226002191250655000006229534434900000008500CRESCENT1 CUS0022898          02682502002191                S KHAN                                                                               
013L5020210226000783051001000000086012310700000016000CRESCENT1 CUS0042516          02682502000783                K DEVRIES                                                                            
013L5020210226003667051001000000117913293700000015000CRESCENT1 CUS0027697          02682502003667                N DAVIES                                                                             
013L5020210226004882632005000000927559419100000016000CRESCENT1 CUS0032909          02683002004882                J SEETHAL                                                                            
013L5020210226004356632005000000918304077000000008500CRESCENT1 CUS0025404          02683002004356                R ABRAHAMS                                                                           
013L5020210226002059632005000000918861781600000008500CRESCENT1 CUS0041004          02682502002059                J ABDUL                                                                              
013L5020210226003005632005000000919043848700000008500CRESCENT1 CUS0013839          02682502003005                H FRANKS                                                                             
013L5020210226005847470010000006260070712100000008500CRESCENT1 CUS0044923          02682502005847                K ROSS                                                                               
013L5020210226003395051001000000077209905300000008500CRESCENT1 CUS0037306          02682502003395                A NACKERDIEN                                                                         
013L5020210226003516198765000000196464497500000008500CRESCENT1 CUS0023819          02682502003516                A KOTWAL                                                                             
013L5020210226004246198765000006255577989500000007500CRESCENT1 CUS0041239          02682502004246                S DAWSON                                                                             
013L5020210226004856250655000006225455928900000008500CRESCENT1 CUS0025930          02682502004856                Y SEEDAT                                                                             
013L5020210226000655250655000006227069331600000008500CRESCENT1 CUS0032941          02682502000655                W RANA                                                                               
013L5020210226002931250655000006233358449100000008500CRESCENT1 CUS0024351          02682502002931                N MOOSAJEE                                                                           
013L5020210226000623470010000000101612805000000008500CRESCENT1 CUS0054910          02682502000623                S SOLOMON                                                                            
013L5020210226001022198765000000108195326300000008500CRESCENT1 CUS0009097          02682502001022                F OMAR                                                                               
013L5020210226002322632005000004082558684600000008500CRESCENT1 CUS0043353          02682502002322                A DAWOOD                                                                             
013L5020210226004519632005000000918096884400000008500CRESCENT1 CUS0035197          02682502004519                M NADEEM                                                                             
013L5020210226004742051001000000738024586100000016000CRESCENT1 CUS0028633          02682502004742                C MKHOTYWA                                                                           
013L5020210226000671250655000000127327521500000007500CRESCENT1 CUS0045110          02682502000671                B MOHAMMED                                                                           
013L5020210226004366250655000006238836644500000008500CRESCENT1 CUS0024129          02682502004366                J JOOSUB DADA                                                                        
013L5020210226000718250655000006263142907200000008500CRESCENT1 CUS0027934          02682502000718                N MOGOTSI                                                                            
013L5020210226000928460005000000008432432600000016000CRESCENT1 CUS0018422          02682502000928                T KHASE                                                                              
013L5020210226004299632005000000405817488300000008500CRESCENT1 CUS0050051          02683002004299                Z CASSIMJEE                                                                          
013L5020210226006242250655000000622722445200000008500CRESCENT1 CUS0030139          02682502006242                D MKHOMZA                                                                            
013L5020210226003583250655000000508710892200000008500CRESCENT1 CUS0036735          02682502003583                S MORAT                                                                              
013L5020210226000484250655000006201762571300000016000CRESCENT1 CUS0045339          02682502000484                M CHOTHIA                                                                            
013L5020210226003089250655000006212913607600000008500CRESCENT1 CUS0018929          02682502003089                I RAVAT                                                                              
013L5020210226005541198765000000295254572700000008500CRESCENT1 CUS0024755          02682502005541                M NANABHAY                                                                           
013L5020210226000463051001000000010083611800000008500CRESCENT1 CUS0055711          02682502000463                D MARNEY                                                                             
013L5020210226000445051001000000100308217100000016000CRESCENT1 CUS0039651          02682502000445                B MITCHELLE                                                                          
013L5020210226003216051001000000265432540500000007500CRESCENT1 CUS0023556          02682502003216                A SHERIFF                                                                            
013L5020210226004815051001000000404800596300000007500CRESCENT1 CUS0021104          02682502004815                M DESAI                                                                              
013L5020210226002477632005000000409685489000000008500CRESCENT1 CUS0056254          02682502002477                Z DANTU                                                                              
013L5020210226001389632005000000906865229000000016000CRESCENT1 CUS0018502          02683002001389                A NOOAREY                                                                            
013L5020210226006217632005000000913363721600000007500CRESCENT1 CUS0030132          02683002006217                M PETERSEN                                                                           
013L5020210226004896051001000000560030827100000008500CRESCENT1 CUS0041574          02682502004896                M EBRAHIM                                                                            
013L5020210226000703051001000000062274618800000008500CRESCENT1 CUS0025772          02682502000703                A SHAIK                                                                              
013L5020210226003636470010000000119234193900000016000CRESCENT1 CUS0052282          02682502003636                A SMITH                                                                              
013L5020210226001760198765000000302389495300000008500CRESCENT1 CUS0046018          02682502001760                T BALLIM                                                                             
013L5020210226005294250655000006218868216300000008500CRESCENT1 CUS0035452          02682502005294                M BASHIR                                                                             
013L5020210226000921430000000001221323412300000008500CRESCENT1 CUS0034409          02682502000921                M TEST                                                                               
013L5020210226003835250655000006225062438500000016000CRESCENT1 CUS0047690          02682502003835                I ASCHENDORF                                                                         
013L5020210226004484198765000000101014142800000016000CRESCENT1 CUS0043083          02682502004484                N MOOI                                                                               
013L5020210226001796051001000000027232097300000008500CRESCENT1 CUS0039947          02682502001796                A ADAM                                                                               
013L5020210226001652470010000000424941534700000008500CRESCENT1 CUS0056033          02682502001652                N WILLIAMS                                                                           
013L5020210226005897470010000000136909306800000008500CRESCENT1 CUS0044943          02682502005897                N EBRAHIM                                                                            
013L5020210226001594198765000000195053059800000008500CRESCENT1 CUS0033437          02682502001594                S WILLIAMS                                                                           
013L5020210226002891198765000000290520760200000008500CRESCENT1 CUS0023208          02682502002891                Z CART                                                                               
013L5020210226000501250655000000620072120200000008500CRESCENT1 CUS0019844          02682502000501                S MAITLAND                                                                           
013L5020210226002310250655000006208972578200000008500CRESCENT1 CUS0046450          02682502002310                N KHAN                                                                               
013L5020210226000379250655000006210554216400000008500CRESCENT1 CUS0030357          02682502000379                B RAVAT                                                                              
013L5020210226001919051001000000221020512800000016000CRESCENT1 CUS0033740          02682502001919                A JARDIEN                                                                            
013L5020210226000983051001000000000137840100000008500CRESCENT1 CUS0026014          02682502000983                S BARTHIS                                                                            
013L5020210226006117250655000006278028183300000008500CRESCENT1 CUS0030104          02682502006117                S YOUSUF                                                                             
013L5020210226004670198765000000195825667300000008500CRESCENT1 CUS0037935          02682502004670                N ROSKIN                                                                             
013L5020210226004397470010000000127839131400000008500CRESCENT1 CUS0044360          02682502004397                N KINANA                                                                             
013L5020210226005497470010000000137227254600000008500CRESCENT1 CUS0044826          02682502005497                A ISMAIL                                                                             
013L5020210226004232632005000000912784212400000007500CRESCENT1 CUS0032164          02682502004232                M PRINCE                                                                             
013L5020210226003769198765000000928424681700000016000CRESCENT1 CUS0034878          02682502003769                L NDLOVU                                                                             
013L5020210226003794051001000000000150920300000008500CRESCENT1 CUS0034890          02682502003794                C MCYAK                                                                              
013L5020210226003992051001000000620845881000000008500CRESCENT1 CUS0028046          02682502003992                F AMEER                                                                              
013L5020210226005133470010000000127138661700000007500CRESCENT1 CUS0038250          02682502005133                A MOHAMED                                                                            
013L5020210226004165051001000000119903324100000008500CRESCENT1 CUS0020908          02682502004165                S SALIE                                                                              
013L5020210226006222198765000001009993813600000008500CRESCENT1 CUS0045083          02682502006222                R HANSEN                                                                             
013L5020210226001515800000000000786000412800000008500CRESCENT1 CUS0020126          02682502001515                S ABDUL RAHMAN                                                                       
013L5020210226000784632005000000919893475300000016000CRESCENT1 CUS0045541          02682502000784                M JELANI                                                                             
013L5020210226005439632005000000407948108600000008500CRESCENT1 CUS0019545          02682502005439                Z OMAR                                                                               
013L5020210226002467051001000000000291532100000008500CRESCENT1 CUS0026779          02682502002467                F MATTHEWS                                                                           
014L0000001130000000000000018632735743490000000114090000000000000000                                                                                                                                  
019L0000001900000000000000020575206294190000000194180000000000000000                                                                                                                                  
010LD237000013708                                                                                                                                                                                     
011LD23763200500000040945448920120210127                                                                                                                                                              
013L5020210127002016051001000000028228738800000017500CRESCENT1 CUS0054284          03400000000000                Z BRINKHUIS                                                                          
014L0000000010000000000000000002822873880000000001750000000000000000                                                                                                                                  
019L0000000010000000000000000002822873880000000001750000000000000000                                                                                                                                  
999L000000209                                                                                                                                                                                         
