000L2021042300000PAYPORT CONSULTING PTY LTD EFT000073007303                                                                                                                                           
010LD237000019201                                                                                                                                                                                     
011LD23763200500000040945448920120210325                                                                                                                                                              
013L5020210324000660470010000000123619151800000008500CRESCENT1 CUS0057790          03000000000000                M GAMIET                                                                             
014L0000000010000000000000000012361915180000000000850000000000000000                                                                                                                                  
011LD23763200500000040945448920120210421                                                                                                                                                              
013L5020210420000046800000000007860018915900000008500CRESCENT1 CUS0059735          00200000000000                A DINATH                                                                             
013L5020210420000311470010000000150543035400000016000CRESCENT1 CUS0055630          00200000000000                Q AJOUHAAR                                                                           
013L5020210420000347470010000000143792551900000008500CRESCENT1 CUS0057067          00600000000000                Y MUSTAPHA                                                                           
013L5020210420000012470010000000143734234300000008500CRESCENT1 CUS0058955          00200000000000                T LOSPER                                                                             
013L5020210420000327051001000001011891639200000008500CRESCENT1 CUS0056124          00200000000000                S HASSANGY                                                                           
013L5020210420000040470010000000137453407000000008500CRESCENT1 CUS0059500          00200000000000                K DAVIDS                                                                             
013L5020210420000213470010000000138079673100000016000CRESCENT1 CUS0051036          00200000000000                N DAVIDS                                                                             
013L5020210420000197800000000007860008637400000008500CRESCENT1 CUS0050541          00200000000000                M ADAMS                                                                              
013L5020210420000355470010000000156711557600000008500CRESCENT1 CUS0057162          00200000000000                N HERBERT                                                                            
013L5020210420000277470010000000156306484500000008500CRESCENT1 CUS0054401          00200000000000                S HOOSAIN                                                                            
013L5020210420000274051001000000003124281200000008500CRESCENT1 CUS0015929          00200000000000                S THOMPSON                                                                           
013L5020210420000284051001000000000898191400000023500CRESCENT1 CUS0017140          00400000000000                A CHRISTIAN                                                                          
013L5020210420000015470010000000130797936800000016000CRESCENT1 CUS0036620          00600000000000                K KIVIDO                                                                             
013L5020210420000041632005000000407961712700000008500CRESCENT1 CUS0037876          00292803000041                A NORDIEN                                                                            
013L5020210420000020470010000000149990089700000006900CRESCENT1 CUS0059076          00200000000000                M HARTLEY                                                                            
014L0000000150000000000000001845131234810000000016340000000000000000                                                                                                                                  
019L0000000160000000000000001857493149990000000017190000000000000000                                                                                                                                  
999L000000024                                                                                                                                                                                         
