000L2021052600000PAYPORT CONSULTING PTY LTD    000078207303                                                                                                                                           
900L000 TRANSMISSION 07303-0000111 ACCEPTED                                                                                                                                                           
900L001 ACB USER SET D237-0000117-003613 ACCEPTED                                                                                                                                                     
903L001L5063200504094544892D23700000163200504062023632100000008500210527350   CRESCENT1 CUS0019732          M ISMAIL SEEDAT               00000000000000000000                21                      
903L001L5063200504094544892D23700000263200509176241166100000016000210527350   CRESCENT1 CUS0021957          M TALIEP                      00000000000000000000                21                      
903L001L5063200504094544892D23700000305100100002547198100000016000210527350   CRESCENT1 CUS0025375          M TAYOB                       00000000000000000000                21                      
903L001L5063200504094544892D23700000425065562016634041100000008500210527350   CRESCENT1 CUS0030530          F BHABHA                      00000000000000000000                21                      
903L001L5063200504094544892D23700000505100100005322766100000008500210527350   CRESCENT1 CUS0033219          A ALI                         00000000000000000000                21                      
903L001L5063200504094544892D23700000619876502486051147200000016000210527350   CRESCENT1 CUS0036475          H MOHAMED                     00000000000000000000                21                      
903L001L5063200504094544892D23700000725065562057253545100000008500210527350   CRESCENT1 CUS0039584          K GANI                        00000000000000000000                21                      
903L001L5063200504094544892D23700000805100100220267863100000008500210527350   CRESCENT1 CUS0043075          A BISMIILA                    00000000000000000000                21                      
903L001L5063200504094544892D23700000925065562484694403100000016000210527350   CRESCENT1 CUS0046300          M BHYAT                       00000000000000000000                21                      
903L001L5063200504094544892D23700001063200509303950525100000016000210527350   CRESCENT1 CUS0049361          F ABADER                      00000000000000000000                21                      
903L001L5063200504094544892D23700001125065562599850982100000008500210527350   CRESCENT1 CUS0051858          D FISHER                      00000000000000000000                21                      
903L001L5063200504094544892D23700001263200509230229017100000008500210527350   CRESCENT1 CUS0054543          T DAWOOD                      00000000000000000000                21                      
903L001L5063200504094544892D23700001325065562721974641100000008500210527350   CRESCENT1 CUS0056858          A MARINUS                     00000000000000000000                21                      
903L001L5063200504094544892D23700001463200509346259520100000006900210527350   CRESCENT1 CUS0058904          F NUSTERDIEN                  00000000000000000000                21                      
903L001L5063200504094544892D23700001563200504048993380100000008500210527350   CRESCENT1 CUS0019735          S AHMED GANY                  00000000000000000000                21                      
903L001L5063200504094544892D23700001605100100332812553100000016000210527350   CRESCENT1 CUS0021960          A RAJAP                       00000000000000000000                21                      
903L001L5063200504094544892D23700001705100100032989814100000008500210527350   CRESCENT1 CUS0025382          F ABOOBAKER                   00000000000000000000                21                      
903L001L5063200504094544892D23700001819876501174949090100000008500210527350   CRESCENT1 CUS0030531          N MOOLLA                      00000000000000000000                21                      
903L001L5063200504094544892D23700001905100100270073434100000008500210527350   CRESCENT1 CUS0033220          R GARDER                      00000000000000000000                21                      
903L001L5063200504094544892D23700002019876501924295849100000008500210527350   CRESCENT1 CUS0036482          M KARANI                      00000000000000000000                21                      
903L001L5063200504094544892D23700002105100100021993769100000008500210527350   CRESCENT1 CUS0039614          R SULUMAN                     00000000000000000000                21                      
903L001L5063200504094544892D23700002205100100030105528100000008500210527350   CRESCENT1 CUS0043084          N ANVER                       00000000000000000000                21                      
903L001L5063200504094544892D23700002347001001157191566200000008500210527350   CRESCENT1 CUS0046348          J DAVIDS                      00000000000000000000                21                      
903L001L5063200504094544892D23700002425065562200278506100000008500210527350   CRESCENT1 CUS0049367          S JURGENS                     00000000000000000000                21                      
903L001L5063200504094544892D23700002519876501733014985100000008500210527350   CRESCENT1 CUS0051860          M SCHROEDER                   00000000000000000000                21                      
903L001L5063200504094544892D23700002605100100240422694100000008500210527350   CRESCENT1 CUS0054547          I ISAACS                      00000000000000000000                21                      
903L001L5063200504094544892D23700002705100110094942062100000016000210527350   CRESCENT1 CUS0056888          M RICHARDS                    00000000000000000000                21                      
903L001L5063200504094544892D23700002863200504056142884100000006900210527350   CRESCENT1 CUS0058905          A HENDRICKS                   00000000000000000000                21                      
903L001L5063200504094544892D23700002963200504092736314100000008500210527350   CRESCENT1 CUS0019744          M ANDERSON                    00000000000000000000                21                      
903L001L5063200504094544892D23700003005100100300478100100000016000210527350   CRESCENT1 CUS0021989          A SAHABODIEN                  00000000000000000000                21                      
903L001L5063200504094544892D23700003125065551080023877100000016000210527350   CRESCENT1 CUS0025388          A CASSIM                      00000000000000000000                21                      
903L001L5063200504094544892D23700003263200504088949024100000008500210527350   CRESCENT1 CUS0030532          R HOSAIN                      00000000000000000000                21                      
903L001L5063200504094544892D23700003363200509219483870100000008500210527350   CRESCENT1 CUS0033224          H AHMED                       00000000000000000000                21                      
903L001L5063200504094544892D23700003425065562067503865100000008500210527350   CRESCENT1 CUS0036483          A BANIEN                      00000000000000000000                21                      
903L001L5063200504094544892D23700003505100100012706965100000016000210527350   CRESCENT1 CUS0039620          A ABDOOL AZIZ                 00000000000000000000                21                      
903L001L5063200504094544892D23700003625065551669005535100000007500210527350   CRESCENT1 CUS0043111          A ASMAL                       00000000000000000000                21                      
903L001L5063200504094544892D23700003725065562071767100100000016000210527350   CRESCENT1 CUS0046349          F FREDERICKS                  00000000000000000000                21                      
903L001L5063200504094544892D23700003863200504056669816100000008500210527350   CRESCENT1 CUS0049371          S GALLIEM                     00000000000000000000                21                      
903L001L5063200504094544892D23700003919876501061003949100000008500210527350   CRESCENT1 CUS0051861          S KAPERY                      00000000000000000000                21                      
903L001L5063200504094544892D23700004063200509255440022100000008500210527350   CRESCENT1 CUS0054556          F OSMAN                       00000000000000000000                21                      
903L001L5063200504094544892D23700004147001001334867478200000008500210527350   CRESCENT1 CUS0056913          L JOHNSON                     00000000000000000000                21                      
903L001L5063200504094544892D23700004247001001213004436200000008500210527350   CRESCENT1 CUS0058907          N PARELSE                     00000000000000000000                21                      
903L001L5063200504094544892D23700004363200509186783694100000008500210527350   CRESCENT1 CUS0019747          T SOLOMAN                     00000000000000000000                21                      
903L001L5063200504094544892D23700004463200504047881497100000008500210527350   CRESCENT1 CUS0022003          J KHAN                        00000000000000000000                21                      
903L001L5063200504094544892D23700004519876501955100683100000008500210527350   CRESCENT1 CUS0025405          M RICHARDS                    00000000000000000000                21                      
903L001L5063200504094544892D23700004605100100331318075100000008500210527350   CRESCENT1 CUS0030536          C EBRAHIM                     00000000000000000000                21                      
903L001L5063200504094544892D23700004719876501037422252100000008500210527350   CRESCENT1 CUS0033245          T TAVARES                     00000000000000000000                21                      
903L001L5063200504094544892D23700004805100100002530813100000008500210527350   CRESCENT1 CUS0036500          M AHMED                       00000000000000000000                21                      
903L001L5063200504094544892D23700004963200504095016951100000008500210527350   CRESCENT1 CUS0039658          M ISMAIL                      00000000000000000000                21                      
903L001L5063200504094544892D23700005025065562192596305100000008500210527350   CRESCENT1 CUS0043127          J ALLAWOODEEN                 00000000000000000000                21                      
903L001L5063200504094544892D23700005180000001332454419200000008500210527350   CRESCENT1 CUS0046383          S SEEDAT                      00000000000000000000                21                      
903L001L5063200504094544892D23700005205100110064513198100000008500210527350   CRESCENT1 CUS0049391          A DAVIDS                      00000000000000000000                21                      
903L001L5063200504094544892D23700005305100100062650017100000008500210527350   CRESCENT1 CUS0051867          R AKHALWANG                   00000000000000000000                21                      
903L001L5063200504094544892D23700005405100100200294784100000008500210527350   CRESCENT1 CUS0054557          Z POCHEE                      00000000000000000000                21                      
903L001L5063200504094544892D23700005525065562310156634100000008500210527350   CRESCENT1 CUS0056915          T NAIDOO                      00000000000000000000                21                      
903L001L5063200504094544892D23700005605100100272133965100000006900210527350   CRESCENT1 CUS0058910          F TALIEP                      00000000000000000000                21                      
903L001L5063200504094544892D23700005705100100022438084100000007500210527350   CRESCENT1 CUS0019751          Y BHAM                        00000000000000000000                21                      
903L001L5063200504094544892D23700005819876501077215622100000016000210527350   CRESCENT1 CUS0022017          S SNYDERS                     00000000000000000000                21                      
903L001L5063200504094544892D23700005958010510011231095100000008500210527350   CRESCENT1 CUS0025442          K FAZEL                       00000000000000000000                21                      
903L001L5063200504094544892D23700006047001001243021053200000008500210527350   CRESCENT1 CUS0030540          D WALLJEE                     00000000000000000000                21                      
903L001L5063200504094544892D23700006125065562057284467100000008500210527350   CRESCENT1 CUS0033246          S HENDRICKS                   00000000000000000000                21                      
903L001L5063200504094544892D23700006263200509132320557100000016000210527350   CRESCENT1 CUS0036509          A LIVINGSTONE                 00000000000000000000                21                      
903L001L5063200504094544892D23700006319876501010071270100000016000210527350   CRESCENT1 CUS0039705          F JACOBS                      00000000000000000000                21                      
903L001L5063200504094544892D23700006405100100062026836100000016000210527350   CRESCENT1 CUS0043149          M BADROODEEN                  00000000000000000000                21                      
903L001L5063200504094544892D23700006525065562325908145100000008500210527350   CRESCENT1 CUS0046409          S KHAN                        00000000000000000000                21                      
903L001L5063200504094544892D23700006605100100302628460100000008500210527350   CRESCENT1 CUS0049403          Y MAHOMED                     00000000000000000000                21                      
903L001L5063200504094544892D23700006725065562368742336100000008500210527350   CRESCENT1 CUS0051868          F NAVSA                       00000000000000000000                21                      
903L001L5063200504094544892D23700006825065562052157023100000008500210527350   CRESCENT1 CUS0054561          M PHILLIPS                    00000000000000000000                21                      
903L001L5063200504094544892D23700006963200509323933125100000008500210527350   CRESCENT1 CUS0056928          F YON                         00000000000000000000                21                      
903L001L5063200504094544892D23700007025065562546510539100000006900210527350   CRESCENT1 CUS0058929          N SHAIKHNAG                   00000000000000000000                21                      
903L001L5063200504094544892D23700007125065562084148511100000008500210527350   CRESCENT1 CUS0019752          A PATEL                       00000000000000000000                21                      
903L001L5063200504094544892D23700007205100100137910797100000008500210527350   CRESCENT1 CUS0022019          M MANSOOR                     00000000000000000000                21                      
903L001L5063200504094544892D23700007363200504071464059100000008500210527350   CRESCENT1 CUS0025445          H LALOO-JANOO                 00000000000000000000                21                      
903L001L5063200504094544892D23700007463200504056440422100000008500210527350   CRESCENT1 CUS0030551          H KARREEM                     00000000000000000000                21                      
903L001L5063200504094544892D23700007547001001378293868200000022900210527350   CRESCENT1 CUS0033252          G SAFFODIEN                   00000000000000000000                21                      
903L001L5063200504094544892D23700007605100100000892092100000008500210527350   CRESCENT1 CUS0036529          S PATEL                       00000000000000000000                21                      
903L001L5063200504094544892D23700007719876502828009580200000008500210527350   CRESCENT1 CUS0039756          N MOOSA                       00000000000000000000                21                      
903L001L5063200504094544892D23700007825065551270023877100000008500210527350   CRESCENT1 CUS0043170          M SHAIK                       00000000000000000000                21                      
903L001L5063200504094544892D23700007925065555021137192100000008500210527350   CRESCENT1 CUS0046431          A SAYED                       00000000000000000000                21                      
903L001L5063200504094544892D23700008063200509045973768100000008500210527350   CRESCENT1 CUS0049406          S BENJAMIN                    00000000000000000000                21                      
903L001L5063200504094544892D23700008163200504087835676100000016000210527350   CRESCENT1 CUS0051898          F ALEXANDER                   00000000000000000000                21                      
903L001L5063200504094544892D23700008205100100082440336100000008500210527350   CRESCENT1 CUS0054578          M DU TOIT                     00000000000000000000                21                      
903L001L5063200504094544892D23700008347001001444378897200000008500210527350   CRESCENT1 CUS0056939          I ARENDSE                     00000000000000000000                21                      
903L001L5063200504094544892D23700008447001001738027269200000008500210527350   CRESCENT1 CUS0058994          R REDCLIFFE                   00000000000000000000                21                      
903L001L5063200504094544892D23700008505100100079015956100000016000210527350   CRESCENT1 CUS0019761          A SULAIMAN                    00000000000000000000                21                      
903L001L5063200504094544892D23700008625065562322878789100000008500210527350   CRESCENT1 CUS0022029          S SHAIKH                      00000000000000000000                21                      
903L001L5063200504094544892D23700008705100100003443485100000008500210527350   CRESCENT1 CUS0025447          S HUSSEIN                     00000000000000000000                21                      
903L001L5063200504094544892D23700008805100100080460720100000016000210527350   CRESCENT1 CUS0030554          E VAN VUGHT                   00000000000000000000                21                      
903L001L5063200504094544892D23700008925065562118294529100000008500210527350   CRESCENT1 CUS0033261          I VALLEE                      00000000000000000000                21                      
903L001L5063200504094544892D23700009019876501968350098100000016000210527350   CRESCENT1 CUS0036535          S MATHER                      00000000000000000000                21                      
903L001L5063200504094544892D23700009125065562164282354100000023500210527350   CRESCENT1 CUS0039769          L FAKI                        00000000000000000000                21                      
903L001L5063200504094544892D23700009225065562320446695100000016000210527350   CRESCENT1 CUS0043171          S KOKATAY                     00000000000000000000                21                      
903L001L5063200504094544892D23700009347001001395316773200000008500210527350   CRESCENT1 CUS0046440          M LIMALIA                     00000000000000000000                21                      
903L001L5063200504094544892D23700009425065562601922546100000008500210527350   CRESCENT1 CUS0049420          B MAKER                       00000000000000000000                21                      
903L001L5063200504094544892D23700009547001001327206844200000008500210527350   CRESCENT1 CUS0051910          T ADAMS                       00000000000000000000                21                      
903L001L5063200504094544892D23700009625065562541809622100000016000210527350   CRESCENT1 CUS0054587          A TAMBAY                      00000000000000000000                21                      
903L001L5063200504094544892D23700009747001001367367350200000008500210527350   CRESCENT1 CUS0056945          F SOLOMONS                    00000000000000000000                21                      
903L001L5063200504094544892D23700009819876501152033255100000016000210527350   CRESCENT1 CUS0059009          A DAMON                       00000000000000000000                21                      
903L001L5063200504094544892D23700009919876501009551019100000008500210527350   CRESCENT1 CUS0019762          W MARTIN                      00000000000000000000                21                      
903L001L5063200504094544892D23700010063200504066036409100000008500210527350   CRESCENT1 CUS0022032          S VARIYAWA                    00000000000000000000                21                      
903L001L5063200504094544892D23700010119876501955136254100000008500210527350   CRESCENT1 CUS0025452          S JARDINE                     00000000000000000000                21                      
903L001L5063200504094544892D23700010225065562292525618100000008500210527350   CRESCENT1 CUS0030562          O AHMED BAKER                 00000000000000000000                21                      
903L001L5063200504094544892D23700010319876501337151270100000016000210527350   CRESCENT1 CUS0033270          A SHERIFF                     00000000000000000000                21                      
903L001L5063200504094544892D23700010463200504068808882100000008500210527350   CRESCENT1 CUS0036538          S ABOOBAKER                   00000000000000000000                21                      
903L001L5063200504094544892D23700010525065562338296826100000008500210527350   CRESCENT1 CUS0039775          Y  KHAN                       00000000000000000000                21                      
903L001L5063200504094544892D23700010625065562013719664100000008500210527350   CRESCENT1 CUS0043176          N CARELSE                     00000000000000000000                21                      
903L001L5063200504094544892D23700010719876502253020109200000008500210527350   CRESCENT1 CUS0046447          M FARRATH                     00000000000000000000                21                      
903L001L5063200504094544892D23700010805100100002752395100000008500210527350   CRESCENT1 CUS0049423          B MAHOMED                     00000000000000000000                21                      
903L001L5063200504094544892D23700010905100100301354308100000008500210527350   CRESCENT1 CUS0051924          R WILLIAMS                    00000000000000000000                21                      
903L001L5063200504094544892D23700011005100100202710505100000008500210527350   CRESCENT1 CUS0054590          J JANTJIES                    00000000000000000000                21                      
903L001L5063200504094544892D23700011105100110107386745100000008500210527350   CRESCENT1 CUS0056949          S LEEMAN                      00000000000000000000                21                      
903L001L5063200504094544892D23700011205100100276680014100000008500210527350   CRESCENT1 CUS0059019          M BROWN                       00000000000000000000                21                      
903L001L5063200504094544892D23700011305100100072907207100000008500210527350   CRESCENT1 CUS0019765          G MAJIED                      00000000000000000000                21                      
903L001L5063200504094544892D23700011463200504071172313100000008500210527350   CRESCENT1 CUS0022034          F KHARWA                      00000000000000000000                21                      
903L001L5063200504094544892D23700011525065554939017454100000008500210527350   CRESCENT1 CUS0025485          S PATEL                       00000000000000000000                21                      
903L001L5063200504094544892D23700011619876501012079104100000008500210527350   CRESCENT1 CUS0030575          S MUHAMMAD-SALIM              00000000000000000000                21                      
903L001L5063200504094544892D23700011763200509226902558100000007500210527350   CRESCENT1 CUS0033271          M VARACHIA                    00000000000000000000                21                      
903L001L5063200504094544892D23700011805100100401041603100000015000210527350   CRESCENT1 CUS0036550          M KHAN                        00000000000000000000                21                      
903L001L5063200504094544892D23700011905100100060152109100000008500210527350   CRESCENT1 CUS0039781          Z PARAK                       00000000000000000000                21                      
903L001L5063200504094544892D23700012005100100002553821100000008500210527350   CRESCENT1 CUS0043177          M KAROLIA                     00000000000000000000                21                      
903L001L5063200504094544892D23700012125065562097178795100000008500210527350   CRESCENT1 CUS0046471          R VAWDA                       00000000000000000000                21                      
903L001L5063200504094544892D23700012225065562360895969100000008500210527350   CRESCENT1 CUS0049424          S SULEMAN                     00000000000000000000                21                      
903L001L5063200504094544892D23700012325065562323201038100000008500210527350   CRESCENT1 CUS0051928          S JACOBS                      00000000000000000000                21                      
903L001L5063200504094544892D23700012405100100302232311200000008500210527350   CRESCENT1 CUS0054598          R NOBLES                      00000000000000000000                21                      
903L001L5063200504094544892D23700012525065562210346319100000016000210527350   CRESCENT1 CUS0056962          A SOLOMON                     00000000000000000000                21                      
903L001L5063200504094544892D23700012647001001486841714200000008500210527350   CRESCENT1 CUS0059020          F JOHNSON                     00000000000000000000                21                      
903L001L5063200504094544892D23700012719876501372110690100000008500210527350   CRESCENT1 CUS0019767          J ESSA                        00000000000000000000                21                      
903L001L5063200504094544892D23700012825065562112059367100000007500210527350   CRESCENT1 CUS0022042          S CASSIM                      00000000000000000000                21                      
903L001L5063200504094544892D23700012963200500711325859100000008500210527350   CRESCENT1 CUS0025496          A VAN NIEKERK                 00000000000000000000                21                      
903L001L5063200504094544892D23700013025065562107891089100000008500210527350   CRESCENT1 CUS0030590          N RAWAT                       00000000000000000000                21                      
903L001L5063200504094544892D23700013119876501979249520100000016000210527350   CRESCENT1 CUS0033274          M DANGAR                      00000000000000000000                21                      
903L001L5063200504094544892D23700013205100100200692216100000007500210527350   CRESCENT1 CUS0036562          B IBRAHIM                     00000000000000000000                21                      
903L001L5063200504094544892D23700013305100110094437791100000008500210527350   CRESCENT1 CUS0039854          A JOOSUB                      00000000000000000000                21                      
903L001L5063200504094544892D23700013405100100310933927100000008500210527350   CRESCENT1 CUS0043182          F EDWARDS                     00000000000000000000                21                      
903L001L5063200504094544892D23700013525065551330120381100000016000210527350   CRESCENT1 CUS0046473          N GANIEF                      00000000000000000000                21                      
903L001L5063200504094544892D23700013625065554930029606100000008500210527350   CRESCENT1 CUS0049454          G AMLAY                       00000000000000000000                21                      
903L001L5063200504094544892D23700013725065562880410825100000008500210527350   CRESCENT1 CUS0051936          N HENDRICKS                   00000000000000000000                21                      
903L001L5063200504094544892D23700013847001001415076446200000008500210527350   CRESCENT1 CUS0054619          A SOLOMONS                    00000000000000000000                21                      
903L001L5063200504094544892D23700013947001001243042190200000008500210527350   CRESCENT1 CUS0056963          Z NOORDIEN                    00000000000000000000                21                      
903L001L5063200504094544892D23700014005100100050268406100000006900210527350   CRESCENT1 CUS0059021          R RAMNATH                     00000000000000000000                21                      
903L001L5063200504094544892D23700014125065562031079842100000008500210527350   CRESCENT1 CUS0019773          S HOOSAIN                     00000000000000000000                21                      
903L001L5063200504094544892D23700014263200509090707039100000008500210527350   CRESCENT1 CUS0022061          F DARSOT                      00000000000000000000                21                      
903L001L5063200504094544892D23700014325065562059954539100000016000210527350   CRESCENT1 CUS0025596          M SALIM MOHAMED               00000000000000000000                21                      
903L001L5063200504094544892D23700014405100100052601277100000008500210527350   CRESCENT1 CUS0030591          A KHAN                        00000000000000000000                21                      
903L001L5063200504094544892D23700014505100100070432945100000008500210527350   CRESCENT1 CUS0033284          S PARKER                      00000000000000000000                21                      
903L001L5063200504094544892D23700014619876501953434886100000008500210527350   CRESCENT1 CUS0036567          A TIMOL                       00000000000000000000                21                      
903L001L5063200504094544892D23700014719876501008624985100000008500210527350   CRESCENT1 CUS0039894          E MAHAMED                     00000000000000000000                21                      
903L001L5063200504094544892D23700014880000078600047540200000008500210527350   CRESCENT1 CUS0043194          H ABOO                        00000000000000000000                21                      
903L001L5063200504094544892D23700014905100100303307110100000008500210527350   CRESCENT1 CUS0046483          H GUTTA                       00000000000000000000                21                      
903L001L5063200504094544892D23700015063200509289935695100000008500210527350   CRESCENT1 CUS0049460          R PHILLIPS                    00000000000000000000                21                      
903L001L5063200504094544892D23700015105100100070874468100000008500210527350   CRESCENT1 CUS0051946          F JAVED ASLAM                 00000000000000000000                21                      
903L001L5063200504094544892D23700015247001001326359957200000016000210527350   CRESCENT1 CUS0054621          M ABRAHAM                     00000000000000000000                21                      
903L001L5063200504094544892D23700015347001001614656868200000008500210527350   CRESCENT1 CUS0056966          K JAFIELDIEN                  00000000000000000000                21                      
903L001L5063200504094544892D23700015463200509313729613100000008500210527350   CRESCENT1 CUS0059023          H MOHAMED                     00000000000000000000                21                      
903L001L5063200504094544892D23700015505100100011444053100000008500210527350   CRESCENT1 CUS0019777          M GANI                        00000000000000000000                21                      
903L001L5063200504094544892D23700015605100100009042792100000008500210527350   CRESCENT1 CUS0022080          A MAYER                       00000000000000000000                21                      
903L001L5063200504094544892D23700015705100100001547267100000008500210527350   CRESCENT1 CUS0025611          Y PATEL                       00000000000000000000                21                      
903L001L5063200504094544892D23700015805100100020646186100000008500210527350   CRESCENT1 CUS0030592          M SULTAN BEG                  00000000000000000000                21                      
903L001L5063200504094544892D23700015905100110036536316100000008500210527350   CRESCENT1 CUS0033293          A VAWDA                       00000000000000000000                21                      
903L001L5063200504094544892D23700016025065562391850809100000008500210527350   CRESCENT1 CUS0036579          A AWALDIEN                    00000000000000000000                21                      
903L001L5063200504094544892D23700016125065562288925301100000016000210527350   CRESCENT1 CUS0039940          B SALOOJEE                    00000000000000000000                21                      
903L001L5063200504094544892D23700016247001001375749054200000008500210527350   CRESCENT1 CUS0043203          S GANIEF                      00000000000000000000                21                      
903L001L5063200504094544892D23700016325065562074157895100000008500210527350   CRESCENT1 CUS0046486          F VAWDA                       00000000000000000000                21                      
903L001L5063200504094544892D23700016447001001391819525200000008500210527350   CRESCENT1 CUS0049478          S ABSALON WILLIAMS            00000000000000000000                21                      
903L001L5063200504094544892D23700016525065562050247438100000006900210527350   CRESCENT1 CUS0051953          A KARIM                       00000000000000000000                21                      
903L001L5063200504094544892D23700016605100100042978580100000008500210527350   CRESCENT1 CUS0054634          I JACOBS                      00000000000000000000                21                      
903L001L5063200504094544892D23700016747001001347747115200000008500210527350   CRESCENT1 CUS0056968          M FELES                       00000000000000000000                21                      
903L001L5063200504094544892D23700016863200509314355776100000008500210527350   CRESCENT1 CUS0059025          M DAVIDS                      00000000000000000000                21                      
903L001L5063200504094544892D23700016925065562012861888100000016000210527350   CRESCENT1 CUS0019788          A MAYAT                       00000000000000000000                21                      
903L001L5063200504094544892D23700017025065553359007863100000008500210527350   CRESCENT1 CUS0022082          B MANOOR MOHAMED              00000000000000000000                21                      
903L001L5063200504094544892D23700017163200509091079974100000008500210527350   CRESCENT1 CUS0025624          E ADAMS                       00000000000000000000                21                      
903L001L5063200504094544892D23700017205100100063343789100000008500210527350   CRESCENT1 CUS0030604          T HOOSEN                      00000000000000000000                21                      
903L001L5063200504094544892D23700017319876501956741348100000008500210527350   CRESCENT1 CUS0033296          Z LOKHAT                      00000000000000000000                21                      
903L001L5063200504094544892D23700017463200504051570795100000008500210527350   CRESCENT1 CUS0036606          A KARIM                       00000000000000000000                21                      
903L001L5063200504094544892D23700017519876501137461748100000008500210527350   CRESCENT1 CUS0039944          F MOHAMMED                    00000000000000000000                21                      
903L001L5063200504094544892D23700017663200509155635848100000008500210527350   CRESCENT1 CUS0043204          K HOOSEN                      00000000000000000000                21                      
903L001L5063200504094544892D23700017725065562293463916100000008500210527350   CRESCENT1 CUS0046493          A BAKERH                      00000000000000000000                21                      
903L001L5063200504094544892D23700017819876501135484430100000008500210527350   CRESCENT1 CUS0049483          T LATIEF                      00000000000000000000                21                      
903L001L5063200504094544892D23700017947001001477630692200000008500210527350   CRESCENT1 CUS0051964          Z MAHOMED                     00000000000000000000                21                      
903L001L5063200504094544892D23700018019876501192274261100000008500210527350   CRESCENT1 CUS0054636          N CADER                       00000000000000000000                21                      
903L001L5063200504094544892D23700018119876501079060499100000008500210527350   CRESCENT1 CUS0056972          F FORTUNE                     00000000000000000000                21                      
903L001L5063200504094544892D23700018247001001228127512200000008500210527350   CRESCENT1 CUS0059026          A HASSEN ALLY                 00000000000000000000                21                      
903L001L5063200504094544892D23700018325065562116658355100000008500210527350   CRESCENT1 CUS0019796          F CASSIM                      00000000000000000000                21                      
903L001L5063200504094544892D23700018419876501002278953100000008500210527350   CRESCENT1 CUS0022119          A HUSSEIN-EL-KOUT             00000000000000000000                21                      
903L001L5063200504094544892D23700018525065562119506866100000008500210527350   CRESCENT1 CUS0025646          O POONJANI                    00000000000000000000                21                      
903L001L5063200504094544892D23700018647001001542316918200000016000210527350   CRESCENT1 CUS0030612          R VAHED                       00000000000000000000                21                      
903L001L5063200504094544892D23700018719876501047031973100000008500210527350   CRESCENT1 CUS0033298          R EBRAHIM                     00000000000000000000                21                      
903L001L5063200504094544892D23700018825065562087994292100000008500210527350   CRESCENT1 CUS0036625          I LIMBADA                     00000000000000000000                21                      
903L001L5063200504094544892D23700018905100100272320973100000008500210527350   CRESCENT1 CUS0039947          A ADAM                        00000000000000000000                21                      
903L001L5063200504094544892D23700019070150513311406477200000016000210527350   CRESCENT1 CUS0043213          F CASSIM                      00000000000000000000                21                      
903L001L5063200504094544892D23700019163200504075131377100000008500210527350   CRESCENT1 CUS0046503          F ADAMS                       00000000000000000000                21                      
903L001L5063200504094544892D23700019205100110076709521100000008500210527350   CRESCENT1 CUS0049485          W SALIE                       00000000000000000000                21                      
903L001L5063200504094544892D23700019325065562458157338100000008500210527350   CRESCENT1 CUS0051965          N BEJJ                        00000000000000000000                21                      
903L001L5063200504094544892D23700019463200504083455612100000008500210527350   CRESCENT1 CUS0054639          M SCHROEDER                   00000000000000000000                21                      
903L001L5063200504094544892D23700019547001001542155108200000008500210527350   CRESCENT1 CUS0056981          Y ADAMS                       00000000000000000000                21                      
903L001L5063200504094544892D23700019605100100073768456100000008500210527350   CRESCENT1 CUS0059031          F JUMAT                       00000000000000000000                21                      
903L001L5063200504094544892D23700019725065562449617094100000008500210527350   CRESCENT1 CUS0019800          F OMAR                        00000000000000000000                21                      
903L001L5063200504094544892D23700019825065562080310619100000008500210527350   CRESCENT1 CUS0022121          C MANSOOR                     00000000000000000000                21                      
903L001L5063200504094544892D23700019905100100302300082100000008500210527350   CRESCENT1 CUS0025672          K HOOSAIN                     00000000000000000000                21                      
903L001L5063200504094544892D23700020025065562105398095100000008500210527350   CRESCENT1 CUS0030627          M RAHIMAN                     00000000000000000000                21                      
903L001L5063200504094544892D23700020125065562048341292100000008500210527350   CRESCENT1 CUS0033319          A BHAMJEE                     00000000000000000000                21                      
903L001L5063200504094544892D23700020219876501075306124100000008500210527350   CRESCENT1 CUS0036631          T HAFFEJEE                    00000000000000000000                21                      
903L001L5063200504094544892D23700020363200504080292554100000008500210527350   CRESCENT1 CUS0039985          S ESSOP                       00000000000000000000                21                      
903L001L5063200504094544892D23700020405100110049914713100000008500210527350   CRESCENT1 CUS0043217          S PEERBHAI                    00000000000000000000                21                      
903L001L5063200504094544892D23700020563200509042171262100000007500210527350   CRESCENT1 CUS0046530          G SIMON                       00000000000000000000                21                      
903L001L5063200504094544892D23700020625065550010015234100000008500210527350   CRESCENT1 CUS0049491          G AMANSURE                    00000000000000000000                21                      
903L001L5063200504094544892D23700020705100100004870018100000008500210527350   CRESCENT1 CUS0051966          F ABDOOL                      00000000000000000000                21                      
903L001L5063200504094544892D23700020805100100072030666100000008500210527350   CRESCENT1 CUS0054650          A ISAACS                      00000000000000000000                21                      
903L001L5063200504094544892D23700020963200504077433474100000008500210527350   CRESCENT1 CUS0056987          R ZOUTENBERG                  00000000000000000000                21                      
903L001L5063200504094544892D23700021041014251129116062200000008500210527350   CRESCENT1 CUS0059034          J STEVEN                      00000000000000000000                21                      
903L001L5063200504094544892D23700021163200500129725397100000008500210527350   CRESCENT1 CUS0019801          F LAWRENCE                    00000000000000000000                21                      
903L001L5063200504094544892D23700021219876501138921408100000016000210527350   CRESCENT1 CUS0022122          J MOSES                       00000000000000000000                21                      
903L001L5063200504094544892D23700021363200501060821891100000007500210527350   CRESCENT1 CUS0025674          M KAMALDIEN                   00000000000000000000                21                      
903L001L5063200504094544892D23700021425065562763153823100000023500210527350   CRESCENT1 CUS0030663          C DAWJEE                      00000000000000000000                21                      
903L001L5063200504094544892D23700021525065562149035439100000008500210527350   CRESCENT1 CUS0033321          J JEEWA                       00000000000000000000                21                      
903L001L5063200504094544892D23700021625065551011403551100000008500210527350   CRESCENT1 CUS0036656          A AMOD                        00000000000000000000                21                      
903L001L5063200504094544892D23700021725065560026998895100000007500210527350   CRESCENT1 CUS0039989          S SAMUELS                     00000000000000000000                21                      
903L001L5063200504094544892D23700021847001001582749548200000016000210527350   CRESCENT1 CUS0043225          M HENDRICKS                   00000000000000000000                21                      
903L001L5063200504094544892D23700021905100100009349367100000007500210527350   CRESCENT1 CUS0046531          H MAJID                       00000000000000000000                21                      
903L001L5063200504094544892D23700022005100100071658408100000016000210527350   CRESCENT1 CUS0049496          R HASHIM                      00000000000000000000                21                      
903L001L5063200504094544892D23700022147001001315297165200000008500210527350   CRESCENT1 CUS0051975          R FAGODIEN                    00000000000000000000                21                      
903L001L5063200504094544892D23700022225065562019234319100000008500210527350   CRESCENT1 CUS0054657          A ABRAHAMS                    00000000000000000000                21                      
903L001L5063200504094544892D23700022319876501178928500100000008500210527350   CRESCENT1 CUS0057025          F JACOBS                      00000000000000000000                21                      
903L001L5063200504094544892D23700022441014251109933251200000016000210527350   CRESCENT1 CUS0059037          C MILAMBE                     00000000000000000000                21                      
903L001L5063200504094544892D23700022505100100401272087100000008500210527350   CRESCENT1 CUS0019804          H MOOSA RANGILA               00000000000000000000                21                      
903L001L5063200504094544892D23700022619876501089456867100000016000210527350   CRESCENT1 CUS0022124          C MOSES                       00000000000000000000                21                      
903L001L5063200504094544892D23700022705100100622746188100000008500210527350   CRESCENT1 CUS0025772          A SHAIK                       00000000000000000000                21                      
903L001L5063200504094544892D23700022863200504073757785100000008500210527350   CRESCENT1 CUS0030668          G RAILOUN                     00000000000000000000                21                      
903L001L5063200504094544892D23700022925065560136253668100000016000210527350   CRESCENT1 CUS0033368          C DAMINGO                     00000000000000000000                21                      
903L001L5063200504094544892D23700023063200509191443916100000008500210527350   CRESCENT1 CUS0036678          Z ADAM BODA                   00000000000000000000                21                      
903L001L5063200504094544892D23700023147001001336293452100000008500210527350   CRESCENT1 CUS0039999          F RASOOL                      00000000000000000000                21                      
903L001L5063200504094544892D23700023219876501219008729100000008500210527350   CRESCENT1 CUS0043232          F ESSACK                      00000000000000000000                21                      
903L001L5063200504094544892D23700023363200504053214797100000007500210527350   CRESCENT1 CUS0046536          S KAROLIA                     00000000000000000000                21                      
903L001L5063200504094544892D23700023419876501127601970100000008500210527350   CRESCENT1 CUS0049502          W JOUBERT                     00000000000000000000                21                      
903L001L5063200504094544892D23700023525065562139616752100000008500210527350   CRESCENT1 CUS0051976          M RYLAND                      00000000000000000000                21                      
903L001L5063200504094544892D23700023625065562581285634100000008500210527350   CRESCENT1 CUS0054658          I SAMSODIEN                   00000000000000000000                21                      
903L001L5063200504094544892D23700023725065562186222007100000008500210527350   CRESCENT1 CUS0057030          Z MOHAMED                     00000000000000000000                21                      
903L001L5063200504094544892D23700023819876501098695836100000006900210527350   CRESCENT1 CUS0059041          A SALIE                       00000000000000000000                21                      
903L001L5063200504094544892D23700023919876501651349347100000016000210527350   CRESCENT1 CUS0019810          N MOOSA                       00000000000000000000                21                      
903L001L5063200504094544892D23700024025065560130492709100000016000210527350   CRESCENT1 CUS0022131          F SALEY                       00000000000000000000                21                      
903L001L5063200504094544892D23700024125065562630733295100000008500210527350   CRESCENT1 CUS0025777          Z MOOLA                       00000000000000000000                21                      
903L001L5063200504094544892D23700024225065560042313803100000008500210527350   CRESCENT1 CUS0030673          M ANVER                       00000000000000000000                21                      
903L001L5063200504094544892D23700024325065562230844830100000008500210527350   CRESCENT1 CUS0033369          M ISMAIL                      00000000000000000000                21                      
903L001L5063200504094544892D23700024463200504067400665100000008500210527350   CRESCENT1 CUS0036679          M DANIELS                     00000000000000000000                21                      
903L001L5063200504094544892D23700024525065562279165544100000008500210527350   CRESCENT1 CUS0040000          K MOIDEEN                     00000000000000000000                21                      
903L001L5063200504094544892D23700024663200504076243977100000008500210527350   CRESCENT1 CUS0043250          I GOOLAM                      00000000000000000000                21                      
903L001L5063200504094544892D23700024725065555280094977100000007500210527350   CRESCENT1 CUS0046537          A JASSAT                      00000000000000000000                21                      
903L001L5063200504094544892D23700024863200509248943091100000008500210527350   CRESCENT1 CUS0049518          S PHANBHAYA                   00000000000000000000                21                      
903L001L5063200504094544892D23700024919876502486087850200000006900210527350   CRESCENT1 CUS0051979          M CASSIM                      00000000000000000000                21                      
903L001L5063200504094544892D23700025005100100077798112100000007500210527350   CRESCENT1 CUS0054665          A ISAACS                      00000000000000000000                21                      
903L001L5063200504094544892D23700025125065551330120406100000008500210527350   CRESCENT1 CUS0057034          R JAMES                       00000000000000000000                21                      
903L001L5063200504094544892D23700025225065562681977719100000008500210527350   CRESCENT1 CUS0059048          Z PANDY                       00000000000000000000                21                      
903L001L5063200504094544892D23700025325065562008520828100000008500210527350   CRESCENT1 CUS0019811          F KATKODIA                    00000000000000000000                21                      
903L001L5063200504094544892D23700025405100100019013000100000008500210527350   CRESCENT1 CUS0022135          N RAHIM                       00000000000000000000                21                      
903L001L5063200504094544892D23700025519876501953459145100000008500210527350   CRESCENT1 CUS0025828          F PECK                        00000000000000000000                21                      
903L001L5063200504094544892D23700025663200504046291340100000016000210527350   CRESCENT1 CUS0030709          M SHAIK                       00000000000000000000                21                      
903L001L5063200504094544892D23700025725065562391980812100000008500210527350   CRESCENT1 CUS0033395          F BARNES                      00000000000000000000                21                      
903L001L5063200504094544892D23700025825065550371108299100000016000210527350   CRESCENT1 CUS0036682          J SAKILDIEN                   00000000000000000000                21                      
903L001L5063200504094544892D23700025925065562246697413100000008500210527350   CRESCENT1 CUS0040001          M KHOTA                       00000000000000000000                21                      
903L001L5063200504094544892D23700026019876501939054834100000008500210527350   CRESCENT1 CUS0043263          J SULIMAN                     00000000000000000000                21                      
903L001L5063200504094544892D23700026125065562218553148100000016000210527350   CRESCENT1 CUS0046559          M ABRAHAMS                    00000000000000000000                21                      
903L001L5063200504094544892D23700026219876501457712911100000008500210527350   CRESCENT1 CUS0049522          S JAMAL                       00000000000000000000                21                      
903L001L5063200504094544892D23700026319876501151007277100000008500210527350   CRESCENT1 CUS0051980          M HASSEN                      00000000000000000000                21                      
903L001L5063200504094544892D23700026425065562553807622100000008500210527350   CRESCENT1 CUS0054716          M SOEKER                      00000000000000000000                21                      
903L001L5063200504094544892D23700026547001001447112774200000008500210527350   CRESCENT1 CUS0057036          G FROUDE                      00000000000000000000                21                      
903L001L5063200504094544892D23700026605100110134669841100000016000210527350   CRESCENT1 CUS0059049          R PALMER                      00000000000000000000                21                      
903L001L5063200504094544892D23700026725065555290391701100000008500210527350   CRESCENT1 CUS0019816          S CARRIM                      00000000000000000000                21                      
903L001L5063200504094544892D23700026863200504059898515100000008500210527350   CRESCENT1 CUS0022152          S OSMAN                       00000000000000000000                21                      
903L001L5063200504094544892D23700026963200509298666277100000008500210527350   CRESCENT1 CUS0025850          R DEPAUW                      00000000000000000000                21                      
903L001L5063200504094544892D23700027063200504076787428100000016000210527350   CRESCENT1 CUS0030711          H WALLJEE                     00000000000000000000                21                      
903L001L5063200504094544892D23700027105100100001712616100000008500210527350   CRESCENT1 CUS0033396          H MOTAN                       00000000000000000000                21                      
903L001L5063200504094544892D23700027225065562019780990100000008500210527350   CRESCENT1 CUS0036686          F ALLY                        00000000000000000000                21                      
903L001L5063200504094544892D23700027325065562378386372100000008500210527350   CRESCENT1 CUS0040026          Z DILJAN                      00000000000000000000                21                      
903L001L5063200504094544892D23700027425065562599907527100000008500210527350   CRESCENT1 CUS0043272          N JACOBS                      00000000000000000000                21                      
903L001L5063200504094544892D23700027563200504088626529100000008500210527350   CRESCENT1 CUS0046575          F GANI                        00000000000000000000                21                      
903L001L5063200504094544892D23700027663200509101892644100000008500210527350   CRESCENT1 CUS0049528          S MUKUDEM                     00000000000000000000                21                      
903L001L5063200504094544892D23700027705100100070904359100000008500210527350   CRESCENT1 CUS0051982          M HALIM                       00000000000000000000                21                      
903L001L5063200504094544892D23700027847001001432036635200000006900210527350   CRESCENT1 CUS0054721          G STEGMANN                    00000000000000000000                21                      
903L001L5063200504094544892D23700027925065562461601413100000008500210527350   CRESCENT1 CUS0057038          M MOSES                       00000000000000000000                21                      
903L001L5063200504094544892D23700028047001001712012361200000008500210527350   CRESCENT1 CUS0059050          J MOSES                       00000000000000000000                21                      
903L001L5063200504094544892D23700028163200504069657139100000008500210527350   CRESCENT1 CUS0019827          L RAMJAIN                     00000000000000000000                21                      
903L001L5063200504094544892D23700028263200509199681683100000006900210527350   CRESCENT1 CUS0022160          Y DADABHAY                    00000000000000000000                21                      
903L001L5063200504094544892D23700028305100100255262752100000008500210527350   CRESCENT1 CUS0025873          R PARUK                       00000000000000000000                21                      
903L001L5063200504094544892D23700028425065560629014270100000008500210527350   CRESCENT1 CUS0030742          R SAFEDIEN                    00000000000000000000                21                      
903L001L5063200504094544892D23700028505100100012980951100000016000210527350   CRESCENT1 CUS0033410          F PATEL                       00000000000000000000                21                      
903L001L5063200504094544892D23700028605100100003431452100000008500210527350   CRESCENT1 CUS0036688          S JHATAM                      00000000000000000000                21                      
903L001L5063200504094544892D23700028725065562050507593100000008500210527350   CRESCENT1 CUS0040027          R KARRIM                      00000000000000000000                21                      
903L001L5063200504094544892D23700028825065562178081974100000008500210527350   CRESCENT1 CUS0043274          T CASSIM                      00000000000000000000                21                      
903L001L5063200504094544892D23700028925065562478687985100000008500210527350   CRESCENT1 CUS0046593          M SAYED                       00000000000000000000                21                      
903L001L5063200504094544892D23700029025065562019138941100000008500210527350   CRESCENT1 CUS0049530          Z DAVIDS                      00000000000000000000                21                      
903L001L5063200504094544892D23700029125065560220374289100000008500210527350   CRESCENT1 CUS0051998          R CASSIM                      00000000000000000000                21                      
903L001L5063200504094544892D23700029280000078600085360200000008500210527350   CRESCENT1 CUS0054738          S MARTIN                      00000000000000000000                21                      
903L001L5063200504094544892D23700029347001001209249985200000008500210527350   CRESCENT1 CUS0057039          S MANUEL                      00000000000000000000                21                      
903L001L5063200504094544892D23700029463200509293862858100000008500210527350   CRESCENT1 CUS0059058          F MAJIET                      00000000000000000000                21                      
903L001L5063200504094544892D23700029519876501019304278100000008500210527350   CRESCENT1 CUS0019831          N NACKERDIEN                  00000000000000000000                21                      
903L001L5063200504094544892D23700029605100100062897292100000008500210527350   CRESCENT1 CUS0022172          J SHAIK                       00000000000000000000                21                      
903L001L5063200504094544892D23700029763200538105761926100000008500210527350   CRESCENT1 CUS0025889          S BAGUS                       00000000000000000000                21                      
903L001L5063200504094544892D23700029805100100272097179100000008500210527350   CRESCENT1 CUS0030764          S FISCHER                     00000000000000000000                21                      
903L001L5063200504094544892D23700029963200504050271338100000008500210527350   CRESCENT1 CUS0033421          Y ESSAY                       00000000000000000000                21                      
903L001L5063200504094544892D23700030025065562229724233100000008500210527350   CRESCENT1 CUS0036706          M MANSOOR                     00000000000000000000                21                      
903L001L5063200504094544892D23700030105100100058246967100000008500210527350   CRESCENT1 CUS0040029          F MOOSA                       00000000000000000000                21                      
903L001L5063200504094544892D23700030225065562109492877100000008500210527350   CRESCENT1 CUS0043285          F HENDRICKS                   00000000000000000000                21                      
903L001L5063200504094544892D23700030325065562443025970100000023500210527350   CRESCENT1 CUS0046597          A BATHIA                      00000000000000000000                21                      
903L001L5063200504094544892D23700030425065562369238540100000016000210527350   CRESCENT1 CUS0049541          M CARRIEM                     00000000000000000000                21                      
903L001L5063200504094544892D23700030525065562363665442100000008500210527350   CRESCENT1 CUS0052004          M SMILE                       00000000000000000000                21                      
903L001L5063200504094544892D23700030605100100242603009100000008500210527350   CRESCENT1 CUS0054790          Y MAYET                       00000000000000000000                21                      
903L001L5063200504094544892D23700030705100100274051214100000008500210527350   CRESCENT1 CUS0057042          F KARIEM                      00000000000000000000                21                      
903L001L5063200504094544892D23700030847001001364928718200000008500210527350   CRESCENT1 CUS0059065          A LEONARD                     00000000000000000000                21                      
903L001L5063200504094544892D23700030963200504055328659100000008500210527350   CRESCENT1 CUS0019832          M CASSIM                      00000000000000000000                21                      
903L001L5063200504094544892D23700031025065562264375504100000008500210527350   CRESCENT1 CUS0022173          A PATEL                       00000000000000000000                21                      
903L001L5063200504094544892D23700031119876501908717432100000008500210527350   CRESCENT1 CUS0025890          F WALLY                       00000000000000000000                21                      
903L001L5063200504094544892D23700031219876502984455517200000008500210527350   CRESCENT1 CUS0030768          T MONARENG                    00000000000000000000                21                      
903L001L5063200504094544892D23700031319876501950530598100000008500210527350   CRESCENT1 CUS0033437          S WILLIAMS                    00000000000000000000                21                      
903L001L5063200504094544892D23700031463200504051375377100000008500210527350   CRESCENT1 CUS0036721          J DE VILLIERS                 00000000000000000000                21                      
903L001L5063200504094544892D23700031519876502009562119200000008500210527350   CRESCENT1 CUS0040031          W ABRAHAMS                    00000000000000000000                21                      
903L001L5063200504094544892D23700031625065562029943596100000008500210527350   CRESCENT1 CUS0043324          M HENDRIKS                    00000000000000000000                21                      
903L001L5063200504094544892D23700031763200504059897072100000016000210527350   CRESCENT1 CUS0046600          F FLINT                       00000000000000000000                21                      
903L001L5063200504094544892D23700031805100100070224218100000008500210527350   CRESCENT1 CUS0049549          I KOLBE                       00000000000000000000                21                      
903L001L5063200504094544892D23700031947001001318825987200000008500210527350   CRESCENT1 CUS0052011          Z OMARJEE                     00000000000000000000                21                      
903L001L5063200504094544892D23700032047001001413088226200000008500210527350   CRESCENT1 CUS0054802          N JACOBS                      00000000000000000000                21                      
903L001L5063200504094544892D23700032147001001399323863200000008500210527350   CRESCENT1 CUS0057045          A FAKIER                      00000000000000000000                21                      
903L001L5063200504094544892D23700032225065562000763418100000006900210527350   CRESCENT1 CUS0059066          M JAKOET                      00000000000000000000                21                      
903L001L5063200504094544892D23700032319876501953491502100000008500210527350   CRESCENT1 CUS0019839          N EBRIAM                      00000000000000000000                21                      
903L001L5063200504094544892D23700032405100100003360350100000008500210527350   CRESCENT1 CUS0022217          R MOULA                       00000000000000000000                21                      
903L001L5063200504094544892D23700032505100100071145095100000008500210527350   CRESCENT1 CUS0025929          N ISAACS                      00000000000000000000                21                      
903L001L5063200504094544892D23700032663200504078261981100000016000210527350   CRESCENT1 CUS0030778          H BABOO                       00000000000000000000                21                      
903L001L5063200504094544892D23700032705100100402104730100000008500210527350   CRESCENT1 CUS0033446          E AHMED                       00000000000000000000                21                      
903L001L5063200504094544892D23700032805100100022447016100000008500210527350   CRESCENT1 CUS0036779          G KAROLIA                     00000000000000000000                21                      
903L001L5063200504094544892D23700032905100100053078470100000008500210527350   CRESCENT1 CUS0040044          S GOOLAMNABI                  00000000000000000000                21                      
903L001L5063200504094544892D23700033005100100021140529100000008500210527350   CRESCENT1 CUS0043331          A DOLLEY                      00000000000000000000                21                      
903L001L5063200504094544892D23700033163200501310040297100000007500210527350   CRESCENT1 CUS0046609          T RAGIE                       00000000000000000000                21                      
903L001L5063200504094544892D23700033225065562546376080100000008500210527350   CRESCENT1 CUS0049553          H BENJAMIN                    00000000000000000000                21                      
903L001L5063200504094544892D23700033305100100073036420100000008500210527350   CRESCENT1 CUS0052016          Z RYLANDS                     00000000000000000000                21                      
903L001L5063200504094544892D23700033405100110062375340100000008500210527350   CRESCENT1 CUS0054804          M SAMAAI                      00000000000000000000                21                      
903L001L5063200504094544892D23700033505100100072474955100000008500210527350   CRESCENT1 CUS0057048          M SMITH                       00000000000000000000                21                      
903L001L5063200504094544892D23700033647001001487786261200000008500210527350   CRESCENT1 CUS0059127          U GEORGE                      00000000000000000000                21                      
903L001L5063200504094544892D23700033725065506200721202100000008500210527350   CRESCENT1 CUS0019844          S MAITLAND                    00000000000000000000                21                      
903L001L5063200504094544892D23700033825065562193039768100000007500210527350   CRESCENT1 CUS0022273          Y SULIMAN                     00000000000000000000                21                      
903L001L5063200504094544892D23700033919876501956343768100000008500210527350   CRESCENT1 CUS0025936          N CORNELIUS                   00000000000000000000                21                      
903L001L5063200504094544892D23700034025065550551115337100000008500210527350   CRESCENT1 CUS0030781          M HAJEE                       00000000000000000000                21                      
903L001L5063200504094544892D23700034105100100005106346100000008500210527350   CRESCENT1 CUS0033454          R ALEXANDER                   00000000000000000000                21                      
903L001L5063200504094544892D23700034225065562824144745100000008500210527350   CRESCENT1 CUS0036797          M MOHMED                      00000000000000000000                21                      
903L001L5063200504094544892D23700034305100100016394496100000006900210527350   CRESCENT1 CUS0040076          F HASWARE                     00000000000000000000                21                      
903L001L5063200504094544892D23700034458010510011606795100000008500210527350   CRESCENT1 CUS0043333          R TAR                         00000000000000000000                21                      
903L001L5063200504094544892D23700034525065562377661725100000008500210527350   CRESCENT1 CUS0046626          Z RAILOUN                     00000000000000000000                21                      
903L001L5063200504094544892D23700034625065562464977522100000016000210527350   CRESCENT1 CUS0049563          A KHAN                        00000000000000000000                21                      
903L001L5063200504094544892D23700034763200504079997868100000008500210527350   CRESCENT1 CUS0052019          N WILLIAMS                    00000000000000000000                21                      
903L001L5063200504094544892D23700034846200502646536001100000008500210527350   CRESCENT1 CUS0054814          M BAKER                       00000000000000000000                21                      
903L001L5063200504094544892D23700034963200504088765886100000008500210527350   CRESCENT1 CUS0057049          A RUSSEL                      00000000000000000000                21                      
903L001L5063200504094544892D23700035047001001288637207200000016000210527350   CRESCENT1 CUS0059139          M KIPPIE                      00000000000000000000                21                      
903L001L5063200504094544892D23700035105100100241114543100000008500210527350   CRESCENT1 CUS0019853          N BAYAT                       00000000000000000000                21                      
903L001L5063200504094544892D23700035205100100002517752100000008500210527350   CRESCENT1 CUS0022276          F KHAN                        00000000000000000000                21                      
903L001L5063200504094544892D23700035305100100204234859100000007500210527350   CRESCENT1 CUS0025964          A COOVADIA                    00000000000000000000                21                      
903L001L5063200504094544892D23700035463200504044742373100000008500210527350   CRESCENT1 CUS0030801          A HAJEE                       00000000000000000000                21                      
903L001L5063200504094544892D23700035505100100309156270100000008500210527350   CRESCENT1 CUS0033488          R RAYMOND                     00000000000000000000                21                      
903L001L5063200504094544892D23700035647001001366424342200000008500210527350   CRESCENT1 CUS0036805          Z AMEER                       00000000000000000000                21                      
903L001L5063200504094544892D23700035705100100021220700100000015400210527350   CRESCENT1 CUS0040094          L HANSIA                      00000000000000000000                21                      
903L001L5063200504094544892D23700035819876501032022426100000008500210527350   CRESCENT1 CUS0043338          A MOHAMED                     00000000000000000000                21                      
903L001L5063200504094544892D23700035919876501007721413100000008500210527350   CRESCENT1 CUS0046638          A KAROLIA                     00000000000000000000                21                      
903L001L5063200504094544892D23700036063200504079399842100000016000210527350   CRESCENT1 CUS0049571          A COLLINS                     00000000000000000000                21                      
903L001L5063200504094544892D23700036119876501044096047100000008500210527350   CRESCENT1 CUS0052021          N JACOBS                      00000000000000000000                21                      
903L001L5063200504094544892D23700036205100100061881996100000016000210527350   CRESCENT1 CUS0054818          I BENNETT                     00000000000000000000                21                      
903L001L5063200504094544892D23700036319876501152252291100000008500210527350   CRESCENT1 CUS0057061          R MACK                        00000000000000000000                21                      
903L001L5063200504094544892D23700036467891051011588070100000008500210527350   CRESCENT1 CUS0059147          H ALLIE                       00000000000000000000                21                      
903L001L5063200504094544892D23700036505100100071810633100000008500210527350   CRESCENT1 CUS0019863          N DU TOIT                     00000000000000000000                21                      
903L001L5063200504094544892D23700036605100100052597393100000008500210527350   CRESCENT1 CUS0022286          M SHEIK                       00000000000000000000                21                      
903L001L5063200504094544892D23700036725065562211003926100000008500210527350   CRESCENT1 CUS0025995          Z TAJBHAI                     00000000000000000000                21                      
903L001L5063200504094544892D23700036819876501698014147100000008500210527350   CRESCENT1 CUS0030806          M LANGRY                      00000000000000000000                21                      
903L001L5063200504094544892D23700036970150511551009656200000006900210527350   CRESCENT1 CUS0033507          R AHMED                       00000000000000000000                21                      
903L001L5063200504094544892D23700037025065560091248788100000008500210527350   CRESCENT1 CUS0036807          M ESSOP                       00000000000000000000                21                      
903L001L5063200504094544892D23700037105100100060024216100000016000210527350   CRESCENT1 CUS0040099          C AMED                        00000000000000000000                21                      
903L001L5063200504094544892D23700037225065562348815583100000008500210527350   CRESCENT1 CUS0043345          I RASSOOL                     00000000000000000000                21                      
903L001L5063200504094544892D23700037363200509224362594100000006900210527350   CRESCENT1 CUS0046660          G SAKILDIEN                   00000000000000000000                21                      
903L001L5063200504094544892D23700037425065562702314634100000008500210527350   CRESCENT1 CUS0049587          S SALLIE                      00000000000000000000                21                      
903L001L5063200504094544892D23700037547001001410090378200000016000210527350   CRESCENT1 CUS0052025          I NASSER                      00000000000000000000                21                      
903L001L5063200504094544892D23700037647001001533194260200000008500210527350   CRESCENT1 CUS0054825          S HOLLAND                     00000000000000000000                21                      
903L001L5063200504094544892D23700037747001001394667645200000006900210527350   CRESCENT1 CUS0057063          M SAMUELS                     00000000000000000000                21                      
903L001L5063200504094544892D23700037846200504822862301100000008500210527350   CRESCENT1 CUS0059164          A BRINK                       00000000000000000000                21                      
903L001L5063200504094544892D23700037925065562167540634100000008500210527350   CRESCENT1 CUS0019864          I AMOD                        00000000000000000000                21                      
903L001L5063200504094544892D23700038025065562025520588100000007500210527350   CRESCENT1 CUS0022293          K BADRUDIN                    00000000000000000000                21                      
903L001L5063200504094544892D23700038105100100410559903100000008500210527350   CRESCENT1 CUS0026006          Z HUSSAIN                     00000000000000000000                21                      
903L001L5063200504094544892D23700038263200509254052599100000016000210527350   CRESCENT1 CUS0030824          J WHITE                       00000000000000000000                21                      
903L001L5063200504094544892D23700038305100100202589676100000008500210527350   CRESCENT1 CUS0033582          M KOOR                        00000000000000000000                21                      
903L001L5063200504094544892D23700038425065560281245875100000008500210527350   CRESCENT1 CUS0036820          Z GOOLAM MAHOMED              00000000000000000000                21                      
903L001L5063200504094544892D23700038563200504076733233100000008500210527350   CRESCENT1 CUS0040107          Z SAYED                       00000000000000000000                21                      
903L001L5063200504094544892D23700038663200540825586846100000008500210527350   CRESCENT1 CUS0043353          A DAWOOD                      00000000000000000000                21                      
903L001L5063200504094544892D23700038705100100023069139100000008500210527350   CRESCENT1 CUS0046678          S NANA                        00000000000000000000                21                      
903L001L5063200504094544892D23700038805100100371772605100000008500210527350   CRESCENT1 CUS0049603          A JACOBS                      00000000000000000000                21                      
903L001L5063200504094544892D23700038925065562628659809100000008500210527350   CRESCENT1 CUS0052033          A PALMER                      00000000000000000000                21                      
903L001L5063200504094544892D23700039063200509083690875100000008500210527350   CRESCENT1 CUS0054826          H GANI                        00000000000000000000                21                      
903L001L5063200504094544892D23700039147001001444238289200000008500210527350   CRESCENT1 CUS0057066          R HENDRICKS                   00000000000000000000                21                      
903L001L5063200504094544892D23700039247001001655359523200000008500210527350   CRESCENT1 CUS0059168          W STEEDE                      00000000000000000000                21                      
903L001L5063200504094544892D23700039325065562000566515100000008500210527350   CRESCENT1 CUS0019867          I SEEDAT                      00000000000000000000                21                      
903L001L5063200504094544892D23700039419876501035246147100000016000210527350   CRESCENT1 CUS0022323          G HENDERSON                   00000000000000000000                21                      
903L001L5063200504094544892D23700039505100100001378401100000008500210527350   CRESCENT1 CUS0026014          S BARTHIS                     00000000000000000000                21                      
903L001L5063200504094544892D23700039605100100309163366100000007500210527350   CRESCENT1 CUS0030828          T WADIA                       00000000000000000000                21                      
903L001L5063200504094544892D23700039705100100026819457100000008500210527350   CRESCENT1 CUS0033630          B KOJIE                       00000000000000000000                21                      
903L001L5063200504094544892D23700039805100100200617567100000016000210527350   CRESCENT1 CUS0036825          M KHAIR                       00000000000000000000                21                      
903L001L5063200504094544892D23700039905100100335532829100000008500210527350   CRESCENT1 CUS0040111          R SHAIK                       00000000000000000000                21                      
903L001L5063200504094544892D23700040063200538012630732100000008500210527350   CRESCENT1 CUS0043354          A ADAMS                       00000000000000000000                21                      
903L001L5063200504094544892D23700040125065562349866569100000008500210527350   CRESCENT1 CUS0046702          T ISMAIL                      00000000000000000000                21                      
903L001L5063200504094544892D23700040205100100070094950100000008500210527350   CRESCENT1 CUS0049615          S PARKER                      00000000000000000000                21                      
903L001L5063200504094544892D23700040363200504047935228100000008500210527350   CRESCENT1 CUS0052036          M ROBERTSON                   00000000000000000000                21                      
903L001L5063200504094544892D23700040405100110049874878100000008500210527350   CRESCENT1 CUS0054830          M DE ALLENDE                  00000000000000000000                21                      
903L001L5063200504094544892D23700040505100110014252781100000008500210527350   CRESCENT1 CUS0057069          F MOSES                       00000000000000000000                21                      
903L001L5063200504094544892D23700040625065562145130473100000008500210527350   CRESCENT1 CUS0059169          S MIA                         00000000000000000000                21                      
903L001L5063200504094544892D23700040705100100062255479100000016000210527350   CRESCENT1 CUS0019872          A EBRAHIM                     00000000000000000000                21                      
903L001L5063200504094544892D23700040805100100221215034100000008500210527350   CRESCENT1 CUS0022341          F WILLIAMS                    00000000000000000000                21                      
903L001L5063200504094544892D23700040963200509042013735100000031000210527350   CRESCENT1 CUS0026023          A KHUMALO                     00000000000000000000                21                      
903L001L5063200504094544892D23700041025065562362801352100000016000210527350   CRESCENT1 CUS0030852          I VALLY                       00000000000000000000                21                      
903L001L5063200504094544892D23700041163200504060704529100000008500210527350   CRESCENT1 CUS0033644          M WAJA                        00000000000000000000                21                      
903L001L5063200504094544892D23700041225065553771089879100000008500210527350   CRESCENT1 CUS0036826          A BUCKAS                      00000000000000000000                21                      
903L001L5063200504094544892D23700041305100100081509677100000008500210527350   CRESCENT1 CUS0040155          Z HOOSEN                      00000000000000000000                21                      
903L001L5063200504094544892D23700041425065562454240921100000006900210527350   CRESCENT1 CUS0043362          F EMAMALLY                    00000000000000000000                21                      
903L001L5063200504094544892D23700041547001001371789922200000008500210527350   CRESCENT1 CUS0046716          Z ARBEE                       00000000000000000000                21                      
903L001L5063200504094544892D23700041625065562518441621100000016000210527350   CRESCENT1 CUS0049617          F ADAMS                       00000000000000000000                21                      
903L001L5063200504094544892D23700041705100100185850812100000008500210527350   CRESCENT1 CUS0052042          R ANTAAR                      00000000000000000000                21                      
903L001L5063200504094544892D23700041805100110085643198100000008500210527350   CRESCENT1 CUS0054850          R CRAIG                       00000000000000000000                21                      
903L001L5063200504094544892D23700041947001001168663804200000008500210527350   CRESCENT1 CUS0057070          R FELIX                       00000000000000000000                21                      
903L001L5063200504094544892D23700042025065562779277659100000008500210527350   CRESCENT1 CUS0059170          L CHARLES                     00000000000000000000                21                      
903L001L5063200504094544892D23700042125065552910056491100000008500210527350   CRESCENT1 CUS0019875          A SULIMAN                     00000000000000000000                21                      
903L001L5063200504094544892D23700042205100100031501737100000008500210527350   CRESCENT1 CUS0022385          M MOOLA                       00000000000000000000                21                      
903L001L5063200504094544892D23700042363200504058912037100000016000210527350   CRESCENT1 CUS0026034          M HASSEN                      00000000000000000000                21                      
903L001L5063200504094544892D23700042463200504045548106100000016000210527350   CRESCENT1 CUS0030883          E ABRAHAMS                    00000000000000000000                21                      
903L001L5063200504094544892D23700042525065562255641930100000016000210527350   CRESCENT1 CUS0033659          M RASOOL                      00000000000000000000                21                      
903L001L5063200504094544892D23700042625065562582448786100000008500210527350   CRESCENT1 CUS0036865          S ABRAHAMS                    00000000000000000000                21                      
903L001L5063200504094544892D23700042705100100202575454100000008500210527350   CRESCENT1 CUS0040183          Z RANDEREE                    00000000000000000000                21                      
903L001L5063200504094544892D23700042805100100073112828100000008500210527350   CRESCENT1 CUS0043367          W SHADRICK                    00000000000000000000                21                      
903L001L5063200504094544892D23700042947001001240270842200000008500210527350   CRESCENT1 CUS0046718          A MADATT                      00000000000000000000                21                      
903L001L5063200504094544892D23700043025065562585144042100000008500210527350   CRESCENT1 CUS0049624          R DAWOOD                      00000000000000000000                21                      
903L001L5063200504094544892D23700043125065562761798093100000016000210527350   CRESCENT1 CUS0052066          M SLAMDIEN                    00000000000000000000                21                      
903L001L5063200504094544892D23700043247001001431626978200000016000210527350   CRESCENT1 CUS0054854          A SAMIE                       00000000000000000000                21                      
903L001L5063200504094544892D23700043347001001309218887200000008500210527350   CRESCENT1 CUS0057085          A MATHEWS                     00000000000000000000                21                      
903L001L5063200504094544892D23700043405100100071209484100000008500210527350   CRESCENT1 CUS0059171          R ADAMS                       00000000000000000000                21                      
903L001L5063200504094544892D23700043525065562059229578100000008500210527350   CRESCENT1 CUS0019888          F KHAN                        00000000000000000000                21                      
903L001L5063200504094544892D23700043605100100202712761100000008500210527350   CRESCENT1 CUS0022403          R SMITH                       00000000000000000000                21                      
903L001L5063200504094544892D23700043705100100052304728100000008500210527350   CRESCENT1 CUS0026041          Y BADAT                       00000000000000000000                21                      
903L001L5063200504094544892D23700043863200504060220416100000008500210527350   CRESCENT1 CUS0030887          F CARIM                       00000000000000000000                21                      
903L001L5063200504094544892D23700043925065550499021307100000008500210527350   CRESCENT1 CUS0033696          R PATEL                       00000000000000000000                21                      
903L001L5063200504094544892D23700044019876501742017991100000008500210527350   CRESCENT1 CUS0036866          A FAZLUDDIN                   00000000000000000000                21                      
903L001L5063200504094544892D23700044163200500711572325100000007500210527350   CRESCENT1 CUS0040186          R BADERDIEN                   00000000000000000000                21                      
903L001L5063200504094544892D23700044225065562283859282100000008500210527350   CRESCENT1 CUS0043377          M LUNAT                       00000000000000000000                21                      
903L001L5063200504094544892D23700044347001001379377143200000007500210527350   CRESCENT1 CUS0046747          M MANUEL                      00000000000000000000                21                      
903L001L5063200504094544892D23700044447001001736679501200000016000210527350   CRESCENT1 CUS0049637          F NOMDOE                      00000000000000000000                21                      
903L001L5063200504094544892D23700044519876501953448984100000008500210527350   CRESCENT1 CUS0052070          Z RYKLIEF                     00000000000000000000                21                      
903L001L5063200504094544892D23700044625065562274997041100000008500210527350   CRESCENT1 CUS0054855          M ARENDSE                     00000000000000000000                21                      
903L001L5063200504094544892D23700044705100110065622349100000016000210527350   CRESCENT1 CUS0057092          D CONRAD                      00000000000000000000                21                      
903L001L5063200504094544892D23700044805100110085591686100000017000210527350   CRESCENT1 CUS0059186          A JACOBS                      00000000000000000000                21                      
903L001L5063200504094544892D23700044963200501013880367100000008500210527350   CRESCENT1 CUS0019891          Y HOOSAIN                     00000000000000000000                21                      
903L001L5063200504094544892D23700045005100100271356049100000008500210527350   CRESCENT1 CUS0022409          H SHAIK                       00000000000000000000                21                      
903L001L5063200504094544892D23700045119876501036990060100000008500210527350   CRESCENT1 CUS0026062          S VOLLENHOVEN                 00000000000000000000                21                      
903L001L5063200504094544892D23700045225065560342403875100000016000210527350   CRESCENT1 CUS0030938          F PATEL                       00000000000000000000                21                      
903L001L5063200504094544892D23700045305100100628236433100000008500210527350   CRESCENT1 CUS0033697          T ABRAHAMS                    00000000000000000000                21                      
903L001L5063200504094544892D23700045425065562486314257100000008500210527350   CRESCENT1 CUS0036867          M ALLY                        00000000000000000000                21                      
903L001L5063200504094544892D23700045525065551411375350100000006900210527350   CRESCENT1 CUS0040194          A DEANEY                      00000000000000000000                21                      
903L001L5063200504094544892D23700045619876502887275844200000008500210527350   CRESCENT1 CUS0043394          A SALLIE                      00000000000000000000                21                      
903L001L5063200504094544892D23700045763200509107639470100000008500210527350   CRESCENT1 CUS0046755          A WAHEED                      00000000000000000000                21                      
903L001L5063200504094544892D23700045847001001286267232200000008500210527350   CRESCENT1 CUS0049640          M JATTIEM                     00000000000000000000                21                      
903L001L5063200504094544892D23700045946200508131481301200000008500210527350   CRESCENT1 CUS0052080          S HENDRICKS                   00000000000000000000                21                      
903L001L5063200504094544892D23700046025065560051161631100000008500210527350   CRESCENT1 CUS0054895          N ABRAHAMS                    00000000000000000000                21                      
903L001L5063200504094544892D23700046105100110144349297100000008500210527350   CRESCENT1 CUS0057094          R SAMUELS                     00000000000000000000                21                      
903L001L5063200504094544892D23700046263200509319747346100000008500210527350   CRESCENT1 CUS0059188          Z PATHER                      00000000000000000000                21                      
903L001L5063200504094544892D23700046305100100022456538100000008500210527350   CRESCENT1 CUS0019892          K GOOLAM HOOSEN               00000000000000000000                21                      
903L001L5063200504094544892D23700046425065550840120534100000016000210527350   CRESCENT1 CUS0022446          M FAREED                      00000000000000000000                21                      
903L001L5063200504094544892D23700046525065560528389071100000008500210527350   CRESCENT1 CUS0026064          S MOHAMED                     00000000000000000000                21                      
903L001L5063200504094544892D23700046646000500024184758200000008500210527350   CRESCENT1 CUS0030954          A MASINGA                     00000000000000000000                21                      
903L001L5063200504094544892D23700046705100100256112894100000008500210527350   CRESCENT1 CUS0033738          Z NABEE                       00000000000000000000                21                      
903L001L5063200504094544892D23700046825065562126980920100000008500210527350   CRESCENT1 CUS0036868          S BHAMJEE                     00000000000000000000                21                      
903L001L5063200504094544892D23700046925065562230121486100000008500210527350   CRESCENT1 CUS0040218          H MOHAMMED                    00000000000000000000                21                      
903L001L5063200504094544892D23700047005100100421130180100000008500210527350   CRESCENT1 CUS0043395          E MARTIN                      00000000000000000000                21                      
903L001L5063200504094544892D23700047147001001569781638200000008500210527350   CRESCENT1 CUS0046776          I SYMS                        00000000000000000000                21                      
903L001L5063200504094544892D23700047205100100033266476100000006900210527350   CRESCENT1 CUS0049644          M JINA                        00000000000000000000                21                      
903L001L5063200504094544892D23700047319876501457966271100000016000210527350   CRESCENT1 CUS0052086          M SHEIK AHMED                 00000000000000000000                21                      
903L001L5063200504094544892D23700047419876501016126050100000008500210527350   CRESCENT1 CUS0054910          S SOLOMON                     00000000000000000000                21                      
903L001L5063200504094544892D23700047519876501022375539100000008500210527350   CRESCENT1 CUS0057098          M DARRIES                     00000000000000000000                21                      
903L001L5063200504094544892D23700047647001001414296566200000016000210527350   CRESCENT1 CUS0059189          I BADARON                     00000000000000000000                21                      
903L001L5063200504094544892D23700047705100100250228750100000008500210527350   CRESCENT1 CUS0019897          I EBRAHIM                     00000000000000000000                21                      
903L001L5063200504094544892D23700047805100100250877686100000008500210527350   CRESCENT1 CUS0022448          M JOOSUB                      00000000000000000000                21                      
903L001L5063200504094544892D23700047919876501036373665100000008500210527350   CRESCENT1 CUS0026087          M JAFFER                      00000000000000000000                21                      
903L001L5063200504094544892D23700048025065562065255377100000008500210527350   CRESCENT1 CUS0030956          M ABRAHAMS                    00000000000000000000                21                      
903L001L5063200504094544892D23700048105100102210205128100000016000210527350   CRESCENT1 CUS0033740          A JARDIEN                     00000000000000000000                21                      
903L001L5063200504094544892D23700048263200504055423774100000008500210527350   CRESCENT1 CUS0036873          A AMOD                        00000000000000000000                21                      
903L001L5063200504094544892D23700048325065562354533658100000008500210527350   CRESCENT1 CUS0040233          I PANDOR                      00000000000000000000                21                      
903L001L5063200504094544892D23700048447001001245758606200000008500210527350   CRESCENT1 CUS0043397          I SULIMAN                     00000000000000000000                21                      
903L001L5063200504094544892D23700048563200509211120391100000008500210527350   CRESCENT1 CUS0046821          L SHAIKJEE                    00000000000000000000                21                      
903L001L5063200504094544892D23700048663200504091948786100000008500210527350   CRESCENT1 CUS0049659          S NELL                        00000000000000000000                21                      
903L001L5063200504094544892D23700048763200504077563140100000008500210527350   CRESCENT1 CUS0052089          A HASSEN                      00000000000000000000                21                      
903L001L5063200504094544892D23700048863200509160105239100000007500210527350   CRESCENT1 CUS0054915          A GALANT                      00000000000000000000                21                      
903L001L5063200504094544892D23700048946200510427886301200000016000210527350   CRESCENT1 CUS0057103          A KHAN                        00000000000000000000                21                      
903L001L5063200504094544892D23700049063200504080679249100000008500210527350   CRESCENT1 CUS0059197          H CASSIM HOOSAIN              00000000000000000000                21                      
903L001L5063200504094544892D23700049163200509177308734100000008500210527350   CRESCENT1 CUS0019899          S PATEL                       00000000000000000000                21                      
903L001L5063200504094544892D23700049225065562017011842100000023500210527350   CRESCENT1 CUS0022467          F JASSAT                      00000000000000000000                21                      
903L001L5063200504094544892D23700049319876501825048916100000016000210527350   CRESCENT1 CUS0026141          R MEADOWS                     00000000000000000000                21                      
903L001L5063200504094544892D23700049463200504075553925100000008500210527350   CRESCENT1 CUS0030966          Z GANGET                      00000000000000000000                21                      
903L001L5063200504094544892D23700049580000078600001081200000008500210527350   CRESCENT1 CUS0033744          H MOOLLA                      00000000000000000000                21                      
903L001L5063200504094544892D23700049619876501648080979100000008500210527350   CRESCENT1 CUS0036885          S MAHOMED                     00000000000000000000                21                      
903L001L5063200504094544892D23700049705100100202842835100000008500210527350   CRESCENT1 CUS0040241          S WILLIAMS                    00000000000000000000                21                      
903L001L5063200504094544892D23700049825065562371837596100000008500210527350   CRESCENT1 CUS0043399          J ISMAIL                      00000000000000000000                21                      
903L001L5063200504094544892D23700049905100100070037167100000008500210527350   CRESCENT1 CUS0046823          M ABRAHAMS                    00000000000000000000                21                      
