000L2021021800000PAYPORT CONSULTING PTY LTD EFT000063607303                                                                                                                                           
010LD237000012201                                                                                                                                                                                     
011LD23763200500000040945448920120210116                                                                                                                                                              
013L5020210115001166250205000006215476251400000008500CRESCENT1 CUS0006551          03200000000000                O TIMMS                                                                              
014L0000000010000000000000000621547625140000000000850000000000000000                                                                                                                                  
011LD23763200500000040945448920120210130                                                                                                                                                              
013L5020210129001901051001000000006301327400000008500CRESCENT1 CUS0050906          03400000000000                I JANUARY                                                                            
014L0000000010000000000000000000630132740000000000850000000000000000                                                                                                                                  
011LD23763200500000040945448920120210216                                                                                                                                                              
013L5020210215000686632005000000407981687400000016000CRESCENT1 CUS0019292          00292803000686                S LAHER                                                                              
013L5020210215000051632005000000900453232600000015000CRESCENT1 CUS0007898          03292801000051                R BHAYAT                                                                             
013L5020210215000575470010000000149945430700000008500CRESCENT1 CUS0059082          00200000000000                A MOSES                                                                              
013L5020210215000930051001000000027179355400000008500CRESCENT1 CUS0055901          00400000000000                N PAULSEN                                                                            
013L5020210215000878470010000000141946759800000008500CRESCENT1 CUS0041949          00200000000000                W CANTHITOO                                                                          
013L5020210215000730632005000000910026056900000008500CRESCENT1 CUS0019771          00292803000730                O ISMAIL SEEDAT                                                                      
013L5020210215000869800000000007860015483700000008500CRESCENT1 CUS0049352          00200000000000                E DHOOMA                                                                             
013L5020210215000195470010000000156792026600000008500CRESCENT1 CUS0058180          00200000000000                D FISHER                                                                             
013L5020210215000628051001000001000708412700000008500CRESCENT1 CUS0048224          00400000000000                I ABDUL KHADIR                                                                       
013L5020210215000324051001000001004257205100000008500CRESCENT1 CUS0052502          00200000000000                F BEKKO                                                                              
013L5020210215000009051001000001008457090100000008500CRESCENT1 CUS0051128          00200000000000                S GEORGE                                                                             
013L5020210215000605470010000000154676234300000008500CRESCENT1 CUS0059210          00200000000000                A ABRAHAMS                                                                           
013L5020210215001200470010000000152539829400000008500CRESCENT1 CUS0057044          00200000000000                F DAVIDS                                                                             
013L5020210215001056051001000000040616139900000008500CRESCENT1 CUS0004126          00400000000000                N MOOSA                                                                              
013L5020210215001102051001000000001240673200000008500CRESCENT1 CUS0026612          00200000000000                H CONSALVES                                                                          
013L5020210215000658051001000000007076544800000016000CRESCENT1 CUS0048279          00200000000000                S BASSIER ROODT                                                                      
013L5020210215001155051001000001010738674500000008500CRESCENT1 CUS0056949          00200000000000                S LEEMAN                                                                             
013L5020210215000816051001000000027198897500000008500CRESCENT1 CUS0000131          01200000000000                A HASSIM                                                                             
013L5020210215001050470010000000132459546700000008500CRESCENT1 CUS0056352          00200000000000                M BASADIEN                                                                           
013L5020210215000634470010000000136264278700000008500CRESCENT1 CUS0053763          00200000000000                A MONYAKI                                                                            
013L5020210215000394470010000000136433203300000008500CRESCENT1 CUS0052851          00200000000000                T SMITH                                                                              
013L5020210215000400470010000000166937117200000008500CRESCENT1 CUS0058715          00200000000000                Y TAGODIEN                                                                           
013L5020210215000500470010000000167392258700000008500CRESCENT1 CUS0058921          00200000000000                B MNISI                                                                              
013L5020210215000499470010000000169403072300000008500CRESCENT1 CUS0053237          00200000000000                M DANIELS                                                                            
013L5020210215000918470010000000112653300700000008500CRESCENT1 CUS0042117          00200000000000                A BLANKENBERG                                                                        
013L5020210215000753470010000000113338357000000007500CRESCENT1 CUS0055144          00200000000000                S BARENDSE                                                                           
013L5020210215000515470010000000153571078900000006900CRESCENT1 CUS0058954          00200000000000                K COZYN                                                                              
013L5020210215000915470010000000154140651400000008500CRESCENT1 CUS0055870          00200000000000                S SINGH                                                                              
013L5020210215000275470010000000148812086000000008500CRESCENT1 CUS0058325          00200000000000                M FRANCIS                                                                            
013L5020210215001140470010000000148005645400000008500CRESCENT1 CUS0056867          00200000000000                R FREDERICKS                                                                         
013L5020210215000640470010000000140679953800000008500CRESCENT1 CUS0059265          00200000000000                M USMANI                                                                             
013L5020210215000525470010000000130717228600000016000CRESCENT1 CUS0058986          00200000000000                G SAMPSON                                                                            
013L5020210215000700470010000000168348539200000007500CRESCENT1 CUS0059522          00200000000000                N RHODA                                                                              
013L5020210215000665470010000000157440691200000008500CRESCENT1 CUS0059364          00200000000000                L CLOETE                                                                             
013L5020210215000599470010000000156219053700000008500CRESCENT1 CUS0053662          00200000000000                M OSMAN                                                                              
013L5020210215000650051001000001010803503200000008500CRESCENT1 CUS0059308          00200000000000                G RAYNERS                                                                            
013L5020210215001128470010000000124163331000000008500CRESCENT1 CUS0043818          03400000000000                M ZAMA                                                                               
013L5020210215001095462005000000339943530100000008500CRESCENT1 CUS0056580          00200000000000                B ARENDESE                                                                           
013L5020210215000668051001000000007310216400000008500CRESCENT1 CUS0048294          00400000000000                A DAVIDS                                                                             
013L5020210215000198470010000000154179427100000008500CRESCENT1 CUS0045511          00200000000000                N ADAM                                                                               
013L5020210215000139470010000000154870571100000008500CRESCENT1 CUS0051744          00200000000000                B BIRCH                                                                              
013L5020210215000810470010000000134733576300000007500CRESCENT1 CUS0055539          00200000000000                R JORDAAN                                                                            
013L5020210215000925470010000000135814665700000008500CRESCENT1 CUS0055891          00200000000000                R KLEINSMIDT                                                                         
013L5020210215001125470010000000135769025600000008500CRESCENT1 CUS0056693          00200000000000                A SWARTZ                                                                             
013L5020210215001195470010000000135500057000000008500CRESCENT1 CUS0057027          00600000000000                F ABRAHAMS                                                                           
013L5020210215000885470010000000151989223100000006900CRESCENT1 CUS0055773          00200000000000                J LOUW                                                                               
013L5020210215000865470010000000154865967100000008500CRESCENT1 CUS0055721          00200000000000                M MOHAMED                                                                            
013L5020210215001178250655000007449207609400000008500CRESCENT1 CUS0044029          02600000000000                K SULEMAN                                                                            
013L5020210215000160470010000000123787151200000008500CRESCENT1 CUS0058080          00200000000000                M WILLIAMS                                                                           
013L5020210215000743051001000000001372832600000016000CRESCENT1 CUS0040704          00200000000000                A AHMED                                                                              
013L5020210215001122051001000000033458641000000008500CRESCENT1 CUS0027017          00200000000000                E PILODIA                                                                            
013L5020210215000196632005000000405983177700000016000CRESCENT1 CUS0010752          00292803000196                M AMEER                                                                              
013L5020210215000890470010000000153732417700000008500CRESCENT1 CUS0055800          00200000000000                T PALM                                                                               
013L5020210215000210470010000000144910221000000008500CRESCENT1 CUS0058214          00200000000000                M JAFTHA                                                                             
013L5020210215000112470010000000171504245800000008500CRESCENT1 CUS0033411          00200000000000                S MAPHUMULO                                                                          
013L5020210215001049051001000000027051786300000008500CRESCENT1 CUS0050115          00200000000000                T ABDULLAH                                                                           
013L5020210215000847051001000000000114477400000007500CRESCENT1 CUS0021261          00200000000000                R GANCHI                                                                             
013L5020210215000353470010000000120707059700000008500CRESCENT1 CUS0046628          00200000000000                Z OSMAN                                                                              
013L5020210215001190470010000000121361312200000008500CRESCENT1 CUS0057023          00200000000000                M DARRIES                                                                            
013L5020210215000249051001000001007513738900000008500CRESCENT1 CUS0052227          00200000000000                A RAVAT                                                                              
013L5020210215000430470010000000115566195600000006900CRESCENT1 CUS0058835          00200000000000                Z ISAACS                                                                             
013L5020210215001017051001000000037064583900000008500CRESCENT1 CUS0025105          00200000000000                S JACOBS                                                                             
013L5020210215000255051001000001012771163300000008500CRESCENT1 CUS0058268          00200000000000                S DAVIDS                                                                             
013L5020210215001053051001000000016395093800000008500CRESCENT1 CUS0043041          00200000000000                S KIKIA                                                                              
013L5020210215000660470010000000122479139600000008500CRESCENT1 CUS0059360          00200000000000                Y MOHAMMED                                                                           
013L5020210215000285470010000000120616079700000008500CRESCENT1 CUS0058336          00200000000000                Z BUFFAINS                                                                           
013L5020210215000705470010000000134882737600000008500CRESCENT1 CUS0059525          00200000000000                S BERHARDIEN                                                                         
013L5020210215000330470010000000129325666600000008500CRESCENT1 CUS0058534          00200000000000                A ADAMS                                                                              
013L5020210215001225470010000000156711557600000008500CRESCENT1 CUS0057162          03600000000000                N HERBERT                                                                            
013L5020210215000428470010000000117097791800000016000CRESCENT1 CUS0047115          00200000000000                J JOHNSON                                                                            
013L5020210215000949051001000000027204040100000016000CRESCENT1 CUS0049648          00200000000000                K JACOBS                                                                             
013L5020210215000649051001000000040353837800000008500CRESCENT1 CUS0054335          00200000000000                W MEYER                                                                              
013L5020210215000177460005000000005108575000000023500CRESCENT1 CUS0034951          00200000000000                J MOTHA                                                                              
013L5020210215000299470010000000111429594700000008500CRESCENT1 CUS0052457          00200000000000                N FICK                                                                               
013L5020210215000095470010000000128138428100000006900CRESCENT1 CUS0057751          00200000000000                M KERBELKER                                                                          
013L5020210215001250470010000000134631291300000008500CRESCENT1 CUS0057274          00400000000000                M SAMAAI                                                                             
013L5020210215001028470010000000141773165400000006900CRESCENT1 CUS0042721          00200000000000                J HLATYWAYO                                                                          
013L5020210215000174470010000000155543299700000008500CRESCENT1 CUS0051829          00200000000000                F GABIER                                                                             
013L5020210215000534470010000000119522657600000008500CRESCENT1 CUS0053460          00200000000000                S ABRAHAMS                                                                           
013L5020210215001060051001000000013840885800000008500CRESCENT1 CUS0056475          00200000000000                I SCHOLTZ                                                                            
013L5020210215001171051001000000020052906400000016000CRESCENT1 CUS0005807          00200000000000                A DESAI                                                                              
013L5020210215000280051001000000020307983300000008500CRESCENT1 CUS0058331          00400000000000                R HERCULES                                                                           
013L5020210215000325470010000000125458543300000008500CRESCENT1 CUS0058447          00400000000000                P MANUEL                                                                             
013L5020210215001184051001000000007057069800000008500CRESCENT1 CUS0050844          00400000000000                A DE VRIES                                                                           
013L5020210215000746051001000000005278272700000023500CRESCENT1 CUS0019889          00400000000000                A MAHOMED                                                                            
013L5020210215000015470010000000154195017600000008500CRESCENT1 CUS0057399          00200000000000                M HERCULES                                                                           
013L5020210215000781470010000000159157292200000016000CRESCENT1 CUS0055327          00200000000000                F WILLIAMS DAVIDS                                                                    
013L5020210215000801470010000000151293720500000008500CRESCENT1 CUS0055532          00400000000000                L RAFFETY                                                                            
013L5020210215000233470010000000138045177700000016000CRESCENT1 CUS0045774          00200000000000                R BOSMAN                                                                             
013L5020210215000670470010000000144449809400000008500CRESCENT1 CUS0059441          00200000000000                I CASPER                                                                             
013L5020210215000155470010000000114664619200000008500CRESCENT1 CUS0058048          00200000000000                F TOEFEY                                                                             
013L5020210215000655470010000000140197833700000008500CRESCENT1 CUS0059343          00200000000000                S LAKAY                                                                              
013L5020210215000184800000000007860011378400000008500CRESCENT1 CUS0051866          00200000000000                A RAHMAN                                                                             
013L5020210215001091632005000000406692653500000008500CRESCENT1 CUS0004602          00292803001091                N AMBARAM                                                                            
013L5020210215000629051001000001003602574500000007500CRESCENT1 CUS0053734          00400000000000                A MOHAMED                                                                            
013L5020210215000979051001000001007845535700000008500CRESCENT1 CUS0049806          00200000000000                J DOLLIE                                                                             
013L5020210215000528470010000000114391285100000008500CRESCENT1 CUS0047707          00200000000000                S ISMAIL                                                                             
013L5020210215000892470010000000123818162500000008500CRESCENT1 CUS0022845          01200000000000                T MFIHLO MAHOMMED                                                                    
013L5020210215001163051001000000007097881600000008500CRESCENT1 CUS0044022          00200000000000                I SOOPEE                                                                             
013L5020210215000410462005000000933135230100000008500CRESCENT1 CUS0058773          00200000000000                A POOLE                                                                              
013L5020210215000296051001000000000168523600000008500CRESCENT1 CUS0012561          00600000000000                N MOHAMED                                                                            
013L5020210215000101051001000000022534729600000008500CRESCENT1 CUS0008928          00200000000000                K STEELE                                                                             
013L5020210215000839051001000000040200225300000008500CRESCENT1 CUS0049127          00200000000000                R PAULSEN                                                                            
013L5020210215001097051001000000033201480000000016000CRESCENT1 CUS0026591          00200000000000                I MOHAMED                                                                            
013L5020210215000690470010000000156016903400000008500CRESCENT1 CUS0059492          00200000000000                M KABLEY                                                                             
013L5020210215000694470010000000155520996100000008500CRESCENT1 CUS0054582          00200000000000                M VAN RHEEDE                                                                         
013L5020210215001030470010000000142445090800000008500CRESCENT1 CUS0056228          00200000000000                R JARDIEN                                                                            
013L5020210215000029470010000000129076523300000008500CRESCENT1 CUS0051242          00400000000000                G DEJONGH                                                                            
013L5020210215000268632005000000405988135800000016000CRESCENT1 CUS0045976          00292803000268                A HENDRICKS                                                                          
013L5020210215000333051001000000033268040100000008500CRESCENT1 CUS0046391          01200000000000                M PAREKH                                                                             
013L5020210215000627051001000000002262383300000008500CRESCENT1 CUS0039615          01800000000000                I CAJEE                                                                              
013L5020210215000278051001000000000490918600000008500CRESCENT1 CUS0045990          01200000000000                M AZIZ                                                                               
013L5020210215000857632005000000407173152900000031000CRESCENT1 CUS0021629          00292803000857                A ABDOOLA                                                                            
013L5020210215000180470010000000169451277900000006900CRESCENT1 CUS0058121          00600000000000                A LAKAY                                                                              
013L5020210215000475470010000000160853163300000008500CRESCENT1 CUS0058887          00400000000000                D JARDIEN                                                                            
013L5020210215000439051001000000007728623500000007500CRESCENT1 CUS0052992          01200000000000                M FANIE                                                                              
013L5020210215000933051001000000005218113800000008500CRESCENT1 CUS0042168          00200000000000                M KHAN                                                                               
013L5020210215000745470010000000113611532100000008500CRESCENT1 CUS0055074          00400000000000                R FISHER                                                                             
013L5020210215001109051001000000025330857700000007500CRESCENT1 CUS0050522          01200000000000                S MASON                                                                              
013L5020210215000401051001000000003017102400000016000CRESCENT1 CUS0014972          00600000000000                N ESSA                                                                               
013L5020210215001020051001000000033246268400000016000CRESCENT1 CUS0056142          00200000000000                I GRIFFITHS                                                                          
013L5020210215000927051001000000002130314200000008500CRESCENT1 CUS0023068          00400000000000                F AJAM                                                                               
013L5020210215001010051001000001011891639200000008500CRESCENT1 CUS0056124          00200000000000                S HASSANGY                                                                           
013L5020210215000555470010000000171201236100000008500CRESCENT1 CUS0059050          00200000000000                J MOSES                                                                              
013L5020210215000044470010000000134883096200000008500CRESCENT1 CUS0051269          00200000000000                Y BRAAF                                                                              
013L5020210215000169470010000000128783535800000008500CRESCENT1 CUS0051827          00200000000000                S ISMAIL                                                                             
013L5020210215000559470010000000164446272700000006900CRESCENT1 CUS0053551          00200000000000                N TALIEP JOSEPH                                                                      
013L5020210215000290470010000000113741808500000008500CRESCENT1 CUS0058339          00200000000000                Y DALVIE                                                                             
013L5020210215000065051001000000027034140400000008500CRESCENT1 CUS0057563          00200000000000                I ANTHONY                                                                            
013L5020210215000980470010000000159241630400000008500CRESCENT1 CUS0056070          00200000000000                Y ABRAHAMS                                                                           
014L0000001300000000000000004929268000960000000125080000000000000000                                                                                                                                  
019L0000001320000000000000005551445758840000000126780000000000000000                                                                                                                                  
010LD237000012308                                                                                                                                                                                     
011LD23763200500000040945448920120210127                                                                                                                                                              
013L5020210127000556470010000000154383392400000008500CRESCENT1 CUS0051176          03000000000000                Z COOK                                                                               
014L0000000010000000000000000015438339240000000000850000000000000000                                                                                                                                  
019L0000000010000000000000000015438339240000000000850000000000000000                                                                                                                                  
999L000000147                                                                                                                                                                                         
