000L2021041300000PAYPORT CONSULTING PTY LTD EFT000071507303                                                                                                                                           
010LD237000018301                                                                                                                                                                                     
011LD23763200500000040945448920120210331                                                                                                                                                              
013L5020210330001213051001000000022008344400000008500CRESCENT1 CUS0007850          03000000000000                F PATEL                                                                              
014L0000000010000000000000000002200834440000000000850000000000000000                                                                                                                                  
019L0000000010000000000000000002200834440000000000850000000000000000                                                                                                                                  
999L000000007                                                                                                                                                                                         
