000L2021012900000PAYPORT CONSULTING PTY LTD    000060807303                                                                                                                                           
900L000 TRANSMISSION 07303-0000054 ACCEPTED                                                                                                                                                           
900L001 ACB USER SET D237-0000059-002490 ACCEPTED                                                                                                                                                     
903L001L5063200504094544892D23700000125065562065115563100000008500210130350   CRESCENT1 CUS0002419          S PATEL                       00000000000000000000                21                      
903L001L5063200504094544892D23700000263200509107251747100000008500210130350   CRESCENT1 CUS0015019          H MAHIDA                      00000000000000000000                21                      
903L001L5063200504094544892D23700000305100100203601807100000016000210130350   CRESCENT1 CUS0024765          H BHYAT                       00000000000000000000                21                      
903L001L5063200504094544892D23700000405100100038988283100000008500210130350   CRESCENT1 CUS0031663          N ALLY                        00000000000000000000                21                      
903L001L5063200504094544892D23700000563200509123791741100000008500210130350   CRESCENT1 CUS0036819          S NAVELLING                   00000000000000000000                21                      
903L001L5063200504094544892D23700000625065562122567342100000008500210130350   CRESCENT1 CUS0042664          R ORR                         00000000000000000000                21                      
903L001L5063200504094544892D23700000747001001353023344200000008500210130350   CRESCENT1 CUS0047888          K SOLOMONS                    00000000000000000000                21                      
903L001L5063200504094544892D23700000847001001383659212200000008500210130350   CRESCENT1 CUS0052820          T BOOYSEN                     00000000000000000000                21                      
903L001L5063200504094544892D23700000925065562453550438100000008500210130350   CRESCENT1 CUS0057334          N SATAR                       00000000000000000000                21                      
903L001L5063200504094544892D23700001005100100271762683100000008500210130350   CRESCENT1 CUS0059177          S SAFTER                      00000000000000000000                21                      
903L001L5063200504094544892D23700001163200509112690443100000016000210130350   CRESCENT1 CUS0002449          R ALLI                        00000000000000000000                21                      
903L001L5063200504094544892D23700001263200509237434948100000008500210130350   CRESCENT1 CUS0015061          M MOHAMAD                     00000000000000000000                21                      
903L001L5063200504094544892D23700001347001001195922971200000016000210130350   CRESCENT1 CUS0024778          M DADABHY                     00000000000000000000                21                      
903L001L5063200504094544892D23700001425065562053515212100000008500210130350   CRESCENT1 CUS0031669          N PEER                        00000000000000000000                21                      
903L001L5063200504094544892D23700001547001001530598638200000008500210130350   CRESCENT1 CUS0036827          R HASSIM                      00000000000000000000                21                      
903L001L5063200504094544892D23700001619876501523030046100000008500210130350   CRESCENT1 CUS0042727          C TAYLOR                      00000000000000000000                21                      
903L001L5063200504094544892D23700001763200509120425795100000008500210130350   CRESCENT1 CUS0047945          O JADWAT                      00000000000000000000                21                      
903L001L5063200504094544892D23700001805100110036905583100000008500210130350   CRESCENT1 CUS0052837          S DANIELS                     00000000000000000000                21                      
903L001L5063200504094544892D23700001919876501046665456100000016000210130350   CRESCENT1 CUS0057335          A EDERIES                     00000000000000000000                21                      
903L001L5063200504094544892D23700002025065562859088330100000008500210130350   CRESCENT1 CUS0059178          S BASSIER                     00000000000000000000                21                      
903L001L5063200504094544892D23700002105100100200884034100000008500210130350   CRESCENT1 CUS0002538          H ABDULLA                     00000000000000000000                21                      
903L001L5063200504094544892D23700002225065550931195090100000008500210130350   CRESCENT1 CUS0015120          C BHAYAT                      00000000000000000000                21                      
903L001L5063200504094544892D23700002363200504068240224100000008500210130350   CRESCENT1 CUS0024810          R COZIJN                      00000000000000000000                21                      
903L001L5063200504094544892D23700002405100100062263110100000008500210130350   CRESCENT1 CUS0031670          F PARAK                       00000000000000000000                21                      
903L001L5063200504094544892D23700002525065562487600796100000006900210130350   CRESCENT1 CUS0036840          A CASSIM                      00000000000000000000                21                      
903L001L5063200504094544892D23700002619876501980289638100000007500210130350   CRESCENT1 CUS0042728          M KHAN                        00000000000000000000                21                      
903L001L5063200504094544892D23700002747001001402841947200000016000210130350   CRESCENT1 CUS0047954          S HARRISON                    00000000000000000000                21                      
903L001L5063200504094544892D23700002805100110048506972100000016000210130350   CRESCENT1 CUS0052873          M POVIE                       00000000000000000000                21                      
903L001L5063200504094544892D23700002947001001613399705200000008500210130350   CRESCENT1 CUS0057336          T ADAMS                       00000000000000000000                21                      
903L001L5063200504094544892D23700003047001001603811018200000008500210130350   CRESCENT1 CUS0059179          F DANIELS                     00000000000000000000                21                      
903L001L5063200504094544892D23700003125065562339011140100000008500210130350   CRESCENT1 CUS0002654          Y RASOOL                      00000000000000000000                21                      
903L001L5063200504094544892D23700003205100100402104242100000008500210130350   CRESCENT1 CUS0015147          T ISMAIL                      00000000000000000000                21                      
903L001L5063200504094544892D23700003319876502035376181200000016000210130350   CRESCENT1 CUS0024827          F RICHARDS                    00000000000000000000                21                      
903L001L5063200504094544892D23700003405100100255465955100000008500210130350   CRESCENT1 CUS0031676          H DADA                        00000000000000000000                21                      
903L001L5063200504094544892D23700003525065562211787570100000008500210130350   CRESCENT1 CUS0036848          H ISMAIL                      00000000000000000000                21                      
903L001L5063200504094544892D23700003625065555290032868100000031000210130350   CRESCENT1 CUS0042746          M OMAR                        00000000000000000000                21                      
903L001L5063200504094544892D23700003725065562106157242100000008500210130350   CRESCENT1 CUS0047958          S DEROOS                      00000000000000000000                21                      
903L001L5063200504094544892D23700003805100110080868418100000008500210130350   CRESCENT1 CUS0052878          S PILLAY                      00000000000000000000                21                      
903L001L5063200504094544892D23700003925065562670091851100000016000210130350   CRESCENT1 CUS0057340          T DAWJEE                      00000000000000000000                21                      
903L001L5063200504094544892D23700004047001001478547292200000008500210130350   CRESCENT1 CUS0059180          N SAUL                        00000000000000000000                21                      
903L001L5063200504094544892D23700004105100100001701029100000008500210130350   CRESCENT1 CUS0002693          A KAROLIA                     00000000000000000000                21                      
903L001L5063200504094544892D23700004225065562072689725100000016000210130350   CRESCENT1 CUS0015165          A JAMIL                       00000000000000000000                21                      
903L001L5063200504094544892D23700004347001001712707432200000016000210130350   CRESCENT1 CUS0024842          A HANF                        00000000000000000000                21                      
903L001L5063200504094544892D23700004425065562169882183100000008500210130350   CRESCENT1 CUS0031694          F NAICKER                     00000000000000000000                21                      
903L001L5063200504094544892D23700004525065562326922847100000008500210130350   CRESCENT1 CUS0036864          K TAYOB                       00000000000000000000                21                      
903L001L5063200504094544892D23700004625065560014510429100000008500210130350   CRESCENT1 CUS0042769          S JAPPIE                      00000000000000000000                21                      
903L001L5063200504094544892D23700004705100100404815464100000008500210130350   CRESCENT1 CUS0047961          M MATHIBA                     00000000000000000000                21                      
903L001L5063200504094544892D23700004847001001528173250200000007500210130350   CRESCENT1 CUS0052890          S AJOUHAAR                    00000000000000000000                21                      
903L001L5063200504094544892D23700004947001001288733338200000016000210130350   CRESCENT1 CUS0057354          G SEPTEMBER                   00000000000000000000                21                      
903L001L5063200504094544892D23700005025065562645216426100000008500210130350   CRESCENT1 CUS0059182          B HENDRICKS                   00000000000000000000                21                      
903L001L5063200504094544892D23700005125065562348930745100000008500210130350   CRESCENT1 CUS0002757          I KARRIM                      00000000000000000000                21                      
903L001L5063200504094544892D23700005225065562169317396100000008500210130350   CRESCENT1 CUS0015239          S VANJARIA                    00000000000000000000                21                      
903L001L5063200504094544892D23700005363200504052080692100000008500210130350   CRESCENT1 CUS0024846          R MILLER                      00000000000000000000                21                      
903L001L5063200504094544892D23700005405100100167575589100000008500210130350   CRESCENT1 CUS0031719          H SHERIFF                     00000000000000000000                21                      
903L001L5063200504094544892D23700005563200509193282279100000016000210130350   CRESCENT1 CUS0036870          J HASSAN                      00000000000000000000                21                      
903L001L5063200504094544892D23700005605100100074903411100000016000210130350   CRESCENT1 CUS0042774          M RASHAD                      00000000000000000000                21                      
903L001L5063200504094544892D23700005725065562600150346100000008500210130350   CRESCENT1 CUS0047984          A CARRIEM                     00000000000000000000                21                      
903L001L5063200504094544892D23700005819876501093081694100000008500210130350   CRESCENT1 CUS0052905          F SCOTT                       00000000000000000000                21                      
903L001L5063200504094544892D23700005947001001142540004200000008500210130350   CRESCENT1 CUS0057356          F PHILLIPS                    00000000000000000000                21                      
903L001L5063200504094544892D23700006005100110105536189100000016000210130350   CRESCENT1 CUS0059183          M DOHA                        00000000000000000000                21                      
903L001L5063200504094544892D23700006105100100203790014100000008500210130350   CRESCENT1 CUS0002844          J UNWARSA                     00000000000000000000                21                      
903L001L5063200504094544892D23700006247001001488965577200000016000210130350   CRESCENT1 CUS0015240          A KAJEE                       00000000000000000000                21                      
903L001L5063200504094544892D23700006325065562055840659100000008500210130350   CRESCENT1 CUS0024847          Z SMITH                       00000000000000000000                21                      
903L001L5063200504094544892D23700006405100100062652249100000008500210130350   CRESCENT1 CUS0031721          Z RANGILA                     00000000000000000000                21                      
903L001L5063200504094544892D23700006525065562794386881100000008500210130350   CRESCENT1 CUS0036883          Y NORATH                      00000000000000000000                21                      
903L001L5063200504094544892D23700006625065556190015699100000008500210130350   CRESCENT1 CUS0042802          Z ARNORLD                     00000000000000000000                21                      
903L001L5063200504094544892D23700006747001001456228437200000008500210130350   CRESCENT1 CUS0047989          R VAN NIEKERK                 00000000000000000000                21                      
903L001L5063200504094544892D23700006847001001478611055200000008500210130350   CRESCENT1 CUS0052935          S GROENENBERG                 00000000000000000000                21                      
903L001L5063200504094544892D23700006919876501053547021100000008500210130350   CRESCENT1 CUS0057388          S SMITSDORSS                  00000000000000000000                21                      
903L001L5063200504094544892D23700007005100110123135727100000008500210130350   CRESCENT1 CUS0059185          U KAMALDIEN                   00000000000000000000                21                      
903L001L5063200504094544892D23700007105100100203790014100000022500210130350   CRESCENT1 CUS0002845          A JOSEPH                      00000000000000000000                21                      
903L001L5063200504094544892D23700007205100100200826875100000006900210130350   CRESCENT1 CUS0015242          R FAKIR                       00000000000000000000                21                      
903L001L5063200504094544892D23700007319876502509250183200000008500210130350   CRESCENT1 CUS0024855          N VAWDA                       00000000000000000000                21                      
903L001L5063200504094544892D23700007405100100242018432100000007500210130350   CRESCENT1 CUS0031777          N MOTALA                      00000000000000000000                21                      
903L001L5063200504094544892D23700007563200509183357321100000008500210130350   CRESCENT1 CUS0036904          B PARAK                       00000000000000000000                21                      
903L001L5063200504094544892D23700007625065562419343562100000008500210130350   CRESCENT1 CUS0042806          N BHYAT                       00000000000000000000                21                      
903L001L5063200504094544892D23700007725065562134020338100000008500210130350   CRESCENT1 CUS0048025          J RAMATENA                    00000000000000000000                21                      
903L001L5063200504094544892D23700007819876501151023507100000008500210130350   CRESCENT1 CUS0052950          F EBRAHIM                     00000000000000000000                21                      
903L001L5063200504094544892D23700007947001001607977387200000008500210130350   CRESCENT1 CUS0057404          I JACOBS                      00000000000000000000                21                      
903L001L5063200504094544892D23700008025065562591841723100000008500210130350   CRESCENT1 CUS0059190          W DAVIDS                      00000000000000000000                21                      
903L001L5063200504094544892D23700008163200504035715987100000008500210130350   CRESCENT1 CUS0002861          H JALLAL                      00000000000000000000                21                      
903L001L5063200504094544892D23700008219876501224114752100000023500210130350   CRESCENT1 CUS0015259          E JADWAT                      00000000000000000000                21                      
903L001L5063200504094544892D23700008305100100001291963100000008500210130350   CRESCENT1 CUS0024870          F KIRSTEN                     00000000000000000000                21                      
903L001L5063200504094544892D23700008425065562409955773100000008500210130350   CRESCENT1 CUS0031790          A DINDAR                      00000000000000000000                21                      
903L001L5063200504094544892D23700008558010510011067945100000008500210130350   CRESCENT1 CUS0036942          F EBRAHIM                     00000000000000000000                21                      
903L001L5063200504094544892D23700008625065562045252559100000008500210130350   CRESCENT1 CUS0042839          N SEFU                        00000000000000000000                21                      
903L001L5063200504094544892D23700008725065551200024530100000016000210130350   CRESCENT1 CUS0048041          I MAHOMED                     00000000000000000000                21                      
903L001L5063200504094544892D23700008825065562767896304100000008500210130350   CRESCENT1 CUS0052969          A KROTZ                       00000000000000000000                21                      
903L001L5063200504094544892D23700008947001001151561264200000008500210130350   CRESCENT1 CUS0057405          S SALIE                       00000000000000000000                21                      
903L001L5063200504094544892D23700009047001001266061388200000008500210130350   CRESCENT1 CUS0059192          M SEDICK                      00000000000000000000                21                      
903L001L5063200504094544892D23700009119876501969160330100000016000210130350   CRESCENT1 CUS0002884          A LUDICK                      00000000000000000000                21                      
903L001L5063200504094544892D23700009247001001328299447200000008500210130350   CRESCENT1 CUS0015290          T ROJAN                       00000000000000000000                21                      
903L001L5063200504094544892D23700009325065560529158243100000008500210130350   CRESCENT1 CUS0024881          N GAFFOOR                     00000000000000000000                21                      
903L001L5063200504094544892D23700009425065562089015385100000008500210130350   CRESCENT1 CUS0031807          S KHAN                        00000000000000000000                21                      
903L001L5063200504094544892D23700009525065562807060843100000008500210130350   CRESCENT1 CUS0036943          M SHAIK                       00000000000000000000                21                      
903L001L5063200504094544892D23700009625065562335820743100000008500210130350   CRESCENT1 CUS0042901          L BARRON                      00000000000000000000                21                      
903L001L5063200504094544892D23700009763200504083059430100000008500210130350   CRESCENT1 CUS0048042          R WILLIAMS                    00000000000000000000                21                      
903L001L5063200504094544892D23700009825065562514646556100000008500210130350   CRESCENT1 CUS0052995          A NAIDOO                      00000000000000000000                21                      
903L001L5063200504094544892D23700009963200509338185975100000008500210130350   CRESCENT1 CUS0057408          F SOLOMON                     00000000000000000000                21                      
903L001L5063200504094544892D23700010025065562097983508100000008500210130350   CRESCENT1 CUS0059195          A KAMISH                      00000000000000000000                21                      
903L001L5063200504094544892D23700010163200504089816246100000008500210130350   CRESCENT1 CUS0002886          Z HASSEN                      00000000000000000000                21                      
903L001L5063200504094544892D23700010263200509053596273100000008500210130350   CRESCENT1 CUS0015291          N HOOSEN                      00000000000000000000                21                      
903L001L5063200504094544892D23700010305100100202568849100000008500210130350   CRESCENT1 CUS0024884          M HANS                        00000000000000000000                21                      
903L001L5063200504094544892D23700010419876501025390164100000008500210130350   CRESCENT1 CUS0031816          S CASSIEM                     00000000000000000000                21                      
903L001L5063200504094544892D23700010525065562416921543100000008500210130350   CRESCENT1 CUS0036972          M JASSAT                      00000000000000000000                21                      
903L001L5063200504094544892D23700010625065562021877420100000008500210130350   CRESCENT1 CUS0042904          A PATEL                       00000000000000000000                21                      
903L001L5063200504094544892D23700010725065562309408971100000008500210130350   CRESCENT1 CUS0048044          M MENTOOR                     00000000000000000000                21                      
903L001L5063200504094544892D23700010825065562765790326100000016000210130350   CRESCENT1 CUS0053040          A DRAMAT                      00000000000000000000                21                      
903L001L5063200504094544892D23700010947001001130148481200000007500210130350   CRESCENT1 CUS0057415          R SALIE                       00000000000000000000                21                      
903L001L5063200504094544892D23700011025065562093847956100000008500210130350   CRESCENT1 CUS0059199          T ABUSALAH                    00000000000000000000                21                      
903L001L5063200504094544892D23700011125065562662533829100000008500210130350   CRESCENT1 CUS0002889          R HASSEN                      00000000000000000000                21                      
903L001L5063200504094544892D23700011263200504087020724100000008500210130350   CRESCENT1 CUS0015327          F SEEDAT                      00000000000000000000                21                      
903L001L5063200504094544892D23700011319876501068913711100000016000210130350   CRESCENT1 CUS0024894          B BARDIEN                     00000000000000000000                21                      
903L001L5063200504094544892D23700011425065562017517676100000022500210130350   CRESCENT1 CUS0031831          A PATEL                       00000000000000000000                21                      
903L001L5063200504094544892D23700011547001001651190923200000008500210130350   CRESCENT1 CUS0036977          Y SAITH                       00000000000000000000                21                      
903L001L5063200504094544892D23700011663200504081021902100000008500210130350   CRESCENT1 CUS0042913          G JORDAN                      00000000000000000000                21                      
903L001L5063200504094544892D23700011719876501106550714100000008500210130350   CRESCENT1 CUS0048049          F KARJIEKAR                   00000000000000000000                21                      
903L001L5063200504094544892D23700011847001001288004913200000008500210130350   CRESCENT1 CUS0053071          F KHAN                        00000000000000000000                21                      
903L001L5063200504094544892D23700011925065562802310855100000008500210130350   CRESCENT1 CUS0057429          M BRENNER                     00000000000000000000                21                      
903L001L5063200504094544892D23700012047001001409411166200000008500210130350   CRESCENT1 CUS0059201          E ABRAHAMS                    00000000000000000000                21                      
903L001L5063200504094544892D23700012163200504068273776100000008500210130350   CRESCENT1 CUS0002936          M MALEK MURTUJA               00000000000000000000                21                      
903L001L5063200504094544892D23700012219876501008327263100000008500210130350   CRESCENT1 CUS0015343          J ELLEMDEEN                   00000000000000000000                21                      
903L001L5063200504094544892D23700012319876501605246816100000008500210130350   CRESCENT1 CUS0024912          H ABOOBAKER                   00000000000000000000                21                      
903L001L5063200504094544892D23700012419876501953529720100000007500210130350   CRESCENT1 CUS0031843          H HATTIA                      00000000000000000000                21                      
903L001L5063200504094544892D23700012563200504061353424100000008500210130350   CRESCENT1 CUS0037004          A SALEY                       00000000000000000000                21                      
903L001L5063200504094544892D23700012663200504074756667100000008500210130350   CRESCENT1 CUS0042933          S FORTUNE                     00000000000000000000                21                      
903L001L5063200504094544892D23700012719876501104983672100000008500210130350   CRESCENT1 CUS0048056          M DAVIDS                      00000000000000000000                21                      
903L001L5063200504094544892D23700012847001001295334834200000008500210130350   CRESCENT1 CUS0053083          M KELLY                       00000000000000000000                21                      
903L001L5063200504094544892D23700012919876501190087928100000008500210130350   CRESCENT1 CUS0057431          I DAVIDS                      00000000000000000000                21                      
903L001L5063200504094544892D23700013063200504097847001100000008500210130350   CRESCENT1 CUS0059202          A BUSCH                       00000000000000000000                21                      
903L001L5063200504094544892D23700013147001001302839754200000008500210130350   CRESCENT1 CUS0002955          K BOSMAN                      00000000000000000000                21                      
903L001L5063200504094544892D23700013205100100207651590100000016000210130350   CRESCENT1 CUS0015345          F BACCUS                      00000000000000000000                21                      
903L001L5063200504094544892D23700013305100100009062068100000008500210130350   CRESCENT1 CUS0024936          N HAMID                       00000000000000000000                21                      
903L001L5063200504094544892D23700013463200504083688752100000016000210130350   CRESCENT1 CUS0031871          F KRUGER                      00000000000000000000                21                      
903L001L5063200504094544892D23700013525065562002620145100000008500210130350   CRESCENT1 CUS0037030          M VARACHIA                    00000000000000000000                21                      
903L001L5063200504094544892D23700013663200509274120237100000008500210130350   CRESCENT1 CUS0042935          R ASVAT                       00000000000000000000                21                      
903L001L5063200504094544892D23700013705100100271682582100000008500210130350   CRESCENT1 CUS0048058          M HENDRICKS                   00000000000000000000                21                      
903L001L5063200504094544892D23700013805100100273511114100000007500210130350   CRESCENT1 CUS0053085          J BAILEY                      00000000000000000000                21                      
903L001L5063200504094544892D23700013947001001492359333200000006900210130350   CRESCENT1 CUS0057442          S KAJEE                       00000000000000000000                21                      
903L001L5063200504094544892D23700014047001001650920316200000008500210130350   CRESCENT1 CUS0059203          N HAMDULAY                    00000000000000000000                21                      
903L001L5063200504094544892D23700014147001001562801900200000008500210130350   CRESCENT1 CUS0002978          S MOHAMMED                    00000000000000000000                21                      
903L001L5063200504094544892D23700014205100100008946213100000008500210130350   CRESCENT1 CUS0015390          Z CHOPDAT                     00000000000000000000                21                      
903L001L5063200504094544892D23700014363200500118763815100000008500210130350   CRESCENT1 CUS0024983          M NIANDIN                     00000000000000000000                21                      
903L001L5063200504094544892D23700014463200504061204457100000007500210130350   CRESCENT1 CUS0031881          F ADAM                        00000000000000000000                21                      
903L001L5063200504094544892D23700014519876501110907907100000008500210130350   CRESCENT1 CUS0037063          S LAHER                       00000000000000000000                21                      
903L001L5063200504094544892D23700014625065562726325203100000008500210130350   CRESCENT1 CUS0042999          F ABBASS                      00000000000000000000                21                      
903L001L5063200504094544892D23700014763200509111672812100000007500210130350   CRESCENT1 CUS0048067          B SALIE                       00000000000000000000                21                      
903L001L5063200504094544892D23700014805100110046483142100000008500210130350   CRESCENT1 CUS0053141          F SAMAAI                      00000000000000000000                21                      
903L001L5063200504094544892D23700014905100100271903422100000008500210130350   CRESCENT1 CUS0057445          M FISHER                      00000000000000000000                21                      
903L001L5063200504094544892D23700015025065562837975872100000008500210130350   CRESCENT1 CUS0059205          Y MOHAMAD                     00000000000000000000                21                      
903L001L5063200504094544892D23700015147001001669427429200000007500210130350   CRESCENT1 CUS0003017          M EBRAHIM                     00000000000000000000                21                      
903L001L5063200504094544892D23700015263200509108348545100000016000210130350   CRESCENT1 CUS0015398          F LAZARUS                     00000000000000000000                21                      
903L001L5063200504094544892D23700015319876501123344671100000006900210130350   CRESCENT1 CUS0024984          M JACKSON                     00000000000000000000                21                      
903L001L5063200504094544892D23700015463200509087869365100000023500210130350   CRESCENT1 CUS0031902          M MOHAMED                     00000000000000000000                21                      
903L001L5063200504094544892D23700015525065562373726044100000036900210130350   CRESCENT1 CUS0037085          J LEON                        00000000000000000000                21                      
903L001L5063200504094544892D23700015619876501976020875100000008500210130350   CRESCENT1 CUS0043042          S AZIZ                        00000000000000000000                21                      
903L001L5063200504094544892D23700015705100100282064176100000008500210130350   CRESCENT1 CUS0048116          F ALLY                        00000000000000000000                21                      
903L001L5063200504094544892D23700015863200509302523999100000008500210130350   CRESCENT1 CUS0053144          A AFZAL                       00000000000000000000                21                      
903L001L5063200504094544892D23700015905100110050104010100000008500210130350   CRESCENT1 CUS0057453          N ADAMS                       00000000000000000000                21                      
903L001L5063200504094544892D23700016025065562435092234100000008500210130350   CRESCENT1 CUS0059207          T RICHARDS                    00000000000000000000                21                      
903L001L5063200504094544892D23700016105100100204203643100000008500210130350   CRESCENT1 CUS0003040          S SALLIE                      00000000000000000000                21                      
903L001L5063200504094544892D23700016205100100202580717100000016000210130350   CRESCENT1 CUS0015416          S EVANS                       00000000000000000000                21                      
903L001L5063200504094544892D23700016319876501153627191100000023500210130350   CRESCENT1 CUS0024992          E JAFFER                      00000000000000000000                21                      
903L001L5063200504094544892D23700016419876502035422086200000016000210130350   CRESCENT1 CUS0031912          A HOOSAIN                     00000000000000000000                21                      
903L001L5063200504094544892D23700016547001001421229429200000008500210130350   CRESCENT1 CUS0037171          M MAHOMED                     00000000000000000000                21                      
903L001L5063200504094544892D23700016605100100006748597100000016000210130350   CRESCENT1 CUS0043052          F BEGG                        00000000000000000000                21                      
903L001L5063200504094544892D23700016725065562068994386100000008500210130350   CRESCENT1 CUS0048128          A SAULS                       00000000000000000000                21                      
903L001L5063200504094544892D23700016805100100074455974100000016000210130350   CRESCENT1 CUS0053173          F ABRAHAMS                    00000000000000000000                21                      
903L001L5063200504094544892D23700016919876501171245319100000008500210130350   CRESCENT1 CUS0057461          L SOLOMONS                    00000000000000000000                21                      
903L001L5063200504094544892D23700017047001001254104850200000008500210130350   CRESCENT1 CUS0059208          Z WAGGIE                      00000000000000000000                21                      
903L001L5063200504094544892D23700017125065562260621977100000008500210130350   CRESCENT1 CUS0003058          R NANA                        00000000000000000000                21                      
903L001L5063200504094544892D23700017205100100008124132100000008500210130350   CRESCENT1 CUS0015451          Z HOOSAIN                     00000000000000000000                21                      
903L001L5063200504094544892D23700017305100100207522057100000008500210130350   CRESCENT1 CUS0025000          Z ALLY                        00000000000000000000                21                      
903L001L5063200504094544892D23700017405100100040065855100000008500210130350   CRESCENT1 CUS0031930          R BAULACKEY                   00000000000000000000                21                      
903L001L5063200504094544892D23700017525065562301076338100000016000210130350   CRESCENT1 CUS0037186          B KAJEE                       00000000000000000000                21                      
903L001L5063200504094544892D23700017625065562011438430100000008500210130350   CRESCENT1 CUS0043061          F HASSIM                      00000000000000000000                21                      
903L001L5063200504094544892D23700017763200504062329032100000008500210130350   CRESCENT1 CUS0048148          M SULAIMAN                    00000000000000000000                21                      
903L001L5063200504094544892D23700017805100100071361448100000007500210130350   CRESCENT1 CUS0053185          F ABDEROEF                    00000000000000000000                21                      
903L001L5063200504094544892D23700017947001001464339684200000008500210130350   CRESCENT1 CUS0057475          M CHRISTIAAN                  00000000000000000000                21                      
903L001L5063200504094544892D23700018047001001368884790200000008500210130350   CRESCENT1 CUS0059209          W WILKONSON                   00000000000000000000                21                      
903L001L5063200504094544892D23700018119876501924334852100000008500210130350   CRESCENT1 CUS0003066          M LAHER                       00000000000000000000                21                      
903L001L5063200504094544892D23700018219876501950534707100000016000210130350   CRESCENT1 CUS0015476          A BAGUS                       00000000000000000000                21                      
903L001L5063200504094544892D23700018305100100207522057100000007500210130350   CRESCENT1 CUS0025001          H MOIDIN                      00000000000000000000                21                      
903L001L5063200504094544892D23700018425065562453821756100000008500210130350   CRESCENT1 CUS0031946          S SABER                       00000000000000000000                21                      
903L001L5063200504094544892D23700018547001001346039176200000008500210130350   CRESCENT1 CUS0037228          E ASTRIE                      00000000000000000000                21                      
903L001L5063200504094544892D23700018647001001625317849200000008500210130350   CRESCENT1 CUS0043070          M MARCUS                      00000000000000000000                21                      
903L001L5063200504094544892D23700018725065562135959875100000008500210130350   CRESCENT1 CUS0048151          F KHAN                        00000000000000000000                21                      
903L001L5063200504094544892D23700018863200504087883132100000008500210130350   CRESCENT1 CUS0053188          A MOOSA                       00000000000000000000                21                      
903L001L5063200504094544892D23700018947001001497090200200000008500210130350   CRESCENT1 CUS0057479          F PETERSEN                    00000000000000000000                21                      
903L001L5063200504094544892D23700019005100100072865423100000008500210130350   CRESCENT1 CUS0059211          A SIMPSON                     00000000000000000000                21                      
903L001L5063200504094544892D23700019105100100032303106100000008500210130350   CRESCENT1 CUS0003077          I KHAN                        00000000000000000000                21                      
903L001L5063200504094544892D23700019219876501088590497100000016000210130350   CRESCENT1 CUS0015477          A VINCENT                     00000000000000000000                21                      
903L001L5063200504094544892D23700019325065562067215551100000008500210130350   CRESCENT1 CUS0025003          Y HASSEN                      00000000000000000000                21                      
903L001L5063200504094544892D23700019425065560335096538100000008500210130350   CRESCENT1 CUS0031991          R CAJEE                       00000000000000000000                21                      
903L001L5063200504094544892D23700019505100100354358871100000008500210130350   CRESCENT1 CUS0037236          F BUCCAS                      00000000000000000000                21                      
903L001L5063200504094544892D23700019619876501010141428100000016000210130350   CRESCENT1 CUS0043083          N MOOI                        00000000000000000000                21                      
903L001L5063200504094544892D23700019725065562583829266100000008500210130350   CRESCENT1 CUS0048157          R DAVIDS                      00000000000000000000                21                      
903L001L5063200504094544892D23700019825065560133552229100000007500210130350   CRESCENT1 CUS0053189          S GABRIELS                    00000000000000000000                21                      
903L001L5063200504094544892D23700019919876501137493984100000008500210130350   CRESCENT1 CUS0057481          G ALLIE                       00000000000000000000                21                      
903L001L5063200504094544892D23700020047001001261552561200000008500210130350   CRESCENT1 CUS0059212          R PLATO                       00000000000000000000                21                      
903L001L5063200504094544892D23700020125065562459252575100000008500210130350   CRESCENT1 CUS0003284          T SALIM                       00000000000000000000                21                      
903L001L5063200504094544892D23700020263200504079203237100000008500210130350   CRESCENT1 CUS0015549          S ESSAKJEE                    00000000000000000000                21                      
903L001L5063200504094544892D23700020319876501007221046100000031000210130350   CRESCENT1 CUS0025008          R CASSIM                      00000000000000000000                21                      
903L001L5063200504094544892D23700020425065562235957406100000008500210130350   CRESCENT1 CUS0031993          M AHMED                       00000000000000000000                21                      
903L001L5063200504094544892D23700020563200509193634559100000008500210130350   CRESCENT1 CUS0037345          E SAYED                       00000000000000000000                21                      
903L001L5063200504094544892D23700020625065562100128984100000008500210130350   CRESCENT1 CUS0043148          A AMOD                        00000000000000000000                21                      
903L001L5063200504094544892D23700020747001001474638676200000016000210130350   CRESCENT1 CUS0048178          M ISAACS                      00000000000000000000                21                      
903L001L5063200504094544892D23700020805100100070005826100000008500210130350   CRESCENT1 CUS0053197          M NORDIEN                     00000000000000000000                21                      
903L001L5063200504094544892D23700020925065562371206585100000008500210130350   CRESCENT1 CUS0057482          T DAMON                       00000000000000000000                21                      
903L001L5063200504094544892D23700021046200507564481301200000008500210130350   CRESCENT1 CUS0059216          W DAVIDS                      00000000000000000000                21                      
903L001L5063200504094544892D23700021105100100402170954100000008500210130350   CRESCENT1 CUS0003453          R TULK                        00000000000000000000                21                      
903L001L5063200504094544892D23700021280000078600005514200000008500210130350   CRESCENT1 CUS0015584          F AKBAR                       00000000000000000000                21                      
903L001L5063200504094544892D23700021305100100203197666100000016000210130350   CRESCENT1 CUS0025074          M CASSIEM                     00000000000000000000                21                      
903L001L5063200504094544892D23700021405100100280915594100000008500210130350   CRESCENT1 CUS0032067          S SHAIKH                      00000000000000000000                21                      
903L001L5063200504094544892D23700021563200509155568241100000008500210130350   CRESCENT1 CUS0037353          A WOOKAY                      00000000000000000000                21                      
903L001L5063200504094544892D23700021625065562553271710100000008500210130350   CRESCENT1 CUS0043172          R TAJUDIEN                    00000000000000000000                21                      
903L001L5063200504094544892D23700021763200506201211462100000008500210130350   CRESCENT1 CUS0048181          F ABRAHAMS                    00000000000000000000                21                      
903L001L5063200504094544892D23700021805100100073323500100000007500210130350   CRESCENT1 CUS0053199          M GARBRIELS                   00000000000000000000                21                      
903L001L5063200504094544892D23700021925065562224667298100000008500210130350   CRESCENT1 CUS0057484          A LATIEF                      00000000000000000000                21                      
903L001L5063200504094544892D23700022047001001705533416200000008500210130350   CRESCENT1 CUS0059219          F EBRAHIEM                    00000000000000000000                21                      
903L001L5063200504094544892D23700022163200509114076377100000008500210130350   CRESCENT1 CUS0003514          S VARACHIA                    00000000000000000000                21                      
903L001L5063200504094544892D23700022225065562331557275100000008500210130350   CRESCENT1 CUS0015659          Z LUNAT                       00000000000000000000                21                      
903L001L5063200504094544892D23700022319876501357034032100000008500210130350   CRESCENT1 CUS0025148          F SALLIE                      00000000000000000000                21                      
903L001L5063200504094544892D23700022405100100202549003100000008500210130350   CRESCENT1 CUS0032089          N JAMAL                       00000000000000000000                21                      
903L001L5063200504094544892D23700022525065562348584526100000016000210130350   CRESCENT1 CUS0037364          F MOKAMELA                    00000000000000000000                21                      
903L001L5063200504094544892D23700022605100100438224213100000008500210130350   CRESCENT1 CUS0043191          M GALLIE                      00000000000000000000                21                      
903L001L5063200504094544892D23700022747001001366157026200000016000210130350   CRESCENT1 CUS0048185          K JACOBS                      00000000000000000000                21                      
903L001L5063200504094544892D23700022825065562405381906100000008500210130350   CRESCENT1 CUS0053200          I BELIM                       00000000000000000000                21                      
903L001L5063200504094544892D23700022905100100078958288100000008500210130350   CRESCENT1 CUS0057485          F ADAMS                       00000000000000000000                21                      
903L001L5063200504094544892D23700023019876501164605682100000008500210130350   CRESCENT1 CUS0059222          G DAVIDS                      00000000000000000000                21                      
903L001L5063200504094544892D23700023125065562130114804100000008500210130350   CRESCENT1 CUS0003517          Z GRAFFIN                     00000000000000000000                21                      
903L001L5063200504094544892D23700023225065562283921453100000008500210130350   CRESCENT1 CUS0015677          S MULLA                       00000000000000000000                21                      
903L001L5063200504094544892D23700023363200500710079749100000016000210130350   CRESCENT1 CUS0025163          I GASSIEP                     00000000000000000000                21                      
903L001L5063200504094544892D23700023405100100042089654100000007500210130350   CRESCENT1 CUS0032099          S DAWOOD ESAKJEE              00000000000000000000                21                      
903L001L5063200504094544892D23700023563200509129795301100000008500210130350   CRESCENT1 CUS0037369          A DAVIDS                      00000000000000000000                21                      
903L001L5063200504094544892D23700023625065553145325049100000008500210130350   CRESCENT1 CUS0043197          R SURTIE                      00000000000000000000                21                      
903L001L5063200504094544892D23700023763200509302545557100000008500210130350   CRESCENT1 CUS0048211          Z EBRAHIM                     00000000000000000000                21                      
903L001L5063200504094544892D23700023847001001282735991200000008500210130350   CRESCENT1 CUS0053226          A NORTON                      00000000000000000000                21                      
903L001L5063200504094544892D23700023925065562453733852100000008500210130350   CRESCENT1 CUS0057493          W BRINKHUIS                   00000000000000000000                21                      
903L001L5063200504094544892D23700024025065562436193768100000008500210130350   CRESCENT1 CUS0059228          F PANDY                       00000000000000000000                21                      
903L001L5063200504094544892D23700024125065562318844629100000008500210130350   CRESCENT1 CUS0003535          R KHAN                        00000000000000000000                21                      
903L001L5063200504094544892D23700024245010501550918400200000008500210130350   CRESCENT1 CUS0015737          S SHAHABOODIEN                00000000000000000000                21                      
903L001L5063200504094544892D23700024305100100011476222100000008500210130350   CRESCENT1 CUS0025190          T MOHAMED                     00000000000000000000                21                      
903L001L5063200504094544892D23700024463200504064940290100000008500210130350   CRESCENT1 CUS0032135          T PATEL                       00000000000000000000                21                      
903L001L5063200504094544892D23700024505100110095370445100000008500210130350   CRESCENT1 CUS0037371          B HAET                        00000000000000000000                21                      
903L001L5063200504094544892D23700024605100100001131680100000008500210130350   CRESCENT1 CUS0043199          S OMAR                        00000000000000000000                21                      
903L001L5063200504094544892D23700024725065550070060154100000008500210130350   CRESCENT1 CUS0048217          M DAVIDS                      00000000000000000000                21                      
903L001L5063200504094544892D23700024825065560008210928100000007500210130350   CRESCENT1 CUS0053228          W HANKEY                      00000000000000000000                21                      
903L001L5063200504094544892D23700024919876501145304311100000008500210130350   CRESCENT1 CUS0057497          F DAVIDS                      00000000000000000000                21                      
903L001L5063200504094544892D23700025047001001162369955200000008500210130350   CRESCENT1 CUS0059233          M SOLOMONS                    00000000000000000000                21                      
903L001L5063200504094544892D23700025163200504088568199100000006900210130350   CRESCENT1 CUS0003589          M DOLLEY                      00000000000000000000                21                      
903L001L5063200504094544892D23700025205100100403551978100000008500210130350   CRESCENT1 CUS0015781          R JAFFER                      00000000000000000000                21                      
903L001L5063200504094544892D23700025305100100251824470100000016000210130350   CRESCENT1 CUS0025220          A HASSAN                      00000000000000000000                21                      
903L001L5063200504094544892D23700025463200509127842124100000007500210130350   CRESCENT1 CUS0032164          M PRINCE                      00000000000000000000                21                      
903L001L5063200504094544892D23700025563200509247780228100000008500210130350   CRESCENT1 CUS0037443          Z ABRAHAMS                    00000000000000000000                21                      
903L001L5063200504094544892D23700025605100100010064877100000006900210130350   CRESCENT1 CUS0043281          F MOHIDEEN                    00000000000000000000                21                      
903L001L5063200504094544892D23700025763200509045070005100000007500210130350   CRESCENT1 CUS0048221          A BOOMGAARD                   00000000000000000000                21                      
903L001L5063200504094544892D23700025847001001340382030200000008500210130350   CRESCENT1 CUS0053240          J JACOBS                      00000000000000000000                21                      
903L001L5063200504094544892D23700025925065562453199632100000008500210130350   CRESCENT1 CUS0057503          A GANIEF                      00000000000000000000                21                      
903L001L5063200504094544892D23700026047001001595265587200000008500210130350   CRESCENT1 CUS0059235          K WAGGIE                      00000000000000000000                21                      
903L001L5063200504094544892D23700026125065552444358074100000016000210130350   CRESCENT1 CUS0003688          A SHARIFF                     00000000000000000000                21                      
903L001L5063200504094544892D23700026205100100207738890100000008500210130350   CRESCENT1 CUS0015822          S KHALID                      00000000000000000000                21                      
903L001L5063200504094544892D23700026305100100009102752100000008500210130350   CRESCENT1 CUS0025260          I FREDERICKS                  00000000000000000000                21                      
903L001L5063200504094544892D23700026463200509274258749100000008500210130350   CRESCENT1 CUS0032187          R LIMBADA                     00000000000000000000                21                      
903L001L5063200504094544892D23700026563200504087057783100000008500210130350   CRESCENT1 CUS0037477          F JARDIEN                     00000000000000000000                21                      
903L001L5063200504094544892D23700026605100110130115167200000008500210130350   CRESCENT1 CUS0043288          M FRIDIE                      00000000000000000000                21                      
903L001L5063200504094544892D23700026705100100081934084100000008500210130350   CRESCENT1 CUS0048258          I DADA                        00000000000000000000                21                      
903L001L5063200504094544892D23700026825065562605461665100000008500210130350   CRESCENT1 CUS0053242          S MCGIRLLEY                   00000000000000000000                21                      
903L001L5063200504094544892D23700026947001001524090628200000008500210130350   CRESCENT1 CUS0057504          N BASSIER                     00000000000000000000                21                      
903L001L5063200504094544892D23700027047001001606450121200000008500210130350   CRESCENT1 CUS0059239          Z PETERSEN                    00000000000000000000                21                      
903L001L5063200504094544892D23700027125065562345803614100000008500210130350   CRESCENT1 CUS0003690          R CHOTHIA                     00000000000000000000                21                      
903L001L5063200504094544892D23700027205100100062143840100000008500210130350   CRESCENT1 CUS0015840          B RASOOL                      00000000000000000000                21                      
903L001L5063200504094544892D23700027325065562790849552100000008500210130350   CRESCENT1 CUS0025264          R MOHAMMED                    00000000000000000000                21                      
903L001L5063200504094544892D23700027425065550600016824100000006900210130350   CRESCENT1 CUS0032190          F FAKIR                       00000000000000000000                21                      
903L001L5063200504094544892D23700027519876501030913587100000016000210130350   CRESCENT1 CUS0037481          S DARSOT                      00000000000000000000                21                      
903L001L5063200504094544892D23700027605100100002331276100000008500210130350   CRESCENT1 CUS0043293          S MOHAMED                     00000000000000000000                21                      
903L001L5063200504094544892D23700027705100100272910163100000008500210130350   CRESCENT1 CUS0048268          E PETERSEN                    00000000000000000000                21                      
903L001L5063200504094544892D23700027863200509285100484100000008500210130350   CRESCENT1 CUS0053243          M BASARDIEN                   00000000000000000000                21                      
903L001L5063200504094544892D23700027919876501195897464100000008500210130350   CRESCENT1 CUS0057536          O MOHAMED                     00000000000000000000                21                      
903L001L5063200504094544892D23700028063200509334155142100000016000210130350   CRESCENT1 CUS0059243          F LEVY                        00000000000000000000                21                      
903L001L5063200504094544892D23700028180000078600111847200000007500210130350   CRESCENT1 CUS0003712          S VACHIAT                     00000000000000000000                21                      
903L001L5063200504094544892D23700028205100100402248740100000016000210130350   CRESCENT1 CUS0015862          C MOERAT                      00000000000000000000                21                      
903L001L5063200504094544892D23700028363200509297679308100000008500210130350   CRESCENT1 CUS0025266          B GOONDIE                     00000000000000000000                21                      
903L001L5063200504094544892D23700028425065552440011163100000008500210130350   CRESCENT1 CUS0032221          S CHOONARA                    00000000000000000000                21                      
903L001L5063200504094544892D23700028505100100023011033100000008500210130350   CRESCENT1 CUS0037515          N MAYNARD                     00000000000000000000                21                      
903L001L5063200504094544892D23700028605100100020090544100000008500210130350   CRESCENT1 CUS0043298          F ABDUL                       00000000000000000000                21                      
903L001L5063200504094544892D23700028725065555021137192100000007500210130350   CRESCENT1 CUS0048284          S SAYED                       00000000000000000000                21                      
903L001L5063200504094544892D23700028847001001485647337200000008500210130350   CRESCENT1 CUS0053264          K ABRAHAMS                    00000000000000000000                21                      
903L001L5063200504094544892D23700028947001001309597454200000008500210130350   CRESCENT1 CUS0057540          S PETERSEN                    00000000000000000000                21                      
903L001L5063200504094544892D23700029005100100072941847100000016000210130350   CRESCENT1 CUS0059244          G ABDULLA                     00000000000000000000                21                      
903L001L5063200504094544892D23700029105100100302310223100000016000210130350   CRESCENT1 CUS0003832          F TEMMERS                     00000000000000000000                21                      
903L001L5063200504094544892D23700029225065562183808660100000013800210130350   CRESCENT1 CUS0015867          S KESSOPARSADH                00000000000000000000                21                      
903L001L5063200504094544892D23700029319876501372015248100000008500210130350   CRESCENT1 CUS0025280          F FAYERS                      00000000000000000000                21                      
903L001L5063200504094544892D23700029405100100184164648100000016000210130350   CRESCENT1 CUS0032224          J KHAN                        00000000000000000000                21                      
903L001L5063200504094544892D23700029525065562243573228100000008500210130350   CRESCENT1 CUS0037530          E HOOSSAIN                    00000000000000000000                21                      
903L001L5063200504094544892D23700029605100100200422693100000008500210130350   CRESCENT1 CUS0043300          S VALLEE                      00000000000000000000                21                      
903L001L5063200504094544892D23700029705100100002806983100000008500210130350   CRESCENT1 CUS0048306          Y RASDIEN                     00000000000000000000                21                      
903L001L5063200504094544892D23700029819876501449048617100000008500210130350   CRESCENT1 CUS0053304          S FORTUNE                     00000000000000000000                21                      
903L001L5063200504094544892D23700029919876502021318443200000007500210130350   CRESCENT1 CUS0057552          N MOHAMED                     00000000000000000000                21                      
903L001L5063200504094544892D23700030025065562759029707100000008500210130350   CRESCENT1 CUS0059245          F LIMBADA                     00000000000000000000                21                      
903L001L5063200504094544892D23700030125065562397766969100000008500210130350   CRESCENT1 CUS0003892          M LAHER                       00000000000000000000                21                      
903L001L5063200504094544892D23700030263200504054321038100000008500210130350   CRESCENT1 CUS0015880          E HANSLO                      00000000000000000000                21                      
903L001L5063200504094544892D23700030325065562084304155100000008500210130350   CRESCENT1 CUS0025336          F FAKIR                       00000000000000000000                21                      
903L001L5063200504094544892D23700030463200509073641771100000008500210130350   CRESCENT1 CUS0032228          I ABDOOL                      00000000000000000000                21                      
903L001L5063200504094544892D23700030525065562196267978100000008500210130350   CRESCENT1 CUS0037564          R MARTIN                      00000000000000000000                21                      
903L001L5063200504094544892D23700030625065562404531833100000008500210130350   CRESCENT1 CUS0043301          S SALLIE                      00000000000000000000                21                      
903L001L5063200504094544892D23700030705100100072588039100000016000210130350   CRESCENT1 CUS0048311          F ASOUHAAR EBRAHIM            00000000000000000000                21                      
903L001L5063200504094544892D23700030825065562267303841100000008500210130350   CRESCENT1 CUS0053317          S LOSPER                      00000000000000000000                21                      
903L001L5063200504094544892D23700030905100110068549642100000008500210130350   CRESCENT1 CUS0057564          W WILLIAMS                    00000000000000000000                21                      
903L001L5063200504094544892D23700031063200504084157499100000016000210130350   CRESCENT1 CUS0059251          A KAPREY                      00000000000000000000                21                      
903L001L5063200504094544892D23700031105100100002519399100000008500210130350   CRESCENT1 CUS0003900          D AMOD                        00000000000000000000                21                      
903L001L5063200504094544892D23700031205100100062646079100000008500210130350   CRESCENT1 CUS0015888          A MOTANI                      00000000000000000000                21                      
903L001L5063200504094544892D23700031305100100240067029100000008500210130350   CRESCENT1 CUS0025369          S STANLEY                     00000000000000000000                21                      
903L001L5063200504094544892D23700031447001001186304225200000008500210130350   CRESCENT1 CUS0032236          S MOOLA                       00000000000000000000                21                      
903L001L5063200504094544892D23700031525065562806210126100000008500210130350   CRESCENT1 CUS0037571          S FERRIS                      00000000000000000000                21                      
903L001L5063200504094544892D23700031619876501029481032100000008500210130350   CRESCENT1 CUS0043313          A WILSON                      00000000000000000000                21                      
903L001L5063200504094544892D23700031705100100012386006100000007500210130350   CRESCENT1 CUS0048315          M MOHAMED                     00000000000000000000                21                      
903L001L5063200504094544892D23700031863200504059496222100000008500210130350   CRESCENT1 CUS0053358          W ABRAHAMS                    00000000000000000000                21                      
903L001L5063200504094544892D23700031947001001390778280200000014400210130350   CRESCENT1 CUS0057640          L OUNEL OLIVER                00000000000000000000                21                      
903L001L5063200504094544892D23700032025065562566231149100000008500210130350   CRESCENT1 CUS0059252          R NOORDIEN                    00000000000000000000                21                      
903L001L5063200504094544892D23700032163200509307375002100000006900210130350   CRESCENT1 CUS0003937          M ADAMS                       00000000000000000000                21                      
903L001L5063200504094544892D23700032247001001517404655200000008500210130350   CRESCENT1 CUS0015958          S HARTLEY                     00000000000000000000                21                      
903L001L5063200504094544892D23700032325065562143216001100000008500210130350   CRESCENT1 CUS0025380          M GHULAM HOOSAIN              00000000000000000000                21                      
903L001L5063200504094544892D23700032463200509260927039100000008500210130350   CRESCENT1 CUS0032261          Z ADAMS                       00000000000000000000                21                      
903L001L5063200504094544892D23700032519876501033190853100000023500210130350   CRESCENT1 CUS0037611          C SADER                       00000000000000000000                21                      
903L001L5063200504094544892D23700032625065562746085762100000008500210130350   CRESCENT1 CUS0043317          M PATEL                       00000000000000000000                21                      
903L001L5063200504094544892D23700032763200504091754278100000008500210130350   CRESCENT1 CUS0048323          G STERRIS                     00000000000000000000                21                      
903L001L5063200504094544892D23700032847001001404971201200000008500210130350   CRESCENT1 CUS0053361          R BOWERS                      00000000000000000000                21                      
903L001L5063200504094544892D23700032947001001532035738200000008500210130350   CRESCENT1 CUS0057643          J ABDURAGHMAN                 00000000000000000000                21                      
903L001L5063200504094544892D23700033047001001134365657200000008500210130350   CRESCENT1 CUS0059254          B WILKINSON                   00000000000000000000                21                      
903L001L5063200504094544892D23700033105100100020849583100000016000210130350   CRESCENT1 CUS0003965          A SAYED                       00000000000000000000                21                      
903L001L5063200504094544892D23700033205100100005570719100000023500210130350   CRESCENT1 CUS0016063          D BODIAT                      00000000000000000000                21                      
903L001L5063200504094544892D23700033363200509183040770100000008500210130350   CRESCENT1 CUS0025404          R ABRAHAMS                    00000000000000000000                21                      
903L001L5063200504094544892D23700033425065562549795922100000008500210130350   CRESCENT1 CUS0032272          A MBALAME                     00000000000000000000                21                      
903L001L5063200504094544892D23700033505100100040073238100000008500210130350   CRESCENT1 CUS0037618          P MOHAMED                     00000000000000000000                21                      
903L001L5063200504094544892D23700033663200509073296469100000008500210130350   CRESCENT1 CUS0043366          H COETZEE                     00000000000000000000                21                      
903L001L5063200504094544892D23700033763200509203764246100000013800210130350   CRESCENT1 CUS0048335          A ABRAHAM                     00000000000000000000                21                      
903L001L5063200504094544892D23700033825065562198567996100000008500210130350   CRESCENT1 CUS0053409          R SAN                         00000000000000000000                21                      
903L001L5063200504094544892D23700033947001001361145143200000008500210130350   CRESCENT1 CUS0057670          S ADAMS                       00000000000000000000                21                      
903L001L5063200504094544892D23700034025065562093201144100000008500210130350   CRESCENT1 CUS0059263          M KARRIEM                     00000000000000000000                21                      
903L001L5063200504094544892D23700034105100100625130553100000016000210130350   CRESCENT1 CUS0003976          R GANGAT                      00000000000000000000                21                      
903L001L5063200504094544892D23700034219876501684131960100000008500210130350   CRESCENT1 CUS0016071          T MATTHEWS                    00000000000000000000                21                      
903L001L5063200504094544892D23700034305100100270327754100000008500210130350   CRESCENT1 CUS0025409          N ADAMS                       00000000000000000000                21                      
903L001L5063200504094544892D23700034425065562307005571100000023500210130350   CRESCENT1 CUS0032281          E SALEY                       00000000000000000000                21                      
903L001L5063200504094544892D23700034525065562296350201100000008500210130350   CRESCENT1 CUS0037706          S ISMAIL                      00000000000000000000                21                      
903L001L5063200504094544892D23700034625065562526311858100000008500210130350   CRESCENT1 CUS0043420          M HANSA                       00000000000000000000                21                      
903L001L5063200504094544892D23700034747001001316631743200000008500210130350   CRESCENT1 CUS0048364          A KENNY                       00000000000000000000                21                      
903L001L5063200504094544892D23700034880000078600050886200000007500210130350   CRESCENT1 CUS0053441          M MOHAMED                     00000000000000000000                21                      
903L001L5063200504094544892D23700034925065562112548998100000008500210130350   CRESCENT1 CUS0057683          N DEVAJEE                     00000000000000000000                21                      
903L001L5063200504094544892D23700035047001001490015203200000008500210130350   CRESCENT1 CUS0059268          T PHIPPS                      00000000000000000000                21                      
903L001L5063200504094544892D23700035105100100204228735100000008500210130350   CRESCENT1 CUS0003989          A BALLIM                      00000000000000000000                21                      
903L001L5063200504094544892D23700035225065562739239459100000008500210130350   CRESCENT1 CUS0016090          M TAYOB                       00000000000000000000                21                      
903L001L5063200504094544892D23700035363200504042294289100000008500210130350   CRESCENT1 CUS0025463          A RAHIM                       00000000000000000000                21                      
903L001L5063200504094544892D23700035447001001229197751200000008500210130350   CRESCENT1 CUS0032292          S KHAN                        00000000000000000000                21                      
903L001L5063200504094544892D23700035505100100421673710100000016000210130350   CRESCENT1 CUS0037752          H CASSIM                      00000000000000000000                21                      
903L001L5063200504094544892D23700035605100100258390980100000008500210130350   CRESCENT1 CUS0043422          F THAJMOON                    00000000000000000000                21                      
903L001L5063200504094544892D23700035725065562440929290100000016000210130350   CRESCENT1 CUS0048365          M HASSIM                      00000000000000000000                21                      
903L001L5063200504094544892D23700035805100100371608112100000008500210130350   CRESCENT1 CUS0053442          H RAWAT                       00000000000000000000                21                      
903L001L5063200504094544892D23700035947001001375282474200000008500210130350   CRESCENT1 CUS0057700          Y KLEINTJIES                  00000000000000000000                21                      
903L001L5063200504094544892D23700036047001001216848848200000008500210130350   CRESCENT1 CUS0059269          M JACOBS                      00000000000000000000                21                      
903L001L5063200504094544892D23700036125065562390759094100000016000210130350   CRESCENT1 CUS0004002          F JEENA                       00000000000000000000                21                      
903L001L5063200504094544892D23700036225065562000462242100000016000210130350   CRESCENT1 CUS0016103          M NAKHOODA                    00000000000000000000                21                      
903L001L5063200504094544892D23700036363200509084674947100000008500210130350   CRESCENT1 CUS0025472          Z POONJANI                    00000000000000000000                21                      
903L001L5063200504094544892D23700036447001001444654673200000008500210130350   CRESCENT1 CUS0032308          B MAHOMED                     00000000000000000000                21                      
903L001L5063200504094544892D23700036505100100253997518100000008500210130350   CRESCENT1 CUS0037755          R OSMAN                       00000000000000000000                21                      
903L001L5063200504094544892D23700036625065562417818822100000008500210130350   CRESCENT1 CUS0043427          R BATA                        00000000000000000000                21                      
903L001L5063200504094544892D23700036725065562133048323100000008500210130350   CRESCENT1 CUS0048396          Z KAMALDIEN                   00000000000000000000                21                      
903L001L5063200504094544892D23700036847001001338216161200000008500210130350   CRESCENT1 CUS0053495          S FRIDAY                      00000000000000000000                21                      
903L001L5063200504094544892D23700036905100100202679187100000008500210130350   CRESCENT1 CUS0057724          S ABADER                      00000000000000000000                21                      
903L001L5063200504094544892D23700037025065556280007861100000006900210130350   CRESCENT1 CUS0059270          Z DOLLEY                      00000000000000000000                21                      
903L001L5063200504094544892D23700037119876501783004460100000016000210130350   CRESCENT1 CUS0004072          M CASSIM                      00000000000000000000                21                      
903L001L5063200504094544892D23700037263200504084008896100000008500210130350   CRESCENT1 CUS0016107          F CARIEM                      00000000000000000000                21                      
903L001L5063200504094544892D23700037305100100021708843100000016000210130350   CRESCENT1 CUS0025513          A MOHAMED                     00000000000000000000                21                      
903L001L5063200504094544892D23700037405100100002446774100000007500210130350   CRESCENT1 CUS0032311          G YOUNG                       00000000000000000000                21                      
903L001L5063200504094544892D23700037505100100310811961100000016000210130350   CRESCENT1 CUS0037768          A DAGGIE                      00000000000000000000                21                      
903L001L5063200504094544892D23700037647001001337724147200000008500210130350   CRESCENT1 CUS0043435          S BAGHAS                      00000000000000000000                21                      
903L001L5063200504094544892D23700037705100100255446969100000006900210130350   CRESCENT1 CUS0048404          A GELDENHYS                   00000000000000000000                21                      
903L001L5063200504094544892D23700037819876501956600663100000008500210130350   CRESCENT1 CUS0053520          I SALIE                       00000000000000000000                21                      
903L001L5063200504094544892D23700037905100100270444149100000008500210130350   CRESCENT1 CUS0057731          R SAMUELS                     00000000000000000000                21                      
903L001L5063200504094544892D23700038047001001376967500200000008500210130350   CRESCENT1 CUS0059273          Y EMERAN                      00000000000000000000                21                      
903L001L5063200504094544892D23700038163200509097171233100000008500210130350   CRESCENT1 CUS0004078          A MINTY                       00000000000000000000                21                      
903L001L5063200504094544892D23700038219876501071740237100000016000210130350   CRESCENT1 CUS0016121          M BUX                         00000000000000000000                21                      
903L001L5063200504094544892D23700038305100100250045869100000008500210130350   CRESCENT1 CUS0025583          M BADAT                       00000000000000000000                21                      
903L001L5063200504094544892D23700038463200504071443756100000007500210130350   CRESCENT1 CUS0032389          G TEER                        00000000000000000000                21                      
903L001L5063200504094544892D23700038525065562842120800100000016000210130350   CRESCENT1 CUS0037774          A BASHA                       00000000000000000000                21                      
903L001L5063200504094544892D23700038647001001552963517200000008500210130350   CRESCENT1 CUS0043456          A MOHAMED                     00000000000000000000                21                      
903L001L5063200504094544892D23700038705100100420762183100000008500210130350   CRESCENT1 CUS0048406          L MARTIN                      00000000000000000000                21                      
903L001L5063200504094544892D23700038863200509241131483100000008500210130350   CRESCENT1 CUS0053547          S CADER                       00000000000000000000                21                      
903L001L5063200504094544892D23700038947001001350226570200000008500210130350   CRESCENT1 CUS0057735          Z ABRAHAMS                    00000000000000000000                21                      
903L001L5063200504094544892D23700039025065562719848973100000016000210130350   CRESCENT1 CUS0059275          I MALGAS                      00000000000000000000                21                      
903L001L5063200504094544892D23700039163200500127964335100000016000210130350   CRESCENT1 CUS0004144          A HENDRICKS                   00000000000000000000                21                      
903L001L5063200504094544892D23700039263200509062519208100000008500210130350   CRESCENT1 CUS0016131          F ABDUL RAHMAN                00000000000000000000                21                      
903L001L5063200504094544892D23700039305100100282060278100000008500210130350   CRESCENT1 CUS0025585          M ALI                         00000000000000000000                21                      
903L001L5063200504094544892D23700039405100100243058713100000008500210130350   CRESCENT1 CUS0032395          H ALIJAN                      00000000000000000000                21                      
903L001L5063200504094544892D23700039505100100270951059100000008500210130350   CRESCENT1 CUS0037782          J MAJIET                      00000000000000000000                21                      
903L001L5063200504094544892D23700039663200509314934247100000016000210130350   CRESCENT1 CUS0043475          N DAVIDS                      00000000000000000000                21                      
903L001L5063200504094544892D23700039725065562359890417100000008500210130350   CRESCENT1 CUS0048423          S SILWARY                     00000000000000000000                21                      
903L001L5063200504094544892D23700039847001001491842863200000016000210130350   CRESCENT1 CUS0053548          K LOMBERG                     00000000000000000000                21                      
903L001L5063200504094544892D23700039947001001418218071200000008500210130350   CRESCENT1 CUS0057737          M RAILOUN                     00000000000000000000                21                      
903L001L5063200504094544892D23700040005100110087177607100000008500210130350   CRESCENT1 CUS0059279          M BENJAMIN                    00000000000000000000                21                      
903L001L5063200504094544892D23700040105100100011415002100000008500210130350   CRESCENT1 CUS0004167          N ABDOOLA                     00000000000000000000                21                      
903L001L5063200504094544892D23700040225065555280109205100000008500210130350   CRESCENT1 CUS0016211          F SHAIK                       00000000000000000000                21                      
903L001L5063200504094544892D23700040325065553890038864100000016000210130350   CRESCENT1 CUS0025591          H BASHEER                     00000000000000000000                21                      
903L001L5063200504094544892D23700040425065555280067700100000008500210130350   CRESCENT1 CUS0032443          M MAAL                        00000000000000000000                21                      
903L001L5063200504094544892D23700040547001001251969397200000016000210130350   CRESCENT1 CUS0037836          A CHICTAY                     00000000000000000000                21                      
903L001L5063200504094544892D23700040605100100070919844100000008500210130350   CRESCENT1 CUS0043478          N MCDONALD                    00000000000000000000                21                      
903L001L5063200504094544892D23700040747001001719065819200000008500210130350   CRESCENT1 CUS0048452          A ABDURAMAN                   00000000000000000000                21                      
903L001L5063200504094544892D23700040847001001148738221200000016000210130350   CRESCENT1 CUS0053557          I ANDRADE                     00000000000000000000                21                      
903L001L5063200504094544892D23700040925065562163396156100000008500210130350   CRESCENT1 CUS0057741          S BUGGAS                      00000000000000000000                21                      
903L001L5063200504094544892D23700041025065562737167769100000008500210130350   CRESCENT1 CUS0059285          Z NOORBHAI                    00000000000000000000                21                      
903L001L5063200504094544892D23700041125065560528182384100000008500210130350   CRESCENT1 CUS0004227          N SHAH                        00000000000000000000                21                      
903L001L5063200504094544892D23700041247001001177477252200000023500210130350   CRESCENT1 CUS0016215          F ISMAIL                      00000000000000000000                21                      
903L001L5063200504094544892D23700041305100100051760207100000008500210130350   CRESCENT1 CUS0025604          S KHAN                        00000000000000000000                21                      
903L001L5063200504094544892D23700041425065556290009310100000007500210130350   CRESCENT1 CUS0032497          M BENJAMIN                    00000000000000000000                21                      
903L001L5063200504094544892D23700041547001001712156800100000008500210130350   CRESCENT1 CUS0037841          S WEIMERS                     00000000000000000000                21                      
903L001L5063200504094544892D23700041663200509247102096100000008500210130350   CRESCENT1 CUS0043490          Z PATEL                       00000000000000000000                21                      
903L001L5063200504094544892D23700041763200509201646329100000008500210130350   CRESCENT1 CUS0048459          M ABRAHAMS                    00000000000000000000                21                      
903L001L5063200504094544892D23700041863200509119263734100000008500210130350   CRESCENT1 CUS0053558          T DE VILLIERS                 00000000000000000000                21                      
903L001L5063200504094544892D23700041947001001676268969200000008500210130350   CRESCENT1 CUS0057742          R CHICHVADIA                  00000000000000000000                21                      
903L001L5063200504094544892D23700042047001001725458568100000008500210130350   CRESCENT1 CUS0059302          I ISMAIL                      00000000000000000000                21                      
903L001L5063200504094544892D23700042125065562019298381100000023500210130350   CRESCENT1 CUS0004228          A MANACK                      00000000000000000000                21                      
903L001L5063200504094544892D23700042225065562396671672100000008500210130350   CRESCENT1 CUS0016280          N AMEER                       00000000000000000000                21                      
903L001L5063200504094544892D23700042325065562488597257100000008500210130350   CRESCENT1 CUS0025663          S CHOONARA                    00000000000000000000                21                      
903L001L5063200504094544892D23700042425065562336423116100000008500210130350   CRESCENT1 CUS0032634          M KHAN                        00000000000000000000                21                      
903L001L5063200504094544892D23700042525065562032526892100000008500210130350   CRESCENT1 CUS0037859          R MOOSA                       00000000000000000000                21                      
903L001L5063200504094544892D23700042647001001375768725200000008500210130350   CRESCENT1 CUS0043494          F YASSIEM                     00000000000000000000                21                      
903L001L5063200504094544892D23700042705100100270703551100000008500210130350   CRESCENT1 CUS0048471          G AJAM                        00000000000000000000                21                      
903L001L5063200504094544892D23700042825065560920349178100000008500210130350   CRESCENT1 CUS0053559          W CHELLAN                     00000000000000000000                21                      
903L001L5063200504094544892D23700042947001001492833361100000008500210130350   CRESCENT1 CUS0057745          Z THESEN                      00000000000000000000                21                      
903L001L5063200504094544892D23700043047001001454731468200000008500210130350   CRESCENT1 CUS0059311          M SOLOMONS                    00000000000000000000                21                      
903L001L5063200504094544892D23700043163200509185522077100000008500210130350   CRESCENT1 CUS0004231          R SHAIK                       00000000000000000000                21                      
903L001L5063200504094544892D23700043205100100420031219100000016000210130350   CRESCENT1 CUS0016287          F FEQUEIRA                    00000000000000000000                21                      
903L001L5063200504094544892D23700043363200501060821891100000008500210130350   CRESCENT1 CUS0025673          N KAMALDIEN                   00000000000000000000                21                      
903L001L5063200504094544892D23700043405100100301964084100000008500210130350   CRESCENT1 CUS0032674          F KHAN                        00000000000000000000                21                      
903L001L5063200504094544892D23700043519876501644335484100000008500210130350   CRESCENT1 CUS0037865          M VICTOR FELAAR               00000000000000000000                21                      
903L001L5063200504094544892D23700043625065562134298696100000008500210130350   CRESCENT1 CUS0043507          F SHABOODIEN                  00000000000000000000                21                      
903L001L5063200504094544892D23700043747001001400881259200000008500210130350   CRESCENT1 CUS0048488          T HEYNS                       00000000000000000000                21                      
903L001L5063200504094544892D23700043805100110107414668100000008500210130350   CRESCENT1 CUS0053565          M DAVIS                       00000000000000000000                21                      
903L001L5063200504094544892D23700043925065562760282732100000008500210130350   CRESCENT1 CUS0057746          R FATAAR                      00000000000000000000                21                      
903L001L5063200504094544892D23700044025065560528008225100000006900210130350   CRESCENT1 CUS0059322          F CASSIM                      00000000000000000000                21                      
903L001L5063200504094544892D23700044163200504062189688100000008500210130350   CRESCENT1 CUS0004243          S HATEA                       00000000000000000000                21                      
903L001L5063200504094544892D23700044205100100001716468100000016000210130350   CRESCENT1 CUS0016290          G KARA                        00000000000000000000                21                      
903L001L5063200504094544892D23700044325065562779329179100000016000210130350   CRESCENT1 CUS0025773          A KAJEE                       00000000000000000000                21                      
903L001L5063200504094544892D23700044425065562067710402100000008500210130350   CRESCENT1 CUS0032729          A OMAR                        00000000000000000000                21                      
903L001L5063200504094544892D23700044525065562607865394100000008500210130350   CRESCENT1 CUS0037891          I KHAN                        00000000000000000000                21                      
903L001L5063200504094544892D23700044663200504064862385100000008500210130350   CRESCENT1 CUS0043518          N FARISTA                     00000000000000000000                21                      
903L001L5063200504094544892D23700044725065562048273635100000016000210130350   CRESCENT1 CUS0048498          F SULIMAN                     00000000000000000000                21                      
903L001L5063200504094544892D23700044847001001121715913200000015000210130350   CRESCENT1 CUS0053585          G BELL                        00000000000000000000                21                      
903L001L5063200504094544892D23700044947001001345963384200000016000210130350   CRESCENT1 CUS0057761          M ROOS                        00000000000000000000                21                      
903L001L5063200504094544892D23700045047001001532841998200000006900210130350   CRESCENT1 CUS0059326          F KAMISH                      00000000000000000000                21                      
903L001L5063200504094544892D23700045105100100076539784100000006900210130350   CRESCENT1 CUS0004278          A DAWJEE                      00000000000000000000                21                      
903L001L5063200504094544892D23700045225065562391413293100000016000210130350   CRESCENT1 CUS0016297          B PAULSE                      00000000000000000000                21                      
903L001L5063200504094544892D23700045305100100420064958100000008500210130350   CRESCENT1 CUS0025805          T HENDRICKS                   00000000000000000000                21                      
903L001L5063200504094544892D23700045405100100200692216100000008500210130350   CRESCENT1 CUS0032736          R IBRAHIM                     00000000000000000000                21                      
903L001L5063200504094544892D23700045525065550310053760100000016000210130350   CRESCENT1 CUS0037901          M BHAMJEE                     00000000000000000000                21                      
903L001L5063200504094544892D23700045680000078600037503200000007500210130350   CRESCENT1 CUS0043520          A HAFFAJEE                    00000000000000000000                21                      
903L001L5063200504094544892D23700045725065550310093617100000008500210130350   CRESCENT1 CUS0048519          B CHOTA                       00000000000000000000                21                      
903L001L5063200504094544892D23700045847001001337421187200000008500210130350   CRESCENT1 CUS0053587          S ABRAHAMS                    00000000000000000000                21                      
903L001L5063200504094544892D23700045919876501103117602100000008500210130350   CRESCENT1 CUS0057764          I DRAMAT                      00000000000000000000                21                      
903L001L5063200504094544892D23700046005100100070533741100000008500210130350   CRESCENT1 CUS0059328          I ADAMS                       00000000000000000000                21                      
903L001L5063200504094544892D23700046105100100634566059100000016000210130350   CRESCENT1 CUS0004285          L KARA                        00000000000000000000                21                      
903L001L5063200504094544892D23700046219876501033919705100000023500210130350   CRESCENT1 CUS0016355          I KASSIM                      00000000000000000000                21                      
903L001L5063200504094544892D23700046363200504055306229100000008500210130350   CRESCENT1 CUS0025832          J SOEKER                      00000000000000000000                21                      
903L001L5063200504094544892D23700046419876502535015226200000008500210130350   CRESCENT1 CUS0032757          O WALLJEE                     00000000000000000000                21                      
903L001L5063200504094544892D23700046505100100202716058100000008500210130350   CRESCENT1 CUS0037907          E ADAMS                       00000000000000000000                21                      
903L001L5063200504094544892D23700046625065560314863205100000008500210130350   CRESCENT1 CUS0043531          S CADER                       00000000000000000000                21                      
903L001L5063200504094544892D23700046705100100270332103100000008500210130350   CRESCENT1 CUS0048553          A DIRK                        00000000000000000000                21                      
903L001L5063200504094544892D23700046847001001408975139200000008500210130350   CRESCENT1 CUS0053591          N ABRAHAMS                    00000000000000000000                21                      
903L001L5063200504094544892D23700046963200504063083982100000008500210130350   CRESCENT1 CUS0057765          M ISAACS                      00000000000000000000                21                      
903L001L5063200504094544892D23700047047001001533564718200000008500210130350   CRESCENT1 CUS0059330          K BARTHUS                     00000000000000000000                21                      
903L001L5063200504094544892D23700047163200504084037271100000016000210130350   CRESCENT1 CUS0004313          F HASSEN                      00000000000000000000                21                      
903L001L5063200504094544892D23700047225065562563042599100000008500210130350   CRESCENT1 CUS0016388          Z SALOOJEE                    00000000000000000000                21                      
903L001L5063200504094544892D23700047325065562212237392100000008500210130350   CRESCENT1 CUS0025845          A MOTALIB                     00000000000000000000                21                      
903L001L5063200504094544892D23700047405100100072635568100000008500210130350   CRESCENT1 CUS0032782          F PHILIP                      00000000000000000000                21                      
903L001L5063200504094544892D23700047505100100426858751100000016000210130350   CRESCENT1 CUS0037917          B MAHRI                       00000000000000000000                21                      
903L001L5063200504094544892D23700047680000078600074000200000008500210130350   CRESCENT1 CUS0043536          A PAHAD                       00000000000000000000                21                      
903L001L5063200504094544892D23700047747001001458394415200000008500210130350   CRESCENT1 CUS0048554          R ORRIE                       00000000000000000000                21                      
903L001L5063200504094544892D23700047825065560920073959100000007500210130350   CRESCENT1 CUS0053597          F ORRIE                       00000000000000000000                21                      
903L001L5063200504094544892D23700047947001001574456871200000016000210130350   CRESCENT1 CUS0057766          F ABRAHAMS                    00000000000000000000                21                      
903L001L5063200504094544892D23700048025065562837123190100000008500210130350   CRESCENT1 CUS0059332          M BARDEN                      00000000000000000000                21                      
903L001L5063200504094544892D23700048125065562337006424100000016000210130350   CRESCENT1 CUS0004319          F KHAN                        00000000000000000000                21                      
903L001L5063200504094544892D23700048219876501237129699100000008500210130350   CRESCENT1 CUS0016398          Y PEFFER                      00000000000000000000                21                      
903L001L5063200504094544892D23700048319876501397068892100000016000210130350   CRESCENT1 CUS0025884          A MADARI                      00000000000000000000                21                      
903L001L5063200504094544892D23700048425065562269534577100000016000210130350   CRESCENT1 CUS0032785          F ABDULLAH                    00000000000000000000                21                      
903L001L5063200504094544892D23700048525065562279037199100000007500210130350   CRESCENT1 CUS0037969          M HASSIM                      00000000000000000000                21                      
903L001L5063200504094544892D23700048619876501013205898100000008500210130350   CRESCENT1 CUS0043577          S OBARAY                      00000000000000000000                21                      
903L001L5063200504094544892D23700048747001001412161574200000006900210130350   CRESCENT1 CUS0048571          A OMER                        00000000000000000000                21                      
903L001L5063200504094544892D23700048819876501119993814100000008500210130350   CRESCENT1 CUS0053621          F FRANSMAN                    00000000000000000000                21                      
903L001L5063200504094544892D23700048947001001445016379200000008500210130350   CRESCENT1 CUS0057774          M ARENDSE                     00000000000000000000                21                      
903L001L5063200504094544892D23700049063200504063285954100000006900210130350   CRESCENT1 CUS0059334          R HARRIS                      00000000000000000000                21                      
903L001L5063200504094544892D23700049105100100330182749100000008500210130350   CRESCENT1 CUS0004343          A ABOOBACKER                  00000000000000000000                21                      
903L001L5063200504094544892D23700049219876502983109887200000016000210130350   CRESCENT1 CUS0016420          H ASVAT                       00000000000000000000                21                      
903L001L5063200504094544892D23700049325065562101205070100000008500210130350   CRESCENT1 CUS0025887          A MAYET                       00000000000000000000                21                      
903L001L5063200504094544892D23700049425065562461879812100000016000210130350   CRESCENT1 CUS0032811          H BHANA                       00000000000000000000                21                      
903L001L5063200504094544892D23700049525065562406846446100000008500210130350   CRESCENT1 CUS0038000          A DEMAINE                     00000000000000000000                21                      
903L001L5063200504094544892D23700049625065562216656473100000016000210130350   CRESCENT1 CUS0043591          F PLOKER                      00000000000000000000                21                      
903L001L5063200504094544892D23700049705100110075777973100000008500210130350   CRESCENT1 CUS0048575          R DANIELS                     00000000000000000000                21                      
903L001L5063200504094544892D23700049805100110073200768100000006900210130350   CRESCENT1 CUS0053622          F ABRAHAMS                    00000000000000000000                21                      
903L001L5063200504094544892D23700049947001001374024706200000008500210130350   CRESCENT1 CUS0057777          R ALBERTYN ABERTEIN           00000000000000000000                21                      
