000L2021060500000PAYPORT CONSULTING PTY LTD EFT000080007303                                                                                                                                           
010LD237000023301                                                                                                                                                                                     
011LD23763200500000040945448920120210527                                                                                                                                                              
013L5020210526003188470010000000151177074900000008500CRESCENT1 CUS0056675          03000000000000                R ALLY                                                                               
014L0000000010000000000000000015117707490000000000850000000000000000                                                                                                                                  
011LD23763200500000040945448920120210531                                                                                                                                                              
013L5020210529001383570105000001133469310000000008500CRESCENT1 CUS0028382          02600000000000                N SATHOLE                                                                            
013L5020210529000990051001000001003623802100000008500CRESCENT1 CUS0059444          03600000000000                J SAMPSON                                                                            
014L0000000020000000000000000213709311210000000001700000000000000000                                                                                                                                  
011LD23763200500000040945448920120210601                                                                                                                                                              
013L5020210531000069632005000000408596201700000025000ABSOLIT   1622122215RSVD001   03492801000069                STANTON VAN DER MERWE                                                                
014L0000000010000000000000000040859620170000000002500000000000000000                                                                                                                                  
011LD23763200500000040945448920120210603                                                                                                                                                              
013L5020210602000001470010000000141505164800000025000ABSOLIT   1622467823RSP001    00200000000000                S.PILLAY                                                                             
014L0000000010000000000000000014150516480000000002500000000000000000                                                                                                                                  
019L0000000050000000000000000283837155350000000007550000000000000000                                                                                                                                  
999L000000017                                                                                                                                                                                         
