000L2021051500000PAYPORT CONSULTING PTY LTD EFT000076407303                                                                                                                                           
010LD237000021301                                                                                                                                                                                     
011LD23763200500000040945448920120210426                                                                                                                                                              
013L5020210424002167250655000006277422879800000016000CRESCENT1 CUS0055722          03400000000000                L PATEL                                                                              
014L0000000010000000000000000627742287980000000001600000000000000000                                                                                                                                  
011LD23763200500000040945448920120210430                                                                                                                                                              
013L5020210429000051251705000006231037121600000025000ABSOLIT   1619530230RBM001    03200000000000                BRENT MORDAUNT                                                                       
014L0000000010000000000000000623103712160000000002500000000000000000                                                                                                                                  
011LD23763200500000040945448920120210514                                                                                                                                                              
013L5020210513000015632005000000925826351200000008500CRESCENT1 CUS0057791          00300000000015                E ISAACS                                                                             
013L5020210513001117632005000000407000838100000008500CRESCENT1 CUS0057197          00300000001117                I KHAN                                                                               
013L5020210513000632632005000000408772680500000008500CRESCENT1 CUS0038942          00492802000632                R GANI                                                                               
013L5020210513000479632005000000911423670400000006900CRESCENT1 CUS0053087          00200016000479                Y JATTIEM                                                                            
013L5020210513000896632005000000915821471000000008500CRESCENT1 CUS0056009          00200016000896                F MANUEL                                                                             
013L5020210513000246632005000000913674871500000008500CRESCENT1 CUS0009745          00300040000246                T MOOSA                                                                              
013L5020210513000507632005000000920898468100000008500CRESCENT1 CUS0037744          00300000000507                M DAVIDS                                                                             
013L5020210513000788632005000000920783945500000008500CRESCENT1 CUS0055541          00200016000788                F ABRAHAMS                                                                           
013L5020210513001147632005000000409171335100000008500CRESCENT1 CUS0057344          00492802001147                L ATTWELL                                                                            
013L5020210513001183632005000000406692653500000008500CRESCENT1 CUS0004602          90300000001183                N AMBARAM                                                                            
013L5020210513000043632005000000001372853400000008500CRESCENT1 CUS0044526          01800004000043                R ZOUTENBERG                                                                         
013L5020210513000097632005000000933444154900000006900CRESCENT1 CUS0030980          00200016000097                R DEAN                                                                               
013L5020210513000826632005000000904866522700000008500CRESCENT1 CUS0040912          01800004000826                A SATTAR                                                                             
013L5020210513001001632005000000911040667400000008500CRESCENT1 CUS0049838          00200016001001                S JAPPIE                                                                             
013L5020210513000452632005000000931447519800000014400CRESCENT1 CUS0037085          00300040000452                N LEON                                                                               
013L5020210513000778632005000000934885380300000008500CRESCENT1 CUS0040405          00200016000778                N MOYA                                                                               
013L5020210513000530632005000000934078813700000008500CRESCENT1 CUS0059453          00200016000530                N GALIEM                                                                             
013L5020210513000336580105000001001127431700000016000CRESCENT1 CUS0011476          00600000000000                A ALLIE                                                                              
013L5020210513000110632005000000930048137300000006900CRESCENT1 CUS0058138          00200016000110                F HOCEME                                                                             
013L5020210513000947632005000000923965852000000008500CRESCENT1 CUS0056251          00492802000947                M GOOLAM HOOSIEN                                                                     
013L5020210513000255632005000000935600440600000008500CRESCENT1 CUS0058625          00200016000255                G SIMONS                                                                             
014L0000000210000000000000001648194405870000000018710000000000000000                                                                                                                                  
019L0000000230000000000000002899040406010000000022810000000000000000                                                                                                                                  
999L000000033                                                                                                                                                                                         
