000L2021020300000PAYPORT CONSULTING PTY LTD EFT000061507303                                                                                                                                           
010LD237000010201                                                                                                                                                                                     
011LD23763200500000040945448920120210116                                                                                                                                                              
013L5020210115000810250705000006235275996700000008500CRESCENT1 CUS0055852          03200000000000                R VAHIB                                                                              
014L0000000010000000000000000623527599670000000000850000000000000000                                                                                                                                  
011LD23763200500000040945448920120210121                                                                                                                                                              
013L5020210120000027051001000000040228401100000023500CRESCENT1 CUS0036379          03400000000000                A GAFOOR                                                                             
014L0000000010000000000000000004022840110000000002350000000000000000                                                                                                                                  
011LD23763200500000040945448920120210130                                                                                                                                                              
013L5020210129000058198765000000109308169400000008500CRESCENT1 CUS0052905          00400000000000                F SCOTT                                                                              
013L5020210129002333200110000006243191934100000007500CRESCENT1 CUS0052531          00400000000000                I MATTHEWS                                                                           
013L5020210129000367210651000006213304832300000008500CRESCENT1 CUS0048396          00200000000000                Z KAMALDIEN                                                                          
013L5020210129002361220325000006232846606700000008500CRESCENT1 CUS0042232          00200000000000                F SIDIYOT                                                                            
013L5020210129001734230102000006220624369400000008500CRESCENT1 CUS0021998          01200000000000                S NAWAZ                                                                              
013L5020210129002234260214000006227184430200000008500CRESCENT1 CUS0056961          00400000000000                M SMITH                                                                              
013L5020210129001852258055000006214454270200000008500CRESCENT1 CUS0030093          01200000000000                F RAHMAN                                                                             
013L5020210129002012255355000006244498977900000016000CRESCENT1 CUS0046966          01200000000000                A SADER                                                                              
013L5020210129001783255355000006253287129200000008500CRESCENT1 CUS0046420          03400000000000                A HOOSEN                                                                             
013L5020210129002074198765000000103290930700000008500CRESCENT1 CUS0056845          00600000000000                M SAYED                                                                              
013L5020210129000952260225000006238756639500000008500CRESCENT1 CUS0018371          00600000000000                I KALIL                                                                              
013L5020210129001900252505000006217742614700000008500CRESCENT1 CUS0046672          00200000000000                M NANA                                                                               
013L5020210129002339222726000006201018230100000016000CRESCENT1 CUS0031331          00200000000000                F ABDULLAH                                                                           
013L5020210129000494250237000006246187981200000016000CRESCENT1 CUS0032811          00200000000000                H BHANA                                                                              
013L5020210129002359221926000006209333902800000006900CRESCENT1 CUS0031405          01200000000000                A NGUBANE                                                                            
013L5020210129002407198765000000107717815800000016000CRESCENT1 CUS0014768          03000000000000                I MPHAGI                                                                             
013L5020210129002456198765000000123401434300000031000CRESCENT1 CUS0002362          03000000000000                B AKOOJEE                                                                            
013L5020210129001802251042000006228011309500000008500CRESCENT1 CUS0050484          00200000000000                K POCHEE                                                                             
013L5020210129002465250655000006271476686500000008500CRESCENT1 CUS0059162          00200000000000                Z LAGARDIEN                                                                          
013L5020210129000759198765000000112820968300000008500CRESCENT1 CUS0058055          00200000000000                A DAVEY                                                                              
013L5020210129001089198765000000119440891500000008500CRESCENT1 CUS0058231          00200000000000                N MOYCE                                                                              
013L5020210129000863257705000005028003661400000008500CRESCENT1 CUS0026559          01200000000000                R AHMED                                                                              
013L5020210129001264252245000005529231198900000008500CRESCENT1 CUS0034034          00200000000000                M MAJAM                                                                              
013L5020210129001149198765000000116037901700000008500CRESCENT1 CUS0058273          00200000000000                N ASGHAN                                                                             
013L5020210129001839198765000000118032625300000008500CRESCENT1 CUS0056587          00200000000000                Z BAREDOEN                                                                           
013L5020210129001302250056000006244778520700000016000CRESCENT1 CUS0020183          01200000000000                A ASVAT                                                                              
013L5020210129001197250114000006260868385200000016000CRESCENT1 CUS0049545          01200000000000                D FORTUNE                                                                            
013L5020210129000098250141000006251464655600000008500CRESCENT1 CUS0052995          01800000000000                A NAIDOO                                                                             
013L5020210129000647200510000006052621178900000016000CRESCENT1 CUS0048766          00200000000000                F MIA                                                                                
013L5020210129000530198765000000120554543300000015400CRESCENT1 CUS0059351          03000000000000                Z JACKSON                                                                            
013L5020210129002403252505000006243022367800000007500CRESCENT1 CUS0052597          01200000000000                S KHAN                                                                               
013L5020210129000733253605000006211033693100000016000CRESCENT1 CUS0026365          00600000000000                F ABDUL HABIB                                                                        
013L5020210129001905252505000006239686280900000008500CRESCENT1 CUS0023029          00200000000000                Y PILLAR                                                                             
013L5020210129000669252805000006208747862600000007500CRESCENT1 CUS0057949          00600000000000                N BAYNES                                                                             
013L5020210129001537198765000000126683844900000008500CRESCENT1 CUS0028118          00200000000000                K SALIE                                                                              
013L5020210129001390198765000000118755093000000008500CRESCENT1 CUS0058371          00200000000000                B YON                                                                                
013L5020210129000926200410000006250954711500000008500CRESCENT1 CUS0044650          00200000000000                A HARTLEY                                                                            
013L5020210129000875250056000006249619394800000008500CRESCENT1 CUS0038929          00400000000000                R PATEL                                                                              
013L5020210129001064222826000005499732621900000008500CRESCENT1 CUS0033822          03400000000000                M ABOO BAKER                                                                         
013L5020210129001807230102000006213334734500000016000CRESCENT1 CUS0029990          00200000000000                M JACOBS                                                                             
013L5020210129001667198765000000102535339000000008500CRESCENT1 CUS0050130          01200000000000                N JAFFER                                                                             
013L5020210129001140250555000006236921713000000008500CRESCENT1 CUS0059538          00200000000000                N WILLIAMS                                                                           
013L5020210129001548258623000006220423008100000023500CRESCENT1 CUS0040519          00200000000000                A MANUEL                                                                             
013L5020210129002096255355000006262218175900000008500CRESCENT1 CUS0000498          00200000000000                S SULIMAN AHMED                                                                      
013L5020210129001421250945000006243804187400000023500CRESCENT1 CUS0034286          00200000000000                F ISMAIL                                                                             
013L5020210129001627051001000000002324403800000008500CRESCENT1 CUS0028861          03000000000000                N EBRAHIM                                                                            
013L5020210129001599198765000000114678027300000008500CRESCENT1 CUS0021330          00200000000000                M RICHARDS                                                                           
013L5020210129000039210121000006267009185100000016000CRESCENT1 CUS0057340          00200000000000                T DAWJEE                                                                             
013L5020210129000057201909000006260015034600000008500CRESCENT1 CUS0047984          01200000000000                A CARRIEM                                                                            
013L5020210129000155211617000006237372604400000036900CRESCENT1 CUS0037085          00600000000000                J LEON                                                                               
013L5020210129001458198765000000111530238800000008500CRESCENT1 CUS0040167          03000000000000                R WILLIAMS                                                                           
013L5020210129000209250555000006237120658500000008500CRESCENT1 CUS0057482          00200000000000                T DAMON                                                                              
013L5020210129002045250655000006282941585200000008500CRESCENT1 CUS0058872          00200000000000                A JOOMA                                                                              
013L5020210129000045259745000006232692284700000008500CRESCENT1 CUS0036864          00400000000000                K TAYOB                                                                              
013L5020210129001177203209000006207276170500000023500CRESCENT1 CUS0049531          00200000000000                A MOERAT                                                                             
013L5020210129001341201409000005835112985500000016000CRESCENT1 CUS0039866          00200000000000                N ARENDSE                                                                            
013L5020210129001722198765000000243701238900000008500CRESCENT1 CUS0056353          02600000000000                S MILLS                                                                              
013L5020210129002093204209000006226178163900000008500CRESCENT1 CUS0051703          00400000000000                M PARKER                                                                             
013L5020210129000036250117000005529003286800000031000CRESCENT1 CUS0042746          00200000000000                M OMAR                                                                               
013L5020210129000150250655000006283797587200000008500CRESCENT1 CUS0059205          00200000000000                Y MOHAMAD                                                                            
013L5020210129001938198765000000107424653500000007500CRESCENT1 CUS0056743          00200000000000                M ABRAHAMS                                                                           
013L5020210129000162051001000000020258071700000016000CRESCENT1 CUS0015416          03000000000000                S EVANS                                                                              
013L5020210129000879198765000000118305275800000008500CRESCENT1 CUS0058107          00200000000000                A BAKER                                                                              
013L5020210129001606198765000000118083489500000008500CRESCENT1 CUS0058530          00200000000000                M PARKER                                                                             
013L5020210129001673252505000006223742706900000008500CRESCENT1 CUS0035186          00200000000000                F SHAIK                                                                              
013L5020210129001759250655000006271089752300000008500CRESCENT1 CUS0058670          01200000000000                F ABRAHAMS                                                                           
013L5020210129001835250655000006269900729300000016000CRESCENT1 CUS0035487          01200000000000                M MADAREE                                                                            
013L5020210129000518255355000006267332390400000008500CRESCENT1 CUS0053708          00200000000000                I JACK                                                                               
013L5020210129002377257705000006240912242100000008500CRESCENT1 CUS0014623          00200000000000                S BUTLER                                                                             
013L5020210129002415198765000000114719804700000016000CRESCENT1 CUS0059152          03000000000000                S BARKATE                                                                            
013L5020210129001544198765000000290362155100000016000CRESCENT1 CUS0009496          01200000000000                R ISSA                                                                               
013L5020210129001179198765000000110614878900000008500CRESCENT1 CUS0058290          00200000000000                I DAVIDS                                                                             
013L5020210129000638255355000006250187062100000008500CRESCENT1 CUS0053926          01200000000000                G EBRAHIEM                                                                           
013L5020210129000115470010000000165119092300000008500CRESCENT1 CUS0036977          03000000000000                Y SAITH                                                                              
013L5020210129000788250655000006280886641400000006900CRESCENT1 CUS0054409          00200000000000                S SCHROEDER                                                                          
013L5020210129002154252805000006228414935100000008500CRESCENT1 CUS0056882          00200000000000                Z JOHENNESSE                                                                         
013L5020210129000421250737000006201929838100000023500CRESCENT1 CUS0004228          00600000000000                A MANACK                                                                             
013L5020210129000145198765000000111090790700000008500CRESCENT1 CUS0037063          00400000000000                S LAHER                                                                              
013L5020210129002479051001000000005053833000000008500CRESCENT1 CUS0031656          03600000000000                V DAWOOD                                                                             
013L5020210129002443240239000006225681906500000008500CRESCENT1 CUS0052636          00200000000000                A KATHRADA                                                                           
013L5020210129000495261050000006240684644600000008500CRESCENT1 CUS0038000          00200000000000                A DEMAINE                                                                            
013L5020210129001705255355000006265517993700000008500CRESCENT1 CUS0058656          03600000000000                J PHILANDER                                                                          
013L5020210129002442250114000006235749261100000008500CRESCENT1 CUS0047786          00200000000000                J PATTERSEN                                                                          
013L5020210129000520210046000006257297255500000008500CRESCENT1 CUS0059348          00200000000000                W KAGEE                                                                              
013L5020210129002010198765000000102923758100000031000CRESCENT1 CUS0035932          00200000000000                I MANTOOR                                                                            
013L5020210129000169198765000000117124531900000008500CRESCENT1 CUS0057461          00400000000000                L SOLOMONS                                                                           
013L5020210129000129198765000000119008792800000008500CRESCENT1 CUS0057431          00600000000000                I DAVIDS                                                                             
013L5020210129000028051001000001004850697200000016000CRESCENT1 CUS0052873          03000000000000                M POVIE                                                                              
013L5020210129001327255355000006249815220700000008500CRESCENT1 CUS0058333          00200000000000                T DAVIDS                                                                             
013L5020210129001342250805000006204719543400000008500CRESCENT1 CUS0045328          00200000000000                M DANKA                                                                              
013L5020210129002464250655000006277592317300000008500CRESCENT1 CUS0057324          00200000000000                I FATAAR                                                                             
013L5020210129000618250655000006282548107100000016000CRESCENT1 CUS0053894          01200000000000                M GALLOW                                                                             
013L5020210129001040250555000006235376642400000008500CRESCENT1 CUS0059468          00200000000000                M WILLIAMS                                                                           
013L5020210129000710250655000006282077762300000008500CRESCENT1 CUS0059404          00200000000000                T ARENDS                                                                             
013L5020210129000807201809000006210714294500000008500CRESCENT1 CUS0048955          00200000000000                S ABRAHAMS                                                                           
013L5020210129000197250114000006258382926600000008500CRESCENT1 CUS0048157          00200000000000                R DAVIDS                                                                             
013L5020210129001972051001000000042112876300000008500CRESCENT1 CUS0046787          03400000000000                K MANUEL                                                                             
013L5020210129001047250655000006283260526800000008500CRESCENT1 CUS0049291          00200000000000                I DAVIDS                                                                             
013L5020210129000480250655000006283712319000000008500CRESCENT1 CUS0059332          00200000000000                M BARDEN                                                                             
013L5020210129001187255355000006236923854000000016000CRESCENT1 CUS0049541          00200000000000                M CARRIEM                                                                            
013L5020210129002233250555000006226725049800000008500CRESCENT1 CUS0052304          00200000000000                R ABDURAHMAN                                                                         
013L5020210129000488198765000000111999381400000008500CRESCENT1 CUS0053621          00200000000000                F FRANSMAN                                                                           
013L5020210129001225198765000000203405925500000008500CRESCENT1 CUS0039534          02600000000000                A BASSA                                                                              
013L5020210129001435204709000006202607511000000008500CRESCENT1 CUS0058392          00200000000000                I MULDER                                                                             
013L5020210129001939203109000006259103032600000008500CRESCENT1 CUS0058770          00200000000000                A VALLIE                                                                             
013L5020210129001426250114000006238834974000000008500CRESCENT1 CUS0058389          00200000000000                M ISMAIL                                                                             
013L5020210129002023250355000006255657010100000008500CRESCENT1 CUS0051468          00200000000000                Z HAFFEJEE                                                                           
013L5020210129000511250655000006205235492600000008500CRESCENT1 CUS0004420          02600000000000                Y JAPPIE                                                                             
013L5020210129002253250655000006281254352900000008500CRESCENT1 CUS0052421          01200000000000                E KATHIE                                                                             
013L5020210129001934252355000006258524315900000008500CRESCENT1 CUS0035741          00200000000000                Z EBRAIM                                                                             
013L5020210129001014211517000006203586535400000016000CRESCENT1 CUS0033757          00200000000000                R DOLLEY                                                                             
013L5020210129002112198765000000114654044200000008500CRESCENT1 CUS0047157          00200000000000                S ISKRA                                                                              
014L0000001120000000000000048773081047900000000125010000000000000000                                                                                                                                  
011LD23763200500000040945448920120210201                                                                                                                                                              
013L5020210130000028470010000000131287009300000025000ABSOLIT   1611921237RMD001    00200000000000                MERVIN DIEDRICKS                                                                     
013L5020210130000044051001000001013120291800000025000ABSOLIT   1611921237RSD001    00200000000000                SHIRLEY DUNN                                                                         
013L5020210130000050470010000000154585517800000025000ABSOLIT   1611921237RSS0001   03000000000000                SHAHEED SHAMAAR                                                                      
013L5020210130000037470010000000133732286300000025000ABSOLIT   1611921237RGS001    00200000000000                GLEN SOLOMON                                                                         
013L5020210130000071470010000000173110809300000025000ABSOLIT   1611840617RDC001    00200000000000                DAVID CROSS                                                                          
013L5020210130000057470010000000117918331000000025000ABSOLIT   1611840613RFVN001   00200000000000                FAROUK VAN NIEKERK                                                                   
013L5020210130000035470010000000120636597600000025000ABSOLIT   1611921237RNM001    00200000000000                NATHANIEL MORAIS                                                                     
014L0000000070000000000000000184439084310000000017500000000000000000                                                                                                                                  
019L0000001210000000000000049585070571990000000145710000000000000000                                                                                                                                  
010LD237000010308                                                                                                                                                                                     
011LD23763200500000040945448920120210127                                                                                                                                                              
013L5020210127002779051001000000002905234300000007500CRESCENT1 CUS0052106          03400000000000                B FARRED                                                                             
013L5020210127003544051001000000007169170700000007500CRESCENT1 CUS0050615          03200000000000                S HOWELL                                                                             
013L5020210127002646250655000006277231882200000008500CRESCENT1 CUS0056706          00200000000000                T NHLAPO                                                                             
013L5020210127000108470010000000130358473300000008500CRESCENT1 CUS0050922          03200000000000                F ARENDSE                                                                            
013L5020210127003255470010000000124563556300000008500CRESCENT1 CUS0047651          03000000000000                M ETALA                                                                              
014L0000000050000000000000000654222831680000000004050000000000000000                                                                                                                                  
019L0000000050000000000000000654222831680000000004050000000000000000                                                                                                                                  
999L000000142                                                                                                                                                                                         
