000L2020050800000PAYPORT CONSULTING PTY LTD EFT000029807303                                                                                                                                           
010LD237000001801                                                                                                                                                                                     
011LD23763200500000040945448920120200505                                                                                                                                                              
013L5020200503000004250555000006237617809400000000400PAYPORT   1588510711O1054     01200000000000                PAYPORT CONSULTING                                                                   
013L5020200503000009250555000006237617809400000000100PAYPORT   1588512689O1065     01200000000000                PAYPORT CONSULTING                                                                   
013L5020200503000007250555000006237617809400000000100PAYPORT   1588510711O1057     01200000000000                PAYPORT CONSULTING                                                                   
014L0000000030000000000000001871285342820000000000060000000000000000                                                                                                                                  
019L0000000030000000000000001871285342820000000000060000000000000000                                                                                                                                  
999L000000009                                                                                                                                                                                         
