000L2021051900000PAYPORT CONSULTING PTY LTD EFT000077007303                                                                                                                                           
010LD237000021601                                                                                                                                                                                     
011LD23763200500000040945448920120210430                                                                                                                                                              
013L5020210429000800632005000000012196212800000008500CRESCENT1 CUS0026763          03092801000800                A RANTSELI                                                                           
014L0000000010000000000000000001219621280000000000850000000000000000                                                                                                                                  
011LD23763200500000040945448920120210514                                                                                                                                                              
013L5020210513001022198765000000116985264500000008500CRESCENT1 CUS0056863          00200000000000                S WALTERS                                                                            
013L5020210513000291254605000006209031446100000015000CRESCENT1 CUS0010568          00200000000000                A MOHAMED                                                                            
013L5020210513001196198765000000110742824600000008500CRESCENT1 CUS0050869          00200000000000                N ADAMS                                                                              
013L5020210513001035198765000000297077345700000016000CRESCENT1 CUS0042477          00200000000000                F HENDRICKS                                                                          
013L5020210513000200198765000000119584241400000008500CRESCENT1 CUS0058398          00600000000000                M JACOBS                                                                             
013L5020210513000598198765000000123009289700000008500CRESCENT1 CUS0047624          00600000000000                K DAWOOD                                                                             
013L5020210513000042051001000000020103422000000008500CRESCENT1 CUS0030149          03400000000000                S OMAR                                                                               
013L5020210513000528198765000000106882243000000008500CRESCENT1 CUS0047307          00200000000000                N PATEL                                                                              
013L5020210513000081198765000000110836186200000008500CRESCENT1 CUS0006698          00600000000000                N MIA                                                                                
013L5020210513000589198765000000113457096100000008500CRESCENT1 CUS0053630          00200000000000                S MARCUS                                                                             
014L0000000100000000000000000732770935930000000009900000000000000000                                                                                                                                  
019L0000000110000000000000000733990557210000000010750000000000000000                                                                                                                                  
999L000000019                                                                                                                                                                                         
