000L2021061200000PAYPORT CONSULTING PTY LTD EFT000081107303                                                                                                                                           
010LD237000024001                                                                                                                                                                                     
011LD23763200500000040945448920120210531                                                                                                                                                              
013L5020210529000454632005000000405002656700000007500CRESCENT1 CUS0033175          03292801000454                F BATAVIYA                                                                           
014L0000000010000000000000000040500265670000000000750000000000000000                                                                                                                                  
011LD23763200500000040945448920120210601                                                                                                                                                              
013L5020210531000068051001000000002915230500000025000ABSOLIT   1622122218RFD090    03000000000000                P TLAKE                                                                              
014L0000000010000000000000000000291523050000000002500000000000000000                                                                                                                                  
019L0000000020000000000000000040791788720000000003250000000000000000                                                                                                                                  
999L000000010                                                                                                                                                                                         
