000L2021061000000PAYPORT CONSULTING PTY LTD EFT000080907303                                                                                                                                           
010LD237000023801                                                                                                                                                                                     
011LD23763200500000040945448920120210527                                                                                                                                                              
013L5020210526001591632005000000026004131200000008500CRESCENT1 CUS0047718          03492801001591                U KHAN                                                                               
014L0000000010000000000000000002600413120000000000850000000000000000                                                                                                                                  
011LD23763200500000040945448920120210531                                                                                                                                                              
013L5020210529001658470010000000133529621000000008500CRESCENT1 CUS0056247          03400000000000                N SWARTS                                                                             
014L0000000010000000000000000013352962100000000000850000000000000000                                                                                                                                  
011LD23763200500000040945448920120210601                                                                                                                                                              
013L5020210531000201632005000000408939838100000076000ARM       1622295026R26       03092801000201                JESSE BETTENCOURT                                                                    
014L0000000010000000000000000040893983810000000007600000000000000000                                                                                                                                  
019L0000000030000000000000000056847359030000000009300000000000000000                                                                                                                                  
999L000000013                                                                                                                                                                                         
