000L2021020500000PAYPORT CONSULTING PTY LTD EFT000061707303                                                                                                                                           
010LD237000010601                                                                                                                                                                                     
011LD23763200500000040945448920120210116                                                                                                                                                              
013L5020210115000590051001000000005278272700000023500CRESCENT1 CUS0019889          03000000000000                A MAHOMED                                                                            
014L0000000010000000000000000000527827270000000002350000000000000000                                                                                                                                  
011LD23763200500000040945448920120210121                                                                                                                                                              
013L5020210120000242051001000000000901211700000031000CRESCENT1 CUS0006778          03000000000000                A MOHAMED                                                                            
014L0000000010000000000000000000090121170000000003100000000000000000                                                                                                                                  
011LD23763200500000040945448920120210130                                                                                                                                                              
013L5020210129001325210651000006219529488100000016000CRESCENT1 CUS0049729          03400000000000                N PEPLOUW                                                                            
014L0000000010000000000000000621952948810000000001600000000000000000                                                                                                                                  
019L0000000030000000000000000622570897250000000007050000000000000000                                                                                                                                  
010LD237000010708                                                                                                                                                                                     
011LD23763200500000040945448920120210127                                                                                                                                                              
013L5020210127001391198765000000117198257700000008500CRESCENT1 CUS0057758          03000000000000                M DOLLIE                                                                             
013L5020210127001035470010000000135839924500000008500CRESCENT1 CUS0048946          03400000000000                R WALLACE                                                                            
014L0000000020000000000000000025303818220000000001700000000000000000                                                                                                                                  
019L0000000020000000000000000025303818220000000001700000000000000000                                                                                                                                  
999L000000019                                                                                                                                                                                         
