000L2020121800000PAYPORT CONSULTING PTY LTD EFT000054807303                                                                                                                                           
010LD237000005501                                                                                                                                                                                     
011LD23763200500000040945448920120201125                                                                                                                                                              
013L5020201124000640470010000000143398049300000008500CRESCENT1 CUS0057178          03000000000000                R KHAN                                                                               
014L0000000010000000000000000014339804930000000000850000000000000000                                                                                                                                  
011LD23763200500000040945448920120201215                                                                                                                                                              
013L5020201214000699470010000000142954136700000008500CRESCENT1 CUS0056576          00200000000000                I BAILEY                                                                             
013L5020201214000976470010000000154870571100000008500CRESCENT1 CUS0051744          00200000000000                B BIRCH                                                                              
013L5020201214000040470010000000166937117200000008500CRESCENT1 CUS0058715          00200000000000                Y TAGODIEN                                                                           
013L5020201214000872470010000000134883096200000008500CRESCENT1 CUS0051269          00200000000000                Y BRAAF                                                                              
013L5020201214000739470010000000135769025600000008500CRESCENT1 CUS0056693          00200000000000                A SWARTZ                                                                             
013L5020201214000305470010000000122479139600000008500CRESCENT1 CUS0059360          00200000000000                Y MOHAMMED                                                                           
013L5020201214001171051001000001004257205100000008500CRESCENT1 CUS0052502          00400000000000                F BEKKO                                                                              
013L5020201214001026800000000007860011378400000008500CRESCENT1 CUS0051866          00200000000000                A RAHMAN                                                                             
013L5020201214000539470010000000154140651400000008500CRESCENT1 CUS0055870          00200000000000                S SINGH                                                                              
013L5020201214001072470010000000137543532700000008500CRESCENT1 CUS0058122          00200000000000                M MOGALIA                                                                            
013L5020201214000290051001000001013633186400000008500CRESCENT1 CUS0059309          00200000000000                M MOHAMED                                                                            
013L5020201214000481051001000000002130314200000008500CRESCENT1 CUS0023068          00400000000000                F AJAM                                                                               
013L5020201214000639051001000000033246268400000016000CRESCENT1 CUS0056142          00200000000000                I GRIFFITHS                                                                          
013L5020201214000649470010000000142445090800000008500CRESCENT1 CUS0056228          00200000000000                R JARDIEN                                                                            
013L5020201214000962051001000000030277184000000007500CRESCENT1 CUS0057697          00200000000000                F HATIA                                                                              
013L5020201214001096051001000001007513738900000008500CRESCENT1 CUS0052227          00200000000000                A RAVAT                                                                              
013L5020201214001154051001000000018151943700000008500CRESCENT1 CUS0036652          00200000000000                M ALLY                                                                               
013L5020201214000514470010000000153732417700000008500CRESCENT1 CUS0055800          00200000000000                T PALM                                                                               
013L5020201214000599470010000000159241630400000008500CRESCENT1 CUS0056070          00200000000000                Y ABRAHAMS                                                                           
013L5020201214000005678910000005100720116600000008500CRESCENT1 CUS0058671          00200000000000                Y LEE                                                                                
013L5020201214000340051001000000002167792100000008500CRESCENT1 CUS0041156          00200000000000                P AKBARI                                                                             
013L5020201214000233051001000000007310216400000008500CRESCENT1 CUS0048294          00400000000000                A DAVIDS                                                                             
013L5020201214001242470010000000141821819500000008500CRESCENT1 CUS0058614          00200000000000                F BENJAMIN                                                                           
013L5020201214000458800000000007860015483700000008500CRESCENT1 CUS0049352          00200000000000                E DHOOMA                                                                             
013L5020201214000100470010000000160572509700000008500CRESCENT1 CUS0058880          00200000000000                S AGHERDIEN                                                                          
013L5020201214000325051001000001003977977500000008500CRESCENT1 CUS0059488          00200000000000                Q SONDAY                                                                             
013L5020201214000866051001000000028206121500000008500CRESCENT1 CUS0044920          00200000000000                M FANOO                                                                              
013L5020201214000833051001000000027637835000000008500CRESCENT1 CUS0057156          00400000000000                F TASRIET                                                                            
013L5020201214000150470010000000130717228600000016000CRESCENT1 CUS0058986          00200000000000                G SAMPSON                                                                            
013L5020201214000693051001000000025330857700000007500CRESCENT1 CUS0050522          00300000000000                S MASON                                                                              
013L5020201214000385051001000000027198897500000008500CRESCENT1 CUS0000131          01200000000000                A HASSIM                                                                             
013L5020201214001102051001000001007395951900000006900CRESCENT1 CUS0058187          00200000000000                A SAMPSON                                                                            
013L5020201214000030051001000001008877222300000008500CRESCENT1 CUS0058692          00200000000000                M DAVIDS                                                                             
013L5020201214001042470010000000123787151200000008500CRESCENT1 CUS0058080          00200000000000                M WILLIAMS                                                                           
013L5020201214000049470010000000128800491300000008500CRESCENT1 CUS0053071          00200000000000                F KHAN                                                                               
013L5020201214000170470010000000145806459800000008500CRESCENT1 CUS0058993          00200000000000                M MANGANYI                                                                           
013L5020201214000668470010000000147913574500000016000CRESCENT1 CUS0050404          00200000000000                A KEERAN                                                                             
013L5020201214000670051001000000020071948300000008500CRESCENT1 CUS0004785          00400000000000                K ILYAS                                                                              
013L5020201214000643051001000000041039518800000008500CRESCENT1 CUS0050225          00400000000000                M VALLEE                                                                             
013L5020201214000215470010000000124575531300000008500CRESCENT1 CUS0059102          00200000000000                Z MOHAMMID                                                                           
013L5020201214000847051001000001006147347000000008500CRESCENT1 CUS0051170          00200000000000                G AJERAAN                                                                            
013L5020201214000444470010000000142658134100000008500CRESCENT1 CUS0055608          00200000000000                A CRIGHCON                                                                           
013L5020201214000651051001000000033201480000000016000CRESCENT1 CUS0026591          00200000000000                I MOHAMED                                                                            
013L5020201214000711470010000000149372145100000008500CRESCENT1 CUS0028464          00200000000000                F SHARZAD                                                                            
013L5020201214000863470010000000146954231300000008500CRESCENT1 CUS0057276          00200000000000                Y CHARLES                                                                            
013L5020201214000389470010000000159157292200000016000CRESCENT1 CUS0055327          03600000000000                F WILLIAMS DAVIDS                                                                    
013L5020201214001082470010000000151244854900000008500CRESCENT1 CUS0058159          00200000000000                D JULIUS                                                                             
013L5020201214000095678910000005100622466400000008500CRESCENT1 CUS0058877          00200000000000                N BHOOLA                                                                             
013L5020201214000592632005000000062408289300000008500CRESCENT1 CUS0043190          03092801000592                G VALIATHAM                                                                          
013L5020201214001067470010000000169451277900000006900CRESCENT1 CUS0058121          00200000000000                A LAKAY                                                                              
013L5020201214000083470010000000114391285100000008500CRESCENT1 CUS0047707          00200000000000                S ISMAIL                                                                             
013L5020201214001037470010000000114664619200000008500CRESCENT1 CUS0058048          00200000000000                F TOEFEY                                                                             
013L5020201214001176470010000000135681135100000008500CRESCENT1 CUS0052578          00200000000000                F RAHMAN                                                                             
013L5020201214000413470010000000138290885500000008500CRESCENT1 CUS0049074          00200000000000                T MAKHEH                                                                             
013L5020201214000275470010000000140679953800000008500CRESCENT1 CUS0059265          00200000000000                M USMANI                                                                             
013L5020201214000440051001000000000307558300000008500CRESCENT1 CUS0000788          00400000000000                N KHAN                                                                               
013L5020201214001085051001000000000490918600000008500CRESCENT1 CUS0045990          01200000000000                M AZIZ                                                                               
013L5020201214001013632005000000405983177700000016000CRESCENT1 CUS0010752          00292803001013                M AMEER                                                                              
013L5020201214000002470010000000169139825800000016000CRESCENT1 CUS0038281          00200000000000                A PETER                                                                              
013L5020201214001262051001000000027285950800000008500CRESCENT1 CUS0058660          00200000000000                I PETERSE                                                                            
013L5020201214000567470010000000141773165400000006900CRESCENT1 CUS0042721          00200000000000                J HLATYWAYO                                                                          
013L5020201214000157051001000000002262383300000008500CRESCENT1 CUS0039615          01800000000000                I CAJEE                                                                              
013L5020201214000922470010000000140783045500000008500CRESCENT1 CUS0057534          00200000000000                A FELIX                                                                              
013L5020201214000434470010000000130320430200000008500CRESCENT1 CUS0055561          00200000000000                R RATTIM                                                                             
013L5020201214001146470010000000111429594700000008500CRESCENT1 CUS0052457          03000000000000                N FICK                                                                               
013L5020201214000322632005000000922002647300000008500CRESCENT1 CUS0040962          00292803000322                S ENGAR                                                                              
013L5020201214001092470010000000156792026600000008500CRESCENT1 CUS0058180          00200000000000                D FISHER                                                                             
013L5020201214001106470010000000159945720000000008500CRESCENT1 CUS0052266          00200000000000                K MOHOMED                                                                            
013L5020201214001172470010000000148812086000000008500CRESCENT1 CUS0058325          00200000000000                M FRANCIS                                                                            
013L5020201214000310470010000000157440691200000008500CRESCENT1 CUS0059364          00200000000000                L CLOETE                                                                             
013L5020201214000195470010000000115601701500000008500CRESCENT1 CUS0059071          00200000000000                A MOHLOLO                                                                            
013L5020201214000618051001000000028105398700000008500CRESCENT1 CUS0050070          00200000000000                M PEERBHAY                                                                           
013L5020201214000224051001000001003602574500000007500CRESCENT1 CUS0053734          00400000000000                A MOHAMED                                                                            
013L5020201214000717250655000007449207609400000008500CRESCENT1 CUS0044029          02600000000000                K SULEMAN                                                                            
013L5020201214000656051001000000001240673200000008500CRESCENT1 CUS0026612          00200000000000                H CONSALVES                                                                          
013L5020201214000808470010000000135500057000000008500CRESCENT1 CUS0057027          00600000000000                F ABRAHAMS                                                                           
013L5020201214000954470010000000136466714000000008500CRESCENT1 CUS0033918          03200000000000                S HUNTER                                                                             
013L5020201214000342470010000000148440280200000016000CRESCENT1 CUS0055032          00200000000000                C DE VILLIERS                                                                        
013L5020201214001117470010000000146303020500000008500CRESCENT1 CUS0058245          00200000000000                R MANUEL                                                                             
013L5020201214001177470010000000120616079700000008500CRESCENT1 CUS0058336          00200000000000                Z BUFFAINS                                                                           
013L5020201214000446470010000000123818162500000008500CRESCENT1 CUS0022845          01200000000000                T MFIHLO MAHOMMED                                                                    
013L5020201214001113051001000000000168523600000008500CRESCENT1 CUS0012561          00200000000000                N MOHAMED                                                                            
013L5020201214000244051001000000040353837800000008500CRESCENT1 CUS0054335          00200000000000                W MEYER                                                                              
013L5020201214000632051001000000030230255700000023500CRESCENT1 CUS0043527          00600000000000                F SALEH                                                                              
013L5020201214000803470010000000121361312200000008500CRESCENT1 CUS0057023          00200000000000                M DARRIES                                                                            
013L5020201214000263470010000000111283907900000008500CRESCENT1 CUS0048518          00200000000000                S DE VRIES                                                                           
013L5020201214000358470010000000113338357000000007500CRESCENT1 CUS0055144          00200000000000                S BARENDSE                                                                           
013L5020201214000550470010000000133436009800000008500CRESCENT1 CUS0002977          00200000000000                C MOOLA                                                                              
013L5020201214001035470010000000138045177700000016000CRESCENT1 CUS0045774          00200000000000                R BOSMAN                                                                             
013L5020201214001160470010000000120707059700000008500CRESCENT1 CUS0046628          00200000000000                Z OSMAN                                                                              
013L5020201214000765051001000000042769270900000023500CRESCENT1 CUS0030483          01200000000000                A ISMAIL                                                                             
013L5020201214000888470010000000160797738700000008500CRESCENT1 CUS0057404          00200000000000                I JACOBS                                                                             
013L5020201214000300470010000000168348539200000008500CRESCENT1 CUS0059355          00200000000000                R RHODA                                                                              
013L5020201214000839470010000000152277517800000008500CRESCENT1 CUS0007445          00200000000000                F ABOO BAKER                                                                         
013L5020201214000754470010000000148005645400000008500CRESCENT1 CUS0056867          00200000000000                R FREDERICKS                                                                         
013L5020201214000848470010000000147777254300000008500CRESCENT1 CUS0057209          00200000000000                F CROY                                                                               
013L5020201214000823051001000000030277184000000008500CRESCENT1 CUS0057146          00200000000000                S JOOMA                                                                              
013L5020201214001213051001000000003017102400000016000CRESCENT1 CUS0014972          00600000000000                N ESSA                                                                               
013L5020201214000050470010000000126617070500000015400CRESCENT1 CUS0058774          00200000000000                A ABDURAHMAN                                                                         
013L5020201214001000470010000000154179427100000008500CRESCENT1 CUS0045511          00200000000000                N ADAM                                                                               
013L5020201214000130470010000000167392258700000008500CRESCENT1 CUS0058921          00200000000000                B MNISI                                                                              
013L5020201214000149470010000000164446272700000006900CRESCENT1 CUS0053551          00200000000000                N TALIEP JOSEPH                                                                      
013L5020201214000424470010000000134733576300000007500CRESCENT1 CUS0055539          00200000000000                R JORDAAN                                                                            
013L5020201214000913051001000000022534729600000008500CRESCENT1 CUS0008928          00200000000000                K STEELE                                                                             
013L5020201214001182470010000000113741808500000008500CRESCENT1 CUS0058339          00200000000000                Y DALVIE                                                                             
013L5020201214000193051001000001000708412700000008500CRESCENT1 CUS0048224          00400000000000                I ABDUL KHADIR                                                                       
013L5020201214000883470010000000154195017600000008500CRESCENT1 CUS0057399          00200000000000                M HERCULES                                                                           
013L5020201214000289470010000000155520996100000008500CRESCENT1 CUS0054582          00200000000000                M VAN RHEEDE                                                                         
013L5020201214000239470010000000149364930000000008500CRESCENT1 CUS0053781          00200000000000                N KARA                                                                               
013L5020201214000977470010000000144501637900000008500CRESCENT1 CUS0057774          00200000000000                M ARENDSE                                                                            
013L5020201214001222470010000000129325666600000008500CRESCENT1 CUS0058534          00200000000000                A ADAMS                                                                              
013L5020201214000332051001000000041355311600000008500CRESCENT1 CUS0041070          00200000000000                Y KHOZA                                                                              
013L5020201214000020470010000000150599084800000008500CRESCENT1 CUS0058689          00200000000000                I AMLAY                                                                              
013L5020201214001016470010000000155543299700000008500CRESCENT1 CUS0051829          00200000000000                F GABIER                                                                             
013L5020201214000060470010000000164725639700000008500CRESCENT1 CUS0058779          00200000000000                R ISAACS                                                                             
014L0000001150000000000000005447843905740000000107800000000000000000                                                                                                                                  
019L0000001160000000000000005462183710670000000108650000000000000000                                                                                                                                  
999L000000124                                                                                                                                                                                         
