000L2021041600000PAYPORT CONSULTING PTY LTD EFT000072007303                                                                                                                                           
010LD237000018601                                                                                                                                                                                     
011LD23763200500000040945448920120210331                                                                                                                                                              
013L5020210330001480470010000000133943056600000008500CRESCENT1 CUS0054978          03000000000000                M SAVAHL                                                                             
014L0000000010000000000000000013394305660000000000850000000000000000                                                                                                                                  
011LD23763200500000040945448920120210416                                                                                                                                                              
013L5020210415000703632005000000408004439100000008500CRESCENT1 CUS0039235          02682502000703                Y MOTARA                                                                             
013L5020210415000118470010000000105654067200000008500CRESCENT1 CUS0044801          02682502000118                M DENNIS GREEN                                                                       
013L5020210415001183250655000000623446672600000008500CRESCENT1 CUS0026487          02682502001183                A NGWABENI                                                                           
013L5020210415000622632005000000432557004100000008500CRESCENT1 CUS0038710          02683002000622                R MOHAMMED                                                                           
013L5020210415001163632005000000408758670600000007500CRESCENT1 CUS0026240          02683002001163                F ISMAIL                                                                             
013L5020210415000890198765000000108762174100000007500CRESCENT1 CUS0020198          02682502000890                S OMAR                                                                               
013L5020210415001099250655000006216647202500000008500CRESCENT1 CUS0042928          02682502001099                S AMOD                                                                               
013L5020210415000180250655000000624475541300000008500CRESCENT1 CUS0058256          02682502000180                F SHIEK                                                                              
014L0000000080000000000000000892830577150000000006600000000000000000                                                                                                                                  
019L0000000090000000000000000906224882810000000007450000000000000000                                                                                                                                  
999L000000017                                                                                                                                                                                         
