000L2021041100000PAYPORT CONSULTING PTY LTD EFT000071207303                                                                                                                                           
010LD237000018201                                                                                                                                                                                     
011LD23763200500000040945448920120210325                                                                                                                                                              
013L5020210324000773470010000000165533157200000008500CRESCENT1 CUS0005749          03000000000000                R GABIER                                                                             
014L0000000010000000000000000016553315720000000000850000000000000000                                                                                                                                  
011LD23763200500000040945448920120210326                                                                                                                                                              
013L5020210325001995462005000000264653600100000008500CRESCENT1 CUS0054814          03000000000000                M BAKER                                                                              
014L0000000010000000000000000026465360010000000000850000000000000000                                                                                                                                  
019L0000000020000000000000000043018675730000000001700000000000000000                                                                                                                                  
999L000000010                                                                                                                                                                                         
