000L2021040400000PAYPORT CONSULTING PTY LTD EFT000070107303                                                                                                                                           
010LD237000017601                                                                                                                                                                                     
011LD23763200500000040945448920120210227                                                                                                                                                              
013L5020210226003448051001000000022149797800000008500CRESCENT1 CUS0047015          03000000000000                M MOHAMED ESSOP                                                                      
013L5020210226002706198765000000101640068300000016000CRESCENT1 CUS0023930          03000000000000                M BALLIM                                                                             
013L5020210226004462051001000001008244637500000008500CRESCENT1 CUS0057325          03400000000000                T HENDRICK                                                                           
014L0000000030000000000000000113203450360000000003300000000000000000                                                                                                                                  
011LD23763200500000040945448920120210325                                                                                                                                                              
013L5020210324000323051001000000041029242700000016000CRESCENT1 CUS0045426          03400000000000                A RASSOOL                                                                            
014L0000000010000000000000000004102924270000000001600000000000000000                                                                                                                                  
011LD23763200500000040945448920120210326                                                                                                                                                              
013L5020210325002931051001000000000171717000000008500CRESCENT1 CUS0005061          03400000000000                M EBRAHIM                                                                            
013L5020210325002215254905000006235308192100000008500CRESCENT1 CUS0010866          03000000000000                F BORMAN                                                                             
014L0000000020000000000000000623547990910000000001700000000000000000                                                                                                                                  
011LD23763200500000040945448920120210331                                                                                                                                                              
013L5020210330001407252505000005031005784500000008500CRESCENT1 CUS0039969          00200000000000                S MOTAN                                                                              
013L5020210330001864250068000006203307434500000008500CRESCENT1 CUS0022810          01200000000000                M YUNUS                                                                              
013L5020210330002036250655000006277209357300000008500CRESCENT1 CUS0058493          00400000000000                M ISAACS                                                                             
013L5020210330001214270224000006208330887700000008500CRESCENT1 CUS0019905          00200000000000                M ISMAIL                                                                             
013L5020210330002550270324000006216988218300000008500CRESCENT1 CUS0031694          01800000000000                F NAICKER                                                                            
013L5020210330001152051001000001013242598800000008500CRESCENT1 CUS0059417          03400000000000                S BENJAMIN                                                                           
013L5020210330000110200110000006243191934100000007500CRESCENT1 CUS0052531          00400000000000                I MATTHEWS                                                                           
013L5020210330002001051001000000006216913000000008500CRESCENT1 CUS0030495          03600000000000                B KHAN                                                                               
013L5020210330000212198765000000115668556700000008500CRESCENT1 CUS0059030          00400000000000                R ISMAIL                                                                             
013L5020210330000561198765000000119008792800000008500CRESCENT1 CUS0057431          00600000000000                I DAVIDS                                                                             
013L5020210330000536632005000000409466789800000016000CRESCENT1 CUS0032921          03092801000536                F PATEL                                                                              
013L5020210330000920255355000006250187062100000008500CRESCENT1 CUS0053926          01200000000000                G EBRAHIEM                                                                           
013L5020210330002532255355000006239477720800000008500CRESCENT1 CUS0042386          00200000000000                M OSMAN                                                                              
013L5020210330001993252355000006258524315900000008500CRESCENT1 CUS0035741          00200000000000                Z EBRAIM                                                                             
013L5020210330000059250114000006235749261100000008500CRESCENT1 CUS0047786          00400000000000                J PATTERSEN                                                                          
013L5020210330001183250056000006228635952800000008500CRESCENT1 CUS0007461          00200000000000                Z MATROOS                                                                            
013L5020210330001651198765000000110614878900000008500CRESCENT1 CUS0058290          00200000000000                I DAVIDS                                                                             
013L5020210330001879198765000000102535339000000008500CRESCENT1 CUS0050130          01200000000000                N JAFFER                                                                             
013L5020210330000457198765000000164433548400000008500CRESCENT1 CUS0037865          00400000000000                M VICTOR FELAAR                                                                      
013L5020210330000147210502000006208512644100000006900CRESCENT1 CUS0037027          00200000000000                F RAJAAL                                                                             
013L5020210330000601198765000000117124531900000008500CRESCENT1 CUS0057461          00200000000000                L SOLOMONS                                                                           
013L5020210330001369250114000006260868385200000016000CRESCENT1 CUS0049545          01200000000000                D FORTUNE                                                                            
013L5020210330000360250141000006251464655600000008500CRESCENT1 CUS0052995          01200000000000                A NAIDOO                                                                             
013L5020210330001780250555000006258560985600000008500CRESCENT1 CUS0055663          00200000000000                T SAFAAR                                                                             
013L5020210330000937250845000006253537834400000007500CRESCENT1 CUS0038989          00400000000000                N MOOLOO                                                                             
013L5020210330000877250056000006249619394800000008500CRESCENT1 CUS0038929          00400000000000                R PATEL                                                                              
013L5020210330001901252505000006239686280900000008500CRESCENT1 CUS0023029          00200000000000                Y PILLAR                                                                             
013L5020210330002384204209000006226178163900000008500CRESCENT1 CUS0051703          00400000000000                M PARKER                                                                             
013L5020210330001475198765000000126683844900000008500CRESCENT1 CUS0028118          00200000000000                K SALIE                                                                              
013L5020210330001805230102000006213334734500000016000CRESCENT1 CUS0029990          00200000000000                M JACOBS                                                                             
013L5020210330000665253605000006211033693100000016000CRESCENT1 CUS0026365          00600000000000                F ABDUL HABIB                                                                        
013L5020210330000350250655000006276789630400000008500CRESCENT1 CUS0052969          00200000000000                A KROTZ                                                                              
013L5020210330000870250655000006275877490700000008500CRESCENT1 CUS0053786          00200000000000                F TITUS                                                                              
013L5020210330002226250655000006271089752300000008500CRESCENT1 CUS0058670          01200000000000                F ABRAHAMS                                                                           
013L5020210330001266252245000005529231198900000008500CRESCENT1 CUS0034034          00200000000000                M MAJAM                                                                              
013L5020210330001941255355000006253287129200000008500CRESCENT1 CUS0046420          00400000000000                A HOOSEN                                                                             
013L5020210330000309250114000006258382926600000008500CRESCENT1 CUS0048157          00200000000000                R DAVIDS                                                                             
013L5020210330000331250655000006279238587700000008500CRESCENT1 CUS0057237          01200000000000                M KHAN                                                                               
013L5020210330000392198765000000114719804700000016000CRESCENT1 CUS0059152          03000000000000                I VAN DER SCHYFF                                                                     
013L5020210330002545198765000000103290930700000008500CRESCENT1 CUS0056845          00600000000000                M SAYED                                                                              
013L5020210330001201051001000001012578538900000016000CRESCENT1 CUS0058055          03600000000000                A DAVEY                                                                              
013L5020210330002066198765000000118083489500000008500CRESCENT1 CUS0058530          00200000000000                M PARKER                                                                             
013L5020210330002079261550000005291007040900000007500CRESCENT1 CUS0023605          00200000000000                A SHAIKHNAG                                                                          
013L5020210330001885250655000006269900729300000016000CRESCENT1 CUS0035487          01200000000000                M MADAREE                                                                            
013L5020210330000482250655000006285908833000000016000CRESCENT1 CUS0059178          00200000000000                S BASSIER                                                                            
013L5020210330000406251042000006234070362900000008500CRESCENT1 CUS0032627          00400000000000                S DELONG                                                                             
013L5020210330001541198765000000119440891500000008500CRESCENT1 CUS0058231          00200000000000                N MOYCE                                                                              
013L5020210330000056220425000006208901538500000008500CRESCENT1 CUS0031807          00200000000000                S KHAN                                                                               
013L5020210330002264201409000006247393103000000008500CRESCENT1 CUS0051435          00400000000000                T DIEDERICKS                                                                         
013L5020210330000169201909000006260015034600000008500CRESCENT1 CUS0047984          01200000000000                A CARRIEM                                                                            
013L5020210330000757211617000006224988986900000008500CRESCENT1 CUS0038742          00400000000000                Z SMITH                                                                              
013L5020210330000386051001000000007262242300000016000CRESCENT1 CUS0032487          03400000000000                M NOORDIEN                                                                           
013L5020210330002161255355000006235618434200000016000CRESCENT1 CUS0036094          00400000000000                F CROMBIE                                                                            
013L5020210330000458632005000000931493424700000016000CRESCENT1 CUS0043475          03092801000458                N DAVIDS                                                                             
013L5020210330000517261050000006240684644600000008500CRESCENT1 CUS0038000          00200000000000                A DEMAINE                                                                            
013L5020210330000491470010000000128873333800000016000CRESCENT1 CUS0057354          03600000000000                G SEPTEMBER                                                                          
013L5020210330002193255355000006244498977900000016000CRESCENT1 CUS0046966          01200000000000                A SADER                                                                              
013L5020210330001587259605000006215549618800000016000CRESCENT1 CUS0040373          00200000000000                M SUJEE                                                                              
013L5020210330001415252605000006202432059100000008500CRESCENT1 CUS0028000          00400000000000                M FAKIE                                                                              
013L5020210330001781250655000006283300683700000008500CRESCENT1 CUS0058328          03600000000000                M BENJAMIN                                                                           
013L5020210330001068051001000001009985189800000006900CRESCENT1 CUS0044744          03400000000000                I EBRAHIM                                                                            
013L5020210330000557198765000000191030345300000008500CRESCENT1 CUS0038198          00200000000000                R HOOSEN                                                                             
013L5020210330002224051001000001006817590400000008500CRESCENT1 CUS0051296          03400000000000                S KHAN                                                                               
013L5020210330000789200510000006052621178900000016000CRESCENT1 CUS0048766          00200000000000                F MIA                                                                                
013L5020210330001247198765000000203405925500000008500CRESCENT1 CUS0039534          02600000000000                A BASSA                                                                              
013L5020210330002214203209000006231072273200000008500CRESCENT1 CUS0051290          00200000000000                A LATIEF                                                                             
013L5020210330002091198765000000102923758100000008500CRESCENT1 CUS0035932          00200000000000                R BLIGENHOUDT                                                                        
013L5020210330002574250655000006281254352900000008500CRESCENT1 CUS0052421          01200000000000                E KATHIE                                                                             
013L5020210330002388257705000006240912242100000008500CRESCENT1 CUS0014623          00200000000000                S BUTLER                                                                             
013L5020210330001121252805000006208747862600000007500CRESCENT1 CUS0057949          00600000000000                N BAYNES                                                                             
013L5020210330001692250655000006272325567700000008500CRESCENT1 CUS0059632          03600000000000                F DAVIDS                                                                             
013L5020210330001899250114000006238834974000000008500CRESCENT1 CUS0058389          00200000000000                M ISMAIL                                                                             
013L5020210330000177211617000006237372604400000030000CRESCENT1 CUS0037104          00600000000000                J LEON                                                                               
013L5020210330002135198765000000243701238900000008500CRESCENT1 CUS0056353          02600000000000                S MILLS                                                                              
013L5020210330001044198765000000265139567600000016000CRESCENT1 CUS0019065          03000000000000                A ISMAIL                                                                             
013L5020210330001767198765000000191612926900000008500CRESCENT1 CUS0040773          00400000000000                C SMITH                                                                              
013L5020210330002153051001000000042112876300000008500CRESCENT1 CUS0046787          03400000000000                K MANUEL                                                                             
013L5020210330001861198765000000118755093000000008500CRESCENT1 CUS0058371          00200000000000                B YON                                                                                
013L5020210330002144470010000000147582654900000008500CRESCENT1 CUS0050925          03000000000000                R NAIDOO                                                                             
013L5020210330001008270350000006237724441400000016000CRESCENT1 CUS0044685          00200000000000                M MOMLA                                                                              
013L5020210330000489252245000006244092929000000016000CRESCENT1 CUS0048365          00200000000000                M HASSIM                                                                             
013L5020210330000114051001000000020258071700000016000CRESCENT1 CUS0015416          03000000000000                S EVANS                                                                              
013L5020210330002213204209000006236286177800000008500CRESCENT1 CUS0046992          00200000000000                N NORDIEN                                                                            
013L5020210330002501251945000006234862432200000008500CRESCENT1 CUS0036717          00200000000000                Y BROWN                                                                              
013L5020210330000830250655000006280635468500000008500CRESCENT1 CUS0053731          00200000000000                M LAKAY                                                                              
013L5020210330000910250655000006282548107100000016000CRESCENT1 CUS0053894          01200000000000                M GALLOW                                                                             
013L5020210330002137255355000006262218175900000008500CRESCENT1 CUS0000498          00200000000000                S SULIMAN AHMED                                                                      
013L5020210330000490470010000000128273599100000008500CRESCENT1 CUS0053226          03000000000000                A NORTON                                                                             
013L5020210330002416203109000006259103032600000008500CRESCENT1 CUS0058770          00200000000000                A VALLIE                                                                             
013L5020210330001704230102000006220624369400000008500CRESCENT1 CUS0021998          01200000000000                S NAWAZ                                                                              
013L5020210330002222201109000006234671413300000008500CRESCENT1 CUS0041564          00200000000000                F KHAN                                                                               
013L5020210330000998200410000006250954711500000008500CRESCENT1 CUS0044650          00200000000000                A HARTLEY                                                                            
013L5020210330000760198765000000111999381400000008500CRESCENT1 CUS0053621          00200000000000                F FRANSMAN                                                                           
013L5020210330002325051001000000007263230500000008500CRESCENT1 CUS0056609          03400000000000                N BAATJES                                                                            
013L5020210330001460252355000006243769037500000006900CRESCENT1 CUS0054965          00200000000000                E CASSIM                                                                             
013L5020210330002355250655000006280303744000000008500CRESCENT1 CUS0056669          00200000000000                R DABHELIA                                                                           
013L5020210330000372250655000006272287691100000016000CRESCENT1 CUS0059126          00200000000000                A MAJIET                                                                             
013L5020210330000057259745000006232692284700000008500CRESCENT1 CUS0036864          00400000000000                K TAYOB                                                                              
013L5020210330000956231002000006262788784900000008500CRESCENT1 CUS0033642          00200000000000                F MAHRI                                                                              
013L5020210330001908204709000006202607511000000008500CRESCENT1 CUS0058392          00400000000000                I MULDER                                                                             
013L5020210330000431051001000001008244637500000008500CRESCENT1 CUS0057325          03400000000000                T HENDRICK                                                                           
013L5020210330001621198765000000116037901700000008500CRESCENT1 CUS0058273          00200000000000                N ASGHAN                                                                             
013L5020210330001865258055000006214454270200000008500CRESCENT1 CUS0030093          01200000000000                F RAHMAN                                                                             
013L5020210330000894260225000006238756639500000008500CRESCENT1 CUS0018371          00600000000000                I KALIL                                                                              
013L5020210330000486250237000006246187981200000016000CRESCENT1 CUS0032811          00200000000000                H BHANA                                                                              
013L5020210330001002250655000006274231454500000008500CRESCENT1 CUS0059367          00400000000000                Z MOSES                                                                              
013L5020210330001359203209000006207276170500000023500CRESCENT1 CUS0049531          00200000000000                A MOERAT                                                                             
013L5020210330002390221926000006209333902800000006900CRESCENT1 CUS0031405          01200000000000                A NGUBANE                                                                            
013L5020210330002149220126000006246205016400000016000CRESCENT1 CUS0024011          00200000000000                L MUSTAFFA                                                                           
013L5020210330002415198765000000107424653500000007500CRESCENT1 CUS0056743          00200000000000                M ABRAHAMS                                                                           
013L5020210330001337250056000006228117752900000008500CRESCENT1 CUS0039751          00200000000000                S HAFFEJEE                                                                           
013L5020210330002176255355000006265517993700000008500CRESCENT1 CUS0058656          00400000000000                J PHILANDER                                                                          
013L5020210330001627258623000006220423008100000023500CRESCENT1 CUS0040519          00200000000000                A MANUEL                                                                             
013L5020210330001428250805000006204719543400000008500CRESCENT1 CUS0045328          00200000000000                M DANKA                                                                              
013L5020210330001264250056000006244778520700000016000CRESCENT1 CUS0020183          01200000000000                A ASVAT                                                                              
013L5020210330000170252505000006243022367800000007500CRESCENT1 CUS0052597          01200000000000                S KHAN                                                                               
013L5020210330000461198765000000104666545600000016000CRESCENT1 CUS0057335          00200000000000                A EDERIES                                                                            
013L5020210330001574198765000000114678027300000008500CRESCENT1 CUS0021330          00200000000000                M RICHARDS                                                                           
013L5020210330002295198765000000118032625300000008500CRESCENT1 CUS0056587          00600000000000                Z BAREDOEN                                                                           
013L5020210330000942198765000000120554543300000015400CRESCENT1 CUS0059351          03000000000000                M JACKSON                                                                            
013L5020210330002418198765000000107717815800000016000CRESCENT1 CUS0014768          03000000000000                I MPHAGI                                                                             
013L5020210330001397252505000006229301837300000008500CRESCENT1 CUS0039965          00200000000000                Y LAHER                                                                              
013L5020210330000785257705000005028003661400000008500CRESCENT1 CUS0026559          01200000000000                R AHMED                                                                              
013L5020210330001782250655000006284847658800000008500CRESCENT1 CUS0059644          03400000000000                Z HARRIS                                                                             
013L5020210330000641250555000006237120658500000008500CRESCENT1 CUS0057482          01800000000000                T DAMON                                                                              
013L5020210330001505252805000006214879845000000008500CRESCENT1 CUS0028375          00200000000000                M COLLINS                                                                            
013L5020210330000034252805000006234127259000000025000ABSOLIT   1616938219RLP001    00200000000000                LLEWELLYN PALMER                                                                     
013L5020210330000101201909000006229784217400000008500CRESCENT1 CUS0056916          00400000000000                M ADAMS                                                                              
013L5020210330000969201809000006210714294500000008500CRESCENT1 CUS0048955          00200000000000                S ABRAHAMS                                                                           
013L5020210330001653198765000000190354876400000007500CRESCENT1 CUS0010242          00200000000000                O GANCHI                                                                             
013L5020210330000481210121000006267009185100000016000CRESCENT1 CUS0057340          00200000000000                T DAWJEE                                                                             
013L5020210330002301253442000006227946913600000023500CRESCENT1 CUS0036416          00200000000000                A LEBELOANE                                                                          
013L5020210330000076256505000006201751767600000022500CRESCENT1 CUS0031831          00200000000000                A PATEL                                                                              
013L5020210330001060250655000006280886641400000006900CRESCENT1 CUS0054409          00200000000000                S SCHROEDER                                                                          
013L5020210330001026211517000006203586535400000016000CRESCENT1 CUS0033757          00200000000000                R DOLLEY                                                                             
014L0000001350000000000000058684717945490000000144640000000000000000                                                                                                                                  
011LD23763200500000040945448920120210401                                                                                                                                                              
013L5020210331000016051001000000008287783100000007500ARCTICA   1617024616RARCTICA0000200000000000                EAGLE UNIQUE                                                                         
014L0000000010000000000000000000828778310000000000750000000000000000                                                                                                                                  
019L0000001420000000000000059426401089340000000151990000000000000000                                                                                                                                  
999L000000156                                                                                                                                                                                         
