000L2020110500000PAYPORT CONSULTING PTY LTD EFT000048907303                                                                                                                                           
010LD237000003201                                                                                                                                                                                     
011LD23763200500000040945448920120201021                                                                                                                                                              
013L5020201020000205051001000001008683072200000008500CRESCENT1 1603195658OCUS00502103000000000000                A BAGUS                                                                              
013L5020201020000341632005000000407358400900000008500CRESCENT1 1603195658OCUS00550003492801000341                F GAMSU                                                                              
014L0000000020000000000000000141604147310000000001700000000000000000                                                                                                                                  
019L0000000020000000000000000141604147310000000001700000000000000000                                                                                                                                  
999L000000008                                                                                                                                                                                         
