000L2020102800000PAYPORT CONSULTING PTY LTD EFT000048007303                                                                                                                                           
010LD237000002601                                                                                                                                                                                     
011LD23763200500000040945448920120201021                                                                                                                                                              
013L5020201020000213250805000005054901142200000008500CRESCENT1 1603195658OCUS00504503600000000000                S ALLIE                                                                              
013L5020201020000364198765000000110764210800000016000CRESCENT1 1603195657OCUS00290403000000000000                A RAZAK                                                                              
014L0000000020000000000000000516566535300000000002450000000000000000                                                                                                                                  
019L0000000020000000000000000516566535300000000002450000000000000000                                                                                                                                  
999L000000008                                                                                                                                                                                         
