000L2021053100000PAYPORT CONSULTING PTY LTD EFT000079007303                                                                                                                                           
010LD237000022801                                                                                                                                                                                     
011LD23763200500000040945448920120210527                                                                                                                                                              
013L5020210526002620632005000000018014499400000008500CRESCENT1 CUS0032424          03492801002620                S KARLIE                                                                             
014L0000000010000000000000000001801449940000000000850000000000000000                                                                                                                                  
011LD23763200500000040945448920120210531                                                                                                                                                              
013L5020210529001903632005000000404794781700000016000CRESCENT1 CUS0036031          00492802001903                A HARTLEY                                                                            
013L5020210529002544632005000000408702072400000008500CRESCENT1 CUS0015327          00492802002544                F SEEDAT                                                                             
013L5020210529000314632005000000409466789800000016000CRESCENT1 CUS0032921          00492802000314                F PATEL                                                                              
013L5020210529000950632005000000409641236200000008500CRESCENT1 CUS0059435          00492802000950                Y JANSON                                                                             
014L0000000040000000000000000163260488010000000004900000000000000000                                                                                                                                  
019L0000000050000000000000000165061937950000000005750000000000000000                                                                                                                                  
999L000000013                                                                                                                                                                                         
