000L2020110300000PAYPORT CONSULTING PTY LTD EFT000048707303                                                                                                                                           
010LD237000003001                                                                                                                                                                                     
011LD23763200500000040945448920120201021                                                                                                                                                              
013L5020201020000132051001000000027055025900000008500CRESCENT1 1603195658OCUS00459103400000000000                A JONES                                                                              
014L0000000010000000000000000002705502590000000000850000000000000000                                                                                                                                  
019L0000000010000000000000000002705502590000000000850000000000000000                                                                                                                                  
010LD237000003108                                                                                                                                                                                     
011LD23763200500000040945448920120201102                                                                                                                                                              
013L5020201102000011198765000006234780701000000018900ARCTICA   1603978210RARCTICA0102682502000011                THE NOT SO STARVING ARTIST                                                           
014L0000000010000000000000000623478070100000000001890000000000000000                                                                                                                                  
019L0000000010000000000000000623478070100000000001890000000000000000                                                                                                                                  
999L000000012                                                                                                                                                                                         
