000L2021030100000PAYPORT CONSULTING PTY LTD EFT000065207303                                                                                                                                           
010LD237000014001                                                                                                                                                                                     
011LD23763200500000040945448920120210225                                                                                                                                                              
013L5020210224000850632005000000405258795300000008500CRESCENT1 CUS0046715          03492801000850                I KHAN                                                                               
014L0000000010000000000000000040525879530000000000850000000000000000                                                                                                                                  
011LD23763200500000040945448920120210227                                                                                                                                                              
013L5020210226000418632005000000404449431600000007500CRESCENT1 CUS0027537          00292803000418                I MOHAMED                                                                            
013L5020210226000179632005000000127014751400000008500CRESCENT1 CUS0030260          03492801000179                F DELJION                                                                            
013L5020210226003392632005000000404449431600000008500CRESCENT1 CUS0027420          00292803003392                A MAHOMED JAN                                                                        
013L5020210226005313632005000000933415514200000016000CRESCENT1 CUS0059243          00292803005313                F LEVY                                                                               
013L5020210226004174632005000000929073841000000008500CRESCENT1 CUS0049937          00292803004174                S PHOKOJE                                                                            
013L5020210226005603632005000000931435577600000008500CRESCENT1 CUS0059025          00292803005603                M DAVIDS                                                                             
013L5020210226000350632005000000409641236200000008500CRESCENT1 CUS0059435          00292803000350                Y JANSON                                                                             
013L5020210226003661632005000000409646715500000008500CRESCENT1 CUS0052285          00292803003661                A MAHRI                                                                              
013L5020210226005083632005000000909654678600000008500CRESCENT1 CUS0038229          00292803005083                B MITHA                                                                              
013L5020210226003654632005000000911269044300000016000CRESCENT1 CUS0002449          00292803003654                R ALLI                                                                               
013L5020210226006186632005000000916000109000000008500CRESCENT1 CUS0054419          00292803006186                F CAJEE                                                                              
013L5020210226001340632005000000923270505100000008500CRESCENT1 CUS0020035          03492801001340                M VAN DER SCHYFF                                                                     
013L5020210226001837632005000000927114369400000008500CRESCENT1 CUS0055971          00292803001837                F PARKER                                                                             
013L5020210226003787632005000000928077357900000008500CRESCENT1 CUS0056989          00292803003787                I WILLIAMS                                                                           
013L5020210226006264632005000000405292103800000008500CRESCENT1 CUS0019731          03092801006264                A VAHED                                                                              
013L5020210226002524632005000000405473979400000008500CRESCENT1 CUS0049339          00292803002524                C DE WIT                                                                             
013L5020210226006141632005000000406214021800000016000CRESCENT1 CUS0025078          03492801006141                F HAJAT WAKEFORD                                                                     
013L5020210226004747632005000000406733696900000008500CRESCENT1 CUS0044525          00292803004747                Z SAYAN WALAA                                                                        
013L5020210226003904632005000000406827377600000008500CRESCENT1 CUS0002936          00292803003904                M MALEK MURTUJA                                                                      
013L5020210226004300632005000000406918943100000008500CRESCENT1 CUS0052204          00292803004300                M VAN DER SCHYFF                                                                     
013L5020210226003243632005000000407291000100000008500CRESCENT1 CUS0031560          00292803003243                R HENDRICKS                                                                          
013L5020210226005531632005000000407817669900000016000CRESCENT1 CUS0026481          00292803005531                N VADI                                                                               
013L5020210226003775632005000000407999786800000008500CRESCENT1 CUS0052019          00292803003775                N WILLIAMS                                                                           
013L5020210226002718632005000000408339747800000008500CRESCENT1 CUS0031368          00292803002718                F ABRAHAMS                                                                           
013L5020210226006355632005000000408548456000000008500CRESCENT1 CUS0019145          00292803006355                Z SALIE                                                                              
013L5020210226004855632005000000408569038500000008500CRESCENT1 CUS0016718          00292803004855                L MAGNEY                                                                             
013L5020210226004710632005000000408769507800000016000CRESCENT1 CUS0048187          00292803004710                F DAVIDS                                                                             
013L5020210226001029632005000000408906242900000016000CRESCENT1 CUS0055379          00292803001029                N DAVIDS                                                                             
013L5020210226004262632005000000408985494500000008500CRESCENT1 CUS0057248          00292803004262                M JAMIE                                                                              
013L5020210226001521632005000000409501695100000008500CRESCENT1 CUS0039658          00292803001521                M ISMAIL                                                                             
014L0000000300000000000000001658670132540000000029900000000000000000                                                                                                                                  
019L0000000310000000000000001699196012070000000030750000000000000000                                                                                                                                  
999L000000039                                                                                                                                                                                         
