000L2021050200000PAYPORT CONSULTING PTY LTD EFT000074407303                                                                                                                                           
010LD237000020101                                                                                                                                                                                     
011LD23763200500000040945448920120210430                                                                                                                                                              
013L5020210429000081632005000000406494029000000008500CRESCENT1 CUS0032135          00292803000081                T PATEL                                                                              
013L5020210429002540632005000000408769507800000008500CRESCENT1 CUS0048187          00292803002540                F DAVIDS                                                                             
013L5020210429001065632005000000408906242900000016000CRESCENT1 CUS0055379          00292803001065                N DAVIDS                                                                             
013L5020210429002312632005000000408985494500000008500CRESCENT1 CUS0057248          00292803002312                M JAMIE                                                                              
013L5020210429002041632005000000409646715500000008500CRESCENT1 CUS0052285          00292803002041                A MAHRI                                                                              
013L5020210429000555632005000000916000109000000008500CRESCENT1 CUS0054419          00292803000555                F CAJEE                                                                              
013L5020210429002152632005000000928077357900000008500CRESCENT1 CUS0056989          00292803002152                I WILLIAMS                                                                           
013L5020210429002553632005000000933415514200000016000CRESCENT1 CUS0059243          00292803002553                F LEVY                                                                               
014L0000000080000000000000000482029497080000000008300000000000000000                                                                                                                                  
019L0000000080000000000000000482029497080000000008300000000000000000                                                                                                                                  
999L000000014                                                                                                                                                                                         
