000L2021032600000PAYPORT CONSULTING PTY LTD EFT000068807303                                                                                                                                           
010LD237000016701                                                                                                                                                                                     
011LD23763200500000040945448920120210227                                                                                                                                                              
013L5020210226006136470010000000138443853800000008500CRESCENT1 CUS0054405          03000000000000                A DULAZE                                                                             
014L0000000010000000000000000013844385380000000000850000000000000000                                                                                                                                  
011LD23763200500000040945448920120210320                                                                                                                                                              
013L5020210319000236198765000000107827369300000016000CRESCENT1 CUS0028244          00200000000000                M RAGIEM                                                                             
013L5020210319000032051001000000040187631400000008500CRESCENT1 CUS0048366          03600000000000                Z MAYNER                                                                             
014L0000000020000000000000000014801500070000000002450000000000000000                                                                                                                                  
011LD23763200500000040945448920120210325                                                                                                                                                              
013L5020210324000650632005000000906673138500000016000CRESCENT1 CUS0037772          00200016000650                F RYKLIEF                                                                            
013L5020210324000419632005000000405258795300000008500CRESCENT1 CUS0046715          00492802000419                I KHAN                                                                               
013L5020210324000835632005000000914274452900000008500CRESCENT1 CUS0051264          00200016000835                Y MIA                                                                                
013L5020210324000216632005000000931512951600000008500CRESCENT1 CUS0053795          00200016000216                H TITUS                                                                              
013L5020210324000853632005000000407745462000000008500CRESCENT1 CUS0008345          01200000000853                A GATTA                                                                              
013L5020210324000353632005000000408825940500000008500CRESCENT1 CUS0045898          00300000000353                N OMAR                                                                               
013L5020210324000186632005000000404302704700000008500CRESCENT1 CUS0053527          03292801000186                A SAMODIEN                                                                           
013L5020210324000791632005000000925387834200000008500CRESCENT1 CUS0050945          01200012000791                S HARRISON                                                                           
013L5020210324000196632005000000926846021500000008500CRESCENT1 CUS0016365          00200016000196                H BAKER                                                                              
013L5020210324000528632005000000928028054000000008500CRESCENT1 CUS0057033          00200016000528                A GEORGE                                                                             
013L5020210324000376632005000000929866627700000008500CRESCENT1 CUS0025850          00200016000376                R DEPAUW                                                                             
013L5020210324000143632005000000409185597500000008500CRESCENT1 CUS0053139          00300000000143                F RADEMEYER                                                                          
014L0000000120000000000000000849790758040000000010950000000000000000                                                                                                                                  
011LD23763200500000040945448920120210326                                                                                                                                                              
013L5020210325000758632005000000504102460100000008500CRESCENT1 CUS0007116          02682502000758                A PATEL                                                                              
013L5020210325001452470010000001117020005100000008500CRESCENT1 CUS0014516          02682502001452                N EBRAHIM                                                                            
013L5020210325000395250655000000621147092400000008500CRESCENT1 CUS0006992          02682502000395                R SATHAR                                                                             
013L5020210325001449250655000006218207633600000008500CRESCENT1 CUS0008964          02682502001449                M SULIMAN                                                                            
013L5020210325001018051001000000450826528900000016000CRESCENT1 CUS0015809          02682502001018                N ISMAIL                                                                             
013L5020210325002156051001000000176900069000000008500CRESCENT1 CUS0012517          02682502002156                N GAIBIE                                                                             
013L5020210325000745051001000000005686097600000016000CRESCENT1 CUS0011766          02682502000745                A SULEIMAN                                                                           
013L5020210325003446051001000000000252861000000008500CRESCENT1 CUS0013206          02682502003446                A MAYET                                                                              
013L5020210325003414051001000000000422005300000008500CRESCENT1 CUS0009750          02682502003414                G LANDIS                                                                             
013L5020210325001152198765000009121433871600000015000CRESCENT1 CUS0014367          02682502001152                L KHOTA                                                                              
013L5020210325000536632005000000501545351500000016000CRESCENT1 CUS0017387          02682502000536                A EBRAHIM                                                                            
013L5020210325003357800000000000234757460100000008500CRESCENT1 CUS0015227          02682502003357                N OSMAN                                                                              
013L5020210325001236632005000000006233033700000008500CRESCENT1 CUS0004380          02683002001236                I SALOJEE                                                                            
013L5020210325003221250655000006212340982600000007500CRESCENT1 CUS0013124          02682502003221                A LAHER                                                                              
013L5020210325001571051001000000050361635300000008500CRESCENT1 CUS0012203          02682502001571                A SAYED                                                                              
013L5020210325002516198765000001924145915200000015000CRESCENT1 CUS0012666          02682502002516                M SULIMAN                                                                            
013L5020210325003116051001000000004790889700000008500CRESCENT1 CUS0013072          02682502003116                S SHERIFF                                                                            
013L5020210325002016632005000000620222489100000008500CRESCENT1 CUS0004709          02682502002016                S AKOOJEE                                                                            
013L5020210325000279250655000006219334221900000016000CRESCENT1 CUS0013634          02682502000279                M ADAM                                                                               
013L5020210325001000460005000000406538279600000008500CRESCENT1 CUS0010411          89982506001000                F ANGAMIA                                                                            
013L5020210325003445632005000000912567184100000008500CRESCENT1 CUS0011332          02683002003445                Y HOOSAIN                                                                            
013L5020210325001212051001000000000147858800000016000CRESCENT1 CUS0014391          02682502001212                A MABER                                                                              
013L5020210325002478198765000000135402566100000008500CRESCENT1 CUS0000731          02682502002478                M KHAN                                                                               
013L5020210325002232198765000000002534490400000008500CRESCENT1 CUS0014825          02682502002232                M ADAMS                                                                              
013L5020210325001676051001000000028963581100000008500CRESCENT1 CUS0012259          02682502001676                A MILLER                                                                             
013L5020210325000671198765000000295355476500000008500CRESCENT1 CUS0017503          02682502000671                M EBRAHIM                                                                            
013L5020210325000024632005000000920819799400000008500CRESCENT1 CUS0013499          02683002000024                M VAWDA                                                                              
013L5020210325003598632005000000407263073700000008500CRESCENT1 CUS0017019          02682502003598                I OMARJEE                                                                            
013L5020210325000715250655000006220528791000000008500CRESCENT1 CUS0015673          02682502000715                A ISMAIL                                                                             
013L5020210325003595250655000006216457055800000008500CRESCENT1 CUS0011389          02682502003595                M ALLOW                                                                              
013L5020210325001394250655000000504600600300000008500CRESCENT1 CUS0017826          02682502001394                M ESSOP                                                                              
013L5020210325000911250655000006125612741200000008500CRESCENT1 CUS0011865          02682502000911                F DAMON                                                                              
013L5020210325001691250655000006200541116600000023500CRESCENT1 CUS0012260          02682502001691                K KHAN                                                                               
013L5020210325002562250655000006203086233900000000000CRESCENT1 CUS0014945          89981059002562                R CHARFARAY                                                                          
013L5020210325000229250655000006218120739900000008500CRESCENT1 CUS0005501          02682502000229                Y PATEL                                                                              
013L5020210325001976632005000000904210690700000008500CRESCENT1 CUS0012397          02682502001976                S CAMPBELL                                                                           
013L5020210325003069051001000000000033944100000008500CRESCENT1 CUS0009621          02682502003069                A MHLAMBI                                                                            
013L5020210325003731051001000000005627414400000008500CRESCENT1 CUS0013396          02682502003731                M POOTAWALA                                                                          
013L5020210325002770051001000000001200095400000008500CRESCENT1 CUS0011047          02682502002770                I VARIAWA                                                                            
013L5020210325000972250655000006213228408100000008500CRESCENT1 CUS0014215          02682502000972                R MOOSA                                                                              
013L5020210325003776250655000006288912321900000023500CRESCENT1 CUS0013435          02682502003776                F SULIMAN                                                                            
013L5020210325000909460005000000001147964400000008500CRESCENT1 CUS0008737          02682502000909                F RAHMAN                                                                             
013L5020210325001197250655000006023115903600000016000CRESCENT1 CUS0014385          02682502001197                A RAGIE                                                                              
013L5020210325001227250655000006205522106800000015000CRESCENT1 CUS0014401          02682502001227                F AMOD                                                                               
013L5020210325003701250655000006213308691200000016000CRESCENT1 CUS0013372          02682502003701                F SEEDAT                                                                             
013L5020210325001368632005000000908433050600000008500CRESCENT1 CUS0000308          02682502001368                G HOOSEN                                                                             
013L5020210325003086632005000000920819789400000016000CRESCENT1 CUS0013056          02682502003086                N LANGRY                                                                             
013L5020210325001926632005000000010015504300000008500CRESCENT1 CUS0004664          02682502001926                M DAWOOD                                                                             
013L5020210325001721051001000000069004208100000008500CRESCENT1 CUS0012271          02682502001721                M RAHIM                                                                              
013L5020210325001946198765000001968334740200000015000CRESCENT1 CUS0012377          02682502001946                C GANGAT                                                                             
013L5020210325003544051001000000020012371000000008500CRESCENT1 CUS0002605          02682502003544                F HOOSEIN                                                                            
013L5020210325001378051001000000000345473700000008500CRESCENT1 CUS0015976          02682502001378                Y KOLA                                                                               
013L5020210325003026198765000000196823112800000008500CRESCENT1 CUS0013011          02682502003026                F ASVAT                                                                              
013L5020210325002937632005000000009198355400000008500CRESCENT1 CUS0015062          02683002002937                N SCHEEPERS                                                                          
013L5020210325003098250655000000621630790000000008500CRESCENT1 CUS0008111          02682502003098                M MOOSA                                                                              
013L5020210325003070250655000006216972220900000016000CRESCENT1 CUS0011162          02682502003070                A PHIRI                                                                              
013L5020210325000129250655000006219921801300000008500CRESCENT1 CUS0013544          02682502000129                F PATEL                                                                              
013L5020210325002546250655000005023104704200000008500CRESCENT1 CUS0012718          02682502002546                S MAYET                                                                              
013L5020210325001280250655000005037919705200000008500CRESCENT1 CUS0003073          02682502001280                N SAMODIEN                                                                           
013L5020210325001391051001000000020900465700000000000CRESCENT1 CUS0012143          89981059001391                A GANCHIE                                                                            
013L5020210325000368051001000000002230609800000008500CRESCENT1 CUS0011615          02682502000368                A ESSA                                                                               
013L5020210325000830051001000000199016620200000008500CRESCENT1 CUS0002919          02682502000830                M MOHAMED                                                                            
013L5020210325000762198765000000019532732700000016000CRESCENT1 CUS0014030          02682502000762                N UNOOS                                                                              
013L5020210325001373198765000000001043099700000008500CRESCENT1 CUS0007429          02682502001373                F ESSOP                                                                              
013L5020210325000300051001000000113208637800000006900CRESCENT1 CUS0059512          02682502000300                S KHAN                                                                               
013L5020210325000050198765000006223330177000000008500CRESCENT1 CUS0006896          02682502000050                E MAHOMED                                                                            
013L5020210325000039632005000009920819799400000007500CRESCENT1 CUS0013501          02682502000039                S VAWDA                                                                              
013L5020210325002827250655000000000093100500000008500CRESCENT1 CUS0006512          02682502002827                F ESSOP HUTTON                                                                       
013L5020210325001840250655000006214544061500000008500CRESCENT1 CUS0010740          02682502001840                M NKOSI                                                                              
013L5020210325000127632005000000918210265500000008500CRESCENT1 CUS0009992          02683002000127                T FRANCIF                                                                            
013L5020210325000987632005000009123010449700000006900CRESCENT1 CUS0014233          02682502000987                H JALAPAR                                                                            
013L5020210325000519632005000000912322810700000008500CRESCENT1 CUS0013845          02682502000519                A DESAI                                                                              
013L5020210325000547570105000000004100361300000000000CRESCENT1 CUS0010208          89981059000547                M DOCKRAT                                                                            
013L5020210325001524632005000000405180410600000008500CRESCENT1 CUS0008998          02682502001524                R COCHRANE                                                                           
013L5020210325001736632005000000464250510400000008500CRESCENT1 CUS0012272          02682502001736                Y DINDAR                                                                             
013L5020210325001047632005000000621344810300000008500CRESCENT1 CUS0014292          02682502001047                Z DAYA                                                                               
013L5020210325003311250655000006001102419700000008500CRESCENT1 CUS0013148          02682502003311                S BHAKUS                                                                             
013L5020210325001897198765000000290353639800000008500CRESCENT1 CUS0006139          02682502001897                S EBRAHIM                                                                            
013L5020210325000746051001000000049011162400000008500CRESCENT1 CUS0013958          02682502000746                M ESSOP                                                                              
013L5020210325000685051001000000042102815800000008500CRESCENT1 CUS0015639          02682502000685                O LATIB                                                                              
013L5020210325003533051001000000004617663900000016000CRESCENT1 CUS0008271          02682502003533                A CHUNARA                                                                            
013L5020210325001163198765000000290597121600000008500CRESCENT1 CUS0007307          02682502001163                S ISMAIL                                                                             
013L5020210325000579250655000006257117691300000016000CRESCENT1 CUS0013877          02682502000579                I PLAATJIES                                                                          
013L5020210325000219632005000006003472216000000008500CRESCENT1 CUS0013594          02683002000219                R ADAMJEE                                                                            
013L5020210325000798632005000000906691967400000008500CRESCENT1 CUS0000018          02683002000798                A MANGERA                                                                            
013L5020210325001332632005000000921174210100000008500CRESCENT1 CUS0014443          02682502001332                N SEEDAT                                                                             
013L5020210325001836250655000000512986355300000008500CRESCENT1 CUS0004629          02682502001836                I PATEL                                                                              
013L5020210325002963250655000000410586900000000008500CRESCENT1 CUS0008063          02682502002963                M MAYET                                                                              
013L5020210325003558250655000000620610142200000008500CRESCENT1 CUS0001193          02682502003558                N HANSJEE                                                                            
013L5020210325000006198765000000286240159200000008500CRESCENT1 CUS0008374          02682502000006                M MATLALE                                                                            
013L5020210325001991051001000000059320174600000016000CRESCENT1 CUS0012411          02682502001991                L BALLIM                                                                             
013L5020210325002448051001000000000005459400000008500CRESCENT1 CUS0000708          02682502002448                J KHAN                                                                               
013L5020210325003326250655000006111562230700000008500CRESCENT1 CUS0013151          02682502003326                F BHABHA                                                                             
013L5020210325000792250655000006020119304200000008500CRESCENT1 CUS0014034          02682502000792                T KHAN                                                                               
013L5020210325003296250655000006212330892600000008500CRESCENT1 CUS0013142          02682502003296                G LOONAT                                                                             
013L5020210325002126632005000000902360210600000017000CRESCENT1 CUS0012479          02683002002126                A DONGA                                                                              
013L5020210325001585632005000009104578221100000008500CRESCENT1 CUS0010683          02682502001585                F HASSEN                                                                             
013L5020210325001436460005000000004068188700000016000CRESCENT1 CUS0012154          02682502001436                A SIRKOT                                                                             
013L5020210325002636250655000005082103238900000008500CRESCENT1 CUS0012854          02682502002636                R SMITH                                                                              
013L5020210325001271250655000006202995814000000008500CRESCENT1 CUS0012042          02682502001271                N MAYET                                                                              
013L5020210325000867250655000006205223206900000008500CRESCENT1 CUS0014080          02682502000867                H MAYET                                                                              
013L5020210325002648051001000000832424112100000008500CRESCENT1 CUS0007937          02682502002648                A STRYDOM                                                                            
013L5020210325003236051001000000001521034900000008500CRESCENT1 CUS0013125          02682502003236                A KASAANI KHARSANY                                                                   
013L5020210325000009051001000000011756847200000008500CRESCENT1 CUS0013484          02682502000009                K ABRAHAMS                                                                           
013L5020210325002464250655000000620246898900000008500CRESCENT1 CUS0002225          02682502002464                R KHAN                                                                               
013L5020210325001407250655000006279172697900000016000CRESCENT1 CUS0014488          02682502001407                B CASSIM                                                                             
013L5020210325002499450205000000784682331200000008500CRESCENT1 CUS0009389          02682502002499                C OSMAN FRANCEF                                                                      
013L5020210325002021250655000006215563180500000008500CRESCENT1 CUS0012441          02682502002021                Z MALL                                                                               
013L5020210325002995632005000000091143034600000008500CRESCENT1 CUS0011138          02682502002995                F CAJEE                                                                              
013L5020210325002509051001000000834944866600000008500CRESCENT1 CUS0002256          02682502002509                F ALLY                                                                               
013L5020210325001031198765000000293308492000000008500CRESCENT1 CUS0011948          02682502001031                D MOOSA                                                                              
013L5020210325000337198765000000294041066900000008500CRESCENT1 CUS0010053          02682502000337                M VACHIAT                                                                            
013L5020210325000474250655000006123221903200000008500CRESCENT1 CUS0013831          02682502000474                N UNAAS                                                                              
013L5020210325002816250655000006209803471800000016000CRESCENT1 CUS0012902          02682502002816                F MOHOMAD                                                                            
013L5020210325000714250655000006021221498300000016000CRESCENT1 CUS0013937          02682502000714                B MASHEMANE                                                                          
013L5020210325002321250655000006218078048500000015000CRESCENT1 CUS0012588          02682502002321                F CASSIMJEE                                                                          
013L5020210325001699632005000000040697044700000008500CRESCENT1 CUS0001983          02683002001699                F OSMAN                                                                              
013L5020210325000734632005000000409685489000000008500CRESCENT1 CUS0056254          02682502000734                Z DANTU                                                                              
013L5020210325003184051001000000000264682900000016000CRESCENT1 CUS0002452          02682502003184                I MOHAMMED                                                                           
013L5020210325000925051001000000220641669400000008500CRESCENT1 CUS0010384          02682502000925                A KENNY                                                                              
013L5020210325003738198765000000287287214700000008500CRESCENT1 CUS0001303          02682502003738                M RYNEVELD                                                                           
013L5020210325001383051001000000908433050600000008500CRESCENT1 CUS0000309          02682502001383                K NABIE                                                                              
013L5020210325003622051001000000000537972900000008500CRESCENT1 CUS0006825          02682502003622                S KHAMISSA                                                                           
013L5020210325002785051001000006223948190800000016000CRESCENT1 CUS0011056          02682502002785                L CARRIM                                                                             
013L5020210325002623632005000000404463574400000016000CRESCENT1 CUS0016565          02682502002623                S JAFTHA                                                                             
013L5020210325000069632005000000911633401800000016000CRESCENT1 CUS0013527          02683002000069                A TIMOL                                                                              
013L5020210325002121632005000000063446350000000008500CRESCENT1 CUS0004767          02683002002121                M MAHOMED                                                                            
013L5020210325001749632005000000090797863900000016000CRESCENT1 CUS0009086          02682502001749                H RASSACK                                                                            
013L5020210325003722632005000000921974734600000007500CRESCENT1 CUS0059401          02683002003722                H PATHER                                                                             
013L5020210325001002250655000006217972697900000023500CRESCENT1 CUS0014254          02682502001002                F SULIMAN                                                                            
013L5020210325001046250655000006215561320500000008500CRESCENT1 CUS0011950          02682502001046                A ALZAYEEM                                                                           
013L5020210325002501250655000006218563220500000022500CRESCENT1 CUS0012663          02682502002501                F BAGUS                                                                              
013L5020210325001011250655000000406926184500000008500CRESCENT1 CUS0004283          02682502001011                M KALA                                                                               
013L5020210325001357800000000000716087860900000007500CRESCENT1 CUS0005914          02682502001357                A SOLAY                                                                              
013L5020210325001048800000000000240817460100000008500CRESCENT1 CUS0015816          02682502001048                I BHAIYAT                                                                            
013L5020210325002381250655000400490469012200000007500CRESCENT1 CUS0012614          02682502002381                R HUTTON                                                                             
013L5020210325000860250655000000543214516700000008500CRESCENT1 CUS0002925          02682502000860                S MOHAMED                                                                            
013L5020210325002705250655000000621643180100000016000CRESCENT1 CUS0003600          02682502002705                H MOSES                                                                              
013L5020210325003101250655000006296237813900000016000CRESCENT1 CUS0013063          02682502003101                A ESSOP                                                                              
013L5020210325000532632005000000917541090200000023500CRESCENT1 CUS0010192          02682502000532                F OOMAR                                                                              
013L5020210325002465198765000000192806041200000000000CRESCENT1 CUS0003478          89981059002465                R ORRIE                                                                              
013L5020210325003420051001000000010083611800000008500CRESCENT1 CUS0055711          02682502003420                D MARNEY                                                                             
013L5020210325003788198765000000301259008800000008500CRESCENT1 CUS0008360          02682502003788                A SALOOJEE                                                                           
013L5020210325002344051001000000020071617600000008500CRESCENT1 CUS0002190          02682502002344                A SAMAT                                                                              
013L5020210325000170051001000000004615067400000008500CRESCENT1 CUS0006927          02682502000170                F BHORAT                                                                             
013L5020210325000910632005000000257816263100000008500CRESCENT1 CUS0010374          02682502000910                S LANIE                                                                              
013L5020210325000096632005000000512003550300000016000CRESCENT1 CUS0008403          02682502000096                A BHULA                                                                              
013L5020210325000912632005000000941723683200000016000CRESCENT1 CUS0014182          02683002000912                I AHMAD                                                                              
013L5020210325001092250655000006209813370800000015000CRESCENT1 CUS0014338          02682502001092                M ISMAIL                                                                             
013L5020210325000249250655000006219332110200000008500CRESCENT1 CUS0013608          02682502000249                A MIA                                                                                
013L5020210325002975632005000000410586900000000007500CRESCENT1 CUS0003684          02682502002975                M KALDINE                                                                            
013L5020210325003727632005000000407029092700000008500CRESCENT1 CUS0006855          02683002003727                U ESSACK                                                                             
013L5020210325003715632005000000090818745500000016000CRESCENT1 CUS0011419          02682502003715                A SALLIE                                                                             
013L5020210325002713051001000000027355324600000008500CRESCENT1 CUS0016599          02682502002713                G TALIEB                                                                             
013L5020210325002921051001000000041037284500000008500CRESCENT1 CUS0012953          02682502002921                N MUNSHI                                                                             
013L5020210325000594051001000000067831551200000023500CRESCENT1 CUS0013884          02682502000594                A RAZAAK                                                                             
013L5020210325003303051001000000001699184900000016000CRESCENT1 CUS0001078          02682502003303                F BOOMGAARD                                                                          
013L5020210325001555051001000000000174544800000008500CRESCENT1 CUS0010667          02682502001555                S FREDRICKS                                                                          
013L5020210325003678460005000000005693267900000008500CRESCENT1 CUS0001243          02682502003678                Z EBRAHIM                                                                            
013L5020210325003224460005000000008432432600000016000CRESCENT1 CUS0018422          02682502003224                T KHASE                                                                              
013L5020210325001272250655000006218972697900000023500CRESCENT1 CUS0014410          02682502001272                A SOLLY                                                                              
013L5020210325002486250655000006218718934800000016000CRESCENT1 CUS0012662          02682502002486                L ABDULLAH                                                                           
013L5020210325001121460005000000004612317400000008500CRESCENT1 CUS0011977          02682502001121                A WILLIAMS                                                                           
013L5020210325001137632005000009121433871600000008500CRESCENT1 CUS0014364          02683002001137                Z KHOTA                                                                              
013L5020210325000189632005000000912264401700000008500CRESCENT1 CUS0013552          02683002000189                I LOONAT                                                                             
013L5020210325001317051001000000016333809900000008500CRESCENT1 CUS0014433          02682502001317                R KHAN                                                                               
013L5020210325002666051001000000390164941100000008500CRESCENT1 CUS0012862          02682502002666                A HENDRICKS                                                                          
013L5020210325000080051001000000000924129300000008500CRESCENT1 CUS0006900          02682502000080                T VOOLAY                                                                             
013L5020210325002471198765000000100206683200000000000CRESCENT1 CUS0012657          89981059002471                B CHEMANE                                                                            
013L5020210325002518051001000000000756239100000008500CRESCENT1 CUS0016530          02682502002518                T HUCKLE                                                                             
013L5020210325000968198765000000265432540500000007500CRESCENT1 CUS0007213          02682502000968                A SHERIFF                                                                            
013L5020210325002923051001000000004644237700000008500CRESCENT1 CUS0016708          02682502002923                I KHAN                                                                               
013L5020210325001999632005000000909395808900000008500CRESCENT1 CUS0002082          02682502001999                H OMAR                                                                               
013L5020210325002290632005000000920842177800000031000CRESCENT1 CUS0010884          02682502002290                R BAWA                                                                               
013L5020210325001118632005000006201762571300000007500CRESCENT1 CUS0007281          02682502001118                J CHOTHIA                                                                            
013L5020210325003835250655000006209094650500000008500CRESCENT1 CUS0011486          02682502003835                M RAHIMAN                                                                            
013L5020210325002782250655000006206284495100000008500CRESCENT1 CUS0006500          02682502002782                T EBRAHIM                                                                            
013L5020210325000444250655000005123022319200000023500CRESCENT1 CUS0013811          02682502000444                M CHOHAN                                                                             
013L5020210325002616250655000000623935721800000008500CRESCENT1 CUS0004937          02682502002616                M MOHAMMED                                                                           
013L5020210325003056250655000006212330972600000008500CRESCENT1 CUS0013051          02682502003056                I RAJAH                                                                              
013L5020210325000852632005000000412388970200000008500CRESCENT1 CUS0014068          02682502000852                S DOCRAT                                                                             
013L5020210325002173460005000003333588166800000008500CRESCENT1 CUS0016361          89982506002173                S MAKHABU                                                                            
013L5020210325002141632005000000404180510400000008500CRESCENT1 CUS0012484          02682502002141                Y SEEDAT                                                                             
013L5020210325000564051001000000041039259500000008500CRESCENT1 CUS0013876          02682502000564                R IBRAHIM                                                                            
013L5020210325003610051001000000013571003500000008500CRESCENT1 CUS0011390          02682502003610                M HLATYWAYO                                                                          
013L5020210325002980051001000000000205577000000008500CRESCENT1 CUS0011125          02682502002980                S DHOODHAT                                                                           
013L5020210325000369051001000000000181016600000008500CRESCENT1 CUS0013717          02682502000369                F SALOOJEE                                                                           
013L5020210325003243250655000000620678149300000008500CRESCENT1 CUS0001049          02682502003243                I POPAT                                                                              
014L0000001880000000000000079394870779860000000195830000000000000000                                                                                                                                  
019L0000002030000000000000080273307423350000000210080000000000000000                                                                                                                                  
999L000000215                                                                                                                                                                                         
