000L2021050300000PAYPORT CONSULTING PTY LTD EFT000074607303                                                                                                                                           
010LD237000020201                                                                                                                                                                                     
011LD23763200500000040945448920120210416                                                                                                                                                              
013L5020210415000683632005000000908060754200000008500CRESCENT1 CUS0048121          03092801000683                F ALLY                                                                               
014L0000000010000000000000000090806075420000000000850000000000000000                                                                                                                                  
011LD23763200500000040945448920120210504                                                                                                                                                              
013L5020210502000114250655000006061743232300000150000ARM       1619616642R04       02682502000114                FEDERICO LORENZI                                                                     
013L5020210502000112250655000006235723476400000066000ARM       1619616642R02       02682502000112                MARK KOEKEMOER                                                                       
013L5020210502000116250655000006286127401200000066000ARM       1619616642R06       02682502000116                SAMUEL LEEUW                                                                         
013L5020210502000129470010000001001091496600000066000ARM       1619616642R22       02682502000129                MATTHEW BLUMBERG                                                                     
013L5020210502000071632005000690322004108000000071910NEWYOU    1619616629R19       02683002000071                SUZANNE GREEN                                                                        
014L0000000050000000000000070990668971450000000041991000000000000000                                                                                                                                  
019L0000000060000000000000071081475046870000000042841000000000000000                                                                                                                                  
999L000000014                                                                                                                                                                                         
