000L2021042800000PAYPORT CONSULTING PTY LTD EFT000073907303                                                                                                                                           
010LD237000019701                                                                                                                                                                                     
011LD23763200500000040945448920120210416                                                                                                                                                              
013L5020210415000976632005000000923965852000000008500CRESCENT1 CUS0056251          03092801000976                M GOOLAM HOOSIEN                                                                     
014L0000000010000000000000000092396585200000000000850000000000000000                                                                                                                                  
011LD23763200500000040945448920120210426                                                                                                                                                              
013L5020210424001495632005000000927415780600000008500CRESCENT1 CUS0052541          00292803001495                A NAIDO                                                                              
013L5020210424001102632005000000929073841000000008500CRESCENT1 CUS0049937          00292803001102                S PHOKOJE                                                                            
013L5020210424003645632005000000931319850100000008500CRESCENT1 CUS0056588          00292803003645                S JAINARAIN                                                                          
013L5020210424000896632005000000931435577600000008500CRESCENT1 CUS0059025          00292803000896                M DAVIDS                                                                             
013L5020210424001863632005000000406733696900000008500CRESCENT1 CUS0044525          00292803001863                Z SAYAN WALAA                                                                        
013L5020210424000401632005000000407513137700000008500CRESCENT1 CUS0046503          00292803000401                F ADAMS                                                                              
013L5020210424001553632005000000408653065300000008500CRESCENT1 CUS0057321          00292803001553                I JARDINE                                                                            
013L5020210424001078632005000000409043438000000008500CRESCENT1 CUS0059089          00292803001078                S NCUBE                                                                              
013L5020210424000217632005000000409501695100000008500CRESCENT1 CUS0039658          00292803000217                M ISMAIL                                                                             
013L5020210424000528632005000000409642259300000008500CRESCENT1 CUS0049537          00292803000528                M HENDRICKS                                                                          
013L5020210424002422632005000000409653870600000016000CRESCENT1 CUS0055867          00292803002422                M MAGMOED                                                                            
013L5020210424000431632005000000911367106200000008500CRESCENT1 CUS0051890          00292803000431                W MAHONEY                                                                            
014L0000000120000000000000000749135331840000000010950000000000000000                                                                                                                                  
019L0000000130000000000000000841531917040000000011800000000000000000                                                                                                                                  
999L000000021                                                                                                                                                                                         
