000L2021040200000PAYPORT CONSULTING PTY LTD EFT000069907303                                                                                                                                           
010LD237000017401                                                                                                                                                                                     
011LD23763200500000040945448920120210325                                                                                                                                                              
013L5020210324000856632005000000930258876900000006900CRESCENT1 CUS0058915          03092801000856                S KRIEL                                                                              
014L0000000010000000000000000093025887690000000000690000000000000000                                                                                                                                  
011LD23763200500000040945448920120210326                                                                                                                                                              
013L5020210325003784570105000000112218014700000008500CRESCENT1 CUS0002691          03000000000000                M EBRAHIM                                                                            
013L5020210325002512570105000000003100546900000008500CRESCENT1 CUS0006366          03000000000000                M AHMED                                                                              
013L5020210325003442570105000001390119710000000008500CRESCENT1 CUS0006743          03000000000000                S KHAN                                                                               
013L5020210325000428051001000000005262590700000008500CRESCENT1 CUS0011649          03400000000000                N ABDUL                                                                              
013L5020210325000482632005000000405310775800000008500CRESCENT1 CUS0002814          03492801000482                I MAHOMED                                                                            
014L0000000050000000000000000191601163810000000004250000000000000000                                                                                                                                  
011LD23763200500000040945448920120210331                                                                                                                                                              
013L5020210330001315051001000000003000897200000031000CRESCENT1 CUS0027778          00200000000000                H NKOSI                                                                              
013L5020210330000071470010000000159258334000000008500CRESCENT1 CUS0056871          00200000000000                K GROENEWALD                                                                         
013L5020210330002011470010000000140188162700000008500CRESCENT1 CUS0035809          00200000000000                M CHUPTY                                                                             
013L5020210330000593051001000000040472951700000016000CRESCENT1 CUS0004961          00200000000000                M OSMAN                                                                              
013L5020210330000080051001000001010318161800000008500CRESCENT1 CUS0052510          00200000000000                W SIMONS                                                                             
013L5020210330001792470010000000161355139600000008500CRESCENT1 CUS0059645          00200000000000                Z ERASMUS                                                                            
013L5020210330001534632005000000923365465100000016000CRESCENT1 CUS0021190          00292803001534                A MOHAMED                                                                            
013L5020210330001790051001000000028207184900000008500CRESCENT1 CUS0055675          00400000000000                R VEERASAMY                                                                          
013L5020210330001123051001000000003228499300000008500CRESCENT1 CUS0007149          00200000000000                Z FAREED                                                                             
013L5020210330000146051001000000020379784100000016000CRESCENT1 CUS0031935          00200000000000                M ALLI                                                                               
013L5020210330000556470010000000118290162800000008500CRESCENT1 CUS0032996          03400000000000                A LOUW                                                                               
013L5020210330000889470010000000123974025300000016000CRESCENT1 CUS0048873          00400000000000                A WALKER                                                                             
013L5020210330001796470010000000135372208000000008500CRESCENT1 CUS0035265          00200000000000                F AHMAD                                                                              
013L5020210330000161470010000000159026075700000008500CRESCENT1 CUS0056955          00200000000000                Z KARRIEM                                                                            
013L5020210330001111470010000000159578704400000008500CRESCENT1 CUS0057941          00200000000000                C VAN DALEN                                                                          
013L5020210330001613470010000000146520966000000008500CRESCENT1 CUS0010054          00200000000000                S MIA                                                                                
013L5020210330001450470010000000121874744500000008500CRESCENT1 CUS0054956          00400000000000                H LEWIS                                                                              
013L5020210330002396678910000005101660157700000008500CRESCENT1 CUS0058761          00200000000000                G LOUW                                                                               
013L5020210330000712470010000000160645012100000008500CRESCENT1 CUS0059239          00400000000000                Z PETERSEN                                                                           
013L5020210330002414051001000000001310223000000008500CRESCENT1 CUS0051891          00400000000000                H MUHAMMAD                                                                           
013L5020210330001803051001000000020772486500000008500CRESCENT1 CUS0011101          00400000000000                T ISMAIL                                                                             
013L5020210330002233051001000000003655424300000008500CRESCENT1 CUS0046997          00200000000000                M JEENA                                                                              
013L5020210330001913470010000000145247771800000008500CRESCENT1 CUS0041026          03600000000000                G OSMAN                                                                              
013L5020210330000251470010000000149371369600000016000CRESCENT1 CUS0057160          00200000000000                S PETERSEN                                                                           
013L5020210330000891470010000000137688005700000008500CRESCENT1 CUS0057748          00200000000000                S JACOBS                                                                             
013L5020210330001305470010000000121353539300000008500CRESCENT1 CUS0027766          00200000000000                M MOSES                                                                              
013L5020210330001561470010000000131479526900000008500CRESCENT1 CUS0058236          00200000000000                F DAVIDS                                                                             
013L5020210330000290051001000001004850697200000016000CRESCENT1 CUS0052873          00200000000000                M POVIE                                                                              
013L5020210330000741678910000005100248339900000008500CRESCENT1 CUS0057557          00200000000000                Y MABOTE                                                                             
013L5020210330001630632005000000408906242900000016000CRESCENT1 CUS0055379          00292803001630                N DAVIDS                                                                             
013L5020210330002335462005000000732375130100000008500CRESCENT1 CUS0056622          00200000000000                Y ABDULLAH                                                                           
013L5020210330000679051001000000007001013700000016000CRESCENT1 CUS0048629          00600000000000                M COZYN                                                                              
013L5020210330000510470010000000134038203000000008500CRESCENT1 CUS0053240          00200000000000                J JACOBS                                                                             
013L5020210330001700470010000000130320430200000008500CRESCENT1 CUS0055561          00200000000000                R RATTIM                                                                             
013L5020210330000008470010000000131287009300000025000ABSOLIT   1616938218RMD001    00200000000000                MERVIN DIEDRICKS                                                                     
013L5020210330000190470010000000131380323300000008500CRESCENT1 CUS0052616          00200000000000                A VALENTINE                                                                          
013L5020210330000603470010000000123938567400000008500CRESCENT1 CUS0005019          00200000000000                B OTTO                                                                               
013L5020210330000221470010000000150594123500000008500CRESCENT1 CUS0057081          00200000000000                M JUMAT                                                                              
013L5020210330001722470010000000157262803900000008500CRESCENT1 CUS0059636          00200000000000                I GENEVA                                                                             
013L5020210330000313051001000000002084958300000016000CRESCENT1 CUS0003965          00600000000000                A SAYED                                                                              
013L5020210330001281051001000000027384574800000008500CRESCENT1 CUS0058090          00200000000000                M HENDRICKS                                                                          
013L5020210330002580051001000000024201843200000007500CRESCENT1 CUS0031777          00400000000000                N MOTALA                                                                             
013L5020210330002159051001000000000250966000000016000CRESCENT1 CUS0024071          00600000000000                N SALIE                                                                              
013L5020210330000185051001000000025182447000000016000CRESCENT1 CUS0025220          01200000000000                A HASSAN                                                                             
013L5020210330000710051001000001010741466800000008500CRESCENT1 CUS0053565          01200000000000                M DAVIS                                                                              
013L5020210330000300051001000001008086841800000008500CRESCENT1 CUS0052878          00200000000000                S PILLAY                                                                             
013L5020210330000226632005000000406494029000000008500CRESCENT1 CUS0032135          00292803000226                T PATEL                                                                              
013L5020210330001839470010000000164564129300000008500CRESCENT1 CUS0050085          00200000000000                S BARADIEN                                                                           
013L5020210330000127470010000000165119092300000008500CRESCENT1 CUS0036977          00400000000000                Y SAITH                                                                              
013L5020210330001371678910000005100922806700000008500CRESCENT1 CUS0058118          00200000000000                W LYONS                                                                              
013L5020210330002299470010000000153571243900000015400CRESCENT1 CUS0024434          00200000000000                J DAVIDS                                                                             
013L5020210330002126470010000000153848517400000006900CRESCENT1 CUS0058647          00200000000000                A SOLOMON                                                                            
013L5020210330000622470010000000154676234300000008500CRESCENT1 CUS0059210          00200000000000                A ABRAHAMS                                                                           
013L5020210330001468470010000000140456947000000016000CRESCENT1 CUS0045507          00200000000000                R LEEMAN                                                                             
013L5020210330000859470010000000138368639200000008500CRESCENT1 CUS0048832          00400000000000                I MARTIN                                                                             
013L5020210330000812470010000000121684884800000008500CRESCENT1 CUS0059269          00200000000000                M JACOBS                                                                             
013L5020210330001920051001000000042087832700000008500CRESCENT1 CUS0030369          00400000000000                B OMARJEE                                                                            
013L5020210330002354051001000000042099234000000008500CRESCENT1 CUS0051603          00400000000000                O BUCKUS                                                                             
013L5020210330002054051001000000007292992800000008500CRESCENT1 CUS0050528          00400000000000                F AUGUST                                                                             
013L5020210330000772470010000000113436565700000008500CRESCENT1 CUS0059254          00200000000000                B WILKINSON                                                                          
013L5020210330001619051001000000041058870900000008500CRESCENT1 CUS0049851          00200000000000                Y DAVIDS                                                                             
013L5020210330001850470010000000130524592800000016000CRESCENT1 CUS0055712          00200000000000                A SEPTEMBER                                                                          
013L5020210330001631470010000000140695686200000008500CRESCENT1 CUS0058274          00600000000000                N LIWIN                                                                              
013L5020210330000207470010000000134603917600000008500CRESCENT1 CUS0037228          00200000000000                E ASTRIE                                                                             
013L5020210330000200470010000000136572015000000008500CRESCENT1 CUS0052619          00200000000000                R CHARLES                                                                            
013L5020210330000142470010000000163967427400000008500CRESCENT1 CUS0058996          00200000000000                K MAIN                                                                               
013L5020210330002524632005000000409646715500000008500CRESCENT1 CUS0052285          00292803002524                A MAHRI                                                                              
013L5020210330001402051001000001010864798400000008500CRESCENT1 CUS0059484          00200000000000                T BARDIEN                                                                            
013L5020210330000280051001000001003690558300000008500CRESCENT1 CUS0052837          00200000000000                S DANIELS                                                                            
013L5020210330000070051001000001006613295700000008500CRESCENT1 CUS0052501          00200000000000                M ABRAHAMS                                                                           
013L5020210330000078051001000001012917853300000008500CRESCENT1 CUS0042631          00200000000000                A SONDAY                                                                             
013L5020210330001180470010000000138326604000000008500CRESCENT1 CUS0054633          00200000000000                R MEYER                                                                              
013L5020210330000187470010000000142122942900000008500CRESCENT1 CUS0037171          00200000000000                M MAHOMED                                                                            
013L5020210330000112470010000000129750366800000008500CRESCENT1 CUS0058956          00200000000000                M ISMAIL                                                                             
013L5020210330001930470010000000121006823900000008500CRESCENT1 CUS0035591          00200000000000                M JOOMA                                                                              
013L5020210330001161470010000000116728145200000008500CRESCENT1 CUS0057992          00200000000000                A DAVIDS                                                                             
013L5020210330000018470010000000117918331000000025000ABSOLIT   1616938218RFVN001   00200000000000                FAROUK VAN NIEKERK                                                                   
013L5020210330001352632005000000908364603800000008500CRESCENT1 CUS0059458          00292803001352                R SAMODIEN                                                                           
013L5020210330001070632005000000916000109000000008500CRESCENT1 CUS0054419          00292803001070                F CAJEE                                                                              
013L5020210330000196632005000000934053302300000008500CRESCENT1 CUS0032077          00292803000196                R BENNET                                                                             
013L5020210330001752470010000000169233689200000017000CRESCENT1 CUS0059640          00200000000000                G ALEXANDER                                                                          
013L5020210330001681051001000001009640552800000008500CRESCENT1 CUS0058299          00200000000000                F NORVAL                                                                             
013L5020210330002035051001000000027032580800000008500CRESCENT1 CUS0056165          00600000000000                A WAGGIE                                                                             
013L5020210330001284051001000000002121712200000016000CRESCENT1 CUS0020213          00200000000000                R MALLY                                                                              
013L5020210330001204051001000000007119207700000008500CRESCENT1 CUS0019834          00400000000000                F BOWAS                                                                              
013L5020210330000780051001000000062509961300000008500CRESCENT1 CUS0053653          00200000000000                N BALOYI                                                                             
013L5020210330002116470010000000128029374600000008500CRESCENT1 CUS0058646          00200000000000                L WIESE                                                                              
013L5020210330001350470010000000131027229600000008500CRESCENT1 CUS0054793          00200000000000                A MOOSA                                                                              
013L5020210330002356470010000000132262898800000008500CRESCENT1 CUS0058753          00400000000000                A ACHMAT                                                                             
013L5020210330001741470010000000140159907700000008500CRESCENT1 CUS0058319          00400000000000                M ISAACS                                                                             
013L5020210330001100470010000000155097651400000008500CRESCENT1 CUS0054472          00200000000000                S BEN                                                                                
013L5020210330000131470010000000151116023100000008500CRESCENT1 CUS0056938          00200000000000                L SAMPSON                                                                            
013L5020210330000179470010000000145622843700000008500CRESCENT1 CUS0047989          00400000000000                R VAN NIEKERK                                                                        
013L5020210330002007470010000000137508528800000006900CRESCENT1 CUS0058483          01200000000000                M TOFA                                                                               
013L5020210330001409470010000000119315619800000016000CRESCENT1 CUS0049621          03000000000000                N LENNOX                                                                             
013L5020210330002103051001000000007062017200000008500CRESCENT1 CUS0046756          00200000000000                M SAFI                                                                               
013L5020210330002124051001000000006301327400000008500CRESCENT1 CUS0050906          00200000000000                I JANUARY                                                                            
013L5020210330001770462005000001331529930100000008500CRESCENT1 CUS0055662          00200000000000                M ABBAS                                                                              
013L5020210330001520051001000000013124405100000008500CRESCENT1 CUS0055067          00200000000000                F HENDRICKS                                                                          
013L5020210330002042051001000001004815380800000008500CRESCENT1 CUS0041279          00200000000000                I LATIEF                                                                             
013L5020210330002526470010000000170152915500000008500CRESCENT1 CUS0058878          00200000000000                F BRENNER                                                                            
013L5020210330000349632005000000408769507800000008500CRESCENT1 CUS0048187          00292803000349                F DAVIDS                                                                             
013L5020210330000901470010000000134596338400000016000CRESCENT1 CUS0057761          00200000000000                M ROOS                                                                               
013L5020210330002516470010000000139928533300000016000CRESCENT1 CUS0058875          00200000000000                F SHAIK                                                                              
013L5020210330000402470010000000157425419500000008500CRESCENT1 CUS0059155          00200000000000                M HENDRICKS                                                                          
013L5020210330001690051001000001009487515200000016000CRESCENT1 CUS0055497          00200000000000                G BOOLEY                                                                             
013L5020210330000270051001000000027544652200000008500CRESCENT1 CUS0052822          00200000000000                F MOSES                                                                              
013L5020210330000594051001000000025000627800000016000CRESCENT1 CUS0017151          00200000000000                T EBRAHIM                                                                            
013L5020210330002195051001000001003962260400000008500CRESCENT1 CUS0056510          00200000000000                N MAHABEER                                                                           
013L5020210330000093632005000000406827377600000008500CRESCENT1 CUS0002936          00292803000093                M MALEK MURTUJA                                                                      
013L5020210330000351632005000000408985494500000008500CRESCENT1 CUS0057248          00292803000351                M JAMIE                                                                              
013L5020210330001943470010000000153683675100000007500CRESCENT1 CUS0055966          00200000000000                A CHRISTIANS                                                                         
013L5020210330002236470010000000135867418100000008500CRESCENT1 CUS0058674          00200000000000                F JEFTA                                                                              
013L5020210330001139470010000000136891450900000008500CRESCENT1 CUS0049152          00400000000000                M VALLIE                                                                             
013L5020210330001979051001000000007425741200000008500CRESCENT1 CUS0056014          00200000000000                S CORNELIUS                                                                          
013L5020210330000652462005000000756448130100000008500CRESCENT1 CUS0059216          01200000000000                W DAVIDS                                                                             
013L5020210330002253250655000007456488551300000008500CRESCENT1 CUS0047042          02600000000000                F COMROODIEN                                                                         
013L5020210330002505470010000000129902147400000007500CRESCENT1 CUS0056814          00200000000000                I DE KLERK                                                                           
013L5020210330000994470010000000135103989800000008500CRESCENT1 CUS0018643          00200000000000                M KADER                                                                              
013L5020210330000464632005000000408569038500000008500CRESCENT1 CUS0016718          00292803000464                L MAGNEY                                                                             
013L5020210330001812470010000000168496397200000007500CRESCENT1 CUS0059653          00200000000000                N MOSES                                                                              
013L5020210330001548051001000001005057553600000008500CRESCENT1 CUS0045611          00200000000000                R HARDIEN                                                                            
013L5020210330001895051001000000027215207200000007500CRESCENT1 CUS0041007          00300000000000                T SALIE                                                                              
013L5020210330001132470010000000137705706000000008500CRESCENT1 CUS0059415          00200000000000                R SEDICK                                                                             
013L5020210330002106470010000000157075361800000008500CRESCENT1 CUS0058623          00200000000000                R GAFFOOR                                                                            
013L5020210330001962051001000000062423697800000008500CRESCENT1 CUS0058471          00200000000000                N DUTOIT                                                                             
013L5020210330001691470010000000138466559300000008500CRESCENT1 CUS0058300          00200000000000                M SALIE                                                                              
013L5020210330000880051001000001008244735500000008500CRESCENT1 CUS0053791          00200000000000                M PARKER                                                                             
013L5020210330002466470010000000168073891500000008500CRESCENT1 CUS0058824          00200000000000                A BASARDIEN                                                                          
013L5020210330000181632005000000928077357900000008500CRESCENT1 CUS0056989          00292803000181                I WILLIAMS                                                                           
013L5020210330001610470010000000133316858400000007500CRESCENT1 CUS0055358          00200000000000                S AMOD                                                                               
013L5020210330000930470010000000118969076200000008500CRESCENT1 CUS0053930          03400000000000                I RAYEPEN-ESS                                                                        
013L5020210330001472470010000000123285149100000008500CRESCENT1 CUS0059535          00200000000000                S ABRAHAMS                                                                           
013L5020210330000319470010000000147463867600000016000CRESCENT1 CUS0048178          00200000000000                M ISAACS                                                                             
013L5020210330000310470010000000152817325000000007500CRESCENT1 CUS0052890          00200000000000                S AJOUHAAR                                                                           
013L5020210330000133051001000000020420364300000008500CRESCENT1 CUS0003040          00200000000000                S SALLIE                                                                             
013L5020210330001585051001000000002324403800000008500CRESCENT1 CUS0028861          00200000000000                N EBRAHIM                                                                            
013L5020210330001721051001000001011304890200000008500CRESCENT1 CUS0058315          00200000000000                A BLAAUW                                                                             
013L5020210330001811470010000000166993131300000008500CRESCENT1 CUS0058338          00200000000000                E ANDREWS                                                                            
013L5020210330000850470010000000141023947900000007500CRESCENT1 CUS0053735          00400000000000                M MOHAMED                                                                            
013L5020210330000978051001000000042155529700000008500CRESCENT1 CUS0044615          00200000000000                M DAVIDS                                                                             
013L5020210330001600051001000000007250590700000008500CRESCENT1 CUS0055351          00400000000000                F BARDIEN                                                                            
013L5020210330001191470010000000134087691200000008500CRESCENT1 CUS0058052          00400000000000                I ELY                                                                                
013L5020210330002563470010000000142075013300000008500CRESCENT1 CUS0047741          00200000000000                M ISMAIL                                                                             
013L5020210330001601051001000001012771163300000008500CRESCENT1 CUS0058268          00200000000000                S DAVIDS                                                                             
013L5020210330000162051001000001012709813300000008500CRESCENT1 CUS0059007          00200000000000                A ROURKE                                                                             
013L5020210330000512051001000001012313572700000008500CRESCENT1 CUS0059185          00200000000000                U KAMALDIEN                                                                          
013L5020210330000657051001000001010571982800000013800CRESCENT1 CUS0038453          00200000000000                M MAJIET                                                                             
013L5020210330000588051001000000002288184000000008500CRESCENT1 CUS0043781          00200000000000                R GOVENDER                                                                           
013L5020210330001154051001000000020418233600000008500CRESCENT1 CUS0019675          00400000000000                N OSMAN                                                                              
013L5020210330000281051001000000027212345500000008500CRESCENT1 CUS0057190          01200000000000                L ABDULLAH                                                                           
013L5020210330000722632005000000933415514200000016000CRESCENT1 CUS0059243          00292803000722                F LEVY                                                                               
013L5020210330001711470010000000142024362200000008500CRESCENT1 CUS0058312          00200000000000                Z PARKER                                                                             
013L5020210330002573470010000000141805967400000023500CRESCENT1 CUS0047753          00400000000000                N DAVIDS                                                                             
013L5020210330001339470010000000140226232700000008500CRESCENT1 CUS0049498          00400000000000                R FRANCIS                                                                            
013L5020210330000701470010000000152409062800000008500CRESCENT1 CUS0057504          00400000000000                N BASSIER                                                                            
013L5020210330001592470010000000146584244400000008500CRESCENT1 CUS0059581          00200000000000                R ARENDSE                                                                            
013L5020210330001732470010000000156104080900000008500CRESCENT1 CUS0059637          00600000000000                N WILLIAMS                                                                           
013L5020210330000016470010000000120636597600000025000ABSOLIT   1616938218RNM001    00200000000000                NATHANIEL MORAIS                                                                     
013L5020210330001310470010000000122625556400000008500CRESCENT1 CUS0054778          00200000000000                L XULU                                                                               
013L5020210330002115470010000000132901899900000008500CRESCENT1 CUS0056292          00600000000000                A HAYWOOD                                                                            
013L5020210330000541470010000000113014848100000007500CRESCENT1 CUS0057415          00200000000000                R SALIE                                                                              
013L5020210330000323051001000000062513055300000016000CRESCENT1 CUS0003976          00200000000000                R GANGAT                                                                             
013L5020210330001872470010000000143627832300000008500CRESCENT1 CUS0059668          00200000000000                T JULIES                                                                             
013L5020210330002293470010000000141024465000000008500CRESCENT1 CUS0047177          00200000000000                Z RHODE                                                                              
013L5020210330001887470010000000137194009400000008500CRESCENT1 CUS0046339          00400000000000                M MINNIE                                                                             
013L5020210330000860470010000000136264278700000008500CRESCENT1 CUS0053763          00200000000000                A MONYAKI                                                                            
013L5020210330002366470010000000170027716000000008500CRESCENT1 CUS0058754          00400000000000                D PILLAY                                                                             
013L5020210330001252632005000000409641236200000008500CRESCENT1 CUS0059435          00292803001252                Y JANSON                                                                             
013L5020210330000449051001000000001238600600000007500CRESCENT1 CUS0048315          00200000000000                M MOHAMED                                                                            
013L5020210330001980051001000001011722140400000008500CRESCENT1 CUS0058474          00200000000000                A PETERSEN                                                                           
013L5020210330000989051001000001004698420600000008500CRESCENT1 CUS0048982          01200000000000                I HOFFAH                                                                             
013L5020210330001648051001000001001317900200000007500CRESCENT1 CUS0045745          00200000000000                K DEVAJEE                                                                            
013L5020210330000639051001000001007577797300000008500CRESCENT1 CUS0048575          00400000000000                R DANIELS                                                                            
013L5020210330002006051001000001011891639200000008500CRESCENT1 CUS0056124          00200000000000                S HASSANGY                                                                           
013L5020210330001917470010000000160400819700000008500CRESCENT1 CUS0058395          00200000000000                A DAMONS                                                                             
013L5020210330000260470010000000138365921200000008500CRESCENT1 CUS0052820          00200000000000                T BOOYSEN                                                                            
013L5020210330001140470010000000141212885200000008500CRESCENT1 CUS0054584          03000000000000                D EBRAHIM                                                                            
013L5020210330000217051001000000035435887100000008500CRESCENT1 CUS0037236          00400000000000                F BUCCAS                                                                             
013L5020210330001671470010000000131798787800000008500CRESCENT1 CUS0058298          03400000000000                M SHADE                                                                              
013L5020210330001190470010000000122632909600000008500CRESCENT1 CUS0054637          00200000000000                F SALIE                                                                              
013L5020210330001560470010000000125999853100000016000CRESCENT1 CUS0055252          00200000000000                A CAMROODIEN                                                                         
013L5020210330001198462005000000860346430100000008500CRESCENT1 CUS0044939          00200000000000                S YOUNGER                                                                            
013L5020210330000980470010000000144923462100000008500CRESCENT1 CUS0054177          00200000000000                S ROBERTS                                                                            
013L5020210330000459632005000000409175427800000008500CRESCENT1 CUS0048323          00292803000459                G STERRIS                                                                            
013L5020210330001813051001000000001238600600000008500CRESCENT1 CUS0011106          00200000000000                B MOHAMED                                                                            
013L5020210330001983051001000000023364370200000008500CRESCENT1 CUS0030470          00200000000000                N NBEWE                                                                              
013L5020210330000342632005000000409043438000000008500CRESCENT1 CUS0059089          00292803000342                S NCUBE                                                                              
013L5020210330001800632005000000055815994400000008500CRESCENT1 CUS0055690          00292803001800                G NINUS                                                                              
013L5020210330000771470010000000153203573800000008500CRESCENT1 CUS0057643          00400000000000                J ABDURAGHMAN                                                                        
013L5020210330000129462005000000806028230100000008500CRESCENT1 CUS0047950          00200000000000                M SLAMANG                                                                            
013L5020210330000680470010000000114873822100000016000CRESCENT1 CUS0053557          00200000000000                I ANDRADE                                                                            
013L5020210330002510051001000000003898828300000008500CRESCENT1 CUS0031663          00600000000000                N ALLY                                                                               
013L5020210330000248051001000000000674859700000016000CRESCENT1 CUS0043052          00200000000000                F BEGG                                                                               
013L5020210330002556470010000000121300443600000008500CRESCENT1 CUS0058907          00200000000000                N PARELSE                                                                            
013L5020210330002504470010000000134150674400000016000CRESCENT1 CUS0052256          03000000000000                I XABA                                                                               
013L5020210330001591470010000000158559433200000017000CRESCENT1 CUS0058259          00200000000000                E MARTIN                                                                             
013L5020210330002026470010000000149913312800000008500CRESCENT1 CUS0058492          00200000000000                F DE JAGER                                                                           
013L5020210330000471470010000000161339970500000008500CRESCENT1 CUS0057336          00200000000000                T ADAMS                                                                              
013L5020210330000662470010000000170553341600000008500CRESCENT1 CUS0059219          00400000000000                F EBRAHIEM                                                                           
013L5020210330002196632005000000935291226500000008500CRESCENT1 CUS0058658          03092801002196                G GASNODIEN                                                                          
013L5020210330002314051001000000027710253700000008500CRESCENT1 CUS0051524          00400000000000                M JABAAR                                                                             
013L5020210330000703051001000000020775475600000016000CRESCENT1 CUS0005438          00400000000000                M SAIYAD                                                                             
013L5020210330001857051001000000000210828300000008500CRESCENT1 CUS0040908          00400000000000                N AMIN                                                                               
013L5020210330000840051001000000027776124700000006900CRESCENT1 CUS0053733          00200000000000                A MOSES                                                                              
013L5020210330001288051001000000033275302600000008500CRESCENT1 CUS0045104          00200000000000                J TAM WING YNB                                                                       
013L5020210330001645051001000000000348075500000038500CRESCENT1 CUS0029097          00200000000000                A ALLIE                                                                              
013L5020210330002425051001000001006417225000000008500CRESCENT1 CUS0056755          00200000000000                R PETERSEN                                                                           
013L5020210330002533051001000001000934832600000008500CRESCENT1 CUS0047669          00200000000000                M ISAACS                                                                             
013L5020210330000744632005000000405773454300000008500CRESCENT1 CUS0017714          00292803000744                R SEEDAT                                                                             
013L5020210330000862470010000000150696387900000008500CRESCENT1 CUS0059310          00200000000000                N THWALA                                                                             
013L5020210330000371470010000000158681551000000008500CRESCENT1 CUS0057264          00200000000000                S LEPERE GABIER                                                                      
013L5020210330000962470010000000160143172200000008500CRESCENT1 CUS0059359          00200000000000                G HANSEN                                                                             
013L5020210330001262470010000000160347584000000008500CRESCENT1 CUS0059436          00400000000000                S MADATT                                                                             
013L5020210330000462470010000000138131509500000008500CRESCENT1 CUS0059175          00200000000000                A TAQODIEN                                                                           
013L5020210330000781470010000000136114514300000008500CRESCENT1 CUS0057670          00600000000000                S ADAMS                                                                              
013L5020210330000439051001000000007258803900000016000CRESCENT1 CUS0048311          01800000000000                F ASOUHAAR EBRAHIM                                                                   
013L5020210330001311470010000000122589260900000006900CRESCENT1 CUS0058104          00200000000000                I MIA                                                                                
013L5020210330001647470010000000143245182900000008500CRESCENT1 CUS0040648          00200000000000                A BELLIM                                                                             
013L5020210330000540470010000000148564733700000008500CRESCENT1 CUS0053264          00200000000000                K ABRAHAMS                                                                           
013L5020210330001531470010000000146097904200000008500CRESCENT1 CUS0058227          00200000000000                M ROBERTS                                                                            
013L5020210330000229678910000005300004949800000016000CRESCENT1 CUS0048051          00200000000000                A KEOWN                                                                              
013L5020210330001412051001000001013656569500000008500CRESCENT1 CUS0059486          00200000000000                Z KHAN                                                                               
013L5020210330000235051001000000020481150300000016000CRESCENT1 CUS0025312          00400000000000                A HENDRICKS                                                                          
013L5020210330002587051001000000020379001400000029400CRESCENT1 CUS0002844          00200000000000                A JOSEPH                                                                             
014L0000002250000000000000008825372611290000000228720000000000000000                                                                                                                                  
019L0000002310000000000000009109999662790000000233660000000000000000                                                                                                                                  
999L000000241                                                                                                                                                                                         
