000L2020123100000PAYPORT CONSULTING PTY LTD    000056507303                                                                                                                                           
900L000 TRANSMISSION 07303-0000040 ACCEPTED                                                                                                                                                           
900L001 ACB USER SET D237-0000044-000076 ACCEPTED                                                                                                                                                     
903L001L5063200504094544892D23700000163200504085962017200000025000201231440   ABSOLIT   1609163107RSVD001   STANTON VAN DER MERWE         00000000000000000000                21                      
903L001L5063200504094544892D23700000219876501003749348100000025000201231440   ABSOLIT   1609163107RKG001    KURT GENEAPRIL                00000000000000000000                21                      
903L001L5063200504094544892D23700000347001001731108093200000025000201231440   ABSOLIT   1609163107RDC001    DAVID CROSS                   00000000000000000000                21                      
903L001L5063200504094544892D23700000425065562383653196200000025000201231440   ABSOLIT   1609163107RMF001    MARLON FRANKLIN               00000000000000000000                21                      
903L001L5063200504094544892D23700000525065562768338933200000037500201231440   ABSOLIT   1609163107ORA001    ROSCOE ALEXANDER              00000000000000000000                21                      
903L001L5063200504094544892D23700000647001001301557763200000037500201231440   ABSOLIT   1609163107OIR001    INGER ROSKIN                  00000000000000000000                21                      
903L001L5063200504094544892D23700000725065562706841097200000050000201231440   ABSOLIT   1609163107OLK001    LASHA KRUGER                  00000000000000000000                21                      
903L001L5063200504094544892D23700000805100100202722910200000050000201231440   ABSOLIT   1609163107OYS001    YAYAH SNYMAN                  00000000000000000000                21                      
903L001L5063200504094544892D23700000905100100420992227200000090000201231440   ABSOLIT   1609163107ODB001    DARRYL BLAAUW                 00000000000000000000                21                      
903L001L5063200504094544892D23700001019876501167940219200000075000201231440   ABSOLIT   1609163107OTS001    TAHIRA SMITH                  00000000000000000000                21                      
903L001L5063200504094544892D23700001125065562747449616200000025000201231440   ABSOLIT   1609163107RSH001    SAAJIDAH HUSSAIN              00000000000000000000                21                      
903L001L5063200504094544892D23700001225065562142684358100000025000201231440   ABSOLIT   1609163107RTO001    TAHIR OGLE                    00000000000000000000                21                      
903L001L5063200504094544892D23700001305100110038389515200000025000201231440   ABSOLIT   1609163107RKK001    KERWIN KISTAN                 00000000000000000000                21                      
903L001L5063200504094544892D23700001425065562172522825200000025000201231440   ABSOLIT   1609163107RAMR001   ABDUL RASDIEN                 00000000000000000000                21                      
903L001L5063200504094544892D23700001547001001663025035200000025000201231440   ABSOLIT   1609163107RRK001    RIYAD KARRIEM                 00000000000000000000                21                      
903L001L5063200504094544892D23700001647001001312870093200000025000201231440   ABSOLIT   1609163107RMD001    MERVIN DIEDRICKS              00000000000000000000                21                      
903L001L5063200504094544892D23700001747001001378198504200000025000201231440   ABSOLIT   1609163107RFS001    FARHANA SNYMAN                00000000000000000000                21                      
903L001L5063200504094544892D23700001825065562191603705100000050000201231440   ABSOLIT   1609163107RKB001    KAYLEEN BOAS                  00000000000000000000                21                      
903L001L5063200504094544892D23700001963200504080737742100000025000201231440   ABSOLIT   1609163107RSS001    SIRAAJ SAPTOE                 00000000000000000000                21                      
903L001L5063200504094544892D23700002025065559259005874100000025000201231440   ABSOLIT   1609163107RFA001    FAGMEEDA ADAMS                00000000000000000000                21                      
903L001L5063200504094544892D23700002147001001440463342200000025000201231440   ABSOLIT   1609163107REW001    ELIZABETH WOLHUTER            00000000000000000000                21                      
903L001L5063200504094544892D23700002247001001389093962200000025000201231440   ABSOLIT   1609163107RLS001    LIANNE STAINBANK              00000000000000000000                21                      
903L001L5063200504094544892D23700002325065562234236645100000025000201231440   ABSOLIT   1609163107RPM001    PENELOPE MASONTE              00000000000000000000                21                      
903L001L5063200504094544892D23700002447001001206365976200000025000201231440   ABSOLIT   1609163107RNM001    NATHANIEL MORAIS              00000000000000000000                21                      
903L001L5063200504094544892D23700002547001001331943440200000025000201231440   ABSOLIT   1609163107RDP001    DANIELLE PETERSEN             00000000000000000000                21                      
903L001L5063200504094544892D23700002647001001179183310200000025000201231440   ABSOLIT   1609163107RFVN001   FAROUK VAN NIEKERK            00000000000000000000                21                      
903L001L5063200504094544892D23700002725065562060557562200000025000201231440   ABSOLIT   1609163107RJD001    JENIVIEF DAVIS                00000000000000000000                21                      
903L001L5063200504094544892D23700002847001001360825213200000025000201231440   ABSOLIT   1609163107RJF001    JUSTIN FLORENCE               00000000000000000000                21                      
903L001L5063200504094544892D23700002925065562494900791200000025000201231440   ABSOLIT   1609163107RJT001    JUDE THOMAS                   00000000000000000000                21                      
903L001L5063200504094544892D23700003025065562345404727200000025000201231440   ABSOLIT   1609163107RRG001    REGINALD GLADE                00000000000000000000                21                      
903L001L5063200504094544892D23700003125065562036767880200000025000201231440   ABSOLIT   1609163107RJS001    JANINE SOLOMON                00000000000000000000                21                      
903L001L5063200504094544892D23700003225065562448960212200000025000201231440   ABSOLIT   1609163107RCG001    CANDICE GRAHAM                00000000000000000000                21                      
903L001L5063200504094544892D23700003325065562310371216200000025000201231440   ABSOLIT   1609163107RBM001    BRENT MORDAUNT                00000000000000000000                21                      
903L001L5063200504094544892D23700003447001001385989244200000025000201231440   ABSOLIT   1609163107RMS001    MELANIE SCHEEPERS             00000000000000000000                21                      
903L001L5063200504094544892D23700003519876501011494736100000025000201231440   ABSOLIT   1609163107RPB001    PETUNIA BOTHA                 00000000000000000000                21                      
903L001L5063200504094544892D23700003625065562014416970100000025000201231440   ABSOLIT   1609163107RMM001    MARY MAXES                    00000000000000000000                21                      
903L001L5063200504094544892D23700003747001001526364296200000025000201231440   ABSOLIT   1609163107RRR001    RAYLENE RYAN                  00000000000000000000                21                      
903L001L5063200504094544892D23700003847001001527256500200000025000201231440   ABSOLIT   1609163107RHP001    HELENE PETERS                 00000000000000000000                21                      
903L001L5063200504094544892D23700003925065562504261504200000025000201231440   ABSOLIT   1609163107RBJ001    BERENICE JOHANNESSEN          00000000000000000000                21                      
903L001L5063200504094544892D23700004025065562217080085100000025000201231440   ABSOLIT   1609163107RCS001    CLAYTON SCHOLTZ               00000000000000000000                21                      
903L001L5063200504094544892D23700004125065562239728150200000025000201231440   ABSOLIT   1609163107RDF001    DARRYL FRANCKE                00000000000000000000                21                      
903L001L5063200504094544892D23700004225065562341272590200000025000201231440   ABSOLIT   1609163107RLP001    LLEWELLYN PALMER              00000000000000000000                21                      
903L001L5063200504094544892D23700004305100110131202918100000025000201231440   ABSOLIT   1609163107RSD001    SHIRLEY DUNN                  00000000000000000000                21                      
903L001L5063200504094544892D23700004405100100411433377100000025000201231440   ABSOLIT   1609163107RET001    EULANDE THOMPSON              00000000000000000000                21                      
903L001L5063200504094544892D23700004547001001185583459200000025000201231440   ABSOLIT   1609163107RPW001    PRICILLA WARREN               00000000000000000000                21                      
903L001L5063200504094544892D23700004619876501206693371100000025000201231440   ABSOLIT   1609163107RUP001    URIEL PETERSEN                00000000000000000000                21                      
903L001L5063200504094544892D23700004725065562036441187200000025000201231440   ABSOLIT   1609163107RMS002    MARY SAMSON                   00000000000000000000                21                      
903L001L5063200504094544892D23700004825065562747449616200000025000201231440   ABSOLIT   1609163107RSH0001   SAAJIDAH HUSSAIN              00000000000000000000                21                      
903L001L5063200504094544892D23700004925065562142684358100000025000201231440   ABSOLIT   1609163107RTO0001   TAHIR OGLE                    00000000000000000000                21                      
903L001L5063200504094544892D23700005025065562768338933200000037500201231440   ABSOLIT   1609163107ORLA001   ROSCOE ALEXANDER              00000000000000000000                21                      
903L001L5063200504094544892D23700005147001001301557763200000037500201231440   ABSOLIT   1609163107OINGERR001INGER ROSKIN                  00000000000000000000                21                      
903L001L5063200504094544892D23700005219876501979279454100000025000201231440   ABSOLIT   1609163107RRA002    RODNEY ADONIS                 00000000000000000000                21                      
903L001L5063200504094544892D23700005325065562053155159100000025000201231440   ABSOLIT   1609163107RCD001    CARMEN DAVIS                  00000000000000000000                21                      
903L001L5063200504094544892D23700005419876501191824918100000025000201231440   ABSOLIT   1609163107RPL001    PETER LOBAY                   00000000000000000000                21                      
903L001L5063200504094544892D23700005525065550329011585100000025000201231440   ABSOLIT   1609163107RVG001    VICTOR GOODALL                00000000000000000000                21                      
903L001L5063200504094544892D23700005619876501205026703100000025000201231440   ABSOLIT   1609163107RBVW001   BLAINE VAN WYK                00000000000000000000                21                      
903L001L5063200504094544892D23700005725065562706841097200000050000201231440   ABSOLIT   1609163107OLAK001   LASHA KRUGER                  00000000000000000000                21                      
903L001L5063200504094544892D23700005863200504091239785200000025000201231440   ABSOLIT   1609163107RMAM001   MARTHA MILLER                 00000000000000000000                21                      
903L001L5063200504094544892D23700005925065562592989580100000025000201231440   ABSOLIT   1609163107RCB001    CRYSANNE BAYNES               00000000000000000000                21                      
903L001L5063200504094544892D23700006025065562191603705200000025000201231440   ABSOLIT   1609163107RRAEESK001RAEES KAMAAR                  00000000000000000000                21                      
903L001L5063200504094544892D23700006125065562348758618100000025000201231440   ABSOLIT   1609163107RPS001    PRASHANT SINGH                00000000000000000000                21                      
903L001L5063200504094544892D23700006225065550460076034100000025000201231440   ABSOLIT   1609163107RMR001    MARK ROUSSEAU                 00000000000000000000                21                      
903L001L5063200504094544892D23700006325065562523827345100000025000201231440   ABSOLIT   1609163107RAP001    ADAM PAULSEN                  00000000000000000000                21                      
903L001L5063200504094544892D23700006405100100202722910200000050000201231440   ABSOLIT   1609163107OMYS001   YAYAH SNYMAN                  00000000000000000000                21                      
903L001L5063200504094544892D23700006525065562071653771200000025000201231440   ABSOLIT   1609163107RMD0001   MORGAN DAVIS                  00000000000000000000                21                      
903L001L5063200504094544892D23700006605100100420992227200000090000201231440   ABSOLIT   1609163108ODB0001   DARRYL BLAAUW                 00000000000000000000                21                      
903L001L5063200504094544892D23700006705100100420992227200000090000201231440   ABSOLIT   1609163108ODB002    DARRYL BLAAUW                 00000000000000000000                21                      
903L001L5063200504094544892D23700006825065555610018729200000025000201231440   ABSOLIT   1609163108RLP0001   LANCE PINTO                   00000000000000000000                21                      
903L001L5063200504094544892D23700006925065562306654816200000025000201231440   ABSOLIT   1609163108RDC0001   DANE COOKE                    00000000000000000000                21                      
903L001L5063200504094544892D23700007019876501167940219200000075000201231440   ABSOLIT   1609163108OTS0001   TAHIRA SMITH                  00000000000000000000                21                      
903L001L5063200504094544892D23700007119876501167940219200000075000201231440   ABSOLIT   1609163108OTS0002   TAHIRA SMITH                  00000000000000000000                21                      
903L001L5063200504094544892D23700007219876501167940219200000075000201231440   ABSOLIT   1609163108OTS0003   TAHIRA SMITH                  00000000000000000000                21                      
903L001L5063200504094544892D23700007305100100002558874200000025000201231440   ABSOLIT   1609163108RAS001    ADRIAAN STARKEY               00000000000000000000                21                      
903L001L5063200504094544892D23700007405100100005061849200000025000201231440   ABSOLIT   1609163108RJB001    JAYNUB BROWN                  00000000000000000000                21                      
903L001L5063200504094544892D23700007505100100009117393100000025000201231440   ABSOLIT   1609163108RZL001    ZUNAIDE LOONAT                00000000000000000000                21                      
903L001L5263200504094544892D23700007663200504094544892100002445000201231100000ABSOLIT   CONTRA8CBB26G2TPU7UW                                                                                          
901L001 D237/0000044/000002 00080-*** WARNING ONLY - ACCOUNT TYPE CHANGE - 2 TO 1 ***                                                                                                                 
901L001 D237/0000044/000010 00035-*** WARNING ONLY *** ACCOUNT TYPE INVALID ***                                                                                                                       
901L001 D237/0000044/000011 00035-*** WARNING ONLY *** ACCOUNT TYPE INVALID ***                                                                                                                       
901L001 D237/0000044/000035 00080-*** WARNING ONLY - ACCOUNT TYPE CHANGE - 2 TO 1 ***                                                                                                                 
901L001 D237/0000044/000045 00034-*** WARNING ONLY *** HOMING ACCOUNT INVALID ***                                                                                                                     
901L001 D237/0000044/000046 00080-*** WARNING ONLY - ACCOUNT TYPE CHANGE - 2 TO 1 ***                                                                                                                 
901L001 D237/0000044/000048 00035-*** WARNING ONLY *** ACCOUNT TYPE INVALID ***                                                                                                                       
901L001 D237/0000044/000070 00035-*** WARNING ONLY *** ACCOUNT TYPE INVALID ***                                                                                                                       
901L001 D237/0000044/000071 00035-*** WARNING ONLY *** ACCOUNT TYPE INVALID ***                                                                                                                       
901L001 D237/0000044/000072 00035-*** WARNING ONLY *** ACCOUNT TYPE INVALID ***                                                                                                                       
999L000000090                                                                                                                                                                                         
