000L2021020700000PAYPORT CONSULTING PTY LTD EFT000062107303                                                                                                                                           
010LD237000011008                                                                                                                                                                                     
011LD23763200500000040945448920120210127                                                                                                                                                              
013L5020210127002957580105000001001140826400000008500CRESCENT1 CUS0018278          03000000000000                E MOOSA                                                                              
014L0000000010000000000000000100114082640000000000850000000000000000                                                                                                                                  
019L0000000010000000000000000100114082640000000000850000000000000000                                                                                                                                  
999L000000007                                                                                                                                                                                         
