000L2021010700000PAYPORT CONSULTING PTY LTD EFT000057607303                                                                                                                                           
010LD237000007201                                                                                                                                                                                     
011LD23763200500000040945448920120201219                                                                                                                                                              
013L5020201218000328470010000000122632909600000008500CRESCENT1 CUS0054637          03200000000000                F SALIE                                                                              
014L0000000010000000000000000012263290960000000000850000000000000000                                                                                                                                  
019L0000000010000000000000000012263290960000000000850000000000000000                                                                                                                                  
999L000000007                                                                                                                                                                                         
