000L2021051300000PAYPORT CONSULTING PTY LTD EFT000076107303                                                                                                                                           
010LD237000021101                                                                                                                                                                                     
011LD23763200500000040945448920120210426                                                                                                                                                              
013L5020210424002705470010000000154383392400000008500CRESCENT1 CUS0051176          03000000000000                Z COOK                                                                               
013L5020210424001634470010000000139362877800000008500CRESCENT1 CUS0050482          03000000000000                M MATLAKALA                                                                          
013L5020210424001957470010000000121693382900000016000CRESCENT1 CUS0055643          03200000000000                A HARTZENBERG NETT                                                                   
013L5020210424000782462005000000264653600100000008500CRESCENT1 CUS0054814          03000000000000                M BAKER                                                                              
013L5020210424002313470010000000121558979200000008500CRESCENT1 CUS0044834          03000000000000                V HARRY                                                                              
014L0000000050000000000000000080165223240000000005000000000000000000                                                                                                                                  
011LD23763200500000040945448920120210430                                                                                                                                                              
013L5020210429000053198765000000101149473600000025000ABSOLIT   1619530230RPB001    03000000000000                PETUNIA BOTHA                                                                        
013L5020210429001245470010000000144787602200000008500CRESCENT1 CUS0055703          03600000000000                A BEUKUS                                                                             
013L5020210429000011252805000006205315515900000025000ABSOLIT   1619530230RCD001    03000000000000                CARMEN DAVIS                                                                         
014L0000000030000000000000000645125259170000000005850000000000000000                                                                                                                                  
019L0000000080000000000000000725290482410000000010850000000000000000                                                                                                                                  
999L000000016                                                                                                                                                                                         
