000L2021040100000PAYPORT CONSULTING PTY LTD EFT000069807303                                                                                                                                           
010LD237000017301                                                                                                                                                                                     
011LD23763200500000040945448920120210227                                                                                                                                                              
013L5020210226001813204709000006202607511000000008500CRESCENT1 CUS0058392          03000000000000                I MULDER                                                                             
014L0000000010000000000000000620260751100000000000850000000000000000                                                                                                                                  
011LD23763200500000040945448920120210320                                                                                                                                                              
013L5020210319000184051001000000000934626000000008500CRESCENT1 CUS0019643          03400000000000                R MOOIDEEN                                                                           
014L0000000010000000000000000000093462600000000000850000000000000000                                                                                                                                  
011LD23763200500000040945448920120210326                                                                                                                                                              
013L5020210325002243198765000000193906768500000038500CRESCENT1 CUS0007778          03000000000000                I KHAN                                                                               
014L0000000010000000000000000019390676850000000003850000000000000000                                                                                                                                  
011LD23763200500000040945448920120210331                                                                                                                                                              
013L5020210330000058632005000000924539399400000008500CRESCENT1 CUS0042569          00200016000058                I SALEH                                                                              
013L5020210330000341632005000000934716316000000008500CRESCENT1 CUS0057240          00200016000341                S HERBERT                                                                            
013L5020210330000381632005000000409055852800000008500CRESCENT1 CUS0057271          00492802000381                S CHARLES                                                                            
013L5020210330000572632005000000409784700100000008500CRESCENT1 CUS0059202          00300000000572                A BUSCH                                                                              
013L5020210330002121632005000000404794781700000016000CRESCENT1 CUS0036031          00492802002121                A HARTLEY                                                                            
013L5020210330000856632005000000405273960300000008500CRESCENT1 CUS0033490          90300000000856                Z CHRISTIAN                                                                          
013L5020210330002555632005000005301456356400000008500CRESCENT1 CUS0056847          00200016002555                R VANDERSART                                                                         
013L5020210330001401632005000000930354862900000006900CRESCENT1 CUS0058130          00200016001401                F SALIE                                                                              
013L5020210330001532632005000000933203208900000008500CRESCENT1 CUS0059561          00200016001532                R DAVIS                                                                              
013L5020210330000440632005000000408788313200000008500CRESCENT1 CUS0053188          01200000000440                A MOOSA                                                                              
013L5020210330002273632005000000406737835300000008500CRESCENT1 CUS0047067          00300000002273                S JADWAT                                                                             
013L5020210330001877632005000000408661292800000008500CRESCENT1 CUS0040963          90300000001877                I MOOSA                                                                              
013L5020210330001618580105000001001163485900000008500CRESCENT1 CUS0045674          01200000000000                N ADAM                                                                               
013L5020210330000054632005000000905359627300000008500CRESCENT1 CUS0015291          00200016000054                N HOOSEN                                                                             
013L5020210330001462632005000000920031503400000006900CRESCENT1 CUS0059534          00300040001462                I SONDAY                                                                             
013L5020210330000230632005000000929306239900000008500CRESCENT1 CUS0052642          00492802000230                L SAMPSON                                                                            
013L5020210330000215632005000000929767930800000008500CRESCENT1 CUS0025266          00200016000215                B GOONDIE                                                                            
013L5020210330001250632005000000936193146600000008500CRESCENT1 CUS0054697          00200016001250                E GAMIET                                                                             
013L5020210330001000632005000000408034279700000008500CRESCENT1 CUS0054224          00300000001000                O SOLOMONS                                                                           
013L5020210330001351632005000000920897821800000008500CRESCENT1 CUS0058116          00200016001351                Z EDRIES                                                                             
013L5020210330001440632005000000930484382000000008500CRESCENT1 CUS0054954          00200016001440                H WILLIAMS                                                                           
013L5020210330001540632005000000931333980400000008500CRESCENT1 CUS0055159          00300000001540                F BAATJIES                                                                           
013L5020210330001195632005000000920601414300000016000CRESCENT1 CUS0027300          00300000001195                R THEYS                                                                              
013L5020210330001860632005000000908816156800000008500CRESCENT1 CUS0055737          00200016001860                T TOFIE                                                                              
013L5020210330001041632005000000409902677000000008500CRESCENT1 CUS0057911          01200000001041                A RYLANDS                                                                            
013L5020210330002089632005000000906536239900000008500CRESCENT1 CUS0023676          00200016002089                F HASSIM                                                                             
013L5020210330000745632005000000407817669900000016000CRESCENT1 CUS0026481          90300000000745                N VADI                                                                               
013L5020210330000647632005000000921062929700000008500CRESCENT1 CUS0038424          00492802000647                U YUNUS                                                                              
013L5020210330000199632005000000408305943000000008500CRESCENT1 CUS0048042          90300000000199                R WILLIAMS                                                                           
013L5020210330001582632005000000935980425100000008500CRESCENT1 CUS0059574          00200016001582                R TALIEP                                                                             
013L5020210330002445632005000000921390764600000008500CRESCENT1 CUS0056781          00200016002445                A VAN DYCK                                                                           
013L5020210330000257632005000000912979530100000008500CRESCENT1 CUS0037369          00200016000257                A DAVIDS                                                                             
013L5020210330000783632005000000902003678800000008500CRESCENT1 CUS0005805          00492802000783                F DOMINGO                                                                            
013L5020210330000550632005000000928514949800000008500CRESCENT1 CUS0053287          00200016000550                Y BUNTING                                                                            
013L5020210330000192632005000000929980862400000008500CRESCENT1 CUS0059027          00300040000192                H HEBERT                                                                             
013L5020210330000690632005000000911926373400000008500CRESCENT1 CUS0053558          00200016000690                T DE VILLIERS                                                                        
013L5020210330001473632005000000407352949100000008500CRESCENT1 CUS0009056          01200000001473                S KHAN                                                                               
013L5020210330002031632005000000905194550300000008500CRESCENT1 CUS0035812          01800004002031                R KHAN                                                                               
013L5020210330001105632005000000405828551100000007500CRESCENT1 CUS0027039          01200000001105                Z BHAROOCHI                                                                          
013L5020210330000410632005000000930252399900000008500CRESCENT1 CUS0053144          00300000000410                A AFZAL                                                                              
013L5020210330000656632005000000920979646300000016000CRESCENT1 CUS0033149          00200016000656                A ABRAMS                                                                             
014L0000000410000000000000003558536698910000000037430000000000000000                                                                                                                                  
011LD23763200500000040945448920120210401                                                                                                                                                              
013L5020210331000067632005000690322004108000000071910NEWYOU    1617024629R19       02683002000067                SUZANNE GREEN                                                                        
014L0000000010000000000000069032200410800000000007191000000000000000                                                                                                                                  
019L0000000450000000000000073230482000260000000050171000000000000000                                                                                                                                  
999L000000059                                                                                                                                                                                         
