000L2021030900000PAYPORT CONSULTING PTY LTD EFT000066507303                                                                                                                                           
010LD237000015101                                                                                                                                                                                     
011LD23763200500000040945448920120210225                                                                                                                                                              
013L5020210224000767051001000000000905896600000008500CRESCENT1 CUS0055033          03000000000000                A GOOLAM                                                                             
013L5020210224000632051001000001006216407200000016000CRESCENT1 CUS0053570          03000000000000                N MOHAMED                                                                            
014L0000000020000000000000000100712230380000000002450000000000000000                                                                                                                                  
011LD23763200500000040945448920120210227                                                                                                                                                              
013L5020210226000188470010000000121693382900000016000CRESCENT1 CUS0055643          03200000000000                A HARTZENBERG NETT                                                                   
013L5020210226000665470010000000143251721800000008500CRESCENT1 CUS0059354          03400000000000                M FRANCIS                                                                            
013L5020210226001139051001000000028091247100000023500CRESCENT1 CUS0026073          03200000000000                F MAMATT                                                                             
013L5020210226006075632005000000928171873400000017000CRESCENT1 CUS0052713          03492801006075                M JEFFIRIES                                                                          
013L5020210226004173632005000000408397697300000016000CRESCENT1 CUS0047275          03092801004173                D KAFAAR                                                                             
013L5020210226000085470010000000121647085300000008500CRESCENT1 CUS0048388          03400000000000                B VOLKER                                                                             
013L5020210226000014470010000000132253362600000016000CRESCENT1 CUS0057331          03200000000000                N MENEER                                                                             
014L0000000070000000000000000188350637040000000010550000000000000000                                                                                                                                  
019L0000000090000000000000000289062867420000000013000000000000000000                                                                                                                                  
010LD237000015208                                                                                                                                                                                     
011LD23763200500000040945448920120210127                                                                                                                                                              
013L5020210127000123470010000000121647085300000008500CRESCENT1 CUS0048388          03400000000000                B VOLKER                                                                             
013L5020210127000398470010000000121693382900000016000CRESCENT1 CUS0055643          03200000000000                A HARTZENBERG NETT                                                                   
014L0000000020000000000000000024334046820000000002450000000000000000                                                                                                                                  
019L0000000020000000000000000024334046820000000002450000000000000000                                                                                                                                  
999L000000023                                                                                                                                                                                         
