000L2020123100000PAYPORT CONSULTING PTY LTD EFT000056407303                                                                                                                                           
010LD237000006401                                                                                                                                                                                     
011LD23763200500000040945448920120201219                                                                                                                                                              
013L5020201218002137470010000000149709020000000008500CRESCENT1 CUS0057479          03200000000000                F PETERSEN                                                                           
013L5020201218001457051001000000042112876300000008500CRESCENT1 CUS0046787          03200000000000                K MANUEL                                                                             
014L0000000020000000000000000019182189630000000001700000000000000000                                                                                                                                  
019L0000000020000000000000000019182189630000000001700000000000000000                                                                                                                                  
999L000000008                                                                                                                                                                                         
