000L2021020900000PAYPORT CONSULTING PTY LTD EFT000062407303                                                                                                                                           
010LD237000011101                                                                                                                                                                                     
011LD23763200500000040945448920120210121                                                                                                                                                              
013L5020210120000268632005000000916302259000000008500CRESCENT1 CUS0010294          03292801000268                A MATHESON                                                                           
014L0000000010000000000000000091630225900000000000850000000000000000                                                                                                                                  
011LD23763200500000040945448920120210125                                                                                                                                                              
013L5020210123000749470010000000112025139500000008500CRESCENT1 CUS0054542          03600000000000                I HAMMOND                                                                            
014L0000000010000000000000000011202513950000000000850000000000000000                                                                                                                                  
011LD23763200500000040945448920120210130                                                                                                                                                              
013L5020210129001894470010000000170027716000000008500CRESCENT1 CUS0058754          03000000000000                D PILLAY                                                                             
014L0000000010000000000000000017002771600000000000850000000000000000                                                                                                                                  
011LD23763200500000040945448920120210201                                                                                                                                                              
013L5020210130000055470010000000133194344000000025000ABSOLIT   1611840613RDP001    03200000000000                DANIELLE PETERSEN                                                                    
014L0000000010000000000000000013319434400000000002500000000000000000                                                                                                                                  
019L0000000040000000000000000133154945850000000005050000000000000000                                                                                                                                  
010LD237000011208                                                                                                                                                                                     
011LD23763200500000040945448920120210127                                                                                                                                                              
013L5020210127001323470010000000136891450900000008500CRESCENT1 CUS0049152          03200000000000                M VALLIE                                                                             
013L5020210127000158470010000000154310630500000008500CRESCENT1 CUS0055545          03000000000000                K SMITH                                                                              
014L0000000020000000000000000029120208140000000001700000000000000000                                                                                                                                  
011LD23763200500000040945448920120210205                                                                                                                                                              
013L5020210205000003250141000006249490079100000025000ABSOLIT   1612272607RJT001    01200000000000                JUDE THOMAS                                                                          
014L0000000010000000000000000624949007910000000002500000000000000000                                                                                                                                  
019L0000000030000000000000000654069216050000000004200000000000000000                                                                                                                                  
999L000000025                                                                                                                                                                                         
