000L2021060700000PAYPORT CONSULTING PTY LTD EFT000080407303                                                                                                                                           
010LD237000023501                                                                                                                                                                                     
011LD23763200500000040945448920120210531                                                                                                                                                              
013L5020210529001997632005000000924040103100000008500CRESCENT1 CUS0059800          03292801001997                R ALBERTYN                                                                           
014L0000000010000000000000000092404010310000000000850000000000000000                                                                                                                                  
019L0000000010000000000000000092404010310000000000850000000000000000                                                                                                                                  
999L000000007                                                                                                                                                                                         
