000L2021030300000PAYPORT CONSULTING PTY LTD    000065607303                                                                                                                                           
900L000 TRANSMISSION 07303-0000069 ACCEPTED                                                                                                                                                           
900L001 ACB USER SET D237-0000075-000012 ACCEPTED                                                                                                                                                     
903L001L5063200504094544892D23700000125065562323116625100000089900210304350   NEWYOU    1614605413O21       CHARMAINE LE ROUX             00000000000000000000                21                      
903L001L5063200504094544892D23700000225065562030615374100000069900210304350   NEWYOU    1614605413O22       ELANIE KUHN                   00000000000000000000                21                      
903L001L5063200504094544892D23700000363200509094148819200000069900210304350   NEWYOU    1614605413O23       LEONIE VAN WYK                00000000000000000000                21                      
903L001L5063200504094544892D23700000463200504087491096100000034950210304350   NEWYOU    1614605413O24       M BEYERS                      00000000000000000000                21                      
903L001L5063200504094544892D23700000505100110094873656100000075000210304350   NEWYOU    1614605413O25       MARYKE PRETORIUS              00000000000000000000                21                      
903L001L5063200504094544892D23700000663200509231588951100000071910210304350   NEWYOU    1614605413O27       SUZANNE GREEN                 00000000000000000000                21                      
903L001L5063200504094544892D23700000725065562348391864100000089900210304350   NEWYOU    1614605413O29       ZANRE JOUBERT                 00000000000000000000                21                      
903L001L5063200504094544892D23700000863200504049465813100000089900210304350   NEWYOU    1614605413O30       S CONRADIE                    00000000000000000000                21                      
903L001L5063200504094544892D23700000947001001247506450200000089900210304350   NEWYOU    1614605413O31       LOUISE ANN TRUTER             00000000000000000000                21                      
903L001L5063200504094544892D23700001047001001618611710200000059900210304350   NEWYOU    1614605413O32       M FRANKEN                     00000000000000000000                21                      
903L001L5063200504094544892D23700001163200504088710289100000059900210304350   NEWYOU    1614605413O33       NOLINE GUNTER                 00000000000000000000                21                      
903L001L5263200504094544892D23700001263200504094544892100000801060210304100000NEWYOU    CONTRA76CDIKKBHPAGDF                                                                                          
999L000000016                                                                                                                                                                                         
