000L2021032500000PAYPORT CONSULTING PTY LTD EFT000068607303                                                                                                                                           
010LD237000016601                                                                                                                                                                                     
011LD23763200500000040945448920120210227                                                                                                                                                              
013L5020210226000324198765000000108336923700000008500CRESCENT1 CUS0058108          03000000000000                R FELIX                                                                              
014L0000000010000000000000000010833692370000000000850000000000000000                                                                                                                                  
011LD23763200500000040945448920120210320                                                                                                                                                              
013L5020210319000287250655000006277211227400000008500CRESCENT1 CUS0058762          01200000000000                C MILANZI                                                                            
013L5020210319000225255355000006254314526400000008500CRESCENT1 CUS0056243          00400000000000                A ADAM                                                                               
013L5020210319000228230102000006206527655500000008500CRESCENT1 CUS0026879          00200000000000                A KAJEE                                                                              
013L5020210319000285231433000006266407152000000008500CRESCENT1 CUS0058756          00400000000000                A JASSAT                                                                             
013L5020210319000283198765000000110844926300000008500CRESCENT1 CUS0058683          00400000000000                S SNAYERS                                                                            
013L5020210319000229250655000006275515955800000008500CRESCENT1 CUS0056471          00200000000000                G JACOBS                                                                             
013L5020210319000116632005000000916302259000000008500CRESCENT1 CUS0010294          03092801000116                A MATHESON                                                                           
013L5020210319000065250040000006236754374300000008500CRESCENT1 CUS0049568          03600000000000                S PETERSEN                                                                           
013L5020210319000253200909000006243588536600000008500CRESCENT1 CUS0057715          00200000000000                L JATTIEM                                                                            
013L5020210319000014270724000006245274506400000008500CRESCENT1 CUS0046215          00200000000000                L MBHELE                                                                             
013L5020210319000364250805000006233333468900000008500CRESCENT1 CUS0042261          01200000000000                I LAWRENCE                                                                           
013L5020210319000233210612000006262620698300000008500CRESCENT1 CUS0056667          00200000000000                M VARDALIA                                                                           
013L5020210319000085250805000005054901142200000008500CRESCENT1 CUS0050455          00400000000000                S ALLIE                                                                              
013L5020210319000054250056000006218583294800000008500CRESCENT1 CUS0002494          01200000000000                A HARTMANN                                                                           
013L5020210319000266198765000000112728261100000008500CRESCENT1 CUS0033435          00400000000000                W ABRAHAMS                                                                           
013L5020210319000267250655000006283028933700000016000CRESCENT1 CUS0058350          01200000000000                K WILLIAMS                                                                           
013L5020210319000243051001000000000907986600000008500CRESCENT1 CUS0057102          03400000000000                S PILLAY                                                                             
013L5020210319000113203209000006237535191400000008500CRESCENT1 CUS0051795          00600000000000                W BROWN                                                                              
013L5020210319000185200410000006267004297900000008500CRESCENT1 CUS0054885          01200000000000                A ABRAHAMS                                                                           
013L5020210319000366250837000006239409592300000008500CRESCENT1 CUS0042430          00600000000000                F KHAN                                                                               
013L5020210319000180250805000006256997313600000016000CRESCENT1 CUS0019560          00400000000000                A AHMED                                                                              
013L5020210319000035255355000006257476487700000008500CRESCENT1 CUS0048673          01200000000000                S GANIEF                                                                             
013L5020210319000068255355000006229320863500000008500CRESCENT1 CUS0004148          01200000000000                R HARTLEY                                                                            
013L5020210319000215204709000006207100870200000008500CRESCENT1 CUS0056121          00200000000000                S SHABODIEN PHILANDER                                                                
014L0000000240000000000000012489368952190000000021900000000000000000                                                                                                                                  
011LD23763200500000040945448920120210325                                                                                                                                                              
013L5020210324000371470010000000141471615100000008500CRESCENT1 CUS0046211          02682502000371                R BRIJH                                                                              
013L5020210324000421470010000000110359731500000007500CRESCENT1 CUS0028955          02682502000421                L NIEZER                                                                             
013L5020210324000272250655000000408208943800000008500CRESCENT1 CUS0044678          02682502000272                F HARMEN                                                                             
013L5020210324000427198765000000110724931100000008500CRESCENT1 CUS0029084          02682502000427                Y LEGOETE                                                                            
013L5020210324000663250655000006255230306800000008500CRESCENT1 CUS0049625          02682502000663                A HLOPHE                                                                             
013L5020210324000340250655000000001147884500000007500CRESCENT1 CUS0023047          02682502000340                I KOCKNEY                                                                            
013L5020210324000062632005000000928054747200000008500CRESCENT1 CUS0042486          02683002000062                S FRANKS                                                                             
013L5020210324000307250655000000625478712800000007500CRESCENT1 CUS0021253          02682502000307                R KHAN                                                                               
013L5020210324000114051001000006253010233400000008500CRESCENT1 CUS0042905          02682502000114                S SHAHID                                                                             
013L5020210324000672470010000000134706807900000008500CRESCENT1 CUS0057848          02682502000672                A APPOLLIS                                                                           
013L5020210324000826250655000006265163476900000023500CRESCENT1 CUS0041396          02682502000826                K ABASS                                                                              
014L0000000110000000000000002123355739100000000010550000000000000000                                                                                                                                  
019L0000000360000000000000014623558383660000000033300000000000000000                                                                                                                                  
999L000000046                                                                                                                                                                                         
