000L2021012800000PAYPORT CONSULTING PTY LTD EFT000060607303                                                                                                                                           
010LD237000009001                                                                                                                                                                                     
011LD23763200500000040945448920120201219                                                                                                                                                              
013L5020201218000138470010000000128569178200000008500CRESCENT1 CUS0054220          03000000000000                M GAFIELDIEN                                                                         
013L5020201218001826051001000000005433947200000008500CRESCENT1 CUS0052555          03000000000000                F SOOKDER                                                                            
014L0000000020000000000000000013400312540000000001700000000000000000                                                                                                                                  
011LD23763200500000040945448920120210121                                                                                                                                                              
013L5020210120000162051001000000027055025900000008500CRESCENT1 CUS0045916          03400000000000                A JONES                                                                              
014L0000000010000000000000000002705502590000000000850000000000000000                                                                                                                                  
011LD23763200500000040945448920120210125                                                                                                                                                              
013L5020210123000836198765000000108129059500000008500CRESCENT1 CUS0055365          01200000000000                F  ABRAHAMS                                                                          
013L5020210123000221200612000006257482867300000016000CRESCENT1 CUS0057434          01200000000000                A LATIEF                                                                             
013L5020210123000069203209000006248932195200000008500CRESCENT1 CUS0056623          01200000000000                S ABRAHAMS                                                                           
013L5020210123000172250205000006223794006100000008500CRESCENT1 CUS0048937          01200000000000                H LUQMAN                                                                             
013L5020210123000158250045000006213837314700000008500CRESCENT1 CUS0000782          00200000000000                M HAFFEJEE                                                                           
013L5020210123000052251242000006258051073500000008500CRESCENT1 CUS0033113          00200000000000                S ABDOOLA                                                                            
013L5020210123000249198765000000103284245800000008500CRESCENT1 CUS0057546          02600000000000                N MOOSA                                                                              
013L5020210123000871632005000000405258795300000008500CRESCENT1 CUS0046715          03092801000871                I KHAN                                                                               
013L5020210123000470198765000000103935393200000008500CRESCENT1 CUS0011024          01200000000000                D LITTLER                                                                            
013L5020210123000476250655000006268610528200000008500CRESCENT1 CUS0051653          00600000000000                M ROSENBERG                                                                          
013L5020210123000271250655000006277192656900000008500CRESCENT1 CUS0038708          01200000000000                S LAWRENCE                                                                           
013L5020210123000692250655000006270282895800000008500CRESCENT1 CUS0053769          00200000000000                L BEIS                                                                               
013L5020210123000060200607000006229308771600000008500CRESCENT1 CUS0056518          00600000000000                F AZIZ                                                                               
013L5020210123000640198765000000110838962700000016000CRESCENT1 CUS0053270          00200000000000                F SALIE                                                                              
013L5020210123000380198765000000115190579800000008500CRESCENT1 CUS0050962          03000000000000                I PETERSEN                                                                           
013L5020210123000759198765000000101625000200000008500CRESCENT1 CUS0021674          00600000000000                S AUGUST                                                                             
013L5020210123000373198765000000113875091300000008500CRESCENT1 CUS0058225          00400000000000                K SOLOMON                                                                            
013L5020210123000500198765000000105165650800000008500CRESCENT1 CUS0051960          00600000000000                R MIA                                                                                
013L5020210123000833255355000006251842305900000008500CRESCENT1 CUS0055357          00400000000000                M MOHAMED                                                                            
013L5020210123000036198765000000115687883700000008500CRESCENT1 CUS0056065          01200000000000                S DAVIDS                                                                             
013L5020210123000134198765000000111086186900000008500CRESCENT1 CUS0048631          00200000000000                M MAJIET                                                                             
013L5020210123000291250845000006253537834400000007500CRESCENT1 CUS0038989          00400000000000                N MOOLOO                                                                             
013L5020210123000247254605000006235206410000000016000CRESCENT1 CUS0038365          00200000000000                N SMITH                                                                              
013L5020210123000496198765000000105324055400000007500CRESCENT1 CUS0051875          01200000000000                F ROSKIN                                                                             
013L5020210123000541250655000006274784238500000008500CRESCENT1 CUS0059156          00400000000000                R ALLISON                                                                            
013L5020210123000719250141000006210045984200000007500CRESCENT1 CUS0054217          00200000000000                A KHAN                                                                               
013L5020210123000395198765000000105041710000000008500CRESCENT1 CUS0041413          00200000000000                E PARKER                                                                             
013L5020210123000072198765000000103248980400000008500CRESCENT1 CUS0056626          00200000000000                L HILL                                                                               
013L5020210123000119200109000006235794154300000008500CRESCENT1 CUS0048495          01200000000000                L BEDDERSON                                                                          
013L5020210123000523250645000005104002031800000008500CRESCENT1 CUS0042666          00200000000000                R SULIMAN                                                                            
013L5020210123000636198765000000112360792300000008500CRESCENT1 CUS0053232          00200000000000                Y KAREEM                                                                             
013L5020210123000854198765000000117868472500000008500CRESCENT1 CUS0055555          00400000000000                N TALIEP                                                                             
013L5020210123000495198765000000113606134700000008500CRESCENT1 CUS0042485          02600000000000                G YUSUF                                                                              
013L5020210123000034252245000006209152273200000008500CRESCENT1 CUS0032376          00200000000000                S ADAM                                                                               
013L5020210123000348254905000006261132496400000008500CRESCENT1 CUS0050780          00200000000000                J BAKHARIA                                                                           
013L5020210123000417470010000000118167376100000008500CRESCENT1 CUS0058416          03000000000000                A GEDULD                                                                             
013L5020210123000323198765000000118807029000000008500CRESCENT1 CUS0039569          00600000000000                G WILLIAMS                                                                           
013L5020210123000289200909000006234245815700000008500CRESCENT1 CUS0057771          00400000000000                A JACOBS                                                                             
013L5020210123000710250141000006252659132700000008500CRESCENT1 CUS0053898          00200000000000                R MOHAMMED                                                                           
013L5020210123000148211617000006225733411100000016000CRESCENT1 CUS0036019          00200000000000                M NORDIEN                                                                            
013L5020210123000732255355000006236167842100000008500CRESCENT1 CUS0020772          01200000000000                S SALIE                                                                              
013L5020210123000839256755000006221611824100000008500CRESCENT1 CUS0055366          00200000000000                Z PETRUS                                                                             
013L5020210123000200250555000006262561989800000008500CRESCENT1 CUS0049259          01200000000000                W ABRAHAMS                                                                           
013L5020210123000317198765000000116539986500000016000CRESCENT1 CUS0057900          00200000000000                A FISHER                                                                             
013L5020210123000037251042000006234070362900000008500CRESCENT1 CUS0032627          00400000000000                S DELONG                                                                             
013L5020210123000739251742000006244613664100000016000CRESCENT1 CUS0044997          00200000000000                K RAZAK                                                                              
013L5020210123000122201509000006233162460200000008500CRESCENT1 CUS0048525          00200000000000                E GANIEF                                                                             
013L5020210123000235198765000000225524176500000016000CRESCENT1 CUS0038242          01200000000000                M MAJIET                                                                             
013L5020210123000292200410000006244157605800000008500CRESCENT1 CUS0050000          01200000000000                S SAMSON                                                                             
013L5020210123000764250655000006269266795300000008500CRESCENT1 CUS0054663          01200000000000                K ABRAHAMS                                                                           
013L5020210123000083198765000000102577607000000008500CRESCENT1 CUS0048171          00200000000000                R MOHAMMED                                                                           
013L5020210123000815051001000000006306655600000008500CRESCENT1 CUS0055082          03000000000000                S MCINEKA                                                                            
013L5020210123000378198765000000113494973100000023500CRESCENT1 CUS0007917          03000000000000                K SHAIK HOOSEN                                                                       
013L5020210123000032250409000006247312254800000008500CRESCENT1 CUS0047355          01200000000000                C HASSIM                                                                             
013L5020210123000341250409000006259557828100000008500CRESCENT1 CUS0058059          00200000000000                K RASOOL                                                                             
013L5020210123000788250455000006258912118700000008500CRESCENT1 CUS0054863          00200000000000                S ABRAHAMS                                                                           
013L5020210123000389250655000006275991844700000008500CRESCENT1 CUS0058309          01200000000000                S ADAMS                                                                              
013L5020210123000301470010000000123619151800000008500CRESCENT1 CUS0057790          03400000000000                M GAMIET                                                                             
014L0000000580000000000000020805957893820000000055750000000000000000                                                                                                                                  
019L0000000610000000000000020822063708950000000058300000000000000000                                                                                                                                  
010LD237000009108                                                                                                                                                                                     
011LD23763200500000040945448920120210127                                                                                                                                                              
013L5020210127001082462005000000054149620000000008500CRESCENT1 CUS0046017          02682502001082                M HARTLEY                                                                            
013L5020210127001206051001000000008912748800000008500CRESCENT1 CUS0034085          02682502001206                H DUNKALO                                                                            
013L5020210127003837198765000001012888390600000008500CRESCENT1 CUS0018505          02682502003837                R KHAN                                                                               
013L5020210127003072051001000000082073300100000016000CRESCENT1 CUS0024744          02682502003072                K NANA                                                                               
013L5020210127001331198765000000290520760200000008500CRESCENT1 CUS0023208          02682502001331                Z CART                                                                               
013L5020210127000010250655000000914075635200000008500CRESCENT1 CUS0045167          02682502000010                A MOSES                                                                              
013L5020210127002938632005000000405366649100000008500CRESCENT1 CUS0054697          00300000002938                E GAMIET                                                                             
013L5020210127002778632005000000405817488300000008500CRESCENT1 CUS0050051          02683002002778                Z CASSIMJEE                                                                          
013L5020210127003281632005000000408730097800000008500CRESCENT1 CUS0029497          00300000003281                S MOTALA                                                                             
013L5020210127002387250655000006238836644500000008500CRESCENT1 CUS0024129          02682502002387                J JOOSUB DADA                                                                        
013L5020210127003107250655000006218868216300000008500CRESCENT1 CUS0035452          02682502003107                M BASHIR                                                                             
013L5020210127001280632005000000921974734600000007500CRESCENT1 CUS0059401          02683002001280                H PATHER                                                                             
013L5020210127000330250655000006201762571300000016000CRESCENT1 CUS0045339          02682502000330                M CHOTHIA                                                                            
013L5020210127003537250655000006278028183300000008500CRESCENT1 CUS0030104          02682502003537                S YOUSUF                                                                             
013L5020210127002162632005000000404800596300000008500CRESCENT1 CUS0021102          90300000002162                S DESAI                                                                              
013L5020210127003343632005000000917624116600000016000CRESCENT1 CUS0021957          02682502003343                M TALIEP                                                                             
013L5020210127002439051001000000235369257700000008500CRESCENT1 CUS0037561          02682502002439                F MILANZI                                                                            
013L5020210127000694198765000000195053059800000008500CRESCENT1 CUS0033437          02682502000694                S WILLIAMS                                                                           
013L5020210127000250632005000000908500998700000008500CRESCENT1 CUS0045275          03492801000250                A CARRIM                                                                             
013L5020210127002831250655000005181204194900000015000CRESCENT1 CUS0021581          02682502002831                R MAHOMED                                                                            
013L5020210127002146632005000009006943650700000016000CRESCENT1 CUS0021096          02682502002146                S ARENDE                                                                             
013L5020210127003733632005000000922982066800000008500CRESCENT1 CUS0041944          00200016003733                I KADER                                                                              
013L5020210127002655198765000006255577989500000007500CRESCENT1 CUS0041239          02682502002655                S DAWSON                                                                             
013L5020210127000771250655000006229534434900000008500CRESCENT1 CUS0022898          02682502000771                S KHAN                                                                               
013L5020210127002007051001000000077209905300000008500CRESCENT1 CUS0037306          02682502002007                A NACKERDIEN                                                                         
013L5020210127003109051001000000560030827100000008500CRESCENT1 CUS0041574          02682502003109                M EBRAHIM                                                                            
013L5020210127001665632005000000904701403500000016000CRESCENT1 CUS0019243          02683002001665                M KAMAAR                                                                             
013L5020210127002608632005000000918096884400000008500CRESCENT1 CUS0035197          02682502002608                M NADEEM                                                                             
013L5020210127002806470010000000127839131400000008500CRESCENT1 CUS0044360          02682502002806                N KINANA                                                                             
013L5020210127004009632005000000929285278100000008500CRESCENT1 CUS0052667          00200016004009                H WILLIAMS                                                                           
013L5020210127001523250655000000625134100300000007500CRESCENT1 CUS0023494          02682502001523                N MPONDA                                                                             
013L5020210127002377250655000000922528275100000008500CRESCENT1 CUS0043996          02682502002377                N HASSEN                                                                             
013L5020210127001875051001000000025421162900000008500CRESCENT1 CUS0023891          02682502001875                R KARSANDAS                                                                          
013L5020210127001204051001000000000291532100000008500CRESCENT1 CUS0026779          02682502001204                F MATTHEWS                                                                           
013L5020210127002679051001000000030298513400000008500CRESCENT1 CUS0021471          02682502002679                R SHAIKH                                                                             
013L5020210127001459250655000000621643180100000007500CRESCENT1 CUS0023330          02682502001459                H MOSES                                                                              
013L5020210127001226632005000000930794319200000008500CRESCENT1 CUS0046115          90300000001226                T MIA                                                                                
013L5020210127001999632005000000926498713800000008500CRESCENT1 CUS0058039          00200016001999                F JACOBS                                                                             
013L5020210127002118198765000000928424681700000016000CRESCENT1 CUS0034878          02682502002118                L NDLOVU                                                                             
013L5020210127003045632005000000903151171500000008500CRESCENT1 CUS0041535          00200016003045                J FAFER                                                                              
013L5020210127001956198765000000117913293700000008500CRESCENT1 CUS0027696          02682502001956                A DAVIES                                                                             
013L5020210127003137051001000000082074037900000008500CRESCENT1 CUS0029365          02682502003137                S FAKROODEEN                                                                         
013L5020210127000244051001000000000137840100000008500CRESCENT1 CUS0026014          02682502000244                S BARTHIS                                                                            
013L5020210127000216051001000000002036564600000008500CRESCENT1 CUS0039156          02682502000216                S MATTHEWS                                                                           
013L5020210127000606051001000000010083611800000008500CRESCENT1 CUS0055711          02682502000606                D MARNEY                                                                             
013L5020210127001762051001000000119903324100000008500CRESCENT1 CUS0020908          02682502001762                S SALIE                                                                              
013L5020210127002552632005000000921534624400000008500CRESCENT1 CUS0047191          03092801002552                A KAZI                                                                               
013L5020210127001132632005000000918860375500000008500CRESCENT1 CUS0051437          00200016001132                E HAYWOOD                                                                            
013L5020210127003821632005000000906865229000000016000CRESCENT1 CUS0018502          02683002003821                A NOOAREY                                                                            
013L5020210127002025250655000006256158044300000008500CRESCENT1 CUS0043697          02682502002025                Y HAZAREE                                                                            
013L5020210127003766470010000006260070712100000008500CRESCENT1 CUS0044923          02682502003766                K ROSS                                                                               
013L5020210127000410632005000000922261450300000016000CRESCENT1 CUS0045384          00200016000410                M HASSIM                                                                             
013L5020210127001386800000000000133245441900000008500CRESCENT1 CUS0046383          02682502001386                S SEEDAT                                                                             
013L5020210127002195800000000001500532010100000008500CRESCENT1 CUS0024049          02682502002195                Z CASSIM                                                                             
013L5020210127002194051001000000450826528900000007500CRESCENT1 CUS0021106          02682502002194                S ISMAIL                                                                             
013L5020210127000036051001000000062274618800000008500CRESCENT1 CUS0025772          02682502000036                A SHAIK                                                                              
013L5020210127004014800000000000786000412800000008500CRESCENT1 CUS0020126          02682502004014                S ABDUL RAHMAN                                                                       
013L5020210127001943632005000000926142011900000008500CRESCENT1 CUS0037279          00200016001943                A FALTEIN                                                                            
013L5020210127003601250655000000622722445200000008500CRESCENT1 CUS0030139          02682502003601                D MKHOMZA                                                                            
013L5020210127002429632005000000910418434100000008500CRESCENT1 CUS0054371          00200016002429                M SLAMDIN                                                                            
013L5020210127000511632005000000915329245800000008500CRESCENT1 CUS0057389          90300000000511                M BULL                                                                               
013L5020210127000306632005000000406303835100000008500CRESCENT1 CUS0020281          01200000000306                J KHAN                                                                               
013L5020210127001934632005000000409685489000000008500CRESCENT1 CUS0056254          02682502001934                Z DANTU                                                                              
013L5020210127002706632005000000931657249500000015400CRESCENT1 CUS0056731          03492801002706                I FELIX                                                                              
013L5020210127003974198765000001009993813600000008500CRESCENT1 CUS0045083          02682502003974                R HANSEN                                                                             
013L5020210127002178051001000000404800596300000007500CRESCENT1 CUS0021104          02682502002178                M DESAI                                                                              
013L5020210127003120198765000000295254572700000008500CRESCENT1 CUS0024755          02682502003120                M NANABHAY                                                                           
013L5020210127001048051001000000027232097300000008500CRESCENT1 CUS0039947          02682502001048                A ADAM                                                                               
013L5020210127002068051001000000020677990100000023500CRESCENT1 CUS0027785          02682502002068                A HAJAT                                                                              
013L5020210127000452632005000000916995588400000008500CRESCENT1 CUS0026234          01200000000452                M BROOD                                                                              
013L5020210127001374470010000000424941534700000008500CRESCENT1 CUS0056033          02682502001374                N WILLIAMS                                                                           
013L5020210127003798470010000000136909306800000008500CRESCENT1 CUS0044943          02682502003798                N EBRAHIM                                                                            
013L5020210127001779470010000000012969850300000008500CRESCENT1 CUS0023772          02682502001779                J RAFFIE                                                                             
013L5020210127000881250655000006212913607600000008500CRESCENT1 CUS0018929          02682502000881                I RAVAT                                                                              
013L5020210127002099632005000000913026334100000008500CRESCENT1 CUS0023998          00200016002099                M SEEDAT                                                                             
013L5020210127003311632005000003811278064200000008500CRESCENT1 CUS0021935          00200016003311                S PATEL                                                                              
013L5020210127003404632005000000929019463200000008500CRESCENT1 CUS0058663          00200016003404                E GANIEF                                                                             
013L5020210127000911632005000000931478060000000008500CRESCENT1 CUS0057566          00300000000911                Z DAVIDS                                                                             
013L5020210127003883632005000000906750952700000008500CRESCENT1 CUS0057135          00200016003883                N MOOLA                                                                              
013L5020210127003937250655000006210554216400000008500CRESCENT1 CUS0030357          02682502003937                B RAVAT                                                                              
013L5020210127003506051001000000235996054300000008500CRESCENT1 CUS0032530          02682502003506                S SUKWEANA                                                                           
013L5020210127002180051001000000620845881000000008500CRESCENT1 CUS0028046          02682502002180                F AMEER                                                                              
013L5020210127002134051001000000000150920300000008500CRESCENT1 CUS0034890          02682502002134                C MCYAK                                                                              
013L5020210127001412250655000006207647872400000008500CRESCENT1 CUS0026931          02682502001412                S KEMP                                                                               
013L5020210127003533460005000000008432432600000016000CRESCENT1 CUS0018422          02682502003533                T KHASE                                                                              
013L5020210127001497632005000004082558684600000008500CRESCENT1 CUS0043353          02682502001497                A DAWOOD                                                                             
013L5020210127001500632005000000906660672400000008500CRESCENT1 CUS0051604          00200016001500                D PATTON                                                                             
013L5020210127001565632005000000916929218500000008500CRESCENT1 CUS0053574          00200016001565                M JONES                                                                              
013L5020210127001584632005000000934078813700000008500CRESCENT1 CUS0059453          00200016001584                N GALIEM                                                                             
013L5020210127001106198765000000923102206200000008500CRESCENT1 CUS0020628          02682502001106                S LALAU                                                                              
013L5020210127000902051001000000221020512800000016000CRESCENT1 CUS0033740          02682502000902                A JARDIEN                                                                            
013L5020210127001911051001000000042365197400000008500CRESCENT1 CUS0037237          02682502001911                J JANSE VAN RENSBURG                                                                 
013L5020210127002820198765000000195825667300000008500CRESCENT1 CUS0037935          02682502002820                N ROSKIN                                                                             
013L5020210127000339632005000000090797863900000007500CRESCENT1 CUS0022626          02682502000339                H RASSACK                                                                            
013L5020210127001595632005000000408962685500000008500CRESCENT1 CUS0049307          03492801001595                H TIMOL                                                                              
013L5020210127000522632005000000919893475300000008500CRESCENT1 CUS0045541          02682502000522                M JELANI                                                                             
013L5020210127002982632005000003817371064700000008500CRESCENT1 CUS0044496          00200016002982                A POSTANS                                                                            
013L5020210127002804632005000000002302362200000016000CRESCENT1 CUS0037918          00200016002804                A RHODA                                                                              
013L5020210127002150198765000000900315520000000008500CRESCENT1 CUS0034892          02682502002150                M REAANE                                                                             
013L5020210127001969250655000005513001536600000006900CRESCENT1 CUS0019367          02682502001969                F MOOSA                                                                              
013L5020210127002256632005000000933203208900000004500CRESCENT1 CUS0059561          00200016002256                R DAVIS                                                                              
013L5020210127002500198765000002000758225000000008500CRESCENT1 CUS0028387          02682502002500                M HADJEE                                                                             
013L5020210127001319051001000000221211815400000008500CRESCENT1 CUS0036916          02682502001319                M ROBINSON                                                                           
013L5020210127003996051001000000005026840000000006900CRESCENT1 CUS0059021          02682502003996                R RAMNATH                                                                            
013L5020210127001795198765000000196464497500000008500CRESCENT1 CUS0023819          02682502001795                A KOTWAL                                                                             
013L5020210127002681051001000000738024586100000016000CRESCENT1 CUS0028633          02682502002681                C MKHOTYWA                                                                           
013L5020210127001972051001000000117913293700000015000CRESCENT1 CUS0027697          02682502001972                N DAVIES                                                                             
013L5020210127002958632005000000405292103800000008500CRESCENT1 CUS0019731          03092801002958                A VAHED                                                                              
013L5020210127003322632005000000409402472300000008500CRESCENT1 CUS0054952          90300000003322                Y HASSEN                                                                             
013L5020210127002619632005000000501545351500000007500CRESCENT1 CUS0021408          02682502002619                F GANI                                                                               
013L5020210127003302250655000000040829068900000008500CRESCENT1 CUS0044742          02682502003302                Y LOKHAT                                                                             
013L5020210127003718051001000000100614548600000008500CRESCENT1 CUS0044894          02682502003718                Z DAVIDS                                                                             
013L5020210127000997198765000000213504362700000008500CRESCENT1 CUS0031168          02682502000997                A GORA                                                                               
013L5020210127003526470010000000137227254600000008500CRESCENT1 CUS0044826          02682502003526                A ISMAIL                                                                             
013L5020210127003217632005000000911047057200000008500CRESCENT1 CUS0029452          00200016003217                P TSOTETSI                                                                           
013L5020210127003877632005000000922071176700000008500CRESCENT1 CUS0041999          00200016003877                S PETERSEN                                                                           
013L5020210127002242632005000000407509412700000016000CRESCENT1 CUS0021126          01200000002242                H MOTALA                                                                             
013L5020210127002449632005000000407948108600000008500CRESCENT1 CUS0019545          02682502002449                Z OMAR                                                                               
013L5020210127000054250655000006227069331600000008500CRESCENT1 CUS0032941          02682502000054                W RANA                                                                               
013L5020210127000505051001000000086012310700000016000CRESCENT1 CUS0042516          02682502000505                K DEVRIES                                                                            
014L0000001200000000000000015879971103340000000114470000000000000000                                                                                                                                  
019L0000001200000000000000015879971103340000000114470000000000000000                                                                                                                                  
999L000000195                                                                                                                                                                                         
