000L2020042400000PAYPORT CONSULTING PTY LTD EFT000028207303                                                                                                                                           
010LD237000000908                                                                                                                                                                                     
011LD23763200500000040945448920120200422                                                                                                                                                              
013L5020200421000005470010000000112608063000000000500PAYPORT   O20200421150138-22  01200000000000                CHEREEN MULLER                                                                       
014L0000000010000000000000000011260806300000000000050000000000000000                                                                                                                                  
019L0000000010000000000000000011260806300000000000050000000000000000                                                                                                                                  
999L000000007                                                                                                                                                                                         
