000L2021053000000PAYPORT CONSULTING PTY LTD EFT000078907303                                                                                                                                           
010LD237000022701                                                                                                                                                                                     
011LD23763200500000040945448920120210426                                                                                                                                                              
013L5020210424001878253442000006227547332100000008500CRESCENT1 CUS0044585          03400000000000                B MOOSA                                                                              
013L5020210424002724250655000006285696227200000008500CRESCENT1 CUS0059647          03000000000000                M KAHAAR                                                                             
014L0000000020000000000000001251324355930000000001700000000000000000                                                                                                                                  
011LD23763200500000040945448920120210430                                                                                                                                                              
013L5020210429000435470010000000118969076200000008500CRESCENT1 CUS0053930          03200000000000                I RAYEPEN-ESS                                                                        
013L5020210429000407250655000006276649460400000015400CRESCENT1 CUS0059405          03400000000000                N TALIEP                                                                             
014L0000000020000000000000000639561853660000000002390000000000000000                                                                                                                                  
011LD23763200500000040945448920120210527                                                                                                                                                              
013L5020210526000420250655000006277927765900000008500CRESCENT1 CUS0059170          00200000000000                L CHARLES                                                                            
013L5020210526003146250655000006275531888100000008500CRESCENT1 CUS0056633          00200000000000                A DOLLIE                                                                             
013L5020210526003187210651000006220593740400000016000CRESCENT1 CUS0053934          00400000000000                M JACOBS                                                                             
013L5020210526003253250645000005104002031800000008500CRESCENT1 CUS0042666          00200000000000                R SULIMAN                                                                            
013L5020210526002367250655000006273338602400000008500CRESCENT1 CUS0041929          00200000000000                S RAHMAN                                                                             
013L5020210526000680252805000005032004083000000016000CRESCENT1 CUS0043519          00400000000000                K ISAACS                                                                             
013L5020210526000732250056000006230699430300000016000CRESCENT1 CUS0031131          00200000000000                I MAYET                                                                              
013L5020210526002958211517000006232827536900000008500CRESCENT1 CUS0039000          00400000000000                K LINGHAN                                                                            
013L5020210526001846200311000006249917021600000008500CRESCENT1 CUS0055858          01200000000000                Y ABRAHAMS                                                                           
013L5020210526002000201109000006246980383900000008500CRESCENT1 CUS0055908          01200000000000                M ABRAHAMS                                                                           
013L5020210526000034203209000006206750386500000008500CRESCENT1 CUS0036483          00400000000000                A BANIEN                                                                             
013L5020210526002326198765000000112360792300000008500CRESCENT1 CUS0053232          00600000000000                Y KAREEM                                                                             
013L5020210526002279198765000000100116306000000006900CRESCENT1 CUS0048345          00200000000000                A OMARSHAR                                                                           
013L5020210526001120250655000006285074657300000016000CRESCENT1 CUS0059387          00400000000000                D SWANEPOEL                                                                          
013L5020210526002884255355000006238750283600000008500CRESCENT1 CUS0024712          03400000000000                Y KARA                                                                               
013L5020210526003244470010000000135769025600000008500CRESCENT1 CUS0056693          03400000000000                A SWARTZ                                                                             
013L5020210526003483255355000006237749097600000008500CRESCENT1 CUS0058804          00200000000000                A ARIEFDIEN                                                                          
013L5020210526002573250555000006240400573900000008500CRESCENT1 CUS0058208          03600000000000                A NORDIEN                                                                            
013L5020210526001286204209000006208595765600000008500CRESCENT1 CUS0055546          00400000000000                M ADAMS                                                                              
013L5020210526000431250655000006276179809300000016000CRESCENT1 CUS0052066          00200000000000                M SLAMDIEN                                                                           
013L5020210526000460254005000006005116163100000008500CRESCENT1 CUS0054895          01800000000000                N ABRAHAMS                                                                           
013L5020210526002453255355000006247816915700000008500CRESCENT1 CUS0035572          00400000000000                F ESSOP                                                                              
013L5020210526000097470010000000136736735000000008500CRESCENT1 CUS0056945          03000000000000                F SOLOMONS                                                                           
013L5020210526003091250655000006279548032700000008500CRESCENT1 CUS0058467          00200000000000                N FORTUNE                                                                            
013L5020210526001000220129000006201865138200000023500CRESCENT1 CUS0037185          00400000000000                A HOOSEN                                                                             
013L5020210526000291220325000006022037428900000008500CRESCENT1 CUS0051998          00200000000000                R CASSIM                                                                             
013L5020210526001540198765000000114827333600000016000CRESCENT1 CUS0059501          00200000000000                K CHIIKTA                                                                            
013L5020210526000238198765000000109869583600000006900CRESCENT1 CUS0059041          02600000000000                A SALIE                                                                              
013L5020210526002517201409000006260536854800000016000CRESCENT1 CUS0058203          01200000000000                H MCCABE                                                                             
013L5020210526002428251742000006244613664100000016000CRESCENT1 CUS0044997          01200000000000                K RAZAK                                                                              
013L5020210526002312250655000006276003764000000008500CRESCENT1 CUS0056036          00200000000000                A KHAN                                                                               
013L5020210526000794200910000006229339942600000008500CRESCENT1 CUS0049926          03000000000000                Y JANODIEN                                                                           
013L5020210526000950201009000006260512028700000008500CRESCENT1 CUS0055203          00200000000000                M GAMIET                                                                             
013L5020210526002913212217000006208804371700000016000CRESCENT1 CUS0030000          00400000000000                J SAFEDIEN                                                                           
013L5020210526002317250455000006225279913800000016000CRESCENT1 CUS0024099          01200000000000                L JARDINE                                                                            
013L5020210526002717250056000006204420461800000016000CRESCENT1 CUS0029274          00400000000000                H LAMBAT                                                                             
013L5020210526000699250056000006265715025800000008500CRESCENT1 CUS0057193          00400000000000                T AHMED                                                                              
013L5020210526002885252605000006223082820600000031000CRESCENT1 CUS0029481          00400000000000                A BIBI LAAL                                                                          
013L5020210526000229251905000006013625366800000016000CRESCENT1 CUS0033368          01200000000000                C DAMINGO                                                                            
013L5020210526001862250655000006285696227200000008500CRESCENT1 CUS0059647          03000000000000                M KAHAAR                                                                             
013L5020210526002056255355000006250489736700000008500CRESCENT1 CUS0053103          00200000000000                N ROSENBERG                                                                          
013L5020210526001795211617000006212943847100000008500CRESCENT1 CUS0027723          00400000000000                T WILLIAMS                                                                           
013L5020210526001792250655000006272325567700000008500CRESCENT1 CUS0059632          00400000000000                F DAVIDS                                                                             
013L5020210526002545198765000000101761228500000008500CRESCENT1 CUS0058206          00200000000000                F SAMSODIEN                                                                          
013L5020210526001843200810000005135119954700000008500CRESCENT1 CUS0048022          00400000000000                I DUTOIT                                                                             
013L5020210526001794201909000005008001756700000008500CRESCENT1 CUS0023669          00400000000000                R JATTIEM                                                                            
013L5020210526001438198765000000203132228100000008500CRESCENT1 CUS0050567          02600000000000                S LAMARA                                                                             
013L5020210526000713198765000000117649942400000008500CRESCENT1 CUS0057196          00200000000000                I WILLIAMS                                                                           
013L5020210526001610250655000006277524165800000016000CRESCENT1 CUS0059529          00400000000000                I ISRAEL                                                                             
013L5020210526002152220126000006246205016400000016000CRESCENT1 CUS0024011          00200000000000                L MUSTAFFA                                                                           
013L5020210526000992250114000006207002655700000008500CRESCENT1 CUS0055244          00400000000000                J DESAI                                                                              
013L5020210526001498250655000006284494986000000016000CRESCENT1 CUS0059479          00200000000000                S WILLIAMS                                                                           
013L5020210526000568252245000006254219325600000008500CRESCENT1 CUS0043465          00200000000000                I OSMAN                                                                              
013L5020210526000796250141000006252338241400000008500CRESCENT1 CUS0055113          00400000000000                A REEVE                                                                              
013L5020210526000773250655000006226886713500000008500CRESCENT1 CUS0026370          02600000000000                F GALIEL                                                                             
013L5020210526001735198765000000117198257700000008500CRESCENT1 CUS0057758          00400000000000                M DOLLIE                                                                             
013L5020210526001119198765000000119099244200000016000CRESCENT1 CUS0057437          01200000000000                M BOOYSEN                                                                            
013L5020210526001348250655000005400001251500000008500CRESCENT1 CUS0031610          02600000000000                M PEER-MOHAMMED                                                                      
013L5020210526001668250655000005050052217900000007500CRESCENT1 CUS0023502          02600000000000                A MATTHEWS                                                                           
013L5020210526000469250068000006223012148600000008500CRESCENT1 CUS0040218          00200000000000                H MOHAMMED                                                                           
013L5020210526001184252605000006239360039300000008500CRESCENT1 CUS0044085          00200000000000                Y KHAN                                                                               
013L5020210526000378462005000000482286230100000008500CRESCENT1 CUS0059164          03400000000000                A BRINK                                                                              
013L5020210526001325254205000006207808001800000007500CRESCENT1 CUS0047435          01200000000000                Z BUX                                                                                
013L5020210526001238250141000006062602399300000008500CRESCENT1 CUS0037380          00200000000000                F ABRAHAMS                                                                           
013L5020210526003295250017000006242098984200000016000CRESCENT1 CUS0042725          00400000000000                S MASENENE                                                                           
013L5020210526003355250141000006210045984200000008500CRESCENT1 CUS0054189          00200000000000                A KHAN                                                                               
013L5020210526001581198765000000116461731100000016000CRESCENT1 CUS0057663          00200000000000                N PIETERS                                                                            
013L5020210526002399198765000000108183114600000008500CRESCENT1 CUS0048444          00400000000000                M ISAACS                                                                             
013L5020210526000456198765000000288727584400000008500CRESCENT1 CUS0043394          02600000000000                A SALLIE                                                                             
013L5020210526003589198765000000108081159100000008500CRESCENT1 CUS0043064          00400000000000                H LACHMAN                                                                            
013L5020210526001357210528000006235532928800000008500CRESCENT1 CUS0057555          00200000000000                S BOTHA                                                                              
013L5020210526001148250655000006284172116200000016000CRESCENT1 CUS0059393          00400000000000                K JEFTHA                                                                             
013L5020210526003479270844000006204672093500000008500CRESCENT1 CUS0049243          03000000000000                H MANSOOR                                                                            
013L5020210526001433210651000005145002990000000008500CRESCENT1 CUS0034791          00400000000000                A OSMAN                                                                              
013L5020210526002867250655000006273896909900000008500CRESCENT1 CUS0058286          00200000000000                I DOLLIE                                                                             
013L5020210526001703198765000000106993703700000008500CRESCENT1 CUS0047806          03000000000000                S MABUSE                                                                             
013L5020210526002954051001000000005162495800000016000CRESCENT1 CUS0024748          00400000000000                I JOOSAB                                                                             
013L5020210526003524250655000006272829696500000008500CRESCENT1 CUS0056798          00600000000000                Z WILLIAMS                                                                           
013L5020210526003117254405000006209556614000000008500CRESCENT1 CUS0053860          01200000000000                D HARTNEY                                                                            
013L5020210526000565251042000006233678827100000016000CRESCENT1 CUS0033827          00400000000000                F PATEL                                                                              
013L5020210526000258253305000005037110829900000016000CRESCENT1 CUS0036682          00400000000000                J SAKILDIEN                                                                          
013L5020210526003053250655000006228305639100000008500CRESCENT1 CUS0030076          02600000000000                D MAKHUBO                                                                            
013L5020210526001428250655000006276930157500000008500CRESCENT1 CUS0059454          00200000000000                A HENDRICKS                                                                          
013L5020210526003595250655000006282794423300000008500CRESCENT1 CUS0058882          01200000000000                E GASANT                                                                             
013L5020210526002934210521000006219757113800000008500CRESCENT1 CUS0051514          00600000000000                F NOOR                                                                               
013L5020210526003454222019000006260019996400000008500CRESCENT1 CUS0056771          00200000000000                H DEABRUYN                                                                           
013L5020210526002704198765000000118567671600000024500CRESCENT1 CUS0032460          00200000000000                M HOOSEN                                                                             
013L5020210526000018198765000000117494909000000008500CRESCENT1 CUS0030531          00400000000000                N MOOLLA                                                                             
013L5020210526001547201909000006224186049500000016000CRESCENT1 CUS0041292          00200000000000                F SISSOKO                                                                            
013L5020210526002388250655000006268148632200000008500CRESCENT1 CUS0058127          00600000000000                T ACHMAT                                                                             
013L5020210526001664250655000006277422879800000016000CRESCENT1 CUS0055722          00200000000000                L PATEL                                                                              
013L5020210526001092203109000006265931574300000008500CRESCENT1 CUS0059385          00200000000000                A ABRAHAMS                                                                           
013L5020210526002654203209000006248048520200000008500CRESCENT1 CUS0051323          00200000000000                K ABRAHAMS                                                                           
013L5020210526001455250655000006274093185400000016000CRESCENT1 CUS0057596          01200000000000                A NAHAS                                                                              
013L5020210526002922250655000006274995042500000016000CRESCENT1 CUS0056503          01200000000000                S DA SILVER                                                                          
013L5020210526001665210046000006262217009100000016000CRESCENT1 CUS0057729          00400000000000                A DANIELS                                                                            
013L5020210526002338250537000006245635951400000008500CRESCENT1 CUS0044963          01200000000000                A KAABI                                                                              
013L5020210526003530251242000006258051073500000008500CRESCENT1 CUS0033113          00200000000000                S ABDOOLA                                                                            
013L5020210526002698221926000006226201801500000008500CRESCENT1 CUS0056234          01200000000000                M MOOSA                                                                              
013L5020210526001076250655000006276073614300000008500CRESCENT1 CUS0055348          01200000000000                R WILLIAMS                                                                           
013L5020210526000013250655000006272197464100000008500CRESCENT1 CUS0056858          00400000000000                A MARINUS                                                                            
013L5020210526003417198765000000157402263600000008500CRESCENT1 CUS0030338          03000000000000                Y KOZA                                                                               
013L5020210526003427201709000006252543352000000006900CRESCENT1 CUS0058742          00200000000000                T MOOS                                                                               
013L5020210526002957198765000000102923758100000008500CRESCENT1 CUS0035932          00200000000000                R BLIGENHOUDT                                                                        
013L5020210526000574250655000006273054492200000008500CRESCENT1 CUS0059229          00200000000000                E BENJAMIN                                                                           
013L5020210526003016252505000006223436003000000008500CRESCENT1 CUS0045615          05600000000000                Z MOOSAJEE                                                                           
013L5020210526002372255355000006257476487700000008500CRESCENT1 CUS0056074          01200000000000                F GANIEF                                                                             
013L5020210526001206270344000005218144900300000008500CRESCENT1 CUS0022952          00400000000000                A DANKA                                                                              
013L5020210526001102250054000005244001251700000008500CRESCENT1 CUS0050291          00400000000000                A ASTRIE                                                                             
013L5020210526003048198765000000106698444100000008500CRESCENT1 CUS0056585          01200000000000                S HASSEN                                                                             
013L5020210526002835204209000006256948645200000016000CRESCENT1 CUS0048733          00200000000000                M AGOWUN                                                                             
013L5020210526003581250655000006282941585200000008500CRESCENT1 CUS0058872          01200000000000                A JOOMA                                                                              
013L5020210526001688253442000006227547332100000008500CRESCENT1 CUS0044585          03400000000000                B MOOSA                                                                              
013L5020210526002789250737000006224669738000000008500CRESCENT1 CUS0035829          01200000000000                A KHAN                                                                               
013L5020210526001622260546000006264401849300000016000CRESCENT1 CUS0055706          01200000000000                M KHAN                                                                               
013L5020210526000200220328000006210539809500000008500CRESCENT1 CUS0030627          00400000000000                M RAHIMAN                                                                            
013L5020210526002194210655000006244073444100000008500CRESCENT1 CUS0059816          00200000000000                T JEFFERIES                                                                          
013L5020210526001576198765000000104578772800000008500CRESCENT1 CUS0044439          00200000000000                Z ALLIE HENDRICKS                                                                    
013L5020210526000358198765000000103202242600000008500CRESCENT1 CUS0043338          00400000000000                A MOHAMED                                                                            
013L5020210526000682203209000006048815851600000016000CRESCENT1 CUS0049861          00200000000000                F ABDOL                                                                              
013L5020210526000853198765000000115631073300000008500CRESCENT1 CUS0057246          01200000000000                R YAGHYA                                                                             
013L5020210526003480198765000000115131213400000008500CRESCENT1 CUS0051809          00200000000000                I SOLOMONS                                                                           
013L5020210526002979198765000000110470199500000008500CRESCENT1 CUS0058383          00200000000000                R DAVIN                                                                              
013L5020210526002781255355000006259230026500000008500CRESCENT1 CUS0053546          01200000000000                H JACOBS                                                                             
014L0000001240000000000000059131567531870000000132570000000000000000                                                                                                                                  
011LD23763200500000040945448920120210531                                                                                                                                                              
013L5020210529000493250655000006213593727000000008500CRESCENT1 CUS0026277          02682502000493                N JALIEL                                                                             
013L5020210529002572223626000000210952152000000008500CRESCENT1 CUS0059074          02682502002572                L SAULS                                                                              
013L5020210529000936250655000000127327521500000007500CRESCENT1 CUS0045110          02682502000936                B MOHAMMED                                                                           
013L5020210529002097250655000006252677740100000008500CRESCENT1 CUS0001274          02682502002097                K MOHAMED                                                                            
013L5020210529001583051001000000065428087300000008500CRESCENT1 CUS0029287          02682502001583                N MATAMBO                                                                            
013L5020210529002175051001000000020207834600000008500CRESCENT1 CUS0013923          02682502002175                S KAJEE                                                                              
013L5020210529002528198765000000101014142800000016000CRESCENT1 CUS0043083          02682502002528                N MOOI                                                                               
013L5020210529002137470010000000119234193900000016000CRESCENT1 CUS0052282          02682502002137                A SMITH                                                                              
013L5020210529001243250655000006263142907200000008500CRESCENT1 CUS0027934          02682502001243                N MOGOTSI                                                                            
013L5020210529002257250655000006225062438500000016000CRESCENT1 CUS0047690          02682502002257                I ASCHENDORF                                                                         
013L5020210529002165250655000006233358449100000008500CRESCENT1 CUS0024351          02682502002165                N MOOSAJEE                                                                           
013L5020210529000133632005000000918304077000000008500CRESCENT1 CUS0025404          02683002000133                R ABRAHAMS                                                                           
013L5020210529000294632005000000927559419100000016000CRESCENT1 CUS0032909          02683002000294                J SEETHAL                                                                            
013L5020210529001213632005000000910279301900000023500CRESCENT1 CUS0027853          02682502001213                E MONKHE                                                                             
013L5020210529001386198765000000302389495300000008500CRESCENT1 CUS0046018          02682502001386                T BALLIM                                                                             
013L5020210529000915051001000000100308217100000016000CRESCENT1 CUS0039651          02682502000915                B MITCHELLE                                                                          
013L5020210529002153632005000000919043848700000008500CRESCENT1 CUS0013839          02682502002153                H FRANKS                                                                             
013L5020210529002375632005000000905134146800000008500CRESCENT1 CUS0031526          02683002002375                M ADAM                                                                               
013L5020210529001316051001000000042225031000000008500CRESCENT1 CUS0045826          02682502001316                S RENFURM                                                                            
013L5020210529001284430000000001221323412300000008500CRESCENT1 CUS0034409          02682502001284                M TEST                                                                               
013L5020210529000333250655000006225455928900000008500CRESCENT1 CUS0025930          02682502000333                Y SEEDAT                                                                             
013L5020210529002343250655000000508710892200000008500CRESCENT1 CUS0036735          02682502002343                S MORAT                                                                              
013L5020210529001505632005000000918861781600000008500CRESCENT1 CUS0041004          02682502001505                J ABDUL                                                                              
013L5020210529000034632005000000912784212400000007500CRESCENT1 CUS0032164          02682502000034                M PRINCE                                                                             
013L5020210529002079198765000006257428456000000007500CRESCENT1 CUS0036230          02682502002079                S MUHAMMAD                                                                           
013L5020210529001311198765000000108195326300000008500CRESCENT1 CUS0009097          02682502001311                F OMAR                                                                               
013L5020210529000754632005000000092686866300000008500CRESCENT1 CUS0033712          02682502000754                L BODIBA                                                                             
013L5020210529001606250655000006208972578200000008500CRESCENT1 CUS0046450          02682502001606                N KHAN                                                                               
013L5020210529002025051001000000011497065400000008500CRESCENT1 CUS0041856          02682502002025                R JEEWA                                                                              
013L5020210529001984470010000001561145095000000008500CRESCENT1 CUS0056711          02682502001984                S FICKS                                                                              
013L5020210529000465470010000000014199597900000008500CRESCENT1 CUS0038829          02682502000465                Y GAMA                                                                               
013L5020210529000275470010000000127138661700000007500CRESCENT1 CUS0038250          02682502000275                A MOHAMED                                                                            
014L0000000320000000000000006102564260510000000032050000000000000000                                                                                                                                  
019L0000001600000000000000067125018001970000000168710000000000000000                                                                                                                                  
999L000000172                                                                                                                                                                                         
