000L2021060900000PAYPORT CONSULTING PTY LTD EFT000080807303                                                                                                                                           
010LD237000023701                                                                                                                                                                                     
011LD23763200500000040945448920120210430                                                                                                                                                              
013L5020210429000004250056000006221708008500000025000ABSOLIT   1619530230RCS001    03400000000000                CLAYTON SCHOLTZ                                                                      
013L5020210429002066198765000000101640068300000016000CRESCENT1 CUS0023930          03000000000000                M BALLIM                                                                             
014L0000000020000000000000000632334807680000000004100000000000000000                                                                                                                                  
011LD23763200500000040945448920120210531                                                                                                                                                              
013L5020210529000558470010000000128569178200000008500CRESCENT1 CUS0054220          03000000000000                M GAFIELDIEN                                                                         
014L0000000010000000000000000012856917820000000000850000000000000000                                                                                                                                  
019L0000000030000000000000000645191725500000000004950000000000000000                                                                                                                                  
999L000000011                                                                                                                                                                                         
