000L2021030600000PAYPORT CONSULTING PTY LTD EFT000066107303                                                                                                                                           
010LD237000014801                                                                                                                                                                                     
011LD23763200500000040945448920120210130                                                                                                                                                              
013L5020210129001979051001000000006216913000000008500CRESCENT1 CUS0030495          03600000000000                B KHAN                                                                               
014L0000000010000000000000000000621691300000000000850000000000000000                                                                                                                                  
011LD23763200500000040945448920120210225                                                                                                                                                              
013L5020210224000757051001000000041029242700000016000CRESCENT1 CUS0045426          03400000000000                A RASSOOL                                                                            
014L0000000010000000000000000004102924270000000001600000000000000000                                                                                                                                  
011LD23763200500000040945448920120210227                                                                                                                                                              
013L5020210226005249632005000000408638125200000015000CRESCENT1 CUS0050501          03492801005249                F BARADIEN                                                                           
013L5020210226002307051001000000006216913000000008500CRESCENT1 CUS0030495          03600000000000                B KHAN                                                                               
013L5020210226005819051001000000042480973700000008500CRESCENT1 CUS0035642          03000000000000                A SHAIK                                                                              
013L5020210226002673470010000000140942446200000008500CRESCENT1 CUS0046624          03000000000000                A SALLIE                                                                             
014L0000000040000000000000000059827845810000000004050000000000000000                                                                                                                                  
019L0000000060000000000000000064552461380000000006500000000000000000                                                                                                                                  
010LD237000014908                                                                                                                                                                                     
011LD23763200500000040945448920120210127                                                                                                                                                              
013L5020210127003400632005000000408638125200000015000CRESCENT1 CUS0050501          03492801003400                F BARADIEN                                                                           
014L0000000010000000000000000040863812520000000001500000000000000000                                                                                                                                  
019L0000000010000000000000000040863812520000000001500000000000000000                                                                                                                                  
999L000000021                                                                                                                                                                                         
