000L2021050500000PAYPORT CONSULTING PTY LTD EFT000074907303                                                                                                                                           
010LD237000020401                                                                                                                                                                                     
011LD23763200500000040945448920120210325                                                                                                                                                              
013L5020210324000462198765000000106595734300000008500CRESCENT1 CUS0056497          03000000000000                G BARRON                                                                             
014L0000000010000000000000000010659573430000000000850000000000000000                                                                                                                                  
011LD23763200500000040945448920120210326                                                                                                                                                              
013L5020210325000430051001000000020148314900000008500CRESCENT1 CUS0015525          03600000000000                W EBRAHIM                                                                            
014L0000000010000000000000000002014831490000000000850000000000000000                                                                                                                                  
011LD23763200500000040945448920120210331                                                                                                                                                              
013L5020210330001302632005000000911948102500000008500CRESCENT1 CUS0059449          03492801001302                G GANIEF                                                                             
013L5020210330001116257355000006212305528900000008500CRESCENT1 CUS0033846          03000000000000                A LAKHI                                                                              
013L5020210330002432051001000000004898692500000016000CRESCENT1 CUS0042078          03400000000000                B KAHN                                                                               
014L0000000030000000000000000712915232390000000003300000000000000000                                                                                                                                  
011LD23763200500000040945448920120210421                                                                                                                                                              
013L5020210420000212051001000000000901211700000031000CRESCENT1 CUS0006778          03000000000000                A MOHAMED                                                                            
014L0000000010000000000000000000090121170000000003100000000000000000                                                                                                                                  
011LD23763200500000040945448920120210424                                                                                                                                                              
013L5020210423000048470010000000123619151800000008500CRESCENT1 CUS0057790          03000000000000                M GAMIET                                                                             
013L5020210423000028051001000000000923508600000016000CRESCENT1 CUS0035418          03200000000000                N DURRELL                                                                            
014L0000000020000000000000000012454266040000000002450000000000000000                                                                                                                                  
011LD23763200500000040945448920120210426                                                                                                                                                              
013L5020210424003321051001000000007265534800000016000CRESCENT1 CUS0051510          03400000000000                S DANIELS                                                                            
014L0000000010000000000000000000726553480000000001600000000000000000                                                                                                                                  
011LD23763200500000040945448920120210430                                                                                                                                                              
013L5020210429000457051001000001013242598800000008500CRESCENT1 CUS0059417          03400000000000                S BENJAMIN                                                                           
013L5020210429002270250114000006235749261100000008500CRESCENT1 CUS0047786          00400000000000                J PATTERSEN                                                                          
013L5020210429000985250655000006282883833600000008500CRESCENT1 CUS0055137          00400000000000                N JACOBS                                                                             
013L5020210429001873255355000006244498977900000016000CRESCENT1 CUS0046966          01200000000000                A SADER                                                                              
013L5020210429001842252505000006239686280900000008500CRESCENT1 CUS0023029          00200000000000                Y PILLAR                                                                             
013L5020210429002315257705000006240912242100000008500CRESCENT1 CUS0014623          00200000000000                S BUTLER                                                                             
013L5020210429002411250141000006251464655600000008500CRESCENT1 CUS0052995          01200000000000                A NAIDOO                                                                             
013L5020210429000512211617000006224988986900000008500CRESCENT1 CUS0038742          00400000000000                Z SMITH                                                                              
013L5020210429002552198765000000119008792800000008500CRESCENT1 CUS0057431          00600000000000                I DAVIDS                                                                             
013L5020210429001639230102000006220624369400000008500CRESCENT1 CUS0021998          01200000000000                S NAWAZ                                                                              
013L5020210429000321250237000006246187981200000016000CRESCENT1 CUS0032811          00200000000000                H BHANA                                                                              
013L5020210429000751250805000006241612972500000007500CRESCENT1 CUS0033564          02600000000000                A HOOSEIN                                                                            
013L5020210429000723270350000006237724441400000016000CRESCENT1 CUS0044685          00200000000000                M MOMLA                                                                              
013L5020210429000982198765000000203405925500000008500CRESCENT1 CUS0039534          02600000000000                A BASSA                                                                              
013L5020210429000425255355000006250187062100000008500CRESCENT1 CUS0053926          01200000000000                G EBRAHIEM                                                                           
013L5020210429001709250655000006269900729300000016000CRESCENT1 CUS0035487          01200000000000                M MADAREE                                                                            
013L5020210429001143250805000006204719543400000008500CRESCENT1 CUS0045328          00200000000000                M DANKA                                                                              
013L5020210429002293250655000006271476686500000008500CRESCENT1 CUS0059162          00200000000000                Z LAGARDIEN                                                                          
013L5020210429002102255355000006265908484300000008500CRESCENT1 CUS0056954          00200000000000                M THEBUS                                                                             
013L5020210429000590253605000006211033693100000016000CRESCENT1 CUS0026365          00600000000000                F ABDUL HABIB                                                                        
013L5020210429001139270224000006208330887700000008500CRESCENT1 CUS0019905          00200000000000                M ISMAIL                                                                             
013L5020210429001704198765000000118032625300000008500CRESCENT1 CUS0056587          00600000000000                Z BAREDOEN                                                                           
013L5020210429001456198765000000118083489500000008500CRESCENT1 CUS0058530          00200000000000                M PARKER                                                                             
013L5020210429000636198765000000119216281100000008500CRESCENT1 CUS0058063          00200000000000                A ISAACS                                                                             
013L5020210429000710257705000005028003661400000008500CRESCENT1 CUS0026559          01200000000000                R AHMED                                                                              
013L5020210429001531252505000006223742706900000008500CRESCENT1 CUS0035186          00200000000000                F SHAIK                                                                              
013L5020210429001189250056000006244778520700000016000CRESCENT1 CUS0020183          01200000000000                A ASVAT                                                                              
013L5020210429000031250141000006216416419800000025000ABSOLIT   1619530229RSH001    01200000000000                SAAJIDAH HUSSAIN                                                                     
013L5020210429001059250655000006282871410600000006900CRESCENT1 CUS0019460          00200000000000                A SEEDAT                                                                             
013L5020210429001330252605000006202432059100000008500CRESCENT1 CUS0028000          00400000000000                M FAKIE                                                                              
013L5020210429002308251945000006234862432200000008500CRESCENT1 CUS0036717          00200000000000                Y BROWN                                                                              
013L5020210429000626051001000001012578538900000016000CRESCENT1 CUS0058055          03600000000000                A DAVEY                                                                              
013L5020210429002082198765000000114116886300000008500CRESCENT1 CUS0056946          00200000000000                A GASNOLA                                                                            
013L5020210429001400198765000000126683844900000008500CRESCENT1 CUS0028118          00200000000000                K SALIE                                                                              
013L5020210429001797250068000006203307434500000008500CRESCENT1 CUS0022810          01200000000000                M YUNUS                                                                              
013L5020210429000391470010000000118290162800000008500CRESCENT1 CUS0032996          03000000000000                A LOUW                                                                               
013L5020210429000617632005000000911948102500000008500CRESCENT1 CUS0059449          03492801000617                G GANIEF                                                                             
013L5020210429002221252505000006243022367800000007500CRESCENT1 CUS0052597          01200000000000                S KHAN                                                                               
013L5020210429000232198765000000164433548400000008500CRESCENT1 CUS0037865          00400000000000                M VICTOR FELAAR                                                                      
013L5020210429002287221926000006209333902800000006900CRESCENT1 CUS0031405          01200000000000                A NGUBANE                                                                            
013L5020210429001016198765000000116037901700000008500CRESCENT1 CUS0058273          00200000000000                N ASGHAN                                                                             
013L5020210429002233250655000006272287691100000016000CRESCENT1 CUS0059126          00200000000000                A MAJIET                                                                             
013L5020210429000009251905000006203644118700000025000ABSOLIT   1619530230RMS002    00200000000000                MARY SAMSON                                                                          
013L5020210429001342258623000006220423008100000023500CRESCENT1 CUS0040519          00200000000000                A MANUEL                                                                             
013L5020210429000964203209000006207276170500000023500CRESCENT1 CUS0049531          00200000000000                A MOERAT                                                                             
013L5020210429001226198765000000118755093000000008500CRESCENT1 CUS0058371          00200000000000                B YON                                                                                
013L5020210429000424200510000006052621178900000016000CRESCENT1 CUS0048766          00200000000000                F MIA                                                                                
013L5020210429001457250655000006282518794200000008500CRESCENT1 CUS0059786          00200000000000                S TEMOORE                                                                            
013L5020210429002369250117000005529003286800000031000CRESCENT1 CUS0042746          00200000000000                M OMAR                                                                               
013L5020210429001586250655000006271089752300000008500CRESCENT1 CUS0058670          01200000000000                F ABRAHAMS                                                                           
013L5020210429002026261550000005291007040900000007500CRESCENT1 CUS0023605          00200000000000                A SHAIKHNAG                                                                          
013L5020210429000332198765000000191030345300000008500CRESCENT1 CUS0038198          00600000000000                R HOOSEN                                                                             
013L5020210429000791231002000006262788784900000008500CRESCENT1 CUS0033642          00200000000000                F MAHRI                                                                              
013L5020210429001568198765000000190354876400000007500CRESCENT1 CUS0010242          00200000000000                O GANCHI                                                                             
013L5020210429001711252605000006229266025800000008500CRESCENT1 CUS0046582          00400000000000                A HOOSEN                                                                             
013L5020210429002467250053000006240995577300000008500CRESCENT1 CUS0031790          00200000000000                A DINDAR                                                                             
013L5020210429000584201809000006210714294500000008500CRESCENT1 CUS0048955          00200000000000                S ABRAHAMS                                                                           
013L5020210429000861211517000006203586535400000016000CRESCENT1 CUS0033757          00200000000000                R DOLLEY                                                                             
013L5020210429000556252805000006208747862600000007500CRESCENT1 CUS0057949          00600000000000                N BAYNES                                                                             
013L5020210429002437270324000006216988218300000008500CRESCENT1 CUS0031694          01800000000000                F NAICKER                                                                            
013L5020210429000292261050000006240684644600000008500CRESCENT1 CUS0038000          00200000000000                A DEMAINE                                                                            
013L5020210429001132252505000006229301837300000008500CRESCENT1 CUS0039965          00200000000000                Y LAHER                                                                              
013L5020210429001276204709000006202607511000000008500CRESCENT1 CUS0058392          00400000000000                I MULDER                                                                             
013L5020210429002380201909000006260015034600000008500CRESCENT1 CUS0047984          01200000000000                A CARRIEM                                                                            
013L5020210429000041200607000005046110219300000025000ABSOLIT   1619530230RSG001    00200000000000                SHAREL GAMSU                                                                         
013L5020210429001499198765000000114678027300000008500CRESCENT1 CUS0021330          00200000000000                M RICHARDS                                                                           
013L5020210429002129198765000000113557383200000008500CRESCENT1 CUS0042087          00600000000000                T MAKHANYA                                                                           
013L5020210429001708230102000006213334734500000016000CRESCENT1 CUS0029990          00200000000000                M JACOBS                                                                             
013L5020210429002119051001000000004898692500000016000CRESCENT1 CUS0042078          03400000000000                B KAHN                                                                               
013L5020210429002042201909000006229784217400000008500CRESCENT1 CUS0056916          00400000000000                M ADAMS                                                                              
013L5020210429000932251042000006233413906200000008500CRESCENT1 CUS0039435          00200000000000                Y CASOOJEE                                                                           
013L5020210429002292250655000006279238587700000008500CRESCENT1 CUS0057237          01200000000000                M KHAN                                                                               
013L5020210429001396250655000006277308776500000008500CRESCENT1 CUS0058480          00200000000000                S WITBOOI                                                                            
013L5020210429001762258055000006214454270200000008500CRESCENT1 CUS0030093          01200000000000                F RAHMAN                                                                             
013L5020210429000022252805000006230665481600000025000ABSOLIT   1619530230RDC0001   00200000000000                DANE COOKE                                                                           
013L5020210429000040254205000006223423664500000025000ABSOLIT   1619530230RPM001    03400000000000                PENELOPE MASONTE                                                                     
013L5020210429001958255355000006235618434200000016000CRESCENT1 CUS0036094          00400000000000                F CROMBIE                                                                            
013L5020210429002272200612000006262347288400000008500CRESCENT1 CUS0057230          00200000000000                G WEST                                                                               
013L5020210429000462203109000006262608405800000008500CRESCENT1 CUS0038640          00200000000000                A DAMON                                                                              
013L5020210429001046198765000000110614878900000008500CRESCENT1 CUS0058290          00200000000000                I DAVIDS                                                                             
013L5020210429001706250841000006217903359400000038500CRESCENT1 CUS0010979          00200000000000                I ASVAT                                                                              
013L5020210429001017250655000006272325567700000008500CRESCENT1 CUS0059632          00400000000000                F DAVIDS                                                                             
013L5020210429000405250655000006282548107100000016000CRESCENT1 CUS0053894          01200000000000                M GALLOW                                                                             
013L5020210429001738256955000006234155019400000008500CRESCENT1 CUS0046612          00400000000000                Y CAJEE                                                                              
013L5020210429001942198765000000103290930700000008500CRESCENT1 CUS0056845          00600000000000                M SAYED                                                                              
013L5020210429000713200410000006250954711500000008500CRESCENT1 CUS0044650          00200000000000                A HARTLEY                                                                            
013L5020210429001759203109000006259103032600000008500CRESCENT1 CUS0058770          00200000000000                A VALLIE                                                                             
013L5020210429001454198765000000102535339000000008500CRESCENT1 CUS0050130          02600000000000                N JAFFER                                                                             
013L5020210429002374256755000006232682097600000016000CRESCENT1 CUS0002208          00200000000000                J MOOSA                                                                              
013L5020210429001426250655000006277209357300000008500CRESCENT1 CUS0058493          00400000000000                M ISAACS                                                                             
013L5020210429001266250114000006238834974000000008500CRESCENT1 CUS0058389          00200000000000                M ISMAIL                                                                             
013L5020210429002442210121000006267009185100000016000CRESCENT1 CUS0057340          00200000000000                T DAWJEE                                                                             
013L5020210429001545198765000000243701238900000008500CRESCENT1 CUS0056353          02600000000000                S MILLS                                                                              
013L5020210429001636250537000006234573651800000008500CRESCENT1 CUS0058714          00200000000000                L AUSTIN                                                                             
013L5020210429002355250655000006279654300900000008500CRESCENT1 CUS0014878          00400000000000                K DEWAN                                                                              
013L5020210429001686250805000006204731431500000008500CRESCENT1 CUS0058744          00200000000000                K FRANKS                                                                             
013L5020210429001377261050000006261190126700000008500CRESCENT1 CUS0059769          00200000000000                G METUNE                                                                             
013L5020210429002091250655000006281254352900000008500CRESCENT1 CUS0052421          01200000000000                E KATHIE                                                                             
013L5020210429002073198765000000115668556700000008500CRESCENT1 CUS0059030          00400000000000                R ISMAIL                                                                             
013L5020210429001821198765000000107424653500000007500CRESCENT1 CUS0056743          00200000000000                M ABRAHAMS                                                                           
013L5020210429000911222826000005499732621900000008500CRESCENT1 CUS0033822          00400000000000                M ABOO BAKER                                                                         
013L5020210429000915252355000006243769037500000006900CRESCENT1 CUS0054965          00200000000000                E CASSIM                                                                             
013L5020210429002050252245000006251063424000000016000CRESCENT1 CUS0047399          00200000000000                N MURRAY                                                                             
013L5020210429001252256055000006235777303700000006900CRESCENT1 CUS0040255          00200000000000                S DOLLEY                                                                             
013L5020210429002005255355000006234916722200000008500CRESCENT1 CUS0012708          00200000000000                S ALLI                                                                               
013L5020210429000307250655000006274231454500000008500CRESCENT1 CUS0059367          00400000000000                Z MOSES                                                                              
013L5020210429000877250655000006276264412000000008500CRESCENT1 CUS0059566          00200000000000                S ADAMS                                                                              
013L5020210429001302259605000006215549618800000016000CRESCENT1 CUS0040373          00200000000000                M SUJEE                                                                              
013L5020210429000829260225000006238756639500000008500CRESCENT1 CUS0018371          00600000000000                I KALIL                                                                              
013L5020210429000039470010000000138909396200000025000ABSOLIT   1619530230RLS001    03000000000000                LIANNE STAINBANK                                                                     
013L5020210429002513210651000006243619376800000008500CRESCENT1 CUS0059228          00200000000000                F PANDY                                                                              
013L5020210429001909201109000006234671413300000008500CRESCENT1 CUS0041564          00200000000000                F KHAN                                                                               
013L5020210429000275198765000000111999381400000008500CRESCENT1 CUS0053621          00200000000000                F FRANSMAN                                                                           
013L5020210429002392051001000001008244637500000008500CRESCENT1 CUS0057325          03400000000000                T HENDRICK                                                                           
013L5020210429002592198765000000117124531900000008500CRESCENT1 CUS0057461          00400000000000                L SOLOMONS                                                                           
013L5020210429001784203209000006231072273200000008500CRESCENT1 CUS0051290          00200000000000                A LATIEF                                                                             
013L5020210429000946198765000000119440891500000008500CRESCENT1 CUS0058231          00200000000000                N MOYCE                                                                              
013L5020210429001251250945000006243804187400000022500CRESCENT1 CUS0034286          00200000000000                F ISMAIL                                                                             
013L5020210429000697250555000006235376642400000008500CRESCENT1 CUS0059468          00200000000000                M WILLIAMS                                                                           
013L5020210429001593250655000006210387577200000008500CRESCENT1 CUS0046377          02600000000000                G NAIDOO                                                                             
013L5020210429001108250056000006228635952800000008500CRESCENT1 CUS0007461          00200000000000                Z MATROOS                                                                            
013L5020210429000979198765000000265139567600000016000CRESCENT1 CUS0019065          03000000000000                A ISMAIL                                                                             
013L5020210429001931198765000000114796153000000008500CRESCENT1 CUS0051908          01200000000000                W ABDULLAH                                                                           
014L0000001230000000000000057051953856460000000137110000000000000000                                                                                                                                  
011LD23763200500000040945448920120210504                                                                                                                                                              
013L5020210502000117580105000001001226647800000066000ARM       1619616642R07       00300000000000                THEA RICHTER                                                                         
014L0000000010000000000000000100122664780000000006600000000000000000                                                                                                                                  
011LD23763200500000040945448920120210505                                                                                                                                                              
013L5020210504000003051001000000100011633500000040825SERAPHIM  1619962238O660818   02682502000003                MARTINO FAMILY TRUST                                                                 
014L0000000010000000000000000010001163350000000004082500000000000000                                                                                                                                  
019L0000001340000000000000057900938262590000000159942500000000000000                                                                                                                                  
999L000000156                                                                                                                                                                                         
