000L2021032800000PAYPORT CONSULTING PTY LTD    000069207303                                                                                                                                           
900L000 TRANSMISSION 07303-0000080 ACCEPTED                                                                                                                                                           
900L001 ACB USER SET D237-0000086-000007 ACCEPTED                                                                                                                                                     
903L001L5063200504094544892D23700000105100100023391006100000018900210330350   ARCTICA   1616679010RARCTICA01ROSEBANK DENTAL CERAMICS      00000000000000000000                21                      
903L001L5263200504094544892D23700000263200504094544892100000018900210330100000ARCTICA   CONTRAWD1XC1TPXOK2RG                                                                                          
903L001L5063200504094544892D23700000325065562747289462100000014900210330350   OPECTORWEB1616679013RJOYSPRINGMARGAUX OVERBEEK              00000000000000000000                21                      
903L001L5263200504094544892D23700000463200504094544892100000014900210330100000OPECTORWEBCONTRA9XETIUDZXWAK1P                                                                                          
903L001L5063200504094544892D23700000563200504065239272100000040000210330350   JAMFOX    1616679016RJFMIA8   MARICE RICHER                 00000000000000000000                21                      
903L001L5063200504094544892D23700000663200504086755310100000048000210330350   JAMFOX    1616679016RJFLIENKA1DIANA VILJOEN                 00000000000000000000                21                      
903L001L5263200504094544892D23700000763200504094544892100000088000210330100000JAMFOX    CONTRAIAN28RLLIBLOAC                                                                                          
999L000000011                                                                                                                                                                                         
