000L2020120400000PAYPORT CONSULTING PTY LTD EFT000053107303                                                                                                                                           
010LD237000004901                                                                                                                                                                                     
011LD23763200500000040945448920120201125                                                                                                                                                              
013L5020201124000103051001000001006613295700000008500CRESCENT1 CUS0052501          03000000000000                M ABRAHAMS                                                                           
013L5020201124000509250040000006211468423700000008500CRESCENT1 CUS0056180          03400000000000                S DINATH                                                                             
013L5020201124000566051001000000004192264600000016000CRESCENT1 CUS0056753          03400000000000                A LATEGAN                                                                            
014L0000000030000000000000000722227398400000000003300000000000000000                                                                                                                                  
019L0000000030000000000000000722227398400000000003300000000000000000                                                                                                                                  
999L000000009                                                                                                                                                                                         
