000L2020122300000PAYPORT CONSULTING PTY LTD EFT000055407303                                                                                                                                           
010LD237000005901                                                                                                                                                                                     
011LD23763200500000040945448920120201215                                                                                                                                                              
013L5020201214000116258605000006207346724500000016000CRESCENT1 CUS0017470          00600000000000                A KHAN                                                                               
014L0000000010000000000000000620734672450000000001600000000000000000                                                                                                                                  
011LD23763200500000040945448920120201219                                                                                                                                                              
013L5020201218002314250737000006241781882200000008500CRESCENT1 CUS0043427          00200000000000                R BATA                                                                               
013L5020201218001608198765000000118439753800000006900CRESCENT1 CUS0058925          00200000000000                G LAWRENCE SALIE                                                                     
013L5020201218001301230102000006213334734500000016000CRESCENT1 CUS0029990          03400000000000                M JACOBS                                                                             
013L5020201218002315210651000006213304832300000008500CRESCENT1 CUS0048396          00200000000000                Z KAMALDIEN                                                                          
013L5020201218000597198765000000119440891500000008500CRESCENT1 CUS0058231          00200000000000                N MOYCE                                                                              
013L5020201218001515204209000006236286177800000008500CRESCENT1 CUS0046992          00200000000000                N NORDIEN                                                                            
013L5020201218001369198765000000107424653500000007500CRESCENT1 CUS0056743          00200000000000                M ABRAHAMS                                                                           
013L5020201218000687198765000000110614878900000008500CRESCENT1 CUS0058290          00200000000000                I DAVIDS                                                                             
013L5020201218000926198765000000111530238800000008500CRESCENT1 CUS0040167          03000000000000                R WILLIAMS                                                                           
013L5020201218001595198765000000114654044200000008500CRESCENT1 CUS0047157          00200000000000                S ISKRA                                                                              
013L5020201218001501252155000006209396297800000008500CRESCENT1 CUS0023581          00200000000000                F AKCO                                                                               
013L5020201218002453261050000006240684644600000008500CRESCENT1 CUS0038000          00200000000000                A DEMAINE                                                                            
013L5020201218002396198765000000111999381400000008500CRESCENT1 CUS0053621          00200000000000                F FRANSMAN                                                                           
013L5020201218001048198765000000290362155100000016000CRESCENT1 CUS0009496          01200000000000                R ISSA                                                                               
013L5020201218002133211617000006237372604400000036900CRESCENT1 CUS0037085          00600000000000                J LEON                                                                               
013L5020201218001233250056000006237103808700000008500CRESCENT1 CUS0050403          00200000000000                F RAJAH                                                                              
013L5020201218000770250056000006244778520700000016000CRESCENT1 CUS0020183          01200000000000                A ASVAT                                                                              
013L5020201218000754250655000006274918168200000007500CRESCENT1 CUS0034032          00200000000000                K JOOMA                                                                              
013L5020201218000996198765000000195649275500000008500CRESCENT1 CUS0028107          00200000000000                A CARRIM                                                                             
013L5020201218001397203109000006259103032600000008500CRESCENT1 CUS0058770          00200000000000                A VALLIE                                                                             
013L5020201218000046250741000006211022003500000008500CRESCENT1 CUS0043821          00200000000000                N AZIZ                                                                               
013L5020201218001518250655000006282941585200000008500CRESCENT1 CUS0058872          00200000000000                A JOOMA                                                                              
013L5020201218001887203209000006222149614500000016000CRESCENT1 CUS0057279          00200000000000                M SALIE                                                                              
013L5020201218001831203209000005488003037300000016000CRESCENT1 CUS0024606          00200000000000                A CASKER                                                                             
013L5020201218002296198765000000195660066300000008500CRESCENT1 CUS0053520          00200000000000                I SALIE                                                                              
013L5020201218000851198765000000201098361000000008500CRESCENT1 CUS0020455          00200000000000                F THEBA                                                                              
013L5020201218001289250537000006234573651800000008500CRESCENT1 CUS0058714          00200000000000                L AUSTIN                                                                             
013L5020201218001377250555000006258347842700000016000CRESCENT1 CUS0050913          00200000000000                N JANUARY                                                                            
013L5020201218000626240340000006206313857500000008500CRESCENT1 CUS0019224          00200000000000                N LAHER CASSIM                                                                       
013L5020201218000999252505000006236411321800000016000CRESCENT1 CUS0045759          00200000000000                T ESSOP                                                                              
013L5020201218001213252245000006218618814200000008500CRESCENT1 CUS0035232          00200000000000                S RANDEREE                                                                           
013L5020201218001587252805000006228414935100000008500CRESCENT1 CUS0056882          00200000000000                Z JOHENNESSE                                                                         
013L5020201218000916250945000006243804187400000023500CRESCENT1 CUS0034286          00200000000000                F ISMAIL                                                                             
013L5020201218000849470010000000162698158000000008500CRESCENT1 CUS0058342          03400000000000                J DELPORT                                                                            
013L5020201218000981257705000006236477311100000008500CRESCENT1 CUS0045729          00200000000000                M HADJEE                                                                             
013L5020201218000798250056000006205106645700000008500CRESCENT1 CUS0027481          03600000000000                Z HARPER-VALENTINE                                                                   
013L5020201218000310201109000006253803679100000008500CRESCENT1 CUS0059420          00200000000000                A THEBUS                                                                             
013L5020201218002085198765000000110498367200000008500CRESCENT1 CUS0048056          00200000000000                M DAVIDS                                                                             
013L5020201218001117198765000000102535339000000008500CRESCENT1 CUS0050130          01200000000000                N JAFFER                                                                             
013L5020201218001938198765000000114719804700000008500CRESCENT1 CUS0059152          03000000000000                S BARKATE                                                                            
013L5020201218001837200612000006262347288400000008500CRESCENT1 CUS0057230          00200000000000                G WEST                                                                               
013L5020201218000416200410000006250954711500000008500CRESCENT1 CUS0044650          00200000000000                A HARTLEY                                                                            
013L5020201218002247198765000000202131844300000007500CRESCENT1 CUS0057552          00200000000000                N MOHAMED                                                                            
013L5020201218000885198765000000118755093000000008500CRESCENT1 CUS0058371          00200000000000                B YON                                                                                
013L5020201218001193230102000006220624369400000008500CRESCENT1 CUS0021998          01200000000000                S NAWAZ                                                                              
013L5020201218000175250655000006270700255700000007500CRESCENT1 CUS0038474          03600000000000                Y VANIA                                                                              
013L5020201218000528198765000000118082657400000008500CRESCENT1 CUS0058141          00200000000000                L HENDRICKS                                                                          
013L5020201218002124051001000000000674859700000016000CRESCENT1 CUS0043052          03400000000000                F BEGG                                                                               
013L5020201218002017198765000000105354702100000008500CRESCENT1 CUS0057388          00200000000000                S SMITSDORSS                                                                         
013L5020201218001268255355000006253287129200000008500CRESCENT1 CUS0046420          00200000000000                A HOOSEN                                                                             
013L5020201218001034258623000006220423008100000023500CRESCENT1 CUS0040519          00200000000000                A MANUEL                                                                             
013L5020201218000944250655000006280403561700000008500CRESCENT1 CUS0040227          00200000000000                M SEGUYA                                                                             
013L5020201218001905210046000006237261649400000008500CRESCENT1 CUS0047766          00200000000000                K CRAVEN                                                                             
013L5020201218001185221325000006218582382200000008500CRESCENT1 CUS0029194          00200000000000                A SULIMAN                                                                            
013L5020201218001792230134000005171121458900000008500CRESCENT1 CUS0031234          00200000000000                E HOOSEN                                                                             
013L5020201218000557198765000000208336677800000007500CRESCENT1 CUS0054916          00200000000000                M WILLIAMS                                                                           
013L5020201218000287201809000006210714294500000008500CRESCENT1 CUS0048955          00200000000000                S ABRAHAMS                                                                           
013L5020201218000126201909000006217999327700000008500CRESCENT1 CUS0043920          00200000000000                F LAYMAN                                                                             
013L5020201218001081198765000000106355238900000008500CRESCENT1 CUS0050076          00200000000000                S FAKIER                                                                             
013L5020201218000451260225000006238756639500000008500CRESCENT1 CUS0018371          00600000000000                I KALIL                                                                              
013L5020201218000426270350000006237724441400000016000CRESCENT1 CUS0044685          00200000000000                M MOMLA                                                                              
013L5020201218001910198765000000107717815800000016000CRESCENT1 CUS0014768          03000000000000                I MPHAGI                                                                             
013L5020201218000386198765000000295250144000000008500CRESCENT1 CUS0044612          00200000000000                I JOOSUB                                                                             
013L5020201218001418210007000006230205385600000016000CRESCENT1 CUS0030413          00200000000000                M GOVENDER                                                                           
013L5020201218000703200109000006208041105300000008500CRESCENT1 CUS0049569          00200000000000                R MARTIN                                                                             
013L5020201218001959198765000000123401434300000031000CRESCENT1 CUS0002362          03000000000000                B AKOOJEE                                                                            
013L5020201218002117198765000000116923854800000016000CRESCENT1 CUS0057473          00200000000000                R JACOBS                                                                             
013L5020201218000844051001000000005226658300000016000CRESCENT1 CUS0034130          03200000000000                M DESAI                                                                              
013L5020201218001495255355000006244498977900000016000CRESCENT1 CUS0046966          01200000000000                A SADER                                                                              
013L5020201218000460254205000006229521301200000008500CRESCENT1 CUS0006368          00200000000000                T MOHAMED                                                                            
013L5020201218000795250655000006283300683700000008500CRESCENT1 CUS0058328          00200000000000                M BENJAMIN                                                                           
013L5020201218000742051001000000022008344400000008500CRESCENT1 CUS0007850          03000000000000                F PATEL                                                                              
013L5020201218001058198765000000114678027300000008500CRESCENT1 CUS0021330          00200000000000                M RICHARDS                                                                           
013L5020201218000627198765000000256005214800000008500CRESCENT1 CUS0027005          00200000000000                Z RAWAT                                                                              
013L5020201218000595200410000006266262747400000008500CRESCENT1 CUS0049399          00200000000000                S ABRAHAMS                                                                           
013L5020201218000054211517000006222829405500000016000CRESCENT1 CUS0032932          00200000000000                B AJAM                                                                               
013L5020201218001883250641000006222636432100000008500CRESCENT1 CUS0036616          00200000000000                I BAYAT                                                                              
013L5020201218000008250655000006275877490700000008500CRESCENT1 CUS0053786          00200000000000                F TITUS                                                                              
013L5020201218000903198765000000116504981300000016000CRESCENT1 CUS0058386          00200000000000                J JAFTHA                                                                             
013L5020201218000585250737000006251294457200000008500CRESCENT1 CUS0044930          00200000000000                R MAKDA                                                                              
013L5020201218000836252505000006229301837300000008500CRESCENT1 CUS0039965          00200000000000                Y LAHER                                                                              
013L5020201218001191255355000006265517993700000008500CRESCENT1 CUS0058656          03400000000000                J PHILANDER                                                                          
013L5020201218001438051001000000007026795200000016000CRESCENT1 CUS0041327          03400000000000                M ADAMS                                                                              
013L5020201218002384204709000006213429869600000008500CRESCENT1 CUS0043507          00200000000000                F SHABOODIEN                                                                         
013L5020201218001329250655000006269900729300000016000CRESCENT1 CUS0035487          01200000000000                M MADAREE                                                                            
013L5020201218001967198765000000104666545600000016000CRESCENT1 CUS0057335          00200000000000                A EDERIES                                                                            
013L5020201218001299051001000000020772486500000008500CRESCENT1 CUS0011101          03000000000000                T ISMAIL                                                                             
013L5020201218001715254205000006207808001800000007500CRESCENT1 CUS0047435          00200000000000                Z BUX                                                                                
013L5020201218001090250655000006286358976200000008500CRESCENT1 CUS0050108          00200000000000                G BRUNNER                                                                            
013L5020201218000213253605000006211033693100000016000CRESCENT1 CUS0026365          00600000000000                F ABDUL HABIB                                                                        
013L5020201218001657255355000006265908484300000008500CRESCENT1 CUS0056954          00200000000000                M THEBUS                                                                             
013L5020201218001966051001000001004850697200000016000CRESCENT1 CUS0052873          03600000000000                M POVIE                                                                              
013L5020201218001169198765000000101886620500000008500CRESCENT1 CUS0040774          00200000000000                B ABRAHAMS                                                                           
013L5020201218001244250655000006271089752300000008500CRESCENT1 CUS0058670          01200000000000                F ABRAHAMS                                                                           
013L5020201218000676250114000006260868385200000016000CRESCENT1 CUS0049545          01200000000000                D FORTUNE                                                                            
013L5020201218000393221626000006202480735900000008500CRESCENT1 CUS0026690          00200000000000                F MAHOMED                                                                            
013L5020201218001145198765000000243701238900000008500CRESCENT1 CUS0056353          02600000000000                S MILLS                                                                              
013L5020201218002067198765000000119008792800000008500CRESCENT1 CUS0057431          00200000000000                I DAVIDS                                                                             
013L5020201218000058250655000006282548107100000016000CRESCENT1 CUS0053894          01200000000000                M GALLOW                                                                             
013L5020201218000660198765000000116037901700000008500CRESCENT1 CUS0058273          00200000000000                N ASGHAN                                                                             
013L5020201218000382250056000006219787085300000008500CRESCENT1 CUS0018151          00600000000000                Z BOUGAARD                                                                           
013L5020201218001441198765000000105827467800000008500CRESCENT1 CUS0056799          00200000000000                A STEMMET                                                                            
013L5020201218000882259605000006241323478300000008500CRESCENT1 CUS0045547          00200000000000                F MIA                                                                                
013L5020201218001281250841000006217903359400000038500CRESCENT1 CUS0010979          00200000000000                I ASVAT                                                                              
013L5020201218001706250655000006281254352900000008500CRESCENT1 CUS0052421          01200000000000                E KATHIE                                                                             
013L5020201218001998250655000006271476686500000008500CRESCENT1 CUS0059162          00200000000000                Z LAGARDIEN                                                                          
013L5020201218000031250655000006205235492600000008500CRESCENT1 CUS0004420          02600000000000                Y JAPPIE                                                                             
013L5020201218000701198765000000203405925500000008500CRESCENT1 CUS0039534          02600000000000                A BASSA                                                                              
013L5020201218002036250141000006251464655600000008500CRESCENT1 CUS0052995          01800000000000                A NAIDOO                                                                             
013L5020201218001626198765000000112234261600000008500CRESCENT1 CUS0052135          00200000000000                H HASSEN                                                                             
013L5020201218000021251742000006260498205000000008500CRESCENT1 CUS0004359          00200000000000                A ELLEMDEEN                                                                          
013L5020201218001743253442000006227946913600000023500CRESCENT1 CUS0036416          00200000000000                A LEBELOANE                                                                          
013L5020201218001856252505000006243022367800000007500CRESCENT1 CUS0052597          01200000000000                S KHAN                                                                               
013L5020201218001168252505000006223742706900000008500CRESCENT1 CUS0035186          00200000000000                F SHAIK                                                                              
013L5020201218001663252245000006206943144400000008500CRESCENT1 CUS0036170          00200000000000                A YUSUFU                                                                             
013L5020201218002158250655000006283797587200000008500CRESCENT1 CUS0059205          00200000000000                Y MOHAMAD                                                                            
013L5020201218001101198765000000118083489500000008500CRESCENT1 CUS0058530          00200000000000                M PARKER                                                                             
013L5020201218002015201909000006260015034600000008500CRESCENT1 CUS0047984          01200000000000                A CARRIEM                                                                            
013L5020201218001014198765000000126683844900000008500CRESCENT1 CUS0028118          00200000000000                K SALIE                                                                              
013L5020201218000809201409000005835112985500000023500CRESCENT1 CUS0039866          00200000000000                N ARENDSE                                                                            
013L5020201218001279198765000000118032625300000008500CRESCENT1 CUS0056587          00200000000000                Z BAREDOEN                                                                           
013L5020201218001482051001000000006216913000000008500CRESCENT1 CUS0030495          03600000000000                B KHAN                                                                               
013L5020201218001972051001000000005053833000000008500CRESCENT1 CUS0031656          03000000000000                V DAWOOD                                                                             
013L5020201218001930252245000006247797485400000016000CRESCENT1 CUS0014852          00200000000000                A KHAN                                                                               
013L5020201218000667255355000006236923854000000016000CRESCENT1 CUS0049541          00200000000000                M CARRIEM                                                                            
013L5020201218000078255355000006250187062100000008500CRESCENT1 CUS0053926          01200000000000                G EBRAHIEM                                                                           
013L5020201218001346258055000006214454270200000008500CRESCENT1 CUS0030093          01200000000000                F RAHMAN                                                                             
013L5020201218002399250737000006201929838100000023500CRESCENT1 CUS0004228          00200000000000                A MANACK                                                                             
013L5020201218001507198765000000103290930700000008500CRESCENT1 CUS0056845          00600000000000                M SAYED                                                                              
013L5020201218000389198765000000118305275800000008500CRESCENT1 CUS0058107          00200000000000                A BAKER                                                                              
013L5020201218000599198765000000265139567600000016000CRESCENT1 CUS0019065          00200000000000                A ISMAIL                                                                             
013L5020201218002452250237000006246187981200000016000CRESCENT1 CUS0032811          00200000000000                H BHANA                                                                              
013L5020201218002107198765000000117124531900000008500CRESCENT1 CUS0057461          00200000000000                L SOLOMONS                                                                           
013L5020201218000179252805000006208747862600000007500CRESCENT1 CUS0057949          00600000000000                N BAYNES                                                                             
013L5020201218001363252505000006239686280900000008500CRESCENT1 CUS0023029          00200000000000                Y PILLAR                                                                             
013L5020201218000930204709000006202607511000000008500CRESCENT1 CUS0058392          00200000000000                I MULDER                                                                             
013L5020201218002345203109000006235989041700000008500CRESCENT1 CUS0048423          00200000000000                S SILWARY                                                                            
013L5020201218001893201909000006209470569000000008500CRESCENT1 CUS0036622          00200000000000                M SIVES                                                                              
013L5020201218001852221926000006209333902800000006900CRESCENT1 CUS0031405          01200000000000                A NGUBANE                                                                            
013L5020201218000749250056000006246014319300000008500CRESCENT1 CUS0055549          00200000000000                B ISMAIL                                                                             
013L5020201218000107198765000000113029555900000008500CRESCENT1 CUS0048732          00200000000000                B KETI                                                                               
013L5020201218001333198765000000113915650000000008500CRESCENT1 CUS0056709          00200000000000                Z ABRAHAMS                                                                           
013L5020201218001928198765000000115953655400000008500CRESCENT1 CUS0059143          00200000000000                N MILAZI                                                                             
013L5020201218001503198765000000102923758100000031000CRESCENT1 CUS0035932          00200000000000                I MANTOOR                                                                            
013L5020201218001113051001000000002324403800000008500CRESCENT1 CUS0028861          03400000000000                N EBRAHIM                                                                            
013L5020201218002156254605000006240538190600000008500CRESCENT1 CUS0053200          00200000000000                I BELIM                                                                              
013L5020201218001611252245000005529069602800000008500CRESCENT1 CUS0023943          00200000000000                N MAHOMED                                                                            
013L5020201218001880257705000006240912242100000008500CRESCENT1 CUS0014623          00200000000000                S BUTLER                                                                             
014L0000001480000000000000057876527201540000000162770000000000000000                                                                                                                                  
019L0000001490000000000000058497261873990000000164370000000000000000                                                                                                                                  
999L000000157                                                                                                                                                                                         
