000L2021022000000PAYPORT CONSULTING PTY LTD EFT000063907303                                                                                                                                           
010LD237000012501                                                                                                                                                                                     
011LD23763200500000040945448920120210130                                                                                                                                                              
013L5020210129001919470010000000147582654900000008500CRESCENT1 CUS0050925          03400000000000                R NAIDOO                                                                             
013L5020210129001453470010000000160400819700000008500CRESCENT1 CUS0058395          03400000000000                A DAMONS                                                                             
014L0000000020000000000000000030798347460000000001700000000000000000                                                                                                                                  
011LD23763200500000040945448920120210201                                                                                                                                                              
013L5020210130000014258605000006234780701000000018900ARCTICA   1611840617RARCTICA0103400000000000                THE NOT SO STARVING ARTIST                                                           
014L0000000010000000000000000623478070100000000001890000000000000000                                                                                                                                  
011LD23763200500000040945448920120210216                                                                                                                                                              
013L5020210215001135198765000000116985264500000008500CRESCENT1 CUS0056863          00200000000000                S WALTERS                                                                            
013L5020210215000157260849000006201462806200000008500CRESCENT1 CUS0034127          00200000000000                A ROSENBERG                                                                          
013L5020210215000880198765000000164202031100000008500CRESCENT1 CUS0055728          00200000000000                N BAWA                                                                               
013L5020210215000717198765000000114789099400000006900CRESCENT1 CUS0040406          00200000000000                E MOYA                                                                               
013L5020210215000090198765000000116495846100000008500CRESCENT1 CUS0057739          00200000000000                R SAMSODIEN                                                                          
013L5020210215000357198765000000290520782500000008500CRESCENT1 CUS0036862          00200000000000                A ISAACS                                                                             
014L0000000060000000000000000700445582980000000004940000000000000000                                                                                                                                  
011LD23763200500000040945448920120210220                                                                                                                                                              
013L5020210219000077051001000001000711236200000008500CRESCENT1 CUS0037996          02682502000077                F ABRAHAMS                                                                           
013L5020210219000140250655000000106270751600000008500CRESCENT1 CUS0043342          02682502000140                M NADAT                                                                              
013L5020210219000370632005000000938598964000000008500CRESCENT1 CUS0055116          02683002000370                S KHAN                                                                               
013L5020210219000029632005000000158107267800000008500CRESCENT1 CUS0033962          02683002000029                M CASSIM                                                                             
013L5020210219000126632005000000919508081500000008500CRESCENT1 CUS0041892          02682502000126                R DAWOOD                                                                             
013L5020210219000040470010000000154458589200000016000CRESCENT1 CUS0058410          02682502000040                A SMITH                                                                              
013L5020210219000117470010000000013394046500000008500CRESCENT1 CUS0041362          02682502000117                I BEUKMAN                                                                            
013L5020210219000094632005000000504887133800000008500CRESCENT1 CUS0059172          02683002000094                W ABDURAHMAN                                                                         
014L0000000080000000000000000379593607060000000007550000000000000000                                                                                                                                  
019L0000000170000000000000001734315607600000000016080000000000000000                                                                                                                                  
999L000000029                                                                                                                                                                                         
