000L2020102400000PAYPORT CONSULTING PTY LTD EFT000047607303                                                                                                                                           
010LD237000002401                                                                                                                                                                                     
011LD23763200500000040945448920120201021                                                                                                                                                              
013L5020201020000196198765000000195346720200000008500CRESCENT1 1603195657OCUS00054103000000000000                M ALLY                                                                               
013L5020201020000247260548000006250867196500000008500CRESCENT1 1603195658OCUS00517200200000000000                A SOLOMON                                                                            
013L5020201020000249203209000006237535191400000008500CRESCENT1 1603195658OCUS00517900200000000000                W BROWN                                                                              
013L5020201020000235250737000006248341203800000008500CRESCENT1 1603195658OCUS00513000200000000000                M NAIDOO                                                                             
013L5020201020000212255355000006242970304500000008500CRESCENT1 1603195657OCUS00070003400000000000                S MOHAMED                                                                            
013L5020201020000082250805000006233333468900000008500CRESCENT1 1603195657OCUS00422601200000000000                I LAWRENCE                                                                           
013L5020201020000152051001000000040187631400000008500CRESCENT1 1603195658OCUS00483603400000000000                Z MAYNER                                                                             
013L5020201020000313051001000000040429113900000008500CRESCENT1 1603195658OCUS00544903400000000000                R HARRIS                                                                             
013L5020201020000125256055000006234793588700000008500CRESCENT1 1603195658OCUS00454801200000000000                M ABDUL JABAR                                                                        
013L5020201020000379204709000006207100870200000008500CRESCENT1 1603195658OCUS00561200200000000000                S SHABODIEN PHILANDER                                                                
013L5020201020000122251905000006203809286300000008500CRESCENT1 1603195658OCUS00452500200000000000                M DUNN                                                                               
013L5020201020000026250655000006283028933700000016000CRESCENT1 1603195658OCUS00583501200000000000                K WILLIAMS                                                                           
013L5020201020000157255355000006257476487700000008500CRESCENT1 1603195658OCUS00486700600000000000                S GANIEF                                                                             
013L5020201020000335200410000006267004297900000008500CRESCENT1 1603195658OCUS00548800200000000000                A ABRAHAMS                                                                           
013L5020201020000166250056000006218583294800000008500CRESCENT1 1603195656OCUS00024901200000000000                A HARTMANN                                                                           
013L5020201020000050250655000006277211227400000008500CRESCENT1 1603195658OCUS00587601200000000000                C MILANZI                                                                            
013L5020201020000006198765000000104517493900000008500CRESCENT1 1603195658OCUS00580300200000000000                I ABRAHAMS                                                                           
013L5020201020000347051001000000024185798800000008500CRESCENT1 1603195658OCUS00551003600000000000                J FREDERICKS                                                                         
013L5020201020000385250655000006278657504600000008500CRESCENT1 1603195658OCUS00561700600000000000                I SHAIKHNAG                                                                          
013L5020201020000182255355000006229320863500000008500CRESCENT1 1603195657OCUS00041401200000000000                R HARTLEY                                                                            
013L5020201020000124250805000005448901299600000008500CRESCENT1 1603195658OCUS00453603400000000000                M JOOMA                                                                              
013L5020201020000087250655000006278205397100000008500CRESCENT1 1603195657OCUS00428300200000000000                F MACFARY                                                                            
014L0000000220000000000000010580180717480000000019450000000000000000                                                                                                                                  
019L0000000220000000000000010580180717480000000019450000000000000000                                                                                                                                  
999L000000028                                                                                                                                                                                         
