000L2021033100000PAYPORT CONSULTING PTY LTD EFT000069607303                                                                                                                                           
010LD237000017201                                                                                                                                                                                     
011LD23763200500000040945448920120210225                                                                                                                                                              
013L5020210224000525470010000000113721278900000008500CRESCENT1 CUS0059363          03400000000000                F DAVIDS                                                                             
014L0000000010000000000000000011372127890000000000850000000000000000                                                                                                                                  
011LD23763200500000040945448920120210227                                                                                                                                                              
013L5020210226005836470010000000118969076200000008500CRESCENT1 CUS0053930          03400000000000                I RAYEPEN-ESS                                                                        
013L5020210226002149210517000006259396758500000016000CRESCENT1 CUS0049198          03400000000000                K HARRISON                                                                           
014L0000000020000000000000000637836583470000000002450000000000000000                                                                                                                                  
011LD23763200500000040945448920120210325                                                                                                                                                              
013L5020210324000197051001000000000252347700000008500CRESCENT1 CUS0043668          03400000000000                Y RASUL                                                                              
014L0000000010000000000000000000025234770000000000850000000000000000                                                                                                                                  
011LD23763200500000040945448920120210326                                                                                                                                                              
013L5020210325001753051001000000002912886200000008500CRESCENT1 CUS0016153          03000000000000                R JALAL                                                                              
013L5020210325001532198765000000115788060600000008500CRESCENT1 CUS0058411          00200000000000                M ABDOL                                                                              
013L5020210325002747470010000000159030660900000008500CRESCENT1 CUS0059161          03000000000000                R AUGUST                                                                             
013L5020210325003030470010000000154310630500000008500CRESCENT1 CUS0055545          03000000000000                K SMITH                                                                              
013L5020210325001396198765000000109039705400000008500CRESCENT1 CUS0056700          00200000000000                F BETHANE                                                                            
013L5020210325002311198765000000115225229100000008500CRESCENT1 CUS0057061          00200000000000                R MACK                                                                               
013L5020210325000499252505000006222985687000000008500CRESCENT1 CUS0005597          03400000000000                A KHAN                                                                               
013L5020210325002070198765000000104319532700000008500CRESCENT1 CUS0054841          00200000000000                R ACHMAT                                                                             
013L5020210325002684580105000001001140826400000008500CRESCENT1 CUS0018278          00400000000000                E MOOSA                                                                              
013L5020210325003045204209000006208595765600000008500CRESCENT1 CUS0055546          03400000000000                M ADAMS                                                                              
014L0000000100000000000000001419334898440000000008500000000000000000                                                                                                                                  
011LD23763200500000040945448920120210331                                                                                                                                                              
013L5020210330001738198765000000302389495300000008500CRESCENT1 CUS0046018          02682502001738                T BALLIM                                                                             
013L5020210330000516632005000000927559419100000016000CRESCENT1 CUS0032909          02683002000516                J SEETHAL                                                                            
013L5020210330002239250655000006233358449100000008500CRESCENT1 CUS0024351          02682502002239                N MOOSAJEE                                                                           
013L5020210330000577470010000000127138661700000007500CRESCENT1 CUS0038250          02682502000577                A MOHAMED                                                                            
013L5020210330002277250655000006252677740100000008500CRESCENT1 CUS0001274          02682502002277                K MOHAMED                                                                            
013L5020210330002271198765000006257428456000000007500CRESCENT1 CUS0036230          02682502002271                S MUHAMMAD                                                                           
013L5020210330000322223626000000210952152000000008500CRESCENT1 CUS0059074          02682502000322                L SAULS                                                                              
013L5020210330002268051001000000020207834600000008500CRESCENT1 CUS0013923          02682502002268                S KAJEE                                                                              
013L5020210330000236632005000000912784212400000007500CRESCENT1 CUS0032164          02682502000236                M PRINCE                                                                             
013L5020210330002395470010000001561145095000000008500CRESCENT1 CUS0056711          02682502002395                S FICKS                                                                              
013L5020210330000635250655000006213593727000000008500CRESCENT1 CUS0026277          02682502000635                N JALIEL                                                                             
013L5020210330001238198765000000100846582500000008500CRESCENT1 CUS0045015          02682502001238                F ADAMS                                                                              
013L5020210330002041632005000000449941970700000008500CRESCENT1 CUS0035813          02683002002041                F BHARDU                                                                             
013L5020210330001678051001000000042225031000000008500CRESCENT1 CUS0045826          02682502001678                S RENFURM                                                                            
013L5020210330001969632005000000404755286900000007500CRESCENT1 CUS0050254          02682502001969                I SYDOW                                                                              
013L5020210330002511250655000000508710892200000008500CRESCENT1 CUS0036735          02682502002511                S MORAT                                                                              
013L5020210330000275632005000000918304077000000008500CRESCENT1 CUS0025404          02683002000275                R ABRAHAMS                                                                           
013L5020210330002352051001000000011497065400000008500CRESCENT1 CUS0041856          02682502002352                R JEEWA                                                                              
013L5020210330001298250655000000127327521500000007500CRESCENT1 CUS0045110          02682502001298                B MOHAMMED                                                                           
013L5020210330000787470010000000014199597900000008500CRESCENT1 CUS0038829          02682502000787                Y GAMA                                                                               
013L5020210330001950250655000006208972578200000008500CRESCENT1 CUS0046450          02682502001950                N KHAN                                                                               
013L5020210330001257051001000000100308217100000016000CRESCENT1 CUS0039651          02682502001257                B MITCHELLE                                                                          
013L5020210330002248632005000000919043848700000008500CRESCENT1 CUS0013839          02682502002248                H FRANKS                                                                             
013L5020210330001420470010000000101612805000000008500CRESCENT1 CUS0054910          02682502001420                S SOLOMON                                                                            
013L5020210330001345632005000000910279301900000023500CRESCENT1 CUS0027853          02682502001345                E MONKHE                                                                             
013L5020210330002514470010000000119234193900000016000CRESCENT1 CUS0052282          02682502002514                A SMITH                                                                              
013L5020210330000475250655000006225455928900000008500CRESCENT1 CUS0025930          02682502000475                Y SEEDAT                                                                             
013L5020210330001677632005000000917463260500000031000CRESCENT1 CUS0040673          02682502001677                A EVANS                                                                              
013L5020210330001483198765000000108195326300000008500CRESCENT1 CUS0009097          02682502001483                F OMAR                                                                               
013L5020210330001886632005000000918861781600000008500CRESCENT1 CUS0041004          02682502001886                J ABDUL                                                                              
013L5020210330002543250655000006225062438500000016000CRESCENT1 CUS0047690          02682502002543                I ASCHENDORF                                                                         
013L5020210330001375250655000006263142907200000008500CRESCENT1 CUS0027934          02682502001375                N MOGOTSI                                                                            
013L5020210330000976632005000000092686866300000008500CRESCENT1 CUS0033712          02682502000976                L BODIBA                                                                             
013L5020210330001496430000000001221323412300000008500CRESCENT1 CUS0034409          02682502001496                M TEST                                                                               
013L5020210330002460632005000000905134146800000008500CRESCENT1 CUS0031526          02683002002460                M ADAM                                                                               
013L5020210330000268198765000000101014142800000016000CRESCENT1 CUS0043083          02682502000268                N MOOI                                                                               
013L5020210330001725051001000000065428087300000008500CRESCENT1 CUS0029287          02682502001725                N MATAMBO                                                                            
014L0000000370000000000000006300026251070000000038450000000000000000                                                                                                                                  
019L0000000510000000000000008368595095640000000051100000000000000000                                                                                                                                  
999L000000065                                                                                                                                                                                         
