000L2021033000000PAYPORT CONSULTING PTY LTD EFT000069407303                                                                                                                                           
010LD237000017101                                                                                                                                                                                     
011LD23763200500000040945448920120210227                                                                                                                                                              
013L5020210226003252470010000000151496021200000008500CRESCENT1 CUS0056628          03000000000000                Z MEYER                                                                              
013L5020210226004852470010000000147147239400000006900CRESCENT1 CUS0057018          03400000000000                F EVANS                                                                              
013L5020210226004409051001000000000674859700000016000CRESCENT1 CUS0043052          03600000000000                F BEGG                                                                               
014L0000000030000000000000000029931812030000000003140000000000000000                                                                                                                                  
011LD23763200500000040945448920120210325                                                                                                                                                              
013L5020210324000504198765000000105827467800000008500CRESCENT1 CUS0056799          00200000000000                A STEMMET                                                                            
013L5020210324000779198765000000104559817800000008500CRESCENT1 CUS0050898          00200000000000                M VRACHEN                                                                            
013L5020210324000312470010000000137726598400000008500CRESCENT1 CUS0054865          03000000000000                M DE JONGH                                                                           
013L5020210324000333051001000000000905896600000008500CRESCENT1 CUS0055033          03000000000000                A GOOLAM                                                                             
014L0000000040000000000000000034901978060000000003400000000000000000                                                                                                                                  
011LD23763200500000040945448920120210326                                                                                                                                                              
013L5020210325002640201009000006260512028700000008500CRESCENT1 CUS0055203          00200000000000                M GAMIET                                                                             
013L5020210325001097250555000006240400573900000008500CRESCENT1 CUS0058208          03600000000000                A NORDIEN                                                                            
013L5020210325003616250655000006274093185400000016000CRESCENT1 CUS0057596          01200000000000                A NAHAS                                                                              
013L5020210325001557250737000006226019467700000008500CRESCENT1 CUS0014579          00600000000000                A ISMAIL                                                                             
013L5020210325002732250655000006274784238500000008500CRESCENT1 CUS0059156          00400000000000                R ALLISON                                                                            
013L5020210325000687255355000006259230026500000008500CRESCENT1 CUS0053546          01200000000000                H JACOBS                                                                             
013L5020210325003079252245000006052913544900000016000CRESCENT1 CUS0002431          00200000000000                Y ESSOP                                                                              
013L5020210325000359201709000006211023601600000008500CRESCENT1 CUS0057832          00200000000000                F SAKIELDIEN                                                                         
013L5020210325000782198765000000119216281100000008500CRESCENT1 CUS0058063          00200000000000                A ISAACS                                                                             
013L5020210325000344201509000006207102768700000008500CRESCENT1 CUS0057803          00200000000000                B PARKER                                                                             
013L5020210325001651222019000006260019996400000008500CRESCENT1 CUS0056771          00200000000000                H DEABRUYN                                                                           
013L5020210325002048252245000006052916078500000016000CRESCENT1 CUS0007704          00200000000000                I JAFFER                                                                             
013L5020210325002192255355000006237749097600000008500CRESCENT1 CUS0058804          00200000000000                A ARIEFDIEN                                                                          
013L5020210325001246250655000006275531888100000008500CRESCENT1 CUS0056633          00200000000000                A DOLLIE                                                                             
013L5020210325000165250655000006276930157500000008500CRESCENT1 CUS0059454          00200000000000                A HENDRICKS                                                                          
013L5020210325003368051001000000001015553800000008500CRESCENT1 CUS0008199          03600000000000                K RASSOOL                                                                            
013L5020210325001252251337000006264238449000000008500CRESCENT1 CUS0005887          00200000000000                M DASOO                                                                              
013L5020210325002474251545000006209189960200000008500CRESCENT1 CUS0018243          00600000000000                H MAHOMED                                                                            
013L5020210325000632258605000006212188850900000008500CRESCENT1 CUS0002853          00200000000000                U SULIMAN                                                                            
013L5020210325000352250056000006217081817700000008500CRESCENT1 CUS0010067          00200000000000                M ESSAK                                                                              
013L5020210325001037201409000006260536854800000016000CRESCENT1 CUS0058203          01200000000000                H MCCABE                                                                             
013L5020210325001111198765000000106698444100000008500CRESCENT1 CUS0056585          00200000000000                S HASSEN                                                                             
013L5020210325000308252245000006200819527500000008500CRESCENT1 CUS0011601          01200000000000                Z PATEL                                                                              
013L5020210325001367250655000006273896909900000008500CRESCENT1 CUS0058286          00200000000000                I DOLLIE                                                                             
013L5020210325003752250655000006282077762300000016000CRESCENT1 CUS0059404          00200000000000                T ARENDS                                                                             
013L5020210325002716198765000000117649942400000008500CRESCENT1 CUS0057196          00200000000000                I WILLIAMS                                                                           
013L5020210325000381198765000000296544662100000008500CRESCENT1 CUS0008530          01200000000000                A SAMUELS                                                                            
013L5020210325003645200311000006249917021600000008500CRESCENT1 CUS0055858          01200000000000                Y ABRAHAMS                                                                           
013L5020210325000283250655000006276003764000000008500CRESCENT1 CUS0056036          00200000000000                A KHAN                                                                               
013L5020210325002790250655000006276073614300000008500CRESCENT1 CUS0055348          01200000000000                R WILLIAMS                                                                           
013L5020210325001035254405000006209556614000000008500CRESCENT1 CUS0053860          01200000000000                D HARTNEY                                                                            
013L5020210325003499460005000000004912456400000008500CRESCENT1 CUS0002601          00600000000000                M KALICK                                                                             
013L5020210325001723460005000000007669579300000016000CRESCENT1 CUS0016149          02600000000000                F BUX                                                                                
013L5020210325000072200510000006227272312500000008500CRESCENT1 CUS0053154          00200000000000                F LOUBSCHER                                                                          
013L5020210325003060250056000006246014319300000008500CRESCENT1 CUS0055549          00200000000000                B ISMAIL                                                                             
013L5020210325003301250040000006234877887200000008500CRESCENT1 CUS0057489          03600000000000                S GRIFFITHE                                                                          
013L5020210325000800230436000006202027146700000008500CRESCENT1 CUS0002913          00200000000000                M LATIB                                                                              
013L5020210325003342198765000000198453667200000008500CRESCENT1 CUS0015226          00200000000000                A SHAIK                                                                              
013L5020210325003405260546000006264401849300000016000CRESCENT1 CUS0055706          01200000000000                M KHAN                                                                               
013L5020210325000827250655000006268998089700000008500CRESCENT1 CUS0058109          03600000000000                L VAN REENEN                                                                         
013L5020210325000343255355000006257476487700000008500CRESCENT1 CUS0056074          01200000000000                F GANIEF                                                                             
013L5020210325000502255355000006244560000100000008500CRESCENT1 CUS0010187          00600000000000                F BAYAT                                                                              
013L5020210325001863250942000006207028419700000008500CRESCENT1 CUS0000510          00200000000000                J PIENAAR                                                                            
013L5020210325002490250141000006252338241400000008500CRESCENT1 CUS0055113          00400000000000                A REEVE                                                                              
013L5020210325003435250655000006277422879800000016000CRESCENT1 CUS0055722          00200000000000                L PATEL                                                                              
013L5020210325000508198765000000112867325800000008500CRESCENT1 CUS0056179          00200000000000                D HARE                                                                               
013L5020210325002761198765000000101561434500000008500CRESCENT1 CUS0057206          00400000000000                S HENDRICKS                                                                          
013L5020210325002517250141000006201115931700000008500CRESCENT1 CUS0014932          00200000000000                G RICHARDS                                                                           
013L5020210325003000210046000006255853139100000008500CRESCENT1 CUS0055510          00200000000000                N HENDRICKS                                                                          
013L5020210325002749198765000000174129765600000016000CRESCENT1 CUS0002318          03000000000000                F MINTY                                                                              
013L5020210325001474701505000001155100698300000008500CRESCENT1 CUS0001900          01200000000000                F AKHALWAYA                                                                          
013L5020210325000076701505000000115518002000000008500CRESCENT1 CUS0001381          03600000000000                E EBRAHIM                                                                            
013L5020210325003137051001000001013633186400000008500CRESCENT1 CUS0059309          03400000000000                M MOHAMED                                                                            
013L5020210325002583251705000005051906753800000007500CRESCENT1 CUS0000790          00600000000000                A ADAMS                                                                              
013L5020210325000961250655000006274995042500000016000CRESCENT1 CUS0056503          01200000000000                S DA SILVER                                                                          
013L5020210325000881198765000000257419183800000016000CRESCENT1 CUS0011844          02600000000000                N HARTLEY                                                                            
013L5020210325001582198765000000261606781100000016000CRESCENT1 CUS0006024          02600000000000                A HASSIM                                                                             
013L5020210325001305250141000006210045984200000008500CRESCENT1 CUS0054189          00200000000000                A KHAN                                                                               
013L5020210325001726250655000006272829696500000008500CRESCENT1 CUS0056798          00600000000000                Z WILLIAMS                                                                           
013L5020210325000527250737000006202945579900000023500CRESCENT1 CUS0002821          00200000000000                F MAHOMED                                                                            
013L5020210325002130254005000006005116163100000008500CRESCENT1 CUS0054895          01800000000000                N ABRAHAMS                                                                           
013L5020210325000240250655000006284494986000000016000CRESCENT1 CUS0059479          00200000000000                S WILLIAMS                                                                           
013L5020210325002282250655000006282941585200000008500CRESCENT1 CUS0058872          00200000000000                A JOOMA                                                                              
013L5020210325003810201109000006246980383900000008500CRESCENT1 CUS0055908          01200000000000                M ABRAHAMS                                                                           
013L5020210325003483200607000006201616385000000023500CRESCENT1 CUS0001169          03000000000000                A SOLOMON                                                                            
013L5020210325003061201109000006215388948400000008500CRESCENT1 CUS0057343          00200000000000                A OMARY                                                                              
013L5020210325002459198765000000284403161700000008500CRESCENT1 CUS0018242          02600000000000                M CARRIM                                                                             
013L5020210325002872198765000000165123794800000016000CRESCENT1 CUS0006521          00200000000000                F SULIMAN                                                                            
013L5020210325001712250655000006278322136100000008500CRESCENT1 CUS0058477          00200000000000                W JACOBS                                                                             
013L5020210325001543259605000006221985888600000016000CRESCENT1 CUS0016039          00200000000000                A RAUF                                                                               
013L5020210325002131470010000000147147239400000006900CRESCENT1 CUS0057018          03400000000000                F EVANS                                                                              
013L5020210325001667250655000006279548032700000008500CRESCENT1 CUS0058467          00200000000000                N FORTUNE                                                                            
013L5020210325003617250655000006285074657300000016000CRESCENT1 CUS0059387          03600000000000                D SWANEPOEL                                                                          
013L5020210325000268250655000006277180827000000008500CRESCENT1 CUS0056032          00200000000000                A LUDIWICK                                                                           
013L5020210325001091252245000006201739578300000016000CRESCENT1 CUS0011961          02600000000000                F JOOSUB                                                                             
013L5020210325002708252442000006202148956400000016000CRESCENT1 CUS0007968          01200000000000                L BENNETT                                                                            
013L5020210325000285198765000000114827333600000016000CRESCENT1 CUS0059501          00200000000000                K CHIIKTA                                                                            
013L5020210325000015203209000006048825790400000008500CRESCENT1 CUS0059419          00200000000000                Z LUCKAN                                                                             
013L5020210325002779198765000000298445631900000016000CRESCENT1 CUS0002335          02600000000000                R CASSIM                                                                             
013L5020210325003615198765000000112242767000000008500CRESCENT1 CUS0055799          03000000000000                K JONES                                                                              
013L5020210325001545198765000000159504193100000008500CRESCENT1 CUS0054486          00200000000000                S JUMAT                                                                              
013L5020210325003255470010000000121693382900000016000CRESCENT1 CUS0055643          03200000000000                A HARTZENBERG NETT                                                                   
013L5020210325002807250655000006277927765900000008500CRESCENT1 CUS0059170          00200000000000                L CHARLES                                                                            
013L5020210325001049250655000006217243592900000008500CRESCENT1 CUS0017673          02600000000000                A DADA                                                                               
013L5020210325002685198765000000106852225900000008500CRESCENT1 CUS0055235          00400000000000                F SUTCH                                                                              
013L5020210325000038250130000006226274603800000008500CRESCENT1 CUS0011536          00200000000000                S TOEFY                                                                              
013L5020210325000014210046000006262217009100000016000CRESCENT1 CUS0057729          00400000000000                A DANIELS                                                                            
013L5020210325003760250056000006226093919800000016000CRESCENT1 CUS0011465          00200000000000                T MOHAMED                                                                            
013L5020210325002185250737000006212858464700000008500CRESCENT1 CUS0010863          01800000000000                Y ADAM                                                                               
013L5020210325003593250545000006222514224900000008500CRESCENT1 CUS0008296          00600000000000                I SHAIK ESSOP                                                                        
013L5020210325001490252245000006052906359100000016000CRESCENT1 CUS0003137          00200000000000                A MOHIDEEN                                                                           
013L5020210325000981250056000006204565260000000008500CRESCENT1 CUS0004280          00600000000000                R VALOO                                                                              
013L5020210325000703221926000006226201801500000008500CRESCENT1 CUS0056234          01200000000000                M MOOSA                                                                              
013L5020210325001069229826000005305001729400000023500CRESCENT1 CUS0001767          00600000000000                A BHAYLA                                                                             
013L5020210325000402201009000006204587769600000016000CRESCENT1 CUS0053373          00400000000000                M BENJAMIN                                                                           
013L5020210325000269198765000000116927077800000006900CRESCENT1 CUS0057787          00200000000000                J DAVIDS                                                                             
013L5020210325000647198765000000195053933400000016000CRESCENT1 CUS0002863          03000000000000                I CASSIM                                                                             
013L5020210325001067198765000000101761228500000008500CRESCENT1 CUS0058206          00200000000000                F SAMSODIEN                                                                          
013L5020210325001032460005000000006015793700000030000CRESCENT1 CUS0014287          02600000000000                F MOOLAH                                                                             
013L5020210325002297250655000006282794423300000008500CRESCENT1 CUS0058882          01200000000000                E GASANT                                                                             
013L5020210325000675250655000006285696227200000008500CRESCENT1 CUS0059647          03400000000000                M KAHAAR                                                                             
013L5020210325003824255355000006250489736700000008500CRESCENT1 CUS0053103          00200000000000                N ROSENBERG                                                                          
013L5020210325001487198765000000110470199500000008500CRESCENT1 CUS0058383          00200000000000                R DAVIN                                                                              
013L5020210325000727201510000006207895695400000016000CRESCENT1 CUS0008660          01800000000000                A ISMAIL                                                                             
013L5020210325001125210651000006220593740400000016000CRESCENT1 CUS0053934          00400000000000                M JACOBS                                                                             
013L5020210325002582198765000000109869583600000006900CRESCENT1 CUS0059041          02600000000000                A SALIE                                                                              
013L5020210325003428250737000006217282148300000008500CRESCENT1 CUS0008225          03000000000000                Z MAYET                                                                              
013L5020210325002056470010000000133959234500000016000CRESCENT1 CUS0056979          03600000000000                F ARENDS                                                                             
013L5020210325002896198765000000115631073300000008500CRESCENT1 CUS0057246          00200000000000                R YAGHYA                                                                             
013L5020210325001012250141000006202197095100000016000CRESCENT1 CUS0005799          00600000000000                A EKSTEEN                                                                            
013L5020210325000194200909000006234245815700000008500CRESCENT1 CUS0057771          00400000000000                A JACOBS                                                                             
013L5020210325003742211517000006203380474200000008500CRESCENT1 CUS0006858          01200000000000                R DOLLEY                                                                             
013L5020210325003306198765000000194405999700000008500CRESCENT1 CUS0005191          01200000000000                N MAYET                                                                              
013L5020210325003256198765000000119099244200000016000CRESCENT1 CUS0057437          01200000000000                M BOOYSEN                                                                            
013L5020210325000887250655000006268148632200000008500CRESCENT1 CUS0058127          00600000000000                T ACHMAT                                                                             
013L5020210325003751198765000000116461731100000016000CRESCENT1 CUS0057663          00200000000000                N PIETERS                                                                            
013L5020210325003411198765000000172930755800000008500CRESCENT1 CUS0005269          01200000000000                M PATEL                                                                              
013L5020210325001607051001000000004297116000000008500CRESCENT1 CUS0058462          03000000000000                D NAICKER                                                                            
013L5020210325000615198765000000116498864600000008500CRESCENT1 CUS0059635          03000000000000                K DAVIDS                                                                             
013L5020210325001846250655000006272197464100000008500CRESCENT1 CUS0056858          00200000000000                A MARINUS                                                                            
013L5020210325003367250737000006212962290900000016000CRESCENT1 CUS0006726          02600000000000                ALLI                                                                                 
013L5020210325002733460005000000004516096200000016000CRESCENT1 CUS0000829          02600000000000                F BADERDIEN                                                                          
014L0000001220000000000000051589269275000000000135270000000000000000                                                                                                                                  
011LD23763200500000040945448920120210327                                                                                                                                                              
013L5020210326000002051001000000000495612500000025000ABSOLIT   1616592606RLN001    00200000000000                LEVINIA NAGEL                                                                        
014L0000000010000000000000000000049561250000000002500000000000000000                                                                                                                                  
019L0000001300000000000000051654152626340000000144310000000000000000                                                                                                                                  
999L000000142                                                                                                                                                                                         
