000L2020122900000PAYPORT CONSULTING PTY LTD EFT000056107303                                                                                                                                           
010LD237000006201                                                                                                                                                                                     
011LD23763200500000040945448920120201215                                                                                                                                                              
013L5020201214000957470010000000116499586100000008500CRESCENT1 CUS0057647          03000000000000                M ISAACS                                                                             
014L0000000010000000000000000011649958610000000000850000000000000000                                                                                                                                  
019L0000000010000000000000000011649958610000000000850000000000000000                                                                                                                                  
999L000000007                                                                                                                                                                                         
