000L2021052400000PAYPORT CONSULTING PTY LTD EFT000077807303                                                                                                                                           
010LD237000022101                                                                                                                                                                                     
011LD23763200500000040945448920120210521                                                                                                                                                              
013L5020210520000179632005000000908060754200000008500CRESCENT1 CUS0048121          03492801000179                F ALLY                                                                               
014L0000000010000000000000000090806075420000000000850000000000000000                                                                                                                                  
019L0000000010000000000000000090806075420000000000850000000000000000                                                                                                                                  
999L000000007                                                                                                                                                                                         
