000L2021041500000PAYPORT CONSULTING PTY LTD    000071907303                                                                                                                                           
900L000 TRANSMISSION 07303-0000089 ACCEPTED                                                                                                                                                           
900L001 ACB USER SET D237-0000095-001217 ACCEPTED                                                                                                                                                     
903L001L5063200504094544892D23700000105100100200719483100000008500210416350   CRESCENT1 CUS0004785          K ILYAS                       00000000000000000000                21                      
903L001L5063200504094544892D23700000205100100144002736100000006900210416350   CRESCENT1 CUS0027272          D ALEXANDER                   00000000000000000000                21                      
903L001L5063200504094544892D23700000325065562312198460100000008500210416350   CRESCENT1 CUS0044025          T ESSOP                       00000000000000000000                21                      
903L001L5063200504094544892D23700000425065562583478427100000016000210416350   CRESCENT1 CUS0050913          N JANUARY                     00000000000000000000                21                      
903L001L5063200504094544892D23700000547001001407830455200000008500210416350   CRESCENT1 CUS0057534          A FELIX                       00000000000000000000                21                      
903L001L5063200504094544892D23700000619876501774172038100000008500210416350   CRESCENT1 CUS0004786          S PATEL                       00000000000000000000                21                      
903L001L5063200504094544892D23700000725065550890027798100000008500210416350   CRESCENT1 CUS0027306          I JHETAM                      00000000000000000000                21                      
903L001L5063200504094544892D23700000819876501139887335100000006900210416350   CRESCENT1 CUS0044026          J ABRAHIM                     00000000000000000000                21                      
903L001L5063200504094544892D23700000925065562483486629100000008500210416350   CRESCENT1 CUS0050914          L ABRAHAMS                    00000000000000000000                21                      
903L001L5063200504094544892D23700001047001001543412198200000006900210416350   CRESCENT1 CUS0057539          Y CASSIEM                     00000000000000000000                21                      
903L001L5063200504094544892D23700001163200509053269616100000008500210416350   CRESCENT1 CUS0004818          A RAHIM                       00000000000000000000                21                      
903L001L5063200504094544892D23700001225065562108161209100000006900210416350   CRESCENT1 CUS0027512          E HASSAN                      00000000000000000000                21                      
903L001L5063200504094544892D23700001325065574492076094100000008500210416350   CRESCENT1 CUS0044029          K SULEMAN                     00000000000000000000                21                      
903L001L5063200504094544892D23700001425065562064437025100000008500210416350   CRESCENT1 CUS0050924          Q RASDIEN                     00000000000000000000                21                      
903L001L5063200504094544892D23700001505100100073229334100000008500210416350   CRESCENT1 CUS0057562          M MENTOOR                     00000000000000000000                21                      
903L001L5063200504094544892D23700001625065562177103050100000008500210416350   CRESCENT1 CUS0004867          A HASSIM                      00000000000000000000                21                      
903L001L5063200504094544892D23700001725065562388182588100000008500210416350   CRESCENT1 CUS0027748          I ASVAT                       00000000000000000000                21                      
903L001L5063200504094544892D23700001805100100302862307100000008500210416350   CRESCENT1 CUS0044030          E NADAT                       00000000000000000000                21                      
903L001L5063200504094544892D23700001963200504072288284100000008500210416350   CRESCENT1 CUS0050954          M KHAN                        00000000000000000000                21                      
903L001L5063200504094544892D23700002005100100270341404100000008500210416350   CRESCENT1 CUS0057563          I ANTHONY                     00000000000000000000                21                      
903L001L5063200504094544892D23700002125065562344361473100000008500210416350   CRESCENT1 CUS0004922          A ISMAIL                      00000000000000000000                21                      
903L001L5063200504094544892D23700002225065562189297750100000008500210416350   CRESCENT1 CUS0028108          R AHMED                       00000000000000000000                21                      
903L001L5063200504094544892D23700002363200500713800287100000008500210416350   CRESCENT1 CUS0044104          G DAWAD                       00000000000000000000                21                      
903L001L5063200504094544892D23700002447001001347504743200000008500210416350   CRESCENT1 CUS0050966          N BESTER                      00000000000000000000                21                      
903L001L5063200504094544892D23700002563200504056996538100000016000210416350   CRESCENT1 CUS0057608          S ABRAHAMS                    00000000000000000000                21                      
903L001L5063200504094544892D23700002625065562430223678100000023500210416350   CRESCENT1 CUS0004940          A KHAN                        00000000000000000000                21                      
903L001L5063200504094544892D23700002725065562047636264100000016000210416350   CRESCENT1 CUS0028445          E CASSIEM                     00000000000000000000                21                      
903L001L5063200504094544892D23700002819876501305760190100000008500210416350   CRESCENT1 CUS0044323          Z KHAN                        00000000000000000000                21                      
903L001L5063200504094544892D23700002980000078600180406200000016000210416350   CRESCENT1 CUS0051000          L ARNORD                      00000000000000000000                21                      
903L001L5063200504094544892D23700003025065562284254944100000008500210416350   CRESCENT1 CUS0057710          M PETERSEN                    00000000000000000000                21                      
903L001L5063200504094544892D23700003119876501589362837100000016000210416350   CRESCENT1 CUS0004963          M CASSIM                      00000000000000000000                21                      
903L001L5063200504094544892D23700003247001001493721451200000008500210416350   CRESCENT1 CUS0028464          F SHARZAD                     00000000000000000000                21                      
903L001L5063200504094544892D23700003363200504083457119100000008500210416350   CRESCENT1 CUS0044331          M SEEDAT                      00000000000000000000                21                      
903L001L5063200504094544892D23700003425065562250446963100000008500210416350   CRESCENT1 CUS0051015          Z SHABOODIEN                  00000000000000000000                21                      
903L001L5063200504094544892D23700003525065562677313092100000008500210416350   CRESCENT1 CUS0057714          M MARLEY                      00000000000000000000                21                      
903L001L5063200504094544892D23700003625065562352857696100000008500210416350   CRESCENT1 CUS0005023          A DARNBROUGH                  00000000000000000000                21                      
903L001L5063200504094544892D23700003705100100063229129100000031000210416350   CRESCENT1 CUS0028732          I DUBE                        00000000000000000000                21                      
903L001L5063200504094544892D23700003825065562381311176100000008500210416350   CRESCENT1 CUS0044335          M JEENA                       00000000000000000000                21                      
903L001L5063200504094544892D23700003905100100250532816100000008500210416350   CRESCENT1 CUS0051054          I KHAN                        00000000000000000000                21                      
903L001L5063200504094544892D23700004047001001281384281200000006900210416350   CRESCENT1 CUS0057751          M KERBELKER                   00000000000000000000                21                      
903L001L5063200504094544892D23700004125065550600166736100000008500210416350   CRESCENT1 CUS0005085          I WILLIAMS                    00000000000000000000                21                      
903L001L5063200504094544892D23700004247001001216745569200000008500210416350   CRESCENT1 CUS0028849          E SETHARE                     00000000000000000000                21                      
903L001L5063200504094544892D23700004347001001219444101200000008500210416350   CRESCENT1 CUS0044374          S ABDOOL                      00000000000000000000                21                      
903L001L5063200504094544892D23700004425065562352813309100000008500210416350   CRESCENT1 CUS0051115          F KALA                        00000000000000000000                21                      
903L001L5063200504094544892D23700004547001001574456871200000016000210416350   CRESCENT1 CUS0057766          F ABRAHAMS                    00000000000000000000                21                      
903L001L5063200504094544892D23700004625065553600100712100000008500210416350   CRESCENT1 CUS0005289          M LIMBADA                     00000000000000000000                21                      
903L001L5063200504094544892D23700004725065562480307969100000008500210416350   CRESCENT1 CUS0028939          Y MOWANDI                     00000000000000000000                21                      
903L001L5063200504094544892D23700004863200509250965837100000016000210416350   CRESCENT1 CUS0044424          A AKOOJEE                     00000000000000000000                21                      
903L001L5063200504094544892D23700004905100110074401007100000008500210416350   CRESCENT1 CUS0051123          F HASSIM                      00000000000000000000                21                      
903L001L5063200504094544892D23700005063200509258263512100000008500210416350   CRESCENT1 CUS0057791          E ISAACS                      00000000000000000000                21                      
903L001L5063200504094544892D23700005105100100002511665100000006900210416350   CRESCENT1 CUS0005318          A ESSOP                       00000000000000000000                21                      
903L001L5063200504094544892D23700005219876502963466706200000016000210416350   CRESCENT1 CUS0029253          M ADAMS                       00000000000000000000                21                      
903L001L5063200504094544892D23700005363200500713569666100000007500210416350   CRESCENT1 CUS0044434          G DIEDERICKS                  00000000000000000000                21                      
903L001L5063200504094544892D23700005405100110084570901100000008500210416350   CRESCENT1 CUS0051128          S GEORGE                      00000000000000000000                21                      
903L001L5063200504094544892D23700005505100100243147007100000016000210416350   CRESCENT1 CUS0057807          J KNYNOCH                     00000000000000000000                21                      
903L001L5063200504094544892D23700005605100100002228750100000008500210416350   CRESCENT1 CUS0005403          H PANSARI                     00000000000000000000                21                      
903L001L5063200504094544892D23700005719876501956355235100000008500210416350   CRESCENT1 CUS0029446          I MOTALA                      00000000000000000000                21                      
903L001L5063200504094544892D23700005825065562066421159100000008500210416350   CRESCENT1 CUS0044440          J LAMARA                      00000000000000000000                21                      
903L001L5063200504094544892D23700005957010500031006743200000008500210416350   CRESCENT1 CUS0051149          B NASARKA                     00000000000000000000                21                      
903L001L5063200504094544892D23700006047001001420429165200000008500210416350   CRESCENT1 CUS0057829          E CLOETE                      00000000000000000000                21                      
903L001L5063200504094544892D23700006125065562088867943100000016000210416350   CRESCENT1 CUS0005477          A MAYET                       00000000000000000000                21                      
903L001L5063200504094544892D23700006225065562260824141100000008500210416350   CRESCENT1 CUS0029997          D JHETAM                      00000000000000000000                21                      
903L001L5063200504094544892D23700006363200500013728534100000008500210416350   CRESCENT1 CUS0044526          R ZOUTENBERG                  00000000000000000000                21                      
903L001L5063200504094544892D23700006405100110061473470100000008500210416350   CRESCENT1 CUS0051170          G AJERAAN                     00000000000000000000                21                      
903L001L5063200504094544892D23700006563200509244343956100000008500210416350   CRESCENT1 CUS0057875          A SAMUELS                     00000000000000000000                21                      
903L001L5063200504094544892D23700006625065562033095292100000008500210416350   CRESCENT1 CUS0005760          I BAYAT                       00000000000000000000                21                      
903L001L5063200504094544892D23700006705100100201034220100000008500210416350   CRESCENT1 CUS0030149          S OMAR                        00000000000000000000                21                      
903L001L5063200504094544892D23700006825065562567897932100000008500210416350   CRESCENT1 CUS0044715          Y CHOONARA                    00000000000000000000                21                      
903L001L5063200504094544892D23700006947001001419281958200000006900210416350   CRESCENT1 CUS0051181          M MALICK                      00000000000000000000                21                      
903L001L5063200504094544892D23700007047001001165854765200000006900210416350   CRESCENT1 CUS0057902          J SCHROEDER                   00000000000000000000                21                      
903L001L5063200504094544892D23700007105100100200529064100000016000210416350   CRESCENT1 CUS0005807          A DESAI                       00000000000000000000                21                      
903L001L5063200504094544892D23700007205100100012622826100000008500210416350   CRESCENT1 CUS0030272          U BANDA                       00000000000000000000                21                      
903L001L5063200504094544892D23700007325065554450398987100000008500210416350   CRESCENT1 CUS0044722          N EBRAHIM                     00000000000000000000                21                      
903L001L5063200504094544892D23700007405100100278152619100000015000210416350   CRESCENT1 CUS0051237          A GARNIE                      00000000000000000000                21                      
903L001L5063200504094544892D23700007525065562553992829100000008500210416350   CRESCENT1 CUS0057934          S MAMOTH                      00000000000000000000                21                      
903L001L5063200504094544892D23700007625065562224370817100000006900210416350   CRESCENT1 CUS0005877          S ABOOALLY                    00000000000000000000                21                      
903L001L5063200504094544892D23700007763200504065275539100000016000210416350   CRESCENT1 CUS0030309          K MOOLA                       00000000000000000000                21                      
903L001L5063200504094544892D23700007847001001297842853200000008500210416350   CRESCENT1 CUS0044726          M EBRAHIM                     00000000000000000000                21                      
903L001L5063200504094544892D23700007947001001290765233200000008500210416350   CRESCENT1 CUS0051242          G DEJONGH                     00000000000000000000                21                      
903L001L5063200504094544892D23700008005100100072455551100000008500210416350   CRESCENT1 CUS0057943          S BENJAMIN                    00000000000000000000                21                      
903L001L5063200504094544892D23700008163200509203403199100000008500210416350   CRESCENT1 CUS0005930          A SULLIMAN                    00000000000000000000                21                      
903L001L5063200504094544892D23700008225065562009032195100000006900210416350   CRESCENT1 CUS0030419          B DESAI                       00000000000000000000                21                      
903L001L5063200504094544892D23700008363200509289588103100000008500210416350   CRESCENT1 CUS0044778          M KHAN                        00000000000000000000                21                      
903L001L5063200504094544892D23700008425065562605277393100000008500210416350   CRESCENT1 CUS0051260          Y KIKIA                       00000000000000000000                21                      
903L001L5063200504094544892D23700008505100100271941030100000008500210416350   CRESCENT1 CUS0057956          M KARAN                       00000000000000000000                21                      
903L001L5063200504094544892D23700008625065560137271114100000008500210416350   CRESCENT1 CUS0006050          Z KHAN                        00000000000000000000                21                      
903L001L5063200504094544892D23700008705100100427692709100000023500210416350   CRESCENT1 CUS0030483          A ISMAIL                      00000000000000000000                21                      
903L001L5063200504094544892D23700008825065562413984932100000008500210416350   CRESCENT1 CUS0044779          F NARATH                      00000000000000000000                21                      
903L001L5063200504094544892D23700008947001001348830962200000008500210416350   CRESCENT1 CUS0051269          Y BRAAF                       00000000000000000000                21                      
903L001L5063200504094544892D23700009047001001239718916200000008500210416350   CRESCENT1 CUS0057960          Y MOSES                       00000000000000000000                21                      
903L001L5063200504094544892D23700009105100100002553082100000008500210416350   CRESCENT1 CUS0006061          A MAYET                       00000000000000000000                21                      
903L001L5063200504094544892D23700009205100100250539071100000008500210416350   CRESCENT1 CUS0030710          A PATEL                       00000000000000000000                21                      
903L001L5063200504094544892D23700009325065562089032230100000007500210416350   CRESCENT1 CUS0044784          A RAJAH                       00000000000000000000                21                      
903L001L5063200504094544892D23700009405100100270747435100000008500210416350   CRESCENT1 CUS0051314          Z ABRAHAMS                    00000000000000000000                21                      
903L001L5063200504094544892D23700009547001001117423679200000008500210416350   CRESCENT1 CUS0058009          S JACOBS                      00000000000000000000                21                      
903L001L5063200504094544892D23700009625065562172856521100000008500210416350   CRESCENT1 CUS0006189          Z WADIA                       00000000000000000000                21                      
903L001L5063200504094544892D23700009705100100281740801100000016000210416350   CRESCENT1 CUS0030777          A MADATT                      00000000000000000000                21                      
903L001L5063200504094544892D23700009825065562086354033100000016000210416350   CRESCENT1 CUS0044792          L COETZEE                     00000000000000000000                21                      
903L001L5063200504094544892D23700009925065562280414716100000008500210416350   CRESCENT1 CUS0051350          Z DAVIDS                      00000000000000000000                21                      
903L001L5063200504094544892D23700010025065562558654630100000008500210416350   CRESCENT1 CUS0058019          A BHAM                        00000000000000000000                21                      
903L001L5063200504094544892D23700010125065562154762514100000008500210416350   CRESCENT1 CUS0006551          O TIMMS                       00000000000000000000                21                      
903L001L5063200504094544892D23700010205100100028062248100000008500210416350   CRESCENT1 CUS0030866          M NANA                        00000000000000000000                21                      
903L001L5063200504094544892D23700010319876501081241136100000008500210416350   CRESCENT1 CUS0044794          A ABED                        00000000000000000000                21                      
903L001L5063200504094544892D23700010405100100051243652100000007500210416350   CRESCENT1 CUS0051366          F ASMAL                       00000000000000000000                21                      
903L001L5063200504094544892D23700010547001001187206588200000006900210416350   CRESCENT1 CUS0058030          A ADAMS                       00000000000000000000                21                      
903L001L5063200504094544892D23700010625065562366187956100000008500210416350   CRESCENT1 CUS0006587          A AHMED                       00000000000000000000                21                      
903L001L5063200504094544892D23700010763200504088669008100000008500210416350   CRESCENT1 CUS0030919          M DEVRIES                     00000000000000000000                21                      
903L001L5063200504094544892D23700010825065562220289559100000031000210416350   CRESCENT1 CUS0044799          B HATTIA                      00000000000000000000                21                      
903L001L5063200504094544892D23700010925065562118201756100000008500210416350   CRESCENT1 CUS0051466          D BARNES                      00000000000000000000                21                      
903L001L5063200504094544892D23700011047001001145773131200000008500210416350   CRESCENT1 CUS0058031          S BOWERS                      00000000000000000000                21                      
903L001L5063200504094544892D23700011119876501108361862100000008500210416350   CRESCENT1 CUS0006698          N MIA                         00000000000000000000                21                      
903L001L5063200504094544892D23700011247001001202263559200000006900210416350   CRESCENT1 CUS0030957          F HAMID                       00000000000000000000                21                      
903L001L5063200504094544892D23700011325065562117082909100000016000210416350   CRESCENT1 CUS0044800          F RAVAT                       00000000000000000000                21                      
903L001L5063200504094544892D23700011425065562045709899100000008500210416350   CRESCENT1 CUS0051493          A ADAMJEE                     00000000000000000000                21                      
903L001L5063200504094544892D23700011547001001146646192200000008500210416350   CRESCENT1 CUS0058048          F TOEFEY                      00000000000000000000                21                      
903L001L5063200504094544892D23700011663200509327833282100000008500210416350   CRESCENT1 CUS0006718          F EBRAHIM                     00000000000000000000                21                      
903L001L5063200504094544892D23700011763200509334441549100000006900210416350   CRESCENT1 CUS0030980          R DEAN                        00000000000000000000                21                      
903L001L5063200504094544892D23700011847001001056540672200000008500210416350   CRESCENT1 CUS0044801          M DENNIS GREEN                00000000000000000000                21                      
903L001L5063200504094544892D23700011963200500016497673100000007500210416350   CRESCENT1 CUS0051500          Z MCLAREN                     00000000000000000000                21                      
903L001L5063200504094544892D23700012047001001237871512200000008500210416350   CRESCENT1 CUS0058080          M WILLIAMS                    00000000000000000000                21                      
903L001L5063200504094544892D23700012125065562054868024100000008500210416350   CRESCENT1 CUS0006747          H CASSIM                      00000000000000000000                21                      
903L001L5063200504094544892D23700012219876501349080756100000008500210416350   CRESCENT1 CUS0031243          S MANACK                      00000000000000000000                21                      
903L001L5063200504094544892D23700012305100100204244641100000008500210416350   CRESCENT1 CUS0044817          F GREEFF                      00000000000000000000                21                      
903L001L5063200504094544892D23700012463200538126940014100000008500210416350   CRESCENT1 CUS0051527          A SAGE                        00000000000000000000                21                      
903L001L5063200504094544892D23700012547001001258107811200000008500210416350   CRESCENT1 CUS0058087          N HENDRICKS                   00000000000000000000                21                      
903L001L5063200504094544892D23700012663200500713870250100000008500210416350   CRESCENT1 CUS0006880          M KHAN                        00000000000000000000                21                      
903L001L5063200504094544892D23700012725065562721377457100000016000210416350   CRESCENT1 CUS0031332          E SAYED                       00000000000000000000                21                      
903L001L5063200504094544892D23700012825065562113044010100000008500210416350   CRESCENT1 CUS0044818          M NASSON                      00000000000000000000                21                      
903L001L5063200504094544892D23700012980000078600116766200000008500210416350   CRESCENT1 CUS0051605          R ERAHIM                      00000000000000000000                21                      
903L001L5063200504094544892D23700013025065562486474241100000008500210416350   CRESCENT1 CUS0058103          R JOSEPH                      00000000000000000000                21                      
903L001L5063200504094544892D23700013125065560529016251100000008500210416350   CRESCENT1 CUS0006898          S AHMED                       00000000000000000000                21                      
903L001L5063200504094544892D23700013225065562266316407100000016000210416350   CRESCENT1 CUS0031346          M MULLAJI                     00000000000000000000                21                      
903L001L5063200504094544892D23700013325065562143557851100000008500210416350   CRESCENT1 CUS0044833          D MARNEWICK                   00000000000000000000                21                      
903L001L5063200504094544892D23700013405100110086839401100000008500210416350   CRESCENT1 CUS0051607          O DALVIE                      00000000000000000000                21                      
903L001L5063200504094544892D23700013547001001694512779200000006900210416350   CRESCENT1 CUS0058121          A LAKAY                       00000000000000000000                21                      
903L001L5063200504094544892D23700013625065562523468595100000016000210416350   CRESCENT1 CUS0006956          A YASSIM                      00000000000000000000                21                      
903L001L5063200504094544892D23700013725065562808762266100000008500210416350   CRESCENT1 CUS0031471          Y SAYED                       00000000000000000000                21                      
903L001L5063200504094544892D23700013825065555020008972100000008500210416350   CRESCENT1 CUS0044844          S EBRAHIM                     00000000000000000000                21                      
903L001L5063200504094544892D23700013925065562532439206100000008500210416350   CRESCENT1 CUS0051618          D COERECIUS                   00000000000000000000                21                      
903L001L5063200504094544892D23700014063200509300481373100000006900210416350   CRESCENT1 CUS0058138          F HOCEME                      00000000000000000000                21                      
903L001L5063200504094544892D23700014105100100225313677100000006900210416350   CRESCENT1 CUS0007033          C ISMAIL                      00000000000000000000                21                      
903L001L5063200504094544892D23700014225065562227849562100000016000210416350   CRESCENT1 CUS0031557          R REHEMAN                     00000000000000000000                21                      
903L001L5063200504094544892D23700014305100110012749441100000008500210416350   CRESCENT1 CUS0044872          N MOHAMMED RAIMAN             00000000000000000000                21                      
903L001L5063200504094544892D23700014463200504066461202100000008500210416350   CRESCENT1 CUS0051641          R SOOSIE                      00000000000000000000                21                      
903L001L5063200504094544892D23700014505100110061659280100000008500210416350   CRESCENT1 CUS0058176          T ISMAIL                      00000000000000000000                21                      
903L001L5063200504094544892D23700014663200509271675441100000006900210416350   CRESCENT1 CUS0007051          A AREFF                       00000000000000000000                21                      
903L001L5063200504094544892D23700014763200504072910001100000008500210416350   CRESCENT1 CUS0031560          R HENDRICKS                   00000000000000000000                21                      
903L001L5063200504094544892D23700014819876501757019103100000008500210416350   CRESCENT1 CUS0044877          S ABDUL GAFAAR                00000000000000000000                21                      
903L001L5063200504094544892D23700014925065562646024729100000008500210416350   CRESCENT1 CUS0051660          G DAVIDS                      00000000000000000000                21                      
903L001L5063200504094544892D23700015047001001226704024200000008500210416350   CRESCENT1 CUS0058182          S JACOBS                      00000000000000000000                21                      
903L001L5063200504094544892D23700015105100100131063979100000008500210416350   CRESCENT1 CUS0007140          M MAHOMED                     00000000000000000000                21                      
903L001L5063200504094544892D23700015225065560086338685100000008500210416350   CRESCENT1 CUS0031698          F EBRAHIM                     00000000000000000000                21                      
903L001L5063200504094544892D23700015305100100031055184100000008500210416350   CRESCENT1 CUS0044999          S BHYAT                       00000000000000000000                21                      
903L001L5063200504094544892D23700015405100100073160903100000008500210416350   CRESCENT1 CUS0051668          G NOLAN                       00000000000000000000                21                      
903L001L5063200504094544892D23700015505100110073959519100000006900210416350   CRESCENT1 CUS0058187          A SAMPSON                     00000000000000000000                21                      
903L001L5063200504094544892D23700015605100100023207035100000008500210416350   CRESCENT1 CUS0007157          S CHOTHIA                     00000000000000000000                21                      
903L001L5063200504094544892D23700015725065562427874575100000008500210416350   CRESCENT1 CUS0031712          S MOOSA                       00000000000000000000                21                      
903L001L5063200504094544892D23700015863200504052629250100000008500210416350   CRESCENT1 CUS0045009          M GAMEELDIEN                  00000000000000000000                21                      
903L001L5063200504094544892D23700015905100100081468695100000008500210416350   CRESCENT1 CUS0051672          G ISMAIL                      00000000000000000000                21                      
903L001L5063200504094544892D23700016047001001449102210200000008500210416350   CRESCENT1 CUS0058214          M JAFTHA                      00000000000000000000                21                      
903L001L5063200504094544892D23700016125065562092203711100000016000210416350   CRESCENT1 CUS0007163          H OMAR                        00000000000000000000                21                      
903L001L5063200504094544892D23700016263200509230667277100000008500210416350   CRESCENT1 CUS0031748          A SHEIK                       00000000000000000000                21                      
903L001L5063200504094544892D23700016305100100022478388100000008500210416350   CRESCENT1 CUS0045016          S HOOSEN                      00000000000000000000                21                      
903L001L5063200504094544892D23700016463200504088648315100000008500210416350   CRESCENT1 CUS0051697          R ROSE                        00000000000000000000                21                      
903L001L5063200504094544892D23700016547001001423530878200000008500210416350   CRESCENT1 CUS0058238          R ADAMS                       00000000000000000000                21                      
903L001L5063200504094544892D23700016625065562062132651100000016000210416350   CRESCENT1 CUS0007202          N THOKAN                      00000000000000000000                21                      
903L001L5063200504094544892D23700016725065562139741450100000008500210416350   CRESCENT1 CUS0031793          A HAJEE ABOO                  00000000000000000000                21                      
903L001L5063200504094544892D23700016825065560027267405100000008500210416350   CRESCENT1 CUS0045040          F HANSLO                      00000000000000000000                21                      
903L001L5063200504094544892D23700016947001001450214604200000008500210416350   CRESCENT1 CUS0051711          R SAMUELS                     00000000000000000000                21                      
903L001L5063200504094544892D23700017019876501075461944100000008500210416350   CRESCENT1 CUS0058249          A SCHUTT                      00000000000000000000                21                      
903L001L5063200504094544892D23700017125065562461806609100000016000210416350   CRESCENT1 CUS0007230          N KAROLIA                     00000000000000000000                21                      
903L001L5063200504094544892D23700017205100100031720609100000008500210416350   CRESCENT1 CUS0031963          M PATEL                       00000000000000000000                21                      
903L001L5063200504094544892D23700017325065550010007158100000006900210416350   CRESCENT1 CUS0045059          A DANIELS                     00000000000000000000                21                      
903L001L5063200504094544892D23700017405100100032238657100000008500210416350   CRESCENT1 CUS0051726          S WAHAB                       00000000000000000000                21                      
903L001L5063200504094544892D23700017563200504082579998100000008500210416350   CRESCENT1 CUS0058254          Z SEEDAT                      00000000000000000000                21                      
903L001L5063200504094544892D23700017625065562266894130100000008500210416350   CRESCENT1 CUS0007275          A KHAN                        00000000000000000000                21                      
903L001L5063200504094544892D23700017725065562445721708100000008500210416350   CRESCENT1 CUS0032117          N HUSSAIN ELLAHI FAZEL        00000000000000000000                21                      
903L001L5063200504094544892D23700017825065550151708649100000008500210416350   CRESCENT1 CUS0045067          F SAYED                       00000000000000000000                21                      
903L001L5063200504094544892D23700017925065562508671965100000008500210416350   CRESCENT1 CUS0051729          A SOLOMON                     00000000000000000000                21                      
903L001L5063200504094544892D23700018025065506244755413100000008500210416350   CRESCENT1 CUS0058256          F SHIEK                       00000000000000000000                21                      
903L001L5063200504094544892D23700018180000078600035844200000016000210416350   CRESCENT1 CUS0007378          F LAMBAT                      00000000000000000000                21                      
903L001L5063200504094544892D23700018225065560528278779100000008500210416350   CRESCENT1 CUS0032306          F VALI                        00000000000000000000                21                      
903L001L5063200504094544892D23700018305100100005427614100000008500210416350   CRESCENT1 CUS0045071          F ASVAT                       00000000000000000000                21                      
903L001L5063200504094544892D23700018447001001548705711200000008500210416350   CRESCENT1 CUS0051744          B BIRCH                       00000000000000000000                21                      
903L001L5063200504094544892D23700018505100100071195327100000008500210416350   CRESCENT1 CUS0058264          M DOLLIE                      00000000000000000000                21                      
903L001L5063200504094544892D23700018663200500022291118100000006900210416350   CRESCENT1 CUS0007458          F TAJBHAI                     00000000000000000000                21                      
903L001L5063200504094544892D23700018705100110102916339100000007500210416350   CRESCENT1 CUS0032364          A MAHOMED                     00000000000000000000                21                      
903L001L5063200504094544892D23700018805100110013179002100000008500210416350   CRESCENT1 CUS0045078          M DEVAJEE                     00000000000000000000                21                      
903L001L5063200504094544892D23700018925065562048355508100000008500210416350   CRESCENT1 CUS0051772          A SARLIE ENUS                 00000000000000000000                21                      
903L001L5063200504094544892D23700019019876501642010480100000008500210416350   CRESCENT1 CUS0058301          M SALIE                       00000000000000000000                21                      
903L001L5063200504094544892D23700019163200509180266357100000016000210416350   CRESCENT1 CUS0007475          M JACOBS                      00000000000000000000                21                      
903L001L5063200504094544892D23700019205100100200374133100000008500210416350   CRESCENT1 CUS0032484          S SALIE                       00000000000000000000                21                      
903L001L5063200504094544892D23700019319876501963260147100000008500210416350   CRESCENT1 CUS0045137          M HOLLARD                     00000000000000000000                21                      
903L001L5063200504094544892D23700019463200509187874315100000008500210416350   CRESCENT1 CUS0051788          M KARIEM                      00000000000000000000                21                      
903L001L5063200504094544892D23700019547001001576327017200000006900210416350   CRESCENT1 CUS0058314          S EBRAHIM                     00000000000000000000                21                      
903L001L5063200504094544892D23700019663200504068817457100000008500210416350   CRESCENT1 CUS0007481          M RAJAN                       00000000000000000000                21                      
903L001L5063200504094544892D23700019725065560085534599100000008500210416350   CRESCENT1 CUS0032764          F MOHAMED                     00000000000000000000                21                      
903L001L5063200504094544892D23700019805100100135865034100000008500210416350   CRESCENT1 CUS0045145          Y SULIEMAN                    00000000000000000000                21                      
903L001L5063200504094544892D23700019905100100072916303100000008500210416350   CRESCENT1 CUS0051793          F GALVAAN                     00000000000000000000                21                      
903L001L5063200504094544892D23700020019876501165112817100000008500210416350   CRESCENT1 CUS0058320          D AFRICA                      00000000000000000000                21                      
903L001L5063200504094544892D23700020125065562178253135100000016000210416350   CRESCENT1 CUS0007763          N LUTCHKA                     00000000000000000000                21                      
903L001L5063200504094544892D23700020225065562165324220100000008500210416350   CRESCENT1 CUS0032765          R WALLJEE                     00000000000000000000                21                      
903L001L5063200504094544892D23700020305100100636402142100000008500210416350   CRESCENT1 CUS0045202          R KHADER                      00000000000000000000                21                      
903L001L5063200504094544892D23700020425065555281473980100000007500210416350   CRESCENT1 CUS0051797          A ISMAIL                      00000000000000000000                21                      
903L001L5063200504094544892D23700020547001001488120860200000008500210416350   CRESCENT1 CUS0058325          M FRANCIS                     00000000000000000000                21                      
903L001L5063200504094544892D23700020625065562390019620100000008500210416350   CRESCENT1 CUS0007798          A SHAIK                       00000000000000000000                21                      
903L001L5063200504094544892D23700020705100100272878618100000008500210416350   CRESCENT1 CUS0032772          M MANUEL                      00000000000000000000                21                      
903L001L5063200504094544892D23700020863200509102165276100000008500210416350   CRESCENT1 CUS0045212          S JOOMA                       00000000000000000000                21                      
903L001L5063200504094544892D23700020905100110077751548100000007500210416350   CRESCENT1 CUS0051798          F HASSIM                      00000000000000000000                21                      
903L001L5063200504094544892D23700021047001001137418085200000008500210416350   CRESCENT1 CUS0058339          Y DALVIE                      00000000000000000000                21                      
903L001L5063200504094544892D23700021125065562393925270100000015000210416350   CRESCENT1 CUS0008031          A MAHOMED                     00000000000000000000                21                      
903L001L5063200504094544892D23700021205100100001296108100000008500210416350   CRESCENT1 CUS0032895          I CANTHITOO                   00000000000000000000                21                      
903L001L5063200504094544892D23700021319876502668175348200000008500210416350   CRESCENT1 CUS0045289          Z ISMAIL                      00000000000000000000                21                      
903L001L5063200504094544892D23700021447001001287835358200000008500210416350   CRESCENT1 CUS0051827          S ISMAIL                      00000000000000000000                21                      
903L001L5063200504094544892D23700021519876501051410274100000008500210416350   CRESCENT1 CUS0058347          S ISAACS                      00000000000000000000                21                      
903L001L5063200504094544892D23700021619876501131094271100000008500210416350   CRESCENT1 CUS0008155          K ISAACS                      00000000000000000000                21                      
903L001L5063200504094544892D23700021705100100310914728100000008500210416350   CRESCENT1 CUS0033257          F HENDRICKS                   00000000000000000000                21                      
903L001L5063200504094544892D23700021805100100634530348100000008500210416350   CRESCENT1 CUS0045292          S BHAM                        00000000000000000000                21                      
903L001L5063200504094544892D23700021947001001555432997200000008500210416350   CRESCENT1 CUS0051829          F GABIER                      00000000000000000000                21                      
903L001L5063200504094544892D23700022047001001620530013200000008500210416350   CRESCENT1 CUS0058369          M DAVIDS                      00000000000000000000                21                      
903L001L5063200504094544892D23700022105100100060818867100000008500210416350   CRESCENT1 CUS0008257          Z DADA                        00000000000000000000                21                      
903L001L5063200504094544892D23700022225065562030343488100000008500210416350   CRESCENT1 CUS0033467          A HAMIDU                      00000000000000000000                21                      
903L001L5063200504094544892D23700022363200509298077020100000016000210416350   CRESCENT1 CUS0045325          M MIRZA                       00000000000000000000                21                      
903L001L5063200504094544892D23700022419876501003980295100000008500210416350   CRESCENT1 CUS0051835          A SAMAAI                      00000000000000000000                21                      
903L001L5063200504094544892D23700022505100110112068845100000008500210416350   CRESCENT1 CUS0058384          F HASWARAY                    00000000000000000000                21                      
903L001L5063200504094544892D23700022605100100010620842100000008500210416350   CRESCENT1 CUS0008346          H CASSIM                      00000000000000000000                21                      
903L001L5063200504094544892D23700022705100100310714354100000008500210416350   CRESCENT1 CUS0033484          Y KHAN                        00000000000000000000                21                      
903L001L5063200504094544892D23700022819876501789008360100000008500210416350   CRESCENT1 CUS0045326          A KHAN                        00000000000000000000                21                      
903L001L5063200504094544892D23700022980000078600113784200000008500210416350   CRESCENT1 CUS0051866          A RAHMAN                      00000000000000000000                21                      
903L001L5063200504094544892D23700023019876501195842414100000008500210416350   CRESCENT1 CUS0058398          M JACOBS                      00000000000000000000                21                      
903L001L5063200504094544892D23700023105100100243269870100000008500210416350   CRESCENT1 CUS0008495          T LAHER                       00000000000000000000                21                      
903L001L5063200504094544892D23700023225065562237877553100000008500210416350   CRESCENT1 CUS0033553          M ESSAY                       00000000000000000000                21                      
903L001L5063200504094544892D23700023325065562463070244100000016000210416350   CRESCENT1 CUS0045347          F BHAIZI                      00000000000000000000                21                      
903L001L5063200504094544892D23700023405100100052205363100000008500210416350   CRESCENT1 CUS0051874          N KHAN                        00000000000000000000                21                      
903L001L5063200504094544892D23700023525065560029276371100000008500210416350   CRESCENT1 CUS0058409          F DP PELT                     00000000000000000000                21                      
903L001L5063200504094544892D23700023605100100030289491100000008500210416350   CRESCENT1 CUS0008847          G SHAAH                       00000000000000000000                21                      
903L001L5063200504094544892D23700023725065562088525484100000008500210416350   CRESCENT1 CUS0033736          K MOOLA                       00000000000000000000                21                      
903L001L5063200504094544892D23700023863200504057037199100000008500210416350   CRESCENT1 CUS0045364          Y AMLA                        00000000000000000000                21                      
903L001L5063200504094544892D23700023919876502282017625200000008500210416350   CRESCENT1 CUS0051885          N FREDRICKS                   00000000000000000000                21                      
903L001L5063200504094544892D23700024047001001293256666200000008500210416350   CRESCENT1 CUS0058534          A ADAMS                       00000000000000000000                21                      
903L001L5063200504094544892D23700024163200504040850380100000008500210416350   CRESCENT1 CUS0008914          A THOMAS                      00000000000000000000                21                      
903L001L5063200504094544892D23700024219876501066288593100000031000210416350   CRESCENT1 CUS0033745          A REDDY                       00000000000000000000                21                      
903L001L5063200504094544892D23700024363200509222614503100000008500210416350   CRESCENT1 CUS0045384          Z MOHAMED                     00000000000000000000                21                      
903L001L5063200504094544892D23700024425065562675218880100000008500210416350   CRESCENT1 CUS0051888          A DOMINGO                     00000000000000000000                21                      
903L001L5063200504094544892D23700024563200504085089017100000008500210416350   CRESCENT1 CUS0058548          R REDDY                       00000000000000000000                21                      
903L001L5063200504094544892D23700024663200509057948599100000008500210416350   CRESCENT1 CUS0008921          J HUSSEIN                     00000000000000000000                21                      
903L001L5063200504094544892D23700024719876501048946320100000016000210416350   CRESCENT1 CUS0033754          S MOHAMED                     00000000000000000000                21                      
903L001L5063200504094544892D23700024825065562726643754100000007500210416350   CRESCENT1 CUS0045408          N PIRIA                       00000000000000000000                21                      
903L001L5063200504094544892D23700024947001001337181038200000008500210416350   CRESCENT1 CUS0051927          M EDWARDS                     00000000000000000000                21                      
903L001L5063200504094544892D23700025047001001317803890200000008500210416350   CRESCENT1 CUS0058554          S JOGEE ABDULLAH              00000000000000000000                21                      
903L001L5063200504094544892D23700025125065562044314243100000008500210416350   CRESCENT1 CUS0008927          A ADAMJEE                     00000000000000000000                21                      
903L001L5063200504094544892D23700025225065560008136124100000006900210416350   CRESCENT1 CUS0033913          A JAPPIE                      00000000000000000000                21                      
903L001L5063200504094544892D23700025325065562243000172100000008500210416350   CRESCENT1 CUS0045439          N OSMAN                       00000000000000000000                21                      
903L001L5063200504094544892D23700025425065562427854197100000008500210416350   CRESCENT1 CUS0051962          F AHMED                       00000000000000000000                21                      
903L001L5063200504094544892D23700025547001001272153116200000008500210416350   CRESCENT1 CUS0058593          R SALIE                       00000000000000000000                21                      
903L001L5063200504094544892D23700025605100100225347296100000008500210416350   CRESCENT1 CUS0008928          K STEELE                      00000000000000000000                21                      
903L001L5063200504094544892D23700025747001001364667140200000008500210416350   CRESCENT1 CUS0033918          S HUNTER                      00000000000000000000                21                      
903L001L5063200504094544892D23700025819876501014351707100000008500210416350   CRESCENT1 CUS0045440          A AKHALWAYA                   00000000000000000000                21                      
903L001L5063200504094544892D23700025947001001335535169200000007500210416350   CRESCENT1 CUS0052058          F SINGH                       00000000000000000000                21                      
903L001L5063200504094544892D23700026047001001418218195200000008500210416350   CRESCENT1 CUS0058614          F BENJAMIN                    00000000000000000000                21                      
903L001L5063200504094544892D23700026125065562407586877100000008500210416350   CRESCENT1 CUS0009023          M IBRAHIM                     00000000000000000000                21                      
903L001L5063200504094544892D23700026225065555292311989100000006900210416350   CRESCENT1 CUS0034034          M MAJAM                       00000000000000000000                21                      
903L001L5063200504094544892D23700026319876501953471226100000008500210416350   CRESCENT1 CUS0045472          A HANSA                       00000000000000000000                21                      
903L001L5063200504094544892D23700026425065562421691769100000008500210416350   CRESCENT1 CUS0052099          R ABDUL LATIFF                00000000000000000000                21                      
903L001L5063200504094544892D23700026525065562075103053100000008500210416350   CRESCENT1 CUS0058616          M FILLIES                     00000000000000000000                21                      
903L001L5063200504094544892D23700026663200504066848696100000008500210416350   CRESCENT1 CUS0009054          Z AYOB                        00000000000000000000                21                      
903L001L5063200504094544892D23700026725065562014628062100000008500210416350   CRESCENT1 CUS0034127          A ROSENBERG                   00000000000000000000                21                      
903L001L5063200504094544892D23700026863200509074811450100000008500210416350   CRESCENT1 CUS0045482          R BULBULIA                    00000000000000000000                21                      
903L001L5063200504094544892D23700026925065562343016441100000016000210416350   CRESCENT1 CUS0052113          R PETERSEN                    00000000000000000000                21                      
903L001L5063200504094544892D23700027047001001545282054200000008500210416350   CRESCENT1 CUS0058617          M FISHER                      00000000000000000000                21                      
903L001L5063200504094544892D23700027163200509189952727100000008500210416350   CRESCENT1 CUS0009221          R BALA                        00000000000000000000                21                      
903L001L5063200504094544892D23700027205100100062081195100000008500210416350   CRESCENT1 CUS0034290          Z LINX                        00000000000000000000                21                      
903L001L5063200504094544892D23700027325065562520425887100000006900210416350   CRESCENT1 CUS0045488          R MOHAMED                     00000000000000000000                21                      
903L001L5063200504094544892D23700027419876502080007807200000016000210416350   CRESCENT1 CUS0052126          M BADEROEN                    00000000000000000000                21                      
903L001L5063200504094544892D23700027519876501151587389100000006900210416350   CRESCENT1 CUS0058618          S ISMAIL                      00000000000000000000                21                      
903L001L5063200504094544892D23700027663200509093394790100000008500210416350   CRESCENT1 CUS0009249          M RAJAH                       00000000000000000000                21                      
903L001L5063200504094544892D23700027719876501956160868100000008500210416350   CRESCENT1 CUS0034748          G GOOL                        00000000000000000000                21                      
903L001L5063200504094544892D23700027847001001541794271200000008500210416350   CRESCENT1 CUS0045511          N ADAM                        00000000000000000000                21                      
903L001L5063200504094544892D23700027905100110094269627100000008500210416350   CRESCENT1 CUS0052134          F ISAACS                      00000000000000000000                21                      
903L001L5063200504094544892D23700028063200509356004406100000008500210416350   CRESCENT1 CUS0058625          G SIMONS                      00000000000000000000                21                      
903L001L5063200504094544892D23700028125065562010070465100000008500210416350   CRESCENT1 CUS0009301          A ALI                         00000000000000000000                21                      
903L001L5063200504094544892D23700028205100100052823482100000008500210416350   CRESCENT1 CUS0034797          I MOTALA                      00000000000000000000                21                      
903L001L5063200504094544892D23700028325065562481548629100000008500210416350   CRESCENT1 CUS0045557          F JADA                        00000000000000000000                21                      
903L001L5063200504094544892D23700028447001001299344672200000008500210416350   CRESCENT1 CUS0052137          S MARIMUTHU                   00000000000000000000                21                      
903L001L5063200504094544892D23700028505100100070222762100000008500210416350   CRESCENT1 CUS0058669          S ABRAHAMS                    00000000000000000000                21                      
903L001L5063200504094544892D23700028663200509136748715100000008500210416350   CRESCENT1 CUS0009745          T MOOSA                       00000000000000000000                21                      
903L001L5063200504094544892D23700028747001001651755319200000008500210416350   CRESCENT1 CUS0034974          H LEDIGA                      00000000000000000000                21                      
903L001L5063200504094544892D23700028825065562285394062100000008500210416350   CRESCENT1 CUS0045559          N VORAJEE                     00000000000000000000                21                      
903L001L5063200504094544892D23700028919876502081049619200000008500210416350   CRESCENT1 CUS0052139          F FAKIER                      00000000000000000000                21                      
903L001L5063200504094544892D23700029005100100277523001100000008500210416350   CRESCENT1 CUS0058682          F NAZ                         00000000000000000000                21                      
903L001L5063200504094544892D23700029125065562036282276100000016000210416350   CRESCENT1 CUS0009796          F DHOOMAH                     00000000000000000000                21                      
903L001L5063200504094544892D23700029225065550070010539100000008500210416350   CRESCENT1 CUS0035077          S ABRAHAMS                    00000000000000000000                21                      
903L001L5063200504094544892D23700029325065562307561333100000008500210416350   CRESCENT1 CUS0045589          M TIKLY                       00000000000000000000                21                      
903L001L5063200504094544892D23700029463200504082995053100000008500210416350   CRESCENT1 CUS0052143          T AMON                        00000000000000000000                21                      
903L001L5063200504094544892D23700029547001001340022565200000006900210416350   CRESCENT1 CUS0058688          M EDWARDS                     00000000000000000000                21                      
903L001L5063200504094544892D23700029625065562049613400100000008500210416350   CRESCENT1 CUS0009922          R JACOBS                      00000000000000000000                21                      
903L001L5063200504094544892D23700029705100100080670954100000006900210416350   CRESCENT1 CUS0035135          C AGHERDIEN                   00000000000000000000                21                      
903L001L5063200504094544892D23700029863200509184854641100000008500210416350   CRESCENT1 CUS0045651          U BODIAT                      00000000000000000000                21                      
903L001L5063200504094544892D23700029925065562658687028100000008500210416350   CRESCENT1 CUS0052247          S JACOB                       00000000000000000000                21                      
903L001L5063200504094544892D23700030019876501139710273100000008500210416350   CRESCENT1 CUS0058690          A AMLAY                       00000000000000000000                21                      
903L001L5063200504094544892D23700030163200509664039687100000014400210416350   CRESCENT1 CUS0010035          A NOOR MOHAMED                00000000000000000000                21                      
903L001L5063200504094544892D23700030225065562358782300100000008500210416350   CRESCENT1 CUS0035163          I HOOSAIN                     00000000000000000000                21                      
903L001L5063200504094544892D23700030325065550450216442100000008500210416350   CRESCENT1 CUS0045673          S EBRAHIM                     00000000000000000000                21                      
903L001L5063200504094544892D23700030463200504079173189100000008500210416350   CRESCENT1 CUS0052292          F FLOWERS                     00000000000000000000                21                      
903L001L5063200504094544892D23700030547001001174426452200000008500210416350   CRESCENT1 CUS0058695          R DESAI                       00000000000000000000                21                      
903L001L5063200504094544892D23700030625065562032632433100000008500210416350   CRESCENT1 CUS0010180          A TELADIA                     00000000000000000000                21                      
903L001L5063200504094544892D23700030705100100277752310100000008500210416350   CRESCENT1 CUS0035260          R MAKHUBELA                   00000000000000000000                21                      
903L001L5063200504094544892D23700030863200504055003152100000008500210416350   CRESCENT1 CUS0045698          R MAHDI                       00000000000000000000                21                      
903L001L5063200504094544892D23700030947001001535662490200000016000210416350   CRESCENT1 CUS0052294          M PHILLIPS                    00000000000000000000                21                      
903L001L5063200504094544892D23700031047001001669371172100000008500210416350   CRESCENT1 CUS0058715          Y TAGODIEN                    00000000000000000000                21                      
903L001L5063200504094544892D23700031125065562055051694100000008500210416350   CRESCENT1 CUS0010451          I SEEDAT                      00000000000000000000                21                      
903L001L5063200504094544892D23700031205100100002526409100000008500210416350   CRESCENT1 CUS0035300          S MANGERA                     00000000000000000000                21                      
903L001L5063200504094544892D23700031363200509091153453100000007500210416350   CRESCENT1 CUS0045736          Z BHAYAT                      00000000000000000000                21                      
903L001L5063200504094544892D23700031425065562682736726100000008500210416350   CRESCENT1 CUS0052318          U ASMAL                       00000000000000000000                21                      
903L001L5063200504094544892D23700031563200504040872867100000008500210416350   CRESCENT1 CUS0058731          N EBRAHIM                     00000000000000000000                21                      
903L001L5063200504094544892D23700031663200509045409200100000006900210416350   CRESCENT1 CUS0010506          K ABDULLA                     00000000000000000000                21                      
903L001L5063200504094544892D23700031725065562350055763100000016000210416350   CRESCENT1 CUS0035316          J EBRAHIM                     00000000000000000000                21                      
903L001L5063200504094544892D23700031847001001380451777200000016000210416350   CRESCENT1 CUS0045774          R BOSMAN                      00000000000000000000                21                      
903L001L5063200504094544892D23700031963200509317183421100000017000210416350   CRESCENT1 CUS0052330          I BRINKHUIS                   00000000000000000000                21                      
903L001L5063200504094544892D23700032047001001266170705200000015400210416350   CRESCENT1 CUS0058774          A ABDURAHMAN                  00000000000000000000                21                      
903L001L5063200504094544892D23700032163200509288814292100000008500210416350   CRESCENT1 CUS0010520          F CASSIM                      00000000000000000000                21                      
903L001L5063200504094544892D23700032225065560529190914100000016000210416350   CRESCENT1 CUS0035586          A KLOLVADIA                   00000000000000000000                21                      
903L001L5063200504094544892D23700032325065562317399542100000008500210416350   CRESCENT1 CUS0045775          M MAZIBUKO                    00000000000000000000                21                      
903L001L5063200504094544892D23700032425065562065487417100000008500210416350   CRESCENT1 CUS0052410          U MCKAY                       00000000000000000000                21                      
903L001L5063200504094544892D23700032563200504083979010100000006900210416350   CRESCENT1 CUS0058776          F ARNOLD                      00000000000000000000                21                      
903L001L5063200504094544892D23700032625065562125334160100000008500210416350   CRESCENT1 CUS0010525          Y CARRIM                      00000000000000000000                21                      
903L001L5063200504094544892D23700032763200504077784463100000008500210416350   CRESCENT1 CUS0035647          F SAYED                       00000000000000000000                21                      
903L001L5063200504094544892D23700032805100100071200037100000008500210416350   CRESCENT1 CUS0045872          S HOOSAIN                     00000000000000000000                21                      
903L001L5063200504094544892D23700032963200509276840792100000008500210416350   CRESCENT1 CUS0052436          S BUCKS                       00000000000000000000                21                      
903L001L5063200504094544892D23700033025065562799958693100000006900210416350   CRESCENT1 CUS0058802          W ADAMS                       00000000000000000000                21                      
903L001L5063200504094544892D23700033125065562090314461100000015000210416350   CRESCENT1 CUS0010568          A MOHAMED                     00000000000000000000                21                      
903L001L5063200504094544892D23700033205100100331082861100000008500210416350   CRESCENT1 CUS0035698          K HUSSAIN SUILAMAN            00000000000000000000                21                      
903L001L5063200504094544892D23700033325065551240017660100000006900210416350   CRESCENT1 CUS0045889          A WADEE                       00000000000000000000                21                      
903L001L5063200504094544892D23700033425065562610905377100000008500210416350   CRESCENT1 CUS0052451          M LATIFF                      00000000000000000000                21                      
903L001L5063200504094544892D23700033525065562772036523100000008500210416350   CRESCENT1 CUS0058808          I ARIEFDIEN                   00000000000000000000                21                      
903L001L5063200504094544892D23700033625065562259425950100000017000210416350   CRESCENT1 CUS0010647          F DOCKRAT                     00000000000000000000                21                      
903L001L5063200504094544892D23700033725065562756888015100000008500210416350   CRESCENT1 CUS0035718          W EDWARDS                     00000000000000000000                21                      
903L001L5063200504094544892D23700033825065550250043657100000008500210416350   CRESCENT1 CUS0045897          W DALWAI                      00000000000000000000                21                      
903L001L5063200504094544892D23700033947001001114295947200000008500210416350   CRESCENT1 CUS0052457          N FICK                        00000000000000000000                21                      
903L001L5063200504094544892D23700034025065562107492580100000016000210416350   CRESCENT1 CUS0058837          A ERASMUS                     00000000000000000000                21                      
903L001L5063200504094544892D23700034125065562094608688100000016000210416350   CRESCENT1 CUS0010701          M LATIB                       00000000000000000000                21                      
903L001L5063200504094544892D23700034219876501411214102100000007500210416350   CRESCENT1 CUS0035721          G KAKA                        00000000000000000000                21                      
903L001L5063200504094544892D23700034305100100201374455100000008500210416350   CRESCENT1 CUS0045902          N SHAIKJEE                    00000000000000000000                21                      
903L001L5063200504094544892D23700034463200509101024893100000008500210416350   CRESCENT1 CUS0052481          S KHAN                        00000000000000000000                21                      
903L001L5063200504094544892D23700034525065562814853596100000016000210416350   CRESCENT1 CUS0058841          R JOUBYAR                     00000000000000000000                21                      
903L001L5063200504094544892D23700034663200509133279898100000016000210416350   CRESCENT1 CUS0010951          F ACHHAVA                     00000000000000000000                21                      
903L001L5063200504094544892D23700034725065562487358064100000008500210416350   CRESCENT1 CUS0035828          M KHAN                        00000000000000000000                21                      
903L001L5063200504094544892D23700034819876501970759143100000008500210416350   CRESCENT1 CUS0045904          B DANGOR                      00000000000000000000                21                      
903L001L5063200504094544892D23700034905100100271440546100000008500210416350   CRESCENT1 CUS0052485          G SAMUELS                     00000000000000000000                21                      
903L001L5063200504094544892D23700035047001001427457628200000008500210416350   CRESCENT1 CUS0058844          R FINCK                       00000000000000000000                21                      
903L001L5063200504094544892D23700035125065553080030943100000016000210416350   CRESCENT1 CUS0010953          E HOOSEN                      00000000000000000000                21                      
903L001L5063200504094544892D23700035247001001147301288200000008500210416350   CRESCENT1 CUS0035884          M GEORGE                      00000000000000000000                21                      
903L001L5063200504094544892D23700035363200504059881358100000016000210416350   CRESCENT1 CUS0045976          A HENDRICKS                   00000000000000000000                21                      
903L001L5063200504094544892D23700035425065562121819421100000008500210416350   CRESCENT1 CUS0052495          M BAARTMAN                    00000000000000000000                21                      
903L001L5063200504094544892D23700035525065562785353609100000008500210416350   CRESCENT1 CUS0058854          Z NOORSHID                    00000000000000000000                21                      
903L001L5063200504094544892D23700035605100100001704419100000008500210416350   CRESCENT1 CUS0011279          I HAFFEJEE                    00000000000000000000                21                      
903L001L5063200504094544892D23700035719876501128028832100000008500210416350   CRESCENT1 CUS0035969          A OSMAN                       00000000000000000000                21                      
903L001L5063200504094544892D23700035863200509020219831100000008500210416350   CRESCENT1 CUS0046071          G LAKAY                       00000000000000000000                21                      
903L001L5063200504094544892D23700035919876501063966949100000008500210416350   CRESCENT1 CUS0052496          F LATIFF                      00000000000000000000                21                      
903L001L5063200504094544892D23700036047001001628917103200000008500210416350   CRESCENT1 CUS0058863          M QANGULE                     00000000000000000000                21                      
903L001L5063200504094544892D23700036105100100013710613100000008500210416350   CRESCENT1 CUS0011381          Z HASSEN                      00000000000000000000                21                      
903L001L5063200504094544892D23700036225065560093721287100000008500210416350   CRESCENT1 CUS0036000          F PREGNOLATO                  00000000000000000000                21                      
903L001L5063200504094544892D23700036363200509257710607100000008500210416350   CRESCENT1 CUS0046110          R HUSPATEL                    00000000000000000000                21                      
903L001L5063200504094544892D23700036405100110042572051100000008500210416350   CRESCENT1 CUS0052502          F BEKKO                       00000000000000000000                21                      
903L001L5063200504094544892D23700036567891051006224664100000008500210416350   CRESCENT1 CUS0058877          N BHOOLA                      00000000000000000000                21                      
903L001L5063200504094544892D23700036663200509288564110100000008500210416350   CRESCENT1 CUS0011404          A MOOSTAFA                    00000000000000000000                21                      
903L001L5063200504094544892D23700036725065562024343361100000016000210416350   CRESCENT1 CUS0036027          M ALLIBHAI DUDHAI             00000000000000000000                21                      
903L001L5063200504094544892D23700036863200509081452633100000008500210416350   CRESCENT1 CUS0046125          F CASSIEM                     00000000000000000000                21                      
903L001L5063200504094544892D23700036947001001356811351200000008500210416350   CRESCENT1 CUS0052578          F RAHMAN                      00000000000000000000                21                      
903L001L5063200504094544892D23700037047001001605725097200000008500210416350   CRESCENT1 CUS0058880          S AGHERDIEN                   00000000000000000000                21                      
903L001L5063200504094544892D23700037105100100052750612100000016000210416350   CRESCENT1 CUS0011471          A BISSESSUR                   00000000000000000000                21                      
903L001L5063200504094544892D23700037225065562253112305100000008500210416350   CRESCENT1 CUS0036104          Z MORALO                      00000000000000000000                21                      
903L001L5063200504094544892D23700037325065550230038389100000008500210416350   CRESCENT1 CUS0046160          M KADER                       00000000000000000000                21                      
903L001L5063200504094544892D23700037447001001164551386200000008500210416350   CRESCENT1 CUS0052592          S ROSENBERG                   00000000000000000000                21                      
903L001L5063200504094544892D23700037563200509262122807100000008500210416350   CRESCENT1 CUS0058888          N LINNEVELDT                  00000000000000000000                21                      
903L001L5063200504094544892D23700037658010510011274317100000016000210416350   CRESCENT1 CUS0011476          A ALLIE                       00000000000000000000                21                      
903L001L5063200504094544892D23700037719876501953429114100000008500210416350   CRESCENT1 CUS0036108          A BULBULIA                    00000000000000000000                21                      
903L001L5063200504094544892D23700037825065550220091074100000016000210416350   CRESCENT1 CUS0046161          R DAWOOD - PARKER             00000000000000000000                21                      
903L001L5063200504094544892D23700037905100100225891794100000008500210416350   CRESCENT1 CUS0052709          A KARANI                      00000000000000000000                21                      
903L001L5063200504094544892D23700038025065562500414298100000008500210416350   CRESCENT1 CUS0058892          A DAWOOD                      00000000000000000000                21                      
903L001L5063200504094544892D23700038125065562062196392100000016000210416350   CRESCENT1 CUS0011580          F AMRA                        00000000000000000000                21                      
903L001L5063200504094544892D23700038225065562528667134100000023500210416350   CRESCENT1 CUS0036111          B MOOLA                       00000000000000000000                21                      
903L001L5063200504094544892D23700038363200504090765763100000008500210416350   CRESCENT1 CUS0046178          M MOOLA                       00000000000000000000                21                      
903L001L5063200504094544892D23700038425065560529159093100000006900210416350   CRESCENT1 CUS0052747          N NAGDEE                      00000000000000000000                21                      
903L001L5063200504094544892D23700038563200509197095296100000006900210416350   CRESCENT1 CUS0058897          A PANGARAER                   00000000000000000000                21                      
903L001L5063200504094544892D23700038605100100201119153100000008500210416350   CRESCENT1 CUS0011624          A HANSROD                     00000000000000000000                21                      
903L001L5063200504094544892D23700038763200509097460361100000008500210416350   CRESCENT1 CUS0036125          A BHAYAT                      00000000000000000000                21                      
903L001L5063200504094544892D23700038819876501169819338100000008500210416350   CRESCENT1 CUS0046259          F DESAI                       00000000000000000000                21                      
903L001L5063200504094544892D23700038919876502607188954200000008500210416350   CRESCENT1 CUS0052750          B HAFFEJEE                    00000000000000000000                21                      
903L001L5063200504094544892D23700039047001001553974849200000008500210416350   CRESCENT1 CUS0058906          K HATTAS-FERRIS               00000000000000000000                21                      
903L001L5063200504094544892D23700039125065562373090100100000016000210416350   CRESCENT1 CUS0011657          I MAHOMED                     00000000000000000000                21                      
903L001L5063200504094544892D23700039247001001213988223200000016000210416350   CRESCENT1 CUS0036127          E AJAM                        00000000000000000000                21                      
903L001L5063200504094544892D23700039363200504076920692100000008500210416350   CRESCENT1 CUS0046307          A PARKER                      00000000000000000000                21                      
903L001L5063200504094544892D23700039419876501349138002100000008500210416350   CRESCENT1 CUS0052765          S YUSUF                       00000000000000000000                21                      
903L001L5063200504094544892D23700039525065562562947237100000006900210416350   CRESCENT1 CUS0058914          A MUKADAM                     00000000000000000000                21                      
903L001L5063200504094544892D23700039605100100402178602100000008500210416350   CRESCENT1 CUS0011704          T ENNASSIRI                   00000000000000000000                21                      
903L001L5063200504094544892D23700039747001001422032645200000008500210416350   CRESCENT1 CUS0036139          F ASMAN                       00000000000000000000                21                      
903L001L5063200504094544892D23700039805100100012336459100000015400210416350   CRESCENT1 CUS0046312          F HOOSEN                      00000000000000000000                21                      
903L001L5063200504094544892D23700039963200504075700340100000008500210416350   CRESCENT1 CUS0052766          A MOTLEKAR                    00000000000000000000                21                      
903L001L5063200504094544892D23700040047001001673922587200000008500210416350   CRESCENT1 CUS0058921          B MNISI                       00000000000000000000                21                      
903L001L5063200504094544892D23700040125065562047846889100000023500210416350   CRESCENT1 CUS0011777          A MIA                         00000000000000000000                21                      
903L001L5063200504094544892D23700040219876501301374539100000008500210416350   CRESCENT1 CUS0036148          K USSUPH                      00000000000000000000                21                      
903L001L5063200504094544892D23700040325065562107892392100000008500210416350   CRESCENT1 CUS0046323          O CANNELL                     00000000000000000000                21                      
903L001L5063200504094544892D23700040419876501004744846100000008500210416350   CRESCENT1 CUS0052770          S WILLIAMS                    00000000000000000000                21                      
903L001L5063200504094544892D23700040525065562080220355100000008500210416350   CRESCENT1 CUS0058943          F CASSIEM                     00000000000000000000                21                      
903L001L5063200504094544892D23700040605100100052691624100000008500210416350   CRESCENT1 CUS0011784          A PEER                        00000000000000000000                21                      
903L001L5063200504094544892D23700040719876501729396291100000008500210416350   CRESCENT1 CUS0036189          R CHARLES                     00000000000000000000                21                      
903L001L5063200504094544892D23700040805100100332680401100000008500210416350   CRESCENT1 CUS0046391          M PAREKH                      00000000000000000000                21                      
903L001L5063200504094544892D23700040963200506201590628100000008500210416350   CRESCENT1 CUS0052773          R HAMID                       00000000000000000000                21                      
903L001L5063200504094544892D23700041047001001359682285200000008500210416350   CRESCENT1 CUS0058953          R PRINCE                      00000000000000000000                21                      
903L001L5063200504094544892D23700041125065562752038375100000008500210416350   CRESCENT1 CUS0011814          S LIMBADA                     00000000000000000000                21                      
903L001L5063200504094544892D23700041205100100073316237100000016000210416350   CRESCENT1 CUS0036271          S KOOTBODIEN                  00000000000000000000                21                      
903L001L5063200504094544892D23700041347001001377843120200000008500210416350   CRESCENT1 CUS0046403          Y MOOSA                       00000000000000000000                21                      
903L001L5063200504094544892D23700041425065562115970461100000008500210416350   CRESCENT1 CUS0052775          M ABRAHIEM                    00000000000000000000                21                      
903L001L5063200504094544892D23700041547001001535710789200000006900210416350   CRESCENT1 CUS0058954          K COZYN                       00000000000000000000                21                      
903L001L5063200504094544892D23700041605100100026162970100000008500210416350   CRESCENT1 CUS0011839          M RAZAK                       00000000000000000000                21                      
903L001L5063200504094544892D23700041705100100168277409100000016000210416350   CRESCENT1 CUS0036314          F AKOONJEE                    00000000000000000000                21                      
903L001L5063200504094544892D23700041805100100241331064100000008500210416350   CRESCENT1 CUS0046442          M HASSIM                      00000000000000000000                21                      
903L001L5063200504094544892D23700041963200509018254388100000016000210416350   CRESCENT1 CUS0052804          A HENDRICKS                   00000000000000000000                21                      
903L001L5063200504094544892D23700042047001001556818201200000008500210416350   CRESCENT1 CUS0058968          S SALLIE                      00000000000000000000                21                      
903L001L5063200504094544892D23700042125065550311202506100000008500210416350   CRESCENT1 CUS0011890          I MAYAT                       00000000000000000000                21                      
903L001L5063200504094544892D23700042205100100251329232100000008500210416350   CRESCENT1 CUS0036364          F FYZOO                       00000000000000000000                21                      
903L001L5063200504094544892D23700042325065562505679748100000008500210416350   CRESCENT1 CUS0046517          M JHETAM                      00000000000000000000                21                      
903L001L5063200504094544892D23700042425065562023671010100000008500210416350   CRESCENT1 CUS0052806          A MOOSA                       00000000000000000000                21                      
903L001L5063200504094544892D23700042547001001307172286200000016000210416350   CRESCENT1 CUS0058986          G SAMPSON                     00000000000000000000                21                      
903L001L5063200504094544892D23700042605100100016876202100000008500210416350   CRESCENT1 CUS0011930          S GAFOOR                      00000000000000000000                21                      
903L001L5063200504094544892D23700042763200509267547929100000008500210416350   CRESCENT1 CUS0036372          A TARR                        00000000000000000000                21                      
903L001L5063200504094544892D23700042847001001207070597200000008500210416350   CRESCENT1 CUS0046628          Z OSMAN                       00000000000000000000                21                      
903L001L5063200504094544892D23700042947001001364332033200000008500210416350   CRESCENT1 CUS0052851          T SMITH                       00000000000000000000                21                      
903L001L5063200504094544892D23700043047001001330207813200000008500210416350   CRESCENT1 CUS0058989          S ARNOLDS                     00000000000000000000                21                      
903L001L5063200504094544892D23700043163200504049030777100000008500210416350   CRESCENT1 CUS0011949          M GHASITHA                    00000000000000000000                21                      
903L001L5063200504094544892D23700043225065562427849776100000008500210416350   CRESCENT1 CUS0036378          F KARA                        00000000000000000000                21                      
903L001L5063200504094544892D23700043325065562189010558100000008500210416350   CRESCENT1 CUS0046676          S MANSOOR                     00000000000000000000                21                      
903L001L5063200504094544892D23700043425065562498986341100000008500210416350   CRESCENT1 CUS0052875          C ANDREWS                     00000000000000000000                21                      
903L001L5063200504094544892D23700043525065562256098669100000008500210416350   CRESCENT1 CUS0058991          A BRENNER                     00000000000000000000                21                      
903L001L5063200504094544892D23700043619876501018853057100000016000210416350   CRESCENT1 CUS0011992          F YUSSUF                      00000000000000000000                21                      
903L001L5063200504094544892D23700043725065562155838439100000016000210416350   CRESCENT1 CUS0036446          I RANDEREE                    00000000000000000000                21                      
903L001L5063200504094544892D23700043805100100032003900100000008500210416350   CRESCENT1 CUS0046723          M SHEKH                       00000000000000000000                21                      
903L001L5063200504094544892D23700043919876501108694209100000008500210416350   CRESCENT1 CUS0052901          G ABRAHAMS                    00000000000000000000                21                      
903L001L5063200504094544892D23700044019876501030403708100000008500210416350   CRESCENT1 CUS0058992          S LEE                         00000000000000000000                21                      
903L001L5063200504094544892D23700044119876501107652715100000008500210416350   CRESCENT1 CUS0012177          M BHORAT                      00000000000000000000                21                      
903L001L5063200504094544892D23700044225065562456852138100000008500210416350   CRESCENT1 CUS0036531          N SINGH                       00000000000000000000                21                      
903L001L5063200504094544892D23700044305100100272094935100000008500210416350   CRESCENT1 CUS0046741          A PARKER                      00000000000000000000                21                      
903L001L5063200504094544892D23700044447001001543912875200000008500210416350   CRESCENT1 CUS0052910          Z HOWARD                      00000000000000000000                21                      
903L001L5063200504094544892D23700044505100100410528226100000008500210416350   CRESCENT1 CUS0059024          R NAZIER                      00000000000000000000                21                      
903L001L5063200504094544892D23700044605100100001685236100000008500210416350   CRESCENT1 CUS0012561          N MOHAMED                     00000000000000000000                21                      
903L001L5063200504094544892D23700044705100100050303198100000008500210416350   CRESCENT1 CUS0036617          R BENJAMIN                    00000000000000000000                21                      
903L001L5063200504094544892D23700044819876502546005804200000015000210416350   CRESCENT1 CUS0046743          J ALLIE                       00000000000000000000                21                      
903L001L5063200504094544892D23700044925065562547360074100000013800210416350   CRESCENT1 CUS0052960          A HOOSEN                      00000000000000000000                21                      
903L001L5063200504094544892D23700045047001001712012361200000008500210416350   CRESCENT1 CUS0059050          J MOSES                       00000000000000000000                21                      
903L001L5063200504094544892D23700045105100100021138567100000008500210416350   CRESCENT1 CUS0012576          Y SEEDAT                      00000000000000000000                21                      
903L001L5063200504094544892D23700045205100100181519437100000008500210416350   CRESCENT1 CUS0036652          M ALLY                        00000000000000000000                21                      
903L001L5063200504094544892D23700045305100100427278813100000008500210416350   CRESCENT1 CUS0046749          F MAHOMED                     00000000000000000000                21                      
903L001L5063200504094544892D23700045463200509087895459100000008500210416350   CRESCENT1 CUS0052965          W DOUTIE                      00000000000000000000                21                      
903L001L5063200504094544892D23700045547001001156017015200000008500210416350   CRESCENT1 CUS0059071          A MOHLOLO                     00000000000000000000                21                      
903L001L5063200504094544892D23700045625065562022446448100000008500210416350   CRESCENT1 CUS0012618          A ISMAIL                      00000000000000000000                21                      
903L001L5063200504094544892D23700045747001001239561936200000008500210416350   CRESCENT1 CUS0036674          S JHATAM                      00000000000000000000                21                      
903L001L5063200504094544892D23700045847001001390400377200000008500210416350   CRESCENT1 CUS0046788          N ALLIE                       00000000000000000000                21                      
903L001L5063200504094544892D23700045963200509042770543100000016000210416350   CRESCENT1 CUS0052989          I MEYER                       00000000000000000000                21                      
903L001L5063200504094544892D23700046019876501147108528100000008500210416350   CRESCENT1 CUS0059073          M NORRIS                      00000000000000000000                21                      
903L001L5063200504094544892D23700046105100110044546759100000006900210416350   CRESCENT1 CUS0012645          C TIMOL                       00000000000000000000                21                      
903L001L5063200504094544892D23700046205100100250633566100000016000210416350   CRESCENT1 CUS0036821          F MOHAMED                     00000000000000000000                21                      
903L001L5063200504094544892D23700046325065562544866520100000008500210416350   CRESCENT1 CUS0046790          A PAULSEN                     00000000000000000000                21                      
903L001L5063200504094544892D23700046419876501926008952100000006900210416350   CRESCENT1 CUS0052990          Q TITIS                       00000000000000000000                21                      
903L001L5063200504094544892D23700046547001001739299564100000008500210416350   CRESCENT1 CUS0059075          Y ARDUM                       00000000000000000000                21                      
903L001L5063200504094544892D23700046605100100011360879100000008500210416350   CRESCENT1 CUS0012697          S AMOD                        00000000000000000000                21                      
903L001L5063200504094544892D23700046725065562316632670100000008500210416350   CRESCENT1 CUS0036964          A MLAZI                       00000000000000000000                21                      
903L001L5063200504094544892D23700046863200509204862784100000008500210416350   CRESCENT1 CUS0046817          S AKOOJEE                     00000000000000000000                21                      
903L001L5063200504094544892D23700046905100110143972292100000006900210416350   CRESCENT1 CUS0052992          M FANIE                       00000000000000000000                21                      
903L001L5063200504094544892D23700047047001001245755313200000008500210416350   CRESCENT1 CUS0059102          Z MOHAMMID                    00000000000000000000                21                      
903L001L5063200504094544892D23700047119876501411391276100000016000210416350   CRESCENT1 CUS0012843          S KAJEE                       00000000000000000000                21                      
903L001L5063200504094544892D23700047225065562046274453100000008500210416350   CRESCENT1 CUS0037115          M DEMAINE                     00000000000000000000                21                      
903L001L5063200504094544892D23700047363200504090275106100000008500210416350   CRESCENT1 CUS0046818          R ANTHONY                     00000000000000000000                21                      
903L001L5063200504094544892D23700047425065562104552163100000008500210416350   CRESCENT1 CUS0052993          L ADAM                        00000000000000000000                21                      
903L001L5063200504094544892D23700047505100110131385656100000006900210416350   CRESCENT1 CUS0059125          A SCELLO                      00000000000000000000                21                      
903L001L5063200504094544892D23700047605100100002554216100000008500210416350   CRESCENT1 CUS0013042          D LAHER                       00000000000000000000                21                      
903L001L5063200504094544892D23700047763200509099459209100000008500210416350   CRESCENT1 CUS0037124          F EBRAHIM                     00000000000000000000                21                      
903L001L5063200504094544892D23700047847001001426524399200000008500210416350   CRESCENT1 CUS0046901          A ISMAIL                      00000000000000000000                21                      
903L001L5063200504094544892D23700047963200504048810514100000008500210416350   CRESCENT1 CUS0052994          M FAGMI SABAN                 00000000000000000000                21                      
903L001L5063200504094544892D23700048025065562493207875100000008500210416350   CRESCENT1 CUS0059135          C MOOSA                       00000000000000000000                21                      
903L001L5063200504094544892D23700048119876502940168083200000016000210416350   CRESCENT1 CUS0013134          H NABEE                       00000000000000000000                21                      
903L001L5063200504094544892D23700048225065562025953432100000023500210416350   CRESCENT1 CUS0037152          G KADIR                       00000000000000000000                21                      
903L001L5063200504094544892D23700048305100100301522375100000008500210416350   CRESCENT1 CUS0046912          N BISMILLA                    00000000000000000000                21                      
903L001L5063200504094544892D23700048425065562049663893100000008500210416350   CRESCENT1 CUS0053017          E ABRAHAMS                    00000000000000000000                21                      
903L001L5063200504094544892D23700048567891051011588070100000008500210416350   CRESCENT1 CUS0059147          H ALLIE                       00000000000000000000                21                      
903L001L5063200504094544892D23700048663200509186984181100000008500210416350   CRESCENT1 CUS0013242          F KARANI                      00000000000000000000                21                      
903L001L5063200504094544892D23700048725065562047458410100000023500210416350   CRESCENT1 CUS0037167          S KHAN                        00000000000000000000                21                      
903L001L5063200504094544892D23700048819876501001871936100000008500210416350   CRESCENT1 CUS0046977          A HASSIM                      00000000000000000000                21                      
903L001L5063200504094544892D23700048919876501107049628100000008500210416350   CRESCENT1 CUS0053026          A EBRAHIM                     00000000000000000000                21                      
903L001L5063200504094544892D23700049047001001473415851200000006900210416350   CRESCENT1 CUS0059173          F KAMALDIEN                   00000000000000000000                21                      
903L001L5063200504094544892D23700049105100100003448266100000008500210416350   CRESCENT1 CUS0013755          I CASSIM                      00000000000000000000                21                      
903L001L5063200504094544892D23700049247001001183445200200000008500210416350   CRESCENT1 CUS0037276          N RAHIM                       00000000000000000000                21                      
903L001L5063200504094544892D23700049325065559200026382100000016000210416350   CRESCENT1 CUS0047062          I ABRAHAMS                    00000000000000000000                21                      
903L001L5063200504094544892D23700049447001001535347803200000008500210416350   CRESCENT1 CUS0053077          K BRINK                       00000000000000000000                21                      
903L001L5063200504094544892D23700049525065562879078006100000008500210416350   CRESCENT1 CUS0059193          T ADAMS                       00000000000000000000                21                      
903L001L5063200504094544892D23700049663200504063621900100000008500210416350   CRESCENT1 CUS0013886          S SEEDAT                      00000000000000000000                21                      
903L001L5063200504094544892D23700049763200504054242355100000008500210416350   CRESCENT1 CUS0037312          M RASHID                      00000000000000000000                21                      
903L001L5063200504094544892D23700049847001001217946274200000008500210416350   CRESCENT1 CUS0047082          M BAKER                       00000000000000000000                21                      
903L001L5063200504094544892D23700049963200509114236704100000006900210416350   CRESCENT1 CUS0053087          Y JATTIEM                     00000000000000000000                21                      
