000L2021010600000PAYPORT CONSULTING PTY LTD EFT000057407303                                                                                                                                           
010LD237000007001                                                                                                                                                                                     
011LD23763200500000040945448920120201215                                                                                                                                                              
013L5020201214000414470010000000151293720500000008500CRESCENT1 CUS0055532          03000000000000                L RAFFETY                                                                            
014L0000000010000000000000000015129372050000000000850000000000000000                                                                                                                                  
019L0000000010000000000000000015129372050000000000850000000000000000                                                                                                                                  
010LD237000007108                                                                                                                                                                                     
011LD23763200500000040945448920120201231                                                                                                                                                              
013L5020201231000046198765000000120669337100000025000ABSOLIT   1609163107RUP001    00200000000000                URIEL PETERSEN                                                                       
014L0000000010000000000000000012066933710000000002500000000000000000                                                                                                                                  
011LD23763200500000040945448920120210104                                                                                                                                                              
013L5020210104000008470010000000153098023000000025000ABSOLIT   1609248915RMAL001   00200000000000                ARASHAAT LAWRENCE                                                                    
013L5020210104000007470010000000122241069700000025000ABSOLIT   1609248915RTB001    00200000000000                TERLECHIA BEEBY                                                                      
014L0000000020000000000000000027533909270000000005000000000000000000                                                                                                                                  
019L0000000030000000000000000039600842980000000007500000000000000000                                                                                                                                  
999L000000016                                                                                                                                                                                         
