000L2021011300000PAYPORT CONSULTING PTY LTD EFT000058407303                                                                                                                                           
010LD237000007708                                                                                                                                                                                     
011LD23763200500000040945448920120201231                                                                                                                                                              
013L5020201231000007250655000006270684109700000050000ABSOLIT   1609163107OLK001    03000000000000                LASHA KRUGER                                                                         
013L5020201231000057250655000006270684109700000050000ABSOLIT   1609163107OLAK001   03000000000000                LASHA KRUGER                                                                         
014L0000000020000000000000001254136821940000000010000000000000000000                                                                                                                                  
019L0000000020000000000000001254136821940000000010000000000000000000                                                                                                                                  
999L000000008                                                                                                                                                                                         
