000L2020112100000PAYPORT CONSULTING PTY LTD EFT000051307303                                                                                                                                           
010LD237000003901                                                                                                                                                                                     
011LD23763200500000040945448920120201021                                                                                                                                                              
013L5020201020000148632005000000407472616300000016000CRESCENT1 1603195658OCUS00480503492801000148                G CORNELIUS                                                                          
014L0000000010000000000000000040747261630000000001600000000000000000                                                                                                                                  
019L0000000010000000000000000040747261630000000001600000000000000000                                                                                                                                  
999L000000007                                                                                                                                                                                         
