000L2021060600000PAYPORT CONSULTING PTY LTD    000080307303                                                                                                                                           
900L000 TRANSMISSION 07303-0000120 ACCEPTED                                                                                                                                                           
900L001 ACB USER SET D237-0000126-000009 ACCEPTED                                                                                                                                                     
903L001L5063200504094544892D23700000125065562660973126200000018900210608350   ARCTICA   1622727011RARCTICA00MOPANI ENGINEERING CC         00000000000000000000                21                      
903L001L5063200504094544892D23700000263200538131732055100000005000210608350   ARCTICA   1622727011RARCTICA01QUENTIN HORN                  00000000000000000000                21                      
903L001L5263200504094544892D23700000363200504094544892100000023900210608100000ARCTICA   CONTRADMBTBF0IYTWPB1                                                                                          
903L001L5063200504094544892D23700000419876501074155491100000044275210608350   SERAPHIM  1622727018R571024   MC PIKE                       00000000000000000000                21                      
903L001L5263200504094544892D23700000563200504094544892100000044275210608100000SERAPHIM  CONTRADQBTS1RWWUFKRJ                                                                                          
903L001L5063200504094544892D23700000663200504087491096100000069900210608350   NEWYOU    1622727014R24       M BEYERS                      00000000000000000000                21                      
903L001L5263200504094544892D23700000763200504094544892100000069900210608100000NEWYOU    CONTRAC7YHSEOLYVHT0Q                                                                                          
903L001L5063200504094544892D23700000825065562825174832100000028750210608350   BAHSO     1622727021OBASELINE BASELINE CIVIL CONTRACTORS    00000000000000000000                21                      
903L001L5263200504094544892D23700000963200504094544892100000028750210608100000BAHSO     CONTRANPOVNSMLCEROB2                                                                                          
999L000000013                                                                                                                                                                                         
