000L2021041800000PAYPORT CONSULTING PTY LTD EFT000072307303                                                                                                                                           
010LD237000018801                                                                                                                                                                                     
011LD23763200500000040945448920120210325                                                                                                                                                              
013L5020210324000244252805000006221629995000000016000CRESCENT1 CUS0017885          03400000000000                A SAHABADIEN                                                                         
014L0000000010000000000000000622162999500000000001600000000000000000                                                                                                                                  
011LD23763200500000040945448920120210326                                                                                                                                                              
013L5020210325002415051001000000040127869700000008500CRESCENT1 CUS0055087          03000000000000                S MURPHU                                                                             
014L0000000010000000000000000004012786970000000000850000000000000000                                                                                                                                  
011LD23763200500000040945448920120210416                                                                                                                                                              
013L5020210415000428470010000000120707059700000008500CRESCENT1 CUS0046628          00200000000000                Z OSMAN                                                                              
013L5020210415001116470010000000152539829400000008500CRESCENT1 CUS0057044          00200000000000                F DAVIDS                                                                             
013L5020210415000900800000000007860015483700000008500CRESCENT1 CUS0049352          00200000000000                E DHOOMA                                                                             
013L5020210415001160632005000000917989282600000008500CRESCENT1 CUS0050702          00292803001160                S JARDIEN                                                                            
013L5020210415000444470010000000154391287500000008500CRESCENT1 CUS0052910          00200000000000                Z HOWARD                                                                             
013L5020210415000983470010000000123818162500000008500CRESCENT1 CUS0022845          01200000000000                T MFIHLO MAHOMMED                                                                    
013L5020210415000240470010000000129325666600000008500CRESCENT1 CUS0058534          00200000000000                A ADAMS                                                                              
013L5020210415000761470010000000133870031400000008500CRESCENT1 CUS0055248          00200000000000                R KHOROMBI                                                                           
013L5020210415000857470010000000153732417700000008500CRESCENT1 CUS0055800          00200000000000                T PALM                                                                               
013L5020210415000567470010000000157416189800000008500CRESCENT1 CUS0038322          00200000000000                M MAKDA                                                                              
013L5020210415000370470010000000160572509700000008500CRESCENT1 CUS0058880          00400000000000                S AGHERDIEN                                                                          
013L5020210415000541051001000000003017102400000016000CRESCENT1 CUS0014972          00600000000000                N ESSA                                                                               
013L5020210415000037051001000000006322912900000031000CRESCENT1 CUS0028732          00200000000000                I DUBE                                                                               
013L5020210415000104051001000000005124365200000007500CRESCENT1 CUS0051366          01200000000000                F ASMAL                                                                              
013L5020210415001190051001000000007057069800000008500CRESCENT1 CUS0050844          00400000000000                A DE VRIES                                                                           
013L5020210415001115051001000000025330857700000007500CRESCENT1 CUS0050522          01200000000000                S MASON                                                                              
013L5020210415000901470010000000140213732800000008500CRESCENT1 CUS0055931          00200000000000                M ARMARDIEN                                                                          
013L5020210415000060470010000000142042916500000008500CRESCENT1 CUS0057829          00200000000000                E CLOETE                                                                             
013L5020210415001111470010000000135500057000000008500CRESCENT1 CUS0057027          00200000000000                F ABRAHAMS                                                                           
013L5020210415000339470010000000111429594700000008500CRESCENT1 CUS0052457          00200000000000                N FICK                                                                               
013L5020210415000680470010000000125417613400000008500CRESCENT1 CUS0059792          00200000000000                G SLAMMAT                                                                            
013L5020210415000350470010000000142745762800000008500CRESCENT1 CUS0058844          00200000000000                R FINCK                                                                              
013L5020210415000005470010000000140783045500000008500CRESCENT1 CUS0057534          00200000000000                A FELIX                                                                              
013L5020210415000160470010000000144910221000000008500CRESCENT1 CUS0058214          00200000000000                M JAFTHA                                                                             
013L5020210415001166470010000000145335942500000008500CRESCENT1 CUS0057291          00200000000000                R ABRAHAMS FRIDIE                                                                    
013L5020210415000490470010000000147341585100000006900CRESCENT1 CUS0059173          00200000000000                F KAMALDIEN                                                                          
013L5020210415000660470010000000156104080900000007500CRESCENT1 CUS0059728          00600000000000                A WILLIAMS                                                                           
013L5020210415000832470010000000125351064200000008500CRESCENT1 CUS0048898          00200000000000                F HASSIEM                                                                            
013L5020210415000485678910000005101158807000000008500CRESCENT1 CUS0059147          00200000000000                H ALLIE                                                                              
013L5020210415000400470010000000167392258700000008500CRESCENT1 CUS0058921          00200000000000                B MNISI                                                                              
013L5020210415000450470010000000171201236100000008500CRESCENT1 CUS0059050          00200000000000                J MOSES                                                                              
013L5020210415000365678910000005100622466400000008500CRESCENT1 CUS0058877          00200000000000                N BHOOLA                                                                             
013L5020210415001026470010000000158866836100000007500CRESCENT1 CUS0056578          00200000000000                O SODONS                                                                             
013L5020210415000986470010000000159240469100000007500CRESCENT1 CUS0056303          00200000000000                Z JACOBS                                                                             
013L5020210415000078470010000000129784285300000008500CRESCENT1 CUS0044726          00200000000000                M EBRAHIM                                                                            
013L5020210415000682051001000000065408843800000008500CRESCENT1 CUS0039040          00200000000000                A HAKIM                                                                              
013L5020210415000996470010000000132459546700000008500CRESCENT1 CUS0056352          00200000000000                M BASADIEN                                                                           
013L5020210415000429470010000000136433203300000008500CRESCENT1 CUS0052851          00200000000000                T SMITH                                                                              
013L5020210415000575470010000000164256111600000008500CRESCENT1 CUS0059452          00400000000000                M JAMAL                                                                              
013L5020210415000360470010000000162891710300000008500CRESCENT1 CUS0058863          00200000000000                M QANGULE                                                                            
013L5020210415000494470010000000153534780300000008500CRESCENT1 CUS0053077          00200000000000                K BRINK                                                                              
013L5020210415000961470010000000123021118500000007500CRESCENT1 CUS0056150          00200000000000                R ISMAIL                                                                             
013L5020210415001106470010000000121361312200000008500CRESCENT1 CUS0057023          00200000000000                M DARRIES                                                                            
013L5020210415000115470010000000114664619200000008500CRESCENT1 CUS0058048          00400000000000                F TOEFEY                                                                             
013L5020210415000619470010000000156219053700000008500CRESCENT1 CUS0053662          00200000000000                M OSMAN                                                                              
013L5020210415000925632005000000408405406700000006900CRESCENT1 CUS0056046          00292803000925                F OTTO                                                                               
013L5020210415000798632005000000407981687400000016000CRESCENT1 CUS0019292          00292803000798                S LAHER                                                                              
013L5020210415000777470010000000159157292200000008500CRESCENT1 CUS0055327          00200000000000                F WILLIAMS DAVIDS                                                                    
013L5020210415000610470010000000162839124100000008500CRESCENT1 CUS0059558          00200000000000                Z SAMUELS                                                                            
013L5020210415000526051001000000007798489700000007500CRESCENT1 CUS0014848          00200000000000                F ALLY                                                                               
013L5020210415000002051001000000014400273600000006900CRESCENT1 CUS0027272          00200000000000                D ALEXANDER                                                                          
013L5020210415000748470010000000111283907900000008500CRESCENT1 CUS0048518          00200000000000                S DE VRIES                                                                           
013L5020210415000425470010000000130717228600000016000CRESCENT1 CUS0058986          00200000000000                G SAMPSON                                                                            
013L5020210415001186470010000000154195017600000008500CRESCENT1 CUS0057399          00200000000000                M HERCULES                                                                           
013L5020210415000565470010000000144449809400000008500CRESCENT1 CUS0059441          00200000000000                I CASPER                                                                             
013L5020210415001101470010000000144743777000000008500CRESCENT1 CUS0056986          00200000000000                S ABRAHAMS                                                                           
013L5020210415001079470010000000141773165400000006900CRESCENT1 CUS0042721          00200000000000                J HLATYWAYO                                                                          
013L5020210415000470470010000000124575531300000008500CRESCENT1 CUS0059102          00200000000000                Z MOHAMMID                                                                           
013L5020210415000555470010000000126766867700000008500CRESCENT1 CUS0059373          00200000000000                T UYS                                                                                
013L5020210415000071051001000000020052906400000016000CRESCENT1 CUS0005807          00200000000000                A DESAI                                                                              
013L5020210415000089470010000000134883096200000008500CRESCENT1 CUS0051269          00200000000000                Y BRAAF                                                                              
013L5020210415000624470010000000163519736600000008500CRESCENT1 CUS0053665          00200000000000                F ALLIE                                                                              
013L5020210415000579470010000000164446272700000006900CRESCENT1 CUS0053551          00200000000000                N TALIEP JOSEPH                                                                      
013L5020210415001207632005000000406692653500000008500CRESCENT1 CUS0004602          00292803001207                N AMBARAM                                                                            
013L5020210415000310470010000000166937117200000008500CRESCENT1 CUS0058715          00200000000000                Y TAGODIEN                                                                           
013L5020210415000971470010000000142445090800000008500CRESCENT1 CUS0056228          00200000000000                R JARDIEN                                                                            
013L5020210415000205470010000000148812086000000008500CRESCENT1 CUS0058325          00200000000000                M FRANCIS                                                                            
013L5020210415000364051001000001004257205100000008500CRESCENT1 CUS0052502          00200000000000                F BEKKO                                                                              
013L5020210415000049051001000001007440100700000008500CRESCENT1 CUS0051123          00200000000000                F HASSIM                                                                             
013L5020210415000408051001000000033268040100000008500CRESCENT1 CUS0046391          01200000000000                M PAREKH                                                                             
013L5020210415000212051001000000000129610800000008500CRESCENT1 CUS0032895          00200000000000                I CANTHITOO                                                                          
013L5020210415000079470010000000129076523300000008500CRESCENT1 CUS0051242          00400000000000                G DEJONGH                                                                            
013L5020210415000630470010000000167205965600000008500CRESCENT1 CUS0059642          00200000000000                A AMOS                                                                               
013L5020210415001198470010000000136414307900000016000CRESCENT1 CUS0026713          00200000000000                D KARIEM                                                                             
013L5020210415000318470010000000138045177700000016000CRESCENT1 CUS0045774          00200000000000                R BOSMAN                                                                             
013L5020210415000446051001000000000168523600000008500CRESCENT1 CUS0012561          00600000000000                N MOHAMED                                                                            
013L5020210415000929470010000000159241630400000008500CRESCENT1 CUS0056070          00200000000000                Y ABRAHAMS                                                                           
013L5020210415000045470010000000157445687100000016000CRESCENT1 CUS0057766          00200000000000                F ABRAHAMS                                                                           
013L5020210415001216470010000000136977545600000008500CRESCENT1 CUS0057507          00200000000000                A DE VRIES                                                                           
013L5020210415000979051001000000033606741000000008500CRESCENT1 CUS0042161          00200000000000                F BHYAT                                                                              
013L5020210415000540051001000001010803503200000008500CRESCENT1 CUS0059308          00200000000000                G RAYNERS                                                                            
013L5020210415000733470010000000138872770400000008500CRESCENT1 CUS0054991          00200000000000                R BASSON                                                                             
013L5020210415000789470010000000122460943100000008500CRESCENT1 CUS0055500          00200000000000                M HENDRICKS                                                                          
013L5020210415000741470010000000113611532100000008500CRESCENT1 CUS0055074          00400000000000                R FISHER                                                                             
013L5020210415000749470010000000113338357000000007500CRESCENT1 CUS0055144          00200000000000                S BARENDSE                                                                           
013L5020210415000613470010000000114391285100000008500CRESCENT1 CUS0047707          00200000000000                S ISMAIL                                                                             
013L5020210415000125470010000000125810781100000008500CRESCENT1 CUS0058087          00200000000000                N HENDRICKS                                                                          
013L5020210415000550470010000000157440691200000008500CRESCENT1 CUS0059364          00200000000000                L CLOETE                                                                             
013L5020210415000135470010000000169451277900000006900CRESCENT1 CUS0058121          00600000000000                A LAKAY                                                                              
013L5020210415000893051001000000027179355400000008500CRESCENT1 CUS0055901          00400000000000                N PAULSEN                                                                            
013L5020210415000013250655000007449207609400000008500CRESCENT1 CUS0044029          02600000000000                K SULEMAN                                                                            
013L5020210415000576051001000000006005108600000016000CRESCENT1 CUS0015441          00400000000000                H KHAN                                                                               
013L5020210415000260470010000000141821819500000008500CRESCENT1 CUS0058614          00200000000000                F BENJAMIN                                                                           
013L5020210415000895470010000000154257841600000008500CRESCENT1 CUS0041561          00200000000000                W GEDULD                                                                             
013L5020210415000287470010000000165175531900000008500CRESCENT1 CUS0034974          00200000000000                H LEDIGA                                                                             
013L5020210415000809051001000000042228701600000007500CRESCENT1 CUS0055567          00200000000000                N BAWREN                                                                             
013L5020210415000981051001000000063531965900000007500CRESCENT1 CUS0056297          00200000000000                E JACOBS                                                                             
013L5020210415000217051001000000031091472800000008500CRESCENT1 CUS0033257          00200000000000                F HENDRICKS                                                                          
013L5020210415000719051001000000002262383300000008500CRESCENT1 CUS0039615          01800000000000                I CAJEE                                                                              
013L5020210415000530470010000000140679953800000008500CRESCENT1 CUS0059265          00200000000000                M USMANI                                                                             
013L5020210415000369470010000000135681135100000008500CRESCENT1 CUS0052578          00400000000000                F RAHMAN                                                                             
013L5020210415001107470010000000133436009800000008500CRESCENT1 CUS0002977          00200000000000                C MOOLA                                                                              
013L5020210415000615470010000000157061571100000006900CRESCENT1 CUS0059587          00200000000000                F GENEVA                                                                             
013L5020210415000966051001000000027490250800000008500CRESCENT1 CUS0056225          00200000000000                S DEVIRES                                                                            
013L5020210415000155051001000001007395951900000006900CRESCENT1 CUS0058187          00200000000000                A SAMPSON                                                                            
013L5020210415000229800000000007860011378400000008500CRESCENT1 CUS0051866          00200000000000                A RAHMAN                                                                             
013L5020210415000696470010000000112862280500000008500CRESCENT1 CUS0048180          00200000000000                D FRANCIS                                                                            
013L5020210415000701470010000000155520996100000008500CRESCENT1 CUS0054582          00200000000000                M VAN RHEEDE                                                                         
013L5020210415000069470010000000141928195800000006900CRESCENT1 CUS0051181          00200000000000                M MALICK                                                                             
013L5020210415000620470010000000135029430400000008500CRESCENT1 CUS0059605          00400000000000                L BENJAMIN                                                                           
013L5020210415000225051001000001011206884500000008500CRESCENT1 CUS0058384          00200000000000                F HASWARAY                                                                           
013L5020210415000523470010000000126898482300000007500CRESCENT1 CUS0047255          00200000000000                Z HARDIEN                                                                            
013L5020210415000545470010000000122479139600000008500CRESCENT1 CUS0059360          00200000000000                Y MOHAMMED                                                                           
013L5020210415000587470010000000137088847100000008500CRESCENT1 CUS0038583          00200000000000                S ABAS                                                                               
013L5020210415000877470010000000154140651400000008500CRESCENT1 CUS0055870          00200000000000                S SINGH                                                                              
013L5020210415001188051001000000001240673200000008500CRESCENT1 CUS0026612          00200000000000                H CONSALVES                                                                          
013L5020210415001182051001000000000282960600000023500CRESCENT1 CUS0004228          00200000000000                A MANACK                                                                             
013L5020210415000600470010000000134882737600000008500CRESCENT1 CUS0059525          00200000000000                S BERHARDIEN                                                                         
013L5020210415000953632005000000407173152900000031000CRESCENT1 CUS0021629          00292803000953                A ABDOOLA                                                                            
013L5020210415000973632005000000406377007400000008500CRESCENT1 CUS0022721          00292803000973                R MOHAMMED                                                                           
013L5020210415000560470010000000146221343800000008500CRESCENT1 CUS0059397          00200000000000                M SIMON                                                                              
013L5020210415000535470010000000139116835400000008500CRESCENT1 CUS0059297          00200000000000                M COETZEE                                                                            
013L5020210415000054051001000001008457090100000008500CRESCENT1 CUS0051128          00200000000000                S GEORGE                                                                             
014L0000001230000000000000005472868199090000000114010000000000000000                                                                                                                                  
019L0000001250000000000000006099043985560000000116460000000000000000                                                                                                                                  
999L000000135                                                                                                                                                                                         
