000L2020122500000PAYPORT CONSULTING PTY LTD EFT000055607303                                                                                                                                           
010LD237000006101                                                                                                                                                                                     
011LD23763200500000040945448920120201219                                                                                                                                                              
013L5020201218001388678910000005101660157700000008500CRESCENT1 CUS0058761          00200000000000                G LOUW                                                                               
013L5020201218000438678910000005100922806700000008500CRESCENT1 CUS0058118          00200000000000                W LYONS                                                                              
013L5020201218001206470010000000137194009400000008500CRESCENT1 CUS0046339          03000000000000                M MINNIE                                                                             
013L5020201218001996198765000000109308169400000008500CRESCENT1 CUS0052905          03000000000000                F SCOTT                                                                              
013L5020201218000219678910000005100714983600000006900CRESCENT1 CUS0057974          00200000000000                S JOHNSON ENGELBRECHT                                                                
014L0000000050000000000000001554980012680000000004090000000000000000                                                                                                                                  
019L0000000050000000000000001554980012680000000004090000000000000000                                                                                                                                  
999L000000011                                                                                                                                                                                         
