000L2020120300000PAYPORT CONSULTING PTY LTD EFT000053007303                                                                                                                                           
010LD237000004801                                                                                                                                                                                     
011LD23763200500000040945448920120201125                                                                                                                                                              
013L5020201124000788470010000000123619151800000008500CRESCENT1 CUS0057790          03400000000000                M GAMIET                                                                             
013L5020201124000124470010000000131370171600000006900CRESCENT1 CUS0059078          03400000000000                F HARDING                                                                            
014L0000000020000000000000000025498932340000000001540000000000000000                                                                                                                                  
019L0000000020000000000000000025498932340000000001540000000000000000                                                                                                                                  
999L000000008                                                                                                                                                                                         
