000L2021041400000PAYPORT CONSULTING PTY LTD EFT000071607303                                                                                                                                           
010LD237000018401                                                                                                                                                                                     
011LD23763200500000040945448920120210325                                                                                                                                                              
013L5020210324000038198765000000298436307800000008500CRESCENT1 CUS0042256          03000000000000                D ROBERTS                                                                            
014L0000000010000000000000000029843630780000000000850000000000000000                                                                                                                                  
011LD23763200500000040945448920120210331                                                                                                                                                              
013L5020210330000044470010000000154585517800000025000ABSOLIT   1616938219RSS0001   03400000000000                SHAHEED SHAMAAR                                                                      
014L0000000010000000000000000015458551780000000002500000000000000000                                                                                                                                  
019L0000000020000000000000000045302182560000000003350000000000000000                                                                                                                                  
999L000000010                                                                                                                                                                                         
