000L2020120900000PAYPORT CONSULTING PTY LTD EFT000053807303                                                                                                                                           
010LD237000005001                                                                                                                                                                                     
011LD23763200500000040945448920120201125                                                                                                                                                              
013L5020201124000359250455000006258912118700000008500CRESCENT1 CUS0054863          03000000000000                S ABRAHAMS                                                                           
014L0000000010000000000000000625891211870000000000850000000000000000                                                                                                                                  
019L0000000010000000000000000625891211870000000000850000000000000000                                                                                                                                  
999L000000007                                                                                                                                                                                         
