000L2021031500000PAYPORT CONSULTING PTY LTD EFT000067207303                                                                                                                                           
010LD237000015701                                                                                                                                                                                     
011LD23763200500000040945448920120210220                                                                                                                                                              
013L5020210219000285632005000000916302259000000008500CRESCENT1 CUS0010294          03092801000285                A MATHESON                                                                           
014L0000000010000000000000000091630225900000000000850000000000000000                                                                                                                                  
019L0000000010000000000000000091630225900000000000850000000000000000                                                                                                                                  
999L000000007                                                                                                                                                                                         
