000L2021041700000PAYPORT CONSULTING PTY LTD EFT000072207303                                                                                                                                           
010LD237000018701                                                                                                                                                                                     
011LD23763200500000040945448920120210326                                                                                                                                                              
013L5020210325003459198765000000190884223700000008500CRESCENT1 CUS0009805          03000000000000                S WARREN                                                                             
014L0000000010000000000000000019088422370000000000850000000000000000                                                                                                                                  
011LD23763200500000040945448920120210416                                                                                                                                                              
013L5020210415000921632005000000915821471000000008500CRESCENT1 CUS0056009          00200016000921                F MANUEL                                                                             
013L5020210415000522632005000000920898468100000008500CRESCENT1 CUS0037744          00300000000522                M DAVIDS                                                                             
013L5020210415000050632005000000925826351200000008500CRESCENT1 CUS0057791          00300000000050                E ISAACS                                                                             
013L5020210415000580632005000000934078813700000008500CRESCENT1 CUS0059453          00200016000580                N GALIEM                                                                             
013L5020210415000831632005000000904866522700000008500CRESCENT1 CUS0040912          01800004000831                A SATTAR                                                                             
013L5020210415000902632005000000905065444800000014400CRESCENT1 CUS0020308          00200016000902                H LILLAH                                                                             
013L5020210415001146632005000000407000838100000008500CRESCENT1 CUS0057197          00300000001146                I KHAN                                                                               
013L5020210415000063632005000000001372853400000008500CRESCENT1 CUS0044526          01800004000063                R ZOUTENBERG                                                                         
013L5020210415000286632005000000913674871500000008500CRESCENT1 CUS0009745          00300040000286                T MOOSA                                                                              
013L5020210415000117632005000000933444154900000006900CRESCENT1 CUS0030980          00200016000117                R DEAN                                                                               
013L5020210415001109632005000000909250300900000008500CRESCENT1 CUS0043076          00200016001109                B AYOB                                                                               
013L5020210415000313632005000000909115345300000007500CRESCENT1 CUS0045736          00200016000313                Z BHAYAT                                                                             
013L5020210415000855632005000000926312931300000008500CRESCENT1 CUS0041118          00200016000855                F ROSSIER                                                                            
013L5020210415000376580105000001001127431700000016000CRESCENT1 CUS0011476          00600000000000                A ALLIE                                                                              
013L5020210415001171632005000000409171335100000008500CRESCENT1 CUS0057344          03292801001171                L ATTWELL                                                                            
013L5020210415000783632005000000934885380300000008500CRESCENT1 CUS0040405          00200016000783                N MOYA                                                                               
013L5020210415000140632005000000930048137300000006900CRESCENT1 CUS0058138          00200016000140                F HOCEME                                                                             
014L0000000170000000000000001378196065130000000015370000000000000000                                                                                                                                  
019L0000000180000000000000001397284487500000000016220000000000000000                                                                                                                                  
999L000000026                                                                                                                                                                                         
