000L2021052500000PAYPORT CONSULTING PTY LTD EFT000078007303                                                                                                                                           
010LD237000022201                                                                                                                                                                                     
011LD23763200500000040945448920120210430                                                                                                                                                              
013L5020210429000965701505000001166100274000000006900CRESCENT1 CUS0055064          03600000000000                S MOSELEY                                                                            
013L5020210429000935470010000000133943056600000008500CRESCENT1 CUS0054978          03000000000000                M SAVAHL                                                                             
014L0000000020000000000000000130004333060000000001540000000000000000                                                                                                                                  
011LD23763200500000040945448920120210521                                                                                                                                                              
013L5020210520000024250655000006277211227400000008500CRESCENT1 CUS0058762          01200000000000                C MILANZI                                                                            
013L5020210520000228250805000005054901142200000008500CRESCENT1 CUS0050455          00400000000000                S ALLIE                                                                              
013L5020210520000258203209000006237535191400000008500CRESCENT1 CUS0051795          00600000000000                W BROWN                                                                              
013L5020210520000332200410000006267004297900000008500CRESCENT1 CUS0054885          01200000000000                A ABRAHAMS                                                                           
013L5020210520000022231433000006266407152000000008500CRESCENT1 CUS0058756          00400000000000                A JASSAT                                                                             
013L5020210520000112250805000006233333468900000008500CRESCENT1 CUS0042261          01200000000000                I LAWRENCE                                                                           
013L5020210520000274252605000005502195218600000007500CRESCENT1 CUS0052138          01800000000000                N FREDERICKS                                                                         
013L5020210520000219255355000006229320863500000008500CRESCENT1 CUS0004148          01200000000000                R HARTLEY                                                                            
013L5020210520000200250141000006210998959300000008500CRESCENT1 CUS0049378          00200000000000                R KLAASTE                                                                            
013L5020210520000003198765000000294408339200000008500CRESCENT1 CUS0031353          00200000000000                N KOTWAL                                                                             
013L5020210520000203250056000006218583294800000008500CRESCENT1 CUS0002494          01200000000000                A HARTMANN                                                                           
013L5020210520000183255355000006257476487700000008500CRESCENT1 CUS0048673          01200000000000                S GANIEF                                                                             
013L5020210520000114250837000006239409592300000008500CRESCENT1 CUS0042430          00600000000000                F KHAN                                                                               
013L5020210520000004250655000006283028933700000016000CRESCENT1 CUS0058350          01200000000000                K WILLIAMS                                                                           
014L0000000140000000000000007957181416890000000012550000000000000000                                                                                                                                  
011LD23763200500000040945448920120210525                                                                                                                                                              
013L5020210524000078470010000000134706807900000008500CRESCENT1 CUS0057848          02682502000078                A APPOLLIS                                                                           
013L5020210524000792198765000000110724931100000008500CRESCENT1 CUS0029084          02682502000792                Y LEGOETE                                                                            
013L5020210524000684250655000000625478712800000007500CRESCENT1 CUS0021253          02682502000684                R KHAN                                                                               
013L5020210524000040678910000005102705576600000007500CRESCENT1 CUS0034249          02682502000040                I MOHAMED                                                                            
013L5020210524000136250655000006255230306800000008500CRESCENT1 CUS0049625          02682502000136                A HLOPHE                                                                             
013L5020210524000628250655000000408208943800000008500CRESCENT1 CUS0044678          02682502000628                F HARMEN                                                                             
013L5020210524000495051001000006253010233400000008500CRESCENT1 CUS0042905          02682502000495                S SHAHID                                                                             
013L5020210524000724470010000000141471615100000008500CRESCENT1 CUS0046211          02682502000724                R BRIJH                                                                              
013L5020210524000717250655000000001147884500000007500CRESCENT1 CUS0023047          02682502000717                I KOCKNEY                                                                            
013L5020210524000786470010000000110359731500000007500CRESCENT1 CUS0028955          02682502000786                L NIEZER                                                                             
013L5020210524000447632005000000928054747200000008500CRESCENT1 CUS0042486          02683002000447                S FRANKS                                                                             
013L5020210524000339250655000006265163476900000023500CRESCENT1 CUS0041396          02682502000339                K ABASS                                                                              
014L0000000120000000000000002633626296760000000011300000000000000000                                                                                                                                  
019L0000000280000000000000010720812046710000000025390000000000000000                                                                                                                                  
999L000000038                                                                                                                                                                                         
