000L2021040700000PAYPORT CONSULTING PTY LTD EFT000070607303                                                                                                                                           
010LD237000017801                                                                                                                                                                                     
011LD23763200500000040945448920120210225                                                                                                                                                              
013L5020210224000749470010000000137726598400000008500CRESCENT1 CUS0054865          03000000000000                M DE JONGH                                                                           
014L0000000010000000000000000013772659840000000000850000000000000000                                                                                                                                  
011LD23763200500000040945448920120210227                                                                                                                                                              
013L5020210226006361470010000000141212885200000008500CRESCENT1 CUS0054584          03000000000000                D EBRAHIM                                                                            
013L5020210226005547470010000000121558979200000008500CRESCENT1 CUS0044834          03000000000000                V HARRY                                                                              
014L0000000020000000000000000026277186440000000001700000000000000000                                                                                                                                  
011LD23763200500000040945448920120210325                                                                                                                                                              
013L5020210324000397051001000000025048978300000008500CRESCENT1 CUS0027079          03200000000000                O HASSIM                                                                             
013L5020210324000192051001000001006216407200000016000CRESCENT1 CUS0053570          03000000000000                N MOHAMED                                                                            
014L0000000020000000000000000103126538550000000002450000000000000000                                                                                                                                  
011LD23763200500000040945448920120210326                                                                                                                                                              
013L5020210325000496051001000000000243876300000008500CRESCENT1 CUS0001515          03400000000000                M RECIET                                                                             
013L5020210325003046470010000000132253362600000016000CRESCENT1 CUS0057331          03000000000000                N MENEER                                                                             
013L5020210325002295470010000000150218702500000008500CRESCENT1 CUS0055026          03200000000000                Y WILLIAMS                                                                           
013L5020210325003674470010000000140221902200000008500CRESCENT1 CUS0053057          03000000000000                A BUCKS                                                                              
014L0000000040000000000000000042293784360000000004150000000000000000                                                                                                                                  
011LD23763200500000040945448920120210331                                                                                                                                                              
013L5020210330001830470010000000144787602200000008500CRESCENT1 CUS0055703          03000000000000                A BEUKUS                                                                             
013L5020210330001321198765000000118305275800000008500CRESCENT1 CUS0058107          00200000000000                A BAKER                                                                              
013L5020210330001918470010000000138873792000000016000CRESCENT1 CUS0011648          03200000000000                F HARTLEY                                                                            
013L5020210330000734198765000000101482151700000016000CRESCENT1 CUS0017692          00200000000000                N NAUDE                                                                              
013L5020210330000382198765000000115953655400000008500CRESCENT1 CUS0059143          00200000000000                N MILAZI                                                                             
013L5020210330002375198765000000113915650000000008500CRESCENT1 CUS0056709          00200000000000                Z ABRAHAMS                                                                           
013L5020210330001510701505000001166100274000000006900CRESCENT1 CUS0055064          05600000000000                S MOSELEY                                                                            
013L5020210330001199210655000006237170238500000008500CRESCENT1 CUS0049288          03400000000000                N DREYER                                                                             
013L5020210330001874198765000000108461472300000008500CRESCENT1 CUS0022826          00200000000000                S ESSOP                                                                              
013L5020210330001442198765000000116298069900000008500CRESCENT1 CUS0059524          00200000000000                L ABRAHAMS                                                                           
013L5020210330001461198765000000118082657400000008500CRESCENT1 CUS0058141          00200000000000                L HENDRICKS                                                                          
013L5020210330001720198765000000195341553900000016000CRESCENT1 CUS0055577          00200000000000                D HARDIEN                                                                            
013L5020210330001499210651000006219529488100000016000CRESCENT1 CUS0049729          03600000000000                N PEPLOUW                                                                            
013L5020210330001821470010000000162698158000000008500CRESCENT1 CUS0058342          03000000000000                J DELPORT                                                                            
013L5020210330001011470010000000125861400400000008500CRESCENT1 CUS0057866          03000000000000                S MORRIS                                                                             
013L5020210330001145051001000000025048978300000007500CRESCENT1 CUS0027080          02600000000000                F HASSIM                                                                             
013L5020210330000141198765000000114116886300000008500CRESCENT1 CUS0056946          00200000000000                A GASNOLA                                                                            
013L5020210330000919198765000000264500297800000008500CRESCENT1 CUS0048896          00200000000000                M HENDRICKS                                                                          
013L5020210330001050470010000000138443853800000008500CRESCENT1 CUS0054405          03000000000000                A DULAZE                                                                             
013L5020210330001742198765000000113760855200000008500CRESCENT1 CUS0059638          00200000000000                M DOUTIE                                                                             
014L0000000200000000000000001583873231100000000019740000000000000000                                                                                                                                  
019L0000000290000000000000001769343400290000000028890000000000000000                                                                                                                                  
999L000000043                                                                                                                                                                                         
