000L2021022600000PAYPORT CONSULTING PTY LTD EFT000064707303                                                                                                                                           
010LD237000013501                                                                                                                                                                                     
011LD23763200500000040945448920120210130                                                                                                                                                              
013L5020210129000564470010000000118290162800000008500CRESCENT1 CUS0032996          03400000000000                A LOUW                                                                               
014L0000000010000000000000000011829016280000000000850000000000000000                                                                                                                                  
011LD23763200500000040945448920120210216                                                                                                                                                              
013L5020210215000905250705000006235275996700000008500CRESCENT1 CUS0055852          03200000000000                R VAHIB                                                                              
014L0000000010000000000000000623527599670000000000850000000000000000                                                                                                                                  
011LD23763200500000040945448920120210225                                                                                                                                                              
013L5020210224000111632005000000922153263500000008500CRESCENT1 CUS0057212          03492801000111                A HENDRICKS                                                                          
013L5020210224000270632005000000926551637000000016000CRESCENT1 CUS0003893          00200016000270                A MOHAMED                                                                            
013L5020210224000602632005000000928514949800000008500CRESCENT1 CUS0053287          00200016000602                Y BUNTING                                                                            
013L5020210224000025632005000000924866636600000016000CRESCENT1 CUS0031939          03092801000025                H SALEH                                                                              
013L5020210224000344632005000000925387834200000008500CRESCENT1 CUS0050945          01200012000344                S HARRISON                                                                           
013L5020210224000693580105000001001134825500000008500CRESCENT1 CUS0018517          01200000000000                A KARA                                                                               
013L5020210224000566632005000000926468032600000016000CRESCENT1 CUS0014208          00200016000566                Y SULIMAN                                                                            
013L5020210224000626632005000000404302704700000008500CRESCENT1 CUS0053527          03292801000626                A SAMODIEN                                                                           
013L5020210224000345632005000000935600440600000008500CRESCENT1 CUS0058625          00200016000345                G SIMONS                                                                             
013L5020210224000410632005000000407745462000000008500CRESCENT1 CUS0008345          01200000000410                A GATTA                                                                              
013L5020210224000365632005000000932212792500000008500CRESCENT1 CUS0058673          00200016000365                M JACOBS                                                                             
013L5020210224000671632005000000408939879700000015400CRESCENT1 CUS0053950          01200000000671                A ISMAIL                                                                             
013L5020210224000584632005000000409185597500000008500CRESCENT1 CUS0053139          00300000000584                F RADEMEYER                                                                          
013L5020210224000656632005000000931512951600000008500CRESCENT1 CUS0053795          00200016000656                H TITUS                                                                              
013L5020210224000090632005000000928028054000000008500CRESCENT1 CUS0057033          00200016000090                A GEORGE                                                                             
013L5020210224000784632005000000408825940500000008500CRESCENT1 CUS0045898          00300000000784                N OMAR                                                                               
013L5020210224000375632005000000407622818300000008500CRESCENT1 CUS0041172          90300000000375                S CASSIM                                                                             
013L5020210224000627632005000000926846021500000008500CRESCENT1 CUS0016365          00200016000627                H BAKER                                                                              
013L5020210224000215632005000000906673138500000016000CRESCENT1 CUS0037772          00200016000215                F RYKLIEF                                                                            
014L0000000190000000000000001456257298060000000019840000000000000000                                                                                                                                  
019L0000000210000000000000002091613914010000000021540000000000000000                                                                                                                                  
999L000000031                                                                                                                                                                                         
