000L2021021100000PAYPORT CONSULTING PTY LTD EFT000062607303                                                                                                                                           
010LD237000011401                                                                                                                                                                                     
011LD23763200500000040945448920120210130                                                                                                                                                              
013L5020210129001168470010000000133943056600000008500CRESCENT1 CUS0054978          03000000000000                M SAVAHL                                                                             
013L5020210129000275198765000000103091358700000016000CRESCENT1 CUS0037481          03000000000000                S DARSOT                                                                             
014L0000000020000000000000000023703441530000000002450000000000000000                                                                                                                                  
019L0000000020000000000000000023703441530000000002450000000000000000                                                                                                                                  
010LD237000011508                                                                                                                                                                                     
011LD23763200500000040945448920120210127                                                                                                                                                              
013L5020210127003443051001000000042480973700000008500CRESCENT1 CUS0035642          03000000000000                A SHAIK                                                                              
014L0000000010000000000000000004248097370000000000850000000000000000                                                                                                                                  
019L0000000010000000000000000004248097370000000000850000000000000000                                                                                                                                  
999L000000013                                                                                                                                                                                         
