000L2020111200000PAYPORT CONSULTING PTY LTD EFT000049907303                                                                                                                                           
010LD237000003401                                                                                                                                                                                     
011LD23763200500000040945448920120201021                                                                                                                                                              
013L5020201020000208051001000000000901211700000031000CRESCENT1 1603195657OCUS00067703000000000000                A MOHAMED                                                                            
014L0000000010000000000000000000090121170000000003100000000000000000                                                                                                                                  
019L0000000010000000000000000000090121170000000003100000000000000000                                                                                                                                  
999L000000007                                                                                                                                                                                         
