000L2021050100000PAYPORT CONSULTING PTY LTD EFT000074307303                                                                                                                                           
010LD237000020001                                                                                                                                                                                     
011LD23763200500000040945448920120210416                                                                                                                                                              
013L5020210415000265200910000006207510305300000008500CRESCENT1 CUS0058616          03000000000000                M FILLIES                                                                            
014L0000000010000000000000000620751030530000000000850000000000000000                                                                                                                                  
011LD23763200500000040945448920120210421                                                                                                                                                              
013L5020210420000240632005000000916302259000000008500CRESCENT1 CUS0010294          03292801000240                A MATHESON                                                                           
014L0000000010000000000000000091630225900000000000850000000000000000                                                                                                                                  
011LD23763200500000040945448920120210426                                                                                                                                                              
013L5020210424000923198765000000115225229100000008500CRESCENT1 CUS0057061          00200000000000                R MACK                                                                               
013L5020210424003608198765000000157402263600000008500CRESCENT1 CUS0030338          03000000000000                Y KOZA                                                                               
013L5020210424001896198765000000109329556200000008500CRESCENT1 CUS0052647          03000000000000                G SMITH                                                                              
013L5020210424003346198765000000295247840600000016000CRESCENT1 CUS0042474          00200000000000                F MOHAMED                                                                            
013L5020210424000769470010000000147147239400000006900CRESCENT1 CUS0057018          03600000000000                F EVANS                                                                              
013L5020210424002643256205000006223204508000000008500CRESCENT1 CUS0045032          03600000000000                J KHAN                                                                               
013L5020210424000629470010000000136736735000000008500CRESCENT1 CUS0056945          03400000000000                F SOLOMONS                                                                           
013L5020210424003023198765000000118305275800000008500CRESCENT1 CUS0058107          00200000000000                A BAKER                                                                              
013L5020210424001924198765000000106993703700000008500CRESCENT1 CUS0047806          03000000000000                S MABUSE                                                                             
013L5020210424001851198765000000102250561000000016000CRESCENT1 CUS0052620          00200000000000                S COX                                                                                
014L0000000100000000000000000751184291240000000009840000000000000000                                                                                                                                  
011LD23763200500000040945448920120210430                                                                                                                                                              
013L5020210429000766632005000000920897821800000008500CRESCENT1 CUS0058116          00200016000766                Z EDRIES                                                                             
013L5020210429002403632005000000409784700100000008500CRESCENT1 CUS0059202          00300000002403                A BUSCH                                                                              
013L5020210429000837632005000000933203208900000008500CRESCENT1 CUS0059561          00200016000837                R DAVIS                                                                              
013L5020210429002400632005000000408305943000000008500CRESCENT1 CUS0048042          90300000002400                R WILLIAMS                                                                           
013L5020210429000567632005000000409641236200000008500CRESCENT1 CUS0059435          00492802000567                Y JANSON                                                                             
013L5020210429000150632005000000929767930800000008500CRESCENT1 CUS0025266          00200016000150                B GOONDIE                                                                            
013L5020210429000452632005000000909115345300000008500CRESCENT1 CUS0038562          00200016000452                Z BHAYAT                                                                             
013L5020210429002053632005000000929980862400000008500CRESCENT1 CUS0059027          00300040002053                H HEBERT                                                                             
013L5020210429001918632005000000404794781700000016000CRESCENT1 CUS0036031          00492802001918                A HARTLEY                                                                            
013L5020210429002299632005000000924539399400000008500CRESCENT1 CUS0042569          00200016002299                I SALEH                                                                              
013L5020210429000986632005000000928836584500000008500CRESCENT1 CUS0058243          00492802000986                I SCHOUR                                                                             
013L5020210429000505632005000000408034279700000008500CRESCENT1 CUS0054224          00300000000505                O SOLOMONS                                                                           
013L5020210429000907632005000000935980425100000008500CRESCENT1 CUS0059574          00200016000907                R TALIEP                                                                             
013L5020210429002501632005000000408788313200000008500CRESCENT1 CUS0053188          01200000002501                A MOOSA                                                                              
013L5020210429002281632005000000929306239900000008500CRESCENT1 CUS0052642          00492802002281                L SAMPSON                                                                            
013L5020210429000757632005000000920031503400000006900CRESCENT1 CUS0059534          00300040000757                I SONDAY                                                                             
013L5020210429001040632005000000405828551100000007500CRESCENT1 CUS0027039          01200000001040                Z BHAROOCHI                                                                          
013L5020210429001952632005000005301456356400000008500CRESCENT1 CUS0056847          00200016001952                R VANDERSART                                                                         
013L5020210429002471632005000000930252399900000008500CRESCENT1 CUS0053144          00300000002471                A AFZAL                                                                              
013L5020210429001110632005000000920601414300000016000CRESCENT1 CUS0027300          00300000001110                R THEYS                                                                              
013L5020210429002568632005000000912979530100000008500CRESCENT1 CUS0037369          00200016002568                A DAVIDS                                                                             
013L5020210429002302632005000000934716316000000008500CRESCENT1 CUS0057240          00200016002302                S HERBERT                                                                            
013L5020210429001835632005000000905194550300000008500CRESCENT1 CUS0035812          01800004001835                R KHAN                                                                               
013L5020210429000476632005000000409902677000000008500CRESCENT1 CUS0057911          01200000000476                A RYLANDS                                                                            
013L5020210429001572632005000000408661292800000008500CRESCENT1 CUS0040963          00300000001572                I MOOSA                                                                              
013L5020210429001950632005000000406737835300000008500CRESCENT1 CUS0047067          00300000001950                S JADWAT                                                                             
013L5020210429002498632005000000931447519800000007500CRESCENT1 CUS0037104          00300040002498                J LEON                                                                               
013L5020210429000681632005000000405273960300000008500CRESCENT1 CUS0033490          90300000000681                Z CHRISTIAN                                                                          
013L5020210429000575632005000000408357553900000008500CRESCENT1 CUS0054465          00492802000575                C PHILLIPS                                                                           
013L5020210429002332632005000000409055852800000008500CRESCENT1 CUS0057271          00492802002332                S CHARLES                                                                            
013L5020210429001690632005000000911047057200000008500CRESCENT1 CUS0029452          00200016001690                P TSOTETSI                                                                           
013L5020210429000995632005000000931333980400000008500CRESCENT1 CUS0055159          00300000000995                F BAATJIES                                                                           
013L5020210429001275632005000000908816156800000008500CRESCENT1 CUS0055737          00200016001275                T TOFIE                                                                              
013L5020210429000205632005000000911926373400000008500CRESCENT1 CUS0053558          00200016000205                T DE VILLIERS                                                                        
013L5020210429000698632005000000902003678800000008500CRESCENT1 CUS0005805          00492802000698                F DOMINGO                                                                            
013L5020210429000670632005000000407817669900000016000CRESCENT1 CUS0026481          90300000000670                N VADI                                                                               
013L5020210429001388632005000000407352949100000008500CRESCENT1 CUS0009056          01200000001388                S KHAN                                                                               
014L0000000370000000000000003078177225100000000033340000000000000000                                                                                                                                  
019L0000000490000000000000004541742772770000000044880000000000000000                                                                                                                                  
999L000000061                                                                                                                                                                                         
