000L2021011700000PAYPORT CONSULTING PTY LTD EFT000058907303                                                                                                                                           
010LD237000008001                                                                                                                                                                                     
011LD23763200500000040945448920120210116                                                                                                                                                              
013L5020210115000627632005000000934885380300000008500CRESCENT1 CUS0040405          00200016000627                N MOYA                                                                               
013L5020210115001004632005000000918881996000000016000CRESCENT1 CUS0050459          00292803001004                I AMARDIEN                                                                           
013L5020210115000732632005000000920783945500000008500CRESCENT1 CUS0055541          00200016000732                F ABRAHAMS                                                                           
013L5020210115001245632005000000925826351200000008500CRESCENT1 CUS0057791          00300000001245                E ISAACS                                                                             
013L5020210115000080632005000000930048137300000006900CRESCENT1 CUS0058138          00200016000080                F HOCEME                                                                             
013L5020210115000161632005000000405983177700000016000CRESCENT1 CUS0010752          00292803000161                M AMEER                                                                              
013L5020210115001123632005000000925096583700000016000CRESCENT1 CUS0044424          00200016001123                A AKOOJEE                                                                            
013L5020210115000931632005000000910839144100000008500CRESCENT1 CUS0002240          03492801000931                M EBRAHIM                                                                            
013L5020210115000971632005000000912332373600000008500CRESCENT1 CUS0003381          00492802000971                Z GORA                                                                               
013L5020210115001130632005000000407000838100000008500CRESCENT1 CUS0057197          00292803001130                I KHAN                                                                               
013L5020210115001051632005000000909171845300000008500CRESCENT1 CUS0004247          00200016001051                J MOSAM                                                                              
013L5020210115000426632005000000620130327700000016000CRESCENT1 CUS0015589          00200016000426                J PEARCE                                                                             
013L5020210115001066632005000000406692653500000008500CRESCENT1 CUS0004602          00292803001066                N AMBARAM                                                                            
013L5020210115000407632005000000909115345300000016000CRESCENT1 CUS0038562          00200016000407                Z BHAYAT                                                                             
013L5020210115000091632005000000913674871500000008500CRESCENT1 CUS0009745          00300040000091                T MOOSA                                                                              
013L5020210115001182632005000000933444154900000006900CRESCENT1 CUS0030980          00200016001182                R DEAN                                                                               
013L5020210115000183632005000000405988135800000016000CRESCENT1 CUS0045976          00292803000183                A HENDRICKS                                                                          
013L5020210115000770632005000000928510454300000008500CRESCENT1 CUS0041677          00200016000770                S PETERSON                                                                           
013L5020210115000160632005000000935317943000000008500CRESCENT1 CUS0058276          00200016000160                J JACKSON                                                                            
013L5020210115000875632005000000915821471000000008500CRESCENT1 CUS0056009          00200016000875                F MANUEL                                                                             
013L5020210115001252632005000000114912138900000008500CRESCENT1 CUS0032481          00300000001252                M SALIE                                                                              
013L5020210115000203632005000000925771060700000008500CRESCENT1 CUS0046110          00200016000203                R HUSPATEL                                                                           
013L5020210115000196580105000001001127431700000016000CRESCENT1 CUS0011476          00600000000000                A ALLIE                                                                              
013L5020210115000646632005000000407981687400000016000CRESCENT1 CUS0019292          00292803000646                S LAHER                                                                              
013L5020210115000386632005000000918132341500000016000CRESCENT1 CUS0015079          00200016000386                A QASIN                                                                              
013L5020210115000347632005000000920898468100000008500CRESCENT1 CUS0037744          00300000000347                M DAVIDS                                                                             
014L0000000260000000000000002035836825810000000028530000000000000000                                                                                                                                  
019L0000000260000000000000002035836825810000000028530000000000000000                                                                                                                                  
999L000000032                                                                                                                                                                                         
