000L2021012400000PAYPORT CONSULTING PTY LTD EFT000060107303                                                                                                                                           
010LD237000008701                                                                                                                                                                                     
011LD23763200500000040945448920120201219                                                                                                                                                              
013L5020201218001787051001000000027212345500000008500CRESCENT1 CUS0057190          03000000000000                L ABDULLAH                                                                           
014L0000000010000000000000000002721234550000000000850000000000000000                                                                                                                                  
011LD23763200500000040945448920120210121                                                                                                                                                              
013L5020210120000068201909000006234189734800000008500CRESCENT1 CUS0058922          00200000000000                H MOREIRA                                                                            
013L5020210120000349200410000006267004297900000008500CRESCENT1 CUS0054885          00200000000000                A ABRAHAMS                                                                           
013L5020210120000183051001000000040187631400000008500CRESCENT1 CUS0048366          03400000000000                Z MAYNER                                                                             
013L5020210120000191254205000006231129434200000008500CRESCENT1 CUS0048728          00200000000000                Q RYKLIEF                                                                            
013L5020210120000334250805000006256997313600000016000CRESCENT1 CUS0019560          00400000000000                A AHMED                                                                              
013L5020210120000022250655000006283028933700000016000CRESCENT1 CUS0058350          01200000000000                K WILLIAMS                                                                           
013L5020210120000289252605000005502195218600000007500CRESCENT1 CUS0052138          00200000000000                N FREDERICKS                                                                         
013L5020210120000116250805000006233333468900000008500CRESCENT1 CUS0042261          01200000000000                I LAWRENCE                                                                           
013L5020210120000048250655000006277211227400000008500CRESCENT1 CUS0058762          01200000000000                C MILANZI                                                                            
013L5020210120000361253705000006265493379800000008500CRESCENT1 CUS0055259          00200000000000                F WADVALLA                                                                           
013L5020210120000167270724000006245274506400000008500CRESCENT1 CUS0046215          00200000000000                L MBHELE                                                                             
013L5020210120000331051001000000040429113900000008500CRESCENT1 CUS0054497          03400000000000                R HARRIS                                                                             
013L5020210120000341250141000006225062152300000008500CRESCENT1 CUS0054660          03400000000000                N ABRAHAMS                                                                           
013L5020210120000026200612000006242170299600000006900CRESCENT1 CUS0058612          00200000000000                M HARTLEY                                                                            
013L5020210120000187255355000006257476487700000008500CRESCENT1 CUS0048673          01200000000000                S GANIEF                                                                             
013L5020210120000397250655000006275515955800000008500CRESCENT1 CUS0056471          00200000000000                G JACOBS                                                                             
013L5020210120000362198765000000197072203700000015000CRESCENT1 CUS0023063          00200000000000                A ABDULLAH                                                                           
013L5020210120000393255355000006254314526400000008500CRESCENT1 CUS0056243          03400000000000                A ADAM                                                                               
013L5020210120000218255355000006229320863500000008500CRESCENT1 CUS0004148          01200000000000                R HARTLEY                                                                            
013L5020210120000194198765000000197072203700000016000CRESCENT1 CUS0001455          00200000000000                M ABDULLA                                                                            
013L5020210120000202250056000006218583294800000008500CRESCENT1 CUS0002494          01200000000000                A HARTMANN                                                                           
013L5020210120000288250141000006252169964700000008500CRESCENT1 CUS0013155          00200000000000                O ABDULLAH                                                                           
013L5020210120000414198765000000294408339200000008500CRESCENT1 CUS0031353          00200000000000                N KOTWAL                                                                             
013L5020210120000401210612000006262620698300000008500CRESCENT1 CUS0056667          00200000000000                M VARDALIA                                                                           
013L5020210120000357051001000000024185798800000008500CRESCENT1 CUS0055100          03400000000000                J FREDERICKS                                                                         
013L5020210120000208250737000006205954281300000008500CRESCENT1 CUS0003334          00200000000000                A AJAM                                                                               
014L0000000260000000000000012501240133040000000024740000000000000000                                                                                                                                  
011LD23763200500000040945448920120210125                                                                                                                                                              
013L5020210123000870198765000000110724931100000008500CRESCENT1 CUS0029084          02682502000870                Y LEGOETE                                                                            
013L5020210123000718250655000000408208943800000008500CRESCENT1 CUS0044678          02682502000718                F HARMEN                                                                             
013L5020210123000391250655000006265163476900000023500CRESCENT1 CUS0041396          02682502000391                K ABASS                                                                              
013L5020210123000777250655000000001147884500000007500CRESCENT1 CUS0023047          02682502000777                I KOCKNEY                                                                            
013L5020210123000864470010000000110359731500000007500CRESCENT1 CUS0028955          02682502000864                L NIEZER                                                                             
013L5020210123000744250655000000625478712800000007500CRESCENT1 CUS0021253          02682502000744                R KHAN                                                                               
013L5020210123000252250655000006255230306800000008500CRESCENT1 CUS0049625          02682502000252                A HLOPHE                                                                             
013L5020210123000551051001000006253010233400000008500CRESCENT1 CUS0042905          02682502000551                S SHAHID                                                                             
013L5020210123000313470010000000134706807900000008500CRESCENT1 CUS0057848          02682502000313                A APPOLLIS                                                                           
013L5020210123000499632005000000928054747200000008500CRESCENT1 CUS0042486          02683002000499                S FRANKS                                                                             
013L5020210123000820470010000000141471615100000008500CRESCENT1 CUS0046211          02682502000820                R BRIJH                                                                              
014L0000000110000000000000002123355739100000000010550000000000000000                                                                                                                                  
019L0000000380000000000000014627317106690000000036140000000000000000                                                                                                                                  
999L000000048                                                                                                                                                                                         
