000L2021042500000PAYPORT CONSULTING PTY LTD EFT000073407303                                                                                                                                           
010LD237000019401                                                                                                                                                                                     
011LD23763200500000040945448920120210320                                                                                                                                                              
013L5020210319000240198765000000110764210800000016000CRESCENT1 CUS0029044          03000000000000                A RAZAK                                                                              
014L0000000010000000000000000011076421080000000001600000000000000000                                                                                                                                  
011LD23763200500000040945448920120210326                                                                                                                                                              
013L5020210325000814051001000000002905234300000008500CRESCENT1 CUS0001652          03400000000000                S FARRED                                                                             
014L0000000010000000000000000000290523430000000000850000000000000000                                                                                                                                  
011LD23763200500000040945448920120210331                                                                                                                                                              
013L5020210330002595470010000000126032983400000008500CRESCENT1 CUS0056866          03000000000000                I JACOBS                                                                             
014L0000000010000000000000000012603298340000000000850000000000000000                                                                                                                                  
011LD23763200500000040945448920120210421                                                                                                                                                              
013L5020210420000167250141000006210998959300000008500CRESCENT1 CUS0049378          00200000000000                R KLAASTE                                                                            
013L5020210420000356198765000000107827369300000016000CRESCENT1 CUS0028244          00200000000000                M RAGIEM                                                                             
014L0000000020000000000000000631882632860000000002450000000000000000                                                                                                                                  
011LD23763200500000040945448920120210424                                                                                                                                                              
013L5020210423000533632005000000926846021500000008500CRESCENT1 CUS0016365          00200016000533                H BAKER                                                                              
013L5020210423000110632005000000935317943000000008500CRESCENT1 CUS0058276          00200016000110                J JACKSON                                                                            
013L5020210423000710632005000000929866627700000008500CRESCENT1 CUS0025850          00200016000710                R DEPAUW                                                                             
013L5020210423000229632005000000925387834200000008500CRESCENT1 CUS0050945          01200012000229                S HARRISON                                                                           
013L5020210423000312632005000000903151171500000008500CRESCENT1 CUS0041535          00200016000312                J FAFER                                                                              
013L5020210423000191632005000000926551637000000016000CRESCENT1 CUS0003893          00200016000191                A MOHAMED                                                                            
013L5020210423000467632005000000906472767900000016000CRESCENT1 CUS0013221          00200016000467                F KHAN                                                                               
013L5020210423000511632005000000931512951600000008500CRESCENT1 CUS0053795          00200016000511                H TITUS                                                                              
013L5020210423000276632005000000406002470900000006900CRESCENT1 CUS0040980          00200016000276                M LILLAH                                                                             
013L5020210423000730632005000000404237414600000008500CRESCENT1 CUS0056085          01200000000730                A SAMAAI                                                                             
013L5020210423000441632005000000409185597500000008500CRESCENT1 CUS0053139          00300000000441                F RADEMEYER                                                                          
013L5020210423000678632005000000408825940500000008500CRESCENT1 CUS0045898          00300000000678                N OMAR                                                                               
013L5020210423000426632005000000928846663100000008500CRESCENT1 CUS0059681          00200016000426                R KENNEDY                                                                            
013L5020210423000808632005000000928028054000000008500CRESCENT1 CUS0057033          00200016000808                A GEORGE                                                                             
013L5020210423000477632005000000404302704700000008500CRESCENT1 CUS0053527          00200016000477                A SAMODIEN                                                                           
014L0000000150000000000000001127453579970000000014090000000000000000                                                                                                                                  
011LD23763200500000040945448920120210426                                                                                                                                                              
013L5020210424001671198765000000900315520000000008500CRESCENT1 CUS0034892          02682502001671                M REAANE                                                                             
013L5020210424001888051001000000117913293700000015000CRESCENT1 CUS0027697          02682502001888                N DAVIES                                                                             
013L5020210424002011198765000000195825667300000008500CRESCENT1 CUS0037935          02682502002011                N ROSKIN                                                                             
013L5020210424002083051001000000620845881000000008500CRESCENT1 CUS0028046          02682502002083                F AMEER                                                                              
013L5020210424000607051001000000221020512800000016000CRESCENT1 CUS0033740          02682502000607                A JARDIEN                                                                            
013L5020210424002487250655000006238836644500000008500CRESCENT1 CUS0024129          02682502002487                J JOOSUB DADA                                                                        
013L5020210424000439198765000000195053059800000008500CRESCENT1 CUS0033437          02682502000439                S WILLIAMS                                                                           
013L5020210424000261800000000000133245441900000008500CRESCENT1 CUS0046383          02682502000261                S SEEDAT                                                                             
013L5020210424003311632005000000407948108600000008500CRESCENT1 CUS0019545          02682502003311                Z OMAR                                                                               
013L5020210424003342250655000000622722445200000008500CRESCENT1 CUS0030139          02682502003342                D MKHOMZA                                                                            
013L5020210424002695632005000000904701403500000016000CRESCENT1 CUS0019243          02683002002695                M KAMAAR                                                                             
013L5020210424003374051001000000086012310700000016000CRESCENT1 CUS0042516          02682502003374                K DEVRIES                                                                            
013L5020210424001280051001000000077209905300000008500CRESCENT1 CUS0037306          02682502001280                A NACKERDIEN                                                                         
013L5020210424002042051001000000560030827100000008500CRESCENT1 CUS0041574          02682502002042                M EBRAHIM                                                                            
013L5020210424001459250655000006207647872400000008500CRESCENT1 CUS0026931          02682502001459                S KEMP                                                                               
013L5020210424002808250655000000914075635200000008500CRESCENT1 CUS0045167          02682502002808                A MOSES                                                                              
013L5020210424002379051001000000113208637800000014400CRESCENT1 CUS0059512          02682502002379                S KHAN                                                                               
013L5020210424000493051001000000000137840100000008500CRESCENT1 CUS0026014          02682502000493                S BARTHIS                                                                            
013L5020210424002478470010000006260070712100000008500CRESCENT1 CUS0044923          02682502002478                K ROSS                                                                               
013L5020210424003078250655000006201762571300000016000CRESCENT1 CUS0045339          02682502003078                M CHOTHIA                                                                            
013L5020210424002861632005000009006943650700000016000CRESCENT1 CUS0021096          02682502002861                S ARENDE                                                                             
013L5020210424003267632005000000409685489000000008500CRESCENT1 CUS0056254          02682502003267                Z DANTU                                                                              
013L5020210424002052051001000000025421162900000008500CRESCENT1 CUS0023891          02682502002052                R KARSANDAS                                                                          
013L5020210424001978051001000000020677990100000023500CRESCENT1 CUS0027785          02682502001978                A HAJAT                                                                              
013L5020210424000339051001000000062274618800000008500CRESCENT1 CUS0025772          02682502000339                A SHAIK                                                                              
013L5020210424000873051001000000008912748800000008500CRESCENT1 CUS0034085          02682502000873                H DUNKALO                                                                            
013L5020210424001234250655000006229534434900000008500CRESCENT1 CUS0022898          02682502001234                S KHAN                                                                               
013L5020210424001268250655000000922528275100000008500CRESCENT1 CUS0043996          02682502001268                N HASSEN                                                                             
013L5020210424003354250655000005181204194900000015000CRESCENT1 CUS0021581          02682502003354                R MAHOMED                                                                            
013L5020210424002475250655000006218868216300000008500CRESCENT1 CUS0035452          02682502002475                M BASHIR                                                                             
013L5020210424002433051001000000100614548600000008500CRESCENT1 CUS0044894          02682502002433                Z DAVIDS                                                                             
013L5020210424000939800000000000786000412800000008500CRESCENT1 CUS0020126          02682502000939                S ABDUL RAHMAN                                                                       
013L5020210424002137051001000000010083611800000008500CRESCENT1 CUS0055711          02682502002137                D MARNEY                                                                             
013L5020210424003059051001000000235996054300000008500CRESCENT1 CUS0032530          02682502003059                S SUKWEANA                                                                           
013L5020210424001612198765000000290520760200000008500CRESCENT1 CUS0023208          02682502001612                Z CART                                                                               
013L5020210424003272250655000006278028183300000008500CRESCENT1 CUS0030104          02682502003272                S YOUSUF                                                                             
013L5020210424001658051001000000235369257700000008500CRESCENT1 CUS0037561          02682502001658                F MILANZI                                                                            
013L5020210424000421250655000000620072120200000008500CRESCENT1 CUS0019844          02682502000421                S MAITLAND                                                                           
013L5020210424002486051001000000119903324100000008500CRESCENT1 CUS0020908          02682502002486                S SALIE                                                                              
013L5020210424002703198765000001009993813600000008500CRESCENT1 CUS0045083          02682502002703                R HANSEN                                                                             
013L5020210424002533051001000000738024586100000016000CRESCENT1 CUS0028633          02682502002533                C MKHOTYWA                                                                           
013L5020210424001291051001000000000291532100000008500CRESCENT1 CUS0026779          02682502001291                F MATTHEWS                                                                           
013L5020210424002103250655000000040829068900000008500CRESCENT1 CUS0044742          02682502002103                Y LOKHAT                                                                             
013L5020210424002283470010000000137227254600000008500CRESCENT1 CUS0044826          02682502002283                A ISMAIL                                                                             
013L5020210424002508470010000000136909306800000008500CRESCENT1 CUS0044943          02682502002508                N EBRAHIM                                                                            
013L5020210424003359051001000000002036564600000008500CRESCENT1 CUS0039156          02682502003359                S MATTHEWS                                                                           
013L5020210424001989632005000000921974734600000007500CRESCENT1 CUS0059401          02683002001989                H PATHER                                                                             
013L5020210424001977198765000000196464497500000008500CRESCENT1 CUS0023819          02682502001977                A KOTWAL                                                                             
013L5020210424001873198765000000117913293700000008500CRESCENT1 CUS0027696          02682502001873                A DAVIES                                                                             
013L5020210424001643198765000000928424681700000016000CRESCENT1 CUS0034878          02682502001643                L NDLOVU                                                                             
013L5020210424002338198765000002000758225000000008500CRESCENT1 CUS0028387          02682502002338                M HADJEE                                                                             
013L5020210424003595250655000006227069331600000008500CRESCENT1 CUS0032941          02682502003595                W RANA                                                                               
013L5020210424001657051001000000000150920300000008500CRESCENT1 CUS0034890          02682502001657                C MCYAK                                                                              
013L5020210424002070632005000000918096884400000008500CRESCENT1 CUS0035197          02682502002070                M NADEEM                                                                             
013L5020210424000357051001000000027232097300000008500CRESCENT1 CUS0039947          02682502000357                A ADAM                                                                               
013L5020210424002968051001000000082074037900000008500CRESCENT1 CUS0029365          02682502002968                S FAKROODEEN                                                                         
013L5020210424003636250655000006210554216400000008500CRESCENT1 CUS0030357          02682502003636                B RAVAT                                                                              
013L5020210424003159198765000000295254572700000008500CRESCENT1 CUS0024755          02682502003159                M NANABHAY                                                                           
013L5020210424000554632005000004082558684600000008500CRESCENT1 CUS0043353          02682502000554                A DAWOOD                                                                             
013L5020210424001660470010000000127839131400000008500CRESCENT1 CUS0044360          02682502001660                N KINANA                                                                             
013L5020210424001812051001000000265432540500000007500CRESCENT1 CUS0023556          02682502001812                A SHERIFF                                                                            
013L5020210424003328632005000000913363721600000007500CRESCENT1 CUS0030132          02683002003328                M PETERSEN                                                                           
013L5020210424000100632005000000917624116600000016000CRESCENT1 CUS0021957          02682502000100                M TALIEP                                                                             
013L5020210424000872198765000000213504362700000008500CRESCENT1 CUS0031168          02682502000872                A GORA                                                                               
014L0000000640000000000000009425282552200000000063490000000000000000                                                                                                                                  
019L0000000840000000000000011208589007880000000083330000000000000000                                                                                                                                  
999L000000100                                                                                                                                                                                         
