000L2021052000000PAYPORT CONSULTING PTY LTD EFT000077107303                                                                                                                                           
010LD237000021701                                                                                                                                                                                     
011LD23763200500000040945448920120210514                                                                                                                                                              
013L5020210513000691261251000006223144679200000008500CRESCENT1 CUS0017787          00600000000000                N BAKER                                                                              
014L0000000010000000000000000622314467920000000000850000000000000000                                                                                                                                  
019L0000000010000000000000000622314467920000000000850000000000000000                                                                                                                                  
999L000000007                                                                                                                                                                                         
