000L2020121600000PAYPORT CONSULTING PTY LTD EFT000054607303                                                                                                                                           
010LD237000005301                                                                                                                                                                                     
011LD23763200500000040945448920120201125                                                                                                                                                              
013L5020201124000236051001000001006216407200000016000CRESCENT1 CUS0053570          03000000000000                N MOHAMED                                                                            
014L0000000010000000000000000100621640720000000001600000000000000000                                                                                                                                  
011LD23763200500000040945448920120201215                                                                                                                                                              
013L5020201214001065632005000000911229351600000008500CRESCENT1 CUS0045903          00200016001065                F ADAM AHMED                                                                         
013L5020201214001124632005000000926754792900000008500CRESCENT1 CUS0036372          00292803001124                A TARR                                                                               
013L5020201214000392632005000000928510454300000008500CRESCENT1 CUS0041677          00200016000392                S PETERSON                                                                           
013L5020201214001224632005000000920898468100000008500CRESCENT1 CUS0037744          00300000001224                M DAVIDS                                                                             
013L5020201214000849632005000000918026635700000016000CRESCENT1 CUS0007475          00200016000849                M JACOBS                                                                             
013L5020201214000405632005000000909674589900000023500CRESCENT1 CUS0000292          00200016000405                R DAVIDS                                                                             
013L5020201214000594632005000000915821471000000008500CRESCENT1 CUS0056009          00200016000594                F MANUEL                                                                             
013L5020201214000660632005000000406692653500000008500CRESCENT1 CUS0004602          00292803000660                N AMBARAM                                                                            
013L5020201214000870632005000000114912138900000008500CRESCENT1 CUS0032481          00300000000870                M SALIE                                                                              
013L5020201214000757632005000000925096583700000016000CRESCENT1 CUS0044424          00200016000757                A AKOOJEE                                                                            
013L5020201214000237632005000000934885380300000008500CRESCENT1 CUS0040405          00200016000237                N MOYA                                                                               
013L5020201214000022632005000000909115345300000016000CRESCENT1 CUS0038562          00200016000022                Z BHAYAT                                                                             
013L5020201214000800632005000000933444154900000006900CRESCENT1 CUS0030980          00200016000800                R DEAN                                                                               
013L5020201214000111632005000000933187917700000008500CRESCENT1 CUS0017367          00292803000111                M AROYEWUN                                                                           
013L5020201214000943632005000000913674871500000008500CRESCENT1 CUS0009745          00300040000943                T MOOSA                                                                              
013L5020201214000853632005000000928799325900000008500CRESCENT1 CUS0057249          00200016000853                F RINGUEST                                                                           
013L5020201214000982632005000000925826351200000008500CRESCENT1 CUS0057791          00300000000982                E ISAACS                                                                             
013L5020201214000320632005000000911948102500000008500CRESCENT1 CUS0059449          00200016000320                G GANIEF                                                                             
013L5020201214001048580105000001001127431700000016000CRESCENT1 CUS0011476          00600000000000                A ALLIE                                                                              
013L5020201214000236632005000000407981687400000016000CRESCENT1 CUS0019292          00292803000236                S LAHER                                                                              
014L0000000200000000000000001667760770800000000022090000000000000000                                                                                                                                  
019L0000000210000000000000001768382411520000000023690000000000000000                                                                                                                                  
999L000000029                                                                                                                                                                                         
