000L2020102300000PAYPORT CONSULTING PTY LTD EFT000047507303                                                                                                                                           
010LD237000002301                                                                                                                                                                                     
011LD23763200500000040945448920120201021                                                                                                                                                              
013L5020201020000305470010000000156306484500000008500CRESCENT1 1603195658OCUS00544000200000000000                S HOOSAIN                                                                            
013L5020201020000361470010000000139957482300000008500CRESCENT1 1603195658OCUS00554900200000000000                D ROSS                                                                               
013L5020201020000348051001000000033201480000000016000CRESCENT1 1603195657OCUS00265900200000000000                I MOHAMED                                                                            
013L5020201020000284051001000000002230449500000008500CRESCENT1 1603195657OCUS00176100200000000000                F FAKIR                                                                              
013L5020201020000297470010000000134063352100000008500CRESCENT1 1603195658OCUS00537600200000000000                F JACOBS                                                                             
013L5020201020000413470010000000143792551900000008500CRESCENT1 1603195658OCUS00570600600000000000                Y MUSTAPHA                                                                           
013L5020201020000391051001000001009422565400000008500CRESCENT1 1603195658OCUS00562300200000000000                F VAN ZYLE                                                                           
013L5020201020000427051001000000027686998200000008500CRESCENT1 1603195658OCUS00576900200000000000                F DIEDERICKS                                                                         
013L5020201020000289051001000000008298883800000008500CRESCENT1 1603195658OCUS00536000200000000000                R ADAM                                                                               
013L5020201020000263470010000000133553516900000007500CRESCENT1 1603195658OCUS00520500200000000000                F SINGH                                                                              
013L5020201020000344051001000000000932925000000016000CRESCENT1 1603195657OCUS00260300600000000000                B FARRED                                                                             
013L5020201020000012470010000000129463405200000008500CRESCENT1 1603195658OCUS00580600200000000000                I DAVIDS                                                                             
013L5020201020000367470010000000154865967100000008500CRESCENT1 1603195658OCUS00557200200000000000                M MOHAMED                                                                            
013L5020201020000403470010000000125718013200000008500CRESCENT1 1603195658OCUS00568400200000000000                A MATTHEWS                                                                           
013L5020201020000331051001000001009418829500000008500CRESCENT1 1603195658OCUS00548400200000000000                M ADAMS                                                                              
013L5020201020000408462005000001110403730100000008500CRESCENT1 1603195657OCUS00349700200000000000                H LEDIGA                                                                             
013L5020201020000191470010000000147772552900000016000CRESCENT1 1603195658OCUS00494103400000000000                S HENDRICKS                                                                          
013L5020201020000423632005000000409055852800000008500CRESCENT1 1603195658OCUS00572700292803000423                S CHARLES                                                                            
013L5020201020000279051001000000007903812300000008500CRESCENT1 1603195658OCUS00530300200000000000                Z HENDRICKS                                                                          
013L5020201020000108051001000001000571604500000008500CRESCENT1 1603195657OCUS00443700200000000000                S JAPPIE                                                                             
013L5020201020000312470010000000130730192200000016000CRESCENT1 1603195657OCUS00205900200000000000                E JUMAT                                                                              
013L5020201020000185470010000000137732826900000008500CRESCENT1 1603195658OCUS00493900200000000000                A MORRIS                                                                             
013L5020201020000359470010000000157113189000000008500CRESCENT1 1603195658OCUS00554900200000000000                A DALWAI                                                                             
013L5020201020000020470010000000144415912500000008500CRESCENT1 1603195658OCUS00582400200000000000                R PHILLIPS                                                                           
013L5020201020000318051001000000000928624100000016000CRESCENT1 1603195657OCUS00213300200000000000                A MOOS                                                                               
013L5020201020000028470010000000143361209500000008500CRESCENT1 1603195658OCUS00583600600000000000                S MANUEL                                                                             
013L5020201020000014470010000000153294213100000008500CRESCENT1 1603195658OCUS00580900200000000000                A KORDON                                                                             
013L5020201020000215800000000007860008637400000008500CRESCENT1 1603195658OCUS00505400200000000000                M ADAMS                                                                              
013L5020201020000246051001000000000923273700000008500CRESCENT1 1603195657OCUS00115500200000000000                Z SALIE                                                                              
013L5020201020000409470010000000152539829400000008500CRESCENT1 1603195658OCUS00570400200000000000                F DAVIDS                                                                             
013L5020201020000015632005000000407961712700000008500CRESCENT1 1603195657OCUS00378700292803000015                A NORDIEN                                                                            
013L5020201020000291632005000000408484543000000008500CRESCENT1 1603195658OCUS00537200292803000291                A AJOUHAAR                                                                           
013L5020201020000008470010000000149245454900000008500CRESCENT1 1603195658OCUS00580300200000000000                K TEMOORE                                                                            
013L5020201020000411470010000000139466764500000006900CRESCENT1 1603195658OCUS00570600200000000000                M SAMUELS                                                                            
013L5020201020000357470010000000130561658600000008500CRESCENT1 1603195658OCUS00553200200000000000                M JACOBS                                                                             
013L5020201020000337470010000000121874744500000008500CRESCENT1 1603195658OCUS00549500200000000000                H LEWIS                                                                              
013L5020201020000229051001000000005207156100000008500CRESCENT1 1603195658OCUS00509201200000000000                M MOOLA                                                                              
014L0000000370000000000000001612847039930000000034940000000000000000                                                                                                                                  
019L0000000370000000000000001612847039930000000034940000000000000000                                                                                                                                  
999L000000043                                                                                                                                                                                         
