000L2021051400000PAYPORT CONSULTING PTY LTD EFT000076307303                                                                                                                                           
010LD237000021201                                                                                                                                                                                     
011LD23763200500000040945448920120210426                                                                                                                                                              
013L5020210424001076470010000000150218702500000008500CRESCENT1 CUS0055026          03400000000000                Y WILLIAMS                                                                           
014L0000000010000000000000000015021870250000000000850000000000000000                                                                                                                                  
011LD23763200500000040945448920120210430                                                                                                                                                              
013L5020210429001477201909000006234892441700000008500CRESCENT1 CUS0059788          03400000000000                A ELLIS                                                                              
013L5020210429001567632005000000924040103100000008500CRESCENT1 CUS0059800          03292801001567                R ALBERTYN                                                                           
014L0000000020000000000000000715893254480000000001700000000000000000                                                                                                                                  
011LD23763200500000040945448920120210514                                                                                                                                                              
013L5020210513001139632005000000408758670600000007500CRESCENT1 CUS0026240          02683002001139                F ISMAIL                                                                             
013L5020210513000607632005000000432557004100000008500CRESCENT1 CUS0038710          02683002000607                R MOHAMMED                                                                           
013L5020210513000857198765000000108762174100000007500CRESCENT1 CUS0020198          02682502000857                S OMAR                                                                               
013L5020210513001090250655000006216647202500000008500CRESCENT1 CUS0042928          02682502001090                S AMOD                                                                               
013L5020210513001159250655000000623446672600000008500CRESCENT1 CUS0026487          02682502001159                A NGWABENI                                                                           
013L5020210513000692632005000000408004439100000008500CRESCENT1 CUS0039235          02682502000692                Y MOTARA                                                                             
013L5020210513000103470010000000105654067200000008500CRESCENT1 CUS0044801          02682502000103                M DENNIS GREEN                                                                       
013L5020210513000670470010000000131697180200000006900CRESCENT1 CUS0059848          02682502000670                R DRAMAT                                                                             
014L0000000080000000000000000843552741040000000006440000000000000000                                                                                                                                  
019L0000000110000000000000001574467865770000000008990000000000000000                                                                                                                                  
999L000000021                                                                                                                                                                                         
