000L2021042700000PAYPORT CONSULTING PTY LTD    000073807303                                                                                                                                           
900L000 TRANSMISSION 07303-0000096 ACCEPTED                                                                                                                                                           
900L001 ACB USER SET D237-0000102-000016 ACCEPTED                                                                                                                                                     
903L001L5063200504094544892D23700000105100100023391006100000018900210429350   ARCTICA   1619271011RARCTICA01ROSEBANK DENTAL CERAMICS      00000000000000000000                21                      
903L001L5263200504094544892D23700000263200504094544892100000018900210429100000ARCTICA   CONTRAV1UCERYLTOKVLB                                                                                          
903L001L5063200504094544892D23700000325065562747289462100000014900210429350   OPECTORWEB1619271014RJOYSPRINGMARGAUX OVERBEEK              00000000000000000000                21                      
903L001L5263200504094544892D23700000463200504094544892100000014900210429100000OPECTORWEBCONTRAUCFHMNXYTCDDEU                                                                                          
903L001L5063200504094544892D23700000563200509358677700200000025000210429350   ABSOLIT   1619271007RSHAQH001 SHAQUILLE HERMAN              00000000000000000000                21                      
903L001L5063200504094544892D23700000605100100004956125200000025000210429350   ABSOLIT   1619271007RLN001    LEVINIA NAGEL                 00000000000000000000                21                      
903L001L5263200504094544892D23700000763200504094544892100000050000210429100000ABSOLIT   CONTRAHZQSFTHWDQJCSE                                                                                          
903L001L5063200504094544892D23700000863200504065239272100000040000210429350   JAMFOX    1619443810RJFMIA8   MARICE RICHER                 00000000000000000000                21                      
903L001L5063200504094544892D23700000963200504086755310100000048000210429350   JAMFOX    1619443810RJFLIENKA1DIANA VILJOEN                 00000000000000000000                21                      
903L001L5263200504094544892D23700001063200504094544892100000088000210429100000JAMFOX    CONTRAB09BEL2ZYZVGSM                                                                                          
903L001L5063200504094544892D23700001163200504083362982100000035000210429350   MANIANET  1619271018R72       QUELYNNE VAN ASWEGEN          00000000000000000000                21                      
903L001L5263200504094544892D23700001263200504094544892100000035000210429100000MANIANET  CONTRATV9JYMW6GHBLMS                                                                                          
903L001L5063200504094544892D23700001363200504075311448100000405000210429350   TSMM      1619443813RTS0000000SISANDA MAGALA                00000000000000000000                21                      
903L001L5063200504094544892D23700001425065562339982888100000255000210429350   TSMM      1619443813RTS0000000DARYN DUPAVILLON              00000000000000000000                21                      
903L001L5063200504094544892D23700001525065562393629525100000355000210429350   TSMM      1619443813RTS0000000CORBIN BOSCH                  00000000000000000000                21                      
903L001L5263200504094544892D23700001663200504094544892100001015000210429100000TSMM      CONTRARMOPJ7IAA8HCDK                                                                                          
999L000000020                                                                                                                                                                                         
