000L2021040300000PAYPORT CONSULTING PTY LTD EFT000070007303                                                                                                                                           
010LD237000017501                                                                                                                                                                                     
011LD23763200500000040945448920120210320                                                                                                                                                              
013L5020210319000235632005000000407699709300000008500CRESCENT1 CUS0056908          03092801000235                Z WALBURG                                                                            
014L0000000010000000000000000040769970930000000000850000000000000000                                                                                                                                  
019L0000000010000000000000000040769970930000000000850000000000000000                                                                                                                                  
999L000000007                                                                                                                                                                                         
