000L2020112200000PAYPORT CONSULTING PTY LTD EFT000051507303                                                                                                                                           
010LD237000004001                                                                                                                                                                                     
011LD23763200500000040945448920120201107                                                                                                                                                              
013L5020201106000001270452000006266097312600000037800ARCTICA   1604496607RARCTICA0003000000000000                MOPANI ENGINEERING CC                                                                
014L0000000010000000000000000626609731260000000003780000000000000000                                                                                                                                  
011LD23763200500000040945448920120201123                                                                                                                                                              
013L5020201121000003632005000000405859773200000000000PAYPORT                       89981059000003                DEAN STEENKAMP                                                                       
014L0000000010000000000000000040585977320000000000000000000000000000                                                                                                                                  
019L0000000020000000000000000667195708580000000003780000000000000000                                                                                                                                  
999L000000010                                                                                                                                                                                         
