000L2021012700000PAYPORT CONSULTING PTY LTD    000060507303                                                                                                                                           
900L000 TRANSMISSION 07303-0000053 ACCEPTED                                                                                                                                                           
900L001 ACB USER SET D237-0000057-004077 ACCEPTED                                                                                                                                                     
903L001L5063200504094544892D23700000163200509165024536100000008500210127440   CRESCENT1 CUS0018577          S ALI MOHAMED                 00000000000000000000                21                      
903L001L5063200504094544892D23700000263200504059479232100000016000210127440   CRESCENT1 CUS0020153          I PARAK                       00000000000000000000                21                      
903L001L5063200504094544892D23700000325065562141473570100000008500210127440   CRESCENT1 CUS0022506          E STENEKAMP                   00000000000000000000                21                      
903L001L5063200504094544892D23700000405100100302300082100000008500210127440   CRESCENT1 CUS0025672          K HOOSAIN                     00000000000000000000                21                      
903L001L5063200504094544892D23700000505100100233643702100000008500210127440   CRESCENT1 CUS0030470          N NBEWE                       00000000000000000000                21                      
903L001L5063200504094544892D23700000625065562026431106100000008500210127440   CRESCENT1 CUS0032906          A NHAKOODA                    00000000000000000000                21                      
903L001L5063200504094544892D23700000705100100281736448100000008500210127440   CRESCENT1 CUS0036009          A ALEEM                       00000000000000000000                21                      
903L001L5063200504094544892D23700000825065562124700510100000008500210127440   CRESCENT1 CUS0038935          A MOHAMMAD                    00000000000000000000                21                      
903L001L5063200504094544892D23700000925065562119460278100000008500210127440   CRESCENT1 CUS0042121          Z NAGDEE                      00000000000000000000                21                      
903L001L5063200504094544892D23700001025065509140756352100000008500210127440   CRESCENT1 CUS0045167          A MOSES                       00000000000000000000                21                      
903L001L5063200504094544892D23700001147001001280022793200000008500210127440   CRESCENT1 CUS0048314          R MOHAMMAD                    00000000000000000000                21                      
903L001L5063200504094544892D23700001247001001303405286200000023500210127440   CRESCENT1 CUS0050891          I SCHOLTZ                     00000000000000000000                21                      
903L001L5063200504094544892D23700001325065562506959149100000008500210127440   CRESCENT1 CUS0052815          S MAHOMED                     00000000000000000000                21                      
903L001L5063200504094544892D23700001447001001560232410200000008500210127440   CRESCENT1 CUS0055443          G SAYED                       00000000000000000000                21                      
903L001L5063200504094544892D23700001505100100070897808100000008500210127440   CRESCENT1 CUS0057208          A ABRAHAMS                    00000000000000000000                21                      
903L001L5063200504094544892D23700001641050651129116062200000008500210127440   CRESCENT1 CUS0059034          J STEVEN                      00000000000000000000                21                      
903L001L5063200504094544892D23700001705100100005395909100000008500210127440   CRESCENT1 CUS0018578          A CHOONARA                    00000000000000000000                21                      
903L001L5063200504094544892D23700001825065562097070800100000016000210127440   CRESCENT1 CUS0020167          R FOOLAT                      00000000000000000000                21                      
903L001L5063200504094544892D23700001925065562220583216100000016000210127440   CRESCENT1 CUS0022510          I SHAIK                       00000000000000000000                21                      
903L001L5063200504094544892D23700002063200501060821891100000007500210127440   CRESCENT1 CUS0025674          M KAMALDIEN                   00000000000000000000                21                      
903L001L5063200504094544892D23700002125065562384256709100000008500210127440   CRESCENT1 CUS0030492          R BHANA SEPTEMBER             00000000000000000000                21                      
903L001L5063200504094544892D23700002225065562289765847100000008500210127440   CRESCENT1 CUS0032924          Z SUBRATHIE                   00000000000000000000                21                      
903L001L5063200504094544892D23700002305100100073304921100000008500210127440   CRESCENT1 CUS0036013          R ADAMS                       00000000000000000000                21                      
903L001L5063200504094544892D23700002425065562328275369100000008500210127440   CRESCENT1 CUS0039000          K LINGHAN                     00000000000000000000                21                      
903L001L5063200504094544892D23700002547001001325633931200000008500210127440   CRESCENT1 CUS0042123          M HLABANGWANE                 00000000000000000000                21                      
903L001L5063200504094544892D23700002625065562188922986100000008500210127440   CRESCENT1 CUS0045181          M SATAAR                      00000000000000000000                21                      
903L001L5063200504094544892D23700002747001001535706595100000008500210127440   CRESCENT1 CUS0048320          S SAMUELS                     00000000000000000000                21                      
903L001L5063200504094544892D23700002825065562795857873100000008500210127440   CRESCENT1 CUS0050892          Z BEG                         00000000000000000000                21                      
903L001L5063200504094544892D23700002925065554931553878100000006900210127440   CRESCENT1 CUS0052816          A ISMAIL                      00000000000000000000                21                      
903L001L5063200504094544892D23700003005100110049353525100000008500210127440   CRESCENT1 CUS0055445          S DAVIS                       00000000000000000000                21                      
903L001L5063200504094544892D23700003125065562630005941100000008500210127440   CRESCENT1 CUS0057213          R KENNY                       00000000000000000000                21                      
903L001L5063200504094544892D23700003241050651109933251200000016000210127440   CRESCENT1 CUS0059037          C MILAMBE                     00000000000000000000                21                      
903L001L5063200504094544892D23700003325065560015706647100000008500210127440   CRESCENT1 CUS0018583          M OMAR                        00000000000000000000                21                      
903L001L5063200504094544892D23700003405100100062129287100000016000210127440   CRESCENT1 CUS0020172          S AKRAM                       00000000000000000000                21                      
903L001L5063200504094544892D23700003525065562424869420100000016000210127440   CRESCENT1 CUS0022518          F BELIM                       00000000000000000000                21                      
903L001L5063200504094544892D23700003605100100622746188100000008500210127440   CRESCENT1 CUS0025772          A SHAIK                       00000000000000000000                21                      
903L001L5063200504094544892D23700003725065562259499351100000008500210127440   CRESCENT1 CUS0030497          F MOTARA                      00000000000000000000                21                      
903L001L5063200504094544892D23700003825065562228294055100000016000210127440   CRESCENT1 CUS0032932          B AJAM                        00000000000000000000                21                      
903L001L5063200504094544892D23700003919876501756011230100000008500210127440   CRESCENT1 CUS0036015          A DESAI                       00000000000000000000                21                      
903L001L5063200504094544892D23700004019876501230043381100000008500210127440   CRESCENT1 CUS0039027          F PANDOR                      00000000000000000000                21                      
903L001L5063200504094544892D23700004105100100163867623100000008500210127440   CRESCENT1 CUS0042131          Z DOCRAT                      00000000000000000000                21                      
903L001L5063200504094544892D23700004225065562368461267100000008500210127440   CRESCENT1 CUS0045193          N OSMAN                       00000000000000000000                21                      
903L001L5063200504094544892D23700004305100100200300105100000016000210127440   CRESCENT1 CUS0048324          S SALOOJEE                    00000000000000000000                21                      
903L001L5063200504094544892D23700004425065560044443921100000008500210127440   CRESCENT1 CUS0050899          N BADAT                       00000000000000000000                21                      
903L001L5063200504094544892D23700004505100100071952446100000016000210127440   CRESCENT1 CUS0052817          L RAWAT                       00000000000000000000                21                      
903L001L5063200504094544892D23700004625065562208681678100000008500210127440   CRESCENT1 CUS0055455          Y KIPPIE                      00000000000000000000                21                      
903L001L5063200504094544892D23700004705100100070426708100000008500210127440   CRESCENT1 CUS0057215          S MISBACH                     00000000000000000000                21                      
903L001L5063200504094544892D23700004819876501098695836100000006900210127440   CRESCENT1 CUS0059041          A SALIE                       00000000000000000000                21                      
903L001L5063200504094544892D23700004905100100250899809100000008500210127440   CRESCENT1 CUS0018584          N ALLI                        00000000000000000000                21                      
903L001L5063200504094544892D23700005025065560529105012100000008500210127440   CRESCENT1 CUS0020173          S GASOOR                      00000000000000000000                21                      
903L001L5063200504094544892D23700005125065562332274125100000016000210127440   CRESCENT1 CUS0022534          K ALLIE                       00000000000000000000                21                      
903L001L5063200504094544892D23700005225065562630733295100000008500210127440   CRESCENT1 CUS0025777          Z MOOLA                       00000000000000000000                21                      
903L001L5063200504094544892D23700005363200509241079350100000008500210127440   CRESCENT1 CUS0030505          S BHYAT                       00000000000000000000                21                      
903L001L5063200504094544892D23700005425065562270693316100000008500210127440   CRESCENT1 CUS0032941          W RANA                        00000000000000000000                21                      
903L001L5063200504094544892D23700005525065562024343361100000016000210127440   CRESCENT1 CUS0036027          M ALLIBHAI DUDHAI             00000000000000000000                21                      
903L001L5063200504094544892D23700005663200504080773407100000008500210127440   CRESCENT1 CUS0039055          K KADER                       00000000000000000000                21                      
903L001L5063200504094544892D23700005725065562821539973100000008500210127440   CRESCENT1 CUS0042151          A KADER                       00000000000000000000                21                      
903L001L5063200504094544892D23700005819876501783008121100000008500210127440   CRESCENT1 CUS0045200          F KOTWAL                      00000000000000000000                21                      
903L001L5063200504094544892D23700005925065562407739616100000008500210127440   CRESCENT1 CUS0048332          F KARRIM                      00000000000000000000                21                      
903L001L5063200504094544892D23700006025065562282497778100000008500210127440   CRESCENT1 CUS0050910          G FORBES                      00000000000000000000                21                      
903L001L5063200504094544892D23700006163200504081590729100000008500210127440   CRESCENT1 CUS0052824          N GASANT                      00000000000000000000                21                      
903L001L5063200504094544892D23700006219876501153449226100000008500210127440   CRESCENT1 CUS0055463          S JARDINE                     00000000000000000000                21                      
903L001L5063200504094544892D23700006347001001205271706200000008500210127440   CRESCENT1 CUS0057217          Z JANSEN                      00000000000000000000                21                      
903L001L5063200504094544892D23700006425065562681977719100000008500210127440   CRESCENT1 CUS0059048          Z PANDY                       00000000000000000000                21                      
903L001L5063200504094544892D23700006519876501010128485100000016000210127440   CRESCENT1 CUS0018586          R RASHID                      00000000000000000000                21                      
903L001L5063200504094544892D23700006663200509068112254100000008500210127440   CRESCENT1 CUS0020179          F LAHRI                       00000000000000000000                21                      
903L001L5063200504094544892D23700006719876501988376165100000008500210127440   CRESCENT1 CUS0022535          H SEEDAT                      00000000000000000000                21                      
903L001L5063200504094544892D23700006819876501953459145100000008500210127440   CRESCENT1 CUS0025828          F PECK                        00000000000000000000                21                      
903L001L5063200504094544892D23700006925065560131294584100000008500210127440   CRESCENT1 CUS0030527          F KXOZA                       00000000000000000000                21                      
903L001L5063200504094544892D23700007025065560091294195100000008500210127440   CRESCENT1 CUS0032950          F ESSACK                      00000000000000000000                21                      
903L001L5063200504094544892D23700007163200509119254460100000008500210127440   CRESCENT1 CUS0036051          R LEVERZENCIA                 00000000000000000000                21                      
903L001L5063200504094544892D23700007205100100242016286100000008500210127440   CRESCENT1 CUS0039066          A SARWAN                      00000000000000000000                21                      
903L001L5063200504094544892D23700007363200504079932056100000008500210127440   CRESCENT1 CUS0042169          I MOOSA                       00000000000000000000                21                      
903L001L5063200504094544892D23700007425065562490989286100000008500210127440   CRESCENT1 CUS0045209          N AMOD                        00000000000000000000                21                      
903L001L5063200504094544892D23700007505100100073377759100000008500210127440   CRESCENT1 CUS0048333          A AMIEN                       00000000000000000000                21                      
903L001L5063200504094544892D23700007605100100053906888100000007500210127440   CRESCENT1 CUS0050918          M AMAAN                       00000000000000000000                21                      
903L001L5063200504094544892D23700007705100110035893425100000008500210127440   CRESCENT1 CUS0052826          Y JAMIE                       00000000000000000000                21                      
903L001L5063200504094544892D23700007847001001571131890200000008500210127440   CRESCENT1 CUS0055491          A DALWAI                      00000000000000000000                21                      
903L001L5063200504094544892D23700007947001001456777880200000008500210127440   CRESCENT1 CUS0057220          K PARKER                      00000000000000000000                21                      
903L001L5063200504094544892D23700008005100110134669841100000016000210127440   CRESCENT1 CUS0059049          R PALMER                      00000000000000000000                21                      
903L001L5063200504094544892D23700008163200509043195653100000008500210127440   CRESCENT1 CUS0018590          B MOGALIA                     00000000000000000000                21                      
903L001L5063200504094544892D23700008225065555290017703100000008500210127440   CRESCENT1 CUS0020189          M MOOSA                       00000000000000000000                21                      
903L001L5063200504094544892D23700008305100100000620521100000008500210127440   CRESCENT1 CUS0022536          L ALEXANDER                   00000000000000000000                21                      
903L001L5063200504094544892D23700008405100100255262752100000008500210127440   CRESCENT1 CUS0025873          R PARUK                       00000000000000000000                21                      
903L001L5063200504094544892D23700008525065562016634041100000008500210127440   CRESCENT1 CUS0030530          F BHABHA                      00000000000000000000                21                      
903L001L5063200504094544892D23700008625065562204648648100000008500210127440   CRESCENT1 CUS0032956          R FRANC                       00000000000000000000                21                      
903L001L5063200504094544892D23700008763200509271833700100000008500210127440   CRESCENT1 CUS0036054          A EBRAHIM                     00000000000000000000                21                      
903L001L5063200504094544892D23700008825065562184347691100000016000210127440   CRESCENT1 CUS0039069          I PATEL                       00000000000000000000                21                      
903L001L5063200504094544892D23700008925065555290035185100000016000210127440   CRESCENT1 CUS0042172          A ABDULLAH                    00000000000000000000                21                      
903L001L5063200504094544892D23700009025065550051041652100000008500210127440   CRESCENT1 CUS0045215          I PECK                        00000000000000000000                21                      
903L001L5063200504094544892D23700009119876501001163060100000006900210127440   CRESCENT1 CUS0048345          A OMARSHAR                    00000000000000000000                21                      
903L001L5063200504094544892D23700009225065562331328147100000008500210127440   CRESCENT1 CUS0050921          R LATIFF                      00000000000000000000                21                      
903L001L5063200504094544892D23700009325065562014116059100000008500210127440   CRESCENT1 CUS0052843          A SHABODIEN                   00000000000000000000                21                      
903L001L5063200504094544892D23700009463200509123386287100000008500210127440   CRESCENT1 CUS0055493          S GOODHEART                   00000000000000000000                21                      
903L001L5063200504094544892D23700009525065556821114207100000008500210127440   CRESCENT1 CUS0057235          R BAARTMAN                    00000000000000000000                21                      
903L001L5063200504094544892D23700009647001001379580097200000006900210127440   CRESCENT1 CUS0059052          C ZIMBA                       00000000000000000000                21                      
903L001L5063200504094544892D23700009763200504045438931100000016000210127440   CRESCENT1 CUS0018602          F EBRAHIM                     00000000000000000000                21                      
903L001L5063200504094544892D23700009863200509099528882100000016000210127440   CRESCENT1 CUS0020195          G FILLIS                      00000000000000000000                21                      
903L001L5063200504094544892D23700009963200509165338709100000008500210127440   CRESCENT1 CUS0022550          M BODIAT                      00000000000000000000                21                      
903L001L5063200504094544892D23700010063200538105761926100000008500210127440   CRESCENT1 CUS0025889          S BAGUS                       00000000000000000000                21                      
903L001L5063200504094544892D23700010119876501174949090100000008500210127440   CRESCENT1 CUS0030531          N MOOLLA                      00000000000000000000                21                      
903L001L5063200504094544892D23700010205100100420194010100000016000210127440   CRESCENT1 CUS0032964          A HAFFEJEE                    00000000000000000000                21                      
903L001L5063200504094544892D23700010363200509201862993100000008500210127440   CRESCENT1 CUS0036061          E MAHOMED                     00000000000000000000                21                      
903L001L5063200504094544892D23700010425065562383340339100000008500210127440   CRESCENT1 CUS0039073          A SEWDUTH                     00000000000000000000                21                      
903L001L5063200504094544892D23700010505100100371842115100000008500210127440   CRESCENT1 CUS0042173          M NICHOLSON                   00000000000000000000                21                      
903L001L5063200504094544892D23700010625065560500101758100000008500210127440   CRESCENT1 CUS0045216          A MOOLLA                      00000000000000000000                21                      
903L001L5063200504094544892D23700010747001001395206153200000008500210127440   CRESCENT1 CUS0048367          S BENJAMIN                    00000000000000000000                21                      
903L001L5063200504094544892D23700010847001001303584733200000008500210127440   CRESCENT1 CUS0050922          F ARENDSE                     00000000000000000000                21                      
903L001L5063200504094544892D23700010905100100270309225100000007500210127440   CRESCENT1 CUS0052847          M DAVIDS                      00000000000000000000                21                      
903L001L5063200504094544892D23700011025065562467557917100000008500210127440   CRESCENT1 CUS0055498          S LOONAT                      00000000000000000000                21                      
903L001L5063200504094544892D23700011163200506200816900100000007500210127440   CRESCENT1 CUS0057236          F JONES JAFFER                00000000000000000000                21                      
903L001L5063200504094544892D23700011263200509293862858100000008500210127440   CRESCENT1 CUS0059058          F MAJIET                      00000000000000000000                21                      
903L001L5063200504094544892D23700011357010553012567356100000008500210127440   CRESCENT1 CUS0018616          S CASSIM                      00000000000000000000                21                      
903L001L5063200504094544892D23700011425065560126437107100000008500210127440   CRESCENT1 CUS0020207          B KARODIA                     00000000000000000000                21                      
903L001L5063200504094544892D23700011525065562161093043100000008500210127440   CRESCENT1 CUS0022551          A SHAIK                       00000000000000000000                21                      
903L001L5063200504094544892D23700011619876501908717432100000008500210127440   CRESCENT1 CUS0025890          F WALLY                       00000000000000000000                21                      
903L001L5063200504094544892D23700011763200504088949024100000008500210127440   CRESCENT1 CUS0030532          R HOSAIN                      00000000000000000000                21                      
903L001L5063200504094544892D23700011825065562058949375100000008500210127440   CRESCENT1 CUS0032973          E VALLI                       00000000000000000000                21                      
903L001L5063200504094544892D23700011919876501187624225100000016000210127440   CRESCENT1 CUS0036075          A CARRIM                      00000000000000000000                21                      
903L001L5063200504094544892D23700012005100100200045091100000008500210127440   CRESCENT1 CUS0039091          M VACHIAT                     00000000000000000000                21                      
903L001L5063200504094544892D23700012105100100072553618100000008500210127440   CRESCENT1 CUS0042176          F AKRAM                       00000000000000000000                21                      
903L001L5063200504094544892D23700012263200538045560811100000008500210127440   CRESCENT1 CUS0045232          M MPITI                       00000000000000000000                21                      
903L001L5063200504094544892D23700012347001001216470853200000008500210127440   CRESCENT1 CUS0048388          B VOLKER                      00000000000000000000                21                      
903L001L5063200504094544892D23700012425065562366714535100000008500210127440   CRESCENT1 CUS0050931          M EBRAHIM                     00000000000000000000                21                      
903L001L5063200504094544892D23700012519876501216111960100000008500210127440   CRESCENT1 CUS0052862          F SWARTZ                      00000000000000000000                21                      
903L001L5063200504094544892D23700012625065562558531391100000008500210127440   CRESCENT1 CUS0055510          N HENDRICKS                   00000000000000000000                21                      
903L001L5063200504094544892D23700012725065562792385877100000008500210127440   CRESCENT1 CUS0057237          M KHAN                        00000000000000000000                21                      
903L001L5063200504094544892D23700012847001001364928718200000008500210127440   CRESCENT1 CUS0059065          A LEONARD                     00000000000000000000                21                      
903L001L5063200504094544892D23700012905100100002519550100000016000210127440   CRESCENT1 CUS0018622          F JACOBS                      00000000000000000000                21                      
903L001L5063200504094544892D23700013005100100021217122100000016000210127440   CRESCENT1 CUS0020213          R MALLY                       00000000000000000000                21                      
903L001L5063200504094544892D23700013125065562051291096100000008500210127440   CRESCENT1 CUS0022554          K HOOSEN                      00000000000000000000                21                      
903L001L5063200504094544892D23700013205100100071145095100000008500210127440   CRESCENT1 CUS0025929          N ISAACS                      00000000000000000000                21                      
903L001L5063200504094544892D23700013305100100331318075100000008500210127440   CRESCENT1 CUS0030536          C EBRAHIM                     00000000000000000000                21                      
903L001L5063200504094544892D23700013405100100252805488100000008500210127440   CRESCENT1 CUS0033008          Z MOHAMED NABEE               00000000000000000000                21                      
903L001L5063200504094544892D23700013505100100252653815100000016000210127440   CRESCENT1 CUS0036079          F TAGAREE                     00000000000000000000                21                      
903L001L5063200504094544892D23700013605100100202573796100000008500210127440   CRESCENT1 CUS0039092          R WAJA                        00000000000000000000                21                      
903L001L5063200504094544892D23700013725065562152508225100000016000210127440   CRESCENT1 CUS0042182          G HOFFMAN                     00000000000000000000                21                      
903L001L5063200504094544892D23700013825065562231515000100000008500210127440   CRESCENT1 CUS0045245          F ZACHU                       00000000000000000000                21                      
903L001L5063200504094544892D23700013905100100402106768100000008500210127440   CRESCENT1 CUS0048393          N KARA                        00000000000000000000                21                      
903L001L5063200504094544892D23700014063200504086490243100000008500210127440   CRESCENT1 CUS0050946          M HASSIM                      00000000000000000000                21                      
903L001L5063200504094544892D23700014105100110059942280100000008500210127440   CRESCENT1 CUS0052879          I ISAACS                      00000000000000000000                21                      
903L001L5063200504094544892D23700014205100100073320803100000008500210127440   CRESCENT1 CUS0055543          S TAPE                        00000000000000000000                21                      
903L001L5063200504094544892D23700014347001001518453099200000008500210127440   CRESCENT1 CUS0057243          M TALIEP                      00000000000000000000                21                      
903L001L5063200504094544892D23700014425065562000763418100000006900210127440   CRESCENT1 CUS0059066          M JAKOET                      00000000000000000000                21                      
903L001L5063200504094544892D23700014519876501301210900100000016000210127440   CRESCENT1 CUS0018626          F GOOLAM HOOSEN               00000000000000000000                21                      
903L001L5063200504094544892D23700014625065562185559774100000008500210127440   CRESCENT1 CUS0020214          S DE VILLIERS                 00000000000000000000                21                      
903L001L5063200504094544892D23700014763200509262993478100000007500210127440   CRESCENT1 CUS0022570          Y MAHOMMED                    00000000000000000000                21                      
903L001L5063200504094544892D23700014819876501956343768100000008500210127440   CRESCENT1 CUS0025936          N CORNELIUS                   00000000000000000000                21                      
903L001L5063200504094544892D23700014947001001243021053200000008500210127440   CRESCENT1 CUS0030540          D WALLJEE                     00000000000000000000                21                      
903L001L5063200504094544892D23700015005100100202580172100000008500210127440   CRESCENT1 CUS0033012          Z DOCRAT                      00000000000000000000                21                      
903L001L5063200504094544892D23700015105100100272454524100000008500210127440   CRESCENT1 CUS0036081          A BALLIM                      00000000000000000000                21                      
903L001L5063200504094544892D23700015263200509044522920100000008500210127440   CRESCENT1 CUS0039095          M NASSIEP                     00000000000000000000                21                      
903L001L5063200504094544892D23700015305100100009281371100000008500210127440   CRESCENT1 CUS0042188          F MOOLLA                      00000000000000000000                21                      
903L001L5063200504094544892D23700015405100100420280421100000008500210127440   CRESCENT1 CUS0045249          S LAWRENCE                    00000000000000000000                21                      
903L001L5063200504094544892D23700015525065562128064649100000008500210127440   CRESCENT1 CUS0048409          F CONRAD                      00000000000000000000                21                      
903L001L5063200504094544892D23700015647001001345395114200000008500210127440   CRESCENT1 CUS0050955          S CASSIM                      00000000000000000000                21                      
903L001L5063200504094544892D23700015725065562450994994100000008500210127440   CRESCENT1 CUS0052884          N EMERAAN                     00000000000000000000                21                      
903L001L5063200504094544892D23700015847001001543106305200000008500210127440   CRESCENT1 CUS0055545          K SMITH                       00000000000000000000                21                      
903L001L5063200504094544892D23700015919876501156310733100000008500210127440   CRESCENT1 CUS0057246          R YAGHYA                      00000000000000000000                21                      
903L001L5063200504094544892D23700016047001001487786261200000008500210127440   CRESCENT1 CUS0059127          U GEORGE                      00000000000000000000                21                      
903L001L5063200504094544892D23700016125065562335326428100000008500210127440   CRESCENT1 CUS0018631          A ISMAIL ABOOBAKER VARIND     00000000000000000000                21                      
903L001L5063200504094544892D23700016225065562095803063100000008500210127440   CRESCENT1 CUS0020216          F BHABHA                      00000000000000000000                21                      
903L001L5063200504094544892D23700016319876501713349337100000007500210127440   CRESCENT1 CUS0022572          S KARRIM                      00000000000000000000                21                      
903L001L5063200504094544892D23700016419876502729575731200000007500210127440   CRESCENT1 CUS0025946          Y PADIA                       00000000000000000000                21                      
903L001L5063200504094544892D23700016563200504056440422100000008500210127440   CRESCENT1 CUS0030551          H KARREEM                     00000000000000000000                21                      
903L001L5063200504094544892D23700016625065562250489707100000008500210127440   CRESCENT1 CUS0033021          N AHMED                       00000000000000000000                21                      
903L001L5063200504094544892D23700016725065562388967162100000008500210127440   CRESCENT1 CUS0036082          Z RASDIEN                     00000000000000000000                21                      
903L001L5063200504094544892D23700016863200504085070303100000007500210127440   CRESCENT1 CUS0039119          M PRICE                       00000000000000000000                21                      
903L001L5063200504094544892D23700016905100100071870520100000016000210127440   CRESCENT1 CUS0042209          T AJOUHAAR                    00000000000000000000                21                      
903L001L5063200504094544892D23700017025065562444985678100000008500210127440   CRESCENT1 CUS0045252          Y AMIEN                       00000000000000000000                21                      
903L001L5063200504094544892D23700017105100100270738789100000008500210127440   CRESCENT1 CUS0048427          S MABIE                       00000000000000000000                21                      
903L001L5063200504094544892D23700017205100100050846906100000023500210127440   CRESCENT1 CUS0050956          E AZIZ                        00000000000000000000                21                      
903L001L5063200504094544892D23700017325065562317699926100000008500210127440   CRESCENT1 CUS0052885          F ABRAHAMS                    00000000000000000000                21                      
903L001L5063200504094544892D23700017425065562085957656100000008500210127440   CRESCENT1 CUS0055546          M ADAMS                       00000000000000000000                21                      
903L001L5063200504094544892D23700017563200504089854945100000008500210127440   CRESCENT1 CUS0057248          M JAMIE                       00000000000000000000                21                      
903L001L5063200504094544892D23700017647001001288637207200000016000210127440   CRESCENT1 CUS0059139          M KIPPIE                      00000000000000000000                21                      
903L001L5063200504094544892D23700017725065562514303081100000008500210127440   CRESCENT1 CUS0018646          F SHAIK                       00000000000000000000                21                      
903L001L5063200504094544892D23700017825065562305792914100000016000210127440   CRESCENT1 CUS0020219          M MOOSA                       00000000000000000000                21                      
903L001L5063200504094544892D23700017919876502953534334200000008500210127440   CRESCENT1 CUS0022575          T EBRAHIM                     00000000000000000000                21                      
903L001L5063200504094544892D23700018005100100204234859100000007500210127440   CRESCENT1 CUS0025964          A COOVADIA                    00000000000000000000                21                      
903L001L5063200504094544892D23700018105100100080460720100000016000210127440   CRESCENT1 CUS0030554          E VAN VUGHT                   00000000000000000000                21                      
903L001L5063200504094544892D23700018225065550310487711100000008500210127440   CRESCENT1 CUS0033045          E DELAIR                      00000000000000000000                21                      
903L001L5063200504094544892D23700018325065562264814867100000016000210127440   CRESCENT1 CUS0036137          M LAHER                       00000000000000000000                21                      
903L001L5063200504094544892D23700018425065562344743423100000008500210127440   CRESCENT1 CUS0039138          M MOHAMED                     00000000000000000000                21                      
903L001L5063200504094544892D23700018505100100032644078100000016000210127440   CRESCENT1 CUS0042239          A EBRAHIM                     00000000000000000000                21                      
903L001L5063200504094544892D23700018625065562455066847100000008500210127440   CRESCENT1 CUS0045254          S DUNN                        00000000000000000000                21                      
903L001L5063200504094544892D23700018725065562069865362100000008500210127440   CRESCENT1 CUS0048430          K ALEXANDER                   00000000000000000000                21                      
903L001L5063200504094544892D23700018825065562293589811100000008500210127440   CRESCENT1 CUS0050964          M HAYWOOD                     00000000000000000000                21                      
903L001L5063200504094544892D23700018963200538090540707100000007500210127440   CRESCENT1 CUS0052893          M KAJEE                       00000000000000000000                21                      
903L001L5063200504094544892D23700019025065562460143193100000008500210127440   CRESCENT1 CUS0055549          B ISMAIL                      00000000000000000000                21                      
903L001L5063200504094544892D23700019147001001604851692200000008500210127440   CRESCENT1 CUS0057255          F KHAN                        00000000000000000000                21                      
903L001L5063200504094544892D23700019246200504822862301100000008500210127440   CRESCENT1 CUS0059164          A BRINK                       00000000000000000000                21                      
903L001L5063200504094544892D23700019325065562230283632100000008500210127440   CRESCENT1 CUS0018658          N GAFOOR                      00000000000000000000                21                      
903L001L5063200504094544892D23700019405100100054441609100000016000210127440   CRESCENT1 CUS0020222          M MOOLA                       00000000000000000000                21                      
903L001L5063200504094544892D23700019525065560529115029100000008500210127440   CRESCENT1 CUS0022578          N NOORDIN                     00000000000000000000                21                      
903L001L5063200504094544892D23700019619876501940114195100000007500210127440   CRESCENT1 CUS0025979          F NAKWA                       00000000000000000000                21                      
903L001L5063200504094544892D23700019725065562292525618100000008500210127440   CRESCENT1 CUS0030562          O AHMED BAKER                 00000000000000000000                21                      
903L001L5063200504094544892D23700019819876502975047649200000008500210127440   CRESCENT1 CUS0033048          Z MAHOMED                     00000000000000000000                21                      
903L001L5063200504094544892D23700019905100100270941479100000016000210127440   CRESCENT1 CUS0036147          N JANUARY                     00000000000000000000                21                      
903L001L5063200504094544892D23700020047001001179538038200000008500210127440   CRESCENT1 CUS0039155          H STUURMAN                    00000000000000000000                21                      
903L001L5063200504094544892D23700020147001001319103578200000007500210127440   CRESCENT1 CUS0042259          A MADAREE                     00000000000000000000                21                      
903L001L5063200504094544892D23700020225065562101538794100000008500210127440   CRESCENT1 CUS0045255          M DUNN                        00000000000000000000                21                      
903L001L5063200504094544892D23700020363200504081701764100000008500210127440   CRESCENT1 CUS0048453          A ABRAHAMS                    00000000000000000000                21                      
903L001L5063200504094544892D23700020419876501010791729100000008500210127440   CRESCENT1 CUS0050984          M KADER                       00000000000000000000                21                      
903L001L5063200504094544892D23700020505100100273993348100000008500210127440   CRESCENT1 CUS0052902          Z RAINERS                     00000000000000000000                21                      
903L001L5063200504094544892D23700020647001001119144327200000008500210127440   CRESCENT1 CUS0055563          R GABIER                      00000000000000000000                21                      
903L001L5063200504094544892D23700020747001001438633813200000008500210127440   CRESCENT1 CUS0057258          R MARLIE                      00000000000000000000                21                      
903L001L5063200504094544892D23700020847001001655359523200000008500210127440   CRESCENT1 CUS0059168          W STEEDE                      00000000000000000000                21                      
903L001L5063200504094544892D23700020925065562178741958100000008500210127440   CRESCENT1 CUS0018686          Z CASSIM                      00000000000000000000                21                      
903L001L5063200504094544892D23700021025065562033673361100000016000210127440   CRESCENT1 CUS0020227          F SAYED                       00000000000000000000                21                      
903L001L5063200504094544892D23700021125065550849019548100000008500210127440   CRESCENT1 CUS0022586          Y KHUN DESAI                  00000000000000000000                21                      
903L001L5063200504094544892D23700021225065562211003926100000008500210127440   CRESCENT1 CUS0025995          Z TAJBHAI                     00000000000000000000                21                      
903L001L5063200504094544892D23700021319876501012079104100000008500210127440   CRESCENT1 CUS0030575          S MUHAMMAD-SALIM              00000000000000000000                21                      
903L001L5063200504094544892D23700021425065562049732804100000007500210127440   CRESCENT1 CUS0033131          T KARRIM                      00000000000000000000                21                      
903L001L5063200504094544892D23700021547001001347016498200000008500210127440   CRESCENT1 CUS0036160          F JAGOT                       00000000000000000000                21                      
903L001L5063200504094544892D23700021605100100020365646100000008500210127440   CRESCENT1 CUS0039156          S MATTHEWS                    00000000000000000000                21                      
903L001L5063200504094544892D23700021763200509068108980100000008500210127440   CRESCENT1 CUS0042277          G AMARDIEN                    00000000000000000000                21                      
903L001L5063200504094544892D23700021819876501980246025100000008500210127440   CRESCENT1 CUS0045260          F NANABHAI                    00000000000000000000                21                      
903L001L5063200504094544892D23700021947001001509285995200000016000210127440   CRESCENT1 CUS0048454          A DARRIES                     00000000000000000000                21                      
903L001L5063200504094544892D23700022005100100071963677100000008500210127440   CRESCENT1 CUS0050990          Y LAATTOE                     00000000000000000000                21                      
903L001L5063200504094544892D23700022147001001234812515200000008500210127440   CRESCENT1 CUS0052906          G ABRAHAMS                    00000000000000000000                21                      
903L001L5063200504094544892D23700022205100110080930393100000016000210127440   CRESCENT1 CUS0055568          D ADAMS                       00000000000000000000                21                      
903L001L5063200504094544892D23700022347001001586815510200000008500210127440   CRESCENT1 CUS0057264          S LEPERE GABIER               00000000000000000000                21                      
903L001L5063200504094544892D23700022425065562145130473100000008500210127440   CRESCENT1 CUS0059169          S MIA                         00000000000000000000                21                      
903L001L5063200504094544892D23700022525065562019427203100000008500210127440   CRESCENT1 CUS0018687          J ASMAL                       00000000000000000000                21                      
903L001L5063200504094544892D23700022619876501202023185100000008500210127440   CRESCENT1 CUS0020235          A HAKIM                       00000000000000000000                21                      
903L001L5063200504094544892D23700022719876502903483817200000008500210127440   CRESCENT1 CUS0022588          R MOOSA                       00000000000000000000                21                      
903L001L5063200504094544892D23700022805100100410559903100000008500210127440   CRESCENT1 CUS0026006          Z HUSSAIN                     00000000000000000000                21                      
903L001L5063200504094544892D23700022905100100081398077100000008500210127440   CRESCENT1 CUS0030582          W BHIKOO-RAWOOT               00000000000000000000                21                      
903L001L5063200504094544892D23700023063200504083774935100000008500210127440   CRESCENT1 CUS0033157          M SHABANGU                    00000000000000000000                21                      
903L001L5063200504094544892D23700023163200509042799535100000016000210127440   CRESCENT1 CUS0036167          F NAIDOO                      00000000000000000000                21                      
903L001L5063200504094544892D23700023263200509115589819100000016000210127440   CRESCENT1 CUS0039160          Z JOGEE                       00000000000000000000                21                      
903L001L5063200504094544892D23700023325065553891056914100000016000210127440   CRESCENT1 CUS0042285          M LORGAT                      00000000000000000000                21                      
903L001L5063200504094544892D23700023425065562752369697100000008500210127440   CRESCENT1 CUS0045261          Z MOOSA                       00000000000000000000                21                      
903L001L5063200504094544892D23700023525065562097338282100000008500210127440   CRESCENT1 CUS0048456          M KHOTA                       00000000000000000000                21                      
903L001L5063200504094544892D23700023625065562306736177100000016000210127440   CRESCENT1 CUS0050996          N AHMED                       00000000000000000000                21                      
903L001L5063200504094544892D23700023725065562635582176100000008500210127440   CRESCENT1 CUS0052911          M ROSENBURG                   00000000000000000000                21                      
903L001L5063200504094544892D23700023825065562097680956100000008500210127440   CRESCENT1 CUS0055574          R HOOSEN                      00000000000000000000                21                      
903L001L5063200504094544892D23700023958010510012309964100000008500210127440   CRESCENT1 CUS0057270          A EBRAHIM                     00000000000000000000                21                      
903L001L5063200504094544892D23700024025065562779277659100000008500210127440   CRESCENT1 CUS0059170          L CHARLES                     00000000000000000000                21                      
903L001L5063200504094544892D23700024125065562650386917100000008500210127440   CRESCENT1 CUS0018694          F HOOSEN                      00000000000000000000                21                      
903L001L5063200504094544892D23700024219876502504059965200000008500210127440   CRESCENT1 CUS0020240          F ABDUL                       00000000000000000000                21                      
903L001L5063200504094544892D23700024358010510011502531100000008500210127440   CRESCENT1 CUS0022593          S HOOSEN                      00000000000000000000                21                      
903L001L5063200504094544892D23700024405100100001378401100000008500210127440   CRESCENT1 CUS0026014          S BARTHIS                     00000000000000000000                21                      
903L001L5063200504094544892D23700024525065562412830243100000008500210127440   CRESCENT1 CUS0030588          Y M. PILODIA                  00000000000000000000                21                      
903L001L5063200504094544892D23700024605100100012105007100000008500210127440   CRESCENT1 CUS0033160          F ABRAHAMS                    00000000000000000000                21                      
903L001L5063200504094544892D23700024725065562288631156100000016000210127440   CRESCENT1 CUS0036168          F ELLEMDIN                    00000000000000000000                21                      
903L001L5063200504094544892D23700024805100100055307868100000008500210127440   CRESCENT1 CUS0039178          S VAWDA                       00000000000000000000                21                      
903L001L5063200504094544892D23700024947001001313272157200000016000210127440   CRESCENT1 CUS0042298          S DAVIDS                      00000000000000000000                21                      
903L001L5063200504094544892D23700025063200509085009987100000008500210127440   CRESCENT1 CUS0045275          A CARRIM                      00000000000000000000                21                      
903L001L5063200504094544892D23700025147001001444944795200000008500210127440   CRESCENT1 CUS0048461          Z KENNY                       00000000000000000000                21                      
903L001L5063200504094544892D23700025225065562559314770100000008500210127440   CRESCENT1 CUS0051003          Q DAWOOD                      00000000000000000000                21                      
903L001L5063200504094544892D23700025305100100073460095100000008500210127440   CRESCENT1 CUS0052912          S BECKETT                     00000000000000000000                21                      
903L001L5063200504094544892D23700025447001001282707092200000008500210127440   CRESCENT1 CUS0055591          Y KHAN                        00000000000000000000                21                      
903L001L5063200504094544892D23700025563200504090558528100000008500210127440   CRESCENT1 CUS0057271          S CHARLES                     00000000000000000000                21                      
903L001L5063200504094544892D23700025605100100071209484100000008500210127440   CRESCENT1 CUS0059171          R ADAMS                       00000000000000000000                21                      
903L001L5063200504094544892D23700025719876502953521275200000008500210127440   CRESCENT1 CUS0018718          H ALLY                        00000000000000000000                21                      
903L001L5063200504094544892D23700025825065550260124314100000008500210127440   CRESCENT1 CUS0020241          M ABRAHAMS                    00000000000000000000                21                      
903L001L5063200504094544892D23700025919876501956017542100000008500210127440   CRESCENT1 CUS0022594          N SMALL                       00000000000000000000                21                      
903L001L5063200504094544892D23700026063200509042013735100000031000210127440   CRESCENT1 CUS0026023          A KHUMALO                     00000000000000000000                21                      
903L001L5063200504094544892D23700026125065562107891089100000008500210127440   CRESCENT1 CUS0030590          N RAWAT                       00000000000000000000                21                      
903L001L5063200504094544892D23700026258010510011394117100000008500210127440   CRESCENT1 CUS0033161          W TAYOB                       00000000000000000000                21                      
903L001L5063200504094544892D23700026358010510011409148100000008500210127440   CRESCENT1 CUS0036169          M BUCKAS                      00000000000000000000                21                      
903L001L5063200504094544892D23700026405100100270706267100000016000210127440   CRESCENT1 CUS0039180          N HENDRICKS                   00000000000000000000                21                      
903L001L5063200504094544892D23700026563200509045981531100000008500210127440   CRESCENT1 CUS0042312          F BADRUDDIN                   00000000000000000000                21                      
903L001L5063200504094544892D23700026625065562223206500100000008500210127440   CRESCENT1 CUS0045310          A SABJEE                      00000000000000000000                21                      
903L001L5063200504094544892D23700026705100100073329738100000016000210127440   CRESCENT1 CUS0048478          A SAHEB                       00000000000000000000                21                      
903L001L5063200504094544892D23700026847001001337293758200000008500210127440   CRESCENT1 CUS0051004          S ABRAHAMS                    00000000000000000000                21                      
903L001L5063200504094544892D23700026905100100070262829100000015000210127440   CRESCENT1 CUS0052921          A SAFODIEN                    00000000000000000000                21                      
903L001L5063200504094544892D23700027047001001173277879200000008500210127440   CRESCENT1 CUS0055603          F SELLAR                      00000000000000000000                21                      
903L001L5063200504094544892D23700027147001001614363380200000008500210127440   CRESCENT1 CUS0057287          A DOUBELL                     00000000000000000000                21                      
903L001L5063200504094544892D23700027247001001473415851200000008500210127440   CRESCENT1 CUS0059173          F KAMALDIEN                   00000000000000000000                21                      
903L001L5063200504094544892D23700027305100100200882139100000008500210127440   CRESCENT1 CUS0018724          R VARIAWA                     00000000000000000000                21                      
903L001L5063200504094544892D23700027425065562499129403100000008500210127440   CRESCENT1 CUS0020276          M LUTTA                       00000000000000000000                21                      
903L001L5063200504094544892D23700027547001001595022234200000008500210127440   CRESCENT1 CUS0022605          A KADER                       00000000000000000000                21                      
903L001L5063200504094544892D23700027663200504058912037100000016000210127440   CRESCENT1 CUS0026034          M HASSEN                      00000000000000000000                21                      
903L001L5063200504094544892D23700027705100100052601277100000008500210127440   CRESCENT1 CUS0030591          A KHAN                        00000000000000000000                21                      
903L001L5063200504094544892D23700027819876501008452122100000016000210127440   CRESCENT1 CUS0033182          J BAIG                        00000000000000000000                21                      
903L001L5063200504094544892D23700027958010510011391483100000008500210127440   CRESCENT1 CUS0036178          M MOOSA                       00000000000000000000                21                      
903L001L5063200504094544892D23700028063200504080075609100000008500210127440   CRESCENT1 CUS0039216          A ARNOLDS                     00000000000000000000                21                      
903L001L5063200504094544892D23700028105100100276545060100000031000210127440   CRESCENT1 CUS0042313          M ABRAHAMS                    00000000000000000000                21                      
903L001L5063200504094544892D23700028219876502953492518200000016000210127440   CRESCENT1 CUS0045315          A VAN DAWSON                  00000000000000000000                21                      
903L001L5063200504094544892D23700028347001001288388428200000008500210127440   CRESCENT1 CUS0048479          T RAMALHO                     00000000000000000000                21                      
903L001L5063200504094544892D23700028425065562487622328100000007500210127440   CRESCENT1 CUS0051032          F SEABORNE                    00000000000000000000                21                      
903L001L5063200504094544892D23700028547001001189673574200000008500210127440   CRESCENT1 CUS0052925          S MANUEL                      00000000000000000000                21                      
903L001L5063200504094544892D23700028619876501028761368100000008500210127440   CRESCENT1 CUS0055606          N SHAIED                      00000000000000000000                21                      
903L001L5063200504094544892D23700028719876501137168196100000008500210127440   CRESCENT1 CUS0057290          A JOSEPHUS                    00000000000000000000                21                      
903L001L5063200504094544892D23700028847001001519714147200000016000210127440   CRESCENT1 CUS0059174          M WAGGIE                      00000000000000000000                21                      
903L001L5063200504094544892D23700028925065562051066811100000008500210127440   CRESCENT1 CUS0018763          F KHAN                        00000000000000000000                21                      
903L001L5063200504094544892D23700029047001001146686380100000016000210127440   CRESCENT1 CUS0020279          S ORBARAY                     00000000000000000000                21                      
903L001L5063200504094544892D23700029125065562342274660100000008500210127440   CRESCENT1 CUS0022606          I VALLEE                      00000000000000000000                21                      
903L001L5063200504094544892D23700029205100100052304728100000008500210127440   CRESCENT1 CUS0026041          Y BADAT                       00000000000000000000                21                      
903L001L5063200504094544892D23700029305100100020646186100000008500210127440   CRESCENT1 CUS0030592          M SULTAN BEG                  00000000000000000000                21                      
903L001L5063200504094544892D23700029405100100250877910100000008500210127440   CRESCENT1 CUS0033197          N MAHOMED                     00000000000000000000                21                      
903L001L5063200504094544892D23700029525065562196281241100000008500210127440   CRESCENT1 CUS0036217          S CANTHITOO                   00000000000000000000                21                      
903L001L5063200504094544892D23700029663200509057643161100000008500210127440   CRESCENT1 CUS0039221          M DOCRAT                      00000000000000000000                21                      
903L001L5063200504094544892D23700029705100100250474875100000008500210127440   CRESCENT1 CUS0042369          F NOOR MAHOMED                00000000000000000000                21                      
903L001L5063200504094544892D23700029819876501039644740100000008500210127440   CRESCENT1 CUS0045323          P MBULI                       00000000000000000000                21                      
903L001L5063200504094544892D23700029925065562387024088100000008500210127440   CRESCENT1 CUS0048480          Q SATARDIEN                   00000000000000000000                21                      
903L001L5063200504094544892D23700030005100100070480052100000016000210127440   CRESCENT1 CUS0051034          M BOUMAN                      00000000000000000000                21                      
903L001L5063200504094544892D23700030158010510012030666100000007500210127440   CRESCENT1 CUS0052936          G DEVRIES                     00000000000000000000                21                      
903L001L5063200504094544892D23700030225065562060497990100000008500210127440   CRESCENT1 CUS0055617          Z DAWOOD                      00000000000000000000                21                      
903L001L5063200504094544892D23700030305100100270824693100000008500210127440   CRESCENT1 CUS0057292          N VALLEY                      00000000000000000000                21                      
903L001L5063200504094544892D23700030405100110085591686100000017000210127440   CRESCENT1 CUS0059186          A JACOBS                      00000000000000000000                21                      
903L001L5063200504094544892D23700030505100100626869889100000008500210127440   CRESCENT1 CUS0018774          A PATEL                       00000000000000000000                21                      
903L001L5063200504094544892D23700030663200504063038351100000008500210127440   CRESCENT1 CUS0020281          J KHAN                        00000000000000000000                21                      
903L001L5063200504094544892D23700030725065562240505191100000008500210127440   CRESCENT1 CUS0022610          A VALLEE                      00000000000000000000                21                      
903L001L5063200504094544892D23700030819876501036990060100000008500210127440   CRESCENT1 CUS0026062          S VOLLENHOVEN                 00000000000000000000                21                      
903L001L5063200504094544892D23700030905100100250554062100000008500210127440   CRESCENT1 CUS0030595          Z KHAN                        00000000000000000000                21                      
903L001L5063200504094544892D23700031025065562319426905100000008500210127440   CRESCENT1 CUS0033198          L ISMAIL                      00000000000000000000                21                      
903L001L5063200504094544892D23700031119876501313098159100000008500210127440   CRESCENT1 CUS0036245          M NAZEER                      00000000000000000000                21                      
903L001L5063200504094544892D23700031205100100070098603100000008500210127440   CRESCENT1 CUS0039223          F ARIEFDIEN                   00000000000000000000                21                      
903L001L5063200504094544892D23700031325065562053576074100000008500210127440   CRESCENT1 CUS0042376          F KHAN                        00000000000000000000                21                      
903L001L5063200504094544892D23700031463200504082879465100000008500210127440   CRESCENT1 CUS0045337          N GAMIELDIEN                  00000000000000000000                21                      
903L001L5063200504094544892D23700031525065562798473593100000008500210127440   CRESCENT1 CUS0048481          N KADA                        00000000000000000000                21                      
903L001L5063200504094544892D23700031619876502970658151200000008500210127440   CRESCENT1 CUS0051035          F SMITH                       00000000000000000000                21                      
903L001L5063200504094544892D23700031719876502021318443200000008500210127440   CRESCENT1 CUS0052937          A JACOBS                      00000000000000000000                21                      
903L001L5063200504094544892D23700031847001001296867844200000008500210127440   CRESCENT1 CUS0055623          Z HASKINS                     00000000000000000000                21                      
903L001L5063200504094544892D23700031947001001515444528200000008500210127440   CRESCENT1 CUS0057300          A GALANT                      00000000000000000000                21                      
903L001L5063200504094544892D23700032063200509319747346100000008500210127440   CRESCENT1 CUS0059188          Z PATHER                      00000000000000000000                21                      
903L001L5063200504094544892D23700032105100100001701673100000008500210127440   CRESCENT1 CUS0018788          A ESSA                        00000000000000000000                21                      
903L001L5063200504094544892D23700032219876501184556148100000008500210127440   CRESCENT1 CUS0020283          M VARACHIA                    00000000000000000000                21                      
903L001L5063200504094544892D23700032325065562197080759100000008500210127440   CRESCENT1 CUS0022619          S CARRIM                      00000000000000000000                21                      
903L001L5063200504094544892D23700032425065560528389071100000008500210127440   CRESCENT1 CUS0026064          S MOHAMED                     00000000000000000000                21                      
903L001L5063200504094544892D23700032505100100063343789100000008500210127440   CRESCENT1 CUS0030604          T HOOSEN                      00000000000000000000                21                      
903L001L5063200504094544892D23700032605100100005322766100000008500210127440   CRESCENT1 CUS0033219          A ALI                         00000000000000000000                21                      
903L001L5063200504094544892D23700032725065562311258281100000008500210127440   CRESCENT1 CUS0036247          J ISACKALLY                   00000000000000000000                21                      
903L001L5063200504094544892D23700032805100100030299934100000008500210127440   CRESCENT1 CUS0039227          K KHAN                        00000000000000000000                21                      
903L001L5063200504094544892D23700032963200538048410101100000008500210127440   CRESCENT1 CUS0042387          F CASSIM                      00000000000000000000                21                      
903L001L5063200504094544892D23700033025065562017625713100000016000210127440   CRESCENT1 CUS0045339          M CHOTHIA                     00000000000000000000                21                      
903L001L5063200504094544892D23700033147001001293496322200000008500210127440   CRESCENT1 CUS0048507          T SALIE                       00000000000000000000                21                      
903L001L5063200504094544892D23700033205100110080310247100000008500210127440   CRESCENT1 CUS0051039          H MOHAMED                     00000000000000000000                21                      
903L001L5063200504094544892D23700033347001001386399777200000008500210127440   CRESCENT1 CUS0052944          Z THEBUS                      00000000000000000000                21                      
903L001L5063200504094544892D23700033405100110134265082100000008500210127440   CRESCENT1 CUS0055629          Z SCHOLTZ                     00000000000000000000                21                      
903L001L5063200504094544892D23700033547001001293486777200000016000210127440   CRESCENT1 CUS0057301          B STEER                       00000000000000000000                21                      
903L001L5063200504094544892D23700033647001001414296566200000016000210127440   CRESCENT1 CUS0059189          I BADARON                     00000000000000000000                21                      
903L001L5063200504094544892D23700033725065562014622717100000008500210127440   CRESCENT1 CUS0018790          N BAYAT AHMED                 00000000000000000000                21                      
903L001L5063200504094544892D23700033825065550080007310100000023500210127440   CRESCENT1 CUS0020284          A ABRAHAMS                    00000000000000000000                21                      
903L001L5063200504094544892D23700033963200500907978639100000007500210127440   CRESCENT1 CUS0022626          H RASSACK                     00000000000000000000                21                      
903L001L5063200504094544892D23700034005100100280912471100000023500210127440   CRESCENT1 CUS0026073          F MAMATT                      00000000000000000000                21                      
903L001L5063200504094544892D23700034147001001542316918200000016000210127440   CRESCENT1 CUS0030612          R VAHED                       00000000000000000000                21                      
903L001L5063200504094544892D23700034205100100270073434100000008500210127440   CRESCENT1 CUS0033220          R GARDER                      00000000000000000000                21                      
903L001L5063200504094544892D23700034319876501963313445100000008500210127440   CRESCENT1 CUS0036263          A MUSTAPHA                    00000000000000000000                21                      
903L001L5063200504094544892D23700034463200504049329245100000008500210127440   CRESCENT1 CUS0039252          E JAKOET                      00000000000000000000                21                      
903L001L5063200504094544892D23700034505100100052621731100000008500210127440   CRESCENT1 CUS0042391          M VAWDA                       00000000000000000000                21                      
903L001L5063200504094544892D23700034605100100071373268100000008500210127440   CRESCENT1 CUS0045351          S TOWFIE                      00000000000000000000                21                      
903L001L5063200504094544892D23700034725065562798651511100000008500210127440   CRESCENT1 CUS0048515          A TAYOB                       00000000000000000000                21                      
903L001L5063200504094544892D23700034825065562055050969100000006900210127440   CRESCENT1 CUS0051050          A TOEFY                       00000000000000000000                21                      
903L001L5063200504094544892D23700034947001001358594625200000008500210127440   CRESCENT1 CUS0052945          R SCALA                       00000000000000000000                21                      
903L001L5063200504094544892D23700035005100100272045055100000007500210127440   CRESCENT1 CUS0055631          N ABDURAHMAN                  00000000000000000000                21                      
903L001L5063200504094544892D23700035163200504086530653100000008500210127440   CRESCENT1 CUS0057321          I JARDINE                     00000000000000000000                21                      
903L001L5063200504094544892D23700035225065562727678528100000008500210127440   CRESCENT1 CUS0059196          M CLOETE                      00000000000000000000                21                      
903L001L5063200504094544892D23700035305100100000449016100000016000210127440   CRESCENT1 CUS0018795          M AYOB                        00000000000000000000                21                      
903L001L5063200504094544892D23700035405100100001721186100000008500210127440   CRESCENT1 CUS0020293          M MAHRI                       00000000000000000000                21                      
903L001L5063200504094544892D23700035505100100040090531100000008500210127440   CRESCENT1 CUS0022633          Z JARDINE                     00000000000000000000                21                      
903L001L5063200504094544892D23700035619876501036373665100000008500210127440   CRESCENT1 CUS0026087          M JAFFER                      00000000000000000000                21                      
903L001L5063200504094544892D23700035725065562105398095100000008500210127440   CRESCENT1 CUS0030627          M RAHIMAN                     00000000000000000000                21                      
903L001L5063200504094544892D23700035863200509219483870100000008500210127440   CRESCENT1 CUS0033224          H AHMED                       00000000000000000000                21                      
903L001L5063200504094544892D23700035905100100010108076100000008500210127440   CRESCENT1 CUS0036292          F ABDUL                       00000000000000000000                21                      
903L001L5063200504094544892D23700036005100100221205128100000007500210127440   CRESCENT1 CUS0039255          H JARDIEN                     00000000000000000000                21                      
903L001L5063200504094544892D23700036105100110040535590100000008500210127440   CRESCENT1 CUS0042397          M BADERDIEN                   00000000000000000000                21                      
903L001L5063200504094544892D23700036225065562351273562100000016000210127440   CRESCENT1 CUS0045366          N FATAAR                      00000000000000000000                21                      
903L001L5063200504094544892D23700036305100100008952507100000008500210127440   CRESCENT1 CUS0048521          M VANSTAVEL                   00000000000000000000                21                      
903L001L5063200504094544892D23700036425065562175746456100000016000210127440   CRESCENT1 CUS0051055          M MOHAMMED                    00000000000000000000                21                      
903L001L5063200504094544892D23700036519876501940104823100000008500210127440   CRESCENT1 CUS0052946          F SULIMAN                     00000000000000000000                21                      
903L001L5063200504094544892D23700036663200504082292784100000008500210127440   CRESCENT1 CUS0055637          I SOLORIE                     00000000000000000000                21                      
903L001L5063200504094544892D23700036725065562153889484100000008500210127440   CRESCENT1 CUS0057343          A OMARY                       00000000000000000000                21                      
903L001L5063200504094544892D23700036863200504080679249100000015400210127440   CRESCENT1 CUS0059197          H CASSIM HOOSAIN              00000000000000000000                21                      
903L001L5063200504094544892D23700036905100100009234071100000008500210127440   CRESCENT1 CUS0018800          A WADEE                       00000000000000000000                21                      
903L001L5063200504094544892D23700037025065562096724359100000008500210127440   CRESCENT1 CUS0020302          A MOOLLA                      00000000000000000000                21                      
903L001L5063200504094544892D23700037125065562005269346100000008500210127440   CRESCENT1 CUS0022642          I ESSACK                      00000000000000000000                21                      
903L001L5063200504094544892D23700037219876501825048916100000016000210127440   CRESCENT1 CUS0026141          R MEADOWS                     00000000000000000000                21                      
903L001L5063200504094544892D23700037325065562763153823100000023500210127440   CRESCENT1 CUS0030663          C DAWJEE                      00000000000000000000                21                      
903L001L5063200504094544892D23700037419876501037422252100000008500210127440   CRESCENT1 CUS0033245          T TAVARES                     00000000000000000000                21                      
903L001L5063200504094544892D23700037505100100033289255100000008500210127440   CRESCENT1 CUS0036294          A HAJEE                       00000000000000000000                21                      
903L001L5063200504094544892D23700037619876501381387683100000008500210127440   CRESCENT1 CUS0039266          S HOOSSAIN                    00000000000000000000                21                      
903L001L5063200504094544892D23700037705100100200379801100000008500210127440   CRESCENT1 CUS0042418          F LOONAT                      00000000000000000000                21                      
903L001L5063200504094544892D23700037857010511901250671200000008500210127440   CRESCENT1 CUS0045367          Z AKHALWAYA                   00000000000000000000                21                      
903L001L5063200504094544892D23700037963200509204971911100000016000210127440   CRESCENT1 CUS0048523          A NANABAY                     00000000000000000000                21                      
903L001L5063200504094544892D23700038047001001394550713200000016000210127440   CRESCENT1 CUS0051066          A KAMALDIEN                   00000000000000000000                21                      
903L001L5063200504094544892D23700038147001001594378566100000008500210127440   CRESCENT1 CUS0052953          F BARADIEN                    00000000000000000000                21                      
903L001L5063200504094544892D23700038225065562011559690100000008500210127440   CRESCENT1 CUS0055639          A JAFLER                      00000000000000000000                21                      
903L001L5063200504094544892D23700038305100110104350553100000008500210127440   CRESCENT1 CUS0057346          F PATEL                       00000000000000000000                21                      
903L001L5063200504094544892D23700038447001001718280740200000008500210127440   CRESCENT1 CUS0059206          N SYDOW                       00000000000000000000                21                      
903L001L5063200504094544892D23700038505100100009234071100000007500210127440   CRESCENT1 CUS0018801          A JOGIAT                      00000000000000000000                21                      
903L001L5063200504094544892D23700038625065555131171551100000008500210127440   CRESCENT1 CUS0020307          F KASSIM                      00000000000000000000                21                      
903L001L5063200504094544892D23700038763200504051405776100000008500210127440   CRESCENT1 CUS0022660          H CASSIM                      00000000000000000000                21                      
903L001L5063200504094544892D23700038825065562339240814100000023500210127440   CRESCENT1 CUS0026157          F ADAMS                       00000000000000000000                21                      
903L001L5063200504094544892D23700038963200504073757785100000008500210127440   CRESCENT1 CUS0030668          G RAILOUN                     00000000000000000000                21                      
903L001L5063200504094544892D23700039025065562057284467100000008500210127440   CRESCENT1 CUS0033246          S HENDRICKS                   00000000000000000000                21                      
903L001L5063200504094544892D23700039125065562090679641100000023500210127440   CRESCENT1 CUS0036296          K MBALA                       00000000000000000000                21                      
903L001L5063200504094544892D23700039205100100055269214100000008500210127440   CRESCENT1 CUS0039277          M  YACOOB                     00000000000000000000                21                      
903L001L5063200504094544892D23700039363200509250502930100000008500210127440   CRESCENT1 CUS0042420          A NIRANEZA                    00000000000000000000                21                      
903L001L5063200504094544892D23700039425065562022869187100000008500210127440   CRESCENT1 CUS0045382          S PATEL                       00000000000000000000                21                      
903L001L5063200504094544892D23700039525065562185228725100000008500210127440   CRESCENT1 CUS0048540          M SMIT                        00000000000000000000                21                      
903L001L5063200504094544892D23700039619876501102781096100000008500210127440   CRESCENT1 CUS0051072          A BENJAMIN                    00000000000000000000                21                      
903L001L5063200504094544892D23700039705100110034605787100000008500210127440   CRESCENT1 CUS0052966          N OSMAN                       00000000000000000000                21                      
903L001L5063200504094544892D23700039847001001216933829200000016000210127440   CRESCENT1 CUS0055643          A HARTZENBERG NETT            00000000000000000000                21                      
903L001L5063200504094544892D23700039925065562309842202100000008500210127440   CRESCENT1 CUS0057352          A OMAR                        00000000000000000000                21                      
903L001L5063200504094544892D23700040063200509291718350100000008500210127440   CRESCENT1 CUS0059213          T DOOKHY                      00000000000000000000                21                      
903L001L5063200504094544892D23700040163200504061069883100000008500210127440   CRESCENT1 CUS0018803          E MULLAJIE                    00000000000000000000                21                      
903L001L5063200504094544892D23700040205100100251685624100000008500210127440   CRESCENT1 CUS0020313          M MOTA                        00000000000000000000                21                      
903L001L5063200504094544892D23700040325065562232722125100000008500210127440   CRESCENT1 CUS0022662          S CHOONARA                    00000000000000000000                21                      
903L001L5063200504094544892D23700040405100100070777519100000008500210127440   CRESCENT1 CUS0026187          S ALEXANDER                   00000000000000000000                21                      
903L001L5063200504094544892D23700040525065560042313803100000008500210127440   CRESCENT1 CUS0030673          M ANVER                       00000000000000000000                21                      
903L001L5063200504094544892D23700040647001001378293868200000022900210127440   CRESCENT1 CUS0033252          G SAFFODIEN                   00000000000000000000                21                      
903L001L5063200504094544892D23700040725065562360894979100000016000210127440   CRESCENT1 CUS0036297          A BHAYLA                      00000000000000000000                21                      
903L001L5063200504094544892D23700040825065562450265189100000016000210127440   CRESCENT1 CUS0039281          F GAFFOOR                     00000000000000000000                21                      
903L001L5063200504094544892D23700040925065553890046180100000008500210127440   CRESCENT1 CUS0042425          M SHAIK ALLY                  00000000000000000000                21                      
903L001L5063200504094544892D23700041063200509222614503100000016000210127440   CRESCENT1 CUS0045384          M HASSIM                      00000000000000000000                21                      
903L001L5063200504094544892D23700041147001001312992199200000008500210127440   CRESCENT1 CUS0048545          S MAJIER                      00000000000000000000                21                      
903L001L5063200504094544892D23700041205100100302665269100000008500210127440   CRESCENT1 CUS0051078          R ABRAHAMS                    00000000000000000000                21                      
903L001L5063200504094544892D23700041347001001600223190200000008500210127440   CRESCENT1 CUS0052974          Z MOOSA                       00000000000000000000                21                      
903L001L5063200504094544892D23700041425065559206750076100000007500210127440   CRESCENT1 CUS0055644          N TASRIET                     00000000000000000000                21                      
903L001L5063200504094544892D23700041505100100032334966100000008500210127440   CRESCENT1 CUS0057360          G BAILEY                      00000000000000000000                21                      
903L001L5063200504094544892D23700041605100100438239334100000008500210127440   CRESCENT1 CUS0059215          M UMR                         00000000000000000000                21                      
903L001L5063200504094544892D23700041705100100026281333100000016000210127440   CRESCENT1 CUS0018807          A KHAN                        00000000000000000000                21                      
903L001L5063200504094544892D23700041825065562023068267100000008500210127440   CRESCENT1 CUS0020328          R MIA                         00000000000000000000                21                      
903L001L5063200504094544892D23700041919876501217042660100000016000210127440   CRESCENT1 CUS0022670          A KHAN                        00000000000000000000                21                      
903L001L5063200504094544892D23700042025065562206063662100000007500210127440   CRESCENT1 CUS0026199          A ABOO                        00000000000000000000                21                      
903L001L5063200504094544892D23700042125065562007643358100000015000210127440   CRESCENT1 CUS0030680          M MOOSA                       00000000000000000000                21                      
903L001L5063200504094544892D23700042219876501337151270100000016000210127440   CRESCENT1 CUS0033270          A SHERIFF                     00000000000000000000                21                      
903L001L5063200504094544892D23700042325065562279531258100000008500210127440   CRESCENT1 CUS0036303          Q MOHAMED                     00000000000000000000                21                      
903L001L5063200504094544892D23700042425065562413612541100000008500210127440   CRESCENT1 CUS0039283          Z PHILIP                      00000000000000000000                21                      
903L001L5063200504094544892D23700042563200509244674371100000008500210127440   CRESCENT1 CUS0042439          O KHAN                        00000000000000000000                21                      
903L001L5063200504094544892D23700042647001001292882180200000016000210127440   CRESCENT1 CUS0045396          M KAJEE                       00000000000000000000                21                      
903L001L5063200504094544892D23700042705100100270334998100000008500210127440   CRESCENT1 CUS0048547          A AKHERWARY                   00000000000000000000                21                      
903L001L5063200504094544892D23700042819876501009891774100000008500210127440   CRESCENT1 CUS0051079          A SAFFODIEN                   00000000000000000000                21                      
903L001L5063200504094544892D23700042925065562274169624100000008500210127440   CRESCENT1 CUS0052985          S ABELS                       00000000000000000000                21                      
903L001L5063200504094544892D23700043005100100072704594100000008500210127440   CRESCENT1 CUS0055649          L VALLEY                      00000000000000000000                21                      
903L001L5063200504094544892D23700043163200509230159860100000007500210127440   CRESCENT1 CUS0057366          C BEUKES                      00000000000000000000                21                      
903L001L5063200504094544892D23700043225065562719308365100000008500210127440   CRESCENT1 CUS0059217          A BRINKHUIS                   00000000000000000000                21                      
903L001L5063200504094544892D23700043305100100002292475100000008500210127440   CRESCENT1 CUS0018809          M CASSIM                      00000000000000000000                21                      
903L001L5063200504094544892D23700043419876501156918677100000008500210127440   CRESCENT1 CUS0020342          F HUNTER                      00000000000000000000                21                      
903L001L5063200504094544892D23700043558010510011331893100000008500210127440   CRESCENT1 CUS0022714          S OSMAN                       00000000000000000000                21                      
903L001L5063200504094544892D23700043625065562243351947100000008500210127440   CRESCENT1 CUS0026211          B MOOLA                       00000000000000000000                21                      
903L001L5063200504094544892D23700043763200504046291340100000016000210127440   CRESCENT1 CUS0030709          M SHAIK                       00000000000000000000                21                      
903L001L5063200504094544892D23700043863200509226902558100000007500210127440   CRESCENT1 CUS0033271          M VARACHIA                    00000000000000000000                21                      
903L001L5063200504094544892D23700043963200500028839590100000008500210127440   CRESCENT1 CUS0036315          M SHEIK                       00000000000000000000                21                      
903L001L5063200504094544892D23700044025065562143644541100000008500210127440   CRESCENT1 CUS0039284          R MAHOMED                     00000000000000000000                21                      
903L001L5063200504094544892D23700044163200509261851439100000008500210127440   CRESCENT1 CUS0042452          K MATTHEWS                    00000000000000000000                21                      
903L001L5063200504094544892D23700044263200501168051022100000008500210127440   CRESCENT1 CUS0045402          S HENDRICS                    00000000000000000000                21                      
903L001L5063200504094544892D23700044347001001402325450200000008500210127440   CRESCENT1 CUS0048551          F AREND                       00000000000000000000                21                      
903L001L5063200504094544892D23700044405100100272135208100000016000210127440   CRESCENT1 CUS0051105          R KALAM                       00000000000000000000                21                      
903L001L5063200504094544892D23700044547001001357207962200000008500210127440   CRESCENT1 CUS0052988          A WILLIAMS                    00000000000000000000                21                      
903L001L5063200504094544892D23700044647001001339335598200000008500210127440   CRESCENT1 CUS0055652          R KASSIEM                     00000000000000000000                21                      
903L001L5063200504094544892D23700044747001001559330471200000008500210127440   CRESCENT1 CUS0057368          N BENJAMIN                    00000000000000000000                21                      
903L001L5063200504094544892D23700044805100110134621903100000008500210127440   CRESCENT1 CUS0059225          S JACOBS                      00000000000000000000                21                      
903L001L5063200504094544892D23700044925065562054289345100000016000210127440   CRESCENT1 CUS0018810          M ELLIMDEEN                   00000000000000000000                21                      
903L001L5063200504094544892D23700045005100100063059495100000008500210127440   CRESCENT1 CUS0020352          J JAMALOODIEN                 00000000000000000000                21                      
903L001L5063200504094544892D23700045105100100061003689100000008500210127440   CRESCENT1 CUS0022723          G RAHMAN                      00000000000000000000                21                      
903L001L5063200504094544892D23700045263200509169955884100000008500210127440   CRESCENT1 CUS0026234          M BROOD                       00000000000000000000                21                      
903L001L5063200504094544892D23700045363200504076787428100000016000210127440   CRESCENT1 CUS0030711          H WALLJEE                     00000000000000000000                21                      
903L001L5063200504094544892D23700045419876501979249520100000016000210127440   CRESCENT1 CUS0033274          M DANGAR                      00000000000000000000                21                      
903L001L5063200504094544892D23700045519876502598051068200000008500210127440   CRESCENT1 CUS0036328          H NUNKOO                      00000000000000000000                21                      
903L001L5063200504094544892D23700045605100100281465037100000008500210127440   CRESCENT1 CUS0039286          S MOHAMED                     00000000000000000000                21                      
903L001L5063200504094544892D23700045705100100020974876100000008500210127440   CRESCENT1 CUS0042470          I RAMATHULA                   00000000000000000000                21                      
903L001L5063200504094544892D23700045805100100402245393100000008500210127440   CRESCENT1 CUS0045435          N PEREIRA DE FIGUEIREDO       00000000000000000000                21                      
903L001L5063200504094544892D23700045905100110071870677100000008500210127440   CRESCENT1 CUS0048558          F DOLLIE                      00000000000000000000                21                      
903L001L5063200504094544892D23700046063200504058774685100000008500210127440   CRESCENT1 CUS0051117          F WILLIAMS                    00000000000000000000                21                      
903L001L5063200504094544892D23700046147001001368744042200000007500210127440   CRESCENT1 CUS0053019          G CUPIDO                      00000000000000000000                21                      
903L001L5063200504094544892D23700046225065562267962225100000016000210127440   CRESCENT1 CUS0055660          M AZIZ                        00000000000000000000                21                      
903L001L5063200504094544892D23700046347001001228588102200000008500210127440   CRESCENT1 CUS0057370          J HORSBAN                     00000000000000000000                21                      
903L001L5063200504094544892D23700046425065562730544922100000008500210127440   CRESCENT1 CUS0059229          E BENJAMIN                    00000000000000000000                21                      
903L001L5063200504094544892D23700046563200504059280009100000016000210127440   CRESCENT1 CUS0018811          A PADOYACHEE                  00000000000000000000                21                      
903L001L5063200504094544892D23700046663200504054687575100000008500210127440   CRESCENT1 CUS0020361          F SHAIKHNAG                   00000000000000000000                21                      
903L001L5063200504094544892D23700046705100100251919897100000008500210127440   CRESCENT1 CUS0022726          K SULEMAN                     00000000000000000000                21                      
903L001L5063200504094544892D23700046805100100427739918100000008500210127440   CRESCENT1 CUS0026236          F OMARJEE                     00000000000000000000                21                      
903L001L5063200504094544892D23700046925065560629014270100000008500210127440   CRESCENT1 CUS0030742          R SAFEDIEN                    00000000000000000000                21                      
903L001L5063200504094544892D23700047005100100070432945100000008500210127440   CRESCENT1 CUS0033284          S PARKER                      00000000000000000000                21                      
903L001L5063200504094544892D23700047125065562062514304100000008500210127440   CRESCENT1 CUS0036334          R MAHOMED                     00000000000000000000                21                      
903L001L5063200504094544892D23700047225065562329741260100000006900210127440   CRESCENT1 CUS0039307          L SADICK                      00000000000000000000                21                      
903L001L5063200504094544892D23700047319876502952478406200000016000210127440   CRESCENT1 CUS0042474          F MOHAMED                     00000000000000000000                21                      
903L001L5063200504094544892D23700047425065552130034392100000008500210127440   CRESCENT1 CUS0045466          M DAVIDS                      00000000000000000000                21                      
903L001L5063200504094544892D23700047547001001330403124200000008500210127440   CRESCENT1 CUS0048574          F JOHNSON                     00000000000000000000                21                      
903L001L5063200504094544892D23700047647001001414681117200000008500210127440   CRESCENT1 CUS0051155          I VALLEY AHMED                00000000000000000000                21                      
903L001L5063200504094544892D23700047725065562082161581100000008500210127440   CRESCENT1 CUS0053042          R WYNGAARD                    00000000000000000000                21                      
903L001L5063200504094544892D23700047825065562194623693100000008500210127440   CRESCENT1 CUS0055668          W BRENNER                     00000000000000000000                21                      
903L001L5063200504094544892D23700047905100110071683710100000008500210127440   CRESCENT1 CUS0057372          S TAAL                        00000000000000000000                21                      
903L001L5063200504094544892D23700048005100110065034714100000008500210127440   CRESCENT1 CUS0059231          M DABHELIA                    00000000000000000000                21                      
903L001L5063200504094544892D23700048105100100072583738100000008500210127440   CRESCENT1 CUS0018812          M SHARIFF                     00000000000000000000                21                      
903L001L5063200504094544892D23700048247001001116815239200000016000210127440   CRESCENT1 CUS0020362          M THEBUS                      00000000000000000000                21                      
903L001L5063200504094544892D23700048363200504068547662100000008500210127440   CRESCENT1 CUS0022728          N SATAR                       00000000000000000000                21                      
903L001L5063200504094544892D23700048425065562024807797100000008500210127440   CRESCENT1 CUS0026253          J ABRAM                       00000000000000000000                21                      
903L001L5063200504094544892D23700048505100100272097179100000008500210127440   CRESCENT1 CUS0030764          S FISCHER                     00000000000000000000                21                      
903L001L5063200504094544892D23700048605100110036536316100000008500210127440   CRESCENT1 CUS0033293          A VAWDA                       00000000000000000000                21                      
903L001L5063200504094544892D23700048705100100009085319100000008500210127440   CRESCENT1 CUS0036346          S WELMERS                     00000000000000000000                21                      
903L001L5063200504094544892D23700048863200509076622570100000008500210127440   CRESCENT1 CUS0039313          F HOOSEN                      00000000000000000000                21                      
903L001L5063200504094544892D23700048905100100250045869100000007500210127440   CRESCENT1 CUS0042492          M BADAT                       00000000000000000000                21                      
903L001L5063200504094544892D23700049005100100021627053100000008500210127440   CRESCENT1 CUS0045532          R VALLEY                      00000000000000000000                21                      
903L001L5063200504094544892D23700049147001001470219695200000008500210127440   CRESCENT1 CUS0048579          F AJARAAN                     00000000000000000000                21                      
903L001L5063200504094544892D23700049219876501139230646100000008500210127440   CRESCENT1 CUS0051158          A FAKIR                       00000000000000000000                21                      
903L001L5063200504094544892D23700049347001001558947459200000016000210127440   CRESCENT1 CUS0053045          A BADR                        00000000000000000000                21                      
903L001L5063200504094544892D23700049405100100070121931100000008500210127440   CRESCENT1 CUS0055671          T MATTHEWS                    00000000000000000000                21                      
903L001L5063200504094544892D23700049519876501077577559100000008500210127440   CRESCENT1 CUS0057385          W HENDRICKS                   00000000000000000000                21                      
903L001L5063200504094544892D23700049647001001694355800200000008500210127440   CRESCENT1 CUS0059232          A ALEXANDER                   00000000000000000000                21                      
903L001L5063200504094544892D23700049725065550340060355100000008500210127440   CRESCENT1 CUS0018813          N HOOSEN                      00000000000000000000                21                      
903L001L5063200504094544892D23700049825065562047207825100000008500210127440   CRESCENT1 CUS0020375          M BLOEM                       00000000000000000000                21                      
903L001L5063200504094544892D23700049925065562216341628100000008500210127440   CRESCENT1 CUS0022736          Y KHAN                        00000000000000000000                21                      
