000L2021040500000PAYPORT CONSULTING PTY LTD EFT000070207303                                                                                                                                           
010LD237000017701                                                                                                                                                                                     
011LD23763200500000040945448920120210227                                                                                                                                                              
013L5020210226001963632005000000932182356800000008500CRESCENT1 CUS0058456          03292801001963                I EDWARDS                                                                            
014L0000000010000000000000000093218235680000000000850000000000000000                                                                                                                                  
011LD23763200500000040945448920120210331                                                                                                                                                              
013L5020210330001953632005000000932182356800000008500CRESCENT1 CUS0058456          03292801001953                I EDWARDS                                                                            
014L0000000010000000000000000093218235680000000000850000000000000000                                                                                                                                  
019L0000000020000000000000000186436471360000000001700000000000000000                                                                                                                                  
999L000000010                                                                                                                                                                                         
