000L2021051100000PAYPORT CONSULTING PTY LTD EFT000075907303                                                                                                                                           
010LD237000020901                                                                                                                                                                                     
011LD23763200500000040945448920120210430                                                                                                                                                              
013L5020210429000276470010000000135022657000000008500CRESCENT1 CUS0057735          03000000000000                Z ABRAHAMS                                                                           
013L5020210429001712470010000000147582654900000008500CRESCENT1 CUS0050925          03200000000000                R NAIDOO                                                                             
014L0000000020000000000000000028260531190000000001700000000000000000                                                                                                                                  
019L0000000020000000000000000028260531190000000001700000000000000000                                                                                                                                  
999L000000008                                                                                                                                                                                         
