000L2020122400000PAYPORT CONSULTING PTY LTD EFT000055507303                                                                                                                                           
010LD237000006001                                                                                                                                                                                     
011LD23763200500000040945448920120201219                                                                                                                                                              
013L5020201218000490051001000000000169644000000008500CRESCENT1 CUS0006425          00200000000000                S MOOLLA                                                                             
014L0000000010000000000000000000016964400000000000850000000000000000                                                                                                                                  
019L0000000010000000000000000000016964400000000000850000000000000000                                                                                                                                  
999L000000007                                                                                                                                                                                         
