000L2020123000000PAYPORT CONSULTING PTY LTD EFT000056307303                                                                                                                                           
010LD237000006301                                                                                                                                                                                     
011LD23763200500000040945448920120201125                                                                                                                                                              
013L5020201124000615470010000000136891450900000008500CRESCENT1 CUS0049152          03000000000000                M VALLIE                                                                             
013L5020201124000791254905000006261132496400000008500CRESCENT1 CUS0050780          03400000000000                J BAKHARIA                                                                           
014L0000000020000000000000000639802394730000000001700000000000000000                                                                                                                                  
011LD23763200500000040945448920120201215                                                                                                                                                              
013L5020201214000247260149000006213203027200000015000CRESCENT1 CUS0040443          03400000000000                N OSMAN                                                                              
013L5020201214000585198765000000195675305200000016000CRESCENT1 CUS0003687          03000000000000                R MANGERA                                                                            
014L0000000020000000000000000640887833240000000003100000000000000000                                                                                                                                  
011LD23763200500000040945448920120201219                                                                                                                                                              
013L5020201218000793210651000006219529488100000016000CRESCENT1 CUS0049729          03600000000000                N PEPLOUW                                                                            
014L0000000010000000000000000621952948810000000001600000000000000000                                                                                                                                  
019L0000000050000000000000001902643176780000000006400000000000000000                                                                                                                                  
999L000000015                                                                                                                                                                                         
