000L2020102900000PAYPORT CONSULTING PTY LTD EFT000048107303                                                                                                                                           
010LD237000002701                                                                                                                                                                                     
011LD23763200500000040945448920120201021                                                                                                                                                              
013L5020201020000177632005000000928846663100000008500CRESCENT1 1603195658OCUS00493303292801000177                R KENNEDY                                                                            
014L0000000010000000000000000092884666310000000000850000000000000000                                                                                                                                  
019L0000000010000000000000000092884666310000000000850000000000000000                                                                                                                                  
999L000000007                                                                                                                                                                                         
