000L2021052900000PAYPORT CONSULTING PTY LTD EFT000078707303                                                                                                                                           
010LD237000022601                                                                                                                                                                                     
011LD23763200500000040945448920120210424                                                                                                                                                              
013L5020210423000051198765000000117199261000000016000CRESCENT1 CUS0057798          03000000000000                I CAROWS                                                                             
014L0000000010000000000000000011719926100000000001600000000000000000                                                                                                                                  
011LD23763200500000040945448920120210525                                                                                                                                                              
013L5020210524000031198765000000114701886300000016000CRESCENT1 CUS0033895          00200000000000                J HILL                                                                               
013L5020210524000157470010000000118167376100000008500CRESCENT1 CUS0058416          03000000000000                A GEDULD                                                                             
013L5020210524000293250655000006274784238500000008500CRESCENT1 CUS0059156          00400000000000                R ALLISON                                                                            
013L5020210524000608198765000000119897185100000008500CRESCENT1 CUS0054668          00200000000000                S SALLIE                                                                             
013L5020210524000095255355000006257527423900000008500CRESCENT1 CUS0049247          00400000000000                E RASOOL MOHAMMED                                                                    
013L5020210524000854470010000000132111260000000008500CRESCENT1 CUS0057219          03000000000000                R KEMP                                                                               
013L5020210524000110198765000000114051323000000016000CRESCENT1 CUS0049410          00200000000000                M AMIEN                                                                              
014L0000000070000000000000001313124069290000000007450000000000000000                                                                                                                                  
011LD23763200500000040945448920120210527                                                                                                                                                              
013L5020210526003468051001000000040204263800000008500CRESCENT1 CUS0056772          00200000000000                S ABRAHAMS                                                                           
013L5020210526001987462005000000392438630100000008500CRESCENT1 CUS0057886          00200000000000                A CASSIEM                                                                            
013L5020210526000530051001000001008565753900000008500CRESCENT1 CUS0054927          00200000000000                Z RAJIE                                                                              
013L5020210526000994051001000001011826446800000008500CRESCENT1 CUS0059374          00200000000000                L SALIE                                                                              
013L5020210526000476470010000000141429656600000016000CRESCENT1 CUS0059189          00400000000000                I BADARON                                                                            
013L5020210526000278470010000000143203663500000006900CRESCENT1 CUS0054721          00200000000000                G STEGMANN                                                                           
013L5020210526002783470010000000165093016800000008500CRESCENT1 CUS0058262          00200000000000                S HULL                                                                               
013L5020210526002253470010000000154892614900000016000CRESCENT1 CUS0058042          00200000000000                I KAMAAR                                                                             
013L5020210526000218470010000000158274954800000016000CRESCENT1 CUS0043225          00200000000000                M HENDRICKS                                                                          
013L5020210526002133470010000000163164392200000008500CRESCENT1 CUS0057940          00200000000000                R SOLOMONS                                                                           
013L5020210526003580470010000000163364115300000016000CRESCENT1 CUS0056812          03200000000000                G DAVIDS                                                                             
013L5020210526001805470010000000164481386400000016000CRESCENT1 CUS0057770          00200000000000                M MOOS                                                                               
013L5020210526003509470010000000149830776900000008500CRESCENT1 CUS0054397          01200000000000                S THULSIE                                                                            
013L5020210526003241051001000000027124751700000008500CRESCENT1 CUS0049081          00200000000000                C NDLAZI                                                                             
013L5020210526001928470010000000130340528600000023500CRESCENT1 CUS0050891          00400000000000                I SCHOLTZ                                                                            
013L5020210526000691470010000000125318300500000008500CRESCENT1 CUS0034016          00200000000000                A VISAGIE                                                                            
013L5020210526003080051001000000007251076500000008500CRESCENT1 CUS0024853          00200000000000                M KAMALIE                                                                            
013L5020210526001823250655000007709415510900000023500CRESCENT1 CUS0027763          02600000000000                A MYET                                                                               
013L5020210526000210410142000005112911606200000008500CRESCENT1 CUS0059034          00300000000000                J STEVEN                                                                             
013L5020210526002679250655000007438698667200000008500CRESCENT1 CUS0042113          02600000000000                A BUKUPU                                                                             
013L5020210526000042470010000000121300443600000008500CRESCENT1 CUS0058907          00200000000000                N PARELSE                                                                            
013L5020210526001103470010000000121783441700000008500CRESCENT1 CUS0052533          00200000000000                F FORTUNE                                                                            
013L5020210526002148051001000000027696766600000008500CRESCENT1 CUS0057955          00200000000000                N GABIER                                                                             
013L5020210526000641051001000000028317597400000008500CRESCENT1 CUS0052207          00200000000000                S KHALEK                                                                             
013L5020210526003272051001000001009792886900000008500CRESCENT1 CUS0056701          00600000000000                S DAVIDS                                                                             
013L5020210526002712470010000000152340656700000008500CRESCENT1 CUS0056249          00200000000000                E MONAGENG                                                                           
013L5020210526002179470010000000152769482600000008500CRESCENT1 CUS0059815          00200000000000                A BLANKENBERG                                                                        
013L5020210526000432470010000000143162697800000016000CRESCENT1 CUS0054854          00600000000000                A SAMIE                                                                              
013L5020210526000587632005000000908853993900000008500CRESCENT1 CUS0057133          00292803000587                C PRETORIUS                                                                          
013L5020210526001145632005000000927415780600000008500CRESCENT1 CUS0052541          00292803001145                A NAIDO                                                                              
013L5020210526002031470010000000160443142100000006900CRESCENT1 CUS0020781          03400000000000                F KEMMEY                                                                             
013L5020210526003245470010000000156745819800000008500CRESCENT1 CUS0058635          00200000000000                A LILLAH                                                                             
013L5020210526000375470010000000141009037800000016000CRESCENT1 CUS0052025          00200000000000                I NASSER                                                                             
013L5020210526003469470010000000148331559000000008500CRESCENT1 CUS0058796          00200000000000                F JAFFER                                                                             
013L5020210526000192051001000001007670952100000008500CRESCENT1 CUS0049485          00200000000000                W SALIE                                                                              
013L5020210526000048051001000000000253081300000008500CRESCENT1 CUS0036500          00200000000000                M AHMED                                                                              
013L5020210526002444470010000000125737580400000015400CRESCENT1 CUS0051217          00200000000000                M NAROTH                                                                             
013L5020210526001685470010000000129187207600000008500CRESCENT1 CUS0035031          00200000000000                M AMLAY                                                                              
013L5020210526003371051001000000007429085100000008500CRESCENT1 CUS0058677          00400000000000                M ARENDSE                                                                            
013L5020210526002956051001000000062587933300000016000CRESCENT1 CUS0032587          00400000000000                A MDHULI                                                                             
013L5020210526002940051001000000082703300100000016000CRESCENT1 CUS0024744          02600000000000                K MOHAMMED                                                                           
013L5020210526001861470010000000127677263500000016000CRESCENT1 CUS0057783          00200000000000                M ARENDSE                                                                            
013L5020210526000057051001000000002243808400000007500CRESCENT1 CUS0019751          01200000000000                Y BHAM                                                                               
013L5020210526001605470010000000130716777000000008500CRESCENT1 CUS0047724          00200000000000                S MOODLEY                                                                            
013L5020210526003394051001000001005599475800000008500CRESCENT1 CUS0046014          00200000000000                N WILLIAMS                                                                           
013L5020210526003326470010000000147136125800000008500CRESCENT1 CUS0051708          00200000000000                Z KEMP                                                                               
013L5020210526001381470010000000136219884400000016000CRESCENT1 CUS0047518          00400000000000                S SHAIK                                                                              
013L5020210526000611470010000000137277377900000008500CRESCENT1 CUS0046946          00200000000000                Z FAGODIEN                                                                           
013L5020210526001595470010000000140085432400000008500CRESCENT1 CUS0057667          00200000000000                A EDRIES                                                                             
013L5020210526001442470010000000161271138100000008500CRESCENT1 CUS0059466          00200000000000                F GAFFOOR                                                                            
013L5020210526002909470010000000155300556000000008500CRESCENT1 CUS0058296          00200000000000                F MATTHEWS                                                                           
013L5020210526002568470010000000131092391200000008500CRESCENT1 CUS0045150          00400000000000                R HENDRICKS                                                                          
013L5020210526000898051001000000006100368900000008500CRESCENT1 CUS0022723          01800000000000                G RAHMAN                                                                             
013L5020210526001276051001000000040144589500000008500CRESCENT1 CUS0022987          00400000000000                S KHAN                                                                               
013L5020210526003611470010000000117357181500000058900GEOFIN    GEOFIN              00200000000000                MICHEAL MOLOTO MABULANE                                                              
013L5020210526001106462005000000008240600400000008500CRESCENT1 CUS0059386          00200000000000                C SWANEPOEL                                                                          
013L5020210526001289470010000000111681523900000016000CRESCENT1 CUS0020362          03400000000000                M THEBUS                                                                             
013L5020210526002210470010000000130539786800000008500CRESCENT1 CUS0019021          00400000000000                S AHMED                                                                              
013L5020210526002239470010000000136556928200000008500CRESCENT1 CUS0059844          00200000000000                M KAIZVEL                                                                            
013L5020210526001650470010000000154865967100000008500CRESCENT1 CUS0055721          00200000000000                M MOHAMED                                                                            
013L5020210526001902632005000000409653870600000016000CRESCENT1 CUS0055867          00292803001902                M MAGMOED                                                                            
013L5020210526002404470010000000166089488100000016000CRESCENT1 CUS0059972          03400000000000                A ISAACS                                                                             
013L5020210526001708470010000000168496397200000008500CRESCENT1 CUS0059582          00200000000000                R MOSES                                                                              
013L5020210526003216470010000000155146543200000008500CRESCENT1 CUS0056679          00200000000000                N DAVID                                                                              
013L5020210526000167470010000000134774711500000008500CRESCENT1 CUS0056968          00400000000000                M FELES                                                                              
013L5020210526002543470010000000148511349900000008500CRESCENT1 CUS0053402          00200000000000                M ORRIE-ROB                                                                          
013L5020210526003546051001000000025319012600000016000CRESCENT1 CUS0039494          00200000000000                H RAZACK                                                                             
013L5020210526002802051001000000004252183100000016000CRESCENT1 CUS0032510          00400000000000                F VAN WYK                                                                            
013L5020210526003494470010000000127706199600000008500CRESCENT1 CUS0051814          00200000000000                Y CASSIM                                                                             
013L5020210526001351470010000000125285761400000008500CRESCENT1 CUS0041109          00200000000000                A MUSA                                                                               
013L5020210526000120051001000000000255382100000008500CRESCENT1 CUS0043177          00200000000000                M KAROLIA                                                                            
013L5020210526000336470010000000148778626100000008500CRESCENT1 CUS0059127          00200000000000                U GEORGE                                                                             
013L5020210526002475470010000000158145598200000008500CRESCENT1 CUS0058188          00200000000000                C SOLOMONS                                                                           
013L5020210526001480051001000000007169170700000007500CRESCENT1 CUS0050615          00400000000000                S HOWELL                                                                             
013L5020210526000489462005000001042788630100000016000CRESCENT1 CUS0057103          00200000000000                A KHAN                                                                               
013L5020210526001763470010000000164833982200000008500CRESCENT1 CUS0057763          00600000000000                M ABRAHAMS                                                                           
013L5020210526000095470010000000132720684400000008500CRESCENT1 CUS0051910          00200000000000                T ADAMS                                                                              
013L5020210526003567470010000000139498759300000008500CRESCENT1 CUS0058870          00200000000000                Q PROUTS                                                                             
013L5020210526003440470010000000139539213500000008500CRESCENT1 CUS0056763          00200000000000                N ABRAHAMS                                                                           
013L5020210526002903470010000000131327215700000008500CRESCENT1 CUS0042298          00200000000000                Z DAVIDS                                                                             
013L5020210526001033470010000000151506431800000016000CRESCENT1 CUS0052500          00400000000000                N HOOSEN                                                                             
013L5020210526000741470010000000143345500300000008500CRESCENT1 CUS0057203          00200000000000                Y ABRAHAMS                                                                           
013L5020210526000056051001000000027213396500000006900CRESCENT1 CUS0058910          00200000000000                F TALIEP                                                                             
013L5020210526001232051001000001012629681000000008500CRESCENT1 CUS0059407          00200000000000                Z BULBULIA                                                                           
013L5020210526002852470010000000136635449200000008500CRESCENT1 CUS0056460          00200000000000                I BEYERS                                                                             
013L5020210526001915470010000000136874404200000007500CRESCENT1 CUS0053019          00200000000000                G CUPIDO                                                                             
013L5020210526000152470010000000132635995700000016000CRESCENT1 CUS0054621          00400000000000                M ABRAHAM                                                                            
013L5020210526002141632005000000921727508500000038500CRESCENT1 CUS0038231          03292801002141                N GOWRIE                                                                             
013L5020210526000168632005000000931435577600000008500CRESCENT1 CUS0059025          00292803000168                M DAVIDS                                                                             
013L5020210526001596470010000000161786706100000008500CRESCENT1 CUS0059527          00200000000000                I SAMUELS                                                                            
013L5020210526002324470010000000121647085300000008500CRESCENT1 CUS0048388          00400000000000                B VOLKER                                                                             
013L5020210526000952470010000000122479139600000008500CRESCENT1 CUS0059360          00200000000000                Y MOHAMMED                                                                           
013L5020210526002684051001000000003085330300000008500CRESCENT1 CUS0056231          01800000000000                I JACOBS                                                                             
013L5020210526001707051001000001005820933400000016000CRESCENT1 CUS0057733          00200000000000                L LOSPER                                                                             
013L5020210526001259051001000001008679916700000008500CRESCENT1 CUS0057524          00400000000000                M FELIX                                                                              
013L5020210526002936470010000000153678873000000008500CRESCENT1 CUS0056504          00200000000000                A KAMALDIEN                                                                          
013L5020210526001773632005000000908529190600000008500CRESCENT1 CUS0047880          00292803001773                S PATEL                                                                              
013L5020210526000041470010000000133486747800000008500CRESCENT1 CUS0056913          00200000000000                L JOHNSON                                                                            
013L5020210526001957470010000000140221902200000008500CRESCENT1 CUS0053057          03200000000000                A BUCKS                                                                              
013L5020210526003174470010000000141878438700000008500CRESCENT1 CUS0056662          00200000000000                G BENJAMIN                                                                           
013L5020210526002389470010000000143358739200000008500CRESCENT1 CUS0059957          00200000000000                A NGUNDAH                                                                            
013L5020210526000265470010000000144711277400000008500CRESCENT1 CUS0057036          00200000000000                G FROUDE                                                                             
013L5020210526000839470010000000151845309900000008500CRESCENT1 CUS0057243          00200000000000                M TALIEP                                                                             
013L5020210526001129470010000000136940322200000008500CRESCENT1 CUS0047300          00400000000000                S OMEDALF                                                                            
013L5020210526001901470010000000135720796200000008500CRESCENT1 CUS0052988          00200000000000                A WILLIAMS                                                                           
013L5020210526003539470010000000162891710300000008500CRESCENT1 CUS0058863          00200000000000                M QANGULE                                                                            
013L5020210526002839051001000001012771163300000008500CRESCENT1 CUS0058268          00200000000000                S DAVIDS                                                                             
013L5020210526001923051001000000020087686400000016000CRESCENT1 CUS0035202          00200000000000                G SALASA                                                                             
013L5020210526001471051001000000027215207200000008500CRESCENT1 CUS0020451          00300000000000                M SALIE                                                                              
013L5020210526003284470010000000127643447000000008500CRESCENT1 CUS0051702          00200000000000                M KEMP                                                                               
013L5020210526000978051001000000002117781300000008500CRESCENT1 CUS0055228          00200000000000                C EYBERS                                                                             
013L5020210526003230051001000001009299753600000008500CRESCENT1 CUS0056685          00600000000000                M JOSEPH                                                                             
013L5020210526002433051001000001008101733000000008500CRESCENT1 CUS0058156          00200000000000                N SABAN                                                                              
013L5020210526002222470010000000146767245700000008500CRESCENT1 CUS0055983          00200000000000                T PARKER                                                                             
013L5020210526002965470010000000142664211100000008500CRESCENT1 CUS0058376          00200000000000                R REGTER                                                                             
013L5020210526000320470010000000141308822600000008500CRESCENT1 CUS0054802          00200000000000                N JACOBS                                                                             
013L5020210526003242470010000000148953545200000008500CRESCENT1 CUS0051692          00200000000000                K ABDULLAH                                                                           
013L5020210526001802470010000000137034450100000008500CRESCENT1 CUS0050799          00200000000000                M BADEROEN                                                                           
013L5020210526000518470010000000154676234300000008500CRESCENT1 CUS0059210          00200000000000                A ABRAHAMS                                                                           
013L5020210526000280470010000000171201236100000008500CRESCENT1 CUS0059050          00200000000000                J MOSES                                                                              
013L5020210526000019051001000000027007343400000008500CRESCENT1 CUS0033220          00400000000000                R GARDER                                                                             
013L5020210526002825470010000000114579164400000008500CRESCENT1 CUS0058267          00200000000000                A ABRAHAMS                                                                           
013L5020210526000740051001000000040127869700000008500CRESCENT1 CUS0055087          00200000000000                S MURPHU                                                                             
013L5020210526002847051001000000003264407800000016000CRESCENT1 CUS0042239          00200000000000                A EBRAHIM                                                                            
013L5020210526001525470010000000114683674900000016000CRESCENT1 CUS0057630          00200000000000                M VERMEULEN                                                                          
013L5020210526003179470010000000124511794500000008500CRESCENT1 CUS0030157          01200000000000                L MUTABARUKA                                                                         
013L5020210526003436632005000000404120396800000008500CRESCENT1 CUS0046023          03092801003436                R CASSIEM                                                                            
013L5020210526002212801000000001500532010100000008500CRESCENT1 CUS0024049          01200000000000                Z CASSIM                                                                             
013L5020210526002908470010000000153696381800000008500CRESCENT1 CUS0056498          00200000000000                B HENDRICKS                                                                          
013L5020210526002782470010000000136798718900000008500CRESCENT1 CUS0056293          00200000000000                T MOKATE                                                                             
013L5020210526002074470010000000160674684500000008500CRESCENT1 CUS0059754          00200000000000                C PRETORIUS                                                                          
013L5020210526001371678910000005100248339900000008500CRESCENT1 CUS0057557          00200000000000                Y MABOTE                                                                             
013L5020210526001719470010000000123481251500000008500CRESCENT1 CUS0052906          00200000000000                G ABRAHAMS                                                                           
013L5020210526000720051001000000007799853700000008500CRESCENT1 CUS0037006          00200000000000                F KHAN                                                                               
013L5020210526002796051001000000007337362100000016000CRESCENT1 CUS0056294          00600000000000                E JACOBS                                                                             
013L5020210526003565051001000000013419218400000008500CRESCENT1 CUS0054486          00200000000000                S JUMAT                                                                              
013L5020210526001567470010000000160363856100000007500CRESCENT1 CUS0057653          00200000000000                B GALANT                                                                             
013L5020210526001778470010000000134404150500000008500CRESCENT1 CUS0059631          00400000000000                M ADAMS                                                                              
013L5020210526003315470010000000144397510700000008500CRESCENT1 CUS0058641          00200000000000                R LE ROUX                                                                            
013L5020210526002342470010000000131653094700000008500CRESCENT1 CUS0056048          00200000000000                R CURNOW                                                                             
013L5020210526002720470010000000139889422000000008500CRESCENT1 CUS0038719          00200000000000                Z HAMID                                                                              
013L5020210526000376470010000000153319426000000008500CRESCENT1 CUS0054825          00200000000000                S HOLLAND                                                                            
013L5020210526001302470010000000159049694700000008500CRESCENT1 CUS0059413          00200000000000                N CHOUGLAY                                                                           
013L5020210526002059678910000005102748511000000008500CRESCENT1 CUS0059736          00200000000000                N BOTHA                                                                              
013L5020210526000629051001000000030277184000000016000CRESCENT1 CUS0057146          00200000000000                F HATIA                                                                              
013L5020210526001496051001000000007270459400000008500CRESCENT1 CUS0055649          00200000000000                L VALLEY                                                                             
013L5020210526000429470010000000124027084200000008500CRESCENT1 CUS0046718          00400000000000                A MADATT                                                                             
013L5020210526000986051001000000002077352800000008500CRESCENT1 CUS0037176          00600000000000                N ZONDI                                                                              
013L5020210526003237051001000000027094147900000016000CRESCENT1 CUS0036147          00200000000000                N JANUARY                                                                            
013L5020210526002030470010000000135371361800000008500CRESCENT1 CUS0059712          03000000000000                S BENNETT                                                                            
013L5020210526003412470010000000146279122900000008500CRESCENT1 CUS0056752          03600000000000                S SELDON                                                                             
013L5020210526002344470010000000149715241900000008500CRESCENT1 CUS0059947          00200000000000                I ISAACS                                                                             
013L5020210526002238470010000000144404897800000008500CRESCENT1 CUS0058016          00200000000000                N HODSON                                                                             
013L5020210526001535470010000000143171440000000016000CRESCENT1 CUS0047654          00200000000000                M DUNBAR                                                                             
013L5020210526000433470010000000130921888700000008500CRESCENT1 CUS0057085          00200000000000                A MATHEWS                                                                            
013L5020210526000672470010000000169510719300000008500CRESCENT1 CUS0059267          00200000000000                Z NOLAN                                                                              
013L5020210526000614470010000000153338226100000008500CRESCENT1 CUS0054987          00200000000000                C MATTHEWS                                                                           
013L5020210526001113051001000000020054746100000008500CRESCENT1 CUS0040909          00600000000000                N KARIM                                                                              
013L5020210526001109051001000001011739156300000022500CRESCENT1 CUS0026730          00200000000000                L SALEH EBRAHIM                                                                      
013L5020210526002697470010000000113141379000000008500CRESCENT1 CUS0053496          00200000000000                M ISAACKS                                                                            
013L5020210526003210051001000000003029993400000008500CRESCENT1 CUS0039227          00400000000000                K KHAN                                                                               
013L5020210526001220051001000000024219092800000016000CRESCENT1 CUS0022962          00200000000000                F HANSA                                                                              
013L5020210526002374470010000000162009620800000008500CRESCENT1 CUS0059955          00200000000000                W HAGEN                                                                              
013L5020210526003612470010000000163921431100000036400GEOFIN    GEOFIN              00200000000000                KAREL SELLO MALUNGANE                                                                
013L5020210526001512470010000000135580869100000008500CRESCENT1 CUS0059485          00200000000000                F BEHARDIEN                                                                          
013L5020210526000179470010000000147763069200000008500CRESCENT1 CUS0051964          00200000000000                Z MAHOMED                                                                            
013L5020210526003437470010000000143811711400000008500CRESCENT1 CUS0049226          00200000000000                S CHALKLEN                                                                           
013L5020210526000980470010000000161858920000000008500CRESCENT1 CUS0059370          00200000000000                I SALASA                                                                             
013L5020210526002313470010000000164561577200000008500CRESCENT1 CUS0058060          00200000000000                J HENDRICKS                                                                          
013L5020210526003424051001000001014085541400000008500CRESCENT1 CUS0051758          00400000000000                H ABRAHAMS                                                                           
013L5020210526000466460005000000002418475800000008500CRESCENT1 CUS0030954          00600000000000                A MASINGA                                                                            
013L5020210526002379051001000000003333596600000006900CRESCENT1 CUS0032233          00200000000000                H VAWDA                                                                              
013L5020210526002711470010000000153868248400000008500CRESCENT1 CUS0053500          00600000000000                R CUPIDO                                                                             
013L5020210526002252470010000000163140000000000008500CRESCENT1 CUS0055988          01200000000000                F EVERTS                                                                             
013L5020210526000174632005000000405157079500000008500CRESCENT1 CUS0036606          00292803000174                A KARIM                                                                              
013L5020210526000753470010000000136141989800000008500CRESCENT1 CUS0052254          00400000000000                Z BIHL                                                                               
013L5020210526001327470010000000132060591300000008500CRESCENT1 CUS0052579          00400000000000                F NOORDIEN                                                                           
013L5020210526000633250655000007425296283900000008500CRESCENT1 CUS0026304          02600000000000                S KAMAL XAVIER                                                                       
013L5020210526002366470010000000115070286700000008500CRESCENT1 CUS0038415          00200000000000                N ISAAS RAISS                                                                        
013L5020210526001834470010000000127633628200000008500CRESCENT1 CUS0059639          00300000000000                J VON DOORZE                                                                         
013L5020210526003329051001000000027176610700000008500CRESCENT1 CUS0058642          00200000000000                R ABRAHAMS                                                                           
013L5020210526000979470010000000130879624000000016000CRESCENT1 CUS0057332          00200000000000                M ARIEFOLIEN                                                                         
013L5020210526002810470010000000134898039500000016000CRESCENT1 CUS0056300          00200000000000                S ABRAHAMS                                                                           
013L5020210526002544470010000000150973379300000016000CRESCENT1 CUS0056184          00200000000000                F SOLOMON                                                                            
013L5020210526000153470010000000161465686800000008500CRESCENT1 CUS0056966          00200000000000                K JAFIELDIEN                                                                         
013L5020210526000683632005000000409099058800000008500CRESCENT1 CUS0052221          00292803000683                S GOHAARDIEN                                                                         
013L5020210526000808632005000000929073841000000008500CRESCENT1 CUS0049937          00292803000808                S PHOKOJE                                                                            
013L5020210526000995470010000000152076018100000007500CRESCENT1 CUS0020196          00600000000000                M OMAR                                                                               
013L5020210526003594051001000000027394934900000008500CRESCENT1 CUS0056818          00200000000000                E ABRAHAMS                                                                           
013L5020210526000613470010000000122396900000000016000CRESCENT1 CUS0052202          00200000000000                F JACOBS                                                                             
013L5020210526001917470010000000117202858100000008500CRESCENT1 CUS0057801          01200000000000                L SALIE                                                                              
013L5020210526002657470010000000123804727900000008500CRESCENT1 CUS0058221          00200000000000                L LAKAY                                                                              
013L5020210526000350470010000000128863720700000016000CRESCENT1 CUS0059139          00200000000000                M KIPPIE                                                                             
013L5020210526002911051001000000007017004500000008500CRESCENT1 CUS0021285          00400000000000                M DE ROOS                                                                            
013L5020210526000362051001000000006188199600000016000CRESCENT1 CUS0054818          00200000000000                I BENNETT                                                                            
013L5020210526000357051001000000002122070000000015400CRESCENT1 CUS0040094          00400000000000                L HANSIA                                                                             
013L5020210526002054470010000000146976423500000008500CRESCENT1 CUS0048210          00200000000000                K SYDOW                                                                              
013L5020210526000364678910000005101158807000000008500CRESCENT1 CUS0059147          00200000000000                H ALLIE                                                                              
013L5020210526001762470010000000158111041100000008500CRESCENT1 CUS0055783          00200000000000                A ADAMS                                                                              
013L5020210526002343470010000000155638954800000008500CRESCENT1 CUS0058112          00200000000000                F SWARTS                                                                             
013L5020210526002489470010000000160960933400000008500CRESCENT1 CUS0058193          00200000000000                S MOHAMED                                                                            
013L5020210526001414470010000000164256111600000008500CRESCENT1 CUS0059452          00400000000000                M JAMAL                                                                              
013L5020210526001316678910000005102362230300000008500CRESCENT1 CUS0059421          00200000000000                B LAUGHTON                                                                           
013L5020210526001856632005000000408606159300000016000CRESCENT1 CUS0044718          00292803001856                M PATEL                                                                              
013L5020210526000782470010000000132815563100000008500CRESCENT1 CUS0055097          00400000000000                R REGAL                                                                              
013L5020210526000224410142000005110993325100000016000CRESCENT1 CUS0059037          00300000000000                C MILAMBE                                                                            
013L5020210526001256051001000000007802124300000008500CRESCENT1 CUS0050415          00200000000000                Y WYNGAARD                                                                           
013L5020210526000679470010000000123920367300000008500CRESCENT1 CUS0040476          00200000000000                H MOHAMED                                                                            
013L5020210526003523470010000000117112745400000008500CRESCENT1 CUS0054448          00400000000000                N GANIEF                                                                             
014L0000002090000000000000009612718340990000000220120000000000000000                                                                                                                                  
019L0000002170000000000000010937562336380000000229170000000000000000                                                                                                                                  
999L000000227                                                                                                                                                                                         
