000L2021031900000PAYPORT CONSULTING PTY LTD EFT000067707303                                                                                                                                           
010LD237000016101                                                                                                                                                                                     
011LD23763200500000040945448920120210227                                                                                                                                                              
013L5020210226001213470010000000158199298800000008500CRESCENT1 CUS0059584          03400000000000                R ALEXANDRA                                                                          
013L5020210226003472051001000001009415002600000016000CRESCENT1 CUS0043879          03000000000000                M ISAACS                                                                             
014L0000000020000000000000000116761430140000000002450000000000000000                                                                                                                                  
011LD23763200500000040945448920120210316                                                                                                                                                              
013L5020210315000938260849000006201462806200000008500CRESCENT1 CUS0034127          00200000000000                A ROSENBERG                                                                          
013L5020210315000715250555000006258347842700000016000CRESCENT1 CUS0050913          00200000000000                N JANUARY                                                                            
013L5020210315001182250655000006279654300900000008500CRESCENT1 CUS0014878          00400000000000                K DEWAN                                                                              
013L5020210315001178198765000000121400628000000008500CRESCENT1 CUS0037386          01200000000000                E HENDRICKS                                                                          
013L5020210315000055198765000000123009289700000008500CRESCENT1 CUS0047624          00600000000000                K DAWOOD                                                                             
013L5020210315000240201909000006223341656100000008500CRESCENT1 CUS0019521          01200000000000                F ISAACS JOHNSON                                                                     
013L5020210315000538222826000006255848932600000016000CRESCENT1 CUS0024885          00600000000000                M JOOSAB                                                                             
013L5020210315001138198765000000290520782500000008500CRESCENT1 CUS0036862          00200000000000                A ISAACS                                                                             
013L5020210315000960260202000006267521888000000008500CRESCENT1 CUS0051888          00200000000000                A DOMINGO                                                                            
013L5020210315000163250141000006219857769800000008500CRESCENT1 CUS0018084          00200000000000                M ISAACS                                                                             
013L5020210315000761198765000000119050593200000008500CRESCENT1 CUS0057430          00200000000000                A DAVIDS                                                                             
013L5020210315000971250655000006280686167200000008500CRESCENT1 CUS0058246          00200000000000                M PADIA                                                                              
013L5020210315001181250655000006281485359600000016000CRESCENT1 CUS0058841          00400000000000                R JOUBYAR                                                                            
013L5020210315001045250942000006206548741700000008500CRESCENT1 CUS0052410          00600000000000                U MCKAY                                                                              
013L5020210315000957251242000006205505169400000008500CRESCENT1 CUS0010451          00200000000000                I SEEDAT                                                                             
013L5020210315000980255355000006242169176900000008500CRESCENT1 CUS0052099          00400000000000                R ABDUL LATIFF                                                                       
013L5020210315000326250114000006207510668500000008500CRESCENT1 CUS0048999          01200000000000                H MOOS                                                                               
013L5020210315001226201509000006256294723700000006900CRESCENT1 CUS0058914          00200000000000                A MUKADAM                                                                            
013L5020210315001099254205000006210789239200000008500CRESCENT1 CUS0046323          00200000000000                O CANNELL                                                                            
013L5020210315000058270224000006222954127300000008500CRESCENT1 CUS0016633          00200000000000                R EBRAHIM                                                                            
013L5020210315000855250737000006253243920600000008500CRESCENT1 CUS0051618          00600000000000                D COERECIUS                                                                          
013L5020210315000308250737000006212865996100000016000CRESCENT1 CUS0020135          00200000000000                A SULIMAN                                                                            
013L5020210315000330250856000006215461506000000016000CRESCENT1 CUS0049027          00600000000000                N DEDZA                                                                              
013L5020210315000197200109000006207738063300000008500CRESCENT1 CUS0059528          00200000000000                Z MOHAMED                                                                            
013L5020210315000713240438000006248030796900000008500CRESCENT1 CUS0028939          01200000000000                Y MOWANDI                                                                            
013L5020210315000441250655000006273848015200000008500CRESCENT1 CUS0055952          00200000000000                S MAMDOO                                                                             
013L5020210315001130198765000000100474484600000008500CRESCENT1 CUS0052770          01200000000000                S WILLIAMS                                                                           
013L5020210315001215220229000005091004298100000008500CRESCENT1 CUS0053004          00400000000000                R DASIGADU                                                                           
013L5020210315000028202009000006254902283800000008500CRESCENT1 CUS0016066          00200000000000                I TAYOB                                                                              
013L5020210315001195198765000000192600895200000006900CRESCENT1 CUS0052990          01200000000000                Q TITIS                                                                              
013L5020210315001110198765000000260718895400000008500CRESCENT1 CUS0052750          00400000000000                B HAFFEJEE                                                                           
013L5020210315000972240139000006212533416000000008500CRESCENT1 CUS0010525          00400000000000                Y CARRIM                                                                             
013L5020210315000532250241000006207575718100000016000CRESCENT1 CUS0003267          03000000000000                A KHAN                                                                               
013L5020210315000180198765000000113319081200000008500CRESCENT1 CUS0048273          01200000000000                K BENJAMIN                                                                           
013L5020210315000752198765000000110836186200000008500CRESCENT1 CUS0006698          00200000000000                N MIA                                                                                
013L5020210315000515198765000000102622222200000008500CRESCENT1 CUS0049943          00200000000000                S KAMAAR                                                                             
013L5020210315000396250705000006235275996700000008500CRESCENT1 CUS0055852          00200000000000                R VAHIB                                                                              
013L5020210315000807251542000006246180660900000016000CRESCENT1 CUS0007230          00200000000000                N KAROLIA                                                                            
013L5020210315000898220229000006203034348800000008500CRESCENT1 CUS0033467          01200000000000                A HAMIDU                                                                             
013L5020210315001223210224000006265673972200000016000CRESCENT1 CUS0037885          00600000000000                F KHAN                                                                               
013L5020210315000367250737000006208881998600000008500CRESCENT1 CUS0000241          00200000000000                F WAJOODEEN                                                                          
013L5020210315000263198765000000105896260400000008500CRESCENT1 CUS0055165          00200000000000                K DE BRUIN                                                                           
013L5020210315001113220425000006208294156100000008500CRESCENT1 CUS0036597          00400000000000                T AMLA                                                                               
013L5020210315000047239934000006209420488200000008500CRESCENT1 CUS0059072          00200000000000                H THEKISO                                                                            
013L5020210315000233231833000006206388589500000008500CRESCENT1 CUS0040348          01200000000000                Y BAYAT                                                                              
013L5020210315000824230202000006211304401000000008500CRESCENT1 CUS0044818          00200000000000                M NASSON                                                                             
013L5020210315000976198765000000107546194400000008500CRESCENT1 CUS0058249          03200000000000                A SCHUTT                                                                             
013L5020210315001157240139000005284002548300000008500CRESCENT1 CUS0014577          00200000000000                S ISAT                                                                               
013L5020210315000921203109000006267499139600000008500CRESCENT1 CUS0058110          00200000000000                M ABDEROUF                                                                           
013L5020210315000667252505000006243022367800000023500CRESCENT1 CUS0004940          01200000000000                A KHAN                                                                               
013L5020210315000621261750000006234581966100000008500CRESCENT1 CUS0056892          00200000000000                S STANLEY                                                                            
013L5020210315000245260149000006213203027200000015000CRESCENT1 CUS0040443          00400000000000                N OSMAN                                                                              
013L5020210315000937251705000006204961340000000008500CRESCENT1 CUS0009922          00200000000000                R JACOBS                                                                             
013L5020210315000377251705000006200913361200000008500CRESCENT1 CUS0000420          00200000000000                M PIENAAR                                                                            
013L5020210315000336256955000006210507147700000008500CRESCENT1 CUS0020379          01200000000000                F KADIR                                                                              
013L5020210315001051198765000000119584241400000008500CRESCENT1 CUS0058398          00600000000000                M JACOBS                                                                             
013L5020210315001165198765000000110869420900000008500CRESCENT1 CUS0052901          00200000000000                G ABRAHAMS                                                                           
013L5020210315001016198765000000116511281700000008500CRESCENT1 CUS0058320          01200000000000                D AFRICA                                                                             
013L5020210315000581198765000000110738095200000008500CRESCENT1 CUS0056593          00200000000000                S TIMMS                                                                              
013L5020210315000660221926000006242192609100000016000CRESCENT1 CUS0050791          01200000000000                D SAFLA                                                                              
013L5020210315000103250655000006268619780900000007500CRESCENT1 CUS0017366          00200000000000                A AROYEWUN                                                                           
013L5020210315000682261050000005060016673600000008500CRESCENT1 CUS0005085          00200000000000                I WILLIAMS                                                                           
013L5020210315000391201409000005026112727600000007500CRESCENT1 CUS0055835          00600000000000                F DAVIDS                                                                             
013L5020210315000015220229000006206877376400000008500CRESCENT1 CUS0047485          00400000000000                M ISMAIL                                                                             
013L5020210315000794210502000006208635403300000016000CRESCENT1 CUS0044792          00400000000000                L COETZEE                                                                            
013L5020210315000742250205000006215476251400000008500CRESCENT1 CUS0006551          00400000000000                O TIMMS                                                                              
013L5020210315000324198765000000113861049600000016000CRESCENT1 CUS0020286          00200000000000                S SYLVESTER                                                                          
013L5020210315000706198765000000115202694100000008500CRESCENT1 CUS0057207          00200000000000                Y WATERLOO                                                                           
013L5020210315000812240139000006226689413000000008500CRESCENT1 CUS0007275          00200000000000                A KHAN                                                                               
013L5020210315001056200910000006236506498100000008500CRESCENT1 CUS0058405          00200000000000                R STRYDOM                                                                            
013L5020210315001242256055000006263063922900000023500CRESCENT1 CUS0015583          00200000000000                A CAJEE                                                                              
013L5020210315000151198765000000106973420900000008500CRESCENT1 CUS0053767          02600000000000                S BENJAMIN                                                                           
013L5020210315000923198765000000104894632000000016000CRESCENT1 CUS0033754          00200000000000                S MOHAMED                                                                            
013L5020210315000756250655000006276719041700000008500CRESCENT1 CUS0057409          00200000000000                C NOMDOE                                                                             
013L5020210315000447198765000000197072203700000031000CRESCENT1 CUS0001455          00200000000000                A ABDULLAH                                                                           
014L0000000750000000000000033492494034430000000078130000000000000000                                                                                                                                  
019L0000000770000000000000033609255464570000000080580000000000000000                                                                                                                                  
999L000000085                                                                                                                                                                                         
