000L2021032000000PAYPORT CONSULTING PTY LTD EFT000067907303                                                                                                                                           
010LD237000016201                                                                                                                                                                                     
011LD23763200500000040945448920120210227                                                                                                                                                              
013L5020210226001549470010000000135839924500000008500CRESCENT1 CUS0048946          03400000000000                R WALLACE                                                                            
013L5020210226002613632005000000935291226500000008500CRESCENT1 CUS0058658          03092801002613                G GASNODIEN                                                                          
014L0000000020000000000000000107113115100000000001700000000000000000                                                                                                                                  
011LD23763200500000040945448920120210316                                                                                                                                                              
013L5020210315000611198765000000116985264500000008500CRESCENT1 CUS0056863          00200000000000                S WALTERS                                                                            
013L5020210315000831198765000000116495846100000008500CRESCENT1 CUS0057739          00200000000000                R SAMSODIEN                                                                          
013L5020210315000883250655000006274691016700000007500CRESCENT1 CUS0033203          03600000000000                S OBARAY                                                                             
013L5020210315000052198765000000114710852800000008500CRESCENT1 CUS0059073          00200000000000                M NORRIS                                                                             
013L5020210315000155198765000000207901618000000008500CRESCENT1 CUS0048215          00200000000000                F MEYER                                                                              
013L5020210315000111198765000000113457096100000008500CRESCENT1 CUS0053630          00200000000000                S MARCUS                                                                             
013L5020210315000952198765000000108091201000000016000CRESCENT1 CUS0010224          00200000000000                N AMERICA                                                                            
013L5020210315000958198765000000120577935300000008500CRESCENT1 CUS0034974          00200000000000                H LEDIGA                                                                             
014L0000000080000000000000000717291083050000000007450000000000000000                                                                                                                                  
011LD23763200500000040945448920120210320                                                                                                                                                              
013L5020210319000274632005000000158107267800000008500CRESCENT1 CUS0033962          02683002000274                M CASSIM                                                                             
013L5020210319000269470010000000154458589200000016000CRESCENT1 CUS0058410          02682502000269                A SMITH                                                                              
013L5020210319000350470010000000013394046500000008500CRESCENT1 CUS0041362          02682502000350                I BEUKMAN                                                                            
013L5020210319000373250655000000106270751600000008500CRESCENT1 CUS0043342          02682502000373                M NADAT                                                                              
013L5020210319000322051001000001000711236200000008500CRESCENT1 CUS0037996          02682502000322                F ABRAHAMS                                                                           
013L5020210319000191632005000000938598964000000008500CRESCENT1 CUS0055116          02683002000191                S KHAN                                                                               
013L5020210319000359632005000000919508081500000008500CRESCENT1 CUS0041892          02682502000359                R DAWOOD                                                                             
013L5020210319000313632005000000504887133800000008500CRESCENT1 CUS0059172          02683002000313                W ABDURAHMAN                                                                         
014L0000000080000000000000000379593607060000000007550000000000000000                                                                                                                                  
019L0000000180000000000000001203997805210000000016700000000000000000                                                                                                                                  
999L000000028                                                                                                                                                                                         
