000L2021021000000PAYPORT CONSULTING PTY LTD EFT000062507303                                                                                                                                           
010LD237000011308                                                                                                                                                                                     
011LD23763200500000040945448920120210127                                                                                                                                                              
013L5020210127003586051001000000022534647800000023500CRESCENT1 CUS0032558          03400000000000                A EBRAHIM                                                                            
014L0000000010000000000000000002253464780000000002350000000000000000                                                                                                                                  
019L0000000010000000000000000002253464780000000002350000000000000000                                                                                                                                  
999L000000007                                                                                                                                                                                         
