000L2021022800000PAYPORT CONSULTING PTY LTD EFT000065107303                                                                                                                                           
010LD237000013801                                                                                                                                                                                     
011LD23763200500000040945448920120210121                                                                                                                                                              
013L5020210120000410632005000000913987080000000008500CRESCENT1 CUS0030975          03492801000410                R RUITERS                                                                            
014L0000000010000000000000000091398708000000000000850000000000000000                                                                                                                                  
011LD23763200500000040945448920120210130                                                                                                                                                              
013L5020210129002434203209000006222149614500000016000CRESCENT1 CUS0057279          03600000000000                M SALIE                                                                              
013L5020210129000642051001000000025000627800000016000CRESCENT1 CUS0017151          03400000000000                T EBRAHIM                                                                            
014L0000000020000000000000000624715024230000000003200000000000000000                                                                                                                                  
011LD23763200500000040945448920120210216                                                                                                                                                              
013L5020210215000550470010000000138236736600000008500CRESCENT1 CUS0059039          03400000000000                Z SOEKER                                                                             
014L0000000010000000000000000013823673660000000000850000000000000000                                                                                                                                  
011LD23763200500000040945448920120210220                                                                                                                                                              
013L5020210219000007632005000000913987080000000008500CRESCENT1 CUS0030975          03492801000007                R RUITERS                                                                            
014L0000000010000000000000000091398708000000000000850000000000000000                                                                                                                                  
011LD23763200500000040945448920120210225                                                                                                                                                              
013L5020210224000454251705000005049916860400000023500CRESCENT1 CUS0010380          00200000000000                H PAULSE                                                                             
013L5020210224000464198765000000105165650800000008500CRESCENT1 CUS0051960          00600000000000                R MIA                                                                                
013L5020210224000599198765000000110838962700000016000CRESCENT1 CUS0053270          00200000000000                F SALIE                                                                              
013L5020210224000264200410000006244157605800000008500CRESCENT1 CUS0050000          01200000000000                S SAMSON                                                                             
013L5020210224000040251042000006234070362900000008500CRESCENT1 CUS0032627          00400000000000                S DELONG                                                                             
013L5020210224000366198765000000100112669600000031000CRESCENT1 CUS0007185          00200000000000                A PANDOR                                                                             
013L5020210224000495198765000000113606134700000008500CRESCENT1 CUS0042485          02600000000000                G YUSUF                                                                              
013L5020210224000281198765000000113875091300000008500CRESCENT1 CUS0058225          00400000000000                K SOLOMON                                                                            
013L5020210224000177198765000000103284245800000008500CRESCENT1 CUS0057546          02600000000000                N MOOSA                                                                              
013L5020210224000380203209000006248525369600000008500CRESCENT1 CUS0051129          00200000000000                Z BEGG                                                                               
013L5020210224000119198765000000111086186900000008500CRESCENT1 CUS0048631          00200000000000                M MAJIET                                                                             
013L5020210224000080198765000000102577607000000008500CRESCENT1 CUS0048171          00200000000000                R MOHAMMED                                                                           
013L5020210224000319198765000000118807029000000008500CRESCENT1 CUS0039569          00600000000000                G WILLIAMS                                                                           
013L5020210224000235198765000000225524176500000016000CRESCENT1 CUS0038242          01200000000000                M MAJIET                                                                             
013L5020210224000788255355000006251842305900000008500CRESCENT1 CUS0055357          00400000000000                M MOHAMED                                                                            
013L5020210224000752255805000006230031837700000008500CRESCENT1 CUS0054880          00200000000000                A ABRAHAMS                                                                           
013L5020210224000373470010000000164318173200000008500CRESCENT1 CUS0058678          03000000000000                S DAVIDS                                                                             
013L5020210224000822250805000006229584642500000008500CRESCENT1 CUS0026599          00200000000000                Z SUJEE                                                                              
013L5020210224000271250655000006277192656900000008500CRESCENT1 CUS0038708          01200000000000                S LAWRENCE                                                                           
013L5020210224000107200109000006235794154300000008500CRESCENT1 CUS0048495          01200000000000                L BEDDERSON                                                                          
013L5020210224000352198765000000115190579800000008500CRESCENT1 CUS0050962          00200000000000                I PETERSEN                                                                           
013L5020210224000694250537000006251549195000000008500CRESCENT1 CUS0044643          00200000000000                E NDAMASE                                                                            
013L5020210224000320254905000006261132496400000008500CRESCENT1 CUS0050780          01200000000000                J BAKHARIA                                                                           
013L5020210224000153200612000006257482867300000016000CRESCENT1 CUS0057434          01200000000000                A LATIEF                                                                             
013L5020210224000596198765000000112360792300000008500CRESCENT1 CUS0053232          00200000000000                Y KAREEM                                                                             
013L5020210224000460198765000000105324055400000007500CRESCENT1 CUS0051875          02600000000000                F ROSKIN                                                                             
013L5020210224000170250045000006213837314700000008500CRESCENT1 CUS0000782          00200000000000                M HAFFEJEE                                                                           
013L5020210224000325250655000006273817605800000008500CRESCENT1 CUS0058490          00200000000000                F SASMAN                                                                             
013L5020210224000176250555000006262561989800000008500CRESCENT1 CUS0049259          01200000000000                W ABRAHAMS                                                                           
013L5020210224000391198765000000105041710000000008500CRESCENT1 CUS0041413          00200000000000                E PARKER                                                                             
013L5020210224000006198765000000115687883700000008500CRESCENT1 CUS0056065          01200000000000                S DAVIDS                                                                             
013L5020210224000756198765000000101625000200000008500CRESCENT1 CUS0021674          00600000000000                S AUGUST                                                                             
013L5020210224000650250655000006270282895800000008500CRESCENT1 CUS0053769          00200000000000                L BEIS                                                                               
013L5020210224000247254605000006235206410000000016000CRESCENT1 CUS0038365          00200000000000                N SMITH                                                                              
013L5020210224000791198765000000108129059500000008500CRESCENT1 CUS0055365          01200000000000                F  ABRAHAMS                                                                          
013L5020210224000155250205000006223794006100000008500CRESCENT1 CUS0048937          01200000000000                H LUQMAN                                                                             
013L5020210224000236200810000005135003831600000008500CRESCENT1 CUS0049720          00200000000000                A DAMOND                                                                             
013L5020210224000468200909000006242785419700000008500CRESCENT1 CUS0051962          00200000000000                F AHMED                                                                              
013L5020210224000297250655000006275991844700000008500CRESCENT1 CUS0058309          01200000000000                S ADAMS                                                                              
013L5020210224000677250141000006210045984200000007500CRESCENT1 CUS0054217          00200000000000                A KHAN                                                                               
013L5020210224000831051001000000025048978300000008500CRESCENT1 CUS0027079          03600000000000                F HASSIM                                                                             
013L5020210224000039203209000006248932195200000008500CRESCENT1 CUS0056623          01200000000000                S ABRAHAMS                                                                           
013L5020210224000037252245000006209152273200000008500CRESCENT1 CUS0032376          00200000000000                S ADAM                                                                               
013L5020210224000523250645000005104002031800000008500CRESCENT1 CUS0042666          00200000000000                R SULIMAN                                                                            
013L5020210224000444250655000006268610528200000008500CRESCENT1 CUS0051653          00600000000000                M ROSENBERG                                                                          
013L5020210224000668250141000006252659132700000008500CRESCENT1 CUS0053898          00200000000000                R MOHAMMED                                                                           
013L5020210224000029250409000006247312254800000008500CRESCENT1 CUS0047355          01200000000000                C HASSIM                                                                             
013L5020210224000042198765000000103248980400000008500CRESCENT1 CUS0056626          00200000000000                L HILL                                                                               
013L5020210224000548256205000006211815227200000008500CRESCENT1 CUS0052801          00200000000000                R KHAN                                                                               
013L5020210224000030200607000006229308771600000008500CRESCENT1 CUS0056518          00600000000000                F AZIZ                                                                               
013L5020210224000083200109000006209671820300000008500CRESCENT1 CUS0048197          00200000000000                F AMIEN                                                                              
013L5020210224000398230145000006222837407100000008500CRESCENT1 CUS0008085          00200000000000                I KAJEE                                                                              
013L5020210224000725250655000006269266795300000008500CRESCENT1 CUS0054663          01200000000000                K ABRAHAMS                                                                           
013L5020210224000729255355000006236167842100000008500CRESCENT1 CUS0020772          01200000000000                S SALIE                                                                              
013L5020210224000291250845000006253537834400000007500CRESCENT1 CUS0038989          00400000000000                N MOOLOO                                                                             
013L5020210224000151211617000006225733411100000016000CRESCENT1 CUS0036019          00200000000000                M NORDIEN                                                                            
014L0000000560000000000000022356446814920000000054800000000000000000                                                                                                                                  
011LD23763200500000040945448920120210227                                                                                                                                                              
013L5020210226003482632005000000905134146800000008500CRESCENT1 CUS0031526          01200012003482                M ADAM                                                                               
013L5020210226001672632005000000909250300900000008500CRESCENT1 CUS0043076          00200016001672                B AYOB                                                                               
013L5020210226001057632005000000933203208900000008500CRESCENT1 CUS0059561          00200016001057                R DAVIS                                                                              
013L5020210226000996632005000000407352949100000008500CRESCENT1 CUS0009056          01200000000996                S KHAN                                                                               
013L5020210226003295632005000000926142011900000008500CRESCENT1 CUS0037279          00200016003295                A FALTEIN                                                                            
013L5020210226005950632005000000927494801700000008500CRESCENT1 CUS0052622          00200016005950                Z STEENBERG                                                                          
013L5020210226005692632005000000408730097800000008500CRESCENT1 CUS0029497          00300000005692                S MOTALA                                                                             
013L5020210226004810632005000000904507000500000007500CRESCENT1 CUS0048221          01800000004810                A BOOMGAARD                                                                          
013L5020210226005232632005000000920979646300000016000CRESCENT1 CUS0033149          00200016005232                A ABRAMS                                                                             
013L5020210226003909632005000000924539399400000008500CRESCENT1 CUS0042569          00200016003909                I SALEH                                                                              
013L5020210226001441580105000001001150253100000008500CRESCENT1 CUS0022593          01200000000000                S HOOSEN                                                                             
013L5020210226004335632005000000408305943000000008500CRESCENT1 CUS0048042          90300000004335                R WILLIAMS                                                                           
013L5020210226002039632005000000917251105100000016000CRESCENT1 CUS0018660          01200012002039                F KHOTA                                                                              
013L5020210226004211632005000000929306239900000008500CRESCENT1 CUS0052642          00492802004211                L SAMPSON                                                                            
013L5020210226004237632005000000934716316000000008500CRESCENT1 CUS0057240          00200016004237                S HERBERT                                                                            
013L5020210226005441632005000000062892641700000008500CRESCENT1 CUS0024719          00200016005441                N LOTTERING                                                                          
013L5020210226004337632005000000409055852800000008500CRESCENT1 CUS0057271          00492802004337                S CHARLES                                                                            
013L5020210226005707632005000000405273960300000008500CRESCENT1 CUS0033490          90300000005707                Z CHRISTIAN                                                                          
013L5020210226002009632005000000408661292800000008500CRESCENT1 CUS0040963          90300000002009                I MOOSA                                                                              
013L5020210226004776632005000000409402472300000008500CRESCENT1 CUS0054952          90300000004776                Y HASSEN                                                                             
013L5020210226006123632005000000928160721200000008500CRESCENT1 CUS0048274          00200016006123                M JAKOET                                                                             
013L5020210226002034632005000000406002470900000006900CRESCENT1 CUS0040980          00200016002034                M LILLAH                                                                             
013L5020210226000756580105000001001139148300000008500CRESCENT1 CUS0036178          01200000000000                M MOOSA                                                                              
013L5020210226005308632005000000921062929700000008500CRESCENT1 CUS0038424          00492802005308                U YUNUS                                                                              
013L5020210226005286632005000000911926373400000008500CRESCENT1 CUS0053558          00200016005286                T DE VILLIERS                                                                        
013L5020210226001470632005000000913232055700000016000CRESCENT1 CUS0036509          00200016001470                A LIVINGSTONE                                                                        
013L5020210226004294632005000000913840177500000016000CRESCENT1 CUS0035097          01200000004294                F SALASA                                                                             
013L5020210226000875632005000000920031503400000008500CRESCENT1 CUS0059534          00300040000875                I SONDAY                                                                             
013L5020210226003988632005000000929980862400000008500CRESCENT1 CUS0059027          00300040003988                H HEBERT                                                                             
013L5020210226000198632005000000405366649100000008500CRESCENT1 CUS0054697          00300000000198                E GAMIET                                                                             
013L5020210226005259632005000000406137037500000008500CRESCENT1 CUS0043615          01800000005259                M DOLLEY                                                                             
013L5020210226000499632005000000930354862900000006900CRESCENT1 CUS0058130          00200016000499                F SALIE                                                                              
013L5020210226000264632005000000915329245800000008500CRESCENT1 CUS0057389          90300000000264                M BULL                                                                               
013L5020210226003426632005000000910418434100000008500CRESCENT1 CUS0054371          00200016003426                M SLAMDIN                                                                            
013L5020210226001898632005000000930794319200000008500CRESCENT1 CUS0046115          90300000001898                T MIA                                                                                
013L5020210226005344580105000001001133592200000016000CRESCENT1 CUS0035471          00600000000000                A ESSA                                                                               
013L5020210226000169632005000000919376444500000008500CRESCENT1 CUS0033991          00200016000169                S ABRAHAMS                                                                           
013L5020210226001304632005000000934396649500000008500CRESCENT1 CUS0059408          03092801001304                S CHIPLUNKAR                                                                         
013L5020210226004865632005000000407509412700000016000CRESCENT1 CUS0021126          01200000004865                H MOTALA                                                                             
013L5020210226006367632005000000919944646700000008500CRESCENT1 CUS0030169          00200016006367                S ISMAIL                                                                             
013L5020210226000043632005000000405828551100000007500CRESCENT1 CUS0027039          01200000000043                Z BHAROOCHI                                                                          
013L5020210226001460580105000001001163485900000008500CRESCENT1 CUS0045674          01200000000000                N ADAM                                                                               
013L5020210226006096632005000000922071176700000008500CRESCENT1 CUS0041999          00200016006096                S PETERSEN                                                                           
013L5020210226000848632005000000931333980400000008500CRESCENT1 CUS0055159          00300000000848                F BAATJIES                                                                           
013L5020210226004963632005000000409784700100000008500CRESCENT1 CUS0059202          00300000004963                A BUSCH                                                                              
013L5020210226005602632005000000906750952700000008500CRESCENT1 CUS0057135          00200016005602                N MOOLA                                                                              
013L5020210226002075632005000000906660672400000008500CRESCENT1 CUS0051604          00200016002075                D PATTON                                                                             
013L5020210226006037632005000000409902677000000008500CRESCENT1 CUS0057911          90300000006037                A RYLANDS                                                                            
013L5020210226004636632005000000930252399900000008500CRESCENT1 CUS0053144          00300000004636                A AFZAL                                                                              
013L5020210226005606632005000000925058392200000008500CRESCENT1 CUS0026511          00200016005606                R CAJEE                                                                              
013L5020210226000567632005000000905065444800000014400CRESCENT1 CUS0020308          00200016000567                H LILLAH                                                                             
013L5020210226005592632005000000911047057200000008500CRESCENT1 CUS0029452          00200016005592                P TSOTETSI                                                                           
013L5020210226004790632005000000404800596300000008500CRESCENT1 CUS0021102          90300000004790                S DESAI                                                                              
013L5020210226000864632005000000931478060000000008500CRESCENT1 CUS0057566          00300000000864                Z DAVIDS                                                                             
013L5020210226001612632005000000908816156800000008500CRESCENT1 CUS0055737          00200016001612                T TOFIE                                                                              
013L5020210226003966632005000000913026334100000008500CRESCENT1 CUS0023998          00200016003966                M SEEDAT                                                                             
013L5020210226005064632005000000001353620100000008500CRESCENT1 CUS0019460          00200016005064                A SEEDAT                                                                             
013L5020210226003110632005000000406737835300000008500CRESCENT1 CUS0047067          00300000003110                S JADWAT                                                                             
013L5020210226003362632005000005301456356400000008500CRESCENT1 CUS0056847          00200016003362                R VANDERSART                                                                         
013L5020210226003923632005000000921534624400000008500CRESCENT1 CUS0047191          03092801003923                A KAZI                                                                               
013L5020210226001161632005000000935980425100000008500CRESCENT1 CUS0059574          00200016001161                R TALIEP                                                                             
013L5020210226006011632005000000408034279700000008500CRESCENT1 CUS0054224          00300000006011                O SOLOMONS                                                                           
013L5020210226001550632005000000918860375500000008500CRESCENT1 CUS0051437          00200016001550                E HAYWOOD                                                                            
013L5020210226001721632005000000915652527600000008500CRESCENT1 CUS0039939          00200016001721                F JOHNSON                                                                            
013L5020210226005896632005000000922982066800000008500CRESCENT1 CUS0041944          00200016005896                I KADER                                                                              
013L5020210226001292632005000000916995588400000008500CRESCENT1 CUS0026234          01200000001292                M BROOD                                                                              
013L5020210226004231632005000000929767930800000008500CRESCENT1 CUS0025266          00200016004231                B GOONDIE                                                                            
013L5020210226002843580105000001001155373700000016000CRESCENT1 CUS0031397          01200000000000                I LIMALIA                                                                            
013L5020210226000268632005000000920601414300000016000CRESCENT1 CUS0027300          00300000000268                R THEYS                                                                              
013L5020210226003598632005000000924866636600000007500CRESCENT1 CUS0047102          03092801003598                Y SAYED                                                                              
013L5020210226005170632005000000921727508500000038500CRESCENT1 CUS0038231          03092801005170                N GOWRIE                                                                             
013L5020210226004711632005000000408788313200000008500CRESCENT1 CUS0053188          01200000004711                A MOOSA                                                                              
013L5020210226004308632005000000912979530100000008500CRESCENT1 CUS0037369          00200016004308                A DAVIDS                                                                             
014L0000000730000000000000006097200222110000000071020000000000000000                                                                                                                                  
011LD23763200500000040945448920120210301                                                                                                                                                              
013L5020210227000110632005000690322004108000000071910NEWYOU    1614259832R19       02683002000110                SUZANNE GREEN                                                                        
014L0000000010000000000000069032200410800000000007191000000000000000                                                                                                                                  
019L0000001350000000000000098307183561720000000138761000000000000000                                                                                                                                  
010LD237000013908                                                                                                                                                                                     
011LD23763200500000040945448920120210127                                                                                                                                                              
013L5020210127001344632005000000934396649500000008500CRESCENT1 CUS0059408          03092801001344                S CHIPLUNKAR                                                                         
013L5020210127000056632005000000408077340700000008500CRESCENT1 CUS0039055          03492801000056                K KADER                                                                              
014L0000000020000000000000000134247399020000000001700000000000000000                                                                                                                                  
019L0000000020000000000000000134247399020000000001700000000000000000                                                                                                                                  
999L000000159                                                                                                                                                                                         
