000L2020111300000PAYPORT CONSULTING PTY LTD EFT000050207303                                                                                                                                           
010LD237000003501                                                                                                                                                                                     
011LD23763200500000040945448920120201021                                                                                                                                                              
013L5020201020000064632005000000930258876900000006900CRESCENT1 1603195658OCUS00589103092801000064                S KRIEL                                                                              
014L0000000010000000000000000093025887690000000000690000000000000000                                                                                                                                  
019L0000000010000000000000000093025887690000000000690000000000000000                                                                                                                                  
999L000000007                                                                                                                                                                                         
