000L2020042500000PAYPORT CONSULTING PTY LTD EFT000028307303                                                                                                                                           
010LD237000001001                                                                                                                                                                                     
011LD23763200500000040945448920120200415                                                                                                                                                              
013L5020200414000001632005000000405859773200000000500PAYPORT   SOME LOAN           03492801000001                PAYPORTSA                                                                            
014L0000000010000000000000000040585977320000000000050000000000000000                                                                                                                                  
011LD23763200500000040945448920120200423                                                                                                                                                              
013L5020200421000013470010000000112608063000000000500PAYPORT   O20200421150139-29  01200000000000                CHEREEN MULLER                                                                       
014L0000000010000000000000000011260806300000000000050000000000000000                                                                                                                                  
019L0000000020000000000000000051846783620000000000100000000000000000                                                                                                                                  
010LD237000001103                                                                                                                                                                                     
011LD23763200500000040945448920120200424                                                                                                                                                              
013L5020200421000021470010000000112608063000000000500PAYPORT   O20200421150139-36  01200000000000                CHEREEN MULLER                                                                       
014L0000000010000000000000000011260806300000000000050000000000000000                                                                                                                                  
019L0000000010000000000000000011260806300000000000050000000000000000                                                                                                                                  
010LD237000001208                                                                                                                                                                                     
011LD23763200500000040945448920120200422                                                                                                                                                              
013L5020200421000009250555000006237617809400000000100PAYPORT   O20200421150139-26  01200000000000                PAYPORT CONSULTING                                                                   
013L5020200421000006250555000006237617809400000000400PAYPORT   O20200421150139-23  01200000000000                PAYPORT CONSULTING                                                                   
013L5020200421000003632005000000405859773200000000700PAYPORT   O20200421150138-20  03492801000003                PAYPORTSA                                                                            
014L0000000030000000000000001288109539200000000000120000000000000000                                                                                                                                  
019L0000000030000000000000001288109539200000000000120000000000000000                                                                                                                                  
999L000000022                                                                                                                                                                                         
