000L2021010500000PAYPORT CONSULTING PTY LTD EFT000057307303                                                                                                                                           
010LD237000006908                                                                                                                                                                                     
011LD23763200500000040945448920120201231                                                                                                                                                              
013L5020201231000047251905000006203644118700000025000ABSOLIT   1609163107RMS002    00200000000000                MARY SAMSON                                                                          
013L5020201231000060258624000006219160370500000025000ABSOLIT   1609163107RRAEESK00100200000000000                RAEES KAMAAR                                                                         
013L5020201231000018258624000006219160370500000050000ABSOLIT   1609163107RKB001    00200000000000                KAYLEEN BOAS                                                                         
013L5020201231000059250805000006259298958000000025000ABSOLIT   1609163107RCB001    00200000000000                CRYSANNE BAYNES                                                                      
013L5020201231000042252805000006234127259000000025000ABSOLIT   1609163107RLP001    00200000000000                LLEWELLYN PALMER                                                                     
013L5020201231000033251705000006231037121600000025000ABSOLIT   1609163107RBM001    00200000000000                BRENT MORDAUNT                                                                       
013L5020201231000029250141000006249490079100000025000ABSOLIT   1609163107RJT001    00200000000000                JUDE THOMAS                                                                          
014L0000000070000000000000004361591827740000000020000000000000000000                                                                                                                                  
019L0000000070000000000000004361591827740000000020000000000000000000                                                                                                                                  
999L000000013                                                                                                                                                                                         
