000L2021032400000PAYPORT CONSULTING PTY LTD    000068507303                                                                                                                                           
900L000 TRANSMISSION 07303-0000077 ACCEPTED                                                                                                                                                           
900L001 ACB USER SET D237-0000083-000879 ACCEPTED                                                                                                                                                     
903L001L5063200504094544892D23700000125065562025561508100000016000210325350   CRESCENT1 CUS0008789          F MOOLLA                      00000000000000000000                21                      
903L001L5063200504094544892D23700000205100100401413403100000008500210325350   CRESCENT1 CUS0041757          M SUBJEE                      00000000000000000000                21                      
903L001L5063200504094544892D23700000305100100073384313100000008500210325350   CRESCENT1 CUS0051436          M GALLIE                      00000000000000000000                21                      
903L001L5063200504094544892D23700000447001001313701716200000006900210325350   CRESCENT1 CUS0059078          F HARDING                     00000000000000000000                21                      
903L001L5063200504094544892D23700000505100100332685020100000014400210325350   CRESCENT1 CUS0009066          E FAKIR                       00000000000000000000                21                      
903L001L5063200504094544892D23700000625065560528466663100000008500210325350   CRESCENT1 CUS0041774          R ADAMS                       00000000000000000000                21                      
903L001L5063200504094544892D23700000705100100009237550100000008500210325350   CRESCENT1 CUS0051501          T MOOSA                       00000000000000000000                21                      
903L001L5063200504094544892D23700000819876501956822283100000016000210325350   CRESCENT1 CUS0059086          E ISAACS                      00000000000000000000                21                      
903L001L5063200504094544892D23700000925065562799172483100000008500210325350   CRESCENT1 CUS0009090          R DAVIDS                      00000000000000000000                21                      
903L001L5063200504094544892D23700001005100100071989145100000008500210325350   CRESCENT1 CUS0041871          A HALDAY                      00000000000000000000                21                      
903L001L5063200504094544892D23700001105100100070763755100000016000210325350   CRESCENT1 CUS0051522          M SADIE                       00000000000000000000                21                      
903L001L5063200504094544892D23700001225065562028757964100000006900210325350   CRESCENT1 CUS0059138          A SABLAY                      00000000000000000000                21                      
903L001L5063200504094544892D23700001325065562110703354100000016000210325350   CRESCENT1 CUS0009550          G ABRAHAMS                    00000000000000000000                21                      
903L001L5063200504094544892D23700001425065554939007968100000007500210325350   CRESCENT1 CUS0041896          F ZARDAD                      00000000000000000000                21                      
903L001L5063200504094544892D23700001525065562686105282100000008500210325350   CRESCENT1 CUS0051653          M ROSENBERG                   00000000000000000000                21                      
903L001L5063200504094544892D23700001647001001288637207200000016000210325350   CRESCENT1 CUS0059139          M KIPPIE                      00000000000000000000                21                      
903L001L5063200504094544892D23700001719876501066035482100000008500210325350   CRESCENT1 CUS0009791          J FARRED                      00000000000000000000                21                      
903L001L5063200504094544892D23700001805100100021707731100000016000210325350   CRESCENT1 CUS0041936          E KHAMISSA                    00000000000000000000                21                      
903L001L5063200504094544892D23700001905100100240415051100000008500210325350   CRESCENT1 CUS0051674          S SALLIE                      00000000000000000000                21                      
903L001L5063200504094544892D23700002025065562655689704100000008500210325350   CRESCENT1 CUS0059141          Z MATTHEWS                    00000000000000000000                21                      
903L001L5063200504094544892D23700002125065562328109667100000008500210325350   CRESCENT1 CUS0009877          F TAYOB                       00000000000000000000                21                      
903L001L5063200504094544892D23700002205100100273238795100000008500210325350   CRESCENT1 CUS0041959          E MOTARA                      00000000000000000000                21                      
903L001L5063200504094544892D23700002319876501087306299100000008500210325350   CRESCENT1 CUS0051817          F MAXINIVA                    00000000000000000000                21                      
903L001L5063200504094544892D23700002447001001338690289200000007500210325350   CRESCENT1 CUS0059154          K KIMMIE                      00000000000000000000                21                      
903L001L5063200504094544892D23700002525065550499168604100000023500210325350   CRESCENT1 CUS0010380          H PAULSE                      00000000000000000000                21                      
903L001L5063200504094544892D23700002605100100052820092100000006900210325350   CRESCENT1 CUS0041961          M SHA                         00000000000000000000                21                      
903L001L5063200504094544892D23700002705100100300632584100000008500210325350   CRESCENT1 CUS0051833          F DEMPERS                     00000000000000000000                21                      
903L001L5063200504094544892D23700002847001001248367578200000008500210325350   CRESCENT1 CUS0059159          R SAMSODIEN                   00000000000000000000                21                      
903L001L5063200504094544892D23700002905100100060020563100000016000210325350   CRESCENT1 CUS0010385          M AMODJEE                     00000000000000000000                21                      
903L001L5063200504094544892D23700003005100100072801867100000008500210325350   CRESCENT1 CUS0042106          S BUZIEK                      00000000000000000000                21                      
903L001L5063200504094544892D23700003119876501053240554100000007500210325350   CRESCENT1 CUS0051875          F ROSKIN                      00000000000000000000                21                      
903L001L5063200504094544892D23700003247001001366513809200000008500210325350   CRESCENT1 CUS0059163          S TOYER                       00000000000000000000                21                      
903L001L5063200504094544892D23700003305100100001617966100000008500210325350   CRESCENT1 CUS0010495          N JABAAR                      00000000000000000000                21                      
903L001L5063200504094544892D23700003425065550429304351100000008500210325350   CRESCENT1 CUS0042211          N BAGUS                       00000000000000000000                21                      
903L001L5063200504094544892D23700003519876501051656508100000008500210325350   CRESCENT1 CUS0051960          R MIA                         00000000000000000000                21                      
903L001L5063200504094544892D23700003625065562000816712100000008500210325350   CRESCENT1 CUS0059167          S COETZEE                     00000000000000000000                21                      
903L001L5063200504094544892D23700003763200504076927898100000008500210325350   CRESCENT1 CUS0010575          M LAHER                       00000000000000000000                21                      
903L001L5063200504094544892D23700003819876502984363078200000008500210325350   CRESCENT1 CUS0042256          D ROBERTS                     00000000000000000000                21                      
903L001L5063200504094544892D23700003925065562182432478100000008500210325350   CRESCENT1 CUS0051974          A ISMAIL                      00000000000000000000                21                      
903L001L5063200504094544892D23700004005100100277627222100000008500210325350   CRESCENT1 CUS0059176          I SAFTER                      00000000000000000000                21                      
903L001L5063200504094544892D23700004125065562185791483100000016000210325350   CRESCENT1 CUS0010807          M OSMAN                       00000000000000000000                21                      
903L001L5063200504094544892D23700004205100100420293388100000008500210325350   CRESCENT1 CUS0042291          S MOHAMMED                    00000000000000000000                21                      
903L001L5063200504094544892D23700004325065554240012656100000008500210325350   CRESCENT1 CUS0052020          G CHICKTAY                    00000000000000000000                21                      
903L001L5063200504094544892D23700004419876501160515212100000008500210325350   CRESCENT1 CUS0059187          Y JUDAAR                      00000000000000000000                21                      
903L001L5063200504094544892D23700004525065562374549817100000016000210325350   CRESCENT1 CUS0010943          M DANIELS                     00000000000000000000                21                      
903L001L5063200504094544892D23700004625065562408142834100000016000210325350   CRESCENT1 CUS0042301          S LOONAT                      00000000000000000000                21                      
903L001L5063200504094544892D23700004747001001387103081200000016000210325350   CRESCENT1 CUS0052045          A SEDAN                       00000000000000000000                21                      
903L001L5063200504094544892D23700004825065562446732499100000008500210325350   CRESCENT1 CUS0059191          M SEPTEMBER                   00000000000000000000                21                      
903L001L5063200504094544892D23700004905100110132575920100000038500210325350   CRESCENT1 CUS0010948          A ARENDZE                     00000000000000000000                21                      
903L001L5063200504094544892D23700005025065562418864395100000008500210325350   CRESCENT1 CUS0042426          Y HAJEE                       00000000000000000000                21                      
903L001L5063200504094544892D23700005119876501050620771100000016000210325350   CRESCENT1 CUS0052051          J SCHIPPERS                   00000000000000000000                21                      
903L001L5063200504094544892D23700005247001001245220169200000008500210325350   CRESCENT1 CUS0059194          A ARENDSE                     00000000000000000000                21                      
903L001L5063200504094544892D23700005305100100001626345100000008500210325350   CRESCENT1 CUS0011035          F VALLY                       00000000000000000000                21                      
903L001L5063200504094544892D23700005463200504059070989100000008500210325350   CRESCENT1 CUS0042445          Y ARENDSE                     00000000000000000000                21                      
903L001L5063200504094544892D23700005547001001158799495200000008500210325350   CRESCENT1 CUS0052057          R SONDAY                      00000000000000000000                21                      
903L001L5063200504094544892D23700005663200509192461822100000008500210325350   CRESCENT1 CUS0059224          N HENDRICKS                   00000000000000000000                21                      
903L001L5063200504094544892D23700005725065560244231960100000008500210325350   CRESCENT1 CUS0011043          I SULIMAN                     00000000000000000000                21                      
903L001L5063200504094544892D23700005819876501136061347100000008500210325350   CRESCENT1 CUS0042485          G YUSUF                       00000000000000000000                21                      
903L001L5063200504094544892D23700005905100100081472625100000008500210325350   CRESCENT1 CUS0052060          F AMARDIEN                    00000000000000000000                21                      
903L001L5063200504094544892D23700006019876501092619976100000008500210325350   CRESCENT1 CUS0059227          Z TOYER                       00000000000000000000                21                      
903L001L5063200504094544892D23700006147001001376433239200000008500210325350   CRESCENT1 CUS0011122          N MOOSA                       00000000000000000000                21                      
903L001L5063200504094544892D23700006263200509280547472100000008500210325350   CRESCENT1 CUS0042486          S FRANKS                      00000000000000000000                21                      
903L001L5063200504094544892D23700006347001001449462195200000008500210325350   CRESCENT1 CUS0052258          A ADAMS                       00000000000000000000                21                      
903L001L5063200504094544892D23700006446200510284031301200000008500210325350   CRESCENT1 CUS0059230          R DE VRIES                    00000000000000000000                21                      
903L001L5063200504094544892D23700006525065562646690348100000031000210325350   CRESCENT1 CUS0011239          M AKHALWAYA                   00000000000000000000                21                      
903L001L5063200504094544892D23700006663200504053214797100000008500210325350   CRESCENT1 CUS0042488          A ESSOP                       00000000000000000000                21                      
903L001L5063200504094544892D23700006719876501017702942100000008500210325350   CRESCENT1 CUS0052302          N JACOBS                      00000000000000000000                21                      
903L001L5063200504094544892D23700006847001001405863488200000008500210325350   CRESCENT1 CUS0059240          A PARI                        00000000000000000000                21                      
903L001L5063200504094544892D23700006925065562074187834100000008500210325350   CRESCENT1 CUS0011529          N HAMILTON                    00000000000000000000                21                      
903L001L5063200504094544892D23700007063200504056103147100000008500210325350   CRESCENT1 CUS0042554          S TOTA                        00000000000000000000                21                      
903L001L5063200504094544892D23700007105100100270749519100000008500210325350   CRESCENT1 CUS0052314          L KHAN                        00000000000000000000                21                      
903L001L5063200504094544892D23700007263200504096454057100000008500210325350   CRESCENT1 CUS0059266          M JACOBS                      00000000000000000000                21                      
903L001L5063200504094544892D23700007363200504069589023100000008500210325350   CRESCENT1 CUS0011590          S RAZAK                       00000000000000000000                21                      
903L001L5063200504094544892D23700007425065551130030574100000008500210325350   CRESCENT1 CUS0042570          G KHAN                        00000000000000000000                21                      
903L001L5063200504094544892D23700007563200504091989920100000008500210325350   CRESCENT1 CUS0052319          R GEORGE                      00000000000000000000                21                      
903L001L5063200504094544892D23700007625065562553505846100000008500210325350   CRESCENT1 CUS0059274          M KARRIEM                     00000000000000000000                21                      
903L001L5063200504094544892D23700007725065562233037119100000016000210325350   CRESCENT1 CUS0011642          Y ISMAIL                      00000000000000000000                21                      
903L001L5063200504094544892D23700007819876501352047497100000008500210325350   CRESCENT1 CUS0042584          M KHAN                        00000000000000000000                21                      
903L001L5063200504094544892D23700007925065562513386856100000008500210325350   CRESCENT1 CUS0052478          W OMAR                        00000000000000000000                21                      
903L001L5063200504094544892D23700008019876501128183838100000008500210325350   CRESCENT1 CUS0059300          N DE VILLIERS                 00000000000000000000                21                      
903L001L5063200504094544892D23700008105100100242507077100000008500210325350   CRESCENT1 CUS0011881          N PARAZE                      00000000000000000000                21                      
903L001L5063200504094544892D23700008205100100060456558100000008500210325350   CRESCENT1 CUS0042636          A EBRAHIM                     00000000000000000000                21                      
903L001L5063200504094544892D23700008305100110091807768100000008500210325350   CRESCENT1 CUS0052542          A TALIEP                      00000000000000000000                21                      
903L001L5063200504094544892D23700008447001001579670472200000008500210325350   CRESCENT1 CUS0059345          T SALIE                       00000000000000000000                21                      
903L001L5063200504094544892D23700008505100100002224615100000008500210325350   CRESCENT1 CUS0012017          A PATEL                       00000000000000000000                21                      
903L001L5063200504094544892D23700008625065551040020318100000008500210325350   CRESCENT1 CUS0042666          R SULIMAN                     00000000000000000000                21                      
903L001L5063200504094544892D23700008705100100070204071100000008500210325350   CRESCENT1 CUS0052544          B LEWIS                       00000000000000000000                21                      
903L001L5063200504094544892D23700008847001001572664493200000008500210325350   CRESCENT1 CUS0059356          R GEORGE                      00000000000000000000                21                      
903L001L5063200504094544892D23700008925065562653828742100000008500210325350   CRESCENT1 CUS0012094          M SALEY                       00000000000000000000                21                      
903L001L5063200504094544892D23700009063200504044332592100000008500210325350   CRESCENT1 CUS0042673          M ABRAHAMS                    00000000000000000000                21                      
903L001L5063200504094544892D23700009105100100054339472100000008500210325350   CRESCENT1 CUS0052555          F SOOKDER                     00000000000000000000                21                      
903L001L5063200504094544892D23700009205100110140385493100000008500210325350   CRESCENT1 CUS0059363          F DAVIDS                      00000000000000000000                21                      
903L001L5063200504094544892D23700009325065562533090156100000008500210325350   CRESCENT1 CUS0012122          S ADAMJEE                     00000000000000000000                21                      
903L001L5063200504094544892D23700009463200504071263130100000008500210325350   CRESCENT1 CUS0042760          M FORBES                      00000000000000000000                21                      
903L001L5063200504094544892D23700009547001001310579065200000008500210325350   CRESCENT1 CUS0052562          T BRAMDER                     00000000000000000000                21                      
903L001L5063200504094544892D23700009647001001618589200200000008500210325350   CRESCENT1 CUS0059370          I SALASA                      00000000000000000000                21                      
903L001L5063200504094544892D23700009763200538160120093100000016000210325350   CRESCENT1 CUS0012281          A BORMAN                      00000000000000000000                21                      
903L001L5063200504094544892D23700009825065562020128478100000008500210325350   CRESCENT1 CUS0042784          M JOOMA                       00000000000000000000                21                      
903L001L5063200504094544892D23700009925065562871655852100000023500210325350   CRESCENT1 CUS0052580          F KARRIEM                     00000000000000000000                21                      
903L001L5063200504094544892D23700010025065551330807319100000008500210325350   CRESCENT1 CUS0059383          R FIRFIREY                    00000000000000000000                21                      
903L001L5063200504094544892D23700010125065562416207068100000008500210325350   CRESCENT1 CUS0012926          S SULIMAN                     00000000000000000000                21                      
903L001L5063200504094544892D23700010247001001257384226200000008500210325350   CRESCENT1 CUS0042789          S PANDAY                      00000000000000000000                21                      
903L001L5063200504094544892D23700010363200504093715559100000008500210325350   CRESCENT1 CUS0052602          A WATSON                      00000000000000000000                21                      
903L001L5063200504094544892D23700010447001001516846700200000008500210325350   CRESCENT1 CUS0059418          T KARIEM                      00000000000000000000                21                      
903L001L5063200504094544892D23700010563200504052510316100000016000210325350   CRESCENT1 CUS0013071          A ALLY                        00000000000000000000                21                      
903L001L5063200504094544892D23700010625065562439757321100000008500210325350   CRESCENT1 CUS0042794          R SALLIE                      00000000000000000000                21                      
903L001L5063200504094544892D23700010725065562531223957100000008500210325350   CRESCENT1 CUS0052606          A KRIEL                       00000000000000000000                21                      
903L001L5063200504094544892D23700010819876501169924697100000006900210325350   CRESCENT1 CUS0059448          R ABRAHAMS                    00000000000000000000                21                      
903L001L5063200504094544892D23700010905100100002549255100000008500210325350   CRESCENT1 CUS0013094          M SALEY                       00000000000000000000                21                      
903L001L5063200504094544892D23700011005100100206002335100000015000210325350   CRESCENT1 CUS0042892          R MOTALA                      00000000000000000000                21                      
903L001L5063200504094544892D23700011147001001160797488200000008500210325350   CRESCENT1 CUS0052610          N CORNELIUS                   00000000000000000000                21                      
903L001L5063200504094544892D23700011247001001307305626200000008500210325350   CRESCENT1 CUS0059459          L EKSTEEN                     00000000000000000000                21                      
903L001L5063200504094544892D23700011325065562521699647100000008500210325350   CRESCENT1 CUS0013155          O ABDULLAH                    00000000000000000000                21                      
903L001L5063200504094544892D23700011405100162530102334100000008500210325350   CRESCENT1 CUS0042905          S SHAHID                      00000000000000000000                21                      
903L001L5063200504094544892D23700011563200504085238905100000008500210325350   CRESCENT1 CUS0052814          F DASS                        00000000000000000000                21                      
903L001L5063200504094544892D23700011647001001476977044200000008500210325350   CRESCENT1 CUS0059461          N HALIEM                      00000000000000000000                21                      
903L001L5063200504094544892D23700011719876501087157099100000016000210325350   CRESCENT1 CUS0013160          F PATEL                       00000000000000000000                21                      
903L001L5063200504094544892D23700011825065562430195447100000008500210325350   CRESCENT1 CUS0042910          F KHAN                        00000000000000000000                21                      
903L001L5063200504094544892D23700011919876501088196128100000008500210325350   CRESCENT1 CUS0052882          Z JAPPIE                      00000000000000000000                21                      
903L001L5063200504094544892D23700012047001001566296321200000008500210325350   CRESCENT1 CUS0059464          R SAFODIEN                    00000000000000000000                21                      
903L001L5063200504094544892D23700012163200509064727679100000016000210325350   CRESCENT1 CUS0013221          F KHAN                        00000000000000000000                21                      
903L001L5063200504094544892D23700012205100100012134872100000008500210325350   CRESCENT1 CUS0042939          Z DEVA                        00000000000000000000                21                      
903L001L5063200504094544892D23700012305100100275398099100000008500210325350   CRESCENT1 CUS0052897          H GELDERBLOEM                 00000000000000000000                21                      
903L001L5063200504094544892D23700012447001001640801896200000008500210325350   CRESCENT1 CUS0059474          F JOHNSON                     00000000000000000000                21                      
903L001L5063200504094544892D23700012563200504043700271100000008500210325350   CRESCENT1 CUS0013984          A EBRAHIM                     00000000000000000000                21                      
903L001L5063200504094544892D23700012663200504085073084100000016000210325350   CRESCENT1 CUS0042941          B SARLIE                      00000000000000000000                21                      
903L001L5063200504094544892D23700012725065562145887743100000008500210325350   CRESCENT1 CUS0052952          M DAWOOD                      00000000000000000000                21                      
903L001L5063200504094544892D23700012847001001343035846200000008500210325350   CRESCENT1 CUS0059482          Z MANUEL                      00000000000000000000                21                      
903L001L5063200504094544892D23700012958010510011302042100000008500210325350   CRESCENT1 CUS0013989          N OSMAN                       00000000000000000000                21                      
903L001L5063200504094544892D23700013063200504060115518100000008500210325350   CRESCENT1 CUS0042943          M AKRAM                       00000000000000000000                21                      
903L001L5063200504094544892D23700013125065562342147205100000008500210325350   CRESCENT1 CUS0053061          I BULBULIA                    00000000000000000000                21                      
903L001L5063200504094544892D23700013225065562858156112100000008500210325350   CRESCENT1 CUS0059497          R BROWN                       00000000000000000000                21                      
903L001L5063200504094544892D23700013346200507396171001200000008500210325350   CRESCENT1 CUS0014131          M SARANG                      00000000000000000000                21                      
903L001L5063200504094544892D23700013425065562706442663100000008500210325350   CRESCENT1 CUS0043028          B SMITH                       00000000000000000000                21                      
903L001L5063200504094544892D23700013505100100276271238100000016000210325350   CRESCENT1 CUS0053105          E AMARDIEN                    00000000000000000000                21                      
903L001L5063200504094544892D23700013625065562698099077100000008500210325350   CRESCENT1 CUS0059539          N TITUS                       00000000000000000000                21                      
903L001L5063200504094544892D23700013719876501081210028100000008500210325350   CRESCENT1 CUS0014524          H MAHOMED                     00000000000000000000                21                      
903L001L5063200504094544892D23700013805100100220401861100000008500210325350   CRESCENT1 CUS0043048          M ALLY                        00000000000000000000                21                      
903L001L5063200504094544892D23700013919876501201362377100000008500210325350   CRESCENT1 CUS0053137          N ABRAHAMS                    00000000000000000000                21                      
903L001L5063200504094544892D23700014063200504056669816100000007500210325350   CRESCENT1 CUS0059541          N GALIEM                      00000000000000000000                21                      
903L001L5063200504094544892D23700014119876501651238146100000008500210325350   CRESCENT1 CUS0014601          A KHAN                        00000000000000000000                21                      
903L001L5063200504094544892D23700014225065562205253660100000008500210325350   CRESCENT1 CUS0043098          R BIJOUX                      00000000000000000000                21                      
903L001L5063200504094544892D23700014363200504091855975100000008500210325350   CRESCENT1 CUS0053139          F RADEMEYER                   00000000000000000000                21                      
903L001L5063200504094544892D23700014447001001460571248200000008500210325350   CRESCENT1 CUS0059570          Y MODACK                      00000000000000000000                21                      
903L001L5063200504094544892D23700014519876501030484449100000008500210325350   CRESCENT1 CUS0014708          N KADER                       00000000000000000000                21                      
903L001L5063200504094544892D23700014647001001691795370200000008500210325350   CRESCENT1 CUS0043251          F BALLIM                      00000000000000000000                21                      
903L001L5063200504094544892D23700014747001001115297951200000008500210325350   CRESCENT1 CUS0053167          K ISMAIL                      00000000000000000000                21                      
903L001L5063200504094544892D23700014825065562822231057100000008500210325350   CRESCENT1 CUS0059577          L SALIE                       00000000000000000000                21                      
903L001L5063200504094544892D23700014925065562340366427100000008500210325350   CRESCENT1 CUS0014741          N KASSIM                      00000000000000000000                21                      
903L001L5063200504094544892D23700015047001001177583095200000008500210325350   CRESCENT1 CUS0043258          Y VALLY                       00000000000000000000                21                      
903L001L5063200504094544892D23700015105100100633620637100000014400210325350   CRESCENT1 CUS0053222          A ISMAIL                      00000000000000000000                21                      
903L001L5063200504094544892D23700015219876501178405354100000008500210325350   CRESCENT1 CUS0059586          L DAVIS                       00000000000000000000                21                      
903L001L5063200504094544892D23700015319876501956725164100000008500210325350   CRESCENT1 CUS0014946          A WILSON                      00000000000000000000                21                      
903L001L5063200504094544892D23700015447001001290140276200000008500210325350   CRESCENT1 CUS0043265          E BARBIEN                     00000000000000000000                21                      
903L001L5063200504094544892D23700015519876501123607923100000008500210325350   CRESCENT1 CUS0053232          Y KAREEM                      00000000000000000000                21                      
903L001L5063200504094544892D23700015647001001570615711200000008500210325350   CRESCENT1 CUS0059587          F GENEVA                      00000000000000000000                21                      
903L001L5063200504094544892D23700015758010510011229219100000008500210325350   CRESCENT1 CUS0014948          A ROOKNOODEEN                 00000000000000000000                21                      
903L001L5063200504094544892D23700015825065562312045124100000008500210325350   CRESCENT1 CUS0043309          N CHOONARA                    00000000000000000000                21                      
903L001L5063200504094544892D23700015919876501108389627100000016000210325350   CRESCENT1 CUS0053270          F SALIE                       00000000000000000000                21                      
903L001L5063200504094544892D23700016047001001408921624200000008500210325350   CRESCENT1 CUS0059588          N ISAACS                      00000000000000000000                21                      
903L001L5063200504094544892D23700016119876501043746498100000008500210325350   CRESCENT1 CUS0015308          N KHAN                        00000000000000000000                21                      
903L001L5063200504094544892D23700016225065562415000744100000008500210325350   CRESCENT1 CUS0043344          M BENJAMIN                    00000000000000000000                21                      
903L001L5063200504094544892D23700016347001001169122947200000008500210325350   CRESCENT1 CUS0053308          A BOWERS                      00000000000000000000                21                      
903L001L5063200504094544892D23700016405100100073037281100000006900210325350   CRESCENT1 CUS0059598          A CUPIDO                      00000000000000000000                21                      
903L001L5063200504094544892D23700016505100100282061312100000016000210325350   CRESCENT1 CUS0015371          F BHORAT                      00000000000000000000                21                      
903L001L5063200504094544892D23700016605100100002873729100000008500210325350   CRESCENT1 CUS0043446          N NAIDOO                      00000000000000000000                21                      
903L001L5063200504094544892D23700016747001001270204694200000008500210325350   CRESCENT1 CUS0053353          Z BLOEMBERG                   00000000000000000000                21                      
903L001L5063200504094544892D23700016825065562441951630100000008500210325350   CRESCENT1 CUS0059650          G DAVIDS                      00000000000000000000                21                      
903L001L5063200504094544892D23700016905100100225327201100000008500210325350   CRESCENT1 CUS0015401          Z ESSOP                       00000000000000000000                21                      
903L001L5063200504094544892D23700017005100100009057471100000008500210325350   CRESCENT1 CUS0043491          R VALLY                       00000000000000000000                21                      
903L001L5063200504094544892D23700017119876501053164483100000008500210325350   CRESCENT1 CUS0053368          B ABRAHAMS                    00000000000000000000                21                      
903L001L5063200504094544892D23700017205100100560026285100000008500210325350   CRESCENT1 CUS0015418          N KHADER                      00000000000000000000                21                      
903L001L5063200504094544892D23700017325065550250044663100000008500210325350   CRESCENT1 CUS0043496          A HASHIM                      00000000000000000000                21                      
903L001L5063200504094544892D23700017447001001485113499200000008500210325350   CRESCENT1 CUS0053402          M ORRIE-ROB                   00000000000000000000                21                      
903L001L5063200504094544892D23700017525065562282627557100000008500210325350   CRESCENT1 CUS0015457          S ADAM                        00000000000000000000                21                      
903L001L5063200504094544892D23700017605100100008949247100000008500210325350   CRESCENT1 CUS0043517          N SINDICICH                   00000000000000000000                21                      
903L001L5063200504094544892D23700017725065562236533809100000008500210325350   CRESCENT1 CUS0053418          S BUSCH                       00000000000000000000                21                      
903L001L5063200504094544892D23700017805100100023193832100000016000210325350   CRESCENT1 CUS0015595          T MANSOOR                     00000000000000000000                21                      
903L001L5063200504094544892D23700017925065562004769339100000008500210325350   CRESCENT1 CUS0043581          N VALLY                       00000000000000000000                21                      
903L001L5063200504094544892D23700018025065562536881958100000008500210325350   CRESCENT1 CUS0053456          N ABRAHAMS                    00000000000000000000                21                      
903L001L5063200504094544892D23700018125065562022807468100000016000210325350   CRESCENT1 CUS0015687          B MOTALA                      00000000000000000000                21                      
903L001L5063200504094544892D23700018205100100052388158100000008500210325350   CRESCENT1 CUS0043589          A KHAN                        00000000000000000000                21                      
903L001L5063200504094544892D23700018347001001110450662200000008500210325350   CRESCENT1 CUS0053479          Z ZWANE                       00000000000000000000                21                      
903L001L5063200504094544892D23700018425065562157177231100000008500210325350   CRESCENT1 CUS0016117          S BADAT                       00000000000000000000                21                      
903L001L5063200504094544892D23700018525065562424860262100000008500210325350   CRESCENT1 CUS0043630          Y OSMAN                       00000000000000000000                21                      
903L001L5063200504094544892D23700018663200504043027047100000008500210325350   CRESCENT1 CUS0053527          A SAMODIEN                    00000000000000000000                21                      
903L001L5063200504094544892D23700018725065562675065158100000008500210325350   CRESCENT1 CUS0016125          N ABDUL RAHMAN                00000000000000000000                21                      
903L001L5063200504094544892D23700018825065562141743593100000008500210325350   CRESCENT1 CUS0043643          N DOLLIE                      00000000000000000000                21                      
903L001L5063200504094544892D23700018925065551351200138100000008500210325350   CRESCENT1 CUS0053532          F HARRIBI                     00000000000000000000                21                      
903L001L5063200504094544892D23700019005100100052229114100000031000210325350   CRESCENT1 CUS0016205          A BHAMJEE                     00000000000000000000                21                      
903L001L5063200504094544892D23700019180000078600104052200000008500210325350   CRESCENT1 CUS0043651          A DESAI                       00000000000000000000                21                      
903L001L5063200504094544892D23700019205100110062164072100000016000210325350   CRESCENT1 CUS0053570          N MOHAMED                     00000000000000000000                21                      
903L001L5063200504094544892D23700019363200509189813266100000016000210325350   CRESCENT1 CUS0016251          H BHYAT                       00000000000000000000                21                      
903L001L5063200504094544892D23700019425065562465175258100000016000210325350   CRESCENT1 CUS0043663          A BADEE                       00000000000000000000                21                      
903L001L5063200504094544892D23700019547001001293477778200000008500210325350   CRESCENT1 CUS0053626          U SAMUELS                     00000000000000000000                21                      
903L001L5063200504094544892D23700019663200509268460215100000008500210325350   CRESCENT1 CUS0016365          H BAKER                       00000000000000000000                21                      
903L001L5063200504094544892D23700019705100100002523477100000008500210325350   CRESCENT1 CUS0043668          Y RASUL                       00000000000000000000                21                      
903L001L5063200504094544892D23700019805100100271625244100000008500210325350   CRESCENT1 CUS0053661          I ABRAHAMS                    00000000000000000000                21                      
903L001L5063200504094544892D23700019905100100023381949100000008500210325350   CRESCENT1 CUS0016511          J BANOO                       00000000000000000000                21                      
903L001L5063200504094544892D23700020063200504065286130100000008500210325350   CRESCENT1 CUS0043700          M SALAJEE                     00000000000000000000                21                      
903L001L5063200504094544892D23700020125065562403930995100000008500210325350   CRESCENT1 CUS0053667          R MAHOMED                     00000000000000000000                21                      
903L001L5063200504094544892D23700020205100100052209431100000031000210325350   CRESCENT1 CUS0016551          A KHAN                        00000000000000000000                21                      
903L001L5063200504094544892D23700020325065562121213326100000008500210325350   CRESCENT1 CUS0043786          S SYED                        00000000000000000000                21                      
903L001L5063200504094544892D23700020419876501001451147100000008500210325350   CRESCENT1 CUS0053707          M FREDERICKS                  00000000000000000000                21                      
903L001L5063200504094544892D23700020525065562188224457100000023500210325350   CRESCENT1 CUS0016692          A MATAKA                      00000000000000000000                21                      
903L001L5063200504094544892D23700020625065562698185438100000008500210325350   CRESCENT1 CUS0043803          F DAWOOD                      00000000000000000000                21                      
903L001L5063200504094544892D23700020725065562687919559100000008500210325350   CRESCENT1 CUS0053730          K MOHAMMED                    00000000000000000000                21                      
903L001L5063200504094544892D23700020805100110086487378100000008500210325350   CRESCENT1 CUS0016894          S BHAM                        00000000000000000000                21                      
903L001L5063200504094544892D23700020919876501067184481100000008500210325350   CRESCENT1 CUS0043806          M EBRAHIM                     00000000000000000000                21                      
903L001L5063200504094544892D23700021025065562702828958100000008500210325350   CRESCENT1 CUS0053769          L BEIS                        00000000000000000000                21                      
903L001L5063200504094544892D23700021105100100009019472100000008500210325350   CRESCENT1 CUS0016902          R CASSIM                      00000000000000000000                21                      
903L001L5063200504094544892D23700021225065560920115058100000016000210325350   CRESCENT1 CUS0043833          S HENDRICKS                   00000000000000000000                21                      
903L001L5063200504094544892D23700021305100110096876857100000008500210325350   CRESCENT1 CUS0053785          A ABRAHAM                     00000000000000000000                21                      
903L001L5063200504094544892D23700021405100100271277718100000008500210325350   CRESCENT1 CUS0017193          C JOJEE                       00000000000000000000                21                      
903L001L5063200504094544892D23700021505100100071293663100000008500210325350   CRESCENT1 CUS0043841          S DE VILLIERS                 00000000000000000000                21                      
903L001L5063200504094544892D23700021663200509315129516100000008500210325350   CRESCENT1 CUS0053795          H TITUS                       00000000000000000000                21                      
903L001L5063200504094544892D23700021725065562311275821100000008500210325350   CRESCENT1 CUS0017203          A VALLY                       00000000000000000000                21                      
903L001L5063200504094544892D23700021805100100270550259100000016000210325350   CRESCENT1 CUS0043917          N JONES                       00000000000000000000                21                      
903L001L5063200504094544892D23700021947001001477422836200000008500210325350   CRESCENT1 CUS0053821          F NHLAPO                      00000000000000000000                21                      
903L001L5063200504094544892D23700022025065555280050010100000007500210325350   CRESCENT1 CUS0017307          R VANIA                       00000000000000000000                21                      
903L001L5063200504094544892D23700022147001001193515074200000008500210325350   CRESCENT1 CUS0044035          N ABDURAHMAN                  00000000000000000000                21                      
903L001L5063200504094544892D23700022205100100303003081100000008500210325350   CRESCENT1 CUS0053863          D SWANLOW                     00000000000000000000                21                      
903L001L5063200504094544892D23700022325065562067176159100000016000210325350   CRESCENT1 CUS0017326          M SATHAR                      00000000000000000000                21                      
903L001L5063200504094544892D23700022425065562046787547100000008500210325350   CRESCENT1 CUS0044036          Y VANDERWESTHUIZEN            00000000000000000000                21                      
903L001L5063200504094544892D23700022547001001433420366200000008500210325350   CRESCENT1 CUS0053870          K MOHAMED                     00000000000000000000                21                      
903L001L5063200504094544892D23700022619876501329001109100000008500210325350   CRESCENT1 CUS0017396          A MCHINI                      00000000000000000000                21                      
903L001L5063200504094544892D23700022705100100011246693100000016000210325350   CRESCENT1 CUS0044105          S KHAN                        00000000000000000000                21                      
903L001L5063200504094544892D23700022847001001218914678200000008500210325350   CRESCENT1 CUS0053878          J BENJAMIN                    00000000000000000000                21                      
903L001L5063200504094544892D23700022905100100009221360100000016000210325350   CRESCENT1 CUS0017490          M KOOR                        00000000000000000000                21                      
903L001L5063200504094544892D23700023005100100062652206100000008500210325350   CRESCENT1 CUS0044213          S VALLEY                      00000000000000000000                21                      
903L001L5063200504094544892D23700023125065562526591327100000008500210325350   CRESCENT1 CUS0053898          R MOHAMMED                    00000000000000000000                21                      
903L001L5063200504094544892D23700023205100100050010506100000008500210325350   CRESCENT1 CUS0017525          S ISMAIL                      00000000000000000000                21                      
903L001L5063200504094544892D23700023325065562445980289100000008500210325350   CRESCENT1 CUS0044214          T EVANS                       00000000000000000000                21                      
903L001L5063200504094544892D23700023463200509283434245100000015400210325350   CRESCENT1 CUS0053950          A ISMAIL                      00000000000000000000                21                      
903L001L5063200504094544892D23700023563200504079222009100000008500210325350   CRESCENT1 CUS0017569          Z DUNN                        00000000000000000000                21                      
903L001L5063200504094544892D23700023625065562319407434100000008500210325350   CRESCENT1 CUS0044221          F ISMAIL                      00000000000000000000                21                      
903L001L5063200504094544892D23700023705100100021182604100000008500210325350   CRESCENT1 CUS0054091          R OMAR                        00000000000000000000                21                      
903L001L5063200504094544892D23700023805100100134792467100000008500210325350   CRESCENT1 CUS0017792          R MAHOMED                     00000000000000000000                21                      
903L001L5063200504094544892D23700023963200509328073564100000008500210325350   CRESCENT1 CUS0044282          F EBRAHIM                     00000000000000000000                21                      
903L001L5063200504094544892D23700024025065562100459842100000007500210325350   CRESCENT1 CUS0054217          A KHAN                        00000000000000000000                21                      
903L001L5063200504094544892D23700024119876501581075774100000008500210325350   CRESCENT1 CUS0017811          J ABRAHAMS                    00000000000000000000                21                      
903L001L5063200504094544892D23700024225065562026812041100000008500210325350   CRESCENT1 CUS0044296          Y ESSACK                      00000000000000000000                21                      
903L001L5063200504094544892D23700024319876501210397765100000008500210325350   CRESCENT1 CUS0054243          A NAINA                       00000000000000000000                21                      
903L001L5063200504094544892D23700024425065562216299950100000016000210325350   CRESCENT1 CUS0017885          A SAHABADIEN                  00000000000000000000                21                      
903L001L5063200504094544892D23700024519876501035358093100000008500210325350   CRESCENT1 CUS0044308          R DESHMUKH                    00000000000000000000                21                      
903L001L5063200504094544892D23700024625065562575632643100000008500210325350   CRESCENT1 CUS0054254          E ABBAS                       00000000000000000000                21                      
903L001L5063200504094544892D23700024725065562105455283100000008500210325350   CRESCENT1 CUS0017960          M JAMADAR                     00000000000000000000                21                      
903L001L5063200504094544892D23700024825065562201069780100000023500210325350   CRESCENT1 CUS0044461          L FELIX                       00000000000000000000                21                      
903L001L5063200504094544892D23700024947001001236536175200000008500210325350   CRESCENT1 CUS0054296          S ABRAHAMS                    00000000000000000000                21                      
903L001L5063200504094544892D23700025063200509121656339100000016000210325350   CRESCENT1 CUS0018161          I RASHIED                     00000000000000000000                21                      
903L001L5063200504094544892D23700025163200504076794009100000008500210325350   CRESCENT1 CUS0044473          R POTGIETER                   00000000000000000000                21                      
903L001L5063200504094544892D23700025219876501913375722100000008500210325350   CRESCENT1 CUS0054340          R ALEXANDER                   00000000000000000000                21                      
903L001L5063200504094544892D23700025319876501937003833100000016000210325350   CRESCENT1 CUS0018342          A DANGAR                      00000000000000000000                21                      
903L001L5063200504094544892D23700025447001001326080731200000008500210325350   CRESCENT1 CUS0044481          R DAVIDS POOVAN               00000000000000000000                21                      
903L001L5063200504094544892D23700025547001001484772367200000008500210325350   CRESCENT1 CUS0054362          G HANSLO                      00000000000000000000                21                      
903L001L5063200504094544892D23700025605100100302462465100000008500210325350   CRESCENT1 CUS0018343          N RASOOL                      00000000000000000000                21                      
903L001L5063200504094544892D23700025719876501146791941100000015400210325350   CRESCENT1 CUS0044487          B HOOSAIN                     00000000000000000000                21                      
903L001L5063200504094544892D23700025847001001543644250200000008500210325350   CRESCENT1 CUS0054375          F STONE                       00000000000000000000                21                      
903L001L5063200504094544892D23700025925065562519035499100000008500210325350   CRESCENT1 CUS0018517          S AMRA                        00000000000000000000                21                      
903L001L5063200504094544892D23700026025065562515491950100000008500210325350   CRESCENT1 CUS0044643          E NDAMASE                     00000000000000000000                21                      
903L001L5063200504094544892D23700026163200509097224961100000008500210325350   CRESCENT1 CUS0054399          S DANIELS                     00000000000000000000                21                      
903L001L5063200504094544892D23700026219876501208353748100000008500210325350   CRESCENT1 CUS0018567          F ESSOP                       00000000000000000000                21                      
903L001L5063200504094544892D23700026325065562750796917100000008500210325350   CRESCENT1 CUS0044644            PATHAN MATHANDA             00000000000000000000                21                      
903L001L5063200504094544892D23700026405100100404291139100000008500210325350   CRESCENT1 CUS0054497          R HARRIS                      00000000000000000000                21                      
903L001L5063200504094544892D23700026519876501001271688100000008500210325350   CRESCENT1 CUS0018698          M PATEL                       00000000000000000000                21                      
903L001L5063200504094544892D23700026625065560344501148100000008500210325350   CRESCENT1 CUS0044653          A LUCAS                       00000000000000000000                21                      
903L001L5063200504094544892D23700026763200504091863196100000008500210325350   CRESCENT1 CUS0054529          R BERGSTEDT                   00000000000000000000                21                      
903L001L5063200504094544892D23700026825065562175334673100000008500210325350   CRESCENT1 CUS0018895          Y ADAMS                       00000000000000000000                21                      
903L001L5063200504094544892D23700026905100100009389687100000008500210325350   CRESCENT1 CUS0044675          R ISMAIL                      00000000000000000000                21                      
903L001L5063200504094544892D23700027047001001375861741200000008500210325350   CRESCENT1 CUS0054538          R DANIELS                     00000000000000000000                21                      
903L001L5063200504094544892D23700027163200509061717893100000008500210325350   CRESCENT1 CUS0019310          I LAVANGEE                    00000000000000000000                21                      
903L001L5063200504094544892D23700027225065504082089438100000008500210325350   CRESCENT1 CUS0044678          F HARMEN                      00000000000000000000                21                      
903L001L5063200504094544892D23700027347001001120251395200000008500210325350   CRESCENT1 CUS0054542          I HAMMOND                     00000000000000000000                21                      
903L001L5063200504094544892D23700027405100100402138066100000016000210325350   CRESCENT1 CUS0019439          M CAJEE                       00000000000000000000                21                      
903L001L5063200504094544892D23700027505100100020970161100000008500210325350   CRESCENT1 CUS0044704          G ADAM                        00000000000000000000                21                      
903L001L5063200504094544892D23700027663200509335995028100000006900210325350   CRESCENT1 CUS0054546          M HOLTMAN                     00000000000000000000                21                      
903L001L5063200504094544892D23700027725065562410573663100000008500210325350   CRESCENT1 CUS0019760          M SOOMAR                      00000000000000000000                21                      
903L001L5063200504094544892D23700027825065562208766636100000008500210325350   CRESCENT1 CUS0044851          R HAJAT                       00000000000000000000                21                      
903L001L5063200504094544892D23700027925065562324829920100000008500210325350   CRESCENT1 CUS0054562          Y SAMAAI                      00000000000000000000                21                      
903L001L5063200504094544892D23700028025065562339376320100000016000210325350   CRESCENT1 CUS0020170          R VYADALLY                    00000000000000000000                21                      
903L001L5063200504094544892D23700028105100100073254177100000008500210325350   CRESCENT1 CUS0044865          M FAKIER                      00000000000000000000                21                      
903L001L5063200504094544892D23700028219876501204866325100000008500210325350   CRESCENT1 CUS0054605          M BEGG                        00000000000000000000                21                      
903L001L5063200504094544892D23700028319876501372073930100000008500210325350   CRESCENT1 CUS0020343          H DADABHAI                    00000000000000000000                21                      
903L001L5063200504094544892D23700028463200509231340800100000008500210325350   CRESCENT1 CUS0044870          J MBAZIIRA                    00000000000000000000                21                      
903L001L5063200504094544892D23700028547001001628556232200000008500210325350   CRESCENT1 CUS0054649          M WILLIAMS                    00000000000000000000                21                      
903L001L5063200504094544892D23700028625065562016188717100000008500210325350   CRESCENT1 CUS0020531          R KANDAN                      00000000000000000000                21                      
903L001L5063200504094544892D23700028705100100072934107100000008500210325350   CRESCENT1 CUS0044957          N ABRAHAMS                    00000000000000000000                21                      
903L001L5063200504094544892D23700028825065562250621523100000008500210325350   CRESCENT1 CUS0054660          N ABRAHAMS                    00000000000000000000                21                      
903L001L5063200504094544892D23700028905100100204159210100000008500210325350   CRESCENT1 CUS0020591          G SMITH                       00000000000000000000                21                      
903L001L5063200504094544892D23700029005100100273015567100000008500210325350   CRESCENT1 CUS0044974          F DOLLEY                      00000000000000000000                21                      
903L001L5063200504094544892D23700029125065562692667953100000008500210325350   CRESCENT1 CUS0054663          K ABRAHAMS                    00000000000000000000                21                      
903L001L5063200504094544892D23700029263200509319746984100000008500210325350   CRESCENT1 CUS0020734          F KADER                       00000000000000000000                21                      
903L001L5063200504094544892D23700029325065562164037139100000008500210325350   CRESCENT1 CUS0045097          Z DAVIDS                      00000000000000000000                21                      
903L001L5063200504094544892D23700029419876501198971851100000008500210325350   CRESCENT1 CUS0054668          S SALLIE                      00000000000000000000                21                      
903L001L5063200504094544892D23700029525065562361678421100000008500210325350   CRESCENT1 CUS0020772          S SALIE                       00000000000000000000                21                      
903L001L5063200504094544892D23700029680000078600142319200000008500210325350   CRESCENT1 CUS0045117          F OSMAN                       00000000000000000000                21                      
903L001L5063200504094544892D23700029725065562438690655100000008500210325350   CRESCENT1 CUS0054761          S JARDIEN                     00000000000000000000                21                      
903L001L5063200504094544892D23700029805100100021073503100000016000210325350   CRESCENT1 CUS0020957          F MILLS                       00000000000000000000                21                      
903L001L5063200504094544892D23700029905100100272872938100000008500210325350   CRESCENT1 CUS0045119          A JINA                        00000000000000000000                21                      
903L001L5063200504094544892D23700030047001001289967359200000008500210325350   CRESCENT1 CUS0054777          T STUURMAN                    00000000000000000000                21                      
903L001L5063200504094544892D23700030125065562055087582100000007500210325350   CRESCENT1 CUS0021108          Z FAHMAY                      00000000000000000000                21                      
903L001L5063200504094544892D23700030219876501075357667100000006900210325350   CRESCENT1 CUS0045146          S JOSEPH                      00000000000000000000                21                      
903L001L5063200504094544892D23700030325065553770037689100000008500210325350   CRESCENT1 CUS0054856          I RASHID                      00000000000000000000                21                      
903L001L5063200504094544892D23700030405100100078946212100000008500210325350   CRESCENT1 CUS0021134          S SALIE                       00000000000000000000                21                      
903L001L5063200504094544892D23700030519876501016745826100000008500210325350   CRESCENT1 CUS0045201          O DAWOOD                      00000000000000000000                21                      
903L001L5063200504094544892D23700030605100110063389698100000008500210325350   CRESCENT1 CUS0054858          Z FELTON                      00000000000000000000                21                      
903L001L5063200504094544892D23700030725065506254787128100000007500210325350   CRESCENT1 CUS0021253          R KHAN                        00000000000000000000                21                      
903L001L5063200504094544892D23700030819876501899085769100000008500210325350   CRESCENT1 CUS0045204          M PATEL                       00000000000000000000                21                      
903L001L5063200504094544892D23700030925065562589121187100000008500210325350   CRESCENT1 CUS0054863          S ABRAHAMS                    00000000000000000000                21                      
903L001L5063200504094544892D23700031063200509197863584100000006900210325350   CRESCENT1 CUS0021317          A PANDOR                      00000000000000000000                21                      
903L001L5063200504094544892D23700031125065562489675359100000008500210325350   CRESCENT1 CUS0045250          F ISMAIL                      00000000000000000000                21                      
903L001L5063200504094544892D23700031247001001377265984200000008500210325350   CRESCENT1 CUS0054865          M DE JONGH                    00000000000000000000                21                      
903L001L5063200504094544892D23700031305100100009286241100000016000210325350   CRESCENT1 CUS0021335          A MOOS                        00000000000000000000                21                      
903L001L5063200504094544892D23700031425065562129913902100000008500210325350   CRESCENT1 CUS0045279          W DADA                        00000000000000000000                21                      
903L001L5063200504094544892D23700031525065562300318377100000008500210325350   CRESCENT1 CUS0054880          A ABRAHAMS                    00000000000000000000                21                      
903L001L5063200504094544892D23700031647001001569444291200000008500210325350   CRESCENT1 CUS0021430          Y CASSIM                      00000000000000000000                21                      
903L001L5063200504094544892D23700031763200538048740046100000008500210325350   CRESCENT1 CUS0045281          R FAROUK                      00000000000000000000                21                      
903L001L5063200504094544892D23700031805100100273557343100000008500210325350   CRESCENT1 CUS0054934          H ALBERTUS                    00000000000000000000                21                      
903L001L5063200504094544892D23700031963200504048394295100000016000210325350   CRESCENT1 CUS0021437          A HAFFAJEE                    00000000000000000000                21                      
903L001L5063200504094544892D23700032025065562081996640100000008500210325350   CRESCENT1 CUS0045303          Y ABDOOL                      00000000000000000000                21                      
903L001L5063200504094544892D23700032147001001239782975200000008500210325350   CRESCENT1 CUS0054957          C TRENTON                     00000000000000000000                21                      
903L001L5063200504094544892D23700032219876501016250002100000008500210325350   CRESCENT1 CUS0021674          S AUGUST                      00000000000000000000                21                      
903L001L5063200504094544892D23700032305100100410292427100000016000210325350   CRESCENT1 CUS0045426          A RASSOOL                     00000000000000000000                21                      
903L001L5063200504094544892D23700032405100100372134378100000008500210325350   CRESCENT1 CUS0054977          F DAVIDS                      00000000000000000000                21                      
903L001L5063200504094544892D23700032525065562044606004100000008500210325350   CRESCENT1 CUS0021968          Z DAVIDS                      00000000000000000000                21                      
903L001L5063200504094544892D23700032625065562509378148100000008500210325350   CRESCENT1 CUS0045508          R BEGG                        00000000000000000000                21                      
903L001L5063200504094544892D23700032719876501966466463100000008500210325350   CRESCENT1 CUS0054979          O ABRAHAMS                    00000000000000000000                21                      
903L001L5063200504094544892D23700032863200509185515048100000008500210325350   CRESCENT1 CUS0021999          R VARIYWA                     00000000000000000000                21                      
903L001L5063200504094544892D23700032905100100410832154100000008500210325350   CRESCENT1 CUS0045603          H MBALATI                     00000000000000000000                21                      
903L001L5063200504094544892D23700033025065562445793905100000008500210325350   CRESCENT1 CUS0054985          Z ACHMAT                      00000000000000000000                21                      
903L001L5063200504094544892D23700033119876501162811110100000008500210325350   CRESCENT1 CUS0022297          A CASSIM                      00000000000000000000                21                      
903L001L5063200504094544892D23700033225065562236628155100000008500210325350   CRESCENT1 CUS0045618          N SHAND                       00000000000000000000                21                      
903L001L5063200504094544892D23700033305100100009058966100000008500210325350   CRESCENT1 CUS0055033          A GOOLAM                      00000000000000000000                21                      
903L001L5063200504094544892D23700033463200509056361689100000008500210325350   CRESCENT1 CUS0022462          G HUSSAIN                     00000000000000000000                21                      
903L001L5063200504094544892D23700033563200504082864674100000016000210325350   CRESCENT1 CUS0045645          E DADA                        00000000000000000000                21                      
903L001L5063200504094544892D23700033647001001365660301200000008500210325350   CRESCENT1 CUS0055081          Z AHMANCT                     00000000000000000000                21                      
903L001L5063200504094544892D23700033747001001248478965200000008500210325350   CRESCENT1 CUS0022905          S MOTLEKAR                    00000000000000000000                21                      
903L001L5063200504094544892D23700033863200504069818933100000008500210325350   CRESCENT1 CUS0045718          G DAVIDS                      00000000000000000000                21                      
903L001L5063200504094544892D23700033925065562362801807100000016000210325350   CRESCENT1 CUS0055086          S ALVES                       00000000000000000000                21                      
903L001L5063200504094544892D23700034025065500011478845100000007500210325350   CRESCENT1 CUS0023047          I KOCKNEY                     00000000000000000000                21                      
903L001L5063200504094544892D23700034125065562625949542100000008500210325350   CRESCENT1 CUS0045724          S MOHAMMED                    00000000000000000000                21                      
903L001L5063200504094544892D23700034247001001305616586200000008500210325350   CRESCENT1 CUS0055328          M JACOBS                      00000000000000000000                21                      
903L001L5063200504094544892D23700034363200504056144438100000007500210325350   CRESCENT1 CUS0023530          M ABED                        00000000000000000000                21                      
903L001L5063200504094544892D23700034463200504042696069100000008500210325350   CRESCENT1 CUS0045767          S SHAIK                       00000000000000000000                21                      
903L001L5063200504094544892D23700034563200509187316262100000008500210325350   CRESCENT1 CUS0055343          A BANSTABLE                   00000000000000000000                21                      
903L001L5063200504094544892D23700034605100100202574520100000008500210325350   CRESCENT1 CUS0024479          A TIMOL                       00000000000000000000                21                      
903L001L5063200504094544892D23700034725065562453659420100000008500210325350   CRESCENT1 CUS0045778          F YUSUF                       00000000000000000000                21                      
903L001L5063200504094544892D23700034805100100072661453100000008500210325350   CRESCENT1 CUS0055350          S FAURE                       00000000000000000000                21                      
903L001L5063200504094544892D23700034905100100201051192100000016000210325350   CRESCENT1 CUS0024615          A MILLER                      00000000000000000000                21                      
903L001L5063200504094544892D23700035063200504048727606100000008500210325350   CRESCENT1 CUS0045802          S KARRIM                      00000000000000000000                21                      
903L001L5063200504094544892D23700035125065562518423059100000008500210325350   CRESCENT1 CUS0055357          M MOHAMED                     00000000000000000000                21                      
903L001L5063200504094544892D23700035225065562082439425100000023500210325350   CRESCENT1 CUS0024671          H SHERRIFF                    00000000000000000000                21                      
903L001L5063200504094544892D23700035363200504088259405100000008500210325350   CRESCENT1 CUS0045898          N OMAR                        00000000000000000000                21                      
903L001L5063200504094544892D23700035419876501081290595100000008500210325350   CRESCENT1 CUS0055365          F  ABRAHAMS                   00000000000000000000                21                      
903L001L5063200504094544892D23700035505100100042963524100000008500210325350   CRESCENT1 CUS0025174          F ISAACS                      00000000000000000000                21                      
903L001L5063200504094544892D23700035605100100008115486100000008500210325350   CRESCENT1 CUS0045928          W CARRIM                      00000000000000000000                21                      
903L001L5063200504094544892D23700035725065562216118241100000008500210325350   CRESCENT1 CUS0055366          Z PETRUS                      00000000000000000000                21                      
903L001L5063200504094544892D23700035819876501164126504100000008500210325350   CRESCENT1 CUS0025175          JOHANSEN SODOMS               00000000000000000000                21                      
903L001L5063200504094544892D23700035925065550450146946100000008500210325350   CRESCENT1 CUS0045942          S ANTHONY                     00000000000000000000                21                      
903L001L5063200504094544892D23700036019876502828026698200000016000210325350   CRESCENT1 CUS0055411          M MOHAMMED                    00000000000000000000                21                      
903L001L5063200504094544892D23700036147001001305615814200000008500210325350   CRESCENT1 CUS0025219          F MANSOOR                     00000000000000000000                21                      
903L001L5063200504094544892D23700036225065562419644837100000008500210325350   CRESCENT1 CUS0046057          S SMITH                       00000000000000000000                21                      
903L001L5063200504094544892D23700036325065559200032058100000008500210325350   CRESCENT1 CUS0055446          S ABRAHAMS                    00000000000000000000                21                      
903L001L5063200504094544892D23700036425065550320120335100000016000210325350   CRESCENT1 CUS0025257          F WILLIAMS                    00000000000000000000                21                      
903L001L5063200504094544892D23700036525065562031730725100000008500210325350   CRESCENT1 CUS0046163          M MOHAMED                     00000000000000000000                21                      
903L001L5063200504094544892D23700036619876501048119467100000008500210325350   CRESCENT1 CUS0055465          M JONES                       00000000000000000000                21                      
903L001L5063200504094544892D23700036705100100061679674100000008500210325350   CRESCENT1 CUS0025479          S COOK                        00000000000000000000                21                      
903L001L5063200504094544892D23700036805100110005813652100000008500210325350   CRESCENT1 CUS0046189          T SNYDERS                     00000000000000000000                21                      
903L001L5063200504094544892D23700036947001001424326565200000016000210325350   CRESCENT1 CUS0055542          A ABRAHAMS                    00000000000000000000                21                      
903L001L5063200504094544892D23700037047001001237934042200000008500210325350   CRESCENT1 CUS0025605          M DUPLESSIS                   00000000000000000000                21                      
903L001L5063200504094544892D23700037147001001414716151200000008500210325350   CRESCENT1 CUS0046211          R BRIJH                       00000000000000000000                21                      
903L001L5063200504094544892D23700037225065562214133548100000008500210325350   CRESCENT1 CUS0055593          S JATTIEM                     00000000000000000000                21                      
903L001L5063200504094544892D23700037325065562286635209100000008500210325350   CRESCENT1 CUS0025830          M SHEIK                       00000000000000000000                21                      
903L001L5063200504094544892D23700037447001001165303424200000008500210325350   CRESCENT1 CUS0046276          L MAKAU                       00000000000000000000                21                      
903L001L5063200504094544892D23700037505100100374867488100000008500210325350   CRESCENT1 CUS0055601          S ABRAHAMS                    00000000000000000000                21                      
903L001L5063200504094544892D23700037663200509298666277100000008500210325350   CRESCENT1 CUS0025850          R DEPAUW                      00000000000000000000                21                      
903L001L5063200504094544892D23700037725065562783824941100000008500210325350   CRESCENT1 CUS0046277          F HAJI AGHATABAR SANGRADI     00000000000000000000                21                      
903L001L5063200504094544892D23700037805100100003026760100000008500210325350   CRESCENT1 CUS0055642          Y NAIDOO                      00000000000000000000                21                      
903L001L5063200504094544892D23700037925065560528244176100000008500210325350   CRESCENT1 CUS0026252          M BABOO                       00000000000000000000                21                      
903L001L5063200504094544892D23700038025065562077684621100000008500210325350   CRESCENT1 CUS0046282          M VAHED                       00000000000000000000                21                      
903L001L5063200504094544892D23700038119876502078142603200000006900210325350   CRESCENT1 CUS0055647          F BASSIER                     00000000000000000000                21                      
903L001L5063200504094544892D23700038225065562223422982100000023500210325350   CRESCENT1 CUS0026301          A HENDRICKS                   00000000000000000000                21                      
903L001L5063200504094544892D23700038305100110093869574100000008500210325350   CRESCENT1 CUS0046299          A JALLA                       00000000000000000000                21                      
903L001L5063200504094544892D23700038425065562843654965100000008500210325350   CRESCENT1 CUS0055688          R BAKKER                      00000000000000000000                21                      
903L001L5063200504094544892D23700038563200504080607686100000016000210325350   CRESCENT1 CUS0026371          D ABDUL KADER                 00000000000000000000                21                      
903L001L5063200504094544892D23700038619876501956452893100000008500210325350   CRESCENT1 CUS0046327          M AHMED                       00000000000000000000                21                      
903L001L5063200504094544892D23700038719876501121810357100000008500210325350   CRESCENT1 CUS0055742          M PARKER                      00000000000000000000                21                      
903L001L5063200504094544892D23700038825065562295846425100000008500210325350   CRESCENT1 CUS0026599          Z SUJEE                       00000000000000000000                21                      
903L001L5063200504094544892D23700038925065562601595731100000008500210325350   CRESCENT1 CUS0046375          N OMAR                        00000000000000000000                21                      
903L001L5063200504094544892D23700039005100100242206697100000008500210325350   CRESCENT1 CUS0055747          G DE SILVA                    00000000000000000000                21                      
903L001L5063200504094544892D23700039125065555029006349100000008500210325350   CRESCENT1 CUS0027020          F HAGEE                       00000000000000000000                21                      
903L001L5063200504094544892D23700039205100100272028606100000008500210325350   CRESCENT1 CUS0046396          N ADAMS                       00000000000000000000                21                      
903L001L5063200504094544892D23700039347001001125919785200000016000210325350   CRESCENT1 CUS0055758          K FRANCIS                     00000000000000000000                21                      
903L001L5063200504094544892D23700039463200509068662584100000008500210325350   CRESCENT1 CUS0027036          M STRAUSS                     00000000000000000000                21                      
903L001L5063200504094544892D23700039547001001380555726200000008500210325350   CRESCENT1 CUS0046496          F ANDRADE                     00000000000000000000                21                      
903L001L5063200504094544892D23700039605100100009281924100000008500210325350   CRESCENT1 CUS0055776          A ALLIE                       00000000000000000000                21                      
903L001L5063200504094544892D23700039705100100250489783100000008500210325350   CRESCENT1 CUS0027079          O HASSIM                      00000000000000000000                21                      
903L001L5063200504094544892D23700039805100110021681463100000008500210325350   CRESCENT1 CUS0046545          M KLAASSEN                    00000000000000000000                21                      
903L001L5063200504094544892D23700039946200504613511301200000008500210325350   CRESCENT1 CUS0055780          L ISMAIL                      00000000000000000000                21                      
903L001L5063200504094544892D23700040019876501131352319100000008500210325350   CRESCENT1 CUS0027187          H TAMBULI                     00000000000000000000                21                      
903L001L5063200504094544892D23700040125065562218553148100000008500210325350   CRESCENT1 CUS0046559          M ABRAHAMS                    00000000000000000000                21                      
903L001L5063200504094544892D23700040247001001467708842200000008500210325350   CRESCENT1 CUS0055802          J LIEDEMAN                    00000000000000000000                21                      
903L001L5063200504094544892D23700040319876501115214098100000006900210325350   CRESCENT1 CUS0027324          H CLOUTS                      00000000000000000000                21                      
903L001L5063200504094544892D23700040425065562110153757100000008500210325350   CRESCENT1 CUS0046563          N MINNIES                     00000000000000000000                21                      
903L001L5063200504094544892D23700040547001001399581811200000008500210325350   CRESCENT1 CUS0055825          R CASSIM                      00000000000000000000                21                      
903L001L5063200504094544892D23700040619876501141755904100000008500210325350   CRESCENT1 CUS0027426          C MAZIBIA                     00000000000000000000                21                      
903L001L5063200504094544892D23700040725065562292660258100000008500210325350   CRESCENT1 CUS0046582          A HOOSEN                      00000000000000000000                21                      
903L001L5063200504094544892D23700040847001001524040000200000008500210325350   CRESCENT1 CUS0055829          A TITUS                       00000000000000000000                21                      
903L001L5063200504094544892D23700040925065562048069828100000008500210325350   CRESCENT1 CUS0027828          H KARRIM                      00000000000000000000                21                      
903L001L5063200504094544892D23700041063200504070519039100000008500210325350   CRESCENT1 CUS0046667          M GAMIELDIEN                  00000000000000000000                21                      
903L001L5063200504094544892D23700041147001001403919419200000016000210325350   CRESCENT1 CUS0055832          S LEITJIES                    00000000000000000000                21                      
903L001L5063200504094544892D23700041219876502594018880200000008500210325350   CRESCENT1 CUS0027905          R NABBI                       00000000000000000000                21                      
903L001L5063200504094544892D23700041319876501604751509100000008500210325350   CRESCENT1 CUS0046669          M DOCKRAT                     00000000000000000000                21                      
903L001L5063200504094544892D23700041463200509278106192100000007500210325350   CRESCENT1 CUS0055869          F BELIM                       00000000000000000000                21                      
903L001L5063200504094544892D23700041519876501073575632100000016000210325350   CRESCENT1 CUS0028525          A MOHAMMED                    00000000000000000000                21                      
903L001L5063200504094544892D23700041647001001308314416200000016000210325350   CRESCENT1 CUS0046714          S BATA                        00000000000000000000                21                      
903L001L5063200504094544892D23700041747001001328763984200000008500210325350   CRESCENT1 CUS0055875          Z ABRAHAMS                    00000000000000000000                21                      
903L001L5063200504094544892D23700041805100100028003462100000023500210325350   CRESCENT1 CUS0028535          S HOOSEN                      00000000000000000000                21                      
903L001L5063200504094544892D23700041963200504052587953100000008500210325350   CRESCENT1 CUS0046715          I KHAN                        00000000000000000000                21                      
903L001L5063200504094544892D23700042019876501065428626100000008500210325350   CRESCENT1 CUS0055915          I ABDOL                       00000000000000000000                21                      
903L001L5063200504094544892D23700042147001001103597315200000007500210325350   CRESCENT1 CUS0028955          L NIEZER                      00000000000000000000                21                      
903L001L5063200504094544892D23700042263200504086637209100000008500210325350   CRESCENT1 CUS0046753          R MAHOMED                     00000000000000000000                21                      
903L001L5063200504094544892D23700042319876501984630822100000008500210325350   CRESCENT1 CUS0055967          M HENDRICKS                   00000000000000000000                21                      
903L001L5063200504094544892D23700042425065562099067029100000008500210325350   CRESCENT1 CUS0028962          Y NTALO                       00000000000000000000                21                      
903L001L5063200504094544892D23700042525065562379804787100000016000210325350   CRESCENT1 CUS0046761          F LEVY                        00000000000000000000                21                      
903L001L5063200504094544892D23700042647001001358230151200000008500210325350   CRESCENT1 CUS0055973          R HENDRICKS                   00000000000000000000                21                      
903L001L5063200504094544892D23700042719876501107249311100000008500210325350   CRESCENT1 CUS0029084          Y LEGOETE                     00000000000000000000                21                      
903L001L5063200504094544892D23700042819876501642001937100000016000210325350   CRESCENT1 CUS0046781          N JANUARY                     00000000000000000000                21                      
903L001L5063200504094544892D23700042925065562819434812100000023500210325350   CRESCENT1 CUS0055980          A ISAACS                      00000000000000000000                21                      
903L001L5063200504094544892D23700043019876501107249511100000007500210325350   CRESCENT1 CUS0029085          L IHSAAMULLAH                 00000000000000000000                21                      
903L001L5063200504094544892D23700043125065562229834884100000016000210325350   CRESCENT1 CUS0046811          N ISMAIL                      00000000000000000000                21                      
903L001L5063200504094544892D23700043247001001386367158200000008500210325350   CRESCENT1 CUS0056025          A ROWBOTTOM                   00000000000000000000                21                      
903L001L5063200504094544892D23700043363200504084092651100000016000210325350   CRESCENT1 CUS0029314          H EDWARDS                     00000000000000000000                21                      
903L001L5063200504094544892D23700043405100100009388060100000008500210325350   CRESCENT1 CUS0046900          Z HOOSEN                      00000000000000000000                21                      
903L001L5063200504094544892D23700043525065562202338043100000016000210325350   CRESCENT1 CUS0056045          N ASHMODIEN                   00000000000000000000                21                      
903L001L5063200504094544892D23700043625065562426037364100000016000210325350   CRESCENT1 CUS0029363          I ZWANE                       00000000000000000000                21                      
903L001L5063200504094544892D23700043719876501127096621100000008500210325350   CRESCENT1 CUS0047036          M BHAMJEE                     00000000000000000000                21                      
903L001L5063200504094544892D23700043863200504046835039100000008500210325350   CRESCENT1 CUS0056064          M MANIE                       00000000000000000000                21                      
903L001L5063200504094544892D23700043925065562545306658100000008500210325350   CRESCENT1 CUS0029453          H MOTA                        00000000000000000000                21                      
903L001L5063200504094544892D23700044025065562224419681100000008500210325350   CRESCENT1 CUS0047070          T RAHMAN                      00000000000000000000                21                      
903L001L5063200504094544892D23700044119876501156878837100000008500210325350   CRESCENT1 CUS0056065          S DAVIDS                      00000000000000000000                21                      
903L001L5063200504094544892D23700044205100100081183224100000016000210325350   CRESCENT1 CUS0029984          F JOGIE                       00000000000000000000                21                      
903L001L5063200504094544892D23700044347001001403421895200000008500210325350   CRESCENT1 CUS0047114          R SATAR                       00000000000000000000                21                      
903L001L5063200504094544892D23700044463200504042374146100000008500210325350   CRESCENT1 CUS0056085          A SAMAAI                      00000000000000000000                21                      
903L001L5063200504094544892D23700044525065562060976473100000008500210325350   CRESCENT1 CUS0029989          T MASEMOLA                    00000000000000000000                21                      
903L001L5063200504094544892D23700044625065562527894770100000008500210325350   CRESCENT1 CUS0047146          S VANIA                       00000000000000000000                21                      
903L001L5063200504094544892D23700044705100100070213690100000008500210325350   CRESCENT1 CUS0056138          F ISAACS                      00000000000000000000                21                      
903L001L5063200504094544892D23700044825065562342105807100000008500210325350   CRESCENT1 CUS0030302          M MOOSAJEE                    00000000000000000000                21                      
903L001L5063200504094544892D23700044925065562867428510100000008500210325350   CRESCENT1 CUS0047157          S ISKRA                       00000000000000000000                21                      
903L001L5063200504094544892D23700045047001001287718777200000008500210325350   CRESCENT1 CUS0056161          S HAFFEJEE                    00000000000000000000                21                      
903L001L5063200504094544892D23700045163200504079074816100000016000210325350   CRESCENT1 CUS0030723          N LOGGENBERG                  00000000000000000000                21                      
903L001L5063200504094544892D23700045219876501764369718100000008500210325350   CRESCENT1 CUS0047187          F HASSAN                      00000000000000000000                21                      
903L001L5063200504094544892D23700045363200509015007059100000008500210325350   CRESCENT1 CUS0056183          F DAMON                       00000000000000000000                21                      
903L001L5063200504094544892D23700045405100100001695495100000006900210325350   CRESCENT1 CUS0030911          A PATEL                       00000000000000000000                21                      
903L001L5063200504094544892D23700045505100100021937613100000016000210325350   CRESCENT1 CUS0047200          F RAJAH                       00000000000000000000                21                      
903L001L5063200504094544892D23700045647001001600507989200000008500210325350   CRESCENT1 CUS0056252          M MOGODISENG                  00000000000000000000                21                      
903L001L5063200504094544892D23700045725065562275152652100000008500210325350   CRESCENT1 CUS0031057          S RAMTHAL                     00000000000000000000                21                      
903L001L5063200504094544892D23700045847001001303379234200000008500210325350   CRESCENT1 CUS0047226          M KHAN                        00000000000000000000                21                      
903L001L5063200504094544892D23700045947001001199758874200000015400210325350   CRESCENT1 CUS0056496          M CAJEE                       00000000000000000000                21                      
903L001L5063200504094544892D23700046025065562330772551100000008500210325350   CRESCENT1 CUS0031762          F BUTLER                      00000000000000000000                21                      
903L001L5063200504094544892D23700046125065562504941734100000008500210325350   CRESCENT1 CUS0047269          M SEEDAT                      00000000000000000000                21                      
903L001L5063200504094544892D23700046219876501065957343100000008500210325350   CRESCENT1 CUS0056497          G BARRON                      00000000000000000000                21                      
903L001L5063200504094544892D23700046325065562494641907100000008500210325350   CRESCENT1 CUS0031827          H RAHIM                       00000000000000000000                21                      
903L001L5063200504094544892D23700046425065562083793789100000008500210325350   CRESCENT1 CUS0047282          I ISMAIL                      00000000000000000000                21                      
903L001L5063200504094544892D23700046525065562293087716100000008500210325350   CRESCENT1 CUS0056518          F AZIZ                        00000000000000000000                21                      
903L001L5063200504094544892D23700046680000078600148195200000008500210325350   CRESCENT1 CUS0031867          M SHAIK KADER                 00000000000000000000                21                      
903L001L5063200504094544892D23700046705100100000190489100000014400210325350   CRESCENT1 CUS0047302          G MAHIOODIN                   00000000000000000000                21                      
903L001L5063200504094544892D23700046805100110082856298100000008500210325350   CRESCENT1 CUS0056569          Z GAABASHE                    00000000000000000000                21                      
903L001L5063200504094544892D23700046963200509248666366100000016000210325350   CRESCENT1 CUS0031939          H SALEH                       00000000000000000000                21                      
903L001L5063200504094544892D23700047047001001383913844200000008500210325350   CRESCENT1 CUS0047332          A GABIER                      00000000000000000000                21                      
903L001L5063200504094544892D23700047125065562158506950100000008500210325350   CRESCENT1 CUS0056574          F FORTUNE                     00000000000000000000                21                      
903L001L5063200504094544892D23700047263200504072968452100000008500210325350   CRESCENT1 CUS0032087          N CASSIM                      00000000000000000000                21                      
903L001L5063200504094544892D23700047347001001326424260200000008500210325350   CRESCENT1 CUS0047352          I KHAN                        00000000000000000000                21                      
903L001L5063200504094544892D23700047425065562489321952100000008500210325350   CRESCENT1 CUS0056623          S ABRAHAMS                    00000000000000000000                21                      
903L001L5063200504094544892D23700047547001001508971224200000008500210325350   CRESCENT1 CUS0032343          W KRIEL                       00000000000000000000                21                      
903L001L5063200504094544892D23700047625065562473122548100000008500210325350   CRESCENT1 CUS0047355          C HASSIM                      00000000000000000000                21                      
903L001L5063200504094544892D23700047719876501032489804100000008500210325350   CRESCENT1 CUS0056626          L HILL                        00000000000000000000                21                      
903L001L5063200504094544892D23700047825065562093008417100000015400210325350   CRESCENT1 CUS0032374          H BHAYAT                      00000000000000000000                21                      
903L001L5063200504094544892D23700047947001001371549239200000008500210325350   CRESCENT1 CUS0047359          N HASSEM                      00000000000000000000                21                      
903L001L5063200504094544892D23700048025065562186119840100000008500210325350   CRESCENT1 CUS0056690          I DADABHAI                    00000000000000000000                21                      
903L001L5063200504094544892D23700048147001001229259609200000016000210325350   CRESCENT1 CUS0032648          B SHEBA                       00000000000000000000                21                      
903L001L5063200504094544892D23700048219876501010678965100000008500210325350   CRESCENT1 CUS0047361          Z KARODIA                     00000000000000000000                21                      
903L001L5063200504094544892D23700048363200509233376750100000008500210325350   CRESCENT1 CUS0056691          A HAMID                       00000000000000000000                21                      
903L001L5063200504094544892D23700048463200509185040217100000008500210325350   CRESCENT1 CUS0032808          S LOONAT                      00000000000000000000                21                      
903L001L5063200504094544892D23700048525065554470037961100000008500210325350   CRESCENT1 CUS0047363          H HAJAT                       00000000000000000000                21                      
903L001L5063200504094544892D23700048647001001322110571200000008500210325350   CRESCENT1 CUS0056720          A FAGODIEN                    00000000000000000000                21                      
903L001L5063200504094544892D23700048725065562589863705100000016000210325350   CRESCENT1 CUS0032943          A BASHA                       00000000000000000000                21                      
903L001L5063200504094544892D23700048825065562451219268100000008500210325350   CRESCENT1 CUS0047382          Z SUBJEE                      00000000000000000000                21                      
903L001L5063200504094544892D23700048919876501088876757100000008500210325350   CRESCENT1 CUS0056746          F MOHAMED                     00000000000000000000                21                      
903L001L5063200504094544892D23700049005100100052469921100000008500210325350   CRESCENT1 CUS0033027          J VASGARAY                    00000000000000000000                21                      
903L001L5063200504094544892D23700049147001001316588678200000008500210325350   CRESCENT1 CUS0047452          S ABRAHAMS                    00000000000000000000                21                      
903L001L5063200504094544892D23700049205100100041922646100000016000210325350   CRESCENT1 CUS0056753          A LATEGAN                     00000000000000000000                21                      
903L001L5063200504094544892D23700049325065562580510735100000008500210325350   CRESCENT1 CUS0033113          S ABDOOLA                     00000000000000000000                21                      
903L001L5063200504094544892D23700049405100100070163332100000016000210325350   CRESCENT1 CUS0047498          M KAMAAR                      00000000000000000000                21                      
903L001L5063200504094544892D23700049525065562408530469100000008500210325350   CRESCENT1 CUS0056774          G GREEF                       00000000000000000000                21                      
903L001L5063200504094544892D23700049663200504088561943100000008500210325350   CRESCENT1 CUS0033172          A KHOTA                       00000000000000000000                21                      
903L001L5063200504094544892D23700049725065560342545859100000008500210325350   CRESCENT1 CUS0047508          J MOOSA                       00000000000000000000                21                      
903L001L5063200504094544892D23700049805100100071302530100000008500210325350   CRESCENT1 CUS0056776          F HALLAM                      00000000000000000000                21                      
903L001L5063200504094544892D23700049919876501045979724100000024500210325350   CRESCENT1 CUS0033288          A ABRAHAMS                    00000000000000000000                21                      
