000L2021022500000PAYPORT CONSULTING PTY LTD EFT000064607303                                                                                                                                           
010LD237000013301                                                                                                                                                                                     
011LD23763200500000040945448920120210225                                                                                                                                                              
013L5020210224000861198765000000110724931100000008500CRESCENT1 CUS0029084          02682502000861                Y LEGOETE                                                                            
013L5020210224000387250655000006265163476900000023500CRESCENT1 CUS0041396          02682502000387                K ABASS                                                                              
013L5020210224000774250655000000001147884500000007500CRESCENT1 CUS0023047          02682502000774                I KOCKNEY                                                                            
013L5020210224000706250655000000408208943800000008500CRESCENT1 CUS0044678          02682502000706                F HARMEN                                                                             
013L5020210224000802470010000000141471615100000008500CRESCENT1 CUS0046211          02682502000802                R BRIJH                                                                              
013L5020210224000855470010000000110359731500000007500CRESCENT1 CUS0028955          02682502000855                L NIEZER                                                                             
013L5020210224000229470010000000134706807900000008500CRESCENT1 CUS0057848          02682502000229                A APPOLLIS                                                                           
013L5020210224000220250655000006255230306800000008500CRESCENT1 CUS0049625          02682502000220                A HLOPHE                                                                             
013L5020210224000551051001000006253010233400000008500CRESCENT1 CUS0042905          02682502000551                S SHAHID                                                                             
013L5020210224000499632005000000928054747200000008500CRESCENT1 CUS0042486          02683002000499                S FRANKS                                                                             
013L5020210224000741250655000000625478712800000007500CRESCENT1 CUS0021253          02682502000741                R KHAN                                                                               
014L0000000110000000000000002123355739100000000010550000000000000000                                                                                                                                  
019L0000000110000000000000002123355739100000000010550000000000000000                                                                                                                                  
010LD237000013408                                                                                                                                                                                     
011LD23763200500000040945448920120210127                                                                                                                                                              
013L5020210127003073250056000006204420461800000016000CRESCENT1 CUS0029274          03000000000000                H LAMBAT                                                                             
014L0000000010000000000000000620442046180000000001600000000000000000                                                                                                                                  
019L0000000010000000000000000620442046180000000001600000000000000000                                                                                                                                  
999L000000022                                                                                                                                                                                         
