000L2021012300000PAYPORT CONSULTING PTY LTD EFT000059907303                                                                                                                                           
010LD237000008601                                                                                                                                                                                     
011LD23763200500000040945448920120210121                                                                                                                                                              
013L5020210120000391051001000001009422565400000008500CRESCENT1 CUS0056235          00200000000000                F VAN ZYLE                                                                           
013L5020210120000311051001000000008298883800000008500CRESCENT1 CUS0053607          00200000000000                R ADAM                                                                               
013L5020210120000421470010000000145335942500000008500CRESCENT1 CUS0057291          00200000000000                R ABRAHAMS FRIDIE                                                                    
013L5020210120000088470010000000150696387900000008500CRESCENT1 CUS0059310          00200000000000                N THWALA                                                                             
013L5020210120000323470010000000156306484500000008500CRESCENT1 CUS0054401          00200000000000                S HOOSAIN                                                                            
013L5020210120000014470010000000114577313100000008500CRESCENT1 CUS0058031          00200000000000                S BOWERS                                                                             
013L5020210120000010470010000000144957912200000008500CRESCENT1 CUS0057942          00200000000000                B WHITEBOY                                                                           
013L5020210120000064632005000000930258876900000006900CRESCENT1 CUS0058915          00292803000064                S KRIEL                                                                              
013L5020210120000382470010000000136414307900000016000CRESCENT1 CUS0026713          00200000000000                D KARIEM                                                                             
013L5020210120000072470010000000173565584600000008500CRESCENT1 CUS0058990          00200000000000                I JOHNSON                                                                            
013L5020210120000407470010000000143792551900000008500CRESCENT1 CUS0057067          00600000000000                Y MUSTAPHA                                                                           
013L5020210120000042470010000000158681551000000007500CRESCENT1 CUS0058685          00200000000000                F GABIER                                                                             
013L5020210120000380051001000000000932925000000016000CRESCENT1 CUS0026037          01200000000000                B FARRED                                                                             
013L5020210120000262051001000000025207793800000008500CRESCENT1 CUS0009367          00200000000000                M SAYED                                                                              
013L5020210120000131051001000000007377687400000008500CRESCENT1 CUS0043773          00400000000000                A DALWAI                                                                             
013L5020210120000012470010000000111742367900000008500CRESCENT1 CUS0058009          00200000000000                S JACOBS                                                                             
013L5020210120000096470010000000160368658200000008500CRESCENT1 CUS0059477          03400000000000                A SAFODIEN                                                                           
013L5020210120000355632005000000409328422900000008500CRESCENT1 CUS0055094          03092801000355                J TOFFIE                                                                             
013L5020210120000050470010000000164725639700000008500CRESCENT1 CUS0058779          00200000000000                R ISAACS                                                                             
013L5020210120000044470010000000150599084800000008500CRESCENT1 CUS0058689          00200000000000                I AMLAY                                                                              
013L5020210120000369470010000000150543035400000016000CRESCENT1 CUS0055630          00200000000000                Q AJOUHAAR                                                                           
013L5020210120000318051001000000000916856700000008500CRESCENT1 CUS0017521          00400000000000                A BOWERS                                                                             
013L5020210120000263470010000000138079673100000016000CRESCENT1 CUS0051036          00200000000000                N DAVIDS                                                                             
013L5020210120000241470010000000137194780300000008500CRESCENT1 CUS0050363          00200000000000                S ABRAHAMS                                                                           
013L5020210120000280051001000000000923273700000008500CRESCENT1 CUS0011558          00200000000000                Z SALIE                                                                              
013L5020210120000299051001000000007903812300000008500CRESCENT1 CUS0053037          00200000000000                Z HENDRICKS                                                                          
013L5020210120000001051001000000008894895100000008500CRESCENT1 CUS0033468          00400000000000                B ISAACS                                                                             
014L0000000270000000000000000474704726800000000025690000000000000000                                                                                                                                  
019L0000000270000000000000000474704726800000000025690000000000000000                                                                                                                                  
999L000000033                                                                                                                                                                                         
