000L2021041500000PAYPORT CONSULTING PTY LTD EFT000071807303                                                                                                                                           
010LD237000018501                                                                                                                                                                                     
011LD23763200500000040945448920120210331                                                                                                                                                              
013L5020210330001076222826000005499732621900000008500CRESCENT1 CUS0033822          03400000000000                M ABOO BAKER                                                                         
014L0000000010000000000000000549973262190000000000850000000000000000                                                                                                                                  
019L0000000010000000000000000549973262190000000000850000000000000000                                                                                                                                  
999L000000007                                                                                                                                                                                         
