000L2020121100000PAYPORT CONSULTING PTY LTD EFT000054007303                                                                                                                                           
010LD237000005101                                                                                                                                                                                     
011LD23763200500000040945448920120201125                                                                                                                                                              
013L5020201124000728051001000001004226970700000016000CRESCENT1 CUS0057490          03000000000000                A JORDAAN                                                                            
014L0000000010000000000000000100422697070000000001600000000000000000                                                                                                                                  
019L0000000010000000000000000100422697070000000001600000000000000000                                                                                                                                  
999L000000007                                                                                                                                                                                         
