000L2020112500000PAYPORT CONSULTING PTY LTD EFT000051907303                                                                                                                                           
010LD237000004101                                                                                                                                                                                     
011LD23763200500000040945448920120201021                                                                                                                                                              
013L5020201020000365470010000000150543035400000016000CRESCENT1 1603195658OCUS00556303000000000000                Q AJOUHAAR                                                                           
014L0000000010000000000000000015054303540000000001600000000000000000                                                                                                                                  
011LD23763200500000040945448920120201125                                                                                                                                                              
013L5020201124000818250655000006265163476900000023500CRESCENT1 CUS0041396          02682502000818                K ABASS                                                                              
013L5020201124000355470010000000141471615100000008500CRESCENT1 CUS0046211          02682502000355                R BRIJH                                                                              
013L5020201124000405470010000000110359731500000007500CRESCENT1 CUS0028955          02682502000405                L NIEZER                                                                             
013L5020201124000411198765000000110724931100000008500CRESCENT1 CUS0029084          02682502000411                Y LEGOETE                                                                            
013L5020201124000250250655000000408208943800000008500CRESCENT1 CUS0044678          02682502000250                F HARMEN                                                                             
013L5020201124000699250655000006255230306800000008500CRESCENT1 CUS0049625          02682502000699                A HLOPHE                                                                             
013L5020201124000074051001000006253010233400000008500CRESCENT1 CUS0042905          02682502000074                S SHAHID                                                                             
013L5020201124000321250655000000001147884500000007500CRESCENT1 CUS0023047          02682502000321                I KOCKNEY                                                                            
013L5020201124000022632005000000928054747200000008500CRESCENT1 CUS0042486          02683002000022                S FRANKS                                                                             
013L5020201124000800470010000000134706807900000008500CRESCENT1 CUS0057848          02682502000800                A APPOLLIS                                                                           
013L5020201124000288250655000000625478712800000007500CRESCENT1 CUS0021253          02682502000288                R KHAN                                                                               
014L0000000110000000000000002123355739100000000010550000000000000000                                                                                                                                  
019L0000000120000000000000002138410042640000000012150000000000000000                                                                                                                                  
999L000000020                                                                                                                                                                                         
