000L2021032700000PAYPORT CONSULTING PTY LTD EFT000069007303                                                                                                                                           
010LD237000016801                                                                                                                                                                                     
011LD23763200500000040945448920120210227                                                                                                                                                              
013L5020210226001553198765000000117198257700000008500CRESCENT1 CUS0057758          03000000000000                M DOLLIE                                                                             
013L5020210226006408198765000000198463824600000008500CRESCENT1 CUS0039228          03000000000000                T JOGI                                                                               
014L0000000020000000000000000031566208230000000001700000000000000000                                                                                                                                  
011LD23763200500000040945448920120210325                                                                                                                                                              
013L5020210324000306051001000001006338969800000008500CRESCENT1 CUS0054858          00200000000000                Z FELTON                                                                             
013L5020210324000694051001000000000015866600000031000CRESCENT1 CUS0038387          01200000000000                A DAVIES                                                                             
013L5020210324000648470010000000128138428100000006900CRESCENT1 CUS0057751          00200000000000                M KERBELKER                                                                          
013L5020210324000095470010000000131057906500000008500CRESCENT1 CUS0052562          00200000000000                T BRAMDER                                                                            
013L5020210324000411470010000000140391941900000016000CRESCENT1 CUS0055832          00200000000000                S LEITJIES                                                                           
013L5020210324000068470010000000140586348800000008500CRESCENT1 CUS0059240          00200000000000                A PARI                                                                               
013L5020210324000174470010000000148511349900000008500CRESCENT1 CUS0053402          00200000000000                M ORRIE-ROB                                                                          
013L5020210324000183470010000000111045066200000008500CRESCENT1 CUS0053479          00200000000000                Z ZWANE                                                                              
013L5020210324000519051001000000007418107600000008500CRESCENT1 CUS0056953          00200000000000                S WITBOOI                                                                            
013L5020210324000590470010000000116883099900000016000CRESCENT1 CUS0048831          03000000000000                K MANEVELD                                                                           
013L5020210324000828470010000000125169725700000008500CRESCENT1 CUS0058777          00200000000000                I JUDAAR                                                                             
013L5020210324000258470010000000154364425000000008500CRESCENT1 CUS0054375          00200000000000                F STONE                                                                              
013L5020210324000591470010000000140980096000000008500CRESCENT1 CUS0057412          00200000000000                S SAMUELS                                                                            
013L5020210324000218051001000000027055025900000016000CRESCENT1 CUS0043917          00400000000000                N JONES                                                                              
013L5020210324000561051001000000027143432500000008500CRESCENT1 CUS0057221          00200000000000                F ABRAHAMS - FORTUNE                                                                 
013L5020210324000511051001000000008894895100000008500CRESCENT1 CUS0033468          00400000000000                B ISAACS                                                                             
013L5020210324000202051001000000005220943100000031000CRESCENT1 CUS0016551          00200000000000                A KHAN                                                                               
013L5020210324000116470010000000147697704400000008500CRESCENT1 CUS0059461          01200000000000                N HALIEM                                                                             
013L5020210324000096470010000000161858920000000008500CRESCENT1 CUS0059370          00200000000000                I SALASA                                                                             
013L5020210324000456470010000000160050798900000008500CRESCENT1 CUS0056252          00200000000000                M MOGODISENG                                                                         
013L5020210324000475470010000000150897122400000008500CRESCENT1 CUS0032343          00400000000000                W KRIEL                                                                              
013L5020210324000501470010000000134173250700000008500CRESCENT1 CUS0056792          00200000000000                A SALLIE                                                                             
013L5020210324000369470010000000142432656500000016000CRESCENT1 CUS0055542          00200000000000                A ABRAHAMS                                                                           
013L5020210324000582470010000000137474821600000007500CRESCENT1 CUS0057357          00200000000000                F ISMAIL                                                                             
013L5020210324000552632005000000922153263500000008500CRESCENT1 CUS0057212          03492801000552                A HENDRICKS                                                                          
013L5020210324000123051001000000027539809900000008500CRESCENT1 CUS0052897          00400000000000                H GELDERBLOEM                                                                        
013L5020210324000600051001000001004226970700000016000CRESCENT1 CUS0057490          01200000000000                A JORDAAN                                                                            
013L5020210324000147470010000000111529795100000008500CRESCENT1 CUS0053167          00200000000000                K ISMAIL                                                                             
013L5020210324000125632005000000404370027100000008500CRESCENT1 CUS0013984          00292803000125                A EBRAHIM                                                                            
013L5020210324000408470010000000152404000000000008500CRESCENT1 CUS0055829          00200000000000                A TITUS                                                                              
013L5020210324000124470010000000164080189600000008500CRESCENT1 CUS0059474          00200000000000                F JOHNSON                                                                            
013L5020210324000623470010000000132518490800000008500CRESCENT1 CUS0049278          00400000000000                W PLAYTON                                                                            
013L5020210324000571051001000001011685275300000008500CRESCENT1 CUS0035786          01200000000000                N MOOLA                                                                              
013L5020210324000570051001000001003847190400000008500CRESCENT1 CUS0057272          00200000000000                K ADAMS                                                                              
013L5020210324000064462005000001028403130100000008500CRESCENT1 CUS0059230          00200000000000                R DE VRIES                                                                           
013L5020210324000770470010000000126214139500000008500CRESCENT1 CUS0039962          00200000000000                I PATEL                                                                              
013L5020210324000546470010000000143398049300000008500CRESCENT1 CUS0057178          00400000000000                R KHAN                                                                               
013L5020210324000816470010000000150599084800000008500CRESCENT1 CUS0058689          00200000000000                I AMLAY                                                                              
013L5020210324000620470010000000150819396500000008500CRESCENT1 CUS0057556          00200000000000                N MOHAMED                                                                            
013L5020210324000469632005000000924866636600000016000CRESCENT1 CUS0031939          03092801000469                H SALEH                                                                              
013L5020210324000690051001000000000033147300000008500CRESCENT1 CUS0038375          00400000000000                N OMAR                                                                               
013L5020210324000812470010000000164318173200000008500CRESCENT1 CUS0058678          00200000000000                S DAVIDS                                                                             
013L5020210324000739470010000000144978612800000008500CRESCENT1 CUS0050343          00200000000000                S ABRAHAMS                                                                           
013L5020210324000740470010000000120616079700000008500CRESCENT1 CUS0058336          00200000000000                Z BUFFAINS                                                                           
013L5020210324000349051001000000020105119200000016000CRESCENT1 CUS0024615          00200000000000                A MILLER                                                                             
013L5020210324000156470010000000157061571100000008500CRESCENT1 CUS0059587          00200000000000                F GENEVA                                                                             
013L5020210324000335632005000000408286467400000016000CRESCENT1 CUS0045645          03092801000335                E DADA                                                                               
013L5020210324000647632005000000409642259300000008500CRESCENT1 CUS0049537          00292803000647                M HENDRICKS                                                                          
013L5020210324000558470010000000132111260000000008500CRESCENT1 CUS0057219          00200000000000                R KEMP                                                                               
013L5020210324000128470010000000134303584600000008500CRESCENT1 CUS0059482          00200000000000                Z MANUEL                                                                             
013L5020210324000540470010000000152480677100000016000CRESCENT1 CUS0057096          03000000000000                S CROEP                                                                              
013L5020210324000033051001000000000161796600000008500CRESCENT1 CUS0010495          01200000000000                N JABAAR                                                                             
013L5020210324000762051001000000027640044500000016000CRESCENT1 CUS0039801          00200000000000                F OLIVIER                                                                            
013L5020210324000337470010000000124847896500000008500CRESCENT1 CUS0022905          00200000000000                S MOTLEKAR                                                                           
013L5020210324000535051001000000020379293900000016000CRESCENT1 CUS0034360          00200000000000                K SALIM                                                                              
013L5020210324000776051001000000027776533100000008500CRESCENT1 CUS0058527          00200000000000                M WALKER                                                                             
013L5020210324000778051001000000005824696700000008500CRESCENT1 CUS0040029          00200000000000                F MOOSA                                                                              
013L5020210324000808051001000001009380497900000008500CRESCENT1 CUS0058676          01200000000000                I HENDRICKS                                                                          
013L5020210324000219470010000000147742283600000008500CRESCENT1 CUS0053821          01200000000000                F NHLAPO                                                                             
013L5020210324000225470010000000143342036600000008500CRESCENT1 CUS0053870          03000000000000                K MOHAMED                                                                            
013L5020210324000832470010000000164725639700000008500CRESCENT1 CUS0058779          00200000000000                R ISAACS                                                                             
013L5020210324000120470010000000156629632100000008500CRESCENT1 CUS0059464          00400000000000                R SAFODIEN                                                                           
013L5020210324000443470010000000140342189500000008500CRESCENT1 CUS0047114          00200000000000                R SATAR                                                                              
013L5020210324000512470010000000143171440000000016000CRESCENT1 CUS0047654          00200000000000                M DUNBAR                                                                             
013L5020210324000752470010000000134006074200000016000CRESCENT1 CUS0058402          00200000000000                A TOPLEY                                                                             
013L5020210324000609470010000000129817029800000008500CRESCENT1 CUS0057530          00200000000000                L RAJIE DARRES                                                                       
013L5020210324000396051001000000000928192400000008500CRESCENT1 CUS0055776          00400000000000                A ALLIE                                                                              
013L5020210324000222051001000000030300308100000008500CRESCENT1 CUS0053863          00200000000000                D SWANLOW                                                                            
013L5020210324000843051001000001006676710300000016000CRESCENT1 CUS0051285          00200000000000                A SASMAN                                                                             
013L5020210324000811470010000000139905438200000016000CRESCENT1 CUS0051106          00200000000000                A THORNE                                                                             
013L5020210324000852470010000000155397484900000008500CRESCENT1 CUS0058906          00200000000000                K HATTAS-FERRIS                                                                      
013L5020210324000863470010000000163764926400000008500CRESCENT1 CUS0051343          00400000000000                F DAWOOD                                                                             
013L5020210324000748470010000000162737823300000008500CRESCENT1 CUS0058400          00200000000000                B SAMUELS                                                                            
013L5020210324000016470010000000128863720700000016000CRESCENT1 CUS0059139          00200000000000                M KIPPIE                                                                             
013L5020210324000466800000000007860014819500000008500CRESCENT1 CUS0031867          00200000000000                M SHAIK KADER                                                                        
013L5020210324000300470010000000128996735900000008500CRESCENT1 CUS0054777          00200000000000                T STUURMAN                                                                           
013L5020210324000704470010000000156785207400000008500CRESCENT1 CUS0058092          00200000000000                Z ABRAHAMS                                                                           
013L5020210324000868470010000000173565584600000008500CRESCENT1 CUS0058990          00200000000000                I JOHNSON                                                                            
013L5020210324000264051001000000040429113900000008500CRESCENT1 CUS0054497          00400000000000                R HARRIS                                                                             
013L5020210324000543462005000001042788630100000016000CRESCENT1 CUS0057103          00200000000000                A KHAN                                                                               
013L5020210324000091051001000000005433947200000008500CRESCENT1 CUS0052555          00400000000000                F SOOKDER                                                                            
013L5020210324000652051001000001006059869500000008500CRESCENT1 CUS0057776          00200000000000                R PHIRI                                                                              
013L5020210324000597051001000000027454838000000008500CRESCENT1 CUS0057477          00200000000000                G ISAACS                                                                             
013L5020210324000405470010000000139958181100000008500CRESCENT1 CUS0055825          00200000000000                R CASSIM                                                                             
013L5020210324000513470010000000135874440600000008500CRESCENT1 CUS0056935          00400000000000                A LAMONT                                                                             
013L5020210324000329051001000000041083215400000008500CRESCENT1 CUS0045603          00400000000000                H MBALATI                                                                            
013L5020210324000727470010000000115236149800000008500CRESCENT1 CUS0050234          01200000000000                N LENNOX                                                                             
014L0000000870000000000000002779443572600000000090940000000000000000                                                                                                                                  
011LD23763200500000040945448920120210326                                                                                                                                                              
013L5020210325003541632005000000931478060000000008500CRESCENT1 CUS0057566          00300000003541                Z DAVIDS                                                                             
013L5020210325000775632005000000908060666900000015000CRESCENT1 CUS0010305          03492801000775                A KATHRADA                                                                           
013L5020210325001371632005000000404955690700000016000CRESCENT1 CUS0004402          01200000001371                M CHOONARA                                                                           
013L5020210325001587632005000000911538984900000008500CRESCENT1 CUS0014590          00200016001587                F ADAM                                                                               
013L5020210325001967632005000000932212792500000008500CRESCENT1 CUS0058673          00200016001967                M JACOBS                                                                             
013L5020210325001455632005000000910418434100000008500CRESCENT1 CUS0054371          00200016001455                M SLAMDIN                                                                            
013L5020210325002867632005000000931974734600000008500CRESCENT1 CUS0059188          00200016002867                Z PATHER                                                                             
013L5020210325000415632005000000408551286000000008500CRESCENT1 CUS0015513          90300000000415                H GOOLAM                                                                             
013L5020210325003528632005000000013014742900000007500CRESCENT1 CUS0001175          01800000003528                E CASSIM                                                                             
013L5020210325003351580105000001001099096700000008500CRESCENT1 CUS0005227          01200000000000                Z WABEE                                                                              
013L5020210325000587632005000000406470100400000008500CRESCENT1 CUS0002847          90300000000587                M SAYED                                                                              
013L5020210325003230632005000000405662274900000008500CRESCENT1 CUS0003738          01800000003230                F FRANCIS                                                                            
013L5020210325000436632005000000404429807300000016000CRESCENT1 CUS0001493          00200016000436                M RECIET                                                                             
013L5020210325000953580105000001001115562300000023500CRESCENT1 CUS0007207          01200000000000                H MOHAMED                                                                            
013L5020210325003591632005000000918964384700000008500CRESCENT1 CUS0005302          00200016003591                F CASSIM                                                                             
013L5020210325003416632005000000404408695100000008500CRESCENT1 CUS0013202          01200000003416                M BERA                                                                               
013L5020210325000384632005000000920336601200000016000CRESCENT1 CUS0013753          01200012000384                F VALLI                                                                              
013L5020210325002206632005000000409703836700000008500CRESCENT1 CUS0057037          03492801002206                S RHODE KARAN                                                                        
013L5020210325001131632005000000913517921200000008500CRESCENT1 CUS0004339          90300000001131                H RAGIE                                                                              
013L5020210325002235632005000000409402472300000008500CRESCENT1 CUS0054952          90300000002235                Y HASSEN                                                                             
013L5020210325003517580105000001001117285100000008500CRESCENT1 CUS0006775          01200000000000                A KARRIM                                                                             
013L5020210325001779632005000000907094648100000008500CRESCENT1 CUS0009101          00200016001779                R HASSIM                                                                             
013L5020210325003433632005000000918122277600000031000CRESCENT1 CUS0016976          00200016003433                F VARIAWA                                                                            
013L5020210325002581632005000000928071924200000008500CRESCENT1 CUS0057134          00200016002581                S JEPPIE                                                                             
013L5020210325000684632005000000920336474300000008500CRESCENT1 CUS0013919          01200012000684                N VALLI                                                                              
013L5020210325003196632005000000915329245800000008500CRESCENT1 CUS0057389          90300000003196                M BULL                                                                               
014L0000000260000000000000001913738800050000000028650000000000000000                                                                                                                                  
019L0000001150000000000000004724748580880000000121290000000000000000                                                                                                                                  
999L000000125                                                                                                                                                                                         
