000L2021020200000PAYPORT CONSULTING PTY LTD EFT000061407303                                                                                                                                           
010LD237000010001                                                                                                                                                                                     
011LD23763200500000040945448920120210116                                                                                                                                                              
013L5020210115001031051001000000040616139900000008500CRESCENT1 CUS0004126          03400000000000                N MOOSA                                                                              
013L5020210115000435470010000000138236736600000008500CRESCENT1 CUS0059039          03600000000000                Z SOEKER                                                                             
014L0000000020000000000000000017885287650000000001700000000000000000                                                                                                                                  
011LD23763200500000040945448920120210121                                                                                                                                                              
013L5020210120000424198765000000112728261100000008500CRESCENT1 CUS0033435          03000000000000                W ABRAHAMS                                                                           
014L0000000010000000000000000011272826110000000000850000000000000000                                                                                                                                  
011LD23763200500000040945448920120210125                                                                                                                                                              
013L5020210123000193470010000000132253362600000016000CRESCENT1 CUS0057331          03000000000000                N MENEER                                                                             
013L5020210123000641470010000000134303584600000008500CRESCENT1 CUS0059482          03400000000000                Z MANUEL                                                                             
014L0000000020000000000000000026655694720000000002450000000000000000                                                                                                                                  
011LD23763200500000040945448920120210130                                                                                                                                                              
013L5020210129001269470010000000140159907700000008500CRESCENT1 CUS0058319          00400000000000                M ISAACS                                                                             
013L5020210129000448470010000000112171591300000015000CRESCENT1 CUS0053585          00200000000000                G BELL                                                                               
013L5020210129000314470010000000118630422500000008500CRESCENT1 CUS0032236          03400000000000                S MOOLA                                                                              
013L5020210129000718470010000000128569178200000008500CRESCENT1 CUS0054220          00200000000000                M GAFIELDIEN                                                                         
013L5020210129002052051001000000003655424300000008500CRESCENT1 CUS0046997          00200000000000                M JEENA                                                                              
013L5020210129000359470010000000137528247400000008500CRESCENT1 CUS0057700          00200000000000                Y KLEINTJIES                                                                         
013L5020210129001695470010000000132901899900000008500CRESCENT1 CUS0056292          00600000000000                A HAYWOOD                                                                            
013L5020210129001813470010000000166937117200000008500CRESCENT1 CUS0058715          00200000000000                Y TAGODIEN                                                                           
013L5020210129001768470010000000135867418100000008500CRESCENT1 CUS0058674          00200000000000                F JEFTA                                                                              
013L5020210129001506470010000000152384734200000008500CRESCENT1 CUS0055885          00200000000000                M BASARDIEN                                                                          
013L5020210129002298470010000000153571243900000017000CRESCENT1 CUS0024434          00200000000000                J DAVIDS                                                                             
013L5020210129000628470010000000155341367700000016000CRESCENT1 CUS0053922          00200000000000                I NORTON                                                                             
013L5020210129000170470010000000125410485000000008500CRESCENT1 CUS0059208          00200000000000                Z WAGGIE                                                                             
013L5020210129001308470010000000126562191600000008500CRESCENT1 CUS0055468          00200000000000                H JABAAR                                                                             
013L5020210129001947051001000001006417225000000008500CRESCENT1 CUS0056755          00200000000000                R PETERSEN                                                                           
013L5020210129002303051001000001010318161800000008500CRESCENT1 CUS0052510          00200000000000                W SIMONS                                                                             
013L5020210129001516051001000001011722140400000008500CRESCENT1 CUS0058474          00200000000000                A PETERSEN                                                                           
013L5020210129001513051001000001001317900200000007500CRESCENT1 CUS0045745          00200000000000                K DEVAJEE                                                                            
013L5020210129000018051001000001003690558300000008500CRESCENT1 CUS0052837          00200000000000                S DANIELS                                                                            
013L5020210129000918470010000000116770902900000008500CRESCENT1 CUS0054640          00200000000000                K ABRAHAMS                                                                           
013L5020210129000648470010000000118969076200000008500CRESCENT1 CUS0053930          03400000000000                I RAYEPEN-ESS                                                                        
013L5020210129001444470010000000121258394700000008500CRESCENT1 CUS0058394          00200000000000                S CECILS                                                                             
013L5020210129000250470010000000116236995500000008500CRESCENT1 CUS0059233          00200000000000                M SOLOMONS                                                                           
013L5020210129001202051001000000020418233600000008500CRESCENT1 CUS0019675          00400000000000                N OSMAN                                                                              
013L5020210129000288470010000000148564733700000008500CRESCENT1 CUS0053264          00200000000000                K ABRAHAMS                                                                           
013L5020210129002404470010000000148703170800000008500CRESCENT1 CUS0057233          00400000000000                A MATTHYS                                                                            
013L5020210129001157470010000000140226232700000008500CRESCENT1 CUS0049498          03600000000000                R FRANCIS                                                                            
013L5020210129002455470010000000159030660900000008500CRESCENT1 CUS0059161          03600000000000                R AUGUST                                                                             
013L5020210129002224470010000000159026075700000008500CRESCENT1 CUS0056955          00200000000000                Z KARRIEM                                                                            
013L5020210129000420470010000000172545856800000008500CRESCENT1 CUS0059302          00200000000000                I ISMAIL                                                                             
013L5020210129001130470010000000158413347100000008500CRESCENT1 CUS0059537          00200000000000                M HANSLO                                                                             
013L5020210129000207470010000000147463867600000016000CRESCENT1 CUS0048178          00200000000000                M ISAACS                                                                             
013L5020210129001318051001000000020307983300000008500CRESCENT1 CUS0058331          00400000000000                R HERCULES                                                                           
013L5020210129000537051001000000007001013700000016000CRESCENT1 CUS0048629          00600000000000                M COZYN                                                                              
013L5020210129001866462005000000732375130100000008500CRESCENT1 CUS0056622          00200000000000                Y ABDULLAH                                                                           
013L5020210129001070051001000001013656569500000008500CRESCENT1 CUS0059486          00200000000000                Z KHAN                                                                               
013L5020210129002471051001000001012917853300000008500CRESCENT1 CUS0042631          00200000000000                A SONDAY                                                                             
013L5020210129000719470010000000116728145200000008500CRESCENT1 CUS0057992          00200000000000                A DAVIDS                                                                             
013L5020210129001455051001000000007036156800000008500CRESCENT1 CUS0020626          00400000000000                E GANIEF                                                                             
013L5020210129000331051001000000002084958300000016000CRESCENT1 CUS0003965          00600000000000                A SAYED                                                                              
013L5020210129000615470010000000157416189800000008500CRESCENT1 CUS0038322          00200000000000                M MAKDA                                                                              
013L5020210129001480470010000000129676000400000008500CRESCENT1 CUS0058401          00200000000000                F ISAACS                                                                             
013L5020210129001124470010000000173307762400000008500CRESCENT1 CUS0033917          00200000000000                M PRINCE                                                                             
013L5020210129000870470010000000160347584000000008500CRESCENT1 CUS0059436          00200000000000                S MADATT                                                                             
013L5020210129001966470010000000166890462200000008500CRESCENT1 CUS0058798          00200000000000                M ADAMS                                                                              
013L5020210129001199470010000000131798787800000008500CRESCENT1 CUS0058298          00200000000000                M SHADE                                                                              
013L5020210129000430470010000000145473146800000008500CRESCENT1 CUS0059311          00200000000000                M SOLOMONS                                                                           
013L5020210129000195051001000000035435887100000008500CRESCENT1 CUS0037236          00400000000000                F BUCCAS                                                                             
013L5020210129000161051001000000020420364300000008500CRESCENT1 CUS0003040          00200000000000                S SALLIE                                                                             
013L5020210129000709678910000005100714983600000006900CRESCENT1 CUS0057974          00200000000000                S JOHNSON ENGELBRECHT                                                                
013L5020210129001704470010000000159240469100000007500CRESCENT1 CUS0056303          00200000000000                Z JACOBS                                                                             
013L5020210129001340470010000000112709081800000008500CRESCENT1 CUS0034121          00200000000000                J STRAUSS                                                                            
013L5020210129001109470010000000131479526900000008500CRESCENT1 CUS0058236          00200000000000                F DAVIDS                                                                             
013L5020210129001913470010000000138873792000000016000CRESCENT1 CUS0011648          00200000000000                F HARTLEY                                                                            
013L5020210129002193470010000000134150674400000016000CRESCENT1 CUS0052256          03000000000000                I XABA                                                                               
013L5020210129000762051001000000002230449500000008500CRESCENT1 CUS0017615          00200000000000                F FAKIR                                                                              
013L5020210129001151051001000000003228499300000008500CRESCENT1 CUS0007149          00200000000000                Z FAREED                                                                             
013L5020210129001030470010000000161271138100000008500CRESCENT1 CUS0059466          00200000000000                F GAFFOOR                                                                            
013L5020210129000578470010000000163978766400000008500CRESCENT1 CUS0053800          00200000000000                F INNOCENT                                                                           
013L5020210129000548470010000000141023947900000007500CRESCENT1 CUS0053735          00400000000000                M MOHAMED                                                                            
013L5020210129002395470010000000143272716600000008500CRESCENT1 CUS0059137          00600000000000                N DAMON                                                                              
013L5020210129000067470010000000145622843700000008500CRESCENT1 CUS0047989          03200000000000                R VAN NIEKERK                                                                        
013L5020210129000004051001000000003898828300000008500CRESCENT1 CUS0031663          00600000000000                N ALLY                                                                               
013L5020210129000341051001000000062513055300000016000CRESCENT1 CUS0003976          00200000000000                R GANGAT                                                                             
013L5020210129000220470010000000170553341600000008500CRESCENT1 CUS0059219          00200000000000                F EBRAHIEM                                                                           
013L5020210129001336470010000000166993131300000008500CRESCENT1 CUS0058338          00200000000000                E ANDREWS                                                                            
013L5020210129000727470010000000123974025300000016000CRESCENT1 CUS0048873          03600000000000                A WALKER                                                                             
013L5020210129001239470010000000142024362200000008500CRESCENT1 CUS0058312          00200000000000                Z PARKER                                                                             
013L5020210129001059470010000000144910221000000008500CRESCENT1 CUS0058214          00200000000000                M JAFTHA                                                                             
013L5020210129000470470010000000153356471800000008500CRESCENT1 CUS0059330          00200000000000                K BARTHUS                                                                            
013L5020210129000707470010000000138368639200000008500CRESCENT1 CUS0048832          03000000000000                I MARTIN                                                                             
013L5020210129001088051001000000006188199600000016000CRESCENT1 CUS0054818          00400000000000                I BENNETT                                                                            
013L5020210129001746051001000000000210828300000008500CRESCENT1 CUS0040908          00400000000000                N AMIN                                                                               
013L5020210129002047051001000000020241853700000016000CRESCENT1 CUS0012481          00200000000000                I MOHAMMED                                                                           
013L5020210129002429470010000000169689805400000008500CRESCENT1 CUS0031522          00200000000000                L MAKHANYA                                                                           
013L5020210129000270470010000000160645012100000008500CRESCENT1 CUS0059239          03400000000000                Z PETERSEN                                                                           
013L5020210129001566470010000000158437703600000016000CRESCENT1 CUS0040617          00200000000000                M PARTON                                                                             
013L5020210129000568051001000001008244735500000008500CRESCENT1 CUS0053791          00200000000000                M PARKER                                                                             
013L5020210129001678470010000000123767163700000008500CRESCENT1 CUS0058650          01200000000000                S PHILANDER                                                                          
013L5020210129000745470010000000139889422000000008500CRESCENT1 CUS0038719          00200000000000                Z HAMID                                                                              
013L5020210129000339470010000000136114514300000008500CRESCENT1 CUS0057670          00600000000000                S ADAMS                                                                              
013L5020210129001058470010000000131027229600000008500CRESCENT1 CUS0054793          00200000000000                A MOOSA                                                                              
013L5020210129001378470010000000140456947000000016000CRESCENT1 CUS0045507          00200000000000                R LEEMAN                                                                             
013L5020210129000008470010000000138365921200000008500CRESCENT1 CUS0052820          00200000000000                T BOOYSEN                                                                            
013L5020210129000330470010000000113436565700000008500CRESCENT1 CUS0059254          00200000000000                B WILKINSON                                                                          
013L5020210129000510462005000001851822830100000008500CRESCENT1 CUS0059347          00200000000000                T SAFTER                                                                             
013L5020210129002168051001000000000250966000000016000CRESCENT1 CUS0024071          00600000000000                N SALIE                                                                              
013L5020210129000631470010000000123938567400000008500CRESCENT1 CUS0005019          00200000000000                B OTTO                                                                               
013L5020210129000550470010000000129404947800000008500CRESCENT1 CUS0059357          00200000000000                S KUMARDATTA                                                                         
013L5020210129001371470010000000142658134100000008500CRESCENT1 CUS0055608          00200000000000                A CRIGHCON                                                                           
013L5020210129000029470010000000161339970500000008500CRESCENT1 CUS0057336          03000000000000                T ADAMS                                                                              
013L5020210129000165470010000000142122942900000008500CRESCENT1 CUS0037171          00200000000000                M MAHOMED                                                                            
013L5020210129000468470010000000140897513900000008500CRESCENT1 CUS0053591          00200000000000                N ABRAHAMS                                                                           
013L5020210129000900470010000000144449809400000008500CRESCENT1 CUS0059441          00200000000000                I CASPER                                                                             
013L5020210129001625470010000000146520966000000008500CRESCENT1 CUS0010054          00200000000000                S MIA                                                                                
013L5020210129001201470010000000139672365800000016000CRESCENT1 CUS0007425          00200000000000                F FAKIER                                                                             
013L5020210129001754470010000000135372208000000008500CRESCENT1 CUS0035265          00200000000000                F AHMAD                                                                              
013L5020210129001885470010000000132262898800000008500CRESCENT1 CUS0058753          00400000000000                A ACHMAT                                                                             
013L5020210129000090470010000000126606138800000008500CRESCENT1 CUS0059192          00200000000000                M SEDICK                                                                             
013L5020210129002142470010000000126898482300000007500CRESCENT1 CUS0047255          03600000000000                Z HARDIEN                                                                            
013L5020210129001596051001000000007425741200000016000CRESCENT1 CUS0056014          00200000000000                L CORNELIUS                                                                          
013L5020210129000307051001000000007258803900000016000CRESCENT1 CUS0048311          00600000000000                F ASOUHAAR EBRAHIM                                                                   
013L5020210129001586051001000000000487063800000008500CRESCENT1 CUS0050013          00400000000000                Z ABDOOL                                                                             
013L5020210129001623051001000000027032580800000008500CRESCENT1 CUS0056165          00600000000000                A WAGGIE                                                                             
013L5020210129000770470010000000151684670000000008500CRESCENT1 CUS0059417          00200000000000                T KARIEM                                                                             
013L5020210129000678470010000000153761925800000008500CRESCENT1 CUS0054043          00200000000000                S ISAACS                                                                             
013L5020210129001170470010000000162839124100000004500CRESCENT1 CUS0059558          00200000000000                Z SAMUELS                                                                            
013L5020210129002254632005000000928077357900000008500CRESCENT1 CUS0056989          00292803002254                I WILLIAMS                                                                           
013L5020210129001230470010000000168496397200000004500CRESCENT1 CUS0059582          00200000000000                R MOSES                                                                              
013L5020210129000827051001000001004698420600000008500CRESCENT1 CUS0048982          01200000000000                I HOFFAH                                                                             
013L5020210129000060051001000001010553618900000016000CRESCENT1 CUS0059183          00200000000000                M DOHA                                                                               
013L5020210129002215051001000001012709813300000008500CRESCENT1 CUS0059007          00200000000000                A ROURKE                                                                             
013L5020210129002075470010000000170152915500000008500CRESCENT1 CUS0058878          00200000000000                F BRENNER                                                                            
013L5020210129001260470010000000157061571100000004500CRESCENT1 CUS0059587          00200000000000                F GENEVA                                                                             
013L5020210129001729470010000000137194009400000008500CRESCENT1 CUS0046339          00400000000000                M MINNIE                                                                             
013L5020210129001498051001000000062423697800000008500CRESCENT1 CUS0058471          00200000000000                N DUTOIT                                                                             
013L5020210129000360470010000000121684884800000008500CRESCENT1 CUS0059269          00200000000000                M JACOBS                                                                             
013L5020210129000210462005000000756448130100000008500CRESCENT1 CUS0059216          01200000000000                W DAVIDS                                                                             
013L5020210129001906051001000000042087832700000008500CRESCENT1 CUS0030369          00200000000000                B OMARJEE                                                                            
013L5020210129001791051001000000027215207200000007500CRESCENT1 CUS0041007          00300000000000                T SALIE                                                                              
013L5020210129001082051001000000033059508300000016000CRESCENT1 CUS0018878          01200000000000                S VANIA                                                                              
013L5020210129001681051001000000000348075500000038500CRESCENT1 CUS0029097          00400000000000                A ALLIE                                                                              
013L5020210129000750470010000000137705706000000008500CRESCENT1 CUS0059415          00200000000000                R SEDICK                                                                             
013L5020210129002034470010000000129902147400000007500CRESCENT1 CUS0056814          00200000000000                I DE KLERK                                                                           
013L5020210129001995470010000000141009037800000007500CRESCENT1 CUS0058839          00200000000000                I NASSER                                                                             
013L5020210129000868470010000000141212885200000008500CRESCENT1 CUS0054584          00200000000000                D EBRAHIM                                                                            
013L5020210129001985470010000000168073891500000008500CRESCENT1 CUS0058824          00200000000000                A BASARDIEN                                                                          
013L5020210129000950470010000000164256111600000008500CRESCENT1 CUS0059452          00400000000000                M JAMAL                                                                              
013L5020210129001069470010000000166625189300000008500CRESCENT1 CUS0058223          00200000000000                M LUNAT                                                                              
013L5020210129002195470010000000163967427400000008500CRESCENT1 CUS0058996          00200000000000                K MAIN                                                                               
013L5020210129002284470010000000145995863000000016000CRESCENT1 CUS0057051          00200000000000                F DARRIES                                                                            
013L5020210129001570470010000000149913312800000008500CRESCENT1 CUS0058492          00200000000000                F DE JAGER                                                                           
013L5020210129002264470010000000116513618800000007500CRESCENT1 CUS0057005          00200000000000                Y MAJIET                                                                             
013L5020210129000569470010000000125861400400000008500CRESCENT1 CUS0057866          03000000000000                S MORRIS                                                                             
013L5020210129001767051001000001003962260400000008500CRESCENT1 CUS0056510          00200000000000                N MAHABEER                                                                           
013L5020210129001247470010000000119315619800000016000CRESCENT1 CUS0049621          03200000000000                N LENNOX                                                                             
013L5020210129001552470010000000137508528800000006900CRESCENT1 CUS0058483          01200000000000                M TOFA                                                                               
013L5020210129000419470010000000167626896900000008500CRESCENT1 CUS0057742          00200000000000                R CHICHVADIA                                                                         
013L5020210129002155470010000000163427172400000016000CRESCENT1 CUS0058928          00200000000000                M ISAACS                                                                             
013L5020210129001159470010000000140695686200000008500CRESCENT1 CUS0058274          00600000000000                N LIWIN                                                                              
013L5020210129001461470010000000130524592800000016000CRESCENT1 CUS0055712          00200000000000                A SEPTEMBER                                                                          
013L5020210129001048051001000000027210533300000008500CRESCENT1 CUS0054792          00400000000000                M ADHKARIE                                                                           
013L5020210129000869470010000000122589260900000006900CRESCENT1 CUS0058104          00200000000000                I MIA                                                                                
013L5020210129002065470010000000139928533300000016000CRESCENT1 CUS0058875          00200000000000                F SHAIK                                                                              
013L5020210129001525470010000000142300287100000008500CRESCENT1 CUS0058475          00200000000000                W GAMBA                                                                              
013L5020210129001344470010000000130320430200000008500CRESCENT1 CUS0055561          00200000000000                R RATTIM                                                                             
013L5020210129001375470010000000121353539300000008500CRESCENT1 CUS0027766          00200000000000                M MOSES                                                                              
013L5020210129001116462005000000860346430100000008500CRESCENT1 CUS0044939          00200000000000                S YOUNGER                                                                            
013L5020210129001642470010000000128029374600000008500CRESCENT1 CUS0058646          00200000000000                L WIESE                                                                              
013L5020210129000238470010000000128273599100000008500CRESCENT1 CUS0053226          00200000000000                A NORTON                                                                             
013L5020210129000118470010000000128800491300000008500CRESCENT1 CUS0053071          00200000000000                F KHAN                                                                               
013L5020210129002474470010000000130879624000000008500CRESCENT1 CUS0057332          00200000000000                M ARIEFOLIEN                                                                         
013L5020210129001669470010000000154528205400000008500CRESCENT1 CUS0058649          00200000000000                M FISHER                                                                             
013L5020210129001060051001000001010864798400000008500CRESCENT1 CUS0059484          00200000000000                T BARDIEN                                                                            
013L5020210129000438051001000001010741466800000008500CRESCENT1 CUS0053565          01200000000000                M DAVIS                                                                              
013L5020210129001249051001000001011304890200000008500CRESCENT1 CUS0058315          00200000000000                A BLAAUW                                                                             
013L5020210129001651470010000000153848517400000006900CRESCENT1 CUS0058647          00200000000000                A SOLOMON                                                                            
013L5020210129000828470010000000155097651400000008500CRESCENT1 CUS0054472          00200000000000                S BEN                                                                                
013L5020210129000253051001000000025182447000000016000CRESCENT1 CUS0025220          01200000000000                A HASSAN                                                                             
013L5020210129001796051001000000020772486500000008500CRESCENT1 CUS0011101          00400000000000                T ISMAIL                                                                             
013L5020210129001354470010000000162698158000000008500CRESCENT1 CUS0058342          03400000000000                J DELPORT                                                                            
013L5020210129002144470010000000159258334000000008500CRESCENT1 CUS0056871          00200000000000                K GROENEWALD                                                                         
013L5020210129000929678910000005100922806700000008500CRESCENT1 CUS0058118          00200000000000                W LYONS                                                                              
013L5020210129002072250655000007456488551300000008500CRESCENT1 CUS0047042          02600000000000                F COMROODIEN                                                                         
013L5020210129001714462005000000595500930300000008500CRESCENT1 CUS0058657          00200000000000                R TAGODIEN                                                                           
013L5020210129000040470010000000147854729200000008500CRESCENT1 CUS0059180          00200000000000                N SAUL                                                                               
013L5020210129000269470010000000152409062800000008500CRESCENT1 CUS0057504          03200000000000                N BASSIER                                                                            
013L5020210129002485470010000000138131509500000008500CRESCENT1 CUS0059175          00600000000000                A TAQODIEN                                                                           
013L5020210129000497051001000001007577797300000008500CRESCENT1 CUS0048575          00400000000000                R DANIELS                                                                            
013L5020210129000049470010000000128873333800000016000CRESCENT1 CUS0057354          00200000000000                G SEPTEMBER                                                                          
014L0000001700000000000000005672786884430000000165110000000000000000                                                                                                                                  
011LD23763200500000040945448920120210201                                                                                                                                                              
013L5020210130000070632005000000935867770000000025000ABSOLIT   1611840613RSHAQH001 00200016000070                SHAQUILLE HERMAN                                                                     
014L0000000010000000000000000093586777000000000002500000000000000000                                                                                                                                  
019L0000001760000000000000005822187469910000000172610000000000000000                                                                                                                                  
010LD237000010108                                                                                                                                                                                     
011LD23763200500000040945448920120210127                                                                                                                                                              
013L5020210127002702632005000000408397697300000016000CRESCENT1 CUS0047275          03492801002702                D KAFAAR                                                                             
013L5020210127003643470010000000141043717300000016000CRESCENT1 CUS0057083          03600000000000                M ARENDSE                                                                            
013L5020210127004024198765000000107902606100000008500CRESCENT1 CUS0050860          03000000000000                M KARIEM                                                                             
013L5020210127000249470010000000131327215700000016000CRESCENT1 CUS0042298          03600000000000                S DAVIDS                                                                             
014L0000000040000000000000000078867123640000000005650000000000000000                                                                                                                                  
019L0000000040000000000000000078867123640000000005650000000000000000                                                                                                                                  
999L000000198                                                                                                                                                                                         
