000L2021013000000PAYPORT CONSULTING PTY LTD    000061007303                                                                                                                                           
900L000 TRANSMISSION 07303-0000055 ACCEPTED                                                                                                                                                           
900L001 ACB USER SET D237-0000060-000082 ACCEPTED                                                                                                                                                     
903L001L5063200504094544892D23700000163200504063093668100000028600210201410   PAYPORT   1611989484RARCTICA  ANDREW VESTER                 00000000000000000000                21                      
903L001L5063200504094544892D23700000225065562858113170100000028600210201410   PAYPORT   1611989484ROPECTOR  OPECTOR LTD                   00000000000000000000                21                      
903L001L5063200504094544892D23700000305100100301749752100000028600210201410   PAYPORT   1611840620RWINTERNETWINTERNET                     00000000000000000000                21                      
903L001L5063200504094544892D23700000425065562809225156100000028600210201410   PAYPORT   1611840620RSERAPHIM0SERAPHIM SECURITY INTERNATIONA00000000000000000000                21                      
903L001L5263200504094544892D23700000563200504094544892100000114400210201100000PAYPORT   CONTRAV8UJ9RTAN3O4CX                                                                                          
903L001L5063200504094544892D23700000619876501684011264100000007500210201350   ARCTICA   1611840617RARCTICA00KARIN BROWN                   00000000000000000000                21                      
903L001L5063200504094544892D23700000705100100200480502100000028900210201350   ARCTICA   1611840617RARCTICA00SIP PROJECT MANAGERS          00000000000000000000                21                      
903L001L5063200504094544892D23700000863200504097620326100000007500210201350   ARCTICA   1611840617RARCTICA00UNI CARGO CC                  00000000000000000000                21                      
903L001L5063200504094544892D23700000905100100332017052100000018900210201350   ARCTICA   1611840617RARCTICA00PADDOCK WOODS                 00000000000000000000                21                      
903L001L5063200504094544892D23700001005100100202481131100000022500210201350   ARCTICA   1611840617RARCTICA00CHRIST CHURCH MIDRAND         00000000000000000000                21                      
903L001L5063200504094544892D23700001119876501506004946100000007500210201350   ARCTICA   1611840617RARCTICA00BELEAF LANDSCAPE DESIGN       00000000000000000000                21                      
903L001L5063200504094544892D23700001205100100082877831100000007500210201350   ARCTICA   1611840617RARCTICA00EAGLE UNIQUE                  00000000000000000000                21                      
903L001L5063200504094544892D23700001325065558861131556100000093900210201350   ARCTICA   1611840617RARCTICA01CLOROX AFRICA                 00000000000000000000                21                      
903L001L5063200504094544892D23700001425065562347807010100000018900210201350   ARCTICA   1611840617RARCTICA01THE NOT SO STARVING ARTIST    00000000000000000000                21                      
903L001L5063200504094544892D23700001519876501469057808100000028400210201350   ARCTICA   1611840617RARCTICA01WAVELENGHTS 11 PTY LTD        00000000000000000000                21                      
903L001L5063200504094544892D23700001663200504052176388100000018900210201350   ARCTICA   1611840617RARCTICA01ACPM                          00000000000000000000                21                      
903L001L5263200504094544892D23700001763200504094544892100000260400210201100000ARCTICA   CONTRAGX5JCEKPBX7WQ3                                                                                          
903L001L5063200504094544892D23700001819876501186411899100000044275210201350   SERAPHIM  1611840623R3013     AJ SMIT                       00000000000000000000                21                      
903L001L5063200504094544892D23700001925065562093250886100000044275210201350   SERAPHIM  1611840623R720814   NEEL SAAYMAN                  00000000000000000000                21                      
903L001L5063200504094544892D23700002063200500070801450100000044275210201350   SERAPHIM  1611840623R380611   F J STRYDOM                   00000000000000000000                21                      
903L001L5063200504094544892D23700002163200504086583868100000044275210201350   SERAPHIM  1611840623R680402   LOURINA WILSON                00000000000000000000                21                      
903L001L5063200504094544892D23700002263200504099103338100000044275210201350   SERAPHIM  1611840623R6804020  EL GM BASELY                  00000000000000000000                21                      
903L001L5263200504094544892D23700002363200504094544892100000221375210201100000SERAPHIM  CONTRAIAYAUHPJSZC6RK                                                                                          
903L001L5063200504094544892D23700002463200504085962017200000025000210201350   ABSOLIT   1611921237RSVD001   STANTON VAN DER MERWE         00000000000000000000                21                      
903L001L5063200504094544892D23700002525065562164164198100000025000210201350   ABSOLIT   1611921237RSH001    SAAJIDAH HUSSAIN              00000000000000000000                21                      
903L001L5063200504094544892D23700002625065562172522825200000025000210201350   ABSOLIT   1611921237RAMR001   ABDUL RASDIEN                 00000000000000000000                21                      
903L001L5063200504094544892D23700002747001001663025035200000025000210201350   ABSOLIT   1611921237RRK001    RIYAD KARRIEM                 00000000000000000000                21                      
903L001L5063200504094544892D23700002847001001312870093200000025000210201350   ABSOLIT   1611921237RMD001    MERVIN DIEDRICKS              00000000000000000000                21                      
903L001L5063200504094544892D23700002963200504080737742100000025000210201350   ABSOLIT   1611921237RSS001    SIRAAJ SAPTOE                 00000000000000000000                21                      
903L001L5063200504094544892D23700003025065559259005874100000025000210201350   ABSOLIT   1611921237RFA001    FAGMEEDA ADAMS                00000000000000000000                21                      
903L001L5063200504094544892D23700003147001001440463342200000025000210201350   ABSOLIT   1611921237REW001    ELIZABETH WOLHUTER            00000000000000000000                21                      
903L001L5063200504094544892D23700003247001001389093962200000025000210201350   ABSOLIT   1611921237RLS001    LIANNE STAINBANK              00000000000000000000                21                      
903L001L5063200504094544892D23700003325065562234236645100000025000210201350   ABSOLIT   1611921237RPM001    PENELOPE MASONTE              00000000000000000000                21                      
903L001L5063200504094544892D23700003425065550461102193200000025000210201350   ABSOLIT   1611921237RSG001    SHAREL GAMSU                  00000000000000000000                21                      
903L001L5063200504094544892D23700003547001001206365976200000025000210201350   ABSOLIT   1611921237RNM001    NATHANIEL MORAIS              00000000000000000000                21                      
903L001L5063200504094544892D23700003625065562060557562200000025000210201350   ABSOLIT   1611921237RJD001    JENIVIEF DAVIS                00000000000000000000                21                      
903L001L5063200504094544892D23700003747001001337322863200000025000210201350   ABSOLIT   1611921237RGS001    GLEN SOLOMON                  00000000000000000000                21                      
903L001L5063200504094544892D23700003825065562310371216200000025000210201350   ABSOLIT   1611921237RBM001    BRENT MORDAUNT                00000000000000000000                21                      
903L001L5063200504094544892D23700003947001001385989244200000025000210201350   ABSOLIT   1611921237RMS001    MELANIE SCHEEPERS             00000000000000000000                21                      
903L001L5063200504094544892D23700004025065562014416970100000025000210201350   ABSOLIT   1611921237RMM001    MARY MAXES                    00000000000000000000                21                      
903L001L5063200504094544892D23700004147001001527256500200000025000210201350   ABSOLIT   1611921237RHP001    HELENE PETERS                 00000000000000000000                21                      
903L001L5063200504094544892D23700004225065562504261504200000025000210201350   ABSOLIT   1611921237RBJ001    BERENICE JOHANNESSEN          00000000000000000000                21                      
903L001L5063200504094544892D23700004325065562341272590200000050000210201350   ABSOLIT   1611921237RLP001    LLEWELLYN PALMER              00000000000000000000                21                      
903L001L5063200504094544892D23700004405100110131202918100000025000210201350   ABSOLIT   1611921237RSD001    SHIRLEY DUNN                  00000000000000000000                21                      
903L001L5063200504094544892D23700004505100100411433377100000025000210201350   ABSOLIT   1611921237RET001    EULANDE THOMPSON              00000000000000000000                21                      
903L001L5063200504094544892D23700004647001001185583459200000025000210201350   ABSOLIT   1611921237RPW001    PRICILLA WARREN               00000000000000000000                21                      
903L001L5063200504094544892D23700004719876501206693371100000050000210201350   ABSOLIT   1611921237RUP001    URIEL PETERSEN                00000000000000000000                21                      
903L001L5063200504094544892D23700004825065562036441187200000025000210201350   ABSOLIT   1611921237RMS002    MARY SAMSON                   00000000000000000000                21                      
903L001L5063200504094544892D23700004925065550329011585100000025000210201350   ABSOLIT   1611921237RVG001    VICTOR GOODALL                00000000000000000000                21                      
903L001L5063200504094544892D23700005047001001545855178200000025000210201350   ABSOLIT   1611921237RSS0001   SHAHEED SHAMAAR               00000000000000000000                21                      
903L001L5063200504094544892D23700005125065562348758618100000025000210201350   ABSOLIT   1611921237RPS001    PRASHANT SINGH                00000000000000000000                21                      
903L001L5063200504094544892D23700005225065562523827345100000025000210201350   ABSOLIT   1611921237RAP001    ADAM PAULSEN                  00000000000000000000                21                      
903L001L5063200504094544892D23700005347001001378198504200000025000210201350   ABSOLIT   1611840613RFS001    FARHANA SNYMAN                00000000000000000000                21                      
903L001L5063200504094544892D23700005425065562306654816200000025000210201350   ABSOLIT   1611921237RDC0001   DANE COOKE                    00000000000000000000                21                      
903L001L5063200504094544892D23700005547001001331943440200000025000210201350   ABSOLIT   1611840613RDP001    DANIELLE PETERSEN             00000000000000000000                21                      
903L001L5063200504094544892D23700005605100100005061849200000025000210201350   ABSOLIT   1611921237RJB001    JAYNUB BROWN                  00000000000000000000                21                      
903L001L5063200504094544892D23700005747001001179183310200000025000210201350   ABSOLIT   1611840613RFVN001   FAROUK VAN NIEKERK            00000000000000000000                21                      
903L001L5063200504094544892D23700005825065562768338933200000025000210201350   ABSOLIT   1611840613RRLA001   ROSCOE ALEXANDER              00000000000000000000                21                      
903L001L5063200504094544892D23700005947001001301557763200000025000210201350   ABSOLIT   1611840613RINGERR001INGER ROSKIN                  00000000000000000000                21                      
903L001L5063200504094544892D23700006025065562634305363100000050000210201350   ABSOLIT   1611991806RRD001    REAGAN DIMPHANA               00000000000000000000                21                      
903L001L5063200504094544892D23700006119876501205026703100000025000210201350   ABSOLIT   1611840613RBVW001   BLAINE VAN WYK                00000000000000000000                21                      
903L001L5063200504094544892D23700006225065562706841097200000025000210201350   ABSOLIT   1611840613RLAK001   LASHA KRUGER                  00000000000000000000                21                      
903L001L5063200504094544892D23700006325065562191603705200000025000210201350   ABSOLIT   1611840613RRAEESK001RAEES KAMAAR                  00000000000000000000                21                      
903L001L5063200504094544892D23700006405100100202722910200000025000210201350   ABSOLIT   1611840613RMYS001   YAYAH SNYMAN                  00000000000000000000                21                      
903L001L5063200504094544892D23700006525065562071653771200000025000210201350   ABSOLIT   1611840613RMD0001   MORGAN DAVIS                  00000000000000000000                21                      
903L001L5063200504094544892D23700006625065555610018729200000025000210201350   ABSOLIT   1611840613RLP0001   LANCE PINTO                   00000000000000000000                21                      
903L001L5063200504094544892D23700006705100100002558874200000025000210201350   ABSOLIT   1611840613RAS001    ADRIAAN STARKEY               00000000000000000000                21                      
903L001L5063200504094544892D23700006847001001222410697200000025000210201350   ABSOLIT   1611840613RTB001    TERLECHIA BEEBY               00000000000000000000                21                      
903L001L5063200504094544892D23700006947001001530980230200000025000210201350   ABSOLIT   1611840613RMAL001   ARASHAAT LAWRENCE             00000000000000000000                21                      
903L001L5063200504094544892D23700007063200509358677700200000025000210201350   ABSOLIT   1611840613RSHAQH001 SHAQUILLE HERMAN              00000000000000000000                21                      
903L001L5063200504094544892D23700007147001001731108093200000025000210201350   ABSOLIT   1611840617RDC001    DAVID CROSS                   00000000000000000000                21                      
903L001L5063200504094544892D23700007205100110038389515200000025000210201350   ABSOLIT   1611840617RKK001    KERWIN KISTAN                 00000000000000000000                21                      
903L001L5063200504094544892D23700007325065562191603705100000050000210201350   ABSOLIT   1611840617RKB001    KAYLEEN BOAS                  00000000000000000000                21                      
903L001L5063200504094544892D23700007447001001360825213200000025000210201350   ABSOLIT   1611840617RJF001    JUSTIN FLORENCE               00000000000000000000                21                      
903L001L5063200504094544892D23700007525065562345404727200000025000210201350   ABSOLIT   1611840617RRG001    REGINALD GLADE                00000000000000000000                21                      
903L001L5063200504094544892D23700007625065562448960212200000025000210201350   ABSOLIT   1611840617RCG001    CANDICE GRAHAM                00000000000000000000                21                      
903L001L5063200504094544892D23700007719876501011494736100000025000210201350   ABSOLIT   1611840617RPB001    PETUNIA BOTHA                 00000000000000000000                21                      
903L001L5063200504094544892D23700007825065562634305363100000025000210201350   ABSOLIT   1611840617RRD001    REAGAN DIMPHANA               00000000000000000000                21                      
903L001L5063200504094544892D23700007963200504091239785200000025000210201350   ABSOLIT   1611840617RMAM001   MARTHA MILLER                 00000000000000000000                21                      
903L001L5063200504094544892D23700008025065550460076034100000025000210201350   ABSOLIT   1611840617RMR001    MARK ROUSSEAU                 00000000000000000000                21                      
903L001L5063200504094544892D23700008105100100009117393100000025000210201350   ABSOLIT   1611840617RZL001    ZUNAIDE LOONAT                00000000000000000000                21                      
903L001L5263200504094544892D23700008263200504094544892100001550000210201100000ABSOLIT   CONTRASDXP1NGTORKAFM                                                                                          
901L001 D237/0000060/000046 00034-*** WARNING ONLY *** HOMING ACCOUNT INVALID ***                                                                                                                     
901L001 D237/0000060/000047 00080-*** WARNING ONLY - ACCOUNT TYPE CHANGE - 2 TO 1 ***                                                                                                                 
901L001 D237/0000060/000077 00080-*** WARNING ONLY - ACCOUNT TYPE CHANGE - 2 TO 1 ***                                                                                                                 
999L000000089                                                                                                                                                                                         
