000L2020121800000PAYPORT CONSULTING PTY LTD    000054907303                                                                                                                                           
900L000 TRANSMISSION 07303-0000037 ACCEPTED                                                                                                                                                           
900L001 ACB USER SET D237-0000041-002459 ACCEPTED                                                                                                                                                     
903L001L5063200504094544892D23700000125065562337006424100000016000201219350   CRESCENT1 CUS0004319          F KHAN                        00000000000000000000                21                      
903L001L5063200504094544892D23700000219876501237129699100000008500201219350   CRESCENT1 CUS0016398          Y PEFFER                      00000000000000000000                21                      
903L001L5063200504094544892D23700000305100100201489570100000008500201219350   CRESCENT1 CUS0025924          F MOHAMED                     00000000000000000000                21                      
903L001L5063200504094544892D23700000405100100434171689100000016000201219350   CRESCENT1 CUS0032844          I CHOTHIA                     00000000000000000000                21                      
903L001L5063200504094544892D23700000505100100002517620100000008500201219350   CRESCENT1 CUS0038031          G ABRAHAMS                    00000000000000000000                21                      
903L001L5063200504094544892D23700000605100100003059073100000008500201219350   CRESCENT1 CUS0043655          A HOOSEN                      00000000000000000000                21                      
903L001L5063200504094544892D23700000763200504047552969100000008500201219350   CRESCENT1 CUS0048626          N DOMINGO                     00000000000000000000                21                      
903L001L5063200504094544892D23700000825065562758774907100000008500201219350   CRESCENT1 CUS0053786          F TITUS                       00000000000000000000                21                      
903L001L5063200504094544892D23700000947001001441463931200000008500201219350   CRESCENT1 CUS0057793          R CHICHVADIA                  00000000000000000000                21                      
903L001L5063200504094544892D23700001063200504063285954100000006900201219350   CRESCENT1 CUS0059334          R HARRIS                      00000000000000000000                21                      
903L001L5063200504094544892D23700001105100100330182749100000008500201219350   CRESCENT1 CUS0004343          A ABOOBACKER                  00000000000000000000                21                      
903L001L5063200504094544892D23700001219876502983109887200000016000201219350   CRESCENT1 CUS0016420          H ASVAT                       00000000000000000000                21                      
903L001L5063200504094544892D23700001325065562254559289100000008500201219350   CRESCENT1 CUS0025930          Y SEEDAT                      00000000000000000000                21                      
903L001L5063200504094544892D23700001405100100060771852100000008500201219350   CRESCENT1 CUS0032851          I ARENDSE                     00000000000000000000                21                      
903L001L5063200504094544892D23700001563200504076956833100000016000201219350   CRESCENT1 CUS0038033          N CASSIM                      00000000000000000000                21                      
903L001L5063200504094544892D23700001625065562021097482100000015000201219350   CRESCENT1 CUS0043689          L FICK                        00000000000000000000                21                      
903L001L5063200504094544892D23700001705100100070010137100000016000201219350   CRESCENT1 CUS0048629          M COZYN                       00000000000000000000                21                      
903L001L5063200504094544892D23700001805100110082447355100000008500201219350   CRESCENT1 CUS0053791          M PARKER                      00000000000000000000                21                      
903L001L5063200504094544892D23700001947001001474181382200000008500201219350   CRESCENT1 CUS0057796          F HASSEN                      00000000000000000000                21                      
903L001L5063200504094544892D23700002047001001509028674200000008500201219350   CRESCENT1 CUS0059344          T DAVIDS                      00000000000000000000                21                      
903L001L5063200504094544892D23700002125065562604982050100000008500201219350   CRESCENT1 CUS0004359          A ELLEMDEEN                   00000000000000000000                21                      
903L001L5063200504094544892D23700002205100100271126256100000008500201219350   CRESCENT1 CUS0016643          Y ALLY                        00000000000000000000                21                      
903L001L5063200504094544892D23700002319876501385020156100000008500201219350   CRESCENT1 CUS0025943          S OSMAN                       00000000000000000000                21                      
903L001L5063200504094544892D23700002463200509275594191100000016000201219350   CRESCENT1 CUS0032909          J SEETHAL                     00000000000000000000                21                      
903L001L5063200504094544892D23700002563200504059061819100000008500201219350   CRESCENT1 CUS0038078          N HERMAN                      00000000000000000000                21                      
903L001L5063200504094544892D23700002647001001522709736200000006900201219350   CRESCENT1 CUS0043785          S BOWES                       00000000000000000000                21                      
903L001L5063200504094544892D23700002705100100071131574100000008500201219350   CRESCENT1 CUS0048637          F CLOETE                      00000000000000000000                21                      
903L001L5063200504094544892D23700002863200504080095100100000008500201219350   CRESCENT1 CUS0053809          R KHAN                        00000000000000000000                21                      
903L001L5063200504094544892D23700002947001001399323863200000007500201219350   CRESCENT1 CUS0057804          S MALOON                      00000000000000000000                21                      
903L001L5063200504094544892D23700003046200518518228301200000008500201219350   CRESCENT1 CUS0059347          T SAFTER                      00000000000000000000                21                      
903L001L5063200504094544892D23700003125065562052354926100000008500201219350   CRESCENT1 CUS0004420          Y JAPPIE                      00000000000000000000                21                      
903L001L5063200504094544892D23700003263200504085690385100000008500201219350   CRESCENT1 CUS0016718          L MAGNEY                      00000000000000000000                21                      
903L001L5063200504094544892D23700003305100100402133900100000008500201219350   CRESCENT1 CUS0025961          Z TURKEY                      00000000000000000000                21                      
903L001L5063200504094544892D23700003458010510011441222100000008500201219350   CRESCENT1 CUS0032914          Z JINA                        00000000000000000000                21                      
903L001L5063200504094544892D23700003519876501910303453100000008500201219350   CRESCENT1 CUS0038198          R HOOSEN                      00000000000000000000                21                      
903L001L5063200504094544892D23700003619876501953471900100000008500201219350   CRESCENT1 CUS0043809          M HASSEN                      00000000000000000000                21                      
903L001L5063200504094544892D23700003725065558869073726100000008500201219350   CRESCENT1 CUS0048643          M BHAYAT                      00000000000000000000                21                      
903L001L5063200504094544892D23700003825065562575344826100000008500201219350   CRESCENT1 CUS0053818          L DAVIDS                      00000000000000000000                21                      
903L001L5063200504094544892D23700003925065553359010262100000008500201219350   CRESCENT1 CUS0057815          F GOGA                        00000000000000000000                21                      
903L001L5063200504094544892D23700004025065562572972555100000008500201219350   CRESCENT1 CUS0059348          W KAGEE                       00000000000000000000                21                      
903L001L5063200504094544892D23700004119876501385065192100000008500201219350   CRESCENT1 CUS0004427          S HASSEN                      00000000000000000000                21                      
903L001L5063200504094544892D23700004205100100052375854100000016000201219350   CRESCENT1 CUS0016762          I TIM                         00000000000000000000                21                      
903L001L5063200504094544892D23700004305100100204234859100000008500201219350   CRESCENT1 CUS0025963          R COOVADIA                    00000000000000000000                21                      
903L001L5063200504094544892D23700004463200504094667898100000016000201219350   CRESCENT1 CUS0032921          F PATEL                       00000000000000000000                21                      
903L001L5063200504094544892D23700004563200509096546786100000008500201219350   CRESCENT1 CUS0038229          B MITHA                       00000000000000000000                21                      
903L001L5063200504094544892D23700004625065562110220035100000008500201219350   CRESCENT1 CUS0043821          N AZIZ                        00000000000000000000                21                      
903L001L5063200504094544892D23700004725065562013125275100000016000201219350   CRESCENT1 CUS0048655          A GORDON                      00000000000000000000                21                      
903L001L5063200504094544892D23700004863200509172145894100000008500201219350   CRESCENT1 CUS0053851          M OMAR                        00000000000000000000                21                      
903L001L5063200504094544892D23700004925065562790501095100000008500201219350   CRESCENT1 CUS0057846          L DAVIDS                      00000000000000000000                21                      
903L001L5063200504094544892D23700005019876501205545433100000008500201219350   CRESCENT1 CUS0059351          Z JACKSON                     00000000000000000000                21                      
903L001L5063200504094544892D23700005147001001473780207200000016000201219350   CRESCENT1 CUS0004475          C LENDERS                     00000000000000000000                21                      
903L001L5063200504094544892D23700005225065562334653541100000007500201219350   CRESCENT1 CUS0016784          N HAFFAJEE                    00000000000000000000                21                      
903L001L5063200504094544892D23700005325065562701828339100000016000201219350   CRESCENT1 CUS0026001          A ABDUL KADIR SHEIK           00000000000000000000                21                      
903L001L5063200504094544892D23700005425065562228294055100000016000201219350   CRESCENT1 CUS0032932          B AJAM                        00000000000000000000                21                      
903L001L5063200504094544892D23700005525065562361733738100000008500201219350   CRESCENT1 CUS0038238          Y YOUNOOS                     00000000000000000000                21                      
903L001L5063200504094544892D23700005663200509289035817100000008500201219350   CRESCENT1 CUS0043822          N ISMAIL                      00000000000000000000                21                      
903L001L5063200504094544892D23700005705100100071000305100000008500201219350   CRESCENT1 CUS0048662          S ESSOP                       00000000000000000000                21                      
903L001L5063200504094544892D23700005825065562825481071100000016000201219350   CRESCENT1 CUS0053894          M GALLOW                      00000000000000000000                21                      
903L001L5063200504094544892D23700005947001001564185522200000008500201219350   CRESCENT1 CUS0057854          A HANSA                       00000000000000000000                21                      
903L001L5063200504094544892D23700006047001001294049478200000008500201219350   CRESCENT1 CUS0059357          S KUMARDATTA                  00000000000000000000                21                      
903L001L5063200504094544892D23700006163200509048412042100000008500201219350   CRESCENT1 CUS0004521          Y DIVAN                       00000000000000000000                21                      
903L001L5063200504094544892D23700006263200504083843403100000008500201219350   CRESCENT1 CUS0016823          Z SHAIK                       00000000000000000000                21                      
903L001L5063200504094544892D23700006363200538012730737100000008500201219350   CRESCENT1 CUS0026008          G DOOLAY                      00000000000000000000                21                      
903L001L5063200504094544892D23700006425065562058949375100000007500201219350   CRESCENT1 CUS0032974          S VALLI                       00000000000000000000                21                      
903L001L5063200504094544892D23700006547001001271386617200000007500201219350   CRESCENT1 CUS0038250          A MOHAMED                     00000000000000000000                21                      
903L001L5063200504094544892D23700006605100100204211832100000008500201219350   CRESCENT1 CUS0043848          S SAMROD                      00000000000000000000                21                      
903L001L5063200504094544892D23700006763200501194610536100000008500201219350   CRESCENT1 CUS0048664          F FRYDDIE                     00000000000000000000                21                      
903L001L5063200504094544892D23700006847001001553413677200000016000201219350   CRESCENT1 CUS0053922          I NORTON                      00000000000000000000                21                      
903L001L5063200504094544892D23700006947001001258614004200000008500201219350   CRESCENT1 CUS0057866          S MORRIS                      00000000000000000000                21                      
903L001L5063200504094544892D23700007005100100272136646100000008500201219350   CRESCENT1 CUS0059358          S MATTHEWS                    00000000000000000000                21                      
903L001L5063200504094544892D23700007105100100200809547100000008500201219350   CRESCENT1 CUS0004535          L VARYAWA                     00000000000000000000                21                      
903L001L5063200504094544892D23700007225065562661293854100000008500201219350   CRESCENT1 CUS0016964          N SABLAY                      00000000000000000000                21                      
903L001L5063200504094544892D23700007319876501025416341100000016000201219350   CRESCENT1 CUS0026021          A PANGAKER                    00000000000000000000                21                      
903L001L5063200504094544892D23700007447001001182901628200000008500201219350   CRESCENT1 CUS0032996          A LOUW                        00000000000000000000                21                      
903L001L5063200504094544892D23700007563200504084455891100000008500201219350   CRESCENT1 CUS0038259          T ADAMS                       00000000000000000000                21                      
903L001L5063200504094544892D23700007605100100072865326100000008500201219350   CRESCENT1 CUS0043850          F ABABER                      00000000000000000000                21                      
903L001L5063200504094544892D23700007747001001253313405200000016000201219350   CRESCENT1 CUS0048692          A ADAM                        00000000000000000000                21                      
903L001L5063200504094544892D23700007825065562501870621100000008500201219350   CRESCENT1 CUS0053926          G EBRAHIEM                    00000000000000000000                21                      
903L001L5063200504094544892D23700007963200504081545499100000008500201219350   CRESCENT1 CUS0057889          L ISMAIL                      00000000000000000000                21                      
903L001L5063200504094544892D23700008047001001601431722200000008500201219350   CRESCENT1 CUS0059359          G HANSEN                      00000000000000000000                21                      
903L001L5063200504094544892D23700008125065562508226653100000008500201219350   CRESCENT1 CUS0004621          Z AMBARAM                     00000000000000000000                21                      
903L001L5063200504094544892D23700008205100100200877860100000008500201219350   CRESCENT1 CUS0017007          I MAHOMED BASHIR              00000000000000000000                21                      
903L001L5063200504094544892D23700008305100100031521835100000008500201219350   CRESCENT1 CUS0026032          E MOOLA                       00000000000000000000                21                      
903L001L5063200504094544892D23700008405100100001357867100000006900201219350   CRESCENT1 CUS0033004          A SHEIK                       00000000000000000000                21                      
903L001L5063200504094544892D23700008563200504070317651100000008500201219350   CRESCENT1 CUS0038269          T LANGA                       00000000000000000000                21                      
903L001L5063200504094544892D23700008647001001383921049200000008500201219350   CRESCENT1 CUS0043858          T KEMP                        00000000000000000000                21                      
903L001L5063200504094544892D23700008719876501077299001100000008500201219350   CRESCENT1 CUS0048695          I CASOOJEE                    00000000000000000000                21                      
903L001L5063200504094544892D23700008847001001189690762200000008500201219350   CRESCENT1 CUS0053930          I RAYEPEN-ESS                 00000000000000000000                21                      
903L001L5063200504094544892D23700008963200509003023857100000006900201219350   CRESCENT1 CUS0057895          G BRUCE                       00000000000000000000                21                      
903L001L5063200504094544892D23700009019876501174171103100000008500201219350   CRESCENT1 CUS0059361          R SAGE                        00000000000000000000                21                      
903L001L5063200504094544892D23700009125065562509206662100000008500201219350   CRESCENT1 CUS0004656          S VALLEY                      00000000000000000000                21                      
903L001L5063200504094544892D23700009225065558820024130100000008500201219350   CRESCENT1 CUS0017034          S VAN SCHALKWYK               00000000000000000000                21                      
903L001L5063200504094544892D23700009325065558820024130100000007500201219350   CRESCENT1 CUS0026084          W MATHEE                      00000000000000000000                21                      
903L001L5063200504094544892D23700009425065562275627879100000008500201219350   CRESCENT1 CUS0033030          Z ISMAIL                      00000000000000000000                21                      
903L001L5063200504094544892D23700009563200504068351568100000008500201219350   CRESCENT1 CUS0038272          T NORATH                      00000000000000000000                21                      
903L001L5063200504094544892D23700009625065562018101345100000016000201219350   CRESCENT1 CUS0043864          K WILSON                      00000000000000000000                21                      
903L001L5063200504094544892D23700009705100100002509792100000008500201219350   CRESCENT1 CUS0048714          M TARIQ                       00000000000000000000                21                      
903L001L5063200504094544892D23700009847001001367269057200000008500201219350   CRESCENT1 CUS0053946          M MUNGAR                      00000000000000000000                21                      
903L001L5063200504094544892D23700009947001001648545295200000008500201219350   CRESCENT1 CUS0057905          M FRYDDIE                     00000000000000000000                21                      
903L001L5063200504094544892D23700010025065562674769206100000008500201219350   CRESCENT1 CUS0059362          A CHRISTIANS                  00000000000000000000                21                      
903L001L5063200504094544892D23700010125065562552485726100000016000201219350   CRESCENT1 CUS0004793          A SEEDAT                      00000000000000000000                21                      
903L001L5063200504094544892D23700010263200509212293513100000008500201219350   CRESCENT1 CUS0017041          S NAJAM                       00000000000000000000                21                      
903L001L5063200504094544892D23700010363200500629660461100000016000201219350   CRESCENT1 CUS0026152          E KHAN                        00000000000000000000                21                      
903L001L5063200504094544892D23700010405100100270273069100000008500201219350   CRESCENT1 CUS0033096          M ADAMS                       00000000000000000000                21                      
903L001L5063200504094544892D23700010563200538183310124100000008500201219350   CRESCENT1 CUS0038279          A KHAN                        00000000000000000000                21                      
903L001L5063200504094544892D23700010625065562464910085100000016000201219350   CRESCENT1 CUS0043871          F DUNN                        00000000000000000000                21                      
903L001L5063200504094544892D23700010719876501130295559100000008500201219350   CRESCENT1 CUS0048732          B KETI                        00000000000000000000                21                      
903L001L5063200504094544892D23700010847001001474687146200000008500201219350   CRESCENT1 CUS0053962          I AMEERODIEN                  00000000000000000000                21                      
903L001L5063200504094544892D23700010963200504099026770100000008500201219350   CRESCENT1 CUS0057911          A RYLANDS                     00000000000000000000                21                      
903L001L5063200504094544892D23700011025065562642779237100000008500201219350   CRESCENT1 CUS0059366          Y MADATT                      00000000000000000000                21                      
903L001L5063200504094544892D23700011163200500711658483100000008500201219350   CRESCENT1 CUS0004863          R ADAMS                       00000000000000000000                21                      
903L001L5063200504094544892D23700011225065562035519240100000008500201219350   CRESCENT1 CUS0017064          S JARDIEN                     00000000000000000000                21                      
903L001L5063200504094544892D23700011325065562228767218100000008500201219350   CRESCENT1 CUS0026171          S SUBDAR                      00000000000000000000                21                      
903L001L5063200504094544892D23700011419876501030159637100000008500201219350   CRESCENT1 CUS0033101          R DAVIS                       00000000000000000000                21                      
903L001L5063200504094544892D23700011547001001574161898200000008500201219350   CRESCENT1 CUS0038322          M MAKDA                       00000000000000000000                21                      
903L001L5063200504094544892D23700011605100100040447421100000008500201219350   CRESCENT1 CUS0043914          S PARKAR                      00000000000000000000                21                      
903L001L5063200504094544892D23700011719876501106373626100000008500201219350   CRESCENT1 CUS0048763          S KARIM                       00000000000000000000                21                      
903L001L5063200504094544892D23700011805100100021181748100000008500201219350   CRESCENT1 CUS0054131          N KATER                       00000000000000000000                21                      
903L001L5063200504094544892D23700011963200504085293432100000006900201219350   CRESCENT1 CUS0057913          F BARENDSE                    00000000000000000000                21                      
903L001L5063200504094544892D23700012025065562742314545100000008500201219350   CRESCENT1 CUS0059367          Z MOSES                       00000000000000000000                21                      
903L001L5063200504094544892D23700012125065562369408755100000016000201219350   CRESCENT1 CUS0004951          H DINDAR                      00000000000000000000                21                      
903L001L5063200504094544892D23700012225065562256820971100000008500201219350   CRESCENT1 CUS0017077          M AMEER                       00000000000000000000                21                      
903L001L5063200504094544892D23700012325065562278631249100000008500201219350   CRESCENT1 CUS0026197          F BAKER                       00000000000000000000                21                      
903L001L5063200504094544892D23700012425065562322109712100000008500201219350   CRESCENT1 CUS0033127          Z ISMAIL                      00000000000000000000                21                      
903L001L5063200504094544892D23700012525065562046752805100000016000201219350   CRESCENT1 CUS0038411          A PRETORIUS                   00000000000000000000                21                      
903L001L5063200504094544892D23700012625065562179993277100000008500201219350   CRESCENT1 CUS0043920          F LAYMAN                      00000000000000000000                21                      
903L001L5063200504094544892D23700012725065560526211789100000016000201219350   CRESCENT1 CUS0048766          F MIA                         00000000000000000000                21                      
903L001L5063200504094544892D23700012847001001449234621200000008500201219350   CRESCENT1 CUS0054177          S ROBERTS                     00000000000000000000                21                      
903L001L5063200504094544892D23700012963200509314326121100000008500201219350   CRESCENT1 CUS0057919          S ALLIE                       00000000000000000000                21                      
903L001L5063200504094544892D23700013019876501201042089100000008500201219350   CRESCENT1 CUS0059368          E SARLIE                      00000000000000000000                21                      
903L001L5063200504094544892D23700013125065562068212267100000016000201219350   CRESCENT1 CUS0004953          F JOOMA                       00000000000000000000                21                      
903L001L5063200504094544892D23700013205100100272958085100000023500201219350   CRESCENT1 CUS0017120          F ALLI                        00000000000000000000                21                      
903L001L5063200504094544892D23700013347001001226369586200000008500201219350   CRESCENT1 CUS0026216          M RAMALHO                     00000000000000000000                21                      
903L001L5063200504094544892D23700013447001001127194206200000008500201219350   CRESCENT1 CUS0033129          H ABDOOL                      00000000000000000000                21                      
903L001L5063200504094544892D23700013563200504066046478100000008500201219350   CRESCENT1 CUS0038422          A REHMAN                      00000000000000000000                21                      
903L001L5063200504094544892D23700013625065562084698904100000007500201219350   CRESCENT1 CUS0043948          Z DUNN                        00000000000000000000                21                      
903L001L5063200504094544892D23700013763200504077390383100000008500201219350   CRESCENT1 CUS0048798          K ARENDSE                     00000000000000000000                21                      
903L001L5063200504094544892D23700013847001001285691782200000008500201219350   CRESCENT1 CUS0054220          M GAFIELDIEN                  00000000000000000000                21                      
903L001L5063200504094544892D23700013947001001631780350200000008500201219350   CRESCENT1 CUS0057924          S HENDRICKS                   00000000000000000000                21                      
903L001L5063200504094544892D23700014047001001522569551200000008500201219350   CRESCENT1 CUS0059371          I NOLAN                       00000000000000000000                21                      
903L001L5063200504094544892D23700014105100100404729517100000016000201219350   CRESCENT1 CUS0004961          M OSMAN                       00000000000000000000                21                      
903L001L5063200504094544892D23700014205100100331781263100000008500201219350   CRESCENT1 CUS0017137          R VALLI                       00000000000000000000                21                      
903L001L5063200504094544892D23700014325065553141111294100000008500201219350   CRESCENT1 CUS0026229          S KHARWA                      00000000000000000000                21                      
903L001L5063200504094544892D23700014405100100202564215100000007500201219350   CRESCENT1 CUS0033133          S PATEL                       00000000000000000000                21                      
903L001L5063200504094544892D23700014563200509210629297100000008500201219350   CRESCENT1 CUS0038424          U YUNUS                       00000000000000000000                21                      
903L001L5063200504094544892D23700014647001001195083759200000008500201219350   CRESCENT1 CUS0043962          N JONES                       00000000000000000000                21                      
903L001L5063200504094544892D23700014763200504076807337100000008500201219350   CRESCENT1 CUS0048800          S BARENDSE                    00000000000000000000                21                      
903L001L5063200504094544892D23700014863200504080342797100000008500201219350   CRESCENT1 CUS0054224          O SOLOMONS                    00000000000000000000                21                      
903L001L5063200504094544892D23700014947001001363990215200000008500201219350   CRESCENT1 CUS0057928          A SAMUELS                     00000000000000000000                21                      
903L001L5063200504094544892D23700015025065562196650892100000008500201219350   CRESCENT1 CUS0059372          S SIVNATH                     00000000000000000000                21                      
903L001L5063200504094544892D23700015147001001239385674200000008500201219350   CRESCENT1 CUS0005019          B OTTO                        00000000000000000000                21                      
903L001L5063200504094544892D23700015205100100250006278100000016000201219350   CRESCENT1 CUS0017151          T EBRAHIM                     00000000000000000000                21                      
903L001L5063200504094544892D23700015325065560373438495100000006900201219350   CRESCENT1 CUS0026237          P SEEDAT                      00000000000000000000                21                      
903L001L5063200504094544892D23700015425065562204354196100000008500201219350   CRESCENT1 CUS0033136          F BHABHA                      00000000000000000000                21                      
903L001L5063200504094544892D23700015505100110105719828100000013800201219350   CRESCENT1 CUS0038453          M MAJIET                      00000000000000000000                21                      
903L001L5063200504094544892D23700015625065560021195719100000008500201219350   CRESCENT1 CUS0043963          S MEYER                       00000000000000000000                21                      
903L001L5063200504094544892D23700015705100100078977363100000008500201219350   CRESCENT1 CUS0048814          N SNYDERS                     00000000000000000000                21                      
903L001L5063200504094544892D23700015847001001387807739200000008500201219350   CRESCENT1 CUS0054241          B SICKLES                     00000000000000000000                21                      
903L001L5063200504094544892D23700015947001001269733530200000008500201219350   CRESCENT1 CUS0057930          R PETERSON                    00000000000000000000                21                      
903L001L5063200504094544892D23700016063200509333129332100000008500201219350   CRESCENT1 CUS0059377          T ADAMS                       00000000000000000000                21                      
903L001L5063200504094544892D23700016125065554300059952100000008500201219350   CRESCENT1 CUS0005092          H EBRAHIM                     00000000000000000000                21                      
903L001L5063200504094544892D23700016247001001609762191200000008500201219350   CRESCENT1 CUS0017189          A KARRIM                      00000000000000000000                21                      
903L001L5063200504094544892D23700016305100100283211342100000016000201219350   CRESCENT1 CUS0026238          R TIMOL                       00000000000000000000                21                      
903L001L5063200504094544892D23700016425065562169150481100000008500201219350   CRESCENT1 CUS0033138          Z HOOSEN                      00000000000000000000                21                      
903L001L5063200504094544892D23700016563200504058458679100000008500201219350   CRESCENT1 CUS0038462          R KANNENEYER                  00000000000000000000                21                      
903L001L5063200504094544892D23700016619876501940154391100000016000201219350   CRESCENT1 CUS0043965          S IQBAL                       00000000000000000000                21                      
903L001L5063200504094544892D23700016725065562697074054100000008500201219350   CRESCENT1 CUS0048819          F ABRAHAMS                    00000000000000000000                21                      
903L001L5063200504094544892D23700016805100100282287388100000008500201219350   CRESCENT1 CUS0054284          Z BRINKHUIS                   00000000000000000000                21                      
903L001L5063200504094544892D23700016947001001595787044200000008500201219350   CRESCENT1 CUS0057941          C VAN DALEN                   00000000000000000000                21                      
903L001L5063200504094544892D23700017019876501009526553100000006900201219350   CRESCENT1 CUS0059381          M RYKLIEF                     00000000000000000000                21                      
903L001L5063200504094544892D23700017163200538147450033100000008500201219350   CRESCENT1 CUS0005096          S EBRAHIM                     00000000000000000000                21                      
903L001L5063200504094544892D23700017205100100081392133100000008500201219350   CRESCENT1 CUS0017274          A MOTALA                      00000000000000000000                21                      
903L001L5063200504094544892D23700017363200500117370143100000008500201219350   CRESCENT1 CUS0026258          M HOOSEN                      00000000000000000000                21                      
903L001L5063200504094544892D23700017463200509097826070100000008500201219350   CRESCENT1 CUS0033142          S MOOSA                       00000000000000000000                21                      
903L001L5063200504094544892D23700017525065562707002557100000007500201219350   CRESCENT1 CUS0038474          Y VANIA                       00000000000000000000                21                      
903L001L5063200504094544892D23700017625065562286171435100000008500201219350   CRESCENT1 CUS0043968          F SEEDAT                      00000000000000000000                21                      
903L001L5063200504094544892D23700017747001001130846936200000008500201219350   CRESCENT1 CUS0048822          F KHAN                        00000000000000000000                21                      
903L001L5063200504094544892D23700017825065562537583389100000008500201219350   CRESCENT1 CUS0054369          Z POOLE                       00000000000000000000                21                      
903L001L5063200504094544892D23700017925065562087478626100000007500201219350   CRESCENT1 CUS0057949          N BAYNES                      00000000000000000000                21                      
903L001L5063200504094544892D23700018047001001633140081200000008500201219350   CRESCENT1 CUS0059382          N KHALIL                      00000000000000000000                21                      
903L001L5063200504094544892D23700018163200509205770530100000008500201219350   CRESCENT1 CUS0005120          Z KARA                        00000000000000000000                21                      
903L001L5063200504094544892D23700018205100100002756854100000016000201219350   CRESCENT1 CUS0017317          M ISMAIL                      00000000000000000000                21                      
903L001L5063200504094544892D23700018325065562135937270100000008500201219350   CRESCENT1 CUS0026277          N JALIEL                      00000000000000000000                21                      
903L001L5063200504094544892D23700018463200509209796463100000016000201219350   CRESCENT1 CUS0033149          A ABRAMS                      00000000000000000000                21                      
903L001L5063200504094544892D23700018519876501049006445100000008500201219350   CRESCENT1 CUS0038535          S SULTAN                      00000000000000000000                21                      
903L001L5063200504094544892D23700018625065560013145201100000008500201219350   CRESCENT1 CUS0043987          F DUNN                        00000000000000000000                21                      
903L001L5063200504094544892D23700018747001001383686392200000008500201219350   CRESCENT1 CUS0048832          I MARTIN                      00000000000000000000                21                      
903L001L5063200504094544892D23700018805100100001515616100000008500201219350   CRESCENT1 CUS0054379          C LEDIC                       00000000000000000000                21                      
903L001L5063200504094544892D23700018919876501017071667100000008500201219350   CRESCENT1 CUS0057953          K CASSIEM                     00000000000000000000                21                      
903L001L5063200504094544892D23700019025065562377173944100000007500201219350   CRESCENT1 CUS0059389          G ARMADIEN                    00000000000000000000                21                      
903L001L5063200504094544892D23700019125065562338469754100000008500201219350   CRESCENT1 CUS0005168          F PATEL                       00000000000000000000                21                      
903L001L5063200504094544892D23700019205100100023024798100000008500201219350   CRESCENT1 CUS0017322          F GANGAT                      00000000000000000000                21                      
903L001L5063200504094544892D23700019305100100008964181100000008500201219350   CRESCENT1 CUS0026332          A MOOLA                       00000000000000000000                21                      
903L001L5063200504094544892D23700019463200509202247598100000008500201219350   CRESCENT1 CUS0033174          W HENDRICKS                   00000000000000000000                21                      
903L001L5063200504094544892D23700019563200504053684479100000008500201219350   CRESCENT1 CUS0038543          A MARINCE                     00000000000000000000                21                      
903L001L5063200504094544892D23700019605100100134101472100000008500201219350   CRESCENT1 CUS0044004          M VAZER                       00000000000000000000                21                      
903L001L5063200504094544892D23700019725065562140906754100000008500201219350   CRESCENT1 CUS0048852          F VALLIE                      00000000000000000000                21                      
903L001L5063200504094544892D23700019805100100270341986100000008500201219350   CRESCENT1 CUS0054380          I CLAYTON                     00000000000000000000                21                      
903L001L5063200504094544892D23700019925065562405828388100000008500201219350   CRESCENT1 CUS0057963          L DAVIDS                      00000000000000000000                21                      
903L001L5063200504094544892D23700020019876502002033005200000008500201219350   CRESCENT1 CUS0059390          H EFFENDI ENJEDI              00000000000000000000                21                      
903L001L5063200504094544892D23700020105100100402275268100000008500201219350   CRESCENT1 CUS0005208          M LAMBAT                      00000000000000000000                21                      
903L001L5063200504094544892D23700020205100100427875676100000008500201219350   CRESCENT1 CUS0017372          B MUHAMMAD                    00000000000000000000                21                      
903L001L5063200504094544892D23700020325065551320139029100000008500201219350   CRESCENT1 CUS0026333          N COHEN                       00000000000000000000                21                      
903L001L5063200504094544892D23700020463200504050026567100000007500201219350   CRESCENT1 CUS0033175          F BATAVIYA                    00000000000000000000                21                      
903L001L5063200504094544892D23700020519876501197536469100000008500201219350   CRESCENT1 CUS0038647          R HASSIEM                     00000000000000000000                21                      
903L001L5063200504094544892D23700020647001001729822256200000008500201219350   CRESCENT1 CUS0044053          R WILLIAMS                    00000000000000000000                21                      
903L001L5063200504094544892D23700020747001001239740253200000016000201219350   CRESCENT1 CUS0048873          A WALKER                      00000000000000000000                21                      
903L001L5063200504094544892D23700020847001001384438538200000008500201219350   CRESCENT1 CUS0054405          A DULAZE                      00000000000000000000                21                      
903L001L5063200504094544892D23700020925065562364036163100000008500201219350   CRESCENT1 CUS0057972          F BELIM                       00000000000000000000                21                      
903L001L5063200504094544892D23700021025065562819191214100000008500201219350   CRESCENT1 CUS0059394          M BHANA                       00000000000000000000                21                      
903L001L5063200504094544892D23700021119876501115156675100000008500201219350   CRESCENT1 CUS0005225          N SALLIE                      00000000000000000000                21                      
903L001L5063200504094544892D23700021225065562103718245100000008500201219350   CRESCENT1 CUS0017405          N EBRAHIM                     00000000000000000000                21                      
903L001L5063200504094544892D23700021325065562110336931100000016000201219350   CRESCENT1 CUS0026365          F ABDUL HABIB                 00000000000000000000                21                      
903L001L5063200504094544892D23700021447001001218647815200000016000201219350   CRESCENT1 CUS0033227          K KRUGER                      00000000000000000000                21                      
903L001L5063200504094544892D23700021505100100002505711100000008500201219350   CRESCENT1 CUS0038652          A MOORAD                      00000000000000000000                21                      
903L001L5063200504094544892D23700021625065562584732856100000008500201219350   CRESCENT1 CUS0044078          S SORATCHIYA                  00000000000000000000                21                      
903L001L5063200504094544892D23700021725065562218215714100000008500201219350   CRESCENT1 CUS0048877          R BARRON                      00000000000000000000                21                      
903L001L5063200504094544892D23700021863200509160001090100000008500201219350   CRESCENT1 CUS0054419          F CAJEE                       00000000000000000000                21                      
903L001L5063200504094544892D23700021967891051007149836100000006900201219350   CRESCENT1 CUS0057974          S JOHNSON ENGELBRECHT         00000000000000000000                21                      
903L001L5063200504094544892D23700022047001001462213438200000008500201219350   CRESCENT1 CUS0059397          M SIMON                       00000000000000000000                21                      
903L001L5063200504094544892D23700022105100100164282874100000008500201219350   CRESCENT1 CUS0005256          S SABER                       00000000000000000000                21                      
903L001L5063200504094544892D23700022263200538090540707100000008500201219350   CRESCENT1 CUS0017427          H KAJEE                       00000000000000000000                21                      
903L001L5063200504094544892D23700022325065550856056533100000008500201219350   CRESCENT1 CUS0026390          E MATHETER                    00000000000000000000                21                      
903L001L5063200504094544892D23700022425065562180731541100000016000201219350   CRESCENT1 CUS0033264          F CHOONARA                    00000000000000000000                21                      
903L001L5063200504094544892D23700022525065562294452190100000008500201219350   CRESCENT1 CUS0038664          S EBRAHIM HASSIM              00000000000000000000                21                      
903L001L5063200504094544892D23700022625065562029796797100000008500201219350   CRESCENT1 CUS0044158          A SARDINUS                    00000000000000000000                21                      
903L001L5063200504094544892D23700022725065562317505587100000008500201219350   CRESCENT1 CUS0048884          I ABOO                        00000000000000000000                21                      
903L001L5063200504094544892D23700022863200509324745038100000007500201219350   CRESCENT1 CUS0054461          M TAYLOR                      00000000000000000000                21                      
903L001L5063200504094544892D23700022947001001167281452200000008500201219350   CRESCENT1 CUS0057992          A DAVIDS                      00000000000000000000                21                      
903L001L5063200504094544892D23700023025065562820777623100000008500201219350   CRESCENT1 CUS0059404          T ARENDS                      00000000000000000000                21                      
903L001L5063200504094544892D23700023125065562398735517100000023500201219350   CRESCENT1 CUS0005355          G SHAREIFF                    00000000000000000000                21                      
903L001L5063200504094544892D23700023225065562182755820100000008500201219350   CRESCENT1 CUS0017482          S SENYE                       00000000000000000000                21                      
903L001L5063200504094544892D23700023325065562010013530100000008500201219350   CRESCENT1 CUS0026393          R JACOBS                      00000000000000000000                21                      
903L001L5063200504094544892D23700023419876501372110690100000007500201219350   CRESCENT1 CUS0033275          Z ESSA                        00000000000000000000                21                      
903L001L5063200504094544892D23700023519876502352083354200000008500201219350   CRESCENT1 CUS0038695          I GOVENDER                    00000000000000000000                21                      
903L001L5063200504094544892D23700023647001001293881846200000008500201219350   CRESCENT1 CUS0044215          I CHOTHIA                     00000000000000000000                21                      
903L001L5063200504094544892D23700023719876502645002978200000008500201219350   CRESCENT1 CUS0048896          M HENDRICKS                   00000000000000000000                21                      
903L001L5063200504094544892D23700023863200504083575539100000008500201219350   CRESCENT1 CUS0054465          C PHILLIPS                    00000000000000000000                21                      
903L001L5063200504094544892D23700023947001001334608820200000008500201219350   CRESCENT1 CUS0058018          R AMOD                        00000000000000000000                21                      
903L001L5063200504094544892D23700024025065562766494604100000016000201219350   CRESCENT1 CUS0059405          N TALIEP                      00000000000000000000                21                      
903L001L5063200504094544892D23700024105100100402352343100000014400201219350   CRESCENT1 CUS0005428          F CASSIM                      00000000000000000000                21                      
903L001L5063200504094544892D23700024263200504087821776100000008500201219350   CRESCENT1 CUS0017591          F LAMBAT                      00000000000000000000                21                      
903L001L5063200504094544892D23700024325065552180040901100000007500201219350   CRESCENT1 CUS0026404          H SALOJEE                     00000000000000000000                21                      
903L001L5063200504094544892D23700024405100110133639388100000008500201219350   CRESCENT1 CUS0033279          M SALIE                       00000000000000000000                21                      
903L001L5063200504094544892D23700024525065562249889869100000008500201219350   CRESCENT1 CUS0038742          Z SMITH                       00000000000000000000                21                      
903L001L5063200504094544892D23700024663200509191164255100000008500201219350   CRESCENT1 CUS0044262          G DILGEE                      00000000000000000000                21                      
903L001L5063200504094544892D23700024705100100054051819100000008500201219350   CRESCENT1 CUS0048915          N KHAN                        00000000000000000000                21                      
903L001L5063200504094544892D23700024847001001550976514200000008500201219350   CRESCENT1 CUS0054472          S BEN                         00000000000000000000                21                      
903L001L5063200504094544892D23700024925065562561043870100000008500201219350   CRESCENT1 CUS0058040          F NAZIR                       00000000000000000000                21                      
903L001L5063200504094544892D23700025025065562269903714100000008500201219350   CRESCENT1 CUS0059409          F JOHNSTON                    00000000000000000000                21                      
903L001L5063200504094544892D23700025105100100207754756100000016000201219350   CRESCENT1 CUS0005438          M SAIYAD                      00000000000000000000                21                      
903L001L5063200504094544892D23700025225065562269553741100000031000201219350   CRESCENT1 CUS0017601          E BOTHA                       00000000000000000000                21                      
903L001L5063200504094544892D23700025325065560089305441100000008500201219350   CRESCENT1 CUS0026445          Z ADOOL- CARRIM               00000000000000000000                21                      
903L001L5063200504094544892D23700025463200540987106365100000016000201219350   CRESCENT1 CUS0033305          A AMOD                        00000000000000000000                21                      
903L001L5063200504094544892D23700025547001001301950910200000008500201219350   CRESCENT1 CUS0038799          N DAWOOD                      00000000000000000000                21                      
903L001L5063200504094544892D23700025605100110005716045100000008500201219350   CRESCENT1 CUS0044375          S JAPPIE                      00000000000000000000                21                      
903L001L5063200504094544892D23700025725065562822563616100000008500201219350   CRESCENT1 CUS0048917          E KHAN                        00000000000000000000                21                      
903L001L5063200504094544892D23700025805100100022709282100000008500201219350   CRESCENT1 CUS0054515          A BAULACKEY                   00000000000000000000                21                      
903L001L5063200504094544892D23700025947001001340876912200000008500201219350   CRESCENT1 CUS0058052          I ELY                         00000000000000000000                21                      
903L001L5063200504094544892D23700026005100110086164587100000016000201219350   CRESCENT1 CUS0059410          M SATTAR                      00000000000000000000                21                      
903L001L5063200504094544892D23700026105100100207739404100000008500201219350   CRESCENT1 CUS0005449          F SHAIK                       00000000000000000000                21                      
903L001L5063200504094544892D23700026205100100022304495100000008500201219350   CRESCENT1 CUS0017615          F FAKIR                       00000000000000000000                21                      
903L001L5063200504094544892D23700026305100100252274822100000008500201219350   CRESCENT1 CUS0026451          R HANS                        00000000000000000000                21                      
903L001L5063200504094544892D23700026425065551200045627100000007500201219350   CRESCENT1 CUS0033337          B CHOONARA                    00000000000000000000                21                      
903L001L5063200504094544892D23700026525065562161766137100000016000201219350   CRESCENT1 CUS0038822          G KHAN                        00000000000000000000                21                      
903L001L5063200504094544892D23700026625065562768111587100000008500201219350   CRESCENT1 CUS0044396          M SAYED                       00000000000000000000                21                      
903L001L5063200504094544892D23700026719876501009241796100000007500201219350   CRESCENT1 CUS0048948          G SAMBO                       00000000000000000000                21                      
903L001L5063200504094544892D23700026863200509167198014100000016000201219350   CRESCENT1 CUS0054541          M OMAR                        00000000000000000000                21                      
903L001L5063200504094544892D23700026947001001381757411200000008500201219350   CRESCENT1 CUS0058068          M ADAMS                       00000000000000000000                21                      
903L001L5063200504094544892D23700027047001001508167840200000008500201219350   CRESCENT1 CUS0059414          N CHADWICK                    00000000000000000000                21                      
903L001L5063200504094544892D23700027105100110055305138100000023500201219350   CRESCENT1 CUS0005450          E ANGOMIA                     00000000000000000000                21                      
903L001L5063200504094544892D23700027263200504080809022100000008500201219350   CRESCENT1 CUS0017648          T SOOLIMAN                    00000000000000000000                21                      
903L001L5063200504094544892D23700027319876501876019980100000008500201219350   CRESCENT1 CUS0026454          N KAMILDIN ESSOP              00000000000000000000                21                      
903L001L5063200504094544892D23700027405100100072506067100000007500201219350   CRESCENT1 CUS0033358          M DRAMAT                      00000000000000000000                21                      
903L001L5063200504094544892D23700027547001000141995979200000008500201219350   CRESCENT1 CUS0038829          Y GAMA                        00000000000000000000                21                      
903L001L5063200504094544892D23700027605100100071611916100000008500201219350   CRESCENT1 CUS0044402          M SALIE                       00000000000000000000                21                      
903L001L5063200504094544892D23700027719876501230414886100000006900201219350   CRESCENT1 CUS0048949          E SAMBO                       00000000000000000000                21                      
903L001L5063200504094544892D23700027847001001663955172200000008500201219350   CRESCENT1 CUS0054549          M FAKIER                      00000000000000000000                21                      
903L001L5063200504094544892D23700027963200504095412654100000008500201219350   CRESCENT1 CUS0058073          G HARTLEY                     00000000000000000000                21                      
903L001L5063200504094544892D23700028047001001377057060200000008500201219350   CRESCENT1 CUS0059415          R SEDICK                      00000000000000000000                21                      
903L001L5063200504094544892D23700028125065562258578338100000008500201219350   CRESCENT1 CUS0005456          R CARRIM                      00000000000000000000                21                      
903L001L5063200504094544892D23700028219876501014821517100000016000201219350   CRESCENT1 CUS0017692          N NAUDE                       00000000000000000000                21                      
903L001L5063200504094544892D23700028325065562224813768100000016000201219350   CRESCENT1 CUS0026462          J ABDULLA                     00000000000000000000                21                      
903L001L5063200504094544892D23700028405100100071624597100000007500201219350   CRESCENT1 CUS0033360          L BENHALIE                    00000000000000000000                21                      
903L001L5063200504094544892D23700028519876501096837072100000016000201219350   CRESCENT1 CUS0038832          I MOOLA                       00000000000000000000                21                      
903L001L5063200504094544892D23700028619876501142897613100000008500201219350   CRESCENT1 CUS0044408          A MOHAMED                     00000000000000000000                21                      
903L001L5063200504094544892D23700028725065562107142945100000008500201219350   CRESCENT1 CUS0048955          S ABRAHAMS                    00000000000000000000                21                      
903L001L5063200504094544892D23700028847001001412128852200000008500201219350   CRESCENT1 CUS0054584          D EBRAHIM                     00000000000000000000                21                      
903L001L5063200504094544892D23700028947001001623216719200000008500201219350   CRESCENT1 CUS0058075          K GENADE                      00000000000000000000                21                      
903L001L5063200504094544892D23700029025065562527301634100000008500201219350   CRESCENT1 CUS0059416          S GASIONA                     00000000000000000000                21                      
903L001L5063200504094544892D23700029125065562088448066100000008500201219350   CRESCENT1 CUS0005649          A AZIZ                        00000000000000000000                21                      
903L001L5063200504094544892D23700029263200504057734543100000008500201219350   CRESCENT1 CUS0017714          R SEEDAT                      00000000000000000000                21                      
903L001L5063200504094544892D23700029363200504078176699100000016000201219350   CRESCENT1 CUS0026481          N VADI                        00000000000000000000                21                      
903L001L5063200504094544892D23700029463200509047171720100000008500201219350   CRESCENT1 CUS0033405          A SARDIWALLA                  00000000000000000000                21                      
903L001L5063200504094544892D23700029505100110006625590100000008500201219350   CRESCENT1 CUS0038834          N MAHOMED                     00000000000000000000                21                      
903L001L5063200504094544892D23700029647001001542315911200000008500201219350   CRESCENT1 CUS0044442          N KHAN                        00000000000000000000                21                      
903L001L5063200504094544892D23700029725065562582968461100000016000201219350   CRESCENT1 CUS0048974          A MULDER                      00000000000000000000                21                      
903L001L5063200504094544892D23700029805100100070906726100000008500201219350   CRESCENT1 CUS0054585          S FAYKER                      00000000000000000000                21                      
903L001L5063200504094544892D23700029905100100272916331100000008500201219350   CRESCENT1 CUS0058076          R MAJIET                      00000000000000000000                21                      
903L001L5063200504094544892D23700030047001001516846700200000008500201219350   CRESCENT1 CUS0059417          T KARIEM                      00000000000000000000                21                      
903L001L5063200504094544892D23700030119876501010608908100000008500201219350   CRESCENT1 CUS0005686          M ALI                         00000000000000000000                21                      
903L001L5063200504094544892D23700030225065562071668506100000008500201219350   CRESCENT1 CUS0017720          T PADIAYACHY                  00000000000000000000                21                      
903L001L5063200504094544892D23700030325065562106092381100000008500201219350   CRESCENT1 CUS0026488          F SIDDIK                      00000000000000000000                21                      
903L001L5063200504094544892D23700030405100100010631534100000008500201219350   CRESCENT1 CUS0033408          T NEMOKULA                    00000000000000000000                21                      
903L001L5063200504094544892D23700030525065559680013371100000008500201219350   CRESCENT1 CUS0038882          Z WOOKEY                      00000000000000000000                21                      
903L001L5063200504094544892D23700030663200509214795884100000016000201219350   CRESCENT1 CUS0044455          F AHMED                       00000000000000000000                21                      
903L001L5063200504094544892D23700030747001001426289497200000008500201219350   CRESCENT1 CUS0048978          G ESAU                        00000000000000000000                21                      
903L001L5063200504094544892D23700030847001001482406592200000006900201219350   CRESCENT1 CUS0054599          M GALANT                      00000000000000000000                21                      
903L001L5063200504094544892D23700030947001001378872620200000008500201219350   CRESCENT1 CUS0058077          T VAN DER FORT                00000000000000000000                21                      
903L001L5063200504094544892D23700031025065562538036791100000008500201219350   CRESCENT1 CUS0059420          A THEBUS                      00000000000000000000                21                      
903L001L5063200504094544892D23700031125065562083337230100000008500201219350   CRESCENT1 CUS0005691          N EESOP                       00000000000000000000                21                      
903L001L5063200504094544892D23700031263200509226126081100000008500201219350   CRESCENT1 CUS0017786          A HOOSEN                      00000000000000000000                21                      
903L001L5063200504094544892D23700031305100100008992827100000008500201219350   CRESCENT1 CUS0026492          Z POONEN                      00000000000000000000                21                      
903L001L5063200504094544892D23700031425065562186022564100000008500201219350   CRESCENT1 CUS0033416          S KHOTA                       00000000000000000000                21                      
903L001L5063200504094544892D23700031525065562166785455100000008500201219350   CRESCENT1 CUS0038886          G ESSOP                       00000000000000000000                21                      
903L001L5063200504094544892D23700031619876501953274676100000008500201219350   CRESCENT1 CUS0044472          I EBRAHIM                     00000000000000000000                21                      
903L001L5063200504094544892D23700031705100110046984206100000008500201219350   CRESCENT1 CUS0048982          I HOFFAH                      00000000000000000000                21                      
903L001L5063200504094544892D23700031825065562790070066100000008500201219350   CRESCENT1 CUS0054611          M FEBRUARY                    00000000000000000000                21                      
903L001L5063200504094544892D23700031947001001545588161200000008500201219350   CRESCENT1 CUS0058079          L ADAMS                       00000000000000000000                21                      
903L001L5063200504094544892D23700032063200509302548937100000008500201219350   CRESCENT1 CUS0059422          N DAVIDS                      00000000000000000000                21                      
903L001L5063200504094544892D23700032125065562383708959100000008500201219350   CRESCENT1 CUS0005769          F NOORMAHAMED                 00000000000000000000                21                      
903L001L5063200504094544892D23700032225065560049256668100000008500201219350   CRESCENT1 CUS0017825          S MUSTAPHA                    00000000000000000000                21                      
903L001L5063200504094544892D23700032363200509250583922100000008500201219350   CRESCENT1 CUS0026511          R CAJEE                       00000000000000000000                21                      
903L001L5063200504094544892D23700032425065562101200608100000008500201219350   CRESCENT1 CUS0033426          I BADRUDIN                    00000000000000000000                21                      
903L001L5063200504094544892D23700032519876501035372312100000008500201219350   CRESCENT1 CUS0038902          F VAN STADEN                  00000000000000000000                21                      
903L001L5063200504094544892D23700032605100100030840007100000008500201219350   CRESCENT1 CUS0044495          N MATHER                      00000000000000000000                21                      
903L001L5063200504094544892D23700032705100100272872652100000008500201219350   CRESCENT1 CUS0049015          I THOMAS                      00000000000000000000                21                      
903L001L5063200504094544892D23700032847001001226329096200000008500201219350   CRESCENT1 CUS0054637          F SALIE                       00000000000000000000                21                      
903L001L5063200504094544892D23700032925065562126237496100000008500201219350   CRESCENT1 CUS0058083          M ISAACS                      00000000000000000000                21                      
903L001L5063200504094544892D23700033005100100072386223100000008500201219350   CRESCENT1 CUS0059427          Z ARNOLD                      00000000000000000000                21                      
903L001L5063200504094544892D23700033163200509020036788100000008500201219350   CRESCENT1 CUS0005805          F DOMINGO                     00000000000000000000                21                      
903L001L5063200504094544892D23700033225065562019833674100000008500201219350   CRESCENT1 CUS0017861          F MOHAMED                     00000000000000000000                21                      
903L001L5063200504094544892D23700033325065562006830237100000008500201219350   CRESCENT1 CUS0026558          A WAJA                        00000000000000000000                21                      
903L001L5063200504094544892D23700033425065562067480592100000008500201219350   CRESCENT1 CUS0033456          Y KAJEE                       00000000000000000000                21                      
903L001L5063200504094544892D23700033525065562212129359100000016000201219350   CRESCENT1 CUS0038907          T AHMED                       00000000000000000000                21                      
903L001L5063200504094544892D23700033625065550500044066100000008500201219350   CRESCENT1 CUS0044510          J ABRAHAMS                    00000000000000000000                21                      
903L001L5063200504094544892D23700033725065562377285781100000008500201219350   CRESCENT1 CUS0049029          L SALIE                       00000000000000000000                21                      
903L001L5063200504094544892D23700033847001001167709029200000008500201219350   CRESCENT1 CUS0054640          K ABRAHAMS                    00000000000000000000                21                      
903L001L5063200504094544892D23700033947001001337249554200000000000201219350   CRESCENT1 CUS0058085          K KOMALDIEN                   00000000000000000000                21                      
903L001L5063200504094544892D23700034047001001373732855200000008500201219350   CRESCENT1 CUS0059428          W BENJAMIN                    00000000000000000000                21                      
903L001L5063200504094544892D23700034125065550510050227100000016000201219350   CRESCENT1 CUS0005904          F ALLY                        00000000000000000000                21                      
903L001L5063200504094544892D23700034247001001382285351200000008500201219350   CRESCENT1 CUS0017882          S MIA                         00000000000000000000                21                      
903L001L5063200504094544892D23700034325065550280036614100000008500201219350   CRESCENT1 CUS0026559          R AHMED                       00000000000000000000                21                      
903L001L5063200504094544892D23700034405100100251302849100000008500201219350   CRESCENT1 CUS0033457          S SHAIKH                      00000000000000000000                21                      
903L001L5063200504094544892D23700034525065555280025112100000006900201219350   CRESCENT1 CUS0038914          K CASSIM                      00000000000000000000                21                      
903L001L5063200504094544892D23700034619876501010190792100000008500201219350   CRESCENT1 CUS0044544          U MOHAMED                     00000000000000000000                21                      
903L001L5063200504094544892D23700034763200509056605958100000008500201219350   CRESCENT1 CUS0049030          R DANIELS                     00000000000000000000                21                      
903L001L5063200504094544892D23700034805100100072789549100000008500201219350   CRESCENT1 CUS0054643          E SLAMDIEN                    00000000000000000000                21                      
903L001L5063200504094544892D23700034905100100273845748100000008500201219350   CRESCENT1 CUS0058090          M HENDRICKS                   00000000000000000000                21                      
903L001L5063200504094544892D23700035005100110070005301100000008500201219350   CRESCENT1 CUS0059429          T ESAU                        00000000000000000000                21                      
903L001L5063200504094544892D23700035125065562349995631100000016000201219350   CRESCENT1 CUS0005991          A KHAN                        00000000000000000000                21                      
903L001L5063200504094544892D23700035219876501965340385100000023500201219350   CRESCENT1 CUS0017910          M ADAM                        00000000000000000000                21                      
903L001L5063200504094544892D23700035325065551669005535100000016000201219350   CRESCENT1 CUS0026571          F ASMAL                       00000000000000000000                21                      
903L001L5063200504094544892D23700035447001001226720399200000013800201219350   CRESCENT1 CUS0033460          A ISMAIL                      00000000000000000000                21                      
903L001L5063200504094544892D23700035547001001547523938200000016000201219350   CRESCENT1 CUS0038921          A KALEB                       00000000000000000000                21                      
903L001L5063200504094544892D23700035625065555283053285100000008500201219350   CRESCENT1 CUS0044600          M MONIER                      00000000000000000000                21                      
903L001L5063200504094544892D23700035763200509092343683100000008500201219350   CRESCENT1 CUS0049032          S JAYLA                       00000000000000000000                21                      
903L001L5063200504094544892D23700035805100100063331349100000008500201219350   CRESCENT1 CUS0054651          N HOSSAIN                     00000000000000000000                21                      
903L001L5063200504094544892D23700035925065562527870340100000006900201219350   CRESCENT1 CUS0058094          S FAKIE                       00000000000000000000                21                      
903L001L5063200504094544892D23700036025065562846287309100000008500201219350   CRESCENT1 CUS0059430          Z RORICK                      00000000000000000000                21                      
903L001L5063200504094544892D23700036125065562356244477100000008500201219350   CRESCENT1 CUS0006009          F ESHAK                       00000000000000000000                21                      
903L001L5063200504094544892D23700036225065562772193654100000007500201219350   CRESCENT1 CUS0018040          A VAWDA                       00000000000000000000                21                      
903L001L5063200504094544892D23700036363200504040600226100000008500201219350   CRESCENT1 CUS0026602          R MAJATHI                     00000000000000000000                21                      
903L001L5063200504094544892D23700036463200504052739603100000008500201219350   CRESCENT1 CUS0033490          Z CHRISTIAN                   00000000000000000000                21                      
903L001L5063200504094544892D23700036525065562496193948100000008500201219350   CRESCENT1 CUS0038929          R PATEL                       00000000000000000000                21                      
903L001L5063200504094544892D23700036605100100076413853100000008500201219350   CRESCENT1 CUS0044605          R CARELSE GALANT              00000000000000000000                21                      
903L001L5063200504094544892D23700036705100100031101305100000008500201219350   CRESCENT1 CUS0049033          A CARA                        00000000000000000000                21                      
903L001L5063200504094544892D23700036847001001441122123200000008500201219350   CRESCENT1 CUS0054681          A SIRKHOT                     00000000000000000000                21                      
903L001L5063200504094544892D23700036925065550130073170100000008500201219350   CRESCENT1 CUS0058097          A RAWOOT                      00000000000000000000                21                      
903L001L5063200504094544892D23700037067891051013678366100000008500201219350   CRESCENT1 CUS0059432          R BRAND ALLY                  00000000000000000000                21                      
903L001L5063200504094544892D23700037125065562741837689100000007500201219350   CRESCENT1 CUS0006079          N KAMISH                      00000000000000000000                21                      
903L001L5063200504094544892D23700037205100100202778053100000016000201219350   CRESCENT1 CUS0018044          F KHAN                        00000000000000000000                21                      
903L001L5063200504094544892D23700037305100100029009340100000008500201219350   CRESCENT1 CUS0026605          N KHUMALO                     00000000000000000000                21                      
903L001L5063200504094544892D23700037463200504084493477100000016000201219350   CRESCENT1 CUS0033500          F NOOR                        00000000000000000000                21                      
903L001L5063200504094544892D23700037505100100370585763100000016000201219350   CRESCENT1 CUS0038933          F KARRIM                      00000000000000000000                21                      
903L001L5063200504094544892D23700037625065562418000478100000008500201219350   CRESCENT1 CUS0044610          M RAVAT                       00000000000000000000                21                      
903L001L5063200504094544892D23700037705100100202553191100000008500201219350   CRESCENT1 CUS0049040          S MAKRA                       00000000000000000000                21                      
903L001L5063200504094544892D23700037858010510011518034100000016000201219350   CRESCENT1 CUS0054684          L SAMSAM                      00000000000000000000                21                      
903L001L5063200504094544892D23700037947001001225892609200000006900201219350   CRESCENT1 CUS0058104          I MIA                         00000000000000000000                21                      
903L001L5063200504094544892D23700038025065562484744688100000008500201219350   CRESCENT1 CUS0059433          M JEFFERIES                   00000000000000000000                21                      
903L001L5063200504094544892D23700038105100100000230855100000007500201219350   CRESCENT1 CUS0006123          Y SULEMAN                     00000000000000000000                21                      
903L001L5063200504094544892D23700038225065562197870853100000008500201219350   CRESCENT1 CUS0018151          Z BOUGAARD                    00000000000000000000                21                      
903L001L5063200504094544892D23700038363200509032674544100000008500201219350   CRESCENT1 CUS0026671          S SALO                        00000000000000000000                21                      
903L001L5063200504094544892D23700038425065562259737751100000008500201219350   CRESCENT1 CUS0033533          A HEYMAN                      00000000000000000000                21                      
903L001L5063200504094544892D23700038563200500710702721100000008500201219350   CRESCENT1 CUS0038939          F DENDAR                      00000000000000000000                21                      
903L001L5063200504094544892D23700038619876502952501440200000008500201219350   CRESCENT1 CUS0044612          I JOOSUB                      00000000000000000000                21                      
903L001L5063200504094544892D23700038725065554480077395100000016000201219350   CRESCENT1 CUS0049073          N GABIER                      00000000000000000000                21                      
903L001L5063200504094544892D23700038805100100373854196100000008500201219350   CRESCENT1 CUS0054695          F CAIRNCROSS                  00000000000000000000                21                      
903L001L5063200504094544892D23700038919876501183052758100000008500201219350   CRESCENT1 CUS0058107          A BAKER                       00000000000000000000                21                      
903L001L5063200504094544892D23700039047001001241379791200000008500201219350   CRESCENT1 CUS0059434          S MAHOMED                     00000000000000000000                21                      
903L001L5063200504094544892D23700039125065560528359040100000016000201219350   CRESCENT1 CUS0006232          A ADAM                        00000000000000000000                21                      
903L001L5063200504094544892D23700039225065562602521933100000016000201219350   CRESCENT1 CUS0018178          K SHAR                        00000000000000000000                21                      
903L001L5063200504094544892D23700039325065562024807359100000008500201219350   CRESCENT1 CUS0026690          F MAHOMED                     00000000000000000000                21                      
903L001L5063200504094544892D23700039425065552631065200100000008500201219350   CRESCENT1 CUS0033534          Z PAULSE                      00000000000000000000                21                      
903L001L5063200504094544892D23700039525065550220029463100000008500201219350   CRESCENT1 CUS0038968          R MUSTAPHA                    00000000000000000000                21                      
903L001L5063200504094544892D23700039605100100421555297100000008500201219350   CRESCENT1 CUS0044615          M DAVIDS                      00000000000000000000                21                      
903L001L5063200504094544892D23700039705100100070572720100000008500201219350   CRESCENT1 CUS0049085          M SMITH ABRAHAMS              00000000000000000000                21                      
903L001L5063200504094544892D23700039825065562650860052100000000000201219350   CRESCENT1 CUS0054703          F DELAREY                     00000000000000000000                21                      
903L001L5063200504094544892D23700039919876501083369237100000008500201219350   CRESCENT1 CUS0058108          R FELIX                       00000000000000000000                21                      
903L001L5063200504094544892D23700040063200504096412362100000008500201219350   CRESCENT1 CUS0059435          Y JANSON                      00000000000000000000                21                      
903L001L5063200504094544892D23700040125065560502002764100000008500201219350   CRESCENT1 CUS0006237          F KHAN                        00000000000000000000                21                      
903L001L5063200504094544892D23700040219876501007615478100000008500201219350   CRESCENT1 CUS0018189          M PAULSEN                     00000000000000000000                21                      
903L001L5063200504094544892D23700040363200501005960092100000008500201219350   CRESCENT1 CUS0026736          Z MOTLEKAR                    00000000000000000000                21                      
903L001L5063200504094544892D23700040425065562173893689100000016000201219350   CRESCENT1 CUS0033540          M BATTY                       00000000000000000000                21                      
903L001L5063200504094544892D23700040563200504060221959100000016000201219350   CRESCENT1 CUS0038977          F STEVENS                     00000000000000000000                21                      
903L001L5063200504094544892D23700040605100100224134833100000006900201219350   CRESCENT1 CUS0044647          J WADVALLA                    00000000000000000000                21                      
903L001L5063200504094544892D23700040763200504080961147100000008500201219350   CRESCENT1 CUS0049090          Y BISMILLA                    00000000000000000000                21                      
903L001L5063200504094544892D23700040819876502079009818200000007500201219350   CRESCENT1 CUS0054718          F ABRAHAMS                    00000000000000000000                21                      
903L001L5063200504094544892D23700040963200509324611431100000016000201219350   CRESCENT1 CUS0058115          A SERAIJOODIEN                00000000000000000000                21                      
903L001L5063200504094544892D23700041047001001603475840200000008500201219350   CRESCENT1 CUS0059436          S MADATT                      00000000000000000000                21                      
903L001L5063200504094544892D23700041105100100207649650100000016000201219350   CRESCENT1 CUS0006257          S MALL                        00000000000000000000                21                      
903L001L5063200504094544892D23700041205100100035869704100000006900201219350   CRESCENT1 CUS0018273          H CHOONARA                    00000000000000000000                21                      
903L001L5063200504094544892D23700041363200504073478309100000007500201219350   CRESCENT1 CUS0026748          S ANDERSON                    00000000000000000000                21                      
903L001L5063200504094544892D23700041405100100062145959100000008500201219350   CRESCENT1 CUS0033558          H JADWAT                      00000000000000000000                21                      
903L001L5063200504094544892D23700041525065562582706332100000008500201219350   CRESCENT1 CUS0038984          F PETKAR                      00000000000000000000                21                      
903L001L5063200504094544892D23700041625065562509547115100000008500201219350   CRESCENT1 CUS0044650          A HARTLEY                     00000000000000000000                21                      
903L001L5063200504094544892D23700041747001001524143764200000008500201219350   CRESCENT1 CUS0049095          S JARDINE                     00000000000000000000                21                      
903L001L5063200504094544892D23700041825065560045307374100000008500201219350   CRESCENT1 CUS0054728          F ASRAFF                      00000000000000000000                21                      
903L001L5063200504094544892D23700041963200509208978218100000008500201219350   CRESCENT1 CUS0058116          Z EDRIES                      00000000000000000000                21                      
903L001L5063200504094544892D23700042047001001680031951200000008500201219350   CRESCENT1 CUS0059438          Z MADATT                      00000000000000000000                21                      
903L001L5063200504094544892D23700042163200509104688735100000008500201219350   CRESCENT1 CUS0006269          A DATA                        00000000000000000000                21                      
903L001L5063200504094544892D23700042205100100019098464100000016000201219350   CRESCENT1 CUS0018276          A ALLI                        00000000000000000000                21                      
903L001L5063200504094544892D23700042363200500121962128100000008500201219350   CRESCENT1 CUS0026763          A RANTSELI                    00000000000000000000                21                      
903L001L5063200504094544892D23700042463200504054776099100000008500201219350   CRESCENT1 CUS0033562          F AJAM                        00000000000000000000                21                      
903L001L5063200504094544892D23700042525065562174983611100000008500201219350   CRESCENT1 CUS0038997          S GABIER                      00000000000000000000                21                      
903L001L5063200504094544892D23700042625065562377244414100000016000201219350   CRESCENT1 CUS0044685          M MOMLA                       00000000000000000000                21                      
903L001L5063200504094544892D23700042763200504084637257100000008500201219350   CRESCENT1 CUS0049096          N MULLAH                      00000000000000000000                21                      
903L001L5063200504094544892D23700042825065562658609527100000008500201219350   CRESCENT1 CUS0054734          A JEEWA                       00000000000000000000                21                      
903L001L5063200504094544892D23700042947001001344133264200000008500201219350   CRESCENT1 CUS0058117          F ADAMS                       00000000000000000000                21                      
903L001L5063200504094544892D23700043025065562502249924100000008500201219350   CRESCENT1 CUS0059440          M GANIEF                      00000000000000000000                21                      
903L001L5063200504094544892D23700043125065562127427658100000008500201219350   CRESCENT1 CUS0006335          A OSMAN                       00000000000000000000                21                      
903L001L5063200504094544892D23700043225065562279028205100000016000201219350   CRESCENT1 CUS0018304          A TAYOBA CASSIM               00000000000000000000                21                      
903L001L5063200504094544892D23700043325065562716419842100000008500201219350   CRESCENT1 CUS0026789          O BADAT                       00000000000000000000                21                      
903L001L5063200504094544892D23700043463200538033440992100000016000201219350   CRESCENT1 CUS0038998          L PETERSEN                    00000000000000000000                21                      
903L001L5063200504094544892D23700043547001001343418052200000008500201219350   CRESCENT1 CUS0044709          N NAIDOO                      00000000000000000000                21                      
903L001L5063200504094544892D23700043663200509235265094100000008500201219350   CRESCENT1 CUS0049101          Z JULIUS                      00000000000000000000                21                      
903L001L5063200504094544892D23700043725065562462039093100000008500201219350   CRESCENT1 CUS0054773          A BAGUS                       00000000000000000000                21                      
903L001L5063200504094544892D23700043867891051009228067100000008500201219350   CRESCENT1 CUS0058118          W LYONS                       00000000000000000000                21                      
903L001L5063200504094544892D23700043947001001444498094200000008500201219350   CRESCENT1 CUS0059441          I CASPER                      00000000000000000000                21                      
903L001L5063200504094544892D23700044025065562340696759100000008500201219350   CRESCENT1 CUS0006337          S MIA                         00000000000000000000                21                      
903L001L5063200504094544892D23700044163200509176411061100000008500201219350   CRESCENT1 CUS0018348          F MAYET                       00000000000000000000                21                      
903L001L5063200504094544892D23700044225065553133121714100000023500201219350   CRESCENT1 CUS0026795          B MANJRA                      00000000000000000000                21                      
903L001L5063200504094544892D23700044325065550600117234100000008500201219350   CRESCENT1 CUS0033597          R MAKHENE                     00000000000000000000                21                      
903L001L5063200504094544892D23700044405100100073285447100000008500201219350   CRESCENT1 CUS0039005          B ABRAHAMS                    00000000000000000000                21                      
903L001L5063200504094544892D23700044525065562337464383100000008500201219350   CRESCENT1 CUS0044710          T CHOONARA                    00000000000000000000                21                      
903L001L5063200504094544892D23700044625065562143970128100000015000201219350   CRESCENT1 CUS0049109          A DOCKRAT                     00000000000000000000                21                      
903L001L5063200504094544892D23700044725065562176594127100000008500201219350   CRESCENT1 CUS0054785          R PRICE                       00000000000000000000                21                      
903L001L5063200504094544892D23700044847001001308463489200000008500201219350   CRESCENT1 CUS0058123          S JACOBS                      00000000000000000000                21                      
903L001L5063200504094544892D23700044925065562818916704100000008500201219350   CRESCENT1 CUS0059443          N CASSIM                      00000000000000000000                21                      
903L001L5063200504094544892D23700045045010501006252509100000008500201219350   CRESCENT1 CUS0006345          I BHOOLA                      00000000000000000000                21                      
903L001L5063200504094544892D23700045125065562387566395100000008500201219350   CRESCENT1 CUS0018371          I KALIL                       00000000000000000000                21                      
903L001L5063200504094544892D23700045225065562452594833100000008500201219350   CRESCENT1 CUS0026802          A DESAI                       00000000000000000000                21                      
903L001L5063200504094544892D23700045305100100200850806100000008500201219350   CRESCENT1 CUS0033610          A CHOONILAL                   00000000000000000000                21                      
903L001L5063200504094544892D23700045405100110013749178100000031000201219350   CRESCENT1 CUS0039007          A SAMUELS                     00000000000000000000                21                      
903L001L5063200504094544892D23700045525065562048318465100000008500201219350   CRESCENT1 CUS0044720          M ASVAT                       00000000000000000000                21                      
903L001L5063200504094544892D23700045605100100080120466100000008500201219350   CRESCENT1 CUS0049135          G ASTIE                       00000000000000000000                21                      
903L001L5063200504094544892D23700045747001001489871622200000008500201219350   CRESCENT1 CUS0054791          Y JASSIEN                     00000000000000000000                21                      
903L001L5063200504094544892D23700045805100100073148865100000008500201219350   CRESCENT1 CUS0058125          N HENDRICKS                   00000000000000000000                21                      
903L001L5063200504094544892D23700045905100110036238021100000008500201219350   CRESCENT1 CUS0059444          J SAMPSON                     00000000000000000000                21                      
903L001L5063200504094544892D23700046025065562295213012100000008500201219350   CRESCENT1 CUS0006368          T MOHAMED                     00000000000000000000                21                      
903L001L5063200504094544892D23700046125065562020527240100000016000201219350   CRESCENT1 CUS0018392          M ADAMS                       00000000000000000000                21                      
903L001L5063200504094544892D23700046225065562061933571100000008500201219350   CRESCENT1 CUS0026811          S AHMED                       00000000000000000000                21                      
903L001L5063200504094544892D23700046325065562775213037100000008500201219350   CRESCENT1 CUS0033633          T PAULSEN                     00000000000000000000                21                      
903L001L5063200504094544892D23700046405100100070082448100000016000201219350   CRESCENT1 CUS0039008          I SAMUELS                     00000000000000000000                21                      
903L001L5063200504094544892D23700046563200509353179692100000008500201219350   CRESCENT1 CUS0044732          F BANOO                       00000000000000000000                21                      
903L001L5063200504094544892D23700046625065562525622959100000008500201219350   CRESCENT1 CUS0049173          A YACOOB                      00000000000000000000                21                      
903L001L5063200504094544892D23700046705100100272105333100000008500201219350   CRESCENT1 CUS0054792          M ADHKARIE                    00000000000000000000                21                      
903L001L5063200504094544892D23700046863200509303548629100000006900201219350   CRESCENT1 CUS0058130          F SALIE                       00000000000000000000                21                      
903L001L5063200504094544892D23700046925065562839111713100000008500201219350   CRESCENT1 CUS0059450          A LAMARA                      00000000000000000000                21                      
903L001L5063200504094544892D23700047063200504061164356100000016000201219350   CRESCENT1 CUS0006380          N AHMED                       00000000000000000000                21                      
903L001L5063200504094544892D23700047119876501092077359100000008500201219350   CRESCENT1 CUS0018419          F MIA                         00000000000000000000                21                      
903L001L5063200504094544892D23700047225065562061204419100000016000201219350   CRESCENT1 CUS0026826          S OSMAN                       00000000000000000000                21                      
903L001L5063200504094544892D23700047325065562627887849100000008500201219350   CRESCENT1 CUS0033642          F MAHRI                       00000000000000000000                21                      
903L001L5063200504094544892D23700047419876501032206322100000008500201219350   CRESCENT1 CUS0039009          B MOREMI                      00000000000000000000                21                      
903L001L5063200504094544892D23700047525065562281638539100000008500201219350   CRESCENT1 CUS0044737          F DE LA REY                   00000000000000000000                21                      
903L001L5063200504094544892D23700047605100100310929954100000008500201219350   CRESCENT1 CUS0049210          W MAGED                       00000000000000000000                21                      
903L001L5063200504094544892D23700047747001001310272296200000008500201219350   CRESCENT1 CUS0054793          A MOOSA                       00000000000000000000                21                      
903L001L5063200504094544892D23700047805100100072893125100000008500201219350   CRESCENT1 CUS0058131          S JORDAN                      00000000000000000000                21                      
903L001L5063200504094544892D23700047947001001328547572200000008500201219350   CRESCENT1 CUS0059451          M JAMAL                       00000000000000000000                21                      
903L001L5063200504094544892D23700048063200504053083049100000016000201219350   CRESCENT1 CUS0006419          J BARNES                      00000000000000000000                21                      
903L001L5063200504094544892D23700048105100100402231988100000008500201219350   CRESCENT1 CUS0018428          J ESSACK                      00000000000000000000                21                      
903L001L5063200504094544892D23700048225065562221435325100000000000201219350   CRESCENT1 CUS0026830          H BHAYAT                      00000000000000000000                21                      
903L001L5063200504094544892D23700048325065550450155707100000008500201219350   CRESCENT1 CUS0033680          Z KARA                        00000000000000000000                21                      
903L001L5063200504094544892D23700048425065562402068432100000008500201219350   CRESCENT1 CUS0039022          S FAKIR                       00000000000000000000                21                      
903L001L5063200504094544892D23700048525065562265766182100000008500201219350   CRESCENT1 CUS0044760          F DE KLERK                    00000000000000000000                21                      
903L001L5063200504094544892D23700048625065562532489590100000008500201219350   CRESCENT1 CUS0049215          F HENDRICKS                   00000000000000000000                21                      
903L001L5063200504094544892D23700048763200509290341528100000008500201219350   CRESCENT1 CUS0054797          A CLAASEN                     00000000000000000000                21                      
903L001L5063200504094544892D23700048847001001420475833200000008500201219350   CRESCENT1 CUS0058135          M KOOPMAN                     00000000000000000000                21                      
903L001L5063200504094544892D23700048947001001642561116200000008500201219350   CRESCENT1 CUS0059452          M JAMAL                       00000000000000000000                21                      
903L001L5063200504094544892D23700049005100100001696440100000008500201219350   CRESCENT1 CUS0006425          S MOOLLA                      00000000000000000000                21                      
903L001L5063200504094544892D23700049105100100401041603100000014400201219350   CRESCENT1 CUS0018439          A HOOSEN KHAN                 00000000000000000000                21                      
903L001L5063200504094544892D23700049225065562799187565100000008500201219350   CRESCENT1 CUS0026833          M CARLSEN                     00000000000000000000                21                      
903L001L5063200504094544892D23700049363200500926868663100000008500201219350   CRESCENT1 CUS0033712          L BODIBA                      00000000000000000000                21                      
903L001L5063200504094544892D23700049447001001530724226200000008500201219350   CRESCENT1 CUS0039028          S DOLLIE                      00000000000000000000                21                      
903L001L5063200504094544892D23700049525065562818822563100000008500201219350   CRESCENT1 CUS0044767          F EBRAHIM                     00000000000000000000                21                      
903L001L5063200504094544892D23700049619876501088143326100000008500201219350   CRESCENT1 CUS0049227          S NCANE                       00000000000000000000                21                      
903L001L5063200504094544892D23700049763200504068580612100000008500201219350   CRESCENT1 CUS0054800          Q DE VILLIERS                 00000000000000000000                21                      
903L001L5063200504094544892D23700049819876501050585127100000008500201219350   CRESCENT1 CUS0058136          N CASSIEM                     00000000000000000000                21                      
903L001L5063200504094544892D23700049925065562769301575100000008500201219350   CRESCENT1 CUS0059454          A HENDRICKS                   00000000000000000000                21                      
