000L2020102500000PAYPORT CONSULTING PTY LTD EFT000047707303                                                                                                                                           
010LD237000002501                                                                                                                                                                                     
011LD23763200500000040945448920120201021                                                                                                                                                              
013L5020201020000390198765000000112728261100000008500CRESCENT1 1603195657OCUS00334303000000000000                W ABRAHAMS                                                                           
013L5020201020000345632005000000409328422900000008500CRESCENT1 1603195658OCUS00550903092801000345                J TOFFIE                                                                             
013L5020201020000309051001000000000938696300000008500CRESCENT1 1603195658OCUS00544903400000000000                Z HARMEN                                                                             
013L5020201020000046198765000000110844926300000008500CRESCENT1 1603195658OCUS00586803000000000000                S SNAYERS                                                                            
013L5020201020000343051001000000000905896600000008500CRESCENT1 1603195658OCUS00550303000000000000                A GOOLAM                                                                             
014L0000000050000000000000000063474620320000000004250000000000000000                                                                                                                                  
019L0000000050000000000000000063474620320000000004250000000000000000                                                                                                                                  
999L000000011                                                                                                                                                                                         
