000L2021021600000PAYPORT CONSULTING PTY LTD EFT000063407303                                                                                                                                           
010LD237000011901                                                                                                                                                                                     
011LD23763200500000040945448920120210125                                                                                                                                                              
013L5020210123000677051001000001006216407200000016000CRESCENT1 CUS0053570          03000000000000                N MOHAMED                                                                            
013L5020210123000096051001000000004192264600000016000CRESCENT1 CUS0056753          03400000000000                A LATEGAN                                                                            
014L0000000020000000000000000101040867180000000003200000000000000000                                                                                                                                  
011LD23763200500000040945448920120210216                                                                                                                                                              
013L5020210215001043051001000000025213334100000008500CRESCENT1 CUS0042787          02682502001043                N KHAN                                                                               
013L5020210215000786198765000000108762174100000007500CRESCENT1 CUS0020198          02682502000786                S OMAR                                                                               
013L5020210215001201250655000623939000000000000008500CRESCENT1 CUS0006459          02682502001201                I MAHOMED                                                                            
013L5020210215000607632005000000408004439100000008500CRESCENT1 CUS0039235          02682502000607                Y MOTARA                                                                             
013L5020210215000245250655000000624475541300000008500CRESCENT1 CUS0058256          02682502000245                F SHIEK                                                                              
013L5020210215000840800000000000100725262100000007500CRESCENT1 CUS0055687          02682502000840                A WILLIAMS                                                                           
013L5020210215001072632005000000408758670600000007500CRESCENT1 CUS0026240          02683002001072                F ISMAIL                                                                             
013L5020210215000028470010000000105654067200000008500CRESCENT1 CUS0044801          02682502000028                M DENNIS GREEN                                                                       
013L5020210215001048250655000006216647202500000008500CRESCENT1 CUS0042928          02682502001048                S AMOD                                                                               
013L5020210215000130051001000000000724555100000008500CRESCENT1 CUS0057943          02682502000130                S BENJAMIN                                                                           
013L5020210215000821051001000000333060495300000008500CRESCENT1 CUS0000157          02682502000821                G BAGDADI                                                                            
013L5020210215000856051001000000072577889800000008500CRESCENT1 CUS0000602          02682502000856                N FISHER                                                                             
013L5020210215001092250655000000623446672600000008500CRESCENT1 CUS0026487          02682502001092                A NGWABENI                                                                           
013L5020210215000522632005000000432557004100000008500CRESCENT1 CUS0038710          02683002000522                R MOHAMMED                                                                           
014L0000000140000000000000063339960730790000000011600000000000000000                                                                                                                                  
019L0000000160000000000000063441001597970000000014800000000000000000                                                                                                                                  
999L000000024                                                                                                                                                                                         
