000L2021011900000PAYPORT CONSULTING PTY LTD EFT000059207303                                                                                                                                           
010LD237000008201                                                                                                                                                                                     
011LD23763200500000040945448920120201215                                                                                                                                                              
013L5020201214001217470010000000125458543300000008500CRESCENT1 CUS0058447          03000000000000                P MANUEL                                                                             
014L0000000010000000000000000012545854330000000000850000000000000000                                                                                                                                  
011LD23763200500000040945448920120210116                                                                                                                                                              
013L5020210115000224470010000000135681135100000008500CRESCENT1 CUS0052578          00200000000000                F RAHMAN                                                                             
013L5020210115001255470010000000142042916500000007500CRESCENT1 CUS0057836          00200000000000                M CHRISTIANS                                                                         
013L5020210115000194470010000000111429594700000008500CRESCENT1 CUS0052457          00200000000000                N FICK                                                                               
013L5020210115000345470010000000160572509700000008500CRESCENT1 CUS0058880          00200000000000                S AGHERDIEN                                                                          
013L5020210115000089800000000007860011378400000008500CRESCENT1 CUS0051866          00200000000000                A RAHMAN                                                                             
013L5020210115000795470010000000153732417700000008500CRESCENT1 CUS0055800          00200000000000                T PALM                                                                               
013L5020210115000193051001000000000490918600000008500CRESCENT1 CUS0045990          01200000000000                M AZIZ                                                                               
013L5020210115000268470010000000120707059700000008500CRESCENT1 CUS0046628          00200000000000                Z OSMAN                                                                              
013L5020210115000415470010000000145806459800000008500CRESCENT1 CUS0058993          00200000000000                M MANGANYI                                                                           
013L5020210115000990470010000000126939933900000008500CRESCENT1 CUS0056577          00200000000000                E HASKIN                                                                             
013L5020210115001141051001000000020052906400000016000CRESCENT1 CUS0005807          00200000000000                A DESAI                                                                              
013L5020210115000175470010000000148812086000000008500CRESCENT1 CUS0058325          00200000000000                M FRANCIS                                                                            
013L5020210115001038470010000000124163331000000008500CRESCENT1 CUS0043818          00200000000000                M ZAMA                                                                               
013L5020210115001030470010000000135769025600000008500CRESCENT1 CUS0056693          00200000000000                A SWARTZ                                                                             
013L5020210115000157470010000000121006823900000008500CRESCENT1 CUS0035591          00200000000000                M JOOMA                                                                              
013L5020210115000248051001000000033268040100000008500CRESCENT1 CUS0046391          01200000000000                M PAREKH                                                                             
013L5020210115000772470010000000154865967100000008500CRESCENT1 CUS0055721          00200000000000                M MOHAMED                                                                            
013L5020210115000399470010000000169403072300000008500CRESCENT1 CUS0053237          00200000000000                M DANIELS                                                                            
013L5020210115000075470010000000169451277900000006900CRESCENT1 CUS0058121          00200000000000                A LAKAY                                                                              
013L5020210115000042470010000000171504245800000008500CRESCENT1 CUS0033411          00200000000000                S MAPHUMULO                                                                          
013L5020210115001120051001000000027637835000000008500CRESCENT1 CUS0057156          00400000000000                F TASRIET                                                                            
013L5020210115000543470010000000143467416700000008500CRESCENT1 CUS0048204          00200000000000                M SAULS                                                                              
013L5020210115000220470010000000125458543300000008500CRESCENT1 CUS0058447          03000000000000                P MANUEL                                                                             
013L5020210115000719470010000000125351064200000008500CRESCENT1 CUS0048898          00200000000000                F HASSIEM                                                                            
013L5020210115000400470010000000133020781300000008500CRESCENT1 CUS0058989          00200000000000                S ARNOLDS                                                                            
013L5020210115000985470010000000142954136700000008500CRESCENT1 CUS0056576          00200000000000                I BAILEY                                                                             
013L5020210115000935470010000000142445090800000008500CRESCENT1 CUS0056228          00200000000000                R JARDIEN                                                                            
013L5020210115000289470010000000136433203300000008500CRESCENT1 CUS0052851          00200000000000                T SMITH                                                                              
013L5020210115000140470010000000150186518600000008500CRESCENT1 CUS0058251          00200000000000                S BEDAWALA                                                                           
013L5020210115001170470010000000154195017600000008500CRESCENT1 CUS0057399          00200000000000                M HERCULES                                                                           
013L5020210115000550470010000000157440691200000008500CRESCENT1 CUS0059364          00200000000000                L CLOETE                                                                             
013L5020210115000996800000000007860016957300000008500CRESCENT1 CUS0003693          00200000000000                S MADAREE                                                                            
013L5020210115000675470010000000134882737600000008500CRESCENT1 CUS0059525          00200000000000                S BERHARDIEN                                                                         
013L5020210115000010470010000000116585476500000006900CRESCENT1 CUS0057902          00200000000000                J SCHROEDER                                                                          
013L5020210115001088250655000007449207609400000008500CRESCENT1 CUS0044029          02600000000000                K SULEMAN                                                                            
013L5020210115001037051001000000033201480000000016000CRESCENT1 CUS0026591          00200000000000                I MOHAMED                                                                            
013L5020210115000390470010000000153571078900000006900CRESCENT1 CUS0058954          00200000000000                K COZYN                                                                              
013L5020210115000978470010000000169179537000000008500CRESCENT1 CUS0043251          00200000000000                F BALLIM                                                                             
013L5020210115000188632005000000408899308100000016000CRESCENT1 CUS0045981          03492801000188                A SMITH                                                                              
013L5020210115000925051001000000033246268400000016000CRESCENT1 CUS0056142          00200000000000                I GRIFFITHS                                                                          
013L5020210115000600460005000000005108575000000023500CRESCENT1 CUS0034951          00200000000000                J MOTHA                                                                              
013L5020210115000545470010000000122479139600000008500CRESCENT1 CUS0059360          00200000000000                Y MOHAMMED                                                                           
013L5020210115000115470010000000146097904200000008500CRESCENT1 CUS0058227          00200000000000                M ROBERTS                                                                            
013L5020210115000261051001000000000168523600000008500CRESCENT1 CUS0012561          00600000000000                N MOHAMED                                                                            
013L5020210115000225470010000000129325666600000008500CRESCENT1 CUS0058534          00200000000000                A ADAMS                                                                              
013L5020210115000823470010000000112653300700000008500CRESCENT1 CUS0042117          00200000000000                A BLANKENBERG                                                                        
013L5020210115000700470010000000159157292200000016000CRESCENT1 CUS0055327          00200000000000                F WILLIAMS DAVIDS                                                                    
013L5020210115000045470010000000114664619200000008500CRESCENT1 CUS0058048          00200000000000                F TOEFEY                                                                             
013L5020210115000728470010000000134733576300000007500CRESCENT1 CUS0055539          00200000000000                R JORDAAN                                                                            
013L5020210115000394470010000000144252463200000008500CRESCENT1 CUS0053236          00200000000000                S FOKOTHO                                                                            
013L5020210115001045470010000000148005645400000008500CRESCENT1 CUS0056867          00200000000000                R FREDERICKS                                                                         
013L5020210115000149051001000001007513738900000008500CRESCENT1 CUS0052227          00200000000000                A RAVAT                                                                              
013L5020210115000361051001000000003017102400000016000CRESCENT1 CUS0014972          00600000000000                N ESSA                                                                               
013L5020210115001233051001000000028206121500000008500CRESCENT1 CUS0044920          00200000000000                M FANOO                                                                              
013L5020210115000706632005000000922002647300000008500CRESCENT1 CUS0040962          00292803000706                S ENGAR                                                                              
013L5020210115000720470010000000151293720500000008500CRESCENT1 CUS0055532          00400000000000                L RAFFETY                                                                            
013L5020210115000969051001000000041039518800000008500CRESCENT1 CUS0050225          00400000000000                M VALLEE                                                                             
013L5020210115000465051001000001013138565600000006900CRESCENT1 CUS0059125          00200000000000                A SCELLO                                                                             
013L5020210115000185470010000000113741808500000008500CRESCENT1 CUS0058339          00200000000000                Y DALVIE                                                                             
013L5020210115000620051001000000006238356600000008500CRESCENT1 CUS0038519          00200000000000                M GAFOOR                                                                             
013L5020210115001199470010000000134883096200000008500CRESCENT1 CUS0051269          00200000000000                Y BRAAF                                                                              
013L5020210115000665470010000000150810562400000008500CRESCENT1 CUS0059032          00200000000000                R GOLIATH                                                                            
013L5020210115000870470010000000151018421800000008500CRESCENT1 CUS0055989          00200000000000                N EBRAHIM                                                                            
013L5020210115000475470010000000157425419500000008500CRESCENT1 CUS0059155          00200000000000                M HENDRICKS                                                                          
013L5020210115000425051001000001000826460900000016000CRESCENT1 CUS0059013          00200000000000                A DAVIDS                                                                             
013L5020210115001020470010000000119833001300000016000CRESCENT1 CUS0056646          00200000000000                S GANIEF                                                                             
013L5020210115000079470010000000155543299700000008500CRESCENT1 CUS0051829          00200000000000                F GABIER                                                                             
013L5020210115000464470010000000164446272700000006900CRESCENT1 CUS0053551          00200000000000                N TALIEP JOSEPH                                                                      
013L5020210115000599470010000000155520996100000008500CRESCENT1 CUS0054582          00200000000000                M VAN RHEEDE                                                                         
013L5020210115000453470010000000114391285100000008500CRESCENT1 CUS0047707          00200000000000                S ISMAIL                                                                             
013L5020210115000542051001000000002262383300000008500CRESCENT1 CUS0039615          01800000000000                I CAJEE                                                                              
013L5020210115000850470010000000140213732800000008500CRESCENT1 CUS0055931          00200000000000                M ARMARDIEN                                                                          
013L5020210115001042051001000000001240673200000008500CRESCENT1 CUS0026612          00200000000000                H CONSALVES                                                                          
013L5020210115000389470010000000155451274100000006900CRESCENT1 CUS0053187          00200000000000                A MIA                                                                                
013L5020210115000670470010000000168348539200000007500CRESCENT1 CUS0059522          00200000000000                N RHODA                                                                              
013L5020210115000535051001000001010803503200000008500CRESCENT1 CUS0059308          00200000000000                G RAYNERS                                                                            
013L5020210115000791051001000000027198897500000008500CRESCENT1 CUS0000131          01200000000000                A HASSIM                                                                             
013L5020210115000423051001000000003210004300000016000CRESCENT1 CUS0047532          00200000000000                A BHAYAT                                                                             
013L5020210115000938470010000000141773165400000006900CRESCENT1 CUS0042721          00200000000000                J HLATYWAYO                                                                          
013L5020210115001158470010000000129784285300000008500CRESCENT1 CUS0044726          00200000000000                M EBRAHIM                                                                            
013L5020210115000108470010000000154179427100000008500CRESCENT1 CUS0045511          00200000000000                N ADAM                                                                               
013L5020210115000794800000000007860015483700000008500CRESCENT1 CUS0049352          00200000000000                E DHOOMA                                                                             
013L5020210115000820470010000000154140651400000008500CRESCENT1 CUS0055870          00200000000000                S SINGH                                                                              
013L5020210115000395470010000000130717228600000016000CRESCENT1 CUS0058986          00200000000000                G SAMPSON                                                                            
013L5020210115000955470010000000132459546700000008500CRESCENT1 CUS0056352          00200000000000                M BASADIEN                                                                           
013L5020210115000736051001000000042228701600000007500CRESCENT1 CUS0055567          00200000000000                N BAWREN                                                                             
013L5020210115000440470010000000115601701500000008500CRESCENT1 CUS0059071          00200000000000                A MOHLOLO                                                                            
013L5020210115000915051001000001011891639200000008500CRESCENT1 CUS0056124          00200000000000                S HASSANGY                                                                           
013L5020210115000180470010000000120616079700000008500CRESCENT1 CUS0058336          00200000000000                Z BUFFAINS                                                                           
013L5020210115000593051001000000007310216400000008500CRESCENT1 CUS0048294          00400000000000                A DAVIDS                                                                             
013L5020210115001241470010000000152277517800000008500CRESCENT1 CUS0007445          00200000000000                F ABOO BAKER                                                                         
013L5020210115000554051001000000040353837800000008500CRESCENT1 CUS0054335          00200000000000                W MEYER                                                                              
013L5020210115001003051001000000030230255700000023500CRESCENT1 CUS0043527          00600000000000                F SALEH                                                                              
013L5020210115000867051001000000002130314200000008500CRESCENT1 CUS0023068          00400000000000                F AJAM                                                                               
013L5020210115001145470010000000134631291300000008500CRESCENT1 CUS0057274          00400000000000                M SAMAAI                                                                             
013L5020210115000716470010000000137748526700000008500CRESCENT1 CUS0055529          00200000000000                R GALIE                                                                              
013L5020210115001100470010000000135500057000000008500CRESCENT1 CUS0057027          00600000000000                F ABRAHAMS                                                                           
013L5020210115001019051001000000025330857700000007500CRESCENT1 CUS0050522          00300000000000                S MASON                                                                              
013L5020210115000277051001000000018151943700000008500CRESCENT1 CUS0036652          00200000000000                M ALLY                                                                               
013L5020210115000553051001000001000708412700000008500CRESCENT1 CUS0048224          00400000000000                I ABDUL KHADIR                                                                       
013L5020210115001138470010000000161651496300000008500CRESCENT1 CUS0044503          00200000000000                P RAMOTHAR                                                                           
013L5020210115000885470010000000159241630400000008500CRESCENT1 CUS0056070          00200000000000                Y ABRAHAMS                                                                           
013L5020210115000375470010000000167392258700000008500CRESCENT1 CUS0058921          00200000000000                B MNISI                                                                              
013L5020210115000090470010000000151244854900000008500CRESCENT1 CUS0058159          00200000000000                D JULIUS                                                                             
013L5020210115001076051001000000020071948300000008500CRESCENT1 CUS0004785          00400000000000                K ILYAS                                                                              
013L5020210115001167051001000000002806224800000008500CRESCENT1 CUS0030866          00200000000000                M NANA                                                                               
013L5020210115000832470010000000123818162500000008500CRESCENT1 CUS0022845          01200000000000                T MFIHLO MAHOMMED                                                                    
013L5020210115000219051001000001004257205100000008500CRESCENT1 CUS0052502          00200000000000                F BEKKO                                                                              
013L5020210115000525470010000000140679953800000008500CRESCENT1 CUS0059265          00200000000000                M USMANI                                                                             
013L5020210115000800470010000000150438705600000008500CRESCENT1 CUS0055806          00200000000000                E GANIEF                                                                             
013L5020210115000255470010000000154528205400000008500CRESCENT1 CUS0058617          00200000000000                M FISHER                                                                             
013L5020210115000295470010000000166937117200000008500CRESCENT1 CUS0058715          00200000000000                Y TAGODIEN                                                                           
013L5020210115000350470010000000160853163300000008500CRESCENT1 CUS0058887          00400000000000                D JARDIEN                                                                            
013L5020210115000100470010000000156792026600000008500CRESCENT1 CUS0058180          00200000000000                D FISHER                                                                             
013L5020210115000680470010000000123285149100000008500CRESCENT1 CUS0059535          00200000000000                S ABRAHAMS                                                                           
013L5020210115000639470010000000121874744500000008500CRESCENT1 CUS0054956          00200000000000                H LEWIS                                                                              
014L0000001160000000000000005096301194920000000107480000000000000000                                                                                                                                  
019L0000001170000000000000005108847049250000000108330000000000000000                                                                                                                                  
999L000000125                                                                                                                                                                                         
